{
  "_format": "hh-sol-artifact-1",
  "contractName": "CustomSignaturesUpgradeable",
  "sourceName": "contracts/utils/CustomSignaturesUpgradeable.sol",
  "abi": [
    {
      "anonymous": false,
      "inputs": [],
      "name": "EIP712DomainChanged",
      "type": "event"
    },
    {
      "anonymous": false,
      "inputs": [
        {
          "indexed": false,
          "internalType": "uint8",
          "name": "version",
          "type": "uint8"
        }
      ],
      "name": "Initialized",
      "type": "event"
    },
    {
      "anonymous": false,
      "inputs": [
        {
          "indexed": false,
          "internalType": "bytes",
          "name": "signature",
          "type": "bytes"
        },
        {
          "components": [
            {
              "internalType": "uint256",
              "name": "deadline",
              "type": "uint256"
            },
            {
              "internalType": "string",
              "name": "description",
              "type": "string"
            },
            {
              "internalType": "address",
              "name": "signer",
              "type": "address"
            },
            {
              "internalType": "address",
              "name": "to",
              "type": "address"
            },
            {
              "internalType": "uint256",
              "name": "tokenId",
              "type": "uint256"
            },
            {
              "internalType": "uint256",
              "name": "amount",
              "type": "uint256"
            },
            {
              "internalType": "uint256",
              "name": "nonce",
              "type": "uint256"
            }
          ],
          "indexed": false,
          "internalType": "struct signatureTransferPayload",
          "name": "payload",
          "type": "tuple"
        }
      ],
      "name": "TransferSignatureValid",
      "type": "event"
    },
    {
      "inputs": [],
      "name": "eip712Domain",
      "outputs": [
        {
          "internalType": "bytes1",
          "name": "fields",
          "type": "bytes1"
        },
        {
          "internalType": "string",
          "name": "name",
          "type": "string"
        },
        {
          "internalType": "string",
          "name": "version",
          "type": "string"
        },
        {
          "internalType": "uint256",
          "name": "chainId",
          "type": "uint256"
        },
        {
          "internalType": "address",
          "name": "verifyingContract",
          "type": "address"
        },
        {
          "internalType": "bytes32",
          "name": "salt",
          "type": "bytes32"
        },
        {
          "internalType": "uint256[]",
          "name": "extensions",
          "type": "uint256[]"
        }
      ],
      "stateMutability": "view",
      "type": "function"
    },
    {
      "inputs": [
        {
          "internalType": "address",
          "name": "",
          "type": "address"
        }
      ],
      "name": "signatureNonces",
      "outputs": [
        {
          "internalType": "uint32",
          "name": "",
          "type": "uint32"
        }
      ],
      "stateMutability": "view",
      "type": "function"
    }
  ],
  "bytecode": "0x608060405234801561001057600080fd5b50610360806100206000396000f3fe608060405234801561001057600080fd5b50600436106100365760003560e01c806384b0196e1461003b578063dbd8483d1461005f575b600080fd5b61004361009a565b604051610056979695949392919061022a565b60405180910390f35b61008561006d3660046102c0565b60356020526000908152604090205463ffffffff1681565b60405163ffffffff9091168152602001610056565b6000606080600080600060606001546000801b1480156100ba5750600254155b6101025760405162461bcd60e51b81526020600482015260156024820152741152540dcc4c8e88155b9a5b9a5d1a585b1a5e9959605a1b604482015260640160405180910390fd5b61010a61013c565b6101126101ce565b60408051600080825260208201909252600f60f81b9b939a50919850469750309650945092509050565b60606003805461014b906102f0565b80601f0160208091040260200160405190810160405280929190818152602001828054610177906102f0565b80156101c45780601f10610199576101008083540402835291602001916101c4565b820191906000526020600020905b8154815290600101906020018083116101a757829003601f168201915b5050505050905090565b60606004805461014b906102f0565b6000815180845260005b81811015610203576020818501810151868301820152016101e7565b81811115610215576000602083870101525b50601f01601f19169290920160200192915050565b60ff60f81b881681526000602060e08184015261024a60e084018a6101dd565b838103604085015261025c818a6101dd565b606085018990526001600160a01b038816608086015260a0850187905284810360c0860152855180825283870192509083019060005b818110156102ae57835183529284019291840191600101610292565b50909c9b505050505050505050505050565b6000602082840312156102d257600080fd5b81356001600160a01b03811681146102e957600080fd5b9392505050565b600181811c9082168061030457607f821691505b60208210810361032457634e487b7160e01b600052602260045260246000fd5b5091905056fea264697066735822122057df4e0e798e431a60dae93f82c8f59a5dbede1bd77ceade5606420e16b115e464736f6c634300080d0033",
  "linkReferences": {},
  "deployedLinkReferences": {}
}