{
  "_format": "hh-sol-artifact-1",
  "contractName": "MarketplaceFactory",
  "sourceName": "contracts/marketplaces/MarketplaceFactory.sol",
  "abi": [
    {
      "inputs": [],
      "stateMutability": "nonpayable",
      "type": "constructor"
    },
    {
      "anonymous": false,
      "inputs": [
        {
          "indexed": false,
          "internalType": "address",
          "name": "previousAdmin",
          "type": "address"
        },
        {
          "indexed": false,
          "internalType": "address",
          "name": "newAdmin",
          "type": "address"
        }
      ],
      "name": "AdminChanged",
      "type": "event"
    },
    {
      "anonymous": false,
      "inputs": [
        {
          "indexed": true,
          "internalType": "address",
          "name": "beacon",
          "type": "address"
        }
      ],
      "name": "BeaconUpgraded",
      "type": "event"
    },
    {
      "anonymous": false,
      "inputs": [
        {
          "indexed": false,
          "internalType": "uint8",
          "name": "version",
          "type": "uint8"
        }
      ],
      "name": "Initialized",
      "type": "event"
    },
    {
      "anonymous": false,
      "inputs": [
        {
          "indexed": true,
          "internalType": "address",
          "name": "marketplaceAddress",
          "type": "address"
        },
        {
          "indexed": true,
          "internalType": "uint256",
          "name": "marketplaceId",
          "type": "uint256"
        },
        {
          "indexed": false,
          "internalType": "string",
          "name": "marketplaceName",
          "type": "string"
        }
      ],
      "name": "MarketplaceAdded",
      "type": "event"
    },
    {
      "anonymous": false,
      "inputs": [
        {
          "indexed": false,
          "internalType": "address",
          "name": "account",
          "type": "address"
        }
      ],
      "name": "Paused",
      "type": "event"
    },
    {
      "anonymous": false,
      "inputs": [
        {
          "indexed": true,
          "internalType": "bytes32",
          "name": "role",
          "type": "bytes32"
        },
        {
          "indexed": true,
          "internalType": "bytes32",
          "name": "previousAdminRole",
          "type": "bytes32"
        },
        {
          "indexed": true,
          "internalType": "bytes32",
          "name": "newAdminRole",
          "type": "bytes32"
        }
      ],
      "name": "RoleAdminChanged",
      "type": "event"
    },
    {
      "anonymous": false,
      "inputs": [
        {
          "indexed": true,
          "internalType": "bytes32",
          "name": "role",
          "type": "bytes32"
        },
        {
          "indexed": true,
          "internalType": "address",
          "name": "account",
          "type": "address"
        },
        {
          "indexed": true,
          "internalType": "address",
          "name": "sender",
          "type": "address"
        }
      ],
      "name": "RoleGranted",
      "type": "event"
    },
    {
      "anonymous": false,
      "inputs": [
        {
          "indexed": true,
          "internalType": "bytes32",
          "name": "role",
          "type": "bytes32"
        },
        {
          "indexed": true,
          "internalType": "address",
          "name": "account",
          "type": "address"
        },
        {
          "indexed": true,
          "internalType": "address",
          "name": "sender",
          "type": "address"
        }
      ],
      "name": "RoleRevoked",
      "type": "event"
    },
    {
      "anonymous": false,
      "inputs": [
        {
          "indexed": false,
          "internalType": "address",
          "name": "account",
          "type": "address"
        }
      ],
      "name": "Unpaused",
      "type": "event"
    },
    {
      "anonymous": false,
      "inputs": [
        {
          "indexed": true,
          "internalType": "address",
          "name": "implementation",
          "type": "address"
        }
      ],
      "name": "Upgraded",
      "type": "event"
    },
    {
      "inputs": [],
      "name": "DEFAULT_ADMIN_ROLE",
      "outputs": [
        {
          "internalType": "bytes32",
          "name": "",
          "type": "bytes32"
        }
      ],
      "stateMutability": "view",
      "type": "function"
    },
    {
      "inputs": [],
      "name": "PAUSER_ROLE",
      "outputs": [
        {
          "internalType": "bytes32",
          "name": "",
          "type": "bytes32"
        }
      ],
      "stateMutability": "view",
      "type": "function"
    },
    {
      "inputs": [],
      "name": "UPGRADER_ROLE",
      "outputs": [
        {
          "internalType": "bytes32",
          "name": "",
          "type": "bytes32"
        }
      ],
      "stateMutability": "view",
      "type": "function"
    },
    {
      "inputs": [
        {
          "internalType": "string",
          "name": "_marketplaceName",
          "type": "string"
        }
      ],
      "name": "createMarketplace",
      "outputs": [
        {
          "internalType": "address",
          "name": "",
          "type": "address"
        }
      ],
      "stateMutability": "nonpayable",
      "type": "function"
    },
    {
      "inputs": [],
      "name": "getBeaconAddress",
      "outputs": [
        {
          "internalType": "address",
          "name": "",
          "type": "address"
        }
      ],
      "stateMutability": "view",
      "type": "function"
    },
    {
      "inputs": [],
      "name": "getCurrentMarketplaceCounter",
      "outputs": [
        {
          "internalType": "uint256",
          "name": "",
          "type": "uint256"
        }
      ],
      "stateMutability": "view",
      "type": "function"
    },
    {
      "inputs": [
        {
          "internalType": "uint256",
          "name": "id",
          "type": "uint256"
        }
      ],
      "name": "getMarketplaceVaultAddress",
      "outputs": [
        {
          "internalType": "address",
          "name": "",
          "type": "address"
        }
      ],
      "stateMutability": "view",
      "type": "function"
    },
    {
      "inputs": [
        {
          "internalType": "bytes32",
          "name": "role",
          "type": "bytes32"
        }
      ],
      "name": "getRoleAdmin",
      "outputs": [
        {
          "internalType": "bytes32",
          "name": "",
          "type": "bytes32"
        }
      ],
      "stateMutability": "view",
      "type": "function"
    },
    {
      "inputs": [
        {
          "internalType": "bytes32",
          "name": "role",
          "type": "bytes32"
        },
        {
          "internalType": "address",
          "name": "account",
          "type": "address"
        }
      ],
      "name": "grantRole",
      "outputs": [],
      "stateMutability": "nonpayable",
      "type": "function"
    },
    {
      "inputs": [
        {
          "internalType": "bytes32",
          "name": "role",
          "type": "bytes32"
        },
        {
          "internalType": "address",
          "name": "account",
          "type": "address"
        }
      ],
      "name": "hasRole",
      "outputs": [
        {
          "internalType": "bool",
          "name": "",
          "type": "bool"
        }
      ],
      "stateMutability": "view",
      "type": "function"
    },
    {
      "inputs": [
        {
          "internalType": "address",
          "name": "beaconAddress",
          "type": "address"
        }
      ],
      "name": "initialize",
      "outputs": [],
      "stateMutability": "nonpayable",
      "type": "function"
    },
    {
      "inputs": [],
      "name": "pause",
      "outputs": [],
      "stateMutability": "nonpayable",
      "type": "function"
    },
    {
      "inputs": [],
      "name": "paused",
      "outputs": [
        {
          "internalType": "bool",
          "name": "",
          "type": "bool"
        }
      ],
      "stateMutability": "view",
      "type": "function"
    },
    {
      "inputs": [],
      "name": "proxiableUUID",
      "outputs": [
        {
          "internalType": "bytes32",
          "name": "",
          "type": "bytes32"
        }
      ],
      "stateMutability": "view",
      "type": "function"
    },
    {
      "inputs": [
        {
          "internalType": "bytes32",
          "name": "role",
          "type": "bytes32"
        },
        {
          "internalType": "address",
          "name": "account",
          "type": "address"
        }
      ],
      "name": "renounceRole",
      "outputs": [],
      "stateMutability": "nonpayable",
      "type": "function"
    },
    {
      "inputs": [
        {
          "internalType": "bytes32",
          "name": "role",
          "type": "bytes32"
        },
        {
          "internalType": "address",
          "name": "account",
          "type": "address"
        }
      ],
      "name": "revokeRole",
      "outputs": [],
      "stateMutability": "nonpayable",
      "type": "function"
    },
    {
      "inputs": [
        {
          "internalType": "address",
          "name": "_newBeaconAddress",
          "type": "address"
        }
      ],
      "name": "setBeaconAddress",
      "outputs": [],
      "stateMutability": "nonpayable",
      "type": "function"
    },
    {
      "inputs": [
        {
          "internalType": "bytes4",
          "name": "interfaceId",
          "type": "bytes4"
        }
      ],
      "name": "supportsInterface",
      "outputs": [
        {
          "internalType": "bool",
          "name": "",
          "type": "bool"
        }
      ],
      "stateMutability": "view",
      "type": "function"
    },
    {
      "inputs": [],
      "name": "testUpgrade",
      "outputs": [
        {
          "internalType": "string",
          "name": "",
          "type": "string"
        }
      ],
      "stateMutability": "pure",
      "type": "function"
    },
    {
      "inputs": [],
      "name": "unpause",
      "outputs": [],
      "stateMutability": "nonpayable",
      "type": "function"
    },
    {
      "inputs": [
        {
          "internalType": "address",
          "name": "newImplementation",
          "type": "address"
        }
      ],
      "name": "upgradeTo",
      "outputs": [],
      "stateMutability": "nonpayable",
      "type": "function"
    },
    {
      "inputs": [
        {
          "internalType": "address",
          "name": "newImplementation",
          "type": "address"
        },
        {
          "internalType": "bytes",
          "name": "data",
          "type": "bytes"
        }
      ],
      "name": "upgradeToAndCall",
      "outputs": [],
      "stateMutability": "payable",
      "type": "function"
    }
  ],
  "bytecode": "0x60a06040523060805234801561001457600080fd5b5061001d610022565b6100e1565b600054610100900460ff161561008e5760405162461bcd60e51b815260206004820152602760248201527f496e697469616c697a61626c653a20636f6e747261637420697320696e697469604482015266616c697a696e6760c81b606482015260840160405180910390fd5b60005460ff908116146100df576000805460ff191660ff9081179091556040519081527f7f26b83ff96e1f2b6a682f133852f6798a09c465da95921460cefb38474024989060200160405180910390a15b565b6080516123086101186000396000818161055001528181610593015281816106490152818161068c015261070d01526123086000f3fe6080604052600436106200011b5760003560e01c80629d4d7a146200012057806301ffc9a71462000154578063248a9ca3146200018a5780632f2ff15d14620001be57806336568abe14620001e55780633659cfe6146200020a5780633f4ba83a146200022f5780634f1ef286146200024757806352d1902d146200025e5780635c4fe00e14620002765780635c975abb14620002b15780638456cb5914620002cb5780638c3a1c9414620002e357806391d1485414620002fb5780639213034414620003205780639d6aed0b1462000345578063a217fddf146200037c578063c3d09ae11462000393578063c4d66de814620003b8578063d547741f14620003dd578063e63ab1e91462000402578063f72c0d8b1462000427575b600080fd5b3480156200012d57600080fd5b5061012d546001600160a01b03165b6040516200014b919062001489565b60405180910390f35b3480156200016157600080fd5b5062000179620001733660046200149d565b6200044c565b60405190151581526020016200014b565b3480156200019757600080fd5b50620001af620001a9366004620014c9565b62000484565b6040519081526020016200014b565b348015620001cb57600080fd5b50620001e3620001dd36600462001500565b62000499565b005b348015620001f257600080fd5b50620001e36200020436600462001500565b620004c0565b3480156200021757600080fd5b50620001e3620002293660046200152f565b62000546565b3480156200023c57600080fd5b50620001e36200061a565b620001e362000258366004620015df565b6200063f565b3480156200026b57600080fd5b50620001af62000700565b3480156200028357600080fd5b506200013c62000295366004620014c9565b600090815261012f60205260409020546001600160a01b031690565b348015620002be57600080fd5b5060335460ff1662000179565b348015620002d857600080fd5b50620001e3620007b1565b348015620002f057600080fd5b5061012e54620001af565b3480156200030857600080fd5b50620001796200031a36600462001500565b620007d6565b3480156200032d57600080fd5b50620001e36200033f3660046200152f565b62000801565b3480156200035257600080fd5b506040805180820182526005815264302e302e3160d81b602082015290516200014b9190620016a4565b3480156200038957600080fd5b50620001af600081565b348015620003a057600080fd5b506200013c620003b2366004620016b9565b62000832565b348015620003c557600080fd5b50620001e3620003d73660046200152f565b620009ad565b348015620003ea57600080fd5b50620001e3620003fc36600462001500565b62000b43565b3480156200040f57600080fd5b50620001af6000805160206200228c83398151915281565b3480156200043457600080fd5b50620001af6000805160206200224c83398151915281565b60006001600160e01b03198216637965db0b60e01b14806200047e57506301ffc9a760e01b6001600160e01b03198316145b92915050565b60009081526097602052604090206001015490565b620004a48262000484565b620004af8162000b65565b620004bb838362000b71565b505050565b6001600160a01b0381163314620005365760405162461bcd60e51b815260206004820152602f60248201527f416363657373436f6e74726f6c3a2063616e206f6e6c792072656e6f756e636560448201526e103937b632b9903337b91039b2b63360891b60648201526084015b60405180910390fd5b62000542828262000bfb565b5050565b6001600160a01b037f0000000000000000000000000000000000000000000000000000000000000000163003620005915760405162461bcd60e51b81526004016200052d9062001706565b7f00000000000000000000000000000000000000000000000000000000000000006001600160a01b0316620005c562000c65565b6001600160a01b031614620005ee5760405162461bcd60e51b81526004016200052d9062001741565b620005f98162000c82565b60408051600080825260208201909252620006179183919062000c9d565b50565b6000805160206200228c833981519152620006358162000b65565b6200061762000e15565b6001600160a01b037f00000000000000000000000000000000000000000000000000000000000000001630036200068a5760405162461bcd60e51b81526004016200052d9062001706565b7f00000000000000000000000000000000000000000000000000000000000000006001600160a01b0316620006be62000c65565b6001600160a01b031614620006e75760405162461bcd60e51b81526004016200052d9062001741565b620006f28262000c82565b620005428282600162000c9d565b6000306001600160a01b037f000000000000000000000000000000000000000000000000000000000000000016146200079d5760405162461bcd60e51b815260206004820152603860248201527f555550535570677261646561626c653a206d757374206e6f742062652063616c6044820152771b1959081d1a1c9bdd59da0819195b1959d85d1958d85b1b60421b60648201526084016200052d565b506000805160206200226c83398151915290565b6000805160206200228c833981519152620007cc8162000b65565b6200061762000e65565b60009182526097602090815260408084206001600160a01b0393909316845291905290205460ff1690565b60006200080e8162000b65565b5061012d80546001600160a01b0319166001600160a01b0392909216919091179055565b60006200083e62000ea5565b60006200084b8162000b65565b604080518082018252601a815279696e697469616c697a6528616464726573732c737472696e672960301b6020820152905160009082906200089490339088906024016200177c565b60408051601f198184030181529082905291620008b191620017a2565b60408051918290039091206020830180516001600160e01b03166001600160e01b031990921691909117905261012d5490519192506000916001600160a01b0390911690839062000902906200147b565b6200090f9291906200177c565b604051809103906000f0801580156200092c573d6000803e3d6000fd5b5061012e8054600101808255600090815261012f60205260409081902080546001600160a01b0319166001600160a01b03851690811790915591549051929350917ff9beffbf5eb8e60bf867a65f895edd4381bcf88a2e87a2b36d643e8255c875e7906200099c908a90620016a4565b60405180910390a395945050505050565b600054610100900460ff1615808015620009ce5750600054600160ff909116105b80620009f35750620009e03062000eef565b158015620009f3575060005460ff166001145b62000a585760405162461bcd60e51b815260206004820152602e60248201527f496e697469616c697a61626c653a20636f6e747261637420697320616c72656160448201526d191e481a5b9a5d1a585b1a5e995960921b60648201526084016200052d565b6000805460ff19166001179055801562000a7c576000805461ff0019166101001790555b62000a8662000efe565b62000a9062000f32565b62000a9a62000f32565b62000aa760003362000b71565b62000ac26000805160206200224c8339815191523362000b71565b62000add6000805160206200228c8339815191523362000b71565b61012d80546001600160a01b0319166001600160a01b038416179055801562000542576000805461ff0019169055604051600181527f7f26b83ff96e1f2b6a682f133852f6798a09c465da95921460cefb38474024989060200160405180910390a15050565b62000b4e8262000484565b62000b598162000b65565b620004bb838362000bfb565b62000617813362000f5c565b62000b7d8282620007d6565b620005425760008281526097602090815260408083206001600160a01b03851684529091529020805460ff1916600117905562000bb73390565b6001600160a01b0316816001600160a01b0316837f2f8788117e7eff1d82e926ec794901d17c78024a50270940304540a733656f0d60405160405180910390a45050565b62000c078282620007d6565b15620005425760008281526097602090815260408083206001600160a01b0385168085529252808320805460ff1916905551339285917ff6391f5c32d9c69d2a47ea670b442974b53935d1edc7fd64eb21e047a839171b9190a45050565b6000805160206200226c833981519152546001600160a01b031690565b6000805160206200224c833981519152620005428162000b65565b7f4910fdfa16fed3260ed0e7147f7cc6da11a60208b5b9406d12a635614ffd91435460ff161562000cd357620004bb8362000fc0565b826001600160a01b03166352d1902d6040518163ffffffff1660e01b8152600401602060405180830381865afa92505050801562000d30575060408051601f3d908101601f1916820190925262000d2d91810190620017c0565b60015b62000d955760405162461bcd60e51b815260206004820152602e60248201527f45524331393637557067726164653a206e657720696d706c656d656e7461746960448201526d6f6e206973206e6f74205555505360901b60648201526084016200052d565b6000805160206200226c833981519152811462000e075760405162461bcd60e51b815260206004820152602960248201527f45524331393637557067726164653a20756e737570706f727465642070726f786044820152681a58589b195555525160ba1b60648201526084016200052d565b50620004bb8383836200105f565b62000e1f62001090565b6033805460ff191690557f5db9ee0a495bf2e6ff9c91a7834c1ba4fdd244a5e8aa4e537bd38aeae4b073aa335b60405162000e5b919062001489565b60405180910390a1565b62000e6f62000ea5565b6033805460ff191660011790557f62e78cea01bee320cd4e420270b5ea74000d11b0c9f74754ebdbfc544b05a25862000e4c3390565b60335460ff161562000eed5760405162461bcd60e51b815260206004820152601060248201526f14185d5cd8589b194e881c185d5cd95960821b60448201526064016200052d565b565b6001600160a01b03163b151590565b600054610100900460ff1662000f285760405162461bcd60e51b81526004016200052d90620017da565b62000eed620010db565b600054610100900460ff1662000eed5760405162461bcd60e51b81526004016200052d90620017da565b62000f688282620007d6565b620005425762000f788162001111565b62000f8583602062001124565b60405160200162000f9892919062001825565b60408051601f198184030181529082905262461bcd60e51b82526200052d91600401620016a4565b62000fcb8162000eef565b6200102f5760405162461bcd60e51b815260206004820152602d60248201527f455243313936373a206e657720696d706c656d656e746174696f6e206973206e60448201526c1bdd08184818dbdb9d1c9858dd609a1b60648201526084016200052d565b6000805160206200226c83398151915280546001600160a01b0319166001600160a01b0392909216919091179055565b6200106a83620012e4565b600082511180620010785750805b15620004bb576200108a838362001326565b50505050565b60335460ff1662000eed5760405162461bcd60e51b815260206004820152601460248201527314185d5cd8589b194e881b9bdd081c185d5cd95960621b60448201526064016200052d565b600054610100900460ff16620011055760405162461bcd60e51b81526004016200052d90620017da565b6033805460ff19169055565b60606200047e6001600160a01b03831660145b6060600062001135836002620018ae565b62001142906002620018d0565b6001600160401b038111156200115c576200115c6200154d565b6040519080825280601f01601f19166020018201604052801562001187576020820181803683370190505b509050600360fc1b81600081518110620011a557620011a5620018eb565b60200101906001600160f81b031916908160001a905350600f60fb1b81600181518110620011d757620011d7620018eb565b60200101906001600160f81b031916908160001a9053506000620011fd846002620018ae565b6200120a906001620018d0565b90505b60018111156200128c576f181899199a1a9b1b9c1cb0b131b232b360811b85600f1660108110620012425762001242620018eb565b1a60f81b8282815181106200125b576200125b620018eb565b60200101906001600160f81b031916908160001a90535060049490941c93620012848162001901565b90506200120d565b508315620012dd5760405162461bcd60e51b815260206004820181905260248201527f537472696e67733a20686578206c656e67746820696e73756666696369656e7460448201526064016200052d565b9392505050565b620012ef8162000fc0565b6040516001600160a01b038216907fbc7cd75a20ee27fd9adebab32041f755214dbc6bffa90cc0225b39da2e5c2d3b90600090a250565b6060620012dd8383604051806060016040528060278152602001620022ac602791396060600080856001600160a01b031685604051620013679190620017a2565b600060405180830381855af49150503d8060008114620013a4576040519150601f19603f3d011682016040523d82523d6000602084013e620013a9565b606091505b5091509150620013bc86838387620013c6565b9695505050505050565b606083156200143a5782516000036200143257620013e48562000eef565b620014325760405162461bcd60e51b815260206004820152601d60248201527f416464726573733a2063616c6c20746f206e6f6e2d636f6e747261637400000060448201526064016200052d565b508162001446565b6200144683836200144e565b949350505050565b8151156200145f5781518083602001fd5b8060405162461bcd60e51b81526004016200052d9190620016a4565b610910806200191c83390190565b6001600160a01b0391909116815260200190565b600060208284031215620014b057600080fd5b81356001600160e01b031981168114620012dd57600080fd5b600060208284031215620014dc57600080fd5b5035919050565b80356001600160a01b0381168114620014fb57600080fd5b919050565b600080604083850312156200151457600080fd5b823591506200152660208401620014e3565b90509250929050565b6000602082840312156200154257600080fd5b620012dd82620014e3565b634e487b7160e01b600052604160045260246000fd5b60006001600160401b03808411156200158057620015806200154d565b604051601f8501601f19908116603f01168101908282118183101715620015ab57620015ab6200154d565b81604052809350858152868686011115620015c557600080fd5b858560208301376000602087830101525050509392505050565b60008060408385031215620015f357600080fd5b620015fe83620014e3565b915060208301356001600160401b038111156200161a57600080fd5b8301601f810185136200162c57600080fd5b6200163d8582356020840162001563565b9150509250929050565b60005b83811015620016645781810151838201526020016200164a565b838111156200108a5750506000910152565b600081518084526200169081602086016020860162001647565b601f01601f19169290920160200192915050565b602081526000620012dd602083018462001676565b600060208284031215620016cc57600080fd5b81356001600160401b03811115620016e357600080fd5b8201601f81018413620016f557600080fd5b620014468482356020840162001563565b6020808252602c908201526000805160206200222c83398151915260408201526b19195b1959d85d1958d85b1b60a21b606082015260800190565b6020808252602c908201526000805160206200222c83398151915260408201526b6163746976652070726f787960a01b606082015260800190565b6001600160a01b0383168152604060208201819052600090620014469083018462001676565b60008251620017b681846020870162001647565b9190910192915050565b600060208284031215620017d357600080fd5b5051919050565b6020808252602b908201527f496e697469616c697a61626c653a20636f6e7472616374206973206e6f74206960408201526a6e697469616c697a696e6760a81b606082015260800190565b76020b1b1b2b9b9a1b7b73a3937b61d1030b1b1b7bab73a1604d1b8152600083516200185981601785016020880162001647565b7001034b99036b4b9b9b4b733903937b6329607d1b60179184019182015283516200188c81602884016020880162001647565b01602801949350505050565b634e487b7160e01b600052601160045260246000fd5b6000816000190483118215151615620018cb57620018cb62001898565b500290565b60008219821115620018e657620018e662001898565b500190565b634e487b7160e01b600052603260045260246000fd5b60008162001913576200191362001898565b50600019019056fe608060405260405161091038038061091083398101604081905261002291610461565b61002e82826000610035565b505061058b565b61003e83610100565b6040516001600160a01b038416907f1cf3b03a6cf19fa2baba4df148e9dcabedea7f8a5c07840e207e5c089be95d3e90600090a260008251118061007f5750805b156100fb576100f9836001600160a01b0316635c60da1b6040518163ffffffff1660e01b8152600401602060405180830381865afa1580156100c5573d6000803e3d6000fd5b505050506040513d601f19601f820116820180604052508101906100e99190610521565b836102a360201b6100291760201c565b505b505050565b610113816102cf60201b6100551760201c565b6101725760405162461bcd60e51b815260206004820152602560248201527f455243313936373a206e657720626561636f6e206973206e6f74206120636f6e6044820152641d1c9858dd60da1b60648201526084015b60405180910390fd5b6101e6816001600160a01b0316635c60da1b6040518163ffffffff1660e01b8152600401602060405180830381865afa1580156101b3573d6000803e3d6000fd5b505050506040513d601f19601f820116820180604052508101906101d79190610521565b6102cf60201b6100551760201c565b61024b5760405162461bcd60e51b815260206004820152603060248201527f455243313936373a20626561636f6e20696d706c656d656e746174696f6e206960448201526f1cc81b9bdd08184818dbdb9d1c9858dd60821b6064820152608401610169565b806102827fa3f0ad74e5423aebfd80d3ef4346578335a9a72aeaee59ff6cb3582b35133d5060001b6102de60201b6100641760201c565b80546001600160a01b0319166001600160a01b039290921691909117905550565b60606102c883836040518060600160405280602781526020016108e9602791396102e1565b9392505050565b6001600160a01b03163b151590565b90565b6060600080856001600160a01b0316856040516102fe919061053c565b600060405180830381855af49150503d8060008114610339576040519150601f19603f3d011682016040523d82523d6000602084013e61033e565b606091505b5090925090506103508683838761035a565b9695505050505050565b606083156103c75782516000036103c057610374856102cf565b6103c05760405162461bcd60e51b815260206004820152601d60248201527f416464726573733a2063616c6c20746f206e6f6e2d636f6e74726163740000006044820152606401610169565b50816103d1565b6103d183836103d9565b949350505050565b8151156103e95781518083602001fd5b8060405162461bcd60e51b81526004016101699190610558565b80516001600160a01b038116811461041a57600080fd5b919050565b634e487b7160e01b600052604160045260246000fd5b60005b83811015610450578181015183820152602001610438565b838111156100f95750506000910152565b6000806040838503121561047457600080fd5b61047d83610403565b60208401519092506001600160401b038082111561049a57600080fd5b818501915085601f8301126104ae57600080fd5b8151818111156104c0576104c061041f565b604051601f8201601f19908116603f011681019083821181831017156104e8576104e861041f565b8160405282815288602084870101111561050157600080fd5b610512836020830160208801610435565b80955050505050509250929050565b60006020828403121561053357600080fd5b6102c882610403565b6000825161054e818460208701610435565b9190910192915050565b6020815260008251806020840152610577816040850160208701610435565b601f01601f19169190910160400192915050565b61034f8061059a6000396000f3fe60806040523661001357610011610017565b005b6100115b610027610022610067565b610100565b565b606061004e83836040518060600160405280602781526020016102f360279139610124565b9392505050565b6001600160a01b03163b151590565b90565b600061009a7fa3f0ad74e5423aebfd80d3ef4346578335a9a72aeaee59ff6cb3582b35133d50546001600160a01b031690565b6001600160a01b0316635c60da1b6040518163ffffffff1660e01b8152600401602060405180830381865afa1580156100d7573d6000803e3d6000fd5b505050506040513d601f19601f820116820180604052508101906100fb919061024a565b905090565b3660008037600080366000845af43d6000803e80801561011f573d6000f35b3d6000fd5b6060600080856001600160a01b03168560405161014191906102a3565b600060405180830381855af49150503d806000811461017c576040519150601f19603f3d011682016040523d82523d6000602084013e610181565b606091505b50915091506101928683838761019c565b9695505050505050565b6060831561020e578251600003610207576101b685610055565b6102075760405162461bcd60e51b815260206004820152601d60248201527f416464726573733a2063616c6c20746f206e6f6e2d636f6e747261637400000060448201526064015b60405180910390fd5b5081610218565b6102188383610220565b949350505050565b8151156102305781518083602001fd5b8060405162461bcd60e51b81526004016101fe91906102bf565b60006020828403121561025c57600080fd5b81516001600160a01b038116811461004e57600080fd5b60005b8381101561028e578181015183820152602001610276565b8381111561029d576000848401525b50505050565b600082516102b5818460208701610273565b9190910192915050565b60208152600082518060208401526102de816040850160208701610273565b601f01601f1916919091016040019291505056fe416464726573733a206c6f772d6c6576656c2064656c65676174652063616c6c206661696c6564a264697066735822122048cae396554de588e42a40830b5efb59ad2cb405b3e8e950e04b86c62d45608d64736f6c634300080d0033416464726573733a206c6f772d6c6576656c2064656c65676174652063616c6c206661696c656446756e6374696f6e206d7573742062652063616c6c6564207468726f75676820189ab7a9244df0848122154315af71fe140f3db0fe014031783b0946b8c9d2e3360894a13ba1a3210667c828492db98dca3e2076cc3735a920a3ca505d382bbc65d7a28e3265b37a6474929f336521b332c1681b933f6cb9f3376673440d862a416464726573733a206c6f772d6c6576656c2064656c65676174652063616c6c206661696c6564a26469706673582212205a179e1dde7c1629d360898f2b1747eb39ff755d5048e58f9be3715325a749ce64736f6c634300080d0033",
  "linkReferences": {},
  "deployedLinkReferences": {}
}