{
  "_format": "hh-sol-artifact-1",
  "contractName": "MarketplaceVault",
  "sourceName": "contracts/marketplaces/MarketplaceVault.sol",
  "abi": [
    {
      "inputs": [],
      "stateMutability": "nonpayable",
      "type": "constructor"
    },
    {
      "anonymous": false,
      "inputs": [
        {
          "indexed": false,
          "internalType": "address",
          "name": "token",
          "type": "address"
        },
        {
          "indexed": false,
          "internalType": "address",
          "name": "to",
          "type": "address"
        },
        {
          "indexed": false,
          "internalType": "address",
          "name": "previousOwner",
          "type": "address"
        },
        {
          "indexed": false,
          "internalType": "uint256",
          "name": "tokenId",
          "type": "uint256"
        },
        {
          "indexed": false,
          "internalType": "uint256",
          "name": "amount",
          "type": "uint256"
        },
        {
          "indexed": false,
          "internalType": "enum MarketplaceVault.TransferReason",
          "name": "reason",
          "type": "uint8"
        }
      ],
      "name": "CreditVaultTransfer",
      "type": "event"
    },
    {
      "anonymous": false,
      "inputs": [
        {
          "indexed": false,
          "internalType": "uint8",
          "name": "version",
          "type": "uint8"
        }
      ],
      "name": "Initialized",
      "type": "event"
    },
    {
      "anonymous": false,
      "inputs": [
        {
          "indexed": true,
          "internalType": "bytes32",
          "name": "role",
          "type": "bytes32"
        },
        {
          "indexed": true,
          "internalType": "bytes32",
          "name": "previousAdminRole",
          "type": "bytes32"
        },
        {
          "indexed": true,
          "internalType": "bytes32",
          "name": "newAdminRole",
          "type": "bytes32"
        }
      ],
      "name": "RoleAdminChanged",
      "type": "event"
    },
    {
      "anonymous": false,
      "inputs": [
        {
          "indexed": true,
          "internalType": "bytes32",
          "name": "role",
          "type": "bytes32"
        },
        {
          "indexed": true,
          "internalType": "address",
          "name": "account",
          "type": "address"
        },
        {
          "indexed": true,
          "internalType": "address",
          "name": "sender",
          "type": "address"
        }
      ],
      "name": "RoleGranted",
      "type": "event"
    },
    {
      "anonymous": false,
      "inputs": [
        {
          "indexed": true,
          "internalType": "bytes32",
          "name": "role",
          "type": "bytes32"
        },
        {
          "indexed": true,
          "internalType": "address",
          "name": "account",
          "type": "address"
        },
        {
          "indexed": true,
          "internalType": "address",
          "name": "sender",
          "type": "address"
        }
      ],
      "name": "RoleRevoked",
      "type": "event"
    },
    {
      "inputs": [],
      "name": "DEFAULT_ADMIN_ROLE",
      "outputs": [
        {
          "internalType": "bytes32",
          "name": "",
          "type": "bytes32"
        }
      ],
      "stateMutability": "view",
      "type": "function"
    },
    {
      "inputs": [],
      "name": "FUND_MOVER_ROLE",
      "outputs": [
        {
          "internalType": "bytes32",
          "name": "",
          "type": "bytes32"
        }
      ],
      "stateMutability": "view",
      "type": "function"
    },
    {
      "inputs": [],
      "name": "UPGRADER_ROLE",
      "outputs": [
        {
          "internalType": "bytes32",
          "name": "",
          "type": "bytes32"
        }
      ],
      "stateMutability": "view",
      "type": "function"
    },
    {
      "inputs": [
        {
          "internalType": "address",
          "name": "",
          "type": "address"
        },
        {
          "internalType": "uint256",
          "name": "",
          "type": "uint256"
        },
        {
          "internalType": "address",
          "name": "",
          "type": "address"
        }
      ],
      "name": "balances",
      "outputs": [
        {
          "internalType": "uint256",
          "name": "",
          "type": "uint256"
        }
      ],
      "stateMutability": "view",
      "type": "function"
    },
    {
      "inputs": [
        {
          "internalType": "bytes32",
          "name": "role",
          "type": "bytes32"
        }
      ],
      "name": "getRoleAdmin",
      "outputs": [
        {
          "internalType": "bytes32",
          "name": "",
          "type": "bytes32"
        }
      ],
      "stateMutability": "view",
      "type": "function"
    },
    {
      "inputs": [
        {
          "internalType": "bytes32",
          "name": "role",
          "type": "bytes32"
        },
        {
          "internalType": "address",
          "name": "account",
          "type": "address"
        }
      ],
      "name": "grantRole",
      "outputs": [],
      "stateMutability": "nonpayable",
      "type": "function"
    },
    {
      "inputs": [
        {
          "internalType": "bytes32",
          "name": "role",
          "type": "bytes32"
        },
        {
          "internalType": "address",
          "name": "account",
          "type": "address"
        }
      ],
      "name": "hasRole",
      "outputs": [
        {
          "internalType": "bool",
          "name": "",
          "type": "bool"
        }
      ],
      "stateMutability": "view",
      "type": "function"
    },
    {
      "inputs": [
        {
          "internalType": "address",
          "name": "_owner",
          "type": "address"
        },
        {
          "internalType": "string",
          "name": "_name",
          "type": "string"
        }
      ],
      "name": "initialize",
      "outputs": [],
      "stateMutability": "nonpayable",
      "type": "function"
    },
    {
      "inputs": [],
      "name": "name",
      "outputs": [
        {
          "internalType": "string",
          "name": "",
          "type": "string"
        }
      ],
      "stateMutability": "view",
      "type": "function"
    },
    {
      "inputs": [
        {
          "internalType": "address",
          "name": "",
          "type": "address"
        },
        {
          "internalType": "address",
          "name": "",
          "type": "address"
        },
        {
          "internalType": "uint256[]",
          "name": "",
          "type": "uint256[]"
        },
        {
          "internalType": "uint256[]",
          "name": "",
          "type": "uint256[]"
        },
        {
          "internalType": "bytes",
          "name": "",
          "type": "bytes"
        }
      ],
      "name": "onERC1155BatchReceived",
      "outputs": [
        {
          "internalType": "bytes4",
          "name": "",
          "type": "bytes4"
        }
      ],
      "stateMutability": "nonpayable",
      "type": "function"
    },
    {
      "inputs": [
        {
          "internalType": "address",
          "name": "",
          "type": "address"
        },
        {
          "internalType": "address",
          "name": "from",
          "type": "address"
        },
        {
          "internalType": "uint256",
          "name": "tokenId",
          "type": "uint256"
        },
        {
          "internalType": "uint256",
          "name": "value",
          "type": "uint256"
        },
        {
          "internalType": "bytes",
          "name": "",
          "type": "bytes"
        }
      ],
      "name": "onERC1155Received",
      "outputs": [
        {
          "internalType": "bytes4",
          "name": "",
          "type": "bytes4"
        }
      ],
      "stateMutability": "nonpayable",
      "type": "function"
    },
    {
      "inputs": [
        {
          "internalType": "bytes32",
          "name": "role",
          "type": "bytes32"
        },
        {
          "internalType": "address",
          "name": "account",
          "type": "address"
        }
      ],
      "name": "renounceRole",
      "outputs": [],
      "stateMutability": "nonpayable",
      "type": "function"
    },
    {
      "inputs": [
        {
          "internalType": "address",
          "name": "previousOwner",
          "type": "address"
        },
        {
          "components": [
            {
              "internalType": "address",
              "name": "token",
              "type": "address"
            },
            {
              "internalType": "uint256",
              "name": "tokenId",
              "type": "uint256"
            },
            {
              "internalType": "uint256",
              "name": "amount",
              "type": "uint256"
            },
            {
              "internalType": "address",
              "name": "retiree",
              "type": "address"
            },
            {
              "internalType": "string",
              "name": "retireeName",
              "type": "string"
            },
            {
              "internalType": "string",
              "name": "customUri",
              "type": "string"
            },
            {
              "internalType": "string",
              "name": "comment",
              "type": "string"
            }
          ],
          "internalType": "struct MarketplaceVault.RetireData",
          "name": "retireData",
          "type": "tuple"
        },
        {
          "internalType": "bytes",
          "name": "data",
          "type": "bytes"
        }
      ],
      "name": "retireCredit",
      "outputs": [],
      "stateMutability": "nonpayable",
      "type": "function"
    },
    {
      "inputs": [
        {
          "internalType": "bytes32",
          "name": "role",
          "type": "bytes32"
        },
        {
          "internalType": "address",
          "name": "account",
          "type": "address"
        }
      ],
      "name": "revokeRole",
      "outputs": [],
      "stateMutability": "nonpayable",
      "type": "function"
    },
    {
      "inputs": [
        {
          "internalType": "bytes4",
          "name": "interfaceId",
          "type": "bytes4"
        }
      ],
      "name": "supportsInterface",
      "outputs": [
        {
          "internalType": "bool",
          "name": "",
          "type": "bool"
        }
      ],
      "stateMutability": "view",
      "type": "function"
    },
    {
      "inputs": [
        {
          "internalType": "address",
          "name": "token",
          "type": "address"
        },
        {
          "internalType": "address",
          "name": "previousOwner",
          "type": "address"
        },
        {
          "internalType": "uint256",
          "name": "tokenId",
          "type": "uint256"
        },
        {
          "internalType": "uint256",
          "name": "amount",
          "type": "uint256"
        },
        {
          "internalType": "enum MarketplaceVault.TransferReason",
          "name": "reason",
          "type": "uint8"
        },
        {
          "internalType": "bytes",
          "name": "data",
          "type": "bytes"
        }
      ],
      "name": "transferCredit",
      "outputs": [],
      "stateMutability": "nonpayable",
      "type": "function"
    },
    {
      "inputs": [
        {
          "internalType": "address",
          "name": "token",
          "type": "address"
        },
        {
          "internalType": "address",
          "name": "to",
          "type": "address"
        },
        {
          "internalType": "uint256",
          "name": "tokenId",
          "type": "uint256"
        },
        {
          "internalType": "uint256",
          "name": "amount",
          "type": "uint256"
        },
        {
          "internalType": "bytes",
          "name": "data",
          "type": "bytes"
        }
      ],
      "name": "transferERC1155",
      "outputs": [],
      "stateMutability": "nonpayable",
      "type": "function"
    }
  ],
  "bytecode": "0x608060405234801561001057600080fd5b5061001961001e565b6100dd565b600054610100900460ff161561008a5760405162461bcd60e51b815260206004820152602760248201527f496e697469616c697a61626c653a20636f6e747261637420697320696e697469604482015266616c697a696e6760c81b606482015260840160405180910390fd5b60005460ff908116146100db576000805460ff191660ff9081179091556040519081527f7f26b83ff96e1f2b6a682f133852f6798a09c465da95921460cefb38474024989060200160405180910390a15b565b611633806100ec6000396000f3fe608060405234801561001057600080fd5b50600436106100db5760003560e01c806301ffc9a7146100e057806306fdde0314610108578063140a87451461011d578063248a9ca3146101325780632f2ff15d1461015357806336568abe14610166578063731d1ae31461017957806391d148541461018e578063a217fddf146101a1578063bc197c81146101a9578063d52dddf4146101e1578063d547741f14610212578063dbecc61614610225578063f0917b3314610238578063f23a6e611461024b578063f399e22e1461025e578063f72c0d8b14610271575b600080fd5b6100f36100ee366004610d9f565b610286565b60405190151581526020015b60405180910390f35b610110610297565b6040516100ff9190610e25565b61013061012b366004610f31565b610325565b005b610145610140366004610fb7565b610494565b6040519081526020016100ff565b610130610161366004610fd0565b6104a9565b610130610174366004610fd0565b6104ca565b6101456000805160206115be83398151915281565b6100f361019c366004610fd0565b610548565b610145600081565b6101c86101b736600461107b565b63bc197c8160e01b95945050505050565b6040516001600160e01b031990911681526020016100ff565b6101456101ef366004611124565b60fc60209081526000938452604080852082529284528284209052825290205481565b610130610220366004610fd0565b610573565b610130610233366004611160565b61058f565b6101306102463660046111c4565b610615565b6101c8610259366004611160565b610777565b61013061026c3660046112e3565b6107cf565b6101456000805160206115de83398151915281565b600061029182610938565b92915050565b60fb80546102a490611330565b80601f01602080910402602001604051908101604052809291908181526020018280546102d090611330565b801561031d5780601f106102f25761010080835404028352916020019161031d565b820191906000526020600020905b81548152906001019060200180831161030057829003601f168201915b505050505081565b6000805160206115be83398151915261033d8161095d565b6001600160a01b03808816600090815260fc602090815260408083208984528252808320938a1683529290522054869088908790879081111561039b5760405162461bcd60e51b81526004016103929061136a565b60405180910390fd5b604051637921219560e11b81526001600160a01b038c169063f242432a906103cf9030908e908e908e908d90600401611398565b600060405180830381600087803b1580156103e957600080fd5b505af11580156103fd573d6000803e3d6000fd5b505050506001600160a01b038b8116600090815260fc602090815260408083208d84528252808320938e16835292905290812080548a92906104409084906113e8565b90915550506040517ffa2b06856ec6957db791c015a73a221206e6d555f19619ddc0d994f1b76bb5bd9061047f908d908d9081908e908e908e906113ff565b60405180910390a15050505050505050505050565b60009081526065602052604090206001015490565b6104b282610494565b6104bb8161095d565b6104c5838361096a565b505050565b6001600160a01b038116331461053a5760405162461bcd60e51b815260206004820152602f60248201527f416363657373436f6e74726f6c3a2063616e206f6e6c792072656e6f756e636560448201526e103937b632b9903337b91039b2b63360891b6064820152608401610392565b61054482826109f0565b5050565b60009182526065602090815260408084206001600160a01b0393909316845291905290205460ff1690565b61057c82610494565b6105858161095d565b6104c583836109f0565b6000805160206115be8339815191526105a78161095d565b604051637921219560e11b81526001600160a01b0387169063f242432a906105db9030908990899089908990600401611398565b600060405180830381600087803b1580156105f557600080fd5b505af1158015610609573d6000803e3d6000fd5b50505050505050505050565b6000805160206115be83398151915261062d8161095d565b82516020808501516040808701516001600160a01b03808616600090815260fc86528381208582528652838120918b1681529452922054879392908111156106875760405162461bcd60e51b81526004016103929061136a565b865160208801516040808a015160608b015160808c015160a08d015160c08e015194516309d7537b60e21b81526001600160a01b039097169663275d4dec966106da969095949392918f9060040161145c565b6020604051808303816000875af11580156106f9573d6000803e3d6000fd5b505050506040513d601f19601f8201168201806040525081019061071d91906114d1565b5060408088015188516001600160a01b03908116600090815260fc6020908152848220818d015183528152848220928d168252919091529182208054919290916107689084906113e8565b90915550505050505050505050565b33600081815260fc6020908152604080832087845282528083206001600160a01b03891684529091528120805491929185919084906107b79084906114ea565b9091555063f23a6e6160e01b98975050505050505050565b600054610100900460ff16158080156107ef5750600054600160ff909116105b806108095750303b158015610809575060005460ff166001145b61086c5760405162461bcd60e51b815260206004820152602e60248201527f496e697469616c697a61626c653a20636f6e747261637420697320616c72656160448201526d191e481a5b9a5d1a585b1a5e995960921b6064820152608401610392565b6000805460ff19166001179055801561088f576000805461ff0019166101001790555b610897610a57565b61089f610a57565b6108aa60008461096a565b6108c26000805160206115de8339815191528461096a565b6108da6000805160206115be8339815191528461096a565b81516108ed9060fb906020850190610d06565b5080156104c5576000805461ff0019169055604051600181527f7f26b83ff96e1f2b6a682f133852f6798a09c465da95921460cefb38474024989060200160405180910390a1505050565b60006001600160e01b03198216630271189760e51b1480610291575061029182610ac4565b6109678133610af9565b50565b6109748282610548565b6105445760008281526065602090815260408083206001600160a01b03851684529091529020805460ff191660011790556109ac3390565b6001600160a01b0316816001600160a01b0316837f2f8788117e7eff1d82e926ec794901d17c78024a50270940304540a733656f0d60405160405180910390a45050565b6109fa8282610548565b156105445760008281526065602090815260408083206001600160a01b0385168085529252808320805460ff1916905551339285917ff6391f5c32d9c69d2a47ea670b442974b53935d1edc7fd64eb21e047a839171b9190a45050565b600054610100900460ff16610ac25760405162461bcd60e51b815260206004820152602b60248201527f496e697469616c697a61626c653a20636f6e7472616374206973206e6f74206960448201526a6e697469616c697a696e6760a81b6064820152608401610392565b565b60006001600160e01b03198216637965db0b60e01b148061029157506301ffc9a760e01b6001600160e01b0319831614610291565b610b038282610548565b61054457610b1081610b52565b610b1b836020610b64565b604051602001610b2c929190611502565b60408051601f198184030181529082905262461bcd60e51b825261039291600401610e25565b60606102916001600160a01b03831660145b60606000610b73836002611571565b610b7e9060026114ea565b6001600160401b03811115610b9557610b95610e54565b6040519080825280601f01601f191660200182016040528015610bbf576020820181803683370190505b509050600360fc1b81600081518110610bda57610bda611590565b60200101906001600160f81b031916908160001a905350600f60fb1b81600181518110610c0957610c09611590565b60200101906001600160f81b031916908160001a9053506000610c2d846002611571565b610c389060016114ea565b90505b6001811115610cb0576f181899199a1a9b1b9c1cb0b131b232b360811b85600f1660108110610c6c57610c6c611590565b1a60f81b828281518110610c8257610c82611590565b60200101906001600160f81b031916908160001a90535060049490941c93610ca9816115a6565b9050610c3b565b508315610cff5760405162461bcd60e51b815260206004820181905260248201527f537472696e67733a20686578206c656e67746820696e73756666696369656e746044820152606401610392565b9392505050565b828054610d1290611330565b90600052602060002090601f016020900481019282610d345760008555610d7a565b82601f10610d4d57805160ff1916838001178555610d7a565b82800160010185558215610d7a579182015b82811115610d7a578251825591602001919060010190610d5f565b50610d86929150610d8a565b5090565b5b80821115610d865760008155600101610d8b565b600060208284031215610db157600080fd5b81356001600160e01b031981168114610cff57600080fd5b60005b83811015610de4578181015183820152602001610dcc565b83811115610df3576000848401525b50505050565b60008151808452610e11816020860160208601610dc9565b601f01601f19169290920160200192915050565b602081526000610cff6020830184610df9565b80356001600160a01b0381168114610e4f57600080fd5b919050565b634e487b7160e01b600052604160045260246000fd5b60405160e081016001600160401b0381118282101715610e8c57610e8c610e54565b60405290565b604051601f8201601f191681016001600160401b0381118282101715610eba57610eba610e54565b604052919050565b600082601f830112610ed357600080fd5b81356001600160401b03811115610eec57610eec610e54565b610eff601f8201601f1916602001610e92565b818152846020838601011115610f1457600080fd5b816020850160208301376000918101602001919091529392505050565b60008060008060008060c08789031215610f4a57600080fd5b610f5387610e38565b9550610f6160208801610e38565b94506040870135935060608701359250608087013560028110610f8357600080fd5b915060a08701356001600160401b03811115610f9e57600080fd5b610faa89828a01610ec2565b9150509295509295509295565b600060208284031215610fc957600080fd5b5035919050565b60008060408385031215610fe357600080fd5b82359150610ff360208401610e38565b90509250929050565b600082601f83011261100d57600080fd5b813560206001600160401b0382111561102857611028610e54565b8160051b611037828201610e92565b928352848101820192828101908785111561105157600080fd5b83870192505b8483101561107057823582529183019190830190611057565b979650505050505050565b600080600080600060a0868803121561109357600080fd5b61109c86610e38565b94506110aa60208701610e38565b935060408601356001600160401b03808211156110c657600080fd5b6110d289838a01610ffc565b945060608801359150808211156110e857600080fd5b6110f489838a01610ffc565b9350608088013591508082111561110a57600080fd5b5061111788828901610ec2565b9150509295509295909350565b60008060006060848603121561113957600080fd5b61114284610e38565b92506020840135915061115760408501610e38565b90509250925092565b600080600080600060a0868803121561117857600080fd5b61118186610e38565b945061118f60208701610e38565b9350604086013592506060860135915060808601356001600160401b038111156111b857600080fd5b61111788828901610ec2565b6000806000606084860312156111d957600080fd5b6111e284610e38565b925060208401356001600160401b03808211156111fe57600080fd5b9085019060e0828803121561121257600080fd5b61121a610e6a565b61122383610e38565b8152602083013560208201526040830135604082015261124560608401610e38565b606082015260808301358281111561125c57600080fd5b61126889828601610ec2565b60808301525060a08301358281111561128057600080fd5b61128c89828601610ec2565b60a08301525060c0830135828111156112a457600080fd5b6112b089828601610ec2565b60c083015250935060408601359150808211156112cc57600080fd5b506112d986828701610ec2565b9150509250925092565b600080604083850312156112f657600080fd5b6112ff83610e38565b915060208301356001600160401b0381111561131a57600080fd5b61132685828601610ec2565b9150509250929050565b600181811c9082168061134457607f821691505b60208210810361136457634e487b7160e01b600052602260045260246000fd5b50919050565b602080825260149082015273496e73756666696369656e742062616c616e636560601b604082015260600190565b6001600160a01b03868116825285166020820152604081018490526060810183905260a06080820181905260009061107090830184610df9565b634e487b7160e01b600052601160045260246000fd5b6000828210156113fa576113fa6113d2565b500390565b6001600160a01b038781168252868116602083015285166040820152606081018490526080810183905260c081016002831061144b57634e487b7160e01b600052602160045260246000fd5b8260a0830152979650505050505050565b87815286602082015260018060a01b038616604082015260e06060820152600061148960e0830187610df9565b828103608084015261149b8187610df9565b905082810360a08401526114af8186610df9565b905082810360c08401526114c38185610df9565b9a9950505050505050505050565b6000602082840312156114e357600080fd5b5051919050565b600082198211156114fd576114fd6113d2565b500190565b76020b1b1b2b9b9a1b7b73a3937b61d1030b1b1b7bab73a1604d1b815260008351611534816017850160208801610dc9565b7001034b99036b4b9b9b4b733903937b6329607d1b6017918401918201528351611565816028840160208801610dc9565b01602801949350505050565b600081600019048311821515161561158b5761158b6113d2565b500290565b634e487b7160e01b600052603260045260246000fd5b6000816115b5576115b56113d2565b50600019019056febc431b5ac0643cd75d9092da271ffd7cd3abd128e5e4ba7bc66bf028c544cbdf189ab7a9244df0848122154315af71fe140f3db0fe014031783b0946b8c9d2e3a26469706673582212202e4d8965cf1905b091cfd5a63a5ae98b23b49daf8ee413ffea18b53dc918f28f64736f6c634300080d0033",
  "linkReferences": {},
  "deployedLinkReferences": {}
}