{
  "address": "0xCFFC6d7f0Af6bf4f455C5Df8d51d5BBc32D1b1cD",
  "abi": [
    {
      "inputs": [],
      "stateMutability": "nonpayable",
      "type": "constructor"
    },
    {
      "anonymous": false,
      "inputs": [
        {
          "indexed": false,
          "internalType": "address",
          "name": "previousAdmin",
          "type": "address"
        },
        {
          "indexed": false,
          "internalType": "address",
          "name": "newAdmin",
          "type": "address"
        }
      ],
      "name": "AdminChanged",
      "type": "event"
    },
    {
      "anonymous": false,
      "inputs": [
        {
          "indexed": true,
          "internalType": "address",
          "name": "beaconAddress",
          "type": "address"
        },
        {
          "indexed": true,
          "internalType": "address",
          "name": "oldBeaconAddress",
          "type": "address"
        }
      ],
      "name": "BeaconSet",
      "type": "event"
    },
    {
      "anonymous": false,
      "inputs": [
        {
          "indexed": true,
          "internalType": "address",
          "name": "beacon",
          "type": "address"
        }
      ],
      "name": "BeaconUpgraded",
      "type": "event"
    },
    {
      "anonymous": false,
      "inputs": [
        {
          "indexed": false,
          "internalType": "uint8",
          "name": "version",
          "type": "uint8"
        }
      ],
      "name": "Initialized",
      "type": "event"
    },
    {
      "anonymous": false,
      "inputs": [
        {
          "indexed": false,
          "internalType": "address",
          "name": "account",
          "type": "address"
        }
      ],
      "name": "Paused",
      "type": "event"
    },
    {
      "anonymous": false,
      "inputs": [
        {
          "indexed": true,
          "internalType": "uint256",
          "name": "projectId",
          "type": "uint256"
        },
        {
          "indexed": true,
          "internalType": "address",
          "name": "projectAddress",
          "type": "address"
        },
        {
          "indexed": false,
          "internalType": "string",
          "name": "projectName",
          "type": "string"
        }
      ],
      "name": "ProjectCreated",
      "type": "event"
    },
    {
      "anonymous": false,
      "inputs": [
        {
          "indexed": true,
          "internalType": "address",
          "name": "projectFactoryAddress",
          "type": "address"
        },
        {
          "indexed": true,
          "internalType": "address",
          "name": "oldProjectFactoryAddress",
          "type": "address"
        }
      ],
      "name": "ProjectFactoryAddressSet",
      "type": "event"
    },
    {
      "anonymous": false,
      "inputs": [
        {
          "indexed": true,
          "internalType": "bytes32",
          "name": "role",
          "type": "bytes32"
        },
        {
          "indexed": true,
          "internalType": "bytes32",
          "name": "previousAdminRole",
          "type": "bytes32"
        },
        {
          "indexed": true,
          "internalType": "bytes32",
          "name": "newAdminRole",
          "type": "bytes32"
        }
      ],
      "name": "RoleAdminChanged",
      "type": "event"
    },
    {
      "anonymous": false,
      "inputs": [
        {
          "indexed": true,
          "internalType": "bytes32",
          "name": "role",
          "type": "bytes32"
        },
        {
          "indexed": true,
          "internalType": "address",
          "name": "account",
          "type": "address"
        },
        {
          "indexed": true,
          "internalType": "address",
          "name": "sender",
          "type": "address"
        }
      ],
      "name": "RoleGranted",
      "type": "event"
    },
    {
      "anonymous": false,
      "inputs": [
        {
          "indexed": true,
          "internalType": "bytes32",
          "name": "role",
          "type": "bytes32"
        },
        {
          "indexed": true,
          "internalType": "address",
          "name": "account",
          "type": "address"
        },
        {
          "indexed": true,
          "internalType": "address",
          "name": "sender",
          "type": "address"
        }
      ],
      "name": "RoleRevoked",
      "type": "event"
    },
    {
      "anonymous": false,
      "inputs": [
        {
          "indexed": false,
          "internalType": "string",
          "name": "serialization",
          "type": "string"
        },
        {
          "indexed": true,
          "internalType": "address",
          "name": "serializationProjectContractAddress",
          "type": "address"
        }
      ],
      "name": "SerializationAddressSet",
      "type": "event"
    },
    {
      "anonymous": false,
      "inputs": [
        {
          "indexed": true,
          "internalType": "address",
          "name": "tokenVaultBeaconAddress",
          "type": "address"
        },
        {
          "indexed": true,
          "internalType": "address",
          "name": "oldTokenVaultBeaconAddress",
          "type": "address"
        }
      ],
      "name": "TokenVaultBeaconSet",
      "type": "event"
    },
    {
      "anonymous": false,
      "inputs": [
        {
          "indexed": false,
          "internalType": "address",
          "name": "account",
          "type": "address"
        }
      ],
      "name": "Unpaused",
      "type": "event"
    },
    {
      "anonymous": false,
      "inputs": [
        {
          "indexed": true,
          "internalType": "address",
          "name": "implementation",
          "type": "address"
        }
      ],
      "name": "Upgraded",
      "type": "event"
    },
    {
      "anonymous": false,
      "inputs": [
        {
          "indexed": true,
          "internalType": "address",
          "name": "verifiedVaultAddress",
          "type": "address"
        },
        {
          "indexed": true,
          "internalType": "address",
          "name": "oldVerifiedVaultAddress",
          "type": "address"
        },
        {
          "indexed": true,
          "internalType": "uint256",
          "name": "id",
          "type": "uint256"
        }
      ],
      "name": "VerifiedVaultAddressSet",
      "type": "event"
    },
    {
      "inputs": [],
      "name": "DEFAULT_ADMIN_ROLE",
      "outputs": [
        {
          "internalType": "bytes32",
          "name": "",
          "type": "bytes32"
        }
      ],
      "stateMutability": "view",
      "type": "function"
    },
    {
      "inputs": [],
      "name": "PAUSER_ROLE",
      "outputs": [
        {
          "internalType": "bytes32",
          "name": "",
          "type": "bytes32"
        }
      ],
      "stateMutability": "view",
      "type": "function"
    },
    {
      "inputs": [],
      "name": "UPGRADER_ROLE",
      "outputs": [
        {
          "internalType": "bytes32",
          "name": "",
          "type": "bytes32"
        }
      ],
      "stateMutability": "view",
      "type": "function"
    },
    {
      "inputs": [],
      "name": "createNewVerifiedVault",
      "outputs": [],
      "stateMutability": "nonpayable",
      "type": "function"
    },
    {
      "inputs": [
        {
          "internalType": "uint256",
          "name": "_projectId",
          "type": "uint256"
        },
        {
          "internalType": "string",
          "name": "_projectName",
          "type": "string"
        },
        {
          "internalType": "string",
          "name": "_projectMethodology",
          "type": "string"
        },
        {
          "internalType": "string",
          "name": "_projectUri",
          "type": "string"
        }
      ],
      "name": "createProject",
      "outputs": [],
      "stateMutability": "nonpayable",
      "type": "function"
    },
    {
      "inputs": [],
      "name": "getBeaconAddress",
      "outputs": [
        {
          "internalType": "address",
          "name": "",
          "type": "address"
        }
      ],
      "stateMutability": "view",
      "type": "function"
    },
    {
      "inputs": [
        {
          "internalType": "uint256",
          "name": "projectId",
          "type": "uint256"
        }
      ],
      "name": "getProjectAddressFromId",
      "outputs": [
        {
          "internalType": "address",
          "name": "",
          "type": "address"
        }
      ],
      "stateMutability": "view",
      "type": "function"
    },
    {
      "inputs": [
        {
          "internalType": "address",
          "name": "projectAddress",
          "type": "address"
        }
      ],
      "name": "getProjectIdFromAddress",
      "outputs": [
        {
          "internalType": "uint256",
          "name": "",
          "type": "uint256"
        }
      ],
      "stateMutability": "view",
      "type": "function"
    },
    {
      "inputs": [
        {
          "internalType": "bytes32",
          "name": "role",
          "type": "bytes32"
        }
      ],
      "name": "getRoleAdmin",
      "outputs": [
        {
          "internalType": "bytes32",
          "name": "",
          "type": "bytes32"
        }
      ],
      "stateMutability": "view",
      "type": "function"
    },
    {
      "inputs": [
        {
          "internalType": "string",
          "name": "serialization",
          "type": "string"
        }
      ],
      "name": "getSerializationAddress",
      "outputs": [
        {
          "internalType": "address",
          "name": "",
          "type": "address"
        }
      ],
      "stateMutability": "view",
      "type": "function"
    },
    {
      "inputs": [],
      "name": "getTokenVaultBeaconAddress",
      "outputs": [
        {
          "internalType": "address",
          "name": "",
          "type": "address"
        }
      ],
      "stateMutability": "view",
      "type": "function"
    },
    {
      "inputs": [
        {
          "internalType": "uint256",
          "name": "id",
          "type": "uint256"
        }
      ],
      "name": "getVerifiedVaultAddress",
      "outputs": [
        {
          "internalType": "address",
          "name": "",
          "type": "address"
        }
      ],
      "stateMutability": "view",
      "type": "function"
    },
    {
      "inputs": [
        {
          "internalType": "bytes32",
          "name": "role",
          "type": "bytes32"
        },
        {
          "internalType": "address",
          "name": "account",
          "type": "address"
        }
      ],
      "name": "grantRole",
      "outputs": [],
      "stateMutability": "nonpayable",
      "type": "function"
    },
    {
      "inputs": [
        {
          "internalType": "bytes32",
          "name": "role",
          "type": "bytes32"
        },
        {
          "internalType": "address",
          "name": "account",
          "type": "address"
        }
      ],
      "name": "hasRole",
      "outputs": [
        {
          "internalType": "bool",
          "name": "",
          "type": "bool"
        }
      ],
      "stateMutability": "view",
      "type": "function"
    },
    {
      "inputs": [
        {
          "internalType": "address",
          "name": "beaconAddress",
          "type": "address"
        }
      ],
      "name": "initialize",
      "outputs": [],
      "stateMutability": "nonpayable",
      "type": "function"
    },
    {
      "inputs": [],
      "name": "pause",
      "outputs": [],
      "stateMutability": "nonpayable",
      "type": "function"
    },
    {
      "inputs": [],
      "name": "paused",
      "outputs": [
        {
          "internalType": "bool",
          "name": "",
          "type": "bool"
        }
      ],
      "stateMutability": "view",
      "type": "function"
    },
    {
      "inputs": [],
      "name": "proxiableUUID",
      "outputs": [
        {
          "internalType": "bytes32",
          "name": "",
          "type": "bytes32"
        }
      ],
      "stateMutability": "view",
      "type": "function"
    },
    {
      "inputs": [
        {
          "internalType": "string",
          "name": "serialization",
          "type": "string"
        }
      ],
      "name": "registerSerialization",
      "outputs": [],
      "stateMutability": "nonpayable",
      "type": "function"
    },
    {
      "inputs": [
        {
          "internalType": "bytes32",
          "name": "role",
          "type": "bytes32"
        },
        {
          "internalType": "address",
          "name": "account",
          "type": "address"
        }
      ],
      "name": "renounceRole",
      "outputs": [],
      "stateMutability": "nonpayable",
      "type": "function"
    },
    {
      "inputs": [
        {
          "internalType": "bytes32",
          "name": "role",
          "type": "bytes32"
        },
        {
          "internalType": "address",
          "name": "account",
          "type": "address"
        }
      ],
      "name": "revokeRole",
      "outputs": [],
      "stateMutability": "nonpayable",
      "type": "function"
    },
    {
      "inputs": [
        {
          "internalType": "address",
          "name": "beaconAddress",
          "type": "address"
        }
      ],
      "name": "setBeaconAddress",
      "outputs": [],
      "stateMutability": "nonpayable",
      "type": "function"
    },
    {
      "inputs": [
        {
          "internalType": "address",
          "name": "tokenVaultBeaconAddress",
          "type": "address"
        }
      ],
      "name": "setTokenVaultBeaconAddress",
      "outputs": [],
      "stateMutability": "nonpayable",
      "type": "function"
    },
    {
      "inputs": [
        {
          "internalType": "bytes4",
          "name": "interfaceId",
          "type": "bytes4"
        }
      ],
      "name": "supportsInterface",
      "outputs": [
        {
          "internalType": "bool",
          "name": "",
          "type": "bool"
        }
      ],
      "stateMutability": "view",
      "type": "function"
    },
    {
      "inputs": [],
      "name": "testUpgrade",
      "outputs": [
        {
          "internalType": "string",
          "name": "",
          "type": "string"
        }
      ],
      "stateMutability": "pure",
      "type": "function"
    },
    {
      "inputs": [],
      "name": "unpause",
      "outputs": [],
      "stateMutability": "nonpayable",
      "type": "function"
    },
    {
      "inputs": [
        {
          "internalType": "address",
          "name": "newImplementation",
          "type": "address"
        }
      ],
      "name": "upgradeTo",
      "outputs": [],
      "stateMutability": "nonpayable",
      "type": "function"
    },
    {
      "inputs": [
        {
          "internalType": "address",
          "name": "newImplementation",
          "type": "address"
        },
        {
          "internalType": "bytes",
          "name": "data",
          "type": "bytes"
        }
      ],
      "name": "upgradeToAndCall",
      "outputs": [],
      "stateMutability": "payable",
      "type": "function"
    }
  ],
  "numDeployments": 1,
  "solcInputHash": "8e1e7ee52d795706012ce466ae251b5a",
  "bytecode": "0x60a06040523060805234801561001457600080fd5b5061001d610022565b6100e1565b600054610100900460ff161561008e5760405162461bcd60e51b815260206004820152602760248201527f496e697469616c697a61626c653a20636f6e747261637420697320696e697469604482015266616c697a696e6760c81b606482015260840160405180910390fd5b60005460ff908116146100df576000805460ff191660ff9081179091556040519081527f7f26b83ff96e1f2b6a682f133852f6798a09c465da95921460cefb38474024989060200160405180910390a15b565b608051612b7d62000119600039600081816106d601528181610719015281816109cf01528181610a120152610a930152612b7d6000f3fe608060405260043610620001635760003560e01c80629d4d7a146200016857806301ffc9a7146200019c578063144e3b1314620001d25780631a654ace14620001f7578063248a9ca314620002415780632f2ff15d146200026657806336568abe146200028d5780633659cfe614620002b25780633f4ba83a14620002d757806344d9d59b14620002ef57806345e2309814620003145780634f1ef28614620003395780634fcb7ea6146200035057806352d1902d146200038b5780635822a6c714620003a35780635c975abb14620003c85780635d72115c14620003e2578063683adef914620004035780638456cb59146200043e57806391d14854146200045657806392130344146200047b5780639d6aed0b14620004a0578063a217fddf14620004d7578063a8b5848414620004ee578063c4d66de81462000506578063d547741f146200052b578063e63ab1e91462000550578063f72c0d8b1462000575575b600080fd5b3480156200017557600080fd5b5061012e546001600160a01b03165b60405162000193919062001b12565b60405180910390f35b348015620001a957600080fd5b50620001c1620001bb36600462001b26565b6200059a565b604051901515815260200162000193565b348015620001df57600080fd5b5062000184620001f136600462001b9d565b620005d2565b3480156200020457600080fd5b50620002326200021636600462001bff565b6001600160a01b03166000908152610131602052604090205490565b60405190815260200162000193565b3480156200024e57600080fd5b50620002326200026036600462001c1d565b6200060a565b3480156200027357600080fd5b506200028b6200028536600462001c37565b6200061f565b005b3480156200029a57600080fd5b506200028b620002ac36600462001c37565b62000646565b348015620002bf57600080fd5b506200028b620002d136600462001bff565b620006cc565b348015620002e457600080fd5b506200028b620007a0565b348015620002fc57600080fd5b506200028b6200030e36600462001b9d565b620007c5565b3480156200032157600080fd5b506200028b6200033336600462001bff565b6200096a565b6200028b6200034a36600462001c7c565b620009c5565b3480156200035d57600080fd5b50620001846200036f36600462001c1d565b600090815261013060205260409020546001600160a01b031690565b3480156200039857600080fd5b506200023262000a86565b348015620003b057600080fd5b506200028b620003c236600462001d49565b62000b37565b348015620003d557600080fd5b5060335460ff16620001c1565b348015620003ef57600080fd5b50610133546001600160a01b031662000184565b3480156200041057600080fd5b50620001846200042236600462001c1d565b600090815261013460205260409020546001600160a01b031690565b3480156200044b57600080fd5b506200028b62000d00565b3480156200046357600080fd5b50620001c16200047536600462001c37565b62000d25565b3480156200048857600080fd5b506200028b6200049a36600462001bff565b62000d50565b348015620004ad57600080fd5b506040805180820182526005815264302e302e3160d81b6020820152905162000193919062001e53565b348015620004e457600080fd5b5062000232600081565b348015620004fb57600080fd5b506200028b62000dab565b3480156200051357600080fd5b506200028b6200052536600462001bff565b62000f49565b3480156200053857600080fd5b506200028b6200054a36600462001c37565b620010df565b3480156200055d57600080fd5b506200023260008051602062002b0183398151915281565b3480156200058257600080fd5b506200023260008051602062002ac183398151915281565b60006001600160e01b03198216637965db0b60e01b1480620005cc57506301ffc9a760e01b6001600160e01b03198316145b92915050565b600061012f8383604051620005e992919062001e68565b908152604051908190036020019020546001600160a01b0316905092915050565b60009081526097602052604090206001015490565b6200062a826200060a565b620006358162001101565b6200064183836200110d565b505050565b6001600160a01b0381163314620006bc5760405162461bcd60e51b815260206004820152602f60248201527f416363657373436f6e74726f6c3a2063616e206f6e6c792072656e6f756e636560448201526e103937b632b9903337b91039b2b63360891b60648201526084015b60405180910390fd5b620006c8828262001197565b5050565b6001600160a01b037f0000000000000000000000000000000000000000000000000000000000000000163003620007175760405162461bcd60e51b8152600401620006b39062001e78565b7f00000000000000000000000000000000000000000000000000000000000000006001600160a01b03166200074b62001201565b6001600160a01b031614620007745760405162461bcd60e51b8152600401620006b39062001eb3565b6200077f816200121e565b604080516000808252602082019092526200079d9183919062001239565b50565b60008051602062002b01833981519152620007bb8162001101565b6200079d620013b1565b620007cf62001401565b3360009081526101316020526040902054151580620007f65750620007f660003362000d25565b6200085e5760405162461bcd60e51b815260206004820152603160248201527f4f6e6c7920436172626f6e526567697374727950726f6a6563742063616e206360448201527030b636103a3434b990333ab731ba34b7b760791b6064820152608401620006b3565b60006001600160a01b031661012f83836040516200087e92919062001e68565b908152604051908190036020019020546001600160a01b031614620008e55760405162461bcd60e51b815260206004820152601c60248201527b53657269616c697a6174696f6e20616c72656164792065786973747360201b6044820152606401620006b3565b3361012f8383604051620008fb92919062001e68565b90815260405190819003602001812080546001600160a01b03939093166001600160a01b03199093169290921790915533907ff874c248792a4caa5cd732177a71454e2e4018dcf91bd3f5b57c594e9e071919906200095e908590859062001f17565b60405180910390a25050565b6000620009778162001101565b61013380546001600160a01b0319166001600160a01b03841690811790915560405181907f0bff775d45ab9c48066d1903cf52f92c9258b2a3f0b30f0ac7fab644aaa8c73f90600090a35050565b6001600160a01b037f000000000000000000000000000000000000000000000000000000000000000016300362000a105760405162461bcd60e51b8152600401620006b39062001e78565b7f00000000000000000000000000000000000000000000000000000000000000006001600160a01b031662000a4462001201565b6001600160a01b03161462000a6d5760405162461bcd60e51b8152600401620006b39062001eb3565b62000a78826200121e565b620006c88282600162001239565b6000306001600160a01b037f0000000000000000000000000000000000000000000000000000000000000000161462000b235760405162461bcd60e51b815260206004820152603860248201527f555550535570677261646561626c653a206d757374206e6f742062652063616c6044820152771b1959081d1a1c9bdd59da0819195b1959d85d1958d85b1b60421b6064820152608401620006b3565b5060008051602062002ae183398151915290565b62000b4162001401565b600062000b4e8162001101565b8760000362000b985760405162461bcd60e51b8152602060048201526015602482015274050726f6a65637449642063616e6e6f74206265203605c1b6044820152606401620006b3565b600088815261013060205260409020546001600160a01b03161562000bfb5760405162461bcd60e51b815260206004820152601860248201527750726f6a656374496420616c72656164792065786973747360401b6044820152606401620006b3565b600062000c0e898989898989896200144b565b6001600160a01b038116600090815261013160205260409020549091501562000c7a5760405162461bcd60e51b815260206004820152601d60248201527f50726f6a6563744164647265737320616c7265616479206578697374730000006044820152606401620006b3565b60008981526101306020908152604080832080546001600160a01b0319166001600160a01b038616908117909155808452610131909252918290208b905590518a907f9d9ec461f162f3f4fdb9f6d189bfe13c59e48d8acd23a4c3bfcf7cc0fe4e84ed9062000ced908c908c9062001f17565b60405180910390a3505050505050505050565b60008051602062002b0183398151915262000d1b8162001101565b6200079d62001538565b60009182526097602090815260408084206001600160a01b0393909316845291905290205460ff1690565b600062000d5d8162001101565b61012e80546001600160a01b0319166001600160a01b03841690811790915560405181907f0282ad3fa3df8509e42308da45d565e159bfdbae259b381d419be67d4971b22b90600090a35050565b600062000db88162001101565b6040805180820182526013815272696e697469616c697a6528616464726573732960681b60208201529051600090829062000df890339060240162001b12565b60408051601f19818403018152908290529162000e159162001f2d565b60408051918290039091206020830180516001600160e01b03166001600160e01b03199092169190911790526101335490519192506000916001600160a01b0390911690839062000e669062001b04565b62000e7392919062001f4b565b604051809103906000f08015801562000e90573d6000803e3d6000fd5b5061013280546001908101808355600090815261013460208190526040822080546001600160a01b0319166001600160a01b03871617905592549394509062000eda908462001f87565b81526020810191909152604090810160009081205491516001600160a01b03928316928516917f730d532f453d2e36bcaf7323260bb2b1bf4234cd8c4a93be0a46d56ebb827c2691a461012d80546001600160a01b0319166001600160a01b0392909216919091179055505050565b600054610100900460ff161580801562000f6a5750600054600160ff909116105b8062000f8f575062000f7c3062001578565b15801562000f8f575060005460ff166001145b62000ff45760405162461bcd60e51b815260206004820152602e60248201527f496e697469616c697a61626c653a20636f6e747261637420697320616c72656160448201526d191e481a5b9a5d1a585b1a5e995960921b6064820152608401620006b3565b6000805460ff19166001179055801562001018576000805461ff0019166101001790555b6200102262001587565b6200102c620015bb565b62001036620015bb565b620010436000336200110d565b6200105e60008051602062002ac1833981519152336200110d565b6200107960008051602062002b01833981519152336200110d565b61012e80546001600160a01b0319166001600160a01b0384161790558015620006c8576000805461ff0019169055604051600181527f7f26b83ff96e1f2b6a682f133852f6798a09c465da95921460cefb38474024989060200160405180910390a15050565b620010ea826200060a565b620010f58162001101565b62000641838362001197565b6200079d8133620015e5565b62001119828262000d25565b620006c85760008281526097602090815260408083206001600160a01b03851684529091529020805460ff19166001179055620011533390565b6001600160a01b0316816001600160a01b0316837f2f8788117e7eff1d82e926ec794901d17c78024a50270940304540a733656f0d60405160405180910390a45050565b620011a3828262000d25565b15620006c85760008281526097602090815260408083206001600160a01b0385168085529252808320805460ff1916905551339285917ff6391f5c32d9c69d2a47ea670b442974b53935d1edc7fd64eb21e047a839171b9190a45050565b60008051602062002ae1833981519152546001600160a01b031690565b60008051602062002ac1833981519152620006c88162001101565b7f4910fdfa16fed3260ed0e7147f7cc6da11a60208b5b9406d12a635614ffd91435460ff16156200126f57620006418362001649565b826001600160a01b03166352d1902d6040518163ffffffff1660e01b8152600401602060405180830381865afa925050508015620012cc575060408051601f3d908101601f19168201909252620012c99181019062001fa1565b60015b620013315760405162461bcd60e51b815260206004820152602e60248201527f45524331393637557067726164653a206e657720696d706c656d656e7461746960448201526d6f6e206973206e6f74205555505360901b6064820152608401620006b3565b60008051602062002ae18339815191528114620013a35760405162461bcd60e51b815260206004820152602960248201527f45524331393637557067726164653a20756e737570706f727465642070726f786044820152681a58589b195555525160ba1b6064820152608401620006b3565b5062000641838383620016e8565b620013bb62001719565b6033805460ff191690557f5db9ee0a495bf2e6ff9c91a7834c1ba4fdd244a5e8aa4e537bd38aeae4b073aa335b604051620013f7919062001b12565b60405180910390a1565b60335460ff1615620014495760405162461bcd60e51b815260206004820152601060248201526f14185d5cd8589b194e881c185d5cd95960821b6044820152606401620006b3565b565b60008060405180606001604052806038815260200162002a6960389139905060008130338c8c8c8c8c8c8c604051602401620014909998979695949392919062001fbb565b60408051601f198184030181529082905291620014ad9162001f2d565b60408051918290039091206020830180516001600160e01b03166001600160e01b031990921691909117905261012e5490519192506000916001600160a01b03909116908390620014fe9062001b04565b6200150b92919062001f4b565b604051809103906000f08015801562001528573d6000803e3d6000fd5b509b9a5050505050505050505050565b6200154262001401565b6033805460ff191660011790557f62e78cea01bee320cd4e420270b5ea74000d11b0c9f74754ebdbfc544b05a258620013e83390565b6001600160a01b03163b151590565b600054610100900460ff16620015b15760405162461bcd60e51b8152600401620006b3906200202d565b6200144962001764565b600054610100900460ff16620014495760405162461bcd60e51b8152600401620006b3906200202d565b620015f1828262000d25565b620006c85762001601816200179a565b6200160e836020620017ad565b6040516020016200162192919062002078565b60408051601f198184030181529082905262461bcd60e51b8252620006b39160040162001e53565b620016548162001578565b620016b85760405162461bcd60e51b815260206004820152602d60248201527f455243313936373a206e657720696d706c656d656e746174696f6e206973206e60448201526c1bdd08184818dbdb9d1c9858dd609a1b6064820152608401620006b3565b60008051602062002ae183398151915280546001600160a01b0319166001600160a01b0392909216919091179055565b620016f3836200196d565b600082511180620017015750805b156200064157620017138383620019af565b50505050565b60335460ff16620014495760405162461bcd60e51b815260206004820152601460248201527314185d5cd8589b194e881b9bdd081c185d5cd95960621b6044820152606401620006b3565b600054610100900460ff166200178e5760405162461bcd60e51b8152600401620006b3906200202d565b6033805460ff19169055565b6060620005cc6001600160a01b03831660145b60606000620017be836002620020eb565b620017cb9060026200210d565b6001600160401b03811115620017e557620017e562001c66565b6040519080825280601f01601f19166020018201604052801562001810576020820181803683370190505b509050600360fc1b816000815181106200182e576200182e62002128565b60200101906001600160f81b031916908160001a905350600f60fb1b8160018151811062001860576200186062002128565b60200101906001600160f81b031916908160001a905350600062001886846002620020eb565b620018939060016200210d565b90505b600181111562001915576f181899199a1a9b1b9c1cb0b131b232b360811b85600f1660108110620018cb57620018cb62002128565b1a60f81b828281518110620018e457620018e462002128565b60200101906001600160f81b031916908160001a90535060049490941c936200190d816200213e565b905062001896565b508315620019665760405162461bcd60e51b815260206004820181905260248201527f537472696e67733a20686578206c656e67746820696e73756666696369656e746044820152606401620006b3565b9392505050565b620019788162001649565b6040516001600160a01b038216907fbc7cd75a20ee27fd9adebab32041f755214dbc6bffa90cc0225b39da2e5c2d3b90600090a250565b606062001966838360405180606001604052806027815260200162002b21602791396060600080856001600160a01b031685604051620019f0919062001f2d565b600060405180830381855af49150503d806000811462001a2d576040519150601f19603f3d011682016040523d82523d6000602084013e62001a32565b606091505b509150915062001a458683838762001a4f565b9695505050505050565b6060831562001ac357825160000362001abb5762001a6d8562001578565b62001abb5760405162461bcd60e51b815260206004820152601d60248201527f416464726573733a2063616c6c20746f206e6f6e2d636f6e74726163740000006044820152606401620006b3565b508162001acf565b62001acf838362001ad7565b949350505050565b81511562001ae85781518083602001fd5b8060405162461bcd60e51b8152600401620006b3919062001e53565b610910806200215983390190565b6001600160a01b0391909116815260200190565b60006020828403121562001b3957600080fd5b81356001600160e01b0319811681146200196657600080fd5b60008083601f84011262001b6557600080fd5b5081356001600160401b0381111562001b7d57600080fd5b60208301915083602082850101111562001b9657600080fd5b9250929050565b6000806020838503121562001bb157600080fd5b82356001600160401b0381111562001bc857600080fd5b62001bd68582860162001b52565b90969095509350505050565b80356001600160a01b038116811462001bfa57600080fd5b919050565b60006020828403121562001c1257600080fd5b620019668262001be2565b60006020828403121562001c3057600080fd5b5035919050565b6000806040838503121562001c4b57600080fd5b8235915062001c5d6020840162001be2565b90509250929050565b634e487b7160e01b600052604160045260246000fd5b6000806040838503121562001c9057600080fd5b62001c9b8362001be2565b915060208301356001600160401b038082111562001cb857600080fd5b818501915085601f83011262001ccd57600080fd5b81358181111562001ce25762001ce262001c66565b604051601f8201601f19908116603f0116810190838211818310171562001d0d5762001d0d62001c66565b8160405282815288602084870101111562001d2757600080fd5b8260208601602083013760006020848301015280955050505050509250929050565b60008060008060008060006080888a03121562001d6557600080fd5b8735965060208801356001600160401b038082111562001d8457600080fd5b62001d928b838c0162001b52565b909850965060408a013591508082111562001dac57600080fd5b62001dba8b838c0162001b52565b909650945060608a013591508082111562001dd457600080fd5b5062001de38a828b0162001b52565b989b979a50959850939692959293505050565b60005b8381101562001e1357818101518382015260200162001df9565b83811115620017135750506000910152565b6000815180845262001e3f81602086016020860162001df6565b601f01601f19169290920160200192915050565b60208152600062001966602083018462001e25565b8183823760009101908152919050565b6020808252602c9082015260008051602062002aa183398151915260408201526b19195b1959d85d1958d85b1b60a21b606082015260800190565b6020808252602c9082015260008051602062002aa183398151915260408201526b6163746976652070726f787960a01b606082015260800190565b81835281816020850137506000828201602090810191909152601f909101601f19169091010190565b60208152600062001acf60208301848662001eee565b6000825162001f4181846020870162001df6565b9190910192915050565b6001600160a01b038316815260406020820181905260009062001acf9083018462001e25565b634e487b7160e01b600052601160045260246000fd5b60008282101562001f9c5762001f9c62001f71565b500390565b60006020828403121562001fb457600080fd5b5051919050565b6001600160a01b038a81168252891660208201526040810188905260c06060820181905260009062001ff1908301888a62001eee565b82810360808401526200200681878962001eee565b905082810360a08401526200201d81858762001eee565b9c9b505050505050505050505050565b6020808252602b908201527f496e697469616c697a61626c653a20636f6e7472616374206973206e6f74206960408201526a6e697469616c697a696e6760a81b606082015260800190565b76020b1b1b2b9b9a1b7b73a3937b61d1030b1b1b7bab73a1604d1b815260008351620020ac81601785016020880162001df6565b7001034b99036b4b9b9b4b733903937b6329607d1b6017918401918201528351620020df81602884016020880162001df6565b01602801949350505050565b600081600019048311821515161562002108576200210862001f71565b500290565b6000821982111562002123576200212362001f71565b500190565b634e487b7160e01b600052603260045260246000fd5b60008162002150576200215062001f71565b50600019019056fe608060405260405161091038038061091083398101604081905261002291610461565b61002e82826000610035565b505061058b565b61003e83610100565b6040516001600160a01b038416907f1cf3b03a6cf19fa2baba4df148e9dcabedea7f8a5c07840e207e5c089be95d3e90600090a260008251118061007f5750805b156100fb576100f9836001600160a01b0316635c60da1b6040518163ffffffff1660e01b8152600401602060405180830381865afa1580156100c5573d6000803e3d6000fd5b505050506040513d601f19601f820116820180604052508101906100e99190610521565b836102a360201b6100291760201c565b505b505050565b610113816102cf60201b6100551760201c565b6101725760405162461bcd60e51b815260206004820152602560248201527f455243313936373a206e657720626561636f6e206973206e6f74206120636f6e6044820152641d1c9858dd60da1b60648201526084015b60405180910390fd5b6101e6816001600160a01b0316635c60da1b6040518163ffffffff1660e01b8152600401602060405180830381865afa1580156101b3573d6000803e3d6000fd5b505050506040513d601f19601f820116820180604052508101906101d79190610521565b6102cf60201b6100551760201c565b61024b5760405162461bcd60e51b815260206004820152603060248201527f455243313936373a20626561636f6e20696d706c656d656e746174696f6e206960448201526f1cc81b9bdd08184818dbdb9d1c9858dd60821b6064820152608401610169565b806102827fa3f0ad74e5423aebfd80d3ef4346578335a9a72aeaee59ff6cb3582b35133d5060001b6102de60201b6100641760201c565b80546001600160a01b0319166001600160a01b039290921691909117905550565b60606102c883836040518060600160405280602781526020016108e9602791396102e1565b9392505050565b6001600160a01b03163b151590565b90565b6060600080856001600160a01b0316856040516102fe919061053c565b600060405180830381855af49150503d8060008114610339576040519150601f19603f3d011682016040523d82523d6000602084013e61033e565b606091505b5090925090506103508683838761035a565b9695505050505050565b606083156103c75782516000036103c057610374856102cf565b6103c05760405162461bcd60e51b815260206004820152601d60248201527f416464726573733a2063616c6c20746f206e6f6e2d636f6e74726163740000006044820152606401610169565b50816103d1565b6103d183836103d9565b949350505050565b8151156103e95781518083602001fd5b8060405162461bcd60e51b81526004016101699190610558565b80516001600160a01b038116811461041a57600080fd5b919050565b634e487b7160e01b600052604160045260246000fd5b60005b83811015610450578181015183820152602001610438565b838111156100f95750506000910152565b6000806040838503121561047457600080fd5b61047d83610403565b60208401519092506001600160401b038082111561049a57600080fd5b818501915085601f8301126104ae57600080fd5b8151818111156104c0576104c061041f565b604051601f8201601f19908116603f011681019083821181831017156104e8576104e861041f565b8160405282815288602084870101111561050157600080fd5b610512836020830160208801610435565b80955050505050509250929050565b60006020828403121561053357600080fd5b6102c882610403565b6000825161054e818460208701610435565b9190910192915050565b6020815260008251806020840152610577816040850160208701610435565b601f01601f19169190910160400192915050565b61034f8061059a6000396000f3fe60806040523661001357610011610017565b005b6100115b610027610022610067565b610100565b565b606061004e83836040518060600160405280602781526020016102f360279139610124565b9392505050565b6001600160a01b03163b151590565b90565b600061009a7fa3f0ad74e5423aebfd80d3ef4346578335a9a72aeaee59ff6cb3582b35133d50546001600160a01b031690565b6001600160a01b0316635c60da1b6040518163ffffffff1660e01b8152600401602060405180830381865afa1580156100d7573d6000803e3d6000fd5b505050506040513d601f19601f820116820180604052508101906100fb919061024a565b905090565b3660008037600080366000845af43d6000803e80801561011f573d6000f35b3d6000fd5b6060600080856001600160a01b03168560405161014191906102a3565b600060405180830381855af49150503d806000811461017c576040519150601f19603f3d011682016040523d82523d6000602084013e610181565b606091505b50915091506101928683838761019c565b9695505050505050565b6060831561020e578251600003610207576101b685610055565b6102075760405162461bcd60e51b815260206004820152601d60248201527f416464726573733a2063616c6c20746f206e6f6e2d636f6e747261637400000060448201526064015b60405180910390fd5b5081610218565b6102188383610220565b949350505050565b8151156102305781518083602001fd5b8060405162461bcd60e51b81526004016101fe91906102bf565b60006020828403121561025c57600080fd5b81516001600160a01b038116811461004e57600080fd5b60005b8381101561028e578181015183820152602001610276565b8381111561029d576000848401525b50505050565b600082516102b5818460208701610273565b9190910192915050565b60208152600082518060208401526102de816040850160208701610273565b601f01601f1916919091016040019291505056fe416464726573733a206c6f772d6c6576656c2064656c65676174652063616c6c206661696c6564a264697066735822122048cae396554de588e42a40830b5efb59ad2cb405b3e8e950e04b86c62d45608d64736f6c634300080d0033416464726573733a206c6f772d6c6576656c2064656c65676174652063616c6c206661696c6564696e697469616c697a6528616464726573732c616464726573732c75696e743235362c737472696e672c737472696e672c737472696e672946756e6374696f6e206d7573742062652063616c6c6564207468726f75676820189ab7a9244df0848122154315af71fe140f3db0fe014031783b0946b8c9d2e3360894a13ba1a3210667c828492db98dca3e2076cc3735a920a3ca505d382bbc65d7a28e3265b37a6474929f336521b332c1681b933f6cb9f3376673440d862a416464726573733a206c6f772d6c6576656c2064656c65676174652063616c6c206661696c6564a2646970667358221220a91045ebe06b1e3e3e26f60e70128a8534de3efe5760222a36901fafb3916a4e64736f6c634300080d0033",
  "devdoc": {
    "kind": "dev",
    "methods": {
      "constructor": {
        "custom:oz-upgrades-unsafe-allow": "constructor"
      },
      "getRoleAdmin(bytes32)": {
        "details": "Returns the admin role that controls `role`. See {grantRole} and {revokeRole}. To change a role's admin, use {_setRoleAdmin}."
      },
      "grantRole(bytes32,address)": {
        "details": "Grants `role` to `account`. If `account` had not been already granted `role`, emits a {RoleGranted} event. Requirements: - the caller must have ``role``'s admin role. May emit a {RoleGranted} event."
      },
      "hasRole(bytes32,address)": {
        "details": "Returns `true` if `account` has been granted `role`."
      },
      "paused()": {
        "details": "Returns true if the contract is paused, and false otherwise."
      },
      "proxiableUUID()": {
        "details": "Implementation of the ERC1822 {proxiableUUID} function. This returns the storage slot used by the implementation. It is used to validate the implementation's compatibility when performing an upgrade. IMPORTANT: A proxy pointing at a proxiable contract should not be considered proxiable itself, because this risks bricking a proxy that upgrades to it, by delegating to itself until out of gas. Thus it is critical that this function revert if invoked through a proxy. This is guaranteed by the `notDelegated` modifier."
      },
      "renounceRole(bytes32,address)": {
        "details": "Revokes `role` from the calling account. Roles are often managed via {grantRole} and {revokeRole}: this function's purpose is to provide a mechanism for accounts to lose their privileges if they are compromised (such as when a trusted device is misplaced). If the calling account had been revoked `role`, emits a {RoleRevoked} event. Requirements: - the caller must be `account`. May emit a {RoleRevoked} event."
      },
      "revokeRole(bytes32,address)": {
        "details": "Revokes `role` from `account`. If `account` had been granted `role`, emits a {RoleRevoked} event. Requirements: - the caller must have ``role``'s admin role. May emit a {RoleRevoked} event."
      },
      "supportsInterface(bytes4)": {
        "details": "See {IERC165-supportsInterface}."
      },
      "upgradeTo(address)": {
        "custom:oz-upgrades-unsafe-allow-reachable": "delegatecall",
        "details": "Upgrade the implementation of the proxy to `newImplementation`. Calls {_authorizeUpgrade}. Emits an {Upgraded} event."
      },
      "upgradeToAndCall(address,bytes)": {
        "custom:oz-upgrades-unsafe-allow-reachable": "delegatecall",
        "details": "Upgrade the implementation of the proxy to `newImplementation`, and subsequently execute the function call encoded in `data`. Calls {_authorizeUpgrade}. Emits an {Upgraded} event."
      }
    },
    "version": 1
  },
  "userdoc": {
    "kind": "user",
    "methods": {},
    "version": 1
  },
  "storageLayout": {
    "storage": [
      {
        "astId": 807,
        "contract": "contracts/CarbonContractRegistry.sol:CarbonContractRegistry",
        "label": "_initialized",
        "offset": 0,
        "slot": "0",
        "type": "t_uint8"
      },
      {
        "astId": 810,
        "contract": "contracts/CarbonContractRegistry.sol:CarbonContractRegistry",
        "label": "_initializing",
        "offset": 1,
        "slot": "0",
        "type": "t_bool"
      },
      {
        "astId": 3343,
        "contract": "contracts/CarbonContractRegistry.sol:CarbonContractRegistry",
        "label": "__gap",
        "offset": 0,
        "slot": "1",
        "type": "t_array(t_uint256)50_storage"
      },
      {
        "astId": 1128,
        "contract": "contracts/CarbonContractRegistry.sol:CarbonContractRegistry",
        "label": "_paused",
        "offset": 0,
        "slot": "51",
        "type": "t_bool"
      },
      {
        "astId": 1233,
        "contract": "contracts/CarbonContractRegistry.sol:CarbonContractRegistry",
        "label": "__gap",
        "offset": 0,
        "slot": "52",
        "type": "t_array(t_uint256)49_storage"
      },
      {
        "astId": 4378,
        "contract": "contracts/CarbonContractRegistry.sol:CarbonContractRegistry",
        "label": "__gap",
        "offset": 0,
        "slot": "101",
        "type": "t_array(t_uint256)50_storage"
      },
      {
        "astId": 28,
        "contract": "contracts/CarbonContractRegistry.sol:CarbonContractRegistry",
        "label": "_roles",
        "offset": 0,
        "slot": "151",
        "type": "t_mapping(t_bytes32,t_struct(RoleData)23_storage)"
      },
      {
        "astId": 335,
        "contract": "contracts/CarbonContractRegistry.sol:CarbonContractRegistry",
        "label": "__gap",
        "offset": 0,
        "slot": "152",
        "type": "t_array(t_uint256)49_storage"
      },
      {
        "astId": 789,
        "contract": "contracts/CarbonContractRegistry.sol:CarbonContractRegistry",
        "label": "__gap",
        "offset": 0,
        "slot": "201",
        "type": "t_array(t_uint256)50_storage"
      },
      {
        "astId": 1105,
        "contract": "contracts/CarbonContractRegistry.sol:CarbonContractRegistry",
        "label": "__gap",
        "offset": 0,
        "slot": "251",
        "type": "t_array(t_uint256)50_storage"
      },
      {
        "astId": 6980,
        "contract": "contracts/CarbonContractRegistry.sol:CarbonContractRegistry",
        "label": "_verifiedVaultAddress",
        "offset": 0,
        "slot": "301",
        "type": "t_address"
      },
      {
        "astId": 6982,
        "contract": "contracts/CarbonContractRegistry.sol:CarbonContractRegistry",
        "label": "_projectBeaconAddress",
        "offset": 0,
        "slot": "302",
        "type": "t_address"
      },
      {
        "astId": 6986,
        "contract": "contracts/CarbonContractRegistry.sol:CarbonContractRegistry",
        "label": "_serializationAddressMapping",
        "offset": 0,
        "slot": "303",
        "type": "t_mapping(t_string_memory_ptr,t_address)"
      },
      {
        "astId": 6990,
        "contract": "contracts/CarbonContractRegistry.sol:CarbonContractRegistry",
        "label": "_projectIdToAddressMapping",
        "offset": 0,
        "slot": "304",
        "type": "t_mapping(t_uint256,t_address)"
      },
      {
        "astId": 6994,
        "contract": "contracts/CarbonContractRegistry.sol:CarbonContractRegistry",
        "label": "_addressToProjectIdMapping",
        "offset": 0,
        "slot": "305",
        "type": "t_mapping(t_address,t_uint256)"
      },
      {
        "astId": 6997,
        "contract": "contracts/CarbonContractRegistry.sol:CarbonContractRegistry",
        "label": "_verifiedVaultCounter",
        "offset": 0,
        "slot": "306",
        "type": "t_uint256"
      },
      {
        "astId": 6999,
        "contract": "contracts/CarbonContractRegistry.sol:CarbonContractRegistry",
        "label": "_tokenVaultBeaconAddress",
        "offset": 0,
        "slot": "307",
        "type": "t_address"
      },
      {
        "astId": 7003,
        "contract": "contracts/CarbonContractRegistry.sol:CarbonContractRegistry",
        "label": "_verifiedVaultMapping",
        "offset": 0,
        "slot": "308",
        "type": "t_mapping(t_uint256,t_address)"
      },
      {
        "astId": 7013,
        "contract": "contracts/CarbonContractRegistry.sol:CarbonContractRegistry",
        "label": "__gap",
        "offset": 0,
        "slot": "309",
        "type": "t_array(t_uint256)42_storage"
      }
    ],
    "types": {
      "t_address": {
        "encoding": "inplace",
        "label": "address",
        "numberOfBytes": "20"
      },
      "t_array(t_uint256)42_storage": {
        "base": "t_uint256",
        "encoding": "inplace",
        "label": "uint256[42]",
        "numberOfBytes": "1344"
      },
      "t_array(t_uint256)49_storage": {
        "base": "t_uint256",
        "encoding": "inplace",
        "label": "uint256[49]",
        "numberOfBytes": "1568"
      },
      "t_array(t_uint256)50_storage": {
        "base": "t_uint256",
        "encoding": "inplace",
        "label": "uint256[50]",
        "numberOfBytes": "1600"
      },
      "t_bool": {
        "encoding": "inplace",
        "label": "bool",
        "numberOfBytes": "1"
      },
      "t_bytes32": {
        "encoding": "inplace",
        "label": "bytes32",
        "numberOfBytes": "32"
      },
      "t_mapping(t_address,t_bool)": {
        "encoding": "mapping",
        "key": "t_address",
        "label": "mapping(address => bool)",
        "numberOfBytes": "32",
        "value": "t_bool"
      },
      "t_mapping(t_address,t_uint256)": {
        "encoding": "mapping",
        "key": "t_address",
        "label": "mapping(address => uint256)",
        "numberOfBytes": "32",
        "value": "t_uint256"
      },
      "t_mapping(t_bytes32,t_struct(RoleData)23_storage)": {
        "encoding": "mapping",
        "key": "t_bytes32",
        "label": "mapping(bytes32 => struct AccessControlUpgradeable.RoleData)",
        "numberOfBytes": "32",
        "value": "t_struct(RoleData)23_storage"
      },
      "t_mapping(t_string_memory_ptr,t_address)": {
        "encoding": "mapping",
        "key": "t_string_memory_ptr",
        "label": "mapping(string => address)",
        "numberOfBytes": "32",
        "value": "t_address"
      },
      "t_mapping(t_uint256,t_address)": {
        "encoding": "mapping",
        "key": "t_uint256",
        "label": "mapping(uint256 => address)",
        "numberOfBytes": "32",
        "value": "t_address"
      },
      "t_string_memory_ptr": {
        "encoding": "bytes",
        "label": "string",
        "numberOfBytes": "32"
      },
      "t_struct(RoleData)23_storage": {
        "encoding": "inplace",
        "label": "struct AccessControlUpgradeable.RoleData",
        "members": [
          {
            "astId": 20,
            "contract": "contracts/CarbonContractRegistry.sol:CarbonContractRegistry",
            "label": "members",
            "offset": 0,
            "slot": "0",
            "type": "t_mapping(t_address,t_bool)"
          },
          {
            "astId": 22,
            "contract": "contracts/CarbonContractRegistry.sol:CarbonContractRegistry",
            "label": "adminRole",
            "offset": 0,
            "slot": "1",
            "type": "t_bytes32"
          }
        ],
        "numberOfBytes": "64"
      },
      "t_uint256": {
        "encoding": "inplace",
        "label": "uint256",
        "numberOfBytes": "32"
      },
      "t_uint8": {
        "encoding": "inplace",
        "label": "uint8",
        "numberOfBytes": "1"
      }
    }
  }
}