{
  "address": "0xD2fF23F9B586B6AE8bEF3cb6f0Cb28c0650De771",
  "abi": [
    {
      "inputs": [],
      "stateMutability": "nonpayable",
      "type": "constructor"
    },
    {
      "anonymous": false,
      "inputs": [
        {
          "indexed": false,
          "internalType": "address",
          "name": "previousAdmin",
          "type": "address"
        },
        {
          "indexed": false,
          "internalType": "address",
          "name": "newAdmin",
          "type": "address"
        }
      ],
      "name": "AdminChanged",
      "type": "event"
    },
    {
      "anonymous": false,
      "inputs": [
        {
          "indexed": true,
          "internalType": "address",
          "name": "beacon",
          "type": "address"
        }
      ],
      "name": "BeaconUpgraded",
      "type": "event"
    },
    {
      "anonymous": false,
      "inputs": [
        {
          "indexed": false,
          "internalType": "uint8",
          "name": "version",
          "type": "uint8"
        }
      ],
      "name": "Initialized",
      "type": "event"
    },
    {
      "anonymous": false,
      "inputs": [
        {
          "indexed": true,
          "internalType": "address",
          "name": "previousOwner",
          "type": "address"
        },
        {
          "indexed": true,
          "internalType": "address",
          "name": "newOwner",
          "type": "address"
        }
      ],
      "name": "OwnershipTransferred",
      "type": "event"
    },
    {
      "anonymous": false,
      "inputs": [
        {
          "indexed": true,
          "internalType": "address",
          "name": "implementation",
          "type": "address"
        }
      ],
      "name": "Upgraded",
      "type": "event"
    },
    {
      "inputs": [],
      "name": "ANTE_MINTER_ROLE",
      "outputs": [
        {
          "internalType": "bytes32",
          "name": "",
          "type": "bytes32"
        }
      ],
      "stateMutability": "view",
      "type": "function"
    },
    {
      "inputs": [],
      "name": "BLACKLISTED",
      "outputs": [
        {
          "internalType": "bytes32",
          "name": "",
          "type": "bytes32"
        }
      ],
      "stateMutability": "view",
      "type": "function"
    },
    {
      "inputs": [],
      "name": "BLACKLISTER_ROLE",
      "outputs": [
        {
          "internalType": "bytes32",
          "name": "",
          "type": "bytes32"
        }
      ],
      "stateMutability": "view",
      "type": "function"
    },
    {
      "inputs": [],
      "name": "BURNER_ROLE",
      "outputs": [
        {
          "internalType": "bytes32",
          "name": "",
          "type": "bytes32"
        }
      ],
      "stateMutability": "view",
      "type": "function"
    },
    {
      "inputs": [],
      "name": "CLAWBACK_ROLE",
      "outputs": [
        {
          "internalType": "bytes32",
          "name": "",
          "type": "bytes32"
        }
      ],
      "stateMutability": "view",
      "type": "function"
    },
    {
      "inputs": [],
      "name": "DEFAULT_ADMIN_ROLE",
      "outputs": [
        {
          "internalType": "bytes32",
          "name": "",
          "type": "bytes32"
        }
      ],
      "stateMutability": "view",
      "type": "function"
    },
    {
      "inputs": [],
      "name": "MINTER_ROLE",
      "outputs": [
        {
          "internalType": "bytes32",
          "name": "",
          "type": "bytes32"
        }
      ],
      "stateMutability": "view",
      "type": "function"
    },
    {
      "inputs": [],
      "name": "PAUSER_ROLE",
      "outputs": [
        {
          "internalType": "bytes32",
          "name": "",
          "type": "bytes32"
        }
      ],
      "stateMutability": "view",
      "type": "function"
    },
    {
      "inputs": [],
      "name": "POST_MINTER_ROLE",
      "outputs": [
        {
          "internalType": "bytes32",
          "name": "",
          "type": "bytes32"
        }
      ],
      "stateMutability": "view",
      "type": "function"
    },
    {
      "inputs": [],
      "name": "UPGRADER_ROLE",
      "outputs": [
        {
          "internalType": "bytes32",
          "name": "",
          "type": "bytes32"
        }
      ],
      "stateMutability": "view",
      "type": "function"
    },
    {
      "inputs": [],
      "name": "URI_SETTER_ROLE",
      "outputs": [
        {
          "internalType": "bytes32",
          "name": "",
          "type": "bytes32"
        }
      ],
      "stateMutability": "view",
      "type": "function"
    },
    {
      "inputs": [],
      "name": "VERIFIER_ROLE",
      "outputs": [
        {
          "internalType": "bytes32",
          "name": "",
          "type": "bytes32"
        }
      ],
      "stateMutability": "view",
      "type": "function"
    },
    {
      "inputs": [
        {
          "internalType": "address[]",
          "name": "contracts",
          "type": "address[]"
        },
        {
          "internalType": "address",
          "name": "admin",
          "type": "address"
        }
      ],
      "name": "grantAdminRole",
      "outputs": [],
      "stateMutability": "nonpayable",
      "type": "function"
    },
    {
      "inputs": [
        {
          "internalType": "address",
          "name": "carbonContract",
          "type": "address"
        },
        {
          "internalType": "address",
          "name": "roleHolder",
          "type": "address"
        }
      ],
      "name": "grantCarbonRegRoles",
      "outputs": [],
      "stateMutability": "nonpayable",
      "type": "function"
    },
    {
      "inputs": [
        {
          "internalType": "address[]",
          "name": "projects",
          "type": "address[]"
        },
        {
          "internalType": "address",
          "name": "roleHolder",
          "type": "address"
        }
      ],
      "name": "grantProjectRoles",
      "outputs": [],
      "stateMutability": "nonpayable",
      "type": "function"
    },
    {
      "inputs": [],
      "name": "initialize",
      "outputs": [],
      "stateMutability": "nonpayable",
      "type": "function"
    },
    {
      "inputs": [],
      "name": "owner",
      "outputs": [
        {
          "internalType": "address",
          "name": "",
          "type": "address"
        }
      ],
      "stateMutability": "view",
      "type": "function"
    },
    {
      "inputs": [],
      "name": "proxiableUUID",
      "outputs": [
        {
          "internalType": "bytes32",
          "name": "",
          "type": "bytes32"
        }
      ],
      "stateMutability": "view",
      "type": "function"
    },
    {
      "inputs": [],
      "name": "renounceOwnership",
      "outputs": [],
      "stateMutability": "nonpayable",
      "type": "function"
    },
    {
      "inputs": [
        {
          "internalType": "address",
          "name": "carbonRegContract",
          "type": "address"
        },
        {
          "internalType": "address",
          "name": "roleHolder",
          "type": "address"
        }
      ],
      "name": "revokeCarbonRegRoles",
      "outputs": [],
      "stateMutability": "nonpayable",
      "type": "function"
    },
    {
      "inputs": [
        {
          "internalType": "address[]",
          "name": "projects",
          "type": "address[]"
        },
        {
          "internalType": "address",
          "name": "roleHolder",
          "type": "address"
        }
      ],
      "name": "revokeProjectRoles",
      "outputs": [],
      "stateMutability": "nonpayable",
      "type": "function"
    },
    {
      "inputs": [
        {
          "internalType": "address",
          "name": "newOwner",
          "type": "address"
        }
      ],
      "name": "transferOwnership",
      "outputs": [],
      "stateMutability": "nonpayable",
      "type": "function"
    },
    {
      "inputs": [
        {
          "internalType": "address",
          "name": "newImplementation",
          "type": "address"
        }
      ],
      "name": "upgradeTo",
      "outputs": [],
      "stateMutability": "nonpayable",
      "type": "function"
    },
    {
      "inputs": [
        {
          "internalType": "address",
          "name": "newImplementation",
          "type": "address"
        },
        {
          "internalType": "bytes",
          "name": "data",
          "type": "bytes"
        }
      ],
      "name": "upgradeToAndCall",
      "outputs": [],
      "stateMutability": "payable",
      "type": "function"
    }
  ],
  "numDeployments": 1,
  "solcInputHash": "773c1c6a9e6a3e48a6c43b74f0c9df98",
  "bytecode": "0x60a06040523060805234801561001457600080fd5b5061001d610022565b6100e1565b600054610100900460ff161561008e5760405162461bcd60e51b815260206004820152602760248201527f496e697469616c697a61626c653a20636f6e747261637420697320696e697469604482015266616c697a696e6760c81b606482015260840160405180910390fd5b60005460ff908116146100df576000805460ff191660ff9081179091556040519081527f7f26b83ff96e1f2b6a682f133852f6798a09c465da95921460cefb38474024989060200160405180910390a15b565b608051611fca61011860003960008181610575015281816105be015281816106460152818161068601526107020152611fca6000f3fe60806040526004361061011b5760003560e01c8063282c51f3146101205780632b829c3a146101555780632ea05e44146101775780633659cfe6146101995780634f1ef286146101b957806352d1902d146101cc5780635e3bbaab146101e1578063715018a6146102035780637f345710146102185780638129fc1c1461023a5780638da5cb5b1461024f5780639c0ace291461027c578063a217fddf1461029c578063aa8b2ea7146102b1578063bc9f8dd3146102d3578063cd0da492146102f3578063cfe7f9a714610313578063d539139314610333578063e63ab1e914610355578063e7705db614610377578063edc0b2e614610399578063f2fde38b146103bb578063f515e6f2146103db578063f72c0d8b146103fd575b600080fd5b34801561012c57600080fd5b50610142600080516020611dce83398151915281565b6040519081526020015b60405180910390f35b34801561016157600080fd5b50610175610170366004611a86565b61041f565b005b34801561018357600080fd5b50610142600080516020611f3583398151915281565b3480156101a557600080fd5b506101756101b4366004611ab9565b61056b565b6101756101c7366004611aea565b61063c565b3480156101d857600080fd5b506101426106f5565b3480156101ed57600080fd5b50610142600080516020611f5583398151915281565b34801561020f57600080fd5b506101756107a3565b34801561022457600080fd5b50610142600080516020611e8e83398151915281565b34801561024657600080fd5b506101756107b7565b34801561025b57600080fd5b506102646108d6565b6040516001600160a01b03909116815260200161014c565b34801561028857600080fd5b50610175610297366004611bab565b6108e5565b3480156102a857600080fd5b50610142600081565b3480156102bd57600080fd5b50610142600080516020611e6e83398151915281565b3480156102df57600080fd5b506101756102ee366004611bab565b610e59565b3480156102ff57600080fd5b5061017561030e366004611a86565b611366565b34801561031f57600080fd5b5061017561032e366004611bab565b61141a565b34801561033f57600080fd5b50610142600080516020611ef583398151915281565b34801561036157600080fd5b50610142600080516020611eae83398151915281565b34801561038357600080fd5b50610142600080516020611f7583398151915281565b3480156103a557600080fd5b50610142600080516020611dee83398151915281565b3480156103c757600080fd5b506101756103d6366004611ab9565b6114ce565b3480156103e757600080fd5b50610142600080516020611f1583398151915281565b34801561040957600080fd5b50610142600080516020611e2e83398151915281565b610427611544565b60405163d547741f60e01b815282906001600160a01b0382169063d547741f9061046590600080516020611eae833981519152908690600401611c2e565b600060405180830381600087803b15801561047f57600080fd5b505af1158015610493573d6000803e3d6000fd5b505060405163d547741f60e01b81526001600160a01b038416925063d547741f91506104d390600080516020611e2e833981519152908690600401611c2e565b600060405180830381600087803b1580156104ed57600080fd5b505af1158015610501573d6000803e3d6000fd5b505060405163d547741f60e01b81526001600160a01b038416925063d547741f9150610534906000908690600401611c2e565b600060405180830381600087803b15801561054e57600080fd5b505af1158015610562573d6000803e3d6000fd5b50505050505050565b6001600160a01b037f00000000000000000000000000000000000000000000000000000000000000001630036105bc5760405162461bcd60e51b81526004016105b390611c45565b60405180910390fd5b7f00000000000000000000000000000000000000000000000000000000000000006001600160a01b03166105ee6115a3565b6001600160a01b0316146106145760405162461bcd60e51b81526004016105b390611c7f565b61061d816115bf565b60408051600080825260208201909252610639918391906115c7565b50565b6001600160a01b037f00000000000000000000000000000000000000000000000000000000000000001630036106845760405162461bcd60e51b81526004016105b390611c45565b7f00000000000000000000000000000000000000000000000000000000000000006001600160a01b03166106b66115a3565b6001600160a01b0316146106dc5760405162461bcd60e51b81526004016105b390611c7f565b6106e5826115bf565b6106f1828260016115c7565b5050565b6000306001600160a01b037f000000000000000000000000000000000000000000000000000000000000000016146107905760405162461bcd60e51b815260206004820152603860248201527f555550535570677261646561626c653a206d757374206e6f742062652063616c6044820152771b1959081d1a1c9bdd59da0819195b1959d85d1958d85b1b60421b60648201526084016105b3565b50600080516020611e4e83398151915290565b6107ab611544565b6107b56000611737565b565b600054610100900460ff16158080156107d75750600054600160ff909116105b806107f857506107e630611789565b1580156107f8575060005460ff166001145b61085b5760405162461bcd60e51b815260206004820152602e60248201527f496e697469616c697a61626c653a20636f6e747261637420697320616c72656160448201526d191e481a5b9a5d1a585b1a5e995960921b60648201526084016105b3565b6000805460ff19166001179055801561087e576000805461ff0019166101001790555b610886611798565b61088e6117c7565b8015610639576000805461ff0019169055604051600181527f7f26b83ff96e1f2b6a682f133852f6798a09c465da95921460cefb38474024989060200160405180910390a150565b6033546001600160a01b031690565b6108ed611544565b60005b82811015610e5357600084848381811061090c5761090c611cb9565b90506020020160208101906109219190611ab9565b60405163d547741f60e01b81529091506001600160a01b0382169063d547741f9061096090600080516020611e8e833981519152908790600401611c2e565b600060405180830381600087803b15801561097a57600080fd5b505af115801561098e573d6000803e3d6000fd5b505060405163d547741f60e01b81526001600160a01b038416925063d547741f91506109ce90600080516020611eae833981519152908790600401611c2e565b600060405180830381600087803b1580156109e857600080fd5b505af11580156109fc573d6000803e3d6000fd5b505060405163d547741f60e01b81526001600160a01b038416925063d547741f9150610a3c90600080516020611dee833981519152908790600401611c2e565b600060405180830381600087803b158015610a5657600080fd5b505af1158015610a6a573d6000803e3d6000fd5b505060405163d547741f60e01b81526001600160a01b038416925063d547741f9150610aaa90600080516020611f55833981519152908790600401611c2e565b600060405180830381600087803b158015610ac457600080fd5b505af1158015610ad8573d6000803e3d6000fd5b505060405163d547741f60e01b81526001600160a01b038416925063d547741f9150610b1890600080516020611ef5833981519152908790600401611c2e565b600060405180830381600087803b158015610b3257600080fd5b505af1158015610b46573d6000803e3d6000fd5b505060405163d547741f60e01b81526001600160a01b038416925063d547741f9150610b8690600080516020611e2e833981519152908790600401611c2e565b600060405180830381600087803b158015610ba057600080fd5b505af1158015610bb4573d6000803e3d6000fd5b505060405163d547741f60e01b81526001600160a01b038416925063d547741f9150610bf490600080516020611e6e833981519152908790600401611c2e565b600060405180830381600087803b158015610c0e57600080fd5b505af1158015610c22573d6000803e3d6000fd5b505060405163d547741f60e01b81526001600160a01b038416925063d547741f9150610c6290600080516020611f15833981519152908790600401611c2e565b600060405180830381600087803b158015610c7c57600080fd5b505af1158015610c90573d6000803e3d6000fd5b505060405163d547741f60e01b81526001600160a01b038416925063d547741f9150610cd090600080516020611dce833981519152908790600401611c2e565b600060405180830381600087803b158015610cea57600080fd5b505af1158015610cfe573d6000803e3d6000fd5b505060405163d547741f60e01b81526001600160a01b038416925063d547741f9150610d3e90600080516020611f75833981519152908790600401611c2e565b600060405180830381600087803b158015610d5857600080fd5b505af1158015610d6c573d6000803e3d6000fd5b505060405163d547741f60e01b81526001600160a01b038416925063d547741f9150610dac90600080516020611f35833981519152908790600401611c2e565b600060405180830381600087803b158015610dc657600080fd5b505af1158015610dda573d6000803e3d6000fd5b505060405163d547741f60e01b81526001600160a01b038416925063d547741f9150610e0d906000908790600401611c2e565b600060405180830381600087803b158015610e2757600080fd5b505af1158015610e3b573d6000803e3d6000fd5b50505050508080610e4b90611ccf565b9150506108f0565b50505050565b610e61611544565b60005b82811015610e53576000848483818110610e8057610e80611cb9565b9050602002016020810190610e959190611ab9565b604051632f2ff15d60e01b81529091506001600160a01b03821690632f2ff15d90610ed490600080516020611e8e833981519152908790600401611c2e565b600060405180830381600087803b158015610eee57600080fd5b505af1158015610f02573d6000803e3d6000fd5b5050604051632f2ff15d60e01b81526001600160a01b0384169250632f2ff15d9150610f4290600080516020611eae833981519152908790600401611c2e565b600060405180830381600087803b158015610f5c57600080fd5b505af1158015610f70573d6000803e3d6000fd5b5050604051632f2ff15d60e01b81526001600160a01b0384169250632f2ff15d9150610fb090600080516020611dee833981519152908790600401611c2e565b600060405180830381600087803b158015610fca57600080fd5b505af1158015610fde573d6000803e3d6000fd5b5050604051632f2ff15d60e01b81526001600160a01b0384169250632f2ff15d915061101e90600080516020611f55833981519152908790600401611c2e565b600060405180830381600087803b15801561103857600080fd5b505af115801561104c573d6000803e3d6000fd5b5050604051632f2ff15d60e01b81526001600160a01b0384169250632f2ff15d915061108c90600080516020611ef5833981519152908790600401611c2e565b600060405180830381600087803b1580156110a657600080fd5b505af11580156110ba573d6000803e3d6000fd5b5050604051632f2ff15d60e01b81526001600160a01b0384169250632f2ff15d91506110fa90600080516020611e2e833981519152908790600401611c2e565b600060405180830381600087803b15801561111457600080fd5b505af1158015611128573d6000803e3d6000fd5b5050604051632f2ff15d60e01b81526001600160a01b0384169250632f2ff15d915061116890600080516020611e6e833981519152908790600401611c2e565b600060405180830381600087803b15801561118257600080fd5b505af1158015611196573d6000803e3d6000fd5b5050604051632f2ff15d60e01b81526001600160a01b0384169250632f2ff15d91506111d690600080516020611f15833981519152908790600401611c2e565b600060405180830381600087803b1580156111f057600080fd5b505af1158015611204573d6000803e3d6000fd5b5050604051632f2ff15d60e01b81526001600160a01b0384169250632f2ff15d915061124490600080516020611dce833981519152908790600401611c2e565b600060405180830381600087803b15801561125e57600080fd5b505af1158015611272573d6000803e3d6000fd5b5050604051632f2ff15d60e01b81526001600160a01b0384169250632f2ff15d91506112b290600080516020611f75833981519152908790600401611c2e565b600060405180830381600087803b1580156112cc57600080fd5b505af11580156112e0573d6000803e3d6000fd5b5050604051632f2ff15d60e01b81526001600160a01b0384169250632f2ff15d915061132090600080516020611f35833981519152908790600401611c2e565b600060405180830381600087803b15801561133a57600080fd5b505af115801561134e573d6000803e3d6000fd5b5050505050808061135e90611ccf565b915050610e64565b61136e611544565b604051632f2ff15d60e01b815282906001600160a01b03821690632f2ff15d906113ac90600080516020611eae833981519152908690600401611c2e565b600060405180830381600087803b1580156113c657600080fd5b505af11580156113da573d6000803e3d6000fd5b5050604051632f2ff15d60e01b81526001600160a01b0384169250632f2ff15d915061053490600080516020611e2e833981519152908690600401611c2e565b611422611544565b60005b82811015610e5357600084848381811061144157611441611cb9565b90506020020160208101906114569190611ab9565b604051632f2ff15d60e01b81529091506001600160a01b03821690632f2ff15d90611488906000908790600401611c2e565b600060405180830381600087803b1580156114a257600080fd5b505af11580156114b6573d6000803e3d6000fd5b505050505080806114c690611ccf565b915050611425565b6114d6611544565b6001600160a01b03811661153b5760405162461bcd60e51b815260206004820152602660248201527f4f776e61626c653a206e6577206f776e657220697320746865207a65726f206160448201526564647265737360d01b60648201526084016105b3565b61063981611737565b3361154d6108d6565b6001600160a01b0316146107b55760405162461bcd60e51b815260206004820181905260248201527f4f776e61626c653a2063616c6c6572206973206e6f7420746865206f776e657260448201526064016105b3565b600080516020611e4e833981519152546001600160a01b031690565b610639611544565b7f4910fdfa16fed3260ed0e7147f7cc6da11a60208b5b9406d12a635614ffd91435460ff16156115ff576115fa836117ee565b505050565b826001600160a01b03166352d1902d6040518163ffffffff1660e01b8152600401602060405180830381865afa925050508015611659575060408051601f3d908101601f1916820190925261165691810190611cf6565b60015b6116bc5760405162461bcd60e51b815260206004820152602e60248201527f45524331393637557067726164653a206e657720696d706c656d656e7461746960448201526d6f6e206973206e6f74205555505360901b60648201526084016105b3565b600080516020611e4e833981519152811461172b5760405162461bcd60e51b815260206004820152602960248201527f45524331393637557067726164653a20756e737570706f727465642070726f786044820152681a58589b195555525160ba1b60648201526084016105b3565b506115fa838383611888565b603380546001600160a01b038381166001600160a01b0319831681179093556040519116919082907f8be0079c531659141344cd1fd0a4f28419497f9722a3daafe3b4186f6b6457e090600090a35050565b6001600160a01b03163b151590565b600054610100900460ff166117bf5760405162461bcd60e51b81526004016105b390611d0f565b6107b56118ad565b600054610100900460ff166107b55760405162461bcd60e51b81526004016105b390611d0f565b6117f781611789565b6118595760405162461bcd60e51b815260206004820152602d60248201527f455243313936373a206e657720696d706c656d656e746174696f6e206973206e60448201526c1bdd08184818dbdb9d1c9858dd609a1b60648201526084016105b3565b600080516020611e4e83398151915280546001600160a01b0319166001600160a01b0392909216919091179055565b611891836118dd565b60008251118061189e5750805b156115fa57610e53838361191d565b600054610100900460ff166118d45760405162461bcd60e51b81526004016105b390611d0f565b6107b533611737565b6118e6816117ee565b6040516001600160a01b038216907fbc7cd75a20ee27fd9adebab32041f755214dbc6bffa90cc0225b39da2e5c2d3b90600090a250565b60606119428383604051806060016040528060278152602001611ece60279139611949565b9392505050565b6060600080856001600160a01b0316856040516119669190611d7e565b600060405180830381855af49150503d80600081146119a1576040519150601f19603f3d011682016040523d82523d6000602084013e6119a6565b606091505b50915091506119b7868383876119c1565b9695505050505050565b60608315611a2e578251600003611a27576119db85611789565b611a275760405162461bcd60e51b815260206004820152601d60248201527f416464726573733a2063616c6c20746f206e6f6e2d636f6e747261637400000060448201526064016105b3565b5081611a38565b611a388383611a40565b949350505050565b815115611a505781518083602001fd5b8060405162461bcd60e51b81526004016105b39190611d9a565b80356001600160a01b0381168114611a8157600080fd5b919050565b60008060408385031215611a9957600080fd5b611aa283611a6a565b9150611ab060208401611a6a565b90509250929050565b600060208284031215611acb57600080fd5b61194282611a6a565b634e487b7160e01b600052604160045260246000fd5b60008060408385031215611afd57600080fd5b611b0683611a6a565b915060208301356001600160401b0380821115611b2257600080fd5b818501915085601f830112611b3657600080fd5b813581811115611b4857611b48611ad4565b604051601f8201601f19908116603f01168101908382118183101715611b7057611b70611ad4565b81604052828152886020848701011115611b8957600080fd5b8260208601602083013760006020848301015280955050505050509250929050565b600080600060408486031215611bc057600080fd5b83356001600160401b0380821115611bd757600080fd5b818601915086601f830112611beb57600080fd5b813581811115611bfa57600080fd5b8760208260051b8501011115611c0f57600080fd5b602092830195509350611c259186019050611a6a565b90509250925092565b9182526001600160a01b0316602082015260400190565b6020808252602c90820152600080516020611e0e83398151915260408201526b19195b1959d85d1958d85b1b60a21b606082015260800190565b6020808252602c90820152600080516020611e0e83398151915260408201526b6163746976652070726f787960a01b606082015260800190565b634e487b7160e01b600052603260045260246000fd5b600060018201611cef57634e487b7160e01b600052601160045260246000fd5b5060010190565b600060208284031215611d0857600080fd5b5051919050565b6020808252602b908201527f496e697469616c697a61626c653a20636f6e7472616374206973206e6f74206960408201526a6e697469616c697a696e6760a81b606082015260800190565b60005b83811015611d75578181015183820152602001611d5d565b50506000910152565b60008251611d90818460208701611d5a565b9190910192915050565b6020815260008251806020840152611db9816040850160208701611d5a565b601f01601f1916919091016040019291505056fe3c11d16cbaffd01df69ce1c404f6340ee057498f5f00246190ea54220576a848d5bbb2f0fbfc1d5938ca13cabd3156d362f7862fa87504c8d589f5e8f2cbc45346756e6374696f6e206d7573742062652063616c6c6564207468726f75676820189ab7a9244df0848122154315af71fe140f3db0fe014031783b0946b8c9d2e3360894a13ba1a3210667c828492db98dca3e2076cc3735a920a3ca505d382bbcf48dee1a72497b9e734e498e1b3086c0d2dbcca13f16f15848f974469f906bbf7804d923f43a17d325d77e781528e0793b2edd9890ab45fc64efd7b4b427744c65d7a28e3265b37a6474929f336521b332c1681b933f6cb9f3376673440d862a416464726573733a206c6f772d6c6576656c2064656c65676174652063616c6c206661696c65649f2df0fed2c77648de5860a4cc508cd0818c85b8b8a1ab4ceeef8d981c8956a698db8a220cd0f09badce9f22d0ba7e93edb3d404448cc3560d391ab096ad16e94bbc247fc4736523c8bdd1853fee2acfa817d663f8f4422b13e78ebf99e204a2ddf79b8d2110dbe281cf3bb7762d508cea586c974794c8fc949d41b0db1145130ce23c3e399818cfee81a7ab0880f714e53d7672b08df0fa62f2843416e1ea09a2646970667358221220677ff9ab8273bddac182a54f965502378aae995564535bbb7facc20638dc119564736f6c63430008140033",
  "devdoc": {
    "events": {
      "AdminChanged(address,address)": {
        "details": "Emitted when the admin account has changed."
      },
      "BeaconUpgraded(address)": {
        "details": "Emitted when the beacon is changed."
      },
      "Initialized(uint8)": {
        "details": "Triggered when the contract has been initialized or reinitialized."
      },
      "Upgraded(address)": {
        "details": "Emitted when the implementation is upgraded."
      }
    },
    "kind": "dev",
    "methods": {
      "constructor": {
        "custom:oz-upgrades-unsafe-allow": "constructor"
      },
      "owner()": {
        "details": "Returns the address of the current owner."
      },
      "proxiableUUID()": {
        "details": "Implementation of the ERC1822 {proxiableUUID} function. This returns the storage slot used by the implementation. It is used to validate the implementation's compatibility when performing an upgrade. IMPORTANT: A proxy pointing at a proxiable contract should not be considered proxiable itself, because this risks bricking a proxy that upgrades to it, by delegating to itself until out of gas. Thus it is critical that this function revert if invoked through a proxy. This is guaranteed by the `notDelegated` modifier."
      },
      "renounceOwnership()": {
        "details": "Leaves the contract without owner. It will not be possible to call `onlyOwner` functions. Can only be called by the current owner. NOTE: Renouncing ownership will leave the contract without an owner, thereby disabling any functionality that is only available to the owner."
      },
      "transferOwnership(address)": {
        "details": "Transfers ownership of the contract to a new account (`newOwner`). Can only be called by the current owner."
      },
      "upgradeTo(address)": {
        "custom:oz-upgrades-unsafe-allow-reachable": "delegatecall",
        "details": "Upgrade the implementation of the proxy to `newImplementation`. Calls {_authorizeUpgrade}. Emits an {Upgraded} event."
      },
      "upgradeToAndCall(address,bytes)": {
        "custom:oz-upgrades-unsafe-allow-reachable": "delegatecall",
        "details": "Upgrade the implementation of the proxy to `newImplementation`, and subsequently execute the function call encoded in `data`. Calls {_authorizeUpgrade}. Emits an {Upgraded} event."
      }
    },
    "version": 1
  },
  "userdoc": {
    "kind": "user",
    "methods": {},
    "version": 1
  },
  "storageLayout": {
    "storage": [
      {
        "astId": 578,
        "contract": "contracts/AccessControl.sol:AccessController",
        "label": "_initialized",
        "offset": 0,
        "slot": "0",
        "type": "t_uint8"
      },
      {
        "astId": 581,
        "contract": "contracts/AccessControl.sol:AccessController",
        "label": "_initializing",
        "offset": 1,
        "slot": "0",
        "type": "t_bool"
      },
      {
        "astId": 1257,
        "contract": "contracts/AccessControl.sol:AccessController",
        "label": "__gap",
        "offset": 0,
        "slot": "1",
        "type": "t_array(t_uint256)50_storage"
      },
      {
        "astId": 84,
        "contract": "contracts/AccessControl.sol:AccessController",
        "label": "_owner",
        "offset": 0,
        "slot": "51",
        "type": "t_address"
      },
      {
        "astId": 204,
        "contract": "contracts/AccessControl.sol:AccessController",
        "label": "__gap",
        "offset": 0,
        "slot": "52",
        "type": "t_array(t_uint256)49_storage"
      },
      {
        "astId": 560,
        "contract": "contracts/AccessControl.sol:AccessController",
        "label": "__gap",
        "offset": 0,
        "slot": "101",
        "type": "t_array(t_uint256)50_storage"
      },
      {
        "astId": 876,
        "contract": "contracts/AccessControl.sol:AccessController",
        "label": "__gap",
        "offset": 0,
        "slot": "151",
        "type": "t_array(t_uint256)50_storage"
      }
    ],
    "types": {
      "t_address": {
        "encoding": "inplace",
        "label": "address",
        "numberOfBytes": "20"
      },
      "t_array(t_uint256)49_storage": {
        "base": "t_uint256",
        "encoding": "inplace",
        "label": "uint256[49]",
        "numberOfBytes": "1568"
      },
      "t_array(t_uint256)50_storage": {
        "base": "t_uint256",
        "encoding": "inplace",
        "label": "uint256[50]",
        "numberOfBytes": "1600"
      },
      "t_bool": {
        "encoding": "inplace",
        "label": "bool",
        "numberOfBytes": "1"
      },
      "t_uint256": {
        "encoding": "inplace",
        "label": "uint256",
        "numberOfBytes": "32"
      },
      "t_uint8": {
        "encoding": "inplace",
        "label": "uint8",
        "numberOfBytes": "1"
      }
    }
  }
}