{
  "address": "0x72A64Af607cEca95c7f474aAd2e606583Fe7636d",
  "abi": [
    {
      "inputs": [],
      "stateMutability": "nonpayable",
      "type": "constructor"
    },
    {
      "anonymous": false,
      "inputs": [
        {
          "indexed": false,
          "internalType": "address",
          "name": "previousAdmin",
          "type": "address"
        },
        {
          "indexed": false,
          "internalType": "address",
          "name": "newAdmin",
          "type": "address"
        }
      ],
      "name": "AdminChanged",
      "type": "event"
    },
    {
      "anonymous": false,
      "inputs": [
        {
          "indexed": true,
          "internalType": "address",
          "name": "beacon",
          "type": "address"
        }
      ],
      "name": "BeaconUpgraded",
      "type": "event"
    },
    {
      "anonymous": false,
      "inputs": [
        {
          "indexed": false,
          "internalType": "uint8",
          "name": "version",
          "type": "uint8"
        }
      ],
      "name": "Initialized",
      "type": "event"
    },
    {
      "anonymous": false,
      "inputs": [
        {
          "indexed": false,
          "internalType": "address",
          "name": "account",
          "type": "address"
        }
      ],
      "name": "Paused",
      "type": "event"
    },
    {
      "anonymous": false,
      "inputs": [
        {
          "indexed": true,
          "internalType": "bytes32",
          "name": "role",
          "type": "bytes32"
        },
        {
          "indexed": true,
          "internalType": "bytes32",
          "name": "previousAdminRole",
          "type": "bytes32"
        },
        {
          "indexed": true,
          "internalType": "bytes32",
          "name": "newAdminRole",
          "type": "bytes32"
        }
      ],
      "name": "RoleAdminChanged",
      "type": "event"
    },
    {
      "anonymous": false,
      "inputs": [
        {
          "indexed": true,
          "internalType": "bytes32",
          "name": "role",
          "type": "bytes32"
        },
        {
          "indexed": true,
          "internalType": "address",
          "name": "account",
          "type": "address"
        },
        {
          "indexed": true,
          "internalType": "address",
          "name": "sender",
          "type": "address"
        }
      ],
      "name": "RoleGranted",
      "type": "event"
    },
    {
      "anonymous": false,
      "inputs": [
        {
          "indexed": true,
          "internalType": "bytes32",
          "name": "role",
          "type": "bytes32"
        },
        {
          "indexed": true,
          "internalType": "address",
          "name": "account",
          "type": "address"
        },
        {
          "indexed": true,
          "internalType": "address",
          "name": "sender",
          "type": "address"
        }
      ],
      "name": "RoleRevoked",
      "type": "event"
    },
    {
      "anonymous": false,
      "inputs": [
        {
          "indexed": false,
          "internalType": "address",
          "name": "account",
          "type": "address"
        }
      ],
      "name": "Unpaused",
      "type": "event"
    },
    {
      "anonymous": false,
      "inputs": [
        {
          "indexed": true,
          "internalType": "address",
          "name": "implementation",
          "type": "address"
        }
      ],
      "name": "Upgraded",
      "type": "event"
    },
    {
      "inputs": [],
      "name": "DEFAULT_ADMIN_ROLE",
      "outputs": [
        {
          "internalType": "bytes32",
          "name": "",
          "type": "bytes32"
        }
      ],
      "stateMutability": "view",
      "type": "function"
    },
    {
      "inputs": [],
      "name": "UPGRADER_ROLE",
      "outputs": [
        {
          "internalType": "bytes32",
          "name": "",
          "type": "bytes32"
        }
      ],
      "stateMutability": "view",
      "type": "function"
    },
    {
      "inputs": [
        {
          "components": [
            {
              "internalType": "address",
              "name": "contractAddress",
              "type": "address"
            },
            {
              "components": [
                {
                  "internalType": "uint256",
                  "name": "deadline",
                  "type": "uint256"
                },
                {
                  "internalType": "string",
                  "name": "description",
                  "type": "string"
                },
                {
                  "internalType": "address",
                  "name": "signer",
                  "type": "address"
                },
                {
                  "internalType": "address",
                  "name": "to",
                  "type": "address"
                },
                {
                  "internalType": "uint256[]",
                  "name": "tokenIds",
                  "type": "uint256[]"
                },
                {
                  "internalType": "uint256[]",
                  "name": "amounts",
                  "type": "uint256[]"
                },
                {
                  "internalType": "uint256",
                  "name": "nonce",
                  "type": "uint256"
                }
              ],
              "internalType": "struct signatureBatchTransferPayload",
              "name": "payload",
              "type": "tuple"
            },
            {
              "internalType": "bytes",
              "name": "signature",
              "type": "bytes"
            }
          ],
          "internalType": "struct SignatureBatchTransferPayload[]",
          "name": "transferItems",
          "type": "tuple[]"
        },
        {
          "components": [
            {
              "internalType": "address",
              "name": "contractAddress",
              "type": "address"
            },
            {
              "components": [
                {
                  "internalType": "uint256",
                  "name": "deadline",
                  "type": "uint256"
                },
                {
                  "internalType": "string",
                  "name": "description",
                  "type": "string"
                },
                {
                  "internalType": "address",
                  "name": "signer",
                  "type": "address"
                },
                {
                  "internalType": "address",
                  "name": "to",
                  "type": "address"
                },
                {
                  "internalType": "uint256[]",
                  "name": "tokenIds",
                  "type": "uint256[]"
                },
                {
                  "internalType": "uint256[]",
                  "name": "amounts",
                  "type": "uint256[]"
                },
                {
                  "internalType": "uint256",
                  "name": "nonce",
                  "type": "uint256"
                }
              ],
              "internalType": "struct signatureBatchTransferPayload",
              "name": "payload",
              "type": "tuple"
            },
            {
              "internalType": "bytes",
              "name": "signature",
              "type": "bytes"
            }
          ],
          "internalType": "struct SignatureBatchRetirementPayload[]",
          "name": "retirementItems",
          "type": "tuple[]"
        },
        {
          "internalType": "string",
          "name": "retireeName",
          "type": "string"
        },
        {
          "internalType": "string",
          "name": "customUri",
          "type": "string"
        },
        {
          "internalType": "string",
          "name": "comment",
          "type": "string"
        },
        {
          "internalType": "bytes",
          "name": "transferData",
          "type": "bytes"
        },
        {
          "internalType": "bytes",
          "name": "retirementData",
          "type": "bytes"
        }
      ],
      "name": "batchTransferOrRetire",
      "outputs": [],
      "stateMutability": "nonpayable",
      "type": "function"
    },
    {
      "inputs": [
        {
          "internalType": "bytes32",
          "name": "role",
          "type": "bytes32"
        }
      ],
      "name": "getRoleAdmin",
      "outputs": [
        {
          "internalType": "bytes32",
          "name": "",
          "type": "bytes32"
        }
      ],
      "stateMutability": "view",
      "type": "function"
    },
    {
      "inputs": [
        {
          "internalType": "bytes32",
          "name": "role",
          "type": "bytes32"
        },
        {
          "internalType": "address",
          "name": "account",
          "type": "address"
        }
      ],
      "name": "grantRole",
      "outputs": [],
      "stateMutability": "nonpayable",
      "type": "function"
    },
    {
      "inputs": [
        {
          "components": [
            {
              "internalType": "address",
              "name": "contractAddress",
              "type": "address"
            },
            {
              "components": [
                {
                  "internalType": "uint256",
                  "name": "deadline",
                  "type": "uint256"
                },
                {
                  "internalType": "string",
                  "name": "description",
                  "type": "string"
                },
                {
                  "internalType": "address",
                  "name": "signer",
                  "type": "address"
                },
                {
                  "internalType": "address",
                  "name": "to",
                  "type": "address"
                },
                {
                  "internalType": "uint256[]",
                  "name": "tokenIds",
                  "type": "uint256[]"
                },
                {
                  "internalType": "uint256[]",
                  "name": "amounts",
                  "type": "uint256[]"
                },
                {
                  "internalType": "uint256",
                  "name": "nonce",
                  "type": "uint256"
                }
              ],
              "internalType": "struct signatureBatchTransferPayload",
              "name": "payload",
              "type": "tuple"
            },
            {
              "internalType": "bytes",
              "name": "signature",
              "type": "bytes"
            }
          ],
          "internalType": "struct SignatureBatchRetirementPayload[]",
          "name": "retirementItems",
          "type": "tuple[]"
        },
        {
          "internalType": "string",
          "name": "retireeName",
          "type": "string"
        },
        {
          "internalType": "string",
          "name": "customUri",
          "type": "string"
        },
        {
          "internalType": "string",
          "name": "comment",
          "type": "string"
        },
        {
          "internalType": "bytes",
          "name": "retirementData",
          "type": "bytes"
        }
      ],
      "name": "handleRetirements",
      "outputs": [],
      "stateMutability": "nonpayable",
      "type": "function"
    },
    {
      "inputs": [
        {
          "components": [
            {
              "internalType": "address",
              "name": "contractAddress",
              "type": "address"
            },
            {
              "components": [
                {
                  "internalType": "uint256",
                  "name": "deadline",
                  "type": "uint256"
                },
                {
                  "internalType": "string",
                  "name": "description",
                  "type": "string"
                },
                {
                  "internalType": "address",
                  "name": "signer",
                  "type": "address"
                },
                {
                  "internalType": "address",
                  "name": "to",
                  "type": "address"
                },
                {
                  "internalType": "uint256[]",
                  "name": "tokenIds",
                  "type": "uint256[]"
                },
                {
                  "internalType": "uint256[]",
                  "name": "amounts",
                  "type": "uint256[]"
                },
                {
                  "internalType": "uint256",
                  "name": "nonce",
                  "type": "uint256"
                }
              ],
              "internalType": "struct signatureBatchTransferPayload",
              "name": "payload",
              "type": "tuple"
            },
            {
              "internalType": "bytes",
              "name": "signature",
              "type": "bytes"
            }
          ],
          "internalType": "struct SignatureBatchTransferPayload[]",
          "name": "transferItems",
          "type": "tuple[]"
        },
        {
          "internalType": "bytes",
          "name": "transferData",
          "type": "bytes"
        }
      ],
      "name": "handleTransfers",
      "outputs": [],
      "stateMutability": "nonpayable",
      "type": "function"
    },
    {
      "inputs": [
        {
          "internalType": "bytes32",
          "name": "role",
          "type": "bytes32"
        },
        {
          "internalType": "address",
          "name": "account",
          "type": "address"
        }
      ],
      "name": "hasRole",
      "outputs": [
        {
          "internalType": "bool",
          "name": "",
          "type": "bool"
        }
      ],
      "stateMutability": "view",
      "type": "function"
    },
    {
      "inputs": [],
      "name": "initialize",
      "outputs": [],
      "stateMutability": "nonpayable",
      "type": "function"
    },
    {
      "inputs": [],
      "name": "paused",
      "outputs": [
        {
          "internalType": "bool",
          "name": "",
          "type": "bool"
        }
      ],
      "stateMutability": "view",
      "type": "function"
    },
    {
      "inputs": [],
      "name": "proxiableUUID",
      "outputs": [
        {
          "internalType": "bytes32",
          "name": "",
          "type": "bytes32"
        }
      ],
      "stateMutability": "view",
      "type": "function"
    },
    {
      "inputs": [
        {
          "internalType": "bytes32",
          "name": "role",
          "type": "bytes32"
        },
        {
          "internalType": "address",
          "name": "account",
          "type": "address"
        }
      ],
      "name": "renounceRole",
      "outputs": [],
      "stateMutability": "nonpayable",
      "type": "function"
    },
    {
      "inputs": [
        {
          "internalType": "bytes32",
          "name": "role",
          "type": "bytes32"
        },
        {
          "internalType": "address",
          "name": "account",
          "type": "address"
        }
      ],
      "name": "revokeRole",
      "outputs": [],
      "stateMutability": "nonpayable",
      "type": "function"
    },
    {
      "inputs": [
        {
          "internalType": "bytes4",
          "name": "interfaceId",
          "type": "bytes4"
        }
      ],
      "name": "supportsInterface",
      "outputs": [
        {
          "internalType": "bool",
          "name": "",
          "type": "bool"
        }
      ],
      "stateMutability": "view",
      "type": "function"
    },
    {
      "inputs": [
        {
          "internalType": "address",
          "name": "newImplementation",
          "type": "address"
        }
      ],
      "name": "upgradeTo",
      "outputs": [],
      "stateMutability": "nonpayable",
      "type": "function"
    },
    {
      "inputs": [
        {
          "internalType": "address",
          "name": "newImplementation",
          "type": "address"
        },
        {
          "internalType": "bytes",
          "name": "data",
          "type": "bytes"
        }
      ],
      "name": "upgradeToAndCall",
      "outputs": [],
      "stateMutability": "payable",
      "type": "function"
    }
  ],
  "numDeployments": 1,
  "solcInputHash": "d327dd605406b6e1aeaa9cc47c1ca6e3",
  "bytecode": "0x60a06040523060805234801561001457600080fd5b5061001d610022565b6100e1565b600054610100900460ff161561008e5760405162461bcd60e51b815260206004820152602760248201527f496e697469616c697a61626c653a20636f6e747261637420697320696e697469604482015266616c697a696e6760c81b606482015260840160405180910390fd5b60005460ff908116146100df576000805460ff191660ff9081179091556040519081527f7f26b83ff96e1f2b6a682f133852f6798a09c465da95921460cefb38474024989060200160405180910390a15b565b608051611cde610118600039600081816104d6015281816105160152818161059e015281816105de01526106560152611cde6000f3fe6080604052600436106100c35760003560e01c806301ffc9a7146100c85780630dee1707146100fd578063248a9ca31461011f5780632f2ff15d1461014d57806336568abe1461016d5780633659cfe61461018d5780634f1ef286146101ad57806352d1902d146101c05780635c975abb146101d557806369ffd930146101ed5780638129fc1c1461020d57806391d1485414610222578063a217fddf14610242578063cc944ef314610257578063d547741f14610277578063f72c0d8b14610297575b600080fd5b3480156100d457600080fd5b506100e86100e3366004611175565b6102b9565b60405190151581526020015b60405180910390f35b34801561010957600080fd5b5061011d61011836600461122b565b6102f0565b005b34801561012b57600080fd5b5061013f61013a366004611296565b610413565b6040519081526020016100f4565b34801561015957600080fd5b5061011d6101683660046112cb565b610428565b34801561017957600080fd5b5061011d6101883660046112cb565b610449565b34801561019957600080fd5b5061011d6101a83660046112f7565b6104cc565b61011d6101bb3660046113af565b610594565b3480156101cc57600080fd5b5061013f610649565b3480156101e157600080fd5b5060335460ff166100e8565b3480156101f957600080fd5b5061011d610208366004611430565b6106f7565b34801561021957600080fd5b5061011d610839565b34801561022e57600080fd5b506100e861023d3660046112cb565b610983565b34801561024e57600080fd5b5061013f600081565b34801561026357600080fd5b5061011d61027236600461150d565b6109ae565b34801561028357600080fd5b5061011d6102923660046112cb565b6109d6565b3480156102a357600080fd5b5061013f600080516020611c4283398151915281565b60006001600160e01b03198216637965db0b60e01b14806102ea57506301ffc9a760e01b6001600160e01b03198316145b92915050565b60005b8381101561040c57600085858381811061030f5761030f611645565b9050602002810190610321919061165b565b61032f9060208101906112f7565b9050806001600160a01b0316638b42ecc187878581811061035257610352611645565b9050602002810190610364919061165b565b61037290604081019061167b565b89898781811061038457610384611645565b9050602002810190610396919061165b565b6103a49060208101906116c1565b88886040518663ffffffff1660e01b81526004016103c695949392919061187a565b600060405180830381600087803b1580156103e057600080fd5b505af11580156103f4573d6000803e3d6000fd5b50505050508080610404906118d7565b9150506102f3565b5050505050565b60009081526097602052604090206001015490565b61043182610413565b61043a816109f2565b61044483836109fc565b505050565b6001600160a01b03811633146104be5760405162461bcd60e51b815260206004820152602f60248201527f416363657373436f6e74726f6c3a2063616e206f6e6c792072656e6f756e636560448201526e103937b632b9903337b91039b2b63360891b60648201526084015b60405180910390fd5b6104c88282610a82565b5050565b6001600160a01b037f00000000000000000000000000000000000000000000000000000000000000001630036105145760405162461bcd60e51b81526004016104b5906118f0565b7f00000000000000000000000000000000000000000000000000000000000000006001600160a01b0316610546610ae9565b6001600160a01b03161461056c5760405162461bcd60e51b81526004016104b59061192a565b61057581610b05565b6040805160008082526020820190925261059191839190610b1d565b50565b6001600160a01b037f00000000000000000000000000000000000000000000000000000000000000001630036105dc5760405162461bcd60e51b81526004016104b5906118f0565b7f00000000000000000000000000000000000000000000000000000000000000006001600160a01b031661060e610ae9565b6001600160a01b0316146106345760405162461bcd60e51b81526004016104b59061192a565b61063d82610b05565b6104c882826001610b1d565b6000306001600160a01b037f000000000000000000000000000000000000000000000000000000000000000016146106e45760405162461bcd60e51b815260206004820152603860248201527f555550535570677261646561626c653a206d757374206e6f742062652063616c6044820152771b1959081d1a1c9bdd59da0819195b1959d85d1958d85b1b60421b60648201526084016104b5565b50600080516020611c6283398151915290565b60005b8681101561082f57600088888381811061071657610716611645565b9050602002810190610728919061165b565b6107369060208101906112f7565b9050806001600160a01b031663c5bfc65a8a8a8581811061075957610759611645565b905060200281019061076b919061165b565b61077990604081019061167b565b8c8c8781811061078b5761078b611645565b905060200281019061079d919061165b565b6107ab9060208101906116c1565b8b8b8b8b8b6040518963ffffffff1660e01b81526004016107d39897969594939291906119bc565b6000604051808303816000875af11580156107f2573d6000803e3d6000fd5b505050506040513d6000823e601f3d908101601f1916820160405261081a9190810190611a42565b50508080610827906118d7565b9150506106fa565b5050505050505050565b600054610100900460ff16158080156108595750600054600160ff909116105b8061087a575061086830610c88565b15801561087a575060005460ff166001145b6108dd5760405162461bcd60e51b815260206004820152602e60248201527f496e697469616c697a61626c653a20636f6e747261637420697320616c72656160448201526d191e481a5b9a5d1a585b1a5e995960921b60648201526084016104b5565b6000805460ff191660011790558015610900576000805461ff0019166101001790555b610908610c97565b610910610cc8565b610918610cc8565b6109236000336109fc565b61093b600080516020611c42833981519152336109fc565b8015610591576000805461ff0019169055604051600181527f7f26b83ff96e1f2b6a682f133852f6798a09c465da95921460cefb38474024989060200160405180910390a150565b60009182526097602090815260408084206001600160a01b0393909316845291905290205460ff1690565b6109ba8b8b86866102f0565b6109c9898989898987876106f7565b5050505050505050505050565b6109df82610413565b6109e8816109f2565b6104448383610a82565b6105918133610cef565b610a068282610983565b6104c85760008281526097602090815260408083206001600160a01b03851684529091529020805460ff19166001179055610a3e3390565b6001600160a01b0316816001600160a01b0316837f2f8788117e7eff1d82e926ec794901d17c78024a50270940304540a733656f0d60405160405180910390a45050565b610a8c8282610983565b156104c85760008281526097602090815260408083206001600160a01b0385168085529252808320805460ff1916905551339285917ff6391f5c32d9c69d2a47ea670b442974b53935d1edc7fd64eb21e047a839171b9190a45050565b600080516020611c62833981519152546001600160a01b031690565b600080516020611c428339815191526104c8816109f2565b7f4910fdfa16fed3260ed0e7147f7cc6da11a60208b5b9406d12a635614ffd91435460ff1615610b505761044483610d48565b826001600160a01b03166352d1902d6040518163ffffffff1660e01b8152600401602060405180830381865afa925050508015610baa575060408051601f3d908101601f19168201909252610ba791810190611adb565b60015b610c0d5760405162461bcd60e51b815260206004820152602e60248201527f45524331393637557067726164653a206e657720696d706c656d656e7461746960448201526d6f6e206973206e6f74205555505360901b60648201526084016104b5565b600080516020611c628339815191528114610c7c5760405162461bcd60e51b815260206004820152602960248201527f45524331393637557067726164653a20756e737570706f727465642070726f786044820152681a58589b195555525160ba1b60648201526084016104b5565b50610444838383610de2565b6001600160a01b03163b151590565b600054610100900460ff16610cbe5760405162461bcd60e51b81526004016104b590611af4565b610cc6610e0d565b565b600054610100900460ff16610cc65760405162461bcd60e51b81526004016104b590611af4565b610cf98282610983565b6104c857610d0681610e40565b610d11836020610e52565b604051602001610d22929190611b3f565b60408051601f198184030181529082905262461bcd60e51b82526104b591600401611bae565b610d5181610c88565b610db35760405162461bcd60e51b815260206004820152602d60248201527f455243313936373a206e657720696d706c656d656e746174696f6e206973206e60448201526c1bdd08184818dbdb9d1c9858dd609a1b60648201526084016104b5565b600080516020611c6283398151915280546001600160a01b0319166001600160a01b0392909216919091179055565b610deb83610ff4565b600082511180610df85750805b1561044457610e078383611034565b50505050565b600054610100900460ff16610e345760405162461bcd60e51b81526004016104b590611af4565b6033805460ff19169055565b60606102ea6001600160a01b03831660145b60606000610e61836002611bc1565b610e6c906002611be0565b6001600160401b03811115610e8357610e83611312565b6040519080825280601f01601f191660200182016040528015610ead576020820181803683370190505b509050600360fc1b81600081518110610ec857610ec8611645565b60200101906001600160f81b031916908160001a905350600f60fb1b81600181518110610ef757610ef7611645565b60200101906001600160f81b031916908160001a9053506000610f1b846002611bc1565b610f26906001611be0565b90505b6001811115610f9e576f181899199a1a9b1b9c1cb0b131b232b360811b85600f1660108110610f5a57610f5a611645565b1a60f81b828281518110610f7057610f70611645565b60200101906001600160f81b031916908160001a90535060049490941c93610f9781611bf8565b9050610f29565b508315610fed5760405162461bcd60e51b815260206004820181905260248201527f537472696e67733a20686578206c656e67746820696e73756666696369656e7460448201526064016104b5565b9392505050565b610ffd81610d48565b6040516001600160a01b038216907fbc7cd75a20ee27fd9adebab32041f755214dbc6bffa90cc0225b39da2e5c2d3b90600090a250565b6060610fed8383604051806060016040528060278152602001611c82602791396060600080856001600160a01b0316856040516110719190611c0f565b600060405180830381855af49150503d80600081146110ac576040519150601f19603f3d011682016040523d82523d6000602084013e6110b1565b606091505b50915091506110c2868383876110cc565b9695505050505050565b60608315611139578251600003611132576110e685610c88565b6111325760405162461bcd60e51b815260206004820152601d60248201527f416464726573733a2063616c6c20746f206e6f6e2d636f6e747261637400000060448201526064016104b5565b5081611143565b611143838361114b565b949350505050565b81511561115b5781518083602001fd5b8060405162461bcd60e51b81526004016104b59190611bae565b60006020828403121561118757600080fd5b81356001600160e01b031981168114610fed57600080fd5b60008083601f8401126111b157600080fd5b5081356001600160401b038111156111c857600080fd5b6020830191508360208260051b85010111156111e357600080fd5b9250929050565b60008083601f8401126111fc57600080fd5b5081356001600160401b0381111561121357600080fd5b6020830191508360208285010111156111e357600080fd5b6000806000806040858703121561124157600080fd5b84356001600160401b038082111561125857600080fd5b6112648883890161119f565b9096509450602087013591508082111561127d57600080fd5b5061128a878288016111ea565b95989497509550505050565b6000602082840312156112a857600080fd5b5035919050565b80356001600160a01b03811681146112c657600080fd5b919050565b600080604083850312156112de57600080fd5b823591506112ee602084016112af565b90509250929050565b60006020828403121561130957600080fd5b610fed826112af565b634e487b7160e01b600052604160045260246000fd5b604051601f8201601f191681016001600160401b038111828210171561135057611350611312565b604052919050565b60006001600160401b0383111561137157611371611312565b611384601f8401601f1916602001611328565b905082815283838301111561139857600080fd5b828260208301376000602084830101529392505050565b600080604083850312156113c257600080fd5b6113cb836112af565b915060208301356001600160401b038111156113e657600080fd5b8301601f810185136113f757600080fd5b61140685823560208401611358565b9150509250929050565b600082601f83011261142157600080fd5b610fed83833560208501611358565b600080600080600080600060a0888a03121561144b57600080fd5b87356001600160401b038082111561146257600080fd5b61146e8b838c0161119f565b909950975060208a013591508082111561148757600080fd5b6114938b838c01611410565b965060408a01359150808211156114a957600080fd5b6114b58b838c01611410565b955060608a01359150808211156114cb57600080fd5b6114d78b838c01611410565b945060808a01359150808211156114ed57600080fd5b506114fa8a828b016111ea565b989b979a50959850939692959293505050565b600080600080600080600080600080600060e08c8e03121561152e57600080fd5b6001600160401b038c3581101561154457600080fd5b6115518e8e358f0161119f565b909c509a5060208d013581101561156757600080fd5b6115778e60208f01358f0161119f565b909a50985060408d013581101561158d57600080fd5b61159d8e60408f01358f01611410565b97508060608e013511156115b057600080fd5b6115c08e60608f01358f01611410565b96508060808e013511156115d357600080fd5b6115e38e60808f01358f01611410565b95508060a08e013511156115f657600080fd5b6116068e60a08f01358f016111ea565b909550935060c08d013581101561161c57600080fd5b5061162d8d60c08e01358e016111ea565b81935080925050509295989b509295989b9093969950565b634e487b7160e01b600052603260045260246000fd5b60008235605e1983360301811261167157600080fd5b9190910192915050565b6000808335601e1984360301811261169257600080fd5b8301803591506001600160401b038211156116ac57600080fd5b6020019150368190038213156111e357600080fd5b6000823560de1983360301811261167157600080fd5b81835281816020850137506000828201602090810191909152601f909101601f19169091010190565b6001600160a01b03169052565b6000808335601e1984360301811261172457600080fd5b83016020810192503590506001600160401b0381111561174357600080fd5b8060051b36038313156111e357600080fd5b81835260006001600160fb1b0383111561176e57600080fd5b8260051b8083602087013760009401602001938452509192915050565b8035825260006020820135601e198336030181126117a857600080fd5b820180356001600160401b038111156117c057600080fd5b8036038413156117cf57600080fd5b60e060208601526117e760e0860182602085016116d7565b9150506117f6604084016112af565b6118036040860182611700565b50611810606084016112af565b61181d6060860182611700565b5061182b608084018461170d565b858303608087015261183e838284611755565b9250505061184f60a084018461170d565b85830360a0870152611862838284611755565b9250505060c083013560c08501528091505092915050565b60608152600061188e6060830187896116d7565b82810360208401526118a0818761178b565b905082810360408401526118b58185876116d7565b98975050505050505050565b634e487b7160e01b600052601160045260246000fd5b6000600182016118e9576118e96118c1565b5060010190565b6020808252602c90820152600080516020611c2283398151915260408201526b19195b1959d85d1958d85b1b60a21b606082015260800190565b6020808252602c90820152600080516020611c2283398151915260408201526b6163746976652070726f787960a01b606082015260800190565b60005b8381101561197f578181015183820152602001611967565b83811115610e075750506000910152565b600081518084526119a8816020860160208601611964565b601f01601f19169290920160200192915050565b60c0815260006119d060c083018a8c6116d7565b82810360208401526119e2818a61178b565b905082810360408401526119f68189611990565b90508281036060840152611a0a8188611990565b90508281036080840152611a1e8187611990565b905082810360a0840152611a338185876116d7565b9b9a5050505050505050505050565b60006020808385031215611a5557600080fd5b82516001600160401b0380821115611a6c57600080fd5b818501915085601f830112611a8057600080fd5b815181811115611a9257611a92611312565b8060051b9150611aa3848301611328565b8181529183018401918481019088841115611abd57600080fd5b938501935b838510156118b557845182529385019390850190611ac2565b600060208284031215611aed57600080fd5b5051919050565b6020808252602b908201527f496e697469616c697a61626c653a20636f6e7472616374206973206e6f74206960408201526a6e697469616c697a696e6760a81b606082015260800190565b76020b1b1b2b9b9a1b7b73a3937b61d1030b1b1b7bab73a1604d1b815260008351611b71816017850160208801611964565b7001034b99036b4b9b9b4b733903937b6329607d1b6017918401918201528351611ba2816028840160208801611964565b01602801949350505050565b602081526000610fed6020830184611990565b6000816000190483118215151615611bdb57611bdb6118c1565b500290565b60008219821115611bf357611bf36118c1565b500190565b600081611c0757611c076118c1565b506000190190565b6000825161167181846020870161196456fe46756e6374696f6e206d7573742062652063616c6c6564207468726f75676820189ab7a9244df0848122154315af71fe140f3db0fe014031783b0946b8c9d2e3360894a13ba1a3210667c828492db98dca3e2076cc3735a920a3ca505d382bbc416464726573733a206c6f772d6c6576656c2064656c65676174652063616c6c206661696c6564a26469706673582212205dc13745333fadb89d2571fb1477a8b4b3c12cf21f364251ccd3eb8a73867c9a64736f6c634300080d0033",
  "devdoc": {
    "kind": "dev",
    "methods": {
      "constructor": {
        "custom:oz-upgrades-unsafe-allow": "constructor"
      },
      "getRoleAdmin(bytes32)": {
        "details": "Returns the admin role that controls `role`. See {grantRole} and {revokeRole}. To change a role's admin, use {_setRoleAdmin}."
      },
      "grantRole(bytes32,address)": {
        "details": "Grants `role` to `account`. If `account` had not been already granted `role`, emits a {RoleGranted} event. Requirements: - the caller must have ``role``'s admin role. May emit a {RoleGranted} event."
      },
      "hasRole(bytes32,address)": {
        "details": "Returns `true` if `account` has been granted `role`."
      },
      "paused()": {
        "details": "Returns true if the contract is paused, and false otherwise."
      },
      "proxiableUUID()": {
        "details": "Implementation of the ERC1822 {proxiableUUID} function. This returns the storage slot used by the implementation. It is used to validate the implementation's compatibility when performing an upgrade. IMPORTANT: A proxy pointing at a proxiable contract should not be considered proxiable itself, because this risks bricking a proxy that upgrades to it, by delegating to itself until out of gas. Thus it is critical that this function revert if invoked through a proxy. This is guaranteed by the `notDelegated` modifier."
      },
      "renounceRole(bytes32,address)": {
        "details": "Revokes `role` from the calling account. Roles are often managed via {grantRole} and {revokeRole}: this function's purpose is to provide a mechanism for accounts to lose their privileges if they are compromised (such as when a trusted device is misplaced). If the calling account had been revoked `role`, emits a {RoleRevoked} event. Requirements: - the caller must be `account`. May emit a {RoleRevoked} event."
      },
      "revokeRole(bytes32,address)": {
        "details": "Revokes `role` from `account`. If `account` had been granted `role`, emits a {RoleRevoked} event. Requirements: - the caller must have ``role``'s admin role. May emit a {RoleRevoked} event."
      },
      "supportsInterface(bytes4)": {
        "details": "See {IERC165-supportsInterface}."
      },
      "upgradeTo(address)": {
        "custom:oz-upgrades-unsafe-allow-reachable": "delegatecall",
        "details": "Upgrade the implementation of the proxy to `newImplementation`. Calls {_authorizeUpgrade}. Emits an {Upgraded} event."
      },
      "upgradeToAndCall(address,bytes)": {
        "custom:oz-upgrades-unsafe-allow-reachable": "delegatecall",
        "details": "Upgrade the implementation of the proxy to `newImplementation`, and subsequently execute the function call encoded in `data`. Calls {_authorizeUpgrade}. Emits an {Upgraded} event."
      }
    },
    "version": 1
  },
  "userdoc": {
    "kind": "user",
    "methods": {},
    "version": 1
  },
  "storageLayout": {
    "storage": [
      {
        "astId": 807,
        "contract": "contracts/BatchCreditActions.sol:BatchCreditActions",
        "label": "_initialized",
        "offset": 0,
        "slot": "0",
        "type": "t_uint8"
      },
      {
        "astId": 810,
        "contract": "contracts/BatchCreditActions.sol:BatchCreditActions",
        "label": "_initializing",
        "offset": 1,
        "slot": "0",
        "type": "t_bool"
      },
      {
        "astId": 3343,
        "contract": "contracts/BatchCreditActions.sol:BatchCreditActions",
        "label": "__gap",
        "offset": 0,
        "slot": "1",
        "type": "t_array(t_uint256)50_storage"
      },
      {
        "astId": 1128,
        "contract": "contracts/BatchCreditActions.sol:BatchCreditActions",
        "label": "_paused",
        "offset": 0,
        "slot": "51",
        "type": "t_bool"
      },
      {
        "astId": 1233,
        "contract": "contracts/BatchCreditActions.sol:BatchCreditActions",
        "label": "__gap",
        "offset": 0,
        "slot": "52",
        "type": "t_array(t_uint256)49_storage"
      },
      {
        "astId": 4378,
        "contract": "contracts/BatchCreditActions.sol:BatchCreditActions",
        "label": "__gap",
        "offset": 0,
        "slot": "101",
        "type": "t_array(t_uint256)50_storage"
      },
      {
        "astId": 28,
        "contract": "contracts/BatchCreditActions.sol:BatchCreditActions",
        "label": "_roles",
        "offset": 0,
        "slot": "151",
        "type": "t_mapping(t_bytes32,t_struct(RoleData)23_storage)"
      },
      {
        "astId": 335,
        "contract": "contracts/BatchCreditActions.sol:BatchCreditActions",
        "label": "__gap",
        "offset": 0,
        "slot": "152",
        "type": "t_array(t_uint256)49_storage"
      },
      {
        "astId": 789,
        "contract": "contracts/BatchCreditActions.sol:BatchCreditActions",
        "label": "__gap",
        "offset": 0,
        "slot": "201",
        "type": "t_array(t_uint256)50_storage"
      },
      {
        "astId": 1105,
        "contract": "contracts/BatchCreditActions.sol:BatchCreditActions",
        "label": "__gap",
        "offset": 0,
        "slot": "251",
        "type": "t_array(t_uint256)50_storage"
      }
    ],
    "types": {
      "t_address": {
        "encoding": "inplace",
        "label": "address",
        "numberOfBytes": "20"
      },
      "t_array(t_uint256)49_storage": {
        "base": "t_uint256",
        "encoding": "inplace",
        "label": "uint256[49]",
        "numberOfBytes": "1568"
      },
      "t_array(t_uint256)50_storage": {
        "base": "t_uint256",
        "encoding": "inplace",
        "label": "uint256[50]",
        "numberOfBytes": "1600"
      },
      "t_bool": {
        "encoding": "inplace",
        "label": "bool",
        "numberOfBytes": "1"
      },
      "t_bytes32": {
        "encoding": "inplace",
        "label": "bytes32",
        "numberOfBytes": "32"
      },
      "t_mapping(t_address,t_bool)": {
        "encoding": "mapping",
        "key": "t_address",
        "label": "mapping(address => bool)",
        "numberOfBytes": "32",
        "value": "t_bool"
      },
      "t_mapping(t_bytes32,t_struct(RoleData)23_storage)": {
        "encoding": "mapping",
        "key": "t_bytes32",
        "label": "mapping(bytes32 => struct AccessControlUpgradeable.RoleData)",
        "numberOfBytes": "32",
        "value": "t_struct(RoleData)23_storage"
      },
      "t_struct(RoleData)23_storage": {
        "encoding": "inplace",
        "label": "struct AccessControlUpgradeable.RoleData",
        "members": [
          {
            "astId": 20,
            "contract": "contracts/BatchCreditActions.sol:BatchCreditActions",
            "label": "members",
            "offset": 0,
            "slot": "0",
            "type": "t_mapping(t_address,t_bool)"
          },
          {
            "astId": 22,
            "contract": "contracts/BatchCreditActions.sol:BatchCreditActions",
            "label": "adminRole",
            "offset": 0,
            "slot": "1",
            "type": "t_bytes32"
          }
        ],
        "numberOfBytes": "64"
      },
      "t_uint256": {
        "encoding": "inplace",
        "label": "uint256",
        "numberOfBytes": "32"
      },
      "t_uint8": {
        "encoding": "inplace",
        "label": "uint8",
        "numberOfBytes": "1"
      }
    }
  }
}