{
  "_format": "hh-sol-artifact-1",
  "contractName": "CarbonContractRegistry",
  "sourceName": "contracts/CarbonContractRegistry.sol",
  "abi": [
    {
      "inputs": [],
      "stateMutability": "nonpayable",
      "type": "constructor"
    },
    {
      "anonymous": false,
      "inputs": [
        {
          "indexed": false,
          "internalType": "address",
          "name": "previousAdmin",
          "type": "address"
        },
        {
          "indexed": false,
          "internalType": "address",
          "name": "newAdmin",
          "type": "address"
        }
      ],
      "name": "AdminChanged",
      "type": "event"
    },
    {
      "anonymous": false,
      "inputs": [
        {
          "indexed": true,
          "internalType": "address",
          "name": "beaconAddress",
          "type": "address"
        },
        {
          "indexed": true,
          "internalType": "address",
          "name": "oldBeaconAddress",
          "type": "address"
        }
      ],
      "name": "BeaconSet",
      "type": "event"
    },
    {
      "anonymous": false,
      "inputs": [
        {
          "indexed": true,
          "internalType": "address",
          "name": "beacon",
          "type": "address"
        }
      ],
      "name": "BeaconUpgraded",
      "type": "event"
    },
    {
      "anonymous": false,
      "inputs": [
        {
          "indexed": false,
          "internalType": "uint8",
          "name": "version",
          "type": "uint8"
        }
      ],
      "name": "Initialized",
      "type": "event"
    },
    {
      "anonymous": false,
      "inputs": [
        {
          "indexed": false,
          "internalType": "address",
          "name": "account",
          "type": "address"
        }
      ],
      "name": "Paused",
      "type": "event"
    },
    {
      "anonymous": false,
      "inputs": [
        {
          "indexed": true,
          "internalType": "uint256",
          "name": "projectId",
          "type": "uint256"
        },
        {
          "indexed": true,
          "internalType": "address",
          "name": "projectAddress",
          "type": "address"
        },
        {
          "indexed": false,
          "internalType": "string",
          "name": "projectName",
          "type": "string"
        }
      ],
      "name": "ProjectCreated",
      "type": "event"
    },
    {
      "anonymous": false,
      "inputs": [
        {
          "indexed": true,
          "internalType": "address",
          "name": "projectFactoryAddress",
          "type": "address"
        },
        {
          "indexed": true,
          "internalType": "address",
          "name": "oldProjectFactoryAddress",
          "type": "address"
        }
      ],
      "name": "ProjectFactoryAddressSet",
      "type": "event"
    },
    {
      "anonymous": false,
      "inputs": [
        {
          "indexed": true,
          "internalType": "bytes32",
          "name": "role",
          "type": "bytes32"
        },
        {
          "indexed": true,
          "internalType": "bytes32",
          "name": "previousAdminRole",
          "type": "bytes32"
        },
        {
          "indexed": true,
          "internalType": "bytes32",
          "name": "newAdminRole",
          "type": "bytes32"
        }
      ],
      "name": "RoleAdminChanged",
      "type": "event"
    },
    {
      "anonymous": false,
      "inputs": [
        {
          "indexed": true,
          "internalType": "bytes32",
          "name": "role",
          "type": "bytes32"
        },
        {
          "indexed": true,
          "internalType": "address",
          "name": "account",
          "type": "address"
        },
        {
          "indexed": true,
          "internalType": "address",
          "name": "sender",
          "type": "address"
        }
      ],
      "name": "RoleGranted",
      "type": "event"
    },
    {
      "anonymous": false,
      "inputs": [
        {
          "indexed": true,
          "internalType": "bytes32",
          "name": "role",
          "type": "bytes32"
        },
        {
          "indexed": true,
          "internalType": "address",
          "name": "account",
          "type": "address"
        },
        {
          "indexed": true,
          "internalType": "address",
          "name": "sender",
          "type": "address"
        }
      ],
      "name": "RoleRevoked",
      "type": "event"
    },
    {
      "anonymous": false,
      "inputs": [
        {
          "indexed": false,
          "internalType": "string",
          "name": "serialization",
          "type": "string"
        },
        {
          "indexed": true,
          "internalType": "address",
          "name": "serializationProjectContractAddress",
          "type": "address"
        }
      ],
      "name": "SerializationAddressSet",
      "type": "event"
    },
    {
      "anonymous": false,
      "inputs": [
        {
          "indexed": false,
          "internalType": "address",
          "name": "account",
          "type": "address"
        }
      ],
      "name": "Unpaused",
      "type": "event"
    },
    {
      "anonymous": false,
      "inputs": [
        {
          "indexed": true,
          "internalType": "address",
          "name": "implementation",
          "type": "address"
        }
      ],
      "name": "Upgraded",
      "type": "event"
    },
    {
      "anonymous": false,
      "inputs": [
        {
          "indexed": true,
          "internalType": "address",
          "name": "verifiedVaultAddress",
          "type": "address"
        },
        {
          "indexed": true,
          "internalType": "address",
          "name": "oldVerifiedVaultAddress",
          "type": "address"
        },
        {
          "indexed": true,
          "internalType": "uint256",
          "name": "id",
          "type": "uint256"
        }
      ],
      "name": "VerifiedVaultAddressSet",
      "type": "event"
    },
    {
      "inputs": [],
      "name": "DEFAULT_ADMIN_ROLE",
      "outputs": [
        {
          "internalType": "bytes32",
          "name": "",
          "type": "bytes32"
        }
      ],
      "stateMutability": "view",
      "type": "function"
    },
    {
      "inputs": [],
      "name": "PAUSER_ROLE",
      "outputs": [
        {
          "internalType": "bytes32",
          "name": "",
          "type": "bytes32"
        }
      ],
      "stateMutability": "view",
      "type": "function"
    },
    {
      "inputs": [],
      "name": "UPGRADER_ROLE",
      "outputs": [
        {
          "internalType": "bytes32",
          "name": "",
          "type": "bytes32"
        }
      ],
      "stateMutability": "view",
      "type": "function"
    },
    {
      "inputs": [
        {
          "internalType": "uint256",
          "name": "_projectId",
          "type": "uint256"
        },
        {
          "internalType": "string",
          "name": "_projectName",
          "type": "string"
        },
        {
          "internalType": "string",
          "name": "_projectMethodology",
          "type": "string"
        },
        {
          "internalType": "string",
          "name": "_projectUri",
          "type": "string"
        }
      ],
      "name": "createProject",
      "outputs": [],
      "stateMutability": "nonpayable",
      "type": "function"
    },
    {
      "inputs": [],
      "name": "getBeaconAddress",
      "outputs": [
        {
          "internalType": "address",
          "name": "",
          "type": "address"
        }
      ],
      "stateMutability": "view",
      "type": "function"
    },
    {
      "inputs": [
        {
          "internalType": "uint256",
          "name": "projectId",
          "type": "uint256"
        }
      ],
      "name": "getProjectAddressFromId",
      "outputs": [
        {
          "internalType": "address",
          "name": "",
          "type": "address"
        }
      ],
      "stateMutability": "view",
      "type": "function"
    },
    {
      "inputs": [
        {
          "internalType": "address",
          "name": "projectAddress",
          "type": "address"
        }
      ],
      "name": "getProjectIdFromAddress",
      "outputs": [
        {
          "internalType": "uint256",
          "name": "",
          "type": "uint256"
        }
      ],
      "stateMutability": "view",
      "type": "function"
    },
    {
      "inputs": [
        {
          "internalType": "bytes32",
          "name": "role",
          "type": "bytes32"
        }
      ],
      "name": "getRoleAdmin",
      "outputs": [
        {
          "internalType": "bytes32",
          "name": "",
          "type": "bytes32"
        }
      ],
      "stateMutability": "view",
      "type": "function"
    },
    {
      "inputs": [
        {
          "internalType": "string",
          "name": "serialization",
          "type": "string"
        }
      ],
      "name": "getSerializationAddress",
      "outputs": [
        {
          "internalType": "address",
          "name": "",
          "type": "address"
        }
      ],
      "stateMutability": "view",
      "type": "function"
    },
    {
      "inputs": [
        {
          "internalType": "uint256",
          "name": "id",
          "type": "uint256"
        }
      ],
      "name": "getVerifiedVaultAddress",
      "outputs": [
        {
          "internalType": "address",
          "name": "",
          "type": "address"
        }
      ],
      "stateMutability": "view",
      "type": "function"
    },
    {
      "inputs": [
        {
          "internalType": "bytes32",
          "name": "role",
          "type": "bytes32"
        },
        {
          "internalType": "address",
          "name": "account",
          "type": "address"
        }
      ],
      "name": "grantRole",
      "outputs": [],
      "stateMutability": "nonpayable",
      "type": "function"
    },
    {
      "inputs": [
        {
          "internalType": "bytes32",
          "name": "role",
          "type": "bytes32"
        },
        {
          "internalType": "address",
          "name": "account",
          "type": "address"
        }
      ],
      "name": "hasRole",
      "outputs": [
        {
          "internalType": "bool",
          "name": "",
          "type": "bool"
        }
      ],
      "stateMutability": "view",
      "type": "function"
    },
    {
      "inputs": [
        {
          "internalType": "address",
          "name": "beaconAddress",
          "type": "address"
        }
      ],
      "name": "initialize",
      "outputs": [],
      "stateMutability": "nonpayable",
      "type": "function"
    },
    {
      "inputs": [],
      "name": "pause",
      "outputs": [],
      "stateMutability": "nonpayable",
      "type": "function"
    },
    {
      "inputs": [],
      "name": "paused",
      "outputs": [
        {
          "internalType": "bool",
          "name": "",
          "type": "bool"
        }
      ],
      "stateMutability": "view",
      "type": "function"
    },
    {
      "inputs": [],
      "name": "proxiableUUID",
      "outputs": [
        {
          "internalType": "bytes32",
          "name": "",
          "type": "bytes32"
        }
      ],
      "stateMutability": "view",
      "type": "function"
    },
    {
      "inputs": [
        {
          "internalType": "string",
          "name": "serialization",
          "type": "string"
        }
      ],
      "name": "registerSerialization",
      "outputs": [],
      "stateMutability": "nonpayable",
      "type": "function"
    },
    {
      "inputs": [
        {
          "internalType": "bytes32",
          "name": "role",
          "type": "bytes32"
        },
        {
          "internalType": "address",
          "name": "account",
          "type": "address"
        }
      ],
      "name": "renounceRole",
      "outputs": [],
      "stateMutability": "nonpayable",
      "type": "function"
    },
    {
      "inputs": [
        {
          "internalType": "bytes32",
          "name": "role",
          "type": "bytes32"
        },
        {
          "internalType": "address",
          "name": "account",
          "type": "address"
        }
      ],
      "name": "revokeRole",
      "outputs": [],
      "stateMutability": "nonpayable",
      "type": "function"
    },
    {
      "inputs": [
        {
          "internalType": "address",
          "name": "beaconAddress",
          "type": "address"
        }
      ],
      "name": "setBeaconAddress",
      "outputs": [],
      "stateMutability": "nonpayable",
      "type": "function"
    },
    {
      "inputs": [
        {
          "internalType": "bytes4",
          "name": "interfaceId",
          "type": "bytes4"
        }
      ],
      "name": "supportsInterface",
      "outputs": [
        {
          "internalType": "bool",
          "name": "",
          "type": "bool"
        }
      ],
      "stateMutability": "view",
      "type": "function"
    },
    {
      "inputs": [],
      "name": "testUpgrade",
      "outputs": [
        {
          "internalType": "string",
          "name": "",
          "type": "string"
        }
      ],
      "stateMutability": "pure",
      "type": "function"
    },
    {
      "inputs": [],
      "name": "unpause",
      "outputs": [],
      "stateMutability": "nonpayable",
      "type": "function"
    },
    {
      "inputs": [
        {
          "internalType": "address",
          "name": "newImplementation",
          "type": "address"
        }
      ],
      "name": "upgradeTo",
      "outputs": [],
      "stateMutability": "nonpayable",
      "type": "function"
    },
    {
      "inputs": [
        {
          "internalType": "address",
          "name": "newImplementation",
          "type": "address"
        },
        {
          "internalType": "bytes",
          "name": "data",
          "type": "bytes"
        }
      ],
      "name": "upgradeToAndCall",
      "outputs": [],
      "stateMutability": "payable",
      "type": "function"
    }
  ],
  "bytecode": "0x60a06040523060805234801561001457600080fd5b5061001d610022565b6100e1565b600054610100900460ff161561008e5760405162461bcd60e51b815260206004820152602760248201527f496e697469616c697a61626c653a20636f6e747261637420697320696e697469604482015266616c697a696e6760c81b606482015260840160405180910390fd5b60005460ff908116146100df576000805460ff191660ff9081179091556040519081527f7f26b83ff96e1f2b6a682f133852f6798a09c465da95921460cefb38474024989060200160405180910390a15b565b6080516128e8620001196000396000818161065401528181610697015281816108f20152818161093501526109b601526128e86000f3fe6080604052600436106200013f5760003560e01c80629d4d7a146200014457806301ffc9a71462000178578063144e3b1314620001ae5780631a654ace14620001d3578063248a9ca3146200021d5780632f2ff15d146200024257806336568abe14620002695780633659cfe6146200028e5780633f4ba83a14620002b357806344d9d59b14620002cb5780634f1ef28614620002f05780634fcb7ea6146200030757806352d1902d14620003425780635822a6c7146200035a5780635c975abb146200037f578063683adef914620003995780638456cb5914620003d457806391d1485414620003ec5780639213034414620004115780639d6aed0b1462000436578063a217fddf146200046d578063c4d66de81462000484578063d547741f14620004a9578063e63ab1e914620004ce578063f72c0d8b14620004f3575b600080fd5b3480156200015157600080fd5b5061012e546001600160a01b03165b6040516200016f919062001897565b60405180910390f35b3480156200018557600080fd5b506200019d62000197366004620018ab565b62000518565b60405190151581526020016200016f565b348015620001bb57600080fd5b5062000160620001cd36600462001922565b62000550565b348015620001e057600080fd5b506200020e620001f236600462001984565b6001600160a01b03166000908152610131602052604090205490565b6040519081526020016200016f565b3480156200022a57600080fd5b506200020e6200023c366004620019a2565b62000588565b3480156200024f57600080fd5b506200026762000261366004620019bc565b6200059d565b005b3480156200027657600080fd5b506200026762000288366004620019bc565b620005c4565b3480156200029b57600080fd5b5062000267620002ad36600462001984565b6200064a565b348015620002c057600080fd5b50620002676200071e565b348015620002d857600080fd5b5062000267620002ea36600462001922565b62000743565b620002676200030136600462001a01565b620008e8565b3480156200031457600080fd5b506200016062000326366004620019a2565b600090815261013060205260409020546001600160a01b031690565b3480156200034f57600080fd5b506200020e620009a9565b3480156200036757600080fd5b50620002676200037936600462001ace565b62000a5a565b3480156200038c57600080fd5b5060335460ff166200019d565b348015620003a657600080fd5b5062000160620003b8366004620019a2565b600090815261013460205260409020546001600160a01b031690565b348015620003e157600080fd5b506200026762000c23565b348015620003f957600080fd5b506200019d6200040b366004620019bc565b62000c48565b3480156200041e57600080fd5b50620002676200043036600462001984565b62000c73565b3480156200044357600080fd5b506040805180820182526005815264302e302e3160d81b602082015290516200016f919062001bd8565b3480156200047a57600080fd5b506200020e600081565b3480156200049157600080fd5b5062000267620004a336600462001984565b62000cce565b348015620004b657600080fd5b5062000267620004c8366004620019bc565b62000e64565b348015620004db57600080fd5b506200020e6000805160206200286c83398151915281565b3480156200050057600080fd5b506200020e6000805160206200282c83398151915281565b60006001600160e01b03198216637965db0b60e01b14806200054a57506301ffc9a760e01b6001600160e01b03198316145b92915050565b600061012f83836040516200056792919062001bed565b908152604051908190036020019020546001600160a01b0316905092915050565b60009081526097602052604090206001015490565b620005a88262000588565b620005b38162000e86565b620005bf838362000e92565b505050565b6001600160a01b03811633146200063a5760405162461bcd60e51b815260206004820152602f60248201527f416363657373436f6e74726f6c3a2063616e206f6e6c792072656e6f756e636560448201526e103937b632b9903337b91039b2b63360891b60648201526084015b60405180910390fd5b62000646828262000f1c565b5050565b6001600160a01b037f0000000000000000000000000000000000000000000000000000000000000000163003620006955760405162461bcd60e51b8152600401620006319062001bfd565b7f00000000000000000000000000000000000000000000000000000000000000006001600160a01b0316620006c962000f86565b6001600160a01b031614620006f25760405162461bcd60e51b8152600401620006319062001c38565b620006fd8162000fa3565b604080516000808252602082019092526200071b9183919062000fbe565b50565b6000805160206200286c833981519152620007398162000e86565b6200071b62001136565b6200074d62001186565b33600090815261013160205260409020541515806200077457506200077460003362000c48565b620007dc5760405162461bcd60e51b815260206004820152603160248201527f4f6e6c7920436172626f6e526567697374727950726f6a6563742063616e206360448201527030b636103a3434b990333ab731ba34b7b760791b606482015260840162000631565b60006001600160a01b031661012f8383604051620007fc92919062001bed565b908152604051908190036020019020546001600160a01b031614620008635760405162461bcd60e51b815260206004820152601c60248201527b53657269616c697a6174696f6e20616c72656164792065786973747360201b604482015260640162000631565b3361012f83836040516200087992919062001bed565b90815260405190819003602001812080546001600160a01b03939093166001600160a01b03199093169290921790915533907ff874c248792a4caa5cd732177a71454e2e4018dcf91bd3f5b57c594e9e07191990620008dc908590859062001c9c565b60405180910390a25050565b6001600160a01b037f0000000000000000000000000000000000000000000000000000000000000000163003620009335760405162461bcd60e51b8152600401620006319062001bfd565b7f00000000000000000000000000000000000000000000000000000000000000006001600160a01b03166200096762000f86565b6001600160a01b031614620009905760405162461bcd60e51b8152600401620006319062001c38565b6200099b8262000fa3565b620006468282600162000fbe565b6000306001600160a01b037f0000000000000000000000000000000000000000000000000000000000000000161462000a465760405162461bcd60e51b815260206004820152603860248201527f555550535570677261646561626c653a206d757374206e6f742062652063616c6044820152771b1959081d1a1c9bdd59da0819195b1959d85d1958d85b1b60421b606482015260840162000631565b506000805160206200284c83398151915290565b62000a6462001186565b600062000a718162000e86565b8760000362000abb5760405162461bcd60e51b8152602060048201526015602482015274050726f6a65637449642063616e6e6f74206265203605c1b604482015260640162000631565b600088815261013060205260409020546001600160a01b03161562000b1e5760405162461bcd60e51b815260206004820152601860248201527750726f6a656374496420616c72656164792065786973747360401b604482015260640162000631565b600062000b3189898989898989620011d0565b6001600160a01b038116600090815261013160205260409020549091501562000b9d5760405162461bcd60e51b815260206004820152601d60248201527f50726f6a6563744164647265737320616c726561647920657869737473000000604482015260640162000631565b60008981526101306020908152604080832080546001600160a01b0319166001600160a01b038616908117909155808452610131909252918290208b905590518a907f9d9ec461f162f3f4fdb9f6d189bfe13c59e48d8acd23a4c3bfcf7cc0fe4e84ed9062000c10908c908c9062001c9c565b60405180910390a3505050505050505050565b6000805160206200286c83398151915262000c3e8162000e86565b6200071b620012bd565b60009182526097602090815260408084206001600160a01b0393909316845291905290205460ff1690565b600062000c808162000e86565b61012e80546001600160a01b0319166001600160a01b03841690811790915560405181907f0282ad3fa3df8509e42308da45d565e159bfdbae259b381d419be67d4971b22b90600090a35050565b600054610100900460ff161580801562000cef5750600054600160ff909116105b8062000d14575062000d0130620012fd565b15801562000d14575060005460ff166001145b62000d795760405162461bcd60e51b815260206004820152602e60248201527f496e697469616c697a61626c653a20636f6e747261637420697320616c72656160448201526d191e481a5b9a5d1a585b1a5e995960921b606482015260840162000631565b6000805460ff19166001179055801562000d9d576000805461ff0019166101001790555b62000da76200130c565b62000db162001340565b62000dbb62001340565b62000dc860003362000e92565b62000de36000805160206200282c8339815191523362000e92565b62000dfe6000805160206200286c8339815191523362000e92565b61012e80546001600160a01b0319166001600160a01b038416179055801562000646576000805461ff0019169055604051600181527f7f26b83ff96e1f2b6a682f133852f6798a09c465da95921460cefb38474024989060200160405180910390a15050565b62000e6f8262000588565b62000e7a8162000e86565b620005bf838362000f1c565b6200071b81336200136a565b62000e9e828262000c48565b620006465760008281526097602090815260408083206001600160a01b03851684529091529020805460ff1916600117905562000ed83390565b6001600160a01b0316816001600160a01b0316837f2f8788117e7eff1d82e926ec794901d17c78024a50270940304540a733656f0d60405160405180910390a45050565b62000f28828262000c48565b15620006465760008281526097602090815260408083206001600160a01b0385168085529252808320805460ff1916905551339285917ff6391f5c32d9c69d2a47ea670b442974b53935d1edc7fd64eb21e047a839171b9190a45050565b6000805160206200284c833981519152546001600160a01b031690565b6000805160206200282c833981519152620006468162000e86565b7f4910fdfa16fed3260ed0e7147f7cc6da11a60208b5b9406d12a635614ffd91435460ff161562000ff457620005bf83620013ce565b826001600160a01b03166352d1902d6040518163ffffffff1660e01b8152600401602060405180830381865afa92505050801562001051575060408051601f3d908101601f191682019092526200104e9181019062001cb2565b60015b620010b65760405162461bcd60e51b815260206004820152602e60248201527f45524331393637557067726164653a206e657720696d706c656d656e7461746960448201526d6f6e206973206e6f74205555505360901b606482015260840162000631565b6000805160206200284c8339815191528114620011285760405162461bcd60e51b815260206004820152602960248201527f45524331393637557067726164653a20756e737570706f727465642070726f786044820152681a58589b195555525160ba1b606482015260840162000631565b50620005bf8383836200146d565b620011406200149e565b6033805460ff191690557f5db9ee0a495bf2e6ff9c91a7834c1ba4fdd244a5e8aa4e537bd38aeae4b073aa335b6040516200117c919062001897565b60405180910390a1565b60335460ff1615620011ce5760405162461bcd60e51b815260206004820152601060248201526f14185d5cd8589b194e881c185d5cd95960821b604482015260640162000631565b565b600080604051806060016040528060388152602001620027d460389139905060008130338c8c8c8c8c8c8c604051602401620012159998979695949392919062001ccc565b60408051601f198184030181529082905291620012329162001d3e565b60408051918290039091206020830180516001600160e01b03166001600160e01b031990921691909117905261012e5490519192506000916001600160a01b03909116908390620012839062001889565b6200129092919062001d5c565b604051809103906000f080158015620012ad573d6000803e3d6000fd5b509b9a5050505050505050505050565b620012c762001186565b6033805460ff191660011790557f62e78cea01bee320cd4e420270b5ea74000d11b0c9f74754ebdbfc544b05a2586200116d3390565b6001600160a01b03163b151590565b600054610100900460ff16620013365760405162461bcd60e51b8152600401620006319062001d82565b620011ce620014e9565b600054610100900460ff16620011ce5760405162461bcd60e51b8152600401620006319062001d82565b62001376828262000c48565b620006465762001386816200151f565b6200139383602062001532565b604051602001620013a692919062001dcd565b60408051601f198184030181529082905262461bcd60e51b8252620006319160040162001bd8565b620013d981620012fd565b6200143d5760405162461bcd60e51b815260206004820152602d60248201527f455243313936373a206e657720696d706c656d656e746174696f6e206973206e60448201526c1bdd08184818dbdb9d1c9858dd609a1b606482015260840162000631565b6000805160206200284c83398151915280546001600160a01b0319166001600160a01b0392909216919091179055565b6200147883620016f2565b600082511180620014865750805b15620005bf5762001498838362001734565b50505050565b60335460ff16620011ce5760405162461bcd60e51b815260206004820152601460248201527314185d5cd8589b194e881b9bdd081c185d5cd95960621b604482015260640162000631565b600054610100900460ff16620015135760405162461bcd60e51b8152600401620006319062001d82565b6033805460ff19169055565b60606200054a6001600160a01b03831660145b606060006200154383600262001e56565b6200155090600262001e78565b6001600160401b038111156200156a576200156a620019eb565b6040519080825280601f01601f19166020018201604052801562001595576020820181803683370190505b509050600360fc1b81600081518110620015b357620015b362001e93565b60200101906001600160f81b031916908160001a905350600f60fb1b81600181518110620015e557620015e562001e93565b60200101906001600160f81b031916908160001a90535060006200160b84600262001e56565b6200161890600162001e78565b90505b60018111156200169a576f181899199a1a9b1b9c1cb0b131b232b360811b85600f166010811062001650576200165062001e93565b1a60f81b82828151811062001669576200166962001e93565b60200101906001600160f81b031916908160001a90535060049490941c93620016928162001ea9565b90506200161b565b508315620016eb5760405162461bcd60e51b815260206004820181905260248201527f537472696e67733a20686578206c656e67746820696e73756666696369656e74604482015260640162000631565b9392505050565b620016fd81620013ce565b6040516001600160a01b038216907fbc7cd75a20ee27fd9adebab32041f755214dbc6bffa90cc0225b39da2e5c2d3b90600090a250565b6060620016eb83836040518060600160405280602781526020016200288c602791396060600080856001600160a01b03168560405162001775919062001d3e565b600060405180830381855af49150503d8060008114620017b2576040519150601f19603f3d011682016040523d82523d6000602084013e620017b7565b606091505b5091509150620017ca86838387620017d4565b9695505050505050565b60608315620018485782516000036200184057620017f285620012fd565b620018405760405162461bcd60e51b815260206004820152601d60248201527f416464726573733a2063616c6c20746f206e6f6e2d636f6e7472616374000000604482015260640162000631565b508162001854565b6200185483836200185c565b949350505050565b8151156200186d5781518083602001fd5b8060405162461bcd60e51b815260040162000631919062001bd8565b6109108062001ec483390190565b6001600160a01b0391909116815260200190565b600060208284031215620018be57600080fd5b81356001600160e01b031981168114620016eb57600080fd5b60008083601f840112620018ea57600080fd5b5081356001600160401b038111156200190257600080fd5b6020830191508360208285010111156200191b57600080fd5b9250929050565b600080602083850312156200193657600080fd5b82356001600160401b038111156200194d57600080fd5b6200195b85828601620018d7565b90969095509350505050565b80356001600160a01b03811681146200197f57600080fd5b919050565b6000602082840312156200199757600080fd5b620016eb8262001967565b600060208284031215620019b557600080fd5b5035919050565b60008060408385031215620019d057600080fd5b82359150620019e26020840162001967565b90509250929050565b634e487b7160e01b600052604160045260246000fd5b6000806040838503121562001a1557600080fd5b62001a208362001967565b915060208301356001600160401b038082111562001a3d57600080fd5b818501915085601f83011262001a5257600080fd5b81358181111562001a675762001a67620019eb565b604051601f8201601f19908116603f0116810190838211818310171562001a925762001a92620019eb565b8160405282815288602084870101111562001aac57600080fd5b8260208601602083013760006020848301015280955050505050509250929050565b60008060008060008060006080888a03121562001aea57600080fd5b8735965060208801356001600160401b038082111562001b0957600080fd5b62001b178b838c01620018d7565b909850965060408a013591508082111562001b3157600080fd5b62001b3f8b838c01620018d7565b909650945060608a013591508082111562001b5957600080fd5b5062001b688a828b01620018d7565b989b979a50959850939692959293505050565b60005b8381101562001b9857818101518382015260200162001b7e565b83811115620014985750506000910152565b6000815180845262001bc481602086016020860162001b7b565b601f01601f19169290920160200192915050565b602081526000620016eb602083018462001baa565b8183823760009101908152919050565b6020808252602c908201526000805160206200280c83398151915260408201526b19195b1959d85d1958d85b1b60a21b606082015260800190565b6020808252602c908201526000805160206200280c83398151915260408201526b6163746976652070726f787960a01b606082015260800190565b81835281816020850137506000828201602090810191909152601f909101601f19169091010190565b6020815260006200185460208301848662001c73565b60006020828403121562001cc557600080fd5b5051919050565b6001600160a01b038a81168252891660208201526040810188905260c06060820181905260009062001d02908301888a62001c73565b828103608084015262001d1781878962001c73565b905082810360a084015262001d2e81858762001c73565b9c9b505050505050505050505050565b6000825162001d5281846020870162001b7b565b9190910192915050565b6001600160a01b0383168152604060208201819052600090620018549083018462001baa565b6020808252602b908201527f496e697469616c697a61626c653a20636f6e7472616374206973206e6f74206960408201526a6e697469616c697a696e6760a81b606082015260800190565b76020b1b1b2b9b9a1b7b73a3937b61d1030b1b1b7bab73a1604d1b81526000835162001e0181601785016020880162001b7b565b7001034b99036b4b9b9b4b733903937b6329607d1b601791840191820152835162001e3481602884016020880162001b7b565b01602801949350505050565b634e487b7160e01b600052601160045260246000fd5b600081600019048311821515161562001e735762001e7362001e40565b500290565b6000821982111562001e8e5762001e8e62001e40565b500190565b634e487b7160e01b600052603260045260246000fd5b60008162001ebb5762001ebb62001e40565b50600019019056fe608060405260405161091038038061091083398101604081905261002291610461565b61002e82826000610035565b505061058b565b61003e83610100565b6040516001600160a01b038416907f1cf3b03a6cf19fa2baba4df148e9dcabedea7f8a5c07840e207e5c089be95d3e90600090a260008251118061007f5750805b156100fb576100f9836001600160a01b0316635c60da1b6040518163ffffffff1660e01b8152600401602060405180830381865afa1580156100c5573d6000803e3d6000fd5b505050506040513d601f19601f820116820180604052508101906100e99190610521565b836102a360201b6100291760201c565b505b505050565b610113816102cf60201b6100551760201c565b6101725760405162461bcd60e51b815260206004820152602560248201527f455243313936373a206e657720626561636f6e206973206e6f74206120636f6e6044820152641d1c9858dd60da1b60648201526084015b60405180910390fd5b6101e6816001600160a01b0316635c60da1b6040518163ffffffff1660e01b8152600401602060405180830381865afa1580156101b3573d6000803e3d6000fd5b505050506040513d601f19601f820116820180604052508101906101d79190610521565b6102cf60201b6100551760201c565b61024b5760405162461bcd60e51b815260206004820152603060248201527f455243313936373a20626561636f6e20696d706c656d656e746174696f6e206960448201526f1cc81b9bdd08184818dbdb9d1c9858dd60821b6064820152608401610169565b806102827fa3f0ad74e5423aebfd80d3ef4346578335a9a72aeaee59ff6cb3582b35133d5060001b6102de60201b6100641760201c565b80546001600160a01b0319166001600160a01b039290921691909117905550565b60606102c883836040518060600160405280602781526020016108e9602791396102e1565b9392505050565b6001600160a01b03163b151590565b90565b6060600080856001600160a01b0316856040516102fe919061053c565b600060405180830381855af49150503d8060008114610339576040519150601f19603f3d011682016040523d82523d6000602084013e61033e565b606091505b5090925090506103508683838761035a565b9695505050505050565b606083156103c75782516000036103c057610374856102cf565b6103c05760405162461bcd60e51b815260206004820152601d60248201527f416464726573733a2063616c6c20746f206e6f6e2d636f6e74726163740000006044820152606401610169565b50816103d1565b6103d183836103d9565b949350505050565b8151156103e95781518083602001fd5b8060405162461bcd60e51b81526004016101699190610558565b80516001600160a01b038116811461041a57600080fd5b919050565b634e487b7160e01b600052604160045260246000fd5b60005b83811015610450578181015183820152602001610438565b838111156100f95750506000910152565b6000806040838503121561047457600080fd5b61047d83610403565b60208401519092506001600160401b038082111561049a57600080fd5b818501915085601f8301126104ae57600080fd5b8151818111156104c0576104c061041f565b604051601f8201601f19908116603f011681019083821181831017156104e8576104e861041f565b8160405282815288602084870101111561050157600080fd5b610512836020830160208801610435565b80955050505050509250929050565b60006020828403121561053357600080fd5b6102c882610403565b6000825161054e818460208701610435565b9190910192915050565b6020815260008251806020840152610577816040850160208701610435565b601f01601f19169190910160400192915050565b61034f8061059a6000396000f3fe60806040523661001357610011610017565b005b6100115b610027610022610067565b610100565b565b606061004e83836040518060600160405280602781526020016102f360279139610124565b9392505050565b6001600160a01b03163b151590565b90565b600061009a7fa3f0ad74e5423aebfd80d3ef4346578335a9a72aeaee59ff6cb3582b35133d50546001600160a01b031690565b6001600160a01b0316635c60da1b6040518163ffffffff1660e01b8152600401602060405180830381865afa1580156100d7573d6000803e3d6000fd5b505050506040513d601f19601f820116820180604052508101906100fb919061024a565b905090565b3660008037600080366000845af43d6000803e80801561011f573d6000f35b3d6000fd5b6060600080856001600160a01b03168560405161014191906102a3565b600060405180830381855af49150503d806000811461017c576040519150601f19603f3d011682016040523d82523d6000602084013e610181565b606091505b50915091506101928683838761019c565b9695505050505050565b6060831561020e578251600003610207576101b685610055565b6102075760405162461bcd60e51b815260206004820152601d60248201527f416464726573733a2063616c6c20746f206e6f6e2d636f6e747261637400000060448201526064015b60405180910390fd5b5081610218565b6102188383610220565b949350505050565b8151156102305781518083602001fd5b8060405162461bcd60e51b81526004016101fe91906102bf565b60006020828403121561025c57600080fd5b81516001600160a01b038116811461004e57600080fd5b60005b8381101561028e578181015183820152602001610276565b8381111561029d576000848401525b50505050565b600082516102b5818460208701610273565b9190910192915050565b60208152600082518060208401526102de816040850160208701610273565b601f01601f1916919091016040019291505056fe416464726573733a206c6f772d6c6576656c2064656c65676174652063616c6c206661696c6564a264697066735822122048cae396554de588e42a40830b5efb59ad2cb405b3e8e950e04b86c62d45608d64736f6c634300080d0033416464726573733a206c6f772d6c6576656c2064656c65676174652063616c6c206661696c6564696e697469616c697a6528616464726573732c616464726573732c75696e743235362c737472696e672c737472696e672c737472696e672946756e6374696f6e206d7573742062652063616c6c6564207468726f75676820189ab7a9244df0848122154315af71fe140f3db0fe014031783b0946b8c9d2e3360894a13ba1a3210667c828492db98dca3e2076cc3735a920a3ca505d382bbc65d7a28e3265b37a6474929f336521b332c1681b933f6cb9f3376673440d862a416464726573733a206c6f772d6c6576656c2064656c65676174652063616c6c206661696c6564a26469706673582212205a213dd1d21bd3528be86cb0d7402a4c6994146cea7ba1d52b8cf8cc997e6ee364736f6c634300080d0033",
  "linkReferences": {},
  "deployedLinkReferences": {}
}