{
  "_format": "hh-sol-artifact-1",
  "contractName": "Project",
  "sourceName": "contracts/Project.sol",
  "abi": [
    {
      "inputs": [],
      "stateMutability": "nonpayable",
      "type": "constructor"
    },
    {
      "anonymous": false,
      "inputs": [
        {
          "indexed": true,
          "internalType": "address",
          "name": "from",
          "type": "address"
        },
        {
          "indexed": true,
          "internalType": "uint256",
          "name": "tokenId",
          "type": "uint256"
        },
        {
          "indexed": false,
          "internalType": "uint256",
          "name": "amount",
          "type": "uint256"
        },
        {
          "indexed": true,
          "internalType": "enum AdminActionReason",
          "name": "reason",
          "type": "uint8"
        }
      ],
      "name": "AdminBurn",
      "type": "event"
    },
    {
      "anonymous": false,
      "inputs": [
        {
          "indexed": false,
          "internalType": "address",
          "name": "previousAdmin",
          "type": "address"
        },
        {
          "indexed": false,
          "internalType": "address",
          "name": "newAdmin",
          "type": "address"
        }
      ],
      "name": "AdminChanged",
      "type": "event"
    },
    {
      "anonymous": false,
      "inputs": [
        {
          "indexed": true,
          "internalType": "address",
          "name": "from",
          "type": "address"
        },
        {
          "indexed": false,
          "internalType": "address",
          "name": "to",
          "type": "address"
        },
        {
          "indexed": true,
          "internalType": "uint256",
          "name": "tokenId",
          "type": "uint256"
        },
        {
          "indexed": false,
          "internalType": "uint256",
          "name": "amount",
          "type": "uint256"
        },
        {
          "indexed": true,
          "internalType": "enum AdminActionReason",
          "name": "reason",
          "type": "uint8"
        }
      ],
      "name": "AdminClawback",
      "type": "event"
    },
    {
      "anonymous": false,
      "inputs": [
        {
          "indexed": true,
          "internalType": "address",
          "name": "account",
          "type": "address"
        },
        {
          "indexed": true,
          "internalType": "address",
          "name": "operator",
          "type": "address"
        },
        {
          "indexed": false,
          "internalType": "bool",
          "name": "approved",
          "type": "bool"
        }
      ],
      "name": "ApprovalForAll",
      "type": "event"
    },
    {
      "anonymous": false,
      "inputs": [
        {
          "indexed": true,
          "internalType": "address",
          "name": "beacon",
          "type": "address"
        }
      ],
      "name": "BeaconUpgraded",
      "type": "event"
    },
    {
      "anonymous": false,
      "inputs": [
        {
          "indexed": true,
          "internalType": "address",
          "name": "account",
          "type": "address"
        },
        {
          "indexed": true,
          "internalType": "uint256",
          "name": "tokenId",
          "type": "uint256"
        },
        {
          "indexed": false,
          "internalType": "uint256",
          "name": "amount",
          "type": "uint256"
        },
        {
          "indexed": false,
          "internalType": "string",
          "name": "reason",
          "type": "string"
        },
        {
          "indexed": false,
          "internalType": "bytes",
          "name": "data",
          "type": "bytes"
        }
      ],
      "name": "CancelledCredits",
      "type": "event"
    },
    {
      "anonymous": false,
      "inputs": [],
      "name": "EIP712DomainChanged",
      "type": "event"
    },
    {
      "anonymous": false,
      "inputs": [
        {
          "indexed": true,
          "internalType": "uint256",
          "name": "exAnteTokenId",
          "type": "uint256"
        },
        {
          "indexed": true,
          "internalType": "uint256",
          "name": "exPostTokenId",
          "type": "uint256"
        },
        {
          "indexed": true,
          "internalType": "address",
          "name": "account",
          "type": "address"
        },
        {
          "indexed": false,
          "internalType": "uint256",
          "name": "amount",
          "type": "uint256"
        }
      ],
      "name": "ExAnteMinted",
      "type": "event"
    },
    {
      "anonymous": false,
      "inputs": [
        {
          "indexed": true,
          "internalType": "uint256",
          "name": "tokenId",
          "type": "uint256"
        },
        {
          "indexed": false,
          "internalType": "uint256",
          "name": "estimatedAmount",
          "type": "uint256"
        },
        {
          "indexed": false,
          "internalType": "uint256",
          "name": "verificationPeriodStart",
          "type": "uint256"
        },
        {
          "indexed": false,
          "internalType": "uint256",
          "name": "verificationPeriodEnd",
          "type": "uint256"
        },
        {
          "indexed": false,
          "internalType": "string",
          "name": "serialization",
          "type": "string"
        }
      ],
      "name": "ExPostCreated",
      "type": "event"
    },
    {
      "anonymous": false,
      "inputs": [
        {
          "indexed": true,
          "internalType": "uint256",
          "name": "tokenId",
          "type": "uint256"
        },
        {
          "indexed": false,
          "internalType": "uint256",
          "name": "amount",
          "type": "uint256"
        },
        {
          "indexed": false,
          "internalType": "uint256",
          "name": "amountToAnteHolders",
          "type": "uint256"
        },
        {
          "indexed": false,
          "internalType": "uint256",
          "name": "verificationPeriodStart",
          "type": "uint256"
        },
        {
          "indexed": false,
          "internalType": "uint256",
          "name": "verificationPeriodEnd",
          "type": "uint256"
        },
        {
          "indexed": false,
          "internalType": "string",
          "name": "monitoringReport",
          "type": "string"
        }
      ],
      "name": "ExPostVerifiedAndMinted",
      "type": "event"
    },
    {
      "anonymous": false,
      "inputs": [
        {
          "indexed": true,
          "internalType": "address",
          "name": "account",
          "type": "address"
        },
        {
          "indexed": true,
          "internalType": "uint256",
          "name": "exPostTokenId",
          "type": "uint256"
        },
        {
          "indexed": false,
          "internalType": "uint256",
          "name": "exPostAmountReceived",
          "type": "uint256"
        },
        {
          "indexed": false,
          "internalType": "uint256",
          "name": "exAnteAmountBurned",
          "type": "uint256"
        }
      ],
      "name": "ExchangeAnteForPost",
      "type": "event"
    },
    {
      "anonymous": false,
      "inputs": [
        {
          "indexed": false,
          "internalType": "uint8",
          "name": "version",
          "type": "uint8"
        }
      ],
      "name": "Initialized",
      "type": "event"
    },
    {
      "anonymous": false,
      "inputs": [
        {
          "indexed": false,
          "internalType": "address",
          "name": "account",
          "type": "address"
        }
      ],
      "name": "Paused",
      "type": "event"
    },
    {
      "anonymous": false,
      "inputs": [
        {
          "indexed": true,
          "internalType": "address",
          "name": "account",
          "type": "address"
        },
        {
          "indexed": true,
          "internalType": "uint256",
          "name": "tokenId",
          "type": "uint256"
        },
        {
          "indexed": false,
          "internalType": "uint256",
          "name": "amount",
          "type": "uint256"
        },
        {
          "indexed": false,
          "internalType": "uint256",
          "name": "nftTokenId",
          "type": "uint256"
        },
        {
          "indexed": false,
          "internalType": "bytes",
          "name": "data",
          "type": "bytes"
        }
      ],
      "name": "RetiredVintage",
      "type": "event"
    },
    {
      "anonymous": false,
      "inputs": [
        {
          "indexed": true,
          "internalType": "bytes32",
          "name": "role",
          "type": "bytes32"
        },
        {
          "indexed": true,
          "internalType": "bytes32",
          "name": "previousAdminRole",
          "type": "bytes32"
        },
        {
          "indexed": true,
          "internalType": "bytes32",
          "name": "newAdminRole",
          "type": "bytes32"
        }
      ],
      "name": "RoleAdminChanged",
      "type": "event"
    },
    {
      "anonymous": false,
      "inputs": [
        {
          "indexed": true,
          "internalType": "bytes32",
          "name": "role",
          "type": "bytes32"
        },
        {
          "indexed": true,
          "internalType": "address",
          "name": "account",
          "type": "address"
        },
        {
          "indexed": true,
          "internalType": "address",
          "name": "sender",
          "type": "address"
        }
      ],
      "name": "RoleGranted",
      "type": "event"
    },
    {
      "anonymous": false,
      "inputs": [
        {
          "indexed": true,
          "internalType": "bytes32",
          "name": "role",
          "type": "bytes32"
        },
        {
          "indexed": true,
          "internalType": "address",
          "name": "account",
          "type": "address"
        },
        {
          "indexed": true,
          "internalType": "address",
          "name": "sender",
          "type": "address"
        }
      ],
      "name": "RoleRevoked",
      "type": "event"
    },
    {
      "anonymous": false,
      "inputs": [
        {
          "indexed": true,
          "internalType": "address",
          "name": "operator",
          "type": "address"
        },
        {
          "indexed": true,
          "internalType": "address",
          "name": "from",
          "type": "address"
        },
        {
          "indexed": true,
          "internalType": "address",
          "name": "to",
          "type": "address"
        },
        {
          "indexed": false,
          "internalType": "uint256[]",
          "name": "ids",
          "type": "uint256[]"
        },
        {
          "indexed": false,
          "internalType": "uint256[]",
          "name": "values",
          "type": "uint256[]"
        }
      ],
      "name": "TransferBatch",
      "type": "event"
    },
    {
      "anonymous": false,
      "inputs": [
        {
          "indexed": false,
          "internalType": "bytes",
          "name": "signature",
          "type": "bytes"
        },
        {
          "components": [
            {
              "internalType": "uint256",
              "name": "deadline",
              "type": "uint256"
            },
            {
              "internalType": "string",
              "name": "description",
              "type": "string"
            },
            {
              "internalType": "address",
              "name": "signer",
              "type": "address"
            },
            {
              "internalType": "address",
              "name": "to",
              "type": "address"
            },
            {
              "internalType": "uint256",
              "name": "tokenId",
              "type": "uint256"
            },
            {
              "internalType": "uint256",
              "name": "amount",
              "type": "uint256"
            },
            {
              "internalType": "uint256",
              "name": "nonce",
              "type": "uint256"
            }
          ],
          "indexed": false,
          "internalType": "struct signatureTransferPayload",
          "name": "payload",
          "type": "tuple"
        }
      ],
      "name": "TransferSignatureValid",
      "type": "event"
    },
    {
      "anonymous": false,
      "inputs": [
        {
          "indexed": true,
          "internalType": "address",
          "name": "operator",
          "type": "address"
        },
        {
          "indexed": true,
          "internalType": "address",
          "name": "from",
          "type": "address"
        },
        {
          "indexed": true,
          "internalType": "address",
          "name": "to",
          "type": "address"
        },
        {
          "indexed": false,
          "internalType": "uint256",
          "name": "id",
          "type": "uint256"
        },
        {
          "indexed": false,
          "internalType": "uint256",
          "name": "value",
          "type": "uint256"
        }
      ],
      "name": "TransferSingle",
      "type": "event"
    },
    {
      "anonymous": false,
      "inputs": [
        {
          "indexed": false,
          "internalType": "string",
          "name": "value",
          "type": "string"
        },
        {
          "indexed": true,
          "internalType": "uint256",
          "name": "id",
          "type": "uint256"
        }
      ],
      "name": "URI",
      "type": "event"
    },
    {
      "anonymous": false,
      "inputs": [
        {
          "indexed": false,
          "internalType": "address",
          "name": "account",
          "type": "address"
        }
      ],
      "name": "Unpaused",
      "type": "event"
    },
    {
      "anonymous": false,
      "inputs": [
        {
          "indexed": true,
          "internalType": "address",
          "name": "implementation",
          "type": "address"
        }
      ],
      "name": "Upgraded",
      "type": "event"
    },
    {
      "anonymous": false,
      "inputs": [
        {
          "indexed": true,
          "internalType": "uint256",
          "name": "tokenId",
          "type": "uint256"
        },
        {
          "indexed": false,
          "internalType": "uint256",
          "name": "newEstimate",
          "type": "uint256"
        },
        {
          "indexed": false,
          "internalType": "uint256",
          "name": "oldEstimate",
          "type": "uint256"
        },
        {
          "indexed": true,
          "internalType": "enum AdminActionReason",
          "name": "reason",
          "type": "uint8"
        }
      ],
      "name": "VintageMitigationEstimateChanged",
      "type": "event"
    },
    {
      "inputs": [],
      "name": "ANTE_MINTER_ROLE",
      "outputs": [
        {
          "internalType": "bytes32",
          "name": "",
          "type": "bytes32"
        }
      ],
      "stateMutability": "view",
      "type": "function"
    },
    {
      "inputs": [],
      "name": "BLACKLISTED",
      "outputs": [
        {
          "internalType": "bytes32",
          "name": "",
          "type": "bytes32"
        }
      ],
      "stateMutability": "view",
      "type": "function"
    },
    {
      "inputs": [],
      "name": "BLACKLISTER_ROLE",
      "outputs": [
        {
          "internalType": "bytes32",
          "name": "",
          "type": "bytes32"
        }
      ],
      "stateMutability": "view",
      "type": "function"
    },
    {
      "inputs": [],
      "name": "BURNER_ROLE",
      "outputs": [
        {
          "internalType": "bytes32",
          "name": "",
          "type": "bytes32"
        }
      ],
      "stateMutability": "view",
      "type": "function"
    },
    {
      "inputs": [],
      "name": "CLAWBACK_ROLE",
      "outputs": [
        {
          "internalType": "bytes32",
          "name": "",
          "type": "bytes32"
        }
      ],
      "stateMutability": "view",
      "type": "function"
    },
    {
      "inputs": [],
      "name": "DEFAULT_ADMIN_ROLE",
      "outputs": [
        {
          "internalType": "bytes32",
          "name": "",
          "type": "bytes32"
        }
      ],
      "stateMutability": "view",
      "type": "function"
    },
    {
      "inputs": [],
      "name": "MINTER_ROLE",
      "outputs": [
        {
          "internalType": "bytes32",
          "name": "",
          "type": "bytes32"
        }
      ],
      "stateMutability": "view",
      "type": "function"
    },
    {
      "inputs": [],
      "name": "PAUSER_ROLE",
      "outputs": [
        {
          "internalType": "bytes32",
          "name": "",
          "type": "bytes32"
        }
      ],
      "stateMutability": "view",
      "type": "function"
    },
    {
      "inputs": [],
      "name": "POST_MINTER_ROLE",
      "outputs": [
        {
          "internalType": "bytes32",
          "name": "",
          "type": "bytes32"
        }
      ],
      "stateMutability": "view",
      "type": "function"
    },
    {
      "inputs": [],
      "name": "UPGRADER_ROLE",
      "outputs": [
        {
          "internalType": "bytes32",
          "name": "",
          "type": "bytes32"
        }
      ],
      "stateMutability": "view",
      "type": "function"
    },
    {
      "inputs": [],
      "name": "URI_SETTER_ROLE",
      "outputs": [
        {
          "internalType": "bytes32",
          "name": "",
          "type": "bytes32"
        }
      ],
      "stateMutability": "view",
      "type": "function"
    },
    {
      "inputs": [],
      "name": "VERIFIER_ROLE",
      "outputs": [
        {
          "internalType": "bytes32",
          "name": "",
          "type": "bytes32"
        }
      ],
      "stateMutability": "view",
      "type": "function"
    },
    {
      "inputs": [
        {
          "internalType": "address",
          "name": "_contractRegistry",
          "type": "address"
        },
        {
          "internalType": "uint256",
          "name": "_projectId",
          "type": "uint256"
        },
        {
          "internalType": "string",
          "name": "_projectName",
          "type": "string"
        },
        {
          "internalType": "string",
          "name": "_projectUri",
          "type": "string"
        },
        {
          "internalType": "string",
          "name": "_methodology",
          "type": "string"
        }
      ],
      "name": "__ProjectStorage_init",
      "outputs": [],
      "stateMutability": "nonpayable",
      "type": "function"
    },
    {
      "inputs": [
        {
          "internalType": "address",
          "name": "from",
          "type": "address"
        },
        {
          "internalType": "address",
          "name": "to",
          "type": "address"
        },
        {
          "internalType": "uint256",
          "name": "tokenId",
          "type": "uint256"
        },
        {
          "internalType": "uint256",
          "name": "amount",
          "type": "uint256"
        },
        {
          "internalType": "enum AdminActionReason",
          "name": "reason",
          "type": "uint8"
        }
      ],
      "name": "adminClawback",
      "outputs": [],
      "stateMutability": "nonpayable",
      "type": "function"
    },
    {
      "inputs": [
        {
          "internalType": "address",
          "name": "account",
          "type": "address"
        },
        {
          "internalType": "uint256",
          "name": "id",
          "type": "uint256"
        }
      ],
      "name": "balanceOf",
      "outputs": [
        {
          "internalType": "uint256",
          "name": "",
          "type": "uint256"
        }
      ],
      "stateMutability": "view",
      "type": "function"
    },
    {
      "inputs": [
        {
          "internalType": "address[]",
          "name": "accounts",
          "type": "address[]"
        },
        {
          "internalType": "uint256[]",
          "name": "ids",
          "type": "uint256[]"
        }
      ],
      "name": "balanceOfBatch",
      "outputs": [
        {
          "internalType": "uint256[]",
          "name": "",
          "type": "uint256[]"
        }
      ],
      "stateMutability": "view",
      "type": "function"
    },
    {
      "inputs": [
        {
          "internalType": "address",
          "name": "account",
          "type": "address"
        },
        {
          "internalType": "uint256",
          "name": "tokenId",
          "type": "uint256"
        },
        {
          "internalType": "uint256",
          "name": "amount",
          "type": "uint256"
        }
      ],
      "name": "burnFromAccount",
      "outputs": [],
      "stateMutability": "nonpayable",
      "type": "function"
    },
    {
      "inputs": [
        {
          "internalType": "bytes",
          "name": "signature",
          "type": "bytes"
        },
        {
          "components": [
            {
              "internalType": "uint256",
              "name": "deadline",
              "type": "uint256"
            },
            {
              "internalType": "string",
              "name": "description",
              "type": "string"
            },
            {
              "internalType": "address",
              "name": "signer",
              "type": "address"
            },
            {
              "internalType": "address",
              "name": "to",
              "type": "address"
            },
            {
              "internalType": "uint256",
              "name": "tokenId",
              "type": "uint256"
            },
            {
              "internalType": "uint256",
              "name": "amount",
              "type": "uint256"
            },
            {
              "internalType": "uint256",
              "name": "nonce",
              "type": "uint256"
            }
          ],
          "internalType": "struct signatureTransferPayload",
          "name": "payload",
          "type": "tuple"
        },
        {
          "internalType": "string",
          "name": "comment",
          "type": "string"
        },
        {
          "internalType": "bytes",
          "name": "data",
          "type": "bytes"
        }
      ],
      "name": "cancelCreditsFromSignature",
      "outputs": [],
      "stateMutability": "nonpayable",
      "type": "function"
    },
    {
      "inputs": [],
      "name": "contractRegistry",
      "outputs": [
        {
          "internalType": "address",
          "name": "",
          "type": "address"
        }
      ],
      "stateMutability": "view",
      "type": "function"
    },
    {
      "inputs": [
        {
          "internalType": "uint256",
          "name": "estAmount",
          "type": "uint256"
        },
        {
          "internalType": "uint256",
          "name": "verificationPeriodStart",
          "type": "uint256"
        },
        {
          "internalType": "uint256",
          "name": "verificationPeriodEnd",
          "type": "uint256"
        },
        {
          "internalType": "string",
          "name": "serialization",
          "type": "string"
        }
      ],
      "name": "createExPostVintage",
      "outputs": [],
      "stateMutability": "nonpayable",
      "type": "function"
    },
    {
      "inputs": [
        {
          "components": [
            {
              "internalType": "string",
              "name": "serialization",
              "type": "string"
            },
            {
              "internalType": "uint256",
              "name": "estMitigations",
              "type": "uint256"
            },
            {
              "internalType": "uint256",
              "name": "verificationPeriodStart",
              "type": "uint256"
            },
            {
              "internalType": "uint256",
              "name": "verificationPeriodEnd",
              "type": "uint256"
            },
            {
              "internalType": "uint256",
              "name": "lastVerificationTimestamp",
              "type": "uint256"
            }
          ],
          "internalType": "struct VintageData[]",
          "name": "vintages",
          "type": "tuple[]"
        }
      ],
      "name": "createExPostVintageBatch",
      "outputs": [],
      "stateMutability": "nonpayable",
      "type": "function"
    },
    {
      "inputs": [],
      "name": "eip712Domain",
      "outputs": [
        {
          "internalType": "bytes1",
          "name": "fields",
          "type": "bytes1"
        },
        {
          "internalType": "string",
          "name": "name",
          "type": "string"
        },
        {
          "internalType": "string",
          "name": "version",
          "type": "string"
        },
        {
          "internalType": "uint256",
          "name": "chainId",
          "type": "uint256"
        },
        {
          "internalType": "address",
          "name": "verifyingContract",
          "type": "address"
        },
        {
          "internalType": "bytes32",
          "name": "salt",
          "type": "bytes32"
        },
        {
          "internalType": "uint256[]",
          "name": "extensions",
          "type": "uint256[]"
        }
      ],
      "stateMutability": "view",
      "type": "function"
    },
    {
      "inputs": [
        {
          "internalType": "uint256",
          "name": "",
          "type": "uint256"
        }
      ],
      "name": "exAnteToExPostTokenId",
      "outputs": [
        {
          "internalType": "uint256",
          "name": "",
          "type": "uint256"
        }
      ],
      "stateMutability": "view",
      "type": "function"
    },
    {
      "inputs": [
        {
          "internalType": "uint256",
          "name": "",
          "type": "uint256"
        }
      ],
      "name": "exPostToExAnteTokenId",
      "outputs": [
        {
          "internalType": "uint256",
          "name": "",
          "type": "uint256"
        }
      ],
      "stateMutability": "view",
      "type": "function"
    },
    {
      "inputs": [
        {
          "internalType": "uint256",
          "name": "",
          "type": "uint256"
        }
      ],
      "name": "exPostVintageMapping",
      "outputs": [
        {
          "internalType": "string",
          "name": "serialization",
          "type": "string"
        },
        {
          "internalType": "uint256",
          "name": "estMitigations",
          "type": "uint256"
        },
        {
          "internalType": "uint256",
          "name": "verificationPeriodStart",
          "type": "uint256"
        },
        {
          "internalType": "uint256",
          "name": "verificationPeriodEnd",
          "type": "uint256"
        },
        {
          "internalType": "uint256",
          "name": "lastVerificationTimestamp",
          "type": "uint256"
        }
      ],
      "stateMutability": "view",
      "type": "function"
    },
    {
      "inputs": [
        {
          "internalType": "uint256",
          "name": "id",
          "type": "uint256"
        }
      ],
      "name": "exists",
      "outputs": [
        {
          "internalType": "bool",
          "name": "",
          "type": "bool"
        }
      ],
      "stateMutability": "view",
      "type": "function"
    },
    {
      "inputs": [
        {
          "internalType": "bytes32",
          "name": "role",
          "type": "bytes32"
        }
      ],
      "name": "getRoleAdmin",
      "outputs": [
        {
          "internalType": "bytes32",
          "name": "",
          "type": "bytes32"
        }
      ],
      "stateMutability": "view",
      "type": "function"
    },
    {
      "inputs": [
        {
          "internalType": "bytes32",
          "name": "role",
          "type": "bytes32"
        },
        {
          "internalType": "address",
          "name": "account",
          "type": "address"
        }
      ],
      "name": "grantRole",
      "outputs": [],
      "stateMutability": "nonpayable",
      "type": "function"
    },
    {
      "inputs": [
        {
          "internalType": "bytes32",
          "name": "role",
          "type": "bytes32"
        },
        {
          "internalType": "address",
          "name": "account",
          "type": "address"
        }
      ],
      "name": "hasRole",
      "outputs": [
        {
          "internalType": "bool",
          "name": "",
          "type": "bool"
        }
      ],
      "stateMutability": "view",
      "type": "function"
    },
    {
      "inputs": [
        {
          "internalType": "address",
          "name": "_contractRegistry",
          "type": "address"
        },
        {
          "internalType": "address",
          "name": "_owner",
          "type": "address"
        },
        {
          "internalType": "uint256",
          "name": "_projectId",
          "type": "uint256"
        },
        {
          "internalType": "string",
          "name": "_projectName",
          "type": "string"
        },
        {
          "internalType": "string",
          "name": "_projectMethodology",
          "type": "string"
        },
        {
          "internalType": "string",
          "name": "_projectUri",
          "type": "string"
        }
      ],
      "name": "initialize",
      "outputs": [],
      "stateMutability": "nonpayable",
      "type": "function"
    },
    {
      "inputs": [
        {
          "internalType": "address",
          "name": "account",
          "type": "address"
        },
        {
          "internalType": "address",
          "name": "operator",
          "type": "address"
        }
      ],
      "name": "isApprovedForAll",
      "outputs": [
        {
          "internalType": "bool",
          "name": "",
          "type": "bool"
        }
      ],
      "stateMutability": "view",
      "type": "function"
    },
    {
      "inputs": [
        {
          "internalType": "uint256",
          "name": "tokenId",
          "type": "uint256"
        }
      ],
      "name": "isExPostToken",
      "outputs": [
        {
          "internalType": "bool",
          "name": "",
          "type": "bool"
        }
      ],
      "stateMutability": "view",
      "type": "function"
    },
    {
      "inputs": [],
      "name": "maxAntePercentage",
      "outputs": [
        {
          "internalType": "uint8",
          "name": "",
          "type": "uint8"
        }
      ],
      "stateMutability": "view",
      "type": "function"
    },
    {
      "inputs": [],
      "name": "methodology",
      "outputs": [
        {
          "internalType": "string",
          "name": "",
          "type": "string"
        }
      ],
      "stateMutability": "view",
      "type": "function"
    },
    {
      "inputs": [
        {
          "internalType": "address",
          "name": "account",
          "type": "address"
        },
        {
          "internalType": "uint256",
          "name": "exPostTokenId",
          "type": "uint256"
        },
        {
          "internalType": "uint256",
          "name": "amount",
          "type": "uint256"
        },
        {
          "internalType": "bytes",
          "name": "data",
          "type": "bytes"
        }
      ],
      "name": "mintExAnte",
      "outputs": [],
      "stateMutability": "nonpayable",
      "type": "function"
    },
    {
      "inputs": [
        {
          "internalType": "address",
          "name": "",
          "type": "address"
        },
        {
          "internalType": "address",
          "name": "",
          "type": "address"
        },
        {
          "internalType": "uint256[]",
          "name": "",
          "type": "uint256[]"
        },
        {
          "internalType": "uint256[]",
          "name": "",
          "type": "uint256[]"
        },
        {
          "internalType": "bytes",
          "name": "",
          "type": "bytes"
        }
      ],
      "name": "onERC1155BatchReceived",
      "outputs": [
        {
          "internalType": "bytes4",
          "name": "",
          "type": "bytes4"
        }
      ],
      "stateMutability": "nonpayable",
      "type": "function"
    },
    {
      "inputs": [
        {
          "internalType": "address",
          "name": "",
          "type": "address"
        },
        {
          "internalType": "address",
          "name": "",
          "type": "address"
        },
        {
          "internalType": "uint256",
          "name": "",
          "type": "uint256"
        },
        {
          "internalType": "uint256",
          "name": "",
          "type": "uint256"
        },
        {
          "internalType": "bytes",
          "name": "",
          "type": "bytes"
        }
      ],
      "name": "onERC1155Received",
      "outputs": [
        {
          "internalType": "bytes4",
          "name": "",
          "type": "bytes4"
        }
      ],
      "stateMutability": "nonpayable",
      "type": "function"
    },
    {
      "inputs": [],
      "name": "pause",
      "outputs": [],
      "stateMutability": "nonpayable",
      "type": "function"
    },
    {
      "inputs": [],
      "name": "paused",
      "outputs": [
        {
          "internalType": "bool",
          "name": "",
          "type": "bool"
        }
      ],
      "stateMutability": "view",
      "type": "function"
    },
    {
      "inputs": [],
      "name": "projectId",
      "outputs": [
        {
          "internalType": "uint256",
          "name": "",
          "type": "uint256"
        }
      ],
      "stateMutability": "view",
      "type": "function"
    },
    {
      "inputs": [],
      "name": "projectName",
      "outputs": [
        {
          "internalType": "string",
          "name": "",
          "type": "string"
        }
      ],
      "stateMutability": "view",
      "type": "function"
    },
    {
      "inputs": [],
      "name": "projectUri",
      "outputs": [
        {
          "internalType": "string",
          "name": "",
          "type": "string"
        }
      ],
      "stateMutability": "view",
      "type": "function"
    },
    {
      "inputs": [],
      "name": "proxiableUUID",
      "outputs": [
        {
          "internalType": "bytes32",
          "name": "",
          "type": "bytes32"
        }
      ],
      "stateMutability": "view",
      "type": "function"
    },
    {
      "inputs": [
        {
          "internalType": "bytes32",
          "name": "role",
          "type": "bytes32"
        },
        {
          "internalType": "address",
          "name": "account",
          "type": "address"
        }
      ],
      "name": "renounceRole",
      "outputs": [],
      "stateMutability": "nonpayable",
      "type": "function"
    },
    {
      "inputs": [
        {
          "internalType": "uint256",
          "name": "tokenId",
          "type": "uint256"
        },
        {
          "internalType": "uint256",
          "name": "amount",
          "type": "uint256"
        },
        {
          "internalType": "address",
          "name": "beneficiary",
          "type": "address"
        },
        {
          "internalType": "string",
          "name": "retireeName",
          "type": "string"
        },
        {
          "internalType": "string",
          "name": "customUri",
          "type": "string"
        },
        {
          "internalType": "string",
          "name": "comment",
          "type": "string"
        },
        {
          "internalType": "bytes",
          "name": "data",
          "type": "bytes"
        }
      ],
      "name": "retire",
      "outputs": [
        {
          "internalType": "uint256",
          "name": "nftTokenId",
          "type": "uint256"
        }
      ],
      "stateMutability": "nonpayable",
      "type": "function"
    },
    {
      "inputs": [
        {
          "internalType": "bytes",
          "name": "signature",
          "type": "bytes"
        },
        {
          "components": [
            {
              "internalType": "uint256",
              "name": "deadline",
              "type": "uint256"
            },
            {
              "internalType": "string",
              "name": "description",
              "type": "string"
            },
            {
              "internalType": "address",
              "name": "signer",
              "type": "address"
            },
            {
              "internalType": "address",
              "name": "to",
              "type": "address"
            },
            {
              "internalType": "uint256",
              "name": "tokenId",
              "type": "uint256"
            },
            {
              "internalType": "uint256",
              "name": "amount",
              "type": "uint256"
            },
            {
              "internalType": "uint256",
              "name": "nonce",
              "type": "uint256"
            }
          ],
          "internalType": "struct signatureTransferPayload",
          "name": "payload",
          "type": "tuple"
        },
        {
          "internalType": "string",
          "name": "retireeName",
          "type": "string"
        },
        {
          "internalType": "string",
          "name": "customUri",
          "type": "string"
        },
        {
          "internalType": "string",
          "name": "comment",
          "type": "string"
        },
        {
          "internalType": "bytes",
          "name": "data",
          "type": "bytes"
        }
      ],
      "name": "retireFromSignature",
      "outputs": [
        {
          "internalType": "uint256",
          "name": "nftTokenId",
          "type": "uint256"
        }
      ],
      "stateMutability": "nonpayable",
      "type": "function"
    },
    {
      "inputs": [
        {
          "internalType": "uint256",
          "name": "",
          "type": "uint256"
        }
      ],
      "name": "retirementMapping",
      "outputs": [
        {
          "internalType": "address",
          "name": "retiree",
          "type": "address"
        },
        {
          "internalType": "uint256",
          "name": "amount",
          "type": "uint256"
        },
        {
          "internalType": "uint256",
          "name": "vintageTokenId",
          "type": "uint256"
        },
        {
          "internalType": "string",
          "name": "retireeName",
          "type": "string"
        },
        {
          "internalType": "string",
          "name": "customUri",
          "type": "string"
        },
        {
          "internalType": "string",
          "name": "comment",
          "type": "string"
        }
      ],
      "stateMutability": "view",
      "type": "function"
    },
    {
      "inputs": [
        {
          "internalType": "bytes32",
          "name": "role",
          "type": "bytes32"
        },
        {
          "internalType": "address",
          "name": "account",
          "type": "address"
        }
      ],
      "name": "revokeRole",
      "outputs": [],
      "stateMutability": "nonpayable",
      "type": "function"
    },
    {
      "inputs": [
        {
          "internalType": "address",
          "name": "from",
          "type": "address"
        },
        {
          "internalType": "address",
          "name": "to",
          "type": "address"
        },
        {
          "internalType": "uint256[]",
          "name": "ids",
          "type": "uint256[]"
        },
        {
          "internalType": "uint256[]",
          "name": "amounts",
          "type": "uint256[]"
        },
        {
          "internalType": "bytes",
          "name": "data",
          "type": "bytes"
        }
      ],
      "name": "safeBatchTransferFrom",
      "outputs": [],
      "stateMutability": "nonpayable",
      "type": "function"
    },
    {
      "inputs": [
        {
          "internalType": "address",
          "name": "from",
          "type": "address"
        },
        {
          "internalType": "address",
          "name": "to",
          "type": "address"
        },
        {
          "internalType": "uint256",
          "name": "id",
          "type": "uint256"
        },
        {
          "internalType": "uint256",
          "name": "amount",
          "type": "uint256"
        },
        {
          "internalType": "bytes",
          "name": "data",
          "type": "bytes"
        }
      ],
      "name": "safeTransferFrom",
      "outputs": [],
      "stateMutability": "nonpayable",
      "type": "function"
    },
    {
      "inputs": [
        {
          "internalType": "string",
          "name": "",
          "type": "string"
        }
      ],
      "name": "serializationToExPostTokenIdMapping",
      "outputs": [
        {
          "internalType": "uint256",
          "name": "",
          "type": "uint256"
        }
      ],
      "stateMutability": "view",
      "type": "function"
    },
    {
      "inputs": [
        {
          "internalType": "address",
          "name": "operator",
          "type": "address"
        },
        {
          "internalType": "bool",
          "name": "approved",
          "type": "bool"
        }
      ],
      "name": "setApprovalForAll",
      "outputs": [],
      "stateMutability": "nonpayable",
      "type": "function"
    },
    {
      "inputs": [
        {
          "internalType": "string",
          "name": "newuri",
          "type": "string"
        }
      ],
      "name": "setURI",
      "outputs": [],
      "stateMutability": "nonpayable",
      "type": "function"
    },
    {
      "inputs": [
        {
          "internalType": "address",
          "name": "",
          "type": "address"
        }
      ],
      "name": "signatureNonces",
      "outputs": [
        {
          "internalType": "uint32",
          "name": "",
          "type": "uint32"
        }
      ],
      "stateMutability": "view",
      "type": "function"
    },
    {
      "inputs": [
        {
          "internalType": "bytes4",
          "name": "interfaceId",
          "type": "bytes4"
        }
      ],
      "name": "supportsInterface",
      "outputs": [
        {
          "internalType": "bool",
          "name": "",
          "type": "bool"
        }
      ],
      "stateMutability": "view",
      "type": "function"
    },
    {
      "inputs": [],
      "name": "testUpgrade",
      "outputs": [
        {
          "internalType": "string",
          "name": "",
          "type": "string"
        }
      ],
      "stateMutability": "pure",
      "type": "function"
    },
    {
      "inputs": [],
      "name": "topTokenId",
      "outputs": [
        {
          "internalType": "uint256",
          "name": "",
          "type": "uint256"
        }
      ],
      "stateMutability": "view",
      "type": "function"
    },
    {
      "inputs": [
        {
          "internalType": "uint256",
          "name": "id",
          "type": "uint256"
        }
      ],
      "name": "totalSupply",
      "outputs": [
        {
          "internalType": "uint256",
          "name": "",
          "type": "uint256"
        }
      ],
      "stateMutability": "view",
      "type": "function"
    },
    {
      "inputs": [
        {
          "internalType": "bytes",
          "name": "signature",
          "type": "bytes"
        },
        {
          "components": [
            {
              "internalType": "uint256",
              "name": "deadline",
              "type": "uint256"
            },
            {
              "internalType": "string",
              "name": "description",
              "type": "string"
            },
            {
              "internalType": "address",
              "name": "signer",
              "type": "address"
            },
            {
              "internalType": "address",
              "name": "to",
              "type": "address"
            },
            {
              "internalType": "uint256",
              "name": "tokenId",
              "type": "uint256"
            },
            {
              "internalType": "uint256",
              "name": "amount",
              "type": "uint256"
            },
            {
              "internalType": "uint256",
              "name": "nonce",
              "type": "uint256"
            }
          ],
          "internalType": "struct signatureTransferPayload",
          "name": "payload",
          "type": "tuple"
        },
        {
          "internalType": "bytes",
          "name": "data",
          "type": "bytes"
        }
      ],
      "name": "transferFromSignature",
      "outputs": [],
      "stateMutability": "payable",
      "type": "function"
    },
    {
      "inputs": [],
      "name": "unpause",
      "outputs": [],
      "stateMutability": "nonpayable",
      "type": "function"
    },
    {
      "inputs": [
        {
          "internalType": "address",
          "name": "newImplementation",
          "type": "address"
        }
      ],
      "name": "upgradeTo",
      "outputs": [],
      "stateMutability": "nonpayable",
      "type": "function"
    },
    {
      "inputs": [
        {
          "internalType": "address",
          "name": "newImplementation",
          "type": "address"
        },
        {
          "internalType": "bytes",
          "name": "data",
          "type": "bytes"
        }
      ],
      "name": "upgradeToAndCall",
      "outputs": [],
      "stateMutability": "payable",
      "type": "function"
    },
    {
      "inputs": [
        {
          "internalType": "uint256",
          "name": "",
          "type": "uint256"
        }
      ],
      "name": "uri",
      "outputs": [
        {
          "internalType": "string",
          "name": "",
          "type": "string"
        }
      ],
      "stateMutability": "view",
      "type": "function"
    },
    {
      "inputs": [
        {
          "internalType": "address",
          "name": "verificationVault",
          "type": "address"
        },
        {
          "internalType": "uint256",
          "name": "tokenId",
          "type": "uint256"
        },
        {
          "internalType": "uint256",
          "name": "amountVerified",
          "type": "uint256"
        },
        {
          "internalType": "uint256",
          "name": "amountToAnteHolders",
          "type": "uint256"
        },
        {
          "internalType": "uint256",
          "name": "verificationPeriodStart",
          "type": "uint256"
        },
        {
          "internalType": "uint256",
          "name": "verificationPeriodEnd",
          "type": "uint256"
        },
        {
          "internalType": "string",
          "name": "monitoringReport",
          "type": "string"
        }
      ],
      "name": "verifyAndMintExPost",
      "outputs": [],
      "stateMutability": "nonpayable",
      "type": "function"
    }
  ],
  "bytecode": "0x60a0604052306080523480156200001557600080fd5b506200002062000026565b620000e7565b600054610100900460ff1615620000935760405162461bcd60e51b815260206004820152602760248201527f496e697469616c697a61626c653a20636f6e747261637420697320696e697469604482015266616c697a696e6760c81b606482015260840160405180910390fd5b60005460ff90811614620000e5576000805460ff191660ff9081179091556040519081527f7f26b83ff96e1f2b6a682f133852f6798a09c465da95921460cefb38474024989060200160405180910390a15b565b6080516159c16200011f60003960008181611475015281816114b5015281816117fa0152818161183a01526118b201526159c16000f3fe6080604052600436106102d25760003560e01c8062fdd58e146102d757806301139ca71461030a57806301ffc9a71461032c57806302fe53051461035c5780630e89341c1461037c57806310c1e7a1146103a957806322088ebf146103c9578063248a9ca3146103e9578063275d4dec14610409578063282c51f3146104295780632ea05e441461045d5780632eb2c2d61461047f5780632f2ff15d1461049f5780633584c384146104bf57806336568abe146104ed5780633659cfe61461050d5780633f4ba83a1461052d5780633fafa1271461054257806341a30d3c146105595780634e1273f4146105795780634f1ef286146105a65780634f558e79146105b957806352d1902d146105e857806354ff0795146105fd5780635c975abb146106365780635e3bbaab1461064e578063610e70121461067057806361eeb0891461069d5780636929a19c146106b45780636f63984d146106e6578063728e68e314610706578063748957de1461073757806379c276051461074c5780637f3457101461076c5780638456cb591461078e57806384b0196e146107a35780638f76c1da146107cb57806391d14854146107f95780639a33e300146108195780639d6aed0b1461082e5780639eeb1d501461085d578063a0e1b17114610872578063a106277114610892578063a217fddf146108b2578063a22cb465146108c7578063aa8b2ea7146108e7578063abf410e514610909578063af93ff7214610937578063bc197c8114610957578063bd85b0391461099c578063d5391393146109c9578063d547741f146109fd578063dbd8483d14610a1d578063deb0420714610a66578063e36408d014610a86578063e63ab1e914610a99578063e7705db614610abb578063e985e9c514610add578063eda3b77b14610b26578063edc0b2e614610b46578063f23a6e6114610b68578063f242432a14610b94578063f515e6f214610bb4578063f72c0d8b14610bd6575b600080fd5b3480156102e357600080fd5b506102f76102f2366004614235565b610bf8565b6040519081526020015b60405180910390f35b34801561031657600080fd5b5061032a610325366004614339565b610c90565b005b34801561033857600080fd5b5061034c610347366004614400565b610ec3565b6040519015158152602001610301565b34801561036857600080fd5b5061032a61037736600461441d565b610ed4565b34801561038857600080fd5b5061039c610397366004614451565b610ef9565b60405161030191906144c2565b3480156103b557600080fd5b5061032a6103c43660046144d5565b610f8d565b3480156103d557600080fd5b5061032a6103e436600461458e565b611065565b3480156103f557600080fd5b506102f7610404366004614451565b6112e3565b34801561041557600080fd5b506102f7610424366004614640565b6112f8565b34801561043557600080fd5b506102f77f3c11d16cbaffd01df69ce1c404f6340ee057498f5f00246190ea54220576a84881565b34801561046957600080fd5b506102f760008051602061592c83398151915281565b34801561048b57600080fd5b5061032a61049a3660046147a4565b611384565b3480156104ab57600080fd5b5061032a6104ba366004614833565b6113d0565b3480156104cb57600080fd5b506102f76104da366004614451565b6101fe6020526000908152604090205481565b3480156104f957600080fd5b5061032a610508366004614833565b6113f1565b34801561051957600080fd5b5061032a61052836600461485f565b61146b565b34801561053957600080fd5b5061032a611533565b34801561054e57600080fd5b506102f76101f85481565b34801561056557600080fd5b5061032a61057436600461487a565b611553565b34801561058557600080fd5b506105996105943660046148e8565b6116c7565b60405161030191906149ed565b61032a6105b4366004614a00565b6117f0565b3480156105c557600080fd5b5061034c6105d4366004614451565b600090815260fb6020526040902054151590565b3480156105f457600080fd5b506102f76118a5565b34801561060957600080fd5b506102f761061836600461441d565b80516020818301810180516101ff8252928201919093012091525481565b34801561064257600080fd5b5060c95460ff1661034c565b34801561065a57600080fd5b506102f760008051602061594c83398151915281565b34801561067c57600080fd5b506101f95461068b9060ff1681565b60405160ff9091168152602001610301565b3480156106a957600080fd5b506102f76101f75481565b3480156106c057600080fd5b506106d46106cf366004614451565b611954565b60405161030196959493929190614a50565b3480156106f257600080fd5b5061034c610701366004614451565b611b2e565b34801561071257600080fd5b50610726610721366004614451565b611b55565b604051610301959493929190614aa3565b34801561074357600080fd5b5061039c611c0c565b34801561075857600080fd5b5061032a610767366004614ada565b611c9b565b34801561077857600080fd5b506102f760008051602061588583398151915281565b34801561079a57600080fd5b5061032a611d51565b3480156107af57600080fd5b506107b8611d71565b6040516103019796959493929190614bf6565b3480156107d757600080fd5b506102f76107e6366004614451565b6101fd6020526000908152604090205481565b34801561080557600080fd5b5061034c610814366004614833565b611e11565b34801561082557600080fd5b5061039c611e3c565b34801561083a57600080fd5b506040805180820190915260068152650c0b8c0b8c4d60d21b602082015261039c565b34801561086957600080fd5b5061039c611e4a565b34801561087e57600080fd5b5061032a61088d366004614c66565b611e58565b34801561089e57600080fd5b5061032a6108ad366004614ca7565b611fc4565b3480156108be57600080fd5b506102f7600081565b3480156108d357600080fd5b5061032a6108e2366004614d19565b6120e1565b3480156108f357600080fd5b506102f760008051602061586583398151915281565b34801561091557600080fd5b506101fb5461092a906001600160a01b031681565b6040516103019190614d55565b34801561094357600080fd5b506102f7610952366004614d69565b6120ec565b34801561096357600080fd5b506109836109723660046147a4565b63bc197c8160e01b95945050505050565b6040516001600160e01b03199091168152602001610301565b3480156109a857600080fd5b506102f76109b7366004614451565b600090815260fb602052604090205490565b3480156109d557600080fd5b506102f77f9f2df0fed2c77648de5860a4cc508cd0818c85b8b8a1ab4ceeef8d981c8956a681565b348015610a0957600080fd5b5061032a610a18366004614833565b6122fb565b348015610a2957600080fd5b50610a51610a3836600461485f565b6101c56020526000908152604090205463ffffffff1681565b60405163ffffffff9091168152602001610301565b348015610a7257600080fd5b5061032a610a81366004614e48565b612317565b61032a610a94366004614ea7565b6123a6565b348015610aa557600080fd5b506102f76000805160206158c583398151915281565b348015610ac757600080fd5b506102f760008051602061596c83398151915281565b348015610ae957600080fd5b5061034c610af8366004614f28565b6001600160a01b03918216600090815260666020908152604080832093909416825291909152205460ff1690565b348015610b3257600080fd5b5061032a610b41366004614f52565b6124e4565b348015610b5257600080fd5b506102f76000805160206157c583398151915281565b348015610b7457600080fd5b50610983610b83366004614f85565b63f23a6e6160e01b95945050505050565b348015610ba057600080fd5b5061032a610baf366004614f85565b61250d565b348015610bc057600080fd5b506102f760008051602061590c83398151915281565b348015610be257600080fd5b506102f760008051602061582583398151915281565b60006001600160a01b038316610c685760405162461bcd60e51b815260206004820152602a60248201527f455243313135353a2061646472657373207a65726f206973206e6f742061207660448201526930b634b21037bbb732b960b11b60648201526084015b60405180910390fd5b5060009081526065602090815260408083206001600160a01b03949094168352929052205490565b600054610100900460ff1615808015610cb05750600054600160ff909116105b80610cd15750610cbf30612552565b158015610cd1575060005460ff166001145b610ced5760405162461bcd60e51b8152600401610c5f90614fe9565b6000805460ff191660011790558015610d10576000805461ff0019166101001790555b610d2860405180602001604052806000815250612561565b610d30612591565b610d386125ba565b610d40612591565b610d48612591565b610d966040518060400160405280600f81526020016e436172626f6e20526567697374727960881b81525060405180604001604052806005815260200164302e302e3160d81b8152506125e9565b610da38786868587611fc4565b610dae60008761261a565b610dc66000805160206158858339815191528761261a565b610dde6000805160206158c58339815191528761261a565b610df66000805160206157c58339815191528761261a565b610e0e60008051602061594c8339815191528761261a565b610e266000805160206158258339815191528761261a565b610e3e60008051602061590c8339815191528761261a565b610e5660008051602061596c8339815191528761261a565b610e6e60008051602061592c8339815191528761261a565b610e8660008051602061594c8339815191523361261a565b8015610eba576000805461ff0019169055604051600181526000805160206158a58339815191529060200160405180910390a15b50505050505050565b6000610ece826126a0565b92915050565b600080516020615885833981519152610eec816126c5565b610ef5826126cf565b5050565b606060678054610f0890615037565b80601f0160208091040260200160405190810160405280929190818152602001828054610f3490615037565b8015610f815780601f10610f5657610100808354040283529160200191610f81565b820191906000526020600020905b815481529060010190602001808311610f6457829003601f168201915b50505050509050919050565b6000805160206157c5833981519152610fa5816126c5565b83610faf81611b2e565b610fcb5760405162461bcd60e51b8152600401610c5f9061506b565b60008581526101fe60205260408120549081900361101457506101f780546001019081905560008681526101fe602090815260408083208490558383526101fd90915290208690555b866001600160a01b031686827f1fe9ade752d24e4f4dca10f5c807a7cc8630c7604280c8b124097d93b5bb02a18860405161105191815260200190565b60405180910390a4610eba878287876126e2565b848484600080516020615805833981519152838383604051611089939291906150af565b60405180910390a160006111a06000805160206157a583398151915283356110b46020860186615187565b6040516020016110c59291906151cd565b604051602081830303815290604052805190602001208560400160208101906110ee919061485f565b6110fe608088016060890161485f565b608088013560a08901356101c5600061111d60608d0160408e0161485f565b6001600160a01b03908116825260208083019390935260409182016000205482519384019a909a529082019790975260608101959095529285166080850152931660a083015260c082019290925260e081019190915263ffffffff90911661010082015261012001604051602081830303815290604052805190602001206127ec565b90506111f48185858080601f0160208091040260200160405190810160405280939291908181526020018383808284376000920191909152506111ed92505050606086016040870161485f565b8535612819565b506101c5600061120a606085016040860161485f565b6001600160a01b0316815260208101919091526040016000908120805463ffffffff1691611237836151f3565b91906101000a81548163ffffffff021916908363ffffffff16021790555050866080013587604001602081019061126e919061485f565b6001600160a01b03167f782105afe5542acae5ab54dc3dab8b54887fd38a79f55330b3e1e70c3063d67b8960a0013589896040516112ae93929190615216565b60405180910390a36112d86112c96060890160408a0161485f565b88608001358960a001356128db565b505050505050505050565b60009081526097602052604090206001015490565b60008761130481611b2e565b6113205760405162461bcd60e51b8152600401610c5f9061506b565b6001600160a01b03871633036113465761133f338a8a89898989612a5d565b9150611378565b6001600160a01b03871661135957600080fd5b61136633888b8b87612acb565b611375878a8a89898989612a5d565b91505b50979650505050505050565b6001600160a01b0385163314806113a057506113a08533610af8565b6113bc5760405162461bcd60e51b8152600401610c5f90615241565b6113c98585858585612bea565b5050505050565b6113d9826112e3565b6113e2816126c5565b6113ec838361261a565b505050565b6001600160a01b03811633146114615760405162461bcd60e51b815260206004820152602f60248201527f416363657373436f6e74726f6c3a2063616e206f6e6c792072656e6f756e636560448201526e103937b632b9903337b91039b2b63360891b6064820152608401610c5f565b610ef58282612dd0565b6001600160a01b037f00000000000000000000000000000000000000000000000000000000000000001630036114b35760405162461bcd60e51b8152600401610c5f9061528f565b7f00000000000000000000000000000000000000000000000000000000000000006001600160a01b03166114e5612e37565b6001600160a01b03161461150b5760405162461bcd60e51b8152600401610c5f906152c9565b61151481612e53565b6040805160008082526020820190925261153091839190612e6b565b50565b6000805160206158c583398151915261154b816126c5565b611530612fd6565b60008051602061596c83398151915261156b816126c5565b8661157581611b2e565b6115915760405162461bcd60e51b8152600401610c5f9061506b565b858710156115c55760405162461bcd60e51b81526020600482015260016024820152601b60f91b6044820152606401610c5f565b60008881526101fe60205260408120549081900361160f57861561160f5760405162461bcd60e51b81526020600482015260016024820152603960f81b6044820152606401610c5f565b887fe19de0f3da1193000100a217838f49f6bdda20dc974d33b61f92faaf446d181d8989898989604051611647959493929190615303565b60405180910390a2600061165b888a61532e565b1115611685576116858a8a6116708a8c61532e565b604051806020016040528060008152506126e2565b60008981526101fc6020526040902060040185905586156116bb576116bb308a89604051806020016040528060008152506126e2565b50505050505050505050565b6060815183511461172c5760405162461bcd60e51b815260206004820152602960248201527f455243313135353a206163636f756e747320616e6420696473206c656e677468604482015268040dad2e6dac2e8c6d60bb1b6064820152608401610c5f565b600083516001600160401b038111156117475761174761425f565b604051908082528060200260200182016040528015611770578160200160208202803683370190505b50905060005b84518110156117e8576117bb85828151811061179457611794615345565b60200260200101518583815181106117ae576117ae615345565b6020026020010151610bf8565b8282815181106117cd576117cd615345565b60209081029190910101526117e18161535b565b9050611776565b509392505050565b6001600160a01b037f00000000000000000000000000000000000000000000000000000000000000001630036118385760405162461bcd60e51b8152600401610c5f9061528f565b7f00000000000000000000000000000000000000000000000000000000000000006001600160a01b031661186a612e37565b6001600160a01b0316146118905760405162461bcd60e51b8152600401610c5f906152c9565b61189982612e53565b610ef582826001612e6b565b6000306001600160a01b037f000000000000000000000000000000000000000000000000000000000000000016146119405760405162461bcd60e51b815260206004820152603860248201527f555550535570677261646561626c653a206d757374206e6f742062652063616c6044820152771b1959081d1a1c9bdd59da0819195b1959d85d1958d85b1b60421b6064820152608401610c5f565b506000805160206158458339815191525b90565b6102006020526000908152604090208054600182015460028301546003840180546001600160a01b0390941694929391929161198f90615037565b80601f01602080910402602001604051908101604052809291908181526020018280546119bb90615037565b8015611a085780601f106119dd57610100808354040283529160200191611a08565b820191906000526020600020905b8154815290600101906020018083116119eb57829003601f168201915b505050505090806004018054611a1d90615037565b80601f0160208091040260200160405190810160405280929190818152602001828054611a4990615037565b8015611a965780601f10611a6b57610100808354040283529160200191611a96565b820191906000526020600020905b815481529060010190602001808311611a7957829003601f168201915b505050505090806005018054611aab90615037565b80601f0160208091040260200160405190810160405280929190818152602001828054611ad790615037565b8015611b245780601f10611af957610100808354040283529160200191611b24565b820191906000526020600020905b815481529060010190602001808311611b0757829003601f168201915b5050505050905086565b60008181526101fc602052604081208054829190611b4b90615037565b9050119050919050565b6101fc60205260009081526040902080548190611b7190615037565b80601f0160208091040260200160405190810160405280929190818152602001828054611b9d90615037565b8015611bea5780601f10611bbf57610100808354040283529160200191611bea565b820191906000526020600020905b815481529060010190602001808311611bcd57829003601f168201915b5050505050908060010154908060020154908060030154908060040154905085565b6102018054611c1a90615037565b80601f0160208091040260200160405190810160405280929190818152602001828054611c4690615037565b8015611c935780601f10611c6857610100808354040283529160200191611c93565b820191906000526020600020905b815481529060010190602001808311611c7657829003601f168201915b505050505081565b60008051602061594c833981519152611cb3816126c5565b60005b82518110156113ec57611d3f838281518110611cd457611cd4615345565b602002602001015160200151848381518110611cf257611cf2615345565b602002602001015160400151858481518110611d1057611d10615345565b602002602001015160600151868581518110611d2e57611d2e615345565b602002602001015160000151611e58565b80611d498161535b565b915050611cb6565b6000805160206158c5833981519152611d69816126c5565b611530613022565b600060608060008060006060610191546000801b148015611d93575061019254155b611dd75760405162461bcd60e51b81526020600482015260156024820152741152540dcc4c8e88155b9a5b9a5d1a585b1a5e9959605a1b6044820152606401610c5f565b611ddf61305f565b611de76130f2565b60408051600080825260208201909252600f60f81b9b939a50919850469750309650945092509050565b60009182526097602090815260408084206001600160a01b0393909316845291905290205460ff1690565b6101fa8054611c1a90615037565b6102028054611c1a90615037565b60008051602061594c833981519152611e70816126c5565b6000611e846101f780546001019081905590565b6101fb546040516344d9d59b60e01b81529192506001600160a01b0316906344d9d59b90611eb69086906004016144c2565b600060405180830381600087803b158015611ed057600080fd5b505af1158015611ee4573d6000803e3d6000fd5b50505050806101ff84604051611efa9190615374565b90815260408051602092819003830181209390935560a083018152858352818301899052828101889052606083018790526000608084018190528481526101fc835220825180519192611f5292849290910190614189565b5060208201518160010155604082015181600201556060820151816003015560808201518160040155905050807fc5fb6d85b5baef0a615415607787aea341771027b7e4da34da58eaeb661154ea87878787604051611fb49493929190615390565b60405180910390a2505050505050565b600054610100900460ff1615808015611fe45750600054600160ff909116105b806120055750611ff330612552565b158015612005575060005460ff166001145b6120215760405162461bcd60e51b8152600401610c5f90614fe9565b6000805460ff191660011790558015612044576000805461ff0019166101001790555b6101fb80546001600160a01b0319166001600160a01b0388161790558351612074906101fa906020870190614189565b506101f8859055825161208f90610201906020860190614189565b5081516120a490610202906020850190614189565b5080156120d9576000805461ff0019169055604051600181526000805160206158a58339815191529060200160405180910390a15b505050505050565b610ef5338383613102565b600085608001356120fc81611b2e565b6121185760405162461bcd60e51b8152600401610c5f9061506b565b88888860008051602061580583398151915283838360405161213c939291906150af565b60405180910390a160006121676000805160206157a583398151915283356110b46020860186615187565b90506121b48185858080601f0160208091040260200160405190810160405280939291908181526020018383808284376000920191909152506111ed92505050606086016040870161485f565b506101c560006121ca606085016040860161485f565b6001600160a01b0316815260208101919091526040016000908120805463ffffffff16916121f7836151f3565b91906101000a81548163ffffffff021916908363ffffffff160217905550508a6060016020810190612229919061485f565b6001600160a01b031661224260608d0160408e0161485f565b6001600160a01b03160361227d5761227661226360608d0160408e0161485f565b8c608001358d60a001358d8d8d8d612a5d565b95506122eb565b600061228f60808d0160608e0161485f565b6001600160a01b0316036122a257600080fd5b6122d56122b560608d0160408e0161485f565b6122c560808e0160608f0161485f565b8d608001358e60a001358b612acb565b6122e861226360808d0160608e0161485f565b95505b5050505050979650505050505050565b612304826112e3565b61230d816126c5565b6113ec8383612dd0565b60008051602061592c83398151915261232f816126c5565b816004811115612341576123416153b5565b604080516001600160a01b038881168252602082018790528792908a16917fa8b90aeef4d9590cac2ff486fc2b5d9749ed41f9388a7eb159eef94cf5fb65ab910160405180910390a46120d98686868660405180602001604052806000815250612acb565b8383836000805160206158058339815191528383836040516123ca939291906150af565b60405180910390a160006123f56000805160206157a583398151915283356110b46020860186615187565b90506124428185858080601f0160208091040260200160405190810160405280939291908181526020018383808284376000920191909152506111ed92505050606086016040870161485f565b506101c56000612458606085016040860161485f565b6001600160a01b0316815260208101919091526040016000908120805463ffffffff1691612485836151f3565b91906101000a81548163ffffffff021916908363ffffffff160217905550506124da8660400160208101906124ba919061485f565b6124ca6080890160608a0161485f565b88608001358960a0013589612acb565b5050505050505050565b60008051602061592c8339815191526124fc816126c5565b6125078484846128db565b50505050565b6001600160a01b03851633148061252957506125298533610af8565b6125455760405162461bcd60e51b8152600401610c5f90615241565b6113c98585858585612acb565b6001600160a01b03163b151590565b600054610100900460ff166125885760405162461bcd60e51b8152600401610c5f906153cb565b611530816131e2565b600054610100900460ff166125b85760405162461bcd60e51b8152600401610c5f906153cb565b565b600054610100900460ff166125e15760405162461bcd60e51b8152600401610c5f906153cb565b6125b8613212565b600054610100900460ff166126105760405162461bcd60e51b8152600401610c5f906153cb565b610ef58282613245565b6126248282611e11565b610ef55760008281526097602090815260408083206001600160a01b03851684529091529020805460ff1916600117905561265c3390565b6001600160a01b0316816001600160a01b0316837f2f8788117e7eff1d82e926ec794901d17c78024a50270940304540a733656f0d60405160405180910390a45050565b60006001600160e01b03198216630271189760e51b1480610ece5750610ece82613276565b611530813361329b565b8051610ef5906067906020840190614189565b6001600160a01b0384166127425760405162461bcd60e51b815260206004820152602160248201527f455243313135353a206d696e7420746f20746865207a65726f206164647265736044820152607360f81b6064820152608401610c5f565b33600061274e856132f4565b9050600061275b856132f4565b905061276c8360008985858961333f565b60008681526065602090815260408083206001600160a01b038b1684529091528120805487929061279e908490615416565b909155505060408051878152602081018790526001600160a01b03808a169260009291871691600080516020615785833981519152910160405180910390a4610eba83600089898989613468565b6000610ece6127f96135ca565b8360405161190160f01b8152600281019290925260228201526042902090565b600061282585856135d9565b9050826001600160a01b0316816001600160a01b031614801561285057506001600160a01b03811615155b6128905760405162461bcd60e51b8152602060048201526011602482015270496e76616c6964207369676e617475726560781b6044820152606401610c5f565b8142106128d35760405162461bcd60e51b815260206004820152601160248201527014da59db985d1d5c9948195e1c1a5c9959607a1b6044820152606401610c5f565b949350505050565b6001600160a01b03831661293d5760405162461bcd60e51b815260206004820152602360248201527f455243313135353a206275726e2066726f6d20746865207a65726f206164647260448201526265737360e81b6064820152608401610c5f565b336000612949846132f4565b90506000612956846132f4565b90506129768387600085856040518060200160405280600081525061333f565b60008581526065602090815260408083206001600160a01b038a168452909152902054848110156129f55760405162461bcd60e51b8152602060048201526024808201527f455243313135353a206275726e20616d6f756e7420657863656564732062616c604482015263616e636560e01b6064820152608401610c5f565b60008681526065602090815260408083206001600160a01b038b81168086529184528285208a8703905582518b81529384018a9052909290881691600080516020615785833981519152910160405180910390a4604080516020810190915260009052610eba565b6000612a6a8888886128db565b612a788888888888886135f5565b905086886001600160a01b03167f1325d882b2ca749c878a4ab3a393f6e51b69026faa05426b6d1ec6776a3f2f3c888486604051612ab89392919061542e565b60405180910390a3979650505050505050565b6001600160a01b038416612af15760405162461bcd60e51b8152600401610c5f90615456565b336000612afd856132f4565b90506000612b0a856132f4565b9050612b1a83898985858961333f565b60008681526065602090815260408083206001600160a01b038c16845290915290205485811015612b5d5760405162461bcd60e51b8152600401610c5f9061549b565b60008781526065602090815260408083206001600160a01b038d8116855292528083208985039055908a16825281208054889290612b9c908490615416565b909155505060408051888152602081018890526001600160a01b03808b16928c82169291881691600080516020615785833981519152910160405180910390a46112d8848a8a8a8a8a613468565b8151835114612c4c5760405162461bcd60e51b815260206004820152602860248201527f455243313135353a2069647320616e6420616d6f756e7473206c656e677468206044820152670dad2e6dac2e8c6d60c31b6064820152608401610c5f565b6001600160a01b038416612c725760405162461bcd60e51b8152600401610c5f90615456565b33612c8181878787878761333f565b60005b8451811015612d6a576000858281518110612ca157612ca1615345565b602002602001015190506000858381518110612cbf57612cbf615345565b60209081029190910181015160008481526065835260408082206001600160a01b038e168352909352919091205490915081811015612d105760405162461bcd60e51b8152600401610c5f9061549b565b60008381526065602090815260408083206001600160a01b038e8116855292528083208585039055908b16825281208054849290612d4f908490615416565b9250508190555050505080612d639061535b565b9050612c84565b50846001600160a01b0316866001600160a01b0316826001600160a01b03167f4a39dc06d4c0dbc64b70af90fd698a233a518aa5d07e595d983b8c0526c8f7fb8787604051612dba9291906154e5565b60405180910390a46120d98187878787876136f4565b612dda8282611e11565b15610ef55760008281526097602090815260408083206001600160a01b0385168085529252808320805460ff1916905551339285917ff6391f5c32d9c69d2a47ea670b442974b53935d1edc7fd64eb21e047a839171b9190a45050565b600080516020615845833981519152546001600160a01b031690565b600080516020615825833981519152610ef5816126c5565b7f4910fdfa16fed3260ed0e7147f7cc6da11a60208b5b9406d12a635614ffd91435460ff1615612e9e576113ec836137b6565b826001600160a01b03166352d1902d6040518163ffffffff1660e01b8152600401602060405180830381865afa925050508015612ef8575060408051601f3d908101601f19168201909252612ef59181019061550a565b60015b612f5b5760405162461bcd60e51b815260206004820152602e60248201527f45524331393637557067726164653a206e657720696d706c656d656e7461746960448201526d6f6e206973206e6f74205555505360901b6064820152608401610c5f565b6000805160206158458339815191528114612fca5760405162461bcd60e51b815260206004820152602960248201527f45524331393637557067726164653a20756e737570706f727465642070726f786044820152681a58589b195555525160ba1b6064820152608401610c5f565b506113ec838383613850565b612fde613875565b60c9805460ff191690557f5db9ee0a495bf2e6ff9c91a7834c1ba4fdd244a5e8aa4e537bd38aeae4b073aa335b6040516130189190614d55565b60405180910390a1565b61302a6138be565b60c9805460ff191660011790557f62e78cea01bee320cd4e420270b5ea74000d11b0c9f74754ebdbfc544b05a25861300b3390565b6060610193805461306f90615037565b80601f016020809104026020016040519081016040528092919081815260200182805461309b90615037565b80156130e85780601f106130bd576101008083540402835291602001916130e8565b820191906000526020600020905b8154815290600101906020018083116130cb57829003601f168201915b5050505050905090565b6060610194805461306f90615037565b816001600160a01b0316836001600160a01b0316036131755760405162461bcd60e51b815260206004820152602960248201527f455243313135353a2073657474696e6720617070726f76616c20737461747573604482015268103337b91039b2b63360b91b6064820152608401610c5f565b6001600160a01b03838116600081815260666020908152604080832094871680845294825291829020805460ff191686151590811790915591519182527f17307eab39ab6107e8899845ad3d59bd9653f200f220920489ca2b5937696c31910160405180910390a3505050565b600054610100900460ff166132095760405162461bcd60e51b8152600401610c5f906153cb565b611530816126cf565b600054610100900460ff166132395760405162461bcd60e51b8152600401610c5f906153cb565b60c9805460ff19169055565b600054610100900460ff1661326c5760405162461bcd60e51b8152600401610c5f906153cb565b610ef58282613904565b60006001600160e01b03198216637965db0b60e01b1480610ece5750610ece82613965565b6132a58282611e11565b610ef5576132b2816139b5565b6132bd8360206139c7565b6040516020016132ce929190615523565b60408051601f198184030181529082905262461bcd60e51b8252610c5f916004016144c2565b6040805160018082528183019092526060916000919060208083019080368337019050509050828160008151811061332e5761332e615345565b602090810291909101015292915050565b6133476138be565b8461336060008051602061586583398151915282611e11565b1561337d5760405162461bcd60e51b8152600401610c5f90615592565b8461339660008051602061586583398151915282611e11565b156133b35760405162461bcd60e51b8152600401610c5f90615592565b60005b85518110156134595761020060008783815181106133d6576133d6615345565b60200260200101518152602001908152602001600020600101546000148061341657506001600160a01b038816158061341657506001600160a01b038716155b6134475760405162461bcd60e51b8152602060048201526002602482015261313160f01b6044820152606401610c5f565b806134518161535b565b9150506133b6565b506124da888888888888613b69565b61347a846001600160a01b0316612552565b156120d95760405163f23a6e6160e01b81526001600160a01b0385169063f23a6e61906134b390899089908890889088906004016155ad565b6020604051808303816000875af19250505080156134ee575060408051601f3d908101601f191682019092526134eb918101906155e7565b60015b61359a576134fa615604565b806308c379a003613533575061350e61561f565b806135195750613535565b8060405162461bcd60e51b8152600401610c5f91906144c2565b505b60405162461bcd60e51b815260206004820152603460248201527f455243313135353a207472616e7366657220746f206e6f6e2d455243313135356044820152732932b1b2b4bb32b91034b6b83632b6b2b73a32b960611b6064820152608401610c5f565b6001600160e01b0319811663f23a6e6160e01b14610eba5760405162461bcd60e51b8152600401610c5f906156a8565b60006135d4613ce2565b905090565b60008060006135e88585613d56565b915091506117e881613d9b565b60008061360a6101f780546001019081905590565b6040805160c0810182526001600160a01b038b8116825260208083018b81528385018d8152606085018c8152608086018c905260a086018b90526000888152610200855296909620855181546001600160a01b0319169516949094178455905160018401555160028301559251805194955091939092613691926003850192910190614189565b50608082015180516136ad916004840191602090910190614189565b5060a082015180516136c9916005840191602090910190614189565b509050506136e988826001604051806020016040528060008152506126e2565b979650505050505050565b613706846001600160a01b0316612552565b156120d95760405163bc197c8160e01b81526001600160a01b0385169063bc197c819061373f90899089908890889088906004016156f0565b6020604051808303816000875af192505050801561377a575060408051601f3d908101601f19168201909252613777918101906155e7565b60015b613786576134fa615604565b6001600160e01b0319811663bc197c8160e01b14610eba5760405162461bcd60e51b8152600401610c5f906156a8565b6137bf81612552565b6138215760405162461bcd60e51b815260206004820152602d60248201527f455243313936373a206e657720696d706c656d656e746174696f6e206973206e60448201526c1bdd08184818dbdb9d1c9858dd609a1b6064820152608401610c5f565b60008051602061584583398151915280546001600160a01b0319166001600160a01b0392909216919091179055565b61385983613ee0565b6000825111806138665750805b156113ec576125078383613f20565b60c95460ff166125b85760405162461bcd60e51b815260206004820152601460248201527314185d5cd8589b194e881b9bdd081c185d5cd95960621b6044820152606401610c5f565b60c95460ff16156125b85760405162461bcd60e51b815260206004820152601060248201526f14185d5cd8589b194e881c185d5cd95960821b6044820152606401610c5f565b600054610100900460ff1661392b5760405162461bcd60e51b8152600401610c5f906153cb565b815161393f90610193906020850190614189565b50805161395490610194906020840190614189565b505060006101918190556101925550565b60006001600160e01b03198216636cdb3d1360e11b148061399657506001600160e01b031982166303a24d0760e21b145b80610ece57506301ffc9a760e01b6001600160e01b0319831614610ece565b6060610ece6001600160a01b03831660145b606060006139d683600261574e565b6139e1906002615416565b6001600160401b038111156139f8576139f861425f565b6040519080825280601f01601f191660200182016040528015613a22576020820181803683370190505b509050600360fc1b81600081518110613a3d57613a3d615345565b60200101906001600160f81b031916908160001a905350600f60fb1b81600181518110613a6c57613a6c615345565b60200101906001600160f81b031916908160001a9053506000613a9084600261574e565b613a9b906001615416565b90505b6001811115613b13576f181899199a1a9b1b9c1cb0b131b232b360811b85600f1660108110613acf57613acf615345565b1a60f81b828281518110613ae557613ae5615345565b60200101906001600160f81b031916908160001a90535060049490941c93613b0c8161576d565b9050613a9e565b508315613b625760405162461bcd60e51b815260206004820181905260248201527f537472696e67733a20686578206c656e67746820696e73756666696369656e746044820152606401610c5f565b9392505050565b6001600160a01b038516613bf05760005b8351811015613bee57828181518110613b9557613b95615345565b602002602001015160fb6000868481518110613bb357613bb3615345565b602002602001015181526020019081526020016000206000828254613bd89190615416565b90915550613be790508161535b565b9050613b7a565b505b6001600160a01b0384166120d95760005b8351811015610eba576000848281518110613c1e57613c1e615345565b602002602001015190506000848381518110613c3c57613c3c615345565b60200260200101519050600060fb600084815260200190815260200160002054905081811015613cbf5760405162461bcd60e51b815260206004820152602860248201527f455243313135353a206275726e20616d6f756e74206578636565647320746f74604482015267616c537570706c7960c01b6064820152608401610c5f565b600092835260fb602052604090922091039055613cdb8161535b565b9050613c01565b60007f8b73c3c69bb8fe3d512ecc4cf759cc79239f7b179b0ffacaa9a75d522b39400f613d0d613f45565b613d15613fa3565b60408051602081019490945283019190915260608201524660808201523060a082015260c00160405160208183030381529060405280519060200120905090565b6000808251604103613d8c5760208301516040840151606085015160001a613d8087828585613fd5565b94509450505050613d94565b506000905060025b9250929050565b6000816004811115613daf57613daf6153b5565b03613db75750565b6001816004811115613dcb57613dcb6153b5565b03613e135760405162461bcd60e51b815260206004820152601860248201527745434453413a20696e76616c6964207369676e617475726560401b6044820152606401610c5f565b6002816004811115613e2757613e276153b5565b03613e745760405162461bcd60e51b815260206004820152601f60248201527f45434453413a20696e76616c6964207369676e6174757265206c656e677468006044820152606401610c5f565b6003816004811115613e8857613e886153b5565b036115305760405162461bcd60e51b815260206004820152602260248201527f45434453413a20696e76616c6964207369676e6174757265202773272076616c604482015261756560f01b6064820152608401610c5f565b613ee9816137b6565b6040516001600160a01b038216907fbc7cd75a20ee27fd9adebab32041f755214dbc6bffa90cc0225b39da2e5c2d3b90600090a250565b6060613b6283836040518060600160405280602781526020016158e56027913961408f565b600080613f5061305f565b805190915015613f67578051602090910120919050565b610191548015613f775792915050565b7fc5d2460186f7233c927e7db2dcc703c0e500b653ca82273b7bfad8045d85a4709250505090565b5090565b600080613fae6130f2565b805190915015613fc5578051602090910120919050565b610192548015613f775792915050565b6000806fa2a8918ca85bafe22016d0b997e4df60600160ff1b038311156140025750600090506003614086565b6040805160008082526020820180845289905260ff881692820192909252606081018690526080810185905260019060a0016020604051602081039080840390855afa158015614056573d6000803e3d6000fd5b5050604051601f1901519150506001600160a01b03811661407f57600060019250925050614086565b9150600090505b94509492505050565b6060600080856001600160a01b0316856040516140ac9190615374565b600060405180830381855af49150503d80600081146140e7576040519150601f19603f3d011682016040523d82523d6000602084013e6140ec565b606091505b50915091506140fd86838387614107565b9695505050505050565b6060831561417457825160000361416d5761412185612552565b61416d5760405162461bcd60e51b815260206004820152601d60248201527f416464726573733a2063616c6c20746f206e6f6e2d636f6e74726163740000006044820152606401610c5f565b50816128d3565b6128d383838151156135195781518083602001fd5b82805461419590615037565b90600052602060002090601f0160209004810192826141b757600085556141fd565b82601f106141d057805160ff19168380011785556141fd565b828001600101855582156141fd579182015b828111156141fd5782518255916020019190600101906141e2565b50613f9f9291505b80821115613f9f5760008155600101614205565b80356001600160a01b038116811461423057600080fd5b919050565b6000806040838503121561424857600080fd5b61425183614219565b946020939093013593505050565b634e487b7160e01b600052604160045260246000fd5b60a081016001600160401b03811182821017156142945761429461425f565b60405250565b601f8201601f191681016001600160401b03811182821017156142bf576142bf61425f565b6040525050565b600082601f8301126142d757600080fd5b81356001600160401b038111156142f0576142f061425f565b604051614307601f8301601f19166020018261429a565b81815284602083860101111561431c57600080fd5b816020850160208301376000918101602001919091529392505050565b60008060008060008060c0878903121561435257600080fd5b61435b87614219565b955061436960208801614219565b94506040870135935060608701356001600160401b038082111561438c57600080fd5b6143988a838b016142c6565b945060808901359150808211156143ae57600080fd5b6143ba8a838b016142c6565b935060a08901359150808211156143d057600080fd5b506143dd89828a016142c6565b9150509295509295509295565b6001600160e01b03198116811461153057600080fd5b60006020828403121561441257600080fd5b8135613b62816143ea565b60006020828403121561442f57600080fd5b81356001600160401b0381111561444557600080fd5b6128d3848285016142c6565b60006020828403121561446357600080fd5b5035919050565b60005b8381101561448557818101518382015260200161446d565b838111156125075750506000910152565b600081518084526144ae81602086016020860161446a565b601f01601f19169290920160200192915050565b602081526000613b626020830184614496565b600080600080608085870312156144eb57600080fd5b6144f485614219565b9350602085013592506040850135915060608501356001600160401b0381111561451d57600080fd5b614529878288016142c6565b91505092959194509250565b60008083601f84011261454757600080fd5b5081356001600160401b0381111561455e57600080fd5b602083019150836020828501011115613d9457600080fd5b600060e0828403121561458857600080fd5b50919050565b6000806000806000608086880312156145a657600080fd5b85356001600160401b03808211156145bd57600080fd5b6145c989838a01614535565b909750955060208801359150808211156145e257600080fd5b6145ee89838a01614576565b9450604088013591508082111561460457600080fd5b61461089838a016142c6565b9350606088013591508082111561462657600080fd5b50614633888289016142c6565b9150509295509295909350565b600080600080600080600060e0888a03121561465b57600080fd5b873596506020880135955061467260408901614219565b945060608801356001600160401b038082111561468e57600080fd5b61469a8b838c016142c6565b955060808a01359150808211156146b057600080fd5b6146bc8b838c016142c6565b945060a08a01359150808211156146d257600080fd5b6146de8b838c016142c6565b935060c08a01359150808211156146f457600080fd5b506147018a828b016142c6565b91505092959891949750929550565b60006001600160401b038211156147295761472961425f565b5060051b60200190565b600082601f83011261474457600080fd5b8135602061475182614710565b60405161475e828261429a565b83815260059390931b850182019282810191508684111561477e57600080fd5b8286015b848110156147995780358352918301918301614782565b509695505050505050565b600080600080600060a086880312156147bc57600080fd5b6147c586614219565b94506147d360208701614219565b935060408601356001600160401b03808211156147ef57600080fd5b6147fb89838a01614733565b9450606088013591508082111561481157600080fd5b61481d89838a01614733565b9350608088013591508082111561462657600080fd5b6000806040838503121561484657600080fd5b8235915061485660208401614219565b90509250929050565b60006020828403121561487157600080fd5b613b6282614219565b600080600080600080600060e0888a03121561489557600080fd5b61489e88614219565b96506020880135955060408801359450606088013593506080880135925060a0880135915060c08801356001600160401b038111156148dc57600080fd5b6147018a828b016142c6565b600080604083850312156148fb57600080fd5b82356001600160401b038082111561491257600080fd5b818501915085601f83011261492657600080fd5b8135602061493382614710565b604051614940828261429a565b83815260059390931b850182019282810191508984111561496057600080fd5b948201945b838610156149855761497686614219565b82529482019490820190614965565b9650508601359250508082111561499b57600080fd5b506149a885828601614733565b9150509250929050565b600081518084526020808501945080840160005b838110156149e2578151875295820195908201906001016149c6565b509495945050505050565b602081526000613b6260208301846149b2565b60008060408385031215614a1357600080fd5b614a1c83614219565b915060208301356001600160401b03811115614a3757600080fd5b6149a8858286016142c6565b6001600160a01b03169052565b60018060a01b038716815285602082015284604082015260c060608201526000614a7d60c0830186614496565b8281036080840152614a8f8186614496565b905082810360a08401526113758185614496565b60a081526000614ab660a0830188614496565b90508560208301528460408301528360608301528260808301529695505050505050565b60006020808385031215614aed57600080fd5b82356001600160401b0380821115614b0457600080fd5b818501915085601f830112614b1857600080fd5b8135614b2381614710565b60408051614b31838261429a565b83815260059390931b8501860192868101925089841115614b5157600080fd5b8686015b84811015614be857803586811115614b6d5760008081fd5b870160a0818d03601f1901811315614b855760008081fd5b8451614b9081614275565b8a83013589811115614ba25760008081fd5b614bb08f8d838701016142c6565b825250828601358b82015260608084013587830152608080850135918301919091529190920135908201528452928701928701614b55565b509998505050505050505050565b60ff60f81b8816815260e060208201526000614c1560e0830189614496565b8281036040840152614c278189614496565b606084018890526001600160a01b038716608085015260a0840186905283810360c08501529050614c5881856149b2565b9a9950505050505050505050565b60008060008060808587031215614c7c57600080fd5b84359350602085013592506040850135915060608501356001600160401b0381111561451d57600080fd5b600080600080600060a08688031215614cbf57600080fd5b614cc886614219565b94506020860135935060408601356001600160401b0380821115614ceb57600080fd5b614cf789838a016142c6565b94506060880135915080821115614d0d57600080fd5b61481d89838a016142c6565b60008060408385031215614d2c57600080fd5b614d3583614219565b915060208301358015158114614d4a57600080fd5b809150509250929050565b6001600160a01b0391909116815260200190565b600080600080600080600060c0888a031215614d8457600080fd5b87356001600160401b0380821115614d9b57600080fd5b614da78b838c01614535565b909950975060208a0135915080821115614dc057600080fd5b614dcc8b838c01614576565b965060408a0135915080821115614de257600080fd5b614dee8b838c016142c6565b955060608a0135915080821115614e0457600080fd5b614e108b838c016142c6565b945060808a0135915080821115614e2657600080fd5b614e328b838c016142c6565b935060a08a01359150808211156146f457600080fd5b600080600080600060a08688031215614e6057600080fd5b614e6986614219565b9450614e7760208701614219565b93506040860135925060608601359150608086013560058110614e9957600080fd5b809150509295509295909350565b60008060008060608587031215614ebd57600080fd5b84356001600160401b0380821115614ed457600080fd5b614ee088838901614535565b90965094506020870135915080821115614ef957600080fd5b614f0588838901614576565b93506040870135915080821115614f1b57600080fd5b50614529878288016142c6565b60008060408385031215614f3b57600080fd5b614f4483614219565b915061485660208401614219565b600080600060608486031215614f6757600080fd5b614f7084614219565b95602085013595506040909401359392505050565b600080600080600060a08688031215614f9d57600080fd5b614fa686614219565b9450614fb460208701614219565b9350604086013592506060860135915060808601356001600160401b03811115614fdd57600080fd5b614633888289016142c6565b6020808252602e908201527f496e697469616c697a61626c653a20636f6e747261637420697320616c72656160408201526d191e481a5b9a5d1a585b1a5e995960921b606082015260800190565b600181811c9082168061504b57607f821691505b60208210810361458857634e487b7160e01b600052602260045260246000fd5b6020808252600190820152603160f81b604082015260600190565b81835281816020850137506000828201602090810191909152601f909101601f19169091010190565b6040815260006150c3604083018587615086565b8281036020840152833581526020840135601e198536030181126150e657600080fd5b840180356001600160401b038111156150fe57600080fd5b80360386131561510d57600080fd5b60e0602084015261512560e084018260208501615086565b91505061513460408601614219565b6151416040840182614a43565b5061514e60608601614219565b61515b6060840182614a43565b506080850135608083015260a085013560a083015260c085013560c08301528092505050949350505050565b6000808335601e1984360301811261519e57600080fd5b8301803591506001600160401b038211156151b857600080fd5b602001915036819003821315613d9457600080fd5b8183823760009101908152919050565b634e487b7160e01b600052601160045260246000fd5b600063ffffffff80831681810361520c5761520c6151dd565b6001019392505050565b83815260606020820152600061522f6060830185614496565b82810360408401526140fd8185614496565b6020808252602e908201527f455243313135353a2063616c6c6572206973206e6f7420746f6b656e206f776e60408201526d195c881bdc88185c1c1c9bdd995960921b606082015260800190565b6020808252602c908201526000805160206157e583398151915260408201526b19195b1959d85d1958d85b1b60a21b606082015260800190565b6020808252602c908201526000805160206157e583398151915260408201526b6163746976652070726f787960a01b606082015260800190565b85815284602082015283604082015282606082015260a0608082015260006136e960a0830184614496565b600082821015615340576153406151dd565b500390565b634e487b7160e01b600052603260045260246000fd5b60006001820161536d5761536d6151dd565b5060010190565b6000825161538681846020870161446a565b9190910192915050565b8481528360208201528260408201526080606082015260006140fd6080830184614496565b634e487b7160e01b600052602160045260246000fd5b6020808252602b908201527f496e697469616c697a61626c653a20636f6e7472616374206973206e6f74206960408201526a6e697469616c697a696e6760a81b606082015260800190565b60008219821115615429576154296151dd565b500190565b83815282602082015260606040820152600061544d6060830184614496565b95945050505050565b60208082526025908201527f455243313135353a207472616e7366657220746f20746865207a65726f206164604082015264647265737360d81b606082015260800190565b6020808252602a908201527f455243313135353a20696e73756666696369656e742062616c616e636520666f60408201526939103a3930b739b332b960b11b606082015260800190565b6040815260006154f860408301856149b2565b828103602084015261544d81856149b2565b60006020828403121561551c57600080fd5b5051919050565b76020b1b1b2b9b9a1b7b73a3937b61d1030b1b1b7bab73a1604d1b81526000835161555581601785016020880161446a565b7001034b99036b4b9b9b4b733903937b6329607d1b601791840191820152835161558681602884016020880161446a565b01602801949350505050565b6020808252600190820152600360fc1b604082015260600190565b6001600160a01b03868116825285166020820152604081018490526060810183905260a0608082018190526000906136e990830184614496565b6000602082840312156155f957600080fd5b8151613b62816143ea565b600060033d11156119515760046000803e5060005160e01c90565b600060443d101561562d5790565b6040516003193d81016004833e81513d6001600160401b03808311602484018310171561565c57505050505090565b82850191508151818111156156745750505050505090565b843d870101602082850101111561568e5750505050505090565b61569d6020828601018761429a565b509095945050505050565b60208082526028908201527f455243313135353a204552433131353552656365697665722072656a656374656040820152676420746f6b656e7360c01b606082015260800190565b6001600160a01b0386811682528516602082015260a06040820181905260009061571c908301866149b2565b828103606084015261572e81866149b2565b905082810360808401526157428185614496565b98975050505050505050565b6000816000190483118215151615615768576157686151dd565b500290565b60008161577c5761577c6151dd565b50600019019056fec3d58168c5ae7397731d063d5bbf3d657854427343f4c083240f7aacaa2d0f6279da588818fa1bb747c46ac45fd0af16861a77c5222cf5ac4538360ca4f77a2cd5bbb2f0fbfc1d5938ca13cabd3156d362f7862fa87504c8d589f5e8f2cbc45346756e6374696f6e206d7573742062652063616c6c6564207468726f75676820bdde33eca765abe07e416fa5225f9a5dbc393366c8bbf45df689e69ee318a934189ab7a9244df0848122154315af71fe140f3db0fe014031783b0946b8c9d2e3360894a13ba1a3210667c828492db98dca3e2076cc3735a920a3ca505d382bbcf48dee1a72497b9e734e498e1b3086c0d2dbcca13f16f15848f974469f906bbf7804d923f43a17d325d77e781528e0793b2edd9890ab45fc64efd7b4b427744c7f26b83ff96e1f2b6a682f133852f6798a09c465da95921460cefb384740249865d7a28e3265b37a6474929f336521b332c1681b933f6cb9f3376673440d862a416464726573733a206c6f772d6c6576656c2064656c65676174652063616c6c206661696c656498db8a220cd0f09badce9f22d0ba7e93edb3d404448cc3560d391ab096ad16e94bbc247fc4736523c8bdd1853fee2acfa817d663f8f4422b13e78ebf99e204a2ddf79b8d2110dbe281cf3bb7762d508cea586c974794c8fc949d41b0db1145130ce23c3e399818cfee81a7ab0880f714e53d7672b08df0fa62f2843416e1ea09a2646970667358221220d61728e1bf96110de0b610347b4bebbf673f0e5ec6cee39cc290693fd6583f7c64736f6c634300080d0033",
  "linkReferences": {},
  "deployedLinkReferences": {}
}