{
  "_format": "hh-sol-artifact-1",
  "contractName": "Project",
  "sourceName": "contracts/Project.sol",
  "abi": [
    {
      "inputs": [],
      "stateMutability": "nonpayable",
      "type": "constructor"
    },
    {
      "anonymous": false,
      "inputs": [
        {
          "indexed": true,
          "internalType": "address",
          "name": "from",
          "type": "address"
        },
        {
          "indexed": true,
          "internalType": "uint256",
          "name": "tokenId",
          "type": "uint256"
        },
        {
          "indexed": false,
          "internalType": "uint256",
          "name": "amount",
          "type": "uint256"
        },
        {
          "indexed": true,
          "internalType": "enum AdminActionReason",
          "name": "reason",
          "type": "uint8"
        }
      ],
      "name": "AdminBurn",
      "type": "event"
    },
    {
      "anonymous": false,
      "inputs": [
        {
          "indexed": false,
          "internalType": "address",
          "name": "previousAdmin",
          "type": "address"
        },
        {
          "indexed": false,
          "internalType": "address",
          "name": "newAdmin",
          "type": "address"
        }
      ],
      "name": "AdminChanged",
      "type": "event"
    },
    {
      "anonymous": false,
      "inputs": [
        {
          "indexed": true,
          "internalType": "address",
          "name": "from",
          "type": "address"
        },
        {
          "indexed": false,
          "internalType": "address",
          "name": "to",
          "type": "address"
        },
        {
          "indexed": true,
          "internalType": "uint256",
          "name": "tokenId",
          "type": "uint256"
        },
        {
          "indexed": false,
          "internalType": "uint256",
          "name": "amount",
          "type": "uint256"
        },
        {
          "indexed": true,
          "internalType": "enum AdminActionReason",
          "name": "reason",
          "type": "uint8"
        }
      ],
      "name": "AdminClawback",
      "type": "event"
    },
    {
      "anonymous": false,
      "inputs": [
        {
          "indexed": true,
          "internalType": "address",
          "name": "account",
          "type": "address"
        },
        {
          "indexed": true,
          "internalType": "address",
          "name": "operator",
          "type": "address"
        },
        {
          "indexed": false,
          "internalType": "bool",
          "name": "approved",
          "type": "bool"
        }
      ],
      "name": "ApprovalForAll",
      "type": "event"
    },
    {
      "anonymous": false,
      "inputs": [
        {
          "indexed": true,
          "internalType": "address",
          "name": "beacon",
          "type": "address"
        }
      ],
      "name": "BeaconUpgraded",
      "type": "event"
    },
    {
      "anonymous": false,
      "inputs": [
        {
          "indexed": true,
          "internalType": "address",
          "name": "account",
          "type": "address"
        },
        {
          "indexed": true,
          "internalType": "uint256",
          "name": "tokenId",
          "type": "uint256"
        },
        {
          "indexed": false,
          "internalType": "uint256",
          "name": "amount",
          "type": "uint256"
        },
        {
          "indexed": false,
          "internalType": "string",
          "name": "reason",
          "type": "string"
        },
        {
          "indexed": false,
          "internalType": "bytes",
          "name": "data",
          "type": "bytes"
        }
      ],
      "name": "CancelledCredits",
      "type": "event"
    },
    {
      "anonymous": false,
      "inputs": [],
      "name": "EIP712DomainChanged",
      "type": "event"
    },
    {
      "anonymous": false,
      "inputs": [
        {
          "indexed": true,
          "internalType": "uint256",
          "name": "exAnteTokenId",
          "type": "uint256"
        },
        {
          "indexed": true,
          "internalType": "uint256",
          "name": "exPostTokenId",
          "type": "uint256"
        },
        {
          "indexed": true,
          "internalType": "address",
          "name": "account",
          "type": "address"
        },
        {
          "indexed": false,
          "internalType": "uint256",
          "name": "amount",
          "type": "uint256"
        }
      ],
      "name": "ExAnteMinted",
      "type": "event"
    },
    {
      "anonymous": false,
      "inputs": [
        {
          "indexed": true,
          "internalType": "uint256",
          "name": "tokenId",
          "type": "uint256"
        },
        {
          "indexed": false,
          "internalType": "uint256",
          "name": "estimatedAmount",
          "type": "uint256"
        },
        {
          "indexed": false,
          "internalType": "uint256",
          "name": "verificationPeriodStart",
          "type": "uint256"
        },
        {
          "indexed": false,
          "internalType": "uint256",
          "name": "verificationPeriodEnd",
          "type": "uint256"
        },
        {
          "indexed": false,
          "internalType": "string",
          "name": "serialization",
          "type": "string"
        }
      ],
      "name": "ExPostCreated",
      "type": "event"
    },
    {
      "anonymous": false,
      "inputs": [
        {
          "indexed": true,
          "internalType": "uint256",
          "name": "tokenId",
          "type": "uint256"
        },
        {
          "indexed": false,
          "internalType": "uint256",
          "name": "amount",
          "type": "uint256"
        },
        {
          "indexed": false,
          "internalType": "uint256",
          "name": "amountToAnteHolders",
          "type": "uint256"
        },
        {
          "indexed": false,
          "internalType": "uint256",
          "name": "verificationPeriodStart",
          "type": "uint256"
        },
        {
          "indexed": false,
          "internalType": "uint256",
          "name": "verificationPeriodEnd",
          "type": "uint256"
        },
        {
          "indexed": false,
          "internalType": "string",
          "name": "monitoringReport",
          "type": "string"
        }
      ],
      "name": "ExPostVerifiedAndMinted",
      "type": "event"
    },
    {
      "anonymous": false,
      "inputs": [
        {
          "indexed": true,
          "internalType": "address",
          "name": "account",
          "type": "address"
        },
        {
          "indexed": true,
          "internalType": "uint256",
          "name": "exPostTokenId",
          "type": "uint256"
        },
        {
          "indexed": false,
          "internalType": "uint256",
          "name": "exPostAmountReceived",
          "type": "uint256"
        },
        {
          "indexed": false,
          "internalType": "uint256",
          "name": "exAnteAmountBurned",
          "type": "uint256"
        }
      ],
      "name": "ExchangeAnteForPost",
      "type": "event"
    },
    {
      "anonymous": false,
      "inputs": [
        {
          "indexed": false,
          "internalType": "uint8",
          "name": "version",
          "type": "uint8"
        }
      ],
      "name": "Initialized",
      "type": "event"
    },
    {
      "anonymous": false,
      "inputs": [
        {
          "indexed": false,
          "internalType": "address",
          "name": "account",
          "type": "address"
        }
      ],
      "name": "Paused",
      "type": "event"
    },
    {
      "anonymous": false,
      "inputs": [
        {
          "indexed": true,
          "internalType": "address",
          "name": "account",
          "type": "address"
        },
        {
          "indexed": true,
          "internalType": "uint256",
          "name": "tokenId",
          "type": "uint256"
        },
        {
          "indexed": false,
          "internalType": "uint256",
          "name": "amount",
          "type": "uint256"
        },
        {
          "indexed": false,
          "internalType": "uint256",
          "name": "nftTokenId",
          "type": "uint256"
        },
        {
          "indexed": false,
          "internalType": "bytes",
          "name": "data",
          "type": "bytes"
        }
      ],
      "name": "RetiredVintage",
      "type": "event"
    },
    {
      "anonymous": false,
      "inputs": [
        {
          "indexed": true,
          "internalType": "bytes32",
          "name": "role",
          "type": "bytes32"
        },
        {
          "indexed": true,
          "internalType": "bytes32",
          "name": "previousAdminRole",
          "type": "bytes32"
        },
        {
          "indexed": true,
          "internalType": "bytes32",
          "name": "newAdminRole",
          "type": "bytes32"
        }
      ],
      "name": "RoleAdminChanged",
      "type": "event"
    },
    {
      "anonymous": false,
      "inputs": [
        {
          "indexed": true,
          "internalType": "bytes32",
          "name": "role",
          "type": "bytes32"
        },
        {
          "indexed": true,
          "internalType": "address",
          "name": "account",
          "type": "address"
        },
        {
          "indexed": true,
          "internalType": "address",
          "name": "sender",
          "type": "address"
        }
      ],
      "name": "RoleGranted",
      "type": "event"
    },
    {
      "anonymous": false,
      "inputs": [
        {
          "indexed": true,
          "internalType": "bytes32",
          "name": "role",
          "type": "bytes32"
        },
        {
          "indexed": true,
          "internalType": "address",
          "name": "account",
          "type": "address"
        },
        {
          "indexed": true,
          "internalType": "address",
          "name": "sender",
          "type": "address"
        }
      ],
      "name": "RoleRevoked",
      "type": "event"
    },
    {
      "anonymous": false,
      "inputs": [
        {
          "indexed": true,
          "internalType": "address",
          "name": "operator",
          "type": "address"
        },
        {
          "indexed": true,
          "internalType": "address",
          "name": "from",
          "type": "address"
        },
        {
          "indexed": true,
          "internalType": "address",
          "name": "to",
          "type": "address"
        },
        {
          "indexed": false,
          "internalType": "uint256[]",
          "name": "ids",
          "type": "uint256[]"
        },
        {
          "indexed": false,
          "internalType": "uint256[]",
          "name": "values",
          "type": "uint256[]"
        }
      ],
      "name": "TransferBatch",
      "type": "event"
    },
    {
      "anonymous": false,
      "inputs": [
        {
          "indexed": false,
          "internalType": "bytes",
          "name": "signature",
          "type": "bytes"
        },
        {
          "components": [
            {
              "internalType": "uint256",
              "name": "deadline",
              "type": "uint256"
            },
            {
              "internalType": "string",
              "name": "description",
              "type": "string"
            },
            {
              "internalType": "address",
              "name": "signer",
              "type": "address"
            },
            {
              "internalType": "address",
              "name": "to",
              "type": "address"
            },
            {
              "internalType": "uint256",
              "name": "tokenId",
              "type": "uint256"
            },
            {
              "internalType": "uint256",
              "name": "amount",
              "type": "uint256"
            },
            {
              "internalType": "uint256",
              "name": "nonce",
              "type": "uint256"
            }
          ],
          "indexed": false,
          "internalType": "struct signatureTransferPayload",
          "name": "payload",
          "type": "tuple"
        }
      ],
      "name": "TransferSignatureValid",
      "type": "event"
    },
    {
      "anonymous": false,
      "inputs": [
        {
          "indexed": true,
          "internalType": "address",
          "name": "operator",
          "type": "address"
        },
        {
          "indexed": true,
          "internalType": "address",
          "name": "from",
          "type": "address"
        },
        {
          "indexed": true,
          "internalType": "address",
          "name": "to",
          "type": "address"
        },
        {
          "indexed": false,
          "internalType": "uint256",
          "name": "id",
          "type": "uint256"
        },
        {
          "indexed": false,
          "internalType": "uint256",
          "name": "value",
          "type": "uint256"
        }
      ],
      "name": "TransferSingle",
      "type": "event"
    },
    {
      "anonymous": false,
      "inputs": [
        {
          "indexed": false,
          "internalType": "string",
          "name": "value",
          "type": "string"
        },
        {
          "indexed": true,
          "internalType": "uint256",
          "name": "id",
          "type": "uint256"
        }
      ],
      "name": "URI",
      "type": "event"
    },
    {
      "anonymous": false,
      "inputs": [
        {
          "indexed": false,
          "internalType": "address",
          "name": "account",
          "type": "address"
        }
      ],
      "name": "Unpaused",
      "type": "event"
    },
    {
      "anonymous": false,
      "inputs": [
        {
          "indexed": true,
          "internalType": "address",
          "name": "implementation",
          "type": "address"
        }
      ],
      "name": "Upgraded",
      "type": "event"
    },
    {
      "anonymous": false,
      "inputs": [
        {
          "indexed": true,
          "internalType": "uint256",
          "name": "tokenId",
          "type": "uint256"
        },
        {
          "indexed": false,
          "internalType": "uint256",
          "name": "newEstimate",
          "type": "uint256"
        },
        {
          "indexed": false,
          "internalType": "uint256",
          "name": "oldEstimate",
          "type": "uint256"
        },
        {
          "indexed": true,
          "internalType": "enum AdminActionReason",
          "name": "reason",
          "type": "uint8"
        }
      ],
      "name": "VintageMitigationEstimateChanged",
      "type": "event"
    },
    {
      "inputs": [],
      "name": "ANTE_MINTER_ROLE",
      "outputs": [
        {
          "internalType": "bytes32",
          "name": "",
          "type": "bytes32"
        }
      ],
      "stateMutability": "view",
      "type": "function"
    },
    {
      "inputs": [],
      "name": "BLACKLISTED",
      "outputs": [
        {
          "internalType": "bytes32",
          "name": "",
          "type": "bytes32"
        }
      ],
      "stateMutability": "view",
      "type": "function"
    },
    {
      "inputs": [],
      "name": "BLACKLISTER_ROLE",
      "outputs": [
        {
          "internalType": "bytes32",
          "name": "",
          "type": "bytes32"
        }
      ],
      "stateMutability": "view",
      "type": "function"
    },
    {
      "inputs": [],
      "name": "BURNER_ROLE",
      "outputs": [
        {
          "internalType": "bytes32",
          "name": "",
          "type": "bytes32"
        }
      ],
      "stateMutability": "view",
      "type": "function"
    },
    {
      "inputs": [],
      "name": "CLAWBACK_ROLE",
      "outputs": [
        {
          "internalType": "bytes32",
          "name": "",
          "type": "bytes32"
        }
      ],
      "stateMutability": "view",
      "type": "function"
    },
    {
      "inputs": [],
      "name": "DEFAULT_ADMIN_ROLE",
      "outputs": [
        {
          "internalType": "bytes32",
          "name": "",
          "type": "bytes32"
        }
      ],
      "stateMutability": "view",
      "type": "function"
    },
    {
      "inputs": [],
      "name": "MINTER_ROLE",
      "outputs": [
        {
          "internalType": "bytes32",
          "name": "",
          "type": "bytes32"
        }
      ],
      "stateMutability": "view",
      "type": "function"
    },
    {
      "inputs": [],
      "name": "PAUSER_ROLE",
      "outputs": [
        {
          "internalType": "bytes32",
          "name": "",
          "type": "bytes32"
        }
      ],
      "stateMutability": "view",
      "type": "function"
    },
    {
      "inputs": [],
      "name": "POST_MINTER_ROLE",
      "outputs": [
        {
          "internalType": "bytes32",
          "name": "",
          "type": "bytes32"
        }
      ],
      "stateMutability": "view",
      "type": "function"
    },
    {
      "inputs": [],
      "name": "UPGRADER_ROLE",
      "outputs": [
        {
          "internalType": "bytes32",
          "name": "",
          "type": "bytes32"
        }
      ],
      "stateMutability": "view",
      "type": "function"
    },
    {
      "inputs": [],
      "name": "URI_SETTER_ROLE",
      "outputs": [
        {
          "internalType": "bytes32",
          "name": "",
          "type": "bytes32"
        }
      ],
      "stateMutability": "view",
      "type": "function"
    },
    {
      "inputs": [],
      "name": "VERIFIER_ROLE",
      "outputs": [
        {
          "internalType": "bytes32",
          "name": "",
          "type": "bytes32"
        }
      ],
      "stateMutability": "view",
      "type": "function"
    },
    {
      "inputs": [
        {
          "internalType": "address",
          "name": "_contractRegistry",
          "type": "address"
        },
        {
          "internalType": "uint256",
          "name": "_projectId",
          "type": "uint256"
        },
        {
          "internalType": "string",
          "name": "_projectName",
          "type": "string"
        },
        {
          "internalType": "string",
          "name": "_projectUri",
          "type": "string"
        },
        {
          "internalType": "string",
          "name": "_methodology",
          "type": "string"
        }
      ],
      "name": "__ProjectStorage_init",
      "outputs": [],
      "stateMutability": "nonpayable",
      "type": "function"
    },
    {
      "inputs": [
        {
          "internalType": "address",
          "name": "from",
          "type": "address"
        },
        {
          "internalType": "address",
          "name": "to",
          "type": "address"
        },
        {
          "internalType": "uint256",
          "name": "tokenId",
          "type": "uint256"
        },
        {
          "internalType": "uint256",
          "name": "amount",
          "type": "uint256"
        },
        {
          "internalType": "enum AdminActionReason",
          "name": "reason",
          "type": "uint8"
        }
      ],
      "name": "adminClawback",
      "outputs": [],
      "stateMutability": "nonpayable",
      "type": "function"
    },
    {
      "inputs": [
        {
          "internalType": "address",
          "name": "account",
          "type": "address"
        },
        {
          "internalType": "uint256",
          "name": "id",
          "type": "uint256"
        }
      ],
      "name": "balanceOf",
      "outputs": [
        {
          "internalType": "uint256",
          "name": "",
          "type": "uint256"
        }
      ],
      "stateMutability": "view",
      "type": "function"
    },
    {
      "inputs": [
        {
          "internalType": "address[]",
          "name": "accounts",
          "type": "address[]"
        },
        {
          "internalType": "uint256[]",
          "name": "ids",
          "type": "uint256[]"
        }
      ],
      "name": "balanceOfBatch",
      "outputs": [
        {
          "internalType": "uint256[]",
          "name": "",
          "type": "uint256[]"
        }
      ],
      "stateMutability": "view",
      "type": "function"
    },
    {
      "inputs": [
        {
          "internalType": "address",
          "name": "account",
          "type": "address"
        },
        {
          "internalType": "uint256",
          "name": "tokenId",
          "type": "uint256"
        },
        {
          "internalType": "uint256",
          "name": "amount",
          "type": "uint256"
        }
      ],
      "name": "burnFromAccount",
      "outputs": [],
      "stateMutability": "nonpayable",
      "type": "function"
    },
    {
      "inputs": [
        {
          "internalType": "bytes",
          "name": "signature",
          "type": "bytes"
        },
        {
          "components": [
            {
              "internalType": "uint256",
              "name": "deadline",
              "type": "uint256"
            },
            {
              "internalType": "string",
              "name": "description",
              "type": "string"
            },
            {
              "internalType": "address",
              "name": "signer",
              "type": "address"
            },
            {
              "internalType": "address",
              "name": "to",
              "type": "address"
            },
            {
              "internalType": "uint256",
              "name": "tokenId",
              "type": "uint256"
            },
            {
              "internalType": "uint256",
              "name": "amount",
              "type": "uint256"
            },
            {
              "internalType": "uint256",
              "name": "nonce",
              "type": "uint256"
            }
          ],
          "internalType": "struct signatureTransferPayload",
          "name": "payload",
          "type": "tuple"
        },
        {
          "internalType": "string",
          "name": "comment",
          "type": "string"
        },
        {
          "internalType": "bytes",
          "name": "data",
          "type": "bytes"
        }
      ],
      "name": "cancelCreditsFromSignature",
      "outputs": [],
      "stateMutability": "nonpayable",
      "type": "function"
    },
    {
      "inputs": [],
      "name": "contractRegistry",
      "outputs": [
        {
          "internalType": "address",
          "name": "",
          "type": "address"
        }
      ],
      "stateMutability": "view",
      "type": "function"
    },
    {
      "inputs": [
        {
          "internalType": "uint256",
          "name": "estAmount",
          "type": "uint256"
        },
        {
          "internalType": "uint256",
          "name": "verificationPeriodStart",
          "type": "uint256"
        },
        {
          "internalType": "uint256",
          "name": "verificationPeriodEnd",
          "type": "uint256"
        },
        {
          "internalType": "string",
          "name": "serialization",
          "type": "string"
        }
      ],
      "name": "createExPostVintage",
      "outputs": [],
      "stateMutability": "nonpayable",
      "type": "function"
    },
    {
      "inputs": [
        {
          "components": [
            {
              "internalType": "string",
              "name": "serialization",
              "type": "string"
            },
            {
              "internalType": "uint256",
              "name": "estMitigations",
              "type": "uint256"
            },
            {
              "internalType": "uint256",
              "name": "verificationPeriodStart",
              "type": "uint256"
            },
            {
              "internalType": "uint256",
              "name": "verificationPeriodEnd",
              "type": "uint256"
            },
            {
              "internalType": "uint256",
              "name": "lastVerificationTimestamp",
              "type": "uint256"
            }
          ],
          "internalType": "struct VintageData[]",
          "name": "vintages",
          "type": "tuple[]"
        }
      ],
      "name": "createExPostVintageBatch",
      "outputs": [],
      "stateMutability": "nonpayable",
      "type": "function"
    },
    {
      "inputs": [],
      "name": "eip712Domain",
      "outputs": [
        {
          "internalType": "bytes1",
          "name": "fields",
          "type": "bytes1"
        },
        {
          "internalType": "string",
          "name": "name",
          "type": "string"
        },
        {
          "internalType": "string",
          "name": "version",
          "type": "string"
        },
        {
          "internalType": "uint256",
          "name": "chainId",
          "type": "uint256"
        },
        {
          "internalType": "address",
          "name": "verifyingContract",
          "type": "address"
        },
        {
          "internalType": "bytes32",
          "name": "salt",
          "type": "bytes32"
        },
        {
          "internalType": "uint256[]",
          "name": "extensions",
          "type": "uint256[]"
        }
      ],
      "stateMutability": "view",
      "type": "function"
    },
    {
      "inputs": [
        {
          "internalType": "uint256",
          "name": "",
          "type": "uint256"
        }
      ],
      "name": "exAnteToExPostTokenId",
      "outputs": [
        {
          "internalType": "uint256",
          "name": "",
          "type": "uint256"
        }
      ],
      "stateMutability": "view",
      "type": "function"
    },
    {
      "inputs": [
        {
          "internalType": "uint256",
          "name": "",
          "type": "uint256"
        }
      ],
      "name": "exPostToExAnteTokenId",
      "outputs": [
        {
          "internalType": "uint256",
          "name": "",
          "type": "uint256"
        }
      ],
      "stateMutability": "view",
      "type": "function"
    },
    {
      "inputs": [
        {
          "internalType": "uint256",
          "name": "",
          "type": "uint256"
        }
      ],
      "name": "exPostVintageMapping",
      "outputs": [
        {
          "internalType": "string",
          "name": "serialization",
          "type": "string"
        },
        {
          "internalType": "uint256",
          "name": "estMitigations",
          "type": "uint256"
        },
        {
          "internalType": "uint256",
          "name": "verificationPeriodStart",
          "type": "uint256"
        },
        {
          "internalType": "uint256",
          "name": "verificationPeriodEnd",
          "type": "uint256"
        },
        {
          "internalType": "uint256",
          "name": "lastVerificationTimestamp",
          "type": "uint256"
        }
      ],
      "stateMutability": "view",
      "type": "function"
    },
    {
      "inputs": [
        {
          "internalType": "uint256",
          "name": "id",
          "type": "uint256"
        }
      ],
      "name": "exists",
      "outputs": [
        {
          "internalType": "bool",
          "name": "",
          "type": "bool"
        }
      ],
      "stateMutability": "view",
      "type": "function"
    },
    {
      "inputs": [
        {
          "internalType": "bytes32",
          "name": "role",
          "type": "bytes32"
        }
      ],
      "name": "getRoleAdmin",
      "outputs": [
        {
          "internalType": "bytes32",
          "name": "",
          "type": "bytes32"
        }
      ],
      "stateMutability": "view",
      "type": "function"
    },
    {
      "inputs": [
        {
          "internalType": "bytes32",
          "name": "role",
          "type": "bytes32"
        },
        {
          "internalType": "address",
          "name": "account",
          "type": "address"
        }
      ],
      "name": "grantRole",
      "outputs": [],
      "stateMutability": "nonpayable",
      "type": "function"
    },
    {
      "inputs": [
        {
          "internalType": "bytes32",
          "name": "role",
          "type": "bytes32"
        },
        {
          "internalType": "address",
          "name": "account",
          "type": "address"
        }
      ],
      "name": "hasRole",
      "outputs": [
        {
          "internalType": "bool",
          "name": "",
          "type": "bool"
        }
      ],
      "stateMutability": "view",
      "type": "function"
    },
    {
      "inputs": [
        {
          "internalType": "address",
          "name": "_contractRegistry",
          "type": "address"
        },
        {
          "internalType": "address",
          "name": "_owner",
          "type": "address"
        },
        {
          "internalType": "uint256",
          "name": "_projectId",
          "type": "uint256"
        },
        {
          "internalType": "string",
          "name": "_projectName",
          "type": "string"
        },
        {
          "internalType": "string",
          "name": "_projectMethodology",
          "type": "string"
        },
        {
          "internalType": "string",
          "name": "_projectUri",
          "type": "string"
        }
      ],
      "name": "initialize",
      "outputs": [],
      "stateMutability": "nonpayable",
      "type": "function"
    },
    {
      "inputs": [
        {
          "internalType": "address",
          "name": "account",
          "type": "address"
        },
        {
          "internalType": "address",
          "name": "operator",
          "type": "address"
        }
      ],
      "name": "isApprovedForAll",
      "outputs": [
        {
          "internalType": "bool",
          "name": "",
          "type": "bool"
        }
      ],
      "stateMutability": "view",
      "type": "function"
    },
    {
      "inputs": [
        {
          "internalType": "uint256",
          "name": "tokenId",
          "type": "uint256"
        }
      ],
      "name": "isExPostToken",
      "outputs": [
        {
          "internalType": "bool",
          "name": "",
          "type": "bool"
        }
      ],
      "stateMutability": "view",
      "type": "function"
    },
    {
      "inputs": [],
      "name": "maxAntePercentage",
      "outputs": [
        {
          "internalType": "uint8",
          "name": "",
          "type": "uint8"
        }
      ],
      "stateMutability": "view",
      "type": "function"
    },
    {
      "inputs": [],
      "name": "methodology",
      "outputs": [
        {
          "internalType": "string",
          "name": "",
          "type": "string"
        }
      ],
      "stateMutability": "view",
      "type": "function"
    },
    {
      "inputs": [
        {
          "internalType": "address",
          "name": "account",
          "type": "address"
        },
        {
          "internalType": "uint256",
          "name": "exPostTokenId",
          "type": "uint256"
        },
        {
          "internalType": "uint256",
          "name": "amount",
          "type": "uint256"
        },
        {
          "internalType": "bytes",
          "name": "data",
          "type": "bytes"
        }
      ],
      "name": "mintExAnte",
      "outputs": [],
      "stateMutability": "nonpayable",
      "type": "function"
    },
    {
      "inputs": [
        {
          "internalType": "address",
          "name": "",
          "type": "address"
        },
        {
          "internalType": "address",
          "name": "",
          "type": "address"
        },
        {
          "internalType": "uint256[]",
          "name": "",
          "type": "uint256[]"
        },
        {
          "internalType": "uint256[]",
          "name": "",
          "type": "uint256[]"
        },
        {
          "internalType": "bytes",
          "name": "",
          "type": "bytes"
        }
      ],
      "name": "onERC1155BatchReceived",
      "outputs": [
        {
          "internalType": "bytes4",
          "name": "",
          "type": "bytes4"
        }
      ],
      "stateMutability": "nonpayable",
      "type": "function"
    },
    {
      "inputs": [
        {
          "internalType": "address",
          "name": "",
          "type": "address"
        },
        {
          "internalType": "address",
          "name": "",
          "type": "address"
        },
        {
          "internalType": "uint256",
          "name": "",
          "type": "uint256"
        },
        {
          "internalType": "uint256",
          "name": "",
          "type": "uint256"
        },
        {
          "internalType": "bytes",
          "name": "",
          "type": "bytes"
        }
      ],
      "name": "onERC1155Received",
      "outputs": [
        {
          "internalType": "bytes4",
          "name": "",
          "type": "bytes4"
        }
      ],
      "stateMutability": "nonpayable",
      "type": "function"
    },
    {
      "inputs": [],
      "name": "pause",
      "outputs": [],
      "stateMutability": "nonpayable",
      "type": "function"
    },
    {
      "inputs": [],
      "name": "paused",
      "outputs": [
        {
          "internalType": "bool",
          "name": "",
          "type": "bool"
        }
      ],
      "stateMutability": "view",
      "type": "function"
    },
    {
      "inputs": [],
      "name": "projectId",
      "outputs": [
        {
          "internalType": "uint256",
          "name": "",
          "type": "uint256"
        }
      ],
      "stateMutability": "view",
      "type": "function"
    },
    {
      "inputs": [],
      "name": "projectName",
      "outputs": [
        {
          "internalType": "string",
          "name": "",
          "type": "string"
        }
      ],
      "stateMutability": "view",
      "type": "function"
    },
    {
      "inputs": [],
      "name": "projectUri",
      "outputs": [
        {
          "internalType": "string",
          "name": "",
          "type": "string"
        }
      ],
      "stateMutability": "view",
      "type": "function"
    },
    {
      "inputs": [],
      "name": "proxiableUUID",
      "outputs": [
        {
          "internalType": "bytes32",
          "name": "",
          "type": "bytes32"
        }
      ],
      "stateMutability": "view",
      "type": "function"
    },
    {
      "inputs": [
        {
          "internalType": "bytes32",
          "name": "role",
          "type": "bytes32"
        },
        {
          "internalType": "address",
          "name": "account",
          "type": "address"
        }
      ],
      "name": "renounceRole",
      "outputs": [],
      "stateMutability": "nonpayable",
      "type": "function"
    },
    {
      "inputs": [
        {
          "internalType": "uint256",
          "name": "tokenId",
          "type": "uint256"
        },
        {
          "internalType": "uint256",
          "name": "amount",
          "type": "uint256"
        },
        {
          "internalType": "address",
          "name": "beneficiary",
          "type": "address"
        },
        {
          "internalType": "string",
          "name": "retireeName",
          "type": "string"
        },
        {
          "internalType": "string",
          "name": "customUri",
          "type": "string"
        },
        {
          "internalType": "string",
          "name": "comment",
          "type": "string"
        },
        {
          "internalType": "bytes",
          "name": "data",
          "type": "bytes"
        }
      ],
      "name": "retire",
      "outputs": [
        {
          "internalType": "uint256",
          "name": "nftTokenId",
          "type": "uint256"
        }
      ],
      "stateMutability": "nonpayable",
      "type": "function"
    },
    {
      "inputs": [
        {
          "internalType": "bytes",
          "name": "signature",
          "type": "bytes"
        },
        {
          "components": [
            {
              "internalType": "uint256",
              "name": "deadline",
              "type": "uint256"
            },
            {
              "internalType": "string",
              "name": "description",
              "type": "string"
            },
            {
              "internalType": "address",
              "name": "signer",
              "type": "address"
            },
            {
              "internalType": "address",
              "name": "to",
              "type": "address"
            },
            {
              "internalType": "uint256",
              "name": "tokenId",
              "type": "uint256"
            },
            {
              "internalType": "uint256",
              "name": "amount",
              "type": "uint256"
            },
            {
              "internalType": "uint256",
              "name": "nonce",
              "type": "uint256"
            }
          ],
          "internalType": "struct signatureTransferPayload",
          "name": "payload",
          "type": "tuple"
        },
        {
          "internalType": "string",
          "name": "retireeName",
          "type": "string"
        },
        {
          "internalType": "string",
          "name": "customUri",
          "type": "string"
        },
        {
          "internalType": "string",
          "name": "comment",
          "type": "string"
        },
        {
          "internalType": "bytes",
          "name": "data",
          "type": "bytes"
        }
      ],
      "name": "retireFromSignature",
      "outputs": [
        {
          "internalType": "uint256",
          "name": "nftTokenId",
          "type": "uint256"
        }
      ],
      "stateMutability": "nonpayable",
      "type": "function"
    },
    {
      "inputs": [
        {
          "internalType": "uint256",
          "name": "",
          "type": "uint256"
        }
      ],
      "name": "retirementMapping",
      "outputs": [
        {
          "internalType": "address",
          "name": "retiree",
          "type": "address"
        },
        {
          "internalType": "uint256",
          "name": "amount",
          "type": "uint256"
        },
        {
          "internalType": "uint256",
          "name": "vintageTokenId",
          "type": "uint256"
        },
        {
          "internalType": "string",
          "name": "retireeName",
          "type": "string"
        },
        {
          "internalType": "string",
          "name": "customUri",
          "type": "string"
        },
        {
          "internalType": "string",
          "name": "comment",
          "type": "string"
        }
      ],
      "stateMutability": "view",
      "type": "function"
    },
    {
      "inputs": [
        {
          "internalType": "bytes32",
          "name": "role",
          "type": "bytes32"
        },
        {
          "internalType": "address",
          "name": "account",
          "type": "address"
        }
      ],
      "name": "revokeRole",
      "outputs": [],
      "stateMutability": "nonpayable",
      "type": "function"
    },
    {
      "inputs": [
        {
          "internalType": "address",
          "name": "from",
          "type": "address"
        },
        {
          "internalType": "address",
          "name": "to",
          "type": "address"
        },
        {
          "internalType": "uint256[]",
          "name": "ids",
          "type": "uint256[]"
        },
        {
          "internalType": "uint256[]",
          "name": "amounts",
          "type": "uint256[]"
        },
        {
          "internalType": "bytes",
          "name": "data",
          "type": "bytes"
        }
      ],
      "name": "safeBatchTransferFrom",
      "outputs": [],
      "stateMutability": "nonpayable",
      "type": "function"
    },
    {
      "inputs": [
        {
          "internalType": "address",
          "name": "from",
          "type": "address"
        },
        {
          "internalType": "address",
          "name": "to",
          "type": "address"
        },
        {
          "internalType": "uint256",
          "name": "id",
          "type": "uint256"
        },
        {
          "internalType": "uint256",
          "name": "amount",
          "type": "uint256"
        },
        {
          "internalType": "bytes",
          "name": "data",
          "type": "bytes"
        }
      ],
      "name": "safeTransferFrom",
      "outputs": [],
      "stateMutability": "nonpayable",
      "type": "function"
    },
    {
      "inputs": [
        {
          "internalType": "string",
          "name": "",
          "type": "string"
        }
      ],
      "name": "serializationToExPostTokenIdMapping",
      "outputs": [
        {
          "internalType": "uint256",
          "name": "",
          "type": "uint256"
        }
      ],
      "stateMutability": "view",
      "type": "function"
    },
    {
      "inputs": [
        {
          "internalType": "address",
          "name": "operator",
          "type": "address"
        },
        {
          "internalType": "bool",
          "name": "approved",
          "type": "bool"
        }
      ],
      "name": "setApprovalForAll",
      "outputs": [],
      "stateMutability": "nonpayable",
      "type": "function"
    },
    {
      "inputs": [
        {
          "internalType": "string",
          "name": "newuri",
          "type": "string"
        }
      ],
      "name": "setURI",
      "outputs": [],
      "stateMutability": "nonpayable",
      "type": "function"
    },
    {
      "inputs": [
        {
          "internalType": "address",
          "name": "",
          "type": "address"
        }
      ],
      "name": "signatureNonces",
      "outputs": [
        {
          "internalType": "uint32",
          "name": "",
          "type": "uint32"
        }
      ],
      "stateMutability": "view",
      "type": "function"
    },
    {
      "inputs": [
        {
          "internalType": "bytes4",
          "name": "interfaceId",
          "type": "bytes4"
        }
      ],
      "name": "supportsInterface",
      "outputs": [
        {
          "internalType": "bool",
          "name": "",
          "type": "bool"
        }
      ],
      "stateMutability": "view",
      "type": "function"
    },
    {
      "inputs": [],
      "name": "testUpgrade",
      "outputs": [
        {
          "internalType": "string",
          "name": "",
          "type": "string"
        }
      ],
      "stateMutability": "pure",
      "type": "function"
    },
    {
      "inputs": [],
      "name": "topTokenId",
      "outputs": [
        {
          "internalType": "uint256",
          "name": "",
          "type": "uint256"
        }
      ],
      "stateMutability": "view",
      "type": "function"
    },
    {
      "inputs": [
        {
          "internalType": "uint256",
          "name": "id",
          "type": "uint256"
        }
      ],
      "name": "totalSupply",
      "outputs": [
        {
          "internalType": "uint256",
          "name": "",
          "type": "uint256"
        }
      ],
      "stateMutability": "view",
      "type": "function"
    },
    {
      "inputs": [
        {
          "internalType": "bytes",
          "name": "signature",
          "type": "bytes"
        },
        {
          "components": [
            {
              "internalType": "uint256",
              "name": "deadline",
              "type": "uint256"
            },
            {
              "internalType": "string",
              "name": "description",
              "type": "string"
            },
            {
              "internalType": "address",
              "name": "signer",
              "type": "address"
            },
            {
              "internalType": "address",
              "name": "to",
              "type": "address"
            },
            {
              "internalType": "uint256",
              "name": "tokenId",
              "type": "uint256"
            },
            {
              "internalType": "uint256",
              "name": "amount",
              "type": "uint256"
            },
            {
              "internalType": "uint256",
              "name": "nonce",
              "type": "uint256"
            }
          ],
          "internalType": "struct signatureTransferPayload",
          "name": "payload",
          "type": "tuple"
        },
        {
          "internalType": "bytes",
          "name": "data",
          "type": "bytes"
        }
      ],
      "name": "transferFromSignature",
      "outputs": [],
      "stateMutability": "payable",
      "type": "function"
    },
    {
      "inputs": [],
      "name": "unpause",
      "outputs": [],
      "stateMutability": "nonpayable",
      "type": "function"
    },
    {
      "inputs": [
        {
          "internalType": "address",
          "name": "newImplementation",
          "type": "address"
        }
      ],
      "name": "upgradeTo",
      "outputs": [],
      "stateMutability": "nonpayable",
      "type": "function"
    },
    {
      "inputs": [
        {
          "internalType": "address",
          "name": "newImplementation",
          "type": "address"
        },
        {
          "internalType": "bytes",
          "name": "data",
          "type": "bytes"
        }
      ],
      "name": "upgradeToAndCall",
      "outputs": [],
      "stateMutability": "payable",
      "type": "function"
    },
    {
      "inputs": [
        {
          "internalType": "uint256",
          "name": "",
          "type": "uint256"
        }
      ],
      "name": "uri",
      "outputs": [
        {
          "internalType": "string",
          "name": "",
          "type": "string"
        }
      ],
      "stateMutability": "view",
      "type": "function"
    },
    {
      "inputs": [
        {
          "internalType": "address",
          "name": "verificationVault",
          "type": "address"
        },
        {
          "internalType": "uint256",
          "name": "tokenId",
          "type": "uint256"
        },
        {
          "internalType": "uint256",
          "name": "amountVerified",
          "type": "uint256"
        },
        {
          "internalType": "uint256",
          "name": "amountToAnteHolders",
          "type": "uint256"
        },
        {
          "internalType": "uint256",
          "name": "verificationPeriodStart",
          "type": "uint256"
        },
        {
          "internalType": "uint256",
          "name": "verificationPeriodEnd",
          "type": "uint256"
        },
        {
          "internalType": "string",
          "name": "monitoringReport",
          "type": "string"
        }
      ],
      "name": "verifyAndMintExPost",
      "outputs": [],
      "stateMutability": "nonpayable",
      "type": "function"
    }
  ],
  "bytecode": "0x60a0604052306080523480156200001557600080fd5b506200002062000026565b620000e7565b600054610100900460ff1615620000935760405162461bcd60e51b815260206004820152602760248201527f496e697469616c697a61626c653a20636f6e747261637420697320696e697469604482015266616c697a696e6760c81b606482015260840160405180910390fd5b60005460ff90811614620000e5576000805460ff191660ff9081179091556040519081527f7f26b83ff96e1f2b6a682f133852f6798a09c465da95921460cefb38474024989060200160405180910390a15b565b608051615aa26200011f600039600081816114cb0152818161150b015281816118a8015281816118e801526119600152615aa26000f3fe6080604052600436106102d25760003560e01c8062fdd58e146102d757806301139ca71461030a57806301ffc9a71461032c57806302fe53051461035c5780630e89341c1461037c57806310c1e7a1146103a957806322088ebf146103c9578063248a9ca3146103e9578063275d4dec14610409578063282c51f3146104295780632ea05e441461045d5780632eb2c2d61461047f5780632f2ff15d1461049f5780633584c384146104bf57806336568abe146104ed5780633659cfe61461050d5780633f4ba83a1461052d5780633fafa1271461054257806341a30d3c146105595780634e1273f4146105795780634f1ef286146105a65780634f558e79146105b957806352d1902d146105e857806354ff0795146105fd5780635c975abb146106365780635e3bbaab1461064e578063610e70121461067057806361eeb0891461069d5780636929a19c146106b45780636f63984d146106e6578063728e68e314610706578063748957de1461073757806379c276051461074c5780637f3457101461076c5780638456cb591461078e57806384b0196e146107a35780638f76c1da146107cb57806391d14854146107f95780639a33e300146108195780639d6aed0b1461082e5780639eeb1d501461085d578063a0e1b17114610872578063a106277114610892578063a217fddf146108b2578063a22cb465146108c7578063aa8b2ea7146108e7578063abf410e514610909578063af93ff7214610937578063bc197c8114610957578063bd85b0391461099c578063d5391393146109c9578063d547741f146109fd578063dbd8483d14610a1d578063deb0420714610a66578063e36408d014610a86578063e63ab1e914610a99578063e7705db614610abb578063e985e9c514610add578063eda3b77b14610b26578063edc0b2e614610b46578063f23a6e6114610b68578063f242432a14610b94578063f515e6f214610bb4578063f72c0d8b14610bd6575b600080fd5b3480156102e357600080fd5b506102f76102f2366004614316565b610bf8565b6040519081526020015b60405180910390f35b34801561031657600080fd5b5061032a61032536600461441a565b610c90565b005b34801561033857600080fd5b5061034c6103473660046144e1565b610ec3565b6040519015158152602001610301565b34801561036857600080fd5b5061032a6103773660046144fe565b610ed4565b34801561038857600080fd5b5061039c610397366004614532565b610ef9565b60405161030191906145a3565b3480156103b557600080fd5b5061032a6103c43660046145b6565b610f8d565b3480156103d557600080fd5b5061032a6103e436600461466f565b6110c6565b3480156103f557600080fd5b506102f7610404366004614532565b611339565b34801561041557600080fd5b506102f7610424366004614721565b61134e565b34801561043557600080fd5b506102f77f3c11d16cbaffd01df69ce1c404f6340ee057498f5f00246190ea54220576a84881565b34801561046957600080fd5b506102f7600080516020615a0d83398151915281565b34801561048b57600080fd5b5061032a61049a366004614885565b6113da565b3480156104ab57600080fd5b5061032a6104ba366004614914565b611426565b3480156104cb57600080fd5b506102f76104da366004614532565b6101fe6020526000908152604090205481565b3480156104f957600080fd5b5061032a610508366004614914565b611447565b34801561051957600080fd5b5061032a610528366004614940565b6114c1565b34801561053957600080fd5b5061032a611589565b34801561054e57600080fd5b506102f76101f85481565b34801561056557600080fd5b5061032a61057436600461495b565b6115a9565b34801561058557600080fd5b506105996105943660046149c9565b611775565b6040516103019190614ace565b61032a6105b4366004614ae1565b61189e565b3480156105c557600080fd5b5061034c6105d4366004614532565b600090815260fb6020526040902054151590565b3480156105f457600080fd5b506102f7611953565b34801561060957600080fd5b506102f76106183660046144fe565b80516020818301810180516101ff8252928201919093012091525481565b34801561064257600080fd5b5060c95460ff1661034c565b34801561065a57600080fd5b506102f7600080516020615a2d83398151915281565b34801561067c57600080fd5b506101f95461068b9060ff1681565b60405160ff9091168152602001610301565b3480156106a957600080fd5b506102f76101f75481565b3480156106c057600080fd5b506106d46106cf366004614532565b611a02565b60405161030196959493929190614b31565b3480156106f257600080fd5b5061034c610701366004614532565b611bdc565b34801561071257600080fd5b50610726610721366004614532565b611c03565b604051610301959493929190614b84565b34801561074357600080fd5b5061039c611cba565b34801561075857600080fd5b5061032a610767366004614bbb565b611d49565b34801561077857600080fd5b506102f760008051602061596683398151915281565b34801561079a57600080fd5b5061032a611dff565b3480156107af57600080fd5b506107b8611e1f565b6040516103019796959493929190614cd7565b3480156107d757600080fd5b506102f76107e6366004614532565b6101fd6020526000908152604090205481565b34801561080557600080fd5b5061034c610814366004614914565b611ebf565b34801561082557600080fd5b5061039c611eea565b34801561083a57600080fd5b506040805180820190915260068152650302e302e31360d41b602082015261039c565b34801561086957600080fd5b5061039c611ef8565b34801561087e57600080fd5b5061032a61088d366004614d47565b611f06565b34801561089e57600080fd5b5061032a6108ad366004614d88565b6120a5565b3480156108be57600080fd5b506102f7600081565b3480156108d357600080fd5b5061032a6108e2366004614dfa565b6121c2565b3480156108f357600080fd5b506102f760008051602061594683398151915281565b34801561091557600080fd5b506101fb5461092a906001600160a01b031681565b6040516103019190614e36565b34801561094357600080fd5b506102f7610952366004614e4a565b6121cd565b34801561096357600080fd5b50610983610972366004614885565b63bc197c8160e01b95945050505050565b6040516001600160e01b03199091168152602001610301565b3480156109a857600080fd5b506102f76109b7366004614532565b600090815260fb602052604090205490565b3480156109d557600080fd5b506102f77f9f2df0fed2c77648de5860a4cc508cd0818c85b8b8a1ab4ceeef8d981c8956a681565b348015610a0957600080fd5b5061032a610a18366004614914565b6123dc565b348015610a2957600080fd5b50610a51610a38366004614940565b6101c56020526000908152604090205463ffffffff1681565b60405163ffffffff9091168152602001610301565b348015610a7257600080fd5b5061032a610a81366004614f29565b6123f8565b61032a610a94366004614f88565b612487565b348015610aa557600080fd5b506102f76000805160206159a683398151915281565b348015610ac757600080fd5b506102f7600080516020615a4d83398151915281565b348015610ae957600080fd5b5061034c610af8366004615009565b6001600160a01b03918216600090815260666020908152604080832093909416825291909152205460ff1690565b348015610b3257600080fd5b5061032a610b41366004615033565b6125c5565b348015610b5257600080fd5b506102f76000805160206158a683398151915281565b348015610b7457600080fd5b50610983610b83366004615066565b63f23a6e6160e01b95945050505050565b348015610ba057600080fd5b5061032a610baf366004615066565b6125ee565b348015610bc057600080fd5b506102f76000805160206159ed83398151915281565b348015610be257600080fd5b506102f760008051602061590683398151915281565b60006001600160a01b038316610c685760405162461bcd60e51b815260206004820152602a60248201527f455243313135353a2061646472657373207a65726f206973206e6f742061207660448201526930b634b21037bbb732b960b11b60648201526084015b60405180910390fd5b5060009081526065602090815260408083206001600160a01b03949094168352929052205490565b600054610100900460ff1615808015610cb05750600054600160ff909116105b80610cd15750610cbf30612633565b158015610cd1575060005460ff166001145b610ced5760405162461bcd60e51b8152600401610c5f906150ca565b6000805460ff191660011790558015610d10576000805461ff0019166101001790555b610d2860405180602001604052806000815250612642565b610d30612672565b610d3861269b565b610d40612672565b610d48612672565b610d966040518060400160405280600f81526020016e436172626f6e20526567697374727960881b81525060405180604001604052806005815260200164302e302e3160d81b8152506126ca565b610da387868685876120a5565b610dae6000876126fb565b610dc6600080516020615966833981519152876126fb565b610dde6000805160206159a6833981519152876126fb565b610df66000805160206158a6833981519152876126fb565b610e0e600080516020615a2d833981519152876126fb565b610e26600080516020615906833981519152876126fb565b610e3e6000805160206159ed833981519152876126fb565b610e56600080516020615a4d833981519152876126fb565b610e6e600080516020615a0d833981519152876126fb565b610e86600080516020615a2d833981519152336126fb565b8015610eba576000805461ff0019169055604051600181526000805160206159868339815191529060200160405180910390a15b50505050505050565b6000610ece82612781565b92915050565b600080516020615966833981519152610eec816127a6565b610ef5826127b0565b5050565b606060678054610f0890615118565b80601f0160208091040260200160405190810160405280929190818152602001828054610f3490615118565b8015610f815780601f10610f5657610100808354040283529160200191610f81565b820191906000526020600020905b815481529060010190602001808311610f6457829003601f168201915b50505050509050919050565b6000805160206158a6833981519152610fa5816127a6565b83610faf81611bdc565b610fcb5760405162461bcd60e51b8152600401610c5f9061514c565b60008581526101fc602052604081206003810154600490910154879111604051806040016040528060018152602001603360f81b815250906110205760405162461bcd60e51b8152600401610c5f91906145a3565b5060008781526101fe60205260408120549081900361106a57506101f780546001019081905560008881526101fe602090815260408083208490558383526101fd90915290208890555b886001600160a01b031688827f1fe9ade752d24e4f4dca10f5c807a7cc8630c7604280c8b124097d93b5bb02a18a6040516110a791815260200190565b60405180910390a46110bb898289896127c3565b505050505050505050565b8484846000805160206158e68339815191528383836040516110ea93929190615190565b60405180910390a1600061120160008051602061588683398151915283356111156020860186615268565b6040516020016111269291906152ae565b6040516020818303038152906040528051906020012085604001602081019061114f9190614940565b61115f6080880160608901614940565b608088013560a08901356101c5600061117e60608d0160408e01614940565b6001600160a01b03908116825260208083019390935260409182016000205482519384019a909a529082019790975260608101959095529285166080850152931660a083015260c082019290925260e081019190915263ffffffff90911661010082015261012001604051602081830303815290604052805190602001206128cd565b90506112558185858080601f01602080910402602001604051908101604052809392919081815260200183838082843760009201919091525061124e925050506060860160408701614940565b85356128fa565b506101c5600061126b6060850160408601614940565b6001600160a01b0316815260208101919091526040016000908120805463ffffffff1691611298836152d4565b91906101000a81548163ffffffff021916908363ffffffff1602179055505086608001358760400160208101906112cf9190614940565b6001600160a01b03167f782105afe5542acae5ab54dc3dab8b54887fd38a79f55330b3e1e70c3063d67b8960a00135898960405161130f939291906152f7565b60405180910390a36110bb61132a6060890160408a01614940565b88608001358960a001356129bc565b60009081526097602052604090206001015490565b60008761135a81611bdc565b6113765760405162461bcd60e51b8152600401610c5f9061514c565b6001600160a01b038716330361139c57611395338a8a89898989612b3e565b91506113ce565b6001600160a01b0387166113af57600080fd5b6113bc33888b8b87612bac565b6113cb878a8a89898989612b3e565b91505b50979650505050505050565b6001600160a01b0385163314806113f657506113f68533610af8565b6114125760405162461bcd60e51b8152600401610c5f90615322565b61141f8585858585612ccb565b5050505050565b61142f82611339565b611438816127a6565b61144283836126fb565b505050565b6001600160a01b03811633146114b75760405162461bcd60e51b815260206004820152602f60248201527f416363657373436f6e74726f6c3a2063616e206f6e6c792072656e6f756e636560448201526e103937b632b9903337b91039b2b63360891b6064820152608401610c5f565b610ef58282612eb1565b6001600160a01b037f00000000000000000000000000000000000000000000000000000000000000001630036115095760405162461bcd60e51b8152600401610c5f90615370565b7f00000000000000000000000000000000000000000000000000000000000000006001600160a01b031661153b612f18565b6001600160a01b0316146115615760405162461bcd60e51b8152600401610c5f906153aa565b61156a81612f34565b6040805160008082526020820190925261158691839190612f4c565b50565b6000805160206159a68339815191526115a1816127a6565b6115866130b7565b600080516020615a4d8339815191526115c1816127a6565b866115cb81611bdc565b6115e75760405162461bcd60e51b8152600401610c5f9061514c565b60008881526101fc6020526040812060038101546004909101548a9111604051806040016040528060018152602001603360f81b8152509061163c5760405162461bcd60e51b8152600401610c5f91906145a3565b50878910156116715760405162461bcd60e51b81526020600482015260016024820152601b60f91b6044820152606401610c5f565b60008a81526101fe6020526040812054908190036116bb5788156116bb5760405162461bcd60e51b81526020600482015260016024820152603960f81b6044820152606401610c5f565b8a7fe19de0f3da1193000100a217838f49f6bdda20dc974d33b61f92faaf446d181d8b8b8b8b8b6040516116f39594939291906153e4565b60405180910390a260006117078a8c61540f565b1115611731576117318c8c61171c8c8e61540f565b604051806020016040528060008152506127c3565b60008b81526101fc60205260409020600401879055881561176757611767308c8b604051806020016040528060008152506127c3565b505050505050505050505050565b606081518351146117da5760405162461bcd60e51b815260206004820152602960248201527f455243313135353a206163636f756e747320616e6420696473206c656e677468604482015268040dad2e6dac2e8c6d60bb1b6064820152608401610c5f565b600083516001600160401b038111156117f5576117f5614340565b60405190808252806020026020018201604052801561181e578160200160208202803683370190505b50905060005b84518110156118965761186985828151811061184257611842615426565b602002602001015185838151811061185c5761185c615426565b6020026020010151610bf8565b82828151811061187b5761187b615426565b602090810291909101015261188f8161543c565b9050611824565b509392505050565b6001600160a01b037f00000000000000000000000000000000000000000000000000000000000000001630036118e65760405162461bcd60e51b8152600401610c5f90615370565b7f00000000000000000000000000000000000000000000000000000000000000006001600160a01b0316611918612f18565b6001600160a01b03161461193e5760405162461bcd60e51b8152600401610c5f906153aa565b61194782612f34565b610ef582826001612f4c565b6000306001600160a01b037f000000000000000000000000000000000000000000000000000000000000000016146119ee5760405162461bcd60e51b815260206004820152603860248201527f555550535570677261646561626c653a206d757374206e6f742062652063616c6044820152771b1959081d1a1c9bdd59da0819195b1959d85d1958d85b1b60421b6064820152608401610c5f565b506000805160206159268339815191525b90565b6102006020526000908152604090208054600182015460028301546003840180546001600160a01b03909416949293919291611a3d90615118565b80601f0160208091040260200160405190810160405280929190818152602001828054611a6990615118565b8015611ab65780601f10611a8b57610100808354040283529160200191611ab6565b820191906000526020600020905b815481529060010190602001808311611a9957829003601f168201915b505050505090806004018054611acb90615118565b80601f0160208091040260200160405190810160405280929190818152602001828054611af790615118565b8015611b445780601f10611b1957610100808354040283529160200191611b44565b820191906000526020600020905b815481529060010190602001808311611b2757829003601f168201915b505050505090806005018054611b5990615118565b80601f0160208091040260200160405190810160405280929190818152602001828054611b8590615118565b8015611bd25780601f10611ba757610100808354040283529160200191611bd2565b820191906000526020600020905b815481529060010190602001808311611bb557829003601f168201915b5050505050905086565b60008181526101fc602052604081208054829190611bf990615118565b9050119050919050565b6101fc60205260009081526040902080548190611c1f90615118565b80601f0160208091040260200160405190810160405280929190818152602001828054611c4b90615118565b8015611c985780601f10611c6d57610100808354040283529160200191611c98565b820191906000526020600020905b815481529060010190602001808311611c7b57829003601f168201915b5050505050908060010154908060020154908060030154908060040154905085565b6102018054611cc890615118565b80601f0160208091040260200160405190810160405280929190818152602001828054611cf490615118565b8015611d415780601f10611d1657610100808354040283529160200191611d41565b820191906000526020600020905b815481529060010190602001808311611d2457829003601f168201915b505050505081565b600080516020615a2d833981519152611d61816127a6565b60005b825181101561144257611ded838281518110611d8257611d82615426565b602002602001015160200151848381518110611da057611da0615426565b602002602001015160400151858481518110611dbe57611dbe615426565b602002602001015160600151868581518110611ddc57611ddc615426565b602002602001015160000151611f06565b80611df78161543c565b915050611d64565b6000805160206159a6833981519152611e17816127a6565b611586613103565b600060608060008060006060610191546000801b148015611e41575061019254155b611e855760405162461bcd60e51b81526020600482015260156024820152741152540dcc4c8e88155b9a5b9a5d1a585b1a5e9959605a1b6044820152606401610c5f565b611e8d613140565b611e956131d3565b60408051600080825260208201909252600f60f81b9b939a50919850469750309650945092509050565b60009182526097602090815260408084206001600160a01b0393909316845291905290205460ff1690565b6101fa8054611cc890615118565b6102028054611cc890615118565b600080516020615a2d833981519152611f1e816127a6565b838311611f515760405162461bcd60e51b81526020600482015260016024820152600d60fa1b6044820152606401610c5f565b6000611f656101f780546001019081905590565b6101fb546040516344d9d59b60e01b81529192506001600160a01b0316906344d9d59b90611f979086906004016145a3565b600060405180830381600087803b158015611fb157600080fd5b505af1158015611fc5573d6000803e3d6000fd5b50505050806101ff84604051611fdb9190615455565b90815260408051602092819003830181209390935560a083018152858352818301899052828101889052606083018790526000608084018190528481526101fc8352208251805191926120339284929091019061426a565b5060208201518160010155604082015181600201556060820151816003015560808201518160040155905050807fc5fb6d85b5baef0a615415607787aea341771027b7e4da34da58eaeb661154ea878787876040516120959493929190615471565b60405180910390a2505050505050565b600054610100900460ff16158080156120c55750600054600160ff909116105b806120e657506120d430612633565b1580156120e6575060005460ff166001145b6121025760405162461bcd60e51b8152600401610c5f906150ca565b6000805460ff191660011790558015612125576000805461ff0019166101001790555b6101fb80546001600160a01b0319166001600160a01b0388161790558351612155906101fa90602087019061426a565b506101f885905582516121709061020190602086019061426a565b5081516121859061020290602085019061426a565b5080156121ba576000805461ff0019169055604051600181526000805160206159868339815191529060200160405180910390a15b505050505050565b610ef53383836131e3565b600085608001356121dd81611bdc565b6121f95760405162461bcd60e51b8152600401610c5f9061514c565b8888886000805160206158e683398151915283838360405161221d93929190615190565b60405180910390a1600061224860008051602061588683398151915283356111156020860186615268565b90506122958185858080601f01602080910402602001604051908101604052809392919081815260200183838082843760009201919091525061124e925050506060860160408701614940565b506101c560006122ab6060850160408601614940565b6001600160a01b0316815260208101919091526040016000908120805463ffffffff16916122d8836152d4565b91906101000a81548163ffffffff021916908363ffffffff160217905550508a606001602081019061230a9190614940565b6001600160a01b031661232360608d0160408e01614940565b6001600160a01b03160361235e5761235761234460608d0160408e01614940565b8c608001358d60a001358d8d8d8d612b3e565b95506123cc565b600061237060808d0160608e01614940565b6001600160a01b03160361238357600080fd5b6123b661239660608d0160408e01614940565b6123a660808e0160608f01614940565b8d608001358e60a001358b612bac565b6123c961234460808d0160608e01614940565b95505b5050505050979650505050505050565b6123e582611339565b6123ee816127a6565b6114428383612eb1565b600080516020615a0d833981519152612410816127a6565b81600481111561242257612422615496565b604080516001600160a01b038881168252602082018790528792908a16917fa8b90aeef4d9590cac2ff486fc2b5d9749ed41f9388a7eb159eef94cf5fb65ab910160405180910390a46121ba8686868660405180602001604052806000815250612bac565b8383836000805160206158e68339815191528383836040516124ab93929190615190565b60405180910390a160006124d660008051602061588683398151915283356111156020860186615268565b90506125238185858080601f01602080910402602001604051908101604052809392919081815260200183838082843760009201919091525061124e925050506060860160408701614940565b506101c560006125396060850160408601614940565b6001600160a01b0316815260208101919091526040016000908120805463ffffffff1691612566836152d4565b91906101000a81548163ffffffff021916908363ffffffff160217905550506125bb86604001602081019061259b9190614940565b6125ab6080890160608a01614940565b88608001358960a0013589612bac565b5050505050505050565b600080516020615a0d8339815191526125dd816127a6565b6125e88484846129bc565b50505050565b6001600160a01b03851633148061260a575061260a8533610af8565b6126265760405162461bcd60e51b8152600401610c5f90615322565b61141f8585858585612bac565b6001600160a01b03163b151590565b600054610100900460ff166126695760405162461bcd60e51b8152600401610c5f906154ac565b611586816132c3565b600054610100900460ff166126995760405162461bcd60e51b8152600401610c5f906154ac565b565b600054610100900460ff166126c25760405162461bcd60e51b8152600401610c5f906154ac565b6126996132f3565b600054610100900460ff166126f15760405162461bcd60e51b8152600401610c5f906154ac565b610ef58282613326565b6127058282611ebf565b610ef55760008281526097602090815260408083206001600160a01b03851684529091529020805460ff1916600117905561273d3390565b6001600160a01b0316816001600160a01b0316837f2f8788117e7eff1d82e926ec794901d17c78024a50270940304540a733656f0d60405160405180910390a45050565b60006001600160e01b03198216630271189760e51b1480610ece5750610ece82613357565b611586813361337c565b8051610ef590606790602084019061426a565b6001600160a01b0384166128235760405162461bcd60e51b815260206004820152602160248201527f455243313135353a206d696e7420746f20746865207a65726f206164647265736044820152607360f81b6064820152608401610c5f565b33600061282f856133d5565b9050600061283c856133d5565b905061284d83600089858589613420565b60008681526065602090815260408083206001600160a01b038b1684529091528120805487929061287f9084906154f7565b909155505060408051878152602081018790526001600160a01b03808a169260009291871691600080516020615866833981519152910160405180910390a4610eba83600089898989613549565b6000610ece6128da6136ab565b8360405161190160f01b8152600281019290925260228201526042902090565b600061290685856136ba565b9050826001600160a01b0316816001600160a01b031614801561293157506001600160a01b03811615155b6129715760405162461bcd60e51b8152602060048201526011602482015270496e76616c6964207369676e617475726560781b6044820152606401610c5f565b8142106129b45760405162461bcd60e51b815260206004820152601160248201527014da59db985d1d5c9948195e1c1a5c9959607a1b6044820152606401610c5f565b949350505050565b6001600160a01b038316612a1e5760405162461bcd60e51b815260206004820152602360248201527f455243313135353a206275726e2066726f6d20746865207a65726f206164647260448201526265737360e81b6064820152608401610c5f565b336000612a2a846133d5565b90506000612a37846133d5565b9050612a5783876000858560405180602001604052806000815250613420565b60008581526065602090815260408083206001600160a01b038a16845290915290205484811015612ad65760405162461bcd60e51b8152602060048201526024808201527f455243313135353a206275726e20616d6f756e7420657863656564732062616c604482015263616e636560e01b6064820152608401610c5f565b60008681526065602090815260408083206001600160a01b038b81168086529184528285208a8703905582518b81529384018a9052909290881691600080516020615866833981519152910160405180910390a4604080516020810190915260009052610eba565b6000612b4b8888886129bc565b612b598888888888886136d6565b905086886001600160a01b03167f1325d882b2ca749c878a4ab3a393f6e51b69026faa05426b6d1ec6776a3f2f3c888486604051612b999392919061550f565b60405180910390a3979650505050505050565b6001600160a01b038416612bd25760405162461bcd60e51b8152600401610c5f90615537565b336000612bde856133d5565b90506000612beb856133d5565b9050612bfb838989858589613420565b60008681526065602090815260408083206001600160a01b038c16845290915290205485811015612c3e5760405162461bcd60e51b8152600401610c5f9061557c565b60008781526065602090815260408083206001600160a01b038d8116855292528083208985039055908a16825281208054889290612c7d9084906154f7565b909155505060408051888152602081018890526001600160a01b03808b16928c82169291881691600080516020615866833981519152910160405180910390a46110bb848a8a8a8a8a613549565b8151835114612d2d5760405162461bcd60e51b815260206004820152602860248201527f455243313135353a2069647320616e6420616d6f756e7473206c656e677468206044820152670dad2e6dac2e8c6d60c31b6064820152608401610c5f565b6001600160a01b038416612d535760405162461bcd60e51b8152600401610c5f90615537565b33612d62818787878787613420565b60005b8451811015612e4b576000858281518110612d8257612d82615426565b602002602001015190506000858381518110612da057612da0615426565b60209081029190910181015160008481526065835260408082206001600160a01b038e168352909352919091205490915081811015612df15760405162461bcd60e51b8152600401610c5f9061557c565b60008381526065602090815260408083206001600160a01b038e8116855292528083208585039055908b16825281208054849290612e309084906154f7565b9250508190555050505080612e449061543c565b9050612d65565b50846001600160a01b0316866001600160a01b0316826001600160a01b03167f4a39dc06d4c0dbc64b70af90fd698a233a518aa5d07e595d983b8c0526c8f7fb8787604051612e9b9291906155c6565b60405180910390a46121ba8187878787876137d5565b612ebb8282611ebf565b15610ef55760008281526097602090815260408083206001600160a01b0385168085529252808320805460ff1916905551339285917ff6391f5c32d9c69d2a47ea670b442974b53935d1edc7fd64eb21e047a839171b9190a45050565b600080516020615926833981519152546001600160a01b031690565b600080516020615906833981519152610ef5816127a6565b7f4910fdfa16fed3260ed0e7147f7cc6da11a60208b5b9406d12a635614ffd91435460ff1615612f7f5761144283613897565b826001600160a01b03166352d1902d6040518163ffffffff1660e01b8152600401602060405180830381865afa925050508015612fd9575060408051601f3d908101601f19168201909252612fd6918101906155eb565b60015b61303c5760405162461bcd60e51b815260206004820152602e60248201527f45524331393637557067726164653a206e657720696d706c656d656e7461746960448201526d6f6e206973206e6f74205555505360901b6064820152608401610c5f565b60008051602061592683398151915281146130ab5760405162461bcd60e51b815260206004820152602960248201527f45524331393637557067726164653a20756e737570706f727465642070726f786044820152681a58589b195555525160ba1b6064820152608401610c5f565b50611442838383613931565b6130bf613956565b60c9805460ff191690557f5db9ee0a495bf2e6ff9c91a7834c1ba4fdd244a5e8aa4e537bd38aeae4b073aa335b6040516130f99190614e36565b60405180910390a1565b61310b61399f565b60c9805460ff191660011790557f62e78cea01bee320cd4e420270b5ea74000d11b0c9f74754ebdbfc544b05a2586130ec3390565b6060610193805461315090615118565b80601f016020809104026020016040519081016040528092919081815260200182805461317c90615118565b80156131c95780601f1061319e576101008083540402835291602001916131c9565b820191906000526020600020905b8154815290600101906020018083116131ac57829003601f168201915b5050505050905090565b6060610194805461315090615118565b816001600160a01b0316836001600160a01b0316036132565760405162461bcd60e51b815260206004820152602960248201527f455243313135353a2073657474696e6720617070726f76616c20737461747573604482015268103337b91039b2b63360b91b6064820152608401610c5f565b6001600160a01b03838116600081815260666020908152604080832094871680845294825291829020805460ff191686151590811790915591519182527f17307eab39ab6107e8899845ad3d59bd9653f200f220920489ca2b5937696c31910160405180910390a3505050565b600054610100900460ff166132ea5760405162461bcd60e51b8152600401610c5f906154ac565b611586816127b0565b600054610100900460ff1661331a5760405162461bcd60e51b8152600401610c5f906154ac565b60c9805460ff19169055565b600054610100900460ff1661334d5760405162461bcd60e51b8152600401610c5f906154ac565b610ef582826139e5565b60006001600160e01b03198216637965db0b60e01b1480610ece5750610ece82613a46565b6133868282611ebf565b610ef55761339381613a96565b61339e836020613aa8565b6040516020016133af929190615604565b60408051601f198184030181529082905262461bcd60e51b8252610c5f916004016145a3565b6040805160018082528183019092526060916000919060208083019080368337019050509050828160008151811061340f5761340f615426565b602090810291909101015292915050565b61342861399f565b8461344160008051602061594683398151915282611ebf565b1561345e5760405162461bcd60e51b8152600401610c5f90615673565b8461347760008051602061594683398151915282611ebf565b156134945760405162461bcd60e51b8152600401610c5f90615673565b60005b855181101561353a5761020060008783815181106134b7576134b7615426565b6020026020010151815260200190815260200160002060010154600014806134f757506001600160a01b03881615806134f757506001600160a01b038716155b6135285760405162461bcd60e51b8152602060048201526002602482015261313160f01b6044820152606401610c5f565b806135328161543c565b915050613497565b506125bb888888888888613c4a565b61355b846001600160a01b0316612633565b156121ba5760405163f23a6e6160e01b81526001600160a01b0385169063f23a6e6190613594908990899088908890889060040161568e565b6020604051808303816000875af19250505080156135cf575060408051601f3d908101601f191682019092526135cc918101906156c8565b60015b61367b576135db6156e5565b806308c379a00361361457506135ef615700565b806135fa5750613616565b8060405162461bcd60e51b8152600401610c5f91906145a3565b505b60405162461bcd60e51b815260206004820152603460248201527f455243313135353a207472616e7366657220746f206e6f6e2d455243313135356044820152732932b1b2b4bb32b91034b6b83632b6b2b73a32b960611b6064820152608401610c5f565b6001600160e01b0319811663f23a6e6160e01b14610eba5760405162461bcd60e51b8152600401610c5f90615789565b60006136b5613dc3565b905090565b60008060006136c98585613e37565b9150915061189681613e7c565b6000806136eb6101f780546001019081905590565b6040805160c0810182526001600160a01b038b8116825260208083018b81528385018d8152606085018c8152608086018c905260a086018b90526000888152610200855296909620855181546001600160a01b031916951694909417845590516001840155516002830155925180519495509193909261377292600385019291019061426a565b506080820151805161378e91600484019160209091019061426a565b5060a082015180516137aa91600584019160209091019061426a565b509050506137ca88826001604051806020016040528060008152506127c3565b979650505050505050565b6137e7846001600160a01b0316612633565b156121ba5760405163bc197c8160e01b81526001600160a01b0385169063bc197c819061382090899089908890889088906004016157d1565b6020604051808303816000875af192505050801561385b575060408051601f3d908101601f19168201909252613858918101906156c8565b60015b613867576135db6156e5565b6001600160e01b0319811663bc197c8160e01b14610eba5760405162461bcd60e51b8152600401610c5f90615789565b6138a081612633565b6139025760405162461bcd60e51b815260206004820152602d60248201527f455243313936373a206e657720696d706c656d656e746174696f6e206973206e60448201526c1bdd08184818dbdb9d1c9858dd609a1b6064820152608401610c5f565b60008051602061592683398151915280546001600160a01b0319166001600160a01b0392909216919091179055565b61393a83613fc1565b6000825111806139475750805b15611442576125e88383614001565b60c95460ff166126995760405162461bcd60e51b815260206004820152601460248201527314185d5cd8589b194e881b9bdd081c185d5cd95960621b6044820152606401610c5f565b60c95460ff16156126995760405162461bcd60e51b815260206004820152601060248201526f14185d5cd8589b194e881c185d5cd95960821b6044820152606401610c5f565b600054610100900460ff16613a0c5760405162461bcd60e51b8152600401610c5f906154ac565b8151613a209061019390602085019061426a565b508051613a359061019490602084019061426a565b505060006101918190556101925550565b60006001600160e01b03198216636cdb3d1360e11b1480613a7757506001600160e01b031982166303a24d0760e21b145b80610ece57506301ffc9a760e01b6001600160e01b0319831614610ece565b6060610ece6001600160a01b03831660145b60606000613ab783600261582f565b613ac29060026154f7565b6001600160401b03811115613ad957613ad9614340565b6040519080825280601f01601f191660200182016040528015613b03576020820181803683370190505b509050600360fc1b81600081518110613b1e57613b1e615426565b60200101906001600160f81b031916908160001a905350600f60fb1b81600181518110613b4d57613b4d615426565b60200101906001600160f81b031916908160001a9053506000613b7184600261582f565b613b7c9060016154f7565b90505b6001811115613bf4576f181899199a1a9b1b9c1cb0b131b232b360811b85600f1660108110613bb057613bb0615426565b1a60f81b828281518110613bc657613bc6615426565b60200101906001600160f81b031916908160001a90535060049490941c93613bed8161584e565b9050613b7f565b508315613c435760405162461bcd60e51b815260206004820181905260248201527f537472696e67733a20686578206c656e67746820696e73756666696369656e746044820152606401610c5f565b9392505050565b6001600160a01b038516613cd15760005b8351811015613ccf57828181518110613c7657613c76615426565b602002602001015160fb6000868481518110613c9457613c94615426565b602002602001015181526020019081526020016000206000828254613cb991906154f7565b90915550613cc890508161543c565b9050613c5b565b505b6001600160a01b0384166121ba5760005b8351811015610eba576000848281518110613cff57613cff615426565b602002602001015190506000848381518110613d1d57613d1d615426565b60200260200101519050600060fb600084815260200190815260200160002054905081811015613da05760405162461bcd60e51b815260206004820152602860248201527f455243313135353a206275726e20616d6f756e74206578636565647320746f74604482015267616c537570706c7960c01b6064820152608401610c5f565b600092835260fb602052604090922091039055613dbc8161543c565b9050613ce2565b60007f8b73c3c69bb8fe3d512ecc4cf759cc79239f7b179b0ffacaa9a75d522b39400f613dee614026565b613df6614084565b60408051602081019490945283019190915260608201524660808201523060a082015260c00160405160208183030381529060405280519060200120905090565b6000808251604103613e6d5760208301516040840151606085015160001a613e61878285856140b6565b94509450505050613e75565b506000905060025b9250929050565b6000816004811115613e9057613e90615496565b03613e985750565b6001816004811115613eac57613eac615496565b03613ef45760405162461bcd60e51b815260206004820152601860248201527745434453413a20696e76616c6964207369676e617475726560401b6044820152606401610c5f565b6002816004811115613f0857613f08615496565b03613f555760405162461bcd60e51b815260206004820152601f60248201527f45434453413a20696e76616c6964207369676e6174757265206c656e677468006044820152606401610c5f565b6003816004811115613f6957613f69615496565b036115865760405162461bcd60e51b815260206004820152602260248201527f45434453413a20696e76616c6964207369676e6174757265202773272076616c604482015261756560f01b6064820152608401610c5f565b613fca81613897565b6040516001600160a01b038216907fbc7cd75a20ee27fd9adebab32041f755214dbc6bffa90cc0225b39da2e5c2d3b90600090a250565b6060613c4383836040518060600160405280602781526020016159c660279139614170565b600080614031613140565b805190915015614048578051602090910120919050565b6101915480156140585792915050565b7fc5d2460186f7233c927e7db2dcc703c0e500b653ca82273b7bfad8045d85a4709250505090565b5090565b60008061408f6131d3565b8051909150156140a6578051602090910120919050565b6101925480156140585792915050565b6000806fa2a8918ca85bafe22016d0b997e4df60600160ff1b038311156140e35750600090506003614167565b6040805160008082526020820180845289905260ff881692820192909252606081018690526080810185905260019060a0016020604051602081039080840390855afa158015614137573d6000803e3d6000fd5b5050604051601f1901519150506001600160a01b03811661416057600060019250925050614167565b9150600090505b94509492505050565b6060600080856001600160a01b03168560405161418d9190615455565b600060405180830381855af49150503d80600081146141c8576040519150601f19603f3d011682016040523d82523d6000602084013e6141cd565b606091505b50915091506141de868383876141e8565b9695505050505050565b6060831561425557825160000361424e5761420285612633565b61424e5760405162461bcd60e51b815260206004820152601d60248201527f416464726573733a2063616c6c20746f206e6f6e2d636f6e74726163740000006044820152606401610c5f565b50816129b4565b6129b483838151156135fa5781518083602001fd5b82805461427690615118565b90600052602060002090601f01602090048101928261429857600085556142de565b82601f106142b157805160ff19168380011785556142de565b828001600101855582156142de579182015b828111156142de5782518255916020019190600101906142c3565b506140809291505b8082111561408057600081556001016142e6565b80356001600160a01b038116811461431157600080fd5b919050565b6000806040838503121561432957600080fd5b614332836142fa565b946020939093013593505050565b634e487b7160e01b600052604160045260246000fd5b60a081016001600160401b038111828210171561437557614375614340565b60405250565b601f8201601f191681016001600160401b03811182821017156143a0576143a0614340565b6040525050565b600082601f8301126143b857600080fd5b81356001600160401b038111156143d1576143d1614340565b6040516143e8601f8301601f19166020018261437b565b8181528460208386010111156143fd57600080fd5b816020850160208301376000918101602001919091529392505050565b60008060008060008060c0878903121561443357600080fd5b61443c876142fa565b955061444a602088016142fa565b94506040870135935060608701356001600160401b038082111561446d57600080fd5b6144798a838b016143a7565b9450608089013591508082111561448f57600080fd5b61449b8a838b016143a7565b935060a08901359150808211156144b157600080fd5b506144be89828a016143a7565b9150509295509295509295565b6001600160e01b03198116811461158657600080fd5b6000602082840312156144f357600080fd5b8135613c43816144cb565b60006020828403121561451057600080fd5b81356001600160401b0381111561452657600080fd5b6129b4848285016143a7565b60006020828403121561454457600080fd5b5035919050565b60005b8381101561456657818101518382015260200161454e565b838111156125e85750506000910152565b6000815180845261458f81602086016020860161454b565b601f01601f19169290920160200192915050565b602081526000613c436020830184614577565b600080600080608085870312156145cc57600080fd5b6145d5856142fa565b9350602085013592506040850135915060608501356001600160401b038111156145fe57600080fd5b61460a878288016143a7565b91505092959194509250565b60008083601f84011261462857600080fd5b5081356001600160401b0381111561463f57600080fd5b602083019150836020828501011115613e7557600080fd5b600060e0828403121561466957600080fd5b50919050565b60008060008060006080868803121561468757600080fd5b85356001600160401b038082111561469e57600080fd5b6146aa89838a01614616565b909750955060208801359150808211156146c357600080fd5b6146cf89838a01614657565b945060408801359150808211156146e557600080fd5b6146f189838a016143a7565b9350606088013591508082111561470757600080fd5b50614714888289016143a7565b9150509295509295909350565b600080600080600080600060e0888a03121561473c57600080fd5b8735965060208801359550614753604089016142fa565b945060608801356001600160401b038082111561476f57600080fd5b61477b8b838c016143a7565b955060808a013591508082111561479157600080fd5b61479d8b838c016143a7565b945060a08a01359150808211156147b357600080fd5b6147bf8b838c016143a7565b935060c08a01359150808211156147d557600080fd5b506147e28a828b016143a7565b91505092959891949750929550565b60006001600160401b0382111561480a5761480a614340565b5060051b60200190565b600082601f83011261482557600080fd5b81356020614832826147f1565b60405161483f828261437b565b83815260059390931b850182019282810191508684111561485f57600080fd5b8286015b8481101561487a5780358352918301918301614863565b509695505050505050565b600080600080600060a0868803121561489d57600080fd5b6148a6866142fa565b94506148b4602087016142fa565b935060408601356001600160401b03808211156148d057600080fd5b6148dc89838a01614814565b945060608801359150808211156148f257600080fd5b6148fe89838a01614814565b9350608088013591508082111561470757600080fd5b6000806040838503121561492757600080fd5b82359150614937602084016142fa565b90509250929050565b60006020828403121561495257600080fd5b613c43826142fa565b600080600080600080600060e0888a03121561497657600080fd5b61497f886142fa565b96506020880135955060408801359450606088013593506080880135925060a0880135915060c08801356001600160401b038111156149bd57600080fd5b6147e28a828b016143a7565b600080604083850312156149dc57600080fd5b82356001600160401b03808211156149f357600080fd5b818501915085601f830112614a0757600080fd5b81356020614a14826147f1565b604051614a21828261437b565b83815260059390931b8501820192828101915089841115614a4157600080fd5b948201945b83861015614a6657614a57866142fa565b82529482019490820190614a46565b96505086013592505080821115614a7c57600080fd5b50614a8985828601614814565b9150509250929050565b600081518084526020808501945080840160005b83811015614ac357815187529582019590820190600101614aa7565b509495945050505050565b602081526000613c436020830184614a93565b60008060408385031215614af457600080fd5b614afd836142fa565b915060208301356001600160401b03811115614b1857600080fd5b614a89858286016143a7565b6001600160a01b03169052565b60018060a01b038716815285602082015284604082015260c060608201526000614b5e60c0830186614577565b8281036080840152614b708186614577565b905082810360a08401526113cb8185614577565b60a081526000614b9760a0830188614577565b90508560208301528460408301528360608301528260808301529695505050505050565b60006020808385031215614bce57600080fd5b82356001600160401b0380821115614be557600080fd5b818501915085601f830112614bf957600080fd5b8135614c04816147f1565b60408051614c12838261437b565b83815260059390931b8501860192868101925089841115614c3257600080fd5b8686015b84811015614cc957803586811115614c4e5760008081fd5b870160a0818d03601f1901811315614c665760008081fd5b8451614c7181614356565b8a83013589811115614c835760008081fd5b614c918f8d838701016143a7565b825250828601358b82015260608084013587830152608080850135918301919091529190920135908201528452928701928701614c36565b509998505050505050505050565b60ff60f81b8816815260e060208201526000614cf660e0830189614577565b8281036040840152614d088189614577565b606084018890526001600160a01b038716608085015260a0840186905283810360c08501529050614d398185614a93565b9a9950505050505050505050565b60008060008060808587031215614d5d57600080fd5b84359350602085013592506040850135915060608501356001600160401b038111156145fe57600080fd5b600080600080600060a08688031215614da057600080fd5b614da9866142fa565b94506020860135935060408601356001600160401b0380821115614dcc57600080fd5b614dd889838a016143a7565b94506060880135915080821115614dee57600080fd5b6148fe89838a016143a7565b60008060408385031215614e0d57600080fd5b614e16836142fa565b915060208301358015158114614e2b57600080fd5b809150509250929050565b6001600160a01b0391909116815260200190565b600080600080600080600060c0888a031215614e6557600080fd5b87356001600160401b0380821115614e7c57600080fd5b614e888b838c01614616565b909950975060208a0135915080821115614ea157600080fd5b614ead8b838c01614657565b965060408a0135915080821115614ec357600080fd5b614ecf8b838c016143a7565b955060608a0135915080821115614ee557600080fd5b614ef18b838c016143a7565b945060808a0135915080821115614f0757600080fd5b614f138b838c016143a7565b935060a08a01359150808211156147d557600080fd5b600080600080600060a08688031215614f4157600080fd5b614f4a866142fa565b9450614f58602087016142fa565b93506040860135925060608601359150608086013560058110614f7a57600080fd5b809150509295509295909350565b60008060008060608587031215614f9e57600080fd5b84356001600160401b0380821115614fb557600080fd5b614fc188838901614616565b90965094506020870135915080821115614fda57600080fd5b614fe688838901614657565b93506040870135915080821115614ffc57600080fd5b5061460a878288016143a7565b6000806040838503121561501c57600080fd5b615025836142fa565b9150614937602084016142fa565b60008060006060848603121561504857600080fd5b615051846142fa565b95602085013595506040909401359392505050565b600080600080600060a0868803121561507e57600080fd5b615087866142fa565b9450615095602087016142fa565b9350604086013592506060860135915060808601356001600160401b038111156150be57600080fd5b614714888289016143a7565b6020808252602e908201527f496e697469616c697a61626c653a20636f6e747261637420697320616c72656160408201526d191e481a5b9a5d1a585b1a5e995960921b606082015260800190565b600181811c9082168061512c57607f821691505b60208210810361466957634e487b7160e01b600052602260045260246000fd5b6020808252600190820152603160f81b604082015260600190565b81835281816020850137506000828201602090810191909152601f909101601f19169091010190565b6040815260006151a4604083018587615167565b8281036020840152833581526020840135601e198536030181126151c757600080fd5b840180356001600160401b038111156151df57600080fd5b8036038613156151ee57600080fd5b60e0602084015261520660e084018260208501615167565b915050615215604086016142fa565b6152226040840182614b24565b5061522f606086016142fa565b61523c6060840182614b24565b506080850135608083015260a085013560a083015260c085013560c08301528092505050949350505050565b6000808335601e1984360301811261527f57600080fd5b8301803591506001600160401b0382111561529957600080fd5b602001915036819003821315613e7557600080fd5b8183823760009101908152919050565b634e487b7160e01b600052601160045260246000fd5b600063ffffffff8083168181036152ed576152ed6152be565b6001019392505050565b8381526060602082015260006153106060830185614577565b82810360408401526141de8185614577565b6020808252602e908201527f455243313135353a2063616c6c6572206973206e6f7420746f6b656e206f776e60408201526d195c881bdc88185c1c1c9bdd995960921b606082015260800190565b6020808252602c908201526000805160206158c683398151915260408201526b19195b1959d85d1958d85b1b60a21b606082015260800190565b6020808252602c908201526000805160206158c683398151915260408201526b6163746976652070726f787960a01b606082015260800190565b85815284602082015283604082015282606082015260a0608082015260006137ca60a0830184614577565b600082821015615421576154216152be565b500390565b634e487b7160e01b600052603260045260246000fd5b60006001820161544e5761544e6152be565b5060010190565b6000825161546781846020870161454b565b9190910192915050565b8481528360208201528260408201526080606082015260006141de6080830184614577565b634e487b7160e01b600052602160045260246000fd5b6020808252602b908201527f496e697469616c697a61626c653a20636f6e7472616374206973206e6f74206960408201526a6e697469616c697a696e6760a81b606082015260800190565b6000821982111561550a5761550a6152be565b500190565b83815282602082015260606040820152600061552e6060830184614577565b95945050505050565b60208082526025908201527f455243313135353a207472616e7366657220746f20746865207a65726f206164604082015264647265737360d81b606082015260800190565b6020808252602a908201527f455243313135353a20696e73756666696369656e742062616c616e636520666f60408201526939103a3930b739b332b960b11b606082015260800190565b6040815260006155d96040830185614a93565b828103602084015261552e8185614a93565b6000602082840312156155fd57600080fd5b5051919050565b76020b1b1b2b9b9a1b7b73a3937b61d1030b1b1b7bab73a1604d1b81526000835161563681601785016020880161454b565b7001034b99036b4b9b9b4b733903937b6329607d1b601791840191820152835161566781602884016020880161454b565b01602801949350505050565b6020808252600190820152600360fc1b604082015260600190565b6001600160a01b03868116825285166020820152604081018490526060810183905260a0608082018190526000906137ca90830184614577565b6000602082840312156156da57600080fd5b8151613c43816144cb565b600060033d11156119ff5760046000803e5060005160e01c90565b600060443d101561570e5790565b6040516003193d81016004833e81513d6001600160401b03808311602484018310171561573d57505050505090565b82850191508151818111156157555750505050505090565b843d870101602082850101111561576f5750505050505090565b61577e6020828601018761437b565b509095945050505050565b60208082526028908201527f455243313135353a204552433131353552656365697665722072656a656374656040820152676420746f6b656e7360c01b606082015260800190565b6001600160a01b0386811682528516602082015260a0604082018190526000906157fd90830186614a93565b828103606084015261580f8186614a93565b905082810360808401526158238185614577565b98975050505050505050565b6000816000190483118215151615615849576158496152be565b500290565b60008161585d5761585d6152be565b50600019019056fec3d58168c5ae7397731d063d5bbf3d657854427343f4c083240f7aacaa2d0f6279da588818fa1bb747c46ac45fd0af16861a77c5222cf5ac4538360ca4f77a2cd5bbb2f0fbfc1d5938ca13cabd3156d362f7862fa87504c8d589f5e8f2cbc45346756e6374696f6e206d7573742062652063616c6c6564207468726f75676820bdde33eca765abe07e416fa5225f9a5dbc393366c8bbf45df689e69ee318a934189ab7a9244df0848122154315af71fe140f3db0fe014031783b0946b8c9d2e3360894a13ba1a3210667c828492db98dca3e2076cc3735a920a3ca505d382bbcf48dee1a72497b9e734e498e1b3086c0d2dbcca13f16f15848f974469f906bbf7804d923f43a17d325d77e781528e0793b2edd9890ab45fc64efd7b4b427744c7f26b83ff96e1f2b6a682f133852f6798a09c465da95921460cefb384740249865d7a28e3265b37a6474929f336521b332c1681b933f6cb9f3376673440d862a416464726573733a206c6f772d6c6576656c2064656c65676174652063616c6c206661696c656498db8a220cd0f09badce9f22d0ba7e93edb3d404448cc3560d391ab096ad16e94bbc247fc4736523c8bdd1853fee2acfa817d663f8f4422b13e78ebf99e204a2ddf79b8d2110dbe281cf3bb7762d508cea586c974794c8fc949d41b0db1145130ce23c3e399818cfee81a7ab0880f714e53d7672b08df0fa62f2843416e1ea09a2646970667358221220b982eeeeaca38fbe16293f4f57a201889e774fe9dc50e5ca1830adffc0a7d8f664736f6c634300080d0033",
  "linkReferences": {},
  "deployedLinkReferences": {}
}