{
  "_format": "hh-sol-artifact-1",
  "contractName": "Project",
  "sourceName": "contracts/Project.sol",
  "abi": [
    {
      "inputs": [],
      "stateMutability": "nonpayable",
      "type": "constructor"
    },
    {
      "anonymous": false,
      "inputs": [
        {
          "indexed": true,
          "internalType": "address",
          "name": "from",
          "type": "address"
        },
        {
          "indexed": true,
          "internalType": "uint256",
          "name": "tokenId",
          "type": "uint256"
        },
        {
          "indexed": false,
          "internalType": "uint256",
          "name": "amount",
          "type": "uint256"
        },
        {
          "indexed": true,
          "internalType": "enum AdminActionReason",
          "name": "reason",
          "type": "uint8"
        }
      ],
      "name": "AdminBurn",
      "type": "event"
    },
    {
      "anonymous": false,
      "inputs": [
        {
          "indexed": false,
          "internalType": "address",
          "name": "previousAdmin",
          "type": "address"
        },
        {
          "indexed": false,
          "internalType": "address",
          "name": "newAdmin",
          "type": "address"
        }
      ],
      "name": "AdminChanged",
      "type": "event"
    },
    {
      "anonymous": false,
      "inputs": [
        {
          "indexed": true,
          "internalType": "address",
          "name": "from",
          "type": "address"
        },
        {
          "indexed": false,
          "internalType": "address",
          "name": "to",
          "type": "address"
        },
        {
          "indexed": true,
          "internalType": "uint256",
          "name": "tokenId",
          "type": "uint256"
        },
        {
          "indexed": false,
          "internalType": "uint256",
          "name": "amount",
          "type": "uint256"
        },
        {
          "indexed": true,
          "internalType": "enum AdminActionReason",
          "name": "reason",
          "type": "uint8"
        }
      ],
      "name": "AdminClawback",
      "type": "event"
    },
    {
      "anonymous": false,
      "inputs": [
        {
          "indexed": true,
          "internalType": "address",
          "name": "account",
          "type": "address"
        },
        {
          "indexed": true,
          "internalType": "address",
          "name": "operator",
          "type": "address"
        },
        {
          "indexed": false,
          "internalType": "bool",
          "name": "approved",
          "type": "bool"
        }
      ],
      "name": "ApprovalForAll",
      "type": "event"
    },
    {
      "anonymous": false,
      "inputs": [
        {
          "indexed": true,
          "internalType": "address",
          "name": "beacon",
          "type": "address"
        }
      ],
      "name": "BeaconUpgraded",
      "type": "event"
    },
    {
      "anonymous": false,
      "inputs": [
        {
          "indexed": true,
          "internalType": "address",
          "name": "account",
          "type": "address"
        },
        {
          "indexed": true,
          "internalType": "uint256",
          "name": "tokenId",
          "type": "uint256"
        },
        {
          "indexed": false,
          "internalType": "uint256",
          "name": "amount",
          "type": "uint256"
        },
        {
          "indexed": false,
          "internalType": "string",
          "name": "reason",
          "type": "string"
        },
        {
          "indexed": false,
          "internalType": "bytes",
          "name": "data",
          "type": "bytes"
        }
      ],
      "name": "CancelledCredits",
      "type": "event"
    },
    {
      "anonymous": false,
      "inputs": [],
      "name": "EIP712DomainChanged",
      "type": "event"
    },
    {
      "anonymous": false,
      "inputs": [
        {
          "indexed": true,
          "internalType": "uint256",
          "name": "exAnteTokenId",
          "type": "uint256"
        },
        {
          "indexed": true,
          "internalType": "uint256",
          "name": "exPostTokenId",
          "type": "uint256"
        },
        {
          "indexed": true,
          "internalType": "address",
          "name": "account",
          "type": "address"
        },
        {
          "indexed": false,
          "internalType": "uint256",
          "name": "amount",
          "type": "uint256"
        }
      ],
      "name": "ExAnteMinted",
      "type": "event"
    },
    {
      "anonymous": false,
      "inputs": [
        {
          "indexed": true,
          "internalType": "uint256",
          "name": "tokenId",
          "type": "uint256"
        },
        {
          "indexed": false,
          "internalType": "uint256",
          "name": "estimatedAmount",
          "type": "uint256"
        },
        {
          "indexed": false,
          "internalType": "uint256",
          "name": "verificationPeriodStart",
          "type": "uint256"
        },
        {
          "indexed": false,
          "internalType": "uint256",
          "name": "verificationPeriodEnd",
          "type": "uint256"
        },
        {
          "indexed": false,
          "internalType": "string",
          "name": "serialization",
          "type": "string"
        }
      ],
      "name": "ExPostCreated",
      "type": "event"
    },
    {
      "anonymous": false,
      "inputs": [
        {
          "indexed": true,
          "internalType": "uint256",
          "name": "tokenId",
          "type": "uint256"
        },
        {
          "indexed": false,
          "internalType": "uint256",
          "name": "amount",
          "type": "uint256"
        },
        {
          "indexed": false,
          "internalType": "uint256",
          "name": "amountToAnteHolders",
          "type": "uint256"
        },
        {
          "indexed": false,
          "internalType": "uint256",
          "name": "verificationPeriodStart",
          "type": "uint256"
        },
        {
          "indexed": false,
          "internalType": "uint256",
          "name": "verificationPeriodEnd",
          "type": "uint256"
        },
        {
          "indexed": false,
          "internalType": "string",
          "name": "monitoringReport",
          "type": "string"
        }
      ],
      "name": "ExPostVerifiedAndMinted",
      "type": "event"
    },
    {
      "anonymous": false,
      "inputs": [
        {
          "indexed": true,
          "internalType": "address",
          "name": "account",
          "type": "address"
        },
        {
          "indexed": true,
          "internalType": "uint256",
          "name": "exPostTokenId",
          "type": "uint256"
        },
        {
          "indexed": false,
          "internalType": "uint256",
          "name": "exPostAmountReceived",
          "type": "uint256"
        },
        {
          "indexed": false,
          "internalType": "uint256",
          "name": "exAnteAmountBurned",
          "type": "uint256"
        }
      ],
      "name": "ExchangeAnteForPost",
      "type": "event"
    },
    {
      "anonymous": false,
      "inputs": [
        {
          "indexed": false,
          "internalType": "uint8",
          "name": "version",
          "type": "uint8"
        }
      ],
      "name": "Initialized",
      "type": "event"
    },
    {
      "anonymous": false,
      "inputs": [
        {
          "indexed": false,
          "internalType": "address",
          "name": "account",
          "type": "address"
        }
      ],
      "name": "Paused",
      "type": "event"
    },
    {
      "anonymous": false,
      "inputs": [
        {
          "indexed": true,
          "internalType": "address",
          "name": "account",
          "type": "address"
        },
        {
          "indexed": true,
          "internalType": "uint256",
          "name": "tokenId",
          "type": "uint256"
        },
        {
          "indexed": false,
          "internalType": "uint256",
          "name": "amount",
          "type": "uint256"
        },
        {
          "indexed": false,
          "internalType": "uint256",
          "name": "nftTokenId",
          "type": "uint256"
        },
        {
          "indexed": false,
          "internalType": "bytes",
          "name": "data",
          "type": "bytes"
        }
      ],
      "name": "RetiredVintage",
      "type": "event"
    },
    {
      "anonymous": false,
      "inputs": [
        {
          "indexed": true,
          "internalType": "bytes32",
          "name": "role",
          "type": "bytes32"
        },
        {
          "indexed": true,
          "internalType": "bytes32",
          "name": "previousAdminRole",
          "type": "bytes32"
        },
        {
          "indexed": true,
          "internalType": "bytes32",
          "name": "newAdminRole",
          "type": "bytes32"
        }
      ],
      "name": "RoleAdminChanged",
      "type": "event"
    },
    {
      "anonymous": false,
      "inputs": [
        {
          "indexed": true,
          "internalType": "bytes32",
          "name": "role",
          "type": "bytes32"
        },
        {
          "indexed": true,
          "internalType": "address",
          "name": "account",
          "type": "address"
        },
        {
          "indexed": true,
          "internalType": "address",
          "name": "sender",
          "type": "address"
        }
      ],
      "name": "RoleGranted",
      "type": "event"
    },
    {
      "anonymous": false,
      "inputs": [
        {
          "indexed": true,
          "internalType": "bytes32",
          "name": "role",
          "type": "bytes32"
        },
        {
          "indexed": true,
          "internalType": "address",
          "name": "account",
          "type": "address"
        },
        {
          "indexed": true,
          "internalType": "address",
          "name": "sender",
          "type": "address"
        }
      ],
      "name": "RoleRevoked",
      "type": "event"
    },
    {
      "anonymous": false,
      "inputs": [
        {
          "indexed": true,
          "internalType": "address",
          "name": "operator",
          "type": "address"
        },
        {
          "indexed": true,
          "internalType": "address",
          "name": "from",
          "type": "address"
        },
        {
          "indexed": true,
          "internalType": "address",
          "name": "to",
          "type": "address"
        },
        {
          "indexed": false,
          "internalType": "uint256[]",
          "name": "ids",
          "type": "uint256[]"
        },
        {
          "indexed": false,
          "internalType": "uint256[]",
          "name": "values",
          "type": "uint256[]"
        }
      ],
      "name": "TransferBatch",
      "type": "event"
    },
    {
      "anonymous": false,
      "inputs": [
        {
          "indexed": false,
          "internalType": "bytes",
          "name": "signature",
          "type": "bytes"
        },
        {
          "components": [
            {
              "internalType": "uint256",
              "name": "deadline",
              "type": "uint256"
            },
            {
              "internalType": "string",
              "name": "description",
              "type": "string"
            },
            {
              "internalType": "address",
              "name": "signer",
              "type": "address"
            },
            {
              "internalType": "address",
              "name": "to",
              "type": "address"
            },
            {
              "internalType": "uint256",
              "name": "tokenId",
              "type": "uint256"
            },
            {
              "internalType": "uint256",
              "name": "amount",
              "type": "uint256"
            },
            {
              "internalType": "uint256",
              "name": "nonce",
              "type": "uint256"
            }
          ],
          "indexed": false,
          "internalType": "struct signatureTransferPayload",
          "name": "payload",
          "type": "tuple"
        }
      ],
      "name": "TransferSignatureValid",
      "type": "event"
    },
    {
      "anonymous": false,
      "inputs": [
        {
          "indexed": true,
          "internalType": "address",
          "name": "operator",
          "type": "address"
        },
        {
          "indexed": true,
          "internalType": "address",
          "name": "from",
          "type": "address"
        },
        {
          "indexed": true,
          "internalType": "address",
          "name": "to",
          "type": "address"
        },
        {
          "indexed": false,
          "internalType": "uint256",
          "name": "id",
          "type": "uint256"
        },
        {
          "indexed": false,
          "internalType": "uint256",
          "name": "value",
          "type": "uint256"
        }
      ],
      "name": "TransferSingle",
      "type": "event"
    },
    {
      "anonymous": false,
      "inputs": [
        {
          "indexed": false,
          "internalType": "string",
          "name": "value",
          "type": "string"
        },
        {
          "indexed": true,
          "internalType": "uint256",
          "name": "id",
          "type": "uint256"
        }
      ],
      "name": "URI",
      "type": "event"
    },
    {
      "anonymous": false,
      "inputs": [
        {
          "indexed": false,
          "internalType": "address",
          "name": "account",
          "type": "address"
        }
      ],
      "name": "Unpaused",
      "type": "event"
    },
    {
      "anonymous": false,
      "inputs": [
        {
          "indexed": true,
          "internalType": "address",
          "name": "implementation",
          "type": "address"
        }
      ],
      "name": "Upgraded",
      "type": "event"
    },
    {
      "anonymous": false,
      "inputs": [
        {
          "indexed": true,
          "internalType": "uint256",
          "name": "tokenId",
          "type": "uint256"
        },
        {
          "indexed": false,
          "internalType": "uint256",
          "name": "newEstimate",
          "type": "uint256"
        },
        {
          "indexed": false,
          "internalType": "uint256",
          "name": "oldEstimate",
          "type": "uint256"
        },
        {
          "indexed": true,
          "internalType": "enum AdminActionReason",
          "name": "reason",
          "type": "uint8"
        }
      ],
      "name": "VintageMitigationEstimateChanged",
      "type": "event"
    },
    {
      "inputs": [],
      "name": "ANTE_MINTER_ROLE",
      "outputs": [
        {
          "internalType": "bytes32",
          "name": "",
          "type": "bytes32"
        }
      ],
      "stateMutability": "view",
      "type": "function"
    },
    {
      "inputs": [],
      "name": "BLACKLISTED",
      "outputs": [
        {
          "internalType": "bytes32",
          "name": "",
          "type": "bytes32"
        }
      ],
      "stateMutability": "view",
      "type": "function"
    },
    {
      "inputs": [],
      "name": "BLACKLISTER_ROLE",
      "outputs": [
        {
          "internalType": "bytes32",
          "name": "",
          "type": "bytes32"
        }
      ],
      "stateMutability": "view",
      "type": "function"
    },
    {
      "inputs": [],
      "name": "BURNER_ROLE",
      "outputs": [
        {
          "internalType": "bytes32",
          "name": "",
          "type": "bytes32"
        }
      ],
      "stateMutability": "view",
      "type": "function"
    },
    {
      "inputs": [],
      "name": "CLAWBACK_ROLE",
      "outputs": [
        {
          "internalType": "bytes32",
          "name": "",
          "type": "bytes32"
        }
      ],
      "stateMutability": "view",
      "type": "function"
    },
    {
      "inputs": [],
      "name": "DEFAULT_ADMIN_ROLE",
      "outputs": [
        {
          "internalType": "bytes32",
          "name": "",
          "type": "bytes32"
        }
      ],
      "stateMutability": "view",
      "type": "function"
    },
    {
      "inputs": [],
      "name": "MINTER_ROLE",
      "outputs": [
        {
          "internalType": "bytes32",
          "name": "",
          "type": "bytes32"
        }
      ],
      "stateMutability": "view",
      "type": "function"
    },
    {
      "inputs": [],
      "name": "PAUSER_ROLE",
      "outputs": [
        {
          "internalType": "bytes32",
          "name": "",
          "type": "bytes32"
        }
      ],
      "stateMutability": "view",
      "type": "function"
    },
    {
      "inputs": [],
      "name": "POST_MINTER_ROLE",
      "outputs": [
        {
          "internalType": "bytes32",
          "name": "",
          "type": "bytes32"
        }
      ],
      "stateMutability": "view",
      "type": "function"
    },
    {
      "inputs": [],
      "name": "UPGRADER_ROLE",
      "outputs": [
        {
          "internalType": "bytes32",
          "name": "",
          "type": "bytes32"
        }
      ],
      "stateMutability": "view",
      "type": "function"
    },
    {
      "inputs": [],
      "name": "URI_SETTER_ROLE",
      "outputs": [
        {
          "internalType": "bytes32",
          "name": "",
          "type": "bytes32"
        }
      ],
      "stateMutability": "view",
      "type": "function"
    },
    {
      "inputs": [],
      "name": "VERIFIER_ROLE",
      "outputs": [
        {
          "internalType": "bytes32",
          "name": "",
          "type": "bytes32"
        }
      ],
      "stateMutability": "view",
      "type": "function"
    },
    {
      "inputs": [
        {
          "internalType": "address",
          "name": "_contractRegistry",
          "type": "address"
        },
        {
          "internalType": "uint256",
          "name": "_projectId",
          "type": "uint256"
        },
        {
          "internalType": "string",
          "name": "_projectName",
          "type": "string"
        },
        {
          "internalType": "string",
          "name": "_projectUri",
          "type": "string"
        },
        {
          "internalType": "string",
          "name": "_methodology",
          "type": "string"
        }
      ],
      "name": "__ProjectStorage_init",
      "outputs": [],
      "stateMutability": "nonpayable",
      "type": "function"
    },
    {
      "inputs": [
        {
          "internalType": "address",
          "name": "from",
          "type": "address"
        },
        {
          "internalType": "address",
          "name": "to",
          "type": "address"
        },
        {
          "internalType": "uint256",
          "name": "tokenId",
          "type": "uint256"
        },
        {
          "internalType": "uint256",
          "name": "amount",
          "type": "uint256"
        },
        {
          "internalType": "enum AdminActionReason",
          "name": "reason",
          "type": "uint8"
        }
      ],
      "name": "adminClawback",
      "outputs": [],
      "stateMutability": "nonpayable",
      "type": "function"
    },
    {
      "inputs": [
        {
          "internalType": "address",
          "name": "account",
          "type": "address"
        },
        {
          "internalType": "uint256",
          "name": "id",
          "type": "uint256"
        }
      ],
      "name": "balanceOf",
      "outputs": [
        {
          "internalType": "uint256",
          "name": "",
          "type": "uint256"
        }
      ],
      "stateMutability": "view",
      "type": "function"
    },
    {
      "inputs": [
        {
          "internalType": "address[]",
          "name": "accounts",
          "type": "address[]"
        },
        {
          "internalType": "uint256[]",
          "name": "ids",
          "type": "uint256[]"
        }
      ],
      "name": "balanceOfBatch",
      "outputs": [
        {
          "internalType": "uint256[]",
          "name": "",
          "type": "uint256[]"
        }
      ],
      "stateMutability": "view",
      "type": "function"
    },
    {
      "inputs": [
        {
          "internalType": "address",
          "name": "account",
          "type": "address"
        },
        {
          "internalType": "uint256",
          "name": "tokenId",
          "type": "uint256"
        },
        {
          "internalType": "uint256",
          "name": "amount",
          "type": "uint256"
        }
      ],
      "name": "burnFromAccount",
      "outputs": [],
      "stateMutability": "nonpayable",
      "type": "function"
    },
    {
      "inputs": [
        {
          "internalType": "bytes",
          "name": "signature",
          "type": "bytes"
        },
        {
          "components": [
            {
              "internalType": "uint256",
              "name": "deadline",
              "type": "uint256"
            },
            {
              "internalType": "string",
              "name": "description",
              "type": "string"
            },
            {
              "internalType": "address",
              "name": "signer",
              "type": "address"
            },
            {
              "internalType": "address",
              "name": "to",
              "type": "address"
            },
            {
              "internalType": "uint256",
              "name": "tokenId",
              "type": "uint256"
            },
            {
              "internalType": "uint256",
              "name": "amount",
              "type": "uint256"
            },
            {
              "internalType": "uint256",
              "name": "nonce",
              "type": "uint256"
            }
          ],
          "internalType": "struct signatureTransferPayload",
          "name": "payload",
          "type": "tuple"
        },
        {
          "internalType": "string",
          "name": "comment",
          "type": "string"
        },
        {
          "internalType": "bytes",
          "name": "data",
          "type": "bytes"
        }
      ],
      "name": "cancelCreditsFromSignature",
      "outputs": [],
      "stateMutability": "nonpayable",
      "type": "function"
    },
    {
      "inputs": [],
      "name": "contractRegistry",
      "outputs": [
        {
          "internalType": "address",
          "name": "",
          "type": "address"
        }
      ],
      "stateMutability": "view",
      "type": "function"
    },
    {
      "inputs": [
        {
          "internalType": "uint256",
          "name": "estAmount",
          "type": "uint256"
        },
        {
          "internalType": "uint256",
          "name": "verificationPeriodStart",
          "type": "uint256"
        },
        {
          "internalType": "uint256",
          "name": "verificationPeriodEnd",
          "type": "uint256"
        },
        {
          "internalType": "string",
          "name": "serialization",
          "type": "string"
        }
      ],
      "name": "createExPostVintage",
      "outputs": [],
      "stateMutability": "nonpayable",
      "type": "function"
    },
    {
      "inputs": [
        {
          "components": [
            {
              "internalType": "string",
              "name": "serialization",
              "type": "string"
            },
            {
              "internalType": "uint256",
              "name": "estMitigations",
              "type": "uint256"
            },
            {
              "internalType": "uint256",
              "name": "verificationPeriodStart",
              "type": "uint256"
            },
            {
              "internalType": "uint256",
              "name": "verificationPeriodEnd",
              "type": "uint256"
            },
            {
              "internalType": "uint256",
              "name": "lastVerificationTimestamp",
              "type": "uint256"
            }
          ],
          "internalType": "struct VintageData[]",
          "name": "vintages",
          "type": "tuple[]"
        }
      ],
      "name": "createExPostVintageBatch",
      "outputs": [],
      "stateMutability": "nonpayable",
      "type": "function"
    },
    {
      "inputs": [
        {
          "internalType": "address[]",
          "name": "accounts",
          "type": "address[]"
        },
        {
          "internalType": "uint256[]",
          "name": "tokenIds",
          "type": "uint256[]"
        },
        {
          "internalType": "uint256",
          "name": "decimals",
          "type": "uint256"
        },
        {
          "internalType": "bytes",
          "name": "data",
          "type": "bytes"
        }
      ],
      "name": "debaseTCO2",
      "outputs": [],
      "stateMutability": "nonpayable",
      "type": "function"
    },
    {
      "inputs": [],
      "name": "eip712Domain",
      "outputs": [
        {
          "internalType": "bytes1",
          "name": "fields",
          "type": "bytes1"
        },
        {
          "internalType": "string",
          "name": "name",
          "type": "string"
        },
        {
          "internalType": "string",
          "name": "version",
          "type": "string"
        },
        {
          "internalType": "uint256",
          "name": "chainId",
          "type": "uint256"
        },
        {
          "internalType": "address",
          "name": "verifyingContract",
          "type": "address"
        },
        {
          "internalType": "bytes32",
          "name": "salt",
          "type": "bytes32"
        },
        {
          "internalType": "uint256[]",
          "name": "extensions",
          "type": "uint256[]"
        }
      ],
      "stateMutability": "view",
      "type": "function"
    },
    {
      "inputs": [
        {
          "internalType": "uint256",
          "name": "",
          "type": "uint256"
        }
      ],
      "name": "exAnteToExPostTokenId",
      "outputs": [
        {
          "internalType": "uint256",
          "name": "",
          "type": "uint256"
        }
      ],
      "stateMutability": "view",
      "type": "function"
    },
    {
      "inputs": [
        {
          "internalType": "uint256",
          "name": "",
          "type": "uint256"
        }
      ],
      "name": "exPostToExAnteTokenId",
      "outputs": [
        {
          "internalType": "uint256",
          "name": "",
          "type": "uint256"
        }
      ],
      "stateMutability": "view",
      "type": "function"
    },
    {
      "inputs": [
        {
          "internalType": "uint256",
          "name": "",
          "type": "uint256"
        }
      ],
      "name": "exPostVintageMapping",
      "outputs": [
        {
          "internalType": "string",
          "name": "serialization",
          "type": "string"
        },
        {
          "internalType": "uint256",
          "name": "estMitigations",
          "type": "uint256"
        },
        {
          "internalType": "uint256",
          "name": "verificationPeriodStart",
          "type": "uint256"
        },
        {
          "internalType": "uint256",
          "name": "verificationPeriodEnd",
          "type": "uint256"
        },
        {
          "internalType": "uint256",
          "name": "lastVerificationTimestamp",
          "type": "uint256"
        }
      ],
      "stateMutability": "view",
      "type": "function"
    },
    {
      "inputs": [
        {
          "internalType": "uint256",
          "name": "id",
          "type": "uint256"
        }
      ],
      "name": "exists",
      "outputs": [
        {
          "internalType": "bool",
          "name": "",
          "type": "bool"
        }
      ],
      "stateMutability": "view",
      "type": "function"
    },
    {
      "inputs": [
        {
          "internalType": "bytes32",
          "name": "role",
          "type": "bytes32"
        }
      ],
      "name": "getRoleAdmin",
      "outputs": [
        {
          "internalType": "bytes32",
          "name": "",
          "type": "bytes32"
        }
      ],
      "stateMutability": "view",
      "type": "function"
    },
    {
      "inputs": [
        {
          "internalType": "bytes32",
          "name": "role",
          "type": "bytes32"
        },
        {
          "internalType": "address",
          "name": "account",
          "type": "address"
        }
      ],
      "name": "grantRole",
      "outputs": [],
      "stateMutability": "nonpayable",
      "type": "function"
    },
    {
      "inputs": [
        {
          "internalType": "bytes32",
          "name": "role",
          "type": "bytes32"
        },
        {
          "internalType": "address",
          "name": "account",
          "type": "address"
        }
      ],
      "name": "hasRole",
      "outputs": [
        {
          "internalType": "bool",
          "name": "",
          "type": "bool"
        }
      ],
      "stateMutability": "view",
      "type": "function"
    },
    {
      "inputs": [
        {
          "internalType": "address",
          "name": "_contractRegistry",
          "type": "address"
        },
        {
          "internalType": "address",
          "name": "_owner",
          "type": "address"
        },
        {
          "internalType": "uint256",
          "name": "_projectId",
          "type": "uint256"
        },
        {
          "internalType": "string",
          "name": "_projectName",
          "type": "string"
        },
        {
          "internalType": "string",
          "name": "_projectMethodology",
          "type": "string"
        },
        {
          "internalType": "string",
          "name": "_projectUri",
          "type": "string"
        }
      ],
      "name": "initialize",
      "outputs": [],
      "stateMutability": "nonpayable",
      "type": "function"
    },
    {
      "inputs": [
        {
          "internalType": "address",
          "name": "account",
          "type": "address"
        },
        {
          "internalType": "address",
          "name": "operator",
          "type": "address"
        }
      ],
      "name": "isApprovedForAll",
      "outputs": [
        {
          "internalType": "bool",
          "name": "",
          "type": "bool"
        }
      ],
      "stateMutability": "view",
      "type": "function"
    },
    {
      "inputs": [
        {
          "internalType": "uint256",
          "name": "tokenId",
          "type": "uint256"
        }
      ],
      "name": "isExPostToken",
      "outputs": [
        {
          "internalType": "bool",
          "name": "",
          "type": "bool"
        }
      ],
      "stateMutability": "view",
      "type": "function"
    },
    {
      "inputs": [],
      "name": "maxAntePercentage",
      "outputs": [
        {
          "internalType": "uint8",
          "name": "",
          "type": "uint8"
        }
      ],
      "stateMutability": "view",
      "type": "function"
    },
    {
      "inputs": [],
      "name": "methodology",
      "outputs": [
        {
          "internalType": "string",
          "name": "",
          "type": "string"
        }
      ],
      "stateMutability": "view",
      "type": "function"
    },
    {
      "inputs": [
        {
          "internalType": "address",
          "name": "account",
          "type": "address"
        },
        {
          "internalType": "uint256",
          "name": "exPostTokenId",
          "type": "uint256"
        },
        {
          "internalType": "uint256",
          "name": "amount",
          "type": "uint256"
        },
        {
          "internalType": "bytes",
          "name": "data",
          "type": "bytes"
        }
      ],
      "name": "mintExAnte",
      "outputs": [],
      "stateMutability": "nonpayable",
      "type": "function"
    },
    {
      "inputs": [
        {
          "internalType": "address",
          "name": "",
          "type": "address"
        },
        {
          "internalType": "address",
          "name": "",
          "type": "address"
        },
        {
          "internalType": "uint256[]",
          "name": "",
          "type": "uint256[]"
        },
        {
          "internalType": "uint256[]",
          "name": "",
          "type": "uint256[]"
        },
        {
          "internalType": "bytes",
          "name": "",
          "type": "bytes"
        }
      ],
      "name": "onERC1155BatchReceived",
      "outputs": [
        {
          "internalType": "bytes4",
          "name": "",
          "type": "bytes4"
        }
      ],
      "stateMutability": "nonpayable",
      "type": "function"
    },
    {
      "inputs": [
        {
          "internalType": "address",
          "name": "",
          "type": "address"
        },
        {
          "internalType": "address",
          "name": "",
          "type": "address"
        },
        {
          "internalType": "uint256",
          "name": "",
          "type": "uint256"
        },
        {
          "internalType": "uint256",
          "name": "",
          "type": "uint256"
        },
        {
          "internalType": "bytes",
          "name": "",
          "type": "bytes"
        }
      ],
      "name": "onERC1155Received",
      "outputs": [
        {
          "internalType": "bytes4",
          "name": "",
          "type": "bytes4"
        }
      ],
      "stateMutability": "nonpayable",
      "type": "function"
    },
    {
      "inputs": [],
      "name": "pause",
      "outputs": [],
      "stateMutability": "nonpayable",
      "type": "function"
    },
    {
      "inputs": [],
      "name": "paused",
      "outputs": [
        {
          "internalType": "bool",
          "name": "",
          "type": "bool"
        }
      ],
      "stateMutability": "view",
      "type": "function"
    },
    {
      "inputs": [],
      "name": "projectId",
      "outputs": [
        {
          "internalType": "uint256",
          "name": "",
          "type": "uint256"
        }
      ],
      "stateMutability": "view",
      "type": "function"
    },
    {
      "inputs": [],
      "name": "projectName",
      "outputs": [
        {
          "internalType": "string",
          "name": "",
          "type": "string"
        }
      ],
      "stateMutability": "view",
      "type": "function"
    },
    {
      "inputs": [],
      "name": "projectUri",
      "outputs": [
        {
          "internalType": "string",
          "name": "",
          "type": "string"
        }
      ],
      "stateMutability": "view",
      "type": "function"
    },
    {
      "inputs": [],
      "name": "proxiableUUID",
      "outputs": [
        {
          "internalType": "bytes32",
          "name": "",
          "type": "bytes32"
        }
      ],
      "stateMutability": "view",
      "type": "function"
    },
    {
      "inputs": [
        {
          "internalType": "bytes32",
          "name": "role",
          "type": "bytes32"
        },
        {
          "internalType": "address",
          "name": "account",
          "type": "address"
        }
      ],
      "name": "renounceRole",
      "outputs": [],
      "stateMutability": "nonpayable",
      "type": "function"
    },
    {
      "inputs": [
        {
          "internalType": "uint256",
          "name": "tokenId",
          "type": "uint256"
        },
        {
          "internalType": "uint256",
          "name": "amount",
          "type": "uint256"
        },
        {
          "internalType": "address",
          "name": "beneficiary",
          "type": "address"
        },
        {
          "internalType": "string",
          "name": "retireeName",
          "type": "string"
        },
        {
          "internalType": "string",
          "name": "customUri",
          "type": "string"
        },
        {
          "internalType": "string",
          "name": "comment",
          "type": "string"
        },
        {
          "internalType": "bytes",
          "name": "data",
          "type": "bytes"
        }
      ],
      "name": "retire",
      "outputs": [
        {
          "internalType": "uint256",
          "name": "nftTokenId",
          "type": "uint256"
        }
      ],
      "stateMutability": "nonpayable",
      "type": "function"
    },
    {
      "inputs": [
        {
          "internalType": "bytes",
          "name": "signature",
          "type": "bytes"
        },
        {
          "components": [
            {
              "internalType": "uint256",
              "name": "deadline",
              "type": "uint256"
            },
            {
              "internalType": "string",
              "name": "description",
              "type": "string"
            },
            {
              "internalType": "address",
              "name": "signer",
              "type": "address"
            },
            {
              "internalType": "address",
              "name": "to",
              "type": "address"
            },
            {
              "internalType": "uint256",
              "name": "tokenId",
              "type": "uint256"
            },
            {
              "internalType": "uint256",
              "name": "amount",
              "type": "uint256"
            },
            {
              "internalType": "uint256",
              "name": "nonce",
              "type": "uint256"
            }
          ],
          "internalType": "struct signatureTransferPayload",
          "name": "payload",
          "type": "tuple"
        },
        {
          "internalType": "string",
          "name": "retireeName",
          "type": "string"
        },
        {
          "internalType": "string",
          "name": "customUri",
          "type": "string"
        },
        {
          "internalType": "string",
          "name": "comment",
          "type": "string"
        },
        {
          "internalType": "bytes",
          "name": "data",
          "type": "bytes"
        }
      ],
      "name": "retireFromSignature",
      "outputs": [
        {
          "internalType": "uint256",
          "name": "nftTokenId",
          "type": "uint256"
        }
      ],
      "stateMutability": "nonpayable",
      "type": "function"
    },
    {
      "inputs": [
        {
          "internalType": "uint256",
          "name": "",
          "type": "uint256"
        }
      ],
      "name": "retirementMapping",
      "outputs": [
        {
          "internalType": "address",
          "name": "retiree",
          "type": "address"
        },
        {
          "internalType": "uint256",
          "name": "amount",
          "type": "uint256"
        },
        {
          "internalType": "uint256",
          "name": "vintageTokenId",
          "type": "uint256"
        },
        {
          "internalType": "string",
          "name": "retireeName",
          "type": "string"
        },
        {
          "internalType": "string",
          "name": "customUri",
          "type": "string"
        },
        {
          "internalType": "string",
          "name": "comment",
          "type": "string"
        }
      ],
      "stateMutability": "view",
      "type": "function"
    },
    {
      "inputs": [
        {
          "internalType": "bytes32",
          "name": "role",
          "type": "bytes32"
        },
        {
          "internalType": "address",
          "name": "account",
          "type": "address"
        }
      ],
      "name": "revokeRole",
      "outputs": [],
      "stateMutability": "nonpayable",
      "type": "function"
    },
    {
      "inputs": [
        {
          "internalType": "address",
          "name": "from",
          "type": "address"
        },
        {
          "internalType": "address",
          "name": "to",
          "type": "address"
        },
        {
          "internalType": "uint256[]",
          "name": "ids",
          "type": "uint256[]"
        },
        {
          "internalType": "uint256[]",
          "name": "amounts",
          "type": "uint256[]"
        },
        {
          "internalType": "bytes",
          "name": "data",
          "type": "bytes"
        }
      ],
      "name": "safeBatchTransferFrom",
      "outputs": [],
      "stateMutability": "nonpayable",
      "type": "function"
    },
    {
      "inputs": [
        {
          "internalType": "address",
          "name": "from",
          "type": "address"
        },
        {
          "internalType": "address",
          "name": "to",
          "type": "address"
        },
        {
          "internalType": "uint256",
          "name": "id",
          "type": "uint256"
        },
        {
          "internalType": "uint256",
          "name": "amount",
          "type": "uint256"
        },
        {
          "internalType": "bytes",
          "name": "data",
          "type": "bytes"
        }
      ],
      "name": "safeTransferFrom",
      "outputs": [],
      "stateMutability": "nonpayable",
      "type": "function"
    },
    {
      "inputs": [
        {
          "internalType": "string",
          "name": "",
          "type": "string"
        }
      ],
      "name": "serializationToExPostTokenIdMapping",
      "outputs": [
        {
          "internalType": "uint256",
          "name": "",
          "type": "uint256"
        }
      ],
      "stateMutability": "view",
      "type": "function"
    },
    {
      "inputs": [
        {
          "internalType": "address",
          "name": "operator",
          "type": "address"
        },
        {
          "internalType": "bool",
          "name": "approved",
          "type": "bool"
        }
      ],
      "name": "setApprovalForAll",
      "outputs": [],
      "stateMutability": "nonpayable",
      "type": "function"
    },
    {
      "inputs": [
        {
          "internalType": "string",
          "name": "newuri",
          "type": "string"
        }
      ],
      "name": "setURI",
      "outputs": [],
      "stateMutability": "nonpayable",
      "type": "function"
    },
    {
      "inputs": [
        {
          "internalType": "address",
          "name": "",
          "type": "address"
        }
      ],
      "name": "signatureNonces",
      "outputs": [
        {
          "internalType": "uint32",
          "name": "",
          "type": "uint32"
        }
      ],
      "stateMutability": "view",
      "type": "function"
    },
    {
      "inputs": [
        {
          "internalType": "bytes4",
          "name": "interfaceId",
          "type": "bytes4"
        }
      ],
      "name": "supportsInterface",
      "outputs": [
        {
          "internalType": "bool",
          "name": "",
          "type": "bool"
        }
      ],
      "stateMutability": "view",
      "type": "function"
    },
    {
      "inputs": [],
      "name": "testUpgrade",
      "outputs": [
        {
          "internalType": "string",
          "name": "",
          "type": "string"
        }
      ],
      "stateMutability": "pure",
      "type": "function"
    },
    {
      "inputs": [],
      "name": "topTokenId",
      "outputs": [
        {
          "internalType": "uint256",
          "name": "",
          "type": "uint256"
        }
      ],
      "stateMutability": "view",
      "type": "function"
    },
    {
      "inputs": [
        {
          "internalType": "uint256",
          "name": "id",
          "type": "uint256"
        }
      ],
      "name": "totalSupply",
      "outputs": [
        {
          "internalType": "uint256",
          "name": "",
          "type": "uint256"
        }
      ],
      "stateMutability": "view",
      "type": "function"
    },
    {
      "inputs": [
        {
          "internalType": "bytes",
          "name": "signature",
          "type": "bytes"
        },
        {
          "components": [
            {
              "internalType": "uint256",
              "name": "deadline",
              "type": "uint256"
            },
            {
              "internalType": "string",
              "name": "description",
              "type": "string"
            },
            {
              "internalType": "address",
              "name": "signer",
              "type": "address"
            },
            {
              "internalType": "address",
              "name": "to",
              "type": "address"
            },
            {
              "internalType": "uint256",
              "name": "tokenId",
              "type": "uint256"
            },
            {
              "internalType": "uint256",
              "name": "amount",
              "type": "uint256"
            },
            {
              "internalType": "uint256",
              "name": "nonce",
              "type": "uint256"
            }
          ],
          "internalType": "struct signatureTransferPayload",
          "name": "payload",
          "type": "tuple"
        },
        {
          "internalType": "bytes",
          "name": "data",
          "type": "bytes"
        }
      ],
      "name": "transferFromSignature",
      "outputs": [],
      "stateMutability": "payable",
      "type": "function"
    },
    {
      "inputs": [],
      "name": "unpause",
      "outputs": [],
      "stateMutability": "nonpayable",
      "type": "function"
    },
    {
      "inputs": [
        {
          "internalType": "address",
          "name": "newImplementation",
          "type": "address"
        }
      ],
      "name": "upgradeTo",
      "outputs": [],
      "stateMutability": "nonpayable",
      "type": "function"
    },
    {
      "inputs": [
        {
          "internalType": "address",
          "name": "newImplementation",
          "type": "address"
        },
        {
          "internalType": "bytes",
          "name": "data",
          "type": "bytes"
        }
      ],
      "name": "upgradeToAndCall",
      "outputs": [],
      "stateMutability": "payable",
      "type": "function"
    },
    {
      "inputs": [
        {
          "internalType": "uint256",
          "name": "",
          "type": "uint256"
        }
      ],
      "name": "uri",
      "outputs": [
        {
          "internalType": "string",
          "name": "",
          "type": "string"
        }
      ],
      "stateMutability": "view",
      "type": "function"
    },
    {
      "inputs": [
        {
          "internalType": "address",
          "name": "verificationVault",
          "type": "address"
        },
        {
          "internalType": "uint256",
          "name": "tokenId",
          "type": "uint256"
        },
        {
          "internalType": "uint256",
          "name": "amountVerified",
          "type": "uint256"
        },
        {
          "internalType": "uint256",
          "name": "amountToAnteHolders",
          "type": "uint256"
        },
        {
          "internalType": "uint256",
          "name": "verificationPeriodStart",
          "type": "uint256"
        },
        {
          "internalType": "uint256",
          "name": "verificationPeriodEnd",
          "type": "uint256"
        },
        {
          "internalType": "string",
          "name": "monitoringReport",
          "type": "string"
        }
      ],
      "name": "verifyAndMintExPost",
      "outputs": [],
      "stateMutability": "nonpayable",
      "type": "function"
    }
  ],
  "bytecode": "0x60a0604052306080523480156200001557600080fd5b506200002062000026565b620000e7565b600054610100900460ff1615620000935760405162461bcd60e51b815260206004820152602760248201527f496e697469616c697a61626c653a20636f6e747261637420697320696e697469604482015266616c697a696e6760c81b606482015260840160405180910390fd5b60005460ff90811614620000e5576000805460ff191660ff9081179091556040519081527f7f26b83ff96e1f2b6a682f133852f6798a09c465da95921460cefb38474024989060200160405180910390a15b565b608051615e836200011f600039600081816114f201528181611532015281816118cf0152818161190f01526119870152615e836000f3fe6080604052600436106102dd5760003560e01c8062fdd58e146102e257806301139ca71461031557806301ffc9a71461033757806302fe5305146103675780630e89341c1461038757806310c1e7a1146103b457806322088ebf146103d4578063248a9ca3146103f4578063275d4dec14610414578063282c51f3146104345780632ea05e44146104685780632eb2c2d61461048a5780632f2ff15d146104aa5780633584c384146104ca57806336568abe146104f85780633659cfe6146105185780633f4ba83a146105385780633fafa1271461054d57806341a30d3c146105645780634e1273f4146105845780634f1ef286146105b15780634f558e79146105c457806352d1902d146105f357806354ff0795146106085780635c975abb146106415780635e3bbaab14610659578063610e70121461067b57806361eeb089146106a85780636929a19c146106bf5780636f63984d146106f1578063728e68e314610711578063748957de1461074257806379c27605146107575780637d41dd9e146107775780637f345710146107975780638456cb59146107b957806384b0196e146107ce5780638f76c1da146107f657806391d14854146108245780639a33e300146108445780639d6aed0b146108595780639eeb1d5014610887578063a0e1b1711461089c578063a1062771146108bc578063a217fddf146108dc578063a22cb465146108f1578063aa8b2ea714610911578063abf410e514610933578063af93ff7214610961578063bc197c8114610981578063bd85b039146109c6578063d5391393146109f3578063d547741f14610a27578063dbd8483d14610a47578063deb0420714610a90578063e36408d014610ab0578063e63ab1e914610ac3578063e7705db614610ae5578063e985e9c514610b07578063eda3b77b14610b50578063edc0b2e614610b70578063f23a6e6114610b92578063f242432a14610bbe578063f515e6f214610bde578063f72c0d8b14610c00575b600080fd5b3480156102ee57600080fd5b506103026102fd366004614542565b610c22565b6040519081526020015b60405180910390f35b34801561032157600080fd5b50610335610330366004614646565b610cbd565b005b34801561034357600080fd5b5061035761035236600461470d565b610ef0565b604051901515815260200161030c565b34801561037357600080fd5b5061033561038236600461472a565b610efb565b34801561039357600080fd5b506103a76103a236600461475e565b610f20565b60405161030c91906147cf565b3480156103c057600080fd5b506103356103cf3660046147e2565b610fb4565b3480156103e057600080fd5b506103356103ef36600461489b565b6110ed565b34801561040057600080fd5b5061030261040f36600461475e565b611360565b34801561042057600080fd5b5061030261042f36600461494d565b611375565b34801561044057600080fd5b506103027f3c11d16cbaffd01df69ce1c404f6340ee057498f5f00246190ea54220576a84881565b34801561047457600080fd5b50610302600080516020615dee83398151915281565b34801561049657600080fd5b506103356104a5366004614ab1565b611401565b3480156104b657600080fd5b506103356104c5366004614b40565b61144d565b3480156104d657600080fd5b506103026104e536600461475e565b6101fe6020526000908152604090205481565b34801561050457600080fd5b50610335610513366004614b40565b61146e565b34801561052457600080fd5b50610335610533366004614b6c565b6114e8565b34801561054457600080fd5b506103356115b0565b34801561055957600080fd5b506103026101f85481565b34801561057057600080fd5b5061033561057f366004614b87565b6115d0565b34801561059057600080fd5b506105a461059f366004614bf5565b61179c565b60405161030c9190614cfa565b6103356105bf366004614d0d565b6118c5565b3480156105d057600080fd5b506103576105df36600461475e565b600090815260fb6020526040902054151590565b3480156105ff57600080fd5b5061030261197a565b34801561061457600080fd5b5061030261062336600461472a565b80516020818301810180516101ff8252928201919093012091525481565b34801561064d57600080fd5b5060c95460ff16610357565b34801561066557600080fd5b50610302600080516020615e0e83398151915281565b34801561068757600080fd5b506101f9546106969060ff1681565b60405160ff909116815260200161030c565b3480156106b457600080fd5b506103026101f75481565b3480156106cb57600080fd5b506106df6106da36600461475e565b611a29565b60405161030c96959493929190614d5d565b3480156106fd57600080fd5b5061035761070c36600461475e565b611c03565b34801561071d57600080fd5b5061073161072c36600461475e565b611c2a565b60405161030c959493929190614db0565b34801561074e57600080fd5b506103a7611ce1565b34801561076357600080fd5b50610335610772366004614de7565b611d70565b34801561078357600080fd5b50610335610792366004614f47565b611e26565b3480156107a357600080fd5b50610302600080516020615d4783398151915281565b3480156107c557600080fd5b50610335612035565b3480156107da57600080fd5b506107e3612055565b60405161030c9796959493929190614fc8565b34801561080257600080fd5b5061030261081136600461475e565b6101fd6020526000908152604090205481565b34801561083057600080fd5b5061035761083f366004614b40565b6120f5565b34801561085057600080fd5b506103a7612120565b34801561086557600080fd5b50604080518082019091526005815264302e302e3760d81b60208201526103a7565b34801561089357600080fd5b506103a761212e565b3480156108a857600080fd5b506103356108b7366004615038565b61213c565b3480156108c857600080fd5b506103356108d7366004615079565b6122db565b3480156108e857600080fd5b50610302600081565b3480156108fd57600080fd5b5061033561090c3660046150eb565b6123f8565b34801561091d57600080fd5b50610302600080516020615d2783398151915281565b34801561093f57600080fd5b506101fb54610954906001600160a01b031681565b60405161030c9190615127565b34801561096d57600080fd5b5061030261097c36600461513b565b612403565b34801561098d57600080fd5b506109ad61099c366004614ab1565b63bc197c8160e01b95945050505050565b6040516001600160e01b0319909116815260200161030c565b3480156109d257600080fd5b506103026109e136600461475e565b600090815260fb602052604090205490565b3480156109ff57600080fd5b506103027f9f2df0fed2c77648de5860a4cc508cd0818c85b8b8a1ab4ceeef8d981c8956a681565b348015610a3357600080fd5b50610335610a42366004614b40565b612612565b348015610a5357600080fd5b50610a7b610a62366004614b6c565b6101c56020526000908152604090205463ffffffff1681565b60405163ffffffff909116815260200161030c565b348015610a9c57600080fd5b50610335610aab36600461521a565b61262e565b610335610abe366004615279565b6126bd565b348015610acf57600080fd5b50610302600080516020615d8783398151915281565b348015610af157600080fd5b50610302600080516020615e2e83398151915281565b348015610b1357600080fd5b50610357610b223660046152fa565b6001600160a01b03918216600090815260666020908152604080832093909416825291909152205460ff1690565b348015610b5c57600080fd5b50610335610b6b366004615324565b6127f1565b348015610b7c57600080fd5b50610302600080516020615c8783398151915281565b348015610b9e57600080fd5b506109ad610bad366004615357565b63f23a6e6160e01b95945050505050565b348015610bca57600080fd5b50610335610bd9366004615357565b61281a565b348015610bea57600080fd5b50610302600080516020615dce83398151915281565b348015610c0c57600080fd5b50610302600080516020615ce783398151915281565b60006001600160a01b038316610c925760405162461bcd60e51b815260206004820152602a60248201527f455243313135353a2061646472657373207a65726f206973206e6f742061207660448201526930b634b21037bbb732b960b11b60648201526084015b60405180910390fd5b5060008181526065602090815260408083206001600160a01b03861684529091529020545b92915050565b600054610100900460ff1615808015610cdd5750600054600160ff909116105b80610cfe5750610cec3061285f565b158015610cfe575060005460ff166001145b610d1a5760405162461bcd60e51b8152600401610c89906153bb565b6000805460ff191660011790558015610d3d576000805461ff0019166101001790555b610d556040518060200160405280600081525061286e565b610d5d61289e565b610d656128c7565b610d6d61289e565b610d7561289e565b610dc36040518060400160405280600f81526020016e436172626f6e20526567697374727960881b81525060405180604001604052806005815260200164302e302e3160d81b8152506128f6565b610dd087868685876122db565b610ddb600087612927565b610df3600080516020615d4783398151915287612927565b610e0b600080516020615d8783398151915287612927565b610e23600080516020615c8783398151915287612927565b610e3b600080516020615e0e83398151915287612927565b610e53600080516020615ce783398151915287612927565b610e6b600080516020615dce83398151915287612927565b610e83600080516020615e2e83398151915287612927565b610e9b600080516020615dee83398151915287612927565b610eb3600080516020615e0e83398151915233612927565b8015610ee7576000805461ff001916905560405160018152600080516020615d678339815191529060200160405180910390a15b50505050505050565b6000610cb7826129ad565b600080516020615d47833981519152610f13816129d2565b610f1c826129dc565b5050565b606060678054610f2f90615409565b80601f0160208091040260200160405190810160405280929190818152602001828054610f5b90615409565b8015610fa85780601f10610f7d57610100808354040283529160200191610fa8565b820191906000526020600020905b815481529060010190602001808311610f8b57829003601f168201915b50505050509050919050565b600080516020615c87833981519152610fcc816129d2565b83610fd681611c03565b610ff25760405162461bcd60e51b8152600401610c899061543d565b60008581526101fc602052604081206003810154600490910154879111604051806040016040528060018152602001603360f81b815250906110475760405162461bcd60e51b8152600401610c8991906147cf565b5060008781526101fe60205260408120549081900361109157506101f780546001019081905560008881526101fe602090815260408083208490558383526101fd90915290208890555b886001600160a01b031688827f1fe9ade752d24e4f4dca10f5c807a7cc8630c7604280c8b124097d93b5bb02a18a6040516110ce91815260200190565b60405180910390a46110e2898289896129ef565b505050505050505050565b848484600080516020615cc783398151915283838360405161111193929190615481565b60405180910390a16000611228600080516020615c67833981519152833561113c6020860186615559565b60405160200161114d92919061559f565b604051602081830303815290604052805190602001208560400160208101906111769190614b6c565b6111866080880160608901614b6c565b608088013560a08901356101c560006111a560608d0160408e01614b6c565b6001600160a01b03908116825260208083019390935260409182016000205482519384019a909a529082019790975260608101959095529285166080850152931660a083015260c082019290925260e081019190915263ffffffff9091166101008201526101200160405160208183030381529060405280519060200120612af9565b905061127c8185858080601f016020809104026020016040519081016040528093929190818152602001838380828437600092019190915250611275925050506060860160408701614b6c565b8535612b26565b506101c560006112926060850160408601614b6c565b6001600160a01b0316815260208101919091526040016000908120805463ffffffff16916112bf836155c5565b91906101000a81548163ffffffff021916908363ffffffff1602179055505086608001358760400160208101906112f69190614b6c565b6001600160a01b03167f782105afe5542acae5ab54dc3dab8b54887fd38a79f55330b3e1e70c3063d67b8960a001358989604051611336939291906155e8565b60405180910390a36110e26113516060890160408a01614b6c565b88608001358960a00135612be8565b60009081526097602052604090206001015490565b60008761138181611c03565b61139d5760405162461bcd60e51b8152600401610c899061543d565b6001600160a01b03871633036113c3576113bc338a8a89898989612d6a565b91506113f5565b6001600160a01b0387166113d657600080fd5b6113e333888b8b87612dd8565b6113f2878a8a89898989612d6a565b91505b50979650505050505050565b6001600160a01b03851633148061141d575061141d8533610b22565b6114395760405162461bcd60e51b8152600401610c8990615613565b6114468585858585612ef7565b5050505050565b61145682611360565b61145f816129d2565b6114698383612927565b505050565b6001600160a01b03811633146114de5760405162461bcd60e51b815260206004820152602f60248201527f416363657373436f6e74726f6c3a2063616e206f6e6c792072656e6f756e636560448201526e103937b632b9903337b91039b2b63360891b6064820152608401610c89565b610f1c82826130dd565b6001600160a01b037f00000000000000000000000000000000000000000000000000000000000000001630036115305760405162461bcd60e51b8152600401610c8990615661565b7f00000000000000000000000000000000000000000000000000000000000000006001600160a01b0316611562613144565b6001600160a01b0316146115885760405162461bcd60e51b8152600401610c899061569b565b61159181613160565b604080516000808252602082019092526115ad91839190613178565b50565b600080516020615d878339815191526115c8816129d2565b6115ad6132e3565b600080516020615e2e8339815191526115e8816129d2565b866115f281611c03565b61160e5760405162461bcd60e51b8152600401610c899061543d565b60008881526101fc6020526040812060038101546004909101548a9111604051806040016040528060018152602001603360f81b815250906116635760405162461bcd60e51b8152600401610c8991906147cf565b50878910156116985760405162461bcd60e51b81526020600482015260016024820152601b60f91b6044820152606401610c89565b60008a81526101fe6020526040812054908190036116e25788156116e25760405162461bcd60e51b81526020600482015260016024820152603960f81b6044820152606401610c89565b8a7fe19de0f3da1193000100a217838f49f6bdda20dc974d33b61f92faaf446d181d8b8b8b8b8b60405161171a9594939291906156d5565b60405180910390a2600061172e8a8c615700565b1115611758576117588c8c6117438c8e615700565b604051806020016040528060008152506129ef565b60008b81526101fc60205260409020600401879055881561178e5761178e308c8b604051806020016040528060008152506129ef565b505050505050505050505050565b606081518351146118015760405162461bcd60e51b815260206004820152602960248201527f455243313135353a206163636f756e747320616e6420696473206c656e677468604482015268040dad2e6dac2e8c6d60bb1b6064820152608401610c89565b600083516001600160401b0381111561181c5761181c61456c565b604051908082528060200260200182016040528015611845578160200160208202803683370190505b50905060005b84518110156118bd5761189085828151811061186957611869615717565b602002602001015185838151811061188357611883615717565b6020026020010151610c22565b8282815181106118a2576118a2615717565b60209081029190910101526118b68161572d565b905061184b565b509392505050565b6001600160a01b037f000000000000000000000000000000000000000000000000000000000000000016300361190d5760405162461bcd60e51b8152600401610c8990615661565b7f00000000000000000000000000000000000000000000000000000000000000006001600160a01b031661193f613144565b6001600160a01b0316146119655760405162461bcd60e51b8152600401610c899061569b565b61196e82613160565b610f1c82826001613178565b6000306001600160a01b037f00000000000000000000000000000000000000000000000000000000000000001614611a155760405162461bcd60e51b815260206004820152603860248201527f555550535570677261646561626c653a206d757374206e6f742062652063616c6044820152771b1959081d1a1c9bdd59da0819195b1959d85d1958d85b1b60421b6064820152608401610c89565b50600080516020615d078339815191525b90565b6102006020526000908152604090208054600182015460028301546003840180546001600160a01b03909416949293919291611a6490615409565b80601f0160208091040260200160405190810160405280929190818152602001828054611a9090615409565b8015611add5780601f10611ab257610100808354040283529160200191611add565b820191906000526020600020905b815481529060010190602001808311611ac057829003601f168201915b505050505090806004018054611af290615409565b80601f0160208091040260200160405190810160405280929190818152602001828054611b1e90615409565b8015611b6b5780601f10611b4057610100808354040283529160200191611b6b565b820191906000526020600020905b815481529060010190602001808311611b4e57829003601f168201915b505050505090806005018054611b8090615409565b80601f0160208091040260200160405190810160405280929190818152602001828054611bac90615409565b8015611bf95780601f10611bce57610100808354040283529160200191611bf9565b820191906000526020600020905b815481529060010190602001808311611bdc57829003601f168201915b5050505050905086565b60008181526101fc602052604081208054829190611c2090615409565b9050119050919050565b6101fc60205260009081526040902080548190611c4690615409565b80601f0160208091040260200160405190810160405280929190818152602001828054611c7290615409565b8015611cbf5780601f10611c9457610100808354040283529160200191611cbf565b820191906000526020600020905b815481529060010190602001808311611ca257829003601f168201915b5050505050908060010154908060020154908060030154908060040154905085565b6102018054611cef90615409565b80601f0160208091040260200160405190810160405280929190818152602001828054611d1b90615409565b8015611d685780601f10611d3d57610100808354040283529160200191611d68565b820191906000526020600020905b815481529060010190602001808311611d4b57829003601f168201915b505050505081565b600080516020615e0e833981519152611d88816129d2565b60005b825181101561146957611e14838281518110611da957611da9615717565b602002602001015160200151848381518110611dc757611dc7615717565b602002602001015160400151858481518110611de557611de5615717565b602002602001015160600151868581518110611e0357611e03615717565b60200260200101516000015161213c565b80611e1e8161572d565b915050611d8b565b6000611e31816129d2565b60008311611e815760405162461bcd60e51b815260206004820152601f60248201527f446563696d616c73206d7573742062652067726561746572207468616e2030006044820152606401610c89565b8584148015611e8f57508315155b611ef15760405162461bcd60e51b815260206004820152602d60248201527f206163636f756e747320616e6420746f6b656e496473206d757374206265206f60448201526c0cc40e6c2daca40d8cadccee8d609b1b6064820152608401610c89565b60005b8681101561202b576000611f46898984818110611f1357611f13615717565b9050602002016020810190611f289190614b6c565b888885818110611f3a57611f3a615717565b90506020020135610c22565b9050611f5385600a61582a565b81108015611f615750600081115b611fad5760405162461bcd60e51b815260206004820152601e60248201527f42616c616e6365206d7573742062652067726561746572207468616e203000006044820152606401610c89565b612018898984818110611fc257611fc2615717565b9050602002016020810190611fd79190614b6c565b888885818110611fe957611fe9615717565b905060200201358388600a611ffe919061582a565b6120089086615836565b6120129190615700565b876129ef565b50806120238161572d565b915050611ef4565b5050505050505050565b600080516020615d8783398151915261204d816129d2565b6115ad61332f565b600060608060008060006060610191546000801b148015612077575061019254155b6120bb5760405162461bcd60e51b81526020600482015260156024820152741152540dcc4c8e88155b9a5b9a5d1a585b1a5e9959605a1b6044820152606401610c89565b6120c361336c565b6120cb6133ff565b60408051600080825260208201909252600f60f81b9b939a50919850469750309650945092509050565b60009182526097602090815260408084206001600160a01b0393909316845291905290205460ff1690565b6101fa8054611cef90615409565b6102028054611cef90615409565b600080516020615e0e833981519152612154816129d2565b8383116121875760405162461bcd60e51b81526020600482015260016024820152600d60fa1b6044820152606401610c89565b600061219b6101f780546001019081905590565b6101fb546040516344d9d59b60e01b81529192506001600160a01b0316906344d9d59b906121cd9086906004016147cf565b600060405180830381600087803b1580156121e757600080fd5b505af11580156121fb573d6000803e3d6000fd5b50505050806101ff846040516122119190615855565b90815260408051602092819003830181209390935560a083018152858352818301899052828101889052606083018790526000608084018190528481526101fc83522082518051919261226992849290910190614496565b5060208201518160010155604082015181600201556060820151816003015560808201518160040155905050807fc5fb6d85b5baef0a615415607787aea341771027b7e4da34da58eaeb661154ea878787876040516122cb9493929190615871565b60405180910390a2505050505050565b600054610100900460ff16158080156122fb5750600054600160ff909116105b8061231c575061230a3061285f565b15801561231c575060005460ff166001145b6123385760405162461bcd60e51b8152600401610c89906153bb565b6000805460ff19166001179055801561235b576000805461ff0019166101001790555b6101fb80546001600160a01b0319166001600160a01b038816179055835161238b906101fa906020870190614496565b506101f885905582516123a690610201906020860190614496565b5081516123bb90610202906020850190614496565b5080156123f0576000805461ff001916905560405160018152600080516020615d678339815191529060200160405180910390a15b505050505050565b610f1c33838361340f565b6000856080013561241381611c03565b61242f5760405162461bcd60e51b8152600401610c899061543d565b888888600080516020615cc783398151915283838360405161245393929190615481565b60405180910390a1600061247e600080516020615c67833981519152833561113c6020860186615559565b90506124cb8185858080601f016020809104026020016040519081016040528093929190818152602001838380828437600092019190915250611275925050506060860160408701614b6c565b506101c560006124e16060850160408601614b6c565b6001600160a01b0316815260208101919091526040016000908120805463ffffffff169161250e836155c5565b91906101000a81548163ffffffff021916908363ffffffff160217905550508a60600160208101906125409190614b6c565b6001600160a01b031661255960608d0160408e01614b6c565b6001600160a01b0316036125945761258d61257a60608d0160408e01614b6c565b8c608001358d60a001358d8d8d8d612d6a565b9550612602565b60006125a660808d0160608e01614b6c565b6001600160a01b0316036125b957600080fd5b6125ec6125cc60608d0160408e01614b6c565b6125dc60808e0160608f01614b6c565b8d608001358e60a001358b612dd8565b6125ff61257a60808d0160608e01614b6c565b95505b5050505050979650505050505050565b61261b82611360565b612624816129d2565b61146983836130dd565b600080516020615dee833981519152612646816129d2565b81600481111561265857612658615896565b604080516001600160a01b038881168252602082018790528792908a16917fa8b90aeef4d9590cac2ff486fc2b5d9749ed41f9388a7eb159eef94cf5fb65ab910160405180910390a46123f08686868660405180602001604052806000815250612dd8565b838383600080516020615cc78339815191528383836040516126e193929190615481565b60405180910390a1600061270c600080516020615c67833981519152833561113c6020860186615559565b90506127598185858080601f016020809104026020016040519081016040528093929190818152602001838380828437600092019190915250611275925050506060860160408701614b6c565b506101c5600061276f6060850160408601614b6c565b6001600160a01b0316815260208101919091526040016000908120805463ffffffff169161279c836155c5565b91906101000a81548163ffffffff021916908363ffffffff1602179055505061202b8660400160208101906127d19190614b6c565b6127e16080890160608a01614b6c565b88608001358960a0013589612dd8565b600080516020615dee833981519152612809816129d2565b612814848484612be8565b50505050565b6001600160a01b03851633148061283657506128368533610b22565b6128525760405162461bcd60e51b8152600401610c8990615613565b6114468585858585612dd8565b6001600160a01b03163b151590565b600054610100900460ff166128955760405162461bcd60e51b8152600401610c89906158ac565b6115ad816134ef565b600054610100900460ff166128c55760405162461bcd60e51b8152600401610c89906158ac565b565b600054610100900460ff166128ee5760405162461bcd60e51b8152600401610c89906158ac565b6128c561351f565b600054610100900460ff1661291d5760405162461bcd60e51b8152600401610c89906158ac565b610f1c8282613552565b61293182826120f5565b610f1c5760008281526097602090815260408083206001600160a01b03851684529091529020805460ff191660011790556129693390565b6001600160a01b0316816001600160a01b0316837f2f8788117e7eff1d82e926ec794901d17c78024a50270940304540a733656f0d60405160405180910390a45050565b60006001600160e01b03198216630271189760e51b1480610cb75750610cb782613583565b6115ad81336135a8565b8051610f1c906067906020840190614496565b6001600160a01b038416612a4f5760405162461bcd60e51b815260206004820152602160248201527f455243313135353a206d696e7420746f20746865207a65726f206164647265736044820152607360f81b6064820152608401610c89565b336000612a5b85613601565b90506000612a6885613601565b9050612a798360008985858961364c565b60008681526065602090815260408083206001600160a01b038b16845290915281208054879290612aab9084906158f7565b909155505060408051878152602081018790526001600160a01b03808a169260009291871691600080516020615c47833981519152910160405180910390a4610ee783600089898989613775565b6000610cb7612b066138d7565b8360405161190160f01b8152600281019290925260228201526042902090565b6000612b3285856138e6565b9050826001600160a01b0316816001600160a01b0316148015612b5d57506001600160a01b03811615155b612b9d5760405162461bcd60e51b8152602060048201526011602482015270496e76616c6964207369676e617475726560781b6044820152606401610c89565b814210612be05760405162461bcd60e51b815260206004820152601160248201527014da59db985d1d5c9948195e1c1a5c9959607a1b6044820152606401610c89565b949350505050565b6001600160a01b038316612c4a5760405162461bcd60e51b815260206004820152602360248201527f455243313135353a206275726e2066726f6d20746865207a65726f206164647260448201526265737360e81b6064820152608401610c89565b336000612c5684613601565b90506000612c6384613601565b9050612c838387600085856040518060200160405280600081525061364c565b60008581526065602090815260408083206001600160a01b038a16845290915290205484811015612d025760405162461bcd60e51b8152602060048201526024808201527f455243313135353a206275726e20616d6f756e7420657863656564732062616c604482015263616e636560e01b6064820152608401610c89565b60008681526065602090815260408083206001600160a01b038b81168086529184528285208a8703905582518b81529384018a9052909290881691600080516020615c47833981519152910160405180910390a4604080516020810190915260009052610ee7565b6000612d77888888612be8565b612d85888888888888613902565b905086886001600160a01b03167f1325d882b2ca749c878a4ab3a393f6e51b69026faa05426b6d1ec6776a3f2f3c888486604051612dc59392919061590f565b60405180910390a3979650505050505050565b6001600160a01b038416612dfe5760405162461bcd60e51b8152600401610c8990615937565b336000612e0a85613601565b90506000612e1785613601565b9050612e2783898985858961364c565b60008681526065602090815260408083206001600160a01b038c16845290915290205485811015612e6a5760405162461bcd60e51b8152600401610c899061597c565b60008781526065602090815260408083206001600160a01b038d8116855292528083208985039055908a16825281208054889290612ea99084906158f7565b909155505060408051888152602081018890526001600160a01b03808b16928c82169291881691600080516020615c47833981519152910160405180910390a46110e2848a8a8a8a8a613775565b8151835114612f595760405162461bcd60e51b815260206004820152602860248201527f455243313135353a2069647320616e6420616d6f756e7473206c656e677468206044820152670dad2e6dac2e8c6d60c31b6064820152608401610c89565b6001600160a01b038416612f7f5760405162461bcd60e51b8152600401610c8990615937565b33612f8e81878787878761364c565b60005b8451811015613077576000858281518110612fae57612fae615717565b602002602001015190506000858381518110612fcc57612fcc615717565b60209081029190910181015160008481526065835260408082206001600160a01b038e16835290935291909120549091508181101561301d5760405162461bcd60e51b8152600401610c899061597c565b60008381526065602090815260408083206001600160a01b038e8116855292528083208585039055908b1682528120805484929061305c9084906158f7565b92505081905550505050806130709061572d565b9050612f91565b50846001600160a01b0316866001600160a01b0316826001600160a01b03167f4a39dc06d4c0dbc64b70af90fd698a233a518aa5d07e595d983b8c0526c8f7fb87876040516130c79291906159c6565b60405180910390a46123f0818787878787613a01565b6130e782826120f5565b15610f1c5760008281526097602090815260408083206001600160a01b0385168085529252808320805460ff1916905551339285917ff6391f5c32d9c69d2a47ea670b442974b53935d1edc7fd64eb21e047a839171b9190a45050565b600080516020615d07833981519152546001600160a01b031690565b600080516020615ce7833981519152610f1c816129d2565b7f4910fdfa16fed3260ed0e7147f7cc6da11a60208b5b9406d12a635614ffd91435460ff16156131ab5761146983613ac3565b826001600160a01b03166352d1902d6040518163ffffffff1660e01b8152600401602060405180830381865afa925050508015613205575060408051601f3d908101601f19168201909252613202918101906159eb565b60015b6132685760405162461bcd60e51b815260206004820152602e60248201527f45524331393637557067726164653a206e657720696d706c656d656e7461746960448201526d6f6e206973206e6f74205555505360901b6064820152608401610c89565b600080516020615d0783398151915281146132d75760405162461bcd60e51b815260206004820152602960248201527f45524331393637557067726164653a20756e737570706f727465642070726f786044820152681a58589b195555525160ba1b6064820152608401610c89565b50611469838383613b5d565b6132eb613b82565b60c9805460ff191690557f5db9ee0a495bf2e6ff9c91a7834c1ba4fdd244a5e8aa4e537bd38aeae4b073aa335b6040516133259190615127565b60405180910390a1565b613337613bcb565b60c9805460ff191660011790557f62e78cea01bee320cd4e420270b5ea74000d11b0c9f74754ebdbfc544b05a2586133183390565b6060610193805461337c90615409565b80601f01602080910402602001604051908101604052809291908181526020018280546133a890615409565b80156133f55780601f106133ca576101008083540402835291602001916133f5565b820191906000526020600020905b8154815290600101906020018083116133d857829003601f168201915b5050505050905090565b6060610194805461337c90615409565b816001600160a01b0316836001600160a01b0316036134825760405162461bcd60e51b815260206004820152602960248201527f455243313135353a2073657474696e6720617070726f76616c20737461747573604482015268103337b91039b2b63360b91b6064820152608401610c89565b6001600160a01b03838116600081815260666020908152604080832094871680845294825291829020805460ff191686151590811790915591519182527f17307eab39ab6107e8899845ad3d59bd9653f200f220920489ca2b5937696c31910160405180910390a3505050565b600054610100900460ff166135165760405162461bcd60e51b8152600401610c89906158ac565b6115ad816129dc565b600054610100900460ff166135465760405162461bcd60e51b8152600401610c89906158ac565b60c9805460ff19169055565b600054610100900460ff166135795760405162461bcd60e51b8152600401610c89906158ac565b610f1c8282613c11565b60006001600160e01b03198216637965db0b60e01b1480610cb75750610cb782613c72565b6135b282826120f5565b610f1c576135bf81613cc2565b6135ca836020613cd4565b6040516020016135db929190615a04565b60408051601f198184030181529082905262461bcd60e51b8252610c89916004016147cf565b6040805160018082528183019092526060916000919060208083019080368337019050509050828160008151811061363b5761363b615717565b602090810291909101015292915050565b613654613bcb565b8461366d600080516020615d27833981519152826120f5565b1561368a5760405162461bcd60e51b8152600401610c8990615a73565b846136a3600080516020615d27833981519152826120f5565b156136c05760405162461bcd60e51b8152600401610c8990615a73565b60005b85518110156137665761020060008783815181106136e3576136e3615717565b60200260200101518152602001908152602001600020600101546000148061372357506001600160a01b038816158061372357506001600160a01b038716155b6137545760405162461bcd60e51b8152602060048201526002602482015261313160f01b6044820152606401610c89565b8061375e8161572d565b9150506136c3565b5061202b888888888888613e76565b613787846001600160a01b031661285f565b156123f05760405163f23a6e6160e01b81526001600160a01b0385169063f23a6e61906137c09089908990889088908890600401615a8e565b6020604051808303816000875af19250505080156137fb575060408051601f3d908101601f191682019092526137f891810190615ac8565b60015b6138a757613807615ae5565b806308c379a003613840575061381b615b00565b806138265750613842565b8060405162461bcd60e51b8152600401610c8991906147cf565b505b60405162461bcd60e51b815260206004820152603460248201527f455243313135353a207472616e7366657220746f206e6f6e2d455243313135356044820152732932b1b2b4bb32b91034b6b83632b6b2b73a32b960611b6064820152608401610c89565b6001600160e01b0319811663f23a6e6160e01b14610ee75760405162461bcd60e51b8152600401610c8990615b89565b60006138e1613fef565b905090565b60008060006138f58585614063565b915091506118bd816140a8565b6000806139176101f780546001019081905590565b6040805160c0810182526001600160a01b038b8116825260208083018b81528385018d8152606085018c8152608086018c905260a086018b90526000888152610200855296909620855181546001600160a01b031916951694909417845590516001840155516002830155925180519495509193909261399e926003850192910190614496565b50608082015180516139ba916004840191602090910190614496565b5060a082015180516139d6916005840191602090910190614496565b509050506139f688826001604051806020016040528060008152506129ef565b979650505050505050565b613a13846001600160a01b031661285f565b156123f05760405163bc197c8160e01b81526001600160a01b0385169063bc197c8190613a4c9089908990889088908890600401615bd1565b6020604051808303816000875af1925050508015613a87575060408051601f3d908101601f19168201909252613a8491810190615ac8565b60015b613a9357613807615ae5565b6001600160e01b0319811663bc197c8160e01b14610ee75760405162461bcd60e51b8152600401610c8990615b89565b613acc8161285f565b613b2e5760405162461bcd60e51b815260206004820152602d60248201527f455243313936373a206e657720696d706c656d656e746174696f6e206973206e60448201526c1bdd08184818dbdb9d1c9858dd609a1b6064820152608401610c89565b600080516020615d0783398151915280546001600160a01b0319166001600160a01b0392909216919091179055565b613b66836141ed565b600082511180613b735750805b1561146957612814838361422d565b60c95460ff166128c55760405162461bcd60e51b815260206004820152601460248201527314185d5cd8589b194e881b9bdd081c185d5cd95960621b6044820152606401610c89565b60c95460ff16156128c55760405162461bcd60e51b815260206004820152601060248201526f14185d5cd8589b194e881c185d5cd95960821b6044820152606401610c89565b600054610100900460ff16613c385760405162461bcd60e51b8152600401610c89906158ac565b8151613c4c90610193906020850190614496565b508051613c6190610194906020840190614496565b505060006101918190556101925550565b60006001600160e01b03198216636cdb3d1360e11b1480613ca357506001600160e01b031982166303a24d0760e21b145b80610cb757506301ffc9a760e01b6001600160e01b0319831614610cb7565b6060610cb76001600160a01b03831660145b60606000613ce3836002615836565b613cee9060026158f7565b6001600160401b03811115613d0557613d0561456c565b6040519080825280601f01601f191660200182016040528015613d2f576020820181803683370190505b509050600360fc1b81600081518110613d4a57613d4a615717565b60200101906001600160f81b031916908160001a905350600f60fb1b81600181518110613d7957613d79615717565b60200101906001600160f81b031916908160001a9053506000613d9d846002615836565b613da89060016158f7565b90505b6001811115613e20576f181899199a1a9b1b9c1cb0b131b232b360811b85600f1660108110613ddc57613ddc615717565b1a60f81b828281518110613df257613df2615717565b60200101906001600160f81b031916908160001a90535060049490941c93613e1981615c2f565b9050613dab565b508315613e6f5760405162461bcd60e51b815260206004820181905260248201527f537472696e67733a20686578206c656e67746820696e73756666696369656e746044820152606401610c89565b9392505050565b6001600160a01b038516613efd5760005b8351811015613efb57828181518110613ea257613ea2615717565b602002602001015160fb6000868481518110613ec057613ec0615717565b602002602001015181526020019081526020016000206000828254613ee591906158f7565b90915550613ef490508161572d565b9050613e87565b505b6001600160a01b0384166123f05760005b8351811015610ee7576000848281518110613f2b57613f2b615717565b602002602001015190506000848381518110613f4957613f49615717565b60200260200101519050600060fb600084815260200190815260200160002054905081811015613fcc5760405162461bcd60e51b815260206004820152602860248201527f455243313135353a206275726e20616d6f756e74206578636565647320746f74604482015267616c537570706c7960c01b6064820152608401610c89565b600092835260fb602052604090922091039055613fe88161572d565b9050613f0e565b60007f8b73c3c69bb8fe3d512ecc4cf759cc79239f7b179b0ffacaa9a75d522b39400f61401a614252565b6140226142b0565b60408051602081019490945283019190915260608201524660808201523060a082015260c00160405160208183030381529060405280519060200120905090565b60008082516041036140995760208301516040840151606085015160001a61408d878285856142e2565b945094505050506140a1565b506000905060025b9250929050565b60008160048111156140bc576140bc615896565b036140c45750565b60018160048111156140d8576140d8615896565b036141205760405162461bcd60e51b815260206004820152601860248201527745434453413a20696e76616c6964207369676e617475726560401b6044820152606401610c89565b600281600481111561413457614134615896565b036141815760405162461bcd60e51b815260206004820152601f60248201527f45434453413a20696e76616c6964207369676e6174757265206c656e677468006044820152606401610c89565b600381600481111561419557614195615896565b036115ad5760405162461bcd60e51b815260206004820152602260248201527f45434453413a20696e76616c6964207369676e6174757265202773272076616c604482015261756560f01b6064820152608401610c89565b6141f681613ac3565b6040516001600160a01b038216907fbc7cd75a20ee27fd9adebab32041f755214dbc6bffa90cc0225b39da2e5c2d3b90600090a250565b6060613e6f8383604051806060016040528060278152602001615da76027913961439c565b60008061425d61336c565b805190915015614274578051602090910120919050565b6101915480156142845792915050565b7fc5d2460186f7233c927e7db2dcc703c0e500b653ca82273b7bfad8045d85a4709250505090565b5090565b6000806142bb6133ff565b8051909150156142d2578051602090910120919050565b6101925480156142845792915050565b6000806fa2a8918ca85bafe22016d0b997e4df60600160ff1b0383111561430f5750600090506003614393565b6040805160008082526020820180845289905260ff881692820192909252606081018690526080810185905260019060a0016020604051602081039080840390855afa158015614363573d6000803e3d6000fd5b5050604051601f1901519150506001600160a01b03811661438c57600060019250925050614393565b9150600090505b94509492505050565b6060600080856001600160a01b0316856040516143b99190615855565b600060405180830381855af49150503d80600081146143f4576040519150601f19603f3d011682016040523d82523d6000602084013e6143f9565b606091505b509150915061440a86838387614414565b9695505050505050565b6060831561448157825160000361447a5761442e8561285f565b61447a5760405162461bcd60e51b815260206004820152601d60248201527f416464726573733a2063616c6c20746f206e6f6e2d636f6e74726163740000006044820152606401610c89565b5081612be0565b612be083838151156138265781518083602001fd5b8280546144a290615409565b90600052602060002090601f0160209004810192826144c4576000855561450a565b82601f106144dd57805160ff191683800117855561450a565b8280016001018555821561450a579182015b8281111561450a5782518255916020019190600101906144ef565b506142ac9291505b808211156142ac5760008155600101614512565b80356001600160a01b038116811461453d57600080fd5b919050565b6000806040838503121561455557600080fd5b61455e83614526565b946020939093013593505050565b634e487b7160e01b600052604160045260246000fd5b60a081016001600160401b03811182821017156145a1576145a161456c565b60405250565b601f8201601f191681016001600160401b03811182821017156145cc576145cc61456c565b6040525050565b600082601f8301126145e457600080fd5b81356001600160401b038111156145fd576145fd61456c565b604051614614601f8301601f1916602001826145a7565b81815284602083860101111561462957600080fd5b816020850160208301376000918101602001919091529392505050565b60008060008060008060c0878903121561465f57600080fd5b61466887614526565b955061467660208801614526565b94506040870135935060608701356001600160401b038082111561469957600080fd5b6146a58a838b016145d3565b945060808901359150808211156146bb57600080fd5b6146c78a838b016145d3565b935060a08901359150808211156146dd57600080fd5b506146ea89828a016145d3565b9150509295509295509295565b6001600160e01b0319811681146115ad57600080fd5b60006020828403121561471f57600080fd5b8135613e6f816146f7565b60006020828403121561473c57600080fd5b81356001600160401b0381111561475257600080fd5b612be0848285016145d3565b60006020828403121561477057600080fd5b5035919050565b60005b8381101561479257818101518382015260200161477a565b838111156128145750506000910152565b600081518084526147bb816020860160208601614777565b601f01601f19169290920160200192915050565b602081526000613e6f60208301846147a3565b600080600080608085870312156147f857600080fd5b61480185614526565b9350602085013592506040850135915060608501356001600160401b0381111561482a57600080fd5b614836878288016145d3565b91505092959194509250565b60008083601f84011261485457600080fd5b5081356001600160401b0381111561486b57600080fd5b6020830191508360208285010111156140a157600080fd5b600060e0828403121561489557600080fd5b50919050565b6000806000806000608086880312156148b357600080fd5b85356001600160401b03808211156148ca57600080fd5b6148d689838a01614842565b909750955060208801359150808211156148ef57600080fd5b6148fb89838a01614883565b9450604088013591508082111561491157600080fd5b61491d89838a016145d3565b9350606088013591508082111561493357600080fd5b50614940888289016145d3565b9150509295509295909350565b600080600080600080600060e0888a03121561496857600080fd5b873596506020880135955061497f60408901614526565b945060608801356001600160401b038082111561499b57600080fd5b6149a78b838c016145d3565b955060808a01359150808211156149bd57600080fd5b6149c98b838c016145d3565b945060a08a01359150808211156149df57600080fd5b6149eb8b838c016145d3565b935060c08a0135915080821115614a0157600080fd5b50614a0e8a828b016145d3565b91505092959891949750929550565b60006001600160401b03821115614a3657614a3661456c565b5060051b60200190565b600082601f830112614a5157600080fd5b81356020614a5e82614a1d565b604051614a6b82826145a7565b83815260059390931b8501820192828101915086841115614a8b57600080fd5b8286015b84811015614aa65780358352918301918301614a8f565b509695505050505050565b600080600080600060a08688031215614ac957600080fd5b614ad286614526565b9450614ae060208701614526565b935060408601356001600160401b0380821115614afc57600080fd5b614b0889838a01614a40565b94506060880135915080821115614b1e57600080fd5b614b2a89838a01614a40565b9350608088013591508082111561493357600080fd5b60008060408385031215614b5357600080fd5b82359150614b6360208401614526565b90509250929050565b600060208284031215614b7e57600080fd5b613e6f82614526565b600080600080600080600060e0888a031215614ba257600080fd5b614bab88614526565b96506020880135955060408801359450606088013593506080880135925060a0880135915060c08801356001600160401b03811115614be957600080fd5b614a0e8a828b016145d3565b60008060408385031215614c0857600080fd5b82356001600160401b0380821115614c1f57600080fd5b818501915085601f830112614c3357600080fd5b81356020614c4082614a1d565b604051614c4d82826145a7565b83815260059390931b8501820192828101915089841115614c6d57600080fd5b948201945b83861015614c9257614c8386614526565b82529482019490820190614c72565b96505086013592505080821115614ca857600080fd5b50614cb585828601614a40565b9150509250929050565b600081518084526020808501945080840160005b83811015614cef57815187529582019590820190600101614cd3565b509495945050505050565b602081526000613e6f6020830184614cbf565b60008060408385031215614d2057600080fd5b614d2983614526565b915060208301356001600160401b03811115614d4457600080fd5b614cb5858286016145d3565b6001600160a01b03169052565b60018060a01b038716815285602082015284604082015260c060608201526000614d8a60c08301866147a3565b8281036080840152614d9c81866147a3565b905082810360a08401526113f281856147a3565b60a081526000614dc360a08301886147a3565b90508560208301528460408301528360608301528260808301529695505050505050565b60006020808385031215614dfa57600080fd5b82356001600160401b0380821115614e1157600080fd5b818501915085601f830112614e2557600080fd5b8135614e3081614a1d565b60408051614e3e83826145a7565b83815260059390931b8501860192868101925089841115614e5e57600080fd5b8686015b84811015614ef557803586811115614e7a5760008081fd5b870160a0818d03601f1901811315614e925760008081fd5b8451614e9d81614582565b8a83013589811115614eaf5760008081fd5b614ebd8f8d838701016145d3565b825250828601358b82015260608084013587830152608080850135918301919091529190920135908201528452928701928701614e62565b509998505050505050505050565b60008083601f840112614f1557600080fd5b5081356001600160401b03811115614f2c57600080fd5b6020830191508360208260051b85010111156140a157600080fd5b60008060008060008060808789031215614f6057600080fd5b86356001600160401b0380821115614f7757600080fd5b614f838a838b01614f03565b90985096506020890135915080821115614f9c57600080fd5b614fa88a838b01614f03565b90965094506040890135935060608901359150808211156146dd57600080fd5b60ff60f81b8816815260e060208201526000614fe760e08301896147a3565b8281036040840152614ff981896147a3565b606084018890526001600160a01b038716608085015260a0840186905283810360c0850152905061502a8185614cbf565b9a9950505050505050505050565b6000806000806080858703121561504e57600080fd5b84359350602085013592506040850135915060608501356001600160401b0381111561482a57600080fd5b600080600080600060a0868803121561509157600080fd5b61509a86614526565b94506020860135935060408601356001600160401b03808211156150bd57600080fd5b6150c989838a016145d3565b945060608801359150808211156150df57600080fd5b614b2a89838a016145d3565b600080604083850312156150fe57600080fd5b61510783614526565b91506020830135801515811461511c57600080fd5b809150509250929050565b6001600160a01b0391909116815260200190565b600080600080600080600060c0888a03121561515657600080fd5b87356001600160401b038082111561516d57600080fd5b6151798b838c01614842565b909950975060208a013591508082111561519257600080fd5b61519e8b838c01614883565b965060408a01359150808211156151b457600080fd5b6151c08b838c016145d3565b955060608a01359150808211156151d657600080fd5b6151e28b838c016145d3565b945060808a01359150808211156151f857600080fd5b6152048b838c016145d3565b935060a08a0135915080821115614a0157600080fd5b600080600080600060a0868803121561523257600080fd5b61523b86614526565b945061524960208701614526565b9350604086013592506060860135915060808601356005811061526b57600080fd5b809150509295509295909350565b6000806000806060858703121561528f57600080fd5b84356001600160401b03808211156152a657600080fd5b6152b288838901614842565b909650945060208701359150808211156152cb57600080fd5b6152d788838901614883565b935060408701359150808211156152ed57600080fd5b50614836878288016145d3565b6000806040838503121561530d57600080fd5b61531683614526565b9150614b6360208401614526565b60008060006060848603121561533957600080fd5b61534284614526565b95602085013595506040909401359392505050565b600080600080600060a0868803121561536f57600080fd5b61537886614526565b945061538660208701614526565b9350604086013592506060860135915060808601356001600160401b038111156153af57600080fd5b614940888289016145d3565b6020808252602e908201527f496e697469616c697a61626c653a20636f6e747261637420697320616c72656160408201526d191e481a5b9a5d1a585b1a5e995960921b606082015260800190565b600181811c9082168061541d57607f821691505b60208210810361489557634e487b7160e01b600052602260045260246000fd5b6020808252600190820152603160f81b604082015260600190565b81835281816020850137506000828201602090810191909152601f909101601f19169091010190565b604081526000615495604083018587615458565b8281036020840152833581526020840135601e198536030181126154b857600080fd5b840180356001600160401b038111156154d057600080fd5b8036038613156154df57600080fd5b60e060208401526154f760e084018260208501615458565b91505061550660408601614526565b6155136040840182614d50565b5061552060608601614526565b61552d6060840182614d50565b506080850135608083015260a085013560a083015260c085013560c08301528092505050949350505050565b6000808335601e1984360301811261557057600080fd5b8301803591506001600160401b0382111561558a57600080fd5b6020019150368190038213156140a157600080fd5b8183823760009101908152919050565b634e487b7160e01b600052601160045260246000fd5b600063ffffffff8083168181036155de576155de6155af565b6001019392505050565b83815260606020820152600061560160608301856147a3565b828103604084015261440a81856147a3565b6020808252602e908201527f455243313135353a2063616c6c6572206973206e6f7420746f6b656e206f776e60408201526d195c881bdc88185c1c1c9bdd995960921b606082015260800190565b6020808252602c90820152600080516020615ca783398151915260408201526b19195b1959d85d1958d85b1b60a21b606082015260800190565b6020808252602c90820152600080516020615ca783398151915260408201526b6163746976652070726f787960a01b606082015260800190565b85815284602082015283604082015282606082015260a0608082015260006139f660a08301846147a3565b600082821015615712576157126155af565b500390565b634e487b7160e01b600052603260045260246000fd5b60006001820161573f5761573f6155af565b5060010190565b600181815b80851115615781578160001904821115615767576157676155af565b8085161561577457918102915b93841c939080029061574b565b509250929050565b60008261579857506001610cb7565b816157a557506000610cb7565b81600181146157bb57600281146157c5576157e1565b6001915050610cb7565b60ff8411156157d6576157d66155af565b50506001821b610cb7565b5060208310610133831016604e8410600b8410161715615804575081810a610cb7565b61580e8383615746565b8060001904821115615822576158226155af565b029392505050565b6000613e6f8383615789565b6000816000190483118215151615615850576158506155af565b500290565b60008251615867818460208701614777565b9190910192915050565b84815283602082015282604082015260806060820152600061440a60808301846147a3565b634e487b7160e01b600052602160045260246000fd5b6020808252602b908201527f496e697469616c697a61626c653a20636f6e7472616374206973206e6f74206960408201526a6e697469616c697a696e6760a81b606082015260800190565b6000821982111561590a5761590a6155af565b500190565b83815282602082015260606040820152600061592e60608301846147a3565b95945050505050565b60208082526025908201527f455243313135353a207472616e7366657220746f20746865207a65726f206164604082015264647265737360d81b606082015260800190565b6020808252602a908201527f455243313135353a20696e73756666696369656e742062616c616e636520666f60408201526939103a3930b739b332b960b11b606082015260800190565b6040815260006159d96040830185614cbf565b828103602084015261592e8185614cbf565b6000602082840312156159fd57600080fd5b5051919050565b76020b1b1b2b9b9a1b7b73a3937b61d1030b1b1b7bab73a1604d1b815260008351615a36816017850160208801614777565b7001034b99036b4b9b9b4b733903937b6329607d1b6017918401918201528351615a67816028840160208801614777565b01602801949350505050565b6020808252600190820152600360fc1b604082015260600190565b6001600160a01b03868116825285166020820152604081018490526060810183905260a0608082018190526000906139f6908301846147a3565b600060208284031215615ada57600080fd5b8151613e6f816146f7565b600060033d1115611a265760046000803e5060005160e01c90565b600060443d1015615b0e5790565b6040516003193d81016004833e81513d6001600160401b038083116024840183101715615b3d57505050505090565b8285019150815181811115615b555750505050505090565b843d8701016020828501011115615b6f5750505050505090565b615b7e602082860101876145a7565b509095945050505050565b60208082526028908201527f455243313135353a204552433131353552656365697665722072656a656374656040820152676420746f6b656e7360c01b606082015260800190565b6001600160a01b0386811682528516602082015260a060408201819052600090615bfd90830186614cbf565b8281036060840152615c0f8186614cbf565b90508281036080840152615c2381856147a3565b98975050505050505050565b600081615c3e57615c3e6155af565b50600019019056fec3d58168c5ae7397731d063d5bbf3d657854427343f4c083240f7aacaa2d0f6279da588818fa1bb747c46ac45fd0af16861a77c5222cf5ac4538360ca4f77a2cd5bbb2f0fbfc1d5938ca13cabd3156d362f7862fa87504c8d589f5e8f2cbc45346756e6374696f6e206d7573742062652063616c6c6564207468726f75676820bdde33eca765abe07e416fa5225f9a5dbc393366c8bbf45df689e69ee318a934189ab7a9244df0848122154315af71fe140f3db0fe014031783b0946b8c9d2e3360894a13ba1a3210667c828492db98dca3e2076cc3735a920a3ca505d382bbcf48dee1a72497b9e734e498e1b3086c0d2dbcca13f16f15848f974469f906bbf7804d923f43a17d325d77e781528e0793b2edd9890ab45fc64efd7b4b427744c7f26b83ff96e1f2b6a682f133852f6798a09c465da95921460cefb384740249865d7a28e3265b37a6474929f336521b332c1681b933f6cb9f3376673440d862a416464726573733a206c6f772d6c6576656c2064656c65676174652063616c6c206661696c656498db8a220cd0f09badce9f22d0ba7e93edb3d404448cc3560d391ab096ad16e94bbc247fc4736523c8bdd1853fee2acfa817d663f8f4422b13e78ebf99e204a2ddf79b8d2110dbe281cf3bb7762d508cea586c974794c8fc949d41b0db1145130ce23c3e399818cfee81a7ab0880f714e53d7672b08df0fa62f2843416e1ea09a2646970667358221220b06a3e73002245f897bc54c1c37ba815be79aaee9abc379a0874a6fad1b21efe64736f6c634300080d0033",
  "linkReferences": {},
  "deployedLinkReferences": {}
}