{
  "_format": "hh-sol-artifact-1",
  "contractName": "Project",
  "sourceName": "contracts/Project.sol",
  "abi": [
    {
      "inputs": [],
      "stateMutability": "nonpayable",
      "type": "constructor"
    },
    {
      "anonymous": false,
      "inputs": [
        {
          "indexed": true,
          "internalType": "address",
          "name": "from",
          "type": "address"
        },
        {
          "indexed": true,
          "internalType": "uint256",
          "name": "tokenId",
          "type": "uint256"
        },
        {
          "indexed": false,
          "internalType": "uint256",
          "name": "amount",
          "type": "uint256"
        },
        {
          "indexed": true,
          "internalType": "enum AdminActionReason",
          "name": "reason",
          "type": "uint8"
        }
      ],
      "name": "AdminBurn",
      "type": "event"
    },
    {
      "anonymous": false,
      "inputs": [
        {
          "indexed": false,
          "internalType": "address",
          "name": "previousAdmin",
          "type": "address"
        },
        {
          "indexed": false,
          "internalType": "address",
          "name": "newAdmin",
          "type": "address"
        }
      ],
      "name": "AdminChanged",
      "type": "event"
    },
    {
      "anonymous": false,
      "inputs": [
        {
          "indexed": true,
          "internalType": "address",
          "name": "from",
          "type": "address"
        },
        {
          "indexed": false,
          "internalType": "address",
          "name": "to",
          "type": "address"
        },
        {
          "indexed": true,
          "internalType": "uint256",
          "name": "tokenId",
          "type": "uint256"
        },
        {
          "indexed": false,
          "internalType": "uint256",
          "name": "amount",
          "type": "uint256"
        },
        {
          "indexed": true,
          "internalType": "enum AdminActionReason",
          "name": "reason",
          "type": "uint8"
        }
      ],
      "name": "AdminClawback",
      "type": "event"
    },
    {
      "anonymous": false,
      "inputs": [
        {
          "indexed": true,
          "internalType": "address",
          "name": "account",
          "type": "address"
        },
        {
          "indexed": true,
          "internalType": "address",
          "name": "operator",
          "type": "address"
        },
        {
          "indexed": false,
          "internalType": "bool",
          "name": "approved",
          "type": "bool"
        }
      ],
      "name": "ApprovalForAll",
      "type": "event"
    },
    {
      "anonymous": false,
      "inputs": [
        {
          "indexed": true,
          "internalType": "address",
          "name": "beacon",
          "type": "address"
        }
      ],
      "name": "BeaconUpgraded",
      "type": "event"
    },
    {
      "anonymous": false,
      "inputs": [
        {
          "indexed": true,
          "internalType": "address",
          "name": "account",
          "type": "address"
        },
        {
          "indexed": true,
          "internalType": "uint256",
          "name": "tokenId",
          "type": "uint256"
        },
        {
          "indexed": false,
          "internalType": "uint256",
          "name": "amount",
          "type": "uint256"
        },
        {
          "indexed": false,
          "internalType": "string",
          "name": "reason",
          "type": "string"
        },
        {
          "indexed": false,
          "internalType": "bytes",
          "name": "data",
          "type": "bytes"
        }
      ],
      "name": "CancelledCredits",
      "type": "event"
    },
    {
      "anonymous": false,
      "inputs": [],
      "name": "EIP712DomainChanged",
      "type": "event"
    },
    {
      "anonymous": false,
      "inputs": [
        {
          "indexed": true,
          "internalType": "uint256",
          "name": "exAnteTokenId",
          "type": "uint256"
        },
        {
          "indexed": true,
          "internalType": "uint256",
          "name": "exPostTokenId",
          "type": "uint256"
        },
        {
          "indexed": true,
          "internalType": "address",
          "name": "account",
          "type": "address"
        },
        {
          "indexed": false,
          "internalType": "uint256",
          "name": "amount",
          "type": "uint256"
        }
      ],
      "name": "ExAnteMinted",
      "type": "event"
    },
    {
      "anonymous": false,
      "inputs": [
        {
          "indexed": true,
          "internalType": "uint256",
          "name": "tokenId",
          "type": "uint256"
        },
        {
          "indexed": false,
          "internalType": "uint256",
          "name": "estimatedAmount",
          "type": "uint256"
        },
        {
          "indexed": false,
          "internalType": "uint256",
          "name": "verificationPeriodStart",
          "type": "uint256"
        },
        {
          "indexed": false,
          "internalType": "uint256",
          "name": "verificationPeriodEnd",
          "type": "uint256"
        },
        {
          "indexed": false,
          "internalType": "string",
          "name": "serialization",
          "type": "string"
        }
      ],
      "name": "ExPostCreated",
      "type": "event"
    },
    {
      "anonymous": false,
      "inputs": [
        {
          "indexed": true,
          "internalType": "uint256",
          "name": "tokenId",
          "type": "uint256"
        },
        {
          "indexed": false,
          "internalType": "uint256",
          "name": "amount",
          "type": "uint256"
        },
        {
          "indexed": false,
          "internalType": "uint256",
          "name": "amountToAnteHolders",
          "type": "uint256"
        },
        {
          "indexed": false,
          "internalType": "uint256",
          "name": "verificationPeriodStart",
          "type": "uint256"
        },
        {
          "indexed": false,
          "internalType": "uint256",
          "name": "verificationPeriodEnd",
          "type": "uint256"
        },
        {
          "indexed": false,
          "internalType": "string",
          "name": "monitoringReport",
          "type": "string"
        }
      ],
      "name": "ExPostVerifiedAndMinted",
      "type": "event"
    },
    {
      "anonymous": false,
      "inputs": [
        {
          "indexed": true,
          "internalType": "address",
          "name": "account",
          "type": "address"
        },
        {
          "indexed": true,
          "internalType": "uint256",
          "name": "exPostTokenId",
          "type": "uint256"
        },
        {
          "indexed": false,
          "internalType": "uint256",
          "name": "exPostAmountReceived",
          "type": "uint256"
        },
        {
          "indexed": false,
          "internalType": "uint256",
          "name": "exAnteAmountBurned",
          "type": "uint256"
        }
      ],
      "name": "ExchangeAnteForPost",
      "type": "event"
    },
    {
      "anonymous": false,
      "inputs": [
        {
          "indexed": false,
          "internalType": "uint8",
          "name": "version",
          "type": "uint8"
        }
      ],
      "name": "Initialized",
      "type": "event"
    },
    {
      "anonymous": false,
      "inputs": [
        {
          "indexed": false,
          "internalType": "address",
          "name": "account",
          "type": "address"
        }
      ],
      "name": "Paused",
      "type": "event"
    },
    {
      "anonymous": false,
      "inputs": [
        {
          "indexed": true,
          "internalType": "address",
          "name": "account",
          "type": "address"
        },
        {
          "indexed": true,
          "internalType": "uint256",
          "name": "tokenId",
          "type": "uint256"
        },
        {
          "indexed": false,
          "internalType": "uint256",
          "name": "amount",
          "type": "uint256"
        },
        {
          "indexed": false,
          "internalType": "uint256",
          "name": "nftTokenId",
          "type": "uint256"
        },
        {
          "indexed": false,
          "internalType": "bytes",
          "name": "data",
          "type": "bytes"
        }
      ],
      "name": "RetiredVintage",
      "type": "event"
    },
    {
      "anonymous": false,
      "inputs": [
        {
          "indexed": true,
          "internalType": "bytes32",
          "name": "role",
          "type": "bytes32"
        },
        {
          "indexed": true,
          "internalType": "bytes32",
          "name": "previousAdminRole",
          "type": "bytes32"
        },
        {
          "indexed": true,
          "internalType": "bytes32",
          "name": "newAdminRole",
          "type": "bytes32"
        }
      ],
      "name": "RoleAdminChanged",
      "type": "event"
    },
    {
      "anonymous": false,
      "inputs": [
        {
          "indexed": true,
          "internalType": "bytes32",
          "name": "role",
          "type": "bytes32"
        },
        {
          "indexed": true,
          "internalType": "address",
          "name": "account",
          "type": "address"
        },
        {
          "indexed": true,
          "internalType": "address",
          "name": "sender",
          "type": "address"
        }
      ],
      "name": "RoleGranted",
      "type": "event"
    },
    {
      "anonymous": false,
      "inputs": [
        {
          "indexed": true,
          "internalType": "bytes32",
          "name": "role",
          "type": "bytes32"
        },
        {
          "indexed": true,
          "internalType": "address",
          "name": "account",
          "type": "address"
        },
        {
          "indexed": true,
          "internalType": "address",
          "name": "sender",
          "type": "address"
        }
      ],
      "name": "RoleRevoked",
      "type": "event"
    },
    {
      "anonymous": false,
      "inputs": [
        {
          "indexed": true,
          "internalType": "address",
          "name": "operator",
          "type": "address"
        },
        {
          "indexed": true,
          "internalType": "address",
          "name": "from",
          "type": "address"
        },
        {
          "indexed": true,
          "internalType": "address",
          "name": "to",
          "type": "address"
        },
        {
          "indexed": false,
          "internalType": "uint256[]",
          "name": "ids",
          "type": "uint256[]"
        },
        {
          "indexed": false,
          "internalType": "uint256[]",
          "name": "values",
          "type": "uint256[]"
        }
      ],
      "name": "TransferBatch",
      "type": "event"
    },
    {
      "anonymous": false,
      "inputs": [
        {
          "indexed": false,
          "internalType": "bytes",
          "name": "signature",
          "type": "bytes"
        },
        {
          "components": [
            {
              "internalType": "uint256",
              "name": "deadline",
              "type": "uint256"
            },
            {
              "internalType": "string",
              "name": "description",
              "type": "string"
            },
            {
              "internalType": "address",
              "name": "signer",
              "type": "address"
            },
            {
              "internalType": "address",
              "name": "to",
              "type": "address"
            },
            {
              "internalType": "uint256",
              "name": "tokenId",
              "type": "uint256"
            },
            {
              "internalType": "uint256",
              "name": "amount",
              "type": "uint256"
            },
            {
              "internalType": "uint256",
              "name": "nonce",
              "type": "uint256"
            }
          ],
          "indexed": false,
          "internalType": "struct signatureTransferPayload",
          "name": "payload",
          "type": "tuple"
        }
      ],
      "name": "TransferSignatureValid",
      "type": "event"
    },
    {
      "anonymous": false,
      "inputs": [
        {
          "indexed": true,
          "internalType": "address",
          "name": "operator",
          "type": "address"
        },
        {
          "indexed": true,
          "internalType": "address",
          "name": "from",
          "type": "address"
        },
        {
          "indexed": true,
          "internalType": "address",
          "name": "to",
          "type": "address"
        },
        {
          "indexed": false,
          "internalType": "uint256",
          "name": "id",
          "type": "uint256"
        },
        {
          "indexed": false,
          "internalType": "uint256",
          "name": "value",
          "type": "uint256"
        }
      ],
      "name": "TransferSingle",
      "type": "event"
    },
    {
      "anonymous": false,
      "inputs": [
        {
          "indexed": false,
          "internalType": "string",
          "name": "value",
          "type": "string"
        },
        {
          "indexed": true,
          "internalType": "uint256",
          "name": "id",
          "type": "uint256"
        }
      ],
      "name": "URI",
      "type": "event"
    },
    {
      "anonymous": false,
      "inputs": [
        {
          "indexed": false,
          "internalType": "address",
          "name": "account",
          "type": "address"
        }
      ],
      "name": "Unpaused",
      "type": "event"
    },
    {
      "anonymous": false,
      "inputs": [
        {
          "indexed": true,
          "internalType": "address",
          "name": "implementation",
          "type": "address"
        }
      ],
      "name": "Upgraded",
      "type": "event"
    },
    {
      "anonymous": false,
      "inputs": [
        {
          "indexed": true,
          "internalType": "uint256",
          "name": "tokenId",
          "type": "uint256"
        },
        {
          "indexed": false,
          "internalType": "uint256",
          "name": "newEstimate",
          "type": "uint256"
        },
        {
          "indexed": false,
          "internalType": "uint256",
          "name": "oldEstimate",
          "type": "uint256"
        },
        {
          "indexed": true,
          "internalType": "enum AdminActionReason",
          "name": "reason",
          "type": "uint8"
        }
      ],
      "name": "VintageMitigationEstimateChanged",
      "type": "event"
    },
    {
      "inputs": [],
      "name": "ANTE_MINTER_ROLE",
      "outputs": [
        {
          "internalType": "bytes32",
          "name": "",
          "type": "bytes32"
        }
      ],
      "stateMutability": "view",
      "type": "function"
    },
    {
      "inputs": [],
      "name": "BLACKLISTED",
      "outputs": [
        {
          "internalType": "bytes32",
          "name": "",
          "type": "bytes32"
        }
      ],
      "stateMutability": "view",
      "type": "function"
    },
    {
      "inputs": [],
      "name": "BLACKLISTER_ROLE",
      "outputs": [
        {
          "internalType": "bytes32",
          "name": "",
          "type": "bytes32"
        }
      ],
      "stateMutability": "view",
      "type": "function"
    },
    {
      "inputs": [],
      "name": "BURNER_ROLE",
      "outputs": [
        {
          "internalType": "bytes32",
          "name": "",
          "type": "bytes32"
        }
      ],
      "stateMutability": "view",
      "type": "function"
    },
    {
      "inputs": [],
      "name": "CLAWBACK_ROLE",
      "outputs": [
        {
          "internalType": "bytes32",
          "name": "",
          "type": "bytes32"
        }
      ],
      "stateMutability": "view",
      "type": "function"
    },
    {
      "inputs": [],
      "name": "DEFAULT_ADMIN_ROLE",
      "outputs": [
        {
          "internalType": "bytes32",
          "name": "",
          "type": "bytes32"
        }
      ],
      "stateMutability": "view",
      "type": "function"
    },
    {
      "inputs": [],
      "name": "MINTER_ROLE",
      "outputs": [
        {
          "internalType": "bytes32",
          "name": "",
          "type": "bytes32"
        }
      ],
      "stateMutability": "view",
      "type": "function"
    },
    {
      "inputs": [],
      "name": "PAUSER_ROLE",
      "outputs": [
        {
          "internalType": "bytes32",
          "name": "",
          "type": "bytes32"
        }
      ],
      "stateMutability": "view",
      "type": "function"
    },
    {
      "inputs": [],
      "name": "POST_MINTER_ROLE",
      "outputs": [
        {
          "internalType": "bytes32",
          "name": "",
          "type": "bytes32"
        }
      ],
      "stateMutability": "view",
      "type": "function"
    },
    {
      "inputs": [],
      "name": "UPGRADER_ROLE",
      "outputs": [
        {
          "internalType": "bytes32",
          "name": "",
          "type": "bytes32"
        }
      ],
      "stateMutability": "view",
      "type": "function"
    },
    {
      "inputs": [],
      "name": "URI_SETTER_ROLE",
      "outputs": [
        {
          "internalType": "bytes32",
          "name": "",
          "type": "bytes32"
        }
      ],
      "stateMutability": "view",
      "type": "function"
    },
    {
      "inputs": [],
      "name": "VERIFIER_ROLE",
      "outputs": [
        {
          "internalType": "bytes32",
          "name": "",
          "type": "bytes32"
        }
      ],
      "stateMutability": "view",
      "type": "function"
    },
    {
      "inputs": [
        {
          "internalType": "address",
          "name": "_contractRegistry",
          "type": "address"
        },
        {
          "internalType": "uint256",
          "name": "_projectId",
          "type": "uint256"
        },
        {
          "internalType": "string",
          "name": "_projectName",
          "type": "string"
        },
        {
          "internalType": "string",
          "name": "_projectUri",
          "type": "string"
        },
        {
          "internalType": "string",
          "name": "_methodology",
          "type": "string"
        }
      ],
      "name": "__ProjectStorage_init",
      "outputs": [],
      "stateMutability": "nonpayable",
      "type": "function"
    },
    {
      "inputs": [
        {
          "internalType": "address",
          "name": "from",
          "type": "address"
        },
        {
          "internalType": "address",
          "name": "to",
          "type": "address"
        },
        {
          "internalType": "uint256",
          "name": "tokenId",
          "type": "uint256"
        },
        {
          "internalType": "uint256",
          "name": "amount",
          "type": "uint256"
        },
        {
          "internalType": "enum AdminActionReason",
          "name": "reason",
          "type": "uint8"
        }
      ],
      "name": "adminClawback",
      "outputs": [],
      "stateMutability": "nonpayable",
      "type": "function"
    },
    {
      "inputs": [
        {
          "internalType": "address",
          "name": "account",
          "type": "address"
        },
        {
          "internalType": "uint256",
          "name": "id",
          "type": "uint256"
        }
      ],
      "name": "balanceOf",
      "outputs": [
        {
          "internalType": "uint256",
          "name": "",
          "type": "uint256"
        }
      ],
      "stateMutability": "view",
      "type": "function"
    },
    {
      "inputs": [
        {
          "internalType": "address[]",
          "name": "accounts",
          "type": "address[]"
        },
        {
          "internalType": "uint256[]",
          "name": "ids",
          "type": "uint256[]"
        }
      ],
      "name": "balanceOfBatch",
      "outputs": [
        {
          "internalType": "uint256[]",
          "name": "",
          "type": "uint256[]"
        }
      ],
      "stateMutability": "view",
      "type": "function"
    },
    {
      "inputs": [
        {
          "internalType": "address",
          "name": "account",
          "type": "address"
        },
        {
          "internalType": "uint256",
          "name": "tokenId",
          "type": "uint256"
        },
        {
          "internalType": "uint256",
          "name": "amount",
          "type": "uint256"
        }
      ],
      "name": "burnFromAccount",
      "outputs": [],
      "stateMutability": "nonpayable",
      "type": "function"
    },
    {
      "inputs": [
        {
          "internalType": "bytes",
          "name": "signature",
          "type": "bytes"
        },
        {
          "components": [
            {
              "internalType": "uint256",
              "name": "deadline",
              "type": "uint256"
            },
            {
              "internalType": "string",
              "name": "description",
              "type": "string"
            },
            {
              "internalType": "address",
              "name": "signer",
              "type": "address"
            },
            {
              "internalType": "address",
              "name": "to",
              "type": "address"
            },
            {
              "internalType": "uint256",
              "name": "tokenId",
              "type": "uint256"
            },
            {
              "internalType": "uint256",
              "name": "amount",
              "type": "uint256"
            },
            {
              "internalType": "uint256",
              "name": "nonce",
              "type": "uint256"
            }
          ],
          "internalType": "struct signatureTransferPayload",
          "name": "payload",
          "type": "tuple"
        },
        {
          "internalType": "string",
          "name": "comment",
          "type": "string"
        },
        {
          "internalType": "bytes",
          "name": "data",
          "type": "bytes"
        }
      ],
      "name": "cancelCreditsFromSignature",
      "outputs": [],
      "stateMutability": "nonpayable",
      "type": "function"
    },
    {
      "inputs": [],
      "name": "contractRegistry",
      "outputs": [
        {
          "internalType": "address",
          "name": "",
          "type": "address"
        }
      ],
      "stateMutability": "view",
      "type": "function"
    },
    {
      "inputs": [
        {
          "internalType": "uint256",
          "name": "estAmount",
          "type": "uint256"
        },
        {
          "internalType": "uint256",
          "name": "verificationPeriodStart",
          "type": "uint256"
        },
        {
          "internalType": "uint256",
          "name": "verificationPeriodEnd",
          "type": "uint256"
        },
        {
          "internalType": "string",
          "name": "serialization",
          "type": "string"
        }
      ],
      "name": "createExPostVintage",
      "outputs": [],
      "stateMutability": "nonpayable",
      "type": "function"
    },
    {
      "inputs": [
        {
          "components": [
            {
              "internalType": "string",
              "name": "serialization",
              "type": "string"
            },
            {
              "internalType": "uint256",
              "name": "estMitigations",
              "type": "uint256"
            },
            {
              "internalType": "uint256",
              "name": "verificationPeriodStart",
              "type": "uint256"
            },
            {
              "internalType": "uint256",
              "name": "verificationPeriodEnd",
              "type": "uint256"
            },
            {
              "internalType": "uint256",
              "name": "lastVerificationTimestamp",
              "type": "uint256"
            }
          ],
          "internalType": "struct VintageData[]",
          "name": "vintages",
          "type": "tuple[]"
        }
      ],
      "name": "createExPostVintageBatch",
      "outputs": [],
      "stateMutability": "nonpayable",
      "type": "function"
    },
    {
      "inputs": [
        {
          "internalType": "address[]",
          "name": "accounts",
          "type": "address[]"
        },
        {
          "internalType": "uint256[]",
          "name": "tokenIds",
          "type": "uint256[]"
        },
        {
          "internalType": "uint256",
          "name": "decimals",
          "type": "uint256"
        },
        {
          "internalType": "bytes",
          "name": "data",
          "type": "bytes"
        }
      ],
      "name": "debaseTCO2",
      "outputs": [],
      "stateMutability": "nonpayable",
      "type": "function"
    },
    {
      "inputs": [],
      "name": "eip712Domain",
      "outputs": [
        {
          "internalType": "bytes1",
          "name": "fields",
          "type": "bytes1"
        },
        {
          "internalType": "string",
          "name": "name",
          "type": "string"
        },
        {
          "internalType": "string",
          "name": "version",
          "type": "string"
        },
        {
          "internalType": "uint256",
          "name": "chainId",
          "type": "uint256"
        },
        {
          "internalType": "address",
          "name": "verifyingContract",
          "type": "address"
        },
        {
          "internalType": "bytes32",
          "name": "salt",
          "type": "bytes32"
        },
        {
          "internalType": "uint256[]",
          "name": "extensions",
          "type": "uint256[]"
        }
      ],
      "stateMutability": "view",
      "type": "function"
    },
    {
      "inputs": [
        {
          "internalType": "uint256",
          "name": "",
          "type": "uint256"
        }
      ],
      "name": "exAnteToExPostTokenId",
      "outputs": [
        {
          "internalType": "uint256",
          "name": "",
          "type": "uint256"
        }
      ],
      "stateMutability": "view",
      "type": "function"
    },
    {
      "inputs": [
        {
          "internalType": "uint256",
          "name": "",
          "type": "uint256"
        }
      ],
      "name": "exPostToExAnteTokenId",
      "outputs": [
        {
          "internalType": "uint256",
          "name": "",
          "type": "uint256"
        }
      ],
      "stateMutability": "view",
      "type": "function"
    },
    {
      "inputs": [
        {
          "internalType": "uint256",
          "name": "",
          "type": "uint256"
        }
      ],
      "name": "exPostVintageMapping",
      "outputs": [
        {
          "internalType": "string",
          "name": "serialization",
          "type": "string"
        },
        {
          "internalType": "uint256",
          "name": "estMitigations",
          "type": "uint256"
        },
        {
          "internalType": "uint256",
          "name": "verificationPeriodStart",
          "type": "uint256"
        },
        {
          "internalType": "uint256",
          "name": "verificationPeriodEnd",
          "type": "uint256"
        },
        {
          "internalType": "uint256",
          "name": "lastVerificationTimestamp",
          "type": "uint256"
        }
      ],
      "stateMutability": "view",
      "type": "function"
    },
    {
      "inputs": [
        {
          "internalType": "uint256",
          "name": "id",
          "type": "uint256"
        }
      ],
      "name": "exists",
      "outputs": [
        {
          "internalType": "bool",
          "name": "",
          "type": "bool"
        }
      ],
      "stateMutability": "view",
      "type": "function"
    },
    {
      "inputs": [
        {
          "internalType": "bytes32",
          "name": "role",
          "type": "bytes32"
        }
      ],
      "name": "getRoleAdmin",
      "outputs": [
        {
          "internalType": "bytes32",
          "name": "",
          "type": "bytes32"
        }
      ],
      "stateMutability": "view",
      "type": "function"
    },
    {
      "inputs": [
        {
          "internalType": "bytes32",
          "name": "role",
          "type": "bytes32"
        },
        {
          "internalType": "address",
          "name": "account",
          "type": "address"
        }
      ],
      "name": "grantRole",
      "outputs": [],
      "stateMutability": "nonpayable",
      "type": "function"
    },
    {
      "inputs": [
        {
          "internalType": "bytes32",
          "name": "role",
          "type": "bytes32"
        },
        {
          "internalType": "address",
          "name": "account",
          "type": "address"
        }
      ],
      "name": "hasRole",
      "outputs": [
        {
          "internalType": "bool",
          "name": "",
          "type": "bool"
        }
      ],
      "stateMutability": "view",
      "type": "function"
    },
    {
      "inputs": [
        {
          "internalType": "address",
          "name": "_contractRegistry",
          "type": "address"
        },
        {
          "internalType": "address",
          "name": "_owner",
          "type": "address"
        },
        {
          "internalType": "uint256",
          "name": "_projectId",
          "type": "uint256"
        },
        {
          "internalType": "string",
          "name": "_projectName",
          "type": "string"
        },
        {
          "internalType": "string",
          "name": "_projectMethodology",
          "type": "string"
        },
        {
          "internalType": "string",
          "name": "_projectUri",
          "type": "string"
        }
      ],
      "name": "initialize",
      "outputs": [],
      "stateMutability": "nonpayable",
      "type": "function"
    },
    {
      "inputs": [
        {
          "internalType": "address",
          "name": "account",
          "type": "address"
        },
        {
          "internalType": "address",
          "name": "operator",
          "type": "address"
        }
      ],
      "name": "isApprovedForAll",
      "outputs": [
        {
          "internalType": "bool",
          "name": "",
          "type": "bool"
        }
      ],
      "stateMutability": "view",
      "type": "function"
    },
    {
      "inputs": [
        {
          "internalType": "uint256",
          "name": "tokenId",
          "type": "uint256"
        }
      ],
      "name": "isExPostToken",
      "outputs": [
        {
          "internalType": "bool",
          "name": "",
          "type": "bool"
        }
      ],
      "stateMutability": "view",
      "type": "function"
    },
    {
      "inputs": [],
      "name": "maxAntePercentage",
      "outputs": [
        {
          "internalType": "uint8",
          "name": "",
          "type": "uint8"
        }
      ],
      "stateMutability": "view",
      "type": "function"
    },
    {
      "inputs": [],
      "name": "methodology",
      "outputs": [
        {
          "internalType": "string",
          "name": "",
          "type": "string"
        }
      ],
      "stateMutability": "view",
      "type": "function"
    },
    {
      "inputs": [
        {
          "internalType": "address",
          "name": "account",
          "type": "address"
        },
        {
          "internalType": "uint256",
          "name": "exPostTokenId",
          "type": "uint256"
        },
        {
          "internalType": "uint256",
          "name": "amount",
          "type": "uint256"
        },
        {
          "internalType": "bytes",
          "name": "data",
          "type": "bytes"
        }
      ],
      "name": "mintExAnte",
      "outputs": [],
      "stateMutability": "nonpayable",
      "type": "function"
    },
    {
      "inputs": [
        {
          "internalType": "address",
          "name": "",
          "type": "address"
        },
        {
          "internalType": "address",
          "name": "",
          "type": "address"
        },
        {
          "internalType": "uint256[]",
          "name": "",
          "type": "uint256[]"
        },
        {
          "internalType": "uint256[]",
          "name": "",
          "type": "uint256[]"
        },
        {
          "internalType": "bytes",
          "name": "",
          "type": "bytes"
        }
      ],
      "name": "onERC1155BatchReceived",
      "outputs": [
        {
          "internalType": "bytes4",
          "name": "",
          "type": "bytes4"
        }
      ],
      "stateMutability": "nonpayable",
      "type": "function"
    },
    {
      "inputs": [
        {
          "internalType": "address",
          "name": "",
          "type": "address"
        },
        {
          "internalType": "address",
          "name": "",
          "type": "address"
        },
        {
          "internalType": "uint256",
          "name": "",
          "type": "uint256"
        },
        {
          "internalType": "uint256",
          "name": "",
          "type": "uint256"
        },
        {
          "internalType": "bytes",
          "name": "",
          "type": "bytes"
        }
      ],
      "name": "onERC1155Received",
      "outputs": [
        {
          "internalType": "bytes4",
          "name": "",
          "type": "bytes4"
        }
      ],
      "stateMutability": "nonpayable",
      "type": "function"
    },
    {
      "inputs": [],
      "name": "pause",
      "outputs": [],
      "stateMutability": "nonpayable",
      "type": "function"
    },
    {
      "inputs": [],
      "name": "paused",
      "outputs": [
        {
          "internalType": "bool",
          "name": "",
          "type": "bool"
        }
      ],
      "stateMutability": "view",
      "type": "function"
    },
    {
      "inputs": [],
      "name": "projectId",
      "outputs": [
        {
          "internalType": "uint256",
          "name": "",
          "type": "uint256"
        }
      ],
      "stateMutability": "view",
      "type": "function"
    },
    {
      "inputs": [],
      "name": "projectName",
      "outputs": [
        {
          "internalType": "string",
          "name": "",
          "type": "string"
        }
      ],
      "stateMutability": "view",
      "type": "function"
    },
    {
      "inputs": [],
      "name": "projectUri",
      "outputs": [
        {
          "internalType": "string",
          "name": "",
          "type": "string"
        }
      ],
      "stateMutability": "view",
      "type": "function"
    },
    {
      "inputs": [],
      "name": "proxiableUUID",
      "outputs": [
        {
          "internalType": "bytes32",
          "name": "",
          "type": "bytes32"
        }
      ],
      "stateMutability": "view",
      "type": "function"
    },
    {
      "inputs": [
        {
          "internalType": "bytes32",
          "name": "role",
          "type": "bytes32"
        },
        {
          "internalType": "address",
          "name": "account",
          "type": "address"
        }
      ],
      "name": "renounceRole",
      "outputs": [],
      "stateMutability": "nonpayable",
      "type": "function"
    },
    {
      "inputs": [
        {
          "internalType": "uint256",
          "name": "tokenId",
          "type": "uint256"
        },
        {
          "internalType": "uint256",
          "name": "amount",
          "type": "uint256"
        },
        {
          "internalType": "address",
          "name": "beneficiary",
          "type": "address"
        },
        {
          "internalType": "string",
          "name": "retireeName",
          "type": "string"
        },
        {
          "internalType": "string",
          "name": "customUri",
          "type": "string"
        },
        {
          "internalType": "string",
          "name": "comment",
          "type": "string"
        },
        {
          "internalType": "bytes",
          "name": "data",
          "type": "bytes"
        }
      ],
      "name": "retire",
      "outputs": [
        {
          "internalType": "uint256",
          "name": "nftTokenId",
          "type": "uint256"
        }
      ],
      "stateMutability": "nonpayable",
      "type": "function"
    },
    {
      "inputs": [
        {
          "internalType": "bytes",
          "name": "signature",
          "type": "bytes"
        },
        {
          "components": [
            {
              "internalType": "uint256",
              "name": "deadline",
              "type": "uint256"
            },
            {
              "internalType": "string",
              "name": "description",
              "type": "string"
            },
            {
              "internalType": "address",
              "name": "signer",
              "type": "address"
            },
            {
              "internalType": "address",
              "name": "to",
              "type": "address"
            },
            {
              "internalType": "uint256",
              "name": "tokenId",
              "type": "uint256"
            },
            {
              "internalType": "uint256",
              "name": "amount",
              "type": "uint256"
            },
            {
              "internalType": "uint256",
              "name": "nonce",
              "type": "uint256"
            }
          ],
          "internalType": "struct signatureTransferPayload",
          "name": "payload",
          "type": "tuple"
        },
        {
          "internalType": "string",
          "name": "retireeName",
          "type": "string"
        },
        {
          "internalType": "string",
          "name": "customUri",
          "type": "string"
        },
        {
          "internalType": "string",
          "name": "comment",
          "type": "string"
        },
        {
          "internalType": "bytes",
          "name": "data",
          "type": "bytes"
        }
      ],
      "name": "retireFromSignature",
      "outputs": [
        {
          "internalType": "uint256",
          "name": "nftTokenId",
          "type": "uint256"
        }
      ],
      "stateMutability": "nonpayable",
      "type": "function"
    },
    {
      "inputs": [
        {
          "internalType": "uint256",
          "name": "",
          "type": "uint256"
        }
      ],
      "name": "retirementMapping",
      "outputs": [
        {
          "internalType": "address",
          "name": "retiree",
          "type": "address"
        },
        {
          "internalType": "uint256",
          "name": "amount",
          "type": "uint256"
        },
        {
          "internalType": "uint256",
          "name": "vintageTokenId",
          "type": "uint256"
        },
        {
          "internalType": "string",
          "name": "retireeName",
          "type": "string"
        },
        {
          "internalType": "string",
          "name": "customUri",
          "type": "string"
        },
        {
          "internalType": "string",
          "name": "comment",
          "type": "string"
        }
      ],
      "stateMutability": "view",
      "type": "function"
    },
    {
      "inputs": [
        {
          "internalType": "bytes32",
          "name": "role",
          "type": "bytes32"
        },
        {
          "internalType": "address",
          "name": "account",
          "type": "address"
        }
      ],
      "name": "revokeRole",
      "outputs": [],
      "stateMutability": "nonpayable",
      "type": "function"
    },
    {
      "inputs": [
        {
          "internalType": "address",
          "name": "from",
          "type": "address"
        },
        {
          "internalType": "address",
          "name": "to",
          "type": "address"
        },
        {
          "internalType": "uint256[]",
          "name": "ids",
          "type": "uint256[]"
        },
        {
          "internalType": "uint256[]",
          "name": "amounts",
          "type": "uint256[]"
        },
        {
          "internalType": "bytes",
          "name": "data",
          "type": "bytes"
        }
      ],
      "name": "safeBatchTransferFrom",
      "outputs": [],
      "stateMutability": "nonpayable",
      "type": "function"
    },
    {
      "inputs": [
        {
          "internalType": "address",
          "name": "from",
          "type": "address"
        },
        {
          "internalType": "address",
          "name": "to",
          "type": "address"
        },
        {
          "internalType": "uint256",
          "name": "id",
          "type": "uint256"
        },
        {
          "internalType": "uint256",
          "name": "amount",
          "type": "uint256"
        },
        {
          "internalType": "bytes",
          "name": "data",
          "type": "bytes"
        }
      ],
      "name": "safeTransferFrom",
      "outputs": [],
      "stateMutability": "nonpayable",
      "type": "function"
    },
    {
      "inputs": [
        {
          "internalType": "string",
          "name": "",
          "type": "string"
        }
      ],
      "name": "serializationToExPostTokenIdMapping",
      "outputs": [
        {
          "internalType": "uint256",
          "name": "",
          "type": "uint256"
        }
      ],
      "stateMutability": "view",
      "type": "function"
    },
    {
      "inputs": [
        {
          "internalType": "address",
          "name": "operator",
          "type": "address"
        },
        {
          "internalType": "bool",
          "name": "approved",
          "type": "bool"
        }
      ],
      "name": "setApprovalForAll",
      "outputs": [],
      "stateMutability": "nonpayable",
      "type": "function"
    },
    {
      "inputs": [
        {
          "internalType": "string",
          "name": "newuri",
          "type": "string"
        }
      ],
      "name": "setURI",
      "outputs": [],
      "stateMutability": "nonpayable",
      "type": "function"
    },
    {
      "inputs": [
        {
          "internalType": "address",
          "name": "",
          "type": "address"
        }
      ],
      "name": "signatureNonces",
      "outputs": [
        {
          "internalType": "uint32",
          "name": "",
          "type": "uint32"
        }
      ],
      "stateMutability": "view",
      "type": "function"
    },
    {
      "inputs": [
        {
          "internalType": "bytes4",
          "name": "interfaceId",
          "type": "bytes4"
        }
      ],
      "name": "supportsInterface",
      "outputs": [
        {
          "internalType": "bool",
          "name": "",
          "type": "bool"
        }
      ],
      "stateMutability": "view",
      "type": "function"
    },
    {
      "inputs": [],
      "name": "testUpgrade",
      "outputs": [
        {
          "internalType": "string",
          "name": "",
          "type": "string"
        }
      ],
      "stateMutability": "pure",
      "type": "function"
    },
    {
      "inputs": [],
      "name": "topTokenId",
      "outputs": [
        {
          "internalType": "uint256",
          "name": "",
          "type": "uint256"
        }
      ],
      "stateMutability": "view",
      "type": "function"
    },
    {
      "inputs": [
        {
          "internalType": "uint256",
          "name": "id",
          "type": "uint256"
        }
      ],
      "name": "totalSupply",
      "outputs": [
        {
          "internalType": "uint256",
          "name": "",
          "type": "uint256"
        }
      ],
      "stateMutability": "view",
      "type": "function"
    },
    {
      "inputs": [
        {
          "internalType": "bytes",
          "name": "signature",
          "type": "bytes"
        },
        {
          "components": [
            {
              "internalType": "uint256",
              "name": "deadline",
              "type": "uint256"
            },
            {
              "internalType": "string",
              "name": "description",
              "type": "string"
            },
            {
              "internalType": "address",
              "name": "signer",
              "type": "address"
            },
            {
              "internalType": "address",
              "name": "to",
              "type": "address"
            },
            {
              "internalType": "uint256",
              "name": "tokenId",
              "type": "uint256"
            },
            {
              "internalType": "uint256",
              "name": "amount",
              "type": "uint256"
            },
            {
              "internalType": "uint256",
              "name": "nonce",
              "type": "uint256"
            }
          ],
          "internalType": "struct signatureTransferPayload",
          "name": "payload",
          "type": "tuple"
        },
        {
          "internalType": "bytes",
          "name": "data",
          "type": "bytes"
        }
      ],
      "name": "transferFromSignature",
      "outputs": [],
      "stateMutability": "payable",
      "type": "function"
    },
    {
      "inputs": [],
      "name": "unpause",
      "outputs": [],
      "stateMutability": "nonpayable",
      "type": "function"
    },
    {
      "inputs": [
        {
          "internalType": "address",
          "name": "newImplementation",
          "type": "address"
        }
      ],
      "name": "upgradeTo",
      "outputs": [],
      "stateMutability": "nonpayable",
      "type": "function"
    },
    {
      "inputs": [
        {
          "internalType": "address",
          "name": "newImplementation",
          "type": "address"
        },
        {
          "internalType": "bytes",
          "name": "data",
          "type": "bytes"
        }
      ],
      "name": "upgradeToAndCall",
      "outputs": [],
      "stateMutability": "payable",
      "type": "function"
    },
    {
      "inputs": [
        {
          "internalType": "uint256",
          "name": "",
          "type": "uint256"
        }
      ],
      "name": "uri",
      "outputs": [
        {
          "internalType": "string",
          "name": "",
          "type": "string"
        }
      ],
      "stateMutability": "view",
      "type": "function"
    },
    {
      "inputs": [
        {
          "internalType": "address",
          "name": "verificationVault",
          "type": "address"
        },
        {
          "internalType": "uint256",
          "name": "tokenId",
          "type": "uint256"
        },
        {
          "internalType": "uint256",
          "name": "amountVerified",
          "type": "uint256"
        },
        {
          "internalType": "uint256",
          "name": "amountToAnteHolders",
          "type": "uint256"
        },
        {
          "internalType": "uint256",
          "name": "verificationPeriodStart",
          "type": "uint256"
        },
        {
          "internalType": "uint256",
          "name": "verificationPeriodEnd",
          "type": "uint256"
        },
        {
          "internalType": "string",
          "name": "monitoringReport",
          "type": "string"
        }
      ],
      "name": "verifyAndMintExPost",
      "outputs": [],
      "stateMutability": "nonpayable",
      "type": "function"
    }
  ],
  "bytecode": "0x60a0604052306080523480156200001557600080fd5b506200002062000026565b620000e7565b600054610100900460ff1615620000935760405162461bcd60e51b815260206004820152602760248201527f496e697469616c697a61626c653a20636f6e747261637420697320696e697469604482015266616c697a696e6760c81b606482015260840160405180910390fd5b60005460ff90811614620000e5576000805460ff191660ff9081179091556040519081527f7f26b83ff96e1f2b6a682f133852f6798a09c465da95921460cefb38474024989060200160405180910390a15b565b608051615e906200011f600039600081816114f201528181611532015281816118cf0152818161190f01526119870152615e906000f3fe6080604052600436106102dd5760003560e01c8062fdd58e146102e257806301139ca71461031557806301ffc9a71461033757806302fe5305146103675780630e89341c1461038757806310c1e7a1146103b457806322088ebf146103d4578063248a9ca3146103f4578063275d4dec14610414578063282c51f3146104345780632ea05e44146104685780632eb2c2d61461048a5780632f2ff15d146104aa5780633584c384146104ca57806336568abe146104f85780633659cfe6146105185780633f4ba83a146105385780633fafa1271461054d57806341a30d3c146105645780634e1273f4146105845780634f1ef286146105b15780634f558e79146105c457806352d1902d146105f357806354ff0795146106085780635c975abb146106415780635e3bbaab14610659578063610e70121461067b57806361eeb089146106a85780636929a19c146106bf5780636f63984d146106f1578063728e68e314610711578063748957de1461074257806379c27605146107575780637d41dd9e146107775780637f345710146107975780638456cb59146107b957806384b0196e146107ce5780638f76c1da146107f657806391d14854146108245780639a33e300146108445780639d6aed0b146108595780639eeb1d5014610887578063a0e1b1711461089c578063a1062771146108bc578063a217fddf146108dc578063a22cb465146108f1578063aa8b2ea714610911578063abf410e514610933578063af93ff7214610961578063bc197c8114610981578063bd85b039146109c6578063d5391393146109f3578063d547741f14610a27578063dbd8483d14610a47578063deb0420714610a90578063e36408d014610ab0578063e63ab1e914610ac3578063e7705db614610ae5578063e985e9c514610b07578063eda3b77b14610b50578063edc0b2e614610b70578063f23a6e6114610b92578063f242432a14610bbe578063f515e6f214610bde578063f72c0d8b14610c00575b600080fd5b3480156102ee57600080fd5b506103026102fd36600461454f565b610c22565b6040519081526020015b60405180910390f35b34801561032157600080fd5b50610335610330366004614653565b610cbd565b005b34801561034357600080fd5b5061035761035236600461471a565b610ef0565b604051901515815260200161030c565b34801561037357600080fd5b50610335610382366004614737565b610efb565b34801561039357600080fd5b506103a76103a236600461476b565b610f20565b60405161030c91906147dc565b3480156103c057600080fd5b506103356103cf3660046147ef565b610fb4565b3480156103e057600080fd5b506103356103ef3660046148a8565b6110ed565b34801561040057600080fd5b5061030261040f36600461476b565b611360565b34801561042057600080fd5b5061030261042f36600461495a565b611375565b34801561044057600080fd5b506103027f3c11d16cbaffd01df69ce1c404f6340ee057498f5f00246190ea54220576a84881565b34801561047457600080fd5b50610302600080516020615dfb83398151915281565b34801561049657600080fd5b506103356104a5366004614abe565b611401565b3480156104b657600080fd5b506103356104c5366004614b4d565b61144d565b3480156104d657600080fd5b506103026104e536600461476b565b6101fe6020526000908152604090205481565b34801561050457600080fd5b50610335610513366004614b4d565b61146e565b34801561052457600080fd5b50610335610533366004614b79565b6114e8565b34801561054457600080fd5b506103356115b0565b34801561055957600080fd5b506103026101f85481565b34801561057057600080fd5b5061033561057f366004614b94565b6115d0565b34801561059057600080fd5b506105a461059f366004614c02565b61179c565b60405161030c9190614d07565b6103356105bf366004614d1a565b6118c5565b3480156105d057600080fd5b506103576105df36600461476b565b600090815260fb6020526040902054151590565b3480156105ff57600080fd5b5061030261197a565b34801561061457600080fd5b50610302610623366004614737565b80516020818301810180516101ff8252928201919093012091525481565b34801561064d57600080fd5b5060c95460ff16610357565b34801561066557600080fd5b50610302600080516020615e1b83398151915281565b34801561068757600080fd5b506101f9546106969060ff1681565b60405160ff909116815260200161030c565b3480156106b457600080fd5b506103026101f75481565b3480156106cb57600080fd5b506106df6106da36600461476b565b611a29565b60405161030c96959493929190614d6a565b3480156106fd57600080fd5b5061035761070c36600461476b565b611c03565b34801561071d57600080fd5b5061073161072c36600461476b565b611c2a565b60405161030c959493929190614dbd565b34801561074e57600080fd5b506103a7611ce1565b34801561076357600080fd5b50610335610772366004614df4565b611d70565b34801561078357600080fd5b50610335610792366004614f54565b611e26565b3480156107a357600080fd5b50610302600080516020615d5483398151915281565b3480156107c557600080fd5b50610335612038565b3480156107da57600080fd5b506107e3612058565b60405161030c9796959493929190614fd5565b34801561080257600080fd5b5061030261081136600461476b565b6101fd6020526000908152604090205481565b34801561083057600080fd5b5061035761083f366004614b4d565b6120f8565b34801561085057600080fd5b506103a7612123565b34801561086557600080fd5b506040805180820190915260058152640605c605c760db1b60208201526103a7565b34801561089357600080fd5b506103a7612131565b3480156108a857600080fd5b506103356108b7366004615045565b61213f565b3480156108c857600080fd5b506103356108d7366004615086565b6122de565b3480156108e857600080fd5b50610302600081565b3480156108fd57600080fd5b5061033561090c3660046150f8565b6123fb565b34801561091d57600080fd5b50610302600080516020615d3483398151915281565b34801561093f57600080fd5b506101fb54610954906001600160a01b031681565b60405161030c9190615134565b34801561096d57600080fd5b5061030261097c366004615148565b612406565b34801561098d57600080fd5b506109ad61099c366004614abe565b63bc197c8160e01b95945050505050565b6040516001600160e01b0319909116815260200161030c565b3480156109d257600080fd5b506103026109e136600461476b565b600090815260fb602052604090205490565b3480156109ff57600080fd5b506103027f9f2df0fed2c77648de5860a4cc508cd0818c85b8b8a1ab4ceeef8d981c8956a681565b348015610a3357600080fd5b50610335610a42366004614b4d565b612615565b348015610a5357600080fd5b50610a7b610a62366004614b79565b6101c56020526000908152604090205463ffffffff1681565b60405163ffffffff909116815260200161030c565b348015610a9c57600080fd5b50610335610aab366004615227565b612631565b610335610abe366004615286565b6126c0565b348015610acf57600080fd5b50610302600080516020615d9483398151915281565b348015610af157600080fd5b50610302600080516020615e3b83398151915281565b348015610b1357600080fd5b50610357610b22366004615307565b6001600160a01b03918216600090815260666020908152604080832093909416825291909152205460ff1690565b348015610b5c57600080fd5b50610335610b6b366004615331565b6127fe565b348015610b7c57600080fd5b50610302600080516020615c9483398151915281565b348015610b9e57600080fd5b506109ad610bad366004615364565b63f23a6e6160e01b95945050505050565b348015610bca57600080fd5b50610335610bd9366004615364565b612827565b348015610bea57600080fd5b50610302600080516020615ddb83398151915281565b348015610c0c57600080fd5b50610302600080516020615cf483398151915281565b60006001600160a01b038316610c925760405162461bcd60e51b815260206004820152602a60248201527f455243313135353a2061646472657373207a65726f206973206e6f742061207660448201526930b634b21037bbb732b960b11b60648201526084015b60405180910390fd5b5060008181526065602090815260408083206001600160a01b03861684529091529020545b92915050565b600054610100900460ff1615808015610cdd5750600054600160ff909116105b80610cfe5750610cec3061286c565b158015610cfe575060005460ff166001145b610d1a5760405162461bcd60e51b8152600401610c89906153c8565b6000805460ff191660011790558015610d3d576000805461ff0019166101001790555b610d556040518060200160405280600081525061287b565b610d5d6128ab565b610d656128d4565b610d6d6128ab565b610d756128ab565b610dc36040518060400160405280600f81526020016e436172626f6e20526567697374727960881b81525060405180604001604052806005815260200164302e302e3160d81b815250612903565b610dd087868685876122de565b610ddb600087612934565b610df3600080516020615d5483398151915287612934565b610e0b600080516020615d9483398151915287612934565b610e23600080516020615c9483398151915287612934565b610e3b600080516020615e1b83398151915287612934565b610e53600080516020615cf483398151915287612934565b610e6b600080516020615ddb83398151915287612934565b610e83600080516020615e3b83398151915287612934565b610e9b600080516020615dfb83398151915287612934565b610eb3600080516020615e1b83398151915233612934565b8015610ee7576000805461ff001916905560405160018152600080516020615d748339815191529060200160405180910390a15b50505050505050565b6000610cb7826129ba565b600080516020615d54833981519152610f13816129df565b610f1c826129e9565b5050565b606060678054610f2f90615416565b80601f0160208091040260200160405190810160405280929190818152602001828054610f5b90615416565b8015610fa85780601f10610f7d57610100808354040283529160200191610fa8565b820191906000526020600020905b815481529060010190602001808311610f8b57829003601f168201915b50505050509050919050565b600080516020615c94833981519152610fcc816129df565b83610fd681611c03565b610ff25760405162461bcd60e51b8152600401610c899061544a565b60008581526101fc602052604081206003810154600490910154879111604051806040016040528060018152602001603360f81b815250906110475760405162461bcd60e51b8152600401610c8991906147dc565b5060008781526101fe60205260408120549081900361109157506101f780546001019081905560008881526101fe602090815260408083208490558383526101fd90915290208890555b886001600160a01b031688827f1fe9ade752d24e4f4dca10f5c807a7cc8630c7604280c8b124097d93b5bb02a18a6040516110ce91815260200190565b60405180910390a46110e2898289896129fc565b505050505050505050565b848484600080516020615cd48339815191528383836040516111119392919061548e565b60405180910390a16000611228600080516020615c74833981519152833561113c6020860186615566565b60405160200161114d9291906155ac565b604051602081830303815290604052805190602001208560400160208101906111769190614b79565b6111866080880160608901614b79565b608088013560a08901356101c560006111a560608d0160408e01614b79565b6001600160a01b03908116825260208083019390935260409182016000205482519384019a909a529082019790975260608101959095529285166080850152931660a083015260c082019290925260e081019190915263ffffffff9091166101008201526101200160405160208183030381529060405280519060200120612b06565b905061127c8185858080601f016020809104026020016040519081016040528093929190818152602001838380828437600092019190915250611275925050506060860160408701614b79565b8535612b33565b506101c560006112926060850160408601614b79565b6001600160a01b0316815260208101919091526040016000908120805463ffffffff16916112bf836155d2565b91906101000a81548163ffffffff021916908363ffffffff1602179055505086608001358760400160208101906112f69190614b79565b6001600160a01b03167f782105afe5542acae5ab54dc3dab8b54887fd38a79f55330b3e1e70c3063d67b8960a001358989604051611336939291906155f5565b60405180910390a36110e26113516060890160408a01614b79565b88608001358960a00135612bf5565b60009081526097602052604090206001015490565b60008761138181611c03565b61139d5760405162461bcd60e51b8152600401610c899061544a565b6001600160a01b03871633036113c3576113bc338a8a89898989612d77565b91506113f5565b6001600160a01b0387166113d657600080fd5b6113e333888b8b87612de5565b6113f2878a8a89898989612d77565b91505b50979650505050505050565b6001600160a01b03851633148061141d575061141d8533610b22565b6114395760405162461bcd60e51b8152600401610c8990615620565b6114468585858585612f04565b5050505050565b61145682611360565b61145f816129df565b6114698383612934565b505050565b6001600160a01b03811633146114de5760405162461bcd60e51b815260206004820152602f60248201527f416363657373436f6e74726f6c3a2063616e206f6e6c792072656e6f756e636560448201526e103937b632b9903337b91039b2b63360891b6064820152608401610c89565b610f1c82826130ea565b6001600160a01b037f00000000000000000000000000000000000000000000000000000000000000001630036115305760405162461bcd60e51b8152600401610c899061566e565b7f00000000000000000000000000000000000000000000000000000000000000006001600160a01b0316611562613151565b6001600160a01b0316146115885760405162461bcd60e51b8152600401610c89906156a8565b6115918161316d565b604080516000808252602082019092526115ad91839190613185565b50565b600080516020615d948339815191526115c8816129df565b6115ad6132f0565b600080516020615e3b8339815191526115e8816129df565b866115f281611c03565b61160e5760405162461bcd60e51b8152600401610c899061544a565b60008881526101fc6020526040812060038101546004909101548a9111604051806040016040528060018152602001603360f81b815250906116635760405162461bcd60e51b8152600401610c8991906147dc565b50878910156116985760405162461bcd60e51b81526020600482015260016024820152601b60f91b6044820152606401610c89565b60008a81526101fe6020526040812054908190036116e25788156116e25760405162461bcd60e51b81526020600482015260016024820152603960f81b6044820152606401610c89565b8a7fe19de0f3da1193000100a217838f49f6bdda20dc974d33b61f92faaf446d181d8b8b8b8b8b60405161171a9594939291906156e2565b60405180910390a2600061172e8a8c61570d565b1115611758576117588c8c6117438c8e61570d565b604051806020016040528060008152506129fc565b60008b81526101fc60205260409020600401879055881561178e5761178e308c8b604051806020016040528060008152506129fc565b505050505050505050505050565b606081518351146118015760405162461bcd60e51b815260206004820152602960248201527f455243313135353a206163636f756e747320616e6420696473206c656e677468604482015268040dad2e6dac2e8c6d60bb1b6064820152608401610c89565b600083516001600160401b0381111561181c5761181c614579565b604051908082528060200260200182016040528015611845578160200160208202803683370190505b50905060005b84518110156118bd5761189085828151811061186957611869615724565b602002602001015185838151811061188357611883615724565b6020026020010151610c22565b8282815181106118a2576118a2615724565b60209081029190910101526118b68161573a565b905061184b565b509392505050565b6001600160a01b037f000000000000000000000000000000000000000000000000000000000000000016300361190d5760405162461bcd60e51b8152600401610c899061566e565b7f00000000000000000000000000000000000000000000000000000000000000006001600160a01b031661193f613151565b6001600160a01b0316146119655760405162461bcd60e51b8152600401610c89906156a8565b61196e8261316d565b610f1c82826001613185565b6000306001600160a01b037f00000000000000000000000000000000000000000000000000000000000000001614611a155760405162461bcd60e51b815260206004820152603860248201527f555550535570677261646561626c653a206d757374206e6f742062652063616c6044820152771b1959081d1a1c9bdd59da0819195b1959d85d1958d85b1b60421b6064820152608401610c89565b50600080516020615d148339815191525b90565b6102006020526000908152604090208054600182015460028301546003840180546001600160a01b03909416949293919291611a6490615416565b80601f0160208091040260200160405190810160405280929190818152602001828054611a9090615416565b8015611add5780601f10611ab257610100808354040283529160200191611add565b820191906000526020600020905b815481529060010190602001808311611ac057829003601f168201915b505050505090806004018054611af290615416565b80601f0160208091040260200160405190810160405280929190818152602001828054611b1e90615416565b8015611b6b5780601f10611b4057610100808354040283529160200191611b6b565b820191906000526020600020905b815481529060010190602001808311611b4e57829003601f168201915b505050505090806005018054611b8090615416565b80601f0160208091040260200160405190810160405280929190818152602001828054611bac90615416565b8015611bf95780601f10611bce57610100808354040283529160200191611bf9565b820191906000526020600020905b815481529060010190602001808311611bdc57829003601f168201915b5050505050905086565b60008181526101fc602052604081208054829190611c2090615416565b9050119050919050565b6101fc60205260009081526040902080548190611c4690615416565b80601f0160208091040260200160405190810160405280929190818152602001828054611c7290615416565b8015611cbf5780601f10611c9457610100808354040283529160200191611cbf565b820191906000526020600020905b815481529060010190602001808311611ca257829003601f168201915b5050505050908060010154908060020154908060030154908060040154905085565b6102018054611cef90615416565b80601f0160208091040260200160405190810160405280929190818152602001828054611d1b90615416565b8015611d685780601f10611d3d57610100808354040283529160200191611d68565b820191906000526020600020905b815481529060010190602001808311611d4b57829003601f168201915b505050505081565b600080516020615e1b833981519152611d88816129df565b60005b825181101561146957611e14838281518110611da957611da9615724565b602002602001015160200151848381518110611dc757611dc7615724565b602002602001015160400151858481518110611de557611de5615724565b602002602001015160600151868581518110611e0357611e03615724565b60200260200101516000015161213f565b80611e1e8161573a565b915050611d8b565b6000611e31816129df565b60008311611e815760405162461bcd60e51b815260206004820152601f60248201527f446563696d616c73206d7573742062652067726561746572207468616e2030006044820152606401610c89565b8584148015611e8f57508315155b611ef15760405162461bcd60e51b815260206004820152602d60248201527f206163636f756e747320616e6420746f6b656e496473206d757374206265206f60448201526c0cc40e6c2daca40d8cadccee8d609b1b6064820152608401610c89565b611ef96115b0565b60005b86811015612033576000611f4e898984818110611f1b57611f1b615724565b9050602002016020810190611f309190614b79565b888885818110611f4257611f42615724565b90506020020135610c22565b9050611f5b85600a615837565b81108015611f695750600081115b611fb55760405162461bcd60e51b815260206004820152601e60248201527f42616c616e6365206d7573742062652067726561746572207468616e203000006044820152606401610c89565b612020898984818110611fca57611fca615724565b9050602002016020810190611fdf9190614b79565b888885818110611ff157611ff1615724565b905060200201358388600a6120069190615837565b6120109086615843565b61201a919061570d565b876129fc565b508061202b8161573a565b915050611efc565b50610ee75b600080516020615d94833981519152612050816129df565b6115ad61333c565b600060608060008060006060610191546000801b14801561207a575061019254155b6120be5760405162461bcd60e51b81526020600482015260156024820152741152540dcc4c8e88155b9a5b9a5d1a585b1a5e9959605a1b6044820152606401610c89565b6120c6613379565b6120ce61340c565b60408051600080825260208201909252600f60f81b9b939a50919850469750309650945092509050565b60009182526097602090815260408084206001600160a01b0393909316845291905290205460ff1690565b6101fa8054611cef90615416565b6102028054611cef90615416565b600080516020615e1b833981519152612157816129df565b83831161218a5760405162461bcd60e51b81526020600482015260016024820152600d60fa1b6044820152606401610c89565b600061219e6101f780546001019081905590565b6101fb546040516344d9d59b60e01b81529192506001600160a01b0316906344d9d59b906121d09086906004016147dc565b600060405180830381600087803b1580156121ea57600080fd5b505af11580156121fe573d6000803e3d6000fd5b50505050806101ff846040516122149190615862565b90815260408051602092819003830181209390935560a083018152858352818301899052828101889052606083018790526000608084018190528481526101fc83522082518051919261226c928492909101906144a3565b5060208201518160010155604082015181600201556060820151816003015560808201518160040155905050807fc5fb6d85b5baef0a615415607787aea341771027b7e4da34da58eaeb661154ea878787876040516122ce949392919061587e565b60405180910390a2505050505050565b600054610100900460ff16158080156122fe5750600054600160ff909116105b8061231f575061230d3061286c565b15801561231f575060005460ff166001145b61233b5760405162461bcd60e51b8152600401610c89906153c8565b6000805460ff19166001179055801561235e576000805461ff0019166101001790555b6101fb80546001600160a01b0319166001600160a01b038816179055835161238e906101fa9060208701906144a3565b506101f885905582516123a9906102019060208601906144a3565b5081516123be906102029060208501906144a3565b5080156123f3576000805461ff001916905560405160018152600080516020615d748339815191529060200160405180910390a15b505050505050565b610f1c33838361341c565b6000856080013561241681611c03565b6124325760405162461bcd60e51b8152600401610c899061544a565b888888600080516020615cd48339815191528383836040516124569392919061548e565b60405180910390a16000612481600080516020615c74833981519152833561113c6020860186615566565b90506124ce8185858080601f016020809104026020016040519081016040528093929190818152602001838380828437600092019190915250611275925050506060860160408701614b79565b506101c560006124e46060850160408601614b79565b6001600160a01b0316815260208101919091526040016000908120805463ffffffff1691612511836155d2565b91906101000a81548163ffffffff021916908363ffffffff160217905550508a60600160208101906125439190614b79565b6001600160a01b031661255c60608d0160408e01614b79565b6001600160a01b0316036125975761259061257d60608d0160408e01614b79565b8c608001358d60a001358d8d8d8d612d77565b9550612605565b60006125a960808d0160608e01614b79565b6001600160a01b0316036125bc57600080fd5b6125ef6125cf60608d0160408e01614b79565b6125df60808e0160608f01614b79565b8d608001358e60a001358b612de5565b61260261257d60808d0160608e01614b79565b95505b5050505050979650505050505050565b61261e82611360565b612627816129df565b61146983836130ea565b600080516020615dfb833981519152612649816129df565b81600481111561265b5761265b6158a3565b604080516001600160a01b038881168252602082018790528792908a16917fa8b90aeef4d9590cac2ff486fc2b5d9749ed41f9388a7eb159eef94cf5fb65ab910160405180910390a46123f38686868660405180602001604052806000815250612de5565b838383600080516020615cd48339815191528383836040516126e49392919061548e565b60405180910390a1600061270f600080516020615c74833981519152833561113c6020860186615566565b905061275c8185858080601f016020809104026020016040519081016040528093929190818152602001838380828437600092019190915250611275925050506060860160408701614b79565b506101c560006127726060850160408601614b79565b6001600160a01b0316815260208101919091526040016000908120805463ffffffff169161279f836155d2565b91906101000a81548163ffffffff021916908363ffffffff160217905550506127f48660400160208101906127d49190614b79565b6127e46080890160608a01614b79565b88608001358960a0013589612de5565b5050505050505050565b600080516020615dfb833981519152612816816129df565b612821848484612bf5565b50505050565b6001600160a01b03851633148061284357506128438533610b22565b61285f5760405162461bcd60e51b8152600401610c8990615620565b6114468585858585612de5565b6001600160a01b03163b151590565b600054610100900460ff166128a25760405162461bcd60e51b8152600401610c89906158b9565b6115ad816134fc565b600054610100900460ff166128d25760405162461bcd60e51b8152600401610c89906158b9565b565b600054610100900460ff166128fb5760405162461bcd60e51b8152600401610c89906158b9565b6128d261352c565b600054610100900460ff1661292a5760405162461bcd60e51b8152600401610c89906158b9565b610f1c828261355f565b61293e82826120f8565b610f1c5760008281526097602090815260408083206001600160a01b03851684529091529020805460ff191660011790556129763390565b6001600160a01b0316816001600160a01b0316837f2f8788117e7eff1d82e926ec794901d17c78024a50270940304540a733656f0d60405160405180910390a45050565b60006001600160e01b03198216630271189760e51b1480610cb75750610cb782613590565b6115ad81336135b5565b8051610f1c9060679060208401906144a3565b6001600160a01b038416612a5c5760405162461bcd60e51b815260206004820152602160248201527f455243313135353a206d696e7420746f20746865207a65726f206164647265736044820152607360f81b6064820152608401610c89565b336000612a688561360e565b90506000612a758561360e565b9050612a8683600089858589613659565b60008681526065602090815260408083206001600160a01b038b16845290915281208054879290612ab8908490615904565b909155505060408051878152602081018790526001600160a01b03808a169260009291871691600080516020615c54833981519152910160405180910390a4610ee783600089898989613782565b6000610cb7612b136138e4565b8360405161190160f01b8152600281019290925260228201526042902090565b6000612b3f85856138f3565b9050826001600160a01b0316816001600160a01b0316148015612b6a57506001600160a01b03811615155b612baa5760405162461bcd60e51b8152602060048201526011602482015270496e76616c6964207369676e617475726560781b6044820152606401610c89565b814210612bed5760405162461bcd60e51b815260206004820152601160248201527014da59db985d1d5c9948195e1c1a5c9959607a1b6044820152606401610c89565b949350505050565b6001600160a01b038316612c575760405162461bcd60e51b815260206004820152602360248201527f455243313135353a206275726e2066726f6d20746865207a65726f206164647260448201526265737360e81b6064820152608401610c89565b336000612c638461360e565b90506000612c708461360e565b9050612c9083876000858560405180602001604052806000815250613659565b60008581526065602090815260408083206001600160a01b038a16845290915290205484811015612d0f5760405162461bcd60e51b8152602060048201526024808201527f455243313135353a206275726e20616d6f756e7420657863656564732062616c604482015263616e636560e01b6064820152608401610c89565b60008681526065602090815260408083206001600160a01b038b81168086529184528285208a8703905582518b81529384018a9052909290881691600080516020615c54833981519152910160405180910390a4604080516020810190915260009052610ee7565b6000612d84888888612bf5565b612d9288888888888861390f565b905086886001600160a01b03167f1325d882b2ca749c878a4ab3a393f6e51b69026faa05426b6d1ec6776a3f2f3c888486604051612dd29392919061591c565b60405180910390a3979650505050505050565b6001600160a01b038416612e0b5760405162461bcd60e51b8152600401610c8990615944565b336000612e178561360e565b90506000612e248561360e565b9050612e34838989858589613659565b60008681526065602090815260408083206001600160a01b038c16845290915290205485811015612e775760405162461bcd60e51b8152600401610c8990615989565b60008781526065602090815260408083206001600160a01b038d8116855292528083208985039055908a16825281208054889290612eb6908490615904565b909155505060408051888152602081018890526001600160a01b03808b16928c82169291881691600080516020615c54833981519152910160405180910390a46110e2848a8a8a8a8a613782565b8151835114612f665760405162461bcd60e51b815260206004820152602860248201527f455243313135353a2069647320616e6420616d6f756e7473206c656e677468206044820152670dad2e6dac2e8c6d60c31b6064820152608401610c89565b6001600160a01b038416612f8c5760405162461bcd60e51b8152600401610c8990615944565b33612f9b818787878787613659565b60005b8451811015613084576000858281518110612fbb57612fbb615724565b602002602001015190506000858381518110612fd957612fd9615724565b60209081029190910181015160008481526065835260408082206001600160a01b038e16835290935291909120549091508181101561302a5760405162461bcd60e51b8152600401610c8990615989565b60008381526065602090815260408083206001600160a01b038e8116855292528083208585039055908b16825281208054849290613069908490615904565b925050819055505050508061307d9061573a565b9050612f9e565b50846001600160a01b0316866001600160a01b0316826001600160a01b03167f4a39dc06d4c0dbc64b70af90fd698a233a518aa5d07e595d983b8c0526c8f7fb87876040516130d49291906159d3565b60405180910390a46123f3818787878787613a0e565b6130f482826120f8565b15610f1c5760008281526097602090815260408083206001600160a01b0385168085529252808320805460ff1916905551339285917ff6391f5c32d9c69d2a47ea670b442974b53935d1edc7fd64eb21e047a839171b9190a45050565b600080516020615d14833981519152546001600160a01b031690565b600080516020615cf4833981519152610f1c816129df565b7f4910fdfa16fed3260ed0e7147f7cc6da11a60208b5b9406d12a635614ffd91435460ff16156131b85761146983613ad0565b826001600160a01b03166352d1902d6040518163ffffffff1660e01b8152600401602060405180830381865afa925050508015613212575060408051601f3d908101601f1916820190925261320f918101906159f8565b60015b6132755760405162461bcd60e51b815260206004820152602e60248201527f45524331393637557067726164653a206e657720696d706c656d656e7461746960448201526d6f6e206973206e6f74205555505360901b6064820152608401610c89565b600080516020615d1483398151915281146132e45760405162461bcd60e51b815260206004820152602960248201527f45524331393637557067726164653a20756e737570706f727465642070726f786044820152681a58589b195555525160ba1b6064820152608401610c89565b50611469838383613b6a565b6132f8613b8f565b60c9805460ff191690557f5db9ee0a495bf2e6ff9c91a7834c1ba4fdd244a5e8aa4e537bd38aeae4b073aa335b6040516133329190615134565b60405180910390a1565b613344613bd8565b60c9805460ff191660011790557f62e78cea01bee320cd4e420270b5ea74000d11b0c9f74754ebdbfc544b05a2586133253390565b6060610193805461338990615416565b80601f01602080910402602001604051908101604052809291908181526020018280546133b590615416565b80156134025780601f106133d757610100808354040283529160200191613402565b820191906000526020600020905b8154815290600101906020018083116133e557829003601f168201915b5050505050905090565b6060610194805461338990615416565b816001600160a01b0316836001600160a01b03160361348f5760405162461bcd60e51b815260206004820152602960248201527f455243313135353a2073657474696e6720617070726f76616c20737461747573604482015268103337b91039b2b63360b91b6064820152608401610c89565b6001600160a01b03838116600081815260666020908152604080832094871680845294825291829020805460ff191686151590811790915591519182527f17307eab39ab6107e8899845ad3d59bd9653f200f220920489ca2b5937696c31910160405180910390a3505050565b600054610100900460ff166135235760405162461bcd60e51b8152600401610c89906158b9565b6115ad816129e9565b600054610100900460ff166135535760405162461bcd60e51b8152600401610c89906158b9565b60c9805460ff19169055565b600054610100900460ff166135865760405162461bcd60e51b8152600401610c89906158b9565b610f1c8282613c1e565b60006001600160e01b03198216637965db0b60e01b1480610cb75750610cb782613c7f565b6135bf82826120f8565b610f1c576135cc81613ccf565b6135d7836020613ce1565b6040516020016135e8929190615a11565b60408051601f198184030181529082905262461bcd60e51b8252610c89916004016147dc565b6040805160018082528183019092526060916000919060208083019080368337019050509050828160008151811061364857613648615724565b602090810291909101015292915050565b613661613bd8565b8461367a600080516020615d34833981519152826120f8565b156136975760405162461bcd60e51b8152600401610c8990615a80565b846136b0600080516020615d34833981519152826120f8565b156136cd5760405162461bcd60e51b8152600401610c8990615a80565b60005b85518110156137735761020060008783815181106136f0576136f0615724565b60200260200101518152602001908152602001600020600101546000148061373057506001600160a01b038816158061373057506001600160a01b038716155b6137615760405162461bcd60e51b8152602060048201526002602482015261313160f01b6044820152606401610c89565b8061376b8161573a565b9150506136d0565b506127f4888888888888613e83565b613794846001600160a01b031661286c565b156123f35760405163f23a6e6160e01b81526001600160a01b0385169063f23a6e61906137cd9089908990889088908890600401615a9b565b6020604051808303816000875af1925050508015613808575060408051601f3d908101601f1916820190925261380591810190615ad5565b60015b6138b457613814615af2565b806308c379a00361384d5750613828615b0d565b80613833575061384f565b8060405162461bcd60e51b8152600401610c8991906147dc565b505b60405162461bcd60e51b815260206004820152603460248201527f455243313135353a207472616e7366657220746f206e6f6e2d455243313135356044820152732932b1b2b4bb32b91034b6b83632b6b2b73a32b960611b6064820152608401610c89565b6001600160e01b0319811663f23a6e6160e01b14610ee75760405162461bcd60e51b8152600401610c8990615b96565b60006138ee613ffc565b905090565b60008060006139028585614070565b915091506118bd816140b5565b6000806139246101f780546001019081905590565b6040805160c0810182526001600160a01b038b8116825260208083018b81528385018d8152606085018c8152608086018c905260a086018b90526000888152610200855296909620855181546001600160a01b03191695169490941784559051600184015551600283015592518051949550919390926139ab9260038501929101906144a3565b50608082015180516139c79160048401916020909101906144a3565b5060a082015180516139e39160058401916020909101906144a3565b50905050613a0388826001604051806020016040528060008152506129fc565b979650505050505050565b613a20846001600160a01b031661286c565b156123f35760405163bc197c8160e01b81526001600160a01b0385169063bc197c8190613a599089908990889088908890600401615bde565b6020604051808303816000875af1925050508015613a94575060408051601f3d908101601f19168201909252613a9191810190615ad5565b60015b613aa057613814615af2565b6001600160e01b0319811663bc197c8160e01b14610ee75760405162461bcd60e51b8152600401610c8990615b96565b613ad98161286c565b613b3b5760405162461bcd60e51b815260206004820152602d60248201527f455243313936373a206e657720696d706c656d656e746174696f6e206973206e60448201526c1bdd08184818dbdb9d1c9858dd609a1b6064820152608401610c89565b600080516020615d1483398151915280546001600160a01b0319166001600160a01b0392909216919091179055565b613b73836141fa565b600082511180613b805750805b1561146957612821838361423a565b60c95460ff166128d25760405162461bcd60e51b815260206004820152601460248201527314185d5cd8589b194e881b9bdd081c185d5cd95960621b6044820152606401610c89565b60c95460ff16156128d25760405162461bcd60e51b815260206004820152601060248201526f14185d5cd8589b194e881c185d5cd95960821b6044820152606401610c89565b600054610100900460ff16613c455760405162461bcd60e51b8152600401610c89906158b9565b8151613c59906101939060208501906144a3565b508051613c6e906101949060208401906144a3565b505060006101918190556101925550565b60006001600160e01b03198216636cdb3d1360e11b1480613cb057506001600160e01b031982166303a24d0760e21b145b80610cb757506301ffc9a760e01b6001600160e01b0319831614610cb7565b6060610cb76001600160a01b03831660145b60606000613cf0836002615843565b613cfb906002615904565b6001600160401b03811115613d1257613d12614579565b6040519080825280601f01601f191660200182016040528015613d3c576020820181803683370190505b509050600360fc1b81600081518110613d5757613d57615724565b60200101906001600160f81b031916908160001a905350600f60fb1b81600181518110613d8657613d86615724565b60200101906001600160f81b031916908160001a9053506000613daa846002615843565b613db5906001615904565b90505b6001811115613e2d576f181899199a1a9b1b9c1cb0b131b232b360811b85600f1660108110613de957613de9615724565b1a60f81b828281518110613dff57613dff615724565b60200101906001600160f81b031916908160001a90535060049490941c93613e2681615c3c565b9050613db8565b508315613e7c5760405162461bcd60e51b815260206004820181905260248201527f537472696e67733a20686578206c656e67746820696e73756666696369656e746044820152606401610c89565b9392505050565b6001600160a01b038516613f0a5760005b8351811015613f0857828181518110613eaf57613eaf615724565b602002602001015160fb6000868481518110613ecd57613ecd615724565b602002602001015181526020019081526020016000206000828254613ef29190615904565b90915550613f0190508161573a565b9050613e94565b505b6001600160a01b0384166123f35760005b8351811015610ee7576000848281518110613f3857613f38615724565b602002602001015190506000848381518110613f5657613f56615724565b60200260200101519050600060fb600084815260200190815260200160002054905081811015613fd95760405162461bcd60e51b815260206004820152602860248201527f455243313135353a206275726e20616d6f756e74206578636565647320746f74604482015267616c537570706c7960c01b6064820152608401610c89565b600092835260fb602052604090922091039055613ff58161573a565b9050613f1b565b60007f8b73c3c69bb8fe3d512ecc4cf759cc79239f7b179b0ffacaa9a75d522b39400f61402761425f565b61402f6142bd565b60408051602081019490945283019190915260608201524660808201523060a082015260c00160405160208183030381529060405280519060200120905090565b60008082516041036140a65760208301516040840151606085015160001a61409a878285856142ef565b945094505050506140ae565b506000905060025b9250929050565b60008160048111156140c9576140c96158a3565b036140d15750565b60018160048111156140e5576140e56158a3565b0361412d5760405162461bcd60e51b815260206004820152601860248201527745434453413a20696e76616c6964207369676e617475726560401b6044820152606401610c89565b6002816004811115614141576141416158a3565b0361418e5760405162461bcd60e51b815260206004820152601f60248201527f45434453413a20696e76616c6964207369676e6174757265206c656e677468006044820152606401610c89565b60038160048111156141a2576141a26158a3565b036115ad5760405162461bcd60e51b815260206004820152602260248201527f45434453413a20696e76616c6964207369676e6174757265202773272076616c604482015261756560f01b6064820152608401610c89565b61420381613ad0565b6040516001600160a01b038216907fbc7cd75a20ee27fd9adebab32041f755214dbc6bffa90cc0225b39da2e5c2d3b90600090a250565b6060613e7c8383604051806060016040528060278152602001615db4602791396143a9565b60008061426a613379565b805190915015614281578051602090910120919050565b6101915480156142915792915050565b7fc5d2460186f7233c927e7db2dcc703c0e500b653ca82273b7bfad8045d85a4709250505090565b5090565b6000806142c861340c565b8051909150156142df578051602090910120919050565b6101925480156142915792915050565b6000806fa2a8918ca85bafe22016d0b997e4df60600160ff1b0383111561431c57506000905060036143a0565b6040805160008082526020820180845289905260ff881692820192909252606081018690526080810185905260019060a0016020604051602081039080840390855afa158015614370573d6000803e3d6000fd5b5050604051601f1901519150506001600160a01b038116614399576000600192509250506143a0565b9150600090505b94509492505050565b6060600080856001600160a01b0316856040516143c69190615862565b600060405180830381855af49150503d8060008114614401576040519150601f19603f3d011682016040523d82523d6000602084013e614406565b606091505b509150915061441786838387614421565b9695505050505050565b6060831561448e5782516000036144875761443b8561286c565b6144875760405162461bcd60e51b815260206004820152601d60248201527f416464726573733a2063616c6c20746f206e6f6e2d636f6e74726163740000006044820152606401610c89565b5081612bed565b612bed83838151156138335781518083602001fd5b8280546144af90615416565b90600052602060002090601f0160209004810192826144d15760008555614517565b82601f106144ea57805160ff1916838001178555614517565b82800160010185558215614517579182015b828111156145175782518255916020019190600101906144fc565b506142b99291505b808211156142b9576000815560010161451f565b80356001600160a01b038116811461454a57600080fd5b919050565b6000806040838503121561456257600080fd5b61456b83614533565b946020939093013593505050565b634e487b7160e01b600052604160045260246000fd5b60a081016001600160401b03811182821017156145ae576145ae614579565b60405250565b601f8201601f191681016001600160401b03811182821017156145d9576145d9614579565b6040525050565b600082601f8301126145f157600080fd5b81356001600160401b0381111561460a5761460a614579565b604051614621601f8301601f1916602001826145b4565b81815284602083860101111561463657600080fd5b816020850160208301376000918101602001919091529392505050565b60008060008060008060c0878903121561466c57600080fd5b61467587614533565b955061468360208801614533565b94506040870135935060608701356001600160401b03808211156146a657600080fd5b6146b28a838b016145e0565b945060808901359150808211156146c857600080fd5b6146d48a838b016145e0565b935060a08901359150808211156146ea57600080fd5b506146f789828a016145e0565b9150509295509295509295565b6001600160e01b0319811681146115ad57600080fd5b60006020828403121561472c57600080fd5b8135613e7c81614704565b60006020828403121561474957600080fd5b81356001600160401b0381111561475f57600080fd5b612bed848285016145e0565b60006020828403121561477d57600080fd5b5035919050565b60005b8381101561479f578181015183820152602001614787565b838111156128215750506000910152565b600081518084526147c8816020860160208601614784565b601f01601f19169290920160200192915050565b602081526000613e7c60208301846147b0565b6000806000806080858703121561480557600080fd5b61480e85614533565b9350602085013592506040850135915060608501356001600160401b0381111561483757600080fd5b614843878288016145e0565b91505092959194509250565b60008083601f84011261486157600080fd5b5081356001600160401b0381111561487857600080fd5b6020830191508360208285010111156140ae57600080fd5b600060e082840312156148a257600080fd5b50919050565b6000806000806000608086880312156148c057600080fd5b85356001600160401b03808211156148d757600080fd5b6148e389838a0161484f565b909750955060208801359150808211156148fc57600080fd5b61490889838a01614890565b9450604088013591508082111561491e57600080fd5b61492a89838a016145e0565b9350606088013591508082111561494057600080fd5b5061494d888289016145e0565b9150509295509295909350565b600080600080600080600060e0888a03121561497557600080fd5b873596506020880135955061498c60408901614533565b945060608801356001600160401b03808211156149a857600080fd5b6149b48b838c016145e0565b955060808a01359150808211156149ca57600080fd5b6149d68b838c016145e0565b945060a08a01359150808211156149ec57600080fd5b6149f88b838c016145e0565b935060c08a0135915080821115614a0e57600080fd5b50614a1b8a828b016145e0565b91505092959891949750929550565b60006001600160401b03821115614a4357614a43614579565b5060051b60200190565b600082601f830112614a5e57600080fd5b81356020614a6b82614a2a565b604051614a7882826145b4565b83815260059390931b8501820192828101915086841115614a9857600080fd5b8286015b84811015614ab35780358352918301918301614a9c565b509695505050505050565b600080600080600060a08688031215614ad657600080fd5b614adf86614533565b9450614aed60208701614533565b935060408601356001600160401b0380821115614b0957600080fd5b614b1589838a01614a4d565b94506060880135915080821115614b2b57600080fd5b614b3789838a01614a4d565b9350608088013591508082111561494057600080fd5b60008060408385031215614b6057600080fd5b82359150614b7060208401614533565b90509250929050565b600060208284031215614b8b57600080fd5b613e7c82614533565b600080600080600080600060e0888a031215614baf57600080fd5b614bb888614533565b96506020880135955060408801359450606088013593506080880135925060a0880135915060c08801356001600160401b03811115614bf657600080fd5b614a1b8a828b016145e0565b60008060408385031215614c1557600080fd5b82356001600160401b0380821115614c2c57600080fd5b818501915085601f830112614c4057600080fd5b81356020614c4d82614a2a565b604051614c5a82826145b4565b83815260059390931b8501820192828101915089841115614c7a57600080fd5b948201945b83861015614c9f57614c9086614533565b82529482019490820190614c7f565b96505086013592505080821115614cb557600080fd5b50614cc285828601614a4d565b9150509250929050565b600081518084526020808501945080840160005b83811015614cfc57815187529582019590820190600101614ce0565b509495945050505050565b602081526000613e7c6020830184614ccc565b60008060408385031215614d2d57600080fd5b614d3683614533565b915060208301356001600160401b03811115614d5157600080fd5b614cc2858286016145e0565b6001600160a01b03169052565b60018060a01b038716815285602082015284604082015260c060608201526000614d9760c08301866147b0565b8281036080840152614da981866147b0565b905082810360a08401526113f281856147b0565b60a081526000614dd060a08301886147b0565b90508560208301528460408301528360608301528260808301529695505050505050565b60006020808385031215614e0757600080fd5b82356001600160401b0380821115614e1e57600080fd5b818501915085601f830112614e3257600080fd5b8135614e3d81614a2a565b60408051614e4b83826145b4565b83815260059390931b8501860192868101925089841115614e6b57600080fd5b8686015b84811015614f0257803586811115614e875760008081fd5b870160a0818d03601f1901811315614e9f5760008081fd5b8451614eaa8161458f565b8a83013589811115614ebc5760008081fd5b614eca8f8d838701016145e0565b825250828601358b82015260608084013587830152608080850135918301919091529190920135908201528452928701928701614e6f565b509998505050505050505050565b60008083601f840112614f2257600080fd5b5081356001600160401b03811115614f3957600080fd5b6020830191508360208260051b85010111156140ae57600080fd5b60008060008060008060808789031215614f6d57600080fd5b86356001600160401b0380821115614f8457600080fd5b614f908a838b01614f10565b90985096506020890135915080821115614fa957600080fd5b614fb58a838b01614f10565b90965094506040890135935060608901359150808211156146ea57600080fd5b60ff60f81b8816815260e060208201526000614ff460e08301896147b0565b828103604084015261500681896147b0565b606084018890526001600160a01b038716608085015260a0840186905283810360c085015290506150378185614ccc565b9a9950505050505050505050565b6000806000806080858703121561505b57600080fd5b84359350602085013592506040850135915060608501356001600160401b0381111561483757600080fd5b600080600080600060a0868803121561509e57600080fd5b6150a786614533565b94506020860135935060408601356001600160401b03808211156150ca57600080fd5b6150d689838a016145e0565b945060608801359150808211156150ec57600080fd5b614b3789838a016145e0565b6000806040838503121561510b57600080fd5b61511483614533565b91506020830135801515811461512957600080fd5b809150509250929050565b6001600160a01b0391909116815260200190565b600080600080600080600060c0888a03121561516357600080fd5b87356001600160401b038082111561517a57600080fd5b6151868b838c0161484f565b909950975060208a013591508082111561519f57600080fd5b6151ab8b838c01614890565b965060408a01359150808211156151c157600080fd5b6151cd8b838c016145e0565b955060608a01359150808211156151e357600080fd5b6151ef8b838c016145e0565b945060808a013591508082111561520557600080fd5b6152118b838c016145e0565b935060a08a0135915080821115614a0e57600080fd5b600080600080600060a0868803121561523f57600080fd5b61524886614533565b945061525660208701614533565b9350604086013592506060860135915060808601356005811061527857600080fd5b809150509295509295909350565b6000806000806060858703121561529c57600080fd5b84356001600160401b03808211156152b357600080fd5b6152bf8883890161484f565b909650945060208701359150808211156152d857600080fd5b6152e488838901614890565b935060408701359150808211156152fa57600080fd5b50614843878288016145e0565b6000806040838503121561531a57600080fd5b61532383614533565b9150614b7060208401614533565b60008060006060848603121561534657600080fd5b61534f84614533565b95602085013595506040909401359392505050565b600080600080600060a0868803121561537c57600080fd5b61538586614533565b945061539360208701614533565b9350604086013592506060860135915060808601356001600160401b038111156153bc57600080fd5b61494d888289016145e0565b6020808252602e908201527f496e697469616c697a61626c653a20636f6e747261637420697320616c72656160408201526d191e481a5b9a5d1a585b1a5e995960921b606082015260800190565b600181811c9082168061542a57607f821691505b6020821081036148a257634e487b7160e01b600052602260045260246000fd5b6020808252600190820152603160f81b604082015260600190565b81835281816020850137506000828201602090810191909152601f909101601f19169091010190565b6040815260006154a2604083018587615465565b8281036020840152833581526020840135601e198536030181126154c557600080fd5b840180356001600160401b038111156154dd57600080fd5b8036038613156154ec57600080fd5b60e0602084015261550460e084018260208501615465565b91505061551360408601614533565b6155206040840182614d5d565b5061552d60608601614533565b61553a6060840182614d5d565b506080850135608083015260a085013560a083015260c085013560c08301528092505050949350505050565b6000808335601e1984360301811261557d57600080fd5b8301803591506001600160401b0382111561559757600080fd5b6020019150368190038213156140ae57600080fd5b8183823760009101908152919050565b634e487b7160e01b600052601160045260246000fd5b600063ffffffff8083168181036155eb576155eb6155bc565b6001019392505050565b83815260606020820152600061560e60608301856147b0565b828103604084015261441781856147b0565b6020808252602e908201527f455243313135353a2063616c6c6572206973206e6f7420746f6b656e206f776e60408201526d195c881bdc88185c1c1c9bdd995960921b606082015260800190565b6020808252602c90820152600080516020615cb483398151915260408201526b19195b1959d85d1958d85b1b60a21b606082015260800190565b6020808252602c90820152600080516020615cb483398151915260408201526b6163746976652070726f787960a01b606082015260800190565b85815284602082015283604082015282606082015260a060808201526000613a0360a08301846147b0565b60008282101561571f5761571f6155bc565b500390565b634e487b7160e01b600052603260045260246000fd5b60006001820161574c5761574c6155bc565b5060010190565b600181815b8085111561578e578160001904821115615774576157746155bc565b8085161561578157918102915b93841c9390800290615758565b509250929050565b6000826157a557506001610cb7565b816157b257506000610cb7565b81600181146157c857600281146157d2576157ee565b6001915050610cb7565b60ff8411156157e3576157e36155bc565b50506001821b610cb7565b5060208310610133831016604e8410600b8410161715615811575081810a610cb7565b61581b8383615753565b806000190482111561582f5761582f6155bc565b029392505050565b6000613e7c8383615796565b600081600019048311821515161561585d5761585d6155bc565b500290565b60008251615874818460208701614784565b9190910192915050565b84815283602082015282604082015260806060820152600061441760808301846147b0565b634e487b7160e01b600052602160045260246000fd5b6020808252602b908201527f496e697469616c697a61626c653a20636f6e7472616374206973206e6f74206960408201526a6e697469616c697a696e6760a81b606082015260800190565b60008219821115615917576159176155bc565b500190565b83815282602082015260606040820152600061593b60608301846147b0565b95945050505050565b60208082526025908201527f455243313135353a207472616e7366657220746f20746865207a65726f206164604082015264647265737360d81b606082015260800190565b6020808252602a908201527f455243313135353a20696e73756666696369656e742062616c616e636520666f60408201526939103a3930b739b332b960b11b606082015260800190565b6040815260006159e66040830185614ccc565b828103602084015261593b8185614ccc565b600060208284031215615a0a57600080fd5b5051919050565b76020b1b1b2b9b9a1b7b73a3937b61d1030b1b1b7bab73a1604d1b815260008351615a43816017850160208801614784565b7001034b99036b4b9b9b4b733903937b6329607d1b6017918401918201528351615a74816028840160208801614784565b01602801949350505050565b6020808252600190820152600360fc1b604082015260600190565b6001600160a01b03868116825285166020820152604081018490526060810183905260a060808201819052600090613a03908301846147b0565b600060208284031215615ae757600080fd5b8151613e7c81614704565b600060033d1115611a265760046000803e5060005160e01c90565b600060443d1015615b1b5790565b6040516003193d81016004833e81513d6001600160401b038083116024840183101715615b4a57505050505090565b8285019150815181811115615b625750505050505090565b843d8701016020828501011115615b7c5750505050505090565b615b8b602082860101876145b4565b509095945050505050565b60208082526028908201527f455243313135353a204552433131353552656365697665722072656a656374656040820152676420746f6b656e7360c01b606082015260800190565b6001600160a01b0386811682528516602082015260a060408201819052600090615c0a90830186614ccc565b8281036060840152615c1c8186614ccc565b90508281036080840152615c3081856147b0565b98975050505050505050565b600081615c4b57615c4b6155bc565b50600019019056fec3d58168c5ae7397731d063d5bbf3d657854427343f4c083240f7aacaa2d0f6279da588818fa1bb747c46ac45fd0af16861a77c5222cf5ac4538360ca4f77a2cd5bbb2f0fbfc1d5938ca13cabd3156d362f7862fa87504c8d589f5e8f2cbc45346756e6374696f6e206d7573742062652063616c6c6564207468726f75676820bdde33eca765abe07e416fa5225f9a5dbc393366c8bbf45df689e69ee318a934189ab7a9244df0848122154315af71fe140f3db0fe014031783b0946b8c9d2e3360894a13ba1a3210667c828492db98dca3e2076cc3735a920a3ca505d382bbcf48dee1a72497b9e734e498e1b3086c0d2dbcca13f16f15848f974469f906bbf7804d923f43a17d325d77e781528e0793b2edd9890ab45fc64efd7b4b427744c7f26b83ff96e1f2b6a682f133852f6798a09c465da95921460cefb384740249865d7a28e3265b37a6474929f336521b332c1681b933f6cb9f3376673440d862a416464726573733a206c6f772d6c6576656c2064656c65676174652063616c6c206661696c656498db8a220cd0f09badce9f22d0ba7e93edb3d404448cc3560d391ab096ad16e94bbc247fc4736523c8bdd1853fee2acfa817d663f8f4422b13e78ebf99e204a2ddf79b8d2110dbe281cf3bb7762d508cea586c974794c8fc949d41b0db1145130ce23c3e399818cfee81a7ab0880f714e53d7672b08df0fa62f2843416e1ea09a2646970667358221220ea207ce4ddf7e06287437e7737f579e618c2a7cfba29f47fdb5f3392adee49c764736f6c634300080d0033",
  "linkReferences": {},
  "deployedLinkReferences": {}
}