{
  "_format": "hh-sol-artifact-1",
  "contractName": "Project",
  "sourceName": "contracts/Project.sol",
  "abi": [
    {
      "inputs": [],
      "stateMutability": "nonpayable",
      "type": "constructor"
    },
    {
      "anonymous": false,
      "inputs": [
        {
          "indexed": true,
          "internalType": "address",
          "name": "from",
          "type": "address"
        },
        {
          "indexed": true,
          "internalType": "uint256",
          "name": "tokenId",
          "type": "uint256"
        },
        {
          "indexed": false,
          "internalType": "uint256",
          "name": "amount",
          "type": "uint256"
        },
        {
          "indexed": true,
          "internalType": "enum AdminActionReason",
          "name": "reason",
          "type": "uint8"
        }
      ],
      "name": "AdminBurn",
      "type": "event"
    },
    {
      "anonymous": false,
      "inputs": [
        {
          "indexed": false,
          "internalType": "address",
          "name": "previousAdmin",
          "type": "address"
        },
        {
          "indexed": false,
          "internalType": "address",
          "name": "newAdmin",
          "type": "address"
        }
      ],
      "name": "AdminChanged",
      "type": "event"
    },
    {
      "anonymous": false,
      "inputs": [
        {
          "indexed": true,
          "internalType": "address",
          "name": "from",
          "type": "address"
        },
        {
          "indexed": false,
          "internalType": "address",
          "name": "to",
          "type": "address"
        },
        {
          "indexed": true,
          "internalType": "uint256",
          "name": "tokenId",
          "type": "uint256"
        },
        {
          "indexed": false,
          "internalType": "uint256",
          "name": "amount",
          "type": "uint256"
        },
        {
          "indexed": true,
          "internalType": "enum AdminActionReason",
          "name": "reason",
          "type": "uint8"
        }
      ],
      "name": "AdminClawback",
      "type": "event"
    },
    {
      "anonymous": false,
      "inputs": [
        {
          "indexed": true,
          "internalType": "address",
          "name": "account",
          "type": "address"
        },
        {
          "indexed": true,
          "internalType": "address",
          "name": "operator",
          "type": "address"
        },
        {
          "indexed": false,
          "internalType": "bool",
          "name": "approved",
          "type": "bool"
        }
      ],
      "name": "ApprovalForAll",
      "type": "event"
    },
    {
      "anonymous": false,
      "inputs": [
        {
          "indexed": true,
          "internalType": "address",
          "name": "beacon",
          "type": "address"
        }
      ],
      "name": "BeaconUpgraded",
      "type": "event"
    },
    {
      "anonymous": false,
      "inputs": [
        {
          "indexed": true,
          "internalType": "address",
          "name": "account",
          "type": "address"
        },
        {
          "indexed": true,
          "internalType": "uint256",
          "name": "tokenId",
          "type": "uint256"
        },
        {
          "indexed": false,
          "internalType": "uint256",
          "name": "amount",
          "type": "uint256"
        },
        {
          "indexed": false,
          "internalType": "string",
          "name": "reason",
          "type": "string"
        },
        {
          "indexed": false,
          "internalType": "bytes",
          "name": "data",
          "type": "bytes"
        }
      ],
      "name": "CancelledCredits",
      "type": "event"
    },
    {
      "anonymous": false,
      "inputs": [],
      "name": "EIP712DomainChanged",
      "type": "event"
    },
    {
      "anonymous": false,
      "inputs": [
        {
          "indexed": true,
          "internalType": "uint256",
          "name": "exAnteTokenId",
          "type": "uint256"
        },
        {
          "indexed": true,
          "internalType": "uint256",
          "name": "exPostTokenId",
          "type": "uint256"
        },
        {
          "indexed": true,
          "internalType": "address",
          "name": "account",
          "type": "address"
        },
        {
          "indexed": false,
          "internalType": "uint256",
          "name": "amount",
          "type": "uint256"
        }
      ],
      "name": "ExAnteMinted",
      "type": "event"
    },
    {
      "anonymous": false,
      "inputs": [
        {
          "indexed": true,
          "internalType": "uint256",
          "name": "tokenId",
          "type": "uint256"
        },
        {
          "indexed": false,
          "internalType": "uint256",
          "name": "estimatedAmount",
          "type": "uint256"
        },
        {
          "indexed": false,
          "internalType": "uint256",
          "name": "verificationPeriodStart",
          "type": "uint256"
        },
        {
          "indexed": false,
          "internalType": "uint256",
          "name": "verificationPeriodEnd",
          "type": "uint256"
        },
        {
          "indexed": false,
          "internalType": "string",
          "name": "serialization",
          "type": "string"
        }
      ],
      "name": "ExPostCreated",
      "type": "event"
    },
    {
      "anonymous": false,
      "inputs": [
        {
          "indexed": true,
          "internalType": "uint256",
          "name": "tokenId",
          "type": "uint256"
        },
        {
          "indexed": false,
          "internalType": "uint256",
          "name": "amount",
          "type": "uint256"
        },
        {
          "indexed": false,
          "internalType": "uint256",
          "name": "amountToAnteHolders",
          "type": "uint256"
        },
        {
          "indexed": false,
          "internalType": "uint256",
          "name": "verificationPeriodStart",
          "type": "uint256"
        },
        {
          "indexed": false,
          "internalType": "uint256",
          "name": "verificationPeriodEnd",
          "type": "uint256"
        },
        {
          "indexed": false,
          "internalType": "string",
          "name": "monitoringReport",
          "type": "string"
        }
      ],
      "name": "ExPostVerifiedAndMinted",
      "type": "event"
    },
    {
      "anonymous": false,
      "inputs": [
        {
          "indexed": true,
          "internalType": "address",
          "name": "account",
          "type": "address"
        },
        {
          "indexed": true,
          "internalType": "uint256",
          "name": "exPostTokenId",
          "type": "uint256"
        },
        {
          "indexed": false,
          "internalType": "uint256",
          "name": "exPostAmountReceived",
          "type": "uint256"
        },
        {
          "indexed": false,
          "internalType": "uint256",
          "name": "exAnteAmountBurned",
          "type": "uint256"
        }
      ],
      "name": "ExchangeAnteForPost",
      "type": "event"
    },
    {
      "anonymous": false,
      "inputs": [
        {
          "indexed": false,
          "internalType": "uint8",
          "name": "version",
          "type": "uint8"
        }
      ],
      "name": "Initialized",
      "type": "event"
    },
    {
      "anonymous": false,
      "inputs": [
        {
          "indexed": false,
          "internalType": "address",
          "name": "account",
          "type": "address"
        }
      ],
      "name": "Paused",
      "type": "event"
    },
    {
      "anonymous": false,
      "inputs": [
        {
          "indexed": true,
          "internalType": "address",
          "name": "account",
          "type": "address"
        },
        {
          "indexed": true,
          "internalType": "uint256",
          "name": "tokenId",
          "type": "uint256"
        },
        {
          "indexed": false,
          "internalType": "uint256",
          "name": "amount",
          "type": "uint256"
        },
        {
          "indexed": false,
          "internalType": "uint256",
          "name": "nftTokenId",
          "type": "uint256"
        },
        {
          "indexed": false,
          "internalType": "bytes",
          "name": "data",
          "type": "bytes"
        }
      ],
      "name": "RetiredVintage",
      "type": "event"
    },
    {
      "anonymous": false,
      "inputs": [
        {
          "indexed": true,
          "internalType": "bytes32",
          "name": "role",
          "type": "bytes32"
        },
        {
          "indexed": true,
          "internalType": "bytes32",
          "name": "previousAdminRole",
          "type": "bytes32"
        },
        {
          "indexed": true,
          "internalType": "bytes32",
          "name": "newAdminRole",
          "type": "bytes32"
        }
      ],
      "name": "RoleAdminChanged",
      "type": "event"
    },
    {
      "anonymous": false,
      "inputs": [
        {
          "indexed": true,
          "internalType": "bytes32",
          "name": "role",
          "type": "bytes32"
        },
        {
          "indexed": true,
          "internalType": "address",
          "name": "account",
          "type": "address"
        },
        {
          "indexed": true,
          "internalType": "address",
          "name": "sender",
          "type": "address"
        }
      ],
      "name": "RoleGranted",
      "type": "event"
    },
    {
      "anonymous": false,
      "inputs": [
        {
          "indexed": true,
          "internalType": "bytes32",
          "name": "role",
          "type": "bytes32"
        },
        {
          "indexed": true,
          "internalType": "address",
          "name": "account",
          "type": "address"
        },
        {
          "indexed": true,
          "internalType": "address",
          "name": "sender",
          "type": "address"
        }
      ],
      "name": "RoleRevoked",
      "type": "event"
    },
    {
      "anonymous": false,
      "inputs": [
        {
          "indexed": true,
          "internalType": "address",
          "name": "operator",
          "type": "address"
        },
        {
          "indexed": true,
          "internalType": "address",
          "name": "from",
          "type": "address"
        },
        {
          "indexed": true,
          "internalType": "address",
          "name": "to",
          "type": "address"
        },
        {
          "indexed": false,
          "internalType": "uint256[]",
          "name": "ids",
          "type": "uint256[]"
        },
        {
          "indexed": false,
          "internalType": "uint256[]",
          "name": "values",
          "type": "uint256[]"
        }
      ],
      "name": "TransferBatch",
      "type": "event"
    },
    {
      "anonymous": false,
      "inputs": [
        {
          "indexed": false,
          "internalType": "bytes",
          "name": "signature",
          "type": "bytes"
        },
        {
          "components": [
            {
              "internalType": "uint256",
              "name": "deadline",
              "type": "uint256"
            },
            {
              "internalType": "string",
              "name": "description",
              "type": "string"
            },
            {
              "internalType": "address",
              "name": "signer",
              "type": "address"
            },
            {
              "internalType": "address",
              "name": "to",
              "type": "address"
            },
            {
              "internalType": "uint256",
              "name": "tokenId",
              "type": "uint256"
            },
            {
              "internalType": "uint256",
              "name": "amount",
              "type": "uint256"
            },
            {
              "internalType": "uint256",
              "name": "nonce",
              "type": "uint256"
            }
          ],
          "indexed": false,
          "internalType": "struct signatureTransferPayload",
          "name": "payload",
          "type": "tuple"
        }
      ],
      "name": "TransferSignatureValid",
      "type": "event"
    },
    {
      "anonymous": false,
      "inputs": [
        {
          "indexed": true,
          "internalType": "address",
          "name": "operator",
          "type": "address"
        },
        {
          "indexed": true,
          "internalType": "address",
          "name": "from",
          "type": "address"
        },
        {
          "indexed": true,
          "internalType": "address",
          "name": "to",
          "type": "address"
        },
        {
          "indexed": false,
          "internalType": "uint256",
          "name": "id",
          "type": "uint256"
        },
        {
          "indexed": false,
          "internalType": "uint256",
          "name": "value",
          "type": "uint256"
        }
      ],
      "name": "TransferSingle",
      "type": "event"
    },
    {
      "anonymous": false,
      "inputs": [
        {
          "indexed": false,
          "internalType": "string",
          "name": "value",
          "type": "string"
        },
        {
          "indexed": true,
          "internalType": "uint256",
          "name": "id",
          "type": "uint256"
        }
      ],
      "name": "URI",
      "type": "event"
    },
    {
      "anonymous": false,
      "inputs": [
        {
          "indexed": false,
          "internalType": "address",
          "name": "account",
          "type": "address"
        }
      ],
      "name": "Unpaused",
      "type": "event"
    },
    {
      "anonymous": false,
      "inputs": [
        {
          "indexed": true,
          "internalType": "address",
          "name": "implementation",
          "type": "address"
        }
      ],
      "name": "Upgraded",
      "type": "event"
    },
    {
      "anonymous": false,
      "inputs": [
        {
          "indexed": true,
          "internalType": "uint256",
          "name": "tokenId",
          "type": "uint256"
        },
        {
          "indexed": false,
          "internalType": "uint256",
          "name": "newEstimate",
          "type": "uint256"
        },
        {
          "indexed": false,
          "internalType": "uint256",
          "name": "oldEstimate",
          "type": "uint256"
        },
        {
          "indexed": true,
          "internalType": "enum AdminActionReason",
          "name": "reason",
          "type": "uint8"
        }
      ],
      "name": "VintageMitigationEstimateChanged",
      "type": "event"
    },
    {
      "inputs": [],
      "name": "ANTE_MINTER_ROLE",
      "outputs": [
        {
          "internalType": "bytes32",
          "name": "",
          "type": "bytes32"
        }
      ],
      "stateMutability": "view",
      "type": "function"
    },
    {
      "inputs": [],
      "name": "BLACKLISTED",
      "outputs": [
        {
          "internalType": "bytes32",
          "name": "",
          "type": "bytes32"
        }
      ],
      "stateMutability": "view",
      "type": "function"
    },
    {
      "inputs": [],
      "name": "BLACKLISTER_ROLE",
      "outputs": [
        {
          "internalType": "bytes32",
          "name": "",
          "type": "bytes32"
        }
      ],
      "stateMutability": "view",
      "type": "function"
    },
    {
      "inputs": [],
      "name": "BURNER_ROLE",
      "outputs": [
        {
          "internalType": "bytes32",
          "name": "",
          "type": "bytes32"
        }
      ],
      "stateMutability": "view",
      "type": "function"
    },
    {
      "inputs": [],
      "name": "CLAWBACK_ROLE",
      "outputs": [
        {
          "internalType": "bytes32",
          "name": "",
          "type": "bytes32"
        }
      ],
      "stateMutability": "view",
      "type": "function"
    },
    {
      "inputs": [],
      "name": "DEFAULT_ADMIN_ROLE",
      "outputs": [
        {
          "internalType": "bytes32",
          "name": "",
          "type": "bytes32"
        }
      ],
      "stateMutability": "view",
      "type": "function"
    },
    {
      "inputs": [],
      "name": "MINTER_ROLE",
      "outputs": [
        {
          "internalType": "bytes32",
          "name": "",
          "type": "bytes32"
        }
      ],
      "stateMutability": "view",
      "type": "function"
    },
    {
      "inputs": [],
      "name": "PAUSER_ROLE",
      "outputs": [
        {
          "internalType": "bytes32",
          "name": "",
          "type": "bytes32"
        }
      ],
      "stateMutability": "view",
      "type": "function"
    },
    {
      "inputs": [],
      "name": "POST_MINTER_ROLE",
      "outputs": [
        {
          "internalType": "bytes32",
          "name": "",
          "type": "bytes32"
        }
      ],
      "stateMutability": "view",
      "type": "function"
    },
    {
      "inputs": [],
      "name": "UPGRADER_ROLE",
      "outputs": [
        {
          "internalType": "bytes32",
          "name": "",
          "type": "bytes32"
        }
      ],
      "stateMutability": "view",
      "type": "function"
    },
    {
      "inputs": [],
      "name": "URI_SETTER_ROLE",
      "outputs": [
        {
          "internalType": "bytes32",
          "name": "",
          "type": "bytes32"
        }
      ],
      "stateMutability": "view",
      "type": "function"
    },
    {
      "inputs": [],
      "name": "VERIFIER_ROLE",
      "outputs": [
        {
          "internalType": "bytes32",
          "name": "",
          "type": "bytes32"
        }
      ],
      "stateMutability": "view",
      "type": "function"
    },
    {
      "inputs": [
        {
          "internalType": "address",
          "name": "_contractRegistry",
          "type": "address"
        },
        {
          "internalType": "uint256",
          "name": "_projectId",
          "type": "uint256"
        },
        {
          "internalType": "string",
          "name": "_projectName",
          "type": "string"
        },
        {
          "internalType": "string",
          "name": "_projectUri",
          "type": "string"
        },
        {
          "internalType": "string",
          "name": "_methodology",
          "type": "string"
        }
      ],
      "name": "__ProjectStorage_init",
      "outputs": [],
      "stateMutability": "nonpayable",
      "type": "function"
    },
    {
      "inputs": [
        {
          "internalType": "address",
          "name": "from",
          "type": "address"
        },
        {
          "internalType": "address",
          "name": "to",
          "type": "address"
        },
        {
          "internalType": "uint256",
          "name": "tokenId",
          "type": "uint256"
        },
        {
          "internalType": "uint256",
          "name": "amount",
          "type": "uint256"
        },
        {
          "internalType": "enum AdminActionReason",
          "name": "reason",
          "type": "uint8"
        }
      ],
      "name": "adminClawback",
      "outputs": [],
      "stateMutability": "nonpayable",
      "type": "function"
    },
    {
      "inputs": [
        {
          "internalType": "address",
          "name": "account",
          "type": "address"
        },
        {
          "internalType": "uint256",
          "name": "id",
          "type": "uint256"
        }
      ],
      "name": "balanceOf",
      "outputs": [
        {
          "internalType": "uint256",
          "name": "",
          "type": "uint256"
        }
      ],
      "stateMutability": "view",
      "type": "function"
    },
    {
      "inputs": [
        {
          "internalType": "address[]",
          "name": "accounts",
          "type": "address[]"
        },
        {
          "internalType": "uint256[]",
          "name": "ids",
          "type": "uint256[]"
        }
      ],
      "name": "balanceOfBatch",
      "outputs": [
        {
          "internalType": "uint256[]",
          "name": "",
          "type": "uint256[]"
        }
      ],
      "stateMutability": "view",
      "type": "function"
    },
    {
      "inputs": [
        {
          "internalType": "address",
          "name": "account",
          "type": "address"
        },
        {
          "internalType": "uint256",
          "name": "tokenId",
          "type": "uint256"
        },
        {
          "internalType": "uint256",
          "name": "amount",
          "type": "uint256"
        }
      ],
      "name": "burnFromAccount",
      "outputs": [],
      "stateMutability": "nonpayable",
      "type": "function"
    },
    {
      "inputs": [
        {
          "internalType": "bytes",
          "name": "signature",
          "type": "bytes"
        },
        {
          "components": [
            {
              "internalType": "uint256",
              "name": "deadline",
              "type": "uint256"
            },
            {
              "internalType": "string",
              "name": "description",
              "type": "string"
            },
            {
              "internalType": "address",
              "name": "signer",
              "type": "address"
            },
            {
              "internalType": "address",
              "name": "to",
              "type": "address"
            },
            {
              "internalType": "uint256",
              "name": "tokenId",
              "type": "uint256"
            },
            {
              "internalType": "uint256",
              "name": "amount",
              "type": "uint256"
            },
            {
              "internalType": "uint256",
              "name": "nonce",
              "type": "uint256"
            }
          ],
          "internalType": "struct signatureTransferPayload",
          "name": "payload",
          "type": "tuple"
        },
        {
          "internalType": "string",
          "name": "comment",
          "type": "string"
        },
        {
          "internalType": "bytes",
          "name": "data",
          "type": "bytes"
        }
      ],
      "name": "cancelCreditsFromSignature",
      "outputs": [],
      "stateMutability": "nonpayable",
      "type": "function"
    },
    {
      "inputs": [
        {
          "internalType": "uint256",
          "name": "tokenId",
          "type": "uint256"
        },
        {
          "internalType": "uint256",
          "name": "newEstAmount",
          "type": "uint256"
        },
        {
          "internalType": "enum AdminActionReason",
          "name": "reason",
          "type": "uint8"
        }
      ],
      "name": "changeVintageMitigationEstimate",
      "outputs": [],
      "stateMutability": "nonpayable",
      "type": "function"
    },
    {
      "inputs": [],
      "name": "contractRegistry",
      "outputs": [
        {
          "internalType": "address",
          "name": "",
          "type": "address"
        }
      ],
      "stateMutability": "view",
      "type": "function"
    },
    {
      "inputs": [
        {
          "internalType": "uint256",
          "name": "estAmount",
          "type": "uint256"
        },
        {
          "internalType": "uint256",
          "name": "verificationPeriodStart",
          "type": "uint256"
        },
        {
          "internalType": "uint256",
          "name": "verificationPeriodEnd",
          "type": "uint256"
        },
        {
          "internalType": "string",
          "name": "serialization",
          "type": "string"
        }
      ],
      "name": "createExPostVintage",
      "outputs": [],
      "stateMutability": "nonpayable",
      "type": "function"
    },
    {
      "inputs": [
        {
          "components": [
            {
              "internalType": "string",
              "name": "serialization",
              "type": "string"
            },
            {
              "internalType": "uint256",
              "name": "estMitigations",
              "type": "uint256"
            },
            {
              "internalType": "uint256",
              "name": "verificationPeriodStart",
              "type": "uint256"
            },
            {
              "internalType": "uint256",
              "name": "verificationPeriodEnd",
              "type": "uint256"
            },
            {
              "internalType": "uint256",
              "name": "lastVerificationTimestamp",
              "type": "uint256"
            }
          ],
          "internalType": "struct VintageData[]",
          "name": "vintages",
          "type": "tuple[]"
        }
      ],
      "name": "createExPostVintageBatch",
      "outputs": [],
      "stateMutability": "nonpayable",
      "type": "function"
    },
    {
      "inputs": [],
      "name": "eip712Domain",
      "outputs": [
        {
          "internalType": "bytes1",
          "name": "fields",
          "type": "bytes1"
        },
        {
          "internalType": "string",
          "name": "name",
          "type": "string"
        },
        {
          "internalType": "string",
          "name": "version",
          "type": "string"
        },
        {
          "internalType": "uint256",
          "name": "chainId",
          "type": "uint256"
        },
        {
          "internalType": "address",
          "name": "verifyingContract",
          "type": "address"
        },
        {
          "internalType": "bytes32",
          "name": "salt",
          "type": "bytes32"
        },
        {
          "internalType": "uint256[]",
          "name": "extensions",
          "type": "uint256[]"
        }
      ],
      "stateMutability": "view",
      "type": "function"
    },
    {
      "inputs": [
        {
          "internalType": "uint256",
          "name": "",
          "type": "uint256"
        }
      ],
      "name": "exAnteToExPostTokenId",
      "outputs": [
        {
          "internalType": "uint256",
          "name": "",
          "type": "uint256"
        }
      ],
      "stateMutability": "view",
      "type": "function"
    },
    {
      "inputs": [
        {
          "internalType": "uint256",
          "name": "",
          "type": "uint256"
        }
      ],
      "name": "exPostToExAnteTokenId",
      "outputs": [
        {
          "internalType": "uint256",
          "name": "",
          "type": "uint256"
        }
      ],
      "stateMutability": "view",
      "type": "function"
    },
    {
      "inputs": [
        {
          "internalType": "uint256",
          "name": "",
          "type": "uint256"
        }
      ],
      "name": "exPostVintageMapping",
      "outputs": [
        {
          "internalType": "string",
          "name": "serialization",
          "type": "string"
        },
        {
          "internalType": "uint256",
          "name": "estMitigations",
          "type": "uint256"
        },
        {
          "internalType": "uint256",
          "name": "verificationPeriodStart",
          "type": "uint256"
        },
        {
          "internalType": "uint256",
          "name": "verificationPeriodEnd",
          "type": "uint256"
        },
        {
          "internalType": "uint256",
          "name": "lastVerificationTimestamp",
          "type": "uint256"
        }
      ],
      "stateMutability": "view",
      "type": "function"
    },
    {
      "inputs": [
        {
          "internalType": "address[]",
          "name": "accounts",
          "type": "address[]"
        },
        {
          "internalType": "uint256",
          "name": "exPostTokenId",
          "type": "uint256"
        },
        {
          "internalType": "bytes",
          "name": "data",
          "type": "bytes"
        }
      ],
      "name": "exchangeAnteForPostEvenSteven",
      "outputs": [],
      "stateMutability": "nonpayable",
      "type": "function"
    },
    {
      "inputs": [
        {
          "internalType": "uint256",
          "name": "id",
          "type": "uint256"
        }
      ],
      "name": "exists",
      "outputs": [
        {
          "internalType": "bool",
          "name": "",
          "type": "bool"
        }
      ],
      "stateMutability": "view",
      "type": "function"
    },
    {
      "inputs": [
        {
          "internalType": "bytes32",
          "name": "role",
          "type": "bytes32"
        }
      ],
      "name": "getRoleAdmin",
      "outputs": [
        {
          "internalType": "bytes32",
          "name": "",
          "type": "bytes32"
        }
      ],
      "stateMutability": "view",
      "type": "function"
    },
    {
      "inputs": [
        {
          "internalType": "bytes32",
          "name": "role",
          "type": "bytes32"
        },
        {
          "internalType": "address",
          "name": "account",
          "type": "address"
        }
      ],
      "name": "grantRole",
      "outputs": [],
      "stateMutability": "nonpayable",
      "type": "function"
    },
    {
      "inputs": [
        {
          "internalType": "bytes32",
          "name": "role",
          "type": "bytes32"
        },
        {
          "internalType": "address",
          "name": "account",
          "type": "address"
        }
      ],
      "name": "hasRole",
      "outputs": [
        {
          "internalType": "bool",
          "name": "",
          "type": "bool"
        }
      ],
      "stateMutability": "view",
      "type": "function"
    },
    {
      "inputs": [
        {
          "internalType": "address",
          "name": "_contractRegistry",
          "type": "address"
        },
        {
          "internalType": "address",
          "name": "_owner",
          "type": "address"
        },
        {
          "internalType": "uint256",
          "name": "_projectId",
          "type": "uint256"
        },
        {
          "internalType": "string",
          "name": "_projectName",
          "type": "string"
        },
        {
          "internalType": "string",
          "name": "_projectMethodology",
          "type": "string"
        },
        {
          "internalType": "string",
          "name": "_projectUri",
          "type": "string"
        }
      ],
      "name": "initialize",
      "outputs": [],
      "stateMutability": "nonpayable",
      "type": "function"
    },
    {
      "inputs": [
        {
          "internalType": "address",
          "name": "account",
          "type": "address"
        },
        {
          "internalType": "address",
          "name": "operator",
          "type": "address"
        }
      ],
      "name": "isApprovedForAll",
      "outputs": [
        {
          "internalType": "bool",
          "name": "",
          "type": "bool"
        }
      ],
      "stateMutability": "view",
      "type": "function"
    },
    {
      "inputs": [
        {
          "internalType": "uint256",
          "name": "tokenId",
          "type": "uint256"
        }
      ],
      "name": "isExPostToken",
      "outputs": [
        {
          "internalType": "bool",
          "name": "",
          "type": "bool"
        }
      ],
      "stateMutability": "view",
      "type": "function"
    },
    {
      "inputs": [],
      "name": "maxAntePercentage",
      "outputs": [
        {
          "internalType": "uint8",
          "name": "",
          "type": "uint8"
        }
      ],
      "stateMutability": "view",
      "type": "function"
    },
    {
      "inputs": [],
      "name": "methodology",
      "outputs": [
        {
          "internalType": "string",
          "name": "",
          "type": "string"
        }
      ],
      "stateMutability": "view",
      "type": "function"
    },
    {
      "inputs": [
        {
          "internalType": "address",
          "name": "account",
          "type": "address"
        },
        {
          "internalType": "uint256",
          "name": "exPostTokenId",
          "type": "uint256"
        },
        {
          "internalType": "uint256",
          "name": "amount",
          "type": "uint256"
        },
        {
          "internalType": "bytes",
          "name": "data",
          "type": "bytes"
        }
      ],
      "name": "mintExAnte",
      "outputs": [],
      "stateMutability": "nonpayable",
      "type": "function"
    },
    {
      "inputs": [
        {
          "internalType": "address",
          "name": "",
          "type": "address"
        },
        {
          "internalType": "address",
          "name": "",
          "type": "address"
        },
        {
          "internalType": "uint256[]",
          "name": "",
          "type": "uint256[]"
        },
        {
          "internalType": "uint256[]",
          "name": "",
          "type": "uint256[]"
        },
        {
          "internalType": "bytes",
          "name": "",
          "type": "bytes"
        }
      ],
      "name": "onERC1155BatchReceived",
      "outputs": [
        {
          "internalType": "bytes4",
          "name": "",
          "type": "bytes4"
        }
      ],
      "stateMutability": "nonpayable",
      "type": "function"
    },
    {
      "inputs": [
        {
          "internalType": "address",
          "name": "",
          "type": "address"
        },
        {
          "internalType": "address",
          "name": "",
          "type": "address"
        },
        {
          "internalType": "uint256",
          "name": "",
          "type": "uint256"
        },
        {
          "internalType": "uint256",
          "name": "",
          "type": "uint256"
        },
        {
          "internalType": "bytes",
          "name": "",
          "type": "bytes"
        }
      ],
      "name": "onERC1155Received",
      "outputs": [
        {
          "internalType": "bytes4",
          "name": "",
          "type": "bytes4"
        }
      ],
      "stateMutability": "nonpayable",
      "type": "function"
    },
    {
      "inputs": [],
      "name": "pause",
      "outputs": [],
      "stateMutability": "nonpayable",
      "type": "function"
    },
    {
      "inputs": [],
      "name": "paused",
      "outputs": [
        {
          "internalType": "bool",
          "name": "",
          "type": "bool"
        }
      ],
      "stateMutability": "view",
      "type": "function"
    },
    {
      "inputs": [],
      "name": "projectId",
      "outputs": [
        {
          "internalType": "uint256",
          "name": "",
          "type": "uint256"
        }
      ],
      "stateMutability": "view",
      "type": "function"
    },
    {
      "inputs": [],
      "name": "projectName",
      "outputs": [
        {
          "internalType": "string",
          "name": "",
          "type": "string"
        }
      ],
      "stateMutability": "view",
      "type": "function"
    },
    {
      "inputs": [],
      "name": "projectUri",
      "outputs": [
        {
          "internalType": "string",
          "name": "",
          "type": "string"
        }
      ],
      "stateMutability": "view",
      "type": "function"
    },
    {
      "inputs": [],
      "name": "proxiableUUID",
      "outputs": [
        {
          "internalType": "bytes32",
          "name": "",
          "type": "bytes32"
        }
      ],
      "stateMutability": "view",
      "type": "function"
    },
    {
      "inputs": [
        {
          "internalType": "bytes32",
          "name": "role",
          "type": "bytes32"
        },
        {
          "internalType": "address",
          "name": "account",
          "type": "address"
        }
      ],
      "name": "renounceRole",
      "outputs": [],
      "stateMutability": "nonpayable",
      "type": "function"
    },
    {
      "inputs": [
        {
          "internalType": "uint256",
          "name": "tokenId",
          "type": "uint256"
        },
        {
          "internalType": "uint256",
          "name": "amount",
          "type": "uint256"
        },
        {
          "internalType": "address",
          "name": "beneficiary",
          "type": "address"
        },
        {
          "internalType": "string",
          "name": "retireeName",
          "type": "string"
        },
        {
          "internalType": "string",
          "name": "customUri",
          "type": "string"
        },
        {
          "internalType": "string",
          "name": "comment",
          "type": "string"
        },
        {
          "internalType": "bytes",
          "name": "data",
          "type": "bytes"
        }
      ],
      "name": "retire",
      "outputs": [
        {
          "internalType": "uint256",
          "name": "nftTokenId",
          "type": "uint256"
        }
      ],
      "stateMutability": "nonpayable",
      "type": "function"
    },
    {
      "inputs": [
        {
          "internalType": "bytes",
          "name": "signature",
          "type": "bytes"
        },
        {
          "components": [
            {
              "internalType": "uint256",
              "name": "deadline",
              "type": "uint256"
            },
            {
              "internalType": "string",
              "name": "description",
              "type": "string"
            },
            {
              "internalType": "address",
              "name": "signer",
              "type": "address"
            },
            {
              "internalType": "address",
              "name": "to",
              "type": "address"
            },
            {
              "internalType": "uint256",
              "name": "tokenId",
              "type": "uint256"
            },
            {
              "internalType": "uint256",
              "name": "amount",
              "type": "uint256"
            },
            {
              "internalType": "uint256",
              "name": "nonce",
              "type": "uint256"
            }
          ],
          "internalType": "struct signatureTransferPayload",
          "name": "payload",
          "type": "tuple"
        },
        {
          "internalType": "string",
          "name": "retireeName",
          "type": "string"
        },
        {
          "internalType": "string",
          "name": "customUri",
          "type": "string"
        },
        {
          "internalType": "string",
          "name": "comment",
          "type": "string"
        },
        {
          "internalType": "bytes",
          "name": "data",
          "type": "bytes"
        }
      ],
      "name": "retireFromSignature",
      "outputs": [
        {
          "internalType": "uint256",
          "name": "nftTokenId",
          "type": "uint256"
        }
      ],
      "stateMutability": "nonpayable",
      "type": "function"
    },
    {
      "inputs": [
        {
          "internalType": "uint256",
          "name": "",
          "type": "uint256"
        }
      ],
      "name": "retirementMapping",
      "outputs": [
        {
          "internalType": "address",
          "name": "retiree",
          "type": "address"
        },
        {
          "internalType": "uint256",
          "name": "amount",
          "type": "uint256"
        },
        {
          "internalType": "uint256",
          "name": "vintageTokenId",
          "type": "uint256"
        },
        {
          "internalType": "string",
          "name": "retireeName",
          "type": "string"
        },
        {
          "internalType": "string",
          "name": "customUri",
          "type": "string"
        },
        {
          "internalType": "string",
          "name": "comment",
          "type": "string"
        }
      ],
      "stateMutability": "view",
      "type": "function"
    },
    {
      "inputs": [
        {
          "internalType": "bytes32",
          "name": "role",
          "type": "bytes32"
        },
        {
          "internalType": "address",
          "name": "account",
          "type": "address"
        }
      ],
      "name": "revokeRole",
      "outputs": [],
      "stateMutability": "nonpayable",
      "type": "function"
    },
    {
      "inputs": [
        {
          "internalType": "address",
          "name": "from",
          "type": "address"
        },
        {
          "internalType": "address",
          "name": "to",
          "type": "address"
        },
        {
          "internalType": "uint256[]",
          "name": "ids",
          "type": "uint256[]"
        },
        {
          "internalType": "uint256[]",
          "name": "amounts",
          "type": "uint256[]"
        },
        {
          "internalType": "bytes",
          "name": "data",
          "type": "bytes"
        }
      ],
      "name": "safeBatchTransferFrom",
      "outputs": [],
      "stateMutability": "nonpayable",
      "type": "function"
    },
    {
      "inputs": [
        {
          "internalType": "address",
          "name": "from",
          "type": "address"
        },
        {
          "internalType": "address",
          "name": "to",
          "type": "address"
        },
        {
          "internalType": "uint256",
          "name": "id",
          "type": "uint256"
        },
        {
          "internalType": "uint256",
          "name": "amount",
          "type": "uint256"
        },
        {
          "internalType": "bytes",
          "name": "data",
          "type": "bytes"
        }
      ],
      "name": "safeTransferFrom",
      "outputs": [],
      "stateMutability": "nonpayable",
      "type": "function"
    },
    {
      "inputs": [
        {
          "internalType": "string",
          "name": "",
          "type": "string"
        }
      ],
      "name": "serializationToExPostTokenIdMapping",
      "outputs": [
        {
          "internalType": "uint256",
          "name": "",
          "type": "uint256"
        }
      ],
      "stateMutability": "view",
      "type": "function"
    },
    {
      "inputs": [
        {
          "internalType": "address",
          "name": "operator",
          "type": "address"
        },
        {
          "internalType": "bool",
          "name": "approved",
          "type": "bool"
        }
      ],
      "name": "setApprovalForAll",
      "outputs": [],
      "stateMutability": "nonpayable",
      "type": "function"
    },
    {
      "inputs": [
        {
          "internalType": "string",
          "name": "newuri",
          "type": "string"
        }
      ],
      "name": "setURI",
      "outputs": [],
      "stateMutability": "nonpayable",
      "type": "function"
    },
    {
      "inputs": [
        {
          "internalType": "address",
          "name": "",
          "type": "address"
        }
      ],
      "name": "signatureNonces",
      "outputs": [
        {
          "internalType": "uint32",
          "name": "",
          "type": "uint32"
        }
      ],
      "stateMutability": "view",
      "type": "function"
    },
    {
      "inputs": [
        {
          "internalType": "bytes4",
          "name": "interfaceId",
          "type": "bytes4"
        }
      ],
      "name": "supportsInterface",
      "outputs": [
        {
          "internalType": "bool",
          "name": "",
          "type": "bool"
        }
      ],
      "stateMutability": "view",
      "type": "function"
    },
    {
      "inputs": [],
      "name": "testUpgrade",
      "outputs": [
        {
          "internalType": "string",
          "name": "",
          "type": "string"
        }
      ],
      "stateMutability": "pure",
      "type": "function"
    },
    {
      "inputs": [],
      "name": "topTokenId",
      "outputs": [
        {
          "internalType": "uint256",
          "name": "",
          "type": "uint256"
        }
      ],
      "stateMutability": "view",
      "type": "function"
    },
    {
      "inputs": [
        {
          "internalType": "uint256",
          "name": "id",
          "type": "uint256"
        }
      ],
      "name": "totalSupply",
      "outputs": [
        {
          "internalType": "uint256",
          "name": "",
          "type": "uint256"
        }
      ],
      "stateMutability": "view",
      "type": "function"
    },
    {
      "inputs": [
        {
          "internalType": "bytes",
          "name": "signature",
          "type": "bytes"
        },
        {
          "components": [
            {
              "internalType": "uint256",
              "name": "deadline",
              "type": "uint256"
            },
            {
              "internalType": "string",
              "name": "description",
              "type": "string"
            },
            {
              "internalType": "address",
              "name": "signer",
              "type": "address"
            },
            {
              "internalType": "address",
              "name": "to",
              "type": "address"
            },
            {
              "internalType": "uint256",
              "name": "tokenId",
              "type": "uint256"
            },
            {
              "internalType": "uint256",
              "name": "amount",
              "type": "uint256"
            },
            {
              "internalType": "uint256",
              "name": "nonce",
              "type": "uint256"
            }
          ],
          "internalType": "struct signatureTransferPayload",
          "name": "payload",
          "type": "tuple"
        },
        {
          "internalType": "bytes",
          "name": "data",
          "type": "bytes"
        }
      ],
      "name": "transferFromSignature",
      "outputs": [],
      "stateMutability": "payable",
      "type": "function"
    },
    {
      "inputs": [],
      "name": "unpause",
      "outputs": [],
      "stateMutability": "nonpayable",
      "type": "function"
    },
    {
      "inputs": [
        {
          "internalType": "address",
          "name": "newImplementation",
          "type": "address"
        }
      ],
      "name": "upgradeTo",
      "outputs": [],
      "stateMutability": "nonpayable",
      "type": "function"
    },
    {
      "inputs": [
        {
          "internalType": "address",
          "name": "newImplementation",
          "type": "address"
        },
        {
          "internalType": "bytes",
          "name": "data",
          "type": "bytes"
        }
      ],
      "name": "upgradeToAndCall",
      "outputs": [],
      "stateMutability": "payable",
      "type": "function"
    },
    {
      "inputs": [
        {
          "internalType": "uint256",
          "name": "",
          "type": "uint256"
        }
      ],
      "name": "uri",
      "outputs": [
        {
          "internalType": "string",
          "name": "",
          "type": "string"
        }
      ],
      "stateMutability": "view",
      "type": "function"
    },
    {
      "inputs": [
        {
          "internalType": "address",
          "name": "verificationVault",
          "type": "address"
        },
        {
          "internalType": "uint256",
          "name": "tokenId",
          "type": "uint256"
        },
        {
          "internalType": "uint256",
          "name": "amountVerified",
          "type": "uint256"
        },
        {
          "internalType": "uint256",
          "name": "amountToAnteHolders",
          "type": "uint256"
        },
        {
          "internalType": "uint256",
          "name": "verificationPeriodStart",
          "type": "uint256"
        },
        {
          "internalType": "uint256",
          "name": "verificationPeriodEnd",
          "type": "uint256"
        },
        {
          "internalType": "string",
          "name": "monitoringReport",
          "type": "string"
        }
      ],
      "name": "verifyAndMintExPost",
      "outputs": [],
      "stateMutability": "nonpayable",
      "type": "function"
    }
  ],
  "bytecode": "0x60a0604052306080523480156200001557600080fd5b506200002062000026565b620000e7565b600054610100900460ff1615620000935760405162461bcd60e51b815260206004820152602760248201527f496e697469616c697a61626c653a20636f6e747261637420697320696e697469604482015266616c697a696e6760c81b606482015260840160405180910390fd5b60005460ff90811614620000e5576000805460ff191660ff9081179091556040519081527f7f26b83ff96e1f2b6a682f133852f6798a09c465da95921460cefb38474024989060200160405180910390a15b565b608051615ebf6200011f600039600081816116c90152818161170901528181611a9201528181611ad20152611b5d0152615ebf6000f3fe6080604052600436106102e85760003560e01c8062fdd58e146102ed57806301139ca71461032057806301ffc9a71461034257806302fe5305146103725780630cda95f9146103925780630e89341c146103b257806310c1e7a1146103df57806322088ebf146103ff578063248a9ca31461041f578063275d4dec1461043f578063282c51f31461045f5780632ea05e44146104935780632eb2c2d6146104b55780632f2ff15d146104d55780633584c384146104f557806336568abe146105235780633659cfe6146105435780633f4ba83a146105635780633fafa1271461057857806341a30d3c1461058f5780634e1273f4146105af5780634f1ef286146105dc5780634f558e79146105ef57806352d1902d1461060f57806354ff07951461062457806357c537af1461065d5780635c975abb1461067d5780635e3bbaab14610695578063610e7012146106b757806361eeb089146106e45780636929a19c146106fb5780636f63984d1461072d578063728e68e31461074d578063748957de1461077e57806379c27605146107935780637f345710146107b35780638456cb59146107d557806384b0196e146107ea5780638f76c1da1461081257806391d14854146108405780639a33e300146108605780639d6aed0b146108755780639eeb1d50146108a3578063a0e1b171146108b8578063a1062771146108d8578063a217fddf146108f8578063a22cb4651461090d578063aa8b2ea71461092d578063abf410e51461094f578063af93ff721461097d578063bc197c811461099d578063bd85b039146109e2578063d539139314610a02578063d547741f14610a36578063dbd8483d14610a56578063deb0420714610a9f578063e36408d014610abf578063e63ab1e914610ad2578063e7705db614610af4578063e985e9c514610b16578063eda3b77b14610b5f578063edc0b2e614610b7f578063f23a6e6114610ba1578063f242432a14610bcd578063f515e6f214610bed578063f72c0d8b14610c0f575b600080fd5b3480156102f957600080fd5b5061030d61030836600461463a565b610c31565b6040519081526020015b60405180910390f35b34801561032c57600080fd5b5061034061033b36600461473e565b610cc9565b005b34801561034e57600080fd5b5061036261035d366004614805565b610efc565b6040519015158152602001610317565b34801561037e57600080fd5b5061034061038d366004614822565b610f0d565b34801561039e57600080fd5b506103406103ad3660046148f1565b610f32565b3480156103be57600080fd5b506103d26103cd36600461495d565b6110f7565b60405161031791906149ce565b3480156103eb57600080fd5b506103406103fa3660046149e1565b61118b565b34801561040b57600080fd5b5061034061041a366004614a9a565b6112c4565b34801561042b57600080fd5b5061030d61043a36600461495d565b611537565b34801561044b57600080fd5b5061030d61045a366004614b4c565b61154c565b34801561046b57600080fd5b5061030d7f3c11d16cbaffd01df69ce1c404f6340ee057498f5f00246190ea54220576a84881565b34801561049f57600080fd5b5061030d600080516020615e2a83398151915281565b3480156104c157600080fd5b506103406104d0366004614c82565b6115d8565b3480156104e157600080fd5b506103406104f0366004614d11565b611624565b34801561050157600080fd5b5061030d61051036600461495d565b6101fe6020526000908152604090205481565b34801561052f57600080fd5b5061034061053e366004614d11565b611645565b34801561054f57600080fd5b5061034061055e366004614d3d565b6116bf565b34801561056f57600080fd5b50610340611787565b34801561058457600080fd5b5061030d6101f85481565b34801561059b57600080fd5b506103406105aa366004614d58565b6117a7565b3480156105bb57600080fd5b506105cf6105ca366004614dc6565b61195f565b6040516103179190614e64565b6103406105ea366004614e77565b611a88565b3480156105fb57600080fd5b5061036261060a36600461495d565b611b3d565b34801561061b57600080fd5b5061030d611b50565b34801561063057600080fd5b5061030d61063f366004614822565b80516020818301810180516101ff8252928201919093012091525481565b34801561066957600080fd5b50610340610678366004614ec9565b611bff565b34801561068957600080fd5b5060c95460ff16610362565b3480156106a157600080fd5b5061030d600080516020615e4a83398151915281565b3480156106c357600080fd5b506101f9546106d29060ff1681565b60405160ff9091168152602001610317565b3480156106f057600080fd5b5061030d6101f75481565b34801561070757600080fd5b5061071b61071636600461495d565b611d01565b60405161031796959493929190614f0b565b34801561073957600080fd5b5061036261074836600461495d565b611edb565b34801561075957600080fd5b5061076d61076836600461495d565b611f02565b604051610317959493929190614f5e565b34801561078a57600080fd5b506103d2611fb9565b34801561079f57600080fd5b506103406107ae366004614f95565b612048565b3480156107bf57600080fd5b5061030d600080516020615d8383398151915281565b3480156107e157600080fd5b506103406120fe565b3480156107f657600080fd5b506107ff61211e565b60405161031797969594939291906150b1565b34801561081e57600080fd5b5061030d61082d36600461495d565b6101fd6020526000908152604090205481565b34801561084c57600080fd5b5061036261085b366004614d11565b6121be565b34801561086c57600080fd5b506103d26121e9565b34801561088157600080fd5b50604080518082019091526005815264181718171b60d91b60208201526103d2565b3480156108af57600080fd5b506103d26121f7565b3480156108c457600080fd5b506103406108d3366004615121565b612205565b3480156108e457600080fd5b506103406108f3366004615162565b6123a4565b34801561090457600080fd5b5061030d600081565b34801561091957600080fd5b506103406109283660046151d4565b6124c1565b34801561093957600080fd5b5061030d600080516020615d6383398151915281565b34801561095b57600080fd5b506101fb54610970906001600160a01b031681565b6040516103179190615210565b34801561098957600080fd5b5061030d610998366004615224565b6124cc565b3480156109a957600080fd5b506109c96109b8366004614c82565b63bc197c8160e01b95945050505050565b6040516001600160e01b03199091168152602001610317565b3480156109ee57600080fd5b5061030d6109fd36600461495d565b6126db565b348015610a0e57600080fd5b5061030d7f9f2df0fed2c77648de5860a4cc508cd0818c85b8b8a1ab4ceeef8d981c8956a681565b348015610a4257600080fd5b50610340610a51366004614d11565b6126ed565b348015610a6257600080fd5b50610a8a610a71366004614d3d565b6101c56020526000908152604090205463ffffffff1681565b60405163ffffffff9091168152602001610317565b348015610aab57600080fd5b50610340610aba366004615303565b612709565b610340610acd36600461535a565b612798565b348015610ade57600080fd5b5061030d600080516020615dc383398151915281565b348015610b0057600080fd5b5061030d600080516020615e6a83398151915281565b348015610b2257600080fd5b50610362610b313660046153db565b6001600160a01b03918216600090815260666020908152604080832093909416825291909152205460ff1690565b348015610b6b57600080fd5b50610340610b7a366004615405565b6128cc565b348015610b8b57600080fd5b5061030d600080516020615cc383398151915281565b348015610bad57600080fd5b506109c9610bbc366004615438565b63f23a6e6160e01b95945050505050565b348015610bd957600080fd5b50610340610be8366004615438565b6128f5565b348015610bf957600080fd5b5061030d600080516020615e0a83398151915281565b348015610c1b57600080fd5b5061030d600080516020615d2383398151915281565b60006001600160a01b038316610ca15760405162461bcd60e51b815260206004820152602a60248201527f455243313135353a2061646472657373207a65726f206973206e6f742061207660448201526930b634b21037bbb732b960b11b60648201526084015b60405180910390fd5b5060009081526065602090815260408083206001600160a01b03949094168352929052205490565b600054610100900460ff1615808015610ce95750600054600160ff909116105b80610d0a5750610cf83061293a565b158015610d0a575060005460ff166001145b610d265760405162461bcd60e51b8152600401610c989061549c565b6000805460ff191660011790558015610d49576000805461ff0019166101001790555b610d6160405180602001604052806000815250612949565b610d69612979565b610d716129a2565b610d79612979565b610d81612979565b610dcf6040518060400160405280600f81526020016e436172626f6e20526567697374727960881b81525060405180604001604052806005815260200164302e302e3160d81b8152506129d1565b610ddc87868685876123a4565b610de7600087612a02565b610dff600080516020615d8383398151915287612a02565b610e17600080516020615dc383398151915287612a02565b610e2f600080516020615cc383398151915287612a02565b610e47600080516020615e4a83398151915287612a02565b610e5f600080516020615d2383398151915287612a02565b610e77600080516020615e0a83398151915287612a02565b610e8f600080516020615e6a83398151915287612a02565b610ea7600080516020615e2a83398151915287612a02565b610ebf600080516020615e4a83398151915233612a02565b8015610ef3576000805461ff001916905560405160018152600080516020615da38339815191529060200160405180910390a15b50505050505050565b6000610f0782612a88565b92915050565b600080516020615d83833981519152610f2581612aad565b610f2e82612ab7565b5050565b81610f3c81611edb565b610f585760405162461bcd60e51b8152600401610c98906154ea565b60008381526101fe602052604081205490819003610f885760405162461bcd60e51b8152600401610c9890615505565b6000610f93826126db565b90506000610fa13087610c31565b905060008111610fd85760405162461bcd60e51b8152602060048201526002602482015261031360f41b6044820152606401610c98565b60005b87518110156110ed576000611009898381518110610ffb57610ffb615520565b602002602001015186610c31565b9050600084611018858461554c565b611022919061556b565b905081818111156110305750805b898b858151811061104357611043615520565b60200260200101516001600160a01b03167ffa5cd0fcb25938b2f45b3ca175241bfb3739cf4db3cb7476846930ec714f13f2848460405161108592919061558d565b60405180910390a36110b18b85815181106110a2576110a2615520565b60200260200101518883612aca565b6110d7308c86815181106110c7576110c7615520565b60200260200101518c858d612c4f565b50505080806110e59061559b565b915050610fdb565b5050505050505050565b606060678054611106906155b4565b80601f0160208091040260200160405190810160405280929190818152602001828054611132906155b4565b801561117f5780601f106111545761010080835404028352916020019161117f565b820191906000526020600020905b81548152906001019060200180831161116257829003601f168201915b50505050509050919050565b600080516020615cc38339815191526111a381612aad565b836111ad81611edb565b6111c95760405162461bcd60e51b8152600401610c98906154ea565b60008581526101fc602052604081206003810154600490910154879111604051806040016040528060018152602001603360f81b8152509061121e5760405162461bcd60e51b8152600401610c9891906149ce565b5060008781526101fe60205260408120549081900361126857506101f780546001019081905560008881526101fe602090815260408083208490558383526101fd90915290208890555b886001600160a01b031688827f1fe9ade752d24e4f4dca10f5c807a7cc8630c7604280c8b124097d93b5bb02a18a6040516112a591815260200190565b60405180910390a46112b989828989612d7a565b505050505050505050565b848484600080516020615d038339815191528383836040516112e893929190615611565b60405180910390a160006113ff600080516020615ca3833981519152833561131360208601866156e9565b60405160200161132492919061572f565b6040516020818303038152906040528051906020012085604001602081019061134d9190614d3d565b61135d6080880160608901614d3d565b608088013560a08901356101c5600061137c60608d0160408e01614d3d565b6001600160a01b03908116825260208083019390935260409182016000205482519384019a909a529082019790975260608101959095529285166080850152931660a083015260c082019290925260e081019190915263ffffffff9091166101008201526101200160405160208183030381529060405280519060200120612e92565b90506114538185858080601f01602080910402602001604051908101604052809392919081815260200183838082843760009201919091525061144c925050506060860160408701614d3d565b8535612ebf565b506101c560006114696060850160408601614d3d565b6001600160a01b0316815260208101919091526040016000908120805463ffffffff16916114968361573f565b91906101000a81548163ffffffff021916908363ffffffff1602179055505086608001358760400160208101906114cd9190614d3d565b6001600160a01b03167f782105afe5542acae5ab54dc3dab8b54887fd38a79f55330b3e1e70c3063d67b8960a00135898960405161150d93929190615762565b60405180910390a36112b96115286060890160408a01614d3d565b88608001358960a00135612aca565b60009081526097602052604090206001015490565b60008761155881611edb565b6115745760405162461bcd60e51b8152600401610c98906154ea565b6001600160a01b038716330361159a57611593338a8a89898989612f81565b91506115cc565b6001600160a01b0387166115ad57600080fd5b6115ba33888b8b87612c4f565b6115c9878a8a89898989612f81565b91505b50979650505050505050565b6001600160a01b0385163314806115f457506115f48533610b31565b6116105760405162461bcd60e51b8152600401610c989061578d565b61161d8585858585612fef565b5050505050565b61162d82611537565b61163681612aad565b6116408383612a02565b505050565b6001600160a01b03811633146116b55760405162461bcd60e51b815260206004820152602f60248201527f416363657373436f6e74726f6c3a2063616e206f6e6c792072656e6f756e636560448201526e103937b632b9903337b91039b2b63360891b6064820152608401610c98565b610f2e82826131d5565b6001600160a01b037f00000000000000000000000000000000000000000000000000000000000000001630036117075760405162461bcd60e51b8152600401610c98906157db565b7f00000000000000000000000000000000000000000000000000000000000000006001600160a01b031661173961323c565b6001600160a01b03161461175f5760405162461bcd60e51b8152600401610c9890615815565b61176881613258565b6040805160008082526020820190925261178491839190613270565b50565b600080516020615dc383398151915261179f81612aad565b6117846133db565b600080516020615e6a8339815191526117bf81612aad565b866117c981611edb565b6117e55760405162461bcd60e51b8152600401610c98906154ea565b60008881526101fc6020526040812060038101546004909101548a9111604051806040016040528060018152602001603360f81b8152509061183a5760405162461bcd60e51b8152600401610c9891906149ce565b508789101561186f5760405162461bcd60e51b81526020600482015260016024820152601b60f91b6044820152606401610c98565b60008a81526101fe6020526040812054908190036118a55788156118a55760405162461bcd60e51b8152600401610c9890615505565b8a7fe19de0f3da1193000100a217838f49f6bdda20dc974d33b61f92faaf446d181d8b8b8b8b8b6040516118dd95949392919061584f565b60405180910390a260006118f18a8c61587a565b111561191b5761191b8c8c6119068c8e61587a565b60405180602001604052806000815250612d7a565b60008b81526101fc60205260409020600401879055881561195157611951308c8b60405180602001604052806000815250612d7a565b505050505050505050505050565b606081518351146119c45760405162461bcd60e51b815260206004820152602960248201527f455243313135353a206163636f756e747320616e6420696473206c656e677468604482015268040dad2e6dac2e8c6d60bb1b6064820152608401610c98565b600083516001600160401b038111156119df576119df614664565b604051908082528060200260200182016040528015611a08578160200160208202803683370190505b50905060005b8451811015611a8057611a53858281518110611a2c57611a2c615520565b6020026020010151858381518110611a4657611a46615520565b6020026020010151610c31565b828281518110611a6557611a65615520565b6020908102919091010152611a798161559b565b9050611a0e565b509392505050565b6001600160a01b037f0000000000000000000000000000000000000000000000000000000000000000163003611ad05760405162461bcd60e51b8152600401610c98906157db565b7f00000000000000000000000000000000000000000000000000000000000000006001600160a01b0316611b0261323c565b6001600160a01b031614611b285760405162461bcd60e51b8152600401610c9890615815565b611b3182613258565b610f2e82826001613270565b600080611b49836126db565b1192915050565b6000306001600160a01b037f00000000000000000000000000000000000000000000000000000000000000001614611beb5760405162461bcd60e51b815260206004820152603860248201527f555550535570677261646561626c653a206d757374206e6f742062652063616c6044820152771b1959081d1a1c9bdd59da0819195b1959d85d1958d85b1b60421b6064820152608401610c98565b50600080516020615d438339815191525b90565b6000611c0a81612aad565b83611c1481611edb565b611c305760405162461bcd60e51b8152600401610c98906154ea565b60008581526101fc602052604081206003810154600490910154879111604051806040016040528060018152602001603360f81b81525090611c855760405162461bcd60e51b8152600401610c9891906149ce565b50846004811115611c9857611c98615891565b60008881526101fc60205260409081902060010154905189917f79ad675a154518428a5aa59f22c834871a66d54a46e3f4c8c5b4ee08fb576c2e91611cde918b9161558d565b60405180910390a3505050600093845250506101fc602052604090912060010155565b6102006020526000908152604090208054600182015460028301546003840180546001600160a01b03909416949293919291611d3c906155b4565b80601f0160208091040260200160405190810160405280929190818152602001828054611d68906155b4565b8015611db55780601f10611d8a57610100808354040283529160200191611db5565b820191906000526020600020905b815481529060010190602001808311611d9857829003601f168201915b505050505090806004018054611dca906155b4565b80601f0160208091040260200160405190810160405280929190818152602001828054611df6906155b4565b8015611e435780601f10611e1857610100808354040283529160200191611e43565b820191906000526020600020905b815481529060010190602001808311611e2657829003601f168201915b505050505090806005018054611e58906155b4565b80601f0160208091040260200160405190810160405280929190818152602001828054611e84906155b4565b8015611ed15780601f10611ea657610100808354040283529160200191611ed1565b820191906000526020600020905b815481529060010190602001808311611eb457829003601f168201915b5050505050905086565b60008181526101fc602052604081208054829190611ef8906155b4565b9050119050919050565b6101fc60205260009081526040902080548190611f1e906155b4565b80601f0160208091040260200160405190810160405280929190818152602001828054611f4a906155b4565b8015611f975780601f10611f6c57610100808354040283529160200191611f97565b820191906000526020600020905b815481529060010190602001808311611f7a57829003601f168201915b5050505050908060010154908060020154908060030154908060040154905085565b6102018054611fc7906155b4565b80601f0160208091040260200160405190810160405280929190818152602001828054611ff3906155b4565b80156120405780601f1061201557610100808354040283529160200191612040565b820191906000526020600020905b81548152906001019060200180831161202357829003601f168201915b505050505081565b600080516020615e4a83398151915261206081612aad565b60005b8251811015611640576120ec83828151811061208157612081615520565b60200260200101516020015184838151811061209f5761209f615520565b6020026020010151604001518584815181106120bd576120bd615520565b6020026020010151606001518685815181106120db576120db615520565b602002602001015160000151612205565b806120f68161559b565b915050612063565b600080516020615dc383398151915261211681612aad565b611784613427565b600060608060008060006060610191546000801b148015612140575061019254155b6121845760405162461bcd60e51b81526020600482015260156024820152741152540dcc4c8e88155b9a5b9a5d1a585b1a5e9959605a1b6044820152606401610c98565b61218c613464565b6121946134f7565b60408051600080825260208201909252600f60f81b9b939a50919850469750309650945092509050565b60009182526097602090815260408084206001600160a01b0393909316845291905290205460ff1690565b6101fa8054611fc7906155b4565b6102028054611fc7906155b4565b600080516020615e4a83398151915261221d81612aad565b8383116122505760405162461bcd60e51b81526020600482015260016024820152600d60fa1b6044820152606401610c98565b60006122646101f780546001019081905590565b6101fb546040516344d9d59b60e01b81529192506001600160a01b0316906344d9d59b906122969086906004016149ce565b600060405180830381600087803b1580156122b057600080fd5b505af11580156122c4573d6000803e3d6000fd5b50505050806101ff846040516122da91906158a7565b90815260408051602092819003830181209390935560a083018152858352818301899052828101889052606083018790526000608084018190528481526101fc8352208251805191926123329284929091019061458e565b5060208201518160010155604082015181600201556060820151816003015560808201518160040155905050807fc5fb6d85b5baef0a615415607787aea341771027b7e4da34da58eaeb661154ea8787878760405161239494939291906158c3565b60405180910390a2505050505050565b600054610100900460ff16158080156123c45750600054600160ff909116105b806123e557506123d33061293a565b1580156123e5575060005460ff166001145b6124015760405162461bcd60e51b8152600401610c989061549c565b6000805460ff191660011790558015612424576000805461ff0019166101001790555b6101fb80546001600160a01b0319166001600160a01b0388161790558351612454906101fa90602087019061458e565b506101f8859055825161246f9061020190602086019061458e565b5081516124849061020290602085019061458e565b5080156124b9576000805461ff001916905560405160018152600080516020615da38339815191529060200160405180910390a15b505050505050565b610f2e338383613507565b600085608001356124dc81611edb565b6124f85760405162461bcd60e51b8152600401610c98906154ea565b888888600080516020615d0383398151915283838360405161251c93929190615611565b60405180910390a16000612547600080516020615ca3833981519152833561131360208601866156e9565b90506125948185858080601f01602080910402602001604051908101604052809392919081815260200183838082843760009201919091525061144c925050506060860160408701614d3d565b506101c560006125aa6060850160408601614d3d565b6001600160a01b0316815260208101919091526040016000908120805463ffffffff16916125d78361573f565b91906101000a81548163ffffffff021916908363ffffffff160217905550508a60600160208101906126099190614d3d565b6001600160a01b031661262260608d0160408e01614d3d565b6001600160a01b03160361265d5761265661264360608d0160408e01614d3d565b8c608001358d60a001358d8d8d8d612f81565b95506126cb565b600061266f60808d0160608e01614d3d565b6001600160a01b03160361268257600080fd5b6126b561269560608d0160408e01614d3d565b6126a560808e0160608f01614d3d565b8d608001358e60a001358b612c4f565b6126c861264360808d0160608e01614d3d565b95505b5050505050979650505050505050565b600090815260fb602052604090205490565b6126f682611537565b6126ff81612aad565b61164083836131d5565b600080516020615e2a83398151915261272181612aad565b81600481111561273357612733615891565b604080516001600160a01b038881168252602082018790528792908a16917fa8b90aeef4d9590cac2ff486fc2b5d9749ed41f9388a7eb159eef94cf5fb65ab910160405180910390a46124b98686868660405180602001604052806000815250612c4f565b838383600080516020615d038339815191528383836040516127bc93929190615611565b60405180910390a160006127e7600080516020615ca3833981519152833561131360208601866156e9565b90506128348185858080601f01602080910402602001604051908101604052809392919081815260200183838082843760009201919091525061144c925050506060860160408701614d3d565b506101c5600061284a6060850160408601614d3d565b6001600160a01b0316815260208101919091526040016000908120805463ffffffff16916128778361573f565b91906101000a81548163ffffffff021916908363ffffffff160217905550506110ed8660400160208101906128ac9190614d3d565b6128bc6080890160608a01614d3d565b88608001358960a0013589612c4f565b600080516020615e2a8339815191526128e481612aad565b6128ef848484612aca565b50505050565b6001600160a01b03851633148061291157506129118533610b31565b61292d5760405162461bcd60e51b8152600401610c989061578d565b61161d8585858585612c4f565b6001600160a01b03163b151590565b600054610100900460ff166129705760405162461bcd60e51b8152600401610c98906158e8565b611784816135e7565b600054610100900460ff166129a05760405162461bcd60e51b8152600401610c98906158e8565b565b600054610100900460ff166129c95760405162461bcd60e51b8152600401610c98906158e8565b6129a0613617565b600054610100900460ff166129f85760405162461bcd60e51b8152600401610c98906158e8565b610f2e828261364a565b612a0c82826121be565b610f2e5760008281526097602090815260408083206001600160a01b03851684529091529020805460ff19166001179055612a443390565b6001600160a01b0316816001600160a01b0316837f2f8788117e7eff1d82e926ec794901d17c78024a50270940304540a733656f0d60405160405180910390a45050565b60006001600160e01b03198216630271189760e51b1480610f075750610f078261367b565b61178481336136a0565b8051610f2e90606790602084019061458e565b6001600160a01b038316612b2c5760405162461bcd60e51b815260206004820152602360248201527f455243313135353a206275726e2066726f6d20746865207a65726f206164647260448201526265737360e81b6064820152608401610c98565b336000612b38846136f9565b90506000612b45846136f9565b9050612b6583876000858560405180602001604052806000815250613744565b60008581526065602090815260408083206001600160a01b038a16845290915290205484811015612be45760405162461bcd60e51b8152602060048201526024808201527f455243313135353a206275726e20616d6f756e7420657863656564732062616c604482015263616e636560e01b6064820152608401610c98565b60008681526065602090815260408083206001600160a01b03808c1680865291909352818420898603905590519091871690600080516020615c8383398151915290612c33908b908b9061558d565b60405180910390a4604080516020810190915260009052610ef3565b6001600160a01b038416612c755760405162461bcd60e51b8152600401610c9890615933565b336000612c81856136f9565b90506000612c8e856136f9565b9050612c9e838989858589613744565b60008681526065602090815260408083206001600160a01b038c16845290915290205485811015612ce15760405162461bcd60e51b8152600401610c9890615978565b60008781526065602090815260408083206001600160a01b038d8116855292528083208985039055908a16825281208054889290612d209084906159c2565b92505081905550876001600160a01b0316896001600160a01b0316856001600160a01b0316600080516020615c838339815191528a8a604051612d6492919061558d565b60405180910390a46112b9848a8a8a8a8a61386d565b6001600160a01b038416612dda5760405162461bcd60e51b815260206004820152602160248201527f455243313135353a206d696e7420746f20746865207a65726f206164647265736044820152607360f81b6064820152608401610c98565b336000612de6856136f9565b90506000612df3856136f9565b9050612e0483600089858589613744565b60008681526065602090815260408083206001600160a01b038b16845290915281208054879290612e369084906159c2565b92505081905550866001600160a01b031660006001600160a01b0316846001600160a01b0316600080516020615c838339815191528989604051612e7b92919061558d565b60405180910390a4610ef38360008989898961386d565b6000610f07612e9f6139cf565b8360405161190160f01b8152600281019290925260228201526042902090565b6000612ecb85856139de565b9050826001600160a01b0316816001600160a01b0316148015612ef657506001600160a01b03811615155b612f365760405162461bcd60e51b8152602060048201526011602482015270496e76616c6964207369676e617475726560781b6044820152606401610c98565b814210612f795760405162461bcd60e51b815260206004820152601160248201527014da59db985d1d5c9948195e1c1a5c9959607a1b6044820152606401610c98565b949350505050565b6000612f8e888888612aca565b612f9c8888888888886139fa565b905086886001600160a01b03167f1325d882b2ca749c878a4ab3a393f6e51b69026faa05426b6d1ec6776a3f2f3c888486604051612fdc939291906159da565b60405180910390a3979650505050505050565b81518351146130515760405162461bcd60e51b815260206004820152602860248201527f455243313135353a2069647320616e6420616d6f756e7473206c656e677468206044820152670dad2e6dac2e8c6d60c31b6064820152608401610c98565b6001600160a01b0384166130775760405162461bcd60e51b8152600401610c9890615933565b33613086818787878787613744565b60005b845181101561316f5760008582815181106130a6576130a6615520565b6020026020010151905060008583815181106130c4576130c4615520565b60209081029190910181015160008481526065835260408082206001600160a01b038e1683529093529190912054909150818110156131155760405162461bcd60e51b8152600401610c9890615978565b60008381526065602090815260408083206001600160a01b038e8116855292528083208585039055908b168252812080548492906131549084906159c2565b92505081905550505050806131689061559b565b9050613089565b50846001600160a01b0316866001600160a01b0316826001600160a01b03167f4a39dc06d4c0dbc64b70af90fd698a233a518aa5d07e595d983b8c0526c8f7fb87876040516131bf929190615a02565b60405180910390a46124b9818787878787613af9565b6131df82826121be565b15610f2e5760008281526097602090815260408083206001600160a01b0385168085529252808320805460ff1916905551339285917ff6391f5c32d9c69d2a47ea670b442974b53935d1edc7fd64eb21e047a839171b9190a45050565b600080516020615d43833981519152546001600160a01b031690565b600080516020615d23833981519152610f2e81612aad565b7f4910fdfa16fed3260ed0e7147f7cc6da11a60208b5b9406d12a635614ffd91435460ff16156132a35761164083613bbb565b826001600160a01b03166352d1902d6040518163ffffffff1660e01b8152600401602060405180830381865afa9250505080156132fd575060408051601f3d908101601f191682019092526132fa91810190615a27565b60015b6133605760405162461bcd60e51b815260206004820152602e60248201527f45524331393637557067726164653a206e657720696d706c656d656e7461746960448201526d6f6e206973206e6f74205555505360901b6064820152608401610c98565b600080516020615d4383398151915281146133cf5760405162461bcd60e51b815260206004820152602960248201527f45524331393637557067726164653a20756e737570706f727465642070726f786044820152681a58589b195555525160ba1b6064820152608401610c98565b50611640838383613c55565b6133e3613c7a565b60c9805460ff191690557f5db9ee0a495bf2e6ff9c91a7834c1ba4fdd244a5e8aa4e537bd38aeae4b073aa335b60405161341d9190615210565b60405180910390a1565b61342f613cc3565b60c9805460ff191660011790557f62e78cea01bee320cd4e420270b5ea74000d11b0c9f74754ebdbfc544b05a2586134103390565b60606101938054613474906155b4565b80601f01602080910402602001604051908101604052809291908181526020018280546134a0906155b4565b80156134ed5780601f106134c2576101008083540402835291602001916134ed565b820191906000526020600020905b8154815290600101906020018083116134d057829003601f168201915b5050505050905090565b60606101948054613474906155b4565b816001600160a01b0316836001600160a01b03160361357a5760405162461bcd60e51b815260206004820152602960248201527f455243313135353a2073657474696e6720617070726f76616c20737461747573604482015268103337b91039b2b63360b91b6064820152608401610c98565b6001600160a01b03838116600081815260666020908152604080832094871680845294825291829020805460ff191686151590811790915591519182527f17307eab39ab6107e8899845ad3d59bd9653f200f220920489ca2b5937696c31910160405180910390a3505050565b600054610100900460ff1661360e5760405162461bcd60e51b8152600401610c98906158e8565b61178481612ab7565b600054610100900460ff1661363e5760405162461bcd60e51b8152600401610c98906158e8565b60c9805460ff19169055565b600054610100900460ff166136715760405162461bcd60e51b8152600401610c98906158e8565b610f2e8282613d09565b60006001600160e01b03198216637965db0b60e01b1480610f075750610f0782613d6a565b6136aa82826121be565b610f2e576136b781613dba565b6136c2836020613dcc565b6040516020016136d3929190615a40565b60408051601f198184030181529082905262461bcd60e51b8252610c98916004016149ce565b6040805160018082528183019092526060916000919060208083019080368337019050509050828160008151811061373357613733615520565b602090810291909101015292915050565b61374c613cc3565b84613765600080516020615d63833981519152826121be565b156137825760405162461bcd60e51b8152600401610c9890615aaf565b8461379b600080516020615d63833981519152826121be565b156137b85760405162461bcd60e51b8152600401610c9890615aaf565b60005b855181101561385e5761020060008783815181106137db576137db615520565b60200260200101518152602001908152602001600020600101546000148061381b57506001600160a01b038816158061381b57506001600160a01b038716155b61384c5760405162461bcd60e51b8152602060048201526002602482015261313160f01b6044820152606401610c98565b806138568161559b565b9150506137bb565b506110ed888888888888613f6e565b61387f846001600160a01b031661293a565b156124b95760405163f23a6e6160e01b81526001600160a01b0385169063f23a6e61906138b89089908990889088908890600401615aca565b6020604051808303816000875af19250505080156138f3575060408051601f3d908101601f191682019092526138f091810190615b04565b60015b61399f576138ff615b21565b806308c379a0036139385750613913615b3c565b8061391e575061393a565b8060405162461bcd60e51b8152600401610c9891906149ce565b505b60405162461bcd60e51b815260206004820152603460248201527f455243313135353a207472616e7366657220746f206e6f6e2d455243313135356044820152732932b1b2b4bb32b91034b6b83632b6b2b73a32b960611b6064820152608401610c98565b6001600160e01b0319811663f23a6e6160e01b14610ef35760405162461bcd60e51b8152600401610c9890615bc5565b60006139d96140e7565b905090565b60008060006139ed858561415b565b91509150611a80816141a0565b600080613a0f6101f780546001019081905590565b6040805160c0810182526001600160a01b038b8116825260208083018b81528385018d8152606085018c8152608086018c905260a086018b90526000888152610200855296909620855181546001600160a01b0319169516949094178455905160018401555160028301559251805194955091939092613a9692600385019291019061458e565b5060808201518051613ab291600484019160209091019061458e565b5060a08201518051613ace91600584019160209091019061458e565b50905050613aee8882600160405180602001604052806000815250612d7a565b979650505050505050565b613b0b846001600160a01b031661293a565b156124b95760405163bc197c8160e01b81526001600160a01b0385169063bc197c8190613b449089908990889088908890600401615c0d565b6020604051808303816000875af1925050508015613b7f575060408051601f3d908101601f19168201909252613b7c91810190615b04565b60015b613b8b576138ff615b21565b6001600160e01b0319811663bc197c8160e01b14610ef35760405162461bcd60e51b8152600401610c9890615bc5565b613bc48161293a565b613c265760405162461bcd60e51b815260206004820152602d60248201527f455243313936373a206e657720696d706c656d656e746174696f6e206973206e60448201526c1bdd08184818dbdb9d1c9858dd609a1b6064820152608401610c98565b600080516020615d4383398151915280546001600160a01b0319166001600160a01b0392909216919091179055565b613c5e836142e5565b600082511180613c6b5750805b15611640576128ef8383614325565b60c95460ff166129a05760405162461bcd60e51b815260206004820152601460248201527314185d5cd8589b194e881b9bdd081c185d5cd95960621b6044820152606401610c98565b60c95460ff16156129a05760405162461bcd60e51b815260206004820152601060248201526f14185d5cd8589b194e881c185d5cd95960821b6044820152606401610c98565b600054610100900460ff16613d305760405162461bcd60e51b8152600401610c98906158e8565b8151613d449061019390602085019061458e565b508051613d599061019490602084019061458e565b505060006101918190556101925550565b60006001600160e01b03198216636cdb3d1360e11b1480613d9b57506001600160e01b031982166303a24d0760e21b145b80610f0757506301ffc9a760e01b6001600160e01b0319831614610f07565b6060610f076001600160a01b03831660145b60606000613ddb83600261554c565b613de69060026159c2565b6001600160401b03811115613dfd57613dfd614664565b6040519080825280601f01601f191660200182016040528015613e27576020820181803683370190505b509050600360fc1b81600081518110613e4257613e42615520565b60200101906001600160f81b031916908160001a905350600f60fb1b81600181518110613e7157613e71615520565b60200101906001600160f81b031916908160001a9053506000613e9584600261554c565b613ea09060016159c2565b90505b6001811115613f18576f181899199a1a9b1b9c1cb0b131b232b360811b85600f1660108110613ed457613ed4615520565b1a60f81b828281518110613eea57613eea615520565b60200101906001600160f81b031916908160001a90535060049490941c93613f1181615c6b565b9050613ea3565b508315613f675760405162461bcd60e51b815260206004820181905260248201527f537472696e67733a20686578206c656e67746820696e73756666696369656e746044820152606401610c98565b9392505050565b6001600160a01b038516613ff55760005b8351811015613ff357828181518110613f9a57613f9a615520565b602002602001015160fb6000868481518110613fb857613fb8615520565b602002602001015181526020019081526020016000206000828254613fdd91906159c2565b90915550613fec90508161559b565b9050613f7f565b505b6001600160a01b0384166124b95760005b8351811015610ef357600084828151811061402357614023615520565b60200260200101519050600084838151811061404157614041615520565b60200260200101519050600060fb6000848152602001908152602001600020549050818110156140c45760405162461bcd60e51b815260206004820152602860248201527f455243313135353a206275726e20616d6f756e74206578636565647320746f74604482015267616c537570706c7960c01b6064820152608401610c98565b600092835260fb6020526040909220910390556140e08161559b565b9050614006565b60007f8b73c3c69bb8fe3d512ecc4cf759cc79239f7b179b0ffacaa9a75d522b39400f61411261434a565b61411a6143a8565b60408051602081019490945283019190915260608201524660808201523060a082015260c00160405160208183030381529060405280519060200120905090565b60008082516041036141915760208301516040840151606085015160001a614185878285856143da565b94509450505050614199565b506000905060025b9250929050565b60008160048111156141b4576141b4615891565b036141bc5750565b60018160048111156141d0576141d0615891565b036142185760405162461bcd60e51b815260206004820152601860248201527745434453413a20696e76616c6964207369676e617475726560401b6044820152606401610c98565b600281600481111561422c5761422c615891565b036142795760405162461bcd60e51b815260206004820152601f60248201527f45434453413a20696e76616c6964207369676e6174757265206c656e677468006044820152606401610c98565b600381600481111561428d5761428d615891565b036117845760405162461bcd60e51b815260206004820152602260248201527f45434453413a20696e76616c6964207369676e6174757265202773272076616c604482015261756560f01b6064820152608401610c98565b6142ee81613bbb565b6040516001600160a01b038216907fbc7cd75a20ee27fd9adebab32041f755214dbc6bffa90cc0225b39da2e5c2d3b90600090a250565b6060613f678383604051806060016040528060278152602001615de360279139614494565b600080614355613464565b80519091501561436c578051602090910120919050565b61019154801561437c5792915050565b7fc5d2460186f7233c927e7db2dcc703c0e500b653ca82273b7bfad8045d85a4709250505090565b5090565b6000806143b36134f7565b8051909150156143ca578051602090910120919050565b61019254801561437c5792915050565b6000806fa2a8918ca85bafe22016d0b997e4df60600160ff1b03831115614407575060009050600361448b565b6040805160008082526020820180845289905260ff881692820192909252606081018690526080810185905260019060a0016020604051602081039080840390855afa15801561445b573d6000803e3d6000fd5b5050604051601f1901519150506001600160a01b0381166144845760006001925092505061448b565b9150600090505b94509492505050565b6060600080856001600160a01b0316856040516144b191906158a7565b600060405180830381855af49150503d80600081146144ec576040519150601f19603f3d011682016040523d82523d6000602084013e6144f1565b606091505b50915091506145028683838761450c565b9695505050505050565b60608315614579578251600003614572576145268561293a565b6145725760405162461bcd60e51b815260206004820152601d60248201527f416464726573733a2063616c6c20746f206e6f6e2d636f6e74726163740000006044820152606401610c98565b5081612f79565b612f79838381511561391e5781518083602001fd5b82805461459a906155b4565b90600052602060002090601f0160209004810192826145bc5760008555614602565b82601f106145d557805160ff1916838001178555614602565b82800160010185558215614602579182015b828111156146025782518255916020019190600101906145e7565b506143a49291505b808211156143a4576000815560010161460a565b80356001600160a01b038116811461463557600080fd5b919050565b6000806040838503121561464d57600080fd5b6146568361461e565b946020939093013593505050565b634e487b7160e01b600052604160045260246000fd5b60a081016001600160401b038111828210171561469957614699614664565b60405250565b601f8201601f191681016001600160401b03811182821017156146c4576146c4614664565b6040525050565b600082601f8301126146dc57600080fd5b81356001600160401b038111156146f5576146f5614664565b60405161470c601f8301601f19166020018261469f565b81815284602083860101111561472157600080fd5b816020850160208301376000918101602001919091529392505050565b60008060008060008060c0878903121561475757600080fd5b6147608761461e565b955061476e6020880161461e565b94506040870135935060608701356001600160401b038082111561479157600080fd5b61479d8a838b016146cb565b945060808901359150808211156147b357600080fd5b6147bf8a838b016146cb565b935060a08901359150808211156147d557600080fd5b506147e289828a016146cb565b9150509295509295509295565b6001600160e01b03198116811461178457600080fd5b60006020828403121561481757600080fd5b8135613f67816147ef565b60006020828403121561483457600080fd5b81356001600160401b0381111561484a57600080fd5b612f79848285016146cb565b60006001600160401b0382111561486f5761486f614664565b5060051b60200190565b600082601f83011261488a57600080fd5b8135602061489782614856565b6040516148a4828261469f565b83815260059390931b85018201928281019150868411156148c457600080fd5b8286015b848110156148e6576148d98161461e565b83529183019183016148c8565b509695505050505050565b60008060006060848603121561490657600080fd5b83356001600160401b038082111561491d57600080fd5b61492987838801614879565b945060208601359350604086013591508082111561494657600080fd5b50614953868287016146cb565b9150509250925092565b60006020828403121561496f57600080fd5b5035919050565b60005b83811015614991578181015183820152602001614979565b838111156128ef5750506000910152565b600081518084526149ba816020860160208601614976565b601f01601f19169290920160200192915050565b602081526000613f6760208301846149a2565b600080600080608085870312156149f757600080fd5b614a008561461e565b9350602085013592506040850135915060608501356001600160401b03811115614a2957600080fd5b614a35878288016146cb565b91505092959194509250565b60008083601f840112614a5357600080fd5b5081356001600160401b03811115614a6a57600080fd5b60208301915083602082850101111561419957600080fd5b600060e08284031215614a9457600080fd5b50919050565b600080600080600060808688031215614ab257600080fd5b85356001600160401b0380821115614ac957600080fd5b614ad589838a01614a41565b90975095506020880135915080821115614aee57600080fd5b614afa89838a01614a82565b94506040880135915080821115614b1057600080fd5b614b1c89838a016146cb565b93506060880135915080821115614b3257600080fd5b50614b3f888289016146cb565b9150509295509295909350565b600080600080600080600060e0888a031215614b6757600080fd5b8735965060208801359550614b7e6040890161461e565b945060608801356001600160401b0380821115614b9a57600080fd5b614ba68b838c016146cb565b955060808a0135915080821115614bbc57600080fd5b614bc88b838c016146cb565b945060a08a0135915080821115614bde57600080fd5b614bea8b838c016146cb565b935060c08a0135915080821115614c0057600080fd5b50614c0d8a828b016146cb565b91505092959891949750929550565b600082601f830112614c2d57600080fd5b81356020614c3a82614856565b604051614c47828261469f565b83815260059390931b8501820192828101915086841115614c6757600080fd5b8286015b848110156148e65780358352918301918301614c6b565b600080600080600060a08688031215614c9a57600080fd5b614ca38661461e565b9450614cb16020870161461e565b935060408601356001600160401b0380821115614ccd57600080fd5b614cd989838a01614c1c565b94506060880135915080821115614cef57600080fd5b614cfb89838a01614c1c565b93506080880135915080821115614b3257600080fd5b60008060408385031215614d2457600080fd5b82359150614d346020840161461e565b90509250929050565b600060208284031215614d4f57600080fd5b613f678261461e565b600080600080600080600060e0888a031215614d7357600080fd5b614d7c8861461e565b96506020880135955060408801359450606088013593506080880135925060a0880135915060c08801356001600160401b03811115614dba57600080fd5b614c0d8a828b016146cb565b60008060408385031215614dd957600080fd5b82356001600160401b0380821115614df057600080fd5b614dfc86838701614879565b93506020850135915080821115614e1257600080fd5b50614e1f85828601614c1c565b9150509250929050565b600081518084526020808501945080840160005b83811015614e5957815187529582019590820190600101614e3d565b509495945050505050565b602081526000613f676020830184614e29565b60008060408385031215614e8a57600080fd5b614e938361461e565b915060208301356001600160401b03811115614eae57600080fd5b614e1f858286016146cb565b80356005811061463557600080fd5b600080600060608486031215614ede57600080fd5b8335925060208401359150614ef560408501614eba565b90509250925092565b6001600160a01b03169052565b60018060a01b038716815285602082015284604082015260c060608201526000614f3860c08301866149a2565b8281036080840152614f4a81866149a2565b905082810360a08401526115c981856149a2565b60a081526000614f7160a08301886149a2565b90508560208301528460408301528360608301528260808301529695505050505050565b60006020808385031215614fa857600080fd5b82356001600160401b0380821115614fbf57600080fd5b818501915085601f830112614fd357600080fd5b8135614fde81614856565b60408051614fec838261469f565b83815260059390931b850186019286810192508984111561500c57600080fd5b8686015b848110156150a3578035868111156150285760008081fd5b870160a0818d03601f19018113156150405760008081fd5b845161504b8161467a565b8a8301358981111561505d5760008081fd5b61506b8f8d838701016146cb565b825250828601358b82015260608084013587830152608080850135918301919091529190920135908201528452928701928701615010565b509998505050505050505050565b60ff60f81b8816815260e0602082015260006150d060e08301896149a2565b82810360408401526150e281896149a2565b606084018890526001600160a01b038716608085015260a0840186905283810360c085015290506151138185614e29565b9a9950505050505050505050565b6000806000806080858703121561513757600080fd5b84359350602085013592506040850135915060608501356001600160401b03811115614a2957600080fd5b600080600080600060a0868803121561517a57600080fd5b6151838661461e565b94506020860135935060408601356001600160401b03808211156151a657600080fd5b6151b289838a016146cb565b945060608801359150808211156151c857600080fd5b614cfb89838a016146cb565b600080604083850312156151e757600080fd5b6151f08361461e565b91506020830135801515811461520557600080fd5b809150509250929050565b6001600160a01b0391909116815260200190565b600080600080600080600060c0888a03121561523f57600080fd5b87356001600160401b038082111561525657600080fd5b6152628b838c01614a41565b909950975060208a013591508082111561527b57600080fd5b6152878b838c01614a82565b965060408a013591508082111561529d57600080fd5b6152a98b838c016146cb565b955060608a01359150808211156152bf57600080fd5b6152cb8b838c016146cb565b945060808a01359150808211156152e157600080fd5b6152ed8b838c016146cb565b935060a08a0135915080821115614c0057600080fd5b600080600080600060a0868803121561531b57600080fd5b6153248661461e565b94506153326020870161461e565b9350604086013592506060860135915061534e60808701614eba565b90509295509295909350565b6000806000806060858703121561537057600080fd5b84356001600160401b038082111561538757600080fd5b61539388838901614a41565b909650945060208701359150808211156153ac57600080fd5b6153b888838901614a82565b935060408701359150808211156153ce57600080fd5b50614a35878288016146cb565b600080604083850312156153ee57600080fd5b6153f78361461e565b9150614d346020840161461e565b60008060006060848603121561541a57600080fd5b6154238461461e565b95602085013595506040909401359392505050565b600080600080600060a0868803121561545057600080fd5b6154598661461e565b94506154676020870161461e565b9350604086013592506060860135915060808601356001600160401b0381111561549057600080fd5b614b3f888289016146cb565b6020808252602e908201527f496e697469616c697a61626c653a20636f6e747261637420697320616c72656160408201526d191e481a5b9a5d1a585b1a5e995960921b606082015260800190565b6020808252600190820152603160f81b604082015260600190565b6020808252600190820152603960f81b604082015260600190565b634e487b7160e01b600052603260045260246000fd5b634e487b7160e01b600052601160045260246000fd5b600081600019048311821515161561556657615566615536565b500290565b60008261558857634e487b7160e01b600052601260045260246000fd5b500490565b918252602082015260400190565b6000600182016155ad576155ad615536565b5060010190565b600181811c908216806155c857607f821691505b602082108103614a9457634e487b7160e01b600052602260045260246000fd5b81835281816020850137506000828201602090810191909152601f909101601f19169091010190565b6040815260006156256040830185876155e8565b8281036020840152833581526020840135601e1985360301811261564857600080fd5b840180356001600160401b0381111561566057600080fd5b80360386131561566f57600080fd5b60e0602084015261568760e0840182602085016155e8565b9150506156966040860161461e565b6156a36040840182614efe565b506156b06060860161461e565b6156bd6060840182614efe565b506080850135608083015260a085013560a083015260c085013560c08301528092505050949350505050565b6000808335601e1984360301811261570057600080fd5b8301803591506001600160401b0382111561571a57600080fd5b60200191503681900382131561419957600080fd5b8183823760009101908152919050565b600063ffffffff80831681810361575857615758615536565b6001019392505050565b83815260606020820152600061577b60608301856149a2565b828103604084015261450281856149a2565b6020808252602e908201527f455243313135353a2063616c6c6572206973206e6f7420746f6b656e206f776e60408201526d195c881bdc88185c1c1c9bdd995960921b606082015260800190565b6020808252602c90820152600080516020615ce383398151915260408201526b19195b1959d85d1958d85b1b60a21b606082015260800190565b6020808252602c90820152600080516020615ce383398151915260408201526b6163746976652070726f787960a01b606082015260800190565b85815284602082015283604082015282606082015260a060808201526000613aee60a08301846149a2565b60008282101561588c5761588c615536565b500390565b634e487b7160e01b600052602160045260246000fd5b600082516158b9818460208701614976565b9190910192915050565b84815283602082015282604082015260806060820152600061450260808301846149a2565b6020808252602b908201527f496e697469616c697a61626c653a20636f6e7472616374206973206e6f74206960408201526a6e697469616c697a696e6760a81b606082015260800190565b60208082526025908201527f455243313135353a207472616e7366657220746f20746865207a65726f206164604082015264647265737360d81b606082015260800190565b6020808252602a908201527f455243313135353a20696e73756666696369656e742062616c616e636520666f60408201526939103a3930b739b332b960b11b606082015260800190565b600082198211156159d5576159d5615536565b500190565b8381528260208201526060604082015260006159f960608301846149a2565b95945050505050565b604081526000615a156040830185614e29565b82810360208401526159f98185614e29565b600060208284031215615a3957600080fd5b5051919050565b76020b1b1b2b9b9a1b7b73a3937b61d1030b1b1b7bab73a1604d1b815260008351615a72816017850160208801614976565b7001034b99036b4b9b9b4b733903937b6329607d1b6017918401918201528351615aa3816028840160208801614976565b01602801949350505050565b6020808252600190820152600360fc1b604082015260600190565b6001600160a01b03868116825285166020820152604081018490526060810183905260a060808201819052600090613aee908301846149a2565b600060208284031215615b1657600080fd5b8151613f67816147ef565b600060033d1115611bfc5760046000803e5060005160e01c90565b600060443d1015615b4a5790565b6040516003193d81016004833e81513d6001600160401b038083116024840183101715615b7957505050505090565b8285019150815181811115615b915750505050505090565b843d8701016020828501011115615bab5750505050505090565b615bba6020828601018761469f565b509095945050505050565b60208082526028908201527f455243313135353a204552433131353552656365697665722072656a656374656040820152676420746f6b656e7360c01b606082015260800190565b6001600160a01b0386811682528516602082015260a060408201819052600090615c3990830186614e29565b8281036060840152615c4b8186614e29565b90508281036080840152615c5f81856149a2565b98975050505050505050565b600081615c7a57615c7a615536565b50600019019056fec3d58168c5ae7397731d063d5bbf3d657854427343f4c083240f7aacaa2d0f6279da588818fa1bb747c46ac45fd0af16861a77c5222cf5ac4538360ca4f77a2cd5bbb2f0fbfc1d5938ca13cabd3156d362f7862fa87504c8d589f5e8f2cbc45346756e6374696f6e206d7573742062652063616c6c6564207468726f75676820bdde33eca765abe07e416fa5225f9a5dbc393366c8bbf45df689e69ee318a934189ab7a9244df0848122154315af71fe140f3db0fe014031783b0946b8c9d2e3360894a13ba1a3210667c828492db98dca3e2076cc3735a920a3ca505d382bbcf48dee1a72497b9e734e498e1b3086c0d2dbcca13f16f15848f974469f906bbf7804d923f43a17d325d77e781528e0793b2edd9890ab45fc64efd7b4b427744c7f26b83ff96e1f2b6a682f133852f6798a09c465da95921460cefb384740249865d7a28e3265b37a6474929f336521b332c1681b933f6cb9f3376673440d862a416464726573733a206c6f772d6c6576656c2064656c65676174652063616c6c206661696c656498db8a220cd0f09badce9f22d0ba7e93edb3d404448cc3560d391ab096ad16e94bbc247fc4736523c8bdd1853fee2acfa817d663f8f4422b13e78ebf99e204a2ddf79b8d2110dbe281cf3bb7762d508cea586c974794c8fc949d41b0db1145130ce23c3e399818cfee81a7ab0880f714e53d7672b08df0fa62f2843416e1ea09a26469706673582212209573d66a0e2bf141346e218a403097988513e9c21b600d7b87e65912112f3ee464736f6c634300080d0033",
  "linkReferences": {},
  "deployedLinkReferences": {}
}