{
  "_format": "hh-sol-artifact-1",
  "contractName": "Project",
  "sourceName": "contracts/Project.sol",
  "abi": [
    {
      "inputs": [],
      "stateMutability": "nonpayable",
      "type": "constructor"
    },
    {
      "anonymous": false,
      "inputs": [
        {
          "indexed": true,
          "internalType": "address",
          "name": "from",
          "type": "address"
        },
        {
          "indexed": true,
          "internalType": "uint256",
          "name": "tokenId",
          "type": "uint256"
        },
        {
          "indexed": false,
          "internalType": "uint256",
          "name": "amount",
          "type": "uint256"
        },
        {
          "indexed": true,
          "internalType": "enum AdminActionReason",
          "name": "reason",
          "type": "uint8"
        }
      ],
      "name": "AdminBurn",
      "type": "event"
    },
    {
      "anonymous": false,
      "inputs": [
        {
          "indexed": false,
          "internalType": "address",
          "name": "previousAdmin",
          "type": "address"
        },
        {
          "indexed": false,
          "internalType": "address",
          "name": "newAdmin",
          "type": "address"
        }
      ],
      "name": "AdminChanged",
      "type": "event"
    },
    {
      "anonymous": false,
      "inputs": [
        {
          "indexed": true,
          "internalType": "address",
          "name": "from",
          "type": "address"
        },
        {
          "indexed": false,
          "internalType": "address",
          "name": "to",
          "type": "address"
        },
        {
          "indexed": true,
          "internalType": "uint256",
          "name": "tokenId",
          "type": "uint256"
        },
        {
          "indexed": false,
          "internalType": "uint256",
          "name": "amount",
          "type": "uint256"
        },
        {
          "indexed": true,
          "internalType": "enum AdminActionReason",
          "name": "reason",
          "type": "uint8"
        }
      ],
      "name": "AdminClawback",
      "type": "event"
    },
    {
      "anonymous": false,
      "inputs": [
        {
          "indexed": true,
          "internalType": "address",
          "name": "account",
          "type": "address"
        },
        {
          "indexed": true,
          "internalType": "address",
          "name": "operator",
          "type": "address"
        },
        {
          "indexed": false,
          "internalType": "bool",
          "name": "approved",
          "type": "bool"
        }
      ],
      "name": "ApprovalForAll",
      "type": "event"
    },
    {
      "anonymous": false,
      "inputs": [
        {
          "indexed": true,
          "internalType": "address",
          "name": "beacon",
          "type": "address"
        }
      ],
      "name": "BeaconUpgraded",
      "type": "event"
    },
    {
      "anonymous": false,
      "inputs": [
        {
          "indexed": true,
          "internalType": "address",
          "name": "account",
          "type": "address"
        },
        {
          "indexed": true,
          "internalType": "uint256",
          "name": "tokenId",
          "type": "uint256"
        },
        {
          "indexed": false,
          "internalType": "uint256",
          "name": "amount",
          "type": "uint256"
        },
        {
          "indexed": false,
          "internalType": "string",
          "name": "reason",
          "type": "string"
        },
        {
          "indexed": false,
          "internalType": "bytes",
          "name": "data",
          "type": "bytes"
        }
      ],
      "name": "CancelledCredits",
      "type": "event"
    },
    {
      "anonymous": false,
      "inputs": [],
      "name": "EIP712DomainChanged",
      "type": "event"
    },
    {
      "anonymous": false,
      "inputs": [
        {
          "indexed": true,
          "internalType": "uint256",
          "name": "exAnteTokenId",
          "type": "uint256"
        },
        {
          "indexed": true,
          "internalType": "uint256",
          "name": "exPostTokenId",
          "type": "uint256"
        },
        {
          "indexed": true,
          "internalType": "address",
          "name": "account",
          "type": "address"
        },
        {
          "indexed": false,
          "internalType": "uint256",
          "name": "amount",
          "type": "uint256"
        }
      ],
      "name": "ExAnteMinted",
      "type": "event"
    },
    {
      "anonymous": false,
      "inputs": [
        {
          "indexed": true,
          "internalType": "uint256",
          "name": "tokenId",
          "type": "uint256"
        },
        {
          "indexed": false,
          "internalType": "uint256",
          "name": "estimatedAmount",
          "type": "uint256"
        },
        {
          "indexed": false,
          "internalType": "uint256",
          "name": "verificationPeriodStart",
          "type": "uint256"
        },
        {
          "indexed": false,
          "internalType": "uint256",
          "name": "verificationPeriodEnd",
          "type": "uint256"
        },
        {
          "indexed": false,
          "internalType": "string",
          "name": "serialization",
          "type": "string"
        }
      ],
      "name": "ExPostCreated",
      "type": "event"
    },
    {
      "anonymous": false,
      "inputs": [
        {
          "indexed": true,
          "internalType": "uint256",
          "name": "tokenId",
          "type": "uint256"
        },
        {
          "indexed": false,
          "internalType": "uint256",
          "name": "amount",
          "type": "uint256"
        },
        {
          "indexed": false,
          "internalType": "uint256",
          "name": "amountToAnteHolders",
          "type": "uint256"
        },
        {
          "indexed": false,
          "internalType": "uint256",
          "name": "verificationPeriodStart",
          "type": "uint256"
        },
        {
          "indexed": false,
          "internalType": "uint256",
          "name": "verificationPeriodEnd",
          "type": "uint256"
        },
        {
          "indexed": false,
          "internalType": "string",
          "name": "monitoringReport",
          "type": "string"
        }
      ],
      "name": "ExPostVerifiedAndMinted",
      "type": "event"
    },
    {
      "anonymous": false,
      "inputs": [
        {
          "indexed": true,
          "internalType": "address",
          "name": "account",
          "type": "address"
        },
        {
          "indexed": true,
          "internalType": "uint256",
          "name": "exPostTokenId",
          "type": "uint256"
        },
        {
          "indexed": false,
          "internalType": "uint256",
          "name": "exPostAmountReceived",
          "type": "uint256"
        },
        {
          "indexed": false,
          "internalType": "uint256",
          "name": "exAnteAmountBurned",
          "type": "uint256"
        }
      ],
      "name": "ExchangeAnteForPost",
      "type": "event"
    },
    {
      "anonymous": false,
      "inputs": [
        {
          "indexed": false,
          "internalType": "uint8",
          "name": "version",
          "type": "uint8"
        }
      ],
      "name": "Initialized",
      "type": "event"
    },
    {
      "anonymous": false,
      "inputs": [
        {
          "indexed": false,
          "internalType": "address",
          "name": "account",
          "type": "address"
        }
      ],
      "name": "Paused",
      "type": "event"
    },
    {
      "anonymous": false,
      "inputs": [
        {
          "indexed": true,
          "internalType": "address",
          "name": "account",
          "type": "address"
        },
        {
          "indexed": true,
          "internalType": "uint256",
          "name": "tokenId",
          "type": "uint256"
        },
        {
          "indexed": false,
          "internalType": "uint256",
          "name": "amount",
          "type": "uint256"
        },
        {
          "indexed": false,
          "internalType": "uint256",
          "name": "nftTokenId",
          "type": "uint256"
        },
        {
          "indexed": false,
          "internalType": "bytes",
          "name": "data",
          "type": "bytes"
        }
      ],
      "name": "RetiredVintage",
      "type": "event"
    },
    {
      "anonymous": false,
      "inputs": [
        {
          "indexed": true,
          "internalType": "bytes32",
          "name": "role",
          "type": "bytes32"
        },
        {
          "indexed": true,
          "internalType": "bytes32",
          "name": "previousAdminRole",
          "type": "bytes32"
        },
        {
          "indexed": true,
          "internalType": "bytes32",
          "name": "newAdminRole",
          "type": "bytes32"
        }
      ],
      "name": "RoleAdminChanged",
      "type": "event"
    },
    {
      "anonymous": false,
      "inputs": [
        {
          "indexed": true,
          "internalType": "bytes32",
          "name": "role",
          "type": "bytes32"
        },
        {
          "indexed": true,
          "internalType": "address",
          "name": "account",
          "type": "address"
        },
        {
          "indexed": true,
          "internalType": "address",
          "name": "sender",
          "type": "address"
        }
      ],
      "name": "RoleGranted",
      "type": "event"
    },
    {
      "anonymous": false,
      "inputs": [
        {
          "indexed": true,
          "internalType": "bytes32",
          "name": "role",
          "type": "bytes32"
        },
        {
          "indexed": true,
          "internalType": "address",
          "name": "account",
          "type": "address"
        },
        {
          "indexed": true,
          "internalType": "address",
          "name": "sender",
          "type": "address"
        }
      ],
      "name": "RoleRevoked",
      "type": "event"
    },
    {
      "anonymous": false,
      "inputs": [
        {
          "indexed": true,
          "internalType": "address",
          "name": "operator",
          "type": "address"
        },
        {
          "indexed": true,
          "internalType": "address",
          "name": "from",
          "type": "address"
        },
        {
          "indexed": true,
          "internalType": "address",
          "name": "to",
          "type": "address"
        },
        {
          "indexed": false,
          "internalType": "uint256[]",
          "name": "ids",
          "type": "uint256[]"
        },
        {
          "indexed": false,
          "internalType": "uint256[]",
          "name": "values",
          "type": "uint256[]"
        }
      ],
      "name": "TransferBatch",
      "type": "event"
    },
    {
      "anonymous": false,
      "inputs": [
        {
          "indexed": false,
          "internalType": "bytes",
          "name": "signature",
          "type": "bytes"
        },
        {
          "components": [
            {
              "internalType": "uint256",
              "name": "deadline",
              "type": "uint256"
            },
            {
              "internalType": "string",
              "name": "description",
              "type": "string"
            },
            {
              "internalType": "address",
              "name": "signer",
              "type": "address"
            },
            {
              "internalType": "address",
              "name": "to",
              "type": "address"
            },
            {
              "internalType": "uint256",
              "name": "tokenId",
              "type": "uint256"
            },
            {
              "internalType": "uint256",
              "name": "amount",
              "type": "uint256"
            },
            {
              "internalType": "uint256",
              "name": "nonce",
              "type": "uint256"
            }
          ],
          "indexed": false,
          "internalType": "struct signatureTransferPayload",
          "name": "payload",
          "type": "tuple"
        }
      ],
      "name": "TransferSignatureValid",
      "type": "event"
    },
    {
      "anonymous": false,
      "inputs": [
        {
          "indexed": true,
          "internalType": "address",
          "name": "operator",
          "type": "address"
        },
        {
          "indexed": true,
          "internalType": "address",
          "name": "from",
          "type": "address"
        },
        {
          "indexed": true,
          "internalType": "address",
          "name": "to",
          "type": "address"
        },
        {
          "indexed": false,
          "internalType": "uint256",
          "name": "id",
          "type": "uint256"
        },
        {
          "indexed": false,
          "internalType": "uint256",
          "name": "value",
          "type": "uint256"
        }
      ],
      "name": "TransferSingle",
      "type": "event"
    },
    {
      "anonymous": false,
      "inputs": [
        {
          "indexed": false,
          "internalType": "string",
          "name": "value",
          "type": "string"
        },
        {
          "indexed": true,
          "internalType": "uint256",
          "name": "id",
          "type": "uint256"
        }
      ],
      "name": "URI",
      "type": "event"
    },
    {
      "anonymous": false,
      "inputs": [
        {
          "indexed": false,
          "internalType": "address",
          "name": "account",
          "type": "address"
        }
      ],
      "name": "Unpaused",
      "type": "event"
    },
    {
      "anonymous": false,
      "inputs": [
        {
          "indexed": true,
          "internalType": "address",
          "name": "implementation",
          "type": "address"
        }
      ],
      "name": "Upgraded",
      "type": "event"
    },
    {
      "anonymous": false,
      "inputs": [
        {
          "indexed": true,
          "internalType": "uint256",
          "name": "tokenId",
          "type": "uint256"
        },
        {
          "indexed": false,
          "internalType": "uint256",
          "name": "newEstimate",
          "type": "uint256"
        },
        {
          "indexed": false,
          "internalType": "uint256",
          "name": "oldEstimate",
          "type": "uint256"
        },
        {
          "indexed": true,
          "internalType": "enum AdminActionReason",
          "name": "reason",
          "type": "uint8"
        }
      ],
      "name": "VintageMitigationEstimateChanged",
      "type": "event"
    },
    {
      "inputs": [],
      "name": "ANTE_MINTER_ROLE",
      "outputs": [
        {
          "internalType": "bytes32",
          "name": "",
          "type": "bytes32"
        }
      ],
      "stateMutability": "view",
      "type": "function"
    },
    {
      "inputs": [],
      "name": "BLACKLISTED",
      "outputs": [
        {
          "internalType": "bytes32",
          "name": "",
          "type": "bytes32"
        }
      ],
      "stateMutability": "view",
      "type": "function"
    },
    {
      "inputs": [],
      "name": "BLACKLISTER_ROLE",
      "outputs": [
        {
          "internalType": "bytes32",
          "name": "",
          "type": "bytes32"
        }
      ],
      "stateMutability": "view",
      "type": "function"
    },
    {
      "inputs": [],
      "name": "BURNER_ROLE",
      "outputs": [
        {
          "internalType": "bytes32",
          "name": "",
          "type": "bytes32"
        }
      ],
      "stateMutability": "view",
      "type": "function"
    },
    {
      "inputs": [],
      "name": "CLAWBACK_ROLE",
      "outputs": [
        {
          "internalType": "bytes32",
          "name": "",
          "type": "bytes32"
        }
      ],
      "stateMutability": "view",
      "type": "function"
    },
    {
      "inputs": [],
      "name": "DEFAULT_ADMIN_ROLE",
      "outputs": [
        {
          "internalType": "bytes32",
          "name": "",
          "type": "bytes32"
        }
      ],
      "stateMutability": "view",
      "type": "function"
    },
    {
      "inputs": [],
      "name": "MINTER_ROLE",
      "outputs": [
        {
          "internalType": "bytes32",
          "name": "",
          "type": "bytes32"
        }
      ],
      "stateMutability": "view",
      "type": "function"
    },
    {
      "inputs": [],
      "name": "PAUSER_ROLE",
      "outputs": [
        {
          "internalType": "bytes32",
          "name": "",
          "type": "bytes32"
        }
      ],
      "stateMutability": "view",
      "type": "function"
    },
    {
      "inputs": [],
      "name": "POST_MINTER_ROLE",
      "outputs": [
        {
          "internalType": "bytes32",
          "name": "",
          "type": "bytes32"
        }
      ],
      "stateMutability": "view",
      "type": "function"
    },
    {
      "inputs": [],
      "name": "UPGRADER_ROLE",
      "outputs": [
        {
          "internalType": "bytes32",
          "name": "",
          "type": "bytes32"
        }
      ],
      "stateMutability": "view",
      "type": "function"
    },
    {
      "inputs": [],
      "name": "URI_SETTER_ROLE",
      "outputs": [
        {
          "internalType": "bytes32",
          "name": "",
          "type": "bytes32"
        }
      ],
      "stateMutability": "view",
      "type": "function"
    },
    {
      "inputs": [],
      "name": "VERIFIER_ROLE",
      "outputs": [
        {
          "internalType": "bytes32",
          "name": "",
          "type": "bytes32"
        }
      ],
      "stateMutability": "view",
      "type": "function"
    },
    {
      "inputs": [
        {
          "internalType": "address",
          "name": "_contractRegistry",
          "type": "address"
        },
        {
          "internalType": "uint256",
          "name": "_projectId",
          "type": "uint256"
        },
        {
          "internalType": "string",
          "name": "_projectName",
          "type": "string"
        },
        {
          "internalType": "string",
          "name": "_projectUri",
          "type": "string"
        },
        {
          "internalType": "string",
          "name": "_methodology",
          "type": "string"
        }
      ],
      "name": "__ProjectStorage_init",
      "outputs": [],
      "stateMutability": "nonpayable",
      "type": "function"
    },
    {
      "inputs": [
        {
          "internalType": "address",
          "name": "from",
          "type": "address"
        },
        {
          "internalType": "address",
          "name": "to",
          "type": "address"
        },
        {
          "internalType": "uint256",
          "name": "tokenId",
          "type": "uint256"
        },
        {
          "internalType": "uint256",
          "name": "amount",
          "type": "uint256"
        },
        {
          "internalType": "enum AdminActionReason",
          "name": "reason",
          "type": "uint8"
        }
      ],
      "name": "adminClawback",
      "outputs": [],
      "stateMutability": "nonpayable",
      "type": "function"
    },
    {
      "inputs": [
        {
          "internalType": "address",
          "name": "account",
          "type": "address"
        },
        {
          "internalType": "uint256",
          "name": "id",
          "type": "uint256"
        }
      ],
      "name": "balanceOf",
      "outputs": [
        {
          "internalType": "uint256",
          "name": "",
          "type": "uint256"
        }
      ],
      "stateMutability": "view",
      "type": "function"
    },
    {
      "inputs": [
        {
          "internalType": "address[]",
          "name": "accounts",
          "type": "address[]"
        },
        {
          "internalType": "uint256[]",
          "name": "ids",
          "type": "uint256[]"
        }
      ],
      "name": "balanceOfBatch",
      "outputs": [
        {
          "internalType": "uint256[]",
          "name": "",
          "type": "uint256[]"
        }
      ],
      "stateMutability": "view",
      "type": "function"
    },
    {
      "inputs": [
        {
          "internalType": "uint256",
          "name": "tokenId",
          "type": "uint256"
        },
        {
          "internalType": "uint256",
          "name": "amount",
          "type": "uint256"
        }
      ],
      "name": "burn",
      "outputs": [],
      "stateMutability": "nonpayable",
      "type": "function"
    },
    {
      "inputs": [
        {
          "internalType": "bytes",
          "name": "signature",
          "type": "bytes"
        },
        {
          "components": [
            {
              "internalType": "uint256",
              "name": "deadline",
              "type": "uint256"
            },
            {
              "internalType": "string",
              "name": "description",
              "type": "string"
            },
            {
              "internalType": "address",
              "name": "signer",
              "type": "address"
            },
            {
              "internalType": "address",
              "name": "to",
              "type": "address"
            },
            {
              "internalType": "uint256",
              "name": "tokenId",
              "type": "uint256"
            },
            {
              "internalType": "uint256",
              "name": "amount",
              "type": "uint256"
            },
            {
              "internalType": "uint256",
              "name": "nonce",
              "type": "uint256"
            }
          ],
          "internalType": "struct signatureTransferPayload",
          "name": "payload",
          "type": "tuple"
        },
        {
          "internalType": "string",
          "name": "comment",
          "type": "string"
        },
        {
          "internalType": "bytes",
          "name": "data",
          "type": "bytes"
        }
      ],
      "name": "cancelCreditsFromSignature",
      "outputs": [],
      "stateMutability": "nonpayable",
      "type": "function"
    },
    {
      "inputs": [
        {
          "internalType": "uint256",
          "name": "tokenId",
          "type": "uint256"
        },
        {
          "internalType": "uint256",
          "name": "newEstAmount",
          "type": "uint256"
        },
        {
          "internalType": "enum AdminActionReason",
          "name": "reason",
          "type": "uint8"
        }
      ],
      "name": "changeVintageMitigationEstimate",
      "outputs": [],
      "stateMutability": "nonpayable",
      "type": "function"
    },
    {
      "inputs": [],
      "name": "contractRegistry",
      "outputs": [
        {
          "internalType": "address",
          "name": "",
          "type": "address"
        }
      ],
      "stateMutability": "view",
      "type": "function"
    },
    {
      "inputs": [
        {
          "internalType": "uint256",
          "name": "estAmount",
          "type": "uint256"
        },
        {
          "internalType": "uint256",
          "name": "verificationPeriodStart",
          "type": "uint256"
        },
        {
          "internalType": "uint256",
          "name": "verificationPeriodEnd",
          "type": "uint256"
        },
        {
          "internalType": "string",
          "name": "serialization",
          "type": "string"
        }
      ],
      "name": "createExPostVintage",
      "outputs": [],
      "stateMutability": "nonpayable",
      "type": "function"
    },
    {
      "inputs": [
        {
          "components": [
            {
              "internalType": "string",
              "name": "serialization",
              "type": "string"
            },
            {
              "internalType": "uint256",
              "name": "estMitigations",
              "type": "uint256"
            },
            {
              "internalType": "uint256",
              "name": "verificationPeriodStart",
              "type": "uint256"
            },
            {
              "internalType": "uint256",
              "name": "verificationPeriodEnd",
              "type": "uint256"
            },
            {
              "internalType": "uint256",
              "name": "lastVerificationTimestamp",
              "type": "uint256"
            }
          ],
          "internalType": "struct VintageData[]",
          "name": "vintages",
          "type": "tuple[]"
        }
      ],
      "name": "createExPostVintageBatch",
      "outputs": [],
      "stateMutability": "nonpayable",
      "type": "function"
    },
    {
      "inputs": [],
      "name": "eip712Domain",
      "outputs": [
        {
          "internalType": "bytes1",
          "name": "fields",
          "type": "bytes1"
        },
        {
          "internalType": "string",
          "name": "name",
          "type": "string"
        },
        {
          "internalType": "string",
          "name": "version",
          "type": "string"
        },
        {
          "internalType": "uint256",
          "name": "chainId",
          "type": "uint256"
        },
        {
          "internalType": "address",
          "name": "verifyingContract",
          "type": "address"
        },
        {
          "internalType": "bytes32",
          "name": "salt",
          "type": "bytes32"
        },
        {
          "internalType": "uint256[]",
          "name": "extensions",
          "type": "uint256[]"
        }
      ],
      "stateMutability": "view",
      "type": "function"
    },
    {
      "inputs": [
        {
          "internalType": "uint256",
          "name": "",
          "type": "uint256"
        }
      ],
      "name": "exAnteToExPostTokenId",
      "outputs": [
        {
          "internalType": "uint256",
          "name": "",
          "type": "uint256"
        }
      ],
      "stateMutability": "view",
      "type": "function"
    },
    {
      "inputs": [
        {
          "internalType": "uint256",
          "name": "",
          "type": "uint256"
        }
      ],
      "name": "exPostToExAnteTokenId",
      "outputs": [
        {
          "internalType": "uint256",
          "name": "",
          "type": "uint256"
        }
      ],
      "stateMutability": "view",
      "type": "function"
    },
    {
      "inputs": [
        {
          "internalType": "uint256",
          "name": "",
          "type": "uint256"
        }
      ],
      "name": "exPostVintageMapping",
      "outputs": [
        {
          "internalType": "string",
          "name": "serialization",
          "type": "string"
        },
        {
          "internalType": "uint256",
          "name": "estMitigations",
          "type": "uint256"
        },
        {
          "internalType": "uint256",
          "name": "verificationPeriodStart",
          "type": "uint256"
        },
        {
          "internalType": "uint256",
          "name": "verificationPeriodEnd",
          "type": "uint256"
        },
        {
          "internalType": "uint256",
          "name": "lastVerificationTimestamp",
          "type": "uint256"
        }
      ],
      "stateMutability": "view",
      "type": "function"
    },
    {
      "inputs": [
        {
          "internalType": "address[]",
          "name": "accounts",
          "type": "address[]"
        },
        {
          "internalType": "uint256",
          "name": "exPostTokenId",
          "type": "uint256"
        },
        {
          "internalType": "bytes",
          "name": "data",
          "type": "bytes"
        }
      ],
      "name": "exchangeAnteForPostEvenSteven",
      "outputs": [],
      "stateMutability": "nonpayable",
      "type": "function"
    },
    {
      "inputs": [
        {
          "internalType": "uint256",
          "name": "id",
          "type": "uint256"
        }
      ],
      "name": "exists",
      "outputs": [
        {
          "internalType": "bool",
          "name": "",
          "type": "bool"
        }
      ],
      "stateMutability": "view",
      "type": "function"
    },
    {
      "inputs": [
        {
          "internalType": "bytes32",
          "name": "role",
          "type": "bytes32"
        }
      ],
      "name": "getRoleAdmin",
      "outputs": [
        {
          "internalType": "bytes32",
          "name": "",
          "type": "bytes32"
        }
      ],
      "stateMutability": "view",
      "type": "function"
    },
    {
      "inputs": [
        {
          "internalType": "bytes32",
          "name": "role",
          "type": "bytes32"
        },
        {
          "internalType": "address",
          "name": "account",
          "type": "address"
        }
      ],
      "name": "grantRole",
      "outputs": [],
      "stateMutability": "nonpayable",
      "type": "function"
    },
    {
      "inputs": [
        {
          "internalType": "bytes32",
          "name": "role",
          "type": "bytes32"
        },
        {
          "internalType": "address",
          "name": "account",
          "type": "address"
        }
      ],
      "name": "hasRole",
      "outputs": [
        {
          "internalType": "bool",
          "name": "",
          "type": "bool"
        }
      ],
      "stateMutability": "view",
      "type": "function"
    },
    {
      "inputs": [
        {
          "internalType": "address",
          "name": "_contractRegistry",
          "type": "address"
        },
        {
          "internalType": "address",
          "name": "_owner",
          "type": "address"
        },
        {
          "internalType": "uint256",
          "name": "_projectId",
          "type": "uint256"
        },
        {
          "internalType": "string",
          "name": "_projectName",
          "type": "string"
        },
        {
          "internalType": "string",
          "name": "_projectMethodology",
          "type": "string"
        },
        {
          "internalType": "string",
          "name": "_projectUri",
          "type": "string"
        }
      ],
      "name": "initialize",
      "outputs": [],
      "stateMutability": "nonpayable",
      "type": "function"
    },
    {
      "inputs": [
        {
          "internalType": "address",
          "name": "account",
          "type": "address"
        },
        {
          "internalType": "address",
          "name": "operator",
          "type": "address"
        }
      ],
      "name": "isApprovedForAll",
      "outputs": [
        {
          "internalType": "bool",
          "name": "",
          "type": "bool"
        }
      ],
      "stateMutability": "view",
      "type": "function"
    },
    {
      "inputs": [
        {
          "internalType": "uint256",
          "name": "tokenId",
          "type": "uint256"
        }
      ],
      "name": "isExPostToken",
      "outputs": [
        {
          "internalType": "bool",
          "name": "",
          "type": "bool"
        }
      ],
      "stateMutability": "view",
      "type": "function"
    },
    {
      "inputs": [],
      "name": "maxAntePercentage",
      "outputs": [
        {
          "internalType": "uint8",
          "name": "",
          "type": "uint8"
        }
      ],
      "stateMutability": "view",
      "type": "function"
    },
    {
      "inputs": [],
      "name": "methodology",
      "outputs": [
        {
          "internalType": "string",
          "name": "",
          "type": "string"
        }
      ],
      "stateMutability": "view",
      "type": "function"
    },
    {
      "inputs": [
        {
          "internalType": "address",
          "name": "account",
          "type": "address"
        },
        {
          "internalType": "uint256",
          "name": "exPostTokenId",
          "type": "uint256"
        },
        {
          "internalType": "uint256",
          "name": "amount",
          "type": "uint256"
        },
        {
          "internalType": "bytes",
          "name": "data",
          "type": "bytes"
        }
      ],
      "name": "mintExAnte",
      "outputs": [],
      "stateMutability": "nonpayable",
      "type": "function"
    },
    {
      "inputs": [
        {
          "internalType": "address",
          "name": "",
          "type": "address"
        },
        {
          "internalType": "address",
          "name": "",
          "type": "address"
        },
        {
          "internalType": "uint256[]",
          "name": "",
          "type": "uint256[]"
        },
        {
          "internalType": "uint256[]",
          "name": "",
          "type": "uint256[]"
        },
        {
          "internalType": "bytes",
          "name": "",
          "type": "bytes"
        }
      ],
      "name": "onERC1155BatchReceived",
      "outputs": [
        {
          "internalType": "bytes4",
          "name": "",
          "type": "bytes4"
        }
      ],
      "stateMutability": "nonpayable",
      "type": "function"
    },
    {
      "inputs": [
        {
          "internalType": "address",
          "name": "",
          "type": "address"
        },
        {
          "internalType": "address",
          "name": "",
          "type": "address"
        },
        {
          "internalType": "uint256",
          "name": "",
          "type": "uint256"
        },
        {
          "internalType": "uint256",
          "name": "",
          "type": "uint256"
        },
        {
          "internalType": "bytes",
          "name": "",
          "type": "bytes"
        }
      ],
      "name": "onERC1155Received",
      "outputs": [
        {
          "internalType": "bytes4",
          "name": "",
          "type": "bytes4"
        }
      ],
      "stateMutability": "nonpayable",
      "type": "function"
    },
    {
      "inputs": [],
      "name": "pause",
      "outputs": [],
      "stateMutability": "nonpayable",
      "type": "function"
    },
    {
      "inputs": [],
      "name": "paused",
      "outputs": [
        {
          "internalType": "bool",
          "name": "",
          "type": "bool"
        }
      ],
      "stateMutability": "view",
      "type": "function"
    },
    {
      "inputs": [],
      "name": "projectId",
      "outputs": [
        {
          "internalType": "uint256",
          "name": "",
          "type": "uint256"
        }
      ],
      "stateMutability": "view",
      "type": "function"
    },
    {
      "inputs": [],
      "name": "projectName",
      "outputs": [
        {
          "internalType": "string",
          "name": "",
          "type": "string"
        }
      ],
      "stateMutability": "view",
      "type": "function"
    },
    {
      "inputs": [],
      "name": "projectUri",
      "outputs": [
        {
          "internalType": "string",
          "name": "",
          "type": "string"
        }
      ],
      "stateMutability": "view",
      "type": "function"
    },
    {
      "inputs": [],
      "name": "proxiableUUID",
      "outputs": [
        {
          "internalType": "bytes32",
          "name": "",
          "type": "bytes32"
        }
      ],
      "stateMutability": "view",
      "type": "function"
    },
    {
      "inputs": [
        {
          "internalType": "bytes32",
          "name": "role",
          "type": "bytes32"
        },
        {
          "internalType": "address",
          "name": "account",
          "type": "address"
        }
      ],
      "name": "renounceRole",
      "outputs": [],
      "stateMutability": "nonpayable",
      "type": "function"
    },
    {
      "inputs": [
        {
          "internalType": "uint256",
          "name": "tokenId",
          "type": "uint256"
        },
        {
          "internalType": "uint256",
          "name": "amount",
          "type": "uint256"
        },
        {
          "internalType": "address",
          "name": "beneficiary",
          "type": "address"
        },
        {
          "internalType": "string",
          "name": "retireeName",
          "type": "string"
        },
        {
          "internalType": "string",
          "name": "customUri",
          "type": "string"
        },
        {
          "internalType": "string",
          "name": "comment",
          "type": "string"
        },
        {
          "internalType": "bytes",
          "name": "data",
          "type": "bytes"
        }
      ],
      "name": "retire",
      "outputs": [
        {
          "internalType": "uint256",
          "name": "nftTokenId",
          "type": "uint256"
        }
      ],
      "stateMutability": "nonpayable",
      "type": "function"
    },
    {
      "inputs": [
        {
          "internalType": "bytes",
          "name": "signature",
          "type": "bytes"
        },
        {
          "components": [
            {
              "internalType": "uint256",
              "name": "deadline",
              "type": "uint256"
            },
            {
              "internalType": "string",
              "name": "description",
              "type": "string"
            },
            {
              "internalType": "address",
              "name": "signer",
              "type": "address"
            },
            {
              "internalType": "address",
              "name": "to",
              "type": "address"
            },
            {
              "internalType": "uint256",
              "name": "tokenId",
              "type": "uint256"
            },
            {
              "internalType": "uint256",
              "name": "amount",
              "type": "uint256"
            },
            {
              "internalType": "uint256",
              "name": "nonce",
              "type": "uint256"
            }
          ],
          "internalType": "struct signatureTransferPayload",
          "name": "payload",
          "type": "tuple"
        },
        {
          "internalType": "string",
          "name": "retireeName",
          "type": "string"
        },
        {
          "internalType": "string",
          "name": "customUri",
          "type": "string"
        },
        {
          "internalType": "string",
          "name": "comment",
          "type": "string"
        },
        {
          "internalType": "bytes",
          "name": "data",
          "type": "bytes"
        }
      ],
      "name": "retireFromSignature",
      "outputs": [
        {
          "internalType": "uint256",
          "name": "nftTokenId",
          "type": "uint256"
        }
      ],
      "stateMutability": "nonpayable",
      "type": "function"
    },
    {
      "inputs": [
        {
          "internalType": "uint256",
          "name": "",
          "type": "uint256"
        }
      ],
      "name": "retirementMapping",
      "outputs": [
        {
          "internalType": "address",
          "name": "retiree",
          "type": "address"
        },
        {
          "internalType": "uint256",
          "name": "amount",
          "type": "uint256"
        },
        {
          "internalType": "uint256",
          "name": "vintageTokenId",
          "type": "uint256"
        },
        {
          "internalType": "string",
          "name": "retireeName",
          "type": "string"
        },
        {
          "internalType": "string",
          "name": "customUri",
          "type": "string"
        },
        {
          "internalType": "string",
          "name": "comment",
          "type": "string"
        }
      ],
      "stateMutability": "view",
      "type": "function"
    },
    {
      "inputs": [
        {
          "internalType": "bytes32",
          "name": "role",
          "type": "bytes32"
        },
        {
          "internalType": "address",
          "name": "account",
          "type": "address"
        }
      ],
      "name": "revokeRole",
      "outputs": [],
      "stateMutability": "nonpayable",
      "type": "function"
    },
    {
      "inputs": [
        {
          "internalType": "address",
          "name": "from",
          "type": "address"
        },
        {
          "internalType": "address",
          "name": "to",
          "type": "address"
        },
        {
          "internalType": "uint256[]",
          "name": "ids",
          "type": "uint256[]"
        },
        {
          "internalType": "uint256[]",
          "name": "amounts",
          "type": "uint256[]"
        },
        {
          "internalType": "bytes",
          "name": "data",
          "type": "bytes"
        }
      ],
      "name": "safeBatchTransferFrom",
      "outputs": [],
      "stateMutability": "nonpayable",
      "type": "function"
    },
    {
      "inputs": [
        {
          "internalType": "address",
          "name": "from",
          "type": "address"
        },
        {
          "internalType": "address",
          "name": "to",
          "type": "address"
        },
        {
          "internalType": "uint256",
          "name": "id",
          "type": "uint256"
        },
        {
          "internalType": "uint256",
          "name": "amount",
          "type": "uint256"
        },
        {
          "internalType": "bytes",
          "name": "data",
          "type": "bytes"
        }
      ],
      "name": "safeTransferFrom",
      "outputs": [],
      "stateMutability": "nonpayable",
      "type": "function"
    },
    {
      "inputs": [
        {
          "internalType": "string",
          "name": "",
          "type": "string"
        }
      ],
      "name": "serializationToExPostTokenIdMapping",
      "outputs": [
        {
          "internalType": "uint256",
          "name": "",
          "type": "uint256"
        }
      ],
      "stateMutability": "view",
      "type": "function"
    },
    {
      "inputs": [
        {
          "internalType": "address",
          "name": "operator",
          "type": "address"
        },
        {
          "internalType": "bool",
          "name": "approved",
          "type": "bool"
        }
      ],
      "name": "setApprovalForAll",
      "outputs": [],
      "stateMutability": "nonpayable",
      "type": "function"
    },
    {
      "inputs": [
        {
          "internalType": "string",
          "name": "newuri",
          "type": "string"
        }
      ],
      "name": "setURI",
      "outputs": [],
      "stateMutability": "nonpayable",
      "type": "function"
    },
    {
      "inputs": [
        {
          "internalType": "address",
          "name": "",
          "type": "address"
        }
      ],
      "name": "signatureNonces",
      "outputs": [
        {
          "internalType": "uint32",
          "name": "",
          "type": "uint32"
        }
      ],
      "stateMutability": "view",
      "type": "function"
    },
    {
      "inputs": [
        {
          "internalType": "bytes4",
          "name": "interfaceId",
          "type": "bytes4"
        }
      ],
      "name": "supportsInterface",
      "outputs": [
        {
          "internalType": "bool",
          "name": "",
          "type": "bool"
        }
      ],
      "stateMutability": "view",
      "type": "function"
    },
    {
      "inputs": [],
      "name": "testUpgrade",
      "outputs": [
        {
          "internalType": "string",
          "name": "",
          "type": "string"
        }
      ],
      "stateMutability": "pure",
      "type": "function"
    },
    {
      "inputs": [],
      "name": "topTokenId",
      "outputs": [
        {
          "internalType": "uint256",
          "name": "",
          "type": "uint256"
        }
      ],
      "stateMutability": "view",
      "type": "function"
    },
    {
      "inputs": [
        {
          "internalType": "uint256",
          "name": "id",
          "type": "uint256"
        }
      ],
      "name": "totalSupply",
      "outputs": [
        {
          "internalType": "uint256",
          "name": "",
          "type": "uint256"
        }
      ],
      "stateMutability": "view",
      "type": "function"
    },
    {
      "inputs": [
        {
          "internalType": "bytes",
          "name": "signature",
          "type": "bytes"
        },
        {
          "components": [
            {
              "internalType": "uint256",
              "name": "deadline",
              "type": "uint256"
            },
            {
              "internalType": "string",
              "name": "description",
              "type": "string"
            },
            {
              "internalType": "address",
              "name": "signer",
              "type": "address"
            },
            {
              "internalType": "address",
              "name": "to",
              "type": "address"
            },
            {
              "internalType": "uint256",
              "name": "tokenId",
              "type": "uint256"
            },
            {
              "internalType": "uint256",
              "name": "amount",
              "type": "uint256"
            },
            {
              "internalType": "uint256",
              "name": "nonce",
              "type": "uint256"
            }
          ],
          "internalType": "struct signatureTransferPayload",
          "name": "payload",
          "type": "tuple"
        },
        {
          "internalType": "bytes",
          "name": "data",
          "type": "bytes"
        }
      ],
      "name": "transferFromSignature",
      "outputs": [],
      "stateMutability": "payable",
      "type": "function"
    },
    {
      "inputs": [],
      "name": "unpause",
      "outputs": [],
      "stateMutability": "nonpayable",
      "type": "function"
    },
    {
      "inputs": [
        {
          "internalType": "address",
          "name": "newImplementation",
          "type": "address"
        }
      ],
      "name": "upgradeTo",
      "outputs": [],
      "stateMutability": "nonpayable",
      "type": "function"
    },
    {
      "inputs": [
        {
          "internalType": "address",
          "name": "newImplementation",
          "type": "address"
        },
        {
          "internalType": "bytes",
          "name": "data",
          "type": "bytes"
        }
      ],
      "name": "upgradeToAndCall",
      "outputs": [],
      "stateMutability": "payable",
      "type": "function"
    },
    {
      "inputs": [
        {
          "internalType": "uint256",
          "name": "",
          "type": "uint256"
        }
      ],
      "name": "uri",
      "outputs": [
        {
          "internalType": "string",
          "name": "",
          "type": "string"
        }
      ],
      "stateMutability": "view",
      "type": "function"
    },
    {
      "inputs": [
        {
          "internalType": "address",
          "name": "verificationVault",
          "type": "address"
        },
        {
          "internalType": "uint256",
          "name": "tokenId",
          "type": "uint256"
        },
        {
          "internalType": "uint256",
          "name": "amountVerified",
          "type": "uint256"
        },
        {
          "internalType": "uint256",
          "name": "amountToAnteHolders",
          "type": "uint256"
        },
        {
          "internalType": "uint256",
          "name": "verificationPeriodStart",
          "type": "uint256"
        },
        {
          "internalType": "uint256",
          "name": "verificationPeriodEnd",
          "type": "uint256"
        },
        {
          "internalType": "string",
          "name": "monitoringReport",
          "type": "string"
        }
      ],
      "name": "verifyAndMintExPost",
      "outputs": [],
      "stateMutability": "nonpayable",
      "type": "function"
    }
  ],
  "bytecode": "0x60a0604052306080523480156200001557600080fd5b506200002062000026565b620000e7565b600054610100900460ff1615620000935760405162461bcd60e51b815260206004820152602760248201527f496e697469616c697a61626c653a20636f6e747261637420697320696e697469604482015266616c697a696e6760c81b606482015260840160405180910390fd5b60005460ff90811614620000e5576000805460ff191660ff9081179091556040519081527f7f26b83ff96e1f2b6a682f133852f6798a09c465da95921460cefb38474024989060200160405180910390a15b565b608051615f006200011f600039600081816116ff0152818161173f01528181611ac801528181611b080152611b930152615f006000f3fe6080604052600436106102e85760003560e01c8062fdd58e146102ed57806301139ca71461032057806301ffc9a71461034257806302fe5305146103725780630cda95f9146103925780630e89341c146103b257806310c1e7a1146103df57806322088ebf146103ff578063248a9ca31461041f578063275d4dec1461043f578063282c51f31461045f5780632ea05e44146104935780632eb2c2d6146104b55780632f2ff15d146104d55780633584c384146104f557806336568abe146105235780633659cfe6146105435780633f4ba83a146105635780633fafa1271461057857806341a30d3c1461058f5780634e1273f4146105af5780634f1ef286146105dc5780634f558e79146105ef57806352d1902d1461060f57806354ff07951461062457806357c537af1461065d5780635c975abb1461067d5780635e3bbaab14610695578063610e7012146106b757806361eeb089146106e45780636929a19c146106fb5780636f63984d1461072d578063728e68e31461074d578063748957de1461077e57806379c27605146107935780637f345710146107b35780638456cb59146107d557806384b0196e146107ea5780638f76c1da1461081257806391d14854146108405780639a33e300146108605780639d6aed0b146108755780639eeb1d50146108a3578063a0e1b171146108b8578063a1062771146108d8578063a217fddf146108f8578063a22cb4651461090d578063aa8b2ea71461092d578063abf410e51461094f578063af93ff721461097d578063b390c0ab1461099d578063bc197c81146109bd578063bd85b03914610a02578063d539139314610a22578063d547741f14610a56578063dbd8483d14610a76578063deb0420714610abf578063e36408d014610adf578063e63ab1e914610af2578063e7705db614610b14578063e985e9c514610b36578063edc0b2e614610b7f578063f23a6e6114610ba1578063f242432a14610bcd578063f515e6f214610bed578063f72c0d8b14610c0f575b600080fd5b3480156102f957600080fd5b5061030d610308366004614670565b610c31565b6040519081526020015b60405180910390f35b34801561032c57600080fd5b5061034061033b366004614774565b610cc9565b005b34801561034e57600080fd5b5061036261035d36600461483b565b610efc565b6040519015158152602001610317565b34801561037e57600080fd5b5061034061038d366004614858565b610f0d565b34801561039e57600080fd5b506103406103ad366004614927565b610f32565b3480156103be57600080fd5b506103d26103cd366004614993565b6110f7565b6040516103179190614a04565b3480156103eb57600080fd5b506103406103fa366004614a17565b61118b565b34801561040b57600080fd5b5061034061041a366004614ad0565b6112c4565b34801561042b57600080fd5b5061030d61043a366004614993565b61156d565b34801561044b57600080fd5b5061030d61045a366004614b82565b611582565b34801561046b57600080fd5b5061030d7f3c11d16cbaffd01df69ce1c404f6340ee057498f5f00246190ea54220576a84881565b34801561049f57600080fd5b5061030d600080516020615e6b83398151915281565b3480156104c157600080fd5b506103406104d0366004614cb8565b61160e565b3480156104e157600080fd5b506103406104f0366004614d47565b61165a565b34801561050157600080fd5b5061030d610510366004614993565b6101fe6020526000908152604090205481565b34801561052f57600080fd5b5061034061053e366004614d47565b61167b565b34801561054f57600080fd5b5061034061055e366004614d73565b6116f5565b34801561056f57600080fd5b506103406117bd565b34801561058457600080fd5b5061030d6101f85481565b34801561059b57600080fd5b506103406105aa366004614d8e565b6117dd565b3480156105bb57600080fd5b506105cf6105ca366004614dfc565b611995565b6040516103179190614e9a565b6103406105ea366004614ead565b611abe565b3480156105fb57600080fd5b5061036261060a366004614993565b611b73565b34801561061b57600080fd5b5061030d611b86565b34801561063057600080fd5b5061030d61063f366004614858565b80516020818301810180516101ff8252928201919093012091525481565b34801561066957600080fd5b50610340610678366004614eff565b611c35565b34801561068957600080fd5b5060c95460ff16610362565b3480156106a157600080fd5b5061030d600080516020615e8b83398151915281565b3480156106c357600080fd5b506101f9546106d29060ff1681565b60405160ff9091168152602001610317565b3480156106f057600080fd5b5061030d6101f75481565b34801561070757600080fd5b5061071b610716366004614993565b611d37565b60405161031796959493929190614f41565b34801561073957600080fd5b50610362610748366004614993565b611f11565b34801561075957600080fd5b5061076d610768366004614993565b611f38565b604051610317959493929190614f94565b34801561078a57600080fd5b506103d2611fef565b34801561079f57600080fd5b506103406107ae366004614fcb565b61207e565b3480156107bf57600080fd5b5061030d600080516020615dc483398151915281565b3480156107e157600080fd5b50610340612134565b3480156107f657600080fd5b506107ff612154565b60405161031797969594939291906150e7565b34801561081e57600080fd5b5061030d61082d366004614993565b6101fd6020526000908152604090205481565b34801561084c57600080fd5b5061036261085b366004614d47565b6121f4565b34801561086c57600080fd5b506103d261221f565b34801561088157600080fd5b50604080518082019091526005815264302e302e3560d81b60208201526103d2565b3480156108af57600080fd5b506103d261222d565b3480156108c457600080fd5b506103406108d3366004615157565b61223b565b3480156108e457600080fd5b506103406108f3366004615198565b6123da565b34801561090457600080fd5b5061030d600081565b34801561091957600080fd5b5061034061092836600461520a565b6124f7565b34801561093957600080fd5b5061030d600080516020615da483398151915281565b34801561095b57600080fd5b506101fb54610970906001600160a01b031681565b6040516103179190615246565b34801561098957600080fd5b5061030d61099836600461525a565b612502565b3480156109a957600080fd5b506103406109b8366004615339565b612711565b3480156109c957600080fd5b506109e96109d8366004614cb8565b63bc197c8160e01b95945050505050565b6040516001600160e01b03199091168152602001610317565b348015610a0e57600080fd5b5061030d610a1d366004614993565b612749565b348015610a2e57600080fd5b5061030d7f9f2df0fed2c77648de5860a4cc508cd0818c85b8b8a1ab4ceeef8d981c8956a681565b348015610a6257600080fd5b50610340610a71366004614d47565b61275b565b348015610a8257600080fd5b50610aaa610a91366004614d73565b6101c56020526000908152604090205463ffffffff1681565b60405163ffffffff9091168152602001610317565b348015610acb57600080fd5b50610340610ada36600461535b565b612777565b610340610aed3660046153b2565b612806565b348015610afe57600080fd5b5061030d600080516020615e0483398151915281565b348015610b2057600080fd5b5061030d600080516020615eab83398151915281565b348015610b4257600080fd5b50610362610b51366004615433565b6001600160a01b03918216600090815260666020908152604080832093909416825291909152205460ff1690565b348015610b8b57600080fd5b5061030d600080516020615d0483398151915281565b348015610bad57600080fd5b506109e9610bbc36600461545d565b63f23a6e6160e01b95945050505050565b348015610bd957600080fd5b50610340610be836600461545d565b61293a565b348015610bf957600080fd5b5061030d600080516020615e4b83398151915281565b348015610c1b57600080fd5b5061030d600080516020615d6483398151915281565b60006001600160a01b038316610ca15760405162461bcd60e51b815260206004820152602a60248201527f455243313135353a2061646472657373207a65726f206973206e6f742061207660448201526930b634b21037bbb732b960b11b60648201526084015b60405180910390fd5b5060009081526065602090815260408083206001600160a01b03949094168352929052205490565b600054610100900460ff1615808015610ce95750600054600160ff909116105b80610d0a5750610cf83061297f565b158015610d0a575060005460ff166001145b610d265760405162461bcd60e51b8152600401610c98906154c1565b6000805460ff191660011790558015610d49576000805461ff0019166101001790555b610d616040518060200160405280600081525061298e565b610d696129be565b610d716129e7565b610d796129be565b610d816129be565b610dcf6040518060400160405280600f81526020016e436172626f6e20526567697374727960881b81525060405180604001604052806005815260200164302e302e3160d81b815250612a16565b610ddc87868685876123da565b610de7600087612a47565b610dff600080516020615dc483398151915287612a47565b610e17600080516020615e0483398151915287612a47565b610e2f600080516020615d0483398151915287612a47565b610e47600080516020615e8b83398151915287612a47565b610e5f600080516020615d6483398151915287612a47565b610e77600080516020615e4b83398151915287612a47565b610e8f600080516020615eab83398151915287612a47565b610ea7600080516020615e6b83398151915287612a47565b610ebf600080516020615e8b83398151915233612a47565b8015610ef3576000805461ff001916905560405160018152600080516020615de48339815191529060200160405180910390a15b50505050505050565b6000610f0782612acd565b92915050565b600080516020615dc4833981519152610f2581612af2565b610f2e82612afc565b5050565b81610f3c81611f11565b610f585760405162461bcd60e51b8152600401610c989061550f565b60008381526101fe602052604081205490819003610f885760405162461bcd60e51b8152600401610c989061552a565b6000610f9382612749565b90506000610fa13087610c31565b905060008111610fd85760405162461bcd60e51b8152602060048201526002602482015261031360f41b6044820152606401610c98565b60005b87518110156110ed576000611009898381518110610ffb57610ffb615545565b602002602001015186610c31565b90506000846110188584615571565b6110229190615590565b905081818111156110305750805b898b858151811061104357611043615545565b60200260200101516001600160a01b03167ffa5cd0fcb25938b2f45b3ca175241bfb3739cf4db3cb7476846930ec714f13f284846040516110859291906155b2565b60405180910390a36110b18b85815181106110a2576110a2615545565b60200260200101518883612b0f565b6110d7308c86815181106110c7576110c7615545565b60200260200101518c858d612c94565b50505080806110e5906155c0565b915050610fdb565b5050505050505050565b606060678054611106906155d9565b80601f0160208091040260200160405190810160405280929190818152602001828054611132906155d9565b801561117f5780601f106111545761010080835404028352916020019161117f565b820191906000526020600020905b81548152906001019060200180831161116257829003601f168201915b50505050509050919050565b600080516020615d048339815191526111a381612af2565b836111ad81611f11565b6111c95760405162461bcd60e51b8152600401610c989061550f565b60008581526101fc602052604081206003810154600490910154879111604051806040016040528060018152602001603360f81b8152509061121e5760405162461bcd60e51b8152600401610c989190614a04565b5060008781526101fe60205260408120549081900361126857506101f780546001019081905560008881526101fe602090815260408083208490558383526101fd90915290208890555b886001600160a01b031688827f1fe9ade752d24e4f4dca10f5c807a7cc8630c7604280c8b124097d93b5bb02a18a6040516112a591815260200190565b60405180910390a46112b989828989612dbf565b505050505050505050565b82608001356112d281611f11565b6112ee5760405162461bcd60e51b8152600401610c989061550f565b858585600080516020615d4483398151915283838360405161131293929190615636565b60405180910390a16000611429600080516020615ce4833981519152833561133d602086018661570e565b60405160200161134e929190615754565b604051602081830303815290604052805190602001208560400160208101906113779190614d73565b6113876080880160608901614d73565b608088013560a08901356101c560006113a660608d0160408e01614d73565b6001600160a01b03908116825260208083019390935260409182016000205482519384019a909a529082019790975260608101959095529285166080850152931660a083015260c082019290925260e081019190915263ffffffff9091166101008201526101200160405160208183030381529060405280519060200120612ed7565b905061147d8185858080601f016020809104026020016040519081016040528093929190818152602001838380828437600092019190915250611476925050506060860160408701614d73565b8535612f04565b506101c560006114936060850160408601614d73565b6001600160a01b0316815260208101919091526040016000908120805463ffffffff16916114c083615764565b91906101000a81548163ffffffff021916908363ffffffff1602179055505087608001358860400160208101906114f79190614d73565b6001600160a01b03167f782105afe5542acae5ab54dc3dab8b54887fd38a79f55330b3e1e70c3063d67b8a60a001358a8a60405161153793929190615787565b60405180910390a361156161155260608a0160408b01614d73565b89608001358a60a00135612b0f565b50505050505050505050565b60009081526097602052604090206001015490565b60008761158e81611f11565b6115aa5760405162461bcd60e51b8152600401610c989061550f565b6001600160a01b03871633036115d0576115c9338a8a89898989612fc6565b9150611602565b6001600160a01b0387166115e357600080fd5b6115f033888b8b87612c94565b6115ff878a8a89898989612fc6565b91505b50979650505050505050565b6001600160a01b03851633148061162a575061162a8533610b51565b6116465760405162461bcd60e51b8152600401610c98906157b2565b6116538585858585613034565b5050505050565b6116638261156d565b61166c81612af2565b6116768383612a47565b505050565b6001600160a01b03811633146116eb5760405162461bcd60e51b815260206004820152602f60248201527f416363657373436f6e74726f6c3a2063616e206f6e6c792072656e6f756e636560448201526e103937b632b9903337b91039b2b63360891b6064820152608401610c98565b610f2e828261321a565b6001600160a01b037f000000000000000000000000000000000000000000000000000000000000000016300361173d5760405162461bcd60e51b8152600401610c9890615800565b7f00000000000000000000000000000000000000000000000000000000000000006001600160a01b031661176f613281565b6001600160a01b0316146117955760405162461bcd60e51b8152600401610c989061583a565b61179e8161329d565b604080516000808252602082019092526117ba918391906132b5565b50565b600080516020615e048339815191526117d581612af2565b6117ba613420565b600080516020615eab8339815191526117f581612af2565b866117ff81611f11565b61181b5760405162461bcd60e51b8152600401610c989061550f565b60008881526101fc6020526040812060038101546004909101548a9111604051806040016040528060018152602001603360f81b815250906118705760405162461bcd60e51b8152600401610c989190614a04565b50878910156118a55760405162461bcd60e51b81526020600482015260016024820152601b60f91b6044820152606401610c98565b60008a81526101fe6020526040812054908190036118db5788156118db5760405162461bcd60e51b8152600401610c989061552a565b8a7fe19de0f3da1193000100a217838f49f6bdda20dc974d33b61f92faaf446d181d8b8b8b8b8b604051611913959493929190615874565b60405180910390a260006119278a8c61589f565b1115611951576119518c8c61193c8c8e61589f565b60405180602001604052806000815250612dbf565b60008b81526101fc60205260409020600401879055881561198757611987308c8b60405180602001604052806000815250612dbf565b505050505050505050505050565b606081518351146119fa5760405162461bcd60e51b815260206004820152602960248201527f455243313135353a206163636f756e747320616e6420696473206c656e677468604482015268040dad2e6dac2e8c6d60bb1b6064820152608401610c98565b600083516001600160401b03811115611a1557611a1561469a565b604051908082528060200260200182016040528015611a3e578160200160208202803683370190505b50905060005b8451811015611ab657611a89858281518110611a6257611a62615545565b6020026020010151858381518110611a7c57611a7c615545565b6020026020010151610c31565b828281518110611a9b57611a9b615545565b6020908102919091010152611aaf816155c0565b9050611a44565b509392505050565b6001600160a01b037f0000000000000000000000000000000000000000000000000000000000000000163003611b065760405162461bcd60e51b8152600401610c9890615800565b7f00000000000000000000000000000000000000000000000000000000000000006001600160a01b0316611b38613281565b6001600160a01b031614611b5e5760405162461bcd60e51b8152600401610c989061583a565b611b678261329d565b610f2e828260016132b5565b600080611b7f83612749565b1192915050565b6000306001600160a01b037f00000000000000000000000000000000000000000000000000000000000000001614611c215760405162461bcd60e51b815260206004820152603860248201527f555550535570677261646561626c653a206d757374206e6f742062652063616c6044820152771b1959081d1a1c9bdd59da0819195b1959d85d1958d85b1b60421b6064820152608401610c98565b50600080516020615d848339815191525b90565b6000611c4081612af2565b83611c4a81611f11565b611c665760405162461bcd60e51b8152600401610c989061550f565b60008581526101fc602052604081206003810154600490910154879111604051806040016040528060018152602001603360f81b81525090611cbb5760405162461bcd60e51b8152600401610c989190614a04565b50846004811115611cce57611cce6158b6565b60008881526101fc60205260409081902060010154905189917f79ad675a154518428a5aa59f22c834871a66d54a46e3f4c8c5b4ee08fb576c2e91611d14918b916155b2565b60405180910390a3505050600093845250506101fc602052604090912060010155565b6102006020526000908152604090208054600182015460028301546003840180546001600160a01b03909416949293919291611d72906155d9565b80601f0160208091040260200160405190810160405280929190818152602001828054611d9e906155d9565b8015611deb5780601f10611dc057610100808354040283529160200191611deb565b820191906000526020600020905b815481529060010190602001808311611dce57829003601f168201915b505050505090806004018054611e00906155d9565b80601f0160208091040260200160405190810160405280929190818152602001828054611e2c906155d9565b8015611e795780601f10611e4e57610100808354040283529160200191611e79565b820191906000526020600020905b815481529060010190602001808311611e5c57829003601f168201915b505050505090806005018054611e8e906155d9565b80601f0160208091040260200160405190810160405280929190818152602001828054611eba906155d9565b8015611f075780601f10611edc57610100808354040283529160200191611f07565b820191906000526020600020905b815481529060010190602001808311611eea57829003601f168201915b5050505050905086565b60008181526101fc602052604081208054829190611f2e906155d9565b9050119050919050565b6101fc60205260009081526040902080548190611f54906155d9565b80601f0160208091040260200160405190810160405280929190818152602001828054611f80906155d9565b8015611fcd5780601f10611fa257610100808354040283529160200191611fcd565b820191906000526020600020905b815481529060010190602001808311611fb057829003601f168201915b5050505050908060010154908060020154908060030154908060040154905085565b6102018054611ffd906155d9565b80601f0160208091040260200160405190810160405280929190818152602001828054612029906155d9565b80156120765780601f1061204b57610100808354040283529160200191612076565b820191906000526020600020905b81548152906001019060200180831161205957829003601f168201915b505050505081565b600080516020615e8b83398151915261209681612af2565b60005b8251811015611676576121228382815181106120b7576120b7615545565b6020026020010151602001518483815181106120d5576120d5615545565b6020026020010151604001518584815181106120f3576120f3615545565b60200260200101516060015186858151811061211157612111615545565b60200260200101516000015161223b565b8061212c816155c0565b915050612099565b600080516020615e0483398151915261214c81612af2565b6117ba61346c565b600060608060008060006060610191546000801b148015612176575061019254155b6121ba5760405162461bcd60e51b81526020600482015260156024820152741152540dcc4c8e88155b9a5b9a5d1a585b1a5e9959605a1b6044820152606401610c98565b6121c26134a9565b6121ca61353c565b60408051600080825260208201909252600f60f81b9b939a50919850469750309650945092509050565b60009182526097602090815260408084206001600160a01b0393909316845291905290205460ff1690565b6101fa8054611ffd906155d9565b6102028054611ffd906155d9565b600080516020615e8b83398151915261225381612af2565b8383116122865760405162461bcd60e51b81526020600482015260016024820152600d60fa1b6044820152606401610c98565b600061229a6101f780546001019081905590565b6101fb546040516344d9d59b60e01b81529192506001600160a01b0316906344d9d59b906122cc908690600401614a04565b600060405180830381600087803b1580156122e657600080fd5b505af11580156122fa573d6000803e3d6000fd5b50505050806101ff8460405161231091906158cc565b90815260408051602092819003830181209390935560a083018152858352818301899052828101889052606083018790526000608084018190528481526101fc835220825180519192612368928492909101906145c4565b5060208201518160010155604082015181600201556060820151816003015560808201518160040155905050807fc5fb6d85b5baef0a615415607787aea341771027b7e4da34da58eaeb661154ea878787876040516123ca94939291906158e8565b60405180910390a2505050505050565b600054610100900460ff16158080156123fa5750600054600160ff909116105b8061241b57506124093061297f565b15801561241b575060005460ff166001145b6124375760405162461bcd60e51b8152600401610c98906154c1565b6000805460ff19166001179055801561245a576000805461ff0019166101001790555b6101fb80546001600160a01b0319166001600160a01b038816179055835161248a906101fa9060208701906145c4565b506101f885905582516124a5906102019060208601906145c4565b5081516124ba906102029060208501906145c4565b5080156124ef576000805461ff001916905560405160018152600080516020615de48339815191529060200160405180910390a15b505050505050565b610f2e33838361354c565b6000856080013561251281611f11565b61252e5760405162461bcd60e51b8152600401610c989061550f565b888888600080516020615d4483398151915283838360405161255293929190615636565b60405180910390a1600061257d600080516020615ce4833981519152833561133d602086018661570e565b90506125ca8185858080601f016020809104026020016040519081016040528093929190818152602001838380828437600092019190915250611476925050506060860160408701614d73565b506101c560006125e06060850160408601614d73565b6001600160a01b0316815260208101919091526040016000908120805463ffffffff169161260d83615764565b91906101000a81548163ffffffff021916908363ffffffff160217905550508a606001602081019061263f9190614d73565b6001600160a01b031661265860608d0160408e01614d73565b6001600160a01b0316036126935761268c61267960608d0160408e01614d73565b8c608001358d60a001358d8d8d8d612fc6565b9550612701565b60006126a560808d0160608e01614d73565b6001600160a01b0316036126b857600080fd5b6126eb6126cb60608d0160408e01614d73565b6126db60808e0160608f01614d73565b8d608001358e60a001358b612c94565b6126fe61267960808d0160608e01614d73565b95505b5050505050979650505050505050565b60008281526101fe60205260409020541561273e5760405162461bcd60e51b8152600401610c989061590d565b610f2e338383612b0f565b600090815260fb602052604090205490565b6127648261156d565b61276d81612af2565b611676838361321a565b600080516020615e6b83398151915261278f81612af2565b8160048111156127a1576127a16158b6565b604080516001600160a01b038881168252602082018790528792908a16917fa8b90aeef4d9590cac2ff486fc2b5d9749ed41f9388a7eb159eef94cf5fb65ab910160405180910390a46124ef8686868660405180602001604052806000815250612c94565b838383600080516020615d4483398151915283838360405161282a93929190615636565b60405180910390a16000612855600080516020615ce4833981519152833561133d602086018661570e565b90506128a28185858080601f016020809104026020016040519081016040528093929190818152602001838380828437600092019190915250611476925050506060860160408701614d73565b506101c560006128b86060850160408601614d73565b6001600160a01b0316815260208101919091526040016000908120805463ffffffff16916128e583615764565b91906101000a81548163ffffffff021916908363ffffffff160217905550506110ed86604001602081019061291a9190614d73565b61292a6080890160608a01614d73565b88608001358960a0013589612c94565b6001600160a01b03851633148061295657506129568533610b51565b6129725760405162461bcd60e51b8152600401610c98906157b2565b6116538585858585612c94565b6001600160a01b03163b151590565b600054610100900460ff166129b55760405162461bcd60e51b8152600401610c9890615929565b6117ba8161362c565b600054610100900460ff166129e55760405162461bcd60e51b8152600401610c9890615929565b565b600054610100900460ff16612a0e5760405162461bcd60e51b8152600401610c9890615929565b6129e561365c565b600054610100900460ff16612a3d5760405162461bcd60e51b8152600401610c9890615929565b610f2e828261368f565b612a5182826121f4565b610f2e5760008281526097602090815260408083206001600160a01b03851684529091529020805460ff19166001179055612a893390565b6001600160a01b0316816001600160a01b0316837f2f8788117e7eff1d82e926ec794901d17c78024a50270940304540a733656f0d60405160405180910390a45050565b60006001600160e01b03198216630271189760e51b1480610f075750610f07826136c0565b6117ba81336136e5565b8051610f2e9060679060208401906145c4565b6001600160a01b038316612b715760405162461bcd60e51b815260206004820152602360248201527f455243313135353a206275726e2066726f6d20746865207a65726f206164647260448201526265737360e81b6064820152608401610c98565b336000612b7d8461373e565b90506000612b8a8461373e565b9050612baa83876000858560405180602001604052806000815250613789565b60008581526065602090815260408083206001600160a01b038a16845290915290205484811015612c295760405162461bcd60e51b8152602060048201526024808201527f455243313135353a206275726e20616d6f756e7420657863656564732062616c604482015263616e636560e01b6064820152608401610c98565b60008681526065602090815260408083206001600160a01b03808c1680865291909352818420898603905590519091871690600080516020615cc483398151915290612c78908b908b906155b2565b60405180910390a4604080516020810190915260009052610ef3565b6001600160a01b038416612cba5760405162461bcd60e51b8152600401610c9890615974565b336000612cc68561373e565b90506000612cd38561373e565b9050612ce3838989858589613789565b60008681526065602090815260408083206001600160a01b038c16845290915290205485811015612d265760405162461bcd60e51b8152600401610c98906159b9565b60008781526065602090815260408083206001600160a01b038d8116855292528083208985039055908a16825281208054889290612d65908490615a03565b92505081905550876001600160a01b0316896001600160a01b0316856001600160a01b0316600080516020615cc48339815191528a8a604051612da99291906155b2565b60405180910390a46112b9848a8a8a8a8a61389d565b6001600160a01b038416612e1f5760405162461bcd60e51b815260206004820152602160248201527f455243313135353a206d696e7420746f20746865207a65726f206164647265736044820152607360f81b6064820152608401610c98565b336000612e2b8561373e565b90506000612e388561373e565b9050612e4983600089858589613789565b60008681526065602090815260408083206001600160a01b038b16845290915281208054879290612e7b908490615a03565b92505081905550866001600160a01b031660006001600160a01b0316846001600160a01b0316600080516020615cc48339815191528989604051612ec09291906155b2565b60405180910390a4610ef38360008989898961389d565b6000610f07612ee46139ff565b8360405161190160f01b8152600281019290925260228201526042902090565b6000612f108585613a0e565b9050826001600160a01b0316816001600160a01b0316148015612f3b57506001600160a01b03811615155b612f7b5760405162461bcd60e51b8152602060048201526011602482015270496e76616c6964207369676e617475726560781b6044820152606401610c98565b814210612fbe5760405162461bcd60e51b815260206004820152601160248201527014da59db985d1d5c9948195e1c1a5c9959607a1b6044820152606401610c98565b949350505050565b6000612fd3888888612b0f565b612fe1888888888888613a2a565b905086886001600160a01b03167f1325d882b2ca749c878a4ab3a393f6e51b69026faa05426b6d1ec6776a3f2f3c88848660405161302193929190615a1b565b60405180910390a3979650505050505050565b81518351146130965760405162461bcd60e51b815260206004820152602860248201527f455243313135353a2069647320616e6420616d6f756e7473206c656e677468206044820152670dad2e6dac2e8c6d60c31b6064820152608401610c98565b6001600160a01b0384166130bc5760405162461bcd60e51b8152600401610c9890615974565b336130cb818787878787613789565b60005b84518110156131b45760008582815181106130eb576130eb615545565b60200260200101519050600085838151811061310957613109615545565b60209081029190910181015160008481526065835260408082206001600160a01b038e16835290935291909120549091508181101561315a5760405162461bcd60e51b8152600401610c98906159b9565b60008381526065602090815260408083206001600160a01b038e8116855292528083208585039055908b16825281208054849290613199908490615a03565b92505081905550505050806131ad906155c0565b90506130ce565b50846001600160a01b0316866001600160a01b0316826001600160a01b03167f4a39dc06d4c0dbc64b70af90fd698a233a518aa5d07e595d983b8c0526c8f7fb8787604051613204929190615a43565b60405180910390a46124ef818787878787613b29565b61322482826121f4565b15610f2e5760008281526097602090815260408083206001600160a01b0385168085529252808320805460ff1916905551339285917ff6391f5c32d9c69d2a47ea670b442974b53935d1edc7fd64eb21e047a839171b9190a45050565b600080516020615d84833981519152546001600160a01b031690565b600080516020615d64833981519152610f2e81612af2565b7f4910fdfa16fed3260ed0e7147f7cc6da11a60208b5b9406d12a635614ffd91435460ff16156132e85761167683613beb565b826001600160a01b03166352d1902d6040518163ffffffff1660e01b8152600401602060405180830381865afa925050508015613342575060408051601f3d908101601f1916820190925261333f91810190615a68565b60015b6133a55760405162461bcd60e51b815260206004820152602e60248201527f45524331393637557067726164653a206e657720696d706c656d656e7461746960448201526d6f6e206973206e6f74205555505360901b6064820152608401610c98565b600080516020615d8483398151915281146134145760405162461bcd60e51b815260206004820152602960248201527f45524331393637557067726164653a20756e737570706f727465642070726f786044820152681a58589b195555525160ba1b6064820152608401610c98565b50611676838383613c85565b613428613cb0565b60c9805460ff191690557f5db9ee0a495bf2e6ff9c91a7834c1ba4fdd244a5e8aa4e537bd38aeae4b073aa335b6040516134629190615246565b60405180910390a1565b613474613cf9565b60c9805460ff191660011790557f62e78cea01bee320cd4e420270b5ea74000d11b0c9f74754ebdbfc544b05a2586134553390565b606061019380546134b9906155d9565b80601f01602080910402602001604051908101604052809291908181526020018280546134e5906155d9565b80156135325780601f1061350757610100808354040283529160200191613532565b820191906000526020600020905b81548152906001019060200180831161351557829003601f168201915b5050505050905090565b606061019480546134b9906155d9565b816001600160a01b0316836001600160a01b0316036135bf5760405162461bcd60e51b815260206004820152602960248201527f455243313135353a2073657474696e6720617070726f76616c20737461747573604482015268103337b91039b2b63360b91b6064820152608401610c98565b6001600160a01b03838116600081815260666020908152604080832094871680845294825291829020805460ff191686151590811790915591519182527f17307eab39ab6107e8899845ad3d59bd9653f200f220920489ca2b5937696c31910160405180910390a3505050565b600054610100900460ff166136535760405162461bcd60e51b8152600401610c9890615929565b6117ba81612afc565b600054610100900460ff166136835760405162461bcd60e51b8152600401610c9890615929565b60c9805460ff19169055565b600054610100900460ff166136b65760405162461bcd60e51b8152600401610c9890615929565b610f2e8282613d3f565b60006001600160e01b03198216637965db0b60e01b1480610f075750610f0782613da0565b6136ef82826121f4565b610f2e576136fc81613df0565b613707836020613e02565b604051602001613718929190615a81565b60408051601f198184030181529082905262461bcd60e51b8252610c9891600401614a04565b6040805160018082528183019092526060916000919060208083019080368337019050509050828160008151811061377857613778615545565b602090810291909101015292915050565b613791613cf9565b846137aa600080516020615da4833981519152826121f4565b156137c75760405162461bcd60e51b8152600401610c9890615af0565b846137e0600080516020615da4833981519152826121f4565b156137fd5760405162461bcd60e51b8152600401610c9890615af0565b60005b855181101561388e57610200600087838151811061382057613820615545565b60200260200101518152602001908152602001600020600101546000148061386057506001600160a01b038816158061386057506001600160a01b038716155b61387c5760405162461bcd60e51b8152600401610c989061590d565b80613886816155c0565b915050613800565b506110ed888888888888613fa4565b6138af846001600160a01b031661297f565b156124ef5760405163f23a6e6160e01b81526001600160a01b0385169063f23a6e61906138e89089908990889088908890600401615b0b565b6020604051808303816000875af1925050508015613923575060408051601f3d908101601f1916820190925261392091810190615b45565b60015b6139cf5761392f615b62565b806308c379a0036139685750613943615b7d565b8061394e575061396a565b8060405162461bcd60e51b8152600401610c989190614a04565b505b60405162461bcd60e51b815260206004820152603460248201527f455243313135353a207472616e7366657220746f206e6f6e2d455243313135356044820152732932b1b2b4bb32b91034b6b83632b6b2b73a32b960611b6064820152608401610c98565b6001600160e01b0319811663f23a6e6160e01b14610ef35760405162461bcd60e51b8152600401610c9890615c06565b6000613a0961411d565b905090565b6000806000613a1d8585614191565b91509150611ab6816141d6565b600080613a3f6101f780546001019081905590565b6040805160c0810182526001600160a01b038b8116825260208083018b81528385018d8152606085018c8152608086018c905260a086018b90526000888152610200855296909620855181546001600160a01b0319169516949094178455905160018401555160028301559251805194955091939092613ac69260038501929101906145c4565b5060808201518051613ae29160048401916020909101906145c4565b5060a08201518051613afe9160058401916020909101906145c4565b50905050613b1e8882600160405180602001604052806000815250612dbf565b979650505050505050565b613b3b846001600160a01b031661297f565b156124ef5760405163bc197c8160e01b81526001600160a01b0385169063bc197c8190613b749089908990889088908890600401615c4e565b6020604051808303816000875af1925050508015613baf575060408051601f3d908101601f19168201909252613bac91810190615b45565b60015b613bbb5761392f615b62565b6001600160e01b0319811663bc197c8160e01b14610ef35760405162461bcd60e51b8152600401610c9890615c06565b613bf48161297f565b613c565760405162461bcd60e51b815260206004820152602d60248201527f455243313936373a206e657720696d706c656d656e746174696f6e206973206e60448201526c1bdd08184818dbdb9d1c9858dd609a1b6064820152608401610c98565b600080516020615d8483398151915280546001600160a01b0319166001600160a01b0392909216919091179055565b613c8e8361431b565b600082511180613c9b5750805b1561167657613caa838361435b565b50505050565b60c95460ff166129e55760405162461bcd60e51b815260206004820152601460248201527314185d5cd8589b194e881b9bdd081c185d5cd95960621b6044820152606401610c98565b60c95460ff16156129e55760405162461bcd60e51b815260206004820152601060248201526f14185d5cd8589b194e881c185d5cd95960821b6044820152606401610c98565b600054610100900460ff16613d665760405162461bcd60e51b8152600401610c9890615929565b8151613d7a906101939060208501906145c4565b508051613d8f906101949060208401906145c4565b505060006101918190556101925550565b60006001600160e01b03198216636cdb3d1360e11b1480613dd157506001600160e01b031982166303a24d0760e21b145b80610f0757506301ffc9a760e01b6001600160e01b0319831614610f07565b6060610f076001600160a01b03831660145b60606000613e11836002615571565b613e1c906002615a03565b6001600160401b03811115613e3357613e3361469a565b6040519080825280601f01601f191660200182016040528015613e5d576020820181803683370190505b509050600360fc1b81600081518110613e7857613e78615545565b60200101906001600160f81b031916908160001a905350600f60fb1b81600181518110613ea757613ea7615545565b60200101906001600160f81b031916908160001a9053506000613ecb846002615571565b613ed6906001615a03565b90505b6001811115613f4e576f181899199a1a9b1b9c1cb0b131b232b360811b85600f1660108110613f0a57613f0a615545565b1a60f81b828281518110613f2057613f20615545565b60200101906001600160f81b031916908160001a90535060049490941c93613f4781615cac565b9050613ed9565b508315613f9d5760405162461bcd60e51b815260206004820181905260248201527f537472696e67733a20686578206c656e67746820696e73756666696369656e746044820152606401610c98565b9392505050565b6001600160a01b03851661402b5760005b835181101561402957828181518110613fd057613fd0615545565b602002602001015160fb6000868481518110613fee57613fee615545565b6020026020010151815260200190815260200160002060008282546140139190615a03565b909155506140229050816155c0565b9050613fb5565b505b6001600160a01b0384166124ef5760005b8351811015610ef357600084828151811061405957614059615545565b60200260200101519050600084838151811061407757614077615545565b60200260200101519050600060fb6000848152602001908152602001600020549050818110156140fa5760405162461bcd60e51b815260206004820152602860248201527f455243313135353a206275726e20616d6f756e74206578636565647320746f74604482015267616c537570706c7960c01b6064820152608401610c98565b600092835260fb602052604090922091039055614116816155c0565b905061403c565b60007f8b73c3c69bb8fe3d512ecc4cf759cc79239f7b179b0ffacaa9a75d522b39400f614148614380565b6141506143de565b60408051602081019490945283019190915260608201524660808201523060a082015260c00160405160208183030381529060405280519060200120905090565b60008082516041036141c75760208301516040840151606085015160001a6141bb87828585614410565b945094505050506141cf565b506000905060025b9250929050565b60008160048111156141ea576141ea6158b6565b036141f25750565b6001816004811115614206576142066158b6565b0361424e5760405162461bcd60e51b815260206004820152601860248201527745434453413a20696e76616c6964207369676e617475726560401b6044820152606401610c98565b6002816004811115614262576142626158b6565b036142af5760405162461bcd60e51b815260206004820152601f60248201527f45434453413a20696e76616c6964207369676e6174757265206c656e677468006044820152606401610c98565b60038160048111156142c3576142c36158b6565b036117ba5760405162461bcd60e51b815260206004820152602260248201527f45434453413a20696e76616c6964207369676e6174757265202773272076616c604482015261756560f01b6064820152608401610c98565b61432481613beb565b6040516001600160a01b038216907fbc7cd75a20ee27fd9adebab32041f755214dbc6bffa90cc0225b39da2e5c2d3b90600090a250565b6060613f9d8383604051806060016040528060278152602001615e24602791396144ca565b60008061438b6134a9565b8051909150156143a2578051602090910120919050565b6101915480156143b25792915050565b7fc5d2460186f7233c927e7db2dcc703c0e500b653ca82273b7bfad8045d85a4709250505090565b5090565b6000806143e961353c565b805190915015614400578051602090910120919050565b6101925480156143b25792915050565b6000806fa2a8918ca85bafe22016d0b997e4df60600160ff1b0383111561443d57506000905060036144c1565b6040805160008082526020820180845289905260ff881692820192909252606081018690526080810185905260019060a0016020604051602081039080840390855afa158015614491573d6000803e3d6000fd5b5050604051601f1901519150506001600160a01b0381166144ba576000600192509250506144c1565b9150600090505b94509492505050565b6060600080856001600160a01b0316856040516144e791906158cc565b600060405180830381855af49150503d8060008114614522576040519150601f19603f3d011682016040523d82523d6000602084013e614527565b606091505b509150915061453886838387614542565b9695505050505050565b606083156145af5782516000036145a85761455c8561297f565b6145a85760405162461bcd60e51b815260206004820152601d60248201527f416464726573733a2063616c6c20746f206e6f6e2d636f6e74726163740000006044820152606401610c98565b5081612fbe565b612fbe838381511561394e5781518083602001fd5b8280546145d0906155d9565b90600052602060002090601f0160209004810192826145f25760008555614638565b82601f1061460b57805160ff1916838001178555614638565b82800160010185558215614638579182015b8281111561463857825182559160200191906001019061461d565b506143da9291505b808211156143da5760008155600101614640565b80356001600160a01b038116811461466b57600080fd5b919050565b6000806040838503121561468357600080fd5b61468c83614654565b946020939093013593505050565b634e487b7160e01b600052604160045260246000fd5b60a081016001600160401b03811182821017156146cf576146cf61469a565b60405250565b601f8201601f191681016001600160401b03811182821017156146fa576146fa61469a565b6040525050565b600082601f83011261471257600080fd5b81356001600160401b0381111561472b5761472b61469a565b604051614742601f8301601f1916602001826146d5565b81815284602083860101111561475757600080fd5b816020850160208301376000918101602001919091529392505050565b60008060008060008060c0878903121561478d57600080fd5b61479687614654565b95506147a460208801614654565b94506040870135935060608701356001600160401b03808211156147c757600080fd5b6147d38a838b01614701565b945060808901359150808211156147e957600080fd5b6147f58a838b01614701565b935060a089013591508082111561480b57600080fd5b5061481889828a01614701565b9150509295509295509295565b6001600160e01b0319811681146117ba57600080fd5b60006020828403121561484d57600080fd5b8135613f9d81614825565b60006020828403121561486a57600080fd5b81356001600160401b0381111561488057600080fd5b612fbe84828501614701565b60006001600160401b038211156148a5576148a561469a565b5060051b60200190565b600082601f8301126148c057600080fd5b813560206148cd8261488c565b6040516148da82826146d5565b83815260059390931b85018201928281019150868411156148fa57600080fd5b8286015b8481101561491c5761490f81614654565b83529183019183016148fe565b509695505050505050565b60008060006060848603121561493c57600080fd5b83356001600160401b038082111561495357600080fd5b61495f878388016148af565b945060208601359350604086013591508082111561497c57600080fd5b5061498986828701614701565b9150509250925092565b6000602082840312156149a557600080fd5b5035919050565b60005b838110156149c75781810151838201526020016149af565b83811115613caa5750506000910152565b600081518084526149f08160208601602086016149ac565b601f01601f19169290920160200192915050565b602081526000613f9d60208301846149d8565b60008060008060808587031215614a2d57600080fd5b614a3685614654565b9350602085013592506040850135915060608501356001600160401b03811115614a5f57600080fd5b614a6b87828801614701565b91505092959194509250565b60008083601f840112614a8957600080fd5b5081356001600160401b03811115614aa057600080fd5b6020830191508360208285010111156141cf57600080fd5b600060e08284031215614aca57600080fd5b50919050565b600080600080600060808688031215614ae857600080fd5b85356001600160401b0380821115614aff57600080fd5b614b0b89838a01614a77565b90975095506020880135915080821115614b2457600080fd5b614b3089838a01614ab8565b94506040880135915080821115614b4657600080fd5b614b5289838a01614701565b93506060880135915080821115614b6857600080fd5b50614b7588828901614701565b9150509295509295909350565b600080600080600080600060e0888a031215614b9d57600080fd5b8735965060208801359550614bb460408901614654565b945060608801356001600160401b0380821115614bd057600080fd5b614bdc8b838c01614701565b955060808a0135915080821115614bf257600080fd5b614bfe8b838c01614701565b945060a08a0135915080821115614c1457600080fd5b614c208b838c01614701565b935060c08a0135915080821115614c3657600080fd5b50614c438a828b01614701565b91505092959891949750929550565b600082601f830112614c6357600080fd5b81356020614c708261488c565b604051614c7d82826146d5565b83815260059390931b8501820192828101915086841115614c9d57600080fd5b8286015b8481101561491c5780358352918301918301614ca1565b600080600080600060a08688031215614cd057600080fd5b614cd986614654565b9450614ce760208701614654565b935060408601356001600160401b0380821115614d0357600080fd5b614d0f89838a01614c52565b94506060880135915080821115614d2557600080fd5b614d3189838a01614c52565b93506080880135915080821115614b6857600080fd5b60008060408385031215614d5a57600080fd5b82359150614d6a60208401614654565b90509250929050565b600060208284031215614d8557600080fd5b613f9d82614654565b600080600080600080600060e0888a031215614da957600080fd5b614db288614654565b96506020880135955060408801359450606088013593506080880135925060a0880135915060c08801356001600160401b03811115614df057600080fd5b614c438a828b01614701565b60008060408385031215614e0f57600080fd5b82356001600160401b0380821115614e2657600080fd5b614e32868387016148af565b93506020850135915080821115614e4857600080fd5b50614e5585828601614c52565b9150509250929050565b600081518084526020808501945080840160005b83811015614e8f57815187529582019590820190600101614e73565b509495945050505050565b602081526000613f9d6020830184614e5f565b60008060408385031215614ec057600080fd5b614ec983614654565b915060208301356001600160401b03811115614ee457600080fd5b614e5585828601614701565b80356005811061466b57600080fd5b600080600060608486031215614f1457600080fd5b8335925060208401359150614f2b60408501614ef0565b90509250925092565b6001600160a01b03169052565b60018060a01b038716815285602082015284604082015260c060608201526000614f6e60c08301866149d8565b8281036080840152614f8081866149d8565b905082810360a08401526115ff81856149d8565b60a081526000614fa760a08301886149d8565b90508560208301528460408301528360608301528260808301529695505050505050565b60006020808385031215614fde57600080fd5b82356001600160401b0380821115614ff557600080fd5b818501915085601f83011261500957600080fd5b81356150148161488c565b6040805161502283826146d5565b83815260059390931b850186019286810192508984111561504257600080fd5b8686015b848110156150d95780358681111561505e5760008081fd5b870160a0818d03601f19018113156150765760008081fd5b8451615081816146b0565b8a830135898111156150935760008081fd5b6150a18f8d83870101614701565b825250828601358b82015260608084013587830152608080850135918301919091529190920135908201528452928701928701615046565b509998505050505050505050565b60ff60f81b8816815260e06020820152600061510660e08301896149d8565b828103604084015261511881896149d8565b606084018890526001600160a01b038716608085015260a0840186905283810360c085015290506151498185614e5f565b9a9950505050505050505050565b6000806000806080858703121561516d57600080fd5b84359350602085013592506040850135915060608501356001600160401b03811115614a5f57600080fd5b600080600080600060a086880312156151b057600080fd5b6151b986614654565b94506020860135935060408601356001600160401b03808211156151dc57600080fd5b6151e889838a01614701565b945060608801359150808211156151fe57600080fd5b614d3189838a01614701565b6000806040838503121561521d57600080fd5b61522683614654565b91506020830135801515811461523b57600080fd5b809150509250929050565b6001600160a01b0391909116815260200190565b600080600080600080600060c0888a03121561527557600080fd5b87356001600160401b038082111561528c57600080fd5b6152988b838c01614a77565b909950975060208a01359150808211156152b157600080fd5b6152bd8b838c01614ab8565b965060408a01359150808211156152d357600080fd5b6152df8b838c01614701565b955060608a01359150808211156152f557600080fd5b6153018b838c01614701565b945060808a013591508082111561531757600080fd5b6153238b838c01614701565b935060a08a0135915080821115614c3657600080fd5b6000806040838503121561534c57600080fd5b50508035926020909101359150565b600080600080600060a0868803121561537357600080fd5b61537c86614654565b945061538a60208701614654565b935060408601359250606086013591506153a660808701614ef0565b90509295509295909350565b600080600080606085870312156153c857600080fd5b84356001600160401b03808211156153df57600080fd5b6153eb88838901614a77565b9096509450602087013591508082111561540457600080fd5b61541088838901614ab8565b9350604087013591508082111561542657600080fd5b50614a6b87828801614701565b6000806040838503121561544657600080fd5b61544f83614654565b9150614d6a60208401614654565b600080600080600060a0868803121561547557600080fd5b61547e86614654565b945061548c60208701614654565b9350604086013592506060860135915060808601356001600160401b038111156154b557600080fd5b614b7588828901614701565b6020808252602e908201527f496e697469616c697a61626c653a20636f6e747261637420697320616c72656160408201526d191e481a5b9a5d1a585b1a5e995960921b606082015260800190565b6020808252600190820152603160f81b604082015260600190565b6020808252600190820152603960f81b604082015260600190565b634e487b7160e01b600052603260045260246000fd5b634e487b7160e01b600052601160045260246000fd5b600081600019048311821515161561558b5761558b61555b565b500290565b6000826155ad57634e487b7160e01b600052601260045260246000fd5b500490565b918252602082015260400190565b6000600182016155d2576155d261555b565b5060010190565b600181811c908216806155ed57607f821691505b602082108103614aca57634e487b7160e01b600052602260045260246000fd5b81835281816020850137506000828201602090810191909152601f909101601f19169091010190565b60408152600061564a60408301858761560d565b8281036020840152833581526020840135601e1985360301811261566d57600080fd5b840180356001600160401b0381111561568557600080fd5b80360386131561569457600080fd5b60e060208401526156ac60e08401826020850161560d565b9150506156bb60408601614654565b6156c86040840182614f34565b506156d560608601614654565b6156e26060840182614f34565b506080850135608083015260a085013560a083015260c085013560c08301528092505050949350505050565b6000808335601e1984360301811261572557600080fd5b8301803591506001600160401b0382111561573f57600080fd5b6020019150368190038213156141cf57600080fd5b8183823760009101908152919050565b600063ffffffff80831681810361577d5761577d61555b565b6001019392505050565b8381526060602082015260006157a060608301856149d8565b828103604084015261453881856149d8565b6020808252602e908201527f455243313135353a2063616c6c6572206973206e6f7420746f6b656e206f776e60408201526d195c881bdc88185c1c1c9bdd995960921b606082015260800190565b6020808252602c90820152600080516020615d2483398151915260408201526b19195b1959d85d1958d85b1b60a21b606082015260800190565b6020808252602c90820152600080516020615d2483398151915260408201526b6163746976652070726f787960a01b606082015260800190565b85815284602082015283604082015282606082015260a060808201526000613b1e60a08301846149d8565b6000828210156158b1576158b161555b565b500390565b634e487b7160e01b600052602160045260246000fd5b600082516158de8184602087016149ac565b9190910192915050565b84815283602082015282604082015260806060820152600061453860808301846149d8565b602080825260029082015261313160f01b604082015260600190565b6020808252602b908201527f496e697469616c697a61626c653a20636f6e7472616374206973206e6f74206960408201526a6e697469616c697a696e6760a81b606082015260800190565b60208082526025908201527f455243313135353a207472616e7366657220746f20746865207a65726f206164604082015264647265737360d81b606082015260800190565b6020808252602a908201527f455243313135353a20696e73756666696369656e742062616c616e636520666f60408201526939103a3930b739b332b960b11b606082015260800190565b60008219821115615a1657615a1661555b565b500190565b838152826020820152606060408201526000615a3a60608301846149d8565b95945050505050565b604081526000615a566040830185614e5f565b8281036020840152615a3a8185614e5f565b600060208284031215615a7a57600080fd5b5051919050565b76020b1b1b2b9b9a1b7b73a3937b61d1030b1b1b7bab73a1604d1b815260008351615ab38160178501602088016149ac565b7001034b99036b4b9b9b4b733903937b6329607d1b6017918401918201528351615ae48160288401602088016149ac565b01602801949350505050565b6020808252600190820152600360fc1b604082015260600190565b6001600160a01b03868116825285166020820152604081018490526060810183905260a060808201819052600090613b1e908301846149d8565b600060208284031215615b5757600080fd5b8151613f9d81614825565b600060033d1115611c325760046000803e5060005160e01c90565b600060443d1015615b8b5790565b6040516003193d81016004833e81513d6001600160401b038083116024840183101715615bba57505050505090565b8285019150815181811115615bd25750505050505090565b843d8701016020828501011115615bec5750505050505090565b615bfb602082860101876146d5565b509095945050505050565b60208082526028908201527f455243313135353a204552433131353552656365697665722072656a656374656040820152676420746f6b656e7360c01b606082015260800190565b6001600160a01b0386811682528516602082015260a060408201819052600090615c7a90830186614e5f565b8281036060840152615c8c8186614e5f565b90508281036080840152615ca081856149d8565b98975050505050505050565b600081615cbb57615cbb61555b565b50600019019056fec3d58168c5ae7397731d063d5bbf3d657854427343f4c083240f7aacaa2d0f6279da588818fa1bb747c46ac45fd0af16861a77c5222cf5ac4538360ca4f77a2cd5bbb2f0fbfc1d5938ca13cabd3156d362f7862fa87504c8d589f5e8f2cbc45346756e6374696f6e206d7573742062652063616c6c6564207468726f75676820bdde33eca765abe07e416fa5225f9a5dbc393366c8bbf45df689e69ee318a934189ab7a9244df0848122154315af71fe140f3db0fe014031783b0946b8c9d2e3360894a13ba1a3210667c828492db98dca3e2076cc3735a920a3ca505d382bbcf48dee1a72497b9e734e498e1b3086c0d2dbcca13f16f15848f974469f906bbf7804d923f43a17d325d77e781528e0793b2edd9890ab45fc64efd7b4b427744c7f26b83ff96e1f2b6a682f133852f6798a09c465da95921460cefb384740249865d7a28e3265b37a6474929f336521b332c1681b933f6cb9f3376673440d862a416464726573733a206c6f772d6c6576656c2064656c65676174652063616c6c206661696c656498db8a220cd0f09badce9f22d0ba7e93edb3d404448cc3560d391ab096ad16e94bbc247fc4736523c8bdd1853fee2acfa817d663f8f4422b13e78ebf99e204a2ddf79b8d2110dbe281cf3bb7762d508cea586c974794c8fc949d41b0db1145130ce23c3e399818cfee81a7ab0880f714e53d7672b08df0fa62f2843416e1ea09a2646970667358221220b8b1fc8a1d5289dde99414a3297f3d86abd37874945dd24fd590c084318c958964736f6c634300080d0033",
  "linkReferences": {},
  "deployedLinkReferences": {}
}