{
  "_format": "hh-sol-artifact-1",
  "contractName": "Project",
  "sourceName": "contracts/Project.sol",
  "abi": [
    {
      "inputs": [],
      "stateMutability": "nonpayable",
      "type": "constructor"
    },
    {
      "anonymous": false,
      "inputs": [
        {
          "indexed": true,
          "internalType": "address",
          "name": "from",
          "type": "address"
        },
        {
          "indexed": true,
          "internalType": "uint256",
          "name": "tokenId",
          "type": "uint256"
        },
        {
          "indexed": false,
          "internalType": "uint256",
          "name": "amount",
          "type": "uint256"
        },
        {
          "indexed": true,
          "internalType": "enum AdminActionReason",
          "name": "reason",
          "type": "uint8"
        }
      ],
      "name": "AdminBurn",
      "type": "event"
    },
    {
      "anonymous": false,
      "inputs": [
        {
          "indexed": false,
          "internalType": "address",
          "name": "previousAdmin",
          "type": "address"
        },
        {
          "indexed": false,
          "internalType": "address",
          "name": "newAdmin",
          "type": "address"
        }
      ],
      "name": "AdminChanged",
      "type": "event"
    },
    {
      "anonymous": false,
      "inputs": [
        {
          "indexed": true,
          "internalType": "address",
          "name": "from",
          "type": "address"
        },
        {
          "indexed": false,
          "internalType": "address",
          "name": "to",
          "type": "address"
        },
        {
          "indexed": true,
          "internalType": "uint256",
          "name": "tokenId",
          "type": "uint256"
        },
        {
          "indexed": false,
          "internalType": "uint256",
          "name": "amount",
          "type": "uint256"
        },
        {
          "indexed": true,
          "internalType": "enum AdminActionReason",
          "name": "reason",
          "type": "uint8"
        }
      ],
      "name": "AdminClawback",
      "type": "event"
    },
    {
      "anonymous": false,
      "inputs": [
        {
          "indexed": true,
          "internalType": "address",
          "name": "account",
          "type": "address"
        },
        {
          "indexed": true,
          "internalType": "address",
          "name": "operator",
          "type": "address"
        },
        {
          "indexed": false,
          "internalType": "bool",
          "name": "approved",
          "type": "bool"
        }
      ],
      "name": "ApprovalForAll",
      "type": "event"
    },
    {
      "anonymous": false,
      "inputs": [
        {
          "indexed": true,
          "internalType": "address",
          "name": "beacon",
          "type": "address"
        }
      ],
      "name": "BeaconUpgraded",
      "type": "event"
    },
    {
      "anonymous": false,
      "inputs": [
        {
          "indexed": true,
          "internalType": "address",
          "name": "account",
          "type": "address"
        },
        {
          "indexed": true,
          "internalType": "uint256",
          "name": "tokenId",
          "type": "uint256"
        },
        {
          "indexed": false,
          "internalType": "uint256",
          "name": "amount",
          "type": "uint256"
        },
        {
          "indexed": false,
          "internalType": "string",
          "name": "reason",
          "type": "string"
        },
        {
          "indexed": false,
          "internalType": "bytes",
          "name": "data",
          "type": "bytes"
        }
      ],
      "name": "CancelledCredits",
      "type": "event"
    },
    {
      "anonymous": false,
      "inputs": [],
      "name": "EIP712DomainChanged",
      "type": "event"
    },
    {
      "anonymous": false,
      "inputs": [
        {
          "indexed": true,
          "internalType": "uint256",
          "name": "exAnteTokenId",
          "type": "uint256"
        },
        {
          "indexed": true,
          "internalType": "uint256",
          "name": "exPostTokenId",
          "type": "uint256"
        },
        {
          "indexed": true,
          "internalType": "address",
          "name": "account",
          "type": "address"
        },
        {
          "indexed": false,
          "internalType": "uint256",
          "name": "amount",
          "type": "uint256"
        }
      ],
      "name": "ExAnteMinted",
      "type": "event"
    },
    {
      "anonymous": false,
      "inputs": [
        {
          "indexed": true,
          "internalType": "uint256",
          "name": "tokenId",
          "type": "uint256"
        },
        {
          "indexed": false,
          "internalType": "uint256",
          "name": "estimatedAmount",
          "type": "uint256"
        },
        {
          "indexed": false,
          "internalType": "uint256",
          "name": "verificationPeriodStart",
          "type": "uint256"
        },
        {
          "indexed": false,
          "internalType": "uint256",
          "name": "verificationPeriodEnd",
          "type": "uint256"
        },
        {
          "indexed": false,
          "internalType": "string",
          "name": "serialization",
          "type": "string"
        }
      ],
      "name": "ExPostCreated",
      "type": "event"
    },
    {
      "anonymous": false,
      "inputs": [
        {
          "indexed": true,
          "internalType": "uint256",
          "name": "tokenId",
          "type": "uint256"
        },
        {
          "indexed": false,
          "internalType": "uint256",
          "name": "amount",
          "type": "uint256"
        },
        {
          "indexed": false,
          "internalType": "uint256",
          "name": "amountToAnteHolders",
          "type": "uint256"
        },
        {
          "indexed": false,
          "internalType": "uint256",
          "name": "verificationPeriodStart",
          "type": "uint256"
        },
        {
          "indexed": false,
          "internalType": "uint256",
          "name": "verificationPeriodEnd",
          "type": "uint256"
        },
        {
          "indexed": false,
          "internalType": "string",
          "name": "monitoringReport",
          "type": "string"
        }
      ],
      "name": "ExPostVerifiedAndMinted",
      "type": "event"
    },
    {
      "anonymous": false,
      "inputs": [
        {
          "indexed": true,
          "internalType": "address",
          "name": "account",
          "type": "address"
        },
        {
          "indexed": true,
          "internalType": "uint256",
          "name": "exPostTokenId",
          "type": "uint256"
        },
        {
          "indexed": false,
          "internalType": "uint256",
          "name": "exPostAmountReceived",
          "type": "uint256"
        },
        {
          "indexed": false,
          "internalType": "uint256",
          "name": "exAnteAmountBurned",
          "type": "uint256"
        }
      ],
      "name": "ExchangeAnteForPost",
      "type": "event"
    },
    {
      "anonymous": false,
      "inputs": [
        {
          "indexed": false,
          "internalType": "uint8",
          "name": "version",
          "type": "uint8"
        }
      ],
      "name": "Initialized",
      "type": "event"
    },
    {
      "anonymous": false,
      "inputs": [
        {
          "indexed": false,
          "internalType": "address",
          "name": "account",
          "type": "address"
        }
      ],
      "name": "Paused",
      "type": "event"
    },
    {
      "anonymous": false,
      "inputs": [
        {
          "indexed": true,
          "internalType": "address",
          "name": "account",
          "type": "address"
        },
        {
          "indexed": true,
          "internalType": "uint256",
          "name": "tokenId",
          "type": "uint256"
        },
        {
          "indexed": false,
          "internalType": "uint256",
          "name": "amount",
          "type": "uint256"
        },
        {
          "indexed": false,
          "internalType": "uint256",
          "name": "nftTokenId",
          "type": "uint256"
        },
        {
          "indexed": false,
          "internalType": "bytes",
          "name": "data",
          "type": "bytes"
        }
      ],
      "name": "RetiredVintage",
      "type": "event"
    },
    {
      "anonymous": false,
      "inputs": [
        {
          "indexed": true,
          "internalType": "bytes32",
          "name": "role",
          "type": "bytes32"
        },
        {
          "indexed": true,
          "internalType": "bytes32",
          "name": "previousAdminRole",
          "type": "bytes32"
        },
        {
          "indexed": true,
          "internalType": "bytes32",
          "name": "newAdminRole",
          "type": "bytes32"
        }
      ],
      "name": "RoleAdminChanged",
      "type": "event"
    },
    {
      "anonymous": false,
      "inputs": [
        {
          "indexed": true,
          "internalType": "bytes32",
          "name": "role",
          "type": "bytes32"
        },
        {
          "indexed": true,
          "internalType": "address",
          "name": "account",
          "type": "address"
        },
        {
          "indexed": true,
          "internalType": "address",
          "name": "sender",
          "type": "address"
        }
      ],
      "name": "RoleGranted",
      "type": "event"
    },
    {
      "anonymous": false,
      "inputs": [
        {
          "indexed": true,
          "internalType": "bytes32",
          "name": "role",
          "type": "bytes32"
        },
        {
          "indexed": true,
          "internalType": "address",
          "name": "account",
          "type": "address"
        },
        {
          "indexed": true,
          "internalType": "address",
          "name": "sender",
          "type": "address"
        }
      ],
      "name": "RoleRevoked",
      "type": "event"
    },
    {
      "anonymous": false,
      "inputs": [
        {
          "indexed": true,
          "internalType": "address",
          "name": "operator",
          "type": "address"
        },
        {
          "indexed": true,
          "internalType": "address",
          "name": "from",
          "type": "address"
        },
        {
          "indexed": true,
          "internalType": "address",
          "name": "to",
          "type": "address"
        },
        {
          "indexed": false,
          "internalType": "uint256[]",
          "name": "ids",
          "type": "uint256[]"
        },
        {
          "indexed": false,
          "internalType": "uint256[]",
          "name": "values",
          "type": "uint256[]"
        }
      ],
      "name": "TransferBatch",
      "type": "event"
    },
    {
      "anonymous": false,
      "inputs": [
        {
          "indexed": false,
          "internalType": "bytes",
          "name": "signature",
          "type": "bytes"
        },
        {
          "components": [
            {
              "internalType": "uint256",
              "name": "deadline",
              "type": "uint256"
            },
            {
              "internalType": "string",
              "name": "description",
              "type": "string"
            },
            {
              "internalType": "address",
              "name": "signer",
              "type": "address"
            },
            {
              "internalType": "address",
              "name": "to",
              "type": "address"
            },
            {
              "internalType": "uint256",
              "name": "tokenId",
              "type": "uint256"
            },
            {
              "internalType": "uint256",
              "name": "amount",
              "type": "uint256"
            },
            {
              "internalType": "uint256",
              "name": "nonce",
              "type": "uint256"
            }
          ],
          "indexed": false,
          "internalType": "struct signatureTransferPayload",
          "name": "payload",
          "type": "tuple"
        }
      ],
      "name": "TransferSignatureValid",
      "type": "event"
    },
    {
      "anonymous": false,
      "inputs": [
        {
          "indexed": true,
          "internalType": "address",
          "name": "operator",
          "type": "address"
        },
        {
          "indexed": true,
          "internalType": "address",
          "name": "from",
          "type": "address"
        },
        {
          "indexed": true,
          "internalType": "address",
          "name": "to",
          "type": "address"
        },
        {
          "indexed": false,
          "internalType": "uint256",
          "name": "id",
          "type": "uint256"
        },
        {
          "indexed": false,
          "internalType": "uint256",
          "name": "value",
          "type": "uint256"
        }
      ],
      "name": "TransferSingle",
      "type": "event"
    },
    {
      "anonymous": false,
      "inputs": [
        {
          "indexed": false,
          "internalType": "string",
          "name": "value",
          "type": "string"
        },
        {
          "indexed": true,
          "internalType": "uint256",
          "name": "id",
          "type": "uint256"
        }
      ],
      "name": "URI",
      "type": "event"
    },
    {
      "anonymous": false,
      "inputs": [
        {
          "indexed": false,
          "internalType": "address",
          "name": "account",
          "type": "address"
        }
      ],
      "name": "Unpaused",
      "type": "event"
    },
    {
      "anonymous": false,
      "inputs": [
        {
          "indexed": true,
          "internalType": "address",
          "name": "implementation",
          "type": "address"
        }
      ],
      "name": "Upgraded",
      "type": "event"
    },
    {
      "anonymous": false,
      "inputs": [
        {
          "indexed": true,
          "internalType": "uint256",
          "name": "tokenId",
          "type": "uint256"
        },
        {
          "indexed": false,
          "internalType": "uint256",
          "name": "newEstimate",
          "type": "uint256"
        },
        {
          "indexed": false,
          "internalType": "uint256",
          "name": "oldEstimate",
          "type": "uint256"
        },
        {
          "indexed": true,
          "internalType": "enum AdminActionReason",
          "name": "reason",
          "type": "uint8"
        }
      ],
      "name": "VintageMitigationEstimateChanged",
      "type": "event"
    },
    {
      "inputs": [],
      "name": "ANTE_MINTER_ROLE",
      "outputs": [
        {
          "internalType": "bytes32",
          "name": "",
          "type": "bytes32"
        }
      ],
      "stateMutability": "view",
      "type": "function"
    },
    {
      "inputs": [],
      "name": "BLACKLISTED",
      "outputs": [
        {
          "internalType": "bytes32",
          "name": "",
          "type": "bytes32"
        }
      ],
      "stateMutability": "view",
      "type": "function"
    },
    {
      "inputs": [],
      "name": "BLACKLISTER_ROLE",
      "outputs": [
        {
          "internalType": "bytes32",
          "name": "",
          "type": "bytes32"
        }
      ],
      "stateMutability": "view",
      "type": "function"
    },
    {
      "inputs": [],
      "name": "BURNER_ROLE",
      "outputs": [
        {
          "internalType": "bytes32",
          "name": "",
          "type": "bytes32"
        }
      ],
      "stateMutability": "view",
      "type": "function"
    },
    {
      "inputs": [],
      "name": "CLAWBACK_ROLE",
      "outputs": [
        {
          "internalType": "bytes32",
          "name": "",
          "type": "bytes32"
        }
      ],
      "stateMutability": "view",
      "type": "function"
    },
    {
      "inputs": [],
      "name": "DEFAULT_ADMIN_ROLE",
      "outputs": [
        {
          "internalType": "bytes32",
          "name": "",
          "type": "bytes32"
        }
      ],
      "stateMutability": "view",
      "type": "function"
    },
    {
      "inputs": [],
      "name": "MINTER_ROLE",
      "outputs": [
        {
          "internalType": "bytes32",
          "name": "",
          "type": "bytes32"
        }
      ],
      "stateMutability": "view",
      "type": "function"
    },
    {
      "inputs": [],
      "name": "PAUSER_ROLE",
      "outputs": [
        {
          "internalType": "bytes32",
          "name": "",
          "type": "bytes32"
        }
      ],
      "stateMutability": "view",
      "type": "function"
    },
    {
      "inputs": [],
      "name": "POST_MINTER_ROLE",
      "outputs": [
        {
          "internalType": "bytes32",
          "name": "",
          "type": "bytes32"
        }
      ],
      "stateMutability": "view",
      "type": "function"
    },
    {
      "inputs": [],
      "name": "UPGRADER_ROLE",
      "outputs": [
        {
          "internalType": "bytes32",
          "name": "",
          "type": "bytes32"
        }
      ],
      "stateMutability": "view",
      "type": "function"
    },
    {
      "inputs": [],
      "name": "URI_SETTER_ROLE",
      "outputs": [
        {
          "internalType": "bytes32",
          "name": "",
          "type": "bytes32"
        }
      ],
      "stateMutability": "view",
      "type": "function"
    },
    {
      "inputs": [],
      "name": "VERIFIER_ROLE",
      "outputs": [
        {
          "internalType": "bytes32",
          "name": "",
          "type": "bytes32"
        }
      ],
      "stateMutability": "view",
      "type": "function"
    },
    {
      "inputs": [
        {
          "internalType": "address",
          "name": "_contractRegistry",
          "type": "address"
        },
        {
          "internalType": "uint8",
          "name": "_maxAntePerc",
          "type": "uint8"
        },
        {
          "internalType": "uint256",
          "name": "_projectId",
          "type": "uint256"
        },
        {
          "internalType": "string",
          "name": "_projectName",
          "type": "string"
        },
        {
          "internalType": "string",
          "name": "_projectUri",
          "type": "string"
        },
        {
          "internalType": "string",
          "name": "_methodology",
          "type": "string"
        }
      ],
      "name": "__ProjectStorage_init",
      "outputs": [],
      "stateMutability": "nonpayable",
      "type": "function"
    },
    {
      "inputs": [
        {
          "internalType": "address",
          "name": "from",
          "type": "address"
        },
        {
          "internalType": "address",
          "name": "to",
          "type": "address"
        },
        {
          "internalType": "uint256",
          "name": "tokenId",
          "type": "uint256"
        },
        {
          "internalType": "uint256",
          "name": "amount",
          "type": "uint256"
        },
        {
          "internalType": "enum AdminActionReason",
          "name": "reason",
          "type": "uint8"
        }
      ],
      "name": "adminClawback",
      "outputs": [],
      "stateMutability": "nonpayable",
      "type": "function"
    },
    {
      "inputs": [
        {
          "internalType": "address",
          "name": "account",
          "type": "address"
        },
        {
          "internalType": "uint256",
          "name": "id",
          "type": "uint256"
        }
      ],
      "name": "balanceOf",
      "outputs": [
        {
          "internalType": "uint256",
          "name": "",
          "type": "uint256"
        }
      ],
      "stateMutability": "view",
      "type": "function"
    },
    {
      "inputs": [
        {
          "internalType": "address[]",
          "name": "accounts",
          "type": "address[]"
        },
        {
          "internalType": "uint256[]",
          "name": "ids",
          "type": "uint256[]"
        }
      ],
      "name": "balanceOfBatch",
      "outputs": [
        {
          "internalType": "uint256[]",
          "name": "",
          "type": "uint256[]"
        }
      ],
      "stateMutability": "view",
      "type": "function"
    },
    {
      "inputs": [
        {
          "internalType": "bytes",
          "name": "signature",
          "type": "bytes"
        },
        {
          "components": [
            {
              "internalType": "uint256",
              "name": "deadline",
              "type": "uint256"
            },
            {
              "internalType": "string",
              "name": "description",
              "type": "string"
            },
            {
              "internalType": "address",
              "name": "signer",
              "type": "address"
            },
            {
              "internalType": "address",
              "name": "to",
              "type": "address"
            },
            {
              "internalType": "uint256",
              "name": "tokenId",
              "type": "uint256"
            },
            {
              "internalType": "uint256",
              "name": "amount",
              "type": "uint256"
            },
            {
              "internalType": "uint256",
              "name": "nonce",
              "type": "uint256"
            }
          ],
          "internalType": "struct signatureTransferPayload",
          "name": "payload",
          "type": "tuple"
        },
        {
          "internalType": "string",
          "name": "comment",
          "type": "string"
        },
        {
          "internalType": "bytes",
          "name": "data",
          "type": "bytes"
        }
      ],
      "name": "cancelCreditsFromSignature",
      "outputs": [],
      "stateMutability": "nonpayable",
      "type": "function"
    },
    {
      "inputs": [
        {
          "internalType": "uint256",
          "name": "tokenId",
          "type": "uint256"
        },
        {
          "internalType": "uint256",
          "name": "newEstAmount",
          "type": "uint256"
        },
        {
          "internalType": "enum AdminActionReason",
          "name": "reason",
          "type": "uint8"
        }
      ],
      "name": "changeVintageMitigationEstimate",
      "outputs": [],
      "stateMutability": "nonpayable",
      "type": "function"
    },
    {
      "inputs": [],
      "name": "contractRegistry",
      "outputs": [
        {
          "internalType": "address",
          "name": "",
          "type": "address"
        }
      ],
      "stateMutability": "view",
      "type": "function"
    },
    {
      "inputs": [
        {
          "internalType": "uint256",
          "name": "estAmount",
          "type": "uint256"
        },
        {
          "internalType": "uint256",
          "name": "verificationPeriodStart",
          "type": "uint256"
        },
        {
          "internalType": "uint256",
          "name": "verificationPeriodEnd",
          "type": "uint256"
        },
        {
          "internalType": "string",
          "name": "serialization",
          "type": "string"
        }
      ],
      "name": "createExPostVintage",
      "outputs": [],
      "stateMutability": "nonpayable",
      "type": "function"
    },
    {
      "inputs": [
        {
          "components": [
            {
              "internalType": "string",
              "name": "serialization",
              "type": "string"
            },
            {
              "internalType": "uint256",
              "name": "estMitigations",
              "type": "uint256"
            },
            {
              "internalType": "uint256",
              "name": "verificationPeriodStart",
              "type": "uint256"
            },
            {
              "internalType": "uint256",
              "name": "verificationPeriodEnd",
              "type": "uint256"
            },
            {
              "internalType": "uint256",
              "name": "lastVerificationTimestamp",
              "type": "uint256"
            }
          ],
          "internalType": "struct VintageData[]",
          "name": "vintages",
          "type": "tuple[]"
        }
      ],
      "name": "createExPostVintageBatch",
      "outputs": [],
      "stateMutability": "nonpayable",
      "type": "function"
    },
    {
      "inputs": [],
      "name": "eip712Domain",
      "outputs": [
        {
          "internalType": "bytes1",
          "name": "fields",
          "type": "bytes1"
        },
        {
          "internalType": "string",
          "name": "name",
          "type": "string"
        },
        {
          "internalType": "string",
          "name": "version",
          "type": "string"
        },
        {
          "internalType": "uint256",
          "name": "chainId",
          "type": "uint256"
        },
        {
          "internalType": "address",
          "name": "verifyingContract",
          "type": "address"
        },
        {
          "internalType": "bytes32",
          "name": "salt",
          "type": "bytes32"
        },
        {
          "internalType": "uint256[]",
          "name": "extensions",
          "type": "uint256[]"
        }
      ],
      "stateMutability": "view",
      "type": "function"
    },
    {
      "inputs": [
        {
          "internalType": "uint256",
          "name": "",
          "type": "uint256"
        }
      ],
      "name": "exAnteToExPostTokenId",
      "outputs": [
        {
          "internalType": "uint256",
          "name": "",
          "type": "uint256"
        }
      ],
      "stateMutability": "view",
      "type": "function"
    },
    {
      "inputs": [
        {
          "internalType": "uint256",
          "name": "",
          "type": "uint256"
        }
      ],
      "name": "exPostToExAnteTokenId",
      "outputs": [
        {
          "internalType": "uint256",
          "name": "",
          "type": "uint256"
        }
      ],
      "stateMutability": "view",
      "type": "function"
    },
    {
      "inputs": [
        {
          "internalType": "uint256",
          "name": "",
          "type": "uint256"
        }
      ],
      "name": "exPostVintageMapping",
      "outputs": [
        {
          "internalType": "string",
          "name": "serialization",
          "type": "string"
        },
        {
          "internalType": "uint256",
          "name": "estMitigations",
          "type": "uint256"
        },
        {
          "internalType": "uint256",
          "name": "verificationPeriodStart",
          "type": "uint256"
        },
        {
          "internalType": "uint256",
          "name": "verificationPeriodEnd",
          "type": "uint256"
        },
        {
          "internalType": "uint256",
          "name": "lastVerificationTimestamp",
          "type": "uint256"
        }
      ],
      "stateMutability": "view",
      "type": "function"
    },
    {
      "inputs": [
        {
          "internalType": "address[]",
          "name": "accounts",
          "type": "address[]"
        },
        {
          "internalType": "uint256",
          "name": "exPostTokenId",
          "type": "uint256"
        },
        {
          "internalType": "bytes",
          "name": "data",
          "type": "bytes"
        }
      ],
      "name": "exchangeAnteForPostEvenSteven",
      "outputs": [],
      "stateMutability": "nonpayable",
      "type": "function"
    },
    {
      "inputs": [
        {
          "internalType": "uint256",
          "name": "id",
          "type": "uint256"
        }
      ],
      "name": "exists",
      "outputs": [
        {
          "internalType": "bool",
          "name": "",
          "type": "bool"
        }
      ],
      "stateMutability": "view",
      "type": "function"
    },
    {
      "inputs": [
        {
          "internalType": "bytes32",
          "name": "role",
          "type": "bytes32"
        }
      ],
      "name": "getRoleAdmin",
      "outputs": [
        {
          "internalType": "bytes32",
          "name": "",
          "type": "bytes32"
        }
      ],
      "stateMutability": "view",
      "type": "function"
    },
    {
      "inputs": [
        {
          "internalType": "bytes32",
          "name": "role",
          "type": "bytes32"
        },
        {
          "internalType": "address",
          "name": "account",
          "type": "address"
        }
      ],
      "name": "grantRole",
      "outputs": [],
      "stateMutability": "nonpayable",
      "type": "function"
    },
    {
      "inputs": [
        {
          "internalType": "bytes32",
          "name": "role",
          "type": "bytes32"
        },
        {
          "internalType": "address",
          "name": "account",
          "type": "address"
        }
      ],
      "name": "hasRole",
      "outputs": [
        {
          "internalType": "bool",
          "name": "",
          "type": "bool"
        }
      ],
      "stateMutability": "view",
      "type": "function"
    },
    {
      "inputs": [
        {
          "internalType": "address",
          "name": "_contractRegistry",
          "type": "address"
        },
        {
          "internalType": "address",
          "name": "_owner",
          "type": "address"
        },
        {
          "internalType": "uint256",
          "name": "_projectId",
          "type": "uint256"
        },
        {
          "internalType": "string",
          "name": "_projectName",
          "type": "string"
        },
        {
          "internalType": "string",
          "name": "_projectMethodology",
          "type": "string"
        },
        {
          "internalType": "string",
          "name": "_projectUri",
          "type": "string"
        }
      ],
      "name": "initialize",
      "outputs": [],
      "stateMutability": "nonpayable",
      "type": "function"
    },
    {
      "inputs": [
        {
          "internalType": "address",
          "name": "account",
          "type": "address"
        },
        {
          "internalType": "address",
          "name": "operator",
          "type": "address"
        }
      ],
      "name": "isApprovedForAll",
      "outputs": [
        {
          "internalType": "bool",
          "name": "",
          "type": "bool"
        }
      ],
      "stateMutability": "view",
      "type": "function"
    },
    {
      "inputs": [
        {
          "internalType": "uint256",
          "name": "tokenId",
          "type": "uint256"
        }
      ],
      "name": "isExPostToken",
      "outputs": [
        {
          "internalType": "bool",
          "name": "",
          "type": "bool"
        }
      ],
      "stateMutability": "view",
      "type": "function"
    },
    {
      "inputs": [],
      "name": "maxAntePercentage",
      "outputs": [
        {
          "internalType": "uint8",
          "name": "",
          "type": "uint8"
        }
      ],
      "stateMutability": "view",
      "type": "function"
    },
    {
      "inputs": [],
      "name": "methodology",
      "outputs": [
        {
          "internalType": "string",
          "name": "",
          "type": "string"
        }
      ],
      "stateMutability": "view",
      "type": "function"
    },
    {
      "inputs": [
        {
          "internalType": "address",
          "name": "account",
          "type": "address"
        },
        {
          "internalType": "uint256",
          "name": "exPostTokenId",
          "type": "uint256"
        },
        {
          "internalType": "uint256",
          "name": "amount",
          "type": "uint256"
        },
        {
          "internalType": "bytes",
          "name": "data",
          "type": "bytes"
        }
      ],
      "name": "mintExAnte",
      "outputs": [],
      "stateMutability": "nonpayable",
      "type": "function"
    },
    {
      "inputs": [
        {
          "internalType": "address",
          "name": "",
          "type": "address"
        },
        {
          "internalType": "address",
          "name": "",
          "type": "address"
        },
        {
          "internalType": "uint256[]",
          "name": "",
          "type": "uint256[]"
        },
        {
          "internalType": "uint256[]",
          "name": "",
          "type": "uint256[]"
        },
        {
          "internalType": "bytes",
          "name": "",
          "type": "bytes"
        }
      ],
      "name": "onERC1155BatchReceived",
      "outputs": [
        {
          "internalType": "bytes4",
          "name": "",
          "type": "bytes4"
        }
      ],
      "stateMutability": "nonpayable",
      "type": "function"
    },
    {
      "inputs": [
        {
          "internalType": "address",
          "name": "",
          "type": "address"
        },
        {
          "internalType": "address",
          "name": "",
          "type": "address"
        },
        {
          "internalType": "uint256",
          "name": "",
          "type": "uint256"
        },
        {
          "internalType": "uint256",
          "name": "",
          "type": "uint256"
        },
        {
          "internalType": "bytes",
          "name": "",
          "type": "bytes"
        }
      ],
      "name": "onERC1155Received",
      "outputs": [
        {
          "internalType": "bytes4",
          "name": "",
          "type": "bytes4"
        }
      ],
      "stateMutability": "nonpayable",
      "type": "function"
    },
    {
      "inputs": [],
      "name": "pause",
      "outputs": [],
      "stateMutability": "nonpayable",
      "type": "function"
    },
    {
      "inputs": [],
      "name": "paused",
      "outputs": [
        {
          "internalType": "bool",
          "name": "",
          "type": "bool"
        }
      ],
      "stateMutability": "view",
      "type": "function"
    },
    {
      "inputs": [],
      "name": "projectId",
      "outputs": [
        {
          "internalType": "uint256",
          "name": "",
          "type": "uint256"
        }
      ],
      "stateMutability": "view",
      "type": "function"
    },
    {
      "inputs": [],
      "name": "projectName",
      "outputs": [
        {
          "internalType": "string",
          "name": "",
          "type": "string"
        }
      ],
      "stateMutability": "view",
      "type": "function"
    },
    {
      "inputs": [],
      "name": "projectUri",
      "outputs": [
        {
          "internalType": "string",
          "name": "",
          "type": "string"
        }
      ],
      "stateMutability": "view",
      "type": "function"
    },
    {
      "inputs": [],
      "name": "proxiableUUID",
      "outputs": [
        {
          "internalType": "bytes32",
          "name": "",
          "type": "bytes32"
        }
      ],
      "stateMutability": "view",
      "type": "function"
    },
    {
      "inputs": [
        {
          "internalType": "bytes32",
          "name": "role",
          "type": "bytes32"
        },
        {
          "internalType": "address",
          "name": "account",
          "type": "address"
        }
      ],
      "name": "renounceRole",
      "outputs": [],
      "stateMutability": "nonpayable",
      "type": "function"
    },
    {
      "inputs": [
        {
          "internalType": "uint256",
          "name": "tokenId",
          "type": "uint256"
        },
        {
          "internalType": "uint256",
          "name": "amount",
          "type": "uint256"
        },
        {
          "internalType": "address",
          "name": "beneficiary",
          "type": "address"
        },
        {
          "internalType": "string",
          "name": "retireeName",
          "type": "string"
        },
        {
          "internalType": "string",
          "name": "customUri",
          "type": "string"
        },
        {
          "internalType": "string",
          "name": "comment",
          "type": "string"
        },
        {
          "internalType": "bytes",
          "name": "data",
          "type": "bytes"
        }
      ],
      "name": "retire",
      "outputs": [
        {
          "internalType": "uint256",
          "name": "nftTokenId",
          "type": "uint256"
        }
      ],
      "stateMutability": "nonpayable",
      "type": "function"
    },
    {
      "inputs": [
        {
          "internalType": "bytes",
          "name": "signature",
          "type": "bytes"
        },
        {
          "components": [
            {
              "internalType": "uint256",
              "name": "deadline",
              "type": "uint256"
            },
            {
              "internalType": "string",
              "name": "description",
              "type": "string"
            },
            {
              "internalType": "address",
              "name": "signer",
              "type": "address"
            },
            {
              "internalType": "address",
              "name": "to",
              "type": "address"
            },
            {
              "internalType": "uint256",
              "name": "tokenId",
              "type": "uint256"
            },
            {
              "internalType": "uint256",
              "name": "amount",
              "type": "uint256"
            },
            {
              "internalType": "uint256",
              "name": "nonce",
              "type": "uint256"
            }
          ],
          "internalType": "struct signatureTransferPayload",
          "name": "payload",
          "type": "tuple"
        },
        {
          "internalType": "string",
          "name": "retireeName",
          "type": "string"
        },
        {
          "internalType": "string",
          "name": "customUri",
          "type": "string"
        },
        {
          "internalType": "string",
          "name": "comment",
          "type": "string"
        },
        {
          "internalType": "bytes",
          "name": "data",
          "type": "bytes"
        }
      ],
      "name": "retireFromSignature",
      "outputs": [
        {
          "internalType": "uint256",
          "name": "nftTokenId",
          "type": "uint256"
        }
      ],
      "stateMutability": "nonpayable",
      "type": "function"
    },
    {
      "inputs": [
        {
          "internalType": "uint256",
          "name": "",
          "type": "uint256"
        }
      ],
      "name": "retirementMapping",
      "outputs": [
        {
          "internalType": "address",
          "name": "retiree",
          "type": "address"
        },
        {
          "internalType": "uint256",
          "name": "amount",
          "type": "uint256"
        },
        {
          "internalType": "uint256",
          "name": "vintageTokenId",
          "type": "uint256"
        },
        {
          "internalType": "string",
          "name": "retireeName",
          "type": "string"
        },
        {
          "internalType": "string",
          "name": "customUri",
          "type": "string"
        },
        {
          "internalType": "string",
          "name": "comment",
          "type": "string"
        }
      ],
      "stateMutability": "view",
      "type": "function"
    },
    {
      "inputs": [
        {
          "internalType": "bytes32",
          "name": "role",
          "type": "bytes32"
        },
        {
          "internalType": "address",
          "name": "account",
          "type": "address"
        }
      ],
      "name": "revokeRole",
      "outputs": [],
      "stateMutability": "nonpayable",
      "type": "function"
    },
    {
      "inputs": [
        {
          "internalType": "address",
          "name": "from",
          "type": "address"
        },
        {
          "internalType": "address",
          "name": "to",
          "type": "address"
        },
        {
          "internalType": "uint256[]",
          "name": "ids",
          "type": "uint256[]"
        },
        {
          "internalType": "uint256[]",
          "name": "amounts",
          "type": "uint256[]"
        },
        {
          "internalType": "bytes",
          "name": "data",
          "type": "bytes"
        }
      ],
      "name": "safeBatchTransferFrom",
      "outputs": [],
      "stateMutability": "nonpayable",
      "type": "function"
    },
    {
      "inputs": [
        {
          "internalType": "address",
          "name": "from",
          "type": "address"
        },
        {
          "internalType": "address",
          "name": "to",
          "type": "address"
        },
        {
          "internalType": "uint256",
          "name": "id",
          "type": "uint256"
        },
        {
          "internalType": "uint256",
          "name": "amount",
          "type": "uint256"
        },
        {
          "internalType": "bytes",
          "name": "data",
          "type": "bytes"
        }
      ],
      "name": "safeTransferFrom",
      "outputs": [],
      "stateMutability": "nonpayable",
      "type": "function"
    },
    {
      "inputs": [
        {
          "internalType": "string",
          "name": "",
          "type": "string"
        }
      ],
      "name": "serializationToExPostTokenIdMapping",
      "outputs": [
        {
          "internalType": "uint256",
          "name": "",
          "type": "uint256"
        }
      ],
      "stateMutability": "view",
      "type": "function"
    },
    {
      "inputs": [
        {
          "internalType": "address",
          "name": "operator",
          "type": "address"
        },
        {
          "internalType": "bool",
          "name": "approved",
          "type": "bool"
        }
      ],
      "name": "setApprovalForAll",
      "outputs": [],
      "stateMutability": "nonpayable",
      "type": "function"
    },
    {
      "inputs": [
        {
          "internalType": "string",
          "name": "newuri",
          "type": "string"
        }
      ],
      "name": "setURI",
      "outputs": [],
      "stateMutability": "nonpayable",
      "type": "function"
    },
    {
      "inputs": [
        {
          "internalType": "address",
          "name": "",
          "type": "address"
        }
      ],
      "name": "signatureNonces",
      "outputs": [
        {
          "internalType": "uint32",
          "name": "",
          "type": "uint32"
        }
      ],
      "stateMutability": "view",
      "type": "function"
    },
    {
      "inputs": [
        {
          "internalType": "bytes4",
          "name": "interfaceId",
          "type": "bytes4"
        }
      ],
      "name": "supportsInterface",
      "outputs": [
        {
          "internalType": "bool",
          "name": "",
          "type": "bool"
        }
      ],
      "stateMutability": "view",
      "type": "function"
    },
    {
      "inputs": [],
      "name": "testUpgrade",
      "outputs": [
        {
          "internalType": "string",
          "name": "",
          "type": "string"
        }
      ],
      "stateMutability": "pure",
      "type": "function"
    },
    {
      "inputs": [],
      "name": "topTokenId",
      "outputs": [
        {
          "internalType": "uint256",
          "name": "",
          "type": "uint256"
        }
      ],
      "stateMutability": "view",
      "type": "function"
    },
    {
      "inputs": [
        {
          "internalType": "uint256",
          "name": "id",
          "type": "uint256"
        }
      ],
      "name": "totalSupply",
      "outputs": [
        {
          "internalType": "uint256",
          "name": "",
          "type": "uint256"
        }
      ],
      "stateMutability": "view",
      "type": "function"
    },
    {
      "inputs": [
        {
          "internalType": "bytes",
          "name": "signature",
          "type": "bytes"
        },
        {
          "components": [
            {
              "internalType": "uint256",
              "name": "deadline",
              "type": "uint256"
            },
            {
              "internalType": "string",
              "name": "description",
              "type": "string"
            },
            {
              "internalType": "address",
              "name": "signer",
              "type": "address"
            },
            {
              "internalType": "address",
              "name": "to",
              "type": "address"
            },
            {
              "internalType": "uint256",
              "name": "tokenId",
              "type": "uint256"
            },
            {
              "internalType": "uint256",
              "name": "amount",
              "type": "uint256"
            },
            {
              "internalType": "uint256",
              "name": "nonce",
              "type": "uint256"
            }
          ],
          "internalType": "struct signatureTransferPayload",
          "name": "payload",
          "type": "tuple"
        },
        {
          "internalType": "bytes",
          "name": "data",
          "type": "bytes"
        }
      ],
      "name": "transferFromSignature",
      "outputs": [],
      "stateMutability": "payable",
      "type": "function"
    },
    {
      "inputs": [],
      "name": "unpause",
      "outputs": [],
      "stateMutability": "nonpayable",
      "type": "function"
    },
    {
      "inputs": [
        {
          "internalType": "uint8",
          "name": "newMaxAntePercentage",
          "type": "uint8"
        }
      ],
      "name": "updateMaxAntePercentage",
      "outputs": [],
      "stateMutability": "nonpayable",
      "type": "function"
    },
    {
      "inputs": [
        {
          "internalType": "address",
          "name": "newImplementation",
          "type": "address"
        }
      ],
      "name": "upgradeTo",
      "outputs": [],
      "stateMutability": "nonpayable",
      "type": "function"
    },
    {
      "inputs": [
        {
          "internalType": "address",
          "name": "newImplementation",
          "type": "address"
        },
        {
          "internalType": "bytes",
          "name": "data",
          "type": "bytes"
        }
      ],
      "name": "upgradeToAndCall",
      "outputs": [],
      "stateMutability": "payable",
      "type": "function"
    },
    {
      "inputs": [
        {
          "internalType": "uint256",
          "name": "",
          "type": "uint256"
        }
      ],
      "name": "uri",
      "outputs": [
        {
          "internalType": "string",
          "name": "",
          "type": "string"
        }
      ],
      "stateMutability": "view",
      "type": "function"
    },
    {
      "inputs": [
        {
          "internalType": "address",
          "name": "verificationVault",
          "type": "address"
        },
        {
          "internalType": "uint256",
          "name": "tokenId",
          "type": "uint256"
        },
        {
          "internalType": "uint256",
          "name": "amountVerified",
          "type": "uint256"
        },
        {
          "internalType": "uint256",
          "name": "amountToAnteHolders",
          "type": "uint256"
        },
        {
          "internalType": "uint256",
          "name": "verificationPeriodStart",
          "type": "uint256"
        },
        {
          "internalType": "uint256",
          "name": "verificationPeriodEnd",
          "type": "uint256"
        },
        {
          "internalType": "string",
          "name": "monitoringReport",
          "type": "string"
        }
      ],
      "name": "verifyAndMintExPost",
      "outputs": [],
      "stateMutability": "nonpayable",
      "type": "function"
    }
  ],
  "bytecode": "0x60a0604052306080523480156200001557600080fd5b506200002062000026565b620000e7565b600054610100900460ff1615620000935760405162461bcd60e51b815260206004820152602760248201527f496e697469616c697a61626c653a20636f6e747261637420697320696e697469604482015266616c697a696e6760c81b606482015260840160405180910390fd5b60005460ff90811614620000e5576000805460ff191660ff9081179091556040519081527f7f26b83ff96e1f2b6a682f133852f6798a09c465da95921460cefb38474024989060200160405180910390a15b565b608051615ff96200011f600039600081816117aa015281816117ea01528181611bfe01528181611c3e0152611cc90152615ff96000f3fe6080604052600436106102e85760003560e01c8062fdd58e146102ed57806301139ca71461032057806301ffc9a71461034257806302fe5305146103725780630cda95f9146103925780630e89341c146103b257806310c1e7a1146103df57806322088ebf146103ff578063248a9ca31461041f578063275d4dec1461043f578063282c51f31461045f5780632ea05e44146104935780632eb2c2d6146104b55780632f2ff15d146104d55780633584c384146104f557806336568abe146105235780633659cfe6146105435780633f4ba83a146105635780633fafa1271461057857806341a30d3c1461058f5780634e1273f4146105af5780634f1ef286146105dc5780634f558e79146105ef57806352d1902d1461060f57806354ff07951461062457806357c537af1461065d5780635c975abb1461067d5780635e3bbaab14610695578063610e7012146106b757806361eeb089146106e45780636929a19c146106fb5780636f63984d1461072d578063728e68e31461074d578063748957de1461077e57806379c27605146107935780637f345710146107b35780638456cb59146107d557806384b0196e146107ea5780638f76c1da1461081257806391d148541461084057806399df11cf146108605780639a33e300146108805780639d6aed0b146108955780639eeb1d50146108c3578063a0e1b171146108d8578063a217fddf146108f8578063a22cb4651461090d578063aa8b2ea71461092d578063abf410e51461094f578063af93ff721461097d578063b456f2e61461099d578063bc197c81146109bd578063bd85b03914610a02578063d539139314610a22578063d547741f14610a56578063dbd8483d14610a76578063deb0420714610abf578063e36408d014610adf578063e63ab1e914610af2578063e7705db614610b14578063e985e9c514610b36578063edc0b2e614610b7f578063f23a6e6114610ba1578063f242432a14610bcd578063f515e6f214610bed578063f72c0d8b14610c0f575b600080fd5b3480156102f957600080fd5b5061030d6103083660046147bd565b610c31565b6040519081526020015b60405180910390f35b34801561032c57600080fd5b5061034061033b3660046148c1565b610cc9565b005b34801561034e57600080fd5b5061036261035d366004614988565b610eff565b6040519015158152602001610317565b34801561037e57600080fd5b5061034061038d3660046149a5565b610f10565b34801561039e57600080fd5b506103406103ad366004614a74565b610f35565b3480156103be57600080fd5b506103d26103cd366004614ae0565b6110fa565b6040516103179190614b51565b3480156103eb57600080fd5b506103406103fa366004614b64565b61118e565b34801561040b57600080fd5b5061034061041a366004614c1d565b61136f565b34801561042b57600080fd5b5061030d61043a366004614ae0565b611618565b34801561044b57600080fd5b5061030d61045a366004614ccf565b61162d565b34801561046b57600080fd5b5061030d7f3c11d16cbaffd01df69ce1c404f6340ee057498f5f00246190ea54220576a84881565b34801561049f57600080fd5b5061030d600080516020615f6483398151915281565b3480156104c157600080fd5b506103406104d0366004614e05565b6116b9565b3480156104e157600080fd5b506103406104f0366004614e94565b611705565b34801561050157600080fd5b5061030d610510366004614ae0565b6101fe6020526000908152604090205481565b34801561052f57600080fd5b5061034061053e366004614e94565b611726565b34801561054f57600080fd5b5061034061055e366004614ec0565b6117a0565b34801561056f57600080fd5b50610340611868565b34801561058457600080fd5b5061030d6101f85481565b34801561059b57600080fd5b506103406105aa366004614edb565b611888565b3480156105bb57600080fd5b506105cf6105ca366004614f49565b611acb565b6040516103179190614fe7565b6103406105ea366004614ffa565b611bf4565b3480156105fb57600080fd5b5061036261060a366004614ae0565b611ca9565b34801561061b57600080fd5b5061030d611cbc565b34801561063057600080fd5b5061030d61063f3660046149a5565b80516020818301810180516101ff8252928201919093012091525481565b34801561066957600080fd5b5061034061067836600461504c565b611d6b565b34801561068957600080fd5b5060c95460ff16610362565b3480156106a157600080fd5b5061030d600080516020615f8483398151915281565b3480156106c357600080fd5b506101f9546106d29060ff1681565b60405160ff9091168152602001610317565b3480156106f057600080fd5b5061030d6101f75481565b34801561070757600080fd5b5061071b610716366004614ae0565b611e6d565b6040516103179695949392919061508e565b34801561073957600080fd5b50610362610748366004614ae0565b612047565b34801561075957600080fd5b5061076d610768366004614ae0565b61206e565b6040516103179594939291906150e1565b34801561078a57600080fd5b506103d2612125565b34801561079f57600080fd5b506103406107ae366004615118565b6121b4565b3480156107bf57600080fd5b5061030d600080516020615ebd83398151915281565b3480156107e157600080fd5b5061034061226a565b3480156107f657600080fd5b506107ff61228a565b6040516103179796959493929190615234565b34801561081e57600080fd5b5061030d61082d366004614ae0565b6101fd6020526000908152604090205481565b34801561084c57600080fd5b5061036261085b366004614e94565b61232a565b34801561086c57600080fd5b5061034061087b3660046152b5565b612355565b34801561088c57600080fd5b506103d2612378565b3480156108a157600080fd5b506040805180820190915260058152640c0b8c0b8d60da1b60208201526103d2565b3480156108cf57600080fd5b506103d2612386565b3480156108e457600080fd5b506103406108f33660046152d0565b612394565b34801561090457600080fd5b5061030d600081565b34801561091957600080fd5b50610340610928366004615311565b612533565b34801561093957600080fd5b5061030d600080516020615e9d83398151915281565b34801561095b57600080fd5b506101fb54610970906001600160a01b031681565b604051610317919061534d565b34801561098957600080fd5b5061030d610998366004615361565b61253e565b3480156109a957600080fd5b506103406109b8366004615440565b61274d565b3480156109c957600080fd5b506109e96109d8366004614e05565b63bc197c8160e01b95945050505050565b6040516001600160e01b03199091168152602001610317565b348015610a0e57600080fd5b5061030d610a1d366004614ae0565b61286e565b348015610a2e57600080fd5b5061030d7f9f2df0fed2c77648de5860a4cc508cd0818c85b8b8a1ab4ceeef8d981c8956a681565b348015610a6257600080fd5b50610340610a71366004614e94565b612880565b348015610a8257600080fd5b50610aaa610a91366004614ec0565b6101c56020526000908152604090205463ffffffff1681565b60405163ffffffff9091168152602001610317565b348015610acb57600080fd5b50610340610ada366004615470565b61289c565b610340610aed3660046154c7565b612933565b348015610afe57600080fd5b5061030d600080516020615efd83398151915281565b348015610b2057600080fd5b5061030d600080516020615fa483398151915281565b348015610b4257600080fd5b50610362610b51366004615548565b6001600160a01b03918216600090815260666020908152604080832093909416825291909152205460ff1690565b348015610b8b57600080fd5b5061030d600080516020615dfd83398151915281565b348015610bad57600080fd5b506109e9610bbc366004615572565b63f23a6e6160e01b95945050505050565b348015610bd957600080fd5b50610340610be8366004615572565b612a67565b348015610bf957600080fd5b5061030d600080516020615f4483398151915281565b348015610c1b57600080fd5b5061030d600080516020615e5d83398151915281565b60006001600160a01b038316610ca15760405162461bcd60e51b815260206004820152602a60248201527f455243313135353a2061646472657373207a65726f206973206e6f742061207660448201526930b634b21037bbb732b960b11b60648201526084015b60405180910390fd5b5060009081526065602090815260408083206001600160a01b03949094168352929052205490565b600054610100900460ff1615808015610ce95750600054600160ff909116105b80610d0a5750610cf830612aac565b158015610d0a575060005460ff166001145b610d265760405162461bcd60e51b8152600401610c98906155d6565b6000805460ff191660011790558015610d49576000805461ff0019166101001790555b610d6160405180602001604052806000815250612abb565b610d69612aeb565b610d71612b14565b610d79612aeb565b610d81612aeb565b610dcf6040518060400160405280600f81526020016e436172626f6e20526567697374727960881b81525060405180604001604052806005815260200164302e302e3160d81b815250612b43565b610dde8760328787868861274d565b610de9600087612b74565b610e01600080516020615ebd83398151915287612b74565b610e19600080516020615efd83398151915287612b74565b610e31600080516020615dfd83398151915287612b74565b610e49600080516020615f8483398151915287612b74565b610e61600080516020615e5d83398151915287612b74565b610e79600080516020615f4483398151915287612b74565b610e91600080516020615fa483398151915287612b74565b610ea9600080516020615f6483398151915287612b74565b610ec1600080516020615f8483398151915233612b74565b8015610ef6576000805461ff001916905560405160018152600080516020615edd833981519152906020015b60405180910390a15b50505050505050565b6000610f0a82612bfa565b92915050565b600080516020615ebd833981519152610f2881612c1f565b610f3182612c29565b5050565b81610f3f81612047565b610f5b5760405162461bcd60e51b8152600401610c9890615624565b60008381526101fe602052604081205490819003610f8b5760405162461bcd60e51b8152600401610c989061563f565b6000610f968261286e565b90506000610fa43087610c31565b905060008111610fdb5760405162461bcd60e51b8152602060048201526002602482015261031360f41b6044820152606401610c98565b60005b87518110156110f057600061100c898381518110610ffe57610ffe61565a565b602002602001015186610c31565b905060008461101b8584615686565b61102591906156a5565b905081818111156110335750805b898b85815181106110465761104661565a565b60200260200101516001600160a01b03167ffa5cd0fcb25938b2f45b3ca175241bfb3739cf4db3cb7476846930ec714f13f284846040516110889291906156c7565b60405180910390a36110b48b85815181106110a5576110a561565a565b60200260200101518883612c3c565b6110da308c86815181106110ca576110ca61565a565b60200260200101518c858d612dc1565b50505080806110e8906156d5565b915050610fde565b5050505050505050565b606060678054611109906156ee565b80601f0160208091040260200160405190810160405280929190818152602001828054611135906156ee565b80156111825780601f1061115757610100808354040283529160200191611182565b820191906000526020600020905b81548152906001019060200180831161116557829003601f168201915b50505050509050919050565b600080516020615dfd8339815191526111a681612c1f565b836111b081612047565b6111cc5760405162461bcd60e51b8152600401610c9890615624565b60008581526101fc602052604081206003810154600490910154879111604051806040016040528060018152602001603360f81b815250906112215760405162461bcd60e51b8152600401610c989190614b51565b5060008781526101fe60205260408120549081900361125a57506101f780546001019081905560008881526101fe602052604090208190555b60008881526101fc6020526040812060010154906112778a61286e565b905060006112858284615722565b6101f95490915060009060649061129f9060ff1684615686565b6112a991906156a5565b905060006112b68661286e565b9050816112c38d83615739565b11156112f55760405162461bcd60e51b81526020600482015260016024820152603560f81b6044820152606401610c98565b8c6101fd6000888152602001908152602001600020819055508d6001600160a01b03168d877f1fe9ade752d24e4f4dca10f5c807a7cc8630c7604280c8b124097d93b5bb02a18f60405161134b91815260200190565b60405180910390a461135f8e878e8e612ef7565b5050505050505050505050505050565b826080013561137d81612047565b6113995760405162461bcd60e51b8152600401610c9890615624565b858585600080516020615e3d8339815191528383836040516113bd9392919061577a565b60405180910390a160006114d4600080516020615ddd83398151915283356113e86020860186615852565b6040516020016113f9929190615898565b604051602081830303815290604052805190602001208560400160208101906114229190614ec0565b6114326080880160608901614ec0565b608088013560a08901356101c5600061145160608d0160408e01614ec0565b6001600160a01b03908116825260208083019390935260409182016000205482519384019a909a529082019790975260608101959095529285166080850152931660a083015260c082019290925260e081019190915263ffffffff909116610100820152610120016040516020818303038152906040528051906020012061300f565b90506115288185858080601f016020809104026020016040519081016040528093929190818152602001838380828437600092019190915250611521925050506060860160408701614ec0565b853561303c565b506101c5600061153e6060850160408601614ec0565b6001600160a01b0316815260208101919091526040016000908120805463ffffffff169161156b836158a8565b91906101000a81548163ffffffff021916908363ffffffff1602179055505087608001358860400160208101906115a29190614ec0565b6001600160a01b03167f782105afe5542acae5ab54dc3dab8b54887fd38a79f55330b3e1e70c3063d67b8a60a001358a8a6040516115e2939291906158cb565b60405180910390a361160c6115fd60608a0160408b01614ec0565b89608001358a60a00135612c3c565b50505050505050505050565b60009081526097602052604090206001015490565b60008761163981612047565b6116555760405162461bcd60e51b8152600401610c9890615624565b6001600160a01b038716330361167b57611674338a8a898989896130fe565b91506116ad565b6001600160a01b03871661168e57600080fd5b61169b33888b8b87612dc1565b6116aa878a8a898989896130fe565b91505b50979650505050505050565b6001600160a01b0385163314806116d557506116d58533610b51565b6116f15760405162461bcd60e51b8152600401610c98906158f6565b6116fe858585858561316c565b5050505050565b61170e82611618565b61171781612c1f565b6117218383612b74565b505050565b6001600160a01b03811633146117965760405162461bcd60e51b815260206004820152602f60248201527f416363657373436f6e74726f6c3a2063616e206f6e6c792072656e6f756e636560448201526e103937b632b9903337b91039b2b63360891b6064820152608401610c98565b610f318282613352565b6001600160a01b037f00000000000000000000000000000000000000000000000000000000000000001630036117e85760405162461bcd60e51b8152600401610c9890615944565b7f00000000000000000000000000000000000000000000000000000000000000006001600160a01b031661181a6133b9565b6001600160a01b0316146118405760405162461bcd60e51b8152600401610c989061597e565b611849816133d5565b60408051600080825260208201909252611865918391906133ed565b50565b600080516020615efd83398151915261188081612c1f565b611865613558565b600080516020615fa48339815191526118a081612c1f565b866118aa81612047565b6118c65760405162461bcd60e51b8152600401610c9890615624565b60008881526101fc6020526040812060038101546004909101548a9111604051806040016040528060018152602001603360f81b8152509061191b5760405162461bcd60e51b8152600401610c989190614b51565b50878910156119505760405162461bcd60e51b81526020600482015260016024820152601b60f91b6044820152606401610c98565b60008a81526101fc60205260409020600201548610156119965760405162461bcd60e51b81526020600482015260016024820152603760f81b6044820152606401610c98565b60008a81526101fc602052604090206004015486116119db5760405162461bcd60e51b81526020600482015260016024820152600760fb1b6044820152606401610c98565b60008a81526101fe602052604081205490819003611a11578815611a115760405162461bcd60e51b8152600401610c989061563f565b8a7fe19de0f3da1193000100a217838f49f6bdda20dc974d33b61f92faaf446d181d8b8b8b8b8b604051611a499594939291906159b8565b60405180910390a26000611a5d8a8c615722565b1115611a8757611a878c8c611a728c8e615722565b60405180602001604052806000815250612ef7565b60008b81526101fc602052604090206004018790558815611abd57611abd308c8b60405180602001604052806000815250612ef7565b505050505050505050505050565b60608151835114611b305760405162461bcd60e51b815260206004820152602960248201527f455243313135353a206163636f756e747320616e6420696473206c656e677468604482015268040dad2e6dac2e8c6d60bb1b6064820152608401610c98565b600083516001600160401b03811115611b4b57611b4b6147e7565b604051908082528060200260200182016040528015611b74578160200160208202803683370190505b50905060005b8451811015611bec57611bbf858281518110611b9857611b9861565a565b6020026020010151858381518110611bb257611bb261565a565b6020026020010151610c31565b828281518110611bd157611bd161565a565b6020908102919091010152611be5816156d5565b9050611b7a565b509392505050565b6001600160a01b037f0000000000000000000000000000000000000000000000000000000000000000163003611c3c5760405162461bcd60e51b8152600401610c9890615944565b7f00000000000000000000000000000000000000000000000000000000000000006001600160a01b0316611c6e6133b9565b6001600160a01b031614611c945760405162461bcd60e51b8152600401610c989061597e565b611c9d826133d5565b610f31828260016133ed565b600080611cb58361286e565b1192915050565b6000306001600160a01b037f00000000000000000000000000000000000000000000000000000000000000001614611d575760405162461bcd60e51b815260206004820152603860248201527f555550535570677261646561626c653a206d757374206e6f742062652063616c6044820152771b1959081d1a1c9bdd59da0819195b1959d85d1958d85b1b60421b6064820152608401610c98565b50600080516020615e7d8339815191525b90565b6000611d7681612c1f565b83611d8081612047565b611d9c5760405162461bcd60e51b8152600401610c9890615624565b60008581526101fc602052604081206003810154600490910154879111604051806040016040528060018152602001603360f81b81525090611df15760405162461bcd60e51b8152600401610c989190614b51565b50846004811115611e0457611e046159e3565b60008881526101fc60205260409081902060010154905189917f79ad675a154518428a5aa59f22c834871a66d54a46e3f4c8c5b4ee08fb576c2e91611e4a918b916156c7565b60405180910390a3505050600093845250506101fc602052604090912060010155565b6102006020526000908152604090208054600182015460028301546003840180546001600160a01b03909416949293919291611ea8906156ee565b80601f0160208091040260200160405190810160405280929190818152602001828054611ed4906156ee565b8015611f215780601f10611ef657610100808354040283529160200191611f21565b820191906000526020600020905b815481529060010190602001808311611f0457829003601f168201915b505050505090806004018054611f36906156ee565b80601f0160208091040260200160405190810160405280929190818152602001828054611f62906156ee565b8015611faf5780601f10611f8457610100808354040283529160200191611faf565b820191906000526020600020905b815481529060010190602001808311611f9257829003601f168201915b505050505090806005018054611fc4906156ee565b80601f0160208091040260200160405190810160405280929190818152602001828054611ff0906156ee565b801561203d5780601f106120125761010080835404028352916020019161203d565b820191906000526020600020905b81548152906001019060200180831161202057829003601f168201915b5050505050905086565b60008181526101fc602052604081208054829190612064906156ee565b9050119050919050565b6101fc6020526000908152604090208054819061208a906156ee565b80601f01602080910402602001604051908101604052809291908181526020018280546120b6906156ee565b80156121035780601f106120d857610100808354040283529160200191612103565b820191906000526020600020905b8154815290600101906020018083116120e657829003601f168201915b5050505050908060010154908060020154908060030154908060040154905085565b6102018054612133906156ee565b80601f016020809104026020016040519081016040528092919081815260200182805461215f906156ee565b80156121ac5780601f10612181576101008083540402835291602001916121ac565b820191906000526020600020905b81548152906001019060200180831161218f57829003601f168201915b505050505081565b600080516020615f848339815191526121cc81612c1f565b60005b8251811015611721576122588382815181106121ed576121ed61565a565b60200260200101516020015184838151811061220b5761220b61565a565b6020026020010151604001518584815181106122295761222961565a565b6020026020010151606001518685815181106122475761224761565a565b602002602001015160000151612394565b80612262816156d5565b9150506121cf565b600080516020615efd83398151915261228281612c1f565b6118656135a4565b600060608060008060006060610191546000801b1480156122ac575061019254155b6122f05760405162461bcd60e51b81526020600482015260156024820152741152540dcc4c8e88155b9a5b9a5d1a585b1a5e9959605a1b6044820152606401610c98565b6122f86135e1565b612300613674565b60408051600080825260208201909252600f60f81b9b939a50919850469750309650945092509050565b60009182526097602090815260408084206001600160a01b0393909316845291905290205460ff1690565b600061236081612c1f565b506101f9805460ff191660ff92909216919091179055565b6101fa8054612133906156ee565b6102028054612133906156ee565b600080516020615f848339815191526123ac81612c1f565b8383116123df5760405162461bcd60e51b81526020600482015260016024820152600d60fa1b6044820152606401610c98565b60006123f36101f780546001019081905590565b6101fb546040516344d9d59b60e01b81529192506001600160a01b0316906344d9d59b90612425908690600401614b51565b600060405180830381600087803b15801561243f57600080fd5b505af1158015612453573d6000803e3d6000fd5b50505050806101ff8460405161246991906159f9565b90815260408051602092819003830181209390935560a083018152858352818301899052828101889052606083018790526000608084018190528481526101fc8352208251805191926124c192849290910190614711565b5060208201518160010155604082015181600201556060820151816003015560808201518160040155905050807fc5fb6d85b5baef0a615415607787aea341771027b7e4da34da58eaeb661154ea878787876040516125239493929190615a15565b60405180910390a2505050505050565b610f31338383613684565b6000856080013561254e81612047565b61256a5760405162461bcd60e51b8152600401610c9890615624565b888888600080516020615e3d83398151915283838360405161258e9392919061577a565b60405180910390a160006125b9600080516020615ddd83398151915283356113e86020860186615852565b90506126068185858080601f016020809104026020016040519081016040528093929190818152602001838380828437600092019190915250611521925050506060860160408701614ec0565b506101c5600061261c6060850160408601614ec0565b6001600160a01b0316815260208101919091526040016000908120805463ffffffff1691612649836158a8565b91906101000a81548163ffffffff021916908363ffffffff160217905550508a606001602081019061267b9190614ec0565b6001600160a01b031661269460608d0160408e01614ec0565b6001600160a01b0316036126cf576126c86126b560608d0160408e01614ec0565b8c608001358d60a001358d8d8d8d6130fe565b955061273d565b60006126e160808d0160608e01614ec0565b6001600160a01b0316036126f457600080fd5b61272761270760608d0160408e01614ec0565b61271760808e0160608f01614ec0565b8d608001358e60a001358b612dc1565b61273a6126b560808d0160608e01614ec0565b95505b5050505050979650505050505050565b600054610100900460ff161580801561276d5750600054600160ff909116105b8061278e575061277c30612aac565b15801561278e575060005460ff166001145b6127aa5760405162461bcd60e51b8152600401610c98906155d6565b6000805460ff1916600117905580156127cd576000805461ff0019166101001790555b6101f9805460ff191660ff88161790556101fb80546001600160a01b0319166001600160a01b038916179055835161280d906101fa906020870190614711565b506101f8859055825161282890610201906020860190614711565b50815161283d90610202906020850190614711565b508015610ef6576000805461ff001916905560405160018152600080516020615edd83398151915290602001610eed565b600090815260fb602052604090205490565b61288982611618565b61289281612c1f565b6117218383613352565b600080516020615f648339815191526128b481612c1f565b8160048111156128c6576128c66159e3565b604080516001600160a01b038881168252602082018790528792908a16917fa8b90aeef4d9590cac2ff486fc2b5d9749ed41f9388a7eb159eef94cf5fb65ab910160405180910390a461292b8686868660405180602001604052806000815250612dc1565b505050505050565b838383600080516020615e3d8339815191528383836040516129579392919061577a565b60405180910390a16000612982600080516020615ddd83398151915283356113e86020860186615852565b90506129cf8185858080601f016020809104026020016040519081016040528093929190818152602001838380828437600092019190915250611521925050506060860160408701614ec0565b506101c560006129e56060850160408601614ec0565b6001600160a01b0316815260208101919091526040016000908120805463ffffffff1691612a12836158a8565b91906101000a81548163ffffffff021916908363ffffffff160217905550506110f0866040016020810190612a479190614ec0565b612a576080890160608a01614ec0565b88608001358960a0013589612dc1565b6001600160a01b038516331480612a835750612a838533610b51565b612a9f5760405162461bcd60e51b8152600401610c98906158f6565b6116fe8585858585612dc1565b6001600160a01b03163b151590565b600054610100900460ff16612ae25760405162461bcd60e51b8152600401610c9890615a3a565b61186581613764565b600054610100900460ff16612b125760405162461bcd60e51b8152600401610c9890615a3a565b565b600054610100900460ff16612b3b5760405162461bcd60e51b8152600401610c9890615a3a565b612b12613794565b600054610100900460ff16612b6a5760405162461bcd60e51b8152600401610c9890615a3a565b610f3182826137c7565b612b7e828261232a565b610f315760008281526097602090815260408083206001600160a01b03851684529091529020805460ff19166001179055612bb63390565b6001600160a01b0316816001600160a01b0316837f2f8788117e7eff1d82e926ec794901d17c78024a50270940304540a733656f0d60405160405180910390a45050565b60006001600160e01b03198216630271189760e51b1480610f0a5750610f0a826137f8565b611865813361381d565b8051610f31906067906020840190614711565b6001600160a01b038316612c9e5760405162461bcd60e51b815260206004820152602360248201527f455243313135353a206275726e2066726f6d20746865207a65726f206164647260448201526265737360e81b6064820152608401610c98565b336000612caa84613876565b90506000612cb784613876565b9050612cd7838760008585604051806020016040528060008152506138c1565b60008581526065602090815260408083206001600160a01b038a16845290915290205484811015612d565760405162461bcd60e51b8152602060048201526024808201527f455243313135353a206275726e20616d6f756e7420657863656564732062616c604482015263616e636560e01b6064820152608401610c98565b60008681526065602090815260408083206001600160a01b03808c1680865291909352818420898603905590519091871690600080516020615dbd83398151915290612da5908b908b906156c7565b60405180910390a4604080516020810190915260009052610ef6565b6001600160a01b038416612de75760405162461bcd60e51b8152600401610c9890615a85565b336000612df385613876565b90506000612e0085613876565b9050612e108389898585896138c1565b60008681526065602090815260408083206001600160a01b038c16845290915290205485811015612e535760405162461bcd60e51b8152600401610c9890615aca565b60008781526065602090815260408083206001600160a01b038d8116855292528083208985039055908a16825281208054889290612e92908490615739565b92505081905550876001600160a01b0316896001600160a01b0316856001600160a01b0316600080516020615dbd8339815191528a8a604051612ed69291906156c7565b60405180910390a4612eec848a8a8a8a8a6139ea565b505050505050505050565b6001600160a01b038416612f575760405162461bcd60e51b815260206004820152602160248201527f455243313135353a206d696e7420746f20746865207a65726f206164647265736044820152607360f81b6064820152608401610c98565b336000612f6385613876565b90506000612f7085613876565b9050612f81836000898585896138c1565b60008681526065602090815260408083206001600160a01b038b16845290915281208054879290612fb3908490615739565b92505081905550866001600160a01b031660006001600160a01b0316846001600160a01b0316600080516020615dbd8339815191528989604051612ff89291906156c7565b60405180910390a4610ef6836000898989896139ea565b6000610f0a61301c613b4c565b8360405161190160f01b8152600281019290925260228201526042902090565b60006130488585613b5b565b9050826001600160a01b0316816001600160a01b031614801561307357506001600160a01b03811615155b6130b35760405162461bcd60e51b8152602060048201526011602482015270496e76616c6964207369676e617475726560781b6044820152606401610c98565b8142106130f65760405162461bcd60e51b815260206004820152601160248201527014da59db985d1d5c9948195e1c1a5c9959607a1b6044820152606401610c98565b949350505050565b600061310b888888612c3c565b613119888888888888613b77565b905086886001600160a01b03167f1325d882b2ca749c878a4ab3a393f6e51b69026faa05426b6d1ec6776a3f2f3c88848660405161315993929190615b14565b60405180910390a3979650505050505050565b81518351146131ce5760405162461bcd60e51b815260206004820152602860248201527f455243313135353a2069647320616e6420616d6f756e7473206c656e677468206044820152670dad2e6dac2e8c6d60c31b6064820152608401610c98565b6001600160a01b0384166131f45760405162461bcd60e51b8152600401610c9890615a85565b336132038187878787876138c1565b60005b84518110156132ec5760008582815181106132235761322361565a565b6020026020010151905060008583815181106132415761324161565a565b60209081029190910181015160008481526065835260408082206001600160a01b038e1683529093529190912054909150818110156132925760405162461bcd60e51b8152600401610c9890615aca565b60008381526065602090815260408083206001600160a01b038e8116855292528083208585039055908b168252812080548492906132d1908490615739565b92505081905550505050806132e5906156d5565b9050613206565b50846001600160a01b0316866001600160a01b0316826001600160a01b03167f4a39dc06d4c0dbc64b70af90fd698a233a518aa5d07e595d983b8c0526c8f7fb878760405161333c929190615b3c565b60405180910390a461292b818787878787613c76565b61335c828261232a565b15610f315760008281526097602090815260408083206001600160a01b0385168085529252808320805460ff1916905551339285917ff6391f5c32d9c69d2a47ea670b442974b53935d1edc7fd64eb21e047a839171b9190a45050565b600080516020615e7d833981519152546001600160a01b031690565b600080516020615e5d833981519152610f3181612c1f565b7f4910fdfa16fed3260ed0e7147f7cc6da11a60208b5b9406d12a635614ffd91435460ff16156134205761172183613d38565b826001600160a01b03166352d1902d6040518163ffffffff1660e01b8152600401602060405180830381865afa92505050801561347a575060408051601f3d908101601f1916820190925261347791810190615b61565b60015b6134dd5760405162461bcd60e51b815260206004820152602e60248201527f45524331393637557067726164653a206e657720696d706c656d656e7461746960448201526d6f6e206973206e6f74205555505360901b6064820152608401610c98565b600080516020615e7d833981519152811461354c5760405162461bcd60e51b815260206004820152602960248201527f45524331393637557067726164653a20756e737570706f727465642070726f786044820152681a58589b195555525160ba1b6064820152608401610c98565b50611721838383613dd2565b613560613dfd565b60c9805460ff191690557f5db9ee0a495bf2e6ff9c91a7834c1ba4fdd244a5e8aa4e537bd38aeae4b073aa335b60405161359a919061534d565b60405180910390a1565b6135ac613e46565b60c9805460ff191660011790557f62e78cea01bee320cd4e420270b5ea74000d11b0c9f74754ebdbfc544b05a25861358d3390565b606061019380546135f1906156ee565b80601f016020809104026020016040519081016040528092919081815260200182805461361d906156ee565b801561366a5780601f1061363f5761010080835404028352916020019161366a565b820191906000526020600020905b81548152906001019060200180831161364d57829003601f168201915b5050505050905090565b606061019480546135f1906156ee565b816001600160a01b0316836001600160a01b0316036136f75760405162461bcd60e51b815260206004820152602960248201527f455243313135353a2073657474696e6720617070726f76616c20737461747573604482015268103337b91039b2b63360b91b6064820152608401610c98565b6001600160a01b03838116600081815260666020908152604080832094871680845294825291829020805460ff191686151590811790915591519182527f17307eab39ab6107e8899845ad3d59bd9653f200f220920489ca2b5937696c31910160405180910390a3505050565b600054610100900460ff1661378b5760405162461bcd60e51b8152600401610c9890615a3a565b61186581612c29565b600054610100900460ff166137bb5760405162461bcd60e51b8152600401610c9890615a3a565b60c9805460ff19169055565b600054610100900460ff166137ee5760405162461bcd60e51b8152600401610c9890615a3a565b610f318282613e8c565b60006001600160e01b03198216637965db0b60e01b1480610f0a5750610f0a82613eed565b613827828261232a565b610f315761383481613f3d565b61383f836020613f4f565b604051602001613850929190615b7a565b60408051601f198184030181529082905262461bcd60e51b8252610c9891600401614b51565b604080516001808252818301909252606091600091906020808301908036833701905050905082816000815181106138b0576138b061565a565b602090810291909101015292915050565b6138c9613e46565b846138e2600080516020615e9d8339815191528261232a565b156138ff5760405162461bcd60e51b8152600401610c9890615be9565b84613918600080516020615e9d8339815191528261232a565b156139355760405162461bcd60e51b8152600401610c9890615be9565b60005b85518110156139db5761020060008783815181106139585761395861565a565b60200260200101518152602001908152602001600020600101546000148061399857506001600160a01b038816158061399857506001600160a01b038716155b6139c95760405162461bcd60e51b8152602060048201526002602482015261313160f01b6044820152606401610c98565b806139d3816156d5565b915050613938565b506110f08888888888886140f1565b6139fc846001600160a01b0316612aac565b1561292b5760405163f23a6e6160e01b81526001600160a01b0385169063f23a6e6190613a359089908990889088908890600401615c04565b6020604051808303816000875af1925050508015613a70575060408051601f3d908101601f19168201909252613a6d91810190615c3e565b60015b613b1c57613a7c615c5b565b806308c379a003613ab55750613a90615c76565b80613a9b5750613ab7565b8060405162461bcd60e51b8152600401610c989190614b51565b505b60405162461bcd60e51b815260206004820152603460248201527f455243313135353a207472616e7366657220746f206e6f6e2d455243313135356044820152732932b1b2b4bb32b91034b6b83632b6b2b73a32b960611b6064820152608401610c98565b6001600160e01b0319811663f23a6e6160e01b14610ef65760405162461bcd60e51b8152600401610c9890615cff565b6000613b5661426a565b905090565b6000806000613b6a85856142de565b91509150611bec81614323565b600080613b8c6101f780546001019081905590565b6040805160c0810182526001600160a01b038b8116825260208083018b81528385018d8152606085018c8152608086018c905260a086018b90526000888152610200855296909620855181546001600160a01b0319169516949094178455905160018401555160028301559251805194955091939092613c13926003850192910190614711565b5060808201518051613c2f916004840191602090910190614711565b5060a08201518051613c4b916005840191602090910190614711565b50905050613c6b8882600160405180602001604052806000815250612ef7565b979650505050505050565b613c88846001600160a01b0316612aac565b1561292b5760405163bc197c8160e01b81526001600160a01b0385169063bc197c8190613cc19089908990889088908890600401615d47565b6020604051808303816000875af1925050508015613cfc575060408051601f3d908101601f19168201909252613cf991810190615c3e565b60015b613d0857613a7c615c5b565b6001600160e01b0319811663bc197c8160e01b14610ef65760405162461bcd60e51b8152600401610c9890615cff565b613d4181612aac565b613da35760405162461bcd60e51b815260206004820152602d60248201527f455243313936373a206e657720696d706c656d656e746174696f6e206973206e60448201526c1bdd08184818dbdb9d1c9858dd609a1b6064820152608401610c98565b600080516020615e7d83398151915280546001600160a01b0319166001600160a01b0392909216919091179055565b613ddb83614468565b600082511180613de85750805b1561172157613df783836144a8565b50505050565b60c95460ff16612b125760405162461bcd60e51b815260206004820152601460248201527314185d5cd8589b194e881b9bdd081c185d5cd95960621b6044820152606401610c98565b60c95460ff1615612b125760405162461bcd60e51b815260206004820152601060248201526f14185d5cd8589b194e881c185d5cd95960821b6044820152606401610c98565b600054610100900460ff16613eb35760405162461bcd60e51b8152600401610c9890615a3a565b8151613ec790610193906020850190614711565b508051613edc90610194906020840190614711565b505060006101918190556101925550565b60006001600160e01b03198216636cdb3d1360e11b1480613f1e57506001600160e01b031982166303a24d0760e21b145b80610f0a57506301ffc9a760e01b6001600160e01b0319831614610f0a565b6060610f0a6001600160a01b03831660145b60606000613f5e836002615686565b613f69906002615739565b6001600160401b03811115613f8057613f806147e7565b6040519080825280601f01601f191660200182016040528015613faa576020820181803683370190505b509050600360fc1b81600081518110613fc557613fc561565a565b60200101906001600160f81b031916908160001a905350600f60fb1b81600181518110613ff457613ff461565a565b60200101906001600160f81b031916908160001a9053506000614018846002615686565b614023906001615739565b90505b600181111561409b576f181899199a1a9b1b9c1cb0b131b232b360811b85600f16601081106140575761405761565a565b1a60f81b82828151811061406d5761406d61565a565b60200101906001600160f81b031916908160001a90535060049490941c9361409481615da5565b9050614026565b5083156140ea5760405162461bcd60e51b815260206004820181905260248201527f537472696e67733a20686578206c656e67746820696e73756666696369656e746044820152606401610c98565b9392505050565b6001600160a01b0385166141785760005b83518110156141765782818151811061411d5761411d61565a565b602002602001015160fb600086848151811061413b5761413b61565a565b6020026020010151815260200190815260200160002060008282546141609190615739565b9091555061416f9050816156d5565b9050614102565b505b6001600160a01b03841661292b5760005b8351811015610ef65760008482815181106141a6576141a661565a565b6020026020010151905060008483815181106141c4576141c461565a565b60200260200101519050600060fb6000848152602001908152602001600020549050818110156142475760405162461bcd60e51b815260206004820152602860248201527f455243313135353a206275726e20616d6f756e74206578636565647320746f74604482015267616c537570706c7960c01b6064820152608401610c98565b600092835260fb602052604090922091039055614263816156d5565b9050614189565b60007f8b73c3c69bb8fe3d512ecc4cf759cc79239f7b179b0ffacaa9a75d522b39400f6142956144cd565b61429d61452b565b60408051602081019490945283019190915260608201524660808201523060a082015260c00160405160208183030381529060405280519060200120905090565b60008082516041036143145760208301516040840151606085015160001a6143088782858561455d565b9450945050505061431c565b506000905060025b9250929050565b6000816004811115614337576143376159e3565b0361433f5750565b6001816004811115614353576143536159e3565b0361439b5760405162461bcd60e51b815260206004820152601860248201527745434453413a20696e76616c6964207369676e617475726560401b6044820152606401610c98565b60028160048111156143af576143af6159e3565b036143fc5760405162461bcd60e51b815260206004820152601f60248201527f45434453413a20696e76616c6964207369676e6174757265206c656e677468006044820152606401610c98565b6003816004811115614410576144106159e3565b036118655760405162461bcd60e51b815260206004820152602260248201527f45434453413a20696e76616c6964207369676e6174757265202773272076616c604482015261756560f01b6064820152608401610c98565b61447181613d38565b6040516001600160a01b038216907fbc7cd75a20ee27fd9adebab32041f755214dbc6bffa90cc0225b39da2e5c2d3b90600090a250565b60606140ea8383604051806060016040528060278152602001615f1d60279139614617565b6000806144d86135e1565b8051909150156144ef578051602090910120919050565b6101915480156144ff5792915050565b7fc5d2460186f7233c927e7db2dcc703c0e500b653ca82273b7bfad8045d85a4709250505090565b5090565b600080614536613674565b80519091501561454d578051602090910120919050565b6101925480156144ff5792915050565b6000806fa2a8918ca85bafe22016d0b997e4df60600160ff1b0383111561458a575060009050600361460e565b6040805160008082526020820180845289905260ff881692820192909252606081018690526080810185905260019060a0016020604051602081039080840390855afa1580156145de573d6000803e3d6000fd5b5050604051601f1901519150506001600160a01b0381166146075760006001925092505061460e565b9150600090505b94509492505050565b6060600080856001600160a01b03168560405161463491906159f9565b600060405180830381855af49150503d806000811461466f576040519150601f19603f3d011682016040523d82523d6000602084013e614674565b606091505b50915091506146858683838761468f565b9695505050505050565b606083156146fc5782516000036146f5576146a985612aac565b6146f55760405162461bcd60e51b815260206004820152601d60248201527f416464726573733a2063616c6c20746f206e6f6e2d636f6e74726163740000006044820152606401610c98565b50816130f6565b6130f68383815115613a9b5781518083602001fd5b82805461471d906156ee565b90600052602060002090601f01602090048101928261473f5760008555614785565b82601f1061475857805160ff1916838001178555614785565b82800160010185558215614785579182015b8281111561478557825182559160200191906001019061476a565b506145279291505b80821115614527576000815560010161478d565b80356001600160a01b03811681146147b857600080fd5b919050565b600080604083850312156147d057600080fd5b6147d9836147a1565b946020939093013593505050565b634e487b7160e01b600052604160045260246000fd5b60a081016001600160401b038111828210171561481c5761481c6147e7565b60405250565b601f8201601f191681016001600160401b0381118282101715614847576148476147e7565b6040525050565b600082601f83011261485f57600080fd5b81356001600160401b03811115614878576148786147e7565b60405161488f601f8301601f191660200182614822565b8181528460208386010111156148a457600080fd5b816020850160208301376000918101602001919091529392505050565b60008060008060008060c087890312156148da57600080fd5b6148e3876147a1565b95506148f1602088016147a1565b94506040870135935060608701356001600160401b038082111561491457600080fd5b6149208a838b0161484e565b9450608089013591508082111561493657600080fd5b6149428a838b0161484e565b935060a089013591508082111561495857600080fd5b5061496589828a0161484e565b9150509295509295509295565b6001600160e01b03198116811461186557600080fd5b60006020828403121561499a57600080fd5b81356140ea81614972565b6000602082840312156149b757600080fd5b81356001600160401b038111156149cd57600080fd5b6130f68482850161484e565b60006001600160401b038211156149f2576149f26147e7565b5060051b60200190565b600082601f830112614a0d57600080fd5b81356020614a1a826149d9565b604051614a278282614822565b83815260059390931b8501820192828101915086841115614a4757600080fd5b8286015b84811015614a6957614a5c816147a1565b8352918301918301614a4b565b509695505050505050565b600080600060608486031215614a8957600080fd5b83356001600160401b0380821115614aa057600080fd5b614aac878388016149fc565b9450602086013593506040860135915080821115614ac957600080fd5b50614ad68682870161484e565b9150509250925092565b600060208284031215614af257600080fd5b5035919050565b60005b83811015614b14578181015183820152602001614afc565b83811115613df75750506000910152565b60008151808452614b3d816020860160208601614af9565b601f01601f19169290920160200192915050565b6020815260006140ea6020830184614b25565b60008060008060808587031215614b7a57600080fd5b614b83856147a1565b9350602085013592506040850135915060608501356001600160401b03811115614bac57600080fd5b614bb88782880161484e565b91505092959194509250565b60008083601f840112614bd657600080fd5b5081356001600160401b03811115614bed57600080fd5b60208301915083602082850101111561431c57600080fd5b600060e08284031215614c1757600080fd5b50919050565b600080600080600060808688031215614c3557600080fd5b85356001600160401b0380821115614c4c57600080fd5b614c5889838a01614bc4565b90975095506020880135915080821115614c7157600080fd5b614c7d89838a01614c05565b94506040880135915080821115614c9357600080fd5b614c9f89838a0161484e565b93506060880135915080821115614cb557600080fd5b50614cc28882890161484e565b9150509295509295909350565b600080600080600080600060e0888a031215614cea57600080fd5b8735965060208801359550614d01604089016147a1565b945060608801356001600160401b0380821115614d1d57600080fd5b614d298b838c0161484e565b955060808a0135915080821115614d3f57600080fd5b614d4b8b838c0161484e565b945060a08a0135915080821115614d6157600080fd5b614d6d8b838c0161484e565b935060c08a0135915080821115614d8357600080fd5b50614d908a828b0161484e565b91505092959891949750929550565b600082601f830112614db057600080fd5b81356020614dbd826149d9565b604051614dca8282614822565b83815260059390931b8501820192828101915086841115614dea57600080fd5b8286015b84811015614a695780358352918301918301614dee565b600080600080600060a08688031215614e1d57600080fd5b614e26866147a1565b9450614e34602087016147a1565b935060408601356001600160401b0380821115614e5057600080fd5b614e5c89838a01614d9f565b94506060880135915080821115614e7257600080fd5b614e7e89838a01614d9f565b93506080880135915080821115614cb557600080fd5b60008060408385031215614ea757600080fd5b82359150614eb7602084016147a1565b90509250929050565b600060208284031215614ed257600080fd5b6140ea826147a1565b600080600080600080600060e0888a031215614ef657600080fd5b614eff886147a1565b96506020880135955060408801359450606088013593506080880135925060a0880135915060c08801356001600160401b03811115614f3d57600080fd5b614d908a828b0161484e565b60008060408385031215614f5c57600080fd5b82356001600160401b0380821115614f7357600080fd5b614f7f868387016149fc565b93506020850135915080821115614f9557600080fd5b50614fa285828601614d9f565b9150509250929050565b600081518084526020808501945080840160005b83811015614fdc57815187529582019590820190600101614fc0565b509495945050505050565b6020815260006140ea6020830184614fac565b6000806040838503121561500d57600080fd5b615016836147a1565b915060208301356001600160401b0381111561503157600080fd5b614fa28582860161484e565b8035600581106147b857600080fd5b60008060006060848603121561506157600080fd5b83359250602084013591506150786040850161503d565b90509250925092565b6001600160a01b03169052565b60018060a01b038716815285602082015284604082015260c0606082015260006150bb60c0830186614b25565b82810360808401526150cd8186614b25565b905082810360a08401526116aa8185614b25565b60a0815260006150f460a0830188614b25565b90508560208301528460408301528360608301528260808301529695505050505050565b6000602080838503121561512b57600080fd5b82356001600160401b038082111561514257600080fd5b818501915085601f83011261515657600080fd5b8135615161816149d9565b6040805161516f8382614822565b83815260059390931b850186019286810192508984111561518f57600080fd5b8686015b84811015615226578035868111156151ab5760008081fd5b870160a0818d03601f19018113156151c35760008081fd5b84516151ce816147fd565b8a830135898111156151e05760008081fd5b6151ee8f8d8387010161484e565b825250828601358b82015260608084013587830152608080850135918301919091529190920135908201528452928701928701615193565b509998505050505050505050565b60ff60f81b8816815260e06020820152600061525360e0830189614b25565b82810360408401526152658189614b25565b606084018890526001600160a01b038716608085015260a0840186905283810360c085015290506152968185614fac565b9a9950505050505050505050565b803560ff811681146147b857600080fd5b6000602082840312156152c757600080fd5b6140ea826152a4565b600080600080608085870312156152e657600080fd5b84359350602085013592506040850135915060608501356001600160401b03811115614bac57600080fd5b6000806040838503121561532457600080fd5b61532d836147a1565b91506020830135801515811461534257600080fd5b809150509250929050565b6001600160a01b0391909116815260200190565b600080600080600080600060c0888a03121561537c57600080fd5b87356001600160401b038082111561539357600080fd5b61539f8b838c01614bc4565b909950975060208a01359150808211156153b857600080fd5b6153c48b838c01614c05565b965060408a01359150808211156153da57600080fd5b6153e68b838c0161484e565b955060608a01359150808211156153fc57600080fd5b6154088b838c0161484e565b945060808a013591508082111561541e57600080fd5b61542a8b838c0161484e565b935060a08a0135915080821115614d8357600080fd5b60008060008060008060c0878903121561545957600080fd5b615462876147a1565b95506148f1602088016152a4565b600080600080600060a0868803121561548857600080fd5b615491866147a1565b945061549f602087016147a1565b935060408601359250606086013591506154bb6080870161503d565b90509295509295909350565b600080600080606085870312156154dd57600080fd5b84356001600160401b03808211156154f457600080fd5b61550088838901614bc4565b9096509450602087013591508082111561551957600080fd5b61552588838901614c05565b9350604087013591508082111561553b57600080fd5b50614bb88782880161484e565b6000806040838503121561555b57600080fd5b615564836147a1565b9150614eb7602084016147a1565b600080600080600060a0868803121561558a57600080fd5b615593866147a1565b94506155a1602087016147a1565b9350604086013592506060860135915060808601356001600160401b038111156155ca57600080fd5b614cc28882890161484e565b6020808252602e908201527f496e697469616c697a61626c653a20636f6e747261637420697320616c72656160408201526d191e481a5b9a5d1a585b1a5e995960921b606082015260800190565b6020808252600190820152603160f81b604082015260600190565b6020808252600190820152603960f81b604082015260600190565b634e487b7160e01b600052603260045260246000fd5b634e487b7160e01b600052601160045260246000fd5b60008160001904831182151516156156a0576156a0615670565b500290565b6000826156c257634e487b7160e01b600052601260045260246000fd5b500490565b918252602082015260400190565b6000600182016156e7576156e7615670565b5060010190565b600181811c9082168061570257607f821691505b602082108103614c1757634e487b7160e01b600052602260045260246000fd5b60008282101561573457615734615670565b500390565b6000821982111561574c5761574c615670565b500190565b81835281816020850137506000828201602090810191909152601f909101601f19169091010190565b60408152600061578e604083018587615751565b8281036020840152833581526020840135601e198536030181126157b157600080fd5b840180356001600160401b038111156157c957600080fd5b8036038613156157d857600080fd5b60e060208401526157f060e084018260208501615751565b9150506157ff604086016147a1565b61580c6040840182615081565b50615819606086016147a1565b6158266060840182615081565b506080850135608083015260a085013560a083015260c085013560c08301528092505050949350505050565b6000808335601e1984360301811261586957600080fd5b8301803591506001600160401b0382111561588357600080fd5b60200191503681900382131561431c57600080fd5b8183823760009101908152919050565b600063ffffffff8083168181036158c1576158c1615670565b6001019392505050565b8381526060602082015260006158e46060830185614b25565b82810360408401526146858185614b25565b6020808252602e908201527f455243313135353a2063616c6c6572206973206e6f7420746f6b656e206f776e60408201526d195c881bdc88185c1c1c9bdd995960921b606082015260800190565b6020808252602c90820152600080516020615e1d83398151915260408201526b19195b1959d85d1958d85b1b60a21b606082015260800190565b6020808252602c90820152600080516020615e1d83398151915260408201526b6163746976652070726f787960a01b606082015260800190565b85815284602082015283604082015282606082015260a060808201526000613c6b60a0830184614b25565b634e487b7160e01b600052602160045260246000fd5b60008251615a0b818460208701614af9565b9190910192915050565b8481528360208201528260408201526080606082015260006146856080830184614b25565b6020808252602b908201527f496e697469616c697a61626c653a20636f6e7472616374206973206e6f74206960408201526a6e697469616c697a696e6760a81b606082015260800190565b60208082526025908201527f455243313135353a207472616e7366657220746f20746865207a65726f206164604082015264647265737360d81b606082015260800190565b6020808252602a908201527f455243313135353a20696e73756666696369656e742062616c616e636520666f60408201526939103a3930b739b332b960b11b606082015260800190565b838152826020820152606060408201526000615b336060830184614b25565b95945050505050565b604081526000615b4f6040830185614fac565b8281036020840152615b338185614fac565b600060208284031215615b7357600080fd5b5051919050565b76020b1b1b2b9b9a1b7b73a3937b61d1030b1b1b7bab73a1604d1b815260008351615bac816017850160208801614af9565b7001034b99036b4b9b9b4b733903937b6329607d1b6017918401918201528351615bdd816028840160208801614af9565b01602801949350505050565b6020808252600190820152600360fc1b604082015260600190565b6001600160a01b03868116825285166020820152604081018490526060810183905260a060808201819052600090613c6b90830184614b25565b600060208284031215615c5057600080fd5b81516140ea81614972565b600060033d1115611d685760046000803e5060005160e01c90565b600060443d1015615c845790565b6040516003193d81016004833e81513d6001600160401b038083116024840183101715615cb357505050505090565b8285019150815181811115615ccb5750505050505090565b843d8701016020828501011115615ce55750505050505090565b615cf460208286010187614822565b509095945050505050565b60208082526028908201527f455243313135353a204552433131353552656365697665722072656a656374656040820152676420746f6b656e7360c01b606082015260800190565b6001600160a01b0386811682528516602082015260a060408201819052600090615d7390830186614fac565b8281036060840152615d858186614fac565b90508281036080840152615d998185614b25565b98975050505050505050565b600081615db457615db4615670565b50600019019056fec3d58168c5ae7397731d063d5bbf3d657854427343f4c083240f7aacaa2d0f6279da588818fa1bb747c46ac45fd0af16861a77c5222cf5ac4538360ca4f77a2cd5bbb2f0fbfc1d5938ca13cabd3156d362f7862fa87504c8d589f5e8f2cbc45346756e6374696f6e206d7573742062652063616c6c6564207468726f75676820bdde33eca765abe07e416fa5225f9a5dbc393366c8bbf45df689e69ee318a934189ab7a9244df0848122154315af71fe140f3db0fe014031783b0946b8c9d2e3360894a13ba1a3210667c828492db98dca3e2076cc3735a920a3ca505d382bbcf48dee1a72497b9e734e498e1b3086c0d2dbcca13f16f15848f974469f906bbf7804d923f43a17d325d77e781528e0793b2edd9890ab45fc64efd7b4b427744c7f26b83ff96e1f2b6a682f133852f6798a09c465da95921460cefb384740249865d7a28e3265b37a6474929f336521b332c1681b933f6cb9f3376673440d862a416464726573733a206c6f772d6c6576656c2064656c65676174652063616c6c206661696c656498db8a220cd0f09badce9f22d0ba7e93edb3d404448cc3560d391ab096ad16e94bbc247fc4736523c8bdd1853fee2acfa817d663f8f4422b13e78ebf99e204a2ddf79b8d2110dbe281cf3bb7762d508cea586c974794c8fc949d41b0db1145130ce23c3e399818cfee81a7ab0880f714e53d7672b08df0fa62f2843416e1ea09a2646970667358221220f9b0a1a3b9cc1aa19d617cb93be3e06ffa31ddbed5919503ed68be7752a52d8d64736f6c634300080d0033",
  "linkReferences": {},
  "deployedLinkReferences": {}
}