{
  "contractName": "CarbonContractRegistry",
  "abi": [
    {
      "inputs": [],
      "stateMutability": "nonpayable",
      "type": "constructor"
    },
    {
      "anonymous": false,
      "inputs": [
        {
          "indexed": false,
          "internalType": "address",
          "name": "previousAdmin",
          "type": "address"
        },
        {
          "indexed": false,
          "internalType": "address",
          "name": "newAdmin",
          "type": "address"
        }
      ],
      "name": "AdminChanged",
      "type": "event"
    },
    {
      "anonymous": false,
      "inputs": [
        {
          "indexed": true,
          "internalType": "address",
          "name": "beaconAddress",
          "type": "address"
        },
        {
          "indexed": true,
          "internalType": "address",
          "name": "oldBeaconAddress",
          "type": "address"
        }
      ],
      "name": "BeaconSet",
      "type": "event"
    },
    {
      "anonymous": false,
      "inputs": [
        {
          "indexed": true,
          "internalType": "address",
          "name": "beacon",
          "type": "address"
        }
      ],
      "name": "BeaconUpgraded",
      "type": "event"
    },
    {
      "anonymous": false,
      "inputs": [
        {
          "indexed": false,
          "internalType": "uint8",
          "name": "version",
          "type": "uint8"
        }
      ],
      "name": "Initialized",
      "type": "event"
    },
    {
      "anonymous": false,
      "inputs": [
        {
          "indexed": true,
          "internalType": "address",
          "name": "nonVerifiedVaultAddress",
          "type": "address"
        },
        {
          "indexed": true,
          "internalType": "address",
          "name": "oldNonVerifiedVaultAddress",
          "type": "address"
        }
      ],
      "name": "NonVerifiedVaultAddressSet",
      "type": "event"
    },
    {
      "anonymous": false,
      "inputs": [
        {
          "indexed": false,
          "internalType": "address",
          "name": "account",
          "type": "address"
        }
      ],
      "name": "Paused",
      "type": "event"
    },
    {
      "anonymous": false,
      "inputs": [
        {
          "indexed": true,
          "internalType": "uint256",
          "name": "projectId",
          "type": "uint256"
        },
        {
          "indexed": true,
          "internalType": "address",
          "name": "projectAddress",
          "type": "address"
        },
        {
          "indexed": false,
          "internalType": "string",
          "name": "projectName",
          "type": "string"
        }
      ],
      "name": "ProjectCreated",
      "type": "event"
    },
    {
      "anonymous": false,
      "inputs": [
        {
          "indexed": true,
          "internalType": "address",
          "name": "projectFactoryAddress",
          "type": "address"
        },
        {
          "indexed": true,
          "internalType": "address",
          "name": "oldProjectFactoryAddress",
          "type": "address"
        }
      ],
      "name": "ProjectFactoryAddressSet",
      "type": "event"
    },
    {
      "anonymous": false,
      "inputs": [
        {
          "indexed": true,
          "internalType": "bytes32",
          "name": "role",
          "type": "bytes32"
        },
        {
          "indexed": true,
          "internalType": "bytes32",
          "name": "previousAdminRole",
          "type": "bytes32"
        },
        {
          "indexed": true,
          "internalType": "bytes32",
          "name": "newAdminRole",
          "type": "bytes32"
        }
      ],
      "name": "RoleAdminChanged",
      "type": "event"
    },
    {
      "anonymous": false,
      "inputs": [
        {
          "indexed": true,
          "internalType": "bytes32",
          "name": "role",
          "type": "bytes32"
        },
        {
          "indexed": true,
          "internalType": "address",
          "name": "account",
          "type": "address"
        },
        {
          "indexed": true,
          "internalType": "address",
          "name": "sender",
          "type": "address"
        }
      ],
      "name": "RoleGranted",
      "type": "event"
    },
    {
      "anonymous": false,
      "inputs": [
        {
          "indexed": true,
          "internalType": "bytes32",
          "name": "role",
          "type": "bytes32"
        },
        {
          "indexed": true,
          "internalType": "address",
          "name": "account",
          "type": "address"
        },
        {
          "indexed": true,
          "internalType": "address",
          "name": "sender",
          "type": "address"
        }
      ],
      "name": "RoleRevoked",
      "type": "event"
    },
    {
      "anonymous": false,
      "inputs": [
        {
          "indexed": true,
          "internalType": "string",
          "name": "serialization",
          "type": "string"
        },
        {
          "indexed": true,
          "internalType": "address",
          "name": "serializationProjectContractAddress",
          "type": "address"
        }
      ],
      "name": "SerializationAddressSet",
      "type": "event"
    },
    {
      "anonymous": false,
      "inputs": [
        {
          "indexed": false,
          "internalType": "address",
          "name": "account",
          "type": "address"
        }
      ],
      "name": "Unpaused",
      "type": "event"
    },
    {
      "anonymous": false,
      "inputs": [
        {
          "indexed": true,
          "internalType": "address",
          "name": "implementation",
          "type": "address"
        }
      ],
      "name": "Upgraded",
      "type": "event"
    },
    {
      "anonymous": false,
      "inputs": [
        {
          "indexed": true,
          "internalType": "address",
          "name": "verifiedVaultAddress",
          "type": "address"
        },
        {
          "indexed": true,
          "internalType": "address",
          "name": "oldVerifiedVaultAddress",
          "type": "address"
        }
      ],
      "name": "VerifiedVaultAddressSet",
      "type": "event"
    },
    {
      "inputs": [],
      "name": "DEFAULT_ADMIN_ROLE",
      "outputs": [
        {
          "internalType": "bytes32",
          "name": "",
          "type": "bytes32"
        }
      ],
      "stateMutability": "view",
      "type": "function"
    },
    {
      "inputs": [],
      "name": "PAUSER_ROLE",
      "outputs": [
        {
          "internalType": "bytes32",
          "name": "",
          "type": "bytes32"
        }
      ],
      "stateMutability": "view",
      "type": "function"
    },
    {
      "inputs": [],
      "name": "UPGRADER_ROLE",
      "outputs": [
        {
          "internalType": "bytes32",
          "name": "",
          "type": "bytes32"
        }
      ],
      "stateMutability": "view",
      "type": "function"
    },
    {
      "inputs": [
        {
          "internalType": "bytes32",
          "name": "role",
          "type": "bytes32"
        }
      ],
      "name": "getRoleAdmin",
      "outputs": [
        {
          "internalType": "bytes32",
          "name": "",
          "type": "bytes32"
        }
      ],
      "stateMutability": "view",
      "type": "function"
    },
    {
      "inputs": [
        {
          "internalType": "bytes32",
          "name": "role",
          "type": "bytes32"
        },
        {
          "internalType": "address",
          "name": "account",
          "type": "address"
        }
      ],
      "name": "grantRole",
      "outputs": [],
      "stateMutability": "nonpayable",
      "type": "function"
    },
    {
      "inputs": [
        {
          "internalType": "bytes32",
          "name": "role",
          "type": "bytes32"
        },
        {
          "internalType": "address",
          "name": "account",
          "type": "address"
        }
      ],
      "name": "hasRole",
      "outputs": [
        {
          "internalType": "bool",
          "name": "",
          "type": "bool"
        }
      ],
      "stateMutability": "view",
      "type": "function"
    },
    {
      "inputs": [],
      "name": "paused",
      "outputs": [
        {
          "internalType": "bool",
          "name": "",
          "type": "bool"
        }
      ],
      "stateMutability": "view",
      "type": "function"
    },
    {
      "inputs": [],
      "name": "proxiableUUID",
      "outputs": [
        {
          "internalType": "bytes32",
          "name": "",
          "type": "bytes32"
        }
      ],
      "stateMutability": "view",
      "type": "function"
    },
    {
      "inputs": [
        {
          "internalType": "bytes32",
          "name": "role",
          "type": "bytes32"
        },
        {
          "internalType": "address",
          "name": "account",
          "type": "address"
        }
      ],
      "name": "renounceRole",
      "outputs": [],
      "stateMutability": "nonpayable",
      "type": "function"
    },
    {
      "inputs": [
        {
          "internalType": "bytes32",
          "name": "role",
          "type": "bytes32"
        },
        {
          "internalType": "address",
          "name": "account",
          "type": "address"
        }
      ],
      "name": "revokeRole",
      "outputs": [],
      "stateMutability": "nonpayable",
      "type": "function"
    },
    {
      "inputs": [
        {
          "internalType": "bytes4",
          "name": "interfaceId",
          "type": "bytes4"
        }
      ],
      "name": "supportsInterface",
      "outputs": [
        {
          "internalType": "bool",
          "name": "",
          "type": "bool"
        }
      ],
      "stateMutability": "view",
      "type": "function"
    },
    {
      "inputs": [
        {
          "internalType": "address",
          "name": "newImplementation",
          "type": "address"
        }
      ],
      "name": "upgradeTo",
      "outputs": [],
      "stateMutability": "nonpayable",
      "type": "function"
    },
    {
      "inputs": [
        {
          "internalType": "address",
          "name": "newImplementation",
          "type": "address"
        },
        {
          "internalType": "bytes",
          "name": "data",
          "type": "bytes"
        }
      ],
      "name": "upgradeToAndCall",
      "outputs": [],
      "stateMutability": "payable",
      "type": "function"
    },
    {
      "inputs": [
        {
          "internalType": "address",
          "name": "beaconAddress",
          "type": "address"
        }
      ],
      "name": "initialize",
      "outputs": [],
      "stateMutability": "nonpayable",
      "type": "function"
    },
    {
      "inputs": [
        {
          "internalType": "uint256",
          "name": "_projectId",
          "type": "uint256"
        },
        {
          "internalType": "string",
          "name": "_projectName",
          "type": "string"
        }
      ],
      "name": "createProject",
      "outputs": [],
      "stateMutability": "nonpayable",
      "type": "function"
    },
    {
      "inputs": [
        {
          "internalType": "address",
          "name": "nonVerifiedVaultAddress",
          "type": "address"
        }
      ],
      "name": "setNonVerifiedVaultAddress",
      "outputs": [],
      "stateMutability": "nonpayable",
      "type": "function"
    },
    {
      "inputs": [
        {
          "internalType": "address",
          "name": "verifiedVaultAddress",
          "type": "address"
        }
      ],
      "name": "setVerifiedVaultAddress",
      "outputs": [],
      "stateMutability": "nonpayable",
      "type": "function"
    },
    {
      "inputs": [
        {
          "internalType": "string",
          "name": "serialization",
          "type": "string"
        }
      ],
      "name": "registerSerialization",
      "outputs": [],
      "stateMutability": "nonpayable",
      "type": "function"
    },
    {
      "inputs": [
        {
          "internalType": "address",
          "name": "beaconAddress",
          "type": "address"
        }
      ],
      "name": "setBeaconAddress",
      "outputs": [],
      "stateMutability": "nonpayable",
      "type": "function"
    },
    {
      "inputs": [],
      "name": "getNonVerifiedVaultAddress",
      "outputs": [
        {
          "internalType": "address",
          "name": "",
          "type": "address"
        }
      ],
      "stateMutability": "view",
      "type": "function"
    },
    {
      "inputs": [],
      "name": "getVerifiedVaultAddress",
      "outputs": [
        {
          "internalType": "address",
          "name": "",
          "type": "address"
        }
      ],
      "stateMutability": "view",
      "type": "function"
    },
    {
      "inputs": [
        {
          "internalType": "string",
          "name": "serialization",
          "type": "string"
        }
      ],
      "name": "getSerializationAddress",
      "outputs": [
        {
          "internalType": "address",
          "name": "",
          "type": "address"
        }
      ],
      "stateMutability": "view",
      "type": "function"
    },
    {
      "inputs": [
        {
          "internalType": "uint256",
          "name": "projectId",
          "type": "uint256"
        }
      ],
      "name": "getProjectAddressFromId",
      "outputs": [
        {
          "internalType": "address",
          "name": "",
          "type": "address"
        }
      ],
      "stateMutability": "view",
      "type": "function"
    },
    {
      "inputs": [
        {
          "internalType": "address",
          "name": "projectAddress",
          "type": "address"
        }
      ],
      "name": "getProjectIdFromAddress",
      "outputs": [
        {
          "internalType": "uint256",
          "name": "",
          "type": "uint256"
        }
      ],
      "stateMutability": "view",
      "type": "function"
    },
    {
      "inputs": [],
      "name": "getBeaconAddress",
      "outputs": [
        {
          "internalType": "address",
          "name": "",
          "type": "address"
        }
      ],
      "stateMutability": "view",
      "type": "function"
    },
    {
      "inputs": [],
      "name": "pause",
      "outputs": [],
      "stateMutability": "nonpayable",
      "type": "function"
    },
    {
      "inputs": [],
      "name": "unpause",
      "outputs": [],
      "stateMutability": "nonpayable",
      "type": "function"
    }
  ],
  "bytecode": "0x60a06040523060805234801561001457600080fd5b5061001d610022565b6100e2565b600054610100900460ff161561008e5760405162461bcd60e51b815260206004820152602760248201527f496e697469616c697a61626c653a20636f6e747261637420697320696e697469604482015266616c697a696e6760c81b606482015260840160405180910390fd5b60005460ff90811610156100e0576000805460ff191660ff9081179091556040519081527f7f26b83ff96e1f2b6a682f133852f6798a09c465da95921460cefb38474024989060200160405180910390a15b565b6080516129386200011a60003960008181610686015281816106c901528181610997015281816109da0152610a5b01526129386000f3fe608060405260043610620001575760003560e01c80629d4d7a146200015c57806301ffc9a71462000190578063144e3b1314620001c65780631a654ace14620001eb578063248a9ca314620002355780632f2ff15d146200025a57806336568abe14620002815780633659cfe614620002a65780633f4ba83a14620002cb57806344d9d59b14620002e35780634b2ca13a14620003085780634f1ef286146200032d5780634fcb7ea6146200034457806352d1902d146200037f5780635c975abb14620003975780638456cb5914620003b15780638f80a11e14620003c957806391d1485414620003ea57806392130344146200040f57806393d8e8841462000434578063a217fddf1462000455578063bf1a8003146200046c578063c4d66de81462000491578063d547741f14620004b6578063e63ab1e914620004db578063f72c0d8b1462000500578063fc402daf1462000525575b600080fd5b3480156200016957600080fd5b5061012f546001600160a01b03165b6040516200018791906200197c565b60405180910390f35b3480156200019d57600080fd5b50620001b5620001af36600462001990565b6200054a565b604051901515815260200162000187565b348015620001d357600080fd5b5062000178620001e536600462001a07565b62000582565b348015620001f857600080fd5b50620002266200020a36600462001a69565b6001600160a01b03166000908152610132602052604090205490565b60405190815260200162000187565b3480156200024257600080fd5b50620002266200025436600462001a87565b620005ba565b3480156200026757600080fd5b506200027f6200027936600462001aa1565b620005cf565b005b3480156200028e57600080fd5b506200027f620002a036600462001aa1565b620005f6565b348015620002b357600080fd5b506200027f620002c536600462001a69565b6200067c565b348015620002d857600080fd5b506200027f62000750565b348015620002f057600080fd5b506200027f6200030236600462001a07565b62000775565b3480156200031557600080fd5b506200027f6200032736600462001a69565b62000920565b6200027f6200033e36600462001ae6565b6200098d565b3480156200035157600080fd5b50620001786200036336600462001a87565b600090815261013160205260409020546001600160a01b031690565b3480156200038c57600080fd5b506200022662000a4e565b348015620003a457600080fd5b5060335460ff16620001b5565b348015620003be57600080fd5b506200027f62000aff565b348015620003d657600080fd5b5061012e546001600160a01b031662000178565b348015620003f757600080fd5b50620001b56200040936600462001aa1565b62000b24565b3480156200041c57600080fd5b506200027f6200042e36600462001a69565b62000b4f565b3480156200044157600080fd5b5061012d546001600160a01b031662000178565b3480156200046257600080fd5b5062000226600081565b3480156200047957600080fd5b506200027f6200048b36600462001bb3565b62000baa565b3480156200049e57600080fd5b506200027f620004b036600462001a69565b62000d6b565b348015620004c357600080fd5b506200027f620004d536600462001aa1565b62000f01565b348015620004e857600080fd5b50620002266000805160206200289283398151915281565b3480156200050d57600080fd5b50620002266000805160206200285283398151915281565b3480156200053257600080fd5b506200027f6200054436600462001a69565b62000f23565b60006001600160e01b03198216637965db0b60e01b14806200057c57506301ffc9a760e01b6001600160e01b03198316145b92915050565b600061013083836040516200059992919062001c02565b908152604051908190036020019020546001600160a01b0316905092915050565b60009081526097602052604090206001015490565b620005da82620005ba565b620005e58162000f90565b620005f1838362000f9c565b505050565b6001600160a01b03811633146200066c5760405162461bcd60e51b815260206004820152602f60248201527f416363657373436f6e74726f6c3a2063616e206f6e6c792072656e6f756e636560448201526e103937b632b9903337b91039b2b63360891b60648201526084015b60405180910390fd5b62000678828262001026565b5050565b6001600160a01b037f0000000000000000000000000000000000000000000000000000000000000000163003620006c75760405162461bcd60e51b8152600401620006639062001c12565b7f00000000000000000000000000000000000000000000000000000000000000006001600160a01b0316620006fb62001090565b6001600160a01b031614620007245760405162461bcd60e51b8152600401620006639062001c4d565b6200072f81620010ad565b604080516000808252602082019092526200074d91839190620010c8565b50565b600080516020620028928339815191526200076b8162000f90565b6200074d62001240565b6200077f62001290565b3360009081526101326020526040902054151580620007a65750620007a660003362000b24565b6200080e5760405162461bcd60e51b815260206004820152603160248201527f4f6e6c7920436172626f6e526567697374727950726f6a6563742063616e206360448201527030b636103a3434b990333ab731ba34b7b760791b606482015260840162000663565b60006001600160a01b031661013083836040516200082e92919062001c02565b908152604051908190036020019020546001600160a01b031614620008955760405162461bcd60e51b815260206004820152601c60248201527b53657269616c697a6174696f6e20616c72656164792065786973747360201b604482015260640162000663565b336101308383604051620008ab92919062001c02565b90815260405190819003602001812080546001600160a01b03939093166001600160a01b0319909316929092179091553390620008ec908490849062001c02565b604051908190038120907ff874c248792a4caa5cd732177a71454e2e4018dcf91bd3f5b57c594e9e07191990600090a35050565b60006200092d8162000f90565b61012d546040516001600160a01b03918216918416907f1ce1da4e72361be837013f9a5e63915a60f54e521c2f1b3149eba3526067758990600090a35061012d80546001600160a01b0319166001600160a01b0392909216919091179055565b6001600160a01b037f0000000000000000000000000000000000000000000000000000000000000000163003620009d85760405162461bcd60e51b8152600401620006639062001c12565b7f00000000000000000000000000000000000000000000000000000000000000006001600160a01b031662000a0c62001090565b6001600160a01b03161462000a355760405162461bcd60e51b8152600401620006639062001c4d565b62000a4082620010ad565b6200067882826001620010c8565b6000306001600160a01b037f0000000000000000000000000000000000000000000000000000000000000000161462000aeb5760405162461bcd60e51b815260206004820152603860248201527f555550535570677261646561626c653a206d757374206e6f742062652063616c6044820152771b1959081d1a1c9bdd59da0819195b1959d85d1958d85b1b60421b606482015260840162000663565b506000805160206200287283398151915290565b6000805160206200289283398151915262000b1a8162000f90565b6200074d620012da565b60009182526097602090815260408084206001600160a01b0393909316845291905290205460ff1690565b600062000b5c8162000f90565b61012f80546001600160a01b0319166001600160a01b03841690811790915560405181907f0282ad3fa3df8509e42308da45d565e159bfdbae259b381d419be67d4971b22b90600090a35050565b62000bb462001290565b600062000bc18162000f90565b8360000362000c0b5760405162461bcd60e51b8152602060048201526015602482015274050726f6a65637449642063616e6e6f74206265203605c1b604482015260640162000663565b600084815261013160205260409020546001600160a01b03161562000c6e5760405162461bcd60e51b815260206004820152601860248201527750726f6a656374496420616c72656164792065786973747360401b604482015260640162000663565b600062000c7d8585856200131a565b6001600160a01b038116600090815261013260205260409020549091501562000ce95760405162461bcd60e51b815260206004820152601d60248201527f50726f6a6563744164647265737320616c726561647920657869737473000000604482015260640162000663565b60008581526101316020908152604080832080546001600160a01b0319166001600160a01b03861690811790915580845261013290925291829020879055905186907f9d9ec461f162f3f4fdb9f6d189bfe13c59e48d8acd23a4c3bfcf7cc0fe4e84ed9062000d5c908890889062001cb1565b60405180910390a35050505050565b600054610100900460ff161580801562000d8c5750600054600160ff909116105b8062000db1575062000d9e30620013fd565b15801562000db1575060005460ff166001145b62000e165760405162461bcd60e51b815260206004820152602e60248201527f496e697469616c697a61626c653a20636f6e747261637420697320616c72656160448201526d191e481a5b9a5d1a585b1a5e995960921b606482015260840162000663565b6000805460ff19166001179055801562000e3a576000805461ff0019166101001790555b62000e446200140c565b62000e4e62001440565b62000e5862001440565b62000e6560003362000f9c565b62000e80600080516020620028528339815191523362000f9c565b62000e9b600080516020620028928339815191523362000f9c565b61012f80546001600160a01b0319166001600160a01b038416179055801562000678576000805461ff0019169055604051600181527f7f26b83ff96e1f2b6a682f133852f6798a09c465da95921460cefb38474024989060200160405180910390a15050565b62000f0c82620005ba565b62000f178162000f90565b620005f1838362001026565b600062000f308162000f90565b61012e546040516001600160a01b03918216918416907fb14c2effb0eb23de70d93ed807b25cdb4540c2ad356fd65db6132a1372c075e190600090a35061012e80546001600160a01b0319166001600160a01b0392909216919091179055565b6200074d81336200146a565b62000fa8828262000b24565b620006785760008281526097602090815260408083206001600160a01b03851684529091529020805460ff1916600117905562000fe23390565b6001600160a01b0316816001600160a01b0316837f2f8788117e7eff1d82e926ec794901d17c78024a50270940304540a733656f0d60405160405180910390a45050565b62001032828262000b24565b15620006785760008281526097602090815260408083206001600160a01b0385168085529252808320805460ff1916905551339285917ff6391f5c32d9c69d2a47ea670b442974b53935d1edc7fd64eb21e047a839171b9190a45050565b60008051602062002872833981519152546001600160a01b031690565b60008051602062002852833981519152620006788162000f90565b7f4910fdfa16fed3260ed0e7147f7cc6da11a60208b5b9406d12a635614ffd91435460ff1615620010fe57620005f183620014ce565b826001600160a01b03166352d1902d6040518163ffffffff1660e01b8152600401602060405180830381865afa9250505080156200115b575060408051601f3d908101601f19168201909252620011589181019062001ccf565b60015b620011c05760405162461bcd60e51b815260206004820152602e60248201527f45524331393637557067726164653a206e657720696d706c656d656e7461746960448201526d6f6e206973206e6f74205555505360901b606482015260840162000663565b600080516020620028728339815191528114620012325760405162461bcd60e51b815260206004820152602960248201527f45524331393637557067726164653a20756e737570706f727465642070726f786044820152681a58589b195555525160ba1b606482015260840162000663565b50620005f18383836200156d565b6200124a6200159e565b6033805460ff191690557f5db9ee0a495bf2e6ff9c91a7834c1ba4fdd244a5e8aa4e537bd38aeae4b073aa335b6040516200128691906200197c565b60405180910390a1565b60335460ff1615620012d85760405162461bcd60e51b815260206004820152601060248201526f14185d5cd8589b194e881c185d5cd95960821b604482015260640162000663565b565b620012e462001290565b6033805460ff191660011790557f62e78cea01bee320cd4e420270b5ea74000d11b0c9f74754ebdbfc544b05a258620012773390565b6000806040518060600160405280602a8152602001620028d9602a9139905060008130338888886040516024016200135795949392919062001ce9565b60408051601f198184030181529082905291620013749162001d59565b60408051918290039091206020830180516001600160e01b03166001600160e01b031990921691909117905261012f5490519192506000916001600160a01b03909116908390620013c5906200196e565b620013d292919062001da5565b604051809103906000f080158015620013ef573d6000803e3d6000fd5b5093505050505b9392505050565b6001600160a01b03163b151590565b600054610100900460ff16620014365760405162461bcd60e51b8152600401620006639062001dcb565b620012d8620015e9565b600054610100900460ff16620012d85760405162461bcd60e51b8152600401620006639062001dcb565b62001476828262000b24565b620006785762001486816200161f565b6200149383602062001632565b604051602001620014a692919062001e16565b60408051601f198184030181529082905262461bcd60e51b8252620006639160040162001e89565b620014d981620013fd565b6200153d5760405162461bcd60e51b815260206004820152602d60248201527f455243313936373a206e657720696d706c656d656e746174696f6e206973206e60448201526c1bdd08184818dbdb9d1c9858dd609a1b606482015260840162000663565b6000805160206200287283398151915280546001600160a01b0319166001600160a01b0392909216919091179055565b6200157883620017eb565b600082511180620015865750805b15620005f1576200159883836200182d565b50505050565b60335460ff16620012d85760405162461bcd60e51b815260206004820152601460248201527314185d5cd8589b194e881b9bdd081c185d5cd95960621b604482015260640162000663565b600054610100900460ff16620016135760405162461bcd60e51b8152600401620006639062001dcb565b6033805460ff19169055565b60606200057c6001600160a01b03831660145b606060006200164383600262001eb4565b6200165090600262001ed6565b6001600160401b038111156200166a576200166a62001ad0565b6040519080825280601f01601f19166020018201604052801562001695576020820181803683370190505b509050600360fc1b81600081518110620016b357620016b362001ef1565b60200101906001600160f81b031916908160001a905350600f60fb1b81600181518110620016e557620016e562001ef1565b60200101906001600160f81b031916908160001a90535060006200170b84600262001eb4565b6200171890600162001ed6565b90505b60018111156200179a576f181899199a1a9b1b9c1cb0b131b232b360811b85600f166010811062001750576200175062001ef1565b1a60f81b82828151811062001769576200176962001ef1565b60200101906001600160f81b031916908160001a90535060049490941c93620017928162001f07565b90506200171b565b508315620013f65760405162461bcd60e51b815260206004820181905260248201527f537472696e67733a20686578206c656e67746820696e73756666696369656e74604482015260640162000663565b620017f681620014ce565b6040516001600160a01b038216907fbc7cd75a20ee27fd9adebab32041f755214dbc6bffa90cc0225b39da2e5c2d3b90600090a250565b60606200183a83620013fd565b620018975760405162461bcd60e51b815260206004820152602660248201527f416464726573733a2064656c65676174652063616c6c20746f206e6f6e2d636f6044820152651b9d1c9858dd60d21b606482015260840162000663565b600080846001600160a01b031684604051620018b4919062001d59565b600060405180830381855af49150503d8060008114620018f1576040519150601f19603f3d011682016040523d82523d6000602084013e620018f6565b606091505b5091509150620019218282604051806060016040528060278152602001620028b2602791396200192a565b95945050505050565b606083156200193b575081620013f6565b620013f68383815115620019525781518083602001fd5b8060405162461bcd60e51b815260040162000663919062001e89565b6109108062001f2283390190565b6001600160a01b0391909116815260200190565b600060208284031215620019a357600080fd5b81356001600160e01b031981168114620013f657600080fd5b60008083601f840112620019cf57600080fd5b5081356001600160401b03811115620019e757600080fd5b60208301915083602082850101111562001a0057600080fd5b9250929050565b6000806020838503121562001a1b57600080fd5b82356001600160401b0381111562001a3257600080fd5b62001a4085828601620019bc565b90969095509350505050565b80356001600160a01b038116811462001a6457600080fd5b919050565b60006020828403121562001a7c57600080fd5b620013f68262001a4c565b60006020828403121562001a9a57600080fd5b5035919050565b6000806040838503121562001ab557600080fd5b8235915062001ac76020840162001a4c565b90509250929050565b634e487b7160e01b600052604160045260246000fd5b6000806040838503121562001afa57600080fd5b62001b058362001a4c565b915060208301356001600160401b038082111562001b2257600080fd5b818501915085601f83011262001b3757600080fd5b81358181111562001b4c5762001b4c62001ad0565b604051601f8201601f19908116603f0116810190838211818310171562001b775762001b7762001ad0565b8160405282815288602084870101111562001b9157600080fd5b8260208601602083013760006020848301015280955050505050509250929050565b60008060006040848603121562001bc957600080fd5b8335925060208401356001600160401b0381111562001be757600080fd5b62001bf586828701620019bc565b9497909650939450505050565b8183823760009101908152919050565b6020808252602c908201526000805160206200283283398151915260408201526b19195b1959d85d1958d85b1b60a21b606082015260800190565b6020808252602c908201526000805160206200283283398151915260408201526b6163746976652070726f787960a01b606082015260800190565b81835281816020850137506000828201602090810191909152601f909101601f19169091010190565b60208152600062001cc760208301848662001c88565b949350505050565b60006020828403121562001ce257600080fd5b5051919050565b6001600160a01b038681168252851660208201526040810184905260806060820181905260009062001d1f908301848662001c88565b979650505050505050565b60005b8381101562001d4757818101518382015260200162001d2d565b83811115620015985750506000910152565b6000825162001d6d81846020870162001d2a565b9190910192915050565b6000815180845262001d9181602086016020860162001d2a565b601f01601f19169290920160200192915050565b6001600160a01b038316815260406020820181905260009062001cc79083018462001d77565b6020808252602b908201527f496e697469616c697a61626c653a20636f6e7472616374206973206e6f74206960408201526a6e697469616c697a696e6760a81b606082015260800190565b76020b1b1b2b9b9a1b7b73a3937b61d1030b1b1b7bab73a1604d1b81526000835162001e4a81601785016020880162001d2a565b7001034b99036b4b9b9b4b733903937b6329607d1b601791840191820152835162001e7d81602884016020880162001d2a565b01602801949350505050565b602081526000620013f6602083018462001d77565b634e487b7160e01b600052601160045260246000fd5b600081600019048311821515161562001ed15762001ed162001e9e565b500290565b6000821982111562001eec5762001eec62001e9e565b500190565b634e487b7160e01b600052603260045260246000fd5b60008162001f195762001f1962001e9e565b50600019019056fe608060405260405161091038038061091083398101604081905261002291610461565b61002e82826000610035565b505061058b565b61003e83610100565b6040516001600160a01b038416907f1cf3b03a6cf19fa2baba4df148e9dcabedea7f8a5c07840e207e5c089be95d3e90600090a260008251118061007f5750805b156100fb576100f9836001600160a01b0316635c60da1b6040518163ffffffff1660e01b8152600401602060405180830381865afa1580156100c5573d6000803e3d6000fd5b505050506040513d601f19601f820116820180604052508101906100e99190610521565b836102a360201b6100291760201c565b505b505050565b610113816102cf60201b6100551760201c565b6101725760405162461bcd60e51b815260206004820152602560248201527f455243313936373a206e657720626561636f6e206973206e6f74206120636f6e6044820152641d1c9858dd60da1b60648201526084015b60405180910390fd5b6101e6816001600160a01b0316635c60da1b6040518163ffffffff1660e01b8152600401602060405180830381865afa1580156101b3573d6000803e3d6000fd5b505050506040513d601f19601f820116820180604052508101906101d79190610521565b6102cf60201b6100551760201c565b61024b5760405162461bcd60e51b815260206004820152603060248201527f455243313936373a20626561636f6e20696d706c656d656e746174696f6e206960448201526f1cc81b9bdd08184818dbdb9d1c9858dd60821b6064820152608401610169565b806102827fa3f0ad74e5423aebfd80d3ef4346578335a9a72aeaee59ff6cb3582b35133d5060001b6102de60201b6100641760201c565b80546001600160a01b0319166001600160a01b039290921691909117905550565b60606102c883836040518060600160405280602781526020016108e9602791396102e1565b9392505050565b6001600160a01b03163b151590565b90565b6060600080856001600160a01b0316856040516102fe919061053c565b600060405180830381855af49150503d8060008114610339576040519150601f19603f3d011682016040523d82523d6000602084013e61033e565b606091505b5090925090506103508683838761035a565b9695505050505050565b606083156103c75782516000036103c057610374856102cf565b6103c05760405162461bcd60e51b815260206004820152601d60248201527f416464726573733a2063616c6c20746f206e6f6e2d636f6e74726163740000006044820152606401610169565b50816103d1565b6103d183836103d9565b949350505050565b8151156103e95781518083602001fd5b8060405162461bcd60e51b81526004016101699190610558565b80516001600160a01b038116811461041a57600080fd5b919050565b634e487b7160e01b600052604160045260246000fd5b60005b83811015610450578181015183820152602001610438565b838111156100f95750506000910152565b6000806040838503121561047457600080fd5b61047d83610403565b60208401519092506001600160401b038082111561049a57600080fd5b818501915085601f8301126104ae57600080fd5b8151818111156104c0576104c061041f565b604051601f8201601f19908116603f011681019083821181831017156104e8576104e861041f565b8160405282815288602084870101111561050157600080fd5b610512836020830160208801610435565b80955050505050509250929050565b60006020828403121561053357600080fd5b6102c882610403565b6000825161054e818460208701610435565b9190910192915050565b6020815260008251806020840152610577816040850160208701610435565b601f01601f19169190910160400192915050565b61034f8061059a6000396000f3fe60806040523661001357610011610017565b005b6100115b610027610022610067565b610100565b565b606061004e83836040518060600160405280602781526020016102f360279139610124565b9392505050565b6001600160a01b03163b151590565b90565b600061009a7fa3f0ad74e5423aebfd80d3ef4346578335a9a72aeaee59ff6cb3582b35133d50546001600160a01b031690565b6001600160a01b0316635c60da1b6040518163ffffffff1660e01b8152600401602060405180830381865afa1580156100d7573d6000803e3d6000fd5b505050506040513d601f19601f820116820180604052508101906100fb919061024a565b905090565b3660008037600080366000845af43d6000803e80801561011f573d6000f35b3d6000fd5b6060600080856001600160a01b03168560405161014191906102a3565b600060405180830381855af49150503d806000811461017c576040519150601f19603f3d011682016040523d82523d6000602084013e610181565b606091505b50915091506101928683838761019c565b9695505050505050565b6060831561020e578251600003610207576101b685610055565b6102075760405162461bcd60e51b815260206004820152601d60248201527f416464726573733a2063616c6c20746f206e6f6e2d636f6e747261637400000060448201526064015b60405180910390fd5b5081610218565b6102188383610220565b949350505050565b8151156102305781518083602001fd5b8060405162461bcd60e51b81526004016101fe91906102bf565b60006020828403121561025c57600080fd5b81516001600160a01b038116811461004e57600080fd5b60005b8381101561028e578181015183820152602001610276565b8381111561029d576000848401525b50505050565b600082516102b5818460208701610273565b9190910192915050565b60208152600082518060208401526102de816040850160208701610273565b601f01601f1916919091016040019291505056fe416464726573733a206c6f772d6c6576656c2064656c65676174652063616c6c206661696c6564a26469706673582212207f22fd01425f9697229001f4148c4c8342b9dbc21a5356b50889d9a5a76954b164736f6c634300080d0033416464726573733a206c6f772d6c6576656c2064656c65676174652063616c6c206661696c656446756e6374696f6e206d7573742062652063616c6c6564207468726f75676820189ab7a9244df0848122154315af71fe140f3db0fe014031783b0946b8c9d2e3360894a13ba1a3210667c828492db98dca3e2076cc3735a920a3ca505d382bbc65d7a28e3265b37a6474929f336521b332c1681b933f6cb9f3376673440d862a416464726573733a206c6f772d6c6576656c2064656c65676174652063616c6c206661696c6564696e697469616c697a6528616464726573732c616464726573732c75696e743235362c737472696e6729a264697066735822122068cd2ee2f997cae5894edf994ce27b907aa7e7a5b324789d9a06c0029d4ccd0464736f6c634300080d0033",
  "immutableReferences": {
    "997": [
      {
        "length": 32,
        "start": 1670
      },
      {
        "length": 32,
        "start": 1737
      },
      {
        "length": 32,
        "start": 2455
      },
      {
        "length": 32,
        "start": 2522
      },
      {
        "length": 32,
        "start": 2651
      }
    ]
  },
  "source": "// SPDX-License-Identifier: MIT\npragma solidity ^0.8.13;\n\nimport \"@openzeppelin/contracts-upgradeable/access/AccessControlUpgradeable.sol\";\nimport \"@openzeppelin/contracts-upgradeable/proxy/utils/Initializable.sol\";\nimport \"@openzeppelin/contracts-upgradeable/proxy/utils/UUPSUpgradeable.sol\";\nimport \"@openzeppelin/contracts/proxy/beacon/BeaconProxy.sol\";\nimport \"@openzeppelin/contracts-upgradeable/security/PausableUpgradeable.sol\";\n\nimport \"./CarbonContractRegistryStorage.sol\";\nimport \"./interfaces/ICarbonContractRegistry.sol\";\n\ncontract CarbonContractRegistry is\n    Initializable,\n    PausableUpgradeable,\n    AccessControlUpgradeable,\n    UUPSUpgradeable,\n    ICarbonContractRegistry,\n    CarbonContractRegistryStorage\n{\n    bytes32 public constant PAUSER_ROLE = keccak256(\"PAUSER_ROLE\");\n    bytes32 public constant UPGRADER_ROLE = keccak256(\"UPGRADER_ROLE\");\n\n    event NonVerifiedVaultAddressSet(\n        address indexed nonVerifiedVaultAddress,\n        address indexed oldNonVerifiedVaultAddress\n    );\n    event VerifiedVaultAddressSet(\n        address indexed verifiedVaultAddress,\n        address indexed oldVerifiedVaultAddress\n    );\n    event SerializationAddressSet(\n        string indexed serialization,\n        address indexed serializationProjectContractAddress\n    );\n    event ProjectFactoryAddressSet(\n        address indexed projectFactoryAddress,\n        address indexed oldProjectFactoryAddress\n    );\n    event BeaconSet(\n        address indexed beaconAddress,\n        address indexed oldBeaconAddress\n    );\n    event ProjectCreated(\n        uint256 indexed projectId,\n        address indexed projectAddress,\n        string projectName\n    );\n\n    /// @custom:oz-upgrades-unsafe-allow constructor\n    constructor() {\n        _disableInitializers();\n    }\n\n    function initialize(address beaconAddress) public initializer {\n        __Pausable_init();\n        __AccessControl_init();\n        __UUPSUpgradeable_init();\n\n        _grantRole(DEFAULT_ADMIN_ROLE, msg.sender);\n        _grantRole(UPGRADER_ROLE, msg.sender);\n        _grantRole(PAUSER_ROLE, msg.sender);\n\n        _projectBeaconAddress = beaconAddress;\n    }\n\n    modifier onlyCarbonRegistryProjects() {\n        require(\n            _addressToProjectIdMapping[msg.sender] != 0 ||\n                hasRole(DEFAULT_ADMIN_ROLE, msg.sender),\n            \"Only CarbonRegistryProject can call this function\"\n        );\n        _;\n    }\n\n    function createProject(\n        uint256 _projectId,\n        string calldata _projectName\n    ) external whenNotPaused onlyRole(DEFAULT_ADMIN_ROLE) {\n        require(_projectId != 0, \"ProjectId cannot be 0\");\n        require(\n            _projectIdToAddressMapping[_projectId] == address(0),\n            \"ProjectId already exists\"\n        );\n\n        address projectAddress = _createProject(_projectId, _projectName);\n\n        require(\n            _addressToProjectIdMapping[projectAddress] == 0,\n            \"ProjectAddress already exists\"\n        );\n        _projectIdToAddressMapping[_projectId] = projectAddress;\n        _addressToProjectIdMapping[projectAddress] = _projectId;\n        emit ProjectCreated(_projectId, projectAddress, _projectName);\n    }\n\n    function _createProject(\n        uint256 _projectId,\n        string calldata _projectName\n    ) internal returns (address) {\n        /// @dev generate payload for initialize function\n        string memory signature = \"initialize(address,address,uint256,string)\";\n        bytes memory payload = abi.encodeWithSignature(\n            signature,\n            address(this),\n            msg.sender,\n            _projectId,\n            _projectName\n        );\n\n        address projectAddress = address(\n            new BeaconProxy(_projectBeaconAddress, payload)\n        );\n        return projectAddress;\n    }\n\n    // ----------------------------------\n    //              SETTERS\n    // ----------------------------------\n\n    function setNonVerifiedVaultAddress(\n        address nonVerifiedVaultAddress\n    ) external override onlyRole(DEFAULT_ADMIN_ROLE) {\n        emit NonVerifiedVaultAddressSet(\n            nonVerifiedVaultAddress,\n            _nonVerifiedVaultAddress\n        );\n        _nonVerifiedVaultAddress = nonVerifiedVaultAddress;\n    }\n\n    function setVerifiedVaultAddress(\n        address verifiedVaultAddress\n    ) external override onlyRole(DEFAULT_ADMIN_ROLE) {\n        emit VerifiedVaultAddressSet(\n            verifiedVaultAddress,\n            _verifiedVaultAddress\n        );\n        _verifiedVaultAddress = verifiedVaultAddress;\n    }\n\n    function registerSerialization(\n        string calldata serialization\n    ) external override whenNotPaused onlyCarbonRegistryProjects {\n        require(\n            _serializationAddressMapping[serialization] == address(0),\n            \"Serialization already exists\"\n        );\n        _serializationAddressMapping[serialization] = msg.sender;\n        emit SerializationAddressSet(serialization, msg.sender);\n    }\n\n    function setBeaconAddress(\n        address beaconAddress\n    ) external override onlyRole(DEFAULT_ADMIN_ROLE) {\n        _projectBeaconAddress = beaconAddress;\n        emit BeaconSet(beaconAddress, _projectBeaconAddress);\n    }\n\n    // ----------------------------------\n    //              GETTERS\n    // ----------------------------------\n\n    function getNonVerifiedVaultAddress()\n        external\n        view\n        override\n        returns (address)\n    {\n        return _nonVerifiedVaultAddress;\n    }\n\n    function getVerifiedVaultAddress()\n        external\n        view\n        override\n        returns (address)\n    {\n        return _verifiedVaultAddress;\n    }\n\n    function getSerializationAddress(\n        string calldata serialization\n    ) external view override returns (address) {\n        return _serializationAddressMapping[serialization];\n    }\n\n    function getProjectAddressFromId(\n        uint256 projectId\n    ) external view override returns (address) {\n        return _projectIdToAddressMapping[projectId];\n    }\n\n    function getProjectIdFromAddress(\n        address projectAddress\n    ) external view override returns (uint256) {\n        return _addressToProjectIdMapping[projectAddress];\n    }\n\n    function getBeaconAddress() external view override returns (address) {\n        return _projectBeaconAddress;\n    }\n\n    function _authorizeUpgrade(\n        address newImplementation\n    ) internal override onlyRole(UPGRADER_ROLE) {}\n\n    function pause() public onlyRole(PAUSER_ROLE) {\n        _pause();\n    }\n\n    function unpause() public onlyRole(PAUSER_ROLE) {\n        _unpause();\n    }\n}\n",
  "sourcePath": "/Users/thorduragustsson/Programming/Projects/CarbonRegistryContracts/contracts/CarbonContractRegistry.sol",
  "compiler": {
    "name": "solc",
    "version": "0.8.13+commit.abaa5c0e.Emscripten.clang"
  },
  "schemaVersion": "3.4.13",
  "updatedAt": "2023-04-12T21:05:51.347Z",
  "devdoc": {
    "kind": "dev",
    "methods": {
      "constructor": {
        "custom:oz-upgrades-unsafe-allow": "constructor"
      },
      "getRoleAdmin(bytes32)": {
        "details": "Returns the admin role that controls `role`. See {grantRole} and {revokeRole}. To change a role's admin, use {_setRoleAdmin}."
      },
      "grantRole(bytes32,address)": {
        "details": "Grants `role` to `account`. If `account` had not been already granted `role`, emits a {RoleGranted} event. Requirements: - the caller must have ``role``'s admin role. May emit a {RoleGranted} event."
      },
      "hasRole(bytes32,address)": {
        "details": "Returns `true` if `account` has been granted `role`."
      },
      "paused()": {
        "details": "Returns true if the contract is paused, and false otherwise."
      },
      "proxiableUUID()": {
        "details": "Implementation of the ERC1822 {proxiableUUID} function. This returns the storage slot used by the implementation. It is used to validate the implementation's compatibility when performing an upgrade. IMPORTANT: A proxy pointing at a proxiable contract should not be considered proxiable itself, because this risks bricking a proxy that upgrades to it, by delegating to itself until out of gas. Thus it is critical that this function revert if invoked through a proxy. This is guaranteed by the `notDelegated` modifier."
      },
      "renounceRole(bytes32,address)": {
        "details": "Revokes `role` from the calling account. Roles are often managed via {grantRole} and {revokeRole}: this function's purpose is to provide a mechanism for accounts to lose their privileges if they are compromised (such as when a trusted device is misplaced). If the calling account had been revoked `role`, emits a {RoleRevoked} event. Requirements: - the caller must be `account`. May emit a {RoleRevoked} event."
      },
      "revokeRole(bytes32,address)": {
        "details": "Revokes `role` from `account`. If `account` had been granted `role`, emits a {RoleRevoked} event. Requirements: - the caller must have ``role``'s admin role. May emit a {RoleRevoked} event."
      },
      "supportsInterface(bytes4)": {
        "details": "See {IERC165-supportsInterface}."
      },
      "upgradeTo(address)": {
        "details": "Upgrade the implementation of the proxy to `newImplementation`. Calls {_authorizeUpgrade}. Emits an {Upgraded} event."
      },
      "upgradeToAndCall(address,bytes)": {
        "details": "Upgrade the implementation of the proxy to `newImplementation`, and subsequently execute the function call encoded in `data`. Calls {_authorizeUpgrade}. Emits an {Upgraded} event."
      }
    },
    "version": 1
  },
  "userdoc": {
    "kind": "user",
    "methods": {},
    "version": 1
  }
}