{
  "contractName": "CarbonContractRegistry",
  "abi": [
    {
      "inputs": [],
      "stateMutability": "nonpayable",
      "type": "constructor"
    },
    {
      "anonymous": false,
      "inputs": [
        {
          "indexed": false,
          "internalType": "address",
          "name": "previousAdmin",
          "type": "address"
        },
        {
          "indexed": false,
          "internalType": "address",
          "name": "newAdmin",
          "type": "address"
        }
      ],
      "name": "AdminChanged",
      "type": "event"
    },
    {
      "anonymous": false,
      "inputs": [
        {
          "indexed": true,
          "internalType": "address",
          "name": "beaconAddress",
          "type": "address"
        },
        {
          "indexed": true,
          "internalType": "address",
          "name": "oldBeaconAddress",
          "type": "address"
        }
      ],
      "name": "BeaconSet",
      "type": "event"
    },
    {
      "anonymous": false,
      "inputs": [
        {
          "indexed": true,
          "internalType": "address",
          "name": "beacon",
          "type": "address"
        }
      ],
      "name": "BeaconUpgraded",
      "type": "event"
    },
    {
      "anonymous": false,
      "inputs": [
        {
          "indexed": false,
          "internalType": "uint8",
          "name": "version",
          "type": "uint8"
        }
      ],
      "name": "Initialized",
      "type": "event"
    },
    {
      "anonymous": false,
      "inputs": [
        {
          "indexed": false,
          "internalType": "address",
          "name": "account",
          "type": "address"
        }
      ],
      "name": "Paused",
      "type": "event"
    },
    {
      "anonymous": false,
      "inputs": [
        {
          "indexed": true,
          "internalType": "uint256",
          "name": "projectId",
          "type": "uint256"
        },
        {
          "indexed": true,
          "internalType": "address",
          "name": "projectAddress",
          "type": "address"
        },
        {
          "indexed": false,
          "internalType": "string",
          "name": "projectName",
          "type": "string"
        }
      ],
      "name": "ProjectCreated",
      "type": "event"
    },
    {
      "anonymous": false,
      "inputs": [
        {
          "indexed": true,
          "internalType": "address",
          "name": "projectFactoryAddress",
          "type": "address"
        },
        {
          "indexed": true,
          "internalType": "address",
          "name": "oldProjectFactoryAddress",
          "type": "address"
        }
      ],
      "name": "ProjectFactoryAddressSet",
      "type": "event"
    },
    {
      "anonymous": false,
      "inputs": [
        {
          "indexed": true,
          "internalType": "bytes32",
          "name": "role",
          "type": "bytes32"
        },
        {
          "indexed": true,
          "internalType": "bytes32",
          "name": "previousAdminRole",
          "type": "bytes32"
        },
        {
          "indexed": true,
          "internalType": "bytes32",
          "name": "newAdminRole",
          "type": "bytes32"
        }
      ],
      "name": "RoleAdminChanged",
      "type": "event"
    },
    {
      "anonymous": false,
      "inputs": [
        {
          "indexed": true,
          "internalType": "bytes32",
          "name": "role",
          "type": "bytes32"
        },
        {
          "indexed": true,
          "internalType": "address",
          "name": "account",
          "type": "address"
        },
        {
          "indexed": true,
          "internalType": "address",
          "name": "sender",
          "type": "address"
        }
      ],
      "name": "RoleGranted",
      "type": "event"
    },
    {
      "anonymous": false,
      "inputs": [
        {
          "indexed": true,
          "internalType": "bytes32",
          "name": "role",
          "type": "bytes32"
        },
        {
          "indexed": true,
          "internalType": "address",
          "name": "account",
          "type": "address"
        },
        {
          "indexed": true,
          "internalType": "address",
          "name": "sender",
          "type": "address"
        }
      ],
      "name": "RoleRevoked",
      "type": "event"
    },
    {
      "anonymous": false,
      "inputs": [
        {
          "indexed": false,
          "internalType": "string",
          "name": "serialization",
          "type": "string"
        },
        {
          "indexed": true,
          "internalType": "address",
          "name": "serializationProjectContractAddress",
          "type": "address"
        }
      ],
      "name": "SerializationAddressSet",
      "type": "event"
    },
    {
      "anonymous": false,
      "inputs": [
        {
          "indexed": true,
          "internalType": "address",
          "name": "tokenVaultBeaconAddress",
          "type": "address"
        },
        {
          "indexed": true,
          "internalType": "address",
          "name": "oldTokenVaultBeaconAddress",
          "type": "address"
        }
      ],
      "name": "TokenVaultBeaconSet",
      "type": "event"
    },
    {
      "anonymous": false,
      "inputs": [
        {
          "indexed": false,
          "internalType": "address",
          "name": "account",
          "type": "address"
        }
      ],
      "name": "Unpaused",
      "type": "event"
    },
    {
      "anonymous": false,
      "inputs": [
        {
          "indexed": true,
          "internalType": "address",
          "name": "implementation",
          "type": "address"
        }
      ],
      "name": "Upgraded",
      "type": "event"
    },
    {
      "anonymous": false,
      "inputs": [
        {
          "indexed": true,
          "internalType": "address",
          "name": "verifiedVaultAddress",
          "type": "address"
        },
        {
          "indexed": true,
          "internalType": "address",
          "name": "oldVerifiedVaultAddress",
          "type": "address"
        },
        {
          "indexed": true,
          "internalType": "uint256",
          "name": "id",
          "type": "uint256"
        }
      ],
      "name": "VerifiedVaultAddressSet",
      "type": "event"
    },
    {
      "inputs": [],
      "name": "DEFAULT_ADMIN_ROLE",
      "outputs": [
        {
          "internalType": "bytes32",
          "name": "",
          "type": "bytes32"
        }
      ],
      "stateMutability": "view",
      "type": "function"
    },
    {
      "inputs": [],
      "name": "PAUSER_ROLE",
      "outputs": [
        {
          "internalType": "bytes32",
          "name": "",
          "type": "bytes32"
        }
      ],
      "stateMutability": "view",
      "type": "function"
    },
    {
      "inputs": [],
      "name": "UPGRADER_ROLE",
      "outputs": [
        {
          "internalType": "bytes32",
          "name": "",
          "type": "bytes32"
        }
      ],
      "stateMutability": "view",
      "type": "function"
    },
    {
      "inputs": [
        {
          "internalType": "bytes32",
          "name": "role",
          "type": "bytes32"
        }
      ],
      "name": "getRoleAdmin",
      "outputs": [
        {
          "internalType": "bytes32",
          "name": "",
          "type": "bytes32"
        }
      ],
      "stateMutability": "view",
      "type": "function"
    },
    {
      "inputs": [
        {
          "internalType": "bytes32",
          "name": "role",
          "type": "bytes32"
        },
        {
          "internalType": "address",
          "name": "account",
          "type": "address"
        }
      ],
      "name": "grantRole",
      "outputs": [],
      "stateMutability": "nonpayable",
      "type": "function"
    },
    {
      "inputs": [
        {
          "internalType": "bytes32",
          "name": "role",
          "type": "bytes32"
        },
        {
          "internalType": "address",
          "name": "account",
          "type": "address"
        }
      ],
      "name": "hasRole",
      "outputs": [
        {
          "internalType": "bool",
          "name": "",
          "type": "bool"
        }
      ],
      "stateMutability": "view",
      "type": "function"
    },
    {
      "inputs": [],
      "name": "paused",
      "outputs": [
        {
          "internalType": "bool",
          "name": "",
          "type": "bool"
        }
      ],
      "stateMutability": "view",
      "type": "function"
    },
    {
      "inputs": [],
      "name": "proxiableUUID",
      "outputs": [
        {
          "internalType": "bytes32",
          "name": "",
          "type": "bytes32"
        }
      ],
      "stateMutability": "view",
      "type": "function"
    },
    {
      "inputs": [
        {
          "internalType": "bytes32",
          "name": "role",
          "type": "bytes32"
        },
        {
          "internalType": "address",
          "name": "account",
          "type": "address"
        }
      ],
      "name": "renounceRole",
      "outputs": [],
      "stateMutability": "nonpayable",
      "type": "function"
    },
    {
      "inputs": [
        {
          "internalType": "bytes32",
          "name": "role",
          "type": "bytes32"
        },
        {
          "internalType": "address",
          "name": "account",
          "type": "address"
        }
      ],
      "name": "revokeRole",
      "outputs": [],
      "stateMutability": "nonpayable",
      "type": "function"
    },
    {
      "inputs": [
        {
          "internalType": "bytes4",
          "name": "interfaceId",
          "type": "bytes4"
        }
      ],
      "name": "supportsInterface",
      "outputs": [
        {
          "internalType": "bool",
          "name": "",
          "type": "bool"
        }
      ],
      "stateMutability": "view",
      "type": "function"
    },
    {
      "inputs": [
        {
          "internalType": "address",
          "name": "newImplementation",
          "type": "address"
        }
      ],
      "name": "upgradeTo",
      "outputs": [],
      "stateMutability": "nonpayable",
      "type": "function"
    },
    {
      "inputs": [
        {
          "internalType": "address",
          "name": "newImplementation",
          "type": "address"
        },
        {
          "internalType": "bytes",
          "name": "data",
          "type": "bytes"
        }
      ],
      "name": "upgradeToAndCall",
      "outputs": [],
      "stateMutability": "payable",
      "type": "function"
    },
    {
      "inputs": [
        {
          "internalType": "address",
          "name": "beaconAddress",
          "type": "address"
        }
      ],
      "name": "initialize",
      "outputs": [],
      "stateMutability": "nonpayable",
      "type": "function"
    },
    {
      "inputs": [
        {
          "internalType": "uint256",
          "name": "_projectId",
          "type": "uint256"
        },
        {
          "internalType": "string",
          "name": "_projectName",
          "type": "string"
        }
      ],
      "name": "createProject",
      "outputs": [],
      "stateMutability": "nonpayable",
      "type": "function"
    },
    {
      "inputs": [],
      "name": "createNewVerifiedVault",
      "outputs": [],
      "stateMutability": "nonpayable",
      "type": "function"
    },
    {
      "inputs": [
        {
          "internalType": "string",
          "name": "serialization",
          "type": "string"
        }
      ],
      "name": "registerSerialization",
      "outputs": [],
      "stateMutability": "nonpayable",
      "type": "function"
    },
    {
      "inputs": [
        {
          "internalType": "address",
          "name": "beaconAddress",
          "type": "address"
        }
      ],
      "name": "setBeaconAddress",
      "outputs": [],
      "stateMutability": "nonpayable",
      "type": "function"
    },
    {
      "inputs": [
        {
          "internalType": "address",
          "name": "tokenVaultBeaconAddress",
          "type": "address"
        }
      ],
      "name": "setTokenVaultBeaconAddress",
      "outputs": [],
      "stateMutability": "nonpayable",
      "type": "function"
    },
    {
      "inputs": [],
      "name": "getTokenVaultBeaconAddress",
      "outputs": [
        {
          "internalType": "address",
          "name": "",
          "type": "address"
        }
      ],
      "stateMutability": "view",
      "type": "function"
    },
    {
      "inputs": [
        {
          "internalType": "uint256",
          "name": "id",
          "type": "uint256"
        }
      ],
      "name": "getVerifiedVaultAddress",
      "outputs": [
        {
          "internalType": "address",
          "name": "",
          "type": "address"
        }
      ],
      "stateMutability": "view",
      "type": "function"
    },
    {
      "inputs": [
        {
          "internalType": "string",
          "name": "serialization",
          "type": "string"
        }
      ],
      "name": "getSerializationAddress",
      "outputs": [
        {
          "internalType": "address",
          "name": "",
          "type": "address"
        }
      ],
      "stateMutability": "view",
      "type": "function"
    },
    {
      "inputs": [
        {
          "internalType": "uint256",
          "name": "projectId",
          "type": "uint256"
        }
      ],
      "name": "getProjectAddressFromId",
      "outputs": [
        {
          "internalType": "address",
          "name": "",
          "type": "address"
        }
      ],
      "stateMutability": "view",
      "type": "function"
    },
    {
      "inputs": [
        {
          "internalType": "address",
          "name": "projectAddress",
          "type": "address"
        }
      ],
      "name": "getProjectIdFromAddress",
      "outputs": [
        {
          "internalType": "uint256",
          "name": "",
          "type": "uint256"
        }
      ],
      "stateMutability": "view",
      "type": "function"
    },
    {
      "inputs": [],
      "name": "getBeaconAddress",
      "outputs": [
        {
          "internalType": "address",
          "name": "",
          "type": "address"
        }
      ],
      "stateMutability": "view",
      "type": "function"
    },
    {
      "inputs": [],
      "name": "pause",
      "outputs": [],
      "stateMutability": "nonpayable",
      "type": "function"
    },
    {
      "inputs": [],
      "name": "unpause",
      "outputs": [],
      "stateMutability": "nonpayable",
      "type": "function"
    }
  ],
  "bytecode": "0x60a06040523060805234801561001457600080fd5b5061001d610022565b6100e2565b600054610100900460ff161561008e5760405162461bcd60e51b815260206004820152602760248201527f496e697469616c697a61626c653a20636f6e747261637420697320696e697469604482015266616c697a696e6760c81b606482015260840160405180910390fd5b60005460ff90811610156100e0576000805460ff191660ff9081179091556040519081527f7f26b83ff96e1f2b6a682f133852f6798a09c465da95921460cefb38474024989060200160405180910390a15b565b608051612afc6200011a600039600081816107100152818161075301528181610a2101528181610a640152610afc0152612afc6000f3fe608060405260043610620001bd5760003560e01c806352d1902d11620000ff578063a217fddf1162000095578063c4d66de8116200006c578063c4d66de8146200053d578063d547741f1462000562578063e63ab1e91462000587578063f72c0d8b14620005ac57600080fd5b8063a217fddf14620004e9578063a8b584841462000500578063bf1a8003146200051857600080fd5b8063683adef911620000d6578063683adef9146200044c5780638456cb59146200048757806391d14854146200049f5780639213034414620004c457600080fd5b806352d1902d14620003f95780635c975abb14620004115780635d72115c146200042b57600080fd5b806336568abe116200017557806344d9d59b116200014c57806344d9d59b146200035d57806345e2309814620003825780634f1ef28614620003a75780634fcb7ea614620003be57600080fd5b806336568abe14620002fb5780633659cfe614620003205780633f4ba83a146200034557600080fd5b80629d4d7a14620001c257806301ffc9a714620001fb578063144e3b1314620002315780631a654ace1462000256578063248a9ca314620002a05780632f2ff15d14620002d4575b600080fd5b348015620001cf57600080fd5b5061012e546001600160a01b03165b6040516001600160a01b0390911681526020015b60405180910390f35b3480156200020857600080fd5b50620002206200021a36600462001b4a565b620005e2565b6040519015158152602001620001f2565b3480156200023e57600080fd5b50620001de6200025036600462001bc2565b6200061a565b3480156200026357600080fd5b50620002916200027536600462001c25565b6001600160a01b03166000908152610131602052604090205490565b604051908152602001620001f2565b348015620002ad57600080fd5b5062000291620002bf36600462001c43565b60009081526097602052604090206001015490565b348015620002e157600080fd5b50620002f9620002f336600462001c5d565b62000652565b005b3480156200030857600080fd5b50620002f96200031a36600462001c5d565b62000680565b3480156200032d57600080fd5b50620002f96200033f36600462001c25565b62000706565b3480156200035257600080fd5b50620002f9620007f1565b3480156200036a57600080fd5b50620002f96200037c36600462001bc2565b62000816565b3480156200038f57600080fd5b50620002f9620003a136600462001c25565b620009bc565b620002f9620003b836600462001ca2565b62000a17565b348015620003cb57600080fd5b50620001de620003dd36600462001c43565b600090815261013060205260409020546001600160a01b031690565b3480156200040657600080fd5b506200029162000aef565b3480156200041e57600080fd5b5060335460ff1662000220565b3480156200043857600080fd5b50610133546001600160a01b0316620001de565b3480156200045957600080fd5b50620001de6200046b36600462001c43565b600090815261013460205260409020546001600160a01b031690565b3480156200049457600080fd5b50620002f962000ba5565b348015620004ac57600080fd5b5062000220620004be36600462001c5d565b62000bca565b348015620004d157600080fd5b50620002f9620004e336600462001c25565b62000bf5565b348015620004f657600080fd5b5062000291600081565b3480156200050d57600080fd5b50620002f962000c50565b3480156200052557600080fd5b50620002f96200053736600462001d70565b62000de7565b3480156200054a57600080fd5b50620002f96200055c36600462001c25565b62000fad565b3480156200056f57600080fd5b50620002f96200058136600462001c5d565b6200114b565b3480156200059457600080fd5b506200029160008051602062002a5683398151915281565b348015620005b957600080fd5b50620002917f189ab7a9244df0848122154315af71fe140f3db0fe014031783b0946b8c9d2e381565b60006001600160e01b03198216637965db0b60e01b14806200061457506301ffc9a760e01b6001600160e01b03198316145b92915050565b600061012f83836040516200063192919062001dc0565b908152604051908190036020019020546001600160a01b0316905092915050565b6000828152609760205260409020600101546200066f8162001174565b6200067b838362001180565b505050565b6001600160a01b0381163314620006f65760405162461bcd60e51b815260206004820152602f60248201527f416363657373436f6e74726f6c3a2063616e206f6e6c792072656e6f756e636560448201526e103937b632b9903337b91039b2b63360891b60648201526084015b60405180910390fd5b6200070282826200120a565b5050565b6001600160a01b037f0000000000000000000000000000000000000000000000000000000000000000163003620007515760405162461bcd60e51b8152600401620006ed9062001dd0565b7f00000000000000000000000000000000000000000000000000000000000000006001600160a01b03166200079c60008051602062002a36833981519152546001600160a01b031690565b6001600160a01b031614620007c55760405162461bcd60e51b8152600401620006ed9062001e1c565b620007d08162001274565b60408051600080825260208201909252620007ee91839190620012a0565b50565b60008051602062002a568339815191526200080c8162001174565b620007ee62001418565b620008206200146c565b33600090815261013160205260409020541515806200084757506200084760003362000bca565b620008af5760405162461bcd60e51b815260206004820152603160248201527f4f6e6c7920436172626f6e526567697374727950726f6a6563742063616e206360448201527030b636103a3434b990333ab731ba34b7b760791b6064820152608401620006ed565b60006001600160a01b031661012f8383604051620008cf92919062001dc0565b908152604051908190036020019020546001600160a01b031614620009375760405162461bcd60e51b815260206004820152601c60248201527f53657269616c697a6174696f6e20616c726561647920657869737473000000006044820152606401620006ed565b3361012f83836040516200094d92919062001dc0565b90815260405190819003602001812080546001600160a01b03939093166001600160a01b03199093169290921790915533907ff874c248792a4caa5cd732177a71454e2e4018dcf91bd3f5b57c594e9e07191990620009b0908590859062001e91565b60405180910390a25050565b6000620009c98162001174565b61013380546001600160a01b0319166001600160a01b03841690811790915560405181907f0bff775d45ab9c48066d1903cf52f92c9258b2a3f0b30f0ac7fab644aaa8c73f90600090a35050565b6001600160a01b037f000000000000000000000000000000000000000000000000000000000000000016300362000a625760405162461bcd60e51b8152600401620006ed9062001dd0565b7f00000000000000000000000000000000000000000000000000000000000000006001600160a01b031662000aad60008051602062002a36833981519152546001600160a01b031690565b6001600160a01b03161462000ad65760405162461bcd60e51b8152600401620006ed9062001e1c565b62000ae18262001274565b6200070282826001620012a0565b6000306001600160a01b037f0000000000000000000000000000000000000000000000000000000000000000161462000b915760405162461bcd60e51b815260206004820152603860248201527f555550535570677261646561626c653a206d757374206e6f742062652063616c60448201527f6c6564207468726f7567682064656c656761746563616c6c00000000000000006064820152608401620006ed565b5060008051602062002a3683398151915290565b60008051602062002a5683398151915262000bc08162001174565b620007ee620014b6565b60009182526097602090815260408084206001600160a01b0393909316845291905290205460ff1690565b600062000c028162001174565b61012e80546001600160a01b0319166001600160a01b03841690811790915560405181907f0282ad3fa3df8509e42308da45d565e159bfdbae259b381d419be67d4971b22b90600090a35050565b600062000c5d8162001174565b6040805180820182526013815272696e697469616c697a6528616464726573732960681b60208201529051336024820152600090829060440160408051601f19818403018152908290529162000cb39162001ede565b60408051918290039091206020830180516001600160e01b03166001600160e01b03199092169190911790526101335490519192506000916001600160a01b0390911690839062000d049062001b3c565b62000d1192919062001f2a565b604051809103906000f08015801562000d2e573d6000803e3d6000fd5b5061013280546001908101808355600090815261013460208190526040822080546001600160a01b0319166001600160a01b03871617905592549394509062000d78908462001f66565b81526020810191909152604090810160009081205491516001600160a01b03928316928516917f730d532f453d2e36bcaf7323260bb2b1bf4234cd8c4a93be0a46d56ebb827c2691a461012d80546001600160a01b0319166001600160a01b0392909216919091179055505050565b62000df16200146c565b600062000dfe8162001174565b8360000362000e485760405162461bcd60e51b8152602060048201526015602482015274050726f6a65637449642063616e6e6f74206265203605c1b6044820152606401620006ed565b600084815261013060205260409020546001600160a01b03161562000eb05760405162461bcd60e51b815260206004820152601860248201527f50726f6a656374496420616c72656164792065786973747300000000000000006044820152606401620006ed565b600062000ebf858585620014f6565b6001600160a01b038116600090815261013160205260409020549091501562000f2b5760405162461bcd60e51b815260206004820152601d60248201527f50726f6a6563744164647265737320616c7265616479206578697374730000006044820152606401620006ed565b60008581526101306020908152604080832080546001600160a01b0319166001600160a01b03861690811790915580845261013190925291829020879055905186907f9d9ec461f162f3f4fdb9f6d189bfe13c59e48d8acd23a4c3bfcf7cc0fe4e84ed9062000f9e908890889062001e91565b60405180910390a35050505050565b600054610100900460ff161580801562000fce5750600054600160ff909116105b8062000fea5750303b15801562000fea575060005460ff166001145b6200104f5760405162461bcd60e51b815260206004820152602e60248201527f496e697469616c697a61626c653a20636f6e747261637420697320616c72656160448201526d191e481a5b9a5d1a585b1a5e995960921b6064820152608401620006ed565b6000805460ff19166001179055801562001073576000805461ff0019166101001790555b6200107d620015d9565b620010876200160d565b620010916200160d565b6200109e60003362001180565b620010ca7f189ab7a9244df0848122154315af71fe140f3db0fe014031783b0946b8c9d2e33362001180565b620010e560008051602062002a568339815191523362001180565b61012e80546001600160a01b0319166001600160a01b038416179055801562000702576000805461ff0019169055604051600181527f7f26b83ff96e1f2b6a682f133852f6798a09c465da95921460cefb38474024989060200160405180910390a15050565b600082815260976020526040902060010154620011688162001174565b6200067b83836200120a565b620007ee813362001637565b6200118c828262000bca565b620007025760008281526097602090815260408083206001600160a01b03851684529091529020805460ff19166001179055620011c63390565b6001600160a01b0316816001600160a01b0316837f2f8788117e7eff1d82e926ec794901d17c78024a50270940304540a733656f0d60405160405180910390a45050565b62001216828262000bca565b15620007025760008281526097602090815260408083206001600160a01b0385168085529252808320805460ff1916905551339285917ff6391f5c32d9c69d2a47ea670b442974b53935d1edc7fd64eb21e047a839171b9190a45050565b7f189ab7a9244df0848122154315af71fe140f3db0fe014031783b0946b8c9d2e3620007028162001174565b7f4910fdfa16fed3260ed0e7147f7cc6da11a60208b5b9406d12a635614ffd91435460ff1615620012d6576200067b836200169b565b826001600160a01b03166352d1902d6040518163ffffffff1660e01b8152600401602060405180830381865afa92505050801562001333575060408051601f3d908101601f19168201909252620013309181019062001f80565b60015b620013985760405162461bcd60e51b815260206004820152602e60248201527f45524331393637557067726164653a206e657720696d706c656d656e7461746960448201526d6f6e206973206e6f74205555505360901b6064820152608401620006ed565b60008051602062002a3683398151915281146200140a5760405162461bcd60e51b815260206004820152602960248201527f45524331393637557067726164653a20756e737570706f727465642070726f786044820152681a58589b195555525160ba1b6064820152608401620006ed565b506200067b8383836200173a565b620014226200176b565b6033805460ff191690557f5db9ee0a495bf2e6ff9c91a7834c1ba4fdd244a5e8aa4e537bd38aeae4b073aa335b6040516001600160a01b03909116815260200160405180910390a1565b60335460ff1615620014b45760405162461bcd60e51b815260206004820152601060248201526f14185d5cd8589b194e881c185d5cd95960821b6044820152606401620006ed565b565b620014c06200146c565b6033805460ff191660011790557f62e78cea01bee320cd4e420270b5ea74000d11b0c9f74754ebdbfc544b05a2586200144f3390565b6000806040518060600160405280602a815260200162002a9d602a9139905060008130338888886040516024016200153395949392919062001f9a565b60408051601f198184030181529082905291620015509162001ede565b60408051918290039091206020830180516001600160e01b03166001600160e01b031990921691909117905261012e5490519192506000916001600160a01b03909116908390620015a19062001b3c565b620015ae92919062001f2a565b604051809103906000f080158015620015cb573d6000803e3d6000fd5b5093505050505b9392505050565b600054610100900460ff16620016035760405162461bcd60e51b8152600401620006ed9062001fdb565b620014b4620017b6565b600054610100900460ff16620014b45760405162461bcd60e51b8152600401620006ed9062001fdb565b62001643828262000bca565b62000702576200165381620017ec565b62001660836020620017ff565b6040516020016200167392919062002026565b60408051601f198184030181529082905262461bcd60e51b8252620006ed916004016200209f565b6001600160a01b0381163b6200170a5760405162461bcd60e51b815260206004820152602d60248201527f455243313936373a206e657720696d706c656d656e746174696f6e206973206e60448201526c1bdd08184818dbdb9d1c9858dd609a1b6064820152608401620006ed565b60008051602062002a3683398151915280546001600160a01b0319166001600160a01b0392909216919091179055565b6200174583620019b9565b600082511180620017535750805b156200067b57620017658383620019fb565b50505050565b60335460ff16620014b45760405162461bcd60e51b815260206004820152601460248201527314185d5cd8589b194e881b9bdd081c185d5cd95960621b6044820152606401620006ed565b600054610100900460ff16620017e05760405162461bcd60e51b8152600401620006ed9062001fdb565b6033805460ff19169055565b6060620006146001600160a01b03831660145b6060600062001810836002620020b4565b6200181d906002620020d6565b67ffffffffffffffff81111562001838576200183862001c8c565b6040519080825280601f01601f19166020018201604052801562001863576020820181803683370190505b509050600360fc1b81600081518110620018815762001881620020f1565b60200101906001600160f81b031916908160001a905350600f60fb1b81600181518110620018b357620018b3620020f1565b60200101906001600160f81b031916908160001a9053506000620018d9846002620020b4565b620018e6906001620020d6565b90505b600181111562001968576f181899199a1a9b1b9c1cb0b131b232b360811b85600f16601081106200191e576200191e620020f1565b1a60f81b828281518110620019375762001937620020f1565b60200101906001600160f81b031916908160001a90535060049490941c93620019608162002107565b9050620018e9565b508315620015d25760405162461bcd60e51b815260206004820181905260248201527f537472696e67733a20686578206c656e67746820696e73756666696369656e746044820152606401620006ed565b620019c4816200169b565b6040516001600160a01b038216907fbc7cd75a20ee27fd9adebab32041f755214dbc6bffa90cc0225b39da2e5c2d3b90600090a250565b60606001600160a01b0383163b62001a655760405162461bcd60e51b815260206004820152602660248201527f416464726573733a2064656c65676174652063616c6c20746f206e6f6e2d636f6044820152651b9d1c9858dd60d21b6064820152608401620006ed565b600080846001600160a01b03168460405162001a82919062001ede565b600060405180830381855af49150503d806000811462001abf576040519150601f19603f3d011682016040523d82523d6000602084013e62001ac4565b606091505b509150915062001aef828260405180606001604052806027815260200162002a766027913962001af8565b95945050505050565b6060831562001b09575081620015d2565b620015d2838381511562001b205781518083602001fd5b8060405162461bcd60e51b8152600401620006ed91906200209f565b610914806200212283390190565b60006020828403121562001b5d57600080fd5b81356001600160e01b031981168114620015d257600080fd5b60008083601f84011262001b8957600080fd5b50813567ffffffffffffffff81111562001ba257600080fd5b60208301915083602082850101111562001bbb57600080fd5b9250929050565b6000806020838503121562001bd657600080fd5b823567ffffffffffffffff81111562001bee57600080fd5b62001bfc8582860162001b76565b90969095509350505050565b80356001600160a01b038116811462001c2057600080fd5b919050565b60006020828403121562001c3857600080fd5b620015d28262001c08565b60006020828403121562001c5657600080fd5b5035919050565b6000806040838503121562001c7157600080fd5b8235915062001c836020840162001c08565b90509250929050565b634e487b7160e01b600052604160045260246000fd5b6000806040838503121562001cb657600080fd5b62001cc18362001c08565b9150602083013567ffffffffffffffff8082111562001cdf57600080fd5b818501915085601f83011262001cf457600080fd5b81358181111562001d095762001d0962001c8c565b604051601f8201601f19908116603f0116810190838211818310171562001d345762001d3462001c8c565b8160405282815288602084870101111562001d4e57600080fd5b8260208601602083013760006020848301015280955050505050509250929050565b60008060006040848603121562001d8657600080fd5b83359250602084013567ffffffffffffffff81111562001da557600080fd5b62001db38682870162001b76565b9497909650939450505050565b8183823760009101908152919050565b6020808252602c908201527f46756e6374696f6e206d7573742062652063616c6c6564207468726f7567682060408201526b19195b1959d85d1958d85b1b60a21b606082015260800190565b6020808252602c908201527f46756e6374696f6e206d7573742062652063616c6c6564207468726f7567682060408201526b6163746976652070726f787960a01b606082015260800190565b81835281816020850137506000828201602090810191909152601f909101601f19169091010190565b60208152600062001ea760208301848662001e68565b949350505050565b60005b8381101562001ecc57818101518382015260200162001eb2565b83811115620017655750506000910152565b6000825162001ef281846020870162001eaf565b9190910192915050565b6000815180845262001f1681602086016020860162001eaf565b601f01601f19169290920160200192915050565b6001600160a01b038316815260406020820181905260009062001ea79083018462001efc565b634e487b7160e01b600052601160045260246000fd5b60008282101562001f7b5762001f7b62001f50565b500390565b60006020828403121562001f9357600080fd5b5051919050565b6001600160a01b038681168252851660208201526040810184905260806060820181905260009062001fd0908301848662001e68565b979650505050505050565b6020808252602b908201527f496e697469616c697a61626c653a20636f6e7472616374206973206e6f74206960408201526a6e697469616c697a696e6760a81b606082015260800190565b7f416363657373436f6e74726f6c3a206163636f756e74200000000000000000008152600083516200206081601785016020880162001eaf565b7001034b99036b4b9b9b4b733903937b6329607d1b60179184019182015283516200209381602884016020880162001eaf565b01602801949350505050565b602081526000620015d2602083018462001efc565b6000816000190483118215151615620020d157620020d162001f50565b500290565b60008219821115620020ec57620020ec62001f50565b500190565b634e487b7160e01b600052603260045260246000fd5b60008162002119576200211962001f50565b50600019019056fe608060405260405161091438038061091483398101604081905261002291610463565b61002e82826000610035565b505061058d565b61003e83610100565b6040516001600160a01b038416907f1cf3b03a6cf19fa2baba4df148e9dcabedea7f8a5c07840e207e5c089be95d3e90600090a260008251118061007f5750805b156100fb576100f9836001600160a01b0316635c60da1b6040518163ffffffff1660e01b8152600401602060405180830381865afa1580156100c5573d6000803e3d6000fd5b505050506040513d601f19601f820116820180604052508101906100e99190610523565b836102a360201b6100291760201c565b505b505050565b610113816102cf60201b6100551760201c565b6101725760405162461bcd60e51b815260206004820152602560248201527f455243313936373a206e657720626561636f6e206973206e6f74206120636f6e6044820152641d1c9858dd60da1b60648201526084015b60405180910390fd5b6101e6816001600160a01b0316635c60da1b6040518163ffffffff1660e01b8152600401602060405180830381865afa1580156101b3573d6000803e3d6000fd5b505050506040513d601f19601f820116820180604052508101906101d79190610523565b6102cf60201b6100551760201c565b61024b5760405162461bcd60e51b815260206004820152603060248201527f455243313936373a20626561636f6e20696d706c656d656e746174696f6e206960448201526f1cc81b9bdd08184818dbdb9d1c9858dd60821b6064820152608401610169565b806102827fa3f0ad74e5423aebfd80d3ef4346578335a9a72aeaee59ff6cb3582b35133d5060001b6102de60201b6100641760201c565b80546001600160a01b0319166001600160a01b039290921691909117905550565b60606102c883836040518060600160405280602781526020016108ed602791396102e1565b9392505050565b6001600160a01b03163b151590565b90565b6060600080856001600160a01b0316856040516102fe919061053e565b600060405180830381855af49150503d8060008114610339576040519150601f19603f3d011682016040523d82523d6000602084013e61033e565b606091505b5090925090506103508683838761035a565b9695505050505050565b606083156103c95782516000036103c2576001600160a01b0385163b6103c25760405162461bcd60e51b815260206004820152601d60248201527f416464726573733a2063616c6c20746f206e6f6e2d636f6e74726163740000006044820152606401610169565b50816103d3565b6103d383836103db565b949350505050565b8151156103eb5781518083602001fd5b8060405162461bcd60e51b8152600401610169919061055a565b80516001600160a01b038116811461041c57600080fd5b919050565b634e487b7160e01b600052604160045260246000fd5b60005b8381101561045257818101518382015260200161043a565b838111156100f95750506000910152565b6000806040838503121561047657600080fd5b61047f83610405565b60208401519092506001600160401b038082111561049c57600080fd5b818501915085601f8301126104b057600080fd5b8151818111156104c2576104c2610421565b604051601f8201601f19908116603f011681019083821181831017156104ea576104ea610421565b8160405282815288602084870101111561050357600080fd5b610514836020830160208801610437565b80955050505050509250929050565b60006020828403121561053557600080fd5b6102c882610405565b60008251610550818460208701610437565b9190910192915050565b6020815260008251806020840152610579816040850160208701610437565b601f01601f19169190910160400192915050565b6103518061059c6000396000f3fe60806040523661001357610011610017565b005b6100115b610027610022610067565b610100565b565b606061004e83836040518060600160405280602781526020016102f560279139610124565b9392505050565b6001600160a01b03163b151590565b90565b600061009a7fa3f0ad74e5423aebfd80d3ef4346578335a9a72aeaee59ff6cb3582b35133d50546001600160a01b031690565b6001600160a01b0316635c60da1b6040518163ffffffff1660e01b8152600401602060405180830381865afa1580156100d7573d6000803e3d6000fd5b505050506040513d601f19601f820116820180604052508101906100fb919061024c565b905090565b3660008037600080366000845af43d6000803e80801561011f573d6000f35b3d6000fd5b6060600080856001600160a01b03168560405161014191906102a5565b600060405180830381855af49150503d806000811461017c576040519150601f19603f3d011682016040523d82523d6000602084013e610181565b606091505b50915091506101928683838761019c565b9695505050505050565b60608315610210578251600003610209576001600160a01b0385163b6102095760405162461bcd60e51b815260206004820152601d60248201527f416464726573733a2063616c6c20746f206e6f6e2d636f6e747261637400000060448201526064015b60405180910390fd5b508161021a565b61021a8383610222565b949350505050565b8151156102325781518083602001fd5b8060405162461bcd60e51b815260040161020091906102c1565b60006020828403121561025e57600080fd5b81516001600160a01b038116811461004e57600080fd5b60005b83811015610290578181015183820152602001610278565b8381111561029f576000848401525b50505050565b600082516102b7818460208701610275565b9190910192915050565b60208152600082518060208401526102e0816040850160208701610275565b601f01601f1916919091016040019291505056fe416464726573733a206c6f772d6c6576656c2064656c65676174652063616c6c206661696c6564a2646970667358221220ecb3bb9e73c56f687a41c0ff27ac2f701e0f344f1a1a2f7bf931d7a84f5c21c364736f6c634300080d0033416464726573733a206c6f772d6c6576656c2064656c65676174652063616c6c206661696c6564360894a13ba1a3210667c828492db98dca3e2076cc3735a920a3ca505d382bbc65d7a28e3265b37a6474929f336521b332c1681b933f6cb9f3376673440d862a416464726573733a206c6f772d6c6576656c2064656c65676174652063616c6c206661696c6564696e697469616c697a6528616464726573732c616464726573732c75696e743235362c737472696e6729a26469706673582212202e0d41c964725919d1ef1c4db2c2d926ffbcac9e96e9add401f659d8f1dd03e364736f6c634300080d0033",
  "immutableReferences": {
    "997": [
      {
        "length": 32,
        "start": 1808
      },
      {
        "length": 32,
        "start": 1875
      },
      {
        "length": 32,
        "start": 2593
      },
      {
        "length": 32,
        "start": 2660
      },
      {
        "length": 32,
        "start": 2812
      }
    ]
  },
  "source": "// SPDX-License-Identifier: MIT\npragma solidity ^0.8.13;\n\nimport '@openzeppelin/contracts-upgradeable/access/AccessControlUpgradeable.sol';\nimport '@openzeppelin/contracts-upgradeable/proxy/utils/Initializable.sol';\nimport '@openzeppelin/contracts-upgradeable/proxy/utils/UUPSUpgradeable.sol';\nimport '@openzeppelin/contracts/proxy/beacon/BeaconProxy.sol';\nimport '@openzeppelin/contracts-upgradeable/security/PausableUpgradeable.sol';\n\nimport './CarbonContractRegistryStorage.sol';\nimport './interfaces/ICarbonContractRegistry.sol';\n\ncontract CarbonContractRegistry is\n\tInitializable,\n\tPausableUpgradeable,\n\tAccessControlUpgradeable,\n\tUUPSUpgradeable,\n\tICarbonContractRegistry,\n\tCarbonContractRegistryStorage\n{\n\tbytes32 public constant PAUSER_ROLE = keccak256('PAUSER_ROLE');\n\tbytes32 public constant UPGRADER_ROLE = keccak256('UPGRADER_ROLE');\n\n\tevent VerifiedVaultAddressSet(\n\t\taddress indexed verifiedVaultAddress,\n\t\taddress indexed oldVerifiedVaultAddress,\n\t\tuint256 indexed id\n\t);\n\tevent SerializationAddressSet(\n\t\tstring serialization,\n\t\taddress indexed serializationProjectContractAddress\n\t);\n\tevent ProjectFactoryAddressSet(\n\t\taddress indexed projectFactoryAddress,\n\t\taddress indexed oldProjectFactoryAddress\n\t);\n\tevent BeaconSet(\n\t\taddress indexed beaconAddress,\n\t\taddress indexed oldBeaconAddress\n\t);\n\tevent TokenVaultBeaconSet(\n\t\taddress indexed tokenVaultBeaconAddress,\n\t\taddress indexed oldTokenVaultBeaconAddress\n\t);\n\tevent ProjectCreated(\n\t\tuint256 indexed projectId,\n\t\taddress indexed projectAddress,\n\t\tstring projectName\n\t);\n\n\t/// @custom:oz-upgrades-unsafe-allow constructor\n\tconstructor() {\n\t\t_disableInitializers();\n\t}\n\n\tfunction initialize(address beaconAddress) public initializer {\n\t\t__Pausable_init();\n\t\t__AccessControl_init();\n\t\t__UUPSUpgradeable_init();\n\n\t\t_grantRole(DEFAULT_ADMIN_ROLE, msg.sender);\n\t\t_grantRole(UPGRADER_ROLE, msg.sender);\n\t\t_grantRole(PAUSER_ROLE, msg.sender);\n\n\t\t_projectBeaconAddress = beaconAddress;\n\t}\n\n\tmodifier onlyCarbonRegistryProjects() {\n\t\trequire(\n\t\t\t_addressToProjectIdMapping[msg.sender] != 0 ||\n\t\t\t\thasRole(DEFAULT_ADMIN_ROLE, msg.sender),\n\t\t\t'Only CarbonRegistryProject can call this function'\n\t\t);\n\t\t_;\n\t}\n\n\tfunction createProject(\n\t\tuint256 _projectId,\n\t\tstring calldata _projectName\n\t) external whenNotPaused onlyRole(DEFAULT_ADMIN_ROLE) {\n\t\trequire(_projectId != 0, 'ProjectId cannot be 0');\n\t\trequire(\n\t\t\t_projectIdToAddressMapping[_projectId] == address(0),\n\t\t\t'ProjectId already exists'\n\t\t);\n\n\t\taddress projectAddress = _createProject(_projectId, _projectName);\n\n\t\trequire(\n\t\t\t_addressToProjectIdMapping[projectAddress] == 0,\n\t\t\t'ProjectAddress already exists'\n\t\t);\n\t\t_projectIdToAddressMapping[_projectId] = projectAddress;\n\t\t_addressToProjectIdMapping[projectAddress] = _projectId;\n\t\temit ProjectCreated(_projectId, projectAddress, _projectName);\n\t}\n\n\tfunction _createProject(\n\t\tuint256 _projectId,\n\t\tstring calldata _projectName\n\t) internal returns (address) {\n\t\t/// @dev generate payload for initialize function\n\t\tstring memory signature = 'initialize(address,address,uint256,string)';\n\t\tbytes memory payload = abi.encodeWithSignature(\n\t\t\tsignature,\n\t\t\taddress(this),\n\t\t\tmsg.sender,\n\t\t\t_projectId,\n\t\t\t_projectName\n\t\t);\n\n\t\taddress projectAddress = address(\n\t\t\tnew BeaconProxy(_projectBeaconAddress, payload)\n\t\t);\n\t\treturn projectAddress;\n\t}\n\n\t// ----------------------------------\n\t//              SETTERS\n\t// ----------------------------------\n\n\tfunction createNewVerifiedVault() external override onlyRole(DEFAULT_ADMIN_ROLE) {\n\t\t\t\t/// @dev generate payload for initialize function\n\t\tstring memory signature = 'initialize(address)';\n\t\tbytes memory payload = abi.encodeWithSignature(\n\t\t\tsignature,\n\t\t\tmsg.sender\n\t\t);\n\n\t\taddress verifiedVaultAddress = address(\n\t\t\tnew BeaconProxy(_tokenVaultBeaconAddress, payload)\n\t\t);\n\n\t\tunchecked {\n\t\t\t_verifiedVaultCounter += 1;\n\t\t}\n\t\t_verifiedVaultMapping[_verifiedVaultCounter] = verifiedVaultAddress;\n\t\t\t\temit VerifiedVaultAddressSet(\n\t\t\tverifiedVaultAddress,\n\t\t\t_verifiedVaultMapping[_verifiedVaultCounter - 1],\n\t\t\t_verifiedVaultCounter\n\t\t);\n\t\t_verifiedVaultAddress = verifiedVaultAddress;\n\t}\n\n\tfunction registerSerialization(\n\t\tstring calldata serialization\n\t) external override whenNotPaused onlyCarbonRegistryProjects {\n\t\trequire(\n\t\t\t_serializationAddressMapping[serialization] == address(0),\n\t\t\t'Serialization already exists'\n\t\t);\n\t\t_serializationAddressMapping[serialization] = msg.sender;\n\t\temit SerializationAddressSet(serialization, msg.sender);\n\t}\n\n\tfunction setBeaconAddress(\n\t\taddress beaconAddress\n\t) external override onlyRole(DEFAULT_ADMIN_ROLE) {\n\t\t_projectBeaconAddress = beaconAddress;\n\t\temit BeaconSet(beaconAddress, _projectBeaconAddress);\n\t}\n\n\t    function setTokenVaultBeaconAddress(address tokenVaultBeaconAddress) external override onlyRole(DEFAULT_ADMIN_ROLE) {\n\t\t_tokenVaultBeaconAddress = tokenVaultBeaconAddress;\n\t\temit TokenVaultBeaconSet(tokenVaultBeaconAddress, _tokenVaultBeaconAddress);\n\t\t}\n\n\n\t// ----------------------------------\n\t//              GETTERS\n\t// ----------------------------------\n\nfunction getTokenVaultBeaconAddress() external view override returns (address) {\n\t\treturn _tokenVaultBeaconAddress;\n\t}\n\tfunction getVerifiedVaultAddress(uint256 id)\n\t\texternal\n\t\tview\n\t\toverride\n\t\treturns (address)\n\t{\n\t\treturn _verifiedVaultMapping[id];\n\t}\n\n\tfunction getSerializationAddress(\n\t\tstring calldata serialization\n\t) external view override returns (address) {\n\t\treturn _serializationAddressMapping[serialization];\n\t}\n\n\tfunction getProjectAddressFromId(\n\t\tuint256 projectId\n\t) external view override returns (address) {\n\t\treturn _projectIdToAddressMapping[projectId];\n\t}\n\n\tfunction getProjectIdFromAddress(\n\t\taddress projectAddress\n\t) external view override returns (uint256) {\n\t\treturn _addressToProjectIdMapping[projectAddress];\n\t}\n\n\tfunction getBeaconAddress() external view override returns (address) {\n\t\treturn _projectBeaconAddress;\n\t}\n\n\tfunction _authorizeUpgrade(\n\t\taddress newImplementation\n\t) internal override onlyRole(UPGRADER_ROLE) {}\n\n\tfunction pause() public onlyRole(PAUSER_ROLE) {\n\t\t_pause();\n\t}\n\n\tfunction unpause() public onlyRole(PAUSER_ROLE) {\n\t\t_unpause();\n\t}\n}\n",
  "sourcePath": "/Users/thorduragustsson/Programming/Projects/CarbonRegistryContracts/contracts/CarbonContractRegistry.sol",
  "compiler": {
    "name": "solc",
    "version": "0.8.13+commit.abaa5c0e.Emscripten.clang"
  },
  "schemaVersion": "3.4.13",
  "updatedAt": "2023-04-20T16:48:35.999Z",
  "devdoc": {
    "kind": "dev",
    "methods": {
      "constructor": {
        "custom:oz-upgrades-unsafe-allow": "constructor"
      },
      "getRoleAdmin(bytes32)": {
        "details": "Returns the admin role that controls `role`. See {grantRole} and {revokeRole}. To change a role's admin, use {_setRoleAdmin}."
      },
      "grantRole(bytes32,address)": {
        "details": "Grants `role` to `account`. If `account` had not been already granted `role`, emits a {RoleGranted} event. Requirements: - the caller must have ``role``'s admin role. May emit a {RoleGranted} event."
      },
      "hasRole(bytes32,address)": {
        "details": "Returns `true` if `account` has been granted `role`."
      },
      "paused()": {
        "details": "Returns true if the contract is paused, and false otherwise."
      },
      "proxiableUUID()": {
        "details": "Implementation of the ERC1822 {proxiableUUID} function. This returns the storage slot used by the implementation. It is used to validate the implementation's compatibility when performing an upgrade. IMPORTANT: A proxy pointing at a proxiable contract should not be considered proxiable itself, because this risks bricking a proxy that upgrades to it, by delegating to itself until out of gas. Thus it is critical that this function revert if invoked through a proxy. This is guaranteed by the `notDelegated` modifier."
      },
      "renounceRole(bytes32,address)": {
        "details": "Revokes `role` from the calling account. Roles are often managed via {grantRole} and {revokeRole}: this function's purpose is to provide a mechanism for accounts to lose their privileges if they are compromised (such as when a trusted device is misplaced). If the calling account had been revoked `role`, emits a {RoleRevoked} event. Requirements: - the caller must be `account`. May emit a {RoleRevoked} event."
      },
      "revokeRole(bytes32,address)": {
        "details": "Revokes `role` from `account`. If `account` had been granted `role`, emits a {RoleRevoked} event. Requirements: - the caller must have ``role``'s admin role. May emit a {RoleRevoked} event."
      },
      "supportsInterface(bytes4)": {
        "details": "See {IERC165-supportsInterface}."
      },
      "upgradeTo(address)": {
        "details": "Upgrade the implementation of the proxy to `newImplementation`. Calls {_authorizeUpgrade}. Emits an {Upgraded} event."
      },
      "upgradeToAndCall(address,bytes)": {
        "details": "Upgrade the implementation of the proxy to `newImplementation`, and subsequently execute the function call encoded in `data`. Calls {_authorizeUpgrade}. Emits an {Upgraded} event."
      }
    },
    "version": 1
  },
  "userdoc": {
    "kind": "user",
    "methods": {},
    "version": 1
  }
}