{
  "contractName": "CarbonContractRegistry",
  "abi": [
    {
      "inputs": [],
      "stateMutability": "nonpayable",
      "type": "constructor"
    },
    {
      "anonymous": false,
      "inputs": [
        {
          "indexed": false,
          "internalType": "address",
          "name": "previousAdmin",
          "type": "address"
        },
        {
          "indexed": false,
          "internalType": "address",
          "name": "newAdmin",
          "type": "address"
        }
      ],
      "name": "AdminChanged",
      "type": "event"
    },
    {
      "anonymous": false,
      "inputs": [
        {
          "indexed": true,
          "internalType": "address",
          "name": "beaconAddress",
          "type": "address"
        },
        {
          "indexed": true,
          "internalType": "address",
          "name": "oldBeaconAddress",
          "type": "address"
        }
      ],
      "name": "BeaconSet",
      "type": "event"
    },
    {
      "anonymous": false,
      "inputs": [
        {
          "indexed": true,
          "internalType": "address",
          "name": "beacon",
          "type": "address"
        }
      ],
      "name": "BeaconUpgraded",
      "type": "event"
    },
    {
      "anonymous": false,
      "inputs": [
        {
          "indexed": false,
          "internalType": "uint8",
          "name": "version",
          "type": "uint8"
        }
      ],
      "name": "Initialized",
      "type": "event"
    },
    {
      "anonymous": false,
      "inputs": [
        {
          "indexed": false,
          "internalType": "address",
          "name": "account",
          "type": "address"
        }
      ],
      "name": "Paused",
      "type": "event"
    },
    {
      "anonymous": false,
      "inputs": [
        {
          "indexed": true,
          "internalType": "uint256",
          "name": "projectId",
          "type": "uint256"
        },
        {
          "indexed": true,
          "internalType": "address",
          "name": "projectAddress",
          "type": "address"
        },
        {
          "indexed": false,
          "internalType": "string",
          "name": "projectName",
          "type": "string"
        }
      ],
      "name": "ProjectCreated",
      "type": "event"
    },
    {
      "anonymous": false,
      "inputs": [
        {
          "indexed": true,
          "internalType": "address",
          "name": "projectFactoryAddress",
          "type": "address"
        },
        {
          "indexed": true,
          "internalType": "address",
          "name": "oldProjectFactoryAddress",
          "type": "address"
        }
      ],
      "name": "ProjectFactoryAddressSet",
      "type": "event"
    },
    {
      "anonymous": false,
      "inputs": [
        {
          "indexed": true,
          "internalType": "bytes32",
          "name": "role",
          "type": "bytes32"
        },
        {
          "indexed": true,
          "internalType": "bytes32",
          "name": "previousAdminRole",
          "type": "bytes32"
        },
        {
          "indexed": true,
          "internalType": "bytes32",
          "name": "newAdminRole",
          "type": "bytes32"
        }
      ],
      "name": "RoleAdminChanged",
      "type": "event"
    },
    {
      "anonymous": false,
      "inputs": [
        {
          "indexed": true,
          "internalType": "bytes32",
          "name": "role",
          "type": "bytes32"
        },
        {
          "indexed": true,
          "internalType": "address",
          "name": "account",
          "type": "address"
        },
        {
          "indexed": true,
          "internalType": "address",
          "name": "sender",
          "type": "address"
        }
      ],
      "name": "RoleGranted",
      "type": "event"
    },
    {
      "anonymous": false,
      "inputs": [
        {
          "indexed": true,
          "internalType": "bytes32",
          "name": "role",
          "type": "bytes32"
        },
        {
          "indexed": true,
          "internalType": "address",
          "name": "account",
          "type": "address"
        },
        {
          "indexed": true,
          "internalType": "address",
          "name": "sender",
          "type": "address"
        }
      ],
      "name": "RoleRevoked",
      "type": "event"
    },
    {
      "anonymous": false,
      "inputs": [
        {
          "indexed": false,
          "internalType": "string",
          "name": "serialization",
          "type": "string"
        },
        {
          "indexed": true,
          "internalType": "address",
          "name": "serializationProjectContractAddress",
          "type": "address"
        }
      ],
      "name": "SerializationAddressSet",
      "type": "event"
    },
    {
      "anonymous": false,
      "inputs": [
        {
          "indexed": true,
          "internalType": "address",
          "name": "tokenVaultBeaconAddress",
          "type": "address"
        },
        {
          "indexed": true,
          "internalType": "address",
          "name": "oldTokenVaultBeaconAddress",
          "type": "address"
        }
      ],
      "name": "TokenVaultBeaconSet",
      "type": "event"
    },
    {
      "anonymous": false,
      "inputs": [
        {
          "indexed": false,
          "internalType": "address",
          "name": "account",
          "type": "address"
        }
      ],
      "name": "Unpaused",
      "type": "event"
    },
    {
      "anonymous": false,
      "inputs": [
        {
          "indexed": true,
          "internalType": "address",
          "name": "implementation",
          "type": "address"
        }
      ],
      "name": "Upgraded",
      "type": "event"
    },
    {
      "anonymous": false,
      "inputs": [
        {
          "indexed": true,
          "internalType": "address",
          "name": "verifiedVaultAddress",
          "type": "address"
        },
        {
          "indexed": true,
          "internalType": "address",
          "name": "oldVerifiedVaultAddress",
          "type": "address"
        },
        {
          "indexed": true,
          "internalType": "uint256",
          "name": "id",
          "type": "uint256"
        }
      ],
      "name": "VerifiedVaultAddressSet",
      "type": "event"
    },
    {
      "inputs": [],
      "name": "DEFAULT_ADMIN_ROLE",
      "outputs": [
        {
          "internalType": "bytes32",
          "name": "",
          "type": "bytes32"
        }
      ],
      "stateMutability": "view",
      "type": "function",
      "constant": true
    },
    {
      "inputs": [],
      "name": "PAUSER_ROLE",
      "outputs": [
        {
          "internalType": "bytes32",
          "name": "",
          "type": "bytes32"
        }
      ],
      "stateMutability": "view",
      "type": "function",
      "constant": true
    },
    {
      "inputs": [],
      "name": "UPGRADER_ROLE",
      "outputs": [
        {
          "internalType": "bytes32",
          "name": "",
          "type": "bytes32"
        }
      ],
      "stateMutability": "view",
      "type": "function",
      "constant": true
    },
    {
      "inputs": [
        {
          "internalType": "bytes32",
          "name": "role",
          "type": "bytes32"
        }
      ],
      "name": "getRoleAdmin",
      "outputs": [
        {
          "internalType": "bytes32",
          "name": "",
          "type": "bytes32"
        }
      ],
      "stateMutability": "view",
      "type": "function",
      "constant": true
    },
    {
      "inputs": [
        {
          "internalType": "bytes32",
          "name": "role",
          "type": "bytes32"
        },
        {
          "internalType": "address",
          "name": "account",
          "type": "address"
        }
      ],
      "name": "grantRole",
      "outputs": [],
      "stateMutability": "nonpayable",
      "type": "function"
    },
    {
      "inputs": [
        {
          "internalType": "bytes32",
          "name": "role",
          "type": "bytes32"
        },
        {
          "internalType": "address",
          "name": "account",
          "type": "address"
        }
      ],
      "name": "hasRole",
      "outputs": [
        {
          "internalType": "bool",
          "name": "",
          "type": "bool"
        }
      ],
      "stateMutability": "view",
      "type": "function",
      "constant": true
    },
    {
      "inputs": [],
      "name": "paused",
      "outputs": [
        {
          "internalType": "bool",
          "name": "",
          "type": "bool"
        }
      ],
      "stateMutability": "view",
      "type": "function",
      "constant": true
    },
    {
      "inputs": [],
      "name": "proxiableUUID",
      "outputs": [
        {
          "internalType": "bytes32",
          "name": "",
          "type": "bytes32"
        }
      ],
      "stateMutability": "view",
      "type": "function",
      "constant": true
    },
    {
      "inputs": [
        {
          "internalType": "bytes32",
          "name": "role",
          "type": "bytes32"
        },
        {
          "internalType": "address",
          "name": "account",
          "type": "address"
        }
      ],
      "name": "renounceRole",
      "outputs": [],
      "stateMutability": "nonpayable",
      "type": "function"
    },
    {
      "inputs": [
        {
          "internalType": "bytes32",
          "name": "role",
          "type": "bytes32"
        },
        {
          "internalType": "address",
          "name": "account",
          "type": "address"
        }
      ],
      "name": "revokeRole",
      "outputs": [],
      "stateMutability": "nonpayable",
      "type": "function"
    },
    {
      "inputs": [
        {
          "internalType": "bytes4",
          "name": "interfaceId",
          "type": "bytes4"
        }
      ],
      "name": "supportsInterface",
      "outputs": [
        {
          "internalType": "bool",
          "name": "",
          "type": "bool"
        }
      ],
      "stateMutability": "view",
      "type": "function",
      "constant": true
    },
    {
      "inputs": [
        {
          "internalType": "address",
          "name": "newImplementation",
          "type": "address"
        }
      ],
      "name": "upgradeTo",
      "outputs": [],
      "stateMutability": "nonpayable",
      "type": "function"
    },
    {
      "inputs": [
        {
          "internalType": "address",
          "name": "newImplementation",
          "type": "address"
        },
        {
          "internalType": "bytes",
          "name": "data",
          "type": "bytes"
        }
      ],
      "name": "upgradeToAndCall",
      "outputs": [],
      "stateMutability": "payable",
      "type": "function",
      "payable": true
    },
    {
      "inputs": [
        {
          "internalType": "address",
          "name": "beaconAddress",
          "type": "address"
        }
      ],
      "name": "initialize",
      "outputs": [],
      "stateMutability": "nonpayable",
      "type": "function"
    },
    {
      "inputs": [
        {
          "internalType": "uint256",
          "name": "_projectId",
          "type": "uint256"
        },
        {
          "internalType": "string",
          "name": "_projectName",
          "type": "string"
        }
      ],
      "name": "createProject",
      "outputs": [],
      "stateMutability": "nonpayable",
      "type": "function"
    },
    {
      "inputs": [],
      "name": "createNewVerifiedVault",
      "outputs": [],
      "stateMutability": "nonpayable",
      "type": "function"
    },
    {
      "inputs": [
        {
          "internalType": "string",
          "name": "serialization",
          "type": "string"
        }
      ],
      "name": "registerSerialization",
      "outputs": [],
      "stateMutability": "nonpayable",
      "type": "function"
    },
    {
      "inputs": [
        {
          "internalType": "address",
          "name": "beaconAddress",
          "type": "address"
        }
      ],
      "name": "setBeaconAddress",
      "outputs": [],
      "stateMutability": "nonpayable",
      "type": "function"
    },
    {
      "inputs": [
        {
          "internalType": "address",
          "name": "tokenVaultBeaconAddress",
          "type": "address"
        }
      ],
      "name": "setTokenVaultBeaconAddress",
      "outputs": [],
      "stateMutability": "nonpayable",
      "type": "function"
    },
    {
      "inputs": [],
      "name": "getTokenVaultBeaconAddress",
      "outputs": [
        {
          "internalType": "address",
          "name": "",
          "type": "address"
        }
      ],
      "stateMutability": "view",
      "type": "function",
      "constant": true
    },
    {
      "inputs": [
        {
          "internalType": "uint256",
          "name": "id",
          "type": "uint256"
        }
      ],
      "name": "getVerifiedVaultAddress",
      "outputs": [
        {
          "internalType": "address",
          "name": "",
          "type": "address"
        }
      ],
      "stateMutability": "view",
      "type": "function",
      "constant": true
    },
    {
      "inputs": [
        {
          "internalType": "string",
          "name": "serialization",
          "type": "string"
        }
      ],
      "name": "getSerializationAddress",
      "outputs": [
        {
          "internalType": "address",
          "name": "",
          "type": "address"
        }
      ],
      "stateMutability": "view",
      "type": "function",
      "constant": true
    },
    {
      "inputs": [
        {
          "internalType": "uint256",
          "name": "projectId",
          "type": "uint256"
        }
      ],
      "name": "getProjectAddressFromId",
      "outputs": [
        {
          "internalType": "address",
          "name": "",
          "type": "address"
        }
      ],
      "stateMutability": "view",
      "type": "function",
      "constant": true
    },
    {
      "inputs": [
        {
          "internalType": "address",
          "name": "projectAddress",
          "type": "address"
        }
      ],
      "name": "getProjectIdFromAddress",
      "outputs": [
        {
          "internalType": "uint256",
          "name": "",
          "type": "uint256"
        }
      ],
      "stateMutability": "view",
      "type": "function",
      "constant": true
    },
    {
      "inputs": [],
      "name": "getBeaconAddress",
      "outputs": [
        {
          "internalType": "address",
          "name": "",
          "type": "address"
        }
      ],
      "stateMutability": "view",
      "type": "function",
      "constant": true
    },
    {
      "inputs": [],
      "name": "pause",
      "outputs": [],
      "stateMutability": "nonpayable",
      "type": "function"
    },
    {
      "inputs": [],
      "name": "unpause",
      "outputs": [],
      "stateMutability": "nonpayable",
      "type": "function"
    }
  ],
  "bytecode": "0x60a06040523060805234801561001457600080fd5b5061001d610022565b6100e2565b600054610100900460ff161561008e5760405162461bcd60e51b815260206004820152602760248201527f496e697469616c697a61626c653a20636f6e747261637420697320696e697469604482015266616c697a696e6760c81b606482015260840160405180910390fd5b60005460ff90811610156100e0576000805460ff191660ff9081179091556040519081527f7f26b83ff96e1f2b6a682f133852f6798a09c465da95921460cefb38474024989060200160405180910390a15b565b608051612a786200011a60003960008181610693015281816106d60152818161098c015281816109cf0152610a500152612a786000f3fe608060405260043610620001575760003560e01c80629d4d7a146200015c57806301ffc9a71462000190578063144e3b1314620001c65780631a654ace14620001eb578063248a9ca314620002355780632f2ff15d146200025a57806336568abe14620002815780633659cfe614620002a65780633f4ba83a14620002cb57806344d9d59b14620002e357806345e2309814620003085780634f1ef286146200032d5780634fcb7ea6146200034457806352d1902d146200037f5780635c975abb14620003975780635d72115c14620003b1578063683adef914620003d25780638456cb59146200040d57806391d14854146200042557806392130344146200044a578063a217fddf146200046f578063a8b584841462000486578063bf1a8003146200049e578063c4d66de814620004c3578063d547741f14620004e8578063e63ab1e9146200050d578063f72c0d8b1462000532575b600080fd5b3480156200016957600080fd5b5061012e546001600160a01b03165b60405162000187919062001aa2565b60405180910390f35b3480156200019d57600080fd5b50620001b5620001af36600462001ab6565b62000557565b604051901515815260200162000187565b348015620001d357600080fd5b5062000178620001e536600462001b2d565b6200058f565b348015620001f857600080fd5b50620002266200020a36600462001b8f565b6001600160a01b03166000908152610131602052604090205490565b60405190815260200162000187565b3480156200024257600080fd5b50620002266200025436600462001bad565b620005c7565b3480156200026757600080fd5b506200027f6200027936600462001bc7565b620005dc565b005b3480156200028e57600080fd5b506200027f620002a036600462001bc7565b62000603565b348015620002b357600080fd5b506200027f620002c536600462001b8f565b62000689565b348015620002d857600080fd5b506200027f6200075d565b348015620002f057600080fd5b506200027f6200030236600462001b2d565b62000782565b3480156200031557600080fd5b506200027f6200032736600462001b8f565b62000927565b6200027f6200033e36600462001c0c565b62000982565b3480156200035157600080fd5b50620001786200036336600462001bad565b600090815261013060205260409020546001600160a01b031690565b3480156200038c57600080fd5b506200022662000a43565b348015620003a457600080fd5b5060335460ff16620001b5565b348015620003be57600080fd5b50610133546001600160a01b031662000178565b348015620003df57600080fd5b5062000178620003f136600462001bad565b600090815261013460205260409020546001600160a01b031690565b3480156200041a57600080fd5b506200027f62000af4565b3480156200043257600080fd5b50620001b56200044436600462001bc7565b62000b19565b3480156200045757600080fd5b506200027f6200046936600462001b8f565b62000b44565b3480156200047c57600080fd5b5062000226600081565b3480156200049357600080fd5b506200027f62000b9f565b348015620004ab57600080fd5b506200027f620004bd36600462001cd9565b62000d3d565b348015620004d057600080fd5b506200027f620004e236600462001b8f565b62000efe565b348015620004f557600080fd5b506200027f6200050736600462001bc7565b62001094565b3480156200051a57600080fd5b5062000226600080516020620029d283398151915281565b3480156200053f57600080fd5b50620002266000805160206200299283398151915281565b60006001600160e01b03198216637965db0b60e01b14806200058957506301ffc9a760e01b6001600160e01b03198316145b92915050565b600061012f8383604051620005a692919062001d28565b908152604051908190036020019020546001600160a01b0316905092915050565b60009081526097602052604090206001015490565b620005e782620005c7565b620005f281620010b6565b620005fe8383620010c2565b505050565b6001600160a01b0381163314620006795760405162461bcd60e51b815260206004820152602f60248201527f416363657373436f6e74726f6c3a2063616e206f6e6c792072656e6f756e636560448201526e103937b632b9903337b91039b2b63360891b60648201526084015b60405180910390fd5b6200068582826200114c565b5050565b6001600160a01b037f0000000000000000000000000000000000000000000000000000000000000000163003620006d45760405162461bcd60e51b8152600401620006709062001d38565b7f00000000000000000000000000000000000000000000000000000000000000006001600160a01b031662000708620011b6565b6001600160a01b031614620007315760405162461bcd60e51b8152600401620006709062001d73565b6200073c81620011d3565b604080516000808252602082019092526200075a91839190620011ee565b50565b600080516020620029d28339815191526200077881620010b6565b6200075a62001366565b6200078c620013b6565b3360009081526101316020526040902054151580620007b35750620007b360003362000b19565b6200081b5760405162461bcd60e51b815260206004820152603160248201527f4f6e6c7920436172626f6e526567697374727950726f6a6563742063616e206360448201527030b636103a3434b990333ab731ba34b7b760791b606482015260840162000670565b60006001600160a01b031661012f83836040516200083b92919062001d28565b908152604051908190036020019020546001600160a01b031614620008a25760405162461bcd60e51b815260206004820152601c60248201527b53657269616c697a6174696f6e20616c72656164792065786973747360201b604482015260640162000670565b3361012f8383604051620008b892919062001d28565b90815260405190819003602001812080546001600160a01b03939093166001600160a01b03199093169290921790915533907ff874c248792a4caa5cd732177a71454e2e4018dcf91bd3f5b57c594e9e071919906200091b908590859062001dd7565b60405180910390a25050565b60006200093481620010b6565b61013380546001600160a01b0319166001600160a01b03841690811790915560405181907f0bff775d45ab9c48066d1903cf52f92c9258b2a3f0b30f0ac7fab644aaa8c73f90600090a35050565b6001600160a01b037f0000000000000000000000000000000000000000000000000000000000000000163003620009cd5760405162461bcd60e51b8152600401620006709062001d38565b7f00000000000000000000000000000000000000000000000000000000000000006001600160a01b031662000a01620011b6565b6001600160a01b03161462000a2a5760405162461bcd60e51b8152600401620006709062001d73565b62000a3582620011d3565b6200068582826001620011ee565b6000306001600160a01b037f0000000000000000000000000000000000000000000000000000000000000000161462000ae05760405162461bcd60e51b815260206004820152603860248201527f555550535570677261646561626c653a206d757374206e6f742062652063616c6044820152771b1959081d1a1c9bdd59da0819195b1959d85d1958d85b1b60421b606482015260840162000670565b50600080516020620029b283398151915290565b600080516020620029d283398151915262000b0f81620010b6565b6200075a62001400565b60009182526097602090815260408084206001600160a01b0393909316845291905290205460ff1690565b600062000b5181620010b6565b61012e80546001600160a01b0319166001600160a01b03841690811790915560405181907f0282ad3fa3df8509e42308da45d565e159bfdbae259b381d419be67d4971b22b90600090a35050565b600062000bac81620010b6565b6040805180820182526013815272696e697469616c697a6528616464726573732960681b60208201529051600090829062000bec90339060240162001aa2565b60408051601f19818403018152908290529162000c099162001e24565b60408051918290039091206020830180516001600160e01b03166001600160e01b03199092169190911790526101335490519192506000916001600160a01b0390911690839062000c5a9062001a94565b62000c6792919062001e70565b604051809103906000f08015801562000c84573d6000803e3d6000fd5b5061013280546001908101808355600090815261013460208190526040822080546001600160a01b0319166001600160a01b03871617905592549394509062000cce908462001eac565b81526020810191909152604090810160009081205491516001600160a01b03928316928516917f730d532f453d2e36bcaf7323260bb2b1bf4234cd8c4a93be0a46d56ebb827c2691a461012d80546001600160a01b0319166001600160a01b0392909216919091179055505050565b62000d47620013b6565b600062000d5481620010b6565b8360000362000d9e5760405162461bcd60e51b8152602060048201526015602482015274050726f6a65637449642063616e6e6f74206265203605c1b604482015260640162000670565b600084815261013060205260409020546001600160a01b03161562000e015760405162461bcd60e51b815260206004820152601860248201527750726f6a656374496420616c72656164792065786973747360401b604482015260640162000670565b600062000e1085858562001440565b6001600160a01b038116600090815261013160205260409020549091501562000e7c5760405162461bcd60e51b815260206004820152601d60248201527f50726f6a6563744164647265737320616c726561647920657869737473000000604482015260640162000670565b60008581526101306020908152604080832080546001600160a01b0319166001600160a01b03861690811790915580845261013190925291829020879055905186907f9d9ec461f162f3f4fdb9f6d189bfe13c59e48d8acd23a4c3bfcf7cc0fe4e84ed9062000eef908890889062001dd7565b60405180910390a35050505050565b600054610100900460ff161580801562000f1f5750600054600160ff909116105b8062000f44575062000f313062001523565b15801562000f44575060005460ff166001145b62000fa95760405162461bcd60e51b815260206004820152602e60248201527f496e697469616c697a61626c653a20636f6e747261637420697320616c72656160448201526d191e481a5b9a5d1a585b1a5e995960921b606482015260840162000670565b6000805460ff19166001179055801562000fcd576000805461ff0019166101001790555b62000fd762001532565b62000fe162001566565b62000feb62001566565b62000ff8600033620010c2565b620010136000805160206200299283398151915233620010c2565b6200102e600080516020620029d283398151915233620010c2565b61012e80546001600160a01b0319166001600160a01b038416179055801562000685576000805461ff0019169055604051600181527f7f26b83ff96e1f2b6a682f133852f6798a09c465da95921460cefb38474024989060200160405180910390a15050565b6200109f82620005c7565b620010aa81620010b6565b620005fe83836200114c565b6200075a813362001590565b620010ce828262000b19565b620006855760008281526097602090815260408083206001600160a01b03851684529091529020805460ff19166001179055620011083390565b6001600160a01b0316816001600160a01b0316837f2f8788117e7eff1d82e926ec794901d17c78024a50270940304540a733656f0d60405160405180910390a45050565b62001158828262000b19565b15620006855760008281526097602090815260408083206001600160a01b0385168085529252808320805460ff1916905551339285917ff6391f5c32d9c69d2a47ea670b442974b53935d1edc7fd64eb21e047a839171b9190a45050565b600080516020620029b2833981519152546001600160a01b031690565b600080516020620029928339815191526200068581620010b6565b7f4910fdfa16fed3260ed0e7147f7cc6da11a60208b5b9406d12a635614ffd91435460ff16156200122457620005fe83620015f4565b826001600160a01b03166352d1902d6040518163ffffffff1660e01b8152600401602060405180830381865afa92505050801562001281575060408051601f3d908101601f191682019092526200127e9181019062001ec6565b60015b620012e65760405162461bcd60e51b815260206004820152602e60248201527f45524331393637557067726164653a206e657720696d706c656d656e7461746960448201526d6f6e206973206e6f74205555505360901b606482015260840162000670565b600080516020620029b28339815191528114620013585760405162461bcd60e51b815260206004820152602960248201527f45524331393637557067726164653a20756e737570706f727465642070726f786044820152681a58589b195555525160ba1b606482015260840162000670565b50620005fe83838362001693565b62001370620016c4565b6033805460ff191690557f5db9ee0a495bf2e6ff9c91a7834c1ba4fdd244a5e8aa4e537bd38aeae4b073aa335b604051620013ac919062001aa2565b60405180910390a1565b60335460ff1615620013fe5760405162461bcd60e51b815260206004820152601060248201526f14185d5cd8589b194e881c185d5cd95960821b604482015260640162000670565b565b6200140a620013b6565b6033805460ff191660011790557f62e78cea01bee320cd4e420270b5ea74000d11b0c9f74754ebdbfc544b05a2586200139d3390565b6000806040518060600160405280602a815260200162002a19602a9139905060008130338888886040516024016200147d95949392919062001ee0565b60408051601f1981840301815290829052916200149a9162001e24565b60408051918290039091206020830180516001600160e01b03166001600160e01b031990921691909117905261012e5490519192506000916001600160a01b03909116908390620014eb9062001a94565b620014f892919062001e70565b604051809103906000f08015801562001515573d6000803e3d6000fd5b5093505050505b9392505050565b6001600160a01b03163b151590565b600054610100900460ff166200155c5760405162461bcd60e51b8152600401620006709062001f21565b620013fe6200170f565b600054610100900460ff16620013fe5760405162461bcd60e51b8152600401620006709062001f21565b6200159c828262000b19565b6200068557620015ac8162001745565b620015b983602062001758565b604051602001620015cc92919062001f6c565b60408051601f198184030181529082905262461bcd60e51b8252620006709160040162001fdf565b620015ff8162001523565b620016635760405162461bcd60e51b815260206004820152602d60248201527f455243313936373a206e657720696d706c656d656e746174696f6e206973206e60448201526c1bdd08184818dbdb9d1c9858dd609a1b606482015260840162000670565b600080516020620029b283398151915280546001600160a01b0319166001600160a01b0392909216919091179055565b6200169e8362001911565b600082511180620016ac5750805b15620005fe57620016be838362001953565b50505050565b60335460ff16620013fe5760405162461bcd60e51b815260206004820152601460248201527314185d5cd8589b194e881b9bdd081c185d5cd95960621b604482015260640162000670565b600054610100900460ff16620017395760405162461bcd60e51b8152600401620006709062001f21565b6033805460ff19169055565b6060620005896001600160a01b03831660145b606060006200176983600262001ff4565b6200177690600262002016565b6001600160401b0381111562001790576200179062001bf6565b6040519080825280601f01601f191660200182016040528015620017bb576020820181803683370190505b509050600360fc1b81600081518110620017d957620017d962002031565b60200101906001600160f81b031916908160001a905350600f60fb1b816001815181106200180b576200180b62002031565b60200101906001600160f81b031916908160001a90535060006200183184600262001ff4565b6200183e90600162002016565b90505b6001811115620018c0576f181899199a1a9b1b9c1cb0b131b232b360811b85600f166010811062001876576200187662002031565b1a60f81b8282815181106200188f576200188f62002031565b60200101906001600160f81b031916908160001a90535060049490941c93620018b88162002047565b905062001841565b5083156200151c5760405162461bcd60e51b815260206004820181905260248201527f537472696e67733a20686578206c656e67746820696e73756666696369656e74604482015260640162000670565b6200191c81620015f4565b6040516001600160a01b038216907fbc7cd75a20ee27fd9adebab32041f755214dbc6bffa90cc0225b39da2e5c2d3b90600090a250565b6060620019608362001523565b620019bd5760405162461bcd60e51b815260206004820152602660248201527f416464726573733a2064656c65676174652063616c6c20746f206e6f6e2d636f6044820152651b9d1c9858dd60d21b606482015260840162000670565b600080846001600160a01b031684604051620019da919062001e24565b600060405180830381855af49150503d806000811462001a17576040519150601f19603f3d011682016040523d82523d6000602084013e62001a1c565b606091505b509150915062001a478282604051806060016040528060278152602001620029f26027913962001a50565b95945050505050565b6060831562001a615750816200151c565b6200151c838381511562001a785781518083602001fd5b8060405162461bcd60e51b815260040162000670919062001fdf565b610910806200206283390190565b6001600160a01b0391909116815260200190565b60006020828403121562001ac957600080fd5b81356001600160e01b0319811681146200151c57600080fd5b60008083601f84011262001af557600080fd5b5081356001600160401b0381111562001b0d57600080fd5b60208301915083602082850101111562001b2657600080fd5b9250929050565b6000806020838503121562001b4157600080fd5b82356001600160401b0381111562001b5857600080fd5b62001b668582860162001ae2565b90969095509350505050565b80356001600160a01b038116811462001b8a57600080fd5b919050565b60006020828403121562001ba257600080fd5b6200151c8262001b72565b60006020828403121562001bc057600080fd5b5035919050565b6000806040838503121562001bdb57600080fd5b8235915062001bed6020840162001b72565b90509250929050565b634e487b7160e01b600052604160045260246000fd5b6000806040838503121562001c2057600080fd5b62001c2b8362001b72565b915060208301356001600160401b038082111562001c4857600080fd5b818501915085601f83011262001c5d57600080fd5b81358181111562001c725762001c7262001bf6565b604051601f8201601f19908116603f0116810190838211818310171562001c9d5762001c9d62001bf6565b8160405282815288602084870101111562001cb757600080fd5b8260208601602083013760006020848301015280955050505050509250929050565b60008060006040848603121562001cef57600080fd5b8335925060208401356001600160401b0381111562001d0d57600080fd5b62001d1b8682870162001ae2565b9497909650939450505050565b8183823760009101908152919050565b6020808252602c908201526000805160206200297283398151915260408201526b19195b1959d85d1958d85b1b60a21b606082015260800190565b6020808252602c908201526000805160206200297283398151915260408201526b6163746976652070726f787960a01b606082015260800190565b81835281816020850137506000828201602090810191909152601f909101601f19169091010190565b60208152600062001ded60208301848662001dae565b949350505050565b60005b8381101562001e1257818101518382015260200162001df8565b83811115620016be5750506000910152565b6000825162001e3881846020870162001df5565b9190910192915050565b6000815180845262001e5c81602086016020860162001df5565b601f01601f19169290920160200192915050565b6001600160a01b038316815260406020820181905260009062001ded9083018462001e42565b634e487b7160e01b600052601160045260246000fd5b60008282101562001ec15762001ec162001e96565b500390565b60006020828403121562001ed957600080fd5b5051919050565b6001600160a01b038681168252851660208201526040810184905260806060820181905260009062001f16908301848662001dae565b979650505050505050565b6020808252602b908201527f496e697469616c697a61626c653a20636f6e7472616374206973206e6f74206960408201526a6e697469616c697a696e6760a81b606082015260800190565b76020b1b1b2b9b9a1b7b73a3937b61d1030b1b1b7bab73a1604d1b81526000835162001fa081601785016020880162001df5565b7001034b99036b4b9b9b4b733903937b6329607d1b601791840191820152835162001fd381602884016020880162001df5565b01602801949350505050565b6020815260006200151c602083018462001e42565b600081600019048311821515161562002011576200201162001e96565b500290565b600082198211156200202c576200202c62001e96565b500190565b634e487b7160e01b600052603260045260246000fd5b60008162002059576200205962001e96565b50600019019056fe608060405260405161091038038061091083398101604081905261002291610461565b61002e82826000610035565b505061058b565b61003e83610100565b6040516001600160a01b038416907f1cf3b03a6cf19fa2baba4df148e9dcabedea7f8a5c07840e207e5c089be95d3e90600090a260008251118061007f5750805b156100fb576100f9836001600160a01b0316635c60da1b6040518163ffffffff1660e01b8152600401602060405180830381865afa1580156100c5573d6000803e3d6000fd5b505050506040513d601f19601f820116820180604052508101906100e99190610521565b836102a360201b6100291760201c565b505b505050565b610113816102cf60201b6100551760201c565b6101725760405162461bcd60e51b815260206004820152602560248201527f455243313936373a206e657720626561636f6e206973206e6f74206120636f6e6044820152641d1c9858dd60da1b60648201526084015b60405180910390fd5b6101e6816001600160a01b0316635c60da1b6040518163ffffffff1660e01b8152600401602060405180830381865afa1580156101b3573d6000803e3d6000fd5b505050506040513d601f19601f820116820180604052508101906101d79190610521565b6102cf60201b6100551760201c565b61024b5760405162461bcd60e51b815260206004820152603060248201527f455243313936373a20626561636f6e20696d706c656d656e746174696f6e206960448201526f1cc81b9bdd08184818dbdb9d1c9858dd60821b6064820152608401610169565b806102827fa3f0ad74e5423aebfd80d3ef4346578335a9a72aeaee59ff6cb3582b35133d5060001b6102de60201b6100641760201c565b80546001600160a01b0319166001600160a01b039290921691909117905550565b60606102c883836040518060600160405280602781526020016108e9602791396102e1565b9392505050565b6001600160a01b03163b151590565b90565b6060600080856001600160a01b0316856040516102fe919061053c565b600060405180830381855af49150503d8060008114610339576040519150601f19603f3d011682016040523d82523d6000602084013e61033e565b606091505b5090925090506103508683838761035a565b9695505050505050565b606083156103c75782516000036103c057610374856102cf565b6103c05760405162461bcd60e51b815260206004820152601d60248201527f416464726573733a2063616c6c20746f206e6f6e2d636f6e74726163740000006044820152606401610169565b50816103d1565b6103d183836103d9565b949350505050565b8151156103e95781518083602001fd5b8060405162461bcd60e51b81526004016101699190610558565b80516001600160a01b038116811461041a57600080fd5b919050565b634e487b7160e01b600052604160045260246000fd5b60005b83811015610450578181015183820152602001610438565b838111156100f95750506000910152565b6000806040838503121561047457600080fd5b61047d83610403565b60208401519092506001600160401b038082111561049a57600080fd5b818501915085601f8301126104ae57600080fd5b8151818111156104c0576104c061041f565b604051601f8201601f19908116603f011681019083821181831017156104e8576104e861041f565b8160405282815288602084870101111561050157600080fd5b610512836020830160208801610435565b80955050505050509250929050565b60006020828403121561053357600080fd5b6102c882610403565b6000825161054e818460208701610435565b9190910192915050565b6020815260008251806020840152610577816040850160208701610435565b601f01601f19169190910160400192915050565b61034f8061059a6000396000f3fe60806040523661001357610011610017565b005b6100115b610027610022610067565b610100565b565b606061004e83836040518060600160405280602781526020016102f360279139610124565b9392505050565b6001600160a01b03163b151590565b90565b600061009a7fa3f0ad74e5423aebfd80d3ef4346578335a9a72aeaee59ff6cb3582b35133d50546001600160a01b031690565b6001600160a01b0316635c60da1b6040518163ffffffff1660e01b8152600401602060405180830381865afa1580156100d7573d6000803e3d6000fd5b505050506040513d601f19601f820116820180604052508101906100fb919061024a565b905090565b3660008037600080366000845af43d6000803e80801561011f573d6000f35b3d6000fd5b6060600080856001600160a01b03168560405161014191906102a3565b600060405180830381855af49150503d806000811461017c576040519150601f19603f3d011682016040523d82523d6000602084013e610181565b606091505b50915091506101928683838761019c565b9695505050505050565b6060831561020e578251600003610207576101b685610055565b6102075760405162461bcd60e51b815260206004820152601d60248201527f416464726573733a2063616c6c20746f206e6f6e2d636f6e747261637400000060448201526064015b60405180910390fd5b5081610218565b6102188383610220565b949350505050565b8151156102305781518083602001fd5b8060405162461bcd60e51b81526004016101fe91906102bf565b60006020828403121561025c57600080fd5b81516001600160a01b038116811461004e57600080fd5b60005b8381101561028e578181015183820152602001610276565b8381111561029d576000848401525b50505050565b600082516102b5818460208701610273565b9190910192915050565b60208152600082518060208401526102de816040850160208701610273565b601f01601f1916919091016040019291505056fe416464726573733a206c6f772d6c6576656c2064656c65676174652063616c6c206661696c6564a26469706673582212200e87c806b451031872619cfa763536da789d7554a500952e7233bda185195f3064736f6c634300080d0033416464726573733a206c6f772d6c6576656c2064656c65676174652063616c6c206661696c656446756e6374696f6e206d7573742062652063616c6c6564207468726f75676820189ab7a9244df0848122154315af71fe140f3db0fe014031783b0946b8c9d2e3360894a13ba1a3210667c828492db98dca3e2076cc3735a920a3ca505d382bbc65d7a28e3265b37a6474929f336521b332c1681b933f6cb9f3376673440d862a416464726573733a206c6f772d6c6576656c2064656c65676174652063616c6c206661696c6564696e697469616c697a6528616464726573732c616464726573732c75696e743235362c737472696e6729a2646970667358221220206735a5aff931e9b18b63d936216283f818f209b3ebf479a341c886bd268d2e64736f6c634300080d0033",
  "immutableReferences": {
    "997": [
      {
        "length": 32,
        "start": 1683
      },
      {
        "length": 32,
        "start": 1750
      },
      {
        "length": 32,
        "start": 2444
      },
      {
        "length": 32,
        "start": 2511
      },
      {
        "length": 32,
        "start": 2640
      }
    ]
  },
  "source": "// SPDX-License-Identifier: MIT\npragma solidity ^0.8.13;\n\nimport '@openzeppelin/contracts-upgradeable/access/AccessControlUpgradeable.sol';\nimport '@openzeppelin/contracts-upgradeable/proxy/utils/Initializable.sol';\nimport '@openzeppelin/contracts-upgradeable/proxy/utils/UUPSUpgradeable.sol';\nimport '@openzeppelin/contracts/proxy/beacon/BeaconProxy.sol';\nimport '@openzeppelin/contracts-upgradeable/security/PausableUpgradeable.sol';\n\nimport './CarbonContractRegistryStorage.sol';\nimport './interfaces/ICarbonContractRegistry.sol';\n\ncontract CarbonContractRegistry is\n\tInitializable,\n\tPausableUpgradeable,\n\tAccessControlUpgradeable,\n\tUUPSUpgradeable,\n\tICarbonContractRegistry,\n\tCarbonContractRegistryStorage\n{\n\tbytes32 public constant PAUSER_ROLE = keccak256('PAUSER_ROLE');\n\tbytes32 public constant UPGRADER_ROLE = keccak256('UPGRADER_ROLE');\n\n\tevent VerifiedVaultAddressSet(\n\t\taddress indexed verifiedVaultAddress,\n\t\taddress indexed oldVerifiedVaultAddress,\n\t\tuint256 indexed id\n\t);\n\tevent SerializationAddressSet(\n\t\tstring serialization,\n\t\taddress indexed serializationProjectContractAddress\n\t);\n\tevent ProjectFactoryAddressSet(\n\t\taddress indexed projectFactoryAddress,\n\t\taddress indexed oldProjectFactoryAddress\n\t);\n\tevent BeaconSet(\n\t\taddress indexed beaconAddress,\n\t\taddress indexed oldBeaconAddress\n\t);\n\tevent TokenVaultBeaconSet(\n\t\taddress indexed tokenVaultBeaconAddress,\n\t\taddress indexed oldTokenVaultBeaconAddress\n\t);\n\tevent ProjectCreated(\n\t\tuint256 indexed projectId,\n\t\taddress indexed projectAddress,\n\t\tstring projectName\n\t);\n\n\t/// @custom:oz-upgrades-unsafe-allow constructor\n\tconstructor() {\n\t\t_disableInitializers();\n\t}\n\n\tfunction initialize(address beaconAddress) public initializer {\n\t\t__Pausable_init();\n\t\t__AccessControl_init();\n\t\t__UUPSUpgradeable_init();\n\n\t\t_grantRole(DEFAULT_ADMIN_ROLE, msg.sender);\n\t\t_grantRole(UPGRADER_ROLE, msg.sender);\n\t\t_grantRole(PAUSER_ROLE, msg.sender);\n\n\t\t_projectBeaconAddress = beaconAddress;\n\t}\n\n\tmodifier onlyCarbonRegistryProjects() {\n\t\trequire(\n\t\t\t_addressToProjectIdMapping[msg.sender] != 0 ||\n\t\t\t\thasRole(DEFAULT_ADMIN_ROLE, msg.sender),\n\t\t\t'Only CarbonRegistryProject can call this function'\n\t\t);\n\t\t_;\n\t}\n\n\tfunction createProject(\n\t\tuint256 _projectId,\n\t\tstring calldata _projectName\n\t) external whenNotPaused onlyRole(DEFAULT_ADMIN_ROLE) {\n\t\trequire(_projectId != 0, 'ProjectId cannot be 0');\n\t\trequire(\n\t\t\t_projectIdToAddressMapping[_projectId] == address(0),\n\t\t\t'ProjectId already exists'\n\t\t);\n\n\t\taddress projectAddress = _createProject(_projectId, _projectName);\n\n\t\trequire(\n\t\t\t_addressToProjectIdMapping[projectAddress] == 0,\n\t\t\t'ProjectAddress already exists'\n\t\t);\n\t\t_projectIdToAddressMapping[_projectId] = projectAddress;\n\t\t_addressToProjectIdMapping[projectAddress] = _projectId;\n\t\temit ProjectCreated(_projectId, projectAddress, _projectName);\n\t}\n\n\tfunction _createProject(\n\t\tuint256 _projectId,\n\t\tstring calldata _projectName\n\t) internal returns (address) {\n\t\t/// @dev generate payload for initialize function\n\t\tstring memory signature = 'initialize(address,address,uint256,string)';\n\t\tbytes memory payload = abi.encodeWithSignature(\n\t\t\tsignature,\n\t\t\taddress(this),\n\t\t\tmsg.sender,\n\t\t\t_projectId,\n\t\t\t_projectName\n\t\t);\n\n\t\taddress projectAddress = address(\n\t\t\tnew BeaconProxy(_projectBeaconAddress, payload)\n\t\t);\n\t\treturn projectAddress;\n\t}\n\n\t// ----------------------------------\n\t//              SETTERS\n\t// ----------------------------------\n\n\tfunction createNewVerifiedVault() external override onlyRole(DEFAULT_ADMIN_ROLE) {\n\t\t\t\t/// @dev generate payload for initialize function\n\t\tstring memory signature = 'initialize(address)';\n\t\tbytes memory payload = abi.encodeWithSignature(\n\t\t\tsignature,\n\t\t\tmsg.sender\n\t\t);\n\n\t\taddress verifiedVaultAddress = address(\n\t\t\tnew BeaconProxy(_tokenVaultBeaconAddress, payload)\n\t\t);\n\n\t\tunchecked {\n\t\t\t_verifiedVaultCounter += 1;\n\t\t}\n\t\t_verifiedVaultMapping[_verifiedVaultCounter] = verifiedVaultAddress;\n\t\t\t\temit VerifiedVaultAddressSet(\n\t\t\tverifiedVaultAddress,\n\t\t\t_verifiedVaultMapping[_verifiedVaultCounter - 1],\n\t\t\t_verifiedVaultCounter\n\t\t);\n\t\t_verifiedVaultAddress = verifiedVaultAddress;\n\t}\n\n\tfunction registerSerialization(\n\t\tstring calldata serialization\n\t) external override whenNotPaused onlyCarbonRegistryProjects {\n\t\trequire(\n\t\t\t_serializationAddressMapping[serialization] == address(0),\n\t\t\t'Serialization already exists'\n\t\t);\n\t\t_serializationAddressMapping[serialization] = msg.sender;\n\t\temit SerializationAddressSet(serialization, msg.sender);\n\t}\n\n\tfunction setBeaconAddress(\n\t\taddress beaconAddress\n\t) external override onlyRole(DEFAULT_ADMIN_ROLE) {\n\t\t_projectBeaconAddress = beaconAddress;\n\t\temit BeaconSet(beaconAddress, _projectBeaconAddress);\n\t}\n\n\t    function setTokenVaultBeaconAddress(address tokenVaultBeaconAddress) external override onlyRole(DEFAULT_ADMIN_ROLE) {\n\t\t_tokenVaultBeaconAddress = tokenVaultBeaconAddress;\n\t\temit TokenVaultBeaconSet(tokenVaultBeaconAddress, _tokenVaultBeaconAddress);\n\t\t}\n\n\n\t// ----------------------------------\n\t//              GETTERS\n\t// ----------------------------------\n\nfunction getTokenVaultBeaconAddress() external view override returns (address) {\n\t\treturn _tokenVaultBeaconAddress;\n\t}\n\tfunction getVerifiedVaultAddress(uint256 id)\n\t\texternal\n\t\tview\n\t\toverride\n\t\treturns (address)\n\t{\n\t\treturn _verifiedVaultMapping[id];\n\t}\n\n\tfunction getSerializationAddress(\n\t\tstring calldata serialization\n\t) external view override returns (address) {\n\t\treturn _serializationAddressMapping[serialization];\n\t}\n\n\tfunction getProjectAddressFromId(\n\t\tuint256 projectId\n\t) external view override returns (address) {\n\t\treturn _projectIdToAddressMapping[projectId];\n\t}\n\n\tfunction getProjectIdFromAddress(\n\t\taddress projectAddress\n\t) external view override returns (uint256) {\n\t\treturn _addressToProjectIdMapping[projectAddress];\n\t}\n\n\tfunction getBeaconAddress() external view override returns (address) {\n\t\treturn _projectBeaconAddress;\n\t}\n\n\tfunction _authorizeUpgrade(\n\t\taddress newImplementation\n\t) internal override onlyRole(UPGRADER_ROLE) {}\n\n\tfunction pause() public onlyRole(PAUSER_ROLE) {\n\t\t_pause();\n\t}\n\n\tfunction unpause() public onlyRole(PAUSER_ROLE) {\n\t\t_unpause();\n\t}\n}\n",
  "sourcePath": "/Users/thorduragustsson/Programming/Projects/CarbonRegistryContracts/contracts/CarbonContractRegistry.sol",
  "compiler": {
    "name": "solc",
    "version": "0.8.13+commit.abaa5c0e.Emscripten.clang"
  },
  "schemaVersion": "3.4.13",
  "updatedAt": "2023-04-27T22:41:49.078Z",
  "networkType": "ethereum",
  "devdoc": {
    "kind": "dev",
    "methods": {
      "constructor": {
        "custom:oz-upgrades-unsafe-allow": "constructor"
      },
      "getRoleAdmin(bytes32)": {
        "details": "Returns the admin role that controls `role`. See {grantRole} and {revokeRole}. To change a role's admin, use {_setRoleAdmin}."
      },
      "grantRole(bytes32,address)": {
        "details": "Grants `role` to `account`. If `account` had not been already granted `role`, emits a {RoleGranted} event. Requirements: - the caller must have ``role``'s admin role. May emit a {RoleGranted} event."
      },
      "hasRole(bytes32,address)": {
        "details": "Returns `true` if `account` has been granted `role`."
      },
      "paused()": {
        "details": "Returns true if the contract is paused, and false otherwise."
      },
      "proxiableUUID()": {
        "details": "Implementation of the ERC1822 {proxiableUUID} function. This returns the storage slot used by the implementation. It is used to validate the implementation's compatibility when performing an upgrade. IMPORTANT: A proxy pointing at a proxiable contract should not be considered proxiable itself, because this risks bricking a proxy that upgrades to it, by delegating to itself until out of gas. Thus it is critical that this function revert if invoked through a proxy. This is guaranteed by the `notDelegated` modifier."
      },
      "renounceRole(bytes32,address)": {
        "details": "Revokes `role` from the calling account. Roles are often managed via {grantRole} and {revokeRole}: this function's purpose is to provide a mechanism for accounts to lose their privileges if they are compromised (such as when a trusted device is misplaced). If the calling account had been revoked `role`, emits a {RoleRevoked} event. Requirements: - the caller must be `account`. May emit a {RoleRevoked} event."
      },
      "revokeRole(bytes32,address)": {
        "details": "Revokes `role` from `account`. If `account` had been granted `role`, emits a {RoleRevoked} event. Requirements: - the caller must have ``role``'s admin role. May emit a {RoleRevoked} event."
      },
      "supportsInterface(bytes4)": {
        "details": "See {IERC165-supportsInterface}."
      },
      "upgradeTo(address)": {
        "details": "Upgrade the implementation of the proxy to `newImplementation`. Calls {_authorizeUpgrade}. Emits an {Upgraded} event."
      },
      "upgradeToAndCall(address,bytes)": {
        "details": "Upgrade the implementation of the proxy to `newImplementation`, and subsequently execute the function call encoded in `data`. Calls {_authorizeUpgrade}. Emits an {Upgraded} event."
      }
    },
    "version": 1
  },
  "userdoc": {
    "kind": "user",
    "methods": {},
    "version": 1
  }
}