{
  "contractName": "CustomSignaturesUpgradeable",
  "abi": [
    {
      "anonymous": false,
      "inputs": [
        {
          "indexed": false,
          "internalType": "uint8",
          "name": "version",
          "type": "uint8"
        }
      ],
      "name": "Initialized",
      "type": "event"
    },
    {
      "anonymous": false,
      "inputs": [
        {
          "indexed": false,
          "internalType": "bytes",
          "name": "signature",
          "type": "bytes"
        },
        {
          "components": [
            {
              "internalType": "uint256",
              "name": "deadline",
              "type": "uint256"
            },
            {
              "internalType": "string",
              "name": "description",
              "type": "string"
            },
            {
              "internalType": "address",
              "name": "signer",
              "type": "address"
            },
            {
              "internalType": "address",
              "name": "to",
              "type": "address"
            },
            {
              "internalType": "uint256",
              "name": "tokenId",
              "type": "uint256"
            },
            {
              "internalType": "uint256",
              "name": "amount",
              "type": "uint256"
            },
            {
              "internalType": "uint256",
              "name": "nonce",
              "type": "uint256"
            }
          ],
          "indexed": false,
          "internalType": "struct signatureTransferPayload",
          "name": "payload",
          "type": "tuple"
        }
      ],
      "name": "TransferSignatureValid",
      "type": "event"
    },
    {
      "inputs": [
        {
          "internalType": "address",
          "name": "",
          "type": "address"
        }
      ],
      "name": "signatureNonces",
      "outputs": [
        {
          "internalType": "uint32",
          "name": "",
          "type": "uint32"
        }
      ],
      "stateMutability": "view",
      "type": "function"
    }
  ],
  "bytecode": "0x608060405234801561001057600080fd5b5060cd8061001f6000396000f3fe6080604052348015600f57600080fd5b506004361060285760003560e01c8063dbd8483d14602d575b600080fd5b605060383660046069565b60356020526000908152604090205463ffffffff1681565b60405163ffffffff909116815260200160405180910390f35b600060208284031215607a57600080fd5b81356001600160a01b0381168114609057600080fd5b939250505056fea26469706673582212206c8fd6ca8790521edd92fc379b4bdbb138ea379a301659edef20003e19fcd55064736f6c634300080d0033",
  "immutableReferences": {},
  "source": "// SPDX-FileCopyrightText: 2023 Mojoflower\n//\n// SPDX-License-Identifier: UNLICENSED\n\npragma solidity ^0.8.13;\n\nimport \"@openzeppelin/contracts-upgradeable/utils/cryptography/EIP712Upgradeable.sol\";\nimport \"@openzeppelin/contracts-upgradeable/utils/cryptography/ECDSAUpgradeable.sol\";\nimport \"./CustomSignaturesTypes.sol\";\n\ncontract CustomSignaturesUpgradeable is EIP712Upgradeable {\n    mapping(address => uint32) public signatureNonces;\n    event TransferSignatureValid(bytes signature, signatureTransferPayload payload);\n\n    function __CustomSignatures_init(\n        string memory signatureName,\n        string memory version\n    ) internal onlyInitializing {\n        __EIP712_init(signatureName, version);\n    }\n\n    modifier onlyValidSignatureTransfer(\n        bytes calldata signature,\n        signatureTransferPayload calldata payload\n    ) {\n        emit TransferSignatureValid(signature, payload);\n        bytes32 digest = _hashTypedDataV4(\n            keccak256(\n                abi.encode(\n                    keccak256(\n                        \"signatureTransferPayload(uint256 deadline,string description,address signer,address to,uint256 tokenId,uint256 amount,uint256 nonce)\"\n                    ),\n                    payload.deadline,\n                    keccak256(abi.encodePacked(payload.description)), // https://ethereum.stackexchange.com/questions/131282/ethers-eip712-wont-work-with-strings\n                    payload.signer,\n                    payload.to,\n                    payload.tokenId,\n                    payload.amount,\n                    signatureNonces[payload.signer]\n                )\n            )\n        );\n        checkBaseSignature(digest, signature, payload.signer, payload.deadline);\n        signatureNonces[payload.signer]++;\n        _;\n    }\n\n    function checkBaseSignature(\n        bytes32 digest,\n        bytes memory signature,\n        address payloadSigner,\n        uint256 payloadDeadline\n    ) internal view returns (address signer) {\n        signer = ECDSAUpgradeable.recover(digest, signature);\n        require(signer == payloadSigner && signer != address(0), \"Invalid signature\");\n        require(block.timestamp < payloadDeadline, \"Signature expired\");\n    }\n\n    // /**\n    //  * @dev This empty reserved space is put in place to allow future versions to add new\n    //  * variables without shifting down storage in the inheritance chain.\n    //  * See https://docs.openzeppelin.com/contracts/4.x/upgradeable#storage_gaps\n    //  */\n    uint256[49] private __gap;\n}\n",
  "sourcePath": "/Users/thorduragustsson/Programming/Projects/CarbonRegistryContracts/contracts/utils/CustomSignaturesUpgradeable.sol",
  "compiler": {
    "name": "solc",
    "version": "0.8.13+commit.abaa5c0e.Emscripten.clang"
  },
  "schemaVersion": "3.4.13",
  "updatedAt": "2023-05-01T17:40:00.370Z",
  "devdoc": {
    "kind": "dev",
    "methods": {},
    "version": 1
  },
  "userdoc": {
    "kind": "user",
    "methods": {},
    "version": 1
  }
}