{
  "contractName": "MarketplaceFactory",
  "abi": [
    {
      "inputs": [],
      "stateMutability": "nonpayable",
      "type": "constructor"
    },
    {
      "anonymous": false,
      "inputs": [
        {
          "indexed": false,
          "internalType": "address",
          "name": "previousAdmin",
          "type": "address"
        },
        {
          "indexed": false,
          "internalType": "address",
          "name": "newAdmin",
          "type": "address"
        }
      ],
      "name": "AdminChanged",
      "type": "event"
    },
    {
      "anonymous": false,
      "inputs": [
        {
          "indexed": true,
          "internalType": "address",
          "name": "beacon",
          "type": "address"
        }
      ],
      "name": "BeaconUpgraded",
      "type": "event"
    },
    {
      "anonymous": false,
      "inputs": [
        {
          "indexed": false,
          "internalType": "uint8",
          "name": "version",
          "type": "uint8"
        }
      ],
      "name": "Initialized",
      "type": "event"
    },
    {
      "anonymous": false,
      "inputs": [
        {
          "indexed": true,
          "internalType": "address",
          "name": "marketplaceAddress",
          "type": "address"
        },
        {
          "indexed": true,
          "internalType": "uint256",
          "name": "marketplaceId",
          "type": "uint256"
        },
        {
          "indexed": false,
          "internalType": "string",
          "name": "marketplaceName",
          "type": "string"
        }
      ],
      "name": "MarketplaceAdded",
      "type": "event"
    },
    {
      "anonymous": false,
      "inputs": [
        {
          "indexed": false,
          "internalType": "address",
          "name": "account",
          "type": "address"
        }
      ],
      "name": "Paused",
      "type": "event"
    },
    {
      "anonymous": false,
      "inputs": [
        {
          "indexed": true,
          "internalType": "bytes32",
          "name": "role",
          "type": "bytes32"
        },
        {
          "indexed": true,
          "internalType": "bytes32",
          "name": "previousAdminRole",
          "type": "bytes32"
        },
        {
          "indexed": true,
          "internalType": "bytes32",
          "name": "newAdminRole",
          "type": "bytes32"
        }
      ],
      "name": "RoleAdminChanged",
      "type": "event"
    },
    {
      "anonymous": false,
      "inputs": [
        {
          "indexed": true,
          "internalType": "bytes32",
          "name": "role",
          "type": "bytes32"
        },
        {
          "indexed": true,
          "internalType": "address",
          "name": "account",
          "type": "address"
        },
        {
          "indexed": true,
          "internalType": "address",
          "name": "sender",
          "type": "address"
        }
      ],
      "name": "RoleGranted",
      "type": "event"
    },
    {
      "anonymous": false,
      "inputs": [
        {
          "indexed": true,
          "internalType": "bytes32",
          "name": "role",
          "type": "bytes32"
        },
        {
          "indexed": true,
          "internalType": "address",
          "name": "account",
          "type": "address"
        },
        {
          "indexed": true,
          "internalType": "address",
          "name": "sender",
          "type": "address"
        }
      ],
      "name": "RoleRevoked",
      "type": "event"
    },
    {
      "anonymous": false,
      "inputs": [
        {
          "indexed": false,
          "internalType": "address",
          "name": "account",
          "type": "address"
        }
      ],
      "name": "Unpaused",
      "type": "event"
    },
    {
      "anonymous": false,
      "inputs": [
        {
          "indexed": true,
          "internalType": "address",
          "name": "implementation",
          "type": "address"
        }
      ],
      "name": "Upgraded",
      "type": "event"
    },
    {
      "inputs": [],
      "name": "DEFAULT_ADMIN_ROLE",
      "outputs": [
        {
          "internalType": "bytes32",
          "name": "",
          "type": "bytes32"
        }
      ],
      "stateMutability": "view",
      "type": "function",
      "constant": true
    },
    {
      "inputs": [],
      "name": "PAUSER_ROLE",
      "outputs": [
        {
          "internalType": "bytes32",
          "name": "",
          "type": "bytes32"
        }
      ],
      "stateMutability": "view",
      "type": "function",
      "constant": true
    },
    {
      "inputs": [],
      "name": "UPGRADER_ROLE",
      "outputs": [
        {
          "internalType": "bytes32",
          "name": "",
          "type": "bytes32"
        }
      ],
      "stateMutability": "view",
      "type": "function",
      "constant": true
    },
    {
      "inputs": [
        {
          "internalType": "bytes32",
          "name": "role",
          "type": "bytes32"
        }
      ],
      "name": "getRoleAdmin",
      "outputs": [
        {
          "internalType": "bytes32",
          "name": "",
          "type": "bytes32"
        }
      ],
      "stateMutability": "view",
      "type": "function",
      "constant": true
    },
    {
      "inputs": [
        {
          "internalType": "bytes32",
          "name": "role",
          "type": "bytes32"
        },
        {
          "internalType": "address",
          "name": "account",
          "type": "address"
        }
      ],
      "name": "grantRole",
      "outputs": [],
      "stateMutability": "nonpayable",
      "type": "function"
    },
    {
      "inputs": [
        {
          "internalType": "bytes32",
          "name": "role",
          "type": "bytes32"
        },
        {
          "internalType": "address",
          "name": "account",
          "type": "address"
        }
      ],
      "name": "hasRole",
      "outputs": [
        {
          "internalType": "bool",
          "name": "",
          "type": "bool"
        }
      ],
      "stateMutability": "view",
      "type": "function",
      "constant": true
    },
    {
      "inputs": [],
      "name": "paused",
      "outputs": [
        {
          "internalType": "bool",
          "name": "",
          "type": "bool"
        }
      ],
      "stateMutability": "view",
      "type": "function",
      "constant": true
    },
    {
      "inputs": [],
      "name": "proxiableUUID",
      "outputs": [
        {
          "internalType": "bytes32",
          "name": "",
          "type": "bytes32"
        }
      ],
      "stateMutability": "view",
      "type": "function",
      "constant": true
    },
    {
      "inputs": [
        {
          "internalType": "bytes32",
          "name": "role",
          "type": "bytes32"
        },
        {
          "internalType": "address",
          "name": "account",
          "type": "address"
        }
      ],
      "name": "renounceRole",
      "outputs": [],
      "stateMutability": "nonpayable",
      "type": "function"
    },
    {
      "inputs": [
        {
          "internalType": "bytes32",
          "name": "role",
          "type": "bytes32"
        },
        {
          "internalType": "address",
          "name": "account",
          "type": "address"
        }
      ],
      "name": "revokeRole",
      "outputs": [],
      "stateMutability": "nonpayable",
      "type": "function"
    },
    {
      "inputs": [
        {
          "internalType": "bytes4",
          "name": "interfaceId",
          "type": "bytes4"
        }
      ],
      "name": "supportsInterface",
      "outputs": [
        {
          "internalType": "bool",
          "name": "",
          "type": "bool"
        }
      ],
      "stateMutability": "view",
      "type": "function",
      "constant": true
    },
    {
      "inputs": [
        {
          "internalType": "address",
          "name": "newImplementation",
          "type": "address"
        }
      ],
      "name": "upgradeTo",
      "outputs": [],
      "stateMutability": "nonpayable",
      "type": "function"
    },
    {
      "inputs": [
        {
          "internalType": "address",
          "name": "newImplementation",
          "type": "address"
        },
        {
          "internalType": "bytes",
          "name": "data",
          "type": "bytes"
        }
      ],
      "name": "upgradeToAndCall",
      "outputs": [],
      "stateMutability": "payable",
      "type": "function",
      "payable": true
    },
    {
      "inputs": [
        {
          "internalType": "address",
          "name": "beaconAddress",
          "type": "address"
        }
      ],
      "name": "initialize",
      "outputs": [],
      "stateMutability": "nonpayable",
      "type": "function"
    },
    {
      "inputs": [],
      "name": "testUpgrade",
      "outputs": [
        {
          "internalType": "string",
          "name": "",
          "type": "string"
        }
      ],
      "stateMutability": "pure",
      "type": "function",
      "constant": true
    },
    {
      "inputs": [
        {
          "internalType": "address",
          "name": "_owner",
          "type": "address"
        },
        {
          "internalType": "string",
          "name": "_marketplaceName",
          "type": "string"
        }
      ],
      "name": "createMarketplace",
      "outputs": [
        {
          "internalType": "address",
          "name": "",
          "type": "address"
        }
      ],
      "stateMutability": "nonpayable",
      "type": "function"
    },
    {
      "inputs": [],
      "name": "pause",
      "outputs": [],
      "stateMutability": "nonpayable",
      "type": "function"
    },
    {
      "inputs": [],
      "name": "unpause",
      "outputs": [],
      "stateMutability": "nonpayable",
      "type": "function"
    },
    {
      "inputs": [
        {
          "internalType": "uint256",
          "name": "id",
          "type": "uint256"
        }
      ],
      "name": "getMarketplaceVaultAddress",
      "outputs": [
        {
          "internalType": "address",
          "name": "",
          "type": "address"
        }
      ],
      "stateMutability": "view",
      "type": "function",
      "constant": true
    },
    {
      "inputs": [],
      "name": "getBeaconAddress",
      "outputs": [
        {
          "internalType": "address",
          "name": "",
          "type": "address"
        }
      ],
      "stateMutability": "view",
      "type": "function",
      "constant": true
    },
    {
      "inputs": [],
      "name": "getCurrentMarketplaceCounter",
      "outputs": [
        {
          "internalType": "uint256",
          "name": "",
          "type": "uint256"
        }
      ],
      "stateMutability": "view",
      "type": "function",
      "constant": true
    }
  ],
  "bytecode": "0x60a06040523060805234801561001457600080fd5b5061001d610022565b6100e2565b600054610100900460ff161561008e5760405162461bcd60e51b815260206004820152602760248201527f496e697469616c697a61626c653a20636f6e747261637420697320696e697469604482015266616c697a696e6760c81b606482015260840160405180910390fd5b60005460ff90811610156100e0576000805460ff191660ff9081179091556040519081527f7f26b83ff96e1f2b6a682f133852f6798a09c465da95921460cefb38474024989060200160405180910390a15b565b60805161226a610119600039600081816106b7015281816106fa015281816107b0015281816107f30152610874015261226a6000f3fe6080604052600436106200010f5760003560e01c80629d4d7a146200011457806301ffc9a71462000148578063248a9ca3146200017e57806325d9ebd814620001b25780632f2ff15d14620001d757806336568abe14620001fe5780633659cfe614620002235780633f4ba83a14620002485780634f1ef286146200026057806352d1902d14620002775780635c4fe00e146200028f5780635c975abb14620002ca5780638456cb5914620002e45780638c3a1c9414620002fc57806391d1485414620003145780639d6aed0b1462000339578063a217fddf1462000370578063c4d66de81462000387578063d547741f14620003ac578063e63ab1e914620003d1578063f72c0d8b14620003f6575b600080fd5b3480156200012157600080fd5b5061012d546001600160a01b03165b6040516200013f919062001430565b60405180910390f35b3480156200015557600080fd5b506200016d6200016736600462001444565b6200041b565b60405190151581526020016200013f565b3480156200018b57600080fd5b50620001a36200019d36600462001470565b62000453565b6040519081526020016200013f565b348015620001bf57600080fd5b5062000130620001d136600462001539565b62000468565b348015620001e457600080fd5b50620001fc620001f6366004620015a1565b62000600565b005b3480156200020b57600080fd5b50620001fc6200021d366004620015a1565b62000627565b3480156200023057600080fd5b50620001fc62000242366004620015d0565b620006ad565b3480156200025557600080fd5b50620001fc62000781565b620001fc6200027136600462001539565b620007a6565b3480156200028457600080fd5b50620001a362000867565b3480156200029c57600080fd5b5062000130620002ae36600462001470565b600090815261012f60205260409020546001600160a01b031690565b348015620002d757600080fd5b5060335460ff166200016d565b348015620002f157600080fd5b50620001fc62000918565b3480156200030957600080fd5b5061012e54620001a3565b3480156200032157600080fd5b506200016d62000333366004620015a1565b6200093d565b3480156200034657600080fd5b506040805180820182526005815264302e302e3160d81b602082015290516200013f91906200164b565b3480156200037d57600080fd5b50620001a3600081565b3480156200039457600080fd5b50620001fc620003a6366004620015d0565b62000968565b348015620003b957600080fd5b50620001fc620003cb366004620015a1565b62000afe565b348015620003de57600080fd5b50620001a3600080516020620021ee83398151915281565b3480156200040357600080fd5b50620001a3600080516020620021ae83398151915281565b60006001600160e01b03198216637965db0b60e01b14806200044d57506301ffc9a760e01b6001600160e01b03198316145b92915050565b60009081526097602052604090206001015490565b60006200047462000b20565b6000620004818162000b6a565b604080518082018252601a815279696e697469616c697a6528616464726573732c737472696e672960301b602082015290516000908290620004ca908890889060240162001660565b60408051601f198184030181529082905291620004e7916200168e565b60408051918290039091206020830180516001600160e01b03166001600160e01b031990921691909117905261012d5490519192506000916001600160a01b03909116908390620005389062001422565b6200054592919062001660565b604051809103906000f08015801562000562573d6000803e3d6000fd5b5061012e8054600101808255600090815261012f60205260409081902080546001600160a01b0319166001600160a01b03851690811790915591549051929350917ff9beffbf5eb8e60bf867a65f895edd4381bcf88a2e87a2b36d643e8255c875e790620005d2908a906200164b565b60405180910390a361012d80546001600160a01b0319166001600160a01b0383161790559695505050505050565b6200060b8262000453565b620006168162000b6a565b62000622838362000b76565b505050565b6001600160a01b03811633146200069d5760405162461bcd60e51b815260206004820152602f60248201527f416363657373436f6e74726f6c3a2063616e206f6e6c792072656e6f756e636560448201526e103937b632b9903337b91039b2b63360891b60648201526084015b60405180910390fd5b620006a9828262000c00565b5050565b6001600160a01b037f0000000000000000000000000000000000000000000000000000000000000000163003620006f85760405162461bcd60e51b81526004016200069490620016ac565b7f00000000000000000000000000000000000000000000000000000000000000006001600160a01b03166200072c62000c6a565b6001600160a01b031614620007555760405162461bcd60e51b81526004016200069490620016e7565b620007608162000c87565b604080516000808252602082019092526200077e9183919062000ca2565b50565b600080516020620021ee8339815191526200079c8162000b6a565b6200077e62000e1a565b6001600160a01b037f0000000000000000000000000000000000000000000000000000000000000000163003620007f15760405162461bcd60e51b81526004016200069490620016ac565b7f00000000000000000000000000000000000000000000000000000000000000006001600160a01b03166200082562000c6a565b6001600160a01b0316146200084e5760405162461bcd60e51b81526004016200069490620016e7565b620008598262000c87565b620006a98282600162000ca2565b6000306001600160a01b037f00000000000000000000000000000000000000000000000000000000000000001614620009045760405162461bcd60e51b815260206004820152603860248201527f555550535570677261646561626c653a206d757374206e6f742062652063616c6044820152771b1959081d1a1c9bdd59da0819195b1959d85d1958d85b1b60421b606482015260840162000694565b50600080516020620021ce83398151915290565b600080516020620021ee833981519152620009338162000b6a565b6200077e62000e6a565b60009182526097602090815260408084206001600160a01b0393909316845291905290205460ff1690565b600054610100900460ff1615808015620009895750600054600160ff909116105b80620009ae57506200099b3062000eaa565b158015620009ae575060005460ff166001145b62000a135760405162461bcd60e51b815260206004820152602e60248201527f496e697469616c697a61626c653a20636f6e747261637420697320616c72656160448201526d191e481a5b9a5d1a585b1a5e995960921b606482015260840162000694565b6000805460ff19166001179055801562000a37576000805461ff0019166101001790555b62000a4162000eb9565b62000a4b62000eed565b62000a5562000eed565b62000a6260003362000b76565b62000a7d600080516020620021ae8339815191523362000b76565b62000a98600080516020620021ee8339815191523362000b76565b61012d80546001600160a01b0319166001600160a01b0384161790558015620006a9576000805461ff0019169055604051600181527f7f26b83ff96e1f2b6a682f133852f6798a09c465da95921460cefb38474024989060200160405180910390a15050565b62000b098262000453565b62000b148162000b6a565b62000622838362000c00565b60335460ff161562000b685760405162461bcd60e51b815260206004820152601060248201526f14185d5cd8589b194e881c185d5cd95960821b604482015260640162000694565b565b6200077e813362000f17565b62000b8282826200093d565b620006a95760008281526097602090815260408083206001600160a01b03851684529091529020805460ff1916600117905562000bbc3390565b6001600160a01b0316816001600160a01b0316837f2f8788117e7eff1d82e926ec794901d17c78024a50270940304540a733656f0d60405160405180910390a45050565b62000c0c82826200093d565b15620006a95760008281526097602090815260408083206001600160a01b0385168085529252808320805460ff1916905551339285917ff6391f5c32d9c69d2a47ea670b442974b53935d1edc7fd64eb21e047a839171b9190a45050565b600080516020620021ce833981519152546001600160a01b031690565b600080516020620021ae833981519152620006a98162000b6a565b7f4910fdfa16fed3260ed0e7147f7cc6da11a60208b5b9406d12a635614ffd91435460ff161562000cd857620006228362000f7b565b826001600160a01b03166352d1902d6040518163ffffffff1660e01b8152600401602060405180830381865afa92505050801562000d35575060408051601f3d908101601f1916820190925262000d329181019062001722565b60015b62000d9a5760405162461bcd60e51b815260206004820152602e60248201527f45524331393637557067726164653a206e657720696d706c656d656e7461746960448201526d6f6e206973206e6f74205555505360901b606482015260840162000694565b600080516020620021ce833981519152811462000e0c5760405162461bcd60e51b815260206004820152602960248201527f45524331393637557067726164653a20756e737570706f727465642070726f786044820152681a58589b195555525160ba1b606482015260840162000694565b50620006228383836200101a565b62000e246200104b565b6033805460ff191690557f5db9ee0a495bf2e6ff9c91a7834c1ba4fdd244a5e8aa4e537bd38aeae4b073aa335b60405162000e60919062001430565b60405180910390a1565b62000e7462000b20565b6033805460ff191660011790557f62e78cea01bee320cd4e420270b5ea74000d11b0c9f74754ebdbfc544b05a25862000e513390565b6001600160a01b03163b151590565b600054610100900460ff1662000ee35760405162461bcd60e51b815260040162000694906200173c565b62000b6862001096565b600054610100900460ff1662000b685760405162461bcd60e51b815260040162000694906200173c565b62000f2382826200093d565b620006a95762000f3381620010cc565b62000f40836020620010df565b60405160200162000f5392919062001787565b60408051601f198184030181529082905262461bcd60e51b825262000694916004016200164b565b62000f868162000eaa565b62000fea5760405162461bcd60e51b815260206004820152602d60248201527f455243313936373a206e657720696d706c656d656e746174696f6e206973206e60448201526c1bdd08184818dbdb9d1c9858dd609a1b606482015260840162000694565b600080516020620021ce83398151915280546001600160a01b0319166001600160a01b0392909216919091179055565b62001025836200129f565b600082511180620010335750805b156200062257620010458383620012e1565b50505050565b60335460ff1662000b685760405162461bcd60e51b815260206004820152601460248201527314185d5cd8589b194e881b9bdd081c185d5cd95960621b604482015260640162000694565b600054610100900460ff16620010c05760405162461bcd60e51b815260040162000694906200173c565b6033805460ff19169055565b60606200044d6001600160a01b03831660145b60606000620010f083600262001810565b620010fd90600262001832565b6001600160401b03811115620011175762001117620014a7565b6040519080825280601f01601f19166020018201604052801562001142576020820181803683370190505b509050600360fc1b816000815181106200116057620011606200184d565b60200101906001600160f81b031916908160001a905350600f60fb1b816001815181106200119257620011926200184d565b60200101906001600160f81b031916908160001a9053506000620011b884600262001810565b620011c590600162001832565b90505b600181111562001247576f181899199a1a9b1b9c1cb0b131b232b360811b85600f1660108110620011fd57620011fd6200184d565b1a60f81b8282815181106200121657620012166200184d565b60200101906001600160f81b031916908160001a90535060049490941c936200123f8162001863565b9050620011c8565b508315620012985760405162461bcd60e51b815260206004820181905260248201527f537472696e67733a20686578206c656e67746820696e73756666696369656e74604482015260640162000694565b9392505050565b620012aa8162000f7b565b6040516001600160a01b038216907fbc7cd75a20ee27fd9adebab32041f755214dbc6bffa90cc0225b39da2e5c2d3b90600090a250565b6060620012ee8362000eaa565b6200134b5760405162461bcd60e51b815260206004820152602660248201527f416464726573733a2064656c65676174652063616c6c20746f206e6f6e2d636f6044820152651b9d1c9858dd60d21b606482015260840162000694565b600080846001600160a01b0316846040516200136891906200168e565b600060405180830381855af49150503d8060008114620013a5576040519150601f19603f3d011682016040523d82523d6000602084013e620013aa565b606091505b5091509150620013d582826040518060600160405280602781526020016200220e60279139620013de565b95945050505050565b60608315620013ef57508162001298565b620012988383815115620014065781518083602001fd5b8060405162461bcd60e51b81526004016200069491906200164b565b610910806200187e83390190565b6001600160a01b0391909116815260200190565b6000602082840312156200145757600080fd5b81356001600160e01b0319811681146200129857600080fd5b6000602082840312156200148357600080fd5b5035919050565b80356001600160a01b0381168114620014a257600080fd5b919050565b634e487b7160e01b600052604160045260246000fd5b60006001600160401b0380841115620014da57620014da620014a7565b604051601f8501601f19908116603f01168101908282118183101715620015055762001505620014a7565b816040528093508581528686860111156200151f57600080fd5b858560208301376000602087830101525050509392505050565b600080604083850312156200154d57600080fd5b62001558836200148a565b915060208301356001600160401b038111156200157457600080fd5b8301601f810185136200158657600080fd5b6200159785823560208401620014bd565b9150509250929050565b60008060408385031215620015b557600080fd5b82359150620015c7602084016200148a565b90509250929050565b600060208284031215620015e357600080fd5b62001298826200148a565b60005b838110156200160b578181015183820152602001620015f1565b83811115620010455750506000910152565b6000815180845262001637816020860160208601620015ee565b601f01601f19169290920160200192915050565b6020815260006200129860208301846200161d565b6001600160a01b038316815260406020820181905260009062001686908301846200161d565b949350505050565b60008251620016a2818460208701620015ee565b9190910192915050565b6020808252602c908201526000805160206200218e83398151915260408201526b19195b1959d85d1958d85b1b60a21b606082015260800190565b6020808252602c908201526000805160206200218e83398151915260408201526b6163746976652070726f787960a01b606082015260800190565b6000602082840312156200173557600080fd5b5051919050565b6020808252602b908201527f496e697469616c697a61626c653a20636f6e7472616374206973206e6f74206960408201526a6e697469616c697a696e6760a81b606082015260800190565b76020b1b1b2b9b9a1b7b73a3937b61d1030b1b1b7bab73a1604d1b815260008351620017bb816017850160208801620015ee565b7001034b99036b4b9b9b4b733903937b6329607d1b6017918401918201528351620017ee816028840160208801620015ee565b01602801949350505050565b634e487b7160e01b600052601160045260246000fd5b60008160001904831182151516156200182d576200182d620017fa565b500290565b60008219821115620018485762001848620017fa565b500190565b634e487b7160e01b600052603260045260246000fd5b600081620018755762001875620017fa565b50600019019056fe608060405260405161091038038061091083398101604081905261002291610461565b61002e82826000610035565b505061058b565b61003e83610100565b6040516001600160a01b038416907f1cf3b03a6cf19fa2baba4df148e9dcabedea7f8a5c07840e207e5c089be95d3e90600090a260008251118061007f5750805b156100fb576100f9836001600160a01b0316635c60da1b6040518163ffffffff1660e01b8152600401602060405180830381865afa1580156100c5573d6000803e3d6000fd5b505050506040513d601f19601f820116820180604052508101906100e99190610521565b836102a360201b6100291760201c565b505b505050565b610113816102cf60201b6100551760201c565b6101725760405162461bcd60e51b815260206004820152602560248201527f455243313936373a206e657720626561636f6e206973206e6f74206120636f6e6044820152641d1c9858dd60da1b60648201526084015b60405180910390fd5b6101e6816001600160a01b0316635c60da1b6040518163ffffffff1660e01b8152600401602060405180830381865afa1580156101b3573d6000803e3d6000fd5b505050506040513d601f19601f820116820180604052508101906101d79190610521565b6102cf60201b6100551760201c565b61024b5760405162461bcd60e51b815260206004820152603060248201527f455243313936373a20626561636f6e20696d706c656d656e746174696f6e206960448201526f1cc81b9bdd08184818dbdb9d1c9858dd60821b6064820152608401610169565b806102827fa3f0ad74e5423aebfd80d3ef4346578335a9a72aeaee59ff6cb3582b35133d5060001b6102de60201b6100641760201c565b80546001600160a01b0319166001600160a01b039290921691909117905550565b60606102c883836040518060600160405280602781526020016108e9602791396102e1565b9392505050565b6001600160a01b03163b151590565b90565b6060600080856001600160a01b0316856040516102fe919061053c565b600060405180830381855af49150503d8060008114610339576040519150601f19603f3d011682016040523d82523d6000602084013e61033e565b606091505b5090925090506103508683838761035a565b9695505050505050565b606083156103c75782516000036103c057610374856102cf565b6103c05760405162461bcd60e51b815260206004820152601d60248201527f416464726573733a2063616c6c20746f206e6f6e2d636f6e74726163740000006044820152606401610169565b50816103d1565b6103d183836103d9565b949350505050565b8151156103e95781518083602001fd5b8060405162461bcd60e51b81526004016101699190610558565b80516001600160a01b038116811461041a57600080fd5b919050565b634e487b7160e01b600052604160045260246000fd5b60005b83811015610450578181015183820152602001610438565b838111156100f95750506000910152565b6000806040838503121561047457600080fd5b61047d83610403565b60208401519092506001600160401b038082111561049a57600080fd5b818501915085601f8301126104ae57600080fd5b8151818111156104c0576104c061041f565b604051601f8201601f19908116603f011681019083821181831017156104e8576104e861041f565b8160405282815288602084870101111561050157600080fd5b610512836020830160208801610435565b80955050505050509250929050565b60006020828403121561053357600080fd5b6102c882610403565b6000825161054e818460208701610435565b9190910192915050565b6020815260008251806020840152610577816040850160208701610435565b601f01601f19169190910160400192915050565b61034f8061059a6000396000f3fe60806040523661001357610011610017565b005b6100115b610027610022610067565b610100565b565b606061004e83836040518060600160405280602781526020016102f360279139610124565b9392505050565b6001600160a01b03163b151590565b90565b600061009a7fa3f0ad74e5423aebfd80d3ef4346578335a9a72aeaee59ff6cb3582b35133d50546001600160a01b031690565b6001600160a01b0316635c60da1b6040518163ffffffff1660e01b8152600401602060405180830381865afa1580156100d7573d6000803e3d6000fd5b505050506040513d601f19601f820116820180604052508101906100fb919061024a565b905090565b3660008037600080366000845af43d6000803e80801561011f573d6000f35b3d6000fd5b6060600080856001600160a01b03168560405161014191906102a3565b600060405180830381855af49150503d806000811461017c576040519150601f19603f3d011682016040523d82523d6000602084013e610181565b606091505b50915091506101928683838761019c565b9695505050505050565b6060831561020e578251600003610207576101b685610055565b6102075760405162461bcd60e51b815260206004820152601d60248201527f416464726573733a2063616c6c20746f206e6f6e2d636f6e747261637400000060448201526064015b60405180910390fd5b5081610218565b6102188383610220565b949350505050565b8151156102305781518083602001fd5b8060405162461bcd60e51b81526004016101fe91906102bf565b60006020828403121561025c57600080fd5b81516001600160a01b038116811461004e57600080fd5b60005b8381101561028e578181015183820152602001610276565b8381111561029d576000848401525b50505050565b600082516102b5818460208701610273565b9190910192915050565b60208152600082518060208401526102de816040850160208701610273565b601f01601f1916919091016040019291505056fe416464726573733a206c6f772d6c6576656c2064656c65676174652063616c6c206661696c6564a26469706673582212200e87c806b451031872619cfa763536da789d7554a500952e7233bda185195f3064736f6c634300080d0033416464726573733a206c6f772d6c6576656c2064656c65676174652063616c6c206661696c656446756e6374696f6e206d7573742062652063616c6c6564207468726f75676820189ab7a9244df0848122154315af71fe140f3db0fe014031783b0946b8c9d2e3360894a13ba1a3210667c828492db98dca3e2076cc3735a920a3ca505d382bbc65d7a28e3265b37a6474929f336521b332c1681b933f6cb9f3376673440d862a416464726573733a206c6f772d6c6576656c2064656c65676174652063616c6c206661696c6564a2646970667358221220b6d585137bfa1e4677b3975adfb09ad1227e83c862ddc0d509c5c3e9f84b08df64736f6c634300080d0033",
  "immutableReferences": {
    "997": [
      {
        "length": 32,
        "start": 1719
      },
      {
        "length": 32,
        "start": 1786
      },
      {
        "length": 32,
        "start": 1968
      },
      {
        "length": 32,
        "start": 2035
      },
      {
        "length": 32,
        "start": 2164
      }
    ]
  },
  "source": "\t// SPDX-License-Identifier: MIT\npragma solidity ^0.8.13;\n\nimport '@openzeppelin/contracts-upgradeable/access/AccessControlUpgradeable.sol';\nimport '@openzeppelin/contracts-upgradeable/proxy/utils/Initializable.sol';\nimport '@openzeppelin/contracts-upgradeable/proxy/utils/UUPSUpgradeable.sol';\nimport '@openzeppelin/contracts/proxy/beacon/BeaconProxy.sol';\nimport '@openzeppelin/contracts-upgradeable/security/PausableUpgradeable.sol';\n\nimport './MarketplaceFactoryStorage.sol';\n\ncontract MarketplaceFactory is\n\tInitializable,\n\tPausableUpgradeable,\n\tAccessControlUpgradeable,\n\tUUPSUpgradeable,\n\tMarketplaceFactoryStorage\n{\n\n\tbytes32 public constant PAUSER_ROLE = keccak256('PAUSER_ROLE');\n\tbytes32 public constant UPGRADER_ROLE = keccak256('UPGRADER_ROLE');\n\n\tevent MarketplaceAdded(\n\t\taddress indexed marketplaceAddress,\n\t\tuint256 indexed marketplaceId,\n\t\tstring marketplaceName\n\t);\n\n    \t/// @custom:oz-upgrades-unsafe-allow constructor\n\tconstructor() {\n\t\t_disableInitializers();\n\t}\n\n\tfunction initialize(address beaconAddress) public initializer {\n\t\t__Pausable_init();\n\t\t__AccessControl_init();\n\t\t__UUPSUpgradeable_init();\n\n\t\t_grantRole(DEFAULT_ADMIN_ROLE, msg.sender);\n\t\t_grantRole(UPGRADER_ROLE, msg.sender);\n\t\t_grantRole(PAUSER_ROLE, msg.sender);\n\n\t\t_marketplaceBeaconAddress = beaconAddress;\n\t}\n\n\tfunction testUpgrade() external pure returns(string memory) {\n\t\treturn \"0.0.1\";\n\t}\n\n    function createMarketplace(address _owner,string memory _marketplaceName) external whenNotPaused onlyRole(DEFAULT_ADMIN_ROLE) returns(address){\n\t\t\t\t/// @dev generate payload for initialize function\n\t\tstring memory signature = 'initialize(address,string)';\n\t\tbytes memory payload = abi.encodeWithSignature(\n\t\t\tsignature,\n\t\t\t_owner,\n\t\t\t_marketplaceName\n\t\t);\n\n\t\taddress marketplaceAddress = address(\n\t\t\tnew BeaconProxy(_marketplaceBeaconAddress, payload)\n\t\t);\n\n\t\tunchecked {\n\t\t\t_marketplaceVaultCounter += 1;\n\t\t}\n\t\t_marketplaceVaultMapping[_marketplaceVaultCounter] = marketplaceAddress;\n\t\temit MarketplaceAdded(\n\t\t\tmarketplaceAddress,\n\t\t\t_marketplaceVaultCounter,\n\t\t\t_marketplaceName\n\t\t);\n\t\t_marketplaceBeaconAddress = marketplaceAddress;\n\n\t\treturn marketplaceAddress;\n\t}\n\n\t\tfunction _authorizeUpgrade(\n\t\taddress newImplementation\n\t) internal override onlyRole(UPGRADER_ROLE) {}\n\n\tfunction pause() public onlyRole(PAUSER_ROLE) {\n\t\t_pause();\n\t}\n\n\tfunction unpause() public onlyRole(PAUSER_ROLE) {\n\t\t_unpause();\n\t}\n\n\t\tfunction getMarketplaceVaultAddress(uint256 id)\n\t\texternal\n\t\tview\n\t\t\n\t\treturns (address)\n\t{\n\t\treturn _marketplaceVaultMapping[id];\n\t}\n\tfunction getBeaconAddress() external view  returns (address) {\n\t\treturn _marketplaceBeaconAddress;\n\t}\n\n\t\tfunction getCurrentMarketplaceCounter() external view  returns (uint) {\n\t\treturn _marketplaceVaultCounter;\n\t}\n\n}\n    \n",
  "sourcePath": "/Users/thorduragustsson/Programming/Projects/CarbonRegistryContracts/contracts/marketplaces/MarketplaceFactory.sol",
  "compiler": {
    "name": "solc",
    "version": "0.8.13+commit.abaa5c0e.Emscripten.clang"
  },
  "schemaVersion": "3.4.13",
  "updatedAt": "2023-06-27T13:56:35.497Z",
  "networkType": "ethereum",
  "devdoc": {
    "kind": "dev",
    "methods": {
      "constructor": {
        "custom:oz-upgrades-unsafe-allow": "constructor"
      },
      "getRoleAdmin(bytes32)": {
        "details": "Returns the admin role that controls `role`. See {grantRole} and {revokeRole}. To change a role's admin, use {_setRoleAdmin}."
      },
      "grantRole(bytes32,address)": {
        "details": "Grants `role` to `account`. If `account` had not been already granted `role`, emits a {RoleGranted} event. Requirements: - the caller must have ``role``'s admin role. May emit a {RoleGranted} event."
      },
      "hasRole(bytes32,address)": {
        "details": "Returns `true` if `account` has been granted `role`."
      },
      "paused()": {
        "details": "Returns true if the contract is paused, and false otherwise."
      },
      "proxiableUUID()": {
        "details": "Implementation of the ERC1822 {proxiableUUID} function. This returns the storage slot used by the implementation. It is used to validate the implementation's compatibility when performing an upgrade. IMPORTANT: A proxy pointing at a proxiable contract should not be considered proxiable itself, because this risks bricking a proxy that upgrades to it, by delegating to itself until out of gas. Thus it is critical that this function revert if invoked through a proxy. This is guaranteed by the `notDelegated` modifier."
      },
      "renounceRole(bytes32,address)": {
        "details": "Revokes `role` from the calling account. Roles are often managed via {grantRole} and {revokeRole}: this function's purpose is to provide a mechanism for accounts to lose their privileges if they are compromised (such as when a trusted device is misplaced). If the calling account had been revoked `role`, emits a {RoleRevoked} event. Requirements: - the caller must be `account`. May emit a {RoleRevoked} event."
      },
      "revokeRole(bytes32,address)": {
        "details": "Revokes `role` from `account`. If `account` had been granted `role`, emits a {RoleRevoked} event. Requirements: - the caller must have ``role``'s admin role. May emit a {RoleRevoked} event."
      },
      "supportsInterface(bytes4)": {
        "details": "See {IERC165-supportsInterface}."
      },
      "upgradeTo(address)": {
        "details": "Upgrade the implementation of the proxy to `newImplementation`. Calls {_authorizeUpgrade}. Emits an {Upgraded} event."
      },
      "upgradeToAndCall(address,bytes)": {
        "details": "Upgrade the implementation of the proxy to `newImplementation`, and subsequently execute the function call encoded in `data`. Calls {_authorizeUpgrade}. Emits an {Upgraded} event."
      }
    },
    "version": 1
  },
  "userdoc": {
    "kind": "user",
    "methods": {},
    "version": 1
  }
}