{
  "contractName": "MarketplaceVault",
  "abi": [
    {
      "inputs": [],
      "stateMutability": "nonpayable",
      "type": "constructor"
    },
    {
      "anonymous": false,
      "inputs": [
        {
          "indexed": false,
          "internalType": "uint8",
          "name": "version",
          "type": "uint8"
        }
      ],
      "name": "Initialized",
      "type": "event"
    },
    {
      "anonymous": false,
      "inputs": [
        {
          "indexed": true,
          "internalType": "bytes32",
          "name": "role",
          "type": "bytes32"
        },
        {
          "indexed": true,
          "internalType": "bytes32",
          "name": "previousAdminRole",
          "type": "bytes32"
        },
        {
          "indexed": true,
          "internalType": "bytes32",
          "name": "newAdminRole",
          "type": "bytes32"
        }
      ],
      "name": "RoleAdminChanged",
      "type": "event"
    },
    {
      "anonymous": false,
      "inputs": [
        {
          "indexed": true,
          "internalType": "bytes32",
          "name": "role",
          "type": "bytes32"
        },
        {
          "indexed": true,
          "internalType": "address",
          "name": "account",
          "type": "address"
        },
        {
          "indexed": true,
          "internalType": "address",
          "name": "sender",
          "type": "address"
        }
      ],
      "name": "RoleGranted",
      "type": "event"
    },
    {
      "anonymous": false,
      "inputs": [
        {
          "indexed": true,
          "internalType": "bytes32",
          "name": "role",
          "type": "bytes32"
        },
        {
          "indexed": true,
          "internalType": "address",
          "name": "account",
          "type": "address"
        },
        {
          "indexed": true,
          "internalType": "address",
          "name": "sender",
          "type": "address"
        }
      ],
      "name": "RoleRevoked",
      "type": "event"
    },
    {
      "inputs": [],
      "name": "DEFAULT_ADMIN_ROLE",
      "outputs": [
        {
          "internalType": "bytes32",
          "name": "",
          "type": "bytes32"
        }
      ],
      "stateMutability": "view",
      "type": "function",
      "constant": true
    },
    {
      "inputs": [],
      "name": "FUND_MOVER_ROLE",
      "outputs": [
        {
          "internalType": "bytes32",
          "name": "",
          "type": "bytes32"
        }
      ],
      "stateMutability": "view",
      "type": "function",
      "constant": true
    },
    {
      "inputs": [],
      "name": "UPGRADER_ROLE",
      "outputs": [
        {
          "internalType": "bytes32",
          "name": "",
          "type": "bytes32"
        }
      ],
      "stateMutability": "view",
      "type": "function",
      "constant": true
    },
    {
      "inputs": [
        {
          "internalType": "bytes32",
          "name": "role",
          "type": "bytes32"
        }
      ],
      "name": "getRoleAdmin",
      "outputs": [
        {
          "internalType": "bytes32",
          "name": "",
          "type": "bytes32"
        }
      ],
      "stateMutability": "view",
      "type": "function",
      "constant": true
    },
    {
      "inputs": [
        {
          "internalType": "bytes32",
          "name": "role",
          "type": "bytes32"
        },
        {
          "internalType": "address",
          "name": "account",
          "type": "address"
        }
      ],
      "name": "grantRole",
      "outputs": [],
      "stateMutability": "nonpayable",
      "type": "function"
    },
    {
      "inputs": [
        {
          "internalType": "bytes32",
          "name": "role",
          "type": "bytes32"
        },
        {
          "internalType": "address",
          "name": "account",
          "type": "address"
        }
      ],
      "name": "hasRole",
      "outputs": [
        {
          "internalType": "bool",
          "name": "",
          "type": "bool"
        }
      ],
      "stateMutability": "view",
      "type": "function",
      "constant": true
    },
    {
      "inputs": [],
      "name": "name",
      "outputs": [
        {
          "internalType": "string",
          "name": "",
          "type": "string"
        }
      ],
      "stateMutability": "view",
      "type": "function",
      "constant": true
    },
    {
      "inputs": [
        {
          "internalType": "address",
          "name": "",
          "type": "address"
        },
        {
          "internalType": "address",
          "name": "",
          "type": "address"
        },
        {
          "internalType": "uint256[]",
          "name": "",
          "type": "uint256[]"
        },
        {
          "internalType": "uint256[]",
          "name": "",
          "type": "uint256[]"
        },
        {
          "internalType": "bytes",
          "name": "",
          "type": "bytes"
        }
      ],
      "name": "onERC1155BatchReceived",
      "outputs": [
        {
          "internalType": "bytes4",
          "name": "",
          "type": "bytes4"
        }
      ],
      "stateMutability": "nonpayable",
      "type": "function"
    },
    {
      "inputs": [
        {
          "internalType": "address",
          "name": "",
          "type": "address"
        },
        {
          "internalType": "address",
          "name": "",
          "type": "address"
        },
        {
          "internalType": "uint256",
          "name": "",
          "type": "uint256"
        },
        {
          "internalType": "uint256",
          "name": "",
          "type": "uint256"
        },
        {
          "internalType": "bytes",
          "name": "",
          "type": "bytes"
        }
      ],
      "name": "onERC1155Received",
      "outputs": [
        {
          "internalType": "bytes4",
          "name": "",
          "type": "bytes4"
        }
      ],
      "stateMutability": "nonpayable",
      "type": "function"
    },
    {
      "inputs": [
        {
          "internalType": "bytes32",
          "name": "role",
          "type": "bytes32"
        },
        {
          "internalType": "address",
          "name": "account",
          "type": "address"
        }
      ],
      "name": "renounceRole",
      "outputs": [],
      "stateMutability": "nonpayable",
      "type": "function"
    },
    {
      "inputs": [
        {
          "internalType": "bytes32",
          "name": "role",
          "type": "bytes32"
        },
        {
          "internalType": "address",
          "name": "account",
          "type": "address"
        }
      ],
      "name": "revokeRole",
      "outputs": [],
      "stateMutability": "nonpayable",
      "type": "function"
    },
    {
      "inputs": [
        {
          "internalType": "address",
          "name": "_owner",
          "type": "address"
        },
        {
          "internalType": "string",
          "name": "_name",
          "type": "string"
        }
      ],
      "name": "initialize",
      "outputs": [],
      "stateMutability": "nonpayable",
      "type": "function"
    },
    {
      "inputs": [
        {
          "internalType": "address",
          "name": "token",
          "type": "address"
        },
        {
          "internalType": "address",
          "name": "to",
          "type": "address"
        },
        {
          "internalType": "uint256",
          "name": "tokenId",
          "type": "uint256"
        },
        {
          "internalType": "uint256",
          "name": "amount",
          "type": "uint256"
        },
        {
          "internalType": "bytes",
          "name": "data",
          "type": "bytes"
        }
      ],
      "name": "transferERC1155",
      "outputs": [],
      "stateMutability": "nonpayable",
      "type": "function"
    },
    {
      "inputs": [
        {
          "internalType": "address",
          "name": "token",
          "type": "address"
        },
        {
          "internalType": "uint256",
          "name": "tokenId",
          "type": "uint256"
        },
        {
          "internalType": "uint256",
          "name": "amount",
          "type": "uint256"
        },
        {
          "internalType": "address",
          "name": "retiree",
          "type": "address"
        },
        {
          "internalType": "string",
          "name": "retireeName",
          "type": "string"
        },
        {
          "internalType": "string",
          "name": "customUri",
          "type": "string"
        },
        {
          "internalType": "string",
          "name": "comment",
          "type": "string"
        },
        {
          "internalType": "bytes",
          "name": "data",
          "type": "bytes"
        }
      ],
      "name": "retireCredit",
      "outputs": [],
      "stateMutability": "nonpayable",
      "type": "function"
    },
    {
      "inputs": [
        {
          "internalType": "bytes4",
          "name": "interfaceId",
          "type": "bytes4"
        }
      ],
      "name": "supportsInterface",
      "outputs": [
        {
          "internalType": "bool",
          "name": "",
          "type": "bool"
        }
      ],
      "stateMutability": "view",
      "type": "function",
      "constant": true
    }
  ],
  "bytecode": "0x608060405234801561001057600080fd5b5061001961001e565b6100de565b600054610100900460ff161561008a5760405162461bcd60e51b815260206004820152602760248201527f496e697469616c697a61626c653a20636f6e747261637420697320696e697469604482015266616c697a696e6760c81b606482015260840160405180910390fd5b60005460ff90811610156100dc576000805460ff191660ff9081179091556040519081527f7f26b83ff96e1f2b6a682f133852f6798a09c465da95921460cefb38474024989060200160405180910390a15b565b61118a806100ed6000396000f3fe608060405234801561001057600080fd5b50600436106100c55760003560e01c806301ffc9a7146100ca57806306fdde03146100f2578063248a9ca3146101075780632f2ff15d1461012857806336568abe1461013d57806348134d0d14610150578063731d1ae31461016357806391d1485414610178578063a217fddf1461018b578063bc197c8114610193578063d547741f146101cb578063dbecc616146101de578063f23a6e61146101f1578063f399e22e14610210578063f72c0d8b14610223575b600080fd5b6100dd6100d8366004610ac0565b610238565b60405190151581526020015b60405180910390f35b6100fa610249565b6040516100e99190610b46565b61011a610115366004610b59565b6102d7565b6040519081526020016100e9565b61013b610136366004610b8e565b6102ec565b005b61013b61014b366004610b8e565b61030d565b61013b61015e366004610c6f565b610390565b61011a60008051602061111583398151915281565b6100dd610186366004610b8e565b61042f565b61011a600081565b6101b26101a1366004610dcf565b63bc197c8160e01b95945050505050565b6040516001600160e01b031990911681526020016100e9565b61013b6101d9366004610b8e565b61045a565b61013b6101ec366004610e78565b610476565b6101b26101ff366004610e78565b63f23a6e6160e01b95945050505050565b61013b61021e366004610edc565b6104f0565b61011a60008051602061113583398151915281565b600061024382610659565b92915050565b60fb805461025690610f29565b80601f016020809104026020016040519081016040528092919081815260200182805461028290610f29565b80156102cf5780601f106102a4576101008083540402835291602001916102cf565b820191906000526020600020905b8154815290600101906020018083116102b257829003601f168201915b505050505081565b60009081526065602052604090206001015490565b6102f5826102d7565b6102fe8161067e565b610308838361068b565b505050565b6001600160a01b03811633146103825760405162461bcd60e51b815260206004820152602f60248201527f416363657373436f6e74726f6c3a2063616e206f6e6c792072656e6f756e636560448201526e103937b632b9903337b91039b2b63360891b60648201526084015b60405180910390fd5b61038c8282610711565b5050565b6000805160206111158339815191526103a88161067e565b6040516309d7537b60e21b81526001600160a01b038a169063275d4dec906103e0908b908b908b908b908b908b908b90600401610f63565b6020604051808303816000875af11580156103ff573d6000803e3d6000fd5b505050506040513d601f19601f820116820180604052508101906104239190610fd8565b50505050505050505050565b60009182526065602090815260408084206001600160a01b0393909316845291905290205460ff1690565b610463826102d7565b61046c8161067e565b6103088383610711565b60008051602061111583398151915261048e8161067e565b604051637921219560e11b81526001600160a01b0387169063f242432a906104c29030908990899089908990600401610ff1565b600060405180830381600087803b1580156104dc57600080fd5b505af1158015610423573d6000803e3d6000fd5b600054610100900460ff16158080156105105750600054600160ff909116105b8061052a5750303b15801561052a575060005460ff166001145b61058d5760405162461bcd60e51b815260206004820152602e60248201527f496e697469616c697a61626c653a20636f6e747261637420697320616c72656160448201526d191e481a5b9a5d1a585b1a5e995960921b6064820152608401610379565b6000805460ff1916600117905580156105b0576000805461ff0019166101001790555b6105b8610778565b6105c0610778565b6105cb60008461068b565b6105e36000805160206111358339815191528461068b565b6105fb6000805160206111158339815191528461068b565b815161060e9060fb906020850190610a27565b508015610308576000805461ff0019169055604051600181527f7f26b83ff96e1f2b6a682f133852f6798a09c465da95921460cefb38474024989060200160405180910390a1505050565b60006001600160e01b03198216630271189760e51b14806102435750610243826107e5565b610688813361081a565b50565b610695828261042f565b61038c5760008281526065602090815260408083206001600160a01b03851684529091529020805460ff191660011790556106cd3390565b6001600160a01b0316816001600160a01b0316837f2f8788117e7eff1d82e926ec794901d17c78024a50270940304540a733656f0d60405160405180910390a45050565b61071b828261042f565b1561038c5760008281526065602090815260408083206001600160a01b0385168085529252808320805460ff1916905551339285917ff6391f5c32d9c69d2a47ea670b442974b53935d1edc7fd64eb21e047a839171b9190a45050565b600054610100900460ff166107e35760405162461bcd60e51b815260206004820152602b60248201527f496e697469616c697a61626c653a20636f6e7472616374206973206e6f74206960448201526a6e697469616c697a696e6760a81b6064820152608401610379565b565b60006001600160e01b03198216637965db0b60e01b148061024357506301ffc9a760e01b6001600160e01b0319831614610243565b610824828261042f565b61038c5761083181610873565b61083c836020610885565b60405160200161084d92919061102b565b60408051601f198184030181529082905262461bcd60e51b825261037991600401610b46565b60606102436001600160a01b03831660145b606060006108948360026110b0565b61089f9060026110cf565b6001600160401b038111156108b6576108b6610bba565b6040519080825280601f01601f1916602001820160405280156108e0576020820181803683370190505b509050600360fc1b816000815181106108fb576108fb6110e7565b60200101906001600160f81b031916908160001a905350600f60fb1b8160018151811061092a5761092a6110e7565b60200101906001600160f81b031916908160001a905350600061094e8460026110b0565b6109599060016110cf565b90505b60018111156109d1576f181899199a1a9b1b9c1cb0b131b232b360811b85600f166010811061098d5761098d6110e7565b1a60f81b8282815181106109a3576109a36110e7565b60200101906001600160f81b031916908160001a90535060049490941c936109ca816110fd565b905061095c565b508315610a205760405162461bcd60e51b815260206004820181905260248201527f537472696e67733a20686578206c656e67746820696e73756666696369656e746044820152606401610379565b9392505050565b828054610a3390610f29565b90600052602060002090601f016020900481019282610a555760008555610a9b565b82601f10610a6e57805160ff1916838001178555610a9b565b82800160010185558215610a9b579182015b82811115610a9b578251825591602001919060010190610a80565b50610aa7929150610aab565b5090565b5b80821115610aa75760008155600101610aac565b600060208284031215610ad257600080fd5b81356001600160e01b031981168114610a2057600080fd5b60005b83811015610b05578181015183820152602001610aed565b83811115610b14576000848401525b50505050565b60008151808452610b32816020860160208601610aea565b601f01601f19169290920160200192915050565b602081526000610a206020830184610b1a565b600060208284031215610b6b57600080fd5b5035919050565b80356001600160a01b0381168114610b8957600080fd5b919050565b60008060408385031215610ba157600080fd5b82359150610bb160208401610b72565b90509250929050565b634e487b7160e01b600052604160045260246000fd5b604051601f8201601f191681016001600160401b0381118282101715610bf857610bf8610bba565b604052919050565b600082601f830112610c1157600080fd5b81356001600160401b03811115610c2a57610c2a610bba565b610c3d601f8201601f1916602001610bd0565b818152846020838601011115610c5257600080fd5b816020850160208301376000918101602001919091529392505050565b600080600080600080600080610100898b031215610c8c57600080fd5b610c9589610b72565b97506020890135965060408901359550610cb160608a01610b72565b945060808901356001600160401b0380821115610ccd57600080fd5b610cd98c838d01610c00565b955060a08b0135915080821115610cef57600080fd5b610cfb8c838d01610c00565b945060c08b0135915080821115610d1157600080fd5b610d1d8c838d01610c00565b935060e08b0135915080821115610d3357600080fd5b50610d408b828c01610c00565b9150509295985092959890939650565b600082601f830112610d6157600080fd5b813560206001600160401b03821115610d7c57610d7c610bba565b8160051b610d8b828201610bd0565b9283528481018201928281019087851115610da557600080fd5b83870192505b84831015610dc457823582529183019190830190610dab565b979650505050505050565b600080600080600060a08688031215610de757600080fd5b610df086610b72565b9450610dfe60208701610b72565b935060408601356001600160401b0380821115610e1a57600080fd5b610e2689838a01610d50565b94506060880135915080821115610e3c57600080fd5b610e4889838a01610d50565b93506080880135915080821115610e5e57600080fd5b50610e6b88828901610c00565b9150509295509295909350565b600080600080600060a08688031215610e9057600080fd5b610e9986610b72565b9450610ea760208701610b72565b9350604086013592506060860135915060808601356001600160401b03811115610ed057600080fd5b610e6b88828901610c00565b60008060408385031215610eef57600080fd5b610ef883610b72565b915060208301356001600160401b03811115610f1357600080fd5b610f1f85828601610c00565b9150509250929050565b600181811c90821680610f3d57607f821691505b602082108103610f5d57634e487b7160e01b600052602260045260246000fd5b50919050565b87815286602082015260018060a01b038616604082015260e060608201526000610f9060e0830187610b1a565b8281036080840152610fa28187610b1a565b905082810360a0840152610fb68186610b1a565b905082810360c0840152610fca8185610b1a565b9a9950505050505050505050565b600060208284031215610fea57600080fd5b5051919050565b6001600160a01b03868116825285166020820152604081018490526060810183905260a060808201819052600090610dc490830184610b1a565b76020b1b1b2b9b9a1b7b73a3937b61d1030b1b1b7bab73a1604d1b81526000835161105d816017850160208801610aea565b7001034b99036b4b9b9b4b733903937b6329607d1b601791840191820152835161108e816028840160208801610aea565b01602801949350505050565b634e487b7160e01b600052601160045260246000fd5b60008160001904831182151516156110ca576110ca61109a565b500290565b600082198211156110e2576110e261109a565b500190565b634e487b7160e01b600052603260045260246000fd5b60008161110c5761110c61109a565b50600019019056febc431b5ac0643cd75d9092da271ffd7cd3abd128e5e4ba7bc66bf028c544cbdf189ab7a9244df0848122154315af71fe140f3db0fe014031783b0946b8c9d2e3a264697066735822122029fbdb2ce94ba93b9668080addbf907c7fd0884faef8d737a5bbe8802d5f0d7864736f6c634300080d0033",
  "immutableReferences": {},
  "source": "// SPDX-License-Identifier: MIT\npragma solidity ^0.8.13;\n\nimport \"@openzeppelin/contracts-upgradeable/access/AccessControlUpgradeable.sol\";\nimport \"@openzeppelin/contracts-upgradeable/proxy/utils/Initializable.sol\";\nimport \"@openzeppelin/contracts-upgradeable/proxy/utils/UUPSUpgradeable.sol\";\nimport \"@openzeppelin/contracts-upgradeable/token/ERC1155/utils/ERC1155HolderUpgradeable.sol\";\nimport \"./MarketplaceVaultStorage.sol\";\nimport \"../interfaces/IProject.sol\";\nimport \"@openzeppelin/contracts-upgradeable/token/ERC1155/IERC1155Upgradeable.sol\";\n\ncontract MarketplaceVault is Initializable, AccessControlUpgradeable, ERC1155HolderUpgradeable, MarketplaceVaultStorage {\n    bytes32 public constant UPGRADER_ROLE = keccak256(\"UPGRADER_ROLE\");\n    bytes32 public constant FUND_MOVER_ROLE = keccak256(\"FUND_MOVER_ROLE\");\n\n    /// @custom:oz-upgrades-unsafe-allow constructor\n    constructor() {\n        _disableInitializers();\n    }\n\n    function initialize(address _owner, string memory _name) initializer public {\n        __AccessControl_init();\n        __ERC1155Holder_init();\n        \n        _grantRole(DEFAULT_ADMIN_ROLE, _owner);\n        _grantRole(UPGRADER_ROLE, _owner);\n        _grantRole(FUND_MOVER_ROLE, _owner);\n\n        name = _name;\n    }\n\n    function transferERC1155(\n        address token,\n        address to,\n        uint256 tokenId,\n        uint256 amount,\n        bytes memory data\n    ) external onlyRole(FUND_MOVER_ROLE) {\n        IERC1155Upgradeable(token).safeTransferFrom(address(this), to, tokenId, amount, data);\n    }\n\n    function retireCredit(\n        address token,\n        uint256 tokenId,\n\t\tuint256 amount,\n\t\taddress retiree,\n\t\tstring memory retireeName,\n\t\tstring memory customUri,\n\t\tstring memory comment,\n\t\tbytes memory data\n        ) public onlyRole(FUND_MOVER_ROLE){\n            IProject(token).retire(\n                tokenId,\n                amount,\n                retiree,\n                retireeName,\n                customUri,\n                comment,\n                data\n            );\n        }\n\n\n    \tfunction supportsInterface(\n\t\tbytes4 interfaceId\n\t)\n\t\tpublic\n\t\tview\n\t\toverride(AccessControlUpgradeable,ERC1155ReceiverUpgradeable)\n\t\treturns (bool)\n\t{\n\t\treturn super.supportsInterface(interfaceId);\n\t}\n}",
  "sourcePath": "/Users/thorduragustsson/Programming/Projects/CarbonRegistryContracts/contracts/marketplaces/MarketplaceVault.sol",
  "compiler": {
    "name": "solc",
    "version": "0.8.13+commit.abaa5c0e.Emscripten.clang"
  },
  "schemaVersion": "3.4.13",
  "updatedAt": "2023-06-27T17:18:41.199Z",
  "networkType": "ethereum",
  "devdoc": {
    "kind": "dev",
    "methods": {
      "constructor": {
        "custom:oz-upgrades-unsafe-allow": "constructor"
      },
      "getRoleAdmin(bytes32)": {
        "details": "Returns the admin role that controls `role`. See {grantRole} and {revokeRole}. To change a role's admin, use {_setRoleAdmin}."
      },
      "grantRole(bytes32,address)": {
        "details": "Grants `role` to `account`. If `account` had not been already granted `role`, emits a {RoleGranted} event. Requirements: - the caller must have ``role``'s admin role. May emit a {RoleGranted} event."
      },
      "hasRole(bytes32,address)": {
        "details": "Returns `true` if `account` has been granted `role`."
      },
      "renounceRole(bytes32,address)": {
        "details": "Revokes `role` from the calling account. Roles are often managed via {grantRole} and {revokeRole}: this function's purpose is to provide a mechanism for accounts to lose their privileges if they are compromised (such as when a trusted device is misplaced). If the calling account had been revoked `role`, emits a {RoleRevoked} event. Requirements: - the caller must be `account`. May emit a {RoleRevoked} event."
      },
      "revokeRole(bytes32,address)": {
        "details": "Revokes `role` from `account`. If `account` had been granted `role`, emits a {RoleRevoked} event. Requirements: - the caller must have ``role``'s admin role. May emit a {RoleRevoked} event."
      }
    },
    "version": 1
  },
  "userdoc": {
    "kind": "user",
    "methods": {},
    "version": 1
  }
}