{
  "contractName": "Project",
  "abi": [
    {
      "inputs": [],
      "stateMutability": "nonpayable",
      "type": "constructor"
    },
    {
      "anonymous": false,
      "inputs": [
        {
          "indexed": true,
          "internalType": "address",
          "name": "from",
          "type": "address"
        },
        {
          "indexed": true,
          "internalType": "uint256",
          "name": "tokenId",
          "type": "uint256"
        },
        {
          "indexed": false,
          "internalType": "uint256",
          "name": "amount",
          "type": "uint256"
        },
        {
          "indexed": true,
          "internalType": "enum AdminActionReason",
          "name": "reason",
          "type": "uint8"
        }
      ],
      "name": "AdminBurn",
      "type": "event"
    },
    {
      "anonymous": false,
      "inputs": [
        {
          "indexed": false,
          "internalType": "address",
          "name": "previousAdmin",
          "type": "address"
        },
        {
          "indexed": false,
          "internalType": "address",
          "name": "newAdmin",
          "type": "address"
        }
      ],
      "name": "AdminChanged",
      "type": "event"
    },
    {
      "anonymous": false,
      "inputs": [
        {
          "indexed": true,
          "internalType": "address",
          "name": "from",
          "type": "address"
        },
        {
          "indexed": false,
          "internalType": "address",
          "name": "to",
          "type": "address"
        },
        {
          "indexed": true,
          "internalType": "uint256",
          "name": "tokenId",
          "type": "uint256"
        },
        {
          "indexed": false,
          "internalType": "uint256",
          "name": "amount",
          "type": "uint256"
        },
        {
          "indexed": true,
          "internalType": "enum AdminActionReason",
          "name": "reason",
          "type": "uint8"
        }
      ],
      "name": "AdminClawback",
      "type": "event"
    },
    {
      "anonymous": false,
      "inputs": [
        {
          "indexed": true,
          "internalType": "address",
          "name": "account",
          "type": "address"
        },
        {
          "indexed": true,
          "internalType": "address",
          "name": "operator",
          "type": "address"
        },
        {
          "indexed": false,
          "internalType": "bool",
          "name": "approved",
          "type": "bool"
        }
      ],
      "name": "ApprovalForAll",
      "type": "event"
    },
    {
      "anonymous": false,
      "inputs": [
        {
          "indexed": true,
          "internalType": "address",
          "name": "beacon",
          "type": "address"
        }
      ],
      "name": "BeaconUpgraded",
      "type": "event"
    },
    {
      "anonymous": false,
      "inputs": [
        {
          "indexed": true,
          "internalType": "address",
          "name": "account",
          "type": "address"
        },
        {
          "indexed": true,
          "internalType": "uint256",
          "name": "tokenId",
          "type": "uint256"
        },
        {
          "indexed": false,
          "internalType": "uint256",
          "name": "amount",
          "type": "uint256"
        },
        {
          "indexed": false,
          "internalType": "string",
          "name": "reason",
          "type": "string"
        },
        {
          "indexed": false,
          "internalType": "bytes",
          "name": "data",
          "type": "bytes"
        }
      ],
      "name": "CancelledCredits",
      "type": "event"
    },
    {
      "anonymous": false,
      "inputs": [
        {
          "indexed": true,
          "internalType": "uint256",
          "name": "exAnteTokenId",
          "type": "uint256"
        },
        {
          "indexed": true,
          "internalType": "uint256",
          "name": "exPostTokenId",
          "type": "uint256"
        },
        {
          "indexed": true,
          "internalType": "address",
          "name": "account",
          "type": "address"
        },
        {
          "indexed": false,
          "internalType": "uint256",
          "name": "amount",
          "type": "uint256"
        }
      ],
      "name": "ExAnteMinted",
      "type": "event"
    },
    {
      "anonymous": false,
      "inputs": [
        {
          "indexed": true,
          "internalType": "uint256",
          "name": "tokenId",
          "type": "uint256"
        },
        {
          "indexed": false,
          "internalType": "uint256",
          "name": "estimatedAmount",
          "type": "uint256"
        },
        {
          "indexed": false,
          "internalType": "uint256",
          "name": "verificationPeriodStart",
          "type": "uint256"
        },
        {
          "indexed": false,
          "internalType": "uint256",
          "name": "verificationPeriodEnd",
          "type": "uint256"
        },
        {
          "indexed": false,
          "internalType": "string",
          "name": "serialization",
          "type": "string"
        }
      ],
      "name": "ExPostCreated",
      "type": "event"
    },
    {
      "anonymous": false,
      "inputs": [
        {
          "indexed": true,
          "internalType": "uint256",
          "name": "tokenId",
          "type": "uint256"
        },
        {
          "indexed": false,
          "internalType": "uint256",
          "name": "amount",
          "type": "uint256"
        },
        {
          "indexed": false,
          "internalType": "uint256",
          "name": "amountToAnteHolders",
          "type": "uint256"
        },
        {
          "indexed": false,
          "internalType": "uint256",
          "name": "verificationPeriodStart",
          "type": "uint256"
        },
        {
          "indexed": false,
          "internalType": "uint256",
          "name": "verificationPeriodEnd",
          "type": "uint256"
        },
        {
          "indexed": false,
          "internalType": "string",
          "name": "monitoringReport",
          "type": "string"
        }
      ],
      "name": "ExPostVerifiedAndMinted",
      "type": "event"
    },
    {
      "anonymous": false,
      "inputs": [
        {
          "indexed": true,
          "internalType": "address",
          "name": "account",
          "type": "address"
        },
        {
          "indexed": true,
          "internalType": "uint256",
          "name": "exPostTokenId",
          "type": "uint256"
        },
        {
          "indexed": false,
          "internalType": "uint256",
          "name": "exPostAmountReceived",
          "type": "uint256"
        },
        {
          "indexed": false,
          "internalType": "uint256",
          "name": "exAnteAmountBurned",
          "type": "uint256"
        }
      ],
      "name": "ExchangeAnteForPost",
      "type": "event"
    },
    {
      "anonymous": false,
      "inputs": [
        {
          "indexed": false,
          "internalType": "uint8",
          "name": "version",
          "type": "uint8"
        }
      ],
      "name": "Initialized",
      "type": "event"
    },
    {
      "anonymous": false,
      "inputs": [
        {
          "indexed": false,
          "internalType": "address",
          "name": "account",
          "type": "address"
        }
      ],
      "name": "Paused",
      "type": "event"
    },
    {
      "anonymous": false,
      "inputs": [
        {
          "indexed": true,
          "internalType": "address",
          "name": "account",
          "type": "address"
        },
        {
          "indexed": true,
          "internalType": "uint256",
          "name": "tokenId",
          "type": "uint256"
        },
        {
          "indexed": false,
          "internalType": "uint256",
          "name": "amount",
          "type": "uint256"
        },
        {
          "indexed": false,
          "internalType": "uint256",
          "name": "nftTokenId",
          "type": "uint256"
        },
        {
          "indexed": false,
          "internalType": "bytes",
          "name": "data",
          "type": "bytes"
        }
      ],
      "name": "RetiredVintage",
      "type": "event"
    },
    {
      "anonymous": false,
      "inputs": [
        {
          "indexed": true,
          "internalType": "bytes32",
          "name": "role",
          "type": "bytes32"
        },
        {
          "indexed": true,
          "internalType": "bytes32",
          "name": "previousAdminRole",
          "type": "bytes32"
        },
        {
          "indexed": true,
          "internalType": "bytes32",
          "name": "newAdminRole",
          "type": "bytes32"
        }
      ],
      "name": "RoleAdminChanged",
      "type": "event"
    },
    {
      "anonymous": false,
      "inputs": [
        {
          "indexed": true,
          "internalType": "bytes32",
          "name": "role",
          "type": "bytes32"
        },
        {
          "indexed": true,
          "internalType": "address",
          "name": "account",
          "type": "address"
        },
        {
          "indexed": true,
          "internalType": "address",
          "name": "sender",
          "type": "address"
        }
      ],
      "name": "RoleGranted",
      "type": "event"
    },
    {
      "anonymous": false,
      "inputs": [
        {
          "indexed": true,
          "internalType": "bytes32",
          "name": "role",
          "type": "bytes32"
        },
        {
          "indexed": true,
          "internalType": "address",
          "name": "account",
          "type": "address"
        },
        {
          "indexed": true,
          "internalType": "address",
          "name": "sender",
          "type": "address"
        }
      ],
      "name": "RoleRevoked",
      "type": "event"
    },
    {
      "anonymous": false,
      "inputs": [
        {
          "indexed": true,
          "internalType": "address",
          "name": "operator",
          "type": "address"
        },
        {
          "indexed": true,
          "internalType": "address",
          "name": "from",
          "type": "address"
        },
        {
          "indexed": true,
          "internalType": "address",
          "name": "to",
          "type": "address"
        },
        {
          "indexed": false,
          "internalType": "uint256[]",
          "name": "ids",
          "type": "uint256[]"
        },
        {
          "indexed": false,
          "internalType": "uint256[]",
          "name": "values",
          "type": "uint256[]"
        }
      ],
      "name": "TransferBatch",
      "type": "event"
    },
    {
      "anonymous": false,
      "inputs": [
        {
          "indexed": false,
          "internalType": "bytes",
          "name": "signature",
          "type": "bytes"
        },
        {
          "components": [
            {
              "internalType": "uint256",
              "name": "deadline",
              "type": "uint256"
            },
            {
              "internalType": "string",
              "name": "description",
              "type": "string"
            },
            {
              "internalType": "address",
              "name": "signer",
              "type": "address"
            },
            {
              "internalType": "address",
              "name": "to",
              "type": "address"
            },
            {
              "internalType": "uint256",
              "name": "tokenId",
              "type": "uint256"
            },
            {
              "internalType": "uint256",
              "name": "amount",
              "type": "uint256"
            },
            {
              "internalType": "uint256",
              "name": "nonce",
              "type": "uint256"
            }
          ],
          "indexed": false,
          "internalType": "struct signatureTransferPayload",
          "name": "payload",
          "type": "tuple"
        }
      ],
      "name": "TransferSignatureValid",
      "type": "event"
    },
    {
      "anonymous": false,
      "inputs": [
        {
          "indexed": true,
          "internalType": "address",
          "name": "operator",
          "type": "address"
        },
        {
          "indexed": true,
          "internalType": "address",
          "name": "from",
          "type": "address"
        },
        {
          "indexed": true,
          "internalType": "address",
          "name": "to",
          "type": "address"
        },
        {
          "indexed": false,
          "internalType": "uint256",
          "name": "id",
          "type": "uint256"
        },
        {
          "indexed": false,
          "internalType": "uint256",
          "name": "value",
          "type": "uint256"
        }
      ],
      "name": "TransferSingle",
      "type": "event"
    },
    {
      "anonymous": false,
      "inputs": [
        {
          "indexed": false,
          "internalType": "string",
          "name": "value",
          "type": "string"
        },
        {
          "indexed": true,
          "internalType": "uint256",
          "name": "id",
          "type": "uint256"
        }
      ],
      "name": "URI",
      "type": "event"
    },
    {
      "anonymous": false,
      "inputs": [
        {
          "indexed": false,
          "internalType": "address",
          "name": "account",
          "type": "address"
        }
      ],
      "name": "Unpaused",
      "type": "event"
    },
    {
      "anonymous": false,
      "inputs": [
        {
          "indexed": true,
          "internalType": "address",
          "name": "implementation",
          "type": "address"
        }
      ],
      "name": "Upgraded",
      "type": "event"
    },
    {
      "anonymous": false,
      "inputs": [
        {
          "indexed": true,
          "internalType": "uint256",
          "name": "tokenId",
          "type": "uint256"
        },
        {
          "indexed": false,
          "internalType": "uint256",
          "name": "newEstimate",
          "type": "uint256"
        },
        {
          "indexed": false,
          "internalType": "uint256",
          "name": "oldEstimate",
          "type": "uint256"
        },
        {
          "indexed": true,
          "internalType": "enum AdminActionReason",
          "name": "reason",
          "type": "uint8"
        }
      ],
      "name": "VintageMitigationEstimateChanged",
      "type": "event"
    },
    {
      "inputs": [],
      "name": "ANTE_MINTER_ROLE",
      "outputs": [
        {
          "internalType": "bytes32",
          "name": "",
          "type": "bytes32"
        }
      ],
      "stateMutability": "view",
      "type": "function"
    },
    {
      "inputs": [],
      "name": "BLACKLISTED",
      "outputs": [
        {
          "internalType": "bytes32",
          "name": "",
          "type": "bytes32"
        }
      ],
      "stateMutability": "view",
      "type": "function"
    },
    {
      "inputs": [],
      "name": "BLACKLISTER_ROLE",
      "outputs": [
        {
          "internalType": "bytes32",
          "name": "",
          "type": "bytes32"
        }
      ],
      "stateMutability": "view",
      "type": "function"
    },
    {
      "inputs": [],
      "name": "BURNER_ROLE",
      "outputs": [
        {
          "internalType": "bytes32",
          "name": "",
          "type": "bytes32"
        }
      ],
      "stateMutability": "view",
      "type": "function"
    },
    {
      "inputs": [],
      "name": "CLAWBACK_ROLE",
      "outputs": [
        {
          "internalType": "bytes32",
          "name": "",
          "type": "bytes32"
        }
      ],
      "stateMutability": "view",
      "type": "function"
    },
    {
      "inputs": [],
      "name": "DEFAULT_ADMIN_ROLE",
      "outputs": [
        {
          "internalType": "bytes32",
          "name": "",
          "type": "bytes32"
        }
      ],
      "stateMutability": "view",
      "type": "function"
    },
    {
      "inputs": [],
      "name": "MINTER_ROLE",
      "outputs": [
        {
          "internalType": "bytes32",
          "name": "",
          "type": "bytes32"
        }
      ],
      "stateMutability": "view",
      "type": "function"
    },
    {
      "inputs": [],
      "name": "PAUSER_ROLE",
      "outputs": [
        {
          "internalType": "bytes32",
          "name": "",
          "type": "bytes32"
        }
      ],
      "stateMutability": "view",
      "type": "function"
    },
    {
      "inputs": [],
      "name": "POST_MINTER_ROLE",
      "outputs": [
        {
          "internalType": "bytes32",
          "name": "",
          "type": "bytes32"
        }
      ],
      "stateMutability": "view",
      "type": "function"
    },
    {
      "inputs": [],
      "name": "UPGRADER_ROLE",
      "outputs": [
        {
          "internalType": "bytes32",
          "name": "",
          "type": "bytes32"
        }
      ],
      "stateMutability": "view",
      "type": "function"
    },
    {
      "inputs": [],
      "name": "URI_SETTER_ROLE",
      "outputs": [
        {
          "internalType": "bytes32",
          "name": "",
          "type": "bytes32"
        }
      ],
      "stateMutability": "view",
      "type": "function"
    },
    {
      "inputs": [],
      "name": "VERIFIER_ROLE",
      "outputs": [
        {
          "internalType": "bytes32",
          "name": "",
          "type": "bytes32"
        }
      ],
      "stateMutability": "view",
      "type": "function"
    },
    {
      "inputs": [
        {
          "internalType": "address",
          "name": "_contractRegistry",
          "type": "address"
        },
        {
          "internalType": "uint8",
          "name": "_maxAntePerc",
          "type": "uint8"
        },
        {
          "internalType": "uint256",
          "name": "_projectId",
          "type": "uint256"
        },
        {
          "internalType": "string",
          "name": "_projectName",
          "type": "string"
        },
        {
          "internalType": "string",
          "name": "projectUri",
          "type": "string"
        },
        {
          "internalType": "string",
          "name": "methodology",
          "type": "string"
        }
      ],
      "name": "__ProjectStorage_init",
      "outputs": [],
      "stateMutability": "nonpayable",
      "type": "function"
    },
    {
      "inputs": [
        {
          "internalType": "address",
          "name": "account",
          "type": "address"
        },
        {
          "internalType": "uint256",
          "name": "id",
          "type": "uint256"
        }
      ],
      "name": "balanceOf",
      "outputs": [
        {
          "internalType": "uint256",
          "name": "",
          "type": "uint256"
        }
      ],
      "stateMutability": "view",
      "type": "function"
    },
    {
      "inputs": [
        {
          "internalType": "address[]",
          "name": "accounts",
          "type": "address[]"
        },
        {
          "internalType": "uint256[]",
          "name": "ids",
          "type": "uint256[]"
        }
      ],
      "name": "balanceOfBatch",
      "outputs": [
        {
          "internalType": "uint256[]",
          "name": "",
          "type": "uint256[]"
        }
      ],
      "stateMutability": "view",
      "type": "function"
    },
    {
      "inputs": [],
      "name": "contractRegistry",
      "outputs": [
        {
          "internalType": "address",
          "name": "",
          "type": "address"
        }
      ],
      "stateMutability": "view",
      "type": "function"
    },
    {
      "inputs": [
        {
          "internalType": "uint256",
          "name": "",
          "type": "uint256"
        }
      ],
      "name": "exAnteToExPostTokenId",
      "outputs": [
        {
          "internalType": "uint256",
          "name": "",
          "type": "uint256"
        }
      ],
      "stateMutability": "view",
      "type": "function"
    },
    {
      "inputs": [
        {
          "internalType": "uint256",
          "name": "",
          "type": "uint256"
        }
      ],
      "name": "exPostToExAnteTokenId",
      "outputs": [
        {
          "internalType": "uint256",
          "name": "",
          "type": "uint256"
        }
      ],
      "stateMutability": "view",
      "type": "function"
    },
    {
      "inputs": [
        {
          "internalType": "uint256",
          "name": "",
          "type": "uint256"
        }
      ],
      "name": "exPostVintageMapping",
      "outputs": [
        {
          "internalType": "string",
          "name": "serialization",
          "type": "string"
        },
        {
          "internalType": "uint256",
          "name": "estMitigations",
          "type": "uint256"
        },
        {
          "internalType": "uint256",
          "name": "verificationPeriodStart",
          "type": "uint256"
        },
        {
          "internalType": "uint256",
          "name": "verificationPeriodEnd",
          "type": "uint256"
        },
        {
          "internalType": "uint256",
          "name": "lastVerificationTimestamp",
          "type": "uint256"
        }
      ],
      "stateMutability": "view",
      "type": "function"
    },
    {
      "inputs": [
        {
          "internalType": "uint256",
          "name": "id",
          "type": "uint256"
        }
      ],
      "name": "exists",
      "outputs": [
        {
          "internalType": "bool",
          "name": "",
          "type": "bool"
        }
      ],
      "stateMutability": "view",
      "type": "function"
    },
    {
      "inputs": [
        {
          "internalType": "bytes32",
          "name": "role",
          "type": "bytes32"
        }
      ],
      "name": "getRoleAdmin",
      "outputs": [
        {
          "internalType": "bytes32",
          "name": "",
          "type": "bytes32"
        }
      ],
      "stateMutability": "view",
      "type": "function"
    },
    {
      "inputs": [
        {
          "internalType": "bytes32",
          "name": "role",
          "type": "bytes32"
        },
        {
          "internalType": "address",
          "name": "account",
          "type": "address"
        }
      ],
      "name": "grantRole",
      "outputs": [],
      "stateMutability": "nonpayable",
      "type": "function"
    },
    {
      "inputs": [
        {
          "internalType": "bytes32",
          "name": "role",
          "type": "bytes32"
        },
        {
          "internalType": "address",
          "name": "account",
          "type": "address"
        }
      ],
      "name": "hasRole",
      "outputs": [
        {
          "internalType": "bool",
          "name": "",
          "type": "bool"
        }
      ],
      "stateMutability": "view",
      "type": "function"
    },
    {
      "inputs": [
        {
          "internalType": "address",
          "name": "account",
          "type": "address"
        },
        {
          "internalType": "address",
          "name": "operator",
          "type": "address"
        }
      ],
      "name": "isApprovedForAll",
      "outputs": [
        {
          "internalType": "bool",
          "name": "",
          "type": "bool"
        }
      ],
      "stateMutability": "view",
      "type": "function"
    },
    {
      "inputs": [],
      "name": "maxAntePercentage",
      "outputs": [
        {
          "internalType": "uint8",
          "name": "",
          "type": "uint8"
        }
      ],
      "stateMutability": "view",
      "type": "function"
    },
    {
      "inputs": [
        {
          "internalType": "address",
          "name": "",
          "type": "address"
        },
        {
          "internalType": "address",
          "name": "",
          "type": "address"
        },
        {
          "internalType": "uint256[]",
          "name": "",
          "type": "uint256[]"
        },
        {
          "internalType": "uint256[]",
          "name": "",
          "type": "uint256[]"
        },
        {
          "internalType": "bytes",
          "name": "",
          "type": "bytes"
        }
      ],
      "name": "onERC1155BatchReceived",
      "outputs": [
        {
          "internalType": "bytes4",
          "name": "",
          "type": "bytes4"
        }
      ],
      "stateMutability": "nonpayable",
      "type": "function"
    },
    {
      "inputs": [
        {
          "internalType": "address",
          "name": "",
          "type": "address"
        },
        {
          "internalType": "address",
          "name": "",
          "type": "address"
        },
        {
          "internalType": "uint256",
          "name": "",
          "type": "uint256"
        },
        {
          "internalType": "uint256",
          "name": "",
          "type": "uint256"
        },
        {
          "internalType": "bytes",
          "name": "",
          "type": "bytes"
        }
      ],
      "name": "onERC1155Received",
      "outputs": [
        {
          "internalType": "bytes4",
          "name": "",
          "type": "bytes4"
        }
      ],
      "stateMutability": "nonpayable",
      "type": "function"
    },
    {
      "inputs": [],
      "name": "paused",
      "outputs": [
        {
          "internalType": "bool",
          "name": "",
          "type": "bool"
        }
      ],
      "stateMutability": "view",
      "type": "function"
    },
    {
      "inputs": [],
      "name": "projectId",
      "outputs": [
        {
          "internalType": "uint256",
          "name": "",
          "type": "uint256"
        }
      ],
      "stateMutability": "view",
      "type": "function"
    },
    {
      "inputs": [],
      "name": "projectInfo",
      "outputs": [
        {
          "internalType": "string",
          "name": "name",
          "type": "string"
        },
        {
          "internalType": "uint256",
          "name": "id",
          "type": "uint256"
        },
        {
          "internalType": "string",
          "name": "uri",
          "type": "string"
        },
        {
          "internalType": "string",
          "name": "methodology",
          "type": "string"
        }
      ],
      "stateMutability": "view",
      "type": "function"
    },
    {
      "inputs": [],
      "name": "projectName",
      "outputs": [
        {
          "internalType": "string",
          "name": "",
          "type": "string"
        }
      ],
      "stateMutability": "view",
      "type": "function"
    },
    {
      "inputs": [],
      "name": "proxiableUUID",
      "outputs": [
        {
          "internalType": "bytes32",
          "name": "",
          "type": "bytes32"
        }
      ],
      "stateMutability": "view",
      "type": "function"
    },
    {
      "inputs": [
        {
          "internalType": "bytes32",
          "name": "role",
          "type": "bytes32"
        },
        {
          "internalType": "address",
          "name": "account",
          "type": "address"
        }
      ],
      "name": "renounceRole",
      "outputs": [],
      "stateMutability": "nonpayable",
      "type": "function"
    },
    {
      "inputs": [
        {
          "internalType": "uint256",
          "name": "",
          "type": "uint256"
        }
      ],
      "name": "retirementMapping",
      "outputs": [
        {
          "internalType": "address",
          "name": "retiree",
          "type": "address"
        },
        {
          "internalType": "uint256",
          "name": "amount",
          "type": "uint256"
        },
        {
          "internalType": "uint256",
          "name": "vintageTokenId",
          "type": "uint256"
        },
        {
          "internalType": "string",
          "name": "retireeName",
          "type": "string"
        },
        {
          "internalType": "string",
          "name": "customUri",
          "type": "string"
        },
        {
          "internalType": "string",
          "name": "comment",
          "type": "string"
        }
      ],
      "stateMutability": "view",
      "type": "function"
    },
    {
      "inputs": [
        {
          "internalType": "bytes32",
          "name": "role",
          "type": "bytes32"
        },
        {
          "internalType": "address",
          "name": "account",
          "type": "address"
        }
      ],
      "name": "revokeRole",
      "outputs": [],
      "stateMutability": "nonpayable",
      "type": "function"
    },
    {
      "inputs": [
        {
          "internalType": "address",
          "name": "from",
          "type": "address"
        },
        {
          "internalType": "address",
          "name": "to",
          "type": "address"
        },
        {
          "internalType": "uint256[]",
          "name": "ids",
          "type": "uint256[]"
        },
        {
          "internalType": "uint256[]",
          "name": "amounts",
          "type": "uint256[]"
        },
        {
          "internalType": "bytes",
          "name": "data",
          "type": "bytes"
        }
      ],
      "name": "safeBatchTransferFrom",
      "outputs": [],
      "stateMutability": "nonpayable",
      "type": "function"
    },
    {
      "inputs": [
        {
          "internalType": "address",
          "name": "from",
          "type": "address"
        },
        {
          "internalType": "address",
          "name": "to",
          "type": "address"
        },
        {
          "internalType": "uint256",
          "name": "id",
          "type": "uint256"
        },
        {
          "internalType": "uint256",
          "name": "amount",
          "type": "uint256"
        },
        {
          "internalType": "bytes",
          "name": "data",
          "type": "bytes"
        }
      ],
      "name": "safeTransferFrom",
      "outputs": [],
      "stateMutability": "nonpayable",
      "type": "function"
    },
    {
      "inputs": [
        {
          "internalType": "string",
          "name": "",
          "type": "string"
        }
      ],
      "name": "serializationToExPostTokenIdMapping",
      "outputs": [
        {
          "internalType": "uint256",
          "name": "",
          "type": "uint256"
        }
      ],
      "stateMutability": "view",
      "type": "function"
    },
    {
      "inputs": [
        {
          "internalType": "address",
          "name": "operator",
          "type": "address"
        },
        {
          "internalType": "bool",
          "name": "approved",
          "type": "bool"
        }
      ],
      "name": "setApprovalForAll",
      "outputs": [],
      "stateMutability": "nonpayable",
      "type": "function"
    },
    {
      "inputs": [
        {
          "internalType": "address",
          "name": "",
          "type": "address"
        }
      ],
      "name": "signatureNonces",
      "outputs": [
        {
          "internalType": "uint32",
          "name": "",
          "type": "uint32"
        }
      ],
      "stateMutability": "view",
      "type": "function"
    },
    {
      "inputs": [],
      "name": "topTokenId",
      "outputs": [
        {
          "internalType": "uint256",
          "name": "",
          "type": "uint256"
        }
      ],
      "stateMutability": "view",
      "type": "function"
    },
    {
      "inputs": [
        {
          "internalType": "uint256",
          "name": "id",
          "type": "uint256"
        }
      ],
      "name": "totalSupply",
      "outputs": [
        {
          "internalType": "uint256",
          "name": "",
          "type": "uint256"
        }
      ],
      "stateMutability": "view",
      "type": "function"
    },
    {
      "inputs": [
        {
          "internalType": "address",
          "name": "newImplementation",
          "type": "address"
        }
      ],
      "name": "upgradeTo",
      "outputs": [],
      "stateMutability": "nonpayable",
      "type": "function"
    },
    {
      "inputs": [
        {
          "internalType": "address",
          "name": "newImplementation",
          "type": "address"
        },
        {
          "internalType": "bytes",
          "name": "data",
          "type": "bytes"
        }
      ],
      "name": "upgradeToAndCall",
      "outputs": [],
      "stateMutability": "payable",
      "type": "function"
    },
    {
      "inputs": [
        {
          "internalType": "uint256",
          "name": "",
          "type": "uint256"
        }
      ],
      "name": "uri",
      "outputs": [
        {
          "internalType": "string",
          "name": "",
          "type": "string"
        }
      ],
      "stateMutability": "view",
      "type": "function"
    },
    {
      "inputs": [
        {
          "internalType": "address",
          "name": "_contractRegistry",
          "type": "address"
        },
        {
          "internalType": "address",
          "name": "_owner",
          "type": "address"
        },
        {
          "internalType": "uint256",
          "name": "_projectId",
          "type": "uint256"
        },
        {
          "internalType": "string",
          "name": "_projectName",
          "type": "string"
        },
        {
          "internalType": "string",
          "name": "_projectMethodology",
          "type": "string"
        },
        {
          "internalType": "string",
          "name": "_projectUri",
          "type": "string"
        }
      ],
      "name": "initialize",
      "outputs": [],
      "stateMutability": "nonpayable",
      "type": "function"
    },
    {
      "inputs": [
        {
          "internalType": "uint256",
          "name": "tokenId",
          "type": "uint256"
        }
      ],
      "name": "isExPostToken",
      "outputs": [
        {
          "internalType": "bool",
          "name": "",
          "type": "bool"
        }
      ],
      "stateMutability": "view",
      "type": "function"
    },
    {
      "inputs": [],
      "name": "testUpgrade",
      "outputs": [
        {
          "internalType": "string",
          "name": "",
          "type": "string"
        }
      ],
      "stateMutability": "pure",
      "type": "function"
    },
    {
      "inputs": [
        {
          "internalType": "uint256",
          "name": "estAmount",
          "type": "uint256"
        },
        {
          "internalType": "uint256",
          "name": "verificationPeriodStart",
          "type": "uint256"
        },
        {
          "internalType": "uint256",
          "name": "verificationPeriodEnd",
          "type": "uint256"
        },
        {
          "internalType": "string",
          "name": "serialization",
          "type": "string"
        }
      ],
      "name": "createExPostVintage",
      "outputs": [],
      "stateMutability": "nonpayable",
      "type": "function"
    },
    {
      "inputs": [
        {
          "components": [
            {
              "internalType": "string",
              "name": "serialization",
              "type": "string"
            },
            {
              "internalType": "uint256",
              "name": "estMitigations",
              "type": "uint256"
            },
            {
              "internalType": "uint256",
              "name": "verificationPeriodStart",
              "type": "uint256"
            },
            {
              "internalType": "uint256",
              "name": "verificationPeriodEnd",
              "type": "uint256"
            },
            {
              "internalType": "uint256",
              "name": "lastVerificationTimestamp",
              "type": "uint256"
            }
          ],
          "internalType": "struct VintageData[]",
          "name": "vintages",
          "type": "tuple[]"
        }
      ],
      "name": "createExPostVintageBatch",
      "outputs": [],
      "stateMutability": "nonpayable",
      "type": "function"
    },
    {
      "inputs": [
        {
          "internalType": "address",
          "name": "account",
          "type": "address"
        },
        {
          "internalType": "uint256",
          "name": "exPostTokenId",
          "type": "uint256"
        },
        {
          "internalType": "uint256",
          "name": "amount",
          "type": "uint256"
        },
        {
          "internalType": "bytes",
          "name": "data",
          "type": "bytes"
        }
      ],
      "name": "mintExAnte",
      "outputs": [],
      "stateMutability": "nonpayable",
      "type": "function"
    },
    {
      "inputs": [
        {
          "internalType": "uint256",
          "name": "tokenId",
          "type": "uint256"
        },
        {
          "internalType": "uint256",
          "name": "newEstAmount",
          "type": "uint256"
        },
        {
          "internalType": "enum AdminActionReason",
          "name": "reason",
          "type": "uint8"
        }
      ],
      "name": "changeVintageMitigationEstimate",
      "outputs": [],
      "stateMutability": "nonpayable",
      "type": "function"
    },
    {
      "inputs": [
        {
          "internalType": "address",
          "name": "verificationVault",
          "type": "address"
        },
        {
          "internalType": "uint256",
          "name": "tokenId",
          "type": "uint256"
        },
        {
          "internalType": "uint256",
          "name": "amountVerified",
          "type": "uint256"
        },
        {
          "internalType": "uint256",
          "name": "amountToAnteHolders",
          "type": "uint256"
        },
        {
          "internalType": "uint256",
          "name": "verificationPeriodStart",
          "type": "uint256"
        },
        {
          "internalType": "uint256",
          "name": "verificationPeriodEnd",
          "type": "uint256"
        },
        {
          "internalType": "string",
          "name": "monitoringReport",
          "type": "string"
        }
      ],
      "name": "verifyAndMintExPost",
      "outputs": [],
      "stateMutability": "nonpayable",
      "type": "function"
    },
    {
      "inputs": [
        {
          "internalType": "address",
          "name": "from",
          "type": "address"
        },
        {
          "internalType": "address",
          "name": "to",
          "type": "address"
        },
        {
          "internalType": "uint256",
          "name": "tokenId",
          "type": "uint256"
        },
        {
          "internalType": "uint256",
          "name": "amount",
          "type": "uint256"
        },
        {
          "internalType": "enum AdminActionReason",
          "name": "reason",
          "type": "uint8"
        }
      ],
      "name": "adminClawback",
      "outputs": [],
      "stateMutability": "nonpayable",
      "type": "function"
    },
    {
      "inputs": [
        {
          "internalType": "address[]",
          "name": "accounts",
          "type": "address[]"
        },
        {
          "internalType": "uint256",
          "name": "exPostTokenId",
          "type": "uint256"
        },
        {
          "internalType": "bytes",
          "name": "data",
          "type": "bytes"
        }
      ],
      "name": "exchangeAnteForPostEvenSteven",
      "outputs": [],
      "stateMutability": "nonpayable",
      "type": "function"
    },
    {
      "inputs": [
        {
          "internalType": "bytes",
          "name": "signature",
          "type": "bytes"
        },
        {
          "components": [
            {
              "internalType": "uint256",
              "name": "deadline",
              "type": "uint256"
            },
            {
              "internalType": "string",
              "name": "description",
              "type": "string"
            },
            {
              "internalType": "address",
              "name": "signer",
              "type": "address"
            },
            {
              "internalType": "address",
              "name": "to",
              "type": "address"
            },
            {
              "internalType": "uint256",
              "name": "tokenId",
              "type": "uint256"
            },
            {
              "internalType": "uint256",
              "name": "amount",
              "type": "uint256"
            },
            {
              "internalType": "uint256",
              "name": "nonce",
              "type": "uint256"
            }
          ],
          "internalType": "struct signatureTransferPayload",
          "name": "payload",
          "type": "tuple"
        },
        {
          "internalType": "bytes",
          "name": "data",
          "type": "bytes"
        }
      ],
      "name": "transferFromSignature",
      "outputs": [],
      "stateMutability": "payable",
      "type": "function"
    },
    {
      "inputs": [
        {
          "internalType": "uint256",
          "name": "tokenId",
          "type": "uint256"
        },
        {
          "internalType": "uint256",
          "name": "amount",
          "type": "uint256"
        },
        {
          "internalType": "address",
          "name": "beneficiary",
          "type": "address"
        },
        {
          "internalType": "string",
          "name": "retireeName",
          "type": "string"
        },
        {
          "internalType": "string",
          "name": "customUri",
          "type": "string"
        },
        {
          "internalType": "string",
          "name": "comment",
          "type": "string"
        },
        {
          "internalType": "bytes",
          "name": "data",
          "type": "bytes"
        }
      ],
      "name": "retire",
      "outputs": [
        {
          "internalType": "uint256",
          "name": "nftTokenId",
          "type": "uint256"
        }
      ],
      "stateMutability": "nonpayable",
      "type": "function"
    },
    {
      "inputs": [
        {
          "internalType": "bytes",
          "name": "signature",
          "type": "bytes"
        },
        {
          "components": [
            {
              "internalType": "uint256",
              "name": "deadline",
              "type": "uint256"
            },
            {
              "internalType": "string",
              "name": "description",
              "type": "string"
            },
            {
              "internalType": "address",
              "name": "signer",
              "type": "address"
            },
            {
              "internalType": "address",
              "name": "to",
              "type": "address"
            },
            {
              "internalType": "uint256",
              "name": "tokenId",
              "type": "uint256"
            },
            {
              "internalType": "uint256",
              "name": "amount",
              "type": "uint256"
            },
            {
              "internalType": "uint256",
              "name": "nonce",
              "type": "uint256"
            }
          ],
          "internalType": "struct signatureTransferPayload",
          "name": "payload",
          "type": "tuple"
        },
        {
          "internalType": "string",
          "name": "retireeName",
          "type": "string"
        },
        {
          "internalType": "string",
          "name": "customUri",
          "type": "string"
        },
        {
          "internalType": "string",
          "name": "comment",
          "type": "string"
        },
        {
          "internalType": "bytes",
          "name": "data",
          "type": "bytes"
        }
      ],
      "name": "retireFromSignature",
      "outputs": [
        {
          "internalType": "uint256",
          "name": "nftTokenId",
          "type": "uint256"
        }
      ],
      "stateMutability": "nonpayable",
      "type": "function"
    },
    {
      "inputs": [
        {
          "internalType": "bytes",
          "name": "signature",
          "type": "bytes"
        },
        {
          "components": [
            {
              "internalType": "uint256",
              "name": "deadline",
              "type": "uint256"
            },
            {
              "internalType": "string",
              "name": "description",
              "type": "string"
            },
            {
              "internalType": "address",
              "name": "signer",
              "type": "address"
            },
            {
              "internalType": "address",
              "name": "to",
              "type": "address"
            },
            {
              "internalType": "uint256",
              "name": "tokenId",
              "type": "uint256"
            },
            {
              "internalType": "uint256",
              "name": "amount",
              "type": "uint256"
            },
            {
              "internalType": "uint256",
              "name": "nonce",
              "type": "uint256"
            }
          ],
          "internalType": "struct signatureTransferPayload",
          "name": "payload",
          "type": "tuple"
        },
        {
          "internalType": "string",
          "name": "comment",
          "type": "string"
        },
        {
          "internalType": "bytes",
          "name": "data",
          "type": "bytes"
        }
      ],
      "name": "cancelCreditsFromSignature",
      "outputs": [],
      "stateMutability": "nonpayable",
      "type": "function"
    },
    {
      "inputs": [
        {
          "internalType": "string",
          "name": "newuri",
          "type": "string"
        }
      ],
      "name": "setURI",
      "outputs": [],
      "stateMutability": "nonpayable",
      "type": "function"
    },
    {
      "inputs": [],
      "name": "pause",
      "outputs": [],
      "stateMutability": "nonpayable",
      "type": "function"
    },
    {
      "inputs": [],
      "name": "unpause",
      "outputs": [],
      "stateMutability": "nonpayable",
      "type": "function"
    },
    {
      "inputs": [
        {
          "internalType": "uint8",
          "name": "newMaxAntePercentage",
          "type": "uint8"
        }
      ],
      "name": "updateMaxAntePercentage",
      "outputs": [],
      "stateMutability": "nonpayable",
      "type": "function"
    },
    {
      "inputs": [
        {
          "internalType": "bytes4",
          "name": "interfaceId",
          "type": "bytes4"
        }
      ],
      "name": "supportsInterface",
      "outputs": [
        {
          "internalType": "bool",
          "name": "",
          "type": "bool"
        }
      ],
      "stateMutability": "view",
      "type": "function"
    }
  ],
  "bytecode": "0x60a0604052306080523480156200001557600080fd5b506200002062000026565b620000e8565b600054610100900460ff1615620000935760405162461bcd60e51b815260206004820152602760248201527f496e697469616c697a61626c653a20636f6e747261637420697320696e697469604482015266616c697a696e6760c81b606482015260840160405180910390fd5b60005460ff9081161015620000e6576000805460ff191660ff9081179091556040519081527f7f26b83ff96e1f2b6a682f133852f6798a09c465da95921460cefb38474024989060200160405180910390a15b565b608051615f85620001206000396000818161191c0152818161195c01528181611d7001528181611db00152611e3b0152615f856000f3fe6080604052600436106102d25760003560e01c8062fdd58e146102d757806301139ca71461030a57806301ffc9a71461032c57806302fe53051461035c5780630cda95f91461037c5780630e89341c1461039c57806310c1e7a1146103c9578063185b6910146103e957806322088ebf1461040e578063248a9ca31461042e578063275d4dec1461044e578063282c51f31461046e5780632ea05e44146104a25780632eb2c2d6146104c45780632f2ff15d146104e45780633584c3841461050457806336568abe146105325780633659cfe6146105525780633f4ba83a146105725780633fafa1271461058757806341a30d3c1461059e5780634e1273f4146105be5780634f1ef286146105eb5780634f558e79146105fe57806352d1902d1461061e57806354ff07951461063357806357c537af1461066c5780635c975abb1461068c5780635e3bbaab146106a4578063610e7012146106c657806361eeb089146106f35780636929a19c1461070a5780636f63984d1461073c578063728e68e31461075c57806379c276051461078d5780637f345710146107ad5780638456cb59146107cf5780638f76c1da146107e457806391d148541461081257806399df11cf146108325780639a33e300146108525780639d6aed0b14610867578063a0e1b17114610895578063a217fddf146108b5578063a22cb465146108ca578063aa8b2ea7146108ea578063abf410e51461090c578063af93ff721461093a578063b456f2e61461095a578063bc197c811461097a578063bd85b039146109bf578063d5391393146109df578063d547741f14610a13578063dbd8483d14610a33578063deb0420714610a7c578063e36408d014610a9c578063e63ab1e914610aaf578063e7705db614610ad1578063e985e9c514610af3578063edc0b2e614610b3c578063f23a6e6114610b5e578063f242432a14610b8a578063f515e6f214610baa578063f72c0d8b14610bcc575b600080fd5b3480156102e357600080fd5b506102f76102f2366004614779565b610bee565b6040519081526020015b60405180910390f35b34801561031657600080fd5b5061032a61032536600461487d565b610c86565b005b34801561033857600080fd5b5061034c610347366004614944565b610ebc565b6040519015158152602001610301565b34801561036857600080fd5b5061032a610377366004614961565b610ecd565b34801561038857600080fd5b5061032a610397366004614a30565b610ef2565b3480156103a857600080fd5b506103bc6103b7366004614a9c565b6110b7565b6040516103019190614b0d565b3480156103d557600080fd5b5061032a6103e4366004614b20565b61114b565b3480156103f557600080fd5b506103fe61132c565b6040516103019493929190614b80565b34801561041a57600080fd5b5061032a610429366004614c18565b6114e1565b34801561043a57600080fd5b506102f7610449366004614a9c565b61178a565b34801561045a57600080fd5b506102f7610469366004614cca565b61179f565b34801561047a57600080fd5b506102f77f3c11d16cbaffd01df69ce1c404f6340ee057498f5f00246190ea54220576a84881565b3480156104ae57600080fd5b506102f7600080516020615ef083398151915281565b3480156104d057600080fd5b5061032a6104df366004614e00565b61182b565b3480156104f057600080fd5b5061032a6104ff366004614e8f565b611877565b34801561051057600080fd5b506102f761051f366004614a9c565b6101fe6020526000908152604090205481565b34801561053e57600080fd5b5061032a61054d366004614e8f565b611898565b34801561055e57600080fd5b5061032a61056d366004614ebb565b611912565b34801561057e57600080fd5b5061032a6119da565b34801561059357600080fd5b506102f76101f85481565b3480156105aa57600080fd5b5061032a6105b9366004614ed6565b6119fa565b3480156105ca57600080fd5b506105de6105d9366004614f44565b611c3d565b6040516103019190614fe2565b61032a6105f9366004614ff5565b611d66565b34801561060a57600080fd5b5061034c610619366004614a9c565b611e1b565b34801561062a57600080fd5b506102f7611e2e565b34801561063f57600080fd5b506102f761064e366004614961565b80516020818301810180516101ff8252928201919093012091525481565b34801561067857600080fd5b5061032a610687366004615047565b611edd565b34801561069857600080fd5b5060c95460ff1661034c565b3480156106b057600080fd5b506102f7600080516020615f1083398151915281565b3480156106d257600080fd5b506101f9546106e19060ff1681565b60405160ff9091168152602001610301565b3480156106ff57600080fd5b506102f76101f75481565b34801561071657600080fd5b5061072a610725366004614a9c565b611fdf565b60405161030196959493929190615089565b34801561074857600080fd5b5061034c610757366004614a9c565b6121b9565b34801561076857600080fd5b5061077c610777366004614a9c565b6121e0565b6040516103019594939291906150dc565b34801561079957600080fd5b5061032a6107a8366004615113565b612297565b3480156107b957600080fd5b506102f7600080516020615e4983398151915281565b3480156107db57600080fd5b5061032a61234d565b3480156107f057600080fd5b506102f76107ff366004614a9c565b6101fd6020526000908152604090205481565b34801561081e57600080fd5b5061034c61082d366004614e8f565b61236d565b34801561083e57600080fd5b5061032a61084d366004615240565b612398565b34801561085e57600080fd5b506103bc6123bb565b34801561087357600080fd5b506040805180820190915260058152640c0b8c0b8d60da1b60208201526103bc565b3480156108a157600080fd5b5061032a6108b036600461525b565b61244a565b3480156108c157600080fd5b506102f7600081565b3480156108d657600080fd5b5061032a6108e536600461529c565b6125e9565b3480156108f657600080fd5b506102f7600080516020615e2983398151915281565b34801561091857600080fd5b506101fb5461092d906001600160a01b031681565b60405161030191906152d8565b34801561094657600080fd5b506102f76109553660046152ec565b6125f4565b34801561096657600080fd5b5061032a6109753660046153cb565b612803565b34801561098657600080fd5b506109a6610995366004614e00565b63bc197c8160e01b95945050505050565b6040516001600160e01b03199091168152602001610301565b3480156109cb57600080fd5b506102f76109da366004614a9c565b61295b565b3480156109eb57600080fd5b506102f77f9f2df0fed2c77648de5860a4cc508cd0818c85b8b8a1ab4ceeef8d981c8956a681565b348015610a1f57600080fd5b5061032a610a2e366004614e8f565b61296d565b348015610a3f57600080fd5b50610a67610a4e366004614ebb565b6101c56020526000908152604090205463ffffffff1681565b60405163ffffffff9091168152602001610301565b348015610a8857600080fd5b5061032a610a973660046153fb565b612989565b61032a610aaa366004615452565b612a20565b348015610abb57600080fd5b506102f7600080516020615e8983398151915281565b348015610add57600080fd5b506102f7600080516020615f3083398151915281565b348015610aff57600080fd5b5061034c610b0e3660046154d3565b6001600160a01b03918216600090815260666020908152604080832093909416825291909152205460ff1690565b348015610b4857600080fd5b506102f7600080516020615d8983398151915281565b348015610b6a57600080fd5b506109a6610b793660046154fd565b63f23a6e6160e01b95945050505050565b348015610b9657600080fd5b5061032a610ba53660046154fd565b612b54565b348015610bb657600080fd5b506102f7600080516020615ed083398151915281565b348015610bd857600080fd5b506102f7600080516020615de983398151915281565b60006001600160a01b038316610c5e5760405162461bcd60e51b815260206004820152602a60248201527f455243313135353a2061646472657373207a65726f206973206e6f742061207660448201526930b634b21037bbb732b960b11b60648201526084015b60405180910390fd5b5060009081526065602090815260408083206001600160a01b03949094168352929052205490565b600054610100900460ff1615808015610ca65750600054600160ff909116105b80610cc75750610cb530612b99565b158015610cc7575060005460ff166001145b610ce35760405162461bcd60e51b8152600401610c5590615561565b6000805460ff191660011790558015610d06576000805461ff0019166101001790555b610d1e60405180602001604052806000815250612ba8565b610d26612bd8565b610d2e612c01565b610d36612bd8565b610d3e612bd8565b610d8c6040518060400160405280600f81526020016e436172626f6e20526567697374727960881b81525060405180604001604052806005815260200164302e302e3160d81b815250612c30565b610d9b87603287878688612803565b610da6600087612c61565b610dbe600080516020615e4983398151915287612c61565b610dd6600080516020615e8983398151915287612c61565b610dee600080516020615d8983398151915287612c61565b610e06600080516020615f1083398151915287612c61565b610e1e600080516020615de983398151915287612c61565b610e36600080516020615ed083398151915287612c61565b610e4e600080516020615f3083398151915287612c61565b610e66600080516020615ef083398151915287612c61565b610e7e600080516020615f1083398151915233612c61565b8015610eb3576000805461ff001916905560405160018152600080516020615e69833981519152906020015b60405180910390a15b50505050505050565b6000610ec782612ce7565b92915050565b600080516020615e49833981519152610ee581612d0c565b610eee82612d16565b5050565b81610efc816121b9565b610f185760405162461bcd60e51b8152600401610c55906155af565b60008381526101fe602052604081205490819003610f485760405162461bcd60e51b8152600401610c55906155ca565b6000610f538261295b565b90506000610f613087610bee565b905060008111610f985760405162461bcd60e51b8152602060048201526002602482015261031360f41b6044820152606401610c55565b60005b87518110156110ad576000610fc9898381518110610fbb57610fbb6155e5565b602002602001015186610bee565b9050600084610fd88584615611565b610fe29190615630565b90508181811115610ff05750805b898b8581518110611003576110036155e5565b60200260200101516001600160a01b03167ffa5cd0fcb25938b2f45b3ca175241bfb3739cf4db3cb7476846930ec714f13f28484604051611045929190615652565b60405180910390a36110718b8581518110611062576110626155e5565b60200260200101518883612d29565b611097308c8681518110611087576110876155e5565b60200260200101518c858d612eae565b50505080806110a590615660565b915050610f9b565b5050505050505050565b6060606780546110c690615679565b80601f01602080910402602001604051908101604052809291908181526020018280546110f290615679565b801561113f5780601f106111145761010080835404028352916020019161113f565b820191906000526020600020905b81548152906001019060200180831161112257829003601f168201915b50505050509050919050565b600080516020615d8983398151915261116381612d0c565b8361116d816121b9565b6111895760405162461bcd60e51b8152600401610c55906155af565b60008581526101fc602052604081206003810154600490910154879111604051806040016040528060018152602001603360f81b815250906111de5760405162461bcd60e51b8152600401610c559190614b0d565b5060008781526101fe60205260408120549081900361121757506101f780546001019081905560008881526101fe602052604090208190555b60008881526101fc6020526040812060010154906112348a61295b565b9050600061124282846156ad565b6101f95490915060009060649061125c9060ff1684615611565b6112669190615630565b905060006112738661295b565b9050816112808d836156c4565b11156112b25760405162461bcd60e51b81526020600482015260016024820152603560f81b6044820152606401610c55565b8c6101fd6000888152602001908152602001600020819055508d6001600160a01b03168d877f1fe9ade752d24e4f4dca10f5c807a7cc8630c7604280c8b124097d93b5bb02a18f60405161130891815260200190565b60405180910390a461131c8e878e8e612fe4565b5050505050505050505050505050565b6102018054819061133c90615679565b80601f016020809104026020016040519081016040528092919081815260200182805461136890615679565b80156113b55780601f1061138a576101008083540402835291602001916113b5565b820191906000526020600020905b81548152906001019060200180831161139857829003601f168201915b5050505050908060010154908060020180546113d090615679565b80601f01602080910402602001604051908101604052809291908181526020018280546113fc90615679565b80156114495780601f1061141e57610100808354040283529160200191611449565b820191906000526020600020905b81548152906001019060200180831161142c57829003601f168201915b50505050509080600301805461145e90615679565b80601f016020809104026020016040519081016040528092919081815260200182805461148a90615679565b80156114d75780601f106114ac576101008083540402835291602001916114d7565b820191906000526020600020905b8154815290600101906020018083116114ba57829003601f168201915b5050505050905084565b82608001356114ef816121b9565b61150b5760405162461bcd60e51b8152600401610c55906155af565b858585600080516020615dc983398151915283838360405161152f93929190615705565b60405180910390a16000611646600080516020615d69833981519152833561155a60208601866157dd565b60405160200161156b929190615823565b604051602081830303815290604052805190602001208560400160208101906115949190614ebb565b6115a46080880160608901614ebb565b608088013560a08901356101c560006115c360608d0160408e01614ebb565b6001600160a01b03908116825260208083019390935260409182016000205482519384019a909a529082019790975260608101959095529285166080850152931660a083015260c082019290925260e081019190915263ffffffff90911661010082015261012001604051602081830303815290604052805190602001206130fc565b905061169a8185858080601f016020809104026020016040519081016040528093929190818152602001838380828437600092019190915250611693925050506060860160408701614ebb565b853561314a565b506101c560006116b06060850160408601614ebb565b6001600160a01b0316815260208101919091526040016000908120805463ffffffff16916116dd83615833565b91906101000a81548163ffffffff021916908363ffffffff1602179055505087608001358860400160208101906117149190614ebb565b6001600160a01b03167f782105afe5542acae5ab54dc3dab8b54887fd38a79f55330b3e1e70c3063d67b8a60a001358a8a60405161175493929190615856565b60405180910390a361177e61176f60608a0160408b01614ebb565b89608001358a60a00135612d29565b50505050505050505050565b60009081526097602052604090206001015490565b6000876117ab816121b9565b6117c75760405162461bcd60e51b8152600401610c55906155af565b6001600160a01b03871633036117ed576117e6338a8a8989898961320c565b915061181f565b6001600160a01b03871661180057600080fd5b61180d33888b8b87612eae565b61181c878a8a8989898961320c565b91505b50979650505050505050565b6001600160a01b03851633148061184757506118478533610b0e565b6118635760405162461bcd60e51b8152600401610c559061588b565b611870858585858561327a565b5050505050565b6118808261178a565b61188981612d0c565b6118938383612c61565b505050565b6001600160a01b03811633146119085760405162461bcd60e51b815260206004820152602f60248201527f416363657373436f6e74726f6c3a2063616e206f6e6c792072656e6f756e636560448201526e103937b632b9903337b91039b2b63360891b6064820152608401610c55565b610eee8282613460565b6001600160a01b037f000000000000000000000000000000000000000000000000000000000000000016300361195a5760405162461bcd60e51b8152600401610c55906158d9565b7f00000000000000000000000000000000000000000000000000000000000000006001600160a01b031661198c6134c7565b6001600160a01b0316146119b25760405162461bcd60e51b8152600401610c5590615913565b6119bb816134e3565b604080516000808252602082019092526119d7918391906134fb565b50565b600080516020615e898339815191526119f281612d0c565b6119d7613666565b600080516020615f30833981519152611a1281612d0c565b86611a1c816121b9565b611a385760405162461bcd60e51b8152600401610c55906155af565b60008881526101fc6020526040812060038101546004909101548a9111604051806040016040528060018152602001603360f81b81525090611a8d5760405162461bcd60e51b8152600401610c559190614b0d565b5087891015611ac25760405162461bcd60e51b81526020600482015260016024820152601b60f91b6044820152606401610c55565b60008a81526101fc6020526040902060020154861015611b085760405162461bcd60e51b81526020600482015260016024820152603760f81b6044820152606401610c55565b60008a81526101fc60205260409020600401548611611b4d5760405162461bcd60e51b81526020600482015260016024820152600760fb1b6044820152606401610c55565b60008a81526101fe602052604081205490819003611b83578815611b835760405162461bcd60e51b8152600401610c55906155ca565b8a7fe19de0f3da1193000100a217838f49f6bdda20dc974d33b61f92faaf446d181d8b8b8b8b8b604051611bbb95949392919061594d565b60405180910390a26000611bcf8a8c6156ad565b1115611bf957611bf98c8c611be48c8e6156ad565b60405180602001604052806000815250612fe4565b60008b81526101fc602052604090206004018790558815611c2f57611c2f308c8b60405180602001604052806000815250612fe4565b505050505050505050505050565b60608151835114611ca25760405162461bcd60e51b815260206004820152602960248201527f455243313135353a206163636f756e747320616e6420696473206c656e677468604482015268040dad2e6dac2e8c6d60bb1b6064820152608401610c55565b600083516001600160401b03811115611cbd57611cbd6147a3565b604051908082528060200260200182016040528015611ce6578160200160208202803683370190505b50905060005b8451811015611d5e57611d31858281518110611d0a57611d0a6155e5565b6020026020010151858381518110611d2457611d246155e5565b6020026020010151610bee565b828281518110611d4357611d436155e5565b6020908102919091010152611d5781615660565b9050611cec565b509392505050565b6001600160a01b037f0000000000000000000000000000000000000000000000000000000000000000163003611dae5760405162461bcd60e51b8152600401610c55906158d9565b7f00000000000000000000000000000000000000000000000000000000000000006001600160a01b0316611de06134c7565b6001600160a01b031614611e065760405162461bcd60e51b8152600401610c5590615913565b611e0f826134e3565b610eee828260016134fb565b600080611e278361295b565b1192915050565b6000306001600160a01b037f00000000000000000000000000000000000000000000000000000000000000001614611ec95760405162461bcd60e51b815260206004820152603860248201527f555550535570677261646561626c653a206d757374206e6f742062652063616c6044820152771b1959081d1a1c9bdd59da0819195b1959d85d1958d85b1b60421b6064820152608401610c55565b50600080516020615e098339815191525b90565b6000611ee881612d0c565b83611ef2816121b9565b611f0e5760405162461bcd60e51b8152600401610c55906155af565b60008581526101fc602052604081206003810154600490910154879111604051806040016040528060018152602001603360f81b81525090611f635760405162461bcd60e51b8152600401610c559190614b0d565b50846004811115611f7657611f76615978565b60008881526101fc60205260409081902060010154905189917f79ad675a154518428a5aa59f22c834871a66d54a46e3f4c8c5b4ee08fb576c2e91611fbc918b91615652565b60405180910390a3505050600093845250506101fc602052604090912060010155565b6102006020526000908152604090208054600182015460028301546003840180546001600160a01b0390941694929391929161201a90615679565b80601f016020809104026020016040519081016040528092919081815260200182805461204690615679565b80156120935780601f1061206857610100808354040283529160200191612093565b820191906000526020600020905b81548152906001019060200180831161207657829003601f168201915b5050505050908060040180546120a890615679565b80601f01602080910402602001604051908101604052809291908181526020018280546120d490615679565b80156121215780601f106120f657610100808354040283529160200191612121565b820191906000526020600020905b81548152906001019060200180831161210457829003601f168201915b50505050509080600501805461213690615679565b80601f016020809104026020016040519081016040528092919081815260200182805461216290615679565b80156121af5780601f10612184576101008083540402835291602001916121af565b820191906000526020600020905b81548152906001019060200180831161219257829003601f168201915b5050505050905086565b60008181526101fc6020526040812080548291906121d690615679565b9050119050919050565b6101fc602052600090815260409020805481906121fc90615679565b80601f016020809104026020016040519081016040528092919081815260200182805461222890615679565b80156122755780601f1061224a57610100808354040283529160200191612275565b820191906000526020600020905b81548152906001019060200180831161225857829003601f168201915b5050505050908060010154908060020154908060030154908060040154905085565b600080516020615f108339815191526122af81612d0c565b60005b82518110156118935761233b8382815181106122d0576122d06155e5565b6020026020010151602001518483815181106122ee576122ee6155e5565b60200260200101516040015185848151811061230c5761230c6155e5565b60200260200101516060015186858151811061232a5761232a6155e5565b60200260200101516000015161244a565b8061234581615660565b9150506122b2565b600080516020615e8983398151915261236581612d0c565b6119d76136b2565b60009182526097602090815260408084206001600160a01b0393909316845291905290205460ff1690565b60006123a381612d0c565b506101f9805460ff191660ff92909216919091179055565b6101fa80546123c990615679565b80601f01602080910402602001604051908101604052809291908181526020018280546123f590615679565b80156124425780601f1061241757610100808354040283529160200191612442565b820191906000526020600020905b81548152906001019060200180831161242557829003601f168201915b505050505081565b600080516020615f1083398151915261246281612d0c565b8383116124955760405162461bcd60e51b81526020600482015260016024820152600d60fa1b6044820152606401610c55565b60006124a96101f780546001019081905590565b6101fb546040516344d9d59b60e01b81529192506001600160a01b0316906344d9d59b906124db908690600401614b0d565b600060405180830381600087803b1580156124f557600080fd5b505af1158015612509573d6000803e3d6000fd5b50505050806101ff8460405161251f919061598e565b90815260408051602092819003830181209390935560a083018152858352818301899052828101889052606083018790526000608084018190528481526101fc835220825180519192612577928492909101906146c4565b5060208201518160010155604082015181600201556060820151816003015560808201518160040155905050807fc5fb6d85b5baef0a615415607787aea341771027b7e4da34da58eaeb661154ea878787876040516125d994939291906159aa565b60405180910390a2505050505050565b610eee3383836136ef565b60008560800135612604816121b9565b6126205760405162461bcd60e51b8152600401610c55906155af565b888888600080516020615dc983398151915283838360405161264493929190615705565b60405180910390a1600061266f600080516020615d69833981519152833561155a60208601866157dd565b90506126bc8185858080601f016020809104026020016040519081016040528093929190818152602001838380828437600092019190915250611693925050506060860160408701614ebb565b506101c560006126d26060850160408601614ebb565b6001600160a01b0316815260208101919091526040016000908120805463ffffffff16916126ff83615833565b91906101000a81548163ffffffff021916908363ffffffff160217905550508a60600160208101906127319190614ebb565b6001600160a01b031661274a60608d0160408e01614ebb565b6001600160a01b0316036127855761277e61276b60608d0160408e01614ebb565b8c608001358d60a001358d8d8d8d61320c565b95506127f3565b600061279760808d0160608e01614ebb565b6001600160a01b0316036127aa57600080fd5b6127dd6127bd60608d0160408e01614ebb565b6127cd60808e0160608f01614ebb565b8d608001358e60a001358b612eae565b6127f061276b60808d0160608e01614ebb565b95505b5050505050979650505050505050565b600054610100900460ff16158080156128235750600054600160ff909116105b80612844575061283230612b99565b158015612844575060005460ff166001145b6128605760405162461bcd60e51b8152600401610c5590615561565b6000805460ff191660011790558015612883576000805461ff0019166101001790555b6101f9805460ff191660ff88161790556101fb80546001600160a01b0319166001600160a01b0389161790556040805160808101825285815260208082018890529181018590526060810184905285519091610201916128e8918391908901906146c4565b5060208281015160018301556040830151805161290b92600285019201906146c4565b50606082015180516129279160038401916020909101906146c4565b509050508015610eb3576000805461ff001916905560405160018152600080516020615e6983398151915290602001610eaa565b600090815260fb602052604090205490565b6129768261178a565b61297f81612d0c565b6118938383613460565b600080516020615ef08339815191526129a181612d0c565b8160048111156129b3576129b3615978565b604080516001600160a01b038881168252602082018790528792908a16917fa8b90aeef4d9590cac2ff486fc2b5d9749ed41f9388a7eb159eef94cf5fb65ab910160405180910390a4612a188686868660405180602001604052806000815250612eae565b505050505050565b838383600080516020615dc9833981519152838383604051612a4493929190615705565b60405180910390a16000612a6f600080516020615d69833981519152833561155a60208601866157dd565b9050612abc8185858080601f016020809104026020016040519081016040528093929190818152602001838380828437600092019190915250611693925050506060860160408701614ebb565b506101c56000612ad26060850160408601614ebb565b6001600160a01b0316815260208101919091526040016000908120805463ffffffff1691612aff83615833565b91906101000a81548163ffffffff021916908363ffffffff160217905550506110ad866040016020810190612b349190614ebb565b612b446080890160608a01614ebb565b88608001358960a0013589612eae565b6001600160a01b038516331480612b705750612b708533610b0e565b612b8c5760405162461bcd60e51b8152600401610c559061588b565b6118708585858585612eae565b6001600160a01b03163b151590565b600054610100900460ff16612bcf5760405162461bcd60e51b8152600401610c55906159cf565b6119d7816137cf565b600054610100900460ff16612bff5760405162461bcd60e51b8152600401610c55906159cf565b565b600054610100900460ff16612c285760405162461bcd60e51b8152600401610c55906159cf565b612bff6137ff565b600054610100900460ff16612c575760405162461bcd60e51b8152600401610c55906159cf565b610eee8282613832565b612c6b828261236d565b610eee5760008281526097602090815260408083206001600160a01b03851684529091529020805460ff19166001179055612ca33390565b6001600160a01b0316816001600160a01b0316837f2f8788117e7eff1d82e926ec794901d17c78024a50270940304540a733656f0d60405160405180910390a45050565b60006001600160e01b03198216630271189760e51b1480610ec75750610ec782613863565b6119d78133613888565b8051610eee9060679060208401906146c4565b6001600160a01b038316612d8b5760405162461bcd60e51b815260206004820152602360248201527f455243313135353a206275726e2066726f6d20746865207a65726f206164647260448201526265737360e81b6064820152608401610c55565b336000612d97846138e1565b90506000612da4846138e1565b9050612dc48387600085856040518060200160405280600081525061392c565b60008581526065602090815260408083206001600160a01b038a16845290915290205484811015612e435760405162461bcd60e51b8152602060048201526024808201527f455243313135353a206275726e20616d6f756e7420657863656564732062616c604482015263616e636560e01b6064820152608401610c55565b60008681526065602090815260408083206001600160a01b03808c1680865291909352818420898603905590519091871690600080516020615d4983398151915290612e92908b908b90615652565b60405180910390a4604080516020810190915260009052610eb3565b6001600160a01b038416612ed45760405162461bcd60e51b8152600401610c5590615a1a565b336000612ee0856138e1565b90506000612eed856138e1565b9050612efd83898985858961392c565b60008681526065602090815260408083206001600160a01b038c16845290915290205485811015612f405760405162461bcd60e51b8152600401610c5590615a5f565b60008781526065602090815260408083206001600160a01b038d8116855292528083208985039055908a16825281208054889290612f7f9084906156c4565b92505081905550876001600160a01b0316896001600160a01b0316856001600160a01b0316600080516020615d498339815191528a8a604051612fc3929190615652565b60405180910390a4612fd9848a8a8a8a8a613a55565b505050505050505050565b6001600160a01b0384166130445760405162461bcd60e51b815260206004820152602160248201527f455243313135353a206d696e7420746f20746865207a65726f206164647265736044820152607360f81b6064820152608401610c55565b336000613050856138e1565b9050600061305d856138e1565b905061306e8360008985858961392c565b60008681526065602090815260408083206001600160a01b038b168452909152812080548792906130a09084906156c4565b92505081905550866001600160a01b031660006001600160a01b0316846001600160a01b0316600080516020615d4983398151915289896040516130e5929190615652565b60405180910390a4610eb383600089898989613a55565b6000610ec7613109613bb7565b8360405161190160f01b6020820152602281018390526042810182905260009060620160405160208183030381529060405280519060200120905092915050565b60006131568585613c39565b9050826001600160a01b0316816001600160a01b031614801561318157506001600160a01b03811615155b6131c15760405162461bcd60e51b8152602060048201526011602482015270496e76616c6964207369676e617475726560781b6044820152606401610c55565b8142106132045760405162461bcd60e51b815260206004820152601160248201527014da59db985d1d5c9948195e1c1a5c9959607a1b6044820152606401610c55565b949350505050565b6000613219888888612d29565b613227888888888888613c55565b905086886001600160a01b03167f1325d882b2ca749c878a4ab3a393f6e51b69026faa05426b6d1ec6776a3f2f3c88848660405161326793929190615aa9565b60405180910390a3979650505050505050565b81518351146132dc5760405162461bcd60e51b815260206004820152602860248201527f455243313135353a2069647320616e6420616d6f756e7473206c656e677468206044820152670dad2e6dac2e8c6d60c31b6064820152608401610c55565b6001600160a01b0384166133025760405162461bcd60e51b8152600401610c5590615a1a565b3361331181878787878761392c565b60005b84518110156133fa576000858281518110613331576133316155e5565b60200260200101519050600085838151811061334f5761334f6155e5565b60209081029190910181015160008481526065835260408082206001600160a01b038e1683529093529190912054909150818110156133a05760405162461bcd60e51b8152600401610c5590615a5f565b60008381526065602090815260408083206001600160a01b038e8116855292528083208585039055908b168252812080548492906133df9084906156c4565b92505081905550505050806133f390615660565b9050613314565b50846001600160a01b0316866001600160a01b0316826001600160a01b03167f4a39dc06d4c0dbc64b70af90fd698a233a518aa5d07e595d983b8c0526c8f7fb878760405161344a929190615ac8565b60405180910390a4612a18818787878787613d54565b61346a828261236d565b15610eee5760008281526097602090815260408083206001600160a01b0385168085529252808320805460ff1916905551339285917ff6391f5c32d9c69d2a47ea670b442974b53935d1edc7fd64eb21e047a839171b9190a45050565b600080516020615e09833981519152546001600160a01b031690565b600080516020615de9833981519152610eee81612d0c565b7f4910fdfa16fed3260ed0e7147f7cc6da11a60208b5b9406d12a635614ffd91435460ff161561352e5761189383613e16565b826001600160a01b03166352d1902d6040518163ffffffff1660e01b8152600401602060405180830381865afa925050508015613588575060408051601f3d908101601f1916820190925261358591810190615aed565b60015b6135eb5760405162461bcd60e51b815260206004820152602e60248201527f45524331393637557067726164653a206e657720696d706c656d656e7461746960448201526d6f6e206973206e6f74205555505360901b6064820152608401610c55565b600080516020615e09833981519152811461365a5760405162461bcd60e51b815260206004820152602960248201527f45524331393637557067726164653a20756e737570706f727465642070726f786044820152681a58589b195555525160ba1b6064820152608401610c55565b50611893838383613eb0565b61366e613edb565b60c9805460ff191690557f5db9ee0a495bf2e6ff9c91a7834c1ba4fdd244a5e8aa4e537bd38aeae4b073aa335b6040516136a891906152d8565b60405180910390a1565b6136ba613f24565b60c9805460ff191660011790557f62e78cea01bee320cd4e420270b5ea74000d11b0c9f74754ebdbfc544b05a25861369b3390565b816001600160a01b0316836001600160a01b0316036137625760405162461bcd60e51b815260206004820152602960248201527f455243313135353a2073657474696e6720617070726f76616c20737461747573604482015268103337b91039b2b63360b91b6064820152608401610c55565b6001600160a01b03838116600081815260666020908152604080832094871680845294825291829020805460ff191686151590811790915591519182527f17307eab39ab6107e8899845ad3d59bd9653f200f220920489ca2b5937696c31910160405180910390a3505050565b600054610100900460ff166137f65760405162461bcd60e51b8152600401610c55906159cf565b6119d781612d16565b600054610100900460ff166138265760405162461bcd60e51b8152600401610c55906159cf565b60c9805460ff19169055565b600054610100900460ff166138595760405162461bcd60e51b8152600401610c55906159cf565b610eee8282613f6a565b60006001600160e01b03198216637965db0b60e01b1480610ec75750610ec782613fad565b613892828261236d565b610eee5761389f81613ffd565b6138aa83602061400f565b6040516020016138bb929190615b06565b60408051601f198184030181529082905262461bcd60e51b8252610c5591600401614b0d565b6040805160018082528183019092526060916000919060208083019080368337019050509050828160008151811061391b5761391b6155e5565b602090810291909101015292915050565b613934613f24565b8461394d600080516020615e298339815191528261236d565b1561396a5760405162461bcd60e51b8152600401610c5590615b75565b84613983600080516020615e298339815191528261236d565b156139a05760405162461bcd60e51b8152600401610c5590615b75565b60005b8551811015613a465761020060008783815181106139c3576139c36155e5565b602002602001015181526020019081526020016000206001015460001480613a0357506001600160a01b0388161580613a0357506001600160a01b038716155b613a345760405162461bcd60e51b8152602060048201526002602482015261313160f01b6044820152606401610c55565b80613a3e81615660565b9150506139a3565b506110ad8888888888886141b1565b613a67846001600160a01b0316612b99565b15612a185760405163f23a6e6160e01b81526001600160a01b0385169063f23a6e6190613aa09089908990889088908890600401615b90565b6020604051808303816000875af1925050508015613adb575060408051601f3d908101601f19168201909252613ad891810190615bca565b60015b613b8757613ae7615be7565b806308c379a003613b205750613afb615c02565b80613b065750613b22565b8060405162461bcd60e51b8152600401610c559190614b0d565b505b60405162461bcd60e51b815260206004820152603460248201527f455243313135353a207472616e7366657220746f206e6f6e2d455243313135356044820152732932b1b2b4bb32b91034b6b83632b6b2b73a32b960611b6064820152608401610c55565b6001600160e01b0319811663f23a6e6160e01b14610eb35760405162461bcd60e51b8152600401610c5590615c8b565b6000613c347f8b73c3c69bb8fe3d512ecc4cf759cc79239f7b179b0ffacaa9a75d522b39400f613be76101915490565b610192546040805160208101859052908101839052606081018290524660808201523060a082015260009060c0016040516020818303038152906040528051906020012090509392505050565b905090565b6000806000613c48858561432a565b91509150611d5e8161436f565b600080613c6a6101f780546001019081905590565b6040805160c0810182526001600160a01b038b8116825260208083018b81528385018d8152606085018c8152608086018c905260a086018b90526000888152610200855296909620855181546001600160a01b0319169516949094178455905160018401555160028301559251805194955091939092613cf19260038501929101906146c4565b5060808201518051613d0d9160048401916020909101906146c4565b5060a08201518051613d299160058401916020909101906146c4565b50905050613d498882600160405180602001604052806000815250612fe4565b979650505050505050565b613d66846001600160a01b0316612b99565b15612a185760405163bc197c8160e01b81526001600160a01b0385169063bc197c8190613d9f9089908990889088908890600401615cd3565b6020604051808303816000875af1925050508015613dda575060408051601f3d908101601f19168201909252613dd791810190615bca565b60015b613de657613ae7615be7565b6001600160e01b0319811663bc197c8160e01b14610eb35760405162461bcd60e51b8152600401610c5590615c8b565b613e1f81612b99565b613e815760405162461bcd60e51b815260206004820152602d60248201527f455243313936373a206e657720696d706c656d656e746174696f6e206973206e60448201526c1bdd08184818dbdb9d1c9858dd609a1b6064820152608401610c55565b600080516020615e0983398151915280546001600160a01b0319166001600160a01b0392909216919091179055565b613eb9836144b4565b600082511180613ec65750805b1561189357613ed583836144f4565b50505050565b60c95460ff16612bff5760405162461bcd60e51b815260206004820152601460248201527314185d5cd8589b194e881b9bdd081c185d5cd95960621b6044820152606401610c55565b60c95460ff1615612bff5760405162461bcd60e51b815260206004820152601060248201526f14185d5cd8589b194e881c185d5cd95960821b6044820152606401610c55565b600054610100900460ff16613f915760405162461bcd60e51b8152600401610c55906159cf565b8151602092830120815191909201206101919190915561019255565b60006001600160e01b03198216636cdb3d1360e11b1480613fde57506001600160e01b031982166303a24d0760e21b145b80610ec757506301ffc9a760e01b6001600160e01b0319831614610ec7565b6060610ec76001600160a01b03831660145b6060600061401e836002615611565b6140299060026156c4565b6001600160401b03811115614040576140406147a3565b6040519080825280601f01601f19166020018201604052801561406a576020820181803683370190505b509050600360fc1b81600081518110614085576140856155e5565b60200101906001600160f81b031916908160001a905350600f60fb1b816001815181106140b4576140b46155e5565b60200101906001600160f81b031916908160001a90535060006140d8846002615611565b6140e39060016156c4565b90505b600181111561415b576f181899199a1a9b1b9c1cb0b131b232b360811b85600f1660108110614117576141176155e5565b1a60f81b82828151811061412d5761412d6155e5565b60200101906001600160f81b031916908160001a90535060049490941c9361415481615d31565b90506140e6565b5083156141aa5760405162461bcd60e51b815260206004820181905260248201527f537472696e67733a20686578206c656e67746820696e73756666696369656e746044820152606401610c55565b9392505050565b6001600160a01b0385166142385760005b8351811015614236578281815181106141dd576141dd6155e5565b602002602001015160fb60008684815181106141fb576141fb6155e5565b60200260200101518152602001908152602001600020600082825461422091906156c4565b9091555061422f905081615660565b90506141c2565b505b6001600160a01b038416612a185760005b8351811015610eb3576000848281518110614266576142666155e5565b602002602001015190506000848381518110614284576142846155e5565b60200260200101519050600060fb6000848152602001908152602001600020549050818110156143075760405162461bcd60e51b815260206004820152602860248201527f455243313135353a206275726e20616d6f756e74206578636565647320746f74604482015267616c537570706c7960c01b6064820152608401610c55565b600092835260fb60205260409092209103905561432381615660565b9050614249565b60008082516041036143605760208301516040840151606085015160001a614354878285856145e6565b94509450505050614368565b506000905060025b9250929050565b600081600481111561438357614383615978565b0361438b5750565b600181600481111561439f5761439f615978565b036143e75760405162461bcd60e51b815260206004820152601860248201527745434453413a20696e76616c6964207369676e617475726560401b6044820152606401610c55565b60028160048111156143fb576143fb615978565b036144485760405162461bcd60e51b815260206004820152601f60248201527f45434453413a20696e76616c6964207369676e6174757265206c656e677468006044820152606401610c55565b600381600481111561445c5761445c615978565b036119d75760405162461bcd60e51b815260206004820152602260248201527f45434453413a20696e76616c6964207369676e6174757265202773272076616c604482015261756560f01b6064820152608401610c55565b6144bd81613e16565b6040516001600160a01b038216907fbc7cd75a20ee27fd9adebab32041f755214dbc6bffa90cc0225b39da2e5c2d3b90600090a250565b60606144ff83612b99565b61455a5760405162461bcd60e51b815260206004820152602660248201527f416464726573733a2064656c65676174652063616c6c20746f206e6f6e2d636f6044820152651b9d1c9858dd60d21b6064820152608401610c55565b600080846001600160a01b031684604051614575919061598e565b600060405180830381855af49150503d80600081146145b0576040519150601f19603f3d011682016040523d82523d6000602084013e6145b5565b606091505b50915091506145dd8282604051806060016040528060278152602001615ea9602791396146a0565b95945050505050565b6000806fa2a8918ca85bafe22016d0b997e4df60600160ff1b038311156146135750600090506003614697565b6040805160008082526020820180845289905260ff881692820192909252606081018690526080810185905260019060a0016020604051602081039080840390855afa158015614667573d6000803e3d6000fd5b5050604051601f1901519150506001600160a01b03811661469057600060019250925050614697565b9150600090505b94509492505050565b606083156146af5750816141aa565b6141aa8383815115613b065781518083602001fd5b8280546146d090615679565b90600052602060002090601f0160209004810192826146f25760008555614738565b82601f1061470b57805160ff1916838001178555614738565b82800160010185558215614738579182015b8281111561473857825182559160200191906001019061471d565b50614744929150614748565b5090565b5b808211156147445760008155600101614749565b80356001600160a01b038116811461477457600080fd5b919050565b6000806040838503121561478c57600080fd5b6147958361475d565b946020939093013593505050565b634e487b7160e01b600052604160045260246000fd5b60a081016001600160401b03811182821017156147d8576147d86147a3565b60405250565b601f8201601f191681016001600160401b0381118282101715614803576148036147a3565b6040525050565b600082601f83011261481b57600080fd5b81356001600160401b03811115614834576148346147a3565b60405161484b601f8301601f1916602001826147de565b81815284602083860101111561486057600080fd5b816020850160208301376000918101602001919091529392505050565b60008060008060008060c0878903121561489657600080fd5b61489f8761475d565b95506148ad6020880161475d565b94506040870135935060608701356001600160401b03808211156148d057600080fd5b6148dc8a838b0161480a565b945060808901359150808211156148f257600080fd5b6148fe8a838b0161480a565b935060a089013591508082111561491457600080fd5b5061492189828a0161480a565b9150509295509295509295565b6001600160e01b0319811681146119d757600080fd5b60006020828403121561495657600080fd5b81356141aa8161492e565b60006020828403121561497357600080fd5b81356001600160401b0381111561498957600080fd5b6132048482850161480a565b60006001600160401b038211156149ae576149ae6147a3565b5060051b60200190565b600082601f8301126149c957600080fd5b813560206149d682614995565b6040516149e382826147de565b83815260059390931b8501820192828101915086841115614a0357600080fd5b8286015b84811015614a2557614a188161475d565b8352918301918301614a07565b509695505050505050565b600080600060608486031215614a4557600080fd5b83356001600160401b0380821115614a5c57600080fd5b614a68878388016149b8565b9450602086013593506040860135915080821115614a8557600080fd5b50614a928682870161480a565b9150509250925092565b600060208284031215614aae57600080fd5b5035919050565b60005b83811015614ad0578181015183820152602001614ab8565b83811115613ed55750506000910152565b60008151808452614af9816020860160208601614ab5565b601f01601f19169290920160200192915050565b6020815260006141aa6020830184614ae1565b60008060008060808587031215614b3657600080fd5b614b3f8561475d565b9350602085013592506040850135915060608501356001600160401b03811115614b6857600080fd5b614b748782880161480a565b91505092959194509250565b608081526000614b936080830187614ae1565b8560208401528281036040840152614bab8186614ae1565b90508281036060840152613d498185614ae1565b60008083601f840112614bd157600080fd5b5081356001600160401b03811115614be857600080fd5b60208301915083602082850101111561436857600080fd5b600060e08284031215614c1257600080fd5b50919050565b600080600080600060808688031215614c3057600080fd5b85356001600160401b0380821115614c4757600080fd5b614c5389838a01614bbf565b90975095506020880135915080821115614c6c57600080fd5b614c7889838a01614c00565b94506040880135915080821115614c8e57600080fd5b614c9a89838a0161480a565b93506060880135915080821115614cb057600080fd5b50614cbd8882890161480a565b9150509295509295909350565b600080600080600080600060e0888a031215614ce557600080fd5b8735965060208801359550614cfc6040890161475d565b945060608801356001600160401b0380821115614d1857600080fd5b614d248b838c0161480a565b955060808a0135915080821115614d3a57600080fd5b614d468b838c0161480a565b945060a08a0135915080821115614d5c57600080fd5b614d688b838c0161480a565b935060c08a0135915080821115614d7e57600080fd5b50614d8b8a828b0161480a565b91505092959891949750929550565b600082601f830112614dab57600080fd5b81356020614db882614995565b604051614dc582826147de565b83815260059390931b8501820192828101915086841115614de557600080fd5b8286015b84811015614a255780358352918301918301614de9565b600080600080600060a08688031215614e1857600080fd5b614e218661475d565b9450614e2f6020870161475d565b935060408601356001600160401b0380821115614e4b57600080fd5b614e5789838a01614d9a565b94506060880135915080821115614e6d57600080fd5b614e7989838a01614d9a565b93506080880135915080821115614cb057600080fd5b60008060408385031215614ea257600080fd5b82359150614eb26020840161475d565b90509250929050565b600060208284031215614ecd57600080fd5b6141aa8261475d565b600080600080600080600060e0888a031215614ef157600080fd5b614efa8861475d565b96506020880135955060408801359450606088013593506080880135925060a0880135915060c08801356001600160401b03811115614f3857600080fd5b614d8b8a828b0161480a565b60008060408385031215614f5757600080fd5b82356001600160401b0380821115614f6e57600080fd5b614f7a868387016149b8565b93506020850135915080821115614f9057600080fd5b50614f9d85828601614d9a565b9150509250929050565b600081518084526020808501945080840160005b83811015614fd757815187529582019590820190600101614fbb565b509495945050505050565b6020815260006141aa6020830184614fa7565b6000806040838503121561500857600080fd5b6150118361475d565b915060208301356001600160401b0381111561502c57600080fd5b614f9d8582860161480a565b80356005811061477457600080fd5b60008060006060848603121561505c57600080fd5b833592506020840135915061507360408501615038565b90509250925092565b6001600160a01b03169052565b60018060a01b038716815285602082015284604082015260c0606082015260006150b660c0830186614ae1565b82810360808401526150c88186614ae1565b905082810360a084015261181c8185614ae1565b60a0815260006150ef60a0830188614ae1565b90508560208301528460408301528360608301528260808301529695505050505050565b6000602080838503121561512657600080fd5b82356001600160401b038082111561513d57600080fd5b818501915085601f83011261515157600080fd5b813561515c81614995565b6040805161516a83826147de565b83815260059390931b850186019286810192508984111561518a57600080fd5b8686015b84811015615221578035868111156151a65760008081fd5b870160a0818d03601f19018113156151be5760008081fd5b84516151c9816147b9565b8a830135898111156151db5760008081fd5b6151e98f8d8387010161480a565b825250828601358b8201526060808401358783015260808085013591830191909152919092013590820152845292870192870161518e565b509998505050505050505050565b803560ff8116811461477457600080fd5b60006020828403121561525257600080fd5b6141aa8261522f565b6000806000806080858703121561527157600080fd5b84359350602085013592506040850135915060608501356001600160401b03811115614b6857600080fd5b600080604083850312156152af57600080fd5b6152b88361475d565b9150602083013580151581146152cd57600080fd5b809150509250929050565b6001600160a01b0391909116815260200190565b600080600080600080600060c0888a03121561530757600080fd5b87356001600160401b038082111561531e57600080fd5b61532a8b838c01614bbf565b909950975060208a013591508082111561534357600080fd5b61534f8b838c01614c00565b965060408a013591508082111561536557600080fd5b6153718b838c0161480a565b955060608a013591508082111561538757600080fd5b6153938b838c0161480a565b945060808a01359150808211156153a957600080fd5b6153b58b838c0161480a565b935060a08a0135915080821115614d7e57600080fd5b60008060008060008060c087890312156153e457600080fd5b6153ed8761475d565b95506148ad6020880161522f565b600080600080600060a0868803121561541357600080fd5b61541c8661475d565b945061542a6020870161475d565b9350604086013592506060860135915061544660808701615038565b90509295509295909350565b6000806000806060858703121561546857600080fd5b84356001600160401b038082111561547f57600080fd5b61548b88838901614bbf565b909650945060208701359150808211156154a457600080fd5b6154b088838901614c00565b935060408701359150808211156154c657600080fd5b50614b748782880161480a565b600080604083850312156154e657600080fd5b6154ef8361475d565b9150614eb26020840161475d565b600080600080600060a0868803121561551557600080fd5b61551e8661475d565b945061552c6020870161475d565b9350604086013592506060860135915060808601356001600160401b0381111561555557600080fd5b614cbd8882890161480a565b6020808252602e908201527f496e697469616c697a61626c653a20636f6e747261637420697320616c72656160408201526d191e481a5b9a5d1a585b1a5e995960921b606082015260800190565b6020808252600190820152603160f81b604082015260600190565b6020808252600190820152603960f81b604082015260600190565b634e487b7160e01b600052603260045260246000fd5b634e487b7160e01b600052601160045260246000fd5b600081600019048311821515161561562b5761562b6155fb565b500290565b60008261564d57634e487b7160e01b600052601260045260246000fd5b500490565b918252602082015260400190565b600060018201615672576156726155fb565b5060010190565b600181811c9082168061568d57607f821691505b602082108103614c1257634e487b7160e01b600052602260045260246000fd5b6000828210156156bf576156bf6155fb565b500390565b600082198211156156d7576156d76155fb565b500190565b81835281816020850137506000828201602090810191909152601f909101601f19169091010190565b6040815260006157196040830185876156dc565b8281036020840152833581526020840135601e1985360301811261573c57600080fd5b840180356001600160401b0381111561575457600080fd5b80360386131561576357600080fd5b60e0602084015261577b60e0840182602085016156dc565b91505061578a6040860161475d565b615797604084018261507c565b506157a46060860161475d565b6157b1606084018261507c565b506080850135608083015260a085013560a083015260c085013560c08301528092505050949350505050565b6000808335601e198436030181126157f457600080fd5b8301803591506001600160401b0382111561580e57600080fd5b60200191503681900382131561436857600080fd5b8183823760009101908152919050565b600063ffffffff80831681810361584c5761584c6155fb565b6001019392505050565b83815260606020820152600061586f6060830185614ae1565b82810360408401526158818185614ae1565b9695505050505050565b6020808252602e908201527f455243313135353a2063616c6c6572206973206e6f7420746f6b656e206f776e60408201526d195c881bdc88185c1c1c9bdd995960921b606082015260800190565b6020808252602c90820152600080516020615da983398151915260408201526b19195b1959d85d1958d85b1b60a21b606082015260800190565b6020808252602c90820152600080516020615da983398151915260408201526b6163746976652070726f787960a01b606082015260800190565b85815284602082015283604082015282606082015260a060808201526000613d4960a0830184614ae1565b634e487b7160e01b600052602160045260246000fd5b600082516159a0818460208701614ab5565b9190910192915050565b8481528360208201528260408201526080606082015260006158816080830184614ae1565b6020808252602b908201527f496e697469616c697a61626c653a20636f6e7472616374206973206e6f74206960408201526a6e697469616c697a696e6760a81b606082015260800190565b60208082526025908201527f455243313135353a207472616e7366657220746f20746865207a65726f206164604082015264647265737360d81b606082015260800190565b6020808252602a908201527f455243313135353a20696e73756666696369656e742062616c616e636520666f60408201526939103a3930b739b332b960b11b606082015260800190565b8381528260208201526060604082015260006145dd6060830184614ae1565b604081526000615adb6040830185614fa7565b82810360208401526145dd8185614fa7565b600060208284031215615aff57600080fd5b5051919050565b76020b1b1b2b9b9a1b7b73a3937b61d1030b1b1b7bab73a1604d1b815260008351615b38816017850160208801614ab5565b7001034b99036b4b9b9b4b733903937b6329607d1b6017918401918201528351615b69816028840160208801614ab5565b01602801949350505050565b6020808252600190820152600360fc1b604082015260600190565b6001600160a01b03868116825285166020820152604081018490526060810183905260a060808201819052600090613d4990830184614ae1565b600060208284031215615bdc57600080fd5b81516141aa8161492e565b600060033d1115611eda5760046000803e5060005160e01c90565b600060443d1015615c105790565b6040516003193d81016004833e81513d6001600160401b038083116024840183101715615c3f57505050505090565b8285019150815181811115615c575750505050505090565b843d8701016020828501011115615c715750505050505090565b615c80602082860101876147de565b509095945050505050565b60208082526028908201527f455243313135353a204552433131353552656365697665722072656a656374656040820152676420746f6b656e7360c01b606082015260800190565b6001600160a01b0386811682528516602082015260a060408201819052600090615cff90830186614fa7565b8281036060840152615d118186614fa7565b90508281036080840152615d258185614ae1565b98975050505050505050565b600081615d4057615d406155fb565b50600019019056fec3d58168c5ae7397731d063d5bbf3d657854427343f4c083240f7aacaa2d0f6279da588818fa1bb747c46ac45fd0af16861a77c5222cf5ac4538360ca4f77a2cd5bbb2f0fbfc1d5938ca13cabd3156d362f7862fa87504c8d589f5e8f2cbc45346756e6374696f6e206d7573742062652063616c6c6564207468726f75676820bdde33eca765abe07e416fa5225f9a5dbc393366c8bbf45df689e69ee318a934189ab7a9244df0848122154315af71fe140f3db0fe014031783b0946b8c9d2e3360894a13ba1a3210667c828492db98dca3e2076cc3735a920a3ca505d382bbcf48dee1a72497b9e734e498e1b3086c0d2dbcca13f16f15848f974469f906bbf7804d923f43a17d325d77e781528e0793b2edd9890ab45fc64efd7b4b427744c7f26b83ff96e1f2b6a682f133852f6798a09c465da95921460cefb384740249865d7a28e3265b37a6474929f336521b332c1681b933f6cb9f3376673440d862a416464726573733a206c6f772d6c6576656c2064656c65676174652063616c6c206661696c656498db8a220cd0f09badce9f22d0ba7e93edb3d404448cc3560d391ab096ad16e94bbc247fc4736523c8bdd1853fee2acfa817d663f8f4422b13e78ebf99e204a2ddf79b8d2110dbe281cf3bb7762d508cea586c974794c8fc949d41b0db1145130ce23c3e399818cfee81a7ab0880f714e53d7672b08df0fa62f2843416e1ea09a264697066735822122097c6c971b9df993beef923bb3a420b4a3c9c6828ad20e6647d522215434eca1d64736f6c634300080d0033",
  "immutableReferences": {
    "997": [
      {
        "length": 32,
        "start": 6428
      },
      {
        "length": 32,
        "start": 6492
      },
      {
        "length": 32,
        "start": 7536
      },
      {
        "length": 32,
        "start": 7600
      },
      {
        "length": 32,
        "start": 7739
      }
    ]
  },
  "source": "// SPDX-License-Identifier: MIT\npragma solidity ^0.8.13;\n\nimport '@openzeppelin/contracts-upgradeable/token/ERC1155/ERC1155Upgradeable.sol';\nimport '@openzeppelin/contracts-upgradeable/access/AccessControlUpgradeable.sol';\nimport '@openzeppelin/contracts-upgradeable/security/PausableUpgradeable.sol';\nimport '@openzeppelin/contracts-upgradeable/token/ERC1155/extensions/ERC1155SupplyUpgradeable.sol';\nimport '@openzeppelin/contracts-upgradeable/proxy/utils/Initializable.sol';\nimport '@openzeppelin/contracts-upgradeable/proxy/utils/UUPSUpgradeable.sol';\nimport \"@openzeppelin/contracts-upgradeable/token/ERC1155/utils/ERC1155HolderUpgradeable.sol\";\n\n\nimport './ProjectStorage.sol';\nimport './interfaces/ICarbonContractRegistry.sol';\nimport './utils/CustomSignaturesUpgradeable.sol';\nimport './interfaces/IProject.sol';\n\ncontract Project is\n\tIProject,\n\tInitializable,\n\tERC1155Upgradeable,\n\tAccessControlUpgradeable,\n\tPausableUpgradeable,\n\tERC1155SupplyUpgradeable,\n\tUUPSUpgradeable,\n\tCustomSignaturesUpgradeable,\n\tProjectStorage,\n\tERC1155HolderUpgradeable\n{\n\tbytes32 public constant URI_SETTER_ROLE = keccak256('URI_SETTER_ROLE');\n\tbytes32 public constant PAUSER_ROLE = keccak256('PAUSER_ROLE');\n\tbytes32 public constant ANTE_MINTER_ROLE = keccak256('ANTE_MINTER_ROLE');\n\tbytes32 public constant POST_MINTER_ROLE = keccak256('POST_MINTER_ROLE');\n\tbytes32 public constant MINTER_ROLE = keccak256('MINTER_ROLE');\n\tbytes32 public constant UPGRADER_ROLE = keccak256('UPGRADER_ROLE');\n\tbytes32 public constant BLACKLISTED = keccak256('BLACKLISTED');\n\tbytes32 public constant BLACKLISTER_ROLE = keccak256('BLACKLISTER_ROLE');\n\tbytes32 public constant BURNER_ROLE = keccak256('BURNER_ROLE');\n\tbytes32 public constant VERIFIER_ROLE = keccak256('VERIFIER_ROLE');\n\tbytes32 public constant CLAWBACK_ROLE = keccak256('CLAWBACK_ROLE');\n\n\n/// @custom:oz-upgrades-unsafe-allow constructor\n\tconstructor() {\n\t\t_disableInitializers();\n\t}\n\n\tfunction initialize(\n\t\taddress _contractRegistry,\n\t\taddress _owner,\n\t\tuint256 _projectId,\n\t\tstring memory _projectName,\n\t\tstring memory _projectMethodology,\n\t\tstring memory _projectUri\n\t) public initializer {\n\t\t__ERC1155_init('');\n\t\t__AccessControl_init();\n\t\t__Pausable_init();\n\t\t__ERC1155Supply_init();\n\t\t__UUPSUpgradeable_init();\n\t\t__CustomSignatures_init(\"Carbon Registry\", '0.0.1');\n\n\t\t// Our Inits\n\t\t__ProjectStorage_init(_contractRegistry, 50, _projectId, _projectName, _projectUri, _projectMethodology);\n\n\t\t_grantRole(DEFAULT_ADMIN_ROLE, _owner);\n\t\t_grantRole(URI_SETTER_ROLE, _owner);\n\t\t_grantRole(PAUSER_ROLE, _owner);\n\t\t_grantRole(ANTE_MINTER_ROLE, _owner);\n\t\t_grantRole(POST_MINTER_ROLE, _owner);\n\t\t_grantRole(UPGRADER_ROLE, _owner);\n\t\t_grantRole(BLACKLISTER_ROLE, _owner);\n\t\t_grantRole(VERIFIER_ROLE, _owner);\n\t\t_grantRole(CLAWBACK_ROLE, _owner);\n\n\t\t_grantRole(POST_MINTER_ROLE, msg.sender); // Just so projectFactory can mint exPost on creation of the project\n\t}\n\n\tmodifier notBlacklisted(address account) {\n\t\trequire(\n\t\t\t!hasRole(BLACKLISTED, account),\n\t\t\"0\"\n\t\t);\n\t\t_;\n\t}\n\n\tmodifier onlyExPostTokens(uint256[] memory tokenIds) {\n\t\tfor (uint256 i = 0; i < tokenIds.length; i++) {\n\t\t\trequire(isExPostToken(tokenIds[i]), \"1\");\n\t\t}\n\t\t_;\n\t}\n\n\tmodifier onlyExPostToken(uint256 tokenId) {\n\t\trequire(isExPostToken(tokenId), \"1\");\n\t\t_;\n\t}\n\n\tmodifier onlyVerifiedStatus(bool isVerified, uint256 tokenId) {\n\t\trequire(\n\t\t\t(exPostVintageMapping[tokenId].lastVerificationTimestamp >=\n\t\t\t\texPostVintageMapping[tokenId].verificationPeriodEnd) ==\n\t\t\t\tisVerified,\n\t\t\tisVerified\n\t\t\t\t? \"2\"\n\t\t\t\t: \"3\"\n\t\t);\n\t\t_;\n\t}\n\n\tfunction isExPostToken(uint256 tokenId) public view returns (bool) {\n\t\treturn bytes(exPostVintageMapping[tokenId].serialization).length > 0;\n\t}\n\n\tfunction testUpgrade() external pure returns(string memory) {\n\t\treturn \"0.0.4\";\n\t}\n\n\t// ----------------------------------\n\t//         Minting Functions\n\t// ----------------------------------\n\n\tfunction createExPostVintage(\n\t\tuint256 estAmount,\n\t\tuint256 verificationPeriodStart,\n\t\tuint256 verificationPeriodEnd,\n\t\tstring memory serialization\n\t) public onlyRole(POST_MINTER_ROLE) {\n\t\t\n\t\trequire(\n\t\t\tverificationPeriodEnd > verificationPeriodStart,\n\t\t\t\"4\"\n\t\t);\n\t\tuint256 newTokenId = nextTokenId();\n\t\tICarbonContractRegistry(contractRegistry).registerSerialization(\n\t\t\tserialization\n\t\t);\n\t\tserializationToExPostTokenIdMapping[serialization] = newTokenId;\n\t\texPostVintageMapping[newTokenId] = VintageData(\n\t\t\tserialization,\n\t\t\testAmount,\n\t\t\tverificationPeriodStart,\n\t\t\tverificationPeriodEnd,\n\t\t\t0\n\t\t);\n\t\temit ExPostCreated(\n\t\t\tnewTokenId,\n\t\t\testAmount,\n\t\t\tverificationPeriodStart,\n\t\t\tverificationPeriodEnd,\n\t\t\tserialization\n\t\t);\n\t}\n\n\tfunction createExPostVintageBatch(\n\t\tVintageData[] memory vintages\n\t) public onlyRole(POST_MINTER_ROLE) {\n\t\tfor (uint256 i = 0; i < vintages.length; i++) {\n\t\t\tcreateExPostVintage(\n\t\t\t\tvintages[i].estMitigations,\n\t\t\t\tvintages[i].verificationPeriodStart,\n\t\t\t\tvintages[i].verificationPeriodEnd,\n\t\t\t\tvintages[i].serialization\n\t\t\t);\n\t\t}\n\t}\n\n\tfunction mintExAnte(\n\t\taddress account,\n\t\tuint256 exPostTokenId,\n\t\tuint256 amount,\n\t\tbytes memory data\n\t)\n\t\tpublic\n\t\tonlyRole(ANTE_MINTER_ROLE)\n\t\tonlyExPostToken(exPostTokenId)\n\t\tonlyVerifiedStatus(false, exPostTokenId)\n\t{\n\n\t\tuint256 exAnteTokenId = exPostToExAnteTokenId[exPostTokenId];\n\t\tif (exAnteTokenId == 0) {\n\t\t\texAnteTokenId = nextTokenId();\n\t\t\texPostToExAnteTokenId[exPostTokenId] = exAnteTokenId;\n\t\t}\n\n\t\tuint256 exPostEstimatedSupply = exPostVintageMapping[exPostTokenId]\n\t\t\t.estMitigations;\n\t\tuint256 exPostVerifiedSupply = totalSupply(exPostTokenId);\n\t\tuint256 anteDrawablePostSupply = exPostEstimatedSupply -\n\t\t\texPostVerifiedSupply;\n\t\tuint256 maxExAnteSupply = (anteDrawablePostSupply *\n\t\t\t(maxAntePercentage)) / (100);\n\t\tuint256 exAnteSupply = totalSupply(exAnteTokenId);\n\n\t\trequire(\n\t\t\texAnteSupply + amount <= maxExAnteSupply,\n\t\t\t\"5\"\n\t\t);\n\n\t\texAnteToExPostTokenId[exAnteTokenId] = exPostTokenId;\n\n\t\temit ExAnteMinted(exAnteTokenId, exPostTokenId, account,  amount);\n\n\t\t_mint(account, exAnteTokenId, amount, data);\n\n\t}\n\n\tfunction changeVintageMitigationEstimate(\n\t\tuint256 tokenId,\n\t\tuint256 newEstAmount,\n\t\tAdminActionReason reason\n\t)\n\t\tpublic\n\t\tonlyRole(DEFAULT_ADMIN_ROLE)\n\t\tonlyExPostToken(tokenId)\n\t\tonlyVerifiedStatus(false, tokenId)\n\t{\n\t\temit VintageMitigationEstimateChanged(\n\t\t\ttokenId,\n\t\t\tnewEstAmount,\n\t\t\texPostVintageMapping[tokenId].estMitigations,\n\t\t\treason\n\t\t);\n\t\texPostVintageMapping[tokenId].estMitigations = newEstAmount;\n\t}\n\n\tfunction verifyAndMintExPost(\n\t\taddress verificationVault,\n\t\tuint256 tokenId,\n\t\tuint256 amountVerified,\n\t\tuint256 amountToAnteHolders,\n\t\tuint256 verificationPeriodStart,\n\t\tuint256 verificationPeriodEnd,\n\t\tstring memory monitoringReport\n\t)\n\t\tpublic\n\t\tonlyRole(VERIFIER_ROLE)\n\t\tonlyExPostToken(tokenId)\n\t\tonlyVerifiedStatus(false, tokenId)\n\t{\n\t\t\t\n\t\trequire(\n\t\t\tamountVerified >= amountToAnteHolders,\n\t\t\t\"6\"\n\t\t);\n\t\trequire(\n\t\t\tverificationPeriodEnd >=\n\t\t\t\texPostVintageMapping[tokenId].verificationPeriodStart,\n\t\t\t\"7\"\n\t\t);\n\t\trequire(\n\t\t\tverificationPeriodEnd >\n\t\t\t\texPostVintageMapping[tokenId].lastVerificationTimestamp,\n\t\t\t\"8\"\n\t\t);\n\n\t\tuint256 exAnteTokenId = exPostToExAnteTokenId[tokenId];\n\t\tif (exAnteTokenId == 0) {\n\t\t\t// If exAnteTokenId is zero then there are no ante holders\n\t\t\trequire(amountToAnteHolders == 0, \"9\");\n\t\t}\n\n\t\t\temit ExPostVerifiedAndMinted(\n\t\t\ttokenId,\n\t\t\tamountVerified,\n\t\t\tamountToAnteHolders,\n\t\t\tverificationPeriodStart,\n\t\t\tverificationPeriodEnd,\n\t\t\tmonitoringReport\n\t\t);\n\n\t\tif (amountVerified - amountToAnteHolders > 0) {\n\t\t\t// Mint To Verification Vault\n\t\t\t_mint(\n\t\t\t\tverificationVault,\n\t\t\t\ttokenId,\n\t\t\t\tamountVerified - amountToAnteHolders,\n\t\t\t\t''\n\t\t\t);\n\t\t}\n\t\texPostVintageMapping[tokenId]\n\t\t\t.lastVerificationTimestamp = verificationPeriodEnd;\n\n\t\tif (amountToAnteHolders > 0) {\n\t\t\t// Mint to this address, where ante holders will claim\n\t\t\t_mint(address(this), tokenId, amountToAnteHolders, '');\n\t\t}\n\n\n\t}\n\n\tfunction adminClawback(\n\t\taddress from,\n\t\taddress to,\n\t\tuint256 tokenId,\n\t\tuint256 amount,\n\t\tAdminActionReason reason\n\t) public onlyRole(CLAWBACK_ROLE) {\n\t\temit AdminClawback(from, to, tokenId, amount, reason);\n\t\t_safeTransferFrom(from, to, tokenId, amount, '');\n\t}\n\n\tfunction exchangeAnteForPostEvenSteven(\n\t\taddress[] memory accounts,\n\t\tuint256 exPostTokenId,\n\t\tbytes memory data\n\t)\n\t\texternal\n\t\tonlyExPostToken(exPostTokenId)\n\t{\n\t\tuint256 exAnteTokenId = exPostToExAnteTokenId[exPostTokenId];\n\t\trequire(exAnteTokenId != 0, \"9\");\n\t\tuint256 currentExAnteSupply = totalSupply(exAnteTokenId);\n\t\tuint256 currentExPostSupplyInContract = balanceOf(\n\t\t\taddress(this),\n\t\t\texPostTokenId\n\t\t);\n\t\trequire(currentExPostSupplyInContract > 0, \"10\");\n\n\t\tfor (uint256 i = 0; i < accounts.length; i++) {\n\t\t\t\n\t\t\tuint256 amountExAnte = balanceOf(accounts[i], exAnteTokenId);\n\t\t\tuint256 amountExPost = (amountExAnte *\n\t\t\t\tcurrentExPostSupplyInContract) / currentExAnteSupply;\n\t\t\tuint256 exAnteBurnAmount = amountExAnte;\n\t\t\tif (amountExAnte > amountExPost) {\n\t\t\t\texAnteBurnAmount = amountExPost;\n\t\t\t}\n\t\t\t\t\t\temit ExchangeAnteForPost(\n\t\t\t\taccounts[i],\n\t\t\t\texPostTokenId,\n\t\t\t\tamountExPost,\n\t\t\t\texAnteBurnAmount\n\t\t\t);\n\t\t\t_burn(accounts[i], exAnteTokenId, exAnteBurnAmount);\n\t\t\t_safeTransferFrom(\n\t\t\t\taddress(this),\n\t\t\t\taccounts[i],\n\t\t\t\texPostTokenId,\n\t\t\t\tamountExPost,\n\t\t\t\tdata\n\t\t\t);\n\t\t}\n\t}\n\n\t// ----------------------------------\n\t//              Actions\n\t// ----------------------------------\n\n\n\tfunction transferFromSignature(\n\t\tbytes calldata signature,\n\t\tsignatureTransferPayload calldata payload,\n\t\tbytes memory data\n\t) public payable onlyValidSignatureTransfer(signature, payload) {\n\t\t_safeTransferFrom(\n\t\t\tpayload.signer,\n\t\t\tpayload.to,\n\t\t\tpayload.tokenId,\n\t\t\tpayload.amount,\n\t\t\tdata\n\t\t);\n\t}\n\n\tfunction retire(\n\t\tuint256 tokenId,\n\t\tuint256 amount,\n\t\taddress beneficiary,\n\t\tstring memory retireeName,\n\t\tstring memory customUri,\n\t\tstring memory comment,\n\t\tbytes memory data\n\t) public onlyExPostToken(tokenId) returns (uint256 nftTokenId) {\n\t\tif(msg.sender == beneficiary){\n\t\t\treturn _retire(\n\t\t\t\tmsg.sender,\n\t\t\t\ttokenId,\n\t\t\t\tamount,\n\t\t\t\tretireeName,\n\t\t\t\tcustomUri,\n\t\t\t\tcomment,\n\t\t\t\tdata\n\t\t\t);\n\t\t}\n\n\t\trequire(beneficiary != address(0));\n\t\t_safeTransferFrom(msg.sender, beneficiary, tokenId, amount, data);\n\t\treturn _retire(\n\t\t\tbeneficiary,\n\t\t\ttokenId,\n\t\t\tamount,\n\t\t\tretireeName,\n\t\t\tcustomUri,\n\t\t\tcomment,\n\t\t\tdata\n\t\t);\n\t}\n\n\tfunction retireFromSignature(\n\t\tbytes calldata signature,\n\t\tsignatureTransferPayload calldata payload,\n\t\tstring memory retireeName,\n\t\tstring memory customUri,\n\t\tstring memory comment,\n\t\tbytes memory data\n\t)\n\t\tpublic\n\t\tonlyExPostToken(payload.tokenId)\n\t\tonlyValidSignatureTransfer(signature, payload)\n\t\treturns (uint256 nftTokenId)\n\t{\n\t\tif(payload.signer == payload.to){\n\t\t\treturn _retire(\n\t\t\t\tpayload.signer,\n\t\t\t\tpayload.tokenId,\n\t\t\t\tpayload.amount,\n\t\t\t\tretireeName,\n\t\t\t\tcustomUri,\n\t\t\t\tcomment,\n\t\t\t\tdata\n\t\t\t);\n\t\t}\n\t\trequire(payload.to != address(0));\n\t\t_safeTransferFrom(payload.signer, payload.to, payload.tokenId, payload.amount, data);\n\t\treturn _retire(\n\t\t\tpayload.to,\n\t\t\tpayload.tokenId,\n\t\t\tpayload.amount,\n\t\t\tretireeName,\n\t\t\tcustomUri,\n\t\t\tcomment,\n\t\t\tdata\n\t\t);\n\t}\n\n\tfunction _retire(\n\t\taddress retiree,\n\t\tuint256 tokenId,\n\t\tuint256 amount,\n\t\tstring memory retireeName,\n\t\tstring memory customUri,\n\t\tstring memory comment,\n\t\tbytes memory data\n\t) internal returns(uint256 nftTokenId) {\n\t\t_burn(retiree, tokenId, amount);\n\t\tnftTokenId = mintRetirementCertificate(retiree, tokenId, amount, retireeName, customUri, comment);\n\t\temit RetiredVintage(retiree, tokenId, amount, nftTokenId, data);\n\t}\n\n\tfunction mintRetirementCertificate(\n\t\taddress account,\n\t\tuint256 tokenId,\n\t\tuint256 amount,\n\t\tstring memory retireeName,\n\t\tstring memory customUri,\n\t\tstring memory comment\n\t) internal returns (uint256) {\n\t\tuint256 nftTokenId = nextTokenId();\n\t\tretirementMapping[nftTokenId] = RetirementData(\n\t\t\taccount,\n\t\t\tamount,\n\t\t\ttokenId,\n\t\t\tretireeName,\n\t\t\tcustomUri,\n\t\t\tcomment\n\t\t);\n\t\t_mint(account, nftTokenId, 1, '');\n\t\treturn nftTokenId;\n\t}\n\n\n\tfunction cancelCreditsFromSignature(\n\t\tbytes calldata signature,\n\t\tsignatureTransferPayload calldata payload,\n\t\tstring memory comment,\n\t\tbytes memory data\n\t)\n\t\tpublic\n\t\tonlyExPostToken(payload.tokenId)\n\t\tonlyValidSignatureTransfer(signature, payload)\n\t{\n\t\temit CancelledCredits(payload.signer, payload.tokenId, payload.amount,comment, data);\n\t\t_burn(payload.signer, payload.tokenId, payload.amount);\n\t}\n\n\t// ----------------------------------\n\t//              Hooks\n\t// ----------------------------------\n\n\tfunction _beforeTokenTransfer(\n\t\taddress operator,\n\t\taddress from,\n\t\taddress to,\n\t\tuint256[] memory ids,\n\t\tuint256[] memory amounts,\n\t\tbytes memory data\n\t)\n\t\tinternal\n\t\toverride(ERC1155Upgradeable, ERC1155SupplyUpgradeable)\n\t\twhenNotPaused\n\t\tnotBlacklisted(from)\n\t\tnotBlacklisted(to)\n\t{\n\t\tfor(uint256 i = 0; i < ids.length; i++) {\n\t\t\trequire((retirementMapping[ids[i]].amount == 0) || (from == address(0) || to == address(0)), \"11\");\n\t\t}\n\t\tsuper._beforeTokenTransfer(operator, from, to, ids, amounts, data);\n\t}\n\n\tfunction setURI(string memory newuri) public onlyRole(URI_SETTER_ROLE) {\n\t\t_setURI(newuri);\n\t}\n\n\tfunction pause() public onlyRole(PAUSER_ROLE) {\n\t\t_pause();\n\t}\n\n\tfunction unpause() public onlyRole(PAUSER_ROLE) {\n\t\t_unpause();\n\t}\n\n\tfunction nextTokenId() internal returns (uint256) {\n\t\tunchecked {\n\t\t\ttopTokenId += 1;\n\t\t}\n\t\treturn topTokenId;\n\t}\n\n\tfunction updateMaxAntePercentage(uint8 newMaxAntePercentage)\n\t\tpublic\n\t\tonlyRole(DEFAULT_ADMIN_ROLE)\n\t{\n\t\tmaxAntePercentage = newMaxAntePercentage;\n\t}\n\n\tfunction _authorizeUpgrade(\n\t\taddress newImplementation\n\t) internal override onlyRole(UPGRADER_ROLE) {}\n\n\t// The following functions are overrides required by Solidity.\n\n\tfunction supportsInterface(\n\t\tbytes4 interfaceId\n\t)\n\t\tpublic\n\t\tview\n\t\toverride(ERC1155Upgradeable, AccessControlUpgradeable,ERC1155ReceiverUpgradeable)\n\t\treturns (bool)\n\t{\n\t\treturn super.supportsInterface(interfaceId);\n\t}\n}\n",
  "sourcePath": "/Users/thorduragustsson/Programming/Projects/CarbonRegistryContracts/contracts/Project.sol",
  "compiler": {
    "name": "solc",
    "version": "0.8.13+commit.abaa5c0e.Emscripten.clang"
  },
  "schemaVersion": "3.4.13",
  "updatedAt": "2023-06-27T17:17:32.100Z",
  "devdoc": {
    "kind": "dev",
    "methods": {
      "balanceOf(address,uint256)": {
        "details": "See {IERC1155-balanceOf}. Requirements: - `account` cannot be the zero address."
      },
      "balanceOfBatch(address[],uint256[])": {
        "details": "See {IERC1155-balanceOfBatch}. Requirements: - `accounts` and `ids` must have the same length."
      },
      "constructor": {
        "custom:oz-upgrades-unsafe-allow": "constructor"
      },
      "exists(uint256)": {
        "details": "Indicates whether any token exist with a given id, or not."
      },
      "getRoleAdmin(bytes32)": {
        "details": "Returns the admin role that controls `role`. See {grantRole} and {revokeRole}. To change a role's admin, use {_setRoleAdmin}."
      },
      "grantRole(bytes32,address)": {
        "details": "Grants `role` to `account`. If `account` had not been already granted `role`, emits a {RoleGranted} event. Requirements: - the caller must have ``role``'s admin role. May emit a {RoleGranted} event."
      },
      "hasRole(bytes32,address)": {
        "details": "Returns `true` if `account` has been granted `role`."
      },
      "isApprovedForAll(address,address)": {
        "details": "See {IERC1155-isApprovedForAll}."
      },
      "paused()": {
        "details": "Returns true if the contract is paused, and false otherwise."
      },
      "proxiableUUID()": {
        "details": "Implementation of the ERC1822 {proxiableUUID} function. This returns the storage slot used by the implementation. It is used to validate the implementation's compatibility when performing an upgrade. IMPORTANT: A proxy pointing at a proxiable contract should not be considered proxiable itself, because this risks bricking a proxy that upgrades to it, by delegating to itself until out of gas. Thus it is critical that this function revert if invoked through a proxy. This is guaranteed by the `notDelegated` modifier."
      },
      "renounceRole(bytes32,address)": {
        "details": "Revokes `role` from the calling account. Roles are often managed via {grantRole} and {revokeRole}: this function's purpose is to provide a mechanism for accounts to lose their privileges if they are compromised (such as when a trusted device is misplaced). If the calling account had been revoked `role`, emits a {RoleRevoked} event. Requirements: - the caller must be `account`. May emit a {RoleRevoked} event."
      },
      "revokeRole(bytes32,address)": {
        "details": "Revokes `role` from `account`. If `account` had been granted `role`, emits a {RoleRevoked} event. Requirements: - the caller must have ``role``'s admin role. May emit a {RoleRevoked} event."
      },
      "safeBatchTransferFrom(address,address,uint256[],uint256[],bytes)": {
        "details": "See {IERC1155-safeBatchTransferFrom}."
      },
      "safeTransferFrom(address,address,uint256,uint256,bytes)": {
        "details": "See {IERC1155-safeTransferFrom}."
      },
      "setApprovalForAll(address,bool)": {
        "details": "See {IERC1155-setApprovalForAll}."
      },
      "totalSupply(uint256)": {
        "details": "Total amount of tokens in with a given id."
      },
      "upgradeTo(address)": {
        "details": "Upgrade the implementation of the proxy to `newImplementation`. Calls {_authorizeUpgrade}. Emits an {Upgraded} event."
      },
      "upgradeToAndCall(address,bytes)": {
        "details": "Upgrade the implementation of the proxy to `newImplementation`, and subsequently execute the function call encoded in `data`. Calls {_authorizeUpgrade}. Emits an {Upgraded} event."
      },
      "uri(uint256)": {
        "details": "See {IERC1155MetadataURI-uri}. This implementation returns the same URI for *all* token types. It relies on the token type ID substitution mechanism https://eips.ethereum.org/EIPS/eip-1155#metadata[defined in the EIP]. Clients calling this function must replace the `\\{id\\}` substring with the actual token type ID."
      }
    },
    "version": 1
  },
  "userdoc": {
    "kind": "user",
    "methods": {},
    "version": 1
  }
}