{
  "contractName": "Project",
  "abi": [
    {
      "inputs": [],
      "stateMutability": "nonpayable",
      "type": "constructor"
    },
    {
      "anonymous": false,
      "inputs": [
        {
          "indexed": true,
          "internalType": "address",
          "name": "from",
          "type": "address"
        },
        {
          "indexed": true,
          "internalType": "uint256",
          "name": "tokenId",
          "type": "uint256"
        },
        {
          "indexed": false,
          "internalType": "uint256",
          "name": "amount",
          "type": "uint256"
        },
        {
          "indexed": true,
          "internalType": "enum AdminActionReason",
          "name": "reason",
          "type": "uint8"
        }
      ],
      "name": "AdminBurn",
      "type": "event"
    },
    {
      "anonymous": false,
      "inputs": [
        {
          "indexed": false,
          "internalType": "address",
          "name": "previousAdmin",
          "type": "address"
        },
        {
          "indexed": false,
          "internalType": "address",
          "name": "newAdmin",
          "type": "address"
        }
      ],
      "name": "AdminChanged",
      "type": "event"
    },
    {
      "anonymous": false,
      "inputs": [
        {
          "indexed": true,
          "internalType": "address",
          "name": "from",
          "type": "address"
        },
        {
          "indexed": false,
          "internalType": "address",
          "name": "to",
          "type": "address"
        },
        {
          "indexed": true,
          "internalType": "uint256",
          "name": "tokenId",
          "type": "uint256"
        },
        {
          "indexed": false,
          "internalType": "uint256",
          "name": "amount",
          "type": "uint256"
        },
        {
          "indexed": true,
          "internalType": "enum AdminActionReason",
          "name": "reason",
          "type": "uint8"
        }
      ],
      "name": "AdminClawback",
      "type": "event"
    },
    {
      "anonymous": false,
      "inputs": [
        {
          "indexed": true,
          "internalType": "address",
          "name": "account",
          "type": "address"
        },
        {
          "indexed": true,
          "internalType": "address",
          "name": "operator",
          "type": "address"
        },
        {
          "indexed": false,
          "internalType": "bool",
          "name": "approved",
          "type": "bool"
        }
      ],
      "name": "ApprovalForAll",
      "type": "event"
    },
    {
      "anonymous": false,
      "inputs": [
        {
          "indexed": true,
          "internalType": "address",
          "name": "beacon",
          "type": "address"
        }
      ],
      "name": "BeaconUpgraded",
      "type": "event"
    },
    {
      "anonymous": false,
      "inputs": [
        {
          "indexed": true,
          "internalType": "uint256",
          "name": "exAnteTokenId",
          "type": "uint256"
        },
        {
          "indexed": true,
          "internalType": "uint256",
          "name": "exPostTokenId",
          "type": "uint256"
        },
        {
          "indexed": true,
          "internalType": "address",
          "name": "account",
          "type": "address"
        },
        {
          "indexed": false,
          "internalType": "uint256",
          "name": "amount",
          "type": "uint256"
        }
      ],
      "name": "ExAnteMinted",
      "type": "event"
    },
    {
      "anonymous": false,
      "inputs": [
        {
          "indexed": true,
          "internalType": "uint256",
          "name": "tokenId",
          "type": "uint256"
        },
        {
          "indexed": false,
          "internalType": "uint256",
          "name": "estimatedAmount",
          "type": "uint256"
        },
        {
          "indexed": false,
          "internalType": "uint256",
          "name": "verificationPeriodStart",
          "type": "uint256"
        },
        {
          "indexed": false,
          "internalType": "uint256",
          "name": "verificationPeriodEnd",
          "type": "uint256"
        },
        {
          "indexed": false,
          "internalType": "string",
          "name": "serialization",
          "type": "string"
        }
      ],
      "name": "ExPostCreated",
      "type": "event"
    },
    {
      "anonymous": false,
      "inputs": [
        {
          "indexed": true,
          "internalType": "uint256",
          "name": "tokenId",
          "type": "uint256"
        },
        {
          "indexed": false,
          "internalType": "uint256",
          "name": "amount",
          "type": "uint256"
        },
        {
          "indexed": false,
          "internalType": "uint256",
          "name": "amountToAnteHolders",
          "type": "uint256"
        },
        {
          "indexed": false,
          "internalType": "uint256",
          "name": "verificationPeriodStart",
          "type": "uint256"
        },
        {
          "indexed": false,
          "internalType": "uint256",
          "name": "verificationPeriodEnd",
          "type": "uint256"
        },
        {
          "indexed": false,
          "internalType": "string",
          "name": "monitoringReport",
          "type": "string"
        }
      ],
      "name": "ExPostVerifiedAndMinted",
      "type": "event"
    },
    {
      "anonymous": false,
      "inputs": [
        {
          "indexed": true,
          "internalType": "address",
          "name": "account",
          "type": "address"
        },
        {
          "indexed": true,
          "internalType": "uint256",
          "name": "exPostTokenId",
          "type": "uint256"
        },
        {
          "indexed": false,
          "internalType": "uint256",
          "name": "exPostAmountReceived",
          "type": "uint256"
        },
        {
          "indexed": false,
          "internalType": "uint256",
          "name": "exAnteAmountBurned",
          "type": "uint256"
        }
      ],
      "name": "ExchangeAnteForPost",
      "type": "event"
    },
    {
      "anonymous": false,
      "inputs": [
        {
          "indexed": false,
          "internalType": "bytes",
          "name": "signature",
          "type": "bytes"
        },
        {
          "components": [
            {
              "internalType": "uint256",
              "name": "deadline",
              "type": "uint256"
            },
            {
              "internalType": "string",
              "name": "description",
              "type": "string"
            },
            {
              "internalType": "address",
              "name": "signer",
              "type": "address"
            },
            {
              "internalType": "uint256",
              "name": "nonce",
              "type": "uint256"
            }
          ],
          "indexed": false,
          "internalType": "struct signatureGenericPayload",
          "name": "payload",
          "type": "tuple"
        }
      ],
      "name": "GenericSignatureValid",
      "type": "event"
    },
    {
      "anonymous": false,
      "inputs": [
        {
          "indexed": false,
          "internalType": "uint8",
          "name": "version",
          "type": "uint8"
        }
      ],
      "name": "Initialized",
      "type": "event"
    },
    {
      "anonymous": false,
      "inputs": [
        {
          "indexed": false,
          "internalType": "address",
          "name": "account",
          "type": "address"
        }
      ],
      "name": "Paused",
      "type": "event"
    },
    {
      "anonymous": false,
      "inputs": [
        {
          "indexed": true,
          "internalType": "address",
          "name": "account",
          "type": "address"
        },
        {
          "indexed": true,
          "internalType": "uint256",
          "name": "tokenId",
          "type": "uint256"
        },
        {
          "indexed": false,
          "internalType": "uint256",
          "name": "amount",
          "type": "uint256"
        },
        {
          "indexed": false,
          "internalType": "uint256",
          "name": "nftTokenId",
          "type": "uint256"
        },
        {
          "indexed": false,
          "internalType": "bytes",
          "name": "data",
          "type": "bytes"
        }
      ],
      "name": "RetiredVintage",
      "type": "event"
    },
    {
      "anonymous": false,
      "inputs": [
        {
          "indexed": true,
          "internalType": "bytes32",
          "name": "role",
          "type": "bytes32"
        },
        {
          "indexed": true,
          "internalType": "bytes32",
          "name": "previousAdminRole",
          "type": "bytes32"
        },
        {
          "indexed": true,
          "internalType": "bytes32",
          "name": "newAdminRole",
          "type": "bytes32"
        }
      ],
      "name": "RoleAdminChanged",
      "type": "event"
    },
    {
      "anonymous": false,
      "inputs": [
        {
          "indexed": true,
          "internalType": "bytes32",
          "name": "role",
          "type": "bytes32"
        },
        {
          "indexed": true,
          "internalType": "address",
          "name": "account",
          "type": "address"
        },
        {
          "indexed": true,
          "internalType": "address",
          "name": "sender",
          "type": "address"
        }
      ],
      "name": "RoleGranted",
      "type": "event"
    },
    {
      "anonymous": false,
      "inputs": [
        {
          "indexed": true,
          "internalType": "bytes32",
          "name": "role",
          "type": "bytes32"
        },
        {
          "indexed": true,
          "internalType": "address",
          "name": "account",
          "type": "address"
        },
        {
          "indexed": true,
          "internalType": "address",
          "name": "sender",
          "type": "address"
        }
      ],
      "name": "RoleRevoked",
      "type": "event"
    },
    {
      "anonymous": false,
      "inputs": [
        {
          "indexed": true,
          "internalType": "address",
          "name": "operator",
          "type": "address"
        },
        {
          "indexed": true,
          "internalType": "address",
          "name": "from",
          "type": "address"
        },
        {
          "indexed": true,
          "internalType": "address",
          "name": "to",
          "type": "address"
        },
        {
          "indexed": false,
          "internalType": "uint256[]",
          "name": "ids",
          "type": "uint256[]"
        },
        {
          "indexed": false,
          "internalType": "uint256[]",
          "name": "values",
          "type": "uint256[]"
        }
      ],
      "name": "TransferBatch",
      "type": "event"
    },
    {
      "anonymous": false,
      "inputs": [
        {
          "indexed": false,
          "internalType": "bytes",
          "name": "signature",
          "type": "bytes"
        },
        {
          "components": [
            {
              "internalType": "uint256",
              "name": "deadline",
              "type": "uint256"
            },
            {
              "internalType": "string",
              "name": "description",
              "type": "string"
            },
            {
              "internalType": "address",
              "name": "signer",
              "type": "address"
            },
            {
              "internalType": "address",
              "name": "to",
              "type": "address"
            },
            {
              "internalType": "uint256",
              "name": "tokenId",
              "type": "uint256"
            },
            {
              "internalType": "uint256",
              "name": "amount",
              "type": "uint256"
            },
            {
              "internalType": "uint256",
              "name": "nonce",
              "type": "uint256"
            }
          ],
          "indexed": false,
          "internalType": "struct signatureTransferPayload",
          "name": "payload",
          "type": "tuple"
        }
      ],
      "name": "TransferSignatureValid",
      "type": "event"
    },
    {
      "anonymous": false,
      "inputs": [
        {
          "indexed": true,
          "internalType": "address",
          "name": "operator",
          "type": "address"
        },
        {
          "indexed": true,
          "internalType": "address",
          "name": "from",
          "type": "address"
        },
        {
          "indexed": true,
          "internalType": "address",
          "name": "to",
          "type": "address"
        },
        {
          "indexed": false,
          "internalType": "uint256",
          "name": "id",
          "type": "uint256"
        },
        {
          "indexed": false,
          "internalType": "uint256",
          "name": "value",
          "type": "uint256"
        }
      ],
      "name": "TransferSingle",
      "type": "event"
    },
    {
      "anonymous": false,
      "inputs": [
        {
          "indexed": false,
          "internalType": "string",
          "name": "value",
          "type": "string"
        },
        {
          "indexed": true,
          "internalType": "uint256",
          "name": "id",
          "type": "uint256"
        }
      ],
      "name": "URI",
      "type": "event"
    },
    {
      "anonymous": false,
      "inputs": [
        {
          "indexed": false,
          "internalType": "address",
          "name": "account",
          "type": "address"
        }
      ],
      "name": "Unpaused",
      "type": "event"
    },
    {
      "anonymous": false,
      "inputs": [
        {
          "indexed": true,
          "internalType": "address",
          "name": "implementation",
          "type": "address"
        }
      ],
      "name": "Upgraded",
      "type": "event"
    },
    {
      "anonymous": false,
      "inputs": [
        {
          "indexed": true,
          "internalType": "uint256",
          "name": "tokenId",
          "type": "uint256"
        },
        {
          "indexed": false,
          "internalType": "uint256",
          "name": "newEstimate",
          "type": "uint256"
        },
        {
          "indexed": false,
          "internalType": "uint256",
          "name": "oldEstimate",
          "type": "uint256"
        },
        {
          "indexed": true,
          "internalType": "enum AdminActionReason",
          "name": "reason",
          "type": "uint8"
        }
      ],
      "name": "VintageMitigationEstimateChanged",
      "type": "event"
    },
    {
      "inputs": [],
      "name": "ANTE_MINTER_ROLE",
      "outputs": [
        {
          "internalType": "bytes32",
          "name": "",
          "type": "bytes32"
        }
      ],
      "stateMutability": "view",
      "type": "function",
      "constant": true
    },
    {
      "inputs": [],
      "name": "BLACKLISTED",
      "outputs": [
        {
          "internalType": "bytes32",
          "name": "",
          "type": "bytes32"
        }
      ],
      "stateMutability": "view",
      "type": "function",
      "constant": true
    },
    {
      "inputs": [],
      "name": "BLACKLISTER_ROLE",
      "outputs": [
        {
          "internalType": "bytes32",
          "name": "",
          "type": "bytes32"
        }
      ],
      "stateMutability": "view",
      "type": "function",
      "constant": true
    },
    {
      "inputs": [],
      "name": "BURNER_ROLE",
      "outputs": [
        {
          "internalType": "bytes32",
          "name": "",
          "type": "bytes32"
        }
      ],
      "stateMutability": "view",
      "type": "function",
      "constant": true
    },
    {
      "inputs": [],
      "name": "CLAWBACK_ROLE",
      "outputs": [
        {
          "internalType": "bytes32",
          "name": "",
          "type": "bytes32"
        }
      ],
      "stateMutability": "view",
      "type": "function",
      "constant": true
    },
    {
      "inputs": [],
      "name": "DEFAULT_ADMIN_ROLE",
      "outputs": [
        {
          "internalType": "bytes32",
          "name": "",
          "type": "bytes32"
        }
      ],
      "stateMutability": "view",
      "type": "function",
      "constant": true
    },
    {
      "inputs": [],
      "name": "MINTER_ROLE",
      "outputs": [
        {
          "internalType": "bytes32",
          "name": "",
          "type": "bytes32"
        }
      ],
      "stateMutability": "view",
      "type": "function",
      "constant": true
    },
    {
      "inputs": [],
      "name": "PAUSER_ROLE",
      "outputs": [
        {
          "internalType": "bytes32",
          "name": "",
          "type": "bytes32"
        }
      ],
      "stateMutability": "view",
      "type": "function",
      "constant": true
    },
    {
      "inputs": [],
      "name": "POST_MINTER_ROLE",
      "outputs": [
        {
          "internalType": "bytes32",
          "name": "",
          "type": "bytes32"
        }
      ],
      "stateMutability": "view",
      "type": "function",
      "constant": true
    },
    {
      "inputs": [],
      "name": "UPGRADER_ROLE",
      "outputs": [
        {
          "internalType": "bytes32",
          "name": "",
          "type": "bytes32"
        }
      ],
      "stateMutability": "view",
      "type": "function",
      "constant": true
    },
    {
      "inputs": [],
      "name": "URI_SETTER_ROLE",
      "outputs": [
        {
          "internalType": "bytes32",
          "name": "",
          "type": "bytes32"
        }
      ],
      "stateMutability": "view",
      "type": "function",
      "constant": true
    },
    {
      "inputs": [],
      "name": "VERIFIER_ROLE",
      "outputs": [
        {
          "internalType": "bytes32",
          "name": "",
          "type": "bytes32"
        }
      ],
      "stateMutability": "view",
      "type": "function",
      "constant": true
    },
    {
      "inputs": [
        {
          "internalType": "address",
          "name": "_contractRegistry",
          "type": "address"
        },
        {
          "internalType": "uint8",
          "name": "_maxAntePerc",
          "type": "uint8"
        },
        {
          "internalType": "uint256",
          "name": "_projectId",
          "type": "uint256"
        },
        {
          "internalType": "string",
          "name": "_projectName",
          "type": "string"
        }
      ],
      "name": "__ProjectStorage_init",
      "outputs": [],
      "stateMutability": "nonpayable",
      "type": "function"
    },
    {
      "inputs": [
        {
          "internalType": "address",
          "name": "account",
          "type": "address"
        },
        {
          "internalType": "uint256",
          "name": "id",
          "type": "uint256"
        }
      ],
      "name": "balanceOf",
      "outputs": [
        {
          "internalType": "uint256",
          "name": "",
          "type": "uint256"
        }
      ],
      "stateMutability": "view",
      "type": "function",
      "constant": true
    },
    {
      "inputs": [
        {
          "internalType": "address[]",
          "name": "accounts",
          "type": "address[]"
        },
        {
          "internalType": "uint256[]",
          "name": "ids",
          "type": "uint256[]"
        }
      ],
      "name": "balanceOfBatch",
      "outputs": [
        {
          "internalType": "uint256[]",
          "name": "",
          "type": "uint256[]"
        }
      ],
      "stateMutability": "view",
      "type": "function",
      "constant": true
    },
    {
      "inputs": [],
      "name": "contractRegistry",
      "outputs": [
        {
          "internalType": "address",
          "name": "",
          "type": "address"
        }
      ],
      "stateMutability": "view",
      "type": "function",
      "constant": true
    },
    {
      "inputs": [
        {
          "internalType": "uint256",
          "name": "",
          "type": "uint256"
        }
      ],
      "name": "exAnteToExPostTokenId",
      "outputs": [
        {
          "internalType": "uint256",
          "name": "",
          "type": "uint256"
        }
      ],
      "stateMutability": "view",
      "type": "function",
      "constant": true
    },
    {
      "inputs": [
        {
          "internalType": "uint256",
          "name": "",
          "type": "uint256"
        }
      ],
      "name": "exPostToExAnteTokenId",
      "outputs": [
        {
          "internalType": "uint256",
          "name": "",
          "type": "uint256"
        }
      ],
      "stateMutability": "view",
      "type": "function",
      "constant": true
    },
    {
      "inputs": [
        {
          "internalType": "uint256",
          "name": "",
          "type": "uint256"
        }
      ],
      "name": "exPostVintageMapping",
      "outputs": [
        {
          "internalType": "string",
          "name": "serialization",
          "type": "string"
        },
        {
          "internalType": "uint256",
          "name": "estMitigations",
          "type": "uint256"
        },
        {
          "internalType": "uint256",
          "name": "verificationPeriodStart",
          "type": "uint256"
        },
        {
          "internalType": "uint256",
          "name": "verificationPeriodEnd",
          "type": "uint256"
        },
        {
          "internalType": "uint256",
          "name": "lastVerificationTimestamp",
          "type": "uint256"
        }
      ],
      "stateMutability": "view",
      "type": "function",
      "constant": true
    },
    {
      "inputs": [
        {
          "internalType": "uint256",
          "name": "id",
          "type": "uint256"
        }
      ],
      "name": "exists",
      "outputs": [
        {
          "internalType": "bool",
          "name": "",
          "type": "bool"
        }
      ],
      "stateMutability": "view",
      "type": "function",
      "constant": true
    },
    {
      "inputs": [
        {
          "internalType": "bytes32",
          "name": "role",
          "type": "bytes32"
        }
      ],
      "name": "getRoleAdmin",
      "outputs": [
        {
          "internalType": "bytes32",
          "name": "",
          "type": "bytes32"
        }
      ],
      "stateMutability": "view",
      "type": "function",
      "constant": true
    },
    {
      "inputs": [
        {
          "internalType": "bytes32",
          "name": "role",
          "type": "bytes32"
        },
        {
          "internalType": "address",
          "name": "account",
          "type": "address"
        }
      ],
      "name": "grantRole",
      "outputs": [],
      "stateMutability": "nonpayable",
      "type": "function"
    },
    {
      "inputs": [
        {
          "internalType": "bytes32",
          "name": "role",
          "type": "bytes32"
        },
        {
          "internalType": "address",
          "name": "account",
          "type": "address"
        }
      ],
      "name": "hasRole",
      "outputs": [
        {
          "internalType": "bool",
          "name": "",
          "type": "bool"
        }
      ],
      "stateMutability": "view",
      "type": "function",
      "constant": true
    },
    {
      "inputs": [
        {
          "internalType": "address",
          "name": "account",
          "type": "address"
        },
        {
          "internalType": "address",
          "name": "operator",
          "type": "address"
        }
      ],
      "name": "isApprovedForAll",
      "outputs": [
        {
          "internalType": "bool",
          "name": "",
          "type": "bool"
        }
      ],
      "stateMutability": "view",
      "type": "function",
      "constant": true
    },
    {
      "inputs": [],
      "name": "maxAntePercentage",
      "outputs": [
        {
          "internalType": "uint8",
          "name": "",
          "type": "uint8"
        }
      ],
      "stateMutability": "view",
      "type": "function",
      "constant": true
    },
    {
      "inputs": [
        {
          "internalType": "address",
          "name": "",
          "type": "address"
        },
        {
          "internalType": "address",
          "name": "",
          "type": "address"
        },
        {
          "internalType": "uint256[]",
          "name": "",
          "type": "uint256[]"
        },
        {
          "internalType": "uint256[]",
          "name": "",
          "type": "uint256[]"
        },
        {
          "internalType": "bytes",
          "name": "",
          "type": "bytes"
        }
      ],
      "name": "onERC1155BatchReceived",
      "outputs": [
        {
          "internalType": "bytes4",
          "name": "",
          "type": "bytes4"
        }
      ],
      "stateMutability": "nonpayable",
      "type": "function"
    },
    {
      "inputs": [
        {
          "internalType": "address",
          "name": "",
          "type": "address"
        },
        {
          "internalType": "address",
          "name": "",
          "type": "address"
        },
        {
          "internalType": "uint256",
          "name": "",
          "type": "uint256"
        },
        {
          "internalType": "uint256",
          "name": "",
          "type": "uint256"
        },
        {
          "internalType": "bytes",
          "name": "",
          "type": "bytes"
        }
      ],
      "name": "onERC1155Received",
      "outputs": [
        {
          "internalType": "bytes4",
          "name": "",
          "type": "bytes4"
        }
      ],
      "stateMutability": "nonpayable",
      "type": "function"
    },
    {
      "inputs": [],
      "name": "paused",
      "outputs": [
        {
          "internalType": "bool",
          "name": "",
          "type": "bool"
        }
      ],
      "stateMutability": "view",
      "type": "function",
      "constant": true
    },
    {
      "inputs": [],
      "name": "projectId",
      "outputs": [
        {
          "internalType": "uint256",
          "name": "",
          "type": "uint256"
        }
      ],
      "stateMutability": "view",
      "type": "function",
      "constant": true
    },
    {
      "inputs": [],
      "name": "projectName",
      "outputs": [
        {
          "internalType": "string",
          "name": "",
          "type": "string"
        }
      ],
      "stateMutability": "view",
      "type": "function",
      "constant": true
    },
    {
      "inputs": [],
      "name": "proxiableUUID",
      "outputs": [
        {
          "internalType": "bytes32",
          "name": "",
          "type": "bytes32"
        }
      ],
      "stateMutability": "view",
      "type": "function",
      "constant": true
    },
    {
      "inputs": [
        {
          "internalType": "bytes32",
          "name": "role",
          "type": "bytes32"
        },
        {
          "internalType": "address",
          "name": "account",
          "type": "address"
        }
      ],
      "name": "renounceRole",
      "outputs": [],
      "stateMutability": "nonpayable",
      "type": "function"
    },
    {
      "inputs": [
        {
          "internalType": "uint256",
          "name": "",
          "type": "uint256"
        }
      ],
      "name": "retirementMapping",
      "outputs": [
        {
          "internalType": "address",
          "name": "retireeAddress",
          "type": "address"
        },
        {
          "internalType": "uint256",
          "name": "amount",
          "type": "uint256"
        },
        {
          "internalType": "uint256",
          "name": "vintageTokenId",
          "type": "uint256"
        },
        {
          "internalType": "string",
          "name": "retiree",
          "type": "string"
        },
        {
          "internalType": "string",
          "name": "customUri",
          "type": "string"
        },
        {
          "internalType": "string",
          "name": "comment",
          "type": "string"
        }
      ],
      "stateMutability": "view",
      "type": "function",
      "constant": true
    },
    {
      "inputs": [
        {
          "internalType": "bytes32",
          "name": "role",
          "type": "bytes32"
        },
        {
          "internalType": "address",
          "name": "account",
          "type": "address"
        }
      ],
      "name": "revokeRole",
      "outputs": [],
      "stateMutability": "nonpayable",
      "type": "function"
    },
    {
      "inputs": [
        {
          "internalType": "address",
          "name": "from",
          "type": "address"
        },
        {
          "internalType": "address",
          "name": "to",
          "type": "address"
        },
        {
          "internalType": "uint256[]",
          "name": "ids",
          "type": "uint256[]"
        },
        {
          "internalType": "uint256[]",
          "name": "amounts",
          "type": "uint256[]"
        },
        {
          "internalType": "bytes",
          "name": "data",
          "type": "bytes"
        }
      ],
      "name": "safeBatchTransferFrom",
      "outputs": [],
      "stateMutability": "nonpayable",
      "type": "function"
    },
    {
      "inputs": [
        {
          "internalType": "address",
          "name": "from",
          "type": "address"
        },
        {
          "internalType": "address",
          "name": "to",
          "type": "address"
        },
        {
          "internalType": "uint256",
          "name": "id",
          "type": "uint256"
        },
        {
          "internalType": "uint256",
          "name": "amount",
          "type": "uint256"
        },
        {
          "internalType": "bytes",
          "name": "data",
          "type": "bytes"
        }
      ],
      "name": "safeTransferFrom",
      "outputs": [],
      "stateMutability": "nonpayable",
      "type": "function"
    },
    {
      "inputs": [
        {
          "internalType": "string",
          "name": "",
          "type": "string"
        }
      ],
      "name": "serializationToExPostTokenIdMapping",
      "outputs": [
        {
          "internalType": "uint256",
          "name": "",
          "type": "uint256"
        }
      ],
      "stateMutability": "view",
      "type": "function",
      "constant": true
    },
    {
      "inputs": [
        {
          "internalType": "address",
          "name": "operator",
          "type": "address"
        },
        {
          "internalType": "bool",
          "name": "approved",
          "type": "bool"
        }
      ],
      "name": "setApprovalForAll",
      "outputs": [],
      "stateMutability": "nonpayable",
      "type": "function"
    },
    {
      "inputs": [
        {
          "internalType": "address",
          "name": "",
          "type": "address"
        }
      ],
      "name": "signatureNonces",
      "outputs": [
        {
          "internalType": "uint32",
          "name": "",
          "type": "uint32"
        }
      ],
      "stateMutability": "view",
      "type": "function",
      "constant": true
    },
    {
      "inputs": [],
      "name": "topTokenId",
      "outputs": [
        {
          "internalType": "uint256",
          "name": "",
          "type": "uint256"
        }
      ],
      "stateMutability": "view",
      "type": "function",
      "constant": true
    },
    {
      "inputs": [
        {
          "internalType": "uint256",
          "name": "id",
          "type": "uint256"
        }
      ],
      "name": "totalSupply",
      "outputs": [
        {
          "internalType": "uint256",
          "name": "",
          "type": "uint256"
        }
      ],
      "stateMutability": "view",
      "type": "function",
      "constant": true
    },
    {
      "inputs": [
        {
          "internalType": "address",
          "name": "newImplementation",
          "type": "address"
        }
      ],
      "name": "upgradeTo",
      "outputs": [],
      "stateMutability": "nonpayable",
      "type": "function"
    },
    {
      "inputs": [
        {
          "internalType": "address",
          "name": "newImplementation",
          "type": "address"
        },
        {
          "internalType": "bytes",
          "name": "data",
          "type": "bytes"
        }
      ],
      "name": "upgradeToAndCall",
      "outputs": [],
      "stateMutability": "payable",
      "type": "function",
      "payable": true
    },
    {
      "inputs": [
        {
          "internalType": "uint256",
          "name": "",
          "type": "uint256"
        }
      ],
      "name": "uri",
      "outputs": [
        {
          "internalType": "string",
          "name": "",
          "type": "string"
        }
      ],
      "stateMutability": "view",
      "type": "function",
      "constant": true
    },
    {
      "inputs": [
        {
          "internalType": "address",
          "name": "_contractRegistry",
          "type": "address"
        },
        {
          "internalType": "address",
          "name": "_owner",
          "type": "address"
        },
        {
          "internalType": "uint256",
          "name": "_projectId",
          "type": "uint256"
        },
        {
          "internalType": "string",
          "name": "_projectName",
          "type": "string"
        }
      ],
      "name": "initialize",
      "outputs": [],
      "stateMutability": "nonpayable",
      "type": "function"
    },
    {
      "inputs": [
        {
          "internalType": "uint256",
          "name": "tokenId",
          "type": "uint256"
        }
      ],
      "name": "isExPostToken",
      "outputs": [
        {
          "internalType": "bool",
          "name": "",
          "type": "bool"
        }
      ],
      "stateMutability": "view",
      "type": "function",
      "constant": true
    },
    {
      "inputs": [
        {
          "internalType": "uint256",
          "name": "estAmount",
          "type": "uint256"
        },
        {
          "internalType": "uint256",
          "name": "verificationPeriodStart",
          "type": "uint256"
        },
        {
          "internalType": "uint256",
          "name": "verificationPeriodEnd",
          "type": "uint256"
        },
        {
          "internalType": "string",
          "name": "serialization",
          "type": "string"
        }
      ],
      "name": "createExPostVintage",
      "outputs": [],
      "stateMutability": "nonpayable",
      "type": "function"
    },
    {
      "inputs": [
        {
          "components": [
            {
              "internalType": "string",
              "name": "serialization",
              "type": "string"
            },
            {
              "internalType": "uint256",
              "name": "estMitigations",
              "type": "uint256"
            },
            {
              "internalType": "uint256",
              "name": "verificationPeriodStart",
              "type": "uint256"
            },
            {
              "internalType": "uint256",
              "name": "verificationPeriodEnd",
              "type": "uint256"
            },
            {
              "internalType": "uint256",
              "name": "lastVerificationTimestamp",
              "type": "uint256"
            }
          ],
          "internalType": "struct VintageData[]",
          "name": "vintages",
          "type": "tuple[]"
        }
      ],
      "name": "createExPostVintageBatch",
      "outputs": [],
      "stateMutability": "nonpayable",
      "type": "function"
    },
    {
      "inputs": [
        {
          "internalType": "address",
          "name": "account",
          "type": "address"
        },
        {
          "internalType": "uint256",
          "name": "exPostTokenId",
          "type": "uint256"
        },
        {
          "internalType": "uint256",
          "name": "amount",
          "type": "uint256"
        },
        {
          "internalType": "bytes",
          "name": "data",
          "type": "bytes"
        }
      ],
      "name": "mintExAnte",
      "outputs": [],
      "stateMutability": "nonpayable",
      "type": "function"
    },
    {
      "inputs": [
        {
          "internalType": "uint256",
          "name": "tokenId",
          "type": "uint256"
        },
        {
          "internalType": "uint256",
          "name": "newEstAmount",
          "type": "uint256"
        },
        {
          "internalType": "enum AdminActionReason",
          "name": "reason",
          "type": "uint8"
        }
      ],
      "name": "changeVintageMitigationEstimate",
      "outputs": [],
      "stateMutability": "nonpayable",
      "type": "function"
    },
    {
      "inputs": [
        {
          "internalType": "address",
          "name": "verificationVault",
          "type": "address"
        },
        {
          "internalType": "uint256",
          "name": "tokenId",
          "type": "uint256"
        },
        {
          "internalType": "uint256",
          "name": "amountVerified",
          "type": "uint256"
        },
        {
          "internalType": "uint256",
          "name": "amountToAnteHolders",
          "type": "uint256"
        },
        {
          "internalType": "uint256",
          "name": "verificationPeriodStart",
          "type": "uint256"
        },
        {
          "internalType": "uint256",
          "name": "verificationPeriodEnd",
          "type": "uint256"
        },
        {
          "internalType": "string",
          "name": "monitoringReport",
          "type": "string"
        }
      ],
      "name": "verifyAndMintExPost",
      "outputs": [],
      "stateMutability": "nonpayable",
      "type": "function"
    },
    {
      "inputs": [
        {
          "internalType": "address",
          "name": "from",
          "type": "address"
        },
        {
          "internalType": "uint256",
          "name": "tokenId",
          "type": "uint256"
        },
        {
          "internalType": "uint256",
          "name": "amount",
          "type": "uint256"
        },
        {
          "internalType": "enum AdminActionReason",
          "name": "reason",
          "type": "uint8"
        }
      ],
      "name": "adminBurn",
      "outputs": [],
      "stateMutability": "nonpayable",
      "type": "function"
    },
    {
      "inputs": [
        {
          "internalType": "address",
          "name": "from",
          "type": "address"
        },
        {
          "internalType": "address",
          "name": "to",
          "type": "address"
        },
        {
          "internalType": "uint256",
          "name": "tokenId",
          "type": "uint256"
        },
        {
          "internalType": "uint256",
          "name": "amount",
          "type": "uint256"
        },
        {
          "internalType": "enum AdminActionReason",
          "name": "reason",
          "type": "uint8"
        }
      ],
      "name": "adminClawback",
      "outputs": [],
      "stateMutability": "nonpayable",
      "type": "function"
    },
    {
      "inputs": [
        {
          "internalType": "address[]",
          "name": "accounts",
          "type": "address[]"
        },
        {
          "internalType": "uint256",
          "name": "exPostTokenId",
          "type": "uint256"
        },
        {
          "internalType": "bytes",
          "name": "data",
          "type": "bytes"
        }
      ],
      "name": "exchangeAnteForPostEvenSteven",
      "outputs": [],
      "stateMutability": "nonpayable",
      "type": "function"
    },
    {
      "inputs": [
        {
          "internalType": "uint256",
          "name": "exAnteTokenId",
          "type": "uint256"
        }
      ],
      "name": "getExPostVintageData",
      "outputs": [
        {
          "components": [
            {
              "internalType": "string",
              "name": "serialization",
              "type": "string"
            },
            {
              "internalType": "uint256",
              "name": "estMitigations",
              "type": "uint256"
            },
            {
              "internalType": "uint256",
              "name": "verificationPeriodStart",
              "type": "uint256"
            },
            {
              "internalType": "uint256",
              "name": "verificationPeriodEnd",
              "type": "uint256"
            },
            {
              "internalType": "uint256",
              "name": "lastVerificationTimestamp",
              "type": "uint256"
            }
          ],
          "internalType": "struct VintageData",
          "name": "",
          "type": "tuple"
        }
      ],
      "stateMutability": "view",
      "type": "function",
      "constant": true
    },
    {
      "inputs": [
        {
          "internalType": "bytes",
          "name": "signature",
          "type": "bytes"
        },
        {
          "components": [
            {
              "internalType": "uint256",
              "name": "deadline",
              "type": "uint256"
            },
            {
              "internalType": "string",
              "name": "description",
              "type": "string"
            },
            {
              "internalType": "address",
              "name": "signer",
              "type": "address"
            },
            {
              "internalType": "address",
              "name": "to",
              "type": "address"
            },
            {
              "internalType": "uint256",
              "name": "tokenId",
              "type": "uint256"
            },
            {
              "internalType": "uint256",
              "name": "amount",
              "type": "uint256"
            },
            {
              "internalType": "uint256",
              "name": "nonce",
              "type": "uint256"
            }
          ],
          "internalType": "struct signatureTransferPayload",
          "name": "payload",
          "type": "tuple"
        },
        {
          "internalType": "bytes",
          "name": "data",
          "type": "bytes"
        }
      ],
      "name": "transferFromSignature",
      "outputs": [],
      "stateMutability": "payable",
      "type": "function",
      "payable": true
    },
    {
      "inputs": [
        {
          "internalType": "uint256",
          "name": "tokenId",
          "type": "uint256"
        },
        {
          "internalType": "uint256",
          "name": "amount",
          "type": "uint256"
        },
        {
          "internalType": "bytes",
          "name": "data",
          "type": "bytes"
        }
      ],
      "name": "retire",
      "outputs": [
        {
          "internalType": "uint256",
          "name": "nftTokenId",
          "type": "uint256"
        }
      ],
      "stateMutability": "nonpayable",
      "type": "function"
    },
    {
      "inputs": [
        {
          "internalType": "bytes",
          "name": "signature",
          "type": "bytes"
        },
        {
          "components": [
            {
              "internalType": "uint256",
              "name": "deadline",
              "type": "uint256"
            },
            {
              "internalType": "string",
              "name": "description",
              "type": "string"
            },
            {
              "internalType": "address",
              "name": "signer",
              "type": "address"
            },
            {
              "internalType": "address",
              "name": "to",
              "type": "address"
            },
            {
              "internalType": "uint256",
              "name": "tokenId",
              "type": "uint256"
            },
            {
              "internalType": "uint256",
              "name": "amount",
              "type": "uint256"
            },
            {
              "internalType": "uint256",
              "name": "nonce",
              "type": "uint256"
            }
          ],
          "internalType": "struct signatureTransferPayload",
          "name": "payload",
          "type": "tuple"
        },
        {
          "internalType": "bytes",
          "name": "data",
          "type": "bytes"
        }
      ],
      "name": "retireFromSignature",
      "outputs": [
        {
          "internalType": "uint256",
          "name": "nftTokenId",
          "type": "uint256"
        }
      ],
      "stateMutability": "payable",
      "type": "function",
      "payable": true
    },
    {
      "inputs": [
        {
          "internalType": "string",
          "name": "newuri",
          "type": "string"
        }
      ],
      "name": "setURI",
      "outputs": [],
      "stateMutability": "nonpayable",
      "type": "function"
    },
    {
      "inputs": [],
      "name": "pause",
      "outputs": [],
      "stateMutability": "nonpayable",
      "type": "function"
    },
    {
      "inputs": [],
      "name": "unpause",
      "outputs": [],
      "stateMutability": "nonpayable",
      "type": "function"
    },
    {
      "inputs": [
        {
          "internalType": "bytes4",
          "name": "interfaceId",
          "type": "bytes4"
        }
      ],
      "name": "supportsInterface",
      "outputs": [
        {
          "internalType": "bool",
          "name": "",
          "type": "bool"
        }
      ],
      "stateMutability": "view",
      "type": "function",
      "constant": true
    }
  ],
  "bytecode": "0x60a0604052306080523480156200001557600080fd5b506200002062000026565b620000e8565b600054610100900460ff1615620000935760405162461bcd60e51b815260206004820152602760248201527f496e697469616c697a61626c653a20636f6e747261637420697320696e697469604482015266616c697a696e6760c81b606482015260840160405180910390fd5b60005460ff9081161015620000e6576000805460ff191660ff9081179091556040519081527f7f26b83ff96e1f2b6a682f133852f6798a09c465da95921460cefb38474024989060200160405180910390a15b565b608051615c8962000120600039600081816114fb0152818161153b01528181611a9201528181611ad20152611b610152615c896000f3fe6080604052600436106103ac5760003560e01c80636f63984d116101e7578063abf410e51161010d578063e63ab1e9116100a0578063f23a6e611161006f578063f23a6e6114610c76578063f242432a14610ca2578063f515e6f214610cc2578063f72c0d8b14610cf657600080fd5b8063e63ab1e914610ba3578063e7705db614610bc5578063e985e9c514610bf9578063edc0b2e614610c4257600080fd5b8063d547741f116100dc578063d547741f14610b07578063dbd8483d14610b27578063deb0420714610b70578063e36408d014610b9057600080fd5b8063abf410e514610a28578063bc197c8114610a61578063bd85b03914610aa6578063d539139314610ad357600080fd5b806396f495ae11610185578063a0e1b17111610154578063a0e1b1711461099f578063a217fddf146109bf578063a22cb465146109d4578063aa8b2ea7146109f457600080fd5b806396f495ae1461092a5780639a33e3001461094a5780639d88358a1461095f5780639fec600b1461097f57600080fd5b80637f345710116101c15780637f345710146108935780638456cb59146108c75780638f76c1da146108dc57806391d148541461090a57600080fd5b80636f63984d14610822578063728e68e31461084257806379c276051461087357600080fd5b80633f4ba83a116102d757806353262b111161026a5780635e3bbaab116102395780635e3bbaab1461078a578063610e7012146107ac57806361eeb089146107d95780636929a19c146107f057600080fd5b806353262b111461070657806354ff07951461071957806357c537af146107525780635c975abb1461077257600080fd5b80634e1273f4116102a65780634e1273f4146106825780634f1ef286146106af5780634f558e79146106c257806352d1902d146106f157600080fd5b80633f4ba83a146106165780633fafa1271461062b57806341a30d3c14610642578063453b97141461066257600080fd5b8063248a9ca31161034f5780632f2ff15d1161031e5780632f2ff15d146105885780633584c384146105a857806336568abe146105d65780633659cfe6146105f657600080fd5b8063248a9ca3146104d0578063282c51f3146105005780632ea05e44146105345780632eb2c2d61461056857600080fd5b80630cda95f91161038b5780630cda95f9146104365780630e89341c1461045657806310c1e7a1146104835780631b3b596b146104a357600080fd5b8062fdd58e146103b157806301ffc9a7146103e457806302fe530514610414575b600080fd5b3480156103bd57600080fd5b506103d16103cc366004614868565b610d2a565b6040519081526020015b60405180910390f35b3480156103f057600080fd5b506104046103ff3660046148a8565b610dc2565b60405190151581526020016103db565b34801561042057600080fd5b5061043461042f36600461499f565b610dd3565b005b34801561044257600080fd5b50610434610451366004614a6e565b610e0a565b34801561046257600080fd5b50610476610471366004614ada565b611024565b6040516103db9190614b4b565b34801561048f57600080fd5b5061043461049e366004614b5e565b6110b8565b3480156104af57600080fd5b506104c36104be366004614ada565b6112e2565b6040516103db9190614bbe565b3480156104dc57600080fd5b506103d16104eb366004614ada565b60009081526097602052604090206001015490565b34801561050c57600080fd5b506103d17f3c11d16cbaffd01df69ce1c404f6340ee057498f5f00246190ea54220576a84881565b34801561054057600080fd5b506103d17f4bbc247fc4736523c8bdd1853fee2acfa817d663f8f4422b13e78ebf99e204a281565b34801561057457600080fd5b50610434610583366004614c74565b611401565b34801561059457600080fd5b506104346105a3366004614d1d565b61144d565b3480156105b457600080fd5b506103d16105c3366004614ada565b6101fe6020526000908152604090205481565b3480156105e257600080fd5b506104346105f1366004614d1d565b611477565b34801561060257600080fd5b50610434610611366004614d49565b6114f1565b34801561062257600080fd5b506104346115d0565b34801561063757600080fd5b506103d16101f85481565b34801561064e57600080fd5b5061043461065d366004614d64565b6115f0565b34801561066e57600080fd5b506103d161067d366004614de1565b611922565b34801561068e57600080fd5b506106a261069d366004614e26565b61195f565b6040516103db9190614ec4565b6104346106bd366004614ed7565b611a88565b3480156106ce57600080fd5b506104046106dd366004614ada565b600090815260fb6020526040902054151590565b3480156106fd57600080fd5b506103d1611b54565b6103d1610714366004614f32565b611c08565b34801561072557600080fd5b506103d161073436600461499f565b80516020818301810180516101ff8252928201919093012091525481565b34801561075e57600080fd5b5061043461076d366004614fed565b611e7d565b34801561077e57600080fd5b5060c95460ff16610404565b34801561079657600080fd5b506103d1600080516020615c3483398151915281565b3480156107b857600080fd5b506101f9546107c79060ff1681565b60405160ff90911681526020016103db565b3480156107e557600080fd5b506103d16101f75481565b3480156107fc57600080fd5b5061081061080b366004614ada565b611f97565b6040516103db96959493929190615022565b34801561082e57600080fd5b5061040461083d366004614ada565b612171565b34801561084e57600080fd5b5061086261085d366004614ada565b612198565b6040516103db959493929190615082565b34801561087f57600080fd5b5061043461088e3660046150b9565b61224f565b34801561089f57600080fd5b506103d17f7804d923f43a17d325d77e781528e0793b2edd9890ab45fc64efd7b4b427744c81565b3480156108d357600080fd5b50610434612305565b3480156108e857600080fd5b506103d16108f7366004614ada565b6101fd6020526000908152604090205481565b34801561091657600080fd5b50610404610925366004614d1d565b612325565b34801561093657600080fd5b506104346109453660046151d5565b612350565b34801561095657600080fd5b5061047661245d565b34801561096b57600080fd5b5061043461097a36600461522c565b6124ec565b34801561098b57600080fd5b5061043461099a366004615272565b612577565b3480156109ab57600080fd5b506104346109ba36600461529f565b612814565b3480156109cb57600080fd5b506103d1600081565b3480156109e057600080fd5b506104346109ef3660046152e0565b6129db565b348015610a0057600080fd5b506103d17ff48dee1a72497b9e734e498e1b3086c0d2dbcca13f16f15848f974469f906bbf81565b348015610a3457600080fd5b506101fb54610a49906001600160a01b031681565b6040516001600160a01b0390911681526020016103db565b348015610a6d57600080fd5b50610a8d610a7c366004614c74565b63bc197c8160e01b95945050505050565b6040516001600160e01b031990911681526020016103db565b348015610ab257600080fd5b506103d1610ac1366004614ada565b600090815260fb602052604090205490565b348015610adf57600080fd5b506103d17f9f2df0fed2c77648de5860a4cc508cd0818c85b8b8a1ab4ceeef8d981c8956a681565b348015610b1357600080fd5b50610434610b22366004614d1d565b6129e6565b348015610b3357600080fd5b50610b5b610b42366004614d49565b6101c56020526000908152604090205463ffffffff1681565b60405163ffffffff90911681526020016103db565b348015610b7c57600080fd5b50610434610b8b36600461531c565b612a0b565b610434610b9e366004614f32565b612ab4565b348015610baf57600080fd5b506103d1600080516020615bed83398151915281565b348015610bd157600080fd5b506103d17f0ce23c3e399818cfee81a7ab0880f714e53d7672b08df0fa62f2843416e1ea0981565b348015610c0557600080fd5b50610404610c14366004615373565b6001600160a01b03918216600090815260666020908152604080832093909416825291909152205460ff1690565b348015610c4e57600080fd5b506103d17fd5bbb2f0fbfc1d5938ca13cabd3156d362f7862fa87504c8d589f5e8f2cbc45381565b348015610c8257600080fd5b50610a8d610c9136600461539d565b63f23a6e6160e01b95945050505050565b348015610cae57600080fd5b50610434610cbd36600461539d565b612c0c565b348015610cce57600080fd5b506103d17f98db8a220cd0f09badce9f22d0ba7e93edb3d404448cc3560d391ab096ad16e981565b348015610d0257600080fd5b506103d17f189ab7a9244df0848122154315af71fe140f3db0fe014031783b0946b8c9d2e381565b60006001600160a01b038316610d9a5760405162461bcd60e51b815260206004820152602a60248201527f455243313135353a2061646472657373207a65726f206973206e6f742061207660448201526930b634b21037bbb732b960b11b60648201526084015b60405180910390fd5b5060009081526065602090815260408083206001600160a01b03949094168352929052205490565b6000610dcd82612c51565b92915050565b7f7804d923f43a17d325d77e781528e0793b2edd9890ab45fc64efd7b4b427744c610dfd81612c76565b610e0682612c80565b5050565b81610e1481612171565b610e305760405162461bcd60e51b8152600401610d9190615401565b60008381526101fe602052604081205490819003610e905760405162461bcd60e51b815260206004820152601860248201527f50726f6a6563743a204e6f20616e746520686f6c6465727300000000000000006044820152606401610d91565b600081815260fb602052604081205490610eaa3087610d2a565b905060008111610efc5760405162461bcd60e51b815260206004820152601760248201527f50726f6a6563743a204e6f20706f737420737570706c790000000000000000006044820152606401610d91565b60005b875181101561101a576000610f2d898381518110610f1f57610f1f615438565b602002602001015186610d2a565b9050600084610f3c8584615464565b610f469190615483565b90508181811115610f545750805b898b8581518110610f6757610f67615438565b60200260200101516001600160a01b03167ffa5cd0fcb25938b2f45b3ca175241bfb3739cf4db3cb7476846930ec714f13f28484604051610fb2929190918252602082015260400190565b60405180910390a3610fde8b8581518110610fcf57610fcf615438565b60200260200101518883612c93565b611004308c8681518110610ff457610ff4615438565b60200260200101518c858d612e2c565b5050508080611012906154a5565b915050610eff565b5050505050505050565b606060678054611033906154be565b80601f016020809104026020016040519081016040528092919081815260200182805461105f906154be565b80156110ac5780601f10611081576101008083540402835291602001916110ac565b820191906000526020600020905b81548152906001019060200180831161108f57829003601f168201915b50505050509050919050565b7fd5bbb2f0fbfc1d5938ca13cabd3156d362f7862fa87504c8d589f5e8f2cbc4536110e281612c76565b836110ec81612171565b6111085760405162461bcd60e51b8152600401610d9190615401565b60008581526101fc6020526040812060038101546004909101548791116040518060400160405280601a815260200179141c9bda9958dd0e88151bdad95b881a5cc81d995c9a599a595960321b815250906111765760405162461bcd60e51b8152600401610d919190614b4b565b5060008781526101fe6020526040812054908190036111af57506101f780546001019081905560008881526101fe602052604090208190555b60008881526101fc602090815260408083206001015460fb90925282205490916111d982846154f2565b6101f9549091506000906064906111f39060ff1684615464565b6111fd9190615483565b600086815260fb60205260409020549091508161121a8d83615509565b11156112685760405162461bcd60e51b815260206004820152601e60248201527f4d6178696d756d206578416e746520737570706c7920657863656564656400006044820152606401610d91565b8c6101fd6000888152602001908152602001600020819055508d6001600160a01b03168d877f1fe9ade752d24e4f4dca10f5c807a7cc8630c7604280c8b124097d93b5bb02a18f6040516112be91815260200190565b60405180910390a46112d28e878e8e612f68565b5050505050505050505050505050565b6113146040518060a0016040528060608152602001600081526020016000815260200160008152602001600081525090565b60008281526101fd60209081526040808320548084526101fc90925291829020825160a0810190935280549192918290829061134f906154be565b80601f016020809104026020016040519081016040528092919081815260200182805461137b906154be565b80156113c85780601f1061139d576101008083540402835291602001916113c8565b820191906000526020600020905b8154815290600101906020018083116113ab57829003601f168201915b50505050508152602001600182015481526020016002820154815260200160038201548152602001600482015481525050915050919050565b6001600160a01b03851633148061141d575061141d8533610c14565b6114395760405162461bcd60e51b8152600401610d9190615521565b6114468585858585613084565b5050505050565b60008281526097602052604090206001015461146881612c76565b611472838361326a565b505050565b6001600160a01b03811633146114e75760405162461bcd60e51b815260206004820152602f60248201527f416363657373436f6e74726f6c3a2063616e206f6e6c792072656e6f756e636560448201526e103937b632b9903337b91039b2b63360891b6064820152608401610d91565b610e0682826132f0565b6001600160a01b037f00000000000000000000000000000000000000000000000000000000000000001630036115395760405162461bcd60e51b8152600401610d919061556f565b7f00000000000000000000000000000000000000000000000000000000000000006001600160a01b0316611582600080516020615bcd833981519152546001600160a01b031690565b6001600160a01b0316146115a85760405162461bcd60e51b8152600401610d91906155bb565b6115b181613357565b604080516000808252602082019092526115cd91839190613381565b50565b600080516020615bed8339815191526115e881612c76565b6115cd6134ec565b7f0ce23c3e399818cfee81a7ab0880f714e53d7672b08df0fa62f2843416e1ea0961161a81612c76565b8661162481612171565b6116405760405162461bcd60e51b8152600401610d9190615401565b60008881526101fc6020526040812060038101546004909101548a91116040518060400160405280601a815260200179141c9bda9958dd0e88151bdad95b881a5cc81d995c9a599a595960321b815250906116ae5760405162461bcd60e51b8152600401610d919190614b4b565b50878910156116f95760405162461bcd60e51b8152602060048201526017602482015276141c9bda9958dd0e88125b9d985b1a5908185b5bdd5b9d604a1b6044820152606401610d91565b60008a81526101fc60205260409020600201548610156117815760405162461bcd60e51b815260206004820152603a60248201527f566572696669636174696f6e2074696d657374616d70206973206265666f726560448201527f20766572696669636174696f6e20706572696f642073746172740000000000006064820152608401610d91565b60008a81526101fc602052604090206004015486116118085760405162461bcd60e51b815260206004820152603c60248201527f566572696669636174696f6e2074696d657374616d70206973206265666f726560448201527f206c61737420766572696669636174696f6e2074696d657374616d70000000006064820152608401610d91565b60008a81526101fe6020526040812054908190036118685788156118685760405162461bcd60e51b8152602060048201526017602482015276141c9bda9958dd0e88125b9d985b1a5908185b5bdd5b9d604a1b6044820152606401610d91565b8a7fe19de0f3da1193000100a217838f49f6bdda20dc974d33b61f92faaf446d181d8b8b8b8b8b6040516118a0959493929190615607565b60405180910390a260006118b48a8c6154f2565b11156118de576118de8c8c6118c98c8e6154f2565b60405180602001604052806000815250612f68565b60008b81526101fc60205260409020600401879055881561191457611914308c8b60405180602001604052806000815250612f68565b505050505050505050505050565b60008361192e81612171565b61194a5760405162461bcd60e51b8152600401610d9190615401565b6119563386868661353e565b95945050505050565b606081518351146119c45760405162461bcd60e51b815260206004820152602960248201527f455243313135353a206163636f756e747320616e6420696473206c656e677468604482015268040dad2e6dac2e8c6d60bb1b6064820152608401610d91565b600083516001600160401b038111156119df576119df6148c5565b604051908082528060200260200182016040528015611a08578160200160208202803683370190505b50905060005b8451811015611a8057611a53858281518110611a2c57611a2c615438565b6020026020010151858381518110611a4657611a46615438565b6020026020010151610d2a565b828281518110611a6557611a65615438565b6020908102919091010152611a79816154a5565b9050611a0e565b509392505050565b6001600160a01b037f0000000000000000000000000000000000000000000000000000000000000000163003611ad05760405162461bcd60e51b8152600401610d919061556f565b7f00000000000000000000000000000000000000000000000000000000000000006001600160a01b0316611b19600080516020615bcd833981519152546001600160a01b031690565b6001600160a01b031614611b3f5760405162461bcd60e51b8152600401610d91906155bb565b611b4882613357565b610e0682826001613381565b6000306001600160a01b037f00000000000000000000000000000000000000000000000000000000000000001614611bf45760405162461bcd60e51b815260206004820152603860248201527f555550535570677261646561626c653a206d757374206e6f742062652063616c60448201527f6c6564207468726f7567682064656c656761746563616c6c00000000000000006064820152608401610d91565b50600080516020615bcd8339815191525b90565b60008260800135611c1881612171565b611c345760405162461bcd60e51b8152600401610d9190615401565b8585857fbdde33eca765abe07e416fa5225f9a5dbc393366c8bbf45df689e69ee318a934838383604051611c6a93929190615666565b60405180910390a16000611d937f79da588818fa1bb747c46ac45fd0af16861a77c5222cf5ac4538360ca4f77a2c8335611ca76020860186615740565b604051602001611cb8929190615786565b60405160208183030381529060405280519060200120856040016020810190611ce19190614d49565b611cf16080880160608901614d49565b608088013560a08901356101c56000611d1060608d0160408e01614d49565b6001600160a01b03908116825260208083019390935260409182016000205482519384019a909a529082019790975260608101959095529285166080850152931660a083015260c082019290925260e081019190915263ffffffff90911661010082015261012001604051602081830303815290604052805190602001206135a6565b9050611de78185858080601f016020809104026020016040519081016040528093929190818152602001838380828437600092019190915250611de0925050506060860160408701614d49565b85356135f4565b506101c56000611dfd6060850160408601614d49565b6001600160a01b0316815260208101919091526040016000908120805463ffffffff1691611e2a83615796565b91906101000a81548163ffffffff021916908363ffffffff16021790555050611e6f886040016020810190611e5f9190614d49565b89608001358a60a001358a61353e565b9a9950505050505050505050565b6000611e8881612c76565b83611e9281612171565b611eae5760405162461bcd60e51b8152600401610d9190615401565b60008581526101fc6020526040812060038101546004909101548791116040518060400160405280601a815260200179141c9bda9958dd0e88151bdad95b881a5cc81d995c9a599a595960321b81525090611f1c5760405162461bcd60e51b8152600401610d919190614b4b565b50846004811115611f2f57611f2f6157b9565b60008881526101fc60209081526040918290206001015482518a81529182015289917f79ad675a154518428a5aa59f22c834871a66d54a46e3f4c8c5b4ee08fb576c2e910160405180910390a3505050600093845250506101fc602052604090912060010155565b6102006020526000908152604090208054600182015460028301546003840180546001600160a01b03909416949293919291611fd2906154be565b80601f0160208091040260200160405190810160405280929190818152602001828054611ffe906154be565b801561204b5780601f106120205761010080835404028352916020019161204b565b820191906000526020600020905b81548152906001019060200180831161202e57829003601f168201915b505050505090806004018054612060906154be565b80601f016020809104026020016040519081016040528092919081815260200182805461208c906154be565b80156120d95780601f106120ae576101008083540402835291602001916120d9565b820191906000526020600020905b8154815290600101906020018083116120bc57829003601f168201915b5050505050908060050180546120ee906154be565b80601f016020809104026020016040519081016040528092919081815260200182805461211a906154be565b80156121675780601f1061213c57610100808354040283529160200191612167565b820191906000526020600020905b81548152906001019060200180831161214a57829003601f168201915b5050505050905086565b60008181526101fc60205260408120805482919061218e906154be565b9050119050919050565b6101fc602052600090815260409020805481906121b4906154be565b80601f01602080910402602001604051908101604052809291908181526020018280546121e0906154be565b801561222d5780601f106122025761010080835404028352916020019161222d565b820191906000526020600020905b81548152906001019060200180831161221057829003601f168201915b5050505050908060010154908060020154908060030154908060040154905085565b600080516020615c3483398151915261226781612c76565b60005b8251811015611472576122f383828151811061228857612288615438565b6020026020010151602001518483815181106122a6576122a6615438565b6020026020010151604001518584815181106122c4576122c4615438565b6020026020010151606001518685815181106122e2576122e2615438565b602002602001015160000151612814565b806122fd816154a5565b91505061226a565b600080516020615bed83398151915261231d81612c76565b6115cd6136f8565b60009182526097602090815260408084206001600160a01b0393909316845291905290205460ff1690565b600054610100900460ff16158080156123705750600054600160ff909116105b8061238a5750303b15801561238a575060005460ff166001145b6123a65760405162461bcd60e51b8152600401610d91906157cf565b6000805460ff1916600117905580156123c9576000805461ff0019166101001790555b6101f9805460ff191660ff86161790556101f883905581516123f3906101fa9060208501906147b3565b506101fb80546001600160a01b0319166001600160a01b0387161790558015611446576000805461ff0019169055604051600181527f7f26b83ff96e1f2b6a682f133852f6798a09c465da95921460cefb3847402498906020015b60405180910390a15050505050565b6101fa805461246b906154be565b80601f0160208091040260200160405190810160405280929190818152602001828054612497906154be565b80156124e45780601f106124b9576101008083540402835291602001916124e4565b820191906000526020600020905b8154815290600101906020018083116124c757829003601f168201915b505050505081565b7f3c11d16cbaffd01df69ce1c404f6340ee057498f5f00246190ea54220576a84861251681612c76565b816004811115612528576125286157b9565b84866001600160a01b03167f28307ba5beac24bbe02c6541395dc897a2c9a884977343cfc55d6bef99a178cf8660405161256491815260200190565b60405180910390a4611446858585612c93565b600054610100900460ff16158080156125975750600054600160ff909116105b806125b15750303b1580156125b1575060005460ff166001145b6125cd5760405162461bcd60e51b8152600401610d91906157cf565b6000805460ff1916600117905580156125f0576000805461ff0019166101001790555b61260860405180602001604052806000815250613735565b612610613765565b61261861378e565b612620613765565b612628613765565b6126766040518060400160405280600f81526020016e436172626f6e20526567697374727960881b81525060405180604001604052806005815260200164302e302e3160d81b8152506137bd565b6126838560328585612350565b61268e60008561326a565b6126b87f7804d923f43a17d325d77e781528e0793b2edd9890ab45fc64efd7b4b427744c8561326a565b6126d0600080516020615bed8339815191528561326a565b6126fa7fd5bbb2f0fbfc1d5938ca13cabd3156d362f7862fa87504c8d589f5e8f2cbc4538561326a565b612712600080516020615c348339815191528561326a565b61273c7f189ab7a9244df0848122154315af71fe140f3db0fe014031783b0946b8c9d2e38561326a565b6127667f98db8a220cd0f09badce9f22d0ba7e93edb3d404448cc3560d391ab096ad16e98561326a565b6127907f0ce23c3e399818cfee81a7ab0880f714e53d7672b08df0fa62f2843416e1ea098561326a565b6127ba7f4bbc247fc4736523c8bdd1853fee2acfa817d663f8f4422b13e78ebf99e204a28561326a565b6127d2600080516020615c348339815191523361326a565b8015611446576000805461ff0019169055604051600181527f7f26b83ff96e1f2b6a682f133852f6798a09c465da95921460cefb38474024989060200161244e565b600080516020615c3483398151915261282c81612c76565b8383116128875760405162461bcd60e51b8152602060048201526024808201527f50726f6a6563743a20496e76616c696420766572696669636174696f6e2070656044820152631c9a5bd960e21b6064820152608401610d91565b600061289b6101f780546001019081905590565b6101fb546040516344d9d59b60e01b81529192506001600160a01b0316906344d9d59b906128cd908690600401614b4b565b600060405180830381600087803b1580156128e757600080fd5b505af11580156128fb573d6000803e3d6000fd5b50505050806101ff84604051612911919061581d565b90815260408051602092819003830181209390935560a083018152858352818301899052828101889052606083018790526000608084018190528481526101fc835220825180519192612969928492909101906147b3565b5060208201518160010155604082015181600201556060820151816003015560808201518160040155905050807fc5fb6d85b5baef0a615415607787aea341771027b7e4da34da58eaeb661154ea878787876040516129cb9493929190615839565b60405180910390a2505050505050565b610e063383836137ee565b600082815260976020526040902060010154612a0181612c76565b61147283836132f0565b7f4bbc247fc4736523c8bdd1853fee2acfa817d663f8f4422b13e78ebf99e204a2612a3581612c76565b816004811115612a4757612a476157b9565b604080516001600160a01b038881168252602082018790528792908a16917fa8b90aeef4d9590cac2ff486fc2b5d9749ed41f9388a7eb159eef94cf5fb65ab910160405180910390a4612aac8686868660405180602001604052806000815250612e2c565b505050505050565b8383837fbdde33eca765abe07e416fa5225f9a5dbc393366c8bbf45df689e69ee318a934838383604051612aea93929190615666565b60405180910390a16000612b277f79da588818fa1bb747c46ac45fd0af16861a77c5222cf5ac4538360ca4f77a2c8335611ca76020860186615740565b9050612b748185858080601f016020809104026020016040519081016040528093929190818152602001838380828437600092019190915250611de0925050506060860160408701614d49565b506101c56000612b8a6060850160408601614d49565b6001600160a01b0316815260208101919091526040016000908120805463ffffffff1691612bb783615796565b91906101000a81548163ffffffff021916908363ffffffff1602179055505061101a866040016020810190612bec9190614d49565b612bfc6080890160608a01614d49565b88608001358960a0013589612e2c565b6001600160a01b038516331480612c285750612c288533610c14565b612c445760405162461bcd60e51b8152600401610d9190615521565b6114468585858585612e2c565b60006001600160e01b03198216630271189760e51b1480610dcd5750610dcd826138ce565b6115cd81336138f3565b8051610e069060679060208401906147b3565b6001600160a01b038316612cf55760405162461bcd60e51b815260206004820152602360248201527f455243313135353a206275726e2066726f6d20746865207a65726f206164647260448201526265737360e81b6064820152608401610d91565b336000612d018461394c565b90506000612d0e8461394c565b9050612d2e83876000858560405180602001604052806000815250613997565b60008581526065602090815260408083206001600160a01b038a16845290915290205484811015612dad5760405162461bcd60e51b8152602060048201526024808201527f455243313135353a206275726e20616d6f756e7420657863656564732062616c604482015263616e636560e01b6064820152608401610d91565b60008681526065602090815260408083206001600160a01b038b81168086529184528285208a8703905582518b81529384018a90529092908816917fc3d58168c5ae7397731d063d5bbf3d657854427343f4c083240f7aacaa2d0f62910160405180910390a46040805160208101909152600090525b50505050505050565b6001600160a01b038416612e525760405162461bcd60e51b8152600401610d9190615868565b336000612e5e8561394c565b90506000612e6b8561394c565b9050612e7b838989858589613997565b60008681526065602090815260408083206001600160a01b038c16845290915290205485811015612ebe5760405162461bcd60e51b8152600401610d91906158ad565b60008781526065602090815260408083206001600160a01b038d8116855292528083208985039055908a16825281208054889290612efd908490615509565b909155505060408051888152602081018890526001600160a01b03808b16928c821692918816917fc3d58168c5ae7397731d063d5bbf3d657854427343f4c083240f7aacaa2d0f62910160405180910390a4612f5d848a8a8a8a8a613a9d565b505050505050505050565b6001600160a01b038416612fc85760405162461bcd60e51b815260206004820152602160248201527f455243313135353a206d696e7420746f20746865207a65726f206164647265736044820152607360f81b6064820152608401610d91565b336000612fd48561394c565b90506000612fe18561394c565b9050612ff283600089858589613997565b60008681526065602090815260408083206001600160a01b038b16845290915281208054879290613024908490615509565b909155505060408051878152602081018790526001600160a01b03808a1692600092918716917fc3d58168c5ae7397731d063d5bbf3d657854427343f4c083240f7aacaa2d0f62910160405180910390a4612e2383600089898989613a9d565b81518351146130e65760405162461bcd60e51b815260206004820152602860248201527f455243313135353a2069647320616e6420616d6f756e7473206c656e677468206044820152670dad2e6dac2e8c6d60c31b6064820152608401610d91565b6001600160a01b03841661310c5760405162461bcd60e51b8152600401610d9190615868565b3361311b818787878787613997565b60005b845181101561320457600085828151811061313b5761313b615438565b60200260200101519050600085838151811061315957613159615438565b60209081029190910181015160008481526065835260408082206001600160a01b038e1683529093529190912054909150818110156131aa5760405162461bcd60e51b8152600401610d91906158ad565b60008381526065602090815260408083206001600160a01b038e8116855292528083208585039055908b168252812080548492906131e9908490615509565b92505081905550505050806131fd906154a5565b905061311e565b50846001600160a01b0316866001600160a01b0316826001600160a01b03167f4a39dc06d4c0dbc64b70af90fd698a233a518aa5d07e595d983b8c0526c8f7fb87876040516132549291906158f7565b60405180910390a4612aac818787878787613bf8565b6132748282612325565b610e065760008281526097602090815260408083206001600160a01b03851684529091529020805460ff191660011790556132ac3390565b6001600160a01b0316816001600160a01b0316837f2f8788117e7eff1d82e926ec794901d17c78024a50270940304540a733656f0d60405160405180910390a45050565b6132fa8282612325565b15610e065760008281526097602090815260408083206001600160a01b0385168085529252808320805460ff1916905551339285917ff6391f5c32d9c69d2a47ea670b442974b53935d1edc7fd64eb21e047a839171b9190a45050565b7f189ab7a9244df0848122154315af71fe140f3db0fe014031783b0946b8c9d2e3610e0681612c76565b7f4910fdfa16fed3260ed0e7147f7cc6da11a60208b5b9406d12a635614ffd91435460ff16156133b45761147283613cb3565b826001600160a01b03166352d1902d6040518163ffffffff1660e01b8152600401602060405180830381865afa92505050801561340e575060408051601f3d908101601f1916820190925261340b9181019061591c565b60015b6134715760405162461bcd60e51b815260206004820152602e60248201527f45524331393637557067726164653a206e657720696d706c656d656e7461746960448201526d6f6e206973206e6f74205555505360901b6064820152608401610d91565b600080516020615bcd83398151915281146134e05760405162461bcd60e51b815260206004820152602960248201527f45524331393637557067726164653a20756e737570706f727465642070726f786044820152681a58589b195555525160ba1b6064820152608401610d91565b50611472838383613d4f565b6134f4613d7a565b60c9805460ff191690557f5db9ee0a495bf2e6ff9c91a7834c1ba4fdd244a5e8aa4e537bd38aeae4b073aa335b6040516001600160a01b03909116815260200160405180910390a1565b600061354b858585612c93565b613556858585613dc3565b905083856001600160a01b03167f1325d882b2ca749c878a4ab3a393f6e51b69026faa05426b6d1ec6776a3f2f3c85848660405161359693929190615935565b60405180910390a3949350505050565b6000610dcd6135b3613edb565b8360405161190160f01b6020820152602281018390526042810182905260009060620160405160208183030381529060405280519060200120905092915050565b60006136008585613f5d565b9050826001600160a01b0316816001600160a01b03161461365d5760405162461bcd60e51b8152602060048201526017602482015276496e76616c6964207369676e6174757265202d2034303160481b6044820152606401610d91565b6001600160a01b0381166136ad5760405162461bcd60e51b8152602060048201526017602482015276496e76616c6964207369676e6174757265202d2034303160481b6044820152606401610d91565b8142106136f05760405162461bcd60e51b815260206004820152601160248201527014da59db985d1d5c9948195e1c1a5c9959607a1b6044820152606401610d91565b949350505050565b613700613f79565b60c9805460ff191660011790557f62e78cea01bee320cd4e420270b5ea74000d11b0c9f74754ebdbfc544b05a2586135213390565b600054610100900460ff1661375c5760405162461bcd60e51b8152600401610d9190615954565b6115cd81613fbf565b600054610100900460ff1661378c5760405162461bcd60e51b8152600401610d9190615954565b565b600054610100900460ff166137b55760405162461bcd60e51b8152600401610d9190615954565b61378c613fef565b600054610100900460ff166137e45760405162461bcd60e51b8152600401610d9190615954565b610e068282614022565b816001600160a01b0316836001600160a01b0316036138615760405162461bcd60e51b815260206004820152602960248201527f455243313135353a2073657474696e6720617070726f76616c20737461747573604482015268103337b91039b2b63360b91b6064820152608401610d91565b6001600160a01b03838116600081815260666020908152604080832094871680845294825291829020805460ff191686151590811790915591519182527f17307eab39ab6107e8899845ad3d59bd9653f200f220920489ca2b5937696c31910160405180910390a3505050565b60006001600160e01b03198216637965db0b60e01b1480610dcd5750610dcd82614053565b6138fd8282612325565b610e065761390a816140a3565b6139158360206140b5565b60405160200161392692919061599f565b60408051601f198184030181529082905262461bcd60e51b8252610d9191600401614b4b565b6040805160018082528183019092526060916000919060208083019080368337019050509050828160008151811061398657613986615438565b602090810291909101015292915050565b61399f613f79565b846139ca7ff48dee1a72497b9e734e498e1b3086c0d2dbcca13f16f15848f974469f906bbf82612325565b15613a175760405162461bcd60e51b815260206004820152601f60248201527f50726f6a6563743a204163636f756e7420697320626c61636b6c6973746564006044820152606401610d91565b84613a427ff48dee1a72497b9e734e498e1b3086c0d2dbcca13f16f15848f974469f906bbf82612325565b15613a8f5760405162461bcd60e51b815260206004820152601f60248201527f50726f6a6563743a204163636f756e7420697320626c61636b6c6973746564006044820152606401610d91565b61101a888888888888614250565b6001600160a01b0384163b15612aac5760405163f23a6e6160e01b81526001600160a01b0385169063f23a6e6190613ae19089908990889088908890600401615a14565b6020604051808303816000875af1925050508015613b1c575060408051601f3d908101601f19168201909252613b1991810190615a4e565b60015b613bc857613b28615a6b565b806308c379a003613b615750613b3c615a86565b80613b475750613b63565b8060405162461bcd60e51b8152600401610d919190614b4b565b505b60405162461bcd60e51b815260206004820152603460248201527f455243313135353a207472616e7366657220746f206e6f6e2d455243313135356044820152732932b1b2b4bb32b91034b6b83632b6b2b73a32b960611b6064820152608401610d91565b6001600160e01b0319811663f23a6e6160e01b14612e235760405162461bcd60e51b8152600401610d9190615b0f565b6001600160a01b0384163b15612aac5760405163bc197c8160e01b81526001600160a01b0385169063bc197c8190613c3c9089908990889088908890600401615b57565b6020604051808303816000875af1925050508015613c77575060408051601f3d908101601f19168201909252613c7491810190615a4e565b60015b613c8357613b28615a6b565b6001600160e01b0319811663bc197c8160e01b14612e235760405162461bcd60e51b8152600401610d9190615b0f565b6001600160a01b0381163b613d205760405162461bcd60e51b815260206004820152602d60248201527f455243313936373a206e657720696d706c656d656e746174696f6e206973206e60448201526c1bdd08184818dbdb9d1c9858dd609a1b6064820152608401610d91565b600080516020615bcd83398151915280546001600160a01b0319166001600160a01b0392909216919091179055565b613d58836143c9565b600082511180613d655750805b1561147257613d748383614409565b50505050565b60c95460ff1661378c5760405162461bcd60e51b815260206004820152601460248201527314185d5cd8589b194e881b9bdd081c185d5cd95960621b6044820152606401610d91565b600080613dd86101f780546001019081905590565b6040805160c0810182526001600160a01b03888116825260208083018881528385018a8152855180840187526000808252606087019182528751808601895281815260808801528751808601895281815260a0880152888152610200855296909620855181546001600160a01b0319169516949094178455905160018401555160028301559251805194955091939092613e799260038501929101906147b3565b5060808201518051613e959160048401916020909101906147b3565b5060a08201518051613eb19160058401916020909101906147b3565b50905050613ed18582600160405180602001604052806000815250612f68565b90505b9392505050565b6000613f587f8b73c3c69bb8fe3d512ecc4cf759cc79239f7b179b0ffacaa9a75d522b39400f613f0b6101915490565b610192546040805160208101859052908101839052606081018290524660808201523060a082015260009060c0016040516020818303038152906040528051906020012090509392505050565b905090565b6000806000613f6c85856144f4565b91509150611a8081614539565b60c95460ff161561378c5760405162461bcd60e51b815260206004820152601060248201526f14185d5cd8589b194e881c185d5cd95960821b6044820152606401610d91565b600054610100900460ff16613fe65760405162461bcd60e51b8152600401610d9190615954565b6115cd81612c80565b600054610100900460ff166140165760405162461bcd60e51b8152600401610d9190615954565b60c9805460ff19169055565b600054610100900460ff166140495760405162461bcd60e51b8152600401610d9190615954565b610e068282614683565b60006001600160e01b03198216636cdb3d1360e11b148061408457506001600160e01b031982166303a24d0760e21b145b80610dcd57506301ffc9a760e01b6001600160e01b0319831614610dcd565b6060610dcd6001600160a01b03831660145b606060006140c4836002615464565b6140cf906002615509565b6001600160401b038111156140e6576140e66148c5565b6040519080825280601f01601f191660200182016040528015614110576020820181803683370190505b509050600360fc1b8160008151811061412b5761412b615438565b60200101906001600160f81b031916908160001a905350600f60fb1b8160018151811061415a5761415a615438565b60200101906001600160f81b031916908160001a905350600061417e846002615464565b614189906001615509565b90505b6001811115614201576f181899199a1a9b1b9c1cb0b131b232b360811b85600f16601081106141bd576141bd615438565b1a60f81b8282815181106141d3576141d3615438565b60200101906001600160f81b031916908160001a90535060049490941c936141fa81615bb5565b905061418c565b508315613ed45760405162461bcd60e51b815260206004820181905260248201527f537472696e67733a20686578206c656e67746820696e73756666696369656e746044820152606401610d91565b6001600160a01b0385166142d75760005b83518110156142d55782818151811061427c5761427c615438565b602002602001015160fb600086848151811061429a5761429a615438565b6020026020010151815260200190815260200160002060008282546142bf9190615509565b909155506142ce9050816154a5565b9050614261565b505b6001600160a01b038416612aac5760005b8351811015612e2357600084828151811061430557614305615438565b60200260200101519050600084838151811061432357614323615438565b60200260200101519050600060fb6000848152602001908152602001600020549050818110156143a65760405162461bcd60e51b815260206004820152602860248201527f455243313135353a206275726e20616d6f756e74206578636565647320746f74604482015267616c537570706c7960c01b6064820152608401610d91565b600092835260fb6020526040909220910390556143c2816154a5565b90506142e8565b6143d281613cb3565b6040516001600160a01b038216907fbc7cd75a20ee27fd9adebab32041f755214dbc6bffa90cc0225b39da2e5c2d3b90600090a250565b60606001600160a01b0383163b6144715760405162461bcd60e51b815260206004820152602660248201527f416464726573733a2064656c65676174652063616c6c20746f206e6f6e2d636f6044820152651b9d1c9858dd60d21b6064820152608401610d91565b600080846001600160a01b03168460405161448c919061581d565b600060405180830381855af49150503d80600081146144c7576040519150601f19603f3d011682016040523d82523d6000602084013e6144cc565b606091505b50915091506119568282604051806060016040528060278152602001615c0d602791396146c6565b600080825160410361452a5760208301516040840151606085015160001a61451e878285856146df565b94509450505050614532565b506000905060025b9250929050565b600081600481111561454d5761454d6157b9565b036145555750565b6001816004811115614569576145696157b9565b036145b65760405162461bcd60e51b815260206004820152601860248201527f45434453413a20696e76616c6964207369676e617475726500000000000000006044820152606401610d91565b60028160048111156145ca576145ca6157b9565b036146175760405162461bcd60e51b815260206004820152601f60248201527f45434453413a20696e76616c6964207369676e6174757265206c656e677468006044820152606401610d91565b600381600481111561462b5761462b6157b9565b036115cd5760405162461bcd60e51b815260206004820152602260248201527f45434453413a20696e76616c6964207369676e6174757265202773272076616c604482015261756560f01b6064820152608401610d91565b600054610100900460ff166146aa5760405162461bcd60e51b8152600401610d9190615954565b8151602092830120815191909201206101919190915561019255565b606083156146d5575081613ed4565b613ed483836147a3565b6000807f7fffffffffffffffffffffffffffffff5d576e7357a4501ddfe92f46681b20a0831115614716575060009050600361479a565b6040805160008082526020820180845289905260ff881692820192909252606081018690526080810185905260019060a0016020604051602081039080840390855afa15801561476a573d6000803e3d6000fd5b5050604051601f1901519150506001600160a01b0381166147935760006001925092505061479a565b9150600090505b94509492505050565b815115613b475781518083602001fd5b8280546147bf906154be565b90600052602060002090601f0160209004810192826147e15760008555614827565b82601f106147fa57805160ff1916838001178555614827565b82800160010185558215614827579182015b8281111561482757825182559160200191906001019061480c565b50614833929150614837565b5090565b5b808211156148335760008155600101614838565b80356001600160a01b038116811461486357600080fd5b919050565b6000806040838503121561487b57600080fd5b6148848361484c565b946020939093013593505050565b6001600160e01b0319811681146115cd57600080fd5b6000602082840312156148ba57600080fd5b8135613ed481614892565b634e487b7160e01b600052604160045260246000fd5b60a081018181106001600160401b03821117156148fa576148fa6148c5565b60405250565b601f8201601f191681016001600160401b0381118282101715614925576149256148c5565b6040525050565b600082601f83011261493d57600080fd5b81356001600160401b03811115614956576149566148c5565b60405161496d601f8301601f191660200182614900565b81815284602083860101111561498257600080fd5b816020850160208301376000918101602001919091529392505050565b6000602082840312156149b157600080fd5b81356001600160401b038111156149c757600080fd5b6136f08482850161492c565b60006001600160401b038211156149ec576149ec6148c5565b5060051b60200190565b600082601f830112614a0757600080fd5b81356020614a14826149d3565b604051614a218282614900565b83815260059390931b8501820192828101915086841115614a4157600080fd5b8286015b84811015614a6357614a568161484c565b8352918301918301614a45565b509695505050505050565b600080600060608486031215614a8357600080fd5b83356001600160401b0380821115614a9a57600080fd5b614aa6878388016149f6565b9450602086013593506040860135915080821115614ac357600080fd5b50614ad08682870161492c565b9150509250925092565b600060208284031215614aec57600080fd5b5035919050565b60005b83811015614b0e578181015183820152602001614af6565b83811115613d745750506000910152565b60008151808452614b37816020860160208601614af3565b601f01601f19169290920160200192915050565b602081526000613ed46020830184614b1f565b60008060008060808587031215614b7457600080fd5b614b7d8561484c565b9350602085013592506040850135915060608501356001600160401b03811115614ba657600080fd5b614bb28782880161492c565b91505092959194509250565b602081526000825160a06020840152614bda60c0840182614b1f565b9050602084015160408401526040840151606084015260608401516080840152608084015160a08401528091505092915050565b600082601f830112614c1f57600080fd5b81356020614c2c826149d3565b604051614c398282614900565b83815260059390931b8501820192828101915086841115614c5957600080fd5b8286015b84811015614a635780358352918301918301614c5d565b600080600080600060a08688031215614c8c57600080fd5b614c958661484c565b9450614ca36020870161484c565b935060408601356001600160401b0380821115614cbf57600080fd5b614ccb89838a01614c0e565b94506060880135915080821115614ce157600080fd5b614ced89838a01614c0e565b93506080880135915080821115614d0357600080fd5b50614d108882890161492c565b9150509295509295909350565b60008060408385031215614d3057600080fd5b82359150614d406020840161484c565b90509250929050565b600060208284031215614d5b57600080fd5b613ed48261484c565b600080600080600080600060e0888a031215614d7f57600080fd5b614d888861484c565b96506020880135955060408801359450606088013593506080880135925060a0880135915060c08801356001600160401b03811115614dc657600080fd5b614dd28a828b0161492c565b91505092959891949750929550565b600080600060608486031215614df657600080fd5b833592506020840135915060408401356001600160401b03811115614e1a57600080fd5b614ad08682870161492c565b60008060408385031215614e3957600080fd5b82356001600160401b0380821115614e5057600080fd5b614e5c868387016149f6565b93506020850135915080821115614e7257600080fd5b50614e7f85828601614c0e565b9150509250929050565b600081518084526020808501945080840160005b83811015614eb957815187529582019590820190600101614e9d565b509495945050505050565b602081526000613ed46020830184614e89565b60008060408385031215614eea57600080fd5b614ef38361484c565b915060208301356001600160401b03811115614f0e57600080fd5b614e7f8582860161492c565b600060e08284031215614f2c57600080fd5b50919050565b60008060008060608587031215614f4857600080fd5b84356001600160401b0380821115614f5f57600080fd5b818701915087601f830112614f7357600080fd5b813581811115614f8257600080fd5b886020828501011115614f9457600080fd5b602092830196509450908601359080821115614faf57600080fd5b614fbb88838901614f1a565b93506040870135915080821115614fd157600080fd5b50614bb28782880161492c565b80356005811061486357600080fd5b60008060006060848603121561500257600080fd5b833592506020840135915061501960408501614fde565b90509250925092565b60018060a01b038716815285602082015284604082015260c06060820152600061504f60c0830186614b1f565b82810360808401526150618186614b1f565b905082810360a08401526150758185614b1f565b9998505050505050505050565b60a08152600061509560a0830188614b1f565b90508560208301528460408301528360608301528260808301529695505050505050565b600060208083850312156150cc57600080fd5b82356001600160401b03808211156150e357600080fd5b818501915085601f8301126150f757600080fd5b8135615102816149d3565b604080516151108382614900565b83815260059390931b850186019286810192508984111561513057600080fd5b8686015b848110156151c75780358681111561514c5760008081fd5b870160a0818d03601f19018113156151645760008081fd5b845161516f816148db565b8a830135898111156151815760008081fd5b61518f8f8d8387010161492c565b825250828601358b82015260608084013587830152608080850135918301919091529190920135908201528452928701928701615134565b509998505050505050505050565b600080600080608085870312156151eb57600080fd5b6151f48561484c565b9350602085013560ff8116811461520a57600080fd5b92506040850135915060608501356001600160401b03811115614ba657600080fd5b6000806000806080858703121561524257600080fd5b61524b8561484c565b9350602085013592506040850135915061526760608601614fde565b905092959194509250565b6000806000806080858703121561528857600080fd5b6152918561484c565b935061520a6020860161484c565b600080600080608085870312156152b557600080fd5b84359350602085013592506040850135915060608501356001600160401b03811115614ba657600080fd5b600080604083850312156152f357600080fd5b6152fc8361484c565b91506020830135801515811461531157600080fd5b809150509250929050565b600080600080600060a0868803121561533457600080fd5b61533d8661484c565b945061534b6020870161484c565b9350604086013592506060860135915061536760808701614fde565b90509295509295909350565b6000806040838503121561538657600080fd5b61538f8361484c565b9150614d406020840161484c565b600080600080600060a086880312156153b557600080fd5b6153be8661484c565b94506153cc6020870161484c565b9350604086013592506060860135915060808601356001600160401b038111156153f557600080fd5b614d108882890161492c565b6020808252601c908201527f50726f6a6563743a20546f6b656e206973206e6f74204578506f737400000000604082015260600190565b634e487b7160e01b600052603260045260246000fd5b634e487b7160e01b600052601160045260246000fd5b600081600019048311821515161561547e5761547e61544e565b500290565b6000826154a057634e487b7160e01b600052601260045260246000fd5b500490565b6000600182016154b7576154b761544e565b5060010190565b600181811c908216806154d257607f821691505b602082108103614f2c57634e487b7160e01b600052602260045260246000fd5b6000828210156155045761550461544e565b500390565b6000821982111561551c5761551c61544e565b500190565b6020808252602e908201527f455243313135353a2063616c6c6572206973206e6f7420746f6b656e206f776e60408201526d195c881bdc88185c1c1c9bdd995960921b606082015260800190565b6020808252602c908201527f46756e6374696f6e206d7573742062652063616c6c6564207468726f7567682060408201526b19195b1959d85d1958d85b1b60a21b606082015260800190565b6020808252602c908201527f46756e6374696f6e206d7573742062652063616c6c6564207468726f7567682060408201526b6163746976652070726f787960a01b606082015260800190565b85815284602082015283604082015282606082015260a06080820152600061563260a0830184614b1f565b979650505050505050565b81835281816020850137506000828201602090810191909152601f909101601f19169091010190565b60408152600061567a60408301858761563d565b8281036020840152833581526020840135601e1985360301811261569d57600080fd5b840180356001600160401b038111156156b557600080fd5b8036038613156156c457600080fd5b60e060208401526156dc60e08401826020850161563d565b9150506156eb6040860161484c565b6001600160a01b031660408301526157056060860161484c565b6001600160a01b0381166060840152506080850135608083015260a085013560a083015260c085013560c08301528092505050949350505050565b6000808335601e1984360301811261575757600080fd5b8301803591506001600160401b0382111561577157600080fd5b60200191503681900382131561453257600080fd5b8183823760009101908152919050565b600063ffffffff8083168181036157af576157af61544e565b6001019392505050565b634e487b7160e01b600052602160045260246000fd5b6020808252602e908201527f496e697469616c697a61626c653a20636f6e747261637420697320616c72656160408201526d191e481a5b9a5d1a585b1a5e995960921b606082015260800190565b6000825161582f818460208701614af3565b9190910192915050565b84815283602082015282604082015260806060820152600061585e6080830184614b1f565b9695505050505050565b60208082526025908201527f455243313135353a207472616e7366657220746f20746865207a65726f206164604082015264647265737360d81b606082015260800190565b6020808252602a908201527f455243313135353a20696e73756666696369656e742062616c616e636520666f60408201526939103a3930b739b332b960b11b606082015260800190565b60408152600061590a6040830185614e89565b82810360208401526119568185614e89565b60006020828403121561592e57600080fd5b5051919050565b8381528260208201526060604082015260006119566060830184614b1f565b6020808252602b908201527f496e697469616c697a61626c653a20636f6e7472616374206973206e6f74206960408201526a6e697469616c697a696e6760a81b606082015260800190565b7f416363657373436f6e74726f6c3a206163636f756e74200000000000000000008152600083516159d7816017850160208801614af3565b7001034b99036b4b9b9b4b733903937b6329607d1b6017918401918201528351615a08816028840160208801614af3565b01602801949350505050565b6001600160a01b03868116825285166020820152604081018490526060810183905260a06080820181905260009061563290830184614b1f565b600060208284031215615a6057600080fd5b8151613ed481614892565b600060033d1115611c055760046000803e5060005160e01c90565b600060443d1015615a945790565b6040516003193d81016004833e81513d6001600160401b038160248401118184111715615ac357505050505090565b8285019150815181811115615adb5750505050505090565b843d8701016020828501011115615af55750505050505090565b615b0460208286010187614900565b509095945050505050565b60208082526028908201527f455243313135353a204552433131353552656365697665722072656a656374656040820152676420746f6b656e7360c01b606082015260800190565b6001600160a01b0386811682528516602082015260a060408201819052600090615b8390830186614e89565b8281036060840152615b958186614e89565b90508281036080840152615ba98185614b1f565b98975050505050505050565b600081615bc457615bc461544e565b50600019019056fe360894a13ba1a3210667c828492db98dca3e2076cc3735a920a3ca505d382bbc65d7a28e3265b37a6474929f336521b332c1681b933f6cb9f3376673440d862a416464726573733a206c6f772d6c6576656c2064656c65676174652063616c6c206661696c6564ddf79b8d2110dbe281cf3bb7762d508cea586c974794c8fc949d41b0db114513a264697066735822122020fa6d1a262f9390795e0c0c7b9c68bc1991387adb6538b838fbb9f3654877dd64736f6c634300080d0033",
  "immutableReferences": {
    "997": [
      {
        "length": 32,
        "start": 5371
      },
      {
        "length": 32,
        "start": 5435
      },
      {
        "length": 32,
        "start": 6802
      },
      {
        "length": 32,
        "start": 6866
      },
      {
        "length": 32,
        "start": 7009
      }
    ]
  },
  "source": "// SPDX-License-Identifier: MIT\npragma solidity ^0.8.13;\n\nimport '@openzeppelin/contracts-upgradeable/token/ERC1155/ERC1155Upgradeable.sol';\nimport '@openzeppelin/contracts-upgradeable/access/AccessControlUpgradeable.sol';\nimport '@openzeppelin/contracts-upgradeable/security/PausableUpgradeable.sol';\nimport '@openzeppelin/contracts-upgradeable/token/ERC1155/extensions/ERC1155SupplyUpgradeable.sol';\nimport '@openzeppelin/contracts-upgradeable/proxy/utils/Initializable.sol';\nimport '@openzeppelin/contracts-upgradeable/proxy/utils/UUPSUpgradeable.sol';\nimport \"@openzeppelin/contracts-upgradeable/token/ERC1155/utils/ERC1155HolderUpgradeable.sol\";\n\n\nimport './ProjectStorage.sol';\nimport './interfaces/ICarbonContractRegistry.sol';\nimport './utils/CustomSignaturesUpgradeable.sol';\n\ncontract Project is\n\tInitializable,\n\tERC1155Upgradeable,\n\tAccessControlUpgradeable,\n\tPausableUpgradeable,\n\tERC1155SupplyUpgradeable,\n\tUUPSUpgradeable,\n\tCustomSignaturesUpgradeable,\n\tProjectStorage,\n\tERC1155HolderUpgradeable\n{\n\tbytes32 public constant URI_SETTER_ROLE = keccak256('URI_SETTER_ROLE');\n\tbytes32 public constant PAUSER_ROLE = keccak256('PAUSER_ROLE');\n\tbytes32 public constant ANTE_MINTER_ROLE = keccak256('ANTE_MINTER_ROLE');\n\tbytes32 public constant POST_MINTER_ROLE = keccak256('POST_MINTER_ROLE');\n\tbytes32 public constant MINTER_ROLE = keccak256('MINTER_ROLE');\n\tbytes32 public constant UPGRADER_ROLE = keccak256('UPGRADER_ROLE');\n\tbytes32 public constant BLACKLISTED = keccak256('BLACKLISTED');\n\tbytes32 public constant BLACKLISTER_ROLE = keccak256('BLACKLISTER_ROLE');\n\tbytes32 public constant BURNER_ROLE = keccak256('BURNER_ROLE');\n\tbytes32 public constant VERIFIER_ROLE = keccak256('VERIFIER_ROLE');\n\tbytes32 public constant CLAWBACK_ROLE = keccak256('CLAWBACK_ROLE');\n\n\tevent ExPostCreated(\n\t\tuint256 indexed tokenId,\n\t\tuint256 estimatedAmount,\n\t\tuint256 verificationPeriodStart,\n\t\tuint256 verificationPeriodEnd,\n\t\tstring serialization\n\t);\n\n\tevent VintageMitigationEstimateChanged(\n\t\tuint256 indexed tokenId,\n\t\tuint256 newEstimate,\n\t\tuint256 oldEstimate,\n\t\tAdminActionReason indexed reason\n\t);\n\n\tevent ExAnteMinted(\n\t\tuint256 indexed exAnteTokenId,\n\t\tuint256 indexed exPostTokenId,\n\t\taddress indexed account,\n\t\tuint256 amount\n\t);\n\n\tevent ExPostVerifiedAndMinted(\n\t\tuint256 indexed tokenId,\n\t\tuint256 amount,\n\t\tuint256 amountToAnteHolders,\n\t\tuint256 verificationPeriodStart,\n\t\tuint256 verificationPeriodEnd,\n\t\tstring monitoringReport\n\t);\n\n\tevent AdminBurn(\n\t\taddress indexed from,\n\t\tuint256 indexed tokenId,\n\t\tuint256 amount,\n\t\tAdminActionReason indexed reason\n\t);\n\n\tevent AdminClawback(\n\t\taddress indexed from,\n\t\taddress to,\n\t\tuint256 indexed tokenId,\n\t\tuint256 amount,\n\t\tAdminActionReason indexed reason\n\t);\n\n\tevent ExchangeAnteForPost(\n\t\taddress indexed account,\n\t\tuint256 indexed exPostTokenId,\n\t\tuint256 exPostAmountReceived,\n\t\tuint256 exAnteAmountBurned\n\t);\n\n\tevent RetiredVintage(\n\t\taddress indexed account,\n\t\tuint256 indexed tokenId,\n\t\tuint256 amount,\n\t\tuint256 nftTokenId,\n\t\tbytes data\n\t);\n\n\t/// @custom:oz-upgrades-unsafe-allow constructor\n\tconstructor() {\n\t\t_disableInitializers();\n\t}\n\n\n\n\tfunction initialize(\n\t\taddress _contractRegistry,\n\t\taddress _owner,\n\t\tuint256 _projectId,\n\t\tstring memory _projectName\n\t) public initializer {\n\t\t__ERC1155_init('');\n\t\t__AccessControl_init();\n\t\t__Pausable_init();\n\t\t__ERC1155Supply_init();\n\t\t__UUPSUpgradeable_init();\n\t\t__CustomSignatures_init(\"Carbon Registry\", '0.0.1');\n\n\t\t// Our Inits\n\t\t__ProjectStorage_init(_contractRegistry, 50, _projectId, _projectName);\n\n\t\t_grantRole(DEFAULT_ADMIN_ROLE, _owner);\n\t\t_grantRole(URI_SETTER_ROLE, _owner);\n\t\t_grantRole(PAUSER_ROLE, _owner);\n\t\t_grantRole(ANTE_MINTER_ROLE, _owner);\n\t\t_grantRole(POST_MINTER_ROLE, _owner);\n\t\t_grantRole(UPGRADER_ROLE, _owner);\n\t\t_grantRole(BLACKLISTER_ROLE, _owner);\n\t\t_grantRole(VERIFIER_ROLE, _owner);\n\t\t_grantRole(CLAWBACK_ROLE, _owner);\n\n\t\t_grantRole(POST_MINTER_ROLE, msg.sender); // Just so projectFactory can mint exPost on creation of the project\n\t}\n\n\tmodifier notBlacklisted(address account) {\n\t\trequire(\n\t\t\t!hasRole(BLACKLISTED, account),\n\t\t\t'Project: Account is blacklisted'\n\t\t);\n\t\t_;\n\t}\n\n\tmodifier onlyExPostTokens(uint256[] memory tokenIds) {\n\t\tfor (uint256 i = 0; i < tokenIds.length; i++) {\n\t\t\trequire(isExPostToken(tokenIds[i]), 'Project: Token is not ExPost');\n\t\t}\n\t\t_;\n\t}\n\n\tmodifier onlyExPostToken(uint256 tokenId) {\n\t\trequire(isExPostToken(tokenId), 'Project: Token is not ExPost');\n\t\t_;\n\t}\n\n\tfunction isExPostToken(uint256 tokenId) public view returns (bool) {\n\t\treturn bytes(exPostVintageMapping[tokenId].serialization).length > 0;\n\t}\n\n\tmodifier onlyVerifiedStatus(bool isVerified, uint256 tokenId) {\n\t\trequire(\n\t\t\t(exPostVintageMapping[tokenId].lastVerificationTimestamp >=\n\t\t\t\texPostVintageMapping[tokenId].verificationPeriodEnd) ==\n\t\t\t\tisVerified,\n\t\t\tisVerified\n\t\t\t\t? 'Project: Token is unverified'\n\t\t\t\t: 'Project: Token is verified'\n\t\t);\n\t\t_;\n\t}\n\n\t// ----------------------------------\n\t//         Minting Functions\n\t// ----------------------------------\n\n\tfunction createExPostVintage(\n\t\tuint256 estAmount,\n\t\tuint256 verificationPeriodStart,\n\t\tuint256 verificationPeriodEnd,\n\t\tstring memory serialization\n\t) public onlyRole(POST_MINTER_ROLE) {\n\t\t\n\t\trequire(\n\t\t\tverificationPeriodEnd > verificationPeriodStart,\n\t\t\t'Project: Invalid verification period'\n\t\t);\n\t\tuint256 newTokenId = nextTokenId();\n\t\tICarbonContractRegistry(contractRegistry).registerSerialization(\n\t\t\tserialization\n\t\t);\n\t\tserializationToExPostTokenIdMapping[serialization] = newTokenId;\n\t\texPostVintageMapping[newTokenId] = VintageData(\n\t\t\tserialization,\n\t\t\testAmount,\n\t\t\tverificationPeriodStart,\n\t\t\tverificationPeriodEnd,\n\t\t\t0\n\t\t);\n\t\temit ExPostCreated(\n\t\t\tnewTokenId,\n\t\t\testAmount,\n\t\t\tverificationPeriodStart,\n\t\t\tverificationPeriodEnd,\n\t\t\tserialization\n\t\t);\n\t}\n\n\tfunction createExPostVintageBatch(\n\t\tVintageData[] memory vintages\n\t) public onlyRole(POST_MINTER_ROLE) {\n\t\tfor (uint256 i = 0; i < vintages.length; i++) {\n\t\t\tcreateExPostVintage(\n\t\t\t\tvintages[i].estMitigations,\n\t\t\t\tvintages[i].verificationPeriodStart,\n\t\t\t\tvintages[i].verificationPeriodEnd,\n\t\t\t\tvintages[i].serialization\n\t\t\t);\n\t\t}\n\t}\n\n\tfunction mintExAnte(\n\t\taddress account,\n\t\tuint256 exPostTokenId,\n\t\tuint256 amount,\n\t\tbytes memory data\n\t)\n\t\tpublic\n\t\tonlyRole(ANTE_MINTER_ROLE)\n\t\tonlyExPostToken(exPostTokenId)\n\t\tonlyVerifiedStatus(false, exPostTokenId)\n\t{\n\n\t\tuint256 exAnteTokenId = exPostToExAnteTokenId[exPostTokenId];\n\t\tif (exAnteTokenId == 0) {\n\t\t\texAnteTokenId = nextTokenId();\n\t\t\texPostToExAnteTokenId[exPostTokenId] = exAnteTokenId;\n\t\t}\n\n\n\t\tuint256 exPostEstimatedSupply = exPostVintageMapping[exPostTokenId]\n\t\t\t.estMitigations;\n\t\tuint256 exPostVerifiedSupply = totalSupply(exPostTokenId);\n\t\tuint256 anteDrawablePostSupply = exPostEstimatedSupply -\n\t\t\texPostVerifiedSupply;\n\t\tuint256 maxExAnteSupply = (anteDrawablePostSupply *\n\t\t\t(maxAntePercentage)) / (100);\n\t\tuint256 exAnteSupply = totalSupply(exAnteTokenId);\n\n\t\trequire(\n\t\t\texAnteSupply + amount <= maxExAnteSupply,\n\t\t\t'Maximum exAnte supply exceeded'\n\t\t);\n\n\t\texAnteToExPostTokenId[exAnteTokenId] = exPostTokenId;\n\n\t\temit ExAnteMinted(exAnteTokenId, exPostTokenId, account,  amount);\n\n\t\t_mint(account, exAnteTokenId, amount, data);\n\n\t}\n\n\tfunction changeVintageMitigationEstimate(\n\t\tuint256 tokenId,\n\t\tuint256 newEstAmount,\n\t\tAdminActionReason reason\n\t)\n\t\tpublic\n\t\tonlyRole(DEFAULT_ADMIN_ROLE)\n\t\tonlyExPostToken(tokenId)\n\t\tonlyVerifiedStatus(false, tokenId)\n\t{\n\t\temit VintageMitigationEstimateChanged(\n\t\t\ttokenId,\n\t\t\tnewEstAmount,\n\t\t\texPostVintageMapping[tokenId].estMitigations,\n\t\t\treason\n\t\t);\n\t\texPostVintageMapping[tokenId].estMitigations = newEstAmount;\n\t}\n\n\tfunction verifyAndMintExPost(\n\t\taddress verificationVault,\n\t\tuint256 tokenId,\n\t\tuint256 amountVerified,\n\t\tuint256 amountToAnteHolders,\n\t\tuint256 verificationPeriodStart,\n\t\tuint256 verificationPeriodEnd,\n\t\tstring memory monitoringReport\n\t)\n\t\tpublic\n\t\tonlyRole(VERIFIER_ROLE)\n\t\tonlyExPostToken(tokenId)\n\t\tonlyVerifiedStatus(false, tokenId)\n\t{\n\t\t\t\n\t\trequire(\n\t\t\tamountVerified >= amountToAnteHolders,\n\t\t\t'Project: Invalid amount'\n\t\t);\n\t\trequire(\n\t\t\tverificationPeriodEnd >=\n\t\t\t\texPostVintageMapping[tokenId].verificationPeriodStart,\n\t\t\t'Verification timestamp is before verification period start'\n\t\t);\n\t\trequire(\n\t\t\tverificationPeriodEnd >\n\t\t\t\texPostVintageMapping[tokenId].lastVerificationTimestamp,\n\t\t\t'Verification timestamp is before last verification timestamp'\n\t\t);\n\n\t\tuint256 exAnteTokenId = exPostToExAnteTokenId[tokenId];\n\t\tif (exAnteTokenId == 0) {\n\t\t\t// If exAnteTokenId is zero then there are no ante holders\n\t\t\trequire(amountToAnteHolders == 0, 'Project: Invalid amount');\n\t\t}\n\n\t\t\temit ExPostVerifiedAndMinted(\n\t\t\ttokenId,\n\t\t\tamountVerified,\n\t\t\tamountToAnteHolders,\n\t\t\tverificationPeriodStart,\n\t\t\tverificationPeriodEnd,\n\t\t\tmonitoringReport\n\t\t);\n\n\t\tif (amountVerified - amountToAnteHolders > 0) {\n\t\t\t// Mint To Verification Vault\n\t\t\t_mint(\n\t\t\t\tverificationVault,\n\t\t\t\ttokenId,\n\t\t\t\tamountVerified - amountToAnteHolders,\n\t\t\t\t''\n\t\t\t);\n\t\t}\n\t\texPostVintageMapping[tokenId]\n\t\t\t.lastVerificationTimestamp = verificationPeriodEnd;\n\n\t\tif (amountToAnteHolders > 0) {\n\t\t\t// Mint to this address, where ante holders will claim\n\t\t\t_mint(address(this), tokenId, amountToAnteHolders, '');\n\t\t}\n\n\n\t}\n\n\tfunction adminBurn(\n\t\taddress from,\n\t\tuint256 tokenId,\n\t\tuint256 amount,\n\t\tAdminActionReason reason\n\t) public onlyRole(BURNER_ROLE) {\n\t\temit AdminBurn(from, tokenId, amount, reason);\n\t\t_burn(from, tokenId, amount);\n\t}\n\n\tfunction adminClawback(\n\t\taddress from,\n\t\taddress to,\n\t\tuint256 tokenId,\n\t\tuint256 amount,\n\t\tAdminActionReason reason\n\t) public onlyRole(CLAWBACK_ROLE) {\n\t\temit AdminClawback(from, to, tokenId, amount, reason);\n\t\t_safeTransferFrom(from, to, tokenId, amount, '');\n\t}\n\n\tfunction exchangeAnteForPostEvenSteven(\n\t\taddress[] memory accounts,\n\t\tuint256 exPostTokenId,\n\t\tbytes memory data\n\t)\n\t\texternal\n\t\tonlyExPostToken(exPostTokenId)\n\t{\n\t\tuint256 exAnteTokenId = exPostToExAnteTokenId[exPostTokenId];\n\t\trequire(exAnteTokenId != 0, 'Project: No ante holders');\n\t\tuint256 currentExAnteSupply = totalSupply(exAnteTokenId);\n\t\tuint256 currentExPostSupplyInContract = balanceOf(\n\t\t\taddress(this),\n\t\t\texPostTokenId\n\t\t);\n\t\trequire(currentExPostSupplyInContract > 0, 'Project: No post supply');\n\n\t\tfor (uint256 i = 0; i < accounts.length; i++) {\n\t\t\t\n\t\t\tuint256 amountExAnte = balanceOf(accounts[i], exAnteTokenId);\n\t\t\tuint256 amountExPost = (amountExAnte *\n\t\t\t\tcurrentExPostSupplyInContract) / currentExAnteSupply;\n\t\t\tuint256 exAnteBurnAmount = amountExAnte;\n\t\t\tif (amountExAnte > amountExPost) {\n\t\t\t\texAnteBurnAmount = amountExPost;\n\t\t\t}\n\t\t\t\t\t\temit ExchangeAnteForPost(\n\t\t\t\taccounts[i],\n\t\t\t\texPostTokenId,\n\t\t\t\tamountExPost,\n\t\t\t\texAnteBurnAmount\n\t\t\t);\n\t\t\t_burn(accounts[i], exAnteTokenId, exAnteBurnAmount);\n\t\t\t_safeTransferFrom(\n\t\t\t\taddress(this),\n\t\t\t\taccounts[i],\n\t\t\t\texPostTokenId,\n\t\t\t\tamountExPost,\n\t\t\t\tdata\n\t\t\t);\n\n\t\t}\n\t}\n\n\tfunction getExPostVintageData(\n\t\tuint256 exAnteTokenId\n\t) public view returns (VintageData memory) {\n\t\tuint256 exPostTokenId = exAnteToExPostTokenId[exAnteTokenId];\n\t\treturn exPostVintageMapping[exPostTokenId];\n\t}\n\n\t// ----------------------------------\n\t//              Actions\n\t// ----------------------------------\n\n\tfunction transferFromSignature(\n\t\tbytes calldata signature,\n\t\tsignatureTransferPayload calldata payload,\n\t\tbytes memory data\n\t) public payable onlyValidSignatureTransfer(signature, payload) {\n\t\t_safeTransferFrom(\n\t\t\tpayload.signer,\n\t\t\tpayload.to,\n\t\t\tpayload.tokenId,\n\t\t\tpayload.amount,\n\t\t\tdata\n\t\t);\n\t}\n\n\tfunction retire(\n\t\tuint256 tokenId,\n\t\tuint256 amount,\n\t\tbytes memory data\n\t) public onlyExPostToken(tokenId) returns (uint256 nftTokenId) {\n\t\treturn _retire(\n\t\t\tmsg.sender,\n\t\t\ttokenId,\n\t\t\tamount,\n\t\t\tdata\n\t\t);\n\t}\n\n\tfunction retireFromSignature(\n\t\tbytes calldata signature,\n\t\tsignatureTransferPayload calldata payload,\n\t\tbytes memory data\n\t)\n\t\tpublic\n\t\tpayable\n\t\tonlyExPostToken(payload.tokenId)\n\t\tonlyValidSignatureTransfer(signature, payload)\n\t\treturns (uint256 nftTokenId)\n\t{\n\t\treturn _retire(\n\t\t\tpayload.signer,\n\t\t\tpayload.tokenId,\n\t\t\tpayload.amount,\n\t\t\tdata\n\t\t);\n\t}\n\n\tfunction _retire(\n\t\taddress retiree,\n\t\tuint256 tokenId,\n\t\tuint256 amount,\n\t\tbytes memory data\n\t) internal returns(uint256 nftTokenId) {\n\t\t_burn(retiree, tokenId, amount);\n\t\tnftTokenId = mintRetirementCertificate(retiree, tokenId, amount);\n\t\t\t\temit RetiredVintage(retiree, tokenId, amount, nftTokenId, data);\n\n\t}\n\n\tfunction mintRetirementCertificate(\n\t\taddress account,\n\t\tuint256 tokenId,\n\t\tuint256 amount\n\t) internal returns (uint256) {\n\t\tuint256 nftTokenId = nextTokenId();\n\t\tretirementMapping[nftTokenId] = RetirementData(\n\t\t\taccount,\n\t\t\tamount,\n\t\t\ttokenId,\n\t\t\t'',\n\t\t\t'',\n\t\t\t''\n\t\t);\n\t\t_mint(account, nftTokenId, 1, '');\n\t\treturn nftTokenId;\n\t}\n\n\t// ----------------------------------\n\t//              Hooks\n\t// ----------------------------------\n\n\tfunction _beforeTokenTransfer(\n\t\taddress operator,\n\t\taddress from,\n\t\taddress to,\n\t\tuint256[] memory ids,\n\t\tuint256[] memory amounts,\n\t\tbytes memory data\n\t)\n\t\tinternal\n\t\toverride(ERC1155Upgradeable, ERC1155SupplyUpgradeable)\n\t\twhenNotPaused\n\t\tnotBlacklisted(from)\n\t\tnotBlacklisted(to)\n\t{\n\t\tsuper._beforeTokenTransfer(operator, from, to, ids, amounts, data);\n\t}\n\n\tfunction setURI(string memory newuri) public onlyRole(URI_SETTER_ROLE) {\n\t\t_setURI(newuri);\n\t}\n\n\tfunction pause() public onlyRole(PAUSER_ROLE) {\n\t\t_pause();\n\t}\n\n\tfunction unpause() public onlyRole(PAUSER_ROLE) {\n\t\t_unpause();\n\t}\n\n\tfunction nextTokenId() internal returns (uint256) {\n\t\tunchecked {\n\t\t\ttopTokenId += 1;\n\t\t}\n\t\treturn topTokenId;\n\t}\n\n\tfunction _authorizeUpgrade(\n\t\taddress newImplementation\n\t) internal override onlyRole(UPGRADER_ROLE) {}\n\n\t// The following functions are overrides required by Solidity.\n\n\tfunction supportsInterface(\n\t\tbytes4 interfaceId\n\t)\n\t\tpublic\n\t\tview\n\t\toverride(ERC1155Upgradeable, AccessControlUpgradeable,ERC1155ReceiverUpgradeable)\n\t\treturns (bool)\n\t{\n\t\treturn super.supportsInterface(interfaceId);\n\t}\n}\n",
  "sourcePath": "/Users/thorduragustsson/Programming/Projects/CarbonRegistryContracts/contracts/Project.sol",
  "compiler": {
    "name": "solc",
    "version": "0.8.13+commit.abaa5c0e.Emscripten.clang"
  },
  "schemaVersion": "3.4.13",
  "updatedAt": "2023-04-20T16:51:23.318Z",
  "networkType": "ethereum",
  "devdoc": {
    "kind": "dev",
    "methods": {
      "balanceOf(address,uint256)": {
        "details": "See {IERC1155-balanceOf}. Requirements: - `account` cannot be the zero address."
      },
      "balanceOfBatch(address[],uint256[])": {
        "details": "See {IERC1155-balanceOfBatch}. Requirements: - `accounts` and `ids` must have the same length."
      },
      "constructor": {
        "custom:oz-upgrades-unsafe-allow": "constructor"
      },
      "exists(uint256)": {
        "details": "Indicates whether any token exist with a given id, or not."
      },
      "getRoleAdmin(bytes32)": {
        "details": "Returns the admin role that controls `role`. See {grantRole} and {revokeRole}. To change a role's admin, use {_setRoleAdmin}."
      },
      "grantRole(bytes32,address)": {
        "details": "Grants `role` to `account`. If `account` had not been already granted `role`, emits a {RoleGranted} event. Requirements: - the caller must have ``role``'s admin role. May emit a {RoleGranted} event."
      },
      "hasRole(bytes32,address)": {
        "details": "Returns `true` if `account` has been granted `role`."
      },
      "isApprovedForAll(address,address)": {
        "details": "See {IERC1155-isApprovedForAll}."
      },
      "paused()": {
        "details": "Returns true if the contract is paused, and false otherwise."
      },
      "proxiableUUID()": {
        "details": "Implementation of the ERC1822 {proxiableUUID} function. This returns the storage slot used by the implementation. It is used to validate the implementation's compatibility when performing an upgrade. IMPORTANT: A proxy pointing at a proxiable contract should not be considered proxiable itself, because this risks bricking a proxy that upgrades to it, by delegating to itself until out of gas. Thus it is critical that this function revert if invoked through a proxy. This is guaranteed by the `notDelegated` modifier."
      },
      "renounceRole(bytes32,address)": {
        "details": "Revokes `role` from the calling account. Roles are often managed via {grantRole} and {revokeRole}: this function's purpose is to provide a mechanism for accounts to lose their privileges if they are compromised (such as when a trusted device is misplaced). If the calling account had been revoked `role`, emits a {RoleRevoked} event. Requirements: - the caller must be `account`. May emit a {RoleRevoked} event."
      },
      "revokeRole(bytes32,address)": {
        "details": "Revokes `role` from `account`. If `account` had been granted `role`, emits a {RoleRevoked} event. Requirements: - the caller must have ``role``'s admin role. May emit a {RoleRevoked} event."
      },
      "safeBatchTransferFrom(address,address,uint256[],uint256[],bytes)": {
        "details": "See {IERC1155-safeBatchTransferFrom}."
      },
      "safeTransferFrom(address,address,uint256,uint256,bytes)": {
        "details": "See {IERC1155-safeTransferFrom}."
      },
      "setApprovalForAll(address,bool)": {
        "details": "See {IERC1155-setApprovalForAll}."
      },
      "totalSupply(uint256)": {
        "details": "Total amount of tokens in with a given id."
      },
      "upgradeTo(address)": {
        "details": "Upgrade the implementation of the proxy to `newImplementation`. Calls {_authorizeUpgrade}. Emits an {Upgraded} event."
      },
      "upgradeToAndCall(address,bytes)": {
        "details": "Upgrade the implementation of the proxy to `newImplementation`, and subsequently execute the function call encoded in `data`. Calls {_authorizeUpgrade}. Emits an {Upgraded} event."
      },
      "uri(uint256)": {
        "details": "See {IERC1155MetadataURI-uri}. This implementation returns the same URI for *all* token types. It relies on the token type ID substitution mechanism https://eips.ethereum.org/EIPS/eip-1155#metadata[defined in the EIP]. Clients calling this function must replace the `\\{id\\}` substring with the actual token type ID."
      }
    },
    "version": 1
  },
  "userdoc": {
    "kind": "user",
    "methods": {},
    "version": 1
  }
}