{
  "contractName": "Project",
  "abi": [
    {
      "inputs": [],
      "stateMutability": "nonpayable",
      "type": "constructor"
    },
    {
      "anonymous": false,
      "inputs": [
        {
          "indexed": true,
          "internalType": "address",
          "name": "from",
          "type": "address"
        },
        {
          "indexed": true,
          "internalType": "uint256",
          "name": "tokenId",
          "type": "uint256"
        },
        {
          "indexed": false,
          "internalType": "uint256",
          "name": "amount",
          "type": "uint256"
        },
        {
          "indexed": true,
          "internalType": "enum AdminActionReason",
          "name": "reason",
          "type": "uint8"
        }
      ],
      "name": "AdminBurn",
      "type": "event"
    },
    {
      "anonymous": false,
      "inputs": [
        {
          "indexed": false,
          "internalType": "address",
          "name": "previousAdmin",
          "type": "address"
        },
        {
          "indexed": false,
          "internalType": "address",
          "name": "newAdmin",
          "type": "address"
        }
      ],
      "name": "AdminChanged",
      "type": "event"
    },
    {
      "anonymous": false,
      "inputs": [
        {
          "indexed": true,
          "internalType": "address",
          "name": "from",
          "type": "address"
        },
        {
          "indexed": false,
          "internalType": "address",
          "name": "to",
          "type": "address"
        },
        {
          "indexed": true,
          "internalType": "uint256",
          "name": "tokenId",
          "type": "uint256"
        },
        {
          "indexed": false,
          "internalType": "uint256",
          "name": "amount",
          "type": "uint256"
        },
        {
          "indexed": true,
          "internalType": "enum AdminActionReason",
          "name": "reason",
          "type": "uint8"
        }
      ],
      "name": "AdminClawback",
      "type": "event"
    },
    {
      "anonymous": false,
      "inputs": [
        {
          "indexed": true,
          "internalType": "address",
          "name": "account",
          "type": "address"
        },
        {
          "indexed": true,
          "internalType": "address",
          "name": "operator",
          "type": "address"
        },
        {
          "indexed": false,
          "internalType": "bool",
          "name": "approved",
          "type": "bool"
        }
      ],
      "name": "ApprovalForAll",
      "type": "event"
    },
    {
      "anonymous": false,
      "inputs": [
        {
          "indexed": true,
          "internalType": "address",
          "name": "beacon",
          "type": "address"
        }
      ],
      "name": "BeaconUpgraded",
      "type": "event"
    },
    {
      "anonymous": false,
      "inputs": [
        {
          "indexed": true,
          "internalType": "uint256",
          "name": "tokenId",
          "type": "uint256"
        },
        {
          "indexed": false,
          "internalType": "uint256",
          "name": "estimatedAmount",
          "type": "uint256"
        },
        {
          "indexed": true,
          "internalType": "string",
          "name": "serialization",
          "type": "string"
        }
      ],
      "name": "ExPostCreated",
      "type": "event"
    },
    {
      "anonymous": false,
      "inputs": [
        {
          "indexed": true,
          "internalType": "uint256",
          "name": "tokenId",
          "type": "uint256"
        },
        {
          "indexed": false,
          "internalType": "uint256",
          "name": "amount",
          "type": "uint256"
        },
        {
          "indexed": false,
          "internalType": "string",
          "name": "monitoringReport",
          "type": "string"
        },
        {
          "indexed": false,
          "internalType": "bool",
          "name": "isVintageFullyVerified",
          "type": "bool"
        }
      ],
      "name": "ExPostVerifiedAndMinted",
      "type": "event"
    },
    {
      "anonymous": false,
      "inputs": [
        {
          "indexed": true,
          "internalType": "address",
          "name": "account",
          "type": "address"
        },
        {
          "indexed": true,
          "internalType": "uint256",
          "name": "exPostTokenId",
          "type": "uint256"
        },
        {
          "indexed": false,
          "internalType": "uint256",
          "name": "exPostAmountReceived",
          "type": "uint256"
        },
        {
          "indexed": false,
          "internalType": "uint256",
          "name": "exAnteAmountBurned",
          "type": "uint256"
        }
      ],
      "name": "ExchangeAnteForPost",
      "type": "event"
    },
    {
      "anonymous": false,
      "inputs": [
        {
          "indexed": false,
          "internalType": "uint8",
          "name": "version",
          "type": "uint8"
        }
      ],
      "name": "Initialized",
      "type": "event"
    },
    {
      "anonymous": false,
      "inputs": [
        {
          "indexed": false,
          "internalType": "address",
          "name": "account",
          "type": "address"
        }
      ],
      "name": "Paused",
      "type": "event"
    },
    {
      "anonymous": false,
      "inputs": [
        {
          "indexed": true,
          "internalType": "address",
          "name": "account",
          "type": "address"
        },
        {
          "indexed": true,
          "internalType": "uint256",
          "name": "tokenId",
          "type": "uint256"
        },
        {
          "indexed": false,
          "internalType": "uint256",
          "name": "amount",
          "type": "uint256"
        }
      ],
      "name": "RetiredVintage",
      "type": "event"
    },
    {
      "anonymous": false,
      "inputs": [
        {
          "indexed": true,
          "internalType": "bytes32",
          "name": "role",
          "type": "bytes32"
        },
        {
          "indexed": true,
          "internalType": "bytes32",
          "name": "previousAdminRole",
          "type": "bytes32"
        },
        {
          "indexed": true,
          "internalType": "bytes32",
          "name": "newAdminRole",
          "type": "bytes32"
        }
      ],
      "name": "RoleAdminChanged",
      "type": "event"
    },
    {
      "anonymous": false,
      "inputs": [
        {
          "indexed": true,
          "internalType": "bytes32",
          "name": "role",
          "type": "bytes32"
        },
        {
          "indexed": true,
          "internalType": "address",
          "name": "account",
          "type": "address"
        },
        {
          "indexed": true,
          "internalType": "address",
          "name": "sender",
          "type": "address"
        }
      ],
      "name": "RoleGranted",
      "type": "event"
    },
    {
      "anonymous": false,
      "inputs": [
        {
          "indexed": true,
          "internalType": "bytes32",
          "name": "role",
          "type": "bytes32"
        },
        {
          "indexed": true,
          "internalType": "address",
          "name": "account",
          "type": "address"
        },
        {
          "indexed": true,
          "internalType": "address",
          "name": "sender",
          "type": "address"
        }
      ],
      "name": "RoleRevoked",
      "type": "event"
    },
    {
      "anonymous": false,
      "inputs": [
        {
          "indexed": true,
          "internalType": "address",
          "name": "from",
          "type": "address"
        },
        {
          "indexed": true,
          "internalType": "uint256",
          "name": "tokenId",
          "type": "uint256"
        },
        {
          "indexed": false,
          "internalType": "uint256",
          "name": "amount",
          "type": "uint256"
        }
      ],
      "name": "SignedRetire",
      "type": "event"
    },
    {
      "anonymous": false,
      "inputs": [
        {
          "indexed": true,
          "internalType": "address",
          "name": "from",
          "type": "address"
        },
        {
          "indexed": true,
          "internalType": "address",
          "name": "to",
          "type": "address"
        },
        {
          "indexed": true,
          "internalType": "uint256",
          "name": "tokenId",
          "type": "uint256"
        },
        {
          "indexed": false,
          "internalType": "uint256",
          "name": "amount",
          "type": "uint256"
        }
      ],
      "name": "SignedTransfer",
      "type": "event"
    },
    {
      "anonymous": false,
      "inputs": [
        {
          "indexed": true,
          "internalType": "address",
          "name": "operator",
          "type": "address"
        },
        {
          "indexed": true,
          "internalType": "address",
          "name": "from",
          "type": "address"
        },
        {
          "indexed": true,
          "internalType": "address",
          "name": "to",
          "type": "address"
        },
        {
          "indexed": false,
          "internalType": "uint256[]",
          "name": "ids",
          "type": "uint256[]"
        },
        {
          "indexed": false,
          "internalType": "uint256[]",
          "name": "values",
          "type": "uint256[]"
        }
      ],
      "name": "TransferBatch",
      "type": "event"
    },
    {
      "anonymous": false,
      "inputs": [
        {
          "indexed": true,
          "internalType": "address",
          "name": "operator",
          "type": "address"
        },
        {
          "indexed": true,
          "internalType": "address",
          "name": "from",
          "type": "address"
        },
        {
          "indexed": true,
          "internalType": "address",
          "name": "to",
          "type": "address"
        },
        {
          "indexed": false,
          "internalType": "uint256",
          "name": "id",
          "type": "uint256"
        },
        {
          "indexed": false,
          "internalType": "uint256",
          "name": "value",
          "type": "uint256"
        }
      ],
      "name": "TransferSingle",
      "type": "event"
    },
    {
      "anonymous": false,
      "inputs": [
        {
          "indexed": false,
          "internalType": "string",
          "name": "value",
          "type": "string"
        },
        {
          "indexed": true,
          "internalType": "uint256",
          "name": "id",
          "type": "uint256"
        }
      ],
      "name": "URI",
      "type": "event"
    },
    {
      "anonymous": false,
      "inputs": [
        {
          "indexed": false,
          "internalType": "address",
          "name": "account",
          "type": "address"
        }
      ],
      "name": "Unpaused",
      "type": "event"
    },
    {
      "anonymous": false,
      "inputs": [
        {
          "indexed": true,
          "internalType": "address",
          "name": "implementation",
          "type": "address"
        }
      ],
      "name": "Upgraded",
      "type": "event"
    },
    {
      "anonymous": false,
      "inputs": [
        {
          "indexed": true,
          "internalType": "uint256",
          "name": "tokenId",
          "type": "uint256"
        },
        {
          "indexed": false,
          "internalType": "uint256",
          "name": "newEstimate",
          "type": "uint256"
        },
        {
          "indexed": false,
          "internalType": "uint256",
          "name": "oldEstimate",
          "type": "uint256"
        },
        {
          "indexed": true,
          "internalType": "enum AdminActionReason",
          "name": "reason",
          "type": "uint8"
        }
      ],
      "name": "VintageMitigationEstimateChanged",
      "type": "event"
    },
    {
      "inputs": [],
      "name": "ANTE_MINTER_ROLE",
      "outputs": [
        {
          "internalType": "bytes32",
          "name": "",
          "type": "bytes32"
        }
      ],
      "stateMutability": "view",
      "type": "function"
    },
    {
      "inputs": [],
      "name": "BLACKLISTED",
      "outputs": [
        {
          "internalType": "bytes32",
          "name": "",
          "type": "bytes32"
        }
      ],
      "stateMutability": "view",
      "type": "function"
    },
    {
      "inputs": [],
      "name": "BLACKLISTER_ROLE",
      "outputs": [
        {
          "internalType": "bytes32",
          "name": "",
          "type": "bytes32"
        }
      ],
      "stateMutability": "view",
      "type": "function"
    },
    {
      "inputs": [],
      "name": "BURNER_ROLE",
      "outputs": [
        {
          "internalType": "bytes32",
          "name": "",
          "type": "bytes32"
        }
      ],
      "stateMutability": "view",
      "type": "function"
    },
    {
      "inputs": [],
      "name": "CLAWBACK_ROLE",
      "outputs": [
        {
          "internalType": "bytes32",
          "name": "",
          "type": "bytes32"
        }
      ],
      "stateMutability": "view",
      "type": "function"
    },
    {
      "inputs": [],
      "name": "DEFAULT_ADMIN_ROLE",
      "outputs": [
        {
          "internalType": "bytes32",
          "name": "",
          "type": "bytes32"
        }
      ],
      "stateMutability": "view",
      "type": "function"
    },
    {
      "inputs": [],
      "name": "MINTER_ROLE",
      "outputs": [
        {
          "internalType": "bytes32",
          "name": "",
          "type": "bytes32"
        }
      ],
      "stateMutability": "view",
      "type": "function"
    },
    {
      "inputs": [],
      "name": "PAUSER_ROLE",
      "outputs": [
        {
          "internalType": "bytes32",
          "name": "",
          "type": "bytes32"
        }
      ],
      "stateMutability": "view",
      "type": "function"
    },
    {
      "inputs": [],
      "name": "POST_MINTER_ROLE",
      "outputs": [
        {
          "internalType": "bytes32",
          "name": "",
          "type": "bytes32"
        }
      ],
      "stateMutability": "view",
      "type": "function"
    },
    {
      "inputs": [],
      "name": "UPGRADER_ROLE",
      "outputs": [
        {
          "internalType": "bytes32",
          "name": "",
          "type": "bytes32"
        }
      ],
      "stateMutability": "view",
      "type": "function"
    },
    {
      "inputs": [],
      "name": "URI_SETTER_ROLE",
      "outputs": [
        {
          "internalType": "bytes32",
          "name": "",
          "type": "bytes32"
        }
      ],
      "stateMutability": "view",
      "type": "function"
    },
    {
      "inputs": [],
      "name": "VERIFIER_ROLE",
      "outputs": [
        {
          "internalType": "bytes32",
          "name": "",
          "type": "bytes32"
        }
      ],
      "stateMutability": "view",
      "type": "function"
    },
    {
      "inputs": [
        {
          "internalType": "address",
          "name": "_contractRegistry",
          "type": "address"
        },
        {
          "internalType": "uint8",
          "name": "_maxAntePerc",
          "type": "uint8"
        },
        {
          "internalType": "uint256",
          "name": "_projectId",
          "type": "uint256"
        },
        {
          "internalType": "string",
          "name": "_projectName",
          "type": "string"
        }
      ],
      "name": "__ProjectStorage_init",
      "outputs": [],
      "stateMutability": "nonpayable",
      "type": "function"
    },
    {
      "inputs": [
        {
          "internalType": "address",
          "name": "account",
          "type": "address"
        },
        {
          "internalType": "uint256",
          "name": "id",
          "type": "uint256"
        }
      ],
      "name": "balanceOf",
      "outputs": [
        {
          "internalType": "uint256",
          "name": "",
          "type": "uint256"
        }
      ],
      "stateMutability": "view",
      "type": "function"
    },
    {
      "inputs": [
        {
          "internalType": "address[]",
          "name": "accounts",
          "type": "address[]"
        },
        {
          "internalType": "uint256[]",
          "name": "ids",
          "type": "uint256[]"
        }
      ],
      "name": "balanceOfBatch",
      "outputs": [
        {
          "internalType": "uint256[]",
          "name": "",
          "type": "uint256[]"
        }
      ],
      "stateMutability": "view",
      "type": "function"
    },
    {
      "inputs": [],
      "name": "contractRegistry",
      "outputs": [
        {
          "internalType": "address",
          "name": "",
          "type": "address"
        }
      ],
      "stateMutability": "view",
      "type": "function"
    },
    {
      "inputs": [
        {
          "internalType": "uint256",
          "name": "",
          "type": "uint256"
        }
      ],
      "name": "exAnteToExPostTokenId",
      "outputs": [
        {
          "internalType": "uint256",
          "name": "",
          "type": "uint256"
        }
      ],
      "stateMutability": "view",
      "type": "function"
    },
    {
      "inputs": [
        {
          "internalType": "uint256",
          "name": "",
          "type": "uint256"
        }
      ],
      "name": "exPostToExAnteTokenId",
      "outputs": [
        {
          "internalType": "uint256",
          "name": "",
          "type": "uint256"
        }
      ],
      "stateMutability": "view",
      "type": "function"
    },
    {
      "inputs": [
        {
          "internalType": "uint256",
          "name": "",
          "type": "uint256"
        }
      ],
      "name": "exPostVintageMapping",
      "outputs": [
        {
          "internalType": "string",
          "name": "serialization",
          "type": "string"
        },
        {
          "internalType": "uint256",
          "name": "estMitigations",
          "type": "uint256"
        },
        {
          "internalType": "bool",
          "name": "verified",
          "type": "bool"
        }
      ],
      "stateMutability": "view",
      "type": "function"
    },
    {
      "inputs": [
        {
          "internalType": "uint256",
          "name": "id",
          "type": "uint256"
        }
      ],
      "name": "exists",
      "outputs": [
        {
          "internalType": "bool",
          "name": "",
          "type": "bool"
        }
      ],
      "stateMutability": "view",
      "type": "function"
    },
    {
      "inputs": [
        {
          "internalType": "bytes32",
          "name": "role",
          "type": "bytes32"
        }
      ],
      "name": "getRoleAdmin",
      "outputs": [
        {
          "internalType": "bytes32",
          "name": "",
          "type": "bytes32"
        }
      ],
      "stateMutability": "view",
      "type": "function"
    },
    {
      "inputs": [
        {
          "internalType": "bytes32",
          "name": "role",
          "type": "bytes32"
        },
        {
          "internalType": "address",
          "name": "account",
          "type": "address"
        }
      ],
      "name": "grantRole",
      "outputs": [],
      "stateMutability": "nonpayable",
      "type": "function"
    },
    {
      "inputs": [
        {
          "internalType": "bytes32",
          "name": "role",
          "type": "bytes32"
        },
        {
          "internalType": "address",
          "name": "account",
          "type": "address"
        }
      ],
      "name": "hasRole",
      "outputs": [
        {
          "internalType": "bool",
          "name": "",
          "type": "bool"
        }
      ],
      "stateMutability": "view",
      "type": "function"
    },
    {
      "inputs": [
        {
          "internalType": "address",
          "name": "account",
          "type": "address"
        },
        {
          "internalType": "address",
          "name": "operator",
          "type": "address"
        }
      ],
      "name": "isApprovedForAll",
      "outputs": [
        {
          "internalType": "bool",
          "name": "",
          "type": "bool"
        }
      ],
      "stateMutability": "view",
      "type": "function"
    },
    {
      "inputs": [],
      "name": "maxAntePercentage",
      "outputs": [
        {
          "internalType": "uint8",
          "name": "",
          "type": "uint8"
        }
      ],
      "stateMutability": "view",
      "type": "function"
    },
    {
      "inputs": [],
      "name": "paused",
      "outputs": [
        {
          "internalType": "bool",
          "name": "",
          "type": "bool"
        }
      ],
      "stateMutability": "view",
      "type": "function"
    },
    {
      "inputs": [],
      "name": "projectId",
      "outputs": [
        {
          "internalType": "uint256",
          "name": "",
          "type": "uint256"
        }
      ],
      "stateMutability": "view",
      "type": "function"
    },
    {
      "inputs": [],
      "name": "projectName",
      "outputs": [
        {
          "internalType": "string",
          "name": "",
          "type": "string"
        }
      ],
      "stateMutability": "view",
      "type": "function"
    },
    {
      "inputs": [],
      "name": "proxiableUUID",
      "outputs": [
        {
          "internalType": "bytes32",
          "name": "",
          "type": "bytes32"
        }
      ],
      "stateMutability": "view",
      "type": "function"
    },
    {
      "inputs": [
        {
          "internalType": "bytes32",
          "name": "role",
          "type": "bytes32"
        },
        {
          "internalType": "address",
          "name": "account",
          "type": "address"
        }
      ],
      "name": "renounceRole",
      "outputs": [],
      "stateMutability": "nonpayable",
      "type": "function"
    },
    {
      "inputs": [
        {
          "internalType": "uint256",
          "name": "",
          "type": "uint256"
        }
      ],
      "name": "retirementMapping",
      "outputs": [
        {
          "internalType": "address",
          "name": "retireeAddress",
          "type": "address"
        },
        {
          "internalType": "uint256",
          "name": "amount",
          "type": "uint256"
        },
        {
          "internalType": "uint256",
          "name": "vintageTokenId",
          "type": "uint256"
        },
        {
          "internalType": "string",
          "name": "retiree",
          "type": "string"
        },
        {
          "internalType": "string",
          "name": "customUri",
          "type": "string"
        },
        {
          "internalType": "string",
          "name": "comment",
          "type": "string"
        }
      ],
      "stateMutability": "view",
      "type": "function"
    },
    {
      "inputs": [
        {
          "internalType": "bytes32",
          "name": "role",
          "type": "bytes32"
        },
        {
          "internalType": "address",
          "name": "account",
          "type": "address"
        }
      ],
      "name": "revokeRole",
      "outputs": [],
      "stateMutability": "nonpayable",
      "type": "function"
    },
    {
      "inputs": [
        {
          "internalType": "address",
          "name": "from",
          "type": "address"
        },
        {
          "internalType": "address",
          "name": "to",
          "type": "address"
        },
        {
          "internalType": "uint256[]",
          "name": "ids",
          "type": "uint256[]"
        },
        {
          "internalType": "uint256[]",
          "name": "amounts",
          "type": "uint256[]"
        },
        {
          "internalType": "bytes",
          "name": "data",
          "type": "bytes"
        }
      ],
      "name": "safeBatchTransferFrom",
      "outputs": [],
      "stateMutability": "nonpayable",
      "type": "function"
    },
    {
      "inputs": [
        {
          "internalType": "address",
          "name": "from",
          "type": "address"
        },
        {
          "internalType": "address",
          "name": "to",
          "type": "address"
        },
        {
          "internalType": "uint256",
          "name": "id",
          "type": "uint256"
        },
        {
          "internalType": "uint256",
          "name": "amount",
          "type": "uint256"
        },
        {
          "internalType": "bytes",
          "name": "data",
          "type": "bytes"
        }
      ],
      "name": "safeTransferFrom",
      "outputs": [],
      "stateMutability": "nonpayable",
      "type": "function"
    },
    {
      "inputs": [
        {
          "internalType": "string",
          "name": "",
          "type": "string"
        }
      ],
      "name": "serializationToExPostTokenIdMapping",
      "outputs": [
        {
          "internalType": "uint256",
          "name": "",
          "type": "uint256"
        }
      ],
      "stateMutability": "view",
      "type": "function"
    },
    {
      "inputs": [
        {
          "internalType": "address",
          "name": "operator",
          "type": "address"
        },
        {
          "internalType": "bool",
          "name": "approved",
          "type": "bool"
        }
      ],
      "name": "setApprovalForAll",
      "outputs": [],
      "stateMutability": "nonpayable",
      "type": "function"
    },
    {
      "inputs": [
        {
          "internalType": "address",
          "name": "",
          "type": "address"
        }
      ],
      "name": "signatureNonces",
      "outputs": [
        {
          "internalType": "uint32",
          "name": "",
          "type": "uint32"
        }
      ],
      "stateMutability": "view",
      "type": "function"
    },
    {
      "inputs": [
        {
          "internalType": "uint256",
          "name": "id",
          "type": "uint256"
        }
      ],
      "name": "totalSupply",
      "outputs": [
        {
          "internalType": "uint256",
          "name": "",
          "type": "uint256"
        }
      ],
      "stateMutability": "view",
      "type": "function"
    },
    {
      "inputs": [
        {
          "internalType": "address",
          "name": "newImplementation",
          "type": "address"
        }
      ],
      "name": "upgradeTo",
      "outputs": [],
      "stateMutability": "nonpayable",
      "type": "function"
    },
    {
      "inputs": [
        {
          "internalType": "address",
          "name": "newImplementation",
          "type": "address"
        },
        {
          "internalType": "bytes",
          "name": "data",
          "type": "bytes"
        }
      ],
      "name": "upgradeToAndCall",
      "outputs": [],
      "stateMutability": "payable",
      "type": "function"
    },
    {
      "inputs": [
        {
          "internalType": "uint256",
          "name": "",
          "type": "uint256"
        }
      ],
      "name": "uri",
      "outputs": [
        {
          "internalType": "string",
          "name": "",
          "type": "string"
        }
      ],
      "stateMutability": "view",
      "type": "function"
    },
    {
      "inputs": [
        {
          "internalType": "address",
          "name": "_contractRegistry",
          "type": "address"
        },
        {
          "internalType": "address",
          "name": "_owner",
          "type": "address"
        },
        {
          "internalType": "uint256",
          "name": "_projectId",
          "type": "uint256"
        },
        {
          "internalType": "string",
          "name": "_projectName",
          "type": "string"
        }
      ],
      "name": "initialize",
      "outputs": [],
      "stateMutability": "nonpayable",
      "type": "function"
    },
    {
      "inputs": [
        {
          "internalType": "uint256",
          "name": "tokenId",
          "type": "uint256"
        }
      ],
      "name": "isExPostToken",
      "outputs": [
        {
          "internalType": "bool",
          "name": "",
          "type": "bool"
        }
      ],
      "stateMutability": "view",
      "type": "function"
    },
    {
      "inputs": [
        {
          "internalType": "uint256",
          "name": "estAmount",
          "type": "uint256"
        },
        {
          "internalType": "string",
          "name": "serialization",
          "type": "string"
        }
      ],
      "name": "createExPostVintage",
      "outputs": [],
      "stateMutability": "nonpayable",
      "type": "function"
    },
    {
      "inputs": [
        {
          "internalType": "uint256[]",
          "name": "estAmounts",
          "type": "uint256[]"
        },
        {
          "internalType": "string[]",
          "name": "serializations",
          "type": "string[]"
        }
      ],
      "name": "createExPostVintageBatch",
      "outputs": [],
      "stateMutability": "nonpayable",
      "type": "function"
    },
    {
      "inputs": [
        {
          "internalType": "address",
          "name": "account",
          "type": "address"
        },
        {
          "internalType": "uint256",
          "name": "exPostTokenId",
          "type": "uint256"
        },
        {
          "internalType": "uint256",
          "name": "amount",
          "type": "uint256"
        },
        {
          "internalType": "bytes",
          "name": "data",
          "type": "bytes"
        }
      ],
      "name": "mintExAnte",
      "outputs": [],
      "stateMutability": "nonpayable",
      "type": "function"
    },
    {
      "inputs": [
        {
          "internalType": "uint256",
          "name": "tokenId",
          "type": "uint256"
        },
        {
          "internalType": "uint256",
          "name": "newEstAmount",
          "type": "uint256"
        },
        {
          "internalType": "enum AdminActionReason",
          "name": "reason",
          "type": "uint8"
        }
      ],
      "name": "changeVintageMitigationEstimate",
      "outputs": [],
      "stateMutability": "nonpayable",
      "type": "function"
    },
    {
      "inputs": [
        {
          "internalType": "address",
          "name": "verificationVault",
          "type": "address"
        },
        {
          "internalType": "uint256",
          "name": "tokenId",
          "type": "uint256"
        },
        {
          "internalType": "uint256",
          "name": "amountVerified",
          "type": "uint256"
        },
        {
          "internalType": "uint256",
          "name": "amountToAnteHolders",
          "type": "uint256"
        },
        {
          "internalType": "bool",
          "name": "isVintageVerificationComplete",
          "type": "bool"
        },
        {
          "internalType": "string",
          "name": "monitoringReport",
          "type": "string"
        }
      ],
      "name": "verifyAndMintExPost",
      "outputs": [],
      "stateMutability": "nonpayable",
      "type": "function"
    },
    {
      "inputs": [
        {
          "internalType": "address",
          "name": "from",
          "type": "address"
        },
        {
          "internalType": "uint256",
          "name": "tokenId",
          "type": "uint256"
        },
        {
          "internalType": "uint256",
          "name": "amount",
          "type": "uint256"
        },
        {
          "internalType": "enum AdminActionReason",
          "name": "reason",
          "type": "uint8"
        }
      ],
      "name": "adminBurn",
      "outputs": [],
      "stateMutability": "nonpayable",
      "type": "function"
    },
    {
      "inputs": [
        {
          "internalType": "address",
          "name": "from",
          "type": "address"
        },
        {
          "internalType": "address",
          "name": "to",
          "type": "address"
        },
        {
          "internalType": "uint256",
          "name": "tokenId",
          "type": "uint256"
        },
        {
          "internalType": "uint256",
          "name": "amount",
          "type": "uint256"
        },
        {
          "internalType": "enum AdminActionReason",
          "name": "reason",
          "type": "uint8"
        }
      ],
      "name": "adminClawback",
      "outputs": [],
      "stateMutability": "nonpayable",
      "type": "function"
    },
    {
      "inputs": [
        {
          "internalType": "address[]",
          "name": "accounts",
          "type": "address[]"
        },
        {
          "internalType": "uint256",
          "name": "exPostTokenId",
          "type": "uint256"
        },
        {
          "internalType": "bytes",
          "name": "data",
          "type": "bytes"
        }
      ],
      "name": "exchangeAnteForPostEvenSteven",
      "outputs": [],
      "stateMutability": "nonpayable",
      "type": "function"
    },
    {
      "inputs": [
        {
          "internalType": "uint256",
          "name": "exAnteTokenId",
          "type": "uint256"
        }
      ],
      "name": "getExPostVintageData",
      "outputs": [
        {
          "components": [
            {
              "internalType": "string",
              "name": "serialization",
              "type": "string"
            },
            {
              "internalType": "uint256",
              "name": "estMitigations",
              "type": "uint256"
            },
            {
              "internalType": "bool",
              "name": "verified",
              "type": "bool"
            }
          ],
          "internalType": "struct VintageData",
          "name": "",
          "type": "tuple"
        }
      ],
      "stateMutability": "view",
      "type": "function"
    },
    {
      "inputs": [
        {
          "internalType": "bytes",
          "name": "signature",
          "type": "bytes"
        },
        {
          "components": [
            {
              "internalType": "uint256",
              "name": "deadline",
              "type": "uint256"
            },
            {
              "internalType": "string",
              "name": "description",
              "type": "string"
            },
            {
              "internalType": "address",
              "name": "signer",
              "type": "address"
            },
            {
              "internalType": "address",
              "name": "to",
              "type": "address"
            },
            {
              "internalType": "uint256",
              "name": "tokenId",
              "type": "uint256"
            },
            {
              "internalType": "uint256",
              "name": "amount",
              "type": "uint256"
            },
            {
              "internalType": "uint256",
              "name": "nonce",
              "type": "uint256"
            }
          ],
          "internalType": "struct signatureTransferPayload",
          "name": "payload",
          "type": "tuple"
        },
        {
          "internalType": "bytes",
          "name": "data",
          "type": "bytes"
        }
      ],
      "name": "transferFromSignature",
      "outputs": [],
      "stateMutability": "payable",
      "type": "function"
    },
    {
      "inputs": [
        {
          "internalType": "uint256",
          "name": "tokenId",
          "type": "uint256"
        },
        {
          "internalType": "uint256",
          "name": "amount",
          "type": "uint256"
        },
        {
          "internalType": "bytes",
          "name": "data",
          "type": "bytes"
        }
      ],
      "name": "retire",
      "outputs": [],
      "stateMutability": "nonpayable",
      "type": "function"
    },
    {
      "inputs": [
        {
          "internalType": "bytes",
          "name": "signature",
          "type": "bytes"
        },
        {
          "components": [
            {
              "internalType": "uint256",
              "name": "deadline",
              "type": "uint256"
            },
            {
              "internalType": "string",
              "name": "description",
              "type": "string"
            },
            {
              "internalType": "address",
              "name": "signer",
              "type": "address"
            },
            {
              "internalType": "address",
              "name": "to",
              "type": "address"
            },
            {
              "internalType": "uint256",
              "name": "tokenId",
              "type": "uint256"
            },
            {
              "internalType": "uint256",
              "name": "amount",
              "type": "uint256"
            },
            {
              "internalType": "uint256",
              "name": "nonce",
              "type": "uint256"
            }
          ],
          "internalType": "struct signatureTransferPayload",
          "name": "payload",
          "type": "tuple"
        }
      ],
      "name": "retireFromSignature",
      "outputs": [],
      "stateMutability": "payable",
      "type": "function"
    },
    {
      "inputs": [
        {
          "internalType": "string",
          "name": "newuri",
          "type": "string"
        }
      ],
      "name": "setURI",
      "outputs": [],
      "stateMutability": "nonpayable",
      "type": "function"
    },
    {
      "inputs": [],
      "name": "pause",
      "outputs": [],
      "stateMutability": "nonpayable",
      "type": "function"
    },
    {
      "inputs": [],
      "name": "unpause",
      "outputs": [],
      "stateMutability": "nonpayable",
      "type": "function"
    },
    {
      "inputs": [
        {
          "internalType": "bytes4",
          "name": "interfaceId",
          "type": "bytes4"
        }
      ],
      "name": "supportsInterface",
      "outputs": [
        {
          "internalType": "bool",
          "name": "",
          "type": "bool"
        }
      ],
      "stateMutability": "view",
      "type": "function"
    }
  ],
  "bytecode": "0x60a0604052306080523480156200001557600080fd5b506200002062000026565b620000e8565b600054610100900460ff1615620000935760405162461bcd60e51b815260206004820152602760248201527f496e697469616c697a61626c653a20636f6e747261637420697320696e697469604482015266616c697a696e6760c81b606482015260840160405180910390fd5b60005460ff9081161015620000e6576000805460ff191660ff9081179091556040519081527f7f26b83ff96e1f2b6a682f133852f6798a09c465da95921460cefb38474024989060200160405180910390a15b565b6080516157f26200012060003960008181611161015281816111a1015281816114280152818161146801526114f301526157f26000f3fe60806040526004361061029b5760003560e01c8062fdd58e146102a057806301ffc9a7146102d357806302fe5305146103035780630cda95f9146103255780630e89341c1461034557806310c1e7a1146103725780631b3b596b14610392578063248a9ca3146103bf578063282c51f3146103df5780632ea05e44146104015780632eb2c2d6146104235780632f2ff15d146104435780633584c3841461046357806336568abe146104915780633659cfe6146104b15780633f4ba83a146104d15780633fafa127146104e6578063453b9714146104fd5780634e1273f41461051d5780634f1ef2861461054a5780634f558e791461055d57806352d1902d1461057d57806354ff07951461059257806357c537af146105cb5780635c975abb146105eb5780635e3bbaab14610603578063610e7012146106255780636929a19c146106525780636f63984d14610684578063728e68e3146106a45780637a8d709b146106d35780637f345710146106f35780638456cb5914610715578063865d3ade1461072a5780638f76c1da1461073d57806391d148541461076b57806396f495ae1461078b5780639a33e300146107ab5780639d88358a146107c05780639fec600b146107e0578063a217fddf14610800578063a22cb46514610815578063aa8b2ea714610835578063abf410e514610857578063bd85b0391461088a578063d4f03215146108aa578063d5391393146108ca578063d547741f146108fe578063dbd8483d1461091e578063deb0420714610967578063e36408d014610987578063e63ab1e91461099a578063e7705db6146109bc578063e985e9c5146109de578063edc0b2e614610a27578063f242432a14610a49578063f515e6f214610a69578063f72c0d8b14610a8b578063f891b38f14610aad575b600080fd5b3480156102ac57600080fd5b506102c06102bb3660046142f4565b610acd565b6040519081526020015b60405180910390f35b3480156102df57600080fd5b506102f36102ee366004614334565b610b65565b60405190151581526020016102ca565b34801561030f57600080fd5b5061032361031e366004614406565b610b76565b005b34801561033157600080fd5b506103236103403660046144d5565b610b9b565b34801561035157600080fd5b50610365610360366004614541565b610d93565b6040516102ca91906145b2565b34801561037e57600080fd5b5061032361038d3660046145c5565b610e27565b34801561039e57600080fd5b506103b26103ad366004614541565b610f57565b6040516102ca9190614625565b3480156103cb57600080fd5b506102c06103da366004614541565b61105b565b3480156103eb57600080fd5b506102c06000805160206155b683398151915281565b34801561040d57600080fd5b506102c060008051602061575d83398151915281565b34801561042f57600080fd5b5061032361043e3660046146c9565b611070565b34801561044f57600080fd5b5061032361045e366004614772565b6110bc565b34801561046f57600080fd5b506102c061047e366004614541565b6101fd6020526000908152604090205481565b34801561049d57600080fd5b506103236104ac366004614772565b6110dd565b3480156104bd57600080fd5b506103236104cc36600461479e565b611157565b3480156104dd57600080fd5b5061032361121f565b3480156104f257600080fd5b506102c06101f85481565b34801561050957600080fd5b506103236105183660046147b9565b61123f565b34801561052957600080fd5b5061053d6105383660046147fe565b6112f5565b6040516102ca919061489c565b6103236105583660046148af565b61141e565b34801561056957600080fd5b506102f3610578366004614541565b6114d3565b34801561058957600080fd5b506102c06114e6565b34801561059e57600080fd5b506102c06105ad366004614406565b80516020818301810180516101fe8252928201919093012091525481565b3480156105d757600080fd5b506103236105e6366004614901565b611595565b3480156105f757600080fd5b5060c95460ff166102f3565b34801561060f57600080fd5b506102c060008051602061577d83398151915281565b34801561063157600080fd5b506101fa546106409060ff1681565b60405160ff90911681526020016102ca565b34801561065e57600080fd5b5061067261066d366004614541565b611676565b6040516102ca96959493929190614936565b34801561069057600080fd5b506102f361069f366004614541565b611850565b3480156106b057600080fd5b506106c46106bf366004614541565b611877565b6040516102ca93929190614996565b3480156106df57600080fd5b506103236106ee3660046149c0565b611926565b3480156106ff57600080fd5b506102c06000805160206156b683398151915281565b34801561072157600080fd5b50610323611a0f565b610323610738366004614af8565b611a2f565b34801561074957600080fd5b506102c0610758366004614541565b6101fc6020526000908152604090205481565b34801561077757600080fd5b506102f3610786366004614772565b611d0e565b34801561079757600080fd5b506103236107a6366004614b56565b611d39565b3480156107b757600080fd5b50610365611e40565b3480156107cc57600080fd5b506103236107db366004614bad565b611ecf565b3480156107ec57600080fd5b506103236107fb366004614bf3565b611f4f565b34801561080c57600080fd5b506102c0600081565b34801561082157600080fd5b50610323610830366004614c30565b61211e565b34801561084157600080fd5b506102c060008051602061569683398151915281565b34801561086357600080fd5b506101fa5461087d9061010090046001600160a01b031681565b6040516102ca9190614c5a565b34801561089657600080fd5b506102c06108a5366004614541565b612129565b3480156108b657600080fd5b506103236108c5366004614c6e565b61213b565b3480156108d657600080fd5b506102c07f9f2df0fed2c77648de5860a4cc508cd0818c85b8b8a1ab4ceeef8d981c8956a681565b34801561090a57600080fd5b50610323610919366004614772565b6122c0565b34801561092a57600080fd5b5061095261093936600461479e565b6101c56020526000908152604090205463ffffffff1681565b60405163ffffffff90911681526020016102ca565b34801561097357600080fd5b50610323610982366004614ce7565b6122dc565b610323610995366004614d3e565b612373565b3480156109a657600080fd5b506102c06000805160206156f683398151915281565b3480156109c857600080fd5b506102c060008051602061579d83398151915281565b3480156109ea57600080fd5b506102f36109f9366004614dbf565b6001600160a01b03918216600090815260666020908152604080832093909416825291909152205460ff1690565b348015610a3357600080fd5b506102c060008051602061561683398151915281565b348015610a5557600080fd5b50610323610a64366004614de9565b6124fb565b348015610a7557600080fd5b506102c060008051602061573d83398151915281565b348015610a9757600080fd5b506102c060008051602061565683398151915281565b348015610ab957600080fd5b50610323610ac8366004614e4d565b612540565b60006001600160a01b038316610b3d5760405162461bcd60e51b815260206004820152602a60248201527f455243313135353a2061646472657373207a65726f206973206e6f742061207660448201526930b634b21037bbb732b960b11b60648201526084015b60405180910390fd5b5060009081526065602090815260408083206001600160a01b03949094168352929052205490565b6000610b70826126aa565b92915050565b6000805160206156b6833981519152610b8e816126cf565b610b97826126d9565b5050565b81610ba581611850565b610bc15760405162461bcd60e51b8152600401610b3490614e7d565b60008381526101fb6020526040902060020154600190849060ff1615158214610bfc5760405162461bcd60e51b8152600401610b3490614eb3565b60008581526101fd602052604081205490819003610c575760405162461bcd60e51b815260206004820152601860248201527750726f6a6563743a204e6f20616e746520686f6c6465727360401b6044820152606401610b34565b6000610c6282612129565b90506000610c703089610acd565b905060005b8951811015610d87576000610ca38b8381518110610c9557610c95614ef5565b602002602001015186610acd565b9050600084610cb28584614f21565b610cbc9190614f40565b90508181811115610cca5750805b610cee8d8581518110610cdf57610cdf614ef5565b602002602001015188836126ec565b610d14308e8681518110610d0457610d04614ef5565b60200260200101518e858f612876565b8b8d8581518110610d2757610d27614ef5565b60200260200101516001600160a01b03167ffa5cd0fcb25938b2f45b3ca175241bfb3739cf4db3cb7476846930ec714f13f28484604051610d69929190614f62565b60405180910390a35050508080610d7f90614f70565b915050610c75565b50505050505050505050565b606060678054610da290614f89565b80601f0160208091040260200160405190810160405280929190818152602001828054610dce90614f89565b8015610e1b5780601f10610df057610100808354040283529160200191610e1b565b820191906000526020600020905b815481529060010190602001808311610dfe57829003601f168201915b50505050509050919050565b600080516020615616833981519152610e3f816126cf565b83610e4981611850565b610e655760405162461bcd60e51b8152600401610b3490614e7d565b60008581526101fd602052604081205490819003610e9d57506101f780546001019081905560008681526101fd602052604090208190555b60008681526101fb60205260408120600101546101fa54909190606490610ec79060ff1684614f21565b610ed19190614f40565b90506000610ede84612129565b905081610eeb8983614fbd565b1115610f395760405162461bcd60e51b815260206004820152601e60248201527f4d6178696d756d206578416e746520737570706c7920657863656564656400006044820152606401610b34565b60008481526101fc60205260409020899055610d878a858a8a6129ac565b610f7d604051806060016040528060608152602001600081526020016000151581525090565b60008281526101fd60209081526040808320548084526101fb90925291829020825160608101909352805491929182908290610fb890614f89565b80601f0160208091040260200160405190810160405280929190818152602001828054610fe490614f89565b80156110315780601f1061100657610100808354040283529160200191611031565b820191906000526020600020905b81548152906001019060200180831161101457829003601f168201915b50505091835250506001820154602082015260029091015460ff1615156040909101529392505050565b60009081526097602052604090206001015490565b6001600160a01b03851633148061108c575061108c85336109f9565b6110a85760405162461bcd60e51b8152600401610b3490614fd5565b6110b58585858585612ac4565b5050505050565b6110c58261105b565b6110ce816126cf565b6110d88383612cb2565b505050565b6001600160a01b038116331461114d5760405162461bcd60e51b815260206004820152602f60248201527f416363657373436f6e74726f6c3a2063616e206f6e6c792072656e6f756e636560448201526e103937b632b9903337b91039b2b63360891b6064820152608401610b34565b610b978282612d38565b6001600160a01b037f000000000000000000000000000000000000000000000000000000000000000016300361119f5760405162461bcd60e51b8152600401610b3490615023565b7f00000000000000000000000000000000000000000000000000000000000000006001600160a01b03166111d1612d9f565b6001600160a01b0316146111f75760405162461bcd60e51b8152600401610b349061505d565b61120081612dbb565b6040805160008082526020820190925261121c91839190612dd3565b50565b6000805160206156f6833981519152611237816126cf565b61121c612f3e565b8261124981611850565b6112655760405162461bcd60e51b8152600401610b3490614e7d565b60008481526101fb6020526040902060020154600190859060ff16151582146112a05760405162461bcd60e51b8152600401610b3490614eb3565b6112ab3387876126ec565b6112b6338787612f8a565b604051858152869033907f76c326369c01c2a3cf6ac91d4d50094c6203b1122fa83b500f9e3d12f3a8c9639060200160405180910390a3505050505050565b6060815183511461135a5760405162461bcd60e51b815260206004820152602960248201527f455243313135353a206163636f756e747320616e6420696473206c656e677468604482015268040dad2e6dac2e8c6d60bb1b6064820152608401610b34565b600083516001600160401b0381111561137557611375614351565b60405190808252806020026020018201604052801561139e578160200160208202803683370190505b50905060005b8451811015611416576113e98582815181106113c2576113c2614ef5565b60200260200101518583815181106113dc576113dc614ef5565b6020026020010151610acd565b8282815181106113fb576113fb614ef5565b602090810291909101015261140f81614f70565b90506113a4565b509392505050565b6001600160a01b037f00000000000000000000000000000000000000000000000000000000000000001630036114665760405162461bcd60e51b8152600401610b3490615023565b7f00000000000000000000000000000000000000000000000000000000000000006001600160a01b0316611498612d9f565b6001600160a01b0316146114be5760405162461bcd60e51b8152600401610b349061505d565b6114c782612dbb565b610b9782826001612dd3565b6000806114df83612129565b1192915050565b6000306001600160a01b037f000000000000000000000000000000000000000000000000000000000000000016146115815760405162461bcd60e51b815260206004820152603860248201527f555550535570677261646561626c653a206d757374206e6f742062652063616c6044820152771b1959081d1a1c9bdd59da0819195b1959d85d1958d85b1b60421b6064820152608401610b34565b506000805160206156768339815191525b90565b60006115a0816126cf565b836115aa81611850565b6115c65760405162461bcd60e51b8152600401610b3490614e7d565b60008581526101fb6020526040812060020154869060ff16156115fb5760405162461bcd60e51b8152600401610b3490614eb3565b84600481111561160d5761160d615097565b60008881526101fb60205260409081902060010154905189917f79ad675a154518428a5aa59f22c834871a66d54a46e3f4c8c5b4ee08fb576c2e91611653918b91614f62565b60405180910390a3505050600093845250506101fb602052604090912060010155565b6101ff6020526000908152604090208054600182015460028301546003840180546001600160a01b039094169492939192916116b190614f89565b80601f01602080910402602001604051908101604052809291908181526020018280546116dd90614f89565b801561172a5780601f106116ff5761010080835404028352916020019161172a565b820191906000526020600020905b81548152906001019060200180831161170d57829003601f168201915b50505050509080600401805461173f90614f89565b80601f016020809104026020016040519081016040528092919081815260200182805461176b90614f89565b80156117b85780601f1061178d576101008083540402835291602001916117b8565b820191906000526020600020905b81548152906001019060200180831161179b57829003601f168201915b5050505050908060050180546117cd90614f89565b80601f01602080910402602001604051908101604052809291908181526020018280546117f990614f89565b80156118465780601f1061181b57610100808354040283529160200191611846565b820191906000526020600020905b81548152906001019060200180831161182957829003601f168201915b5050505050905086565b60008181526101fb60205260408120805482919061186d90614f89565b9050119050919050565b6101fb6020526000908152604090208054819061189390614f89565b80601f01602080910402602001604051908101604052809291908181526020018280546118bf90614f89565b801561190c5780601f106118e15761010080835404028352916020019161190c565b820191906000526020600020905b8154815290600101906020018083116118ef57829003601f168201915b50505050600183015460029093015491929160ff16905083565b60008051602061577d83398151915261193e816126cf565b81518351146119af5760405162461bcd60e51b815260206004820152603760248201527f50726f6a6563743a20416d6f756e747320616e642073657269616c697a6174696044820152760dedce640daeae6e840c4ca40e6c2daca40d8cadccee8d604b1b6064820152608401610b34565b60005b8351811015611a09576119f78482815181106119d0576119d0614ef5565b60200260200101518483815181106119ea576119ea614ef5565b6020026020010151612540565b80611a0181614f70565b9150506119b2565b50505050565b6000805160206156f6833981519152611a27816126cf565b61121c613097565b8060800135611a3d81611850565b611a595760405162461bcd60e51b8152600401610b3490614e7d565b608082013560008181526101fb60205260409020600201546001919060ff1615158214611a985760405162461bcd60e51b8152600401610b3490614eb3565b8585856000611baa6000805160206155f68339815191528335611abe60208601866150ad565b604051602001611acf9291906150f3565b60405160208183030381529060405280519060200120856040016020810190611af8919061479e565b60808701803590611b0c9060608a0161479e565b60a08901356101c56000611b2660608d0160408e0161479e565b6001600160a01b03908116825260208083019390935260409182016000205482519384019a909a52908201979097526060810195909552928516608085015260a084019190915290921660c082015260e081019190915263ffffffff90911661010082015261012001604051602081830303815290604052805190602001206130d4565b9050611bfe8185858080601f016020809104026020016040519081016040528093929190818152602001838380828437600092019190915250611bf792505050606086016040870161479e565b8535613122565b506101c56000611c14606085016040860161479e565b6001600160a01b0316815260208101919091526040016000908120805463ffffffff1691611c4183615103565b91906101000a81548163ffffffff021916908363ffffffff16021790555050611c85886040016020810190611c76919061479e565b89608001358a60a001356126ec565b611ca7611c9860608a0160408b0161479e565b89608001358a60a00135612f8a565b6080880135611cbc60608a0160408b0161479e565b6001600160a01b03167f3ec62ad8e5ebe52709d97ce29a908961b037926c9129c8bcca2ef0461963b8b08a60a00135604051611cfa91815260200190565b60405180910390a350505050505050505050565b60009182526097602090815260408084206001600160a01b0393909316845291905290205460ff1690565b600054610100900460ff1615808015611d595750600054600160ff909116105b80611d7a5750611d68306131d2565b158015611d7a575060005460ff166001145b611d965760405162461bcd60e51b8152600401610b3490615126565b6000805460ff191660011790558015611db9576000805461ff0019166101001790555b6101fa805460ff191660ff86161790556101f88390558151611de3906101f990602085019061423f565b506101fa8054610100600160a81b0319166101006001600160a01b0388160217905580156110b5576000805461ff0019169055604051600181526000805160206156d6833981519152906020015b60405180910390a15050505050565b6101f98054611e4e90614f89565b80601f0160208091040260200160405190810160405280929190818152602001828054611e7a90614f89565b8015611ec75780601f10611e9c57610100808354040283529160200191611ec7565b820191906000526020600020905b815481529060010190602001808311611eaa57829003601f168201915b505050505081565b6000805160206155b6833981519152611ee7816126cf565b611ef28585856126ec565b816004811115611f0457611f04615097565b84866001600160a01b03167f28307ba5beac24bbe02c6541395dc897a2c9a884977343cfc55d6bef99a178cf86604051611f4091815260200190565b60405180910390a45050505050565b600054610100900460ff1615808015611f6f5750600054600160ff909116105b80611f905750611f7e306131d2565b158015611f90575060005460ff166001145b611fac5760405162461bcd60e51b8152600401610b3490615126565b6000805460ff191660011790558015611fcf576000805461ff0019166101001790555b611fe7604051806020016040528060008152506131e1565b611fef613211565b611ff761323a565b611fff613211565b612007613211565b61202e8260405180604001604052806005815260200164302e302e3160d81b815250613269565b61203b8560328585611d39565b612046600085612cb2565b61205e6000805160206156b683398151915285612cb2565b6120766000805160206156f683398151915285612cb2565b61208e60008051602061561683398151915285612cb2565b6120a660008051602061577d83398151915285612cb2565b6120be60008051602061565683398151915285612cb2565b6120d660008051602061573d83398151915285612cb2565b6120ee60008051602061577d83398151915233612cb2565b80156110b5576000805461ff0019169055604051600181526000805160206156d683398151915290602001611e31565b610b9733838361329a565b600090815260fb602052604090205490565b60008051602061579d833981519152612153816126cf565b8561215d81611850565b6121795760405162461bcd60e51b8152600401610b3490614e7d565b60008781526101fb6020526040812060020154889060ff16156121ae5760405162461bcd60e51b8152600401610b3490614eb3565b868810156121ce5760405162461bcd60e51b8152600401610b3490615174565b60008981526101fd6020526040812054908190036122045787156122045760405162461bcd60e51b8152600401610b3490615174565b60008a81526101fb60205260408120600201805460ff191689151517905561222c898b6151a5565b1115612256576122568b8b6122418b8d6151a5565b604051806020016040528060008152506129ac565b871561227757612277308b8a604051806020016040528060008152506129ac565b897f3f7e02c2ef0b48a24f4450eb4a8e4d67c3ab9a1336453c8a328e532b1cb5be828a888a6040516122ab939291906151bc565b60405180910390a25050505050505050505050565b6122c98261105b565b6122d2816126cf565b6110d88383612d38565b60008051602061575d8339815191526122f4816126cf565b6123108686868660405180602001604052806000815250612876565b81600481111561232257612322615097565b604080516001600160a01b038881168252602082018790528792908a16917fa8b90aeef4d9590cac2ff486fc2b5d9749ed41f9388a7eb159eef94cf5fb65ab910160405180910390a4505050505050565b83838360006123996000805160206155f68339815191528335611abe60208601866150ad565b90506123e68185858080601f016020809104026020016040519081016040528093929190818152602001838380828437600092019190915250611bf792505050606086016040870161479e565b506101c560006123fc606085016040860161479e565b6001600160a01b0316815260208101919091526040016000908120805463ffffffff169161242983615103565b91906101000a81548163ffffffff021916908363ffffffff1602179055505061247e86604001602081019061245e919061479e565b61246e6080890160608a0161479e565b88608001358960a0013589612876565b60808601803590612492906060890161479e565b6001600160a01b03166124ab6060890160408a0161479e565b6001600160a01b03167f3e09983b3a620e1618a2a5201b7aded9daa73221b1e3c93fb4056c6e5bea31628960a001356040516124e991815260200190565b60405180910390a45050505050505050565b6001600160a01b038516331480612517575061251785336109f9565b6125335760405162461bcd60e51b8152600401610b3490614fd5565b6110b58585858585612876565b60008051602061577d833981519152612558816126cf565b600061256c6101f780546001019081905590565b6101fa546040516344d9d59b60e01b815291925061010090046001600160a01b0316906344d9d59b906125a39086906004016145b2565b600060405180830381600087803b1580156125bd57600080fd5b505af11580156125d1573d6000803e3d6000fd5b50505050806101fe846040516125e791906151e7565b90815260408051602092819003830181209390935560608301815285835281830187905260008382018190528481526101fb8352208251805191926126319284929091019061423f565b50602082015160018201556040918201516002909101805460ff1916911515919091179055516126629084906151e7565b6040518091039020817f59959363571c0b3a0b266a17380676123571389b9d184fe6f7074e2fe514a32b8660405161269c91815260200190565b60405180910390a350505050565b60006001600160e01b03198216637965db0b60e01b1480610b705750610b708261337a565b61121c81336133ca565b8051610b9790606790602084019061423f565b6001600160a01b03831661274e5760405162461bcd60e51b815260206004820152602360248201527f455243313135353a206275726e2066726f6d20746865207a65726f206164647260448201526265737360e81b6064820152608401610b34565b33600061275a84613423565b9050600061276784613423565b90506127878387600085856040518060200160405280600081525061346e565b60008581526065602090815260408083206001600160a01b038a168452909152902054848110156128065760405162461bcd60e51b8152602060048201526024808201527f455243313135353a206275726e20616d6f756e7420657863656564732062616c604482015263616e636560e01b6064820152608401610b34565b60008681526065602090815260408083206001600160a01b03808c16808652919093528184208986039055905190918716906000805160206155d683398151915290612855908b908b90614f62565b60405180910390a46040805160208101909152600090525b50505050505050565b6001600160a01b03841661289c5760405162461bcd60e51b8152600401610b3490615203565b3360006128a885613423565b905060006128b585613423565b90506128c583898985858961346e565b60008681526065602090815260408083206001600160a01b038c168452909152902054858110156129085760405162461bcd60e51b8152600401610b3490615248565b60008781526065602090815260408083206001600160a01b038d8116855292528083208985039055908a16825281208054889290612947908490614fbd565b92505081905550876001600160a01b0316896001600160a01b0316856001600160a01b03166000805160206155d68339815191528a8a60405161298b929190614f62565b60405180910390a46129a1848a8a8a8a8a61368c565b505050505050505050565b6001600160a01b038416612a0c5760405162461bcd60e51b815260206004820152602160248201527f455243313135353a206d696e7420746f20746865207a65726f206164647265736044820152607360f81b6064820152608401610b34565b336000612a1885613423565b90506000612a2585613423565b9050612a368360008985858961346e565b60008681526065602090815260408083206001600160a01b038b16845290915281208054879290612a68908490614fbd565b92505081905550866001600160a01b031660006001600160a01b0316846001600160a01b03166000805160206155d68339815191528989604051612aad929190614f62565b60405180910390a461286d8360008989898961368c565b8151835114612b265760405162461bcd60e51b815260206004820152602860248201527f455243313135353a2069647320616e6420616d6f756e7473206c656e677468206044820152670dad2e6dac2e8c6d60c31b6064820152608401610b34565b6001600160a01b038416612b4c5760405162461bcd60e51b8152600401610b3490615203565b33612b5b81878787878761346e565b60005b8451811015612c44576000858281518110612b7b57612b7b614ef5565b602002602001015190506000858381518110612b9957612b99614ef5565b60209081029190910181015160008481526065835260408082206001600160a01b038e168352909352919091205490915081811015612bea5760405162461bcd60e51b8152600401610b3490615248565b60008381526065602090815260408083206001600160a01b038e8116855292528083208585039055908b16825281208054849290612c29908490614fbd565b9250508190555050505080612c3d90614f70565b9050612b5e565b50846001600160a01b0316866001600160a01b0316826001600160a01b03167f4a39dc06d4c0dbc64b70af90fd698a233a518aa5d07e595d983b8c0526c8f7fb8787604051612c94929190615292565b60405180910390a4612caa8187878787876137ee565b505050505050565b612cbc8282611d0e565b610b975760008281526097602090815260408083206001600160a01b03851684529091529020805460ff19166001179055612cf43390565b6001600160a01b0316816001600160a01b0316837f2f8788117e7eff1d82e926ec794901d17c78024a50270940304540a733656f0d60405160405180910390a45050565b612d428282611d0e565b15610b975760008281526097602090815260408083206001600160a01b0385168085529252808320805460ff1916905551339285917ff6391f5c32d9c69d2a47ea670b442974b53935d1edc7fd64eb21e047a839171b9190a45050565b600080516020615676833981519152546001600160a01b031690565b600080516020615656833981519152610b97816126cf565b7f4910fdfa16fed3260ed0e7147f7cc6da11a60208b5b9406d12a635614ffd91435460ff1615612e06576110d8836138b0565b826001600160a01b03166352d1902d6040518163ffffffff1660e01b8152600401602060405180830381865afa925050508015612e60575060408051601f3d908101601f19168201909252612e5d918101906152b7565b60015b612ec35760405162461bcd60e51b815260206004820152602e60248201527f45524331393637557067726164653a206e657720696d706c656d656e7461746960448201526d6f6e206973206e6f74205555505360901b6064820152608401610b34565b6000805160206156768339815191528114612f325760405162461bcd60e51b815260206004820152602960248201527f45524331393637557067726164653a20756e737570706f727465642070726f786044820152681a58589b195555525160ba1b6064820152608401610b34565b506110d883838361394a565b612f4661396f565b60c9805460ff191690557f5db9ee0a495bf2e6ff9c91a7834c1ba4fdd244a5e8aa4e537bd38aeae4b073aa335b604051612f809190614c5a565b60405180910390a1565b6000612f9e6101f780546001019081905590565b6040805160c0810182526001600160a01b0387811682526020808301878152838501898152855180840187526000808252606087019182528751808601895281815260808801528751808601895281815260a08801528881526101ff855296909620855181546001600160a01b031916951694909417845590516001840155516002830155925180519495509193909261303f92600385019291019061423f565b506080820151805161305b91600484019160209091019061423f565b5060a0820151805161307791600584019160209091019061423f565b50905050611a0984826001604051806020016040528060008152506129ac565b61309f6139b8565b60c9805460ff191660011790557f62e78cea01bee320cd4e420270b5ea74000d11b0c9f74754ebdbfc544b05a258612f733390565b6000610b706130e16139fe565b8360405161190160f01b6020820152602281018390526042810182905260009060620160405160208183030381529060405280519060200120905092915050565b600061312e8585613a80565b9050826001600160a01b0316816001600160a01b0316146131615760405162461bcd60e51b8152600401610b34906152d0565b6001600160a01b0381166131875760405162461bcd60e51b8152600401610b34906152d0565b8142106131ca5760405162461bcd60e51b815260206004820152601160248201527014da59db985d1d5c9948195e1c1a5c9959607a1b6044820152606401610b34565b949350505050565b6001600160a01b03163b151590565b600054610100900460ff166132085760405162461bcd60e51b8152600401610b3490615301565b61121c81613a9c565b600054610100900460ff166132385760405162461bcd60e51b8152600401610b3490615301565b565b600054610100900460ff166132615760405162461bcd60e51b8152600401610b3490615301565b613238613acc565b600054610100900460ff166132905760405162461bcd60e51b8152600401610b3490615301565b610b978282613aff565b816001600160a01b0316836001600160a01b03160361330d5760405162461bcd60e51b815260206004820152602960248201527f455243313135353a2073657474696e6720617070726f76616c20737461747573604482015268103337b91039b2b63360b91b6064820152608401610b34565b6001600160a01b03838116600081815260666020908152604080832094871680845294825291829020805460ff191686151590811790915591519182527f17307eab39ab6107e8899845ad3d59bd9653f200f220920489ca2b5937696c31910160405180910390a3505050565b60006001600160e01b03198216636cdb3d1360e11b14806133ab57506001600160e01b031982166303a24d0760e21b145b80610b7057506301ffc9a760e01b6001600160e01b0319831614610b70565b6133d48282611d0e565b610b97576133e181613b30565b6133ec836020613b42565b6040516020016133fd92919061534c565b60408051601f198184030181529082905262461bcd60e51b8252610b34916004016145b2565b6040805160018082528183019092526060916000919060208083019080368337019050509050828160008151811061345d5761345d614ef5565b602090810291909101015292915050565b6134766139b8565b84848460006001600160a01b0384163014801561349a57506001600160a01b038316155b905080806134b057506001600160a01b03831630145b1561353757886134ce60008051602061569683398151915282611d0e565b156134eb5760405162461bcd60e51b8152600401610b34906153bb565b8861350460008051602061569683398151915282611d0e565b156135215760405162461bcd60e51b8152600401610b34906153bb565b61352f8c8c8c8c8c8c613ce4565b5050506129a1565b60005b8251811015613603576101fb600084838151811061355a5761355a614ef5565b60209081029190910181015182528101919091526040016000206002015460ff16806135a557506135a383828151811061359657613596614ef5565b6020026020010151611850565b155b6135f15760405162461bcd60e51b815260206004820152601e60248201527f50726f6a6563743a20546f6b656e206973206e6f6e2d766572696669656400006044820152606401610b34565b806135fb81614f70565b91505061353a565b508861361d60008051602061569683398151915282611d0e565b1561363a5760405162461bcd60e51b8152600401610b34906153bb565b8861365360008051602061569683398151915282611d0e565b156136705760405162461bcd60e51b8152600401610b34906153bb565b61367e8c8c8c8c8c8c613ce4565b505050505050505050505050565b61369e846001600160a01b03166131d2565b15612caa5760405163f23a6e6160e01b81526001600160a01b0385169063f23a6e61906136d790899089908890889088906004016153f2565b6020604051808303816000875af1925050508015613712575060408051601f3d908101601f1916820190925261370f91810190615437565b60015b6137be5761371e615454565b806308c379a003613757575061373261546f565b8061373d5750613759565b8060405162461bcd60e51b8152600401610b3491906145b2565b505b60405162461bcd60e51b815260206004820152603460248201527f455243313135353a207472616e7366657220746f206e6f6e2d455243313135356044820152732932b1b2b4bb32b91034b6b83632b6b2b73a32b960611b6064820152608401610b34565b6001600160e01b0319811663f23a6e6160e01b1461286d5760405162461bcd60e51b8152600401610b34906154f8565b613800846001600160a01b03166131d2565b15612caa5760405163bc197c8160e01b81526001600160a01b0385169063bc197c81906138399089908990889088908890600401615540565b6020604051808303816000875af1925050508015613874575060408051601f3d908101601f1916820190925261387191810190615437565b60015b6138805761371e615454565b6001600160e01b0319811663bc197c8160e01b1461286d5760405162461bcd60e51b8152600401610b34906154f8565b6138b9816131d2565b61391b5760405162461bcd60e51b815260206004820152602d60248201527f455243313936373a206e657720696d706c656d656e746174696f6e206973206e60448201526c1bdd08184818dbdb9d1c9858dd609a1b6064820152608401610b34565b60008051602061567683398151915280546001600160a01b0319166001600160a01b0392909216919091179055565b61395383613e5d565b6000825111806139605750805b156110d857611a098383613e9d565b60c95460ff166132385760405162461bcd60e51b815260206004820152601460248201527314185d5cd8589b194e881b9bdd081c185d5cd95960621b6044820152606401610b34565b60c95460ff16156132385760405162461bcd60e51b815260206004820152601060248201526f14185d5cd8589b194e881c185d5cd95960821b6044820152606401610b34565b6000613a7b7f8b73c3c69bb8fe3d512ecc4cf759cc79239f7b179b0ffacaa9a75d522b39400f613a2e6101915490565b610192546040805160208101859052908101839052606081018290524660808201523060a082015260009060c0016040516020818303038152906040528051906020012090509392505050565b905090565b6000806000613a8f8585613f8f565b9150915061141681613fd4565b600054610100900460ff16613ac35760405162461bcd60e51b8152600401610b3490615301565b61121c816126d9565b600054610100900460ff16613af35760405162461bcd60e51b8152600401610b3490615301565b60c9805460ff19169055565b600054610100900460ff16613b265760405162461bcd60e51b8152600401610b3490615301565b610b978282614119565b6060610b706001600160a01b03831660145b60606000613b51836002614f21565b613b5c906002614fbd565b6001600160401b03811115613b7357613b73614351565b6040519080825280601f01601f191660200182016040528015613b9d576020820181803683370190505b509050600360fc1b81600081518110613bb857613bb8614ef5565b60200101906001600160f81b031916908160001a905350600f60fb1b81600181518110613be757613be7614ef5565b60200101906001600160f81b031916908160001a9053506000613c0b846002614f21565b613c16906001614fbd565b90505b6001811115613c8e576f181899199a1a9b1b9c1cb0b131b232b360811b85600f1660108110613c4a57613c4a614ef5565b1a60f81b828281518110613c6057613c60614ef5565b60200101906001600160f81b031916908160001a90535060049490941c93613c878161559e565b9050613c19565b508315613cdd5760405162461bcd60e51b815260206004820181905260248201527f537472696e67733a20686578206c656e67746820696e73756666696369656e746044820152606401610b34565b9392505050565b6001600160a01b038516613d6b5760005b8351811015613d6957828181518110613d1057613d10614ef5565b602002602001015160fb6000868481518110613d2e57613d2e614ef5565b602002602001015181526020019081526020016000206000828254613d539190614fbd565b90915550613d62905081614f70565b9050613cf5565b505b6001600160a01b038416612caa5760005b835181101561286d576000848281518110613d9957613d99614ef5565b602002602001015190506000848381518110613db757613db7614ef5565b60200260200101519050600060fb600084815260200190815260200160002054905081811015613e3a5760405162461bcd60e51b815260206004820152602860248201527f455243313135353a206275726e20616d6f756e74206578636565647320746f74604482015267616c537570706c7960c01b6064820152608401610b34565b600092835260fb602052604090922091039055613e5681614f70565b9050613d7c565b613e66816138b0565b6040516001600160a01b038216907fbc7cd75a20ee27fd9adebab32041f755214dbc6bffa90cc0225b39da2e5c2d3b90600090a250565b6060613ea8836131d2565b613f035760405162461bcd60e51b815260206004820152602660248201527f416464726573733a2064656c65676174652063616c6c20746f206e6f6e2d636f6044820152651b9d1c9858dd60d21b6064820152608401610b34565b600080846001600160a01b031684604051613f1e91906151e7565b600060405180830381855af49150503d8060008114613f59576040519150601f19603f3d011682016040523d82523d6000602084013e613f5e565b606091505b5091509150613f8682826040518060600160405280602781526020016157166027913961415c565b95945050505050565b6000808251604103613fc55760208301516040840151606085015160001a613fb987828585614175565b94509450505050613fcd565b506000905060025b9250929050565b6000816004811115613fe857613fe8615097565b03613ff05750565b600181600481111561400457614004615097565b0361404c5760405162461bcd60e51b815260206004820152601860248201527745434453413a20696e76616c6964207369676e617475726560401b6044820152606401610b34565b600281600481111561406057614060615097565b036140ad5760405162461bcd60e51b815260206004820152601f60248201527f45434453413a20696e76616c6964207369676e6174757265206c656e677468006044820152606401610b34565b60038160048111156140c1576140c1615097565b0361121c5760405162461bcd60e51b815260206004820152602260248201527f45434453413a20696e76616c6964207369676e6174757265202773272076616c604482015261756560f01b6064820152608401610b34565b600054610100900460ff166141405760405162461bcd60e51b8152600401610b3490615301565b8151602092830120815191909201206101919190915561019255565b6060831561416b575081613cdd565b613cdd838361422f565b6000806fa2a8918ca85bafe22016d0b997e4df60600160ff1b038311156141a25750600090506003614226565b6040805160008082526020820180845289905260ff881692820192909252606081018690526080810185905260019060a0016020604051602081039080840390855afa1580156141f6573d6000803e3d6000fd5b5050604051601f1901519150506001600160a01b03811661421f57600060019250925050614226565b9150600090505b94509492505050565b81511561373d5781518083602001fd5b82805461424b90614f89565b90600052602060002090601f01602090048101928261426d57600085556142b3565b82601f1061428657805160ff19168380011785556142b3565b828001600101855582156142b3579182015b828111156142b3578251825591602001919060010190614298565b506142bf9291506142c3565b5090565b5b808211156142bf57600081556001016142c4565b80356001600160a01b03811681146142ef57600080fd5b919050565b6000806040838503121561430757600080fd5b614310836142d8565b946020939093013593505050565b6001600160e01b03198116811461121c57600080fd5b60006020828403121561434657600080fd5b8135613cdd8161431e565b634e487b7160e01b600052604160045260246000fd5b601f8201601f191681016001600160401b038111828210171561438c5761438c614351565b6040525050565b600082601f8301126143a457600080fd5b81356001600160401b038111156143bd576143bd614351565b6040516143d4601f8301601f191660200182614367565b8181528460208386010111156143e957600080fd5b816020850160208301376000918101602001919091529392505050565b60006020828403121561441857600080fd5b81356001600160401b0381111561442e57600080fd5b6131ca84828501614393565b60006001600160401b0382111561445357614453614351565b5060051b60200190565b600082601f83011261446e57600080fd5b8135602061447b8261443a565b6040516144888282614367565b83815260059390931b85018201928281019150868411156144a857600080fd5b8286015b848110156144ca576144bd816142d8565b83529183019183016144ac565b509695505050505050565b6000806000606084860312156144ea57600080fd5b83356001600160401b038082111561450157600080fd5b61450d8783880161445d565b945060208601359350604086013591508082111561452a57600080fd5b5061453786828701614393565b9150509250925092565b60006020828403121561455357600080fd5b5035919050565b60005b8381101561457557818101518382015260200161455d565b83811115611a095750506000910152565b6000815180845261459e81602086016020860161455a565b601f01601f19169290920160200192915050565b602081526000613cdd6020830184614586565b600080600080608085870312156145db57600080fd5b6145e4856142d8565b9350602085013592506040850135915060608501356001600160401b0381111561460d57600080fd5b61461987828801614393565b91505092959194509250565b6020815260008251606060208401526146416080840182614586565b9050602084015160408401526040840151151560608401528091505092915050565b600082601f83011261467457600080fd5b813560206146818261443a565b60405161468e8282614367565b83815260059390931b85018201928281019150868411156146ae57600080fd5b8286015b848110156144ca57803583529183019183016146b2565b600080600080600060a086880312156146e157600080fd5b6146ea866142d8565b94506146f8602087016142d8565b935060408601356001600160401b038082111561471457600080fd5b61472089838a01614663565b9450606088013591508082111561473657600080fd5b61474289838a01614663565b9350608088013591508082111561475857600080fd5b5061476588828901614393565b9150509295509295909350565b6000806040838503121561478557600080fd5b82359150614795602084016142d8565b90509250929050565b6000602082840312156147b057600080fd5b613cdd826142d8565b6000806000606084860312156147ce57600080fd5b833592506020840135915060408401356001600160401b038111156147f257600080fd5b61453786828701614393565b6000806040838503121561481157600080fd5b82356001600160401b038082111561482857600080fd5b6148348683870161445d565b9350602085013591508082111561484a57600080fd5b5061485785828601614663565b9150509250929050565b600081518084526020808501945080840160005b8381101561489157815187529582019590820190600101614875565b509495945050505050565b602081526000613cdd6020830184614861565b600080604083850312156148c257600080fd5b6148cb836142d8565b915060208301356001600160401b038111156148e657600080fd5b61485785828601614393565b8035600581106142ef57600080fd5b60008060006060848603121561491657600080fd5b833592506020840135915061492d604085016148f2565b90509250925092565b60018060a01b038716815285602082015284604082015260c06060820152600061496360c0830186614586565b82810360808401526149758186614586565b905082810360a08401526149898185614586565b9998505050505050505050565b6060815260006149a96060830186614586565b602083019490945250901515604090910152919050565b600080604083850312156149d357600080fd5b82356001600160401b03808211156149ea57600080fd5b6149f686838701614663565b9350602091508185013581811115614a0d57600080fd5b8501601f81018713614a1e57600080fd5b8035614a298161443a565b604051614a368282614367565b82815260059290921b8301850191858101915089831115614a5657600080fd5b8584015b83811015614a8e57803586811115614a725760008081fd5b614a808c8983890101614393565b845250918601918601614a5a565b508096505050505050509250929050565b60008083601f840112614ab157600080fd5b5081356001600160401b03811115614ac857600080fd5b602083019150836020828501011115613fcd57600080fd5b600060e08284031215614af257600080fd5b50919050565b600080600060408486031215614b0d57600080fd5b83356001600160401b0380821115614b2457600080fd5b614b3087838801614a9f565b90955093506020860135915080821115614b4957600080fd5b5061453786828701614ae0565b60008060008060808587031215614b6c57600080fd5b614b75856142d8565b9350602085013560ff81168114614b8b57600080fd5b92506040850135915060608501356001600160401b0381111561460d57600080fd5b60008060008060808587031215614bc357600080fd5b614bcc856142d8565b93506020850135925060408501359150614be8606086016148f2565b905092959194509250565b60008060008060808587031215614c0957600080fd5b614c12856142d8565b9350614b8b602086016142d8565b803580151581146142ef57600080fd5b60008060408385031215614c4357600080fd5b614c4c836142d8565b915061479560208401614c20565b6001600160a01b0391909116815260200190565b60008060008060008060c08789031215614c8757600080fd5b614c90876142d8565b9550602087013594506040870135935060608701359250614cb360808801614c20565b915060a08701356001600160401b03811115614cce57600080fd5b614cda89828a01614393565b9150509295509295509295565b600080600080600060a08688031215614cff57600080fd5b614d08866142d8565b9450614d16602087016142d8565b93506040860135925060608601359150614d32608087016148f2565b90509295509295909350565b60008060008060608587031215614d5457600080fd5b84356001600160401b0380821115614d6b57600080fd5b614d7788838901614a9f565b90965094506020870135915080821115614d9057600080fd5b614d9c88838901614ae0565b93506040870135915080821115614db257600080fd5b5061461987828801614393565b60008060408385031215614dd257600080fd5b614ddb836142d8565b9150614795602084016142d8565b600080600080600060a08688031215614e0157600080fd5b614e0a866142d8565b9450614e18602087016142d8565b9350604086013592506060860135915060808601356001600160401b03811115614e4157600080fd5b61476588828901614393565b60008060408385031215614e6057600080fd5b8235915060208301356001600160401b038111156148e657600080fd5b6020808252601c908201527b141c9bda9958dd0e88151bdad95b881a5cc81b9bdd08115e141bdcdd60221b604082015260600190565b60208082526022908201527f50726f6a6563743a20546f6b656e20697320616c726561647920766572696669604082015261195960f21b606082015260800190565b634e487b7160e01b600052603260045260246000fd5b634e487b7160e01b600052601160045260246000fd5b6000816000190483118215151615614f3b57614f3b614f0b565b500290565b600082614f5d57634e487b7160e01b600052601260045260246000fd5b500490565b918252602082015260400190565b600060018201614f8257614f82614f0b565b5060010190565b600181811c90821680614f9d57607f821691505b602082108103614af257634e487b7160e01b600052602260045260246000fd5b60008219821115614fd057614fd0614f0b565b500190565b6020808252602e908201527f455243313135353a2063616c6c6572206973206e6f7420746f6b656e206f776e60408201526d195c881bdc88185c1c1c9bdd995960921b606082015260800190565b6020808252602c9082015260008051602061563683398151915260408201526b19195b1959d85d1958d85b1b60a21b606082015260800190565b6020808252602c9082015260008051602061563683398151915260408201526b6163746976652070726f787960a01b606082015260800190565b634e487b7160e01b600052602160045260246000fd5b6000808335601e198436030181126150c457600080fd5b8301803591506001600160401b038211156150de57600080fd5b602001915036819003821315613fcd57600080fd5b8183823760009101908152919050565b600063ffffffff80831681810361511c5761511c614f0b565b6001019392505050565b6020808252602e908201527f496e697469616c697a61626c653a20636f6e747261637420697320616c72656160408201526d191e481a5b9a5d1a585b1a5e995960921b606082015260800190565b602080825260179082015276141c9bda9958dd0e88125b9d985b1a5908185b5bdd5b9d604a1b604082015260600190565b6000828210156151b7576151b7614f0b565b500390565b8381526060602082015260006151d56060830185614586565b90508215156040830152949350505050565b600082516151f981846020870161455a565b9190910192915050565b60208082526025908201527f455243313135353a207472616e7366657220746f20746865207a65726f206164604082015264647265737360d81b606082015260800190565b6020808252602a908201527f455243313135353a20696e73756666696369656e742062616c616e636520666f60408201526939103a3930b739b332b960b11b606082015260800190565b6040815260006152a56040830185614861565b8281036020840152613f868185614861565b6000602082840312156152c957600080fd5b5051919050565b602080825260179082015276496e76616c6964207369676e6174757265202d2034303160481b604082015260600190565b6020808252602b908201527f496e697469616c697a61626c653a20636f6e7472616374206973206e6f74206960408201526a6e697469616c697a696e6760a81b606082015260800190565b76020b1b1b2b9b9a1b7b73a3937b61d1030b1b1b7bab73a1604d1b81526000835161537e81601785016020880161455a565b7001034b99036b4b9b9b4b733903937b6329607d1b60179184019182015283516153af81602884016020880161455a565b01602801949350505050565b6020808252601f908201527f50726f6a6563743a204163636f756e7420697320626c61636b6c697374656400604082015260600190565b6001600160a01b03868116825285166020820152604081018490526060810183905260a06080820181905260009061542c90830184614586565b979650505050505050565b60006020828403121561544957600080fd5b8151613cdd8161431e565b600060033d11156115925760046000803e5060005160e01c90565b600060443d101561547d5790565b6040516003193d81016004833e81513d6001600160401b0380831160248401831017156154ac57505050505090565b82850191508151818111156154c45750505050505090565b843d87010160208285010111156154de5750505050505090565b6154ed60208286010187614367565b509095945050505050565b60208082526028908201527f455243313135353a204552433131353552656365697665722072656a656374656040820152676420746f6b656e7360c01b606082015260800190565b6001600160a01b0386811682528516602082015260a06040820181905260009061556c90830186614861565b828103606084015261557e8186614861565b905082810360808401526155928185614586565b98975050505050505050565b6000816155ad576155ad614f0b565b50600019019056fe3c11d16cbaffd01df69ce1c404f6340ee057498f5f00246190ea54220576a848c3d58168c5ae7397731d063d5bbf3d657854427343f4c083240f7aacaa2d0f6279da588818fa1bb747c46ac45fd0af16861a77c5222cf5ac4538360ca4f77a2cd5bbb2f0fbfc1d5938ca13cabd3156d362f7862fa87504c8d589f5e8f2cbc45346756e6374696f6e206d7573742062652063616c6c6564207468726f75676820189ab7a9244df0848122154315af71fe140f3db0fe014031783b0946b8c9d2e3360894a13ba1a3210667c828492db98dca3e2076cc3735a920a3ca505d382bbcf48dee1a72497b9e734e498e1b3086c0d2dbcca13f16f15848f974469f906bbf7804d923f43a17d325d77e781528e0793b2edd9890ab45fc64efd7b4b427744c7f26b83ff96e1f2b6a682f133852f6798a09c465da95921460cefb384740249865d7a28e3265b37a6474929f336521b332c1681b933f6cb9f3376673440d862a416464726573733a206c6f772d6c6576656c2064656c65676174652063616c6c206661696c656498db8a220cd0f09badce9f22d0ba7e93edb3d404448cc3560d391ab096ad16e94bbc247fc4736523c8bdd1853fee2acfa817d663f8f4422b13e78ebf99e204a2ddf79b8d2110dbe281cf3bb7762d508cea586c974794c8fc949d41b0db1145130ce23c3e399818cfee81a7ab0880f714e53d7672b08df0fa62f2843416e1ea09a2646970667358221220a94ebccbd3a0502392eca3fe3d75c67863ff6e4995624451d4173abd6ce9cbbe64736f6c634300080d0033",
  "immutableReferences": {
    "997": [
      {
        "length": 32,
        "start": 4449
      },
      {
        "length": 32,
        "start": 4513
      },
      {
        "length": 32,
        "start": 5160
      },
      {
        "length": 32,
        "start": 5224
      },
      {
        "length": 32,
        "start": 5363
      }
    ]
  },
  "source": "// SPDX-License-Identifier: MIT\npragma solidity ^0.8.13;\n\nimport \"@openzeppelin/contracts-upgradeable/token/ERC1155/ERC1155Upgradeable.sol\";\nimport \"@openzeppelin/contracts-upgradeable/access/AccessControlUpgradeable.sol\";\nimport \"@openzeppelin/contracts-upgradeable/security/PausableUpgradeable.sol\";\nimport \"@openzeppelin/contracts-upgradeable/token/ERC1155/extensions/ERC1155SupplyUpgradeable.sol\";\nimport \"@openzeppelin/contracts-upgradeable/proxy/utils/Initializable.sol\";\nimport \"@openzeppelin/contracts-upgradeable/proxy/utils/UUPSUpgradeable.sol\";\n\nimport \"./ProjectStorage.sol\";\nimport \"./interfaces/ICarbonContractRegistry.sol\";\nimport \"./utils/CustomSignaturesUpgradeable.sol\";\n\ncontract Project is\n    Initializable,\n    ERC1155Upgradeable,\n    AccessControlUpgradeable,\n    PausableUpgradeable,\n    ERC1155SupplyUpgradeable,\n    UUPSUpgradeable,\n    CustomSignaturesUpgradeable,\n    ProjectStorage\n{\n    bytes32 public constant URI_SETTER_ROLE = keccak256(\"URI_SETTER_ROLE\");\n    bytes32 public constant PAUSER_ROLE = keccak256(\"PAUSER_ROLE\");\n    bytes32 public constant ANTE_MINTER_ROLE = keccak256(\"ANTE_MINTER_ROLE\");\n    bytes32 public constant POST_MINTER_ROLE = keccak256(\"POST_MINTER_ROLE\");\n    bytes32 public constant MINTER_ROLE = keccak256(\"MINTER_ROLE\");\n    bytes32 public constant UPGRADER_ROLE = keccak256(\"UPGRADER_ROLE\");\n    bytes32 public constant BLACKLISTED = keccak256(\"BLACKLISTED\");\n    bytes32 public constant BLACKLISTER_ROLE = keccak256(\"BLACKLISTER_ROLE\");\n    bytes32 public constant BURNER_ROLE = keccak256(\"BURNER_ROLE\");\n    bytes32 public constant VERIFIER_ROLE = keccak256(\"VERIFIER_ROLE\");\n    bytes32 public constant CLAWBACK_ROLE = keccak256(\"CLAWBACK_ROLE\");\n\n    event ExPostCreated(\n        uint256 indexed tokenId,\n        uint256 estimatedAmount,\n        string indexed serialization\n    );\n\n    event VintageMitigationEstimateChanged(\n        uint256 indexed tokenId,\n        uint256 newEstimate,\n        uint256 oldEstimate,\n        AdminActionReason indexed reason\n    );\n\n    event ExPostVerifiedAndMinted(\n        uint256 indexed tokenId,\n        uint256 amount,\n        string monitoringReport,\n        bool isVintageFullyVerified\n    );\n\n    event AdminBurn(\n        address indexed from,\n        uint256 indexed tokenId,\n        uint256 amount,\n        AdminActionReason indexed reason\n    );\n\n    event AdminClawback(\n        address indexed from,\n        address to,\n        uint256 indexed tokenId,\n        uint256 amount,\n        AdminActionReason indexed reason\n    );\n\n    event ExchangeAnteForPost(\n        address indexed account,\n        uint256 indexed exPostTokenId,\n        uint256 exPostAmountReceived,\n        uint256 exAnteAmountBurned\n    );\n\n    event RetiredVintage(\n        address indexed account,\n        uint256 indexed tokenId,\n        uint256 amount\n    );\n\n    event SignedTransfer(\n        address indexed from,\n        address indexed to,\n        uint256 indexed tokenId,\n        uint256 amount\n    );\n\n    event SignedRetire(\n        address indexed from,\n        uint256 indexed tokenId,\n        uint256 amount\n    );\n\n    /// @custom:oz-upgrades-unsafe-allow constructor\n    constructor() {\n        _disableInitializers();\n    }\n\n    function initialize(\n        address _contractRegistry,\n        address _owner,\n        uint256 _projectId,\n        string memory _projectName\n    ) public initializer {\n        __ERC1155_init(\"\");\n        __AccessControl_init();\n        __Pausable_init();\n        __ERC1155Supply_init();\n        __UUPSUpgradeable_init();\n        __CustomSignatures_init(_projectName, \"0.0.1\");\n\n        // Our Inits\n        __ProjectStorage_init(_contractRegistry, 50, _projectId, _projectName);\n\n        _grantRole(DEFAULT_ADMIN_ROLE, _owner);\n        _grantRole(URI_SETTER_ROLE, _owner);\n        _grantRole(PAUSER_ROLE, _owner);\n        _grantRole(ANTE_MINTER_ROLE, _owner);\n        _grantRole(POST_MINTER_ROLE, _owner);\n        _grantRole(UPGRADER_ROLE, _owner);\n        _grantRole(BLACKLISTER_ROLE, _owner);\n\n        _grantRole(POST_MINTER_ROLE, msg.sender); // Just so projectFactory can mint exPost on creation of the project\n    }\n\n    modifier notBlacklisted(address account) {\n        require(\n            !hasRole(BLACKLISTED, account),\n            \"Project: Account is blacklisted\"\n        );\n        _;\n    }\n\n    modifier onlyExPostTokens(uint256[] memory tokenIds) {\n        for (uint256 i = 0; i < tokenIds.length; i++) {\n            require(isExPostToken(tokenIds[i]), \"Project: Token is not ExPost\");\n        }\n        _;\n    }\n\n    modifier onlyExPostToken(uint256 tokenId) {\n        require(isExPostToken(tokenId), \"Project: Token is not ExPost\");\n        _;\n    }\n\n    function isExPostToken(uint256 tokenId) public view returns (bool) {\n        return bytes(exPostVintageMapping[tokenId].serialization).length > 0;\n    }\n\n    // Disallow sending tokens to other addresses that are ExPost and non-verified\n    modifier isTransferAllowed(\n        address from,\n        address to,\n        uint256[] memory tokenIds\n    ) {\n        bool isSupplyDecrease = from == address(this) && to == address(0);\n        if (isSupplyDecrease || to == address(this)) {\n            _;\n            return;\n        }\n        for (uint256 i = 0; i < tokenIds.length; i++) {\n            require(\n                exPostVintageMapping[tokenIds[i]].verified ||\n                    !isExPostToken(tokenIds[i]),\n                \"Project: Token is non-verified\"\n            );\n        }\n        _;\n    }\n\n    modifier onlyVerifiedStatus(bool isVerified, uint256 tokenId) {\n        require(\n            exPostVintageMapping[tokenId].verified == isVerified,\n            \"Project: Token is already verified\"\n        );\n        _;\n    }\n\n    // ----------------------------------\n    //         Minting Functions\n    // ----------------------------------\n\n    function createExPostVintage(\n        uint256 estAmount,\n        string memory serialization\n    ) public onlyRole(POST_MINTER_ROLE) {\n        uint256 newTokenId = nextTokenId();\n        ICarbonContractRegistry(contractRegistry).registerSerialization(\n            serialization\n        );\n        serializationToExPostTokenIdMapping[serialization] = newTokenId;\n        exPostVintageMapping[newTokenId] = VintageData(\n            serialization,\n            estAmount,\n            false\n        );\n        emit ExPostCreated(newTokenId, estAmount, serialization);\n    }\n\n    function createExPostVintageBatch(\n        uint256[] memory estAmounts,\n        string[] memory serializations\n    ) public onlyRole(POST_MINTER_ROLE) {\n        require(\n            estAmounts.length == serializations.length,\n            \"Project: Amounts and serializations must be same length\"\n        );\n        for (uint256 i = 0; i < estAmounts.length; i++) {\n            createExPostVintage(estAmounts[i], serializations[i]);\n        }\n    }\n\n    function mintExAnte(\n        address account,\n        uint256 exPostTokenId,\n        uint256 amount,\n        bytes memory data\n    ) public onlyRole(ANTE_MINTER_ROLE) onlyExPostToken(exPostTokenId) {\n        uint256 exAnteTokenId = exPostToExAnteTokenId[exPostTokenId];\n        if (exAnteTokenId == 0) {\n            exAnteTokenId = nextTokenId();\n            exPostToExAnteTokenId[exPostTokenId] = exAnteTokenId;\n        }\n\n        uint256 exPostEstimatedSupply = exPostVintageMapping[exPostTokenId]\n            .estMitigations;\n        uint256 maxExAnteSupply = (exPostEstimatedSupply *\n            (maxAntePercentage)) / (100);\n        uint256 exAnteSupply = totalSupply(exAnteTokenId);\n\n        require(\n            exAnteSupply + amount <= maxExAnteSupply,\n            \"Maximum exAnte supply exceeded\"\n        );\n\n        exAnteToExPostTokenId[exAnteTokenId] = exPostTokenId;\n        _mint(account, exAnteTokenId, amount, data);\n    }\n\n    function changeVintageMitigationEstimate(\n        uint256 tokenId,\n        uint256 newEstAmount,\n        AdminActionReason reason\n    )\n        public\n        onlyRole(DEFAULT_ADMIN_ROLE)\n        onlyExPostToken(tokenId)\n        onlyVerifiedStatus(false, tokenId)\n    {\n        emit VintageMitigationEstimateChanged(\n            tokenId,\n            newEstAmount,\n            exPostVintageMapping[tokenId].estMitigations,\n            reason\n        );\n        exPostVintageMapping[tokenId].estMitigations = newEstAmount;\n    }\n\n    function verifyAndMintExPost(\n        address verificationVault,\n        uint256 tokenId,\n        uint256 amountVerified,\n        uint256 amountToAnteHolders,\n        bool isVintageVerificationComplete,\n        string memory monitoringReport\n    )\n        public\n        onlyRole(VERIFIER_ROLE)\n        onlyExPostToken(tokenId)\n        onlyVerifiedStatus(false, tokenId)\n    {\n        require(\n            amountVerified >= amountToAnteHolders,\n            \"Project: Invalid amount\"\n        );\n\n        uint256 exAnteTokenId = exPostToExAnteTokenId[tokenId];\n        if (exAnteTokenId == 0) {\n            // If exAnteTokenId is zero then there are no ante holders\n            require(amountToAnteHolders == 0, \"Project: Invalid amount\");\n        }\n\n        exPostVintageMapping[tokenId].verified = isVintageVerificationComplete;\n\n        if (amountVerified - amountToAnteHolders > 0) {\n            // Mint To Verification Vault\n            _mint(\n                verificationVault,\n                tokenId,\n                amountVerified - amountToAnteHolders,\n                \"\"\n            );\n        }\n\n        if (amountToAnteHolders > 0) {\n            // Mint to this address, where ante holders will claim\n            _mint(address(this), tokenId, amountToAnteHolders, \"\");\n        }\n\n        emit ExPostVerifiedAndMinted(\n            tokenId,\n            amountVerified,\n            monitoringReport,\n            isVintageVerificationComplete\n        );\n    }\n\n    function adminBurn(\n        address from,\n        uint256 tokenId,\n        uint256 amount,\n        AdminActionReason reason\n    ) public onlyRole(BURNER_ROLE) {\n        _burn(from, tokenId, amount);\n        emit AdminBurn(from, tokenId, amount, reason);\n    }\n\n    function adminClawback(\n        address from,\n        address to,\n        uint256 tokenId,\n        uint256 amount,\n        AdminActionReason reason\n    ) public onlyRole(CLAWBACK_ROLE) {\n        _safeTransferFrom(from, to, tokenId, amount, \"\");\n        emit AdminClawback(from, to, tokenId, amount, reason);\n    }\n\n    function exchangeAnteForPostEvenSteven(\n        address[] memory accounts,\n        uint256 exPostTokenId,\n        bytes memory data\n    )\n        external\n        onlyExPostToken(exPostTokenId)\n        onlyVerifiedStatus(true, exPostTokenId)\n    {\n        uint256 exAnteTokenId = exPostToExAnteTokenId[exPostTokenId];\n        require(exAnteTokenId != 0, \"Project: No ante holders\");\n        uint256 currentExAnteSupply = totalSupply(exAnteTokenId);\n        uint256 currentExPostSupplyInContract = balanceOf(\n            address(this),\n            exPostTokenId\n        );\n\n        for (uint256 i = 0; i < accounts.length; i++) {\n            uint256 amountExAnte = balanceOf(accounts[i], exAnteTokenId);\n            uint256 amountExPost = (amountExAnte *\n                currentExPostSupplyInContract) / currentExAnteSupply;\n            uint256 exAnteBurnAmount = amountExAnte;\n            if (amountExAnte > amountExPost) {\n                exAnteBurnAmount = amountExPost;\n            }\n            _burn(accounts[i], exAnteTokenId, exAnteBurnAmount);\n            _safeTransferFrom(\n                address(this),\n                accounts[i],\n                exPostTokenId,\n                amountExPost,\n                data\n            );\n            emit ExchangeAnteForPost(\n                accounts[i],\n                exPostTokenId,\n                amountExPost,\n                exAnteBurnAmount\n            );\n        }\n    }\n\n    function getExPostVintageData(\n        uint256 exAnteTokenId\n    ) public view returns (VintageData memory) {\n        uint256 exPostTokenId = exPostToExAnteTokenId[exAnteTokenId];\n        return exPostVintageMapping[exPostTokenId];\n    }\n\n    // ----------------------------------\n    //              Actions\n    // ----------------------------------\n\n    function transferFromSignature(\n        bytes calldata signature,\n        signatureTransferPayload calldata payload,\n        bytes memory data\n    ) public payable onlyValidSignatureTransfer(signature, payload) {\n        _safeTransferFrom(\n            payload.signer,\n            payload.to,\n            payload.tokenId,\n            payload.amount,\n            data\n        );\n        emit SignedTransfer(\n            payload.signer,\n            payload.to,\n            payload.tokenId,\n            payload.amount\n        );\n    }\n\n    function retire(\n        uint256 tokenId,\n        uint256 amount,\n        bytes memory data\n    ) public onlyExPostToken(tokenId) onlyVerifiedStatus(true, tokenId) {\n        _burn(msg.sender, tokenId, amount);\n        mintRetirementCertificate(msg.sender, tokenId, amount);\n        emit RetiredVintage(msg.sender, tokenId, amount);\n    }\n\n    function retireFromSignature(\n        bytes calldata signature,\n        signatureTransferPayload calldata payload\n    )\n        public\n        payable\n        onlyExPostToken(payload.tokenId)\n        onlyVerifiedStatus(true, payload.tokenId)\n        onlyValidSignatureTransfer(signature, payload)\n    {\n        _burn(payload.signer, payload.tokenId, payload.amount);\n        mintRetirementCertificate(\n            payload.signer,\n            payload.tokenId,\n            payload.amount\n        );\n        emit SignedRetire(payload.signer, payload.tokenId, payload.amount);\n    }\n\n    function mintRetirementCertificate(\n        address account,\n        uint256 tokenId,\n        uint256 amount\n    ) internal {\n        uint256 nftTokenId = nextTokenId();\n        retirementMapping[nftTokenId] = RetirementData(\n            account,\n            amount,\n            tokenId,\n            \"\",\n            \"\",\n            \"\"\n        );\n        _mint(account, nftTokenId, 1, \"\");\n    }\n\n    // ----------------------------------\n    //              Hooks\n    // ----------------------------------\n\n    function _beforeTokenTransfer(\n        address operator,\n        address from,\n        address to,\n        uint256[] memory ids,\n        uint256[] memory amounts,\n        bytes memory data\n    )\n        internal\n        override(ERC1155Upgradeable, ERC1155SupplyUpgradeable)\n        whenNotPaused\n        isTransferAllowed(from, to, ids)\n        notBlacklisted(from)\n        notBlacklisted(to)\n    {\n        super._beforeTokenTransfer(operator, from, to, ids, amounts, data);\n    }\n\n    function setURI(string memory newuri) public onlyRole(URI_SETTER_ROLE) {\n        _setURI(newuri);\n    }\n\n    function pause() public onlyRole(PAUSER_ROLE) {\n        _pause();\n    }\n\n    function unpause() public onlyRole(PAUSER_ROLE) {\n        _unpause();\n    }\n\n    function nextTokenId() internal returns (uint256) {\n        unchecked {\n            tokenId += 1;\n        }\n        return tokenId;\n    }\n\n    function _authorizeUpgrade(\n        address newImplementation\n    ) internal override onlyRole(UPGRADER_ROLE) {}\n\n    // The following functions are overrides required by Solidity.\n\n    function supportsInterface(\n        bytes4 interfaceId\n    )\n        public\n        view\n        override(ERC1155Upgradeable, AccessControlUpgradeable)\n        returns (bool)\n    {\n        return super.supportsInterface(interfaceId);\n    }\n}\n",
  "sourcePath": "/Users/thorduragustsson/Programming/Projects/CarbonRegistryContracts/contracts/Project.sol",
  "compiler": {
    "name": "solc",
    "version": "0.8.13+commit.abaa5c0e.Emscripten.clang"
  },
  "schemaVersion": "3.4.13",
  "updatedAt": "2023-04-12T21:05:51.360Z",
  "devdoc": {
    "kind": "dev",
    "methods": {
      "balanceOf(address,uint256)": {
        "details": "See {IERC1155-balanceOf}. Requirements: - `account` cannot be the zero address."
      },
      "balanceOfBatch(address[],uint256[])": {
        "details": "See {IERC1155-balanceOfBatch}. Requirements: - `accounts` and `ids` must have the same length."
      },
      "constructor": {
        "custom:oz-upgrades-unsafe-allow": "constructor"
      },
      "exists(uint256)": {
        "details": "Indicates whether any token exist with a given id, or not."
      },
      "getRoleAdmin(bytes32)": {
        "details": "Returns the admin role that controls `role`. See {grantRole} and {revokeRole}. To change a role's admin, use {_setRoleAdmin}."
      },
      "grantRole(bytes32,address)": {
        "details": "Grants `role` to `account`. If `account` had not been already granted `role`, emits a {RoleGranted} event. Requirements: - the caller must have ``role``'s admin role. May emit a {RoleGranted} event."
      },
      "hasRole(bytes32,address)": {
        "details": "Returns `true` if `account` has been granted `role`."
      },
      "isApprovedForAll(address,address)": {
        "details": "See {IERC1155-isApprovedForAll}."
      },
      "paused()": {
        "details": "Returns true if the contract is paused, and false otherwise."
      },
      "proxiableUUID()": {
        "details": "Implementation of the ERC1822 {proxiableUUID} function. This returns the storage slot used by the implementation. It is used to validate the implementation's compatibility when performing an upgrade. IMPORTANT: A proxy pointing at a proxiable contract should not be considered proxiable itself, because this risks bricking a proxy that upgrades to it, by delegating to itself until out of gas. Thus it is critical that this function revert if invoked through a proxy. This is guaranteed by the `notDelegated` modifier."
      },
      "renounceRole(bytes32,address)": {
        "details": "Revokes `role` from the calling account. Roles are often managed via {grantRole} and {revokeRole}: this function's purpose is to provide a mechanism for accounts to lose their privileges if they are compromised (such as when a trusted device is misplaced). If the calling account had been revoked `role`, emits a {RoleRevoked} event. Requirements: - the caller must be `account`. May emit a {RoleRevoked} event."
      },
      "revokeRole(bytes32,address)": {
        "details": "Revokes `role` from `account`. If `account` had been granted `role`, emits a {RoleRevoked} event. Requirements: - the caller must have ``role``'s admin role. May emit a {RoleRevoked} event."
      },
      "safeBatchTransferFrom(address,address,uint256[],uint256[],bytes)": {
        "details": "See {IERC1155-safeBatchTransferFrom}."
      },
      "safeTransferFrom(address,address,uint256,uint256,bytes)": {
        "details": "See {IERC1155-safeTransferFrom}."
      },
      "setApprovalForAll(address,bool)": {
        "details": "See {IERC1155-setApprovalForAll}."
      },
      "totalSupply(uint256)": {
        "details": "Total amount of tokens in with a given id."
      },
      "upgradeTo(address)": {
        "details": "Upgrade the implementation of the proxy to `newImplementation`. Calls {_authorizeUpgrade}. Emits an {Upgraded} event."
      },
      "upgradeToAndCall(address,bytes)": {
        "details": "Upgrade the implementation of the proxy to `newImplementation`, and subsequently execute the function call encoded in `data`. Calls {_authorizeUpgrade}. Emits an {Upgraded} event."
      },
      "uri(uint256)": {
        "details": "See {IERC1155MetadataURI-uri}. This implementation returns the same URI for *all* token types. It relies on the token type ID substitution mechanism https://eips.ethereum.org/EIPS/eip-1155#metadata[defined in the EIP]. Clients calling this function must replace the `\\{id\\}` substring with the actual token type ID."
      }
    },
    "version": 1
  },
  "userdoc": {
    "kind": "user",
    "methods": {},
    "version": 1
  }
}