{
  "contractName": "ProjectFactory",
  "abi": [
    {
      "inputs": [
        {
          "internalType": "address",
          "name": "beacon_",
          "type": "address"
        }
      ],
      "stateMutability": "nonpayable",
      "type": "constructor"
    },
    {
      "anonymous": false,
      "inputs": [
        {
          "indexed": true,
          "internalType": "address",
          "name": "previousOwner",
          "type": "address"
        },
        {
          "indexed": true,
          "internalType": "address",
          "name": "newOwner",
          "type": "address"
        }
      ],
      "name": "OwnershipTransferred",
      "type": "event"
    },
    {
      "inputs": [],
      "name": "owner",
      "outputs": [
        {
          "internalType": "address",
          "name": "",
          "type": "address"
        }
      ],
      "stateMutability": "view",
      "type": "function"
    },
    {
      "inputs": [],
      "name": "renounceOwnership",
      "outputs": [],
      "stateMutability": "nonpayable",
      "type": "function"
    },
    {
      "inputs": [
        {
          "internalType": "address",
          "name": "newOwner",
          "type": "address"
        }
      ],
      "name": "transferOwnership",
      "outputs": [],
      "stateMutability": "nonpayable",
      "type": "function"
    },
    {
      "inputs": [],
      "name": "createProject",
      "outputs": [
        {
          "internalType": "address",
          "name": "",
          "type": "address"
        }
      ],
      "stateMutability": "nonpayable",
      "type": "function"
    },
    {
      "inputs": [
        {
          "internalType": "address",
          "name": "beacon_",
          "type": "address"
        }
      ],
      "name": "setBeacon",
      "outputs": [],
      "stateMutability": "nonpayable",
      "type": "function"
    },
    {
      "inputs": [],
      "name": "getBeacon",
      "outputs": [
        {
          "internalType": "address",
          "name": "",
          "type": "address"
        }
      ],
      "stateMutability": "view",
      "type": "function"
    }
  ],
  "bytecode": "0x608060405234801561001057600080fd5b50604051610e75380380610e7583398101604081905261002f916100ad565b6100383361005d565b600180546001600160a01b0319166001600160a01b03929092169190911790556100dd565b600080546001600160a01b038381166001600160a01b0319831681178455604051919092169283917f8be0079c531659141344cd1fd0a4f28419497f9722a3daafe3b4186f6b6457e09190a35050565b6000602082840312156100bf57600080fd5b81516001600160a01b03811681146100d657600080fd5b9392505050565b610d89806100ec6000396000f3fe60806040523480156200001157600080fd5b50600436106200006a5760003560e01c80632d6b3a6b146200006f578063715018a614620000945780638da5cb5b14620000a0578063c7b96dba14620000aa578063d42afb5614620000b4578063f2fde38b14620000cb575b600080fd5b6001546001600160a01b03165b6040516200008b919062000368565b60405180910390f35b6200009e620000e2565b005b6200007c620000fa565b6200007c62000109565b6200009e620000c53660046200037c565b620001f8565b6200009e620000dc3660046200037c565b62000224565b620000ec620002a7565b620000f860006200030a565b565b6000546001600160a01b031690565b600062000115620002a7565b604080518082019091526013815272696e697469616c697a6528616464726573732960681b60208201526000816200014c620000fa565b6040516024016200015e919062000368565b60408051601f1981840301815290829052916200017b91620003e1565b60408051918290039091206020830180516001600160e01b03166001600160e01b031990921691909117905260015490519192506001600160a01b0316908290620001c6906200035a565b620001d3929190620003ff565b604051809103906000f080158015620001f0573d6000803e3d6000fd5b509250505090565b62000202620002a7565b600180546001600160a01b0319166001600160a01b0392909216919091179055565b6200022e620002a7565b6001600160a01b038116620002995760405162461bcd60e51b815260206004820152602660248201527f4f776e61626c653a206e6577206f776e657220697320746865207a65726f206160448201526564647265737360d01b60648201526084015b60405180910390fd5b620002a4816200030a565b50565b33620002b2620000fa565b6001600160a01b031614620000f85760405162461bcd60e51b815260206004820181905260248201527f4f776e61626c653a2063616c6c6572206973206e6f7420746865206f776e6572604482015260640162000290565b600080546001600160a01b038381166001600160a01b0319831681178455604051919092169283917f8be0079c531659141344cd1fd0a4f28419497f9722a3daafe3b4186f6b6457e09190a35050565b610910806200044483390190565b6001600160a01b0391909116815260200190565b6000602082840312156200038f57600080fd5b81356001600160a01b0381168114620003a757600080fd5b9392505050565b60005b83811015620003cb578181015183820152602001620003b1565b83811115620003db576000848401525b50505050565b60008251620003f5818460208701620003ae565b9190910192915050565b60018060a01b038316815260406020820152600082518060408401526200042e816060850160208701620003ae565b601f01601f191691909101606001939250505056fe608060405260405161091038038061091083398101604081905261002291610461565b61002e82826000610035565b505061058b565b61003e83610100565b6040516001600160a01b038416907f1cf3b03a6cf19fa2baba4df148e9dcabedea7f8a5c07840e207e5c089be95d3e90600090a260008251118061007f5750805b156100fb576100f9836001600160a01b0316635c60da1b6040518163ffffffff1660e01b8152600401602060405180830381865afa1580156100c5573d6000803e3d6000fd5b505050506040513d601f19601f820116820180604052508101906100e99190610521565b836102a360201b6100291760201c565b505b505050565b610113816102cf60201b6100551760201c565b6101725760405162461bcd60e51b815260206004820152602560248201527f455243313936373a206e657720626561636f6e206973206e6f74206120636f6e6044820152641d1c9858dd60da1b60648201526084015b60405180910390fd5b6101e6816001600160a01b0316635c60da1b6040518163ffffffff1660e01b8152600401602060405180830381865afa1580156101b3573d6000803e3d6000fd5b505050506040513d601f19601f820116820180604052508101906101d79190610521565b6102cf60201b6100551760201c565b61024b5760405162461bcd60e51b815260206004820152603060248201527f455243313936373a20626561636f6e20696d706c656d656e746174696f6e206960448201526f1cc81b9bdd08184818dbdb9d1c9858dd60821b6064820152608401610169565b806102827fa3f0ad74e5423aebfd80d3ef4346578335a9a72aeaee59ff6cb3582b35133d5060001b6102de60201b6100641760201c565b80546001600160a01b0319166001600160a01b039290921691909117905550565b60606102c883836040518060600160405280602781526020016108e9602791396102e1565b9392505050565b6001600160a01b03163b151590565b90565b6060600080856001600160a01b0316856040516102fe919061053c565b600060405180830381855af49150503d8060008114610339576040519150601f19603f3d011682016040523d82523d6000602084013e61033e565b606091505b5090925090506103508683838761035a565b9695505050505050565b606083156103c75782516000036103c057610374856102cf565b6103c05760405162461bcd60e51b815260206004820152601d60248201527f416464726573733a2063616c6c20746f206e6f6e2d636f6e74726163740000006044820152606401610169565b50816103d1565b6103d183836103d9565b949350505050565b8151156103e95781518083602001fd5b8060405162461bcd60e51b81526004016101699190610558565b80516001600160a01b038116811461041a57600080fd5b919050565b634e487b7160e01b600052604160045260246000fd5b60005b83811015610450578181015183820152602001610438565b838111156100f95750506000910152565b6000806040838503121561047457600080fd5b61047d83610403565b60208401519092506001600160401b038082111561049a57600080fd5b818501915085601f8301126104ae57600080fd5b8151818111156104c0576104c061041f565b604051601f8201601f19908116603f011681019083821181831017156104e8576104e861041f565b8160405282815288602084870101111561050157600080fd5b610512836020830160208801610435565b80955050505050509250929050565b60006020828403121561053357600080fd5b6102c882610403565b6000825161054e818460208701610435565b9190910192915050565b6020815260008251806020840152610577816040850160208701610435565b601f01601f19169190910160400192915050565b61034f8061059a6000396000f3fe60806040523661001357610011610017565b005b6100115b610027610022610067565b610100565b565b606061004e83836040518060600160405280602781526020016102f360279139610124565b9392505050565b6001600160a01b03163b151590565b90565b600061009a7fa3f0ad74e5423aebfd80d3ef4346578335a9a72aeaee59ff6cb3582b35133d50546001600160a01b031690565b6001600160a01b0316635c60da1b6040518163ffffffff1660e01b8152600401602060405180830381865afa1580156100d7573d6000803e3d6000fd5b505050506040513d601f19601f820116820180604052508101906100fb919061024a565b905090565b3660008037600080366000845af43d6000803e80801561011f573d6000f35b3d6000fd5b6060600080856001600160a01b03168560405161014191906102a3565b600060405180830381855af49150503d806000811461017c576040519150601f19603f3d011682016040523d82523d6000602084013e610181565b606091505b50915091506101928683838761019c565b9695505050505050565b6060831561020e578251600003610207576101b685610055565b6102075760405162461bcd60e51b815260206004820152601d60248201527f416464726573733a2063616c6c20746f206e6f6e2d636f6e747261637400000060448201526064015b60405180910390fd5b5081610218565b6102188383610220565b949350505050565b8151156102305781518083602001fd5b8060405162461bcd60e51b81526004016101fe91906102bf565b60006020828403121561025c57600080fd5b81516001600160a01b038116811461004e57600080fd5b60005b8381101561028e578181015183820152602001610276565b8381111561029d576000848401525b50505050565b600082516102b5818460208701610273565b9190910192915050565b60208152600082518060208401526102de816040850160208701610273565b601f01601f1916919091016040019291505056fe416464726573733a206c6f772d6c6576656c2064656c65676174652063616c6c206661696c6564a26469706673582212207f22fd01425f9697229001f4148c4c8342b9dbc21a5356b50889d9a5a76954b164736f6c634300080d0033416464726573733a206c6f772d6c6576656c2064656c65676174652063616c6c206661696c6564a26469706673582212204dec2c82486eee8a2e863db6e962ae3918d0d3be49188e5d3f89a7d9aeef117764736f6c634300080d0033",
  "immutableReferences": {},
  "source": "// SPDX-License-Identifier: MIT\npragma solidity >=0.4.22 <0.9.0;\nimport \"@openzeppelin/contracts/proxy/beacon/BeaconProxy.sol\";\nimport \"@openzeppelin/contracts/access/Ownable.sol\";\n\ncontract ProjectFactory is Ownable {\n    address private _beacon;\n\n    constructor(address beacon_) {\n        _beacon = beacon_;\n    }\n\n    function createProject() external onlyOwner returns (address) {\n        /// @dev generate payload for initialize function\n        string memory signature = \"initialize(address)\";\n        bytes memory payload = abi.encodeWithSignature(signature, owner());\n\n        return address(new BeaconProxy(_beacon, payload));\n    }\n\n    function setBeacon(address beacon_) external onlyOwner {\n        _beacon = beacon_;\n    }\n\n    function getBeacon() external view returns (address) {\n        return _beacon;\n    }\n}\n",
  "sourcePath": "/Users/thorduragustsson/Programming/Projects/CarbonRegistryContracts/contracts/ProjectFactory.sol",
  "compiler": {
    "name": "solc",
    "version": "0.8.13+commit.abaa5c0e.Emscripten.clang"
  },
  "schemaVersion": "3.4.13",
  "updatedAt": "2023-04-12T10:03:29.105Z",
  "devdoc": {
    "kind": "dev",
    "methods": {
      "owner()": {
        "details": "Returns the address of the current owner."
      },
      "renounceOwnership()": {
        "details": "Leaves the contract without owner. It will not be possible to call `onlyOwner` functions anymore. Can only be called by the current owner. NOTE: Renouncing ownership will leave the contract without an owner, thereby removing any functionality that is only available to the owner."
      },
      "transferOwnership(address)": {
        "details": "Transfers ownership of the contract to a new account (`newOwner`). Can only be called by the current owner."
      }
    },
    "version": 1
  },
  "userdoc": {
    "kind": "user",
    "methods": {},
    "version": 1
  }
}