{
  "contractName": "Project",
  "abi": [
    {
      "inputs": [],
      "stateMutability": "nonpayable",
      "type": "constructor"
    },
    {
      "anonymous": false,
      "inputs": [
        {
          "indexed": true,
          "internalType": "address",
          "name": "from",
          "type": "address"
        },
        {
          "indexed": true,
          "internalType": "uint256",
          "name": "tokenId",
          "type": "uint256"
        },
        {
          "indexed": false,
          "internalType": "uint256",
          "name": "amount",
          "type": "uint256"
        },
        {
          "indexed": true,
          "internalType": "enum AdminActionReason",
          "name": "reason",
          "type": "uint8"
        }
      ],
      "name": "AdminBurn",
      "type": "event"
    },
    {
      "anonymous": false,
      "inputs": [
        {
          "indexed": false,
          "internalType": "address",
          "name": "previousAdmin",
          "type": "address"
        },
        {
          "indexed": false,
          "internalType": "address",
          "name": "newAdmin",
          "type": "address"
        }
      ],
      "name": "AdminChanged",
      "type": "event"
    },
    {
      "anonymous": false,
      "inputs": [
        {
          "indexed": true,
          "internalType": "address",
          "name": "from",
          "type": "address"
        },
        {
          "indexed": false,
          "internalType": "address",
          "name": "to",
          "type": "address"
        },
        {
          "indexed": true,
          "internalType": "uint256",
          "name": "tokenId",
          "type": "uint256"
        },
        {
          "indexed": false,
          "internalType": "uint256",
          "name": "amount",
          "type": "uint256"
        },
        {
          "indexed": true,
          "internalType": "enum AdminActionReason",
          "name": "reason",
          "type": "uint8"
        }
      ],
      "name": "AdminClawback",
      "type": "event"
    },
    {
      "anonymous": false,
      "inputs": [
        {
          "indexed": true,
          "internalType": "address",
          "name": "account",
          "type": "address"
        },
        {
          "indexed": true,
          "internalType": "address",
          "name": "operator",
          "type": "address"
        },
        {
          "indexed": false,
          "internalType": "bool",
          "name": "approved",
          "type": "bool"
        }
      ],
      "name": "ApprovalForAll",
      "type": "event"
    },
    {
      "anonymous": false,
      "inputs": [
        {
          "indexed": true,
          "internalType": "address",
          "name": "beacon",
          "type": "address"
        }
      ],
      "name": "BeaconUpgraded",
      "type": "event"
    },
    {
      "anonymous": false,
      "inputs": [
        {
          "indexed": true,
          "internalType": "address",
          "name": "account",
          "type": "address"
        },
        {
          "indexed": true,
          "internalType": "uint256",
          "name": "tokenId",
          "type": "uint256"
        },
        {
          "indexed": false,
          "internalType": "uint256",
          "name": "amount",
          "type": "uint256"
        },
        {
          "indexed": false,
          "internalType": "string",
          "name": "reason",
          "type": "string"
        },
        {
          "indexed": false,
          "internalType": "bytes",
          "name": "data",
          "type": "bytes"
        }
      ],
      "name": "CancelledCredits",
      "type": "event"
    },
    {
      "anonymous": false,
      "inputs": [
        {
          "indexed": true,
          "internalType": "uint256",
          "name": "exAnteTokenId",
          "type": "uint256"
        },
        {
          "indexed": true,
          "internalType": "uint256",
          "name": "exPostTokenId",
          "type": "uint256"
        },
        {
          "indexed": true,
          "internalType": "address",
          "name": "account",
          "type": "address"
        },
        {
          "indexed": false,
          "internalType": "uint256",
          "name": "amount",
          "type": "uint256"
        }
      ],
      "name": "ExAnteMinted",
      "type": "event"
    },
    {
      "anonymous": false,
      "inputs": [
        {
          "indexed": true,
          "internalType": "uint256",
          "name": "tokenId",
          "type": "uint256"
        },
        {
          "indexed": false,
          "internalType": "uint256",
          "name": "estimatedAmount",
          "type": "uint256"
        },
        {
          "indexed": false,
          "internalType": "uint256",
          "name": "verificationPeriodStart",
          "type": "uint256"
        },
        {
          "indexed": false,
          "internalType": "uint256",
          "name": "verificationPeriodEnd",
          "type": "uint256"
        },
        {
          "indexed": false,
          "internalType": "string",
          "name": "serialization",
          "type": "string"
        }
      ],
      "name": "ExPostCreated",
      "type": "event"
    },
    {
      "anonymous": false,
      "inputs": [
        {
          "indexed": true,
          "internalType": "uint256",
          "name": "tokenId",
          "type": "uint256"
        },
        {
          "indexed": false,
          "internalType": "uint256",
          "name": "amount",
          "type": "uint256"
        },
        {
          "indexed": false,
          "internalType": "uint256",
          "name": "amountToAnteHolders",
          "type": "uint256"
        },
        {
          "indexed": false,
          "internalType": "uint256",
          "name": "verificationPeriodStart",
          "type": "uint256"
        },
        {
          "indexed": false,
          "internalType": "uint256",
          "name": "verificationPeriodEnd",
          "type": "uint256"
        },
        {
          "indexed": false,
          "internalType": "string",
          "name": "monitoringReport",
          "type": "string"
        }
      ],
      "name": "ExPostVerifiedAndMinted",
      "type": "event"
    },
    {
      "anonymous": false,
      "inputs": [
        {
          "indexed": true,
          "internalType": "address",
          "name": "account",
          "type": "address"
        },
        {
          "indexed": true,
          "internalType": "uint256",
          "name": "exPostTokenId",
          "type": "uint256"
        },
        {
          "indexed": false,
          "internalType": "uint256",
          "name": "exPostAmountReceived",
          "type": "uint256"
        },
        {
          "indexed": false,
          "internalType": "uint256",
          "name": "exAnteAmountBurned",
          "type": "uint256"
        }
      ],
      "name": "ExchangeAnteForPost",
      "type": "event"
    },
    {
      "anonymous": false,
      "inputs": [
        {
          "indexed": false,
          "internalType": "uint8",
          "name": "version",
          "type": "uint8"
        }
      ],
      "name": "Initialized",
      "type": "event"
    },
    {
      "anonymous": false,
      "inputs": [
        {
          "indexed": false,
          "internalType": "address",
          "name": "account",
          "type": "address"
        }
      ],
      "name": "Paused",
      "type": "event"
    },
    {
      "anonymous": false,
      "inputs": [
        {
          "indexed": true,
          "internalType": "address",
          "name": "account",
          "type": "address"
        },
        {
          "indexed": true,
          "internalType": "uint256",
          "name": "tokenId",
          "type": "uint256"
        },
        {
          "indexed": false,
          "internalType": "uint256",
          "name": "amount",
          "type": "uint256"
        },
        {
          "indexed": false,
          "internalType": "uint256",
          "name": "nftTokenId",
          "type": "uint256"
        },
        {
          "indexed": false,
          "internalType": "bytes",
          "name": "data",
          "type": "bytes"
        }
      ],
      "name": "RetiredVintage",
      "type": "event"
    },
    {
      "anonymous": false,
      "inputs": [
        {
          "indexed": true,
          "internalType": "bytes32",
          "name": "role",
          "type": "bytes32"
        },
        {
          "indexed": true,
          "internalType": "bytes32",
          "name": "previousAdminRole",
          "type": "bytes32"
        },
        {
          "indexed": true,
          "internalType": "bytes32",
          "name": "newAdminRole",
          "type": "bytes32"
        }
      ],
      "name": "RoleAdminChanged",
      "type": "event"
    },
    {
      "anonymous": false,
      "inputs": [
        {
          "indexed": true,
          "internalType": "bytes32",
          "name": "role",
          "type": "bytes32"
        },
        {
          "indexed": true,
          "internalType": "address",
          "name": "account",
          "type": "address"
        },
        {
          "indexed": true,
          "internalType": "address",
          "name": "sender",
          "type": "address"
        }
      ],
      "name": "RoleGranted",
      "type": "event"
    },
    {
      "anonymous": false,
      "inputs": [
        {
          "indexed": true,
          "internalType": "bytes32",
          "name": "role",
          "type": "bytes32"
        },
        {
          "indexed": true,
          "internalType": "address",
          "name": "account",
          "type": "address"
        },
        {
          "indexed": true,
          "internalType": "address",
          "name": "sender",
          "type": "address"
        }
      ],
      "name": "RoleRevoked",
      "type": "event"
    },
    {
      "anonymous": false,
      "inputs": [
        {
          "indexed": true,
          "internalType": "address",
          "name": "operator",
          "type": "address"
        },
        {
          "indexed": true,
          "internalType": "address",
          "name": "from",
          "type": "address"
        },
        {
          "indexed": true,
          "internalType": "address",
          "name": "to",
          "type": "address"
        },
        {
          "indexed": false,
          "internalType": "uint256[]",
          "name": "ids",
          "type": "uint256[]"
        },
        {
          "indexed": false,
          "internalType": "uint256[]",
          "name": "values",
          "type": "uint256[]"
        }
      ],
      "name": "TransferBatch",
      "type": "event"
    },
    {
      "anonymous": false,
      "inputs": [
        {
          "indexed": false,
          "internalType": "bytes",
          "name": "signature",
          "type": "bytes"
        },
        {
          "components": [
            {
              "internalType": "uint256",
              "name": "deadline",
              "type": "uint256"
            },
            {
              "internalType": "string",
              "name": "description",
              "type": "string"
            },
            {
              "internalType": "address",
              "name": "signer",
              "type": "address"
            },
            {
              "internalType": "address",
              "name": "to",
              "type": "address"
            },
            {
              "internalType": "uint256",
              "name": "tokenId",
              "type": "uint256"
            },
            {
              "internalType": "uint256",
              "name": "amount",
              "type": "uint256"
            },
            {
              "internalType": "uint256",
              "name": "nonce",
              "type": "uint256"
            }
          ],
          "indexed": false,
          "internalType": "struct signatureTransferPayload",
          "name": "payload",
          "type": "tuple"
        }
      ],
      "name": "TransferSignatureValid",
      "type": "event"
    },
    {
      "anonymous": false,
      "inputs": [
        {
          "indexed": true,
          "internalType": "address",
          "name": "operator",
          "type": "address"
        },
        {
          "indexed": true,
          "internalType": "address",
          "name": "from",
          "type": "address"
        },
        {
          "indexed": true,
          "internalType": "address",
          "name": "to",
          "type": "address"
        },
        {
          "indexed": false,
          "internalType": "uint256",
          "name": "id",
          "type": "uint256"
        },
        {
          "indexed": false,
          "internalType": "uint256",
          "name": "value",
          "type": "uint256"
        }
      ],
      "name": "TransferSingle",
      "type": "event"
    },
    {
      "anonymous": false,
      "inputs": [
        {
          "indexed": false,
          "internalType": "string",
          "name": "value",
          "type": "string"
        },
        {
          "indexed": true,
          "internalType": "uint256",
          "name": "id",
          "type": "uint256"
        }
      ],
      "name": "URI",
      "type": "event"
    },
    {
      "anonymous": false,
      "inputs": [
        {
          "indexed": false,
          "internalType": "address",
          "name": "account",
          "type": "address"
        }
      ],
      "name": "Unpaused",
      "type": "event"
    },
    {
      "anonymous": false,
      "inputs": [
        {
          "indexed": true,
          "internalType": "address",
          "name": "implementation",
          "type": "address"
        }
      ],
      "name": "Upgraded",
      "type": "event"
    },
    {
      "anonymous": false,
      "inputs": [
        {
          "indexed": true,
          "internalType": "uint256",
          "name": "tokenId",
          "type": "uint256"
        },
        {
          "indexed": false,
          "internalType": "uint256",
          "name": "newEstimate",
          "type": "uint256"
        },
        {
          "indexed": false,
          "internalType": "uint256",
          "name": "oldEstimate",
          "type": "uint256"
        },
        {
          "indexed": true,
          "internalType": "enum AdminActionReason",
          "name": "reason",
          "type": "uint8"
        }
      ],
      "name": "VintageMitigationEstimateChanged",
      "type": "event"
    },
    {
      "inputs": [],
      "name": "ANTE_MINTER_ROLE",
      "outputs": [
        {
          "internalType": "bytes32",
          "name": "",
          "type": "bytes32"
        }
      ],
      "stateMutability": "view",
      "type": "function"
    },
    {
      "inputs": [],
      "name": "BLACKLISTED",
      "outputs": [
        {
          "internalType": "bytes32",
          "name": "",
          "type": "bytes32"
        }
      ],
      "stateMutability": "view",
      "type": "function"
    },
    {
      "inputs": [],
      "name": "BLACKLISTER_ROLE",
      "outputs": [
        {
          "internalType": "bytes32",
          "name": "",
          "type": "bytes32"
        }
      ],
      "stateMutability": "view",
      "type": "function"
    },
    {
      "inputs": [],
      "name": "BURNER_ROLE",
      "outputs": [
        {
          "internalType": "bytes32",
          "name": "",
          "type": "bytes32"
        }
      ],
      "stateMutability": "view",
      "type": "function"
    },
    {
      "inputs": [],
      "name": "CLAWBACK_ROLE",
      "outputs": [
        {
          "internalType": "bytes32",
          "name": "",
          "type": "bytes32"
        }
      ],
      "stateMutability": "view",
      "type": "function"
    },
    {
      "inputs": [],
      "name": "DEFAULT_ADMIN_ROLE",
      "outputs": [
        {
          "internalType": "bytes32",
          "name": "",
          "type": "bytes32"
        }
      ],
      "stateMutability": "view",
      "type": "function"
    },
    {
      "inputs": [],
      "name": "MINTER_ROLE",
      "outputs": [
        {
          "internalType": "bytes32",
          "name": "",
          "type": "bytes32"
        }
      ],
      "stateMutability": "view",
      "type": "function"
    },
    {
      "inputs": [],
      "name": "PAUSER_ROLE",
      "outputs": [
        {
          "internalType": "bytes32",
          "name": "",
          "type": "bytes32"
        }
      ],
      "stateMutability": "view",
      "type": "function"
    },
    {
      "inputs": [],
      "name": "POST_MINTER_ROLE",
      "outputs": [
        {
          "internalType": "bytes32",
          "name": "",
          "type": "bytes32"
        }
      ],
      "stateMutability": "view",
      "type": "function"
    },
    {
      "inputs": [],
      "name": "UPGRADER_ROLE",
      "outputs": [
        {
          "internalType": "bytes32",
          "name": "",
          "type": "bytes32"
        }
      ],
      "stateMutability": "view",
      "type": "function"
    },
    {
      "inputs": [],
      "name": "URI_SETTER_ROLE",
      "outputs": [
        {
          "internalType": "bytes32",
          "name": "",
          "type": "bytes32"
        }
      ],
      "stateMutability": "view",
      "type": "function"
    },
    {
      "inputs": [],
      "name": "VERIFIER_ROLE",
      "outputs": [
        {
          "internalType": "bytes32",
          "name": "",
          "type": "bytes32"
        }
      ],
      "stateMutability": "view",
      "type": "function"
    },
    {
      "inputs": [
        {
          "internalType": "address",
          "name": "_contractRegistry",
          "type": "address"
        },
        {
          "internalType": "uint8",
          "name": "_maxAntePerc",
          "type": "uint8"
        },
        {
          "internalType": "uint256",
          "name": "_projectId",
          "type": "uint256"
        },
        {
          "internalType": "string",
          "name": "_projectName",
          "type": "string"
        }
      ],
      "name": "__ProjectStorage_init",
      "outputs": [],
      "stateMutability": "nonpayable",
      "type": "function"
    },
    {
      "inputs": [
        {
          "internalType": "address",
          "name": "account",
          "type": "address"
        },
        {
          "internalType": "uint256",
          "name": "id",
          "type": "uint256"
        }
      ],
      "name": "balanceOf",
      "outputs": [
        {
          "internalType": "uint256",
          "name": "",
          "type": "uint256"
        }
      ],
      "stateMutability": "view",
      "type": "function"
    },
    {
      "inputs": [
        {
          "internalType": "address[]",
          "name": "accounts",
          "type": "address[]"
        },
        {
          "internalType": "uint256[]",
          "name": "ids",
          "type": "uint256[]"
        }
      ],
      "name": "balanceOfBatch",
      "outputs": [
        {
          "internalType": "uint256[]",
          "name": "",
          "type": "uint256[]"
        }
      ],
      "stateMutability": "view",
      "type": "function"
    },
    {
      "inputs": [],
      "name": "contractRegistry",
      "outputs": [
        {
          "internalType": "address",
          "name": "",
          "type": "address"
        }
      ],
      "stateMutability": "view",
      "type": "function"
    },
    {
      "inputs": [
        {
          "internalType": "uint256",
          "name": "",
          "type": "uint256"
        }
      ],
      "name": "exAnteToExPostTokenId",
      "outputs": [
        {
          "internalType": "uint256",
          "name": "",
          "type": "uint256"
        }
      ],
      "stateMutability": "view",
      "type": "function"
    },
    {
      "inputs": [
        {
          "internalType": "uint256",
          "name": "",
          "type": "uint256"
        }
      ],
      "name": "exPostToExAnteTokenId",
      "outputs": [
        {
          "internalType": "uint256",
          "name": "",
          "type": "uint256"
        }
      ],
      "stateMutability": "view",
      "type": "function"
    },
    {
      "inputs": [
        {
          "internalType": "uint256",
          "name": "",
          "type": "uint256"
        }
      ],
      "name": "exPostVintageMapping",
      "outputs": [
        {
          "internalType": "string",
          "name": "serialization",
          "type": "string"
        },
        {
          "internalType": "uint256",
          "name": "estMitigations",
          "type": "uint256"
        },
        {
          "internalType": "uint256",
          "name": "verificationPeriodStart",
          "type": "uint256"
        },
        {
          "internalType": "uint256",
          "name": "verificationPeriodEnd",
          "type": "uint256"
        },
        {
          "internalType": "uint256",
          "name": "lastVerificationTimestamp",
          "type": "uint256"
        }
      ],
      "stateMutability": "view",
      "type": "function"
    },
    {
      "inputs": [
        {
          "internalType": "uint256",
          "name": "id",
          "type": "uint256"
        }
      ],
      "name": "exists",
      "outputs": [
        {
          "internalType": "bool",
          "name": "",
          "type": "bool"
        }
      ],
      "stateMutability": "view",
      "type": "function"
    },
    {
      "inputs": [
        {
          "internalType": "bytes32",
          "name": "role",
          "type": "bytes32"
        }
      ],
      "name": "getRoleAdmin",
      "outputs": [
        {
          "internalType": "bytes32",
          "name": "",
          "type": "bytes32"
        }
      ],
      "stateMutability": "view",
      "type": "function"
    },
    {
      "inputs": [
        {
          "internalType": "bytes32",
          "name": "role",
          "type": "bytes32"
        },
        {
          "internalType": "address",
          "name": "account",
          "type": "address"
        }
      ],
      "name": "grantRole",
      "outputs": [],
      "stateMutability": "nonpayable",
      "type": "function"
    },
    {
      "inputs": [
        {
          "internalType": "bytes32",
          "name": "role",
          "type": "bytes32"
        },
        {
          "internalType": "address",
          "name": "account",
          "type": "address"
        }
      ],
      "name": "hasRole",
      "outputs": [
        {
          "internalType": "bool",
          "name": "",
          "type": "bool"
        }
      ],
      "stateMutability": "view",
      "type": "function"
    },
    {
      "inputs": [
        {
          "internalType": "address",
          "name": "account",
          "type": "address"
        },
        {
          "internalType": "address",
          "name": "operator",
          "type": "address"
        }
      ],
      "name": "isApprovedForAll",
      "outputs": [
        {
          "internalType": "bool",
          "name": "",
          "type": "bool"
        }
      ],
      "stateMutability": "view",
      "type": "function"
    },
    {
      "inputs": [],
      "name": "maxAntePercentage",
      "outputs": [
        {
          "internalType": "uint8",
          "name": "",
          "type": "uint8"
        }
      ],
      "stateMutability": "view",
      "type": "function"
    },
    {
      "inputs": [
        {
          "internalType": "address",
          "name": "",
          "type": "address"
        },
        {
          "internalType": "address",
          "name": "",
          "type": "address"
        },
        {
          "internalType": "uint256[]",
          "name": "",
          "type": "uint256[]"
        },
        {
          "internalType": "uint256[]",
          "name": "",
          "type": "uint256[]"
        },
        {
          "internalType": "bytes",
          "name": "",
          "type": "bytes"
        }
      ],
      "name": "onERC1155BatchReceived",
      "outputs": [
        {
          "internalType": "bytes4",
          "name": "",
          "type": "bytes4"
        }
      ],
      "stateMutability": "nonpayable",
      "type": "function"
    },
    {
      "inputs": [
        {
          "internalType": "address",
          "name": "",
          "type": "address"
        },
        {
          "internalType": "address",
          "name": "",
          "type": "address"
        },
        {
          "internalType": "uint256",
          "name": "",
          "type": "uint256"
        },
        {
          "internalType": "uint256",
          "name": "",
          "type": "uint256"
        },
        {
          "internalType": "bytes",
          "name": "",
          "type": "bytes"
        }
      ],
      "name": "onERC1155Received",
      "outputs": [
        {
          "internalType": "bytes4",
          "name": "",
          "type": "bytes4"
        }
      ],
      "stateMutability": "nonpayable",
      "type": "function"
    },
    {
      "inputs": [],
      "name": "paused",
      "outputs": [
        {
          "internalType": "bool",
          "name": "",
          "type": "bool"
        }
      ],
      "stateMutability": "view",
      "type": "function"
    },
    {
      "inputs": [],
      "name": "projectId",
      "outputs": [
        {
          "internalType": "uint256",
          "name": "",
          "type": "uint256"
        }
      ],
      "stateMutability": "view",
      "type": "function"
    },
    {
      "inputs": [],
      "name": "projectName",
      "outputs": [
        {
          "internalType": "string",
          "name": "",
          "type": "string"
        }
      ],
      "stateMutability": "view",
      "type": "function"
    },
    {
      "inputs": [],
      "name": "proxiableUUID",
      "outputs": [
        {
          "internalType": "bytes32",
          "name": "",
          "type": "bytes32"
        }
      ],
      "stateMutability": "view",
      "type": "function"
    },
    {
      "inputs": [
        {
          "internalType": "bytes32",
          "name": "role",
          "type": "bytes32"
        },
        {
          "internalType": "address",
          "name": "account",
          "type": "address"
        }
      ],
      "name": "renounceRole",
      "outputs": [],
      "stateMutability": "nonpayable",
      "type": "function"
    },
    {
      "inputs": [
        {
          "internalType": "uint256",
          "name": "",
          "type": "uint256"
        }
      ],
      "name": "retirementMapping",
      "outputs": [
        {
          "internalType": "address",
          "name": "retiree",
          "type": "address"
        },
        {
          "internalType": "uint256",
          "name": "amount",
          "type": "uint256"
        },
        {
          "internalType": "uint256",
          "name": "vintageTokenId",
          "type": "uint256"
        },
        {
          "internalType": "string",
          "name": "retireeName",
          "type": "string"
        },
        {
          "internalType": "string",
          "name": "customUri",
          "type": "string"
        },
        {
          "internalType": "string",
          "name": "comment",
          "type": "string"
        }
      ],
      "stateMutability": "view",
      "type": "function"
    },
    {
      "inputs": [
        {
          "internalType": "bytes32",
          "name": "role",
          "type": "bytes32"
        },
        {
          "internalType": "address",
          "name": "account",
          "type": "address"
        }
      ],
      "name": "revokeRole",
      "outputs": [],
      "stateMutability": "nonpayable",
      "type": "function"
    },
    {
      "inputs": [
        {
          "internalType": "address",
          "name": "from",
          "type": "address"
        },
        {
          "internalType": "address",
          "name": "to",
          "type": "address"
        },
        {
          "internalType": "uint256[]",
          "name": "ids",
          "type": "uint256[]"
        },
        {
          "internalType": "uint256[]",
          "name": "amounts",
          "type": "uint256[]"
        },
        {
          "internalType": "bytes",
          "name": "data",
          "type": "bytes"
        }
      ],
      "name": "safeBatchTransferFrom",
      "outputs": [],
      "stateMutability": "nonpayable",
      "type": "function"
    },
    {
      "inputs": [
        {
          "internalType": "address",
          "name": "from",
          "type": "address"
        },
        {
          "internalType": "address",
          "name": "to",
          "type": "address"
        },
        {
          "internalType": "uint256",
          "name": "id",
          "type": "uint256"
        },
        {
          "internalType": "uint256",
          "name": "amount",
          "type": "uint256"
        },
        {
          "internalType": "bytes",
          "name": "data",
          "type": "bytes"
        }
      ],
      "name": "safeTransferFrom",
      "outputs": [],
      "stateMutability": "nonpayable",
      "type": "function"
    },
    {
      "inputs": [
        {
          "internalType": "string",
          "name": "",
          "type": "string"
        }
      ],
      "name": "serializationToExPostTokenIdMapping",
      "outputs": [
        {
          "internalType": "uint256",
          "name": "",
          "type": "uint256"
        }
      ],
      "stateMutability": "view",
      "type": "function"
    },
    {
      "inputs": [
        {
          "internalType": "address",
          "name": "operator",
          "type": "address"
        },
        {
          "internalType": "bool",
          "name": "approved",
          "type": "bool"
        }
      ],
      "name": "setApprovalForAll",
      "outputs": [],
      "stateMutability": "nonpayable",
      "type": "function"
    },
    {
      "inputs": [
        {
          "internalType": "address",
          "name": "",
          "type": "address"
        }
      ],
      "name": "signatureNonces",
      "outputs": [
        {
          "internalType": "uint32",
          "name": "",
          "type": "uint32"
        }
      ],
      "stateMutability": "view",
      "type": "function"
    },
    {
      "inputs": [],
      "name": "topTokenId",
      "outputs": [
        {
          "internalType": "uint256",
          "name": "",
          "type": "uint256"
        }
      ],
      "stateMutability": "view",
      "type": "function"
    },
    {
      "inputs": [
        {
          "internalType": "uint256",
          "name": "id",
          "type": "uint256"
        }
      ],
      "name": "totalSupply",
      "outputs": [
        {
          "internalType": "uint256",
          "name": "",
          "type": "uint256"
        }
      ],
      "stateMutability": "view",
      "type": "function"
    },
    {
      "inputs": [
        {
          "internalType": "address",
          "name": "newImplementation",
          "type": "address"
        }
      ],
      "name": "upgradeTo",
      "outputs": [],
      "stateMutability": "nonpayable",
      "type": "function"
    },
    {
      "inputs": [
        {
          "internalType": "address",
          "name": "newImplementation",
          "type": "address"
        },
        {
          "internalType": "bytes",
          "name": "data",
          "type": "bytes"
        }
      ],
      "name": "upgradeToAndCall",
      "outputs": [],
      "stateMutability": "payable",
      "type": "function"
    },
    {
      "inputs": [
        {
          "internalType": "uint256",
          "name": "",
          "type": "uint256"
        }
      ],
      "name": "uri",
      "outputs": [
        {
          "internalType": "string",
          "name": "",
          "type": "string"
        }
      ],
      "stateMutability": "view",
      "type": "function"
    },
    {
      "inputs": [
        {
          "internalType": "address",
          "name": "_contractRegistry",
          "type": "address"
        },
        {
          "internalType": "address",
          "name": "_owner",
          "type": "address"
        },
        {
          "internalType": "uint256",
          "name": "_projectId",
          "type": "uint256"
        },
        {
          "internalType": "string",
          "name": "_projectName",
          "type": "string"
        }
      ],
      "name": "initialize",
      "outputs": [],
      "stateMutability": "nonpayable",
      "type": "function"
    },
    {
      "inputs": [
        {
          "internalType": "uint256",
          "name": "tokenId",
          "type": "uint256"
        }
      ],
      "name": "isExPostToken",
      "outputs": [
        {
          "internalType": "bool",
          "name": "",
          "type": "bool"
        }
      ],
      "stateMutability": "view",
      "type": "function"
    },
    {
      "inputs": [],
      "name": "testUpgrade",
      "outputs": [
        {
          "internalType": "string",
          "name": "",
          "type": "string"
        }
      ],
      "stateMutability": "pure",
      "type": "function"
    },
    {
      "inputs": [
        {
          "internalType": "uint256",
          "name": "estAmount",
          "type": "uint256"
        },
        {
          "internalType": "uint256",
          "name": "verificationPeriodStart",
          "type": "uint256"
        },
        {
          "internalType": "uint256",
          "name": "verificationPeriodEnd",
          "type": "uint256"
        },
        {
          "internalType": "string",
          "name": "serialization",
          "type": "string"
        }
      ],
      "name": "createExPostVintage",
      "outputs": [],
      "stateMutability": "nonpayable",
      "type": "function"
    },
    {
      "inputs": [
        {
          "components": [
            {
              "internalType": "string",
              "name": "serialization",
              "type": "string"
            },
            {
              "internalType": "uint256",
              "name": "estMitigations",
              "type": "uint256"
            },
            {
              "internalType": "uint256",
              "name": "verificationPeriodStart",
              "type": "uint256"
            },
            {
              "internalType": "uint256",
              "name": "verificationPeriodEnd",
              "type": "uint256"
            },
            {
              "internalType": "uint256",
              "name": "lastVerificationTimestamp",
              "type": "uint256"
            }
          ],
          "internalType": "struct VintageData[]",
          "name": "vintages",
          "type": "tuple[]"
        }
      ],
      "name": "createExPostVintageBatch",
      "outputs": [],
      "stateMutability": "nonpayable",
      "type": "function"
    },
    {
      "inputs": [
        {
          "internalType": "address",
          "name": "account",
          "type": "address"
        },
        {
          "internalType": "uint256",
          "name": "exPostTokenId",
          "type": "uint256"
        },
        {
          "internalType": "uint256",
          "name": "amount",
          "type": "uint256"
        },
        {
          "internalType": "bytes",
          "name": "data",
          "type": "bytes"
        }
      ],
      "name": "mintExAnte",
      "outputs": [],
      "stateMutability": "nonpayable",
      "type": "function"
    },
    {
      "inputs": [
        {
          "internalType": "uint256",
          "name": "tokenId",
          "type": "uint256"
        },
        {
          "internalType": "uint256",
          "name": "newEstAmount",
          "type": "uint256"
        },
        {
          "internalType": "enum AdminActionReason",
          "name": "reason",
          "type": "uint8"
        }
      ],
      "name": "changeVintageMitigationEstimate",
      "outputs": [],
      "stateMutability": "nonpayable",
      "type": "function"
    },
    {
      "inputs": [
        {
          "internalType": "address",
          "name": "verificationVault",
          "type": "address"
        },
        {
          "internalType": "uint256",
          "name": "tokenId",
          "type": "uint256"
        },
        {
          "internalType": "uint256",
          "name": "amountVerified",
          "type": "uint256"
        },
        {
          "internalType": "uint256",
          "name": "amountToAnteHolders",
          "type": "uint256"
        },
        {
          "internalType": "uint256",
          "name": "verificationPeriodStart",
          "type": "uint256"
        },
        {
          "internalType": "uint256",
          "name": "verificationPeriodEnd",
          "type": "uint256"
        },
        {
          "internalType": "string",
          "name": "monitoringReport",
          "type": "string"
        }
      ],
      "name": "verifyAndMintExPost",
      "outputs": [],
      "stateMutability": "nonpayable",
      "type": "function"
    },
    {
      "inputs": [
        {
          "internalType": "address",
          "name": "from",
          "type": "address"
        },
        {
          "internalType": "uint256",
          "name": "tokenId",
          "type": "uint256"
        },
        {
          "internalType": "uint256",
          "name": "amount",
          "type": "uint256"
        },
        {
          "internalType": "enum AdminActionReason",
          "name": "reason",
          "type": "uint8"
        }
      ],
      "name": "adminBurn",
      "outputs": [],
      "stateMutability": "nonpayable",
      "type": "function"
    },
    {
      "inputs": [
        {
          "internalType": "address",
          "name": "from",
          "type": "address"
        },
        {
          "internalType": "address",
          "name": "to",
          "type": "address"
        },
        {
          "internalType": "uint256",
          "name": "tokenId",
          "type": "uint256"
        },
        {
          "internalType": "uint256",
          "name": "amount",
          "type": "uint256"
        },
        {
          "internalType": "enum AdminActionReason",
          "name": "reason",
          "type": "uint8"
        }
      ],
      "name": "adminClawback",
      "outputs": [],
      "stateMutability": "nonpayable",
      "type": "function"
    },
    {
      "inputs": [
        {
          "internalType": "address[]",
          "name": "accounts",
          "type": "address[]"
        },
        {
          "internalType": "uint256",
          "name": "exPostTokenId",
          "type": "uint256"
        },
        {
          "internalType": "bytes",
          "name": "data",
          "type": "bytes"
        }
      ],
      "name": "exchangeAnteForPostEvenSteven",
      "outputs": [],
      "stateMutability": "nonpayable",
      "type": "function"
    },
    {
      "inputs": [
        {
          "internalType": "uint256",
          "name": "exAnteTokenId",
          "type": "uint256"
        }
      ],
      "name": "getExPostVintageData",
      "outputs": [
        {
          "components": [
            {
              "internalType": "string",
              "name": "serialization",
              "type": "string"
            },
            {
              "internalType": "uint256",
              "name": "estMitigations",
              "type": "uint256"
            },
            {
              "internalType": "uint256",
              "name": "verificationPeriodStart",
              "type": "uint256"
            },
            {
              "internalType": "uint256",
              "name": "verificationPeriodEnd",
              "type": "uint256"
            },
            {
              "internalType": "uint256",
              "name": "lastVerificationTimestamp",
              "type": "uint256"
            }
          ],
          "internalType": "struct VintageData",
          "name": "",
          "type": "tuple"
        }
      ],
      "stateMutability": "view",
      "type": "function"
    },
    {
      "inputs": [
        {
          "internalType": "bytes",
          "name": "signature",
          "type": "bytes"
        },
        {
          "components": [
            {
              "internalType": "uint256",
              "name": "deadline",
              "type": "uint256"
            },
            {
              "internalType": "string",
              "name": "description",
              "type": "string"
            },
            {
              "internalType": "address",
              "name": "signer",
              "type": "address"
            },
            {
              "internalType": "address",
              "name": "to",
              "type": "address"
            },
            {
              "internalType": "uint256",
              "name": "tokenId",
              "type": "uint256"
            },
            {
              "internalType": "uint256",
              "name": "amount",
              "type": "uint256"
            },
            {
              "internalType": "uint256",
              "name": "nonce",
              "type": "uint256"
            }
          ],
          "internalType": "struct signatureTransferPayload",
          "name": "payload",
          "type": "tuple"
        },
        {
          "internalType": "string",
          "name": "retireeName",
          "type": "string"
        },
        {
          "internalType": "string",
          "name": "customUri",
          "type": "string"
        },
        {
          "internalType": "string",
          "name": "comment",
          "type": "string"
        },
        {
          "internalType": "bytes",
          "name": "data",
          "type": "bytes"
        }
      ],
      "name": "transferAndRetireFromSignature",
      "outputs": [
        {
          "internalType": "uint256",
          "name": "nftTokenId",
          "type": "uint256"
        }
      ],
      "stateMutability": "nonpayable",
      "type": "function"
    },
    {
      "inputs": [
        {
          "internalType": "bytes",
          "name": "signature",
          "type": "bytes"
        },
        {
          "components": [
            {
              "internalType": "uint256",
              "name": "deadline",
              "type": "uint256"
            },
            {
              "internalType": "string",
              "name": "description",
              "type": "string"
            },
            {
              "internalType": "address",
              "name": "signer",
              "type": "address"
            },
            {
              "internalType": "address",
              "name": "to",
              "type": "address"
            },
            {
              "internalType": "uint256",
              "name": "tokenId",
              "type": "uint256"
            },
            {
              "internalType": "uint256",
              "name": "amount",
              "type": "uint256"
            },
            {
              "internalType": "uint256",
              "name": "nonce",
              "type": "uint256"
            }
          ],
          "internalType": "struct signatureTransferPayload",
          "name": "payload",
          "type": "tuple"
        },
        {
          "internalType": "bytes",
          "name": "data",
          "type": "bytes"
        }
      ],
      "name": "transferFromSignature",
      "outputs": [],
      "stateMutability": "payable",
      "type": "function"
    },
    {
      "inputs": [
        {
          "internalType": "uint256",
          "name": "tokenId",
          "type": "uint256"
        },
        {
          "internalType": "uint256",
          "name": "amount",
          "type": "uint256"
        },
        {
          "internalType": "address",
          "name": "retiree",
          "type": "address"
        },
        {
          "internalType": "string",
          "name": "retireeName",
          "type": "string"
        },
        {
          "internalType": "string",
          "name": "customUri",
          "type": "string"
        },
        {
          "internalType": "string",
          "name": "comment",
          "type": "string"
        },
        {
          "internalType": "bytes",
          "name": "data",
          "type": "bytes"
        }
      ],
      "name": "retire",
      "outputs": [
        {
          "internalType": "uint256",
          "name": "nftTokenId",
          "type": "uint256"
        }
      ],
      "stateMutability": "nonpayable",
      "type": "function"
    },
    {
      "inputs": [
        {
          "internalType": "bytes",
          "name": "signature",
          "type": "bytes"
        },
        {
          "components": [
            {
              "internalType": "uint256",
              "name": "deadline",
              "type": "uint256"
            },
            {
              "internalType": "string",
              "name": "description",
              "type": "string"
            },
            {
              "internalType": "address",
              "name": "signer",
              "type": "address"
            },
            {
              "internalType": "address",
              "name": "to",
              "type": "address"
            },
            {
              "internalType": "uint256",
              "name": "tokenId",
              "type": "uint256"
            },
            {
              "internalType": "uint256",
              "name": "amount",
              "type": "uint256"
            },
            {
              "internalType": "uint256",
              "name": "nonce",
              "type": "uint256"
            }
          ],
          "internalType": "struct signatureTransferPayload",
          "name": "payload",
          "type": "tuple"
        },
        {
          "internalType": "string",
          "name": "retireeName",
          "type": "string"
        },
        {
          "internalType": "string",
          "name": "customUri",
          "type": "string"
        },
        {
          "internalType": "string",
          "name": "comment",
          "type": "string"
        },
        {
          "internalType": "bytes",
          "name": "data",
          "type": "bytes"
        }
      ],
      "name": "retireFromSignature",
      "outputs": [
        {
          "internalType": "uint256",
          "name": "nftTokenId",
          "type": "uint256"
        }
      ],
      "stateMutability": "nonpayable",
      "type": "function"
    },
    {
      "inputs": [
        {
          "internalType": "bytes",
          "name": "signature",
          "type": "bytes"
        },
        {
          "components": [
            {
              "internalType": "uint256",
              "name": "deadline",
              "type": "uint256"
            },
            {
              "internalType": "string",
              "name": "description",
              "type": "string"
            },
            {
              "internalType": "address",
              "name": "signer",
              "type": "address"
            },
            {
              "internalType": "address",
              "name": "to",
              "type": "address"
            },
            {
              "internalType": "uint256",
              "name": "tokenId",
              "type": "uint256"
            },
            {
              "internalType": "uint256",
              "name": "amount",
              "type": "uint256"
            },
            {
              "internalType": "uint256",
              "name": "nonce",
              "type": "uint256"
            }
          ],
          "internalType": "struct signatureTransferPayload",
          "name": "payload",
          "type": "tuple"
        },
        {
          "internalType": "string",
          "name": "comment",
          "type": "string"
        },
        {
          "internalType": "bytes",
          "name": "data",
          "type": "bytes"
        }
      ],
      "name": "cancelCreditsFromSignature",
      "outputs": [],
      "stateMutability": "nonpayable",
      "type": "function"
    },
    {
      "inputs": [
        {
          "internalType": "string",
          "name": "newuri",
          "type": "string"
        }
      ],
      "name": "setURI",
      "outputs": [],
      "stateMutability": "nonpayable",
      "type": "function"
    },
    {
      "inputs": [],
      "name": "pause",
      "outputs": [],
      "stateMutability": "nonpayable",
      "type": "function"
    },
    {
      "inputs": [],
      "name": "unpause",
      "outputs": [],
      "stateMutability": "nonpayable",
      "type": "function"
    },
    {
      "inputs": [
        {
          "internalType": "uint8",
          "name": "newMaxAntePercentage",
          "type": "uint8"
        }
      ],
      "name": "updateMaxAntePercentage",
      "outputs": [],
      "stateMutability": "nonpayable",
      "type": "function"
    },
    {
      "inputs": [
        {
          "internalType": "bytes4",
          "name": "interfaceId",
          "type": "bytes4"
        }
      ],
      "name": "supportsInterface",
      "outputs": [
        {
          "internalType": "bool",
          "name": "",
          "type": "bool"
        }
      ],
      "stateMutability": "view",
      "type": "function"
    }
  ],
  "bytecode": "0x60a0604052306080523480156200001557600080fd5b506200002062000026565b620000e8565b600054610100900460ff1615620000935760405162461bcd60e51b815260206004820152602760248201527f496e697469616c697a61626c653a20636f6e747261637420697320696e697469604482015266616c697a696e6760c81b606482015260840160405180910390fd5b60005460ff9081161015620000e6576000805460ff191660ff9081179091556040519081527f7f26b83ff96e1f2b6a682f133852f6798a09c465da95921460cefb38474024989060200160405180910390a15b565b608051615ff362000120600039600081816116540152818161169401528181611aa801528181611ae80152611b730152615ff36000f3fe6080604052600436106102e85760003560e01c8062fdd58e146102ed57806301ffc9a71461032057806302fe5305146103505780630cda95f9146103725780630e89341c1461039257806310c1e7a1146103bf5780631b3b596b146103df57806322088ebf1461040c578063248a9ca31461042c578063275d4dec1461044c578063282c51f31461046c5780632ea05e441461048e5780632eb2c2d6146104b05780632f2ff15d146104d05780633584c384146104f057806336568abe1461051e5780633659cfe61461053e5780633f4ba83a1461055e5780633fafa1271461057357806341a30d3c1461058a5780634e1273f4146105aa5780634f1ef286146105d75780634f558e79146105ea57806352d1902d1461060a57806354ff07951461061f57806357c537af146106585780635c975abb146106785780635e3bbaab14610690578063609d9564146106b2578063610e7012146106d257806361eeb089146106ff5780636929a19c146107165780636f63984d14610748578063728e68e31461076857806379c27605146107995780637f345710146107b95780638456cb59146107db5780638f76c1da146107f057806391d148541461081e57806396f495ae1461083e57806399df11cf1461085e5780639a33e3001461087e5780639d6aed0b146108935780639d88358a146108c15780639fec600b146108e1578063a0e1b17114610901578063a217fddf14610921578063a22cb46514610936578063aa8b2ea714610956578063abf410e514610978578063af93ff72146109a6578063bc197c81146109c6578063bd85b03914610a0b578063d539139314610a2b578063d547741f14610a5f578063dbd8483d14610a7f578063deb0420714610ac8578063e36408d014610ae8578063e63ab1e914610afb578063e7705db614610b1d578063e985e9c514610b3f578063edc0b2e614610b88578063f23a6e6114610baa578063f242432a14610bd6578063f515e6f214610bf6578063f72c0d8b14610c18575b600080fd5b3480156102f957600080fd5b5061030d6103083660046147d5565b610c3a565b6040519081526020015b60405180910390f35b34801561032c57600080fd5b5061034061033b366004614815565b610cd2565b6040519015158152602001610317565b34801561035c57600080fd5b5061037061036b36600461490c565b610ce3565b005b34801561037e57600080fd5b5061037061038d3660046149db565b610d08565b34801561039e57600080fd5b506103b26103ad366004614a47565b610ecd565b6040516103179190614ab8565b3480156103cb57600080fd5b506103706103da366004614acb565b610f61565b3480156103eb57600080fd5b506103ff6103fa366004614a47565b611142565b6040516103179190614b2b565b34801561041857600080fd5b50610370610427366004614bd4565b611261565b34801561043857600080fd5b5061030d610447366004614a47565b61150a565b34801561045857600080fd5b5061030d610467366004614c86565b61151f565b34801561047857600080fd5b5061030d600080516020615d9783398151915281565b34801561049a57600080fd5b5061030d600080516020615f5e83398151915281565b3480156104bc57600080fd5b506103706104cb366004614dbc565b611563565b3480156104dc57600080fd5b506103706104eb366004614e4b565b6115af565b3480156104fc57600080fd5b5061030d61050b366004614a47565b6101fe6020526000908152604090205481565b34801561052a57600080fd5b50610370610539366004614e4b565b6115d0565b34801561054a57600080fd5b50610370610559366004614e77565b61164a565b34801561056a57600080fd5b50610370611712565b34801561057f57600080fd5b5061030d6101f85481565b34801561059657600080fd5b506103706105a5366004614e92565b611732565b3480156105b657600080fd5b506105ca6105c5366004614f00565b611975565b6040516103179190614f9e565b6103706105e5366004614fb1565b611a9e565b3480156105f657600080fd5b50610340610605366004614a47565b611b53565b34801561061657600080fd5b5061030d611b66565b34801561062b57600080fd5b5061030d61063a36600461490c565b80516020818301810180516101ff8252928201919093012091525481565b34801561066457600080fd5b50610370610673366004615003565b611c15565b34801561068457600080fd5b5060c95460ff16610340565b34801561069c57600080fd5b5061030d600080516020615f7e83398151915281565b3480156106be57600080fd5b5061030d6106cd366004615038565b611d17565b3480156106de57600080fd5b506101f9546106ed9060ff1681565b60405160ff9091168152602001610317565b34801561070b57600080fd5b5061030d6101f75481565b34801561072257600080fd5b50610736610731366004614a47565b611e8b565b60405161031796959493929190615124565b34801561075457600080fd5b50610340610763366004614a47565b612065565b34801561077457600080fd5b50610788610783366004614a47565b61208c565b604051610317959493929190615177565b3480156107a557600080fd5b506103706107b43660046151ae565b612143565b3480156107c557600080fd5b5061030d600080516020615eb783398151915281565b3480156107e757600080fd5b506103706121f9565b3480156107fc57600080fd5b5061030d61080b366004614a47565b6101fd6020526000908152604090205481565b34801561082a57600080fd5b50610340610839366004614e4b565b612219565b34801561084a57600080fd5b506103706108593660046152db565b612244565b34801561086a57600080fd5b5061037061087936600461532a565b612346565b34801561088a57600080fd5b506103b2612369565b34801561089f57600080fd5b50604080518082019091526005815264302e302e3360d81b60208201526103b2565b3480156108cd57600080fd5b506103706108dc366004615345565b6123f8565b3480156108ed57600080fd5b506103706108fc36600461538b565b612471565b34801561090d57600080fd5b5061037061091c3660046153b8565b612697565b34801561092d57600080fd5b5061030d600081565b34801561094257600080fd5b506103706109513660046153f9565b612836565b34801561096257600080fd5b5061030d600080516020615e9783398151915281565b34801561098457600080fd5b506101fb54610999906001600160a01b031681565b6040516103179190615435565b3480156109b257600080fd5b5061030d6109c1366004615038565b612841565b3480156109d257600080fd5b506109f26109e1366004614dbc565b63bc197c8160e01b95945050505050565b6040516001600160e01b03199091168152602001610317565b348015610a1757600080fd5b5061030d610a26366004614a47565b612994565b348015610a3757600080fd5b5061030d7f9f2df0fed2c77648de5860a4cc508cd0818c85b8b8a1ab4ceeef8d981c8956a681565b348015610a6b57600080fd5b50610370610a7a366004614e4b565b6129a6565b348015610a8b57600080fd5b50610ab3610a9a366004614e77565b6101c56020526000908152604090205463ffffffff1681565b60405163ffffffff9091168152602001610317565b348015610ad457600080fd5b50610370610ae3366004615449565b6129c2565b610370610af63660046154a0565b612a59565b348015610b0757600080fd5b5061030d600080516020615ef783398151915281565b348015610b2957600080fd5b5061030d600080516020615f9e83398151915281565b348015610b4b57600080fd5b50610340610b5a366004615521565b6001600160a01b03918216600090815260666020908152604080832093909416825291909152205460ff1690565b348015610b9457600080fd5b5061030d600080516020615df783398151915281565b348015610bb657600080fd5b506109f2610bc536600461554b565b63f23a6e6160e01b95945050505050565b348015610be257600080fd5b50610370610bf136600461554b565b612b8d565b348015610c0257600080fd5b5061030d600080516020615f3e83398151915281565b348015610c2457600080fd5b5061030d600080516020615e5783398151915281565b60006001600160a01b038316610caa5760405162461bcd60e51b815260206004820152602a60248201527f455243313135353a2061646472657373207a65726f206973206e6f742061207660448201526930b634b21037bbb732b960b11b60648201526084015b60405180910390fd5b5060009081526065602090815260408083206001600160a01b03949094168352929052205490565b6000610cdd82612bd2565b92915050565b600080516020615eb7833981519152610cfb81612bf7565b610d0482612c01565b5050565b81610d1281612065565b610d2e5760405162461bcd60e51b8152600401610ca1906155af565b60008381526101fe602052604081205490819003610d5e5760405162461bcd60e51b8152600401610ca1906155ca565b6000610d6982612994565b90506000610d773087610c3a565b905060008111610dae5760405162461bcd60e51b8152602060048201526002602482015261031360f41b6044820152606401610ca1565b60005b8751811015610ec3576000610ddf898381518110610dd157610dd16155e5565b602002602001015186610c3a565b9050600084610dee8584615611565b610df89190615630565b90508181811115610e065750805b898b8581518110610e1957610e196155e5565b60200260200101516001600160a01b03167ffa5cd0fcb25938b2f45b3ca175241bfb3739cf4db3cb7476846930ec714f13f28484604051610e5b929190615652565b60405180910390a3610e878b8581518110610e7857610e786155e5565b60200260200101518883612c14565b610ead308c8681518110610e9d57610e9d6155e5565b60200260200101518c858d612d9e565b5050508080610ebb90615660565b915050610db1565b5050505050505050565b606060678054610edc90615679565b80601f0160208091040260200160405190810160405280929190818152602001828054610f0890615679565b8015610f555780601f10610f2a57610100808354040283529160200191610f55565b820191906000526020600020905b815481529060010190602001808311610f3857829003601f168201915b50505050509050919050565b600080516020615df7833981519152610f7981612bf7565b83610f8381612065565b610f9f5760405162461bcd60e51b8152600401610ca1906155af565b60008581526101fc602052604081206003810154600490910154879111604051806040016040528060018152602001603360f81b81525090610ff45760405162461bcd60e51b8152600401610ca19190614ab8565b5060008781526101fe60205260408120549081900361102d57506101f780546001019081905560008881526101fe602052604090208190555b60008881526101fc60205260408120600101549061104a8a612994565b9050600061105882846156ad565b6101f9549091506000906064906110729060ff1684615611565b61107c9190615630565b9050600061108986612994565b9050816110968d836156c4565b11156110c85760405162461bcd60e51b81526020600482015260016024820152603560f81b6044820152606401610ca1565b8c6101fd6000888152602001908152602001600020819055508d6001600160a01b03168d877f1fe9ade752d24e4f4dca10f5c807a7cc8630c7604280c8b124097d93b5bb02a18f60405161111e91815260200190565b60405180910390a46111328e878e8e612ed4565b5050505050505050505050505050565b6111746040518060a0016040528060608152602001600081526020016000815260200160008152602001600081525090565b60008281526101fd60209081526040808320548084526101fc90925291829020825160a081019093528054919291829082906111af90615679565b80601f01602080910402602001604051908101604052809291908181526020018280546111db90615679565b80156112285780601f106111fd57610100808354040283529160200191611228565b820191906000526020600020905b81548152906001019060200180831161120b57829003601f168201915b50505050508152602001600182015481526020016002820154815260200160038201548152602001600482015481525050915050919050565b826080013561126f81612065565b61128b5760405162461bcd60e51b8152600401610ca1906155af565b858585600080516020615e378339815191528383836040516112af93929190615705565b60405180910390a160006113c6600080516020615dd783398151915283356112da60208601866157dd565b6040516020016112eb929190615823565b604051602081830303815290604052805190602001208560400160208101906113149190614e77565b6113246080880160608901614e77565b608088013560a08901356101c5600061134360608d0160408e01614e77565b6001600160a01b03908116825260208083019390935260409182016000205482519384019a909a529082019790975260608101959095529285166080850152931660a083015260c082019290925260e081019190915263ffffffff9091166101008201526101200160405160208183030381529060405280519060200120612fec565b905061141a8185858080601f016020809104026020016040519081016040528093929190818152602001838380828437600092019190915250611413925050506060860160408701614e77565b853561303a565b506101c560006114306060850160408601614e77565b6001600160a01b0316815260208101919091526040016000908120805463ffffffff169161145d83615833565b91906101000a81548163ffffffff021916908363ffffffff1602179055505087608001358860400160208101906114949190614e77565b6001600160a01b03167f782105afe5542acae5ab54dc3dab8b54887fd38a79f55330b3e1e70c3063d67b8a60a001358a8a6040516114d493929190615856565b60405180910390a36114fe6114ef60608a0160408b01614e77565b89608001358a60a00135612c14565b50505050505050505050565b60009081526097602052604090206001015490565b60008761152b81612065565b6115475760405162461bcd60e51b8152600401610ca1906155af565b611556878a8a898989896130fc565b9998505050505050505050565b6001600160a01b03851633148061157f575061157f8533610b5a565b61159b5760405162461bcd60e51b8152600401610ca19061588b565b6115a8858585858561316a565b5050505050565b6115b88261150a565b6115c181612bf7565b6115cb8383613350565b505050565b6001600160a01b03811633146116405760405162461bcd60e51b815260206004820152602f60248201527f416363657373436f6e74726f6c3a2063616e206f6e6c792072656e6f756e636560448201526e103937b632b9903337b91039b2b63360891b6064820152608401610ca1565b610d0482826133d6565b6001600160a01b037f00000000000000000000000000000000000000000000000000000000000000001630036116925760405162461bcd60e51b8152600401610ca1906158d9565b7f00000000000000000000000000000000000000000000000000000000000000006001600160a01b03166116c461343d565b6001600160a01b0316146116ea5760405162461bcd60e51b8152600401610ca190615913565b6116f381613459565b6040805160008082526020820190925261170f91839190613471565b50565b600080516020615ef783398151915261172a81612bf7565b61170f6135dc565b600080516020615f9e83398151915261174a81612bf7565b8661175481612065565b6117705760405162461bcd60e51b8152600401610ca1906155af565b60008881526101fc6020526040812060038101546004909101548a9111604051806040016040528060018152602001603360f81b815250906117c55760405162461bcd60e51b8152600401610ca19190614ab8565b50878910156117fa5760405162461bcd60e51b81526020600482015260016024820152601b60f91b6044820152606401610ca1565b60008a81526101fc60205260409020600201548610156118405760405162461bcd60e51b81526020600482015260016024820152603760f81b6044820152606401610ca1565b60008a81526101fc602052604090206004015486116118855760405162461bcd60e51b81526020600482015260016024820152600760fb1b6044820152606401610ca1565b60008a81526101fe6020526040812054908190036118bb5788156118bb5760405162461bcd60e51b8152600401610ca1906155ca565b8a7fe19de0f3da1193000100a217838f49f6bdda20dc974d33b61f92faaf446d181d8b8b8b8b8b6040516118f395949392919061594d565b60405180910390a260006119078a8c6156ad565b1115611931576119318c8c61191c8c8e6156ad565b60405180602001604052806000815250612ed4565b60008b81526101fc60205260409020600401879055881561196757611967308c8b60405180602001604052806000815250612ed4565b505050505050505050505050565b606081518351146119da5760405162461bcd60e51b815260206004820152602960248201527f455243313135353a206163636f756e747320616e6420696473206c656e677468604482015268040dad2e6dac2e8c6d60bb1b6064820152608401610ca1565b600083516001600160401b038111156119f5576119f5614832565b604051908082528060200260200182016040528015611a1e578160200160208202803683370190505b50905060005b8451811015611a9657611a69858281518110611a4257611a426155e5565b6020026020010151858381518110611a5c57611a5c6155e5565b6020026020010151610c3a565b828281518110611a7b57611a7b6155e5565b6020908102919091010152611a8f81615660565b9050611a24565b509392505050565b6001600160a01b037f0000000000000000000000000000000000000000000000000000000000000000163003611ae65760405162461bcd60e51b8152600401610ca1906158d9565b7f00000000000000000000000000000000000000000000000000000000000000006001600160a01b0316611b1861343d565b6001600160a01b031614611b3e5760405162461bcd60e51b8152600401610ca190615913565b611b4782613459565b610d0482826001613471565b600080611b5f83612994565b1192915050565b6000306001600160a01b037f00000000000000000000000000000000000000000000000000000000000000001614611c015760405162461bcd60e51b815260206004820152603860248201527f555550535570677261646561626c653a206d757374206e6f742062652063616c6044820152771b1959081d1a1c9bdd59da0819195b1959d85d1958d85b1b60421b6064820152608401610ca1565b50600080516020615e778339815191525b90565b6000611c2081612bf7565b83611c2a81612065565b611c465760405162461bcd60e51b8152600401610ca1906155af565b60008581526101fc602052604081206003810154600490910154879111604051806040016040528060018152602001603360f81b81525090611c9b5760405162461bcd60e51b8152600401610ca19190614ab8565b50846004811115611cae57611cae615978565b60008881526101fc60205260409081902060010154905189917f79ad675a154518428a5aa59f22c834871a66d54a46e3f4c8c5b4ee08fb576c2e91611cf4918b91615652565b60405180910390a3505050600093845250506101fc602052604090912060010155565b60008560800135611d2781612065565b611d435760405162461bcd60e51b8152600401610ca1906155af565b888888600080516020615e37833981519152838383604051611d6793929190615705565b60405180910390a16000611d92600080516020615dd783398151915283356112da60208601866157dd565b9050611ddf8185858080601f016020809104026020016040519081016040528093929190818152602001838380828437600092019190915250611413925050506060860160408701614e77565b506101c56000611df56060850160408601614e77565b6001600160a01b0316815260208101919091526040016000908120805463ffffffff1691611e2283615833565b91906101000a81548163ffffffff021916908363ffffffff16021790555050611e7a8b6040016020810190611e579190614e77565b611e6760808e0160608f01614e77565b8d608001358e60a001358e8e8e8e613628565b9d9c50505050505050505050505050565b6102006020526000908152604090208054600182015460028301546003840180546001600160a01b03909416949293919291611ec690615679565b80601f0160208091040260200160405190810160405280929190818152602001828054611ef290615679565b8015611f3f5780601f10611f1457610100808354040283529160200191611f3f565b820191906000526020600020905b815481529060010190602001808311611f2257829003601f168201915b505050505090806004018054611f5490615679565b80601f0160208091040260200160405190810160405280929190818152602001828054611f8090615679565b8015611fcd5780601f10611fa257610100808354040283529160200191611fcd565b820191906000526020600020905b815481529060010190602001808311611fb057829003601f168201915b505050505090806005018054611fe290615679565b80601f016020809104026020016040519081016040528092919081815260200182805461200e90615679565b801561205b5780601f106120305761010080835404028352916020019161205b565b820191906000526020600020905b81548152906001019060200180831161203e57829003601f168201915b5050505050905086565b60008181526101fc60205260408120805482919061208290615679565b9050119050919050565b6101fc602052600090815260409020805481906120a890615679565b80601f01602080910402602001604051908101604052809291908181526020018280546120d490615679565b80156121215780601f106120f657610100808354040283529160200191612121565b820191906000526020600020905b81548152906001019060200180831161210457829003601f168201915b5050505050908060010154908060020154908060030154908060040154905085565b600080516020615f7e83398151915261215b81612bf7565b60005b82518110156115cb576121e783828151811061217c5761217c6155e5565b60200260200101516020015184838151811061219a5761219a6155e5565b6020026020010151604001518584815181106121b8576121b86155e5565b6020026020010151606001518685815181106121d6576121d66155e5565b602002602001015160000151612697565b806121f181615660565b91505061215e565b600080516020615ef783398151915261221181612bf7565b61170f613646565b60009182526097602090815260408084206001600160a01b0393909316845291905290205460ff1690565b600054610100900460ff16158080156122645750600054600160ff909116105b80612285575061227330613683565b158015612285575060005460ff166001145b6122a15760405162461bcd60e51b8152600401610ca19061598e565b6000805460ff1916600117905580156122c4576000805461ff0019166101001790555b6101f9805460ff191660ff86161790556101f883905581516122ee906101fa906020850190614720565b506101fb80546001600160a01b0319166001600160a01b03871617905580156115a8576000805461ff001916905560405160018152600080516020615ed7833981519152906020015b60405180910390a15050505050565b600061235181612bf7565b506101f9805460ff191660ff92909216919091179055565b6101fa805461237790615679565b80601f01602080910402602001604051908101604052809291908181526020018280546123a390615679565b80156123f05780601f106123c5576101008083540402835291602001916123f0565b820191906000526020600020905b8154815290600101906020018083116123d357829003601f168201915b505050505081565b600080516020615d9783398151915261241081612bf7565b81600481111561242257612422615978565b84866001600160a01b03167f28307ba5beac24bbe02c6541395dc897a2c9a884977343cfc55d6bef99a178cf8660405161245e91815260200190565b60405180910390a46115a8858585612c14565b600054610100900460ff16158080156124915750600054600160ff909116105b806124b257506124a030613683565b1580156124b2575060005460ff166001145b6124ce5760405162461bcd60e51b8152600401610ca19061598e565b6000805460ff1916600117905580156124f1576000805461ff0019166101001790555b61250960405180602001604052806000815250613692565b6125116136c2565b6125196136eb565b6125216136c2565b6125296136c2565b6125776040518060400160405280600f81526020016e436172626f6e20526567697374727960881b81525060405180604001604052806005815260200164302e302e3160d81b81525061371a565b6125848560328585612244565b61258f600085613350565b6125a7600080516020615eb783398151915285613350565b6125bf600080516020615ef783398151915285613350565b6125d7600080516020615df783398151915285613350565b6125ef600080516020615f7e83398151915285613350565b612607600080516020615e5783398151915285613350565b61261f600080516020615f3e83398151915285613350565b612637600080516020615f9e83398151915285613350565b61264f600080516020615f5e83398151915285613350565b612667600080516020615f7e83398151915233613350565b80156115a8576000805461ff001916905560405160018152600080516020615ed783398151915290602001612337565b600080516020615f7e8339815191526126af81612bf7565b8383116126e25760405162461bcd60e51b81526020600482015260016024820152600d60fa1b6044820152606401610ca1565b60006126f66101f780546001019081905590565b6101fb546040516344d9d59b60e01b81529192506001600160a01b0316906344d9d59b90612728908690600401614ab8565b600060405180830381600087803b15801561274257600080fd5b505af1158015612756573d6000803e3d6000fd5b50505050806101ff8460405161276c91906159dc565b90815260408051602092819003830181209390935560a083018152858352818301899052828101889052606083018790526000608084018190528481526101fc8352208251805191926127c492849290910190614720565b5060208201518160010155604082015181600201556060820151816003015560808201518160040155905050807fc5fb6d85b5baef0a615415607787aea341771027b7e4da34da58eaeb661154ea8787878760405161282694939291906159f8565b60405180910390a2505050505050565b610d0433838361374b565b6000856080013561285181612065565b61286d5760405162461bcd60e51b8152600401610ca1906155af565b888888600080516020615e3783398151915283838360405161289193929190615705565b60405180910390a160006128bc600080516020615dd783398151915283356112da60208601866157dd565b90506129098185858080601f016020809104026020016040519081016040528093929190818152602001838380828437600092019190915250611413925050506060860160408701614e77565b506101c5600061291f6060850160408601614e77565b6001600160a01b0316815260208101919091526040016000908120805463ffffffff169161294c83615833565b91906101000a81548163ffffffff021916908363ffffffff16021790555050611e7a8b60400160208101906129819190614e77565b8c608001358d60a001358d8d8d8d6130fc565b600090815260fb602052604090205490565b6129af8261150a565b6129b881612bf7565b6115cb83836133d6565b600080516020615f5e8339815191526129da81612bf7565b8160048111156129ec576129ec615978565b604080516001600160a01b038881168252602082018790528792908a16917fa8b90aeef4d9590cac2ff486fc2b5d9749ed41f9388a7eb159eef94cf5fb65ab910160405180910390a4612a518686868660405180602001604052806000815250612d9e565b505050505050565b838383600080516020615e37833981519152838383604051612a7d93929190615705565b60405180910390a16000612aa8600080516020615dd783398151915283356112da60208601866157dd565b9050612af58185858080601f016020809104026020016040519081016040528093929190818152602001838380828437600092019190915250611413925050506060860160408701614e77565b506101c56000612b0b6060850160408601614e77565b6001600160a01b0316815260208101919091526040016000908120805463ffffffff1691612b3883615833565b91906101000a81548163ffffffff021916908363ffffffff16021790555050610ec3866040016020810190612b6d9190614e77565b612b7d6080890160608a01614e77565b88608001358960a0013589612d9e565b6001600160a01b038516331480612ba95750612ba98533610b5a565b612bc55760405162461bcd60e51b8152600401610ca19061588b565b6115a88585858585612d9e565b60006001600160e01b03198216630271189760e51b1480610cdd5750610cdd8261382b565b61170f8133613850565b8051610d04906067906020840190614720565b6001600160a01b038316612c765760405162461bcd60e51b815260206004820152602360248201527f455243313135353a206275726e2066726f6d20746865207a65726f206164647260448201526265737360e81b6064820152608401610ca1565b336000612c82846138a9565b90506000612c8f846138a9565b9050612caf838760008585604051806020016040528060008152506138f4565b60008581526065602090815260408083206001600160a01b038a16845290915290205484811015612d2e5760405162461bcd60e51b8152602060048201526024808201527f455243313135353a206275726e20616d6f756e7420657863656564732062616c604482015263616e636560e01b6064820152608401610ca1565b60008681526065602090815260408083206001600160a01b03808c1680865291909352818420898603905590519091871690600080516020615db783398151915290612d7d908b908b90615652565b60405180910390a46040805160208101909152600090525b50505050505050565b6001600160a01b038416612dc45760405162461bcd60e51b8152600401610ca190615a1d565b336000612dd0856138a9565b90506000612ddd856138a9565b9050612ded8389898585896138f4565b60008681526065602090815260408083206001600160a01b038c16845290915290205485811015612e305760405162461bcd60e51b8152600401610ca190615a62565b60008781526065602090815260408083206001600160a01b038d8116855292528083208985039055908a16825281208054889290612e6f9084906156c4565b92505081905550876001600160a01b0316896001600160a01b0316856001600160a01b0316600080516020615db78339815191528a8a604051612eb3929190615652565b60405180910390a4612ec9848a8a8a8a8a613a1d565b505050505050505050565b6001600160a01b038416612f345760405162461bcd60e51b815260206004820152602160248201527f455243313135353a206d696e7420746f20746865207a65726f206164647265736044820152607360f81b6064820152608401610ca1565b336000612f40856138a9565b90506000612f4d856138a9565b9050612f5e836000898585896138f4565b60008681526065602090815260408083206001600160a01b038b16845290915281208054879290612f909084906156c4565b92505081905550866001600160a01b031660006001600160a01b0316846001600160a01b0316600080516020615db78339815191528989604051612fd5929190615652565b60405180910390a4612d9583600089898989613a1d565b6000610cdd612ff9613b7f565b8360405161190160f01b6020820152602281018390526042810182905260009060620160405160208183030381529060405280519060200120905092915050565b60006130468585613c01565b9050826001600160a01b0316816001600160a01b031614801561307157506001600160a01b03811615155b6130b15760405162461bcd60e51b8152602060048201526011602482015270496e76616c6964207369676e617475726560781b6044820152606401610ca1565b8142106130f45760405162461bcd60e51b815260206004820152601160248201527014da59db985d1d5c9948195e1c1a5c9959607a1b6044820152606401610ca1565b949350505050565b6000613109888888612c14565b613117888888888888613c1d565b905086886001600160a01b03167f1325d882b2ca749c878a4ab3a393f6e51b69026faa05426b6d1ec6776a3f2f3c88848660405161315793929190615aac565b60405180910390a3979650505050505050565b81518351146131cc5760405162461bcd60e51b815260206004820152602860248201527f455243313135353a2069647320616e6420616d6f756e7473206c656e677468206044820152670dad2e6dac2e8c6d60c31b6064820152608401610ca1565b6001600160a01b0384166131f25760405162461bcd60e51b8152600401610ca190615a1d565b336132018187878787876138f4565b60005b84518110156132ea576000858281518110613221576132216155e5565b60200260200101519050600085838151811061323f5761323f6155e5565b60209081029190910181015160008481526065835260408082206001600160a01b038e1683529093529190912054909150818110156132905760405162461bcd60e51b8152600401610ca190615a62565b60008381526065602090815260408083206001600160a01b038e8116855292528083208585039055908b168252812080548492906132cf9084906156c4565b92505081905550505050806132e390615660565b9050613204565b50846001600160a01b0316866001600160a01b0316826001600160a01b03167f4a39dc06d4c0dbc64b70af90fd698a233a518aa5d07e595d983b8c0526c8f7fb878760405161333a929190615acb565b60405180910390a4612a51818787878787613d1c565b61335a8282612219565b610d045760008281526097602090815260408083206001600160a01b03851684529091529020805460ff191660011790556133923390565b6001600160a01b0316816001600160a01b0316837f2f8788117e7eff1d82e926ec794901d17c78024a50270940304540a733656f0d60405160405180910390a45050565b6133e08282612219565b15610d045760008281526097602090815260408083206001600160a01b0385168085529252808320805460ff1916905551339285917ff6391f5c32d9c69d2a47ea670b442974b53935d1edc7fd64eb21e047a839171b9190a45050565b600080516020615e77833981519152546001600160a01b031690565b600080516020615e57833981519152610d0481612bf7565b7f4910fdfa16fed3260ed0e7147f7cc6da11a60208b5b9406d12a635614ffd91435460ff16156134a4576115cb83613dde565b826001600160a01b03166352d1902d6040518163ffffffff1660e01b8152600401602060405180830381865afa9250505080156134fe575060408051601f3d908101601f191682019092526134fb91810190615af0565b60015b6135615760405162461bcd60e51b815260206004820152602e60248201527f45524331393637557067726164653a206e657720696d706c656d656e7461746960448201526d6f6e206973206e6f74205555505360901b6064820152608401610ca1565b600080516020615e7783398151915281146135d05760405162461bcd60e51b815260206004820152602960248201527f45524331393637557067726164653a20756e737570706f727465642070726f786044820152681a58589b195555525160ba1b6064820152608401610ca1565b506115cb838383613e78565b6135e4613ea3565b60c9805460ff191690557f5db9ee0a495bf2e6ff9c91a7834c1ba4fdd244a5e8aa4e537bd38aeae4b073aa335b60405161361e9190615435565b60405180910390a1565b60006136378989898986612d9e565b611556888888888888886130fc565b61364e613eec565b60c9805460ff191660011790557f62e78cea01bee320cd4e420270b5ea74000d11b0c9f74754ebdbfc544b05a2586136113390565b6001600160a01b03163b151590565b600054610100900460ff166136b95760405162461bcd60e51b8152600401610ca190615b09565b61170f81613f32565b600054610100900460ff166136e95760405162461bcd60e51b8152600401610ca190615b09565b565b600054610100900460ff166137125760405162461bcd60e51b8152600401610ca190615b09565b6136e9613f62565b600054610100900460ff166137415760405162461bcd60e51b8152600401610ca190615b09565b610d048282613f95565b816001600160a01b0316836001600160a01b0316036137be5760405162461bcd60e51b815260206004820152602960248201527f455243313135353a2073657474696e6720617070726f76616c20737461747573604482015268103337b91039b2b63360b91b6064820152608401610ca1565b6001600160a01b03838116600081815260666020908152604080832094871680845294825291829020805460ff191686151590811790915591519182527f17307eab39ab6107e8899845ad3d59bd9653f200f220920489ca2b5937696c31910160405180910390a3505050565b60006001600160e01b03198216637965db0b60e01b1480610cdd5750610cdd82613fc6565b61385a8282612219565b610d045761386781614016565b613872836020614028565b604051602001613883929190615b54565b60408051601f198184030181529082905262461bcd60e51b8252610ca191600401614ab8565b604080516001808252818301909252606091600091906020808301908036833701905050905082816000815181106138e3576138e36155e5565b602090810291909101015292915050565b6138fc613eec565b84613915600080516020615e9783398151915282612219565b156139325760405162461bcd60e51b8152600401610ca190615bc3565b8461394b600080516020615e9783398151915282612219565b156139685760405162461bcd60e51b8152600401610ca190615bc3565b60005b8551811015613a0e57610200600087838151811061398b5761398b6155e5565b6020026020010151815260200190815260200160002060010154600014806139cb57506001600160a01b03881615806139cb57506001600160a01b038716155b6139fc5760405162461bcd60e51b8152602060048201526002602482015261313160f01b6044820152606401610ca1565b80613a0681615660565b91505061396b565b50610ec38888888888886141ca565b613a2f846001600160a01b0316613683565b15612a515760405163f23a6e6160e01b81526001600160a01b0385169063f23a6e6190613a689089908990889088908890600401615bde565b6020604051808303816000875af1925050508015613aa3575060408051601f3d908101601f19168201909252613aa091810190615c18565b60015b613b4f57613aaf615c35565b806308c379a003613ae85750613ac3615c50565b80613ace5750613aea565b8060405162461bcd60e51b8152600401610ca19190614ab8565b505b60405162461bcd60e51b815260206004820152603460248201527f455243313135353a207472616e7366657220746f206e6f6e2d455243313135356044820152732932b1b2b4bb32b91034b6b83632b6b2b73a32b960611b6064820152608401610ca1565b6001600160e01b0319811663f23a6e6160e01b14612d955760405162461bcd60e51b8152600401610ca190615cd9565b6000613bfc7f8b73c3c69bb8fe3d512ecc4cf759cc79239f7b179b0ffacaa9a75d522b39400f613baf6101915490565b610192546040805160208101859052908101839052606081018290524660808201523060a082015260009060c0016040516020818303038152906040528051906020012090509392505050565b905090565b6000806000613c108585614343565b91509150611a9681614388565b600080613c326101f780546001019081905590565b6040805160c0810182526001600160a01b038b8116825260208083018b81528385018d8152606085018c8152608086018c905260a086018b90526000888152610200855296909620855181546001600160a01b0319169516949094178455905160018401555160028301559251805194955091939092613cb9926003850192910190614720565b5060808201518051613cd5916004840191602090910190614720565b5060a08201518051613cf1916005840191602090910190614720565b50905050613d118882600160405180602001604052806000815250612ed4565b979650505050505050565b613d2e846001600160a01b0316613683565b15612a515760405163bc197c8160e01b81526001600160a01b0385169063bc197c8190613d679089908990889088908890600401615d21565b6020604051808303816000875af1925050508015613da2575060408051601f3d908101601f19168201909252613d9f91810190615c18565b60015b613dae57613aaf615c35565b6001600160e01b0319811663bc197c8160e01b14612d955760405162461bcd60e51b8152600401610ca190615cd9565b613de781613683565b613e495760405162461bcd60e51b815260206004820152602d60248201527f455243313936373a206e657720696d706c656d656e746174696f6e206973206e60448201526c1bdd08184818dbdb9d1c9858dd609a1b6064820152608401610ca1565b600080516020615e7783398151915280546001600160a01b0319166001600160a01b0392909216919091179055565b613e81836144cd565b600082511180613e8e5750805b156115cb57613e9d838361450d565b50505050565b60c95460ff166136e95760405162461bcd60e51b815260206004820152601460248201527314185d5cd8589b194e881b9bdd081c185d5cd95960621b6044820152606401610ca1565b60c95460ff16156136e95760405162461bcd60e51b815260206004820152601060248201526f14185d5cd8589b194e881c185d5cd95960821b6044820152606401610ca1565b600054610100900460ff16613f595760405162461bcd60e51b8152600401610ca190615b09565b61170f81612c01565b600054610100900460ff16613f895760405162461bcd60e51b8152600401610ca190615b09565b60c9805460ff19169055565b600054610100900460ff16613fbc5760405162461bcd60e51b8152600401610ca190615b09565b610d0482826145ff565b60006001600160e01b03198216636cdb3d1360e11b1480613ff757506001600160e01b031982166303a24d0760e21b145b80610cdd57506301ffc9a760e01b6001600160e01b0319831614610cdd565b6060610cdd6001600160a01b03831660145b60606000614037836002615611565b6140429060026156c4565b6001600160401b0381111561405957614059614832565b6040519080825280601f01601f191660200182016040528015614083576020820181803683370190505b509050600360fc1b8160008151811061409e5761409e6155e5565b60200101906001600160f81b031916908160001a905350600f60fb1b816001815181106140cd576140cd6155e5565b60200101906001600160f81b031916908160001a90535060006140f1846002615611565b6140fc9060016156c4565b90505b6001811115614174576f181899199a1a9b1b9c1cb0b131b232b360811b85600f1660108110614130576141306155e5565b1a60f81b828281518110614146576141466155e5565b60200101906001600160f81b031916908160001a90535060049490941c9361416d81615d7f565b90506140ff565b5083156141c35760405162461bcd60e51b815260206004820181905260248201527f537472696e67733a20686578206c656e67746820696e73756666696369656e746044820152606401610ca1565b9392505050565b6001600160a01b0385166142515760005b835181101561424f578281815181106141f6576141f66155e5565b602002602001015160fb6000868481518110614214576142146155e5565b60200260200101518152602001908152602001600020600082825461423991906156c4565b90915550614248905081615660565b90506141db565b505b6001600160a01b038416612a515760005b8351811015612d9557600084828151811061427f5761427f6155e5565b60200260200101519050600084838151811061429d5761429d6155e5565b60200260200101519050600060fb6000848152602001908152602001600020549050818110156143205760405162461bcd60e51b815260206004820152602860248201527f455243313135353a206275726e20616d6f756e74206578636565647320746f74604482015267616c537570706c7960c01b6064820152608401610ca1565b600092835260fb60205260409092209103905561433c81615660565b9050614262565b60008082516041036143795760208301516040840151606085015160001a61436d87828585614642565b94509450505050614381565b506000905060025b9250929050565b600081600481111561439c5761439c615978565b036143a45750565b60018160048111156143b8576143b8615978565b036144005760405162461bcd60e51b815260206004820152601860248201527745434453413a20696e76616c6964207369676e617475726560401b6044820152606401610ca1565b600281600481111561441457614414615978565b036144615760405162461bcd60e51b815260206004820152601f60248201527f45434453413a20696e76616c6964207369676e6174757265206c656e677468006044820152606401610ca1565b600381600481111561447557614475615978565b0361170f5760405162461bcd60e51b815260206004820152602260248201527f45434453413a20696e76616c6964207369676e6174757265202773272076616c604482015261756560f01b6064820152608401610ca1565b6144d681613dde565b6040516001600160a01b038216907fbc7cd75a20ee27fd9adebab32041f755214dbc6bffa90cc0225b39da2e5c2d3b90600090a250565b606061451883613683565b6145735760405162461bcd60e51b815260206004820152602660248201527f416464726573733a2064656c65676174652063616c6c20746f206e6f6e2d636f6044820152651b9d1c9858dd60d21b6064820152608401610ca1565b600080846001600160a01b03168460405161458e91906159dc565b600060405180830381855af49150503d80600081146145c9576040519150601f19603f3d011682016040523d82523d6000602084013e6145ce565b606091505b50915091506145f68282604051806060016040528060278152602001615f17602791396146fc565b95945050505050565b600054610100900460ff166146265760405162461bcd60e51b8152600401610ca190615b09565b8151602092830120815191909201206101919190915561019255565b6000806fa2a8918ca85bafe22016d0b997e4df60600160ff1b0383111561466f57506000905060036146f3565b6040805160008082526020820180845289905260ff881692820192909252606081018690526080810185905260019060a0016020604051602081039080840390855afa1580156146c3573d6000803e3d6000fd5b5050604051601f1901519150506001600160a01b0381166146ec576000600192509250506146f3565b9150600090505b94509492505050565b6060831561470b5750816141c3565b6141c38383815115613ace5781518083602001fd5b82805461472c90615679565b90600052602060002090601f01602090048101928261474e5760008555614794565b82601f1061476757805160ff1916838001178555614794565b82800160010185558215614794579182015b82811115614794578251825591602001919060010190614779565b506147a09291506147a4565b5090565b5b808211156147a057600081556001016147a5565b80356001600160a01b03811681146147d057600080fd5b919050565b600080604083850312156147e857600080fd5b6147f1836147b9565b946020939093013593505050565b6001600160e01b03198116811461170f57600080fd5b60006020828403121561482757600080fd5b81356141c3816147ff565b634e487b7160e01b600052604160045260246000fd5b60a081016001600160401b038111828210171561486757614867614832565b60405250565b601f8201601f191681016001600160401b038111828210171561489257614892614832565b6040525050565b600082601f8301126148aa57600080fd5b81356001600160401b038111156148c3576148c3614832565b6040516148da601f8301601f19166020018261486d565b8181528460208386010111156148ef57600080fd5b816020850160208301376000918101602001919091529392505050565b60006020828403121561491e57600080fd5b81356001600160401b0381111561493457600080fd5b6130f484828501614899565b60006001600160401b0382111561495957614959614832565b5060051b60200190565b600082601f83011261497457600080fd5b8135602061498182614940565b60405161498e828261486d565b83815260059390931b85018201928281019150868411156149ae57600080fd5b8286015b848110156149d0576149c3816147b9565b83529183019183016149b2565b509695505050505050565b6000806000606084860312156149f057600080fd5b83356001600160401b0380821115614a0757600080fd5b614a1387838801614963565b9450602086013593506040860135915080821115614a3057600080fd5b50614a3d86828701614899565b9150509250925092565b600060208284031215614a5957600080fd5b5035919050565b60005b83811015614a7b578181015183820152602001614a63565b83811115613e9d5750506000910152565b60008151808452614aa4816020860160208601614a60565b601f01601f19169290920160200192915050565b6020815260006141c36020830184614a8c565b60008060008060808587031215614ae157600080fd5b614aea856147b9565b9350602085013592506040850135915060608501356001600160401b03811115614b1357600080fd5b614b1f87828801614899565b91505092959194509250565b602081526000825160a06020840152614b4760c0840182614a8c565b9050602084015160408401526040840151606084015260608401516080840152608084015160a08401528091505092915050565b60008083601f840112614b8d57600080fd5b5081356001600160401b03811115614ba457600080fd5b60208301915083602082850101111561438157600080fd5b600060e08284031215614bce57600080fd5b50919050565b600080600080600060808688031215614bec57600080fd5b85356001600160401b0380821115614c0357600080fd5b614c0f89838a01614b7b565b90975095506020880135915080821115614c2857600080fd5b614c3489838a01614bbc565b94506040880135915080821115614c4a57600080fd5b614c5689838a01614899565b93506060880135915080821115614c6c57600080fd5b50614c7988828901614899565b9150509295509295909350565b600080600080600080600060e0888a031215614ca157600080fd5b8735965060208801359550614cb8604089016147b9565b945060608801356001600160401b0380821115614cd457600080fd5b614ce08b838c01614899565b955060808a0135915080821115614cf657600080fd5b614d028b838c01614899565b945060a08a0135915080821115614d1857600080fd5b614d248b838c01614899565b935060c08a0135915080821115614d3a57600080fd5b50614d478a828b01614899565b91505092959891949750929550565b600082601f830112614d6757600080fd5b81356020614d7482614940565b604051614d81828261486d565b83815260059390931b8501820192828101915086841115614da157600080fd5b8286015b848110156149d05780358352918301918301614da5565b600080600080600060a08688031215614dd457600080fd5b614ddd866147b9565b9450614deb602087016147b9565b935060408601356001600160401b0380821115614e0757600080fd5b614e1389838a01614d56565b94506060880135915080821115614e2957600080fd5b614e3589838a01614d56565b93506080880135915080821115614c6c57600080fd5b60008060408385031215614e5e57600080fd5b82359150614e6e602084016147b9565b90509250929050565b600060208284031215614e8957600080fd5b6141c3826147b9565b600080600080600080600060e0888a031215614ead57600080fd5b614eb6886147b9565b96506020880135955060408801359450606088013593506080880135925060a0880135915060c08801356001600160401b03811115614ef457600080fd5b614d478a828b01614899565b60008060408385031215614f1357600080fd5b82356001600160401b0380821115614f2a57600080fd5b614f3686838701614963565b93506020850135915080821115614f4c57600080fd5b50614f5985828601614d56565b9150509250929050565b600081518084526020808501945080840160005b83811015614f9357815187529582019590820190600101614f77565b509495945050505050565b6020815260006141c36020830184614f63565b60008060408385031215614fc457600080fd5b614fcd836147b9565b915060208301356001600160401b03811115614fe857600080fd5b614f5985828601614899565b8035600581106147d057600080fd5b60008060006060848603121561501857600080fd5b833592506020840135915061502f60408501614ff4565b90509250925092565b600080600080600080600060c0888a03121561505357600080fd5b87356001600160401b038082111561506a57600080fd5b6150768b838c01614b7b565b909950975060208a013591508082111561508f57600080fd5b61509b8b838c01614bbc565b965060408a01359150808211156150b157600080fd5b6150bd8b838c01614899565b955060608a01359150808211156150d357600080fd5b6150df8b838c01614899565b945060808a01359150808211156150f557600080fd5b6151018b838c01614899565b935060a08a0135915080821115614d3a57600080fd5b6001600160a01b03169052565b60018060a01b038716815285602082015284604082015260c06060820152600061515160c0830186614a8c565b82810360808401526151638186614a8c565b905082810360a08401526115568185614a8c565b60a08152600061518a60a0830188614a8c565b90508560208301528460408301528360608301528260808301529695505050505050565b600060208083850312156151c157600080fd5b82356001600160401b03808211156151d857600080fd5b818501915085601f8301126151ec57600080fd5b81356151f781614940565b60408051615205838261486d565b83815260059390931b850186019286810192508984111561522557600080fd5b8686015b848110156152bc578035868111156152415760008081fd5b870160a0818d03601f19018113156152595760008081fd5b845161526481614848565b8a830135898111156152765760008081fd5b6152848f8d83870101614899565b825250828601358b82015260608084013587830152608080850135918301919091529190920135908201528452928701928701615229565b509998505050505050505050565b803560ff811681146147d057600080fd5b600080600080608085870312156152f157600080fd5b6152fa856147b9565b9350615308602086016152ca565b92506040850135915060608501356001600160401b03811115614b1357600080fd5b60006020828403121561533c57600080fd5b6141c3826152ca565b6000806000806080858703121561535b57600080fd5b615364856147b9565b9350602085013592506040850135915061538060608601614ff4565b905092959194509250565b600080600080608085870312156153a157600080fd5b6153aa856147b9565b9350615308602086016147b9565b600080600080608085870312156153ce57600080fd5b84359350602085013592506040850135915060608501356001600160401b03811115614b1357600080fd5b6000806040838503121561540c57600080fd5b615415836147b9565b91506020830135801515811461542a57600080fd5b809150509250929050565b6001600160a01b0391909116815260200190565b600080600080600060a0868803121561546157600080fd5b61546a866147b9565b9450615478602087016147b9565b9350604086013592506060860135915061549460808701614ff4565b90509295509295909350565b600080600080606085870312156154b657600080fd5b84356001600160401b03808211156154cd57600080fd5b6154d988838901614b7b565b909650945060208701359150808211156154f257600080fd5b6154fe88838901614bbc565b9350604087013591508082111561551457600080fd5b50614b1f87828801614899565b6000806040838503121561553457600080fd5b61553d836147b9565b9150614e6e602084016147b9565b600080600080600060a0868803121561556357600080fd5b61556c866147b9565b945061557a602087016147b9565b9350604086013592506060860135915060808601356001600160401b038111156155a357600080fd5b614c7988828901614899565b6020808252600190820152603160f81b604082015260600190565b6020808252600190820152603960f81b604082015260600190565b634e487b7160e01b600052603260045260246000fd5b634e487b7160e01b600052601160045260246000fd5b600081600019048311821515161561562b5761562b6155fb565b500290565b60008261564d57634e487b7160e01b600052601260045260246000fd5b500490565b918252602082015260400190565b600060018201615672576156726155fb565b5060010190565b600181811c9082168061568d57607f821691505b602082108103614bce57634e487b7160e01b600052602260045260246000fd5b6000828210156156bf576156bf6155fb565b500390565b600082198211156156d7576156d76155fb565b500190565b81835281816020850137506000828201602090810191909152601f909101601f19169091010190565b6040815260006157196040830185876156dc565b8281036020840152833581526020840135601e1985360301811261573c57600080fd5b840180356001600160401b0381111561575457600080fd5b80360386131561576357600080fd5b60e0602084015261577b60e0840182602085016156dc565b91505061578a604086016147b9565b6157976040840182615117565b506157a4606086016147b9565b6157b16060840182615117565b506080850135608083015260a085013560a083015260c085013560c08301528092505050949350505050565b6000808335601e198436030181126157f457600080fd5b8301803591506001600160401b0382111561580e57600080fd5b60200191503681900382131561438157600080fd5b8183823760009101908152919050565b600063ffffffff80831681810361584c5761584c6155fb565b6001019392505050565b83815260606020820152600061586f6060830185614a8c565b82810360408401526158818185614a8c565b9695505050505050565b6020808252602e908201527f455243313135353a2063616c6c6572206973206e6f7420746f6b656e206f776e60408201526d195c881bdc88185c1c1c9bdd995960921b606082015260800190565b6020808252602c90820152600080516020615e1783398151915260408201526b19195b1959d85d1958d85b1b60a21b606082015260800190565b6020808252602c90820152600080516020615e1783398151915260408201526b6163746976652070726f787960a01b606082015260800190565b85815284602082015283604082015282606082015260a060808201526000613d1160a0830184614a8c565b634e487b7160e01b600052602160045260246000fd5b6020808252602e908201527f496e697469616c697a61626c653a20636f6e747261637420697320616c72656160408201526d191e481a5b9a5d1a585b1a5e995960921b606082015260800190565b600082516159ee818460208701614a60565b9190910192915050565b8481528360208201528260408201526080606082015260006158816080830184614a8c565b60208082526025908201527f455243313135353a207472616e7366657220746f20746865207a65726f206164604082015264647265737360d81b606082015260800190565b6020808252602a908201527f455243313135353a20696e73756666696369656e742062616c616e636520666f60408201526939103a3930b739b332b960b11b606082015260800190565b8381528260208201526060604082015260006145f66060830184614a8c565b604081526000615ade6040830185614f63565b82810360208401526145f68185614f63565b600060208284031215615b0257600080fd5b5051919050565b6020808252602b908201527f496e697469616c697a61626c653a20636f6e7472616374206973206e6f74206960408201526a6e697469616c697a696e6760a81b606082015260800190565b76020b1b1b2b9b9a1b7b73a3937b61d1030b1b1b7bab73a1604d1b815260008351615b86816017850160208801614a60565b7001034b99036b4b9b9b4b733903937b6329607d1b6017918401918201528351615bb7816028840160208801614a60565b01602801949350505050565b6020808252600190820152600360fc1b604082015260600190565b6001600160a01b03868116825285166020820152604081018490526060810183905260a060808201819052600090613d1190830184614a8c565b600060208284031215615c2a57600080fd5b81516141c3816147ff565b600060033d1115611c125760046000803e5060005160e01c90565b600060443d1015615c5e5790565b6040516003193d81016004833e81513d6001600160401b038083116024840183101715615c8d57505050505090565b8285019150815181811115615ca55750505050505090565b843d8701016020828501011115615cbf5750505050505090565b615cce6020828601018761486d565b509095945050505050565b60208082526028908201527f455243313135353a204552433131353552656365697665722072656a656374656040820152676420746f6b656e7360c01b606082015260800190565b6001600160a01b0386811682528516602082015260a060408201819052600090615d4d90830186614f63565b8281036060840152615d5f8186614f63565b90508281036080840152615d738185614a8c565b98975050505050505050565b600081615d8e57615d8e6155fb565b50600019019056fe3c11d16cbaffd01df69ce1c404f6340ee057498f5f00246190ea54220576a848c3d58168c5ae7397731d063d5bbf3d657854427343f4c083240f7aacaa2d0f6279da588818fa1bb747c46ac45fd0af16861a77c5222cf5ac4538360ca4f77a2cd5bbb2f0fbfc1d5938ca13cabd3156d362f7862fa87504c8d589f5e8f2cbc45346756e6374696f6e206d7573742062652063616c6c6564207468726f75676820bdde33eca765abe07e416fa5225f9a5dbc393366c8bbf45df689e69ee318a934189ab7a9244df0848122154315af71fe140f3db0fe014031783b0946b8c9d2e3360894a13ba1a3210667c828492db98dca3e2076cc3735a920a3ca505d382bbcf48dee1a72497b9e734e498e1b3086c0d2dbcca13f16f15848f974469f906bbf7804d923f43a17d325d77e781528e0793b2edd9890ab45fc64efd7b4b427744c7f26b83ff96e1f2b6a682f133852f6798a09c465da95921460cefb384740249865d7a28e3265b37a6474929f336521b332c1681b933f6cb9f3376673440d862a416464726573733a206c6f772d6c6576656c2064656c65676174652063616c6c206661696c656498db8a220cd0f09badce9f22d0ba7e93edb3d404448cc3560d391ab096ad16e94bbc247fc4736523c8bdd1853fee2acfa817d663f8f4422b13e78ebf99e204a2ddf79b8d2110dbe281cf3bb7762d508cea586c974794c8fc949d41b0db1145130ce23c3e399818cfee81a7ab0880f714e53d7672b08df0fa62f2843416e1ea09a26469706673582212209d1f6e0a33e15f9237f2feaca38bb94d26f77a555bc587d49ed1684bd2a8999564736f6c634300080d0033",
  "immutableReferences": {
    "997": [
      {
        "length": 32,
        "start": 5716
      },
      {
        "length": 32,
        "start": 5780
      },
      {
        "length": 32,
        "start": 6824
      },
      {
        "length": 32,
        "start": 6888
      },
      {
        "length": 32,
        "start": 7027
      }
    ]
  },
  "source": "// SPDX-License-Identifier: MIT\npragma solidity ^0.8.13;\n\nimport '@openzeppelin/contracts-upgradeable/token/ERC1155/ERC1155Upgradeable.sol';\nimport '@openzeppelin/contracts-upgradeable/access/AccessControlUpgradeable.sol';\nimport '@openzeppelin/contracts-upgradeable/security/PausableUpgradeable.sol';\nimport '@openzeppelin/contracts-upgradeable/token/ERC1155/extensions/ERC1155SupplyUpgradeable.sol';\nimport '@openzeppelin/contracts-upgradeable/proxy/utils/Initializable.sol';\nimport '@openzeppelin/contracts-upgradeable/proxy/utils/UUPSUpgradeable.sol';\nimport \"@openzeppelin/contracts-upgradeable/token/ERC1155/utils/ERC1155HolderUpgradeable.sol\";\n\n\nimport './ProjectStorage.sol';\nimport './interfaces/ICarbonContractRegistry.sol';\nimport './utils/CustomSignaturesUpgradeable.sol';\nimport './interfaces/IProject.sol';\n\ncontract Project is\n\tIProject,\n\tInitializable,\n\tERC1155Upgradeable,\n\tAccessControlUpgradeable,\n\tPausableUpgradeable,\n\tERC1155SupplyUpgradeable,\n\tUUPSUpgradeable,\n\tCustomSignaturesUpgradeable,\n\tProjectStorage,\n\tERC1155HolderUpgradeable\n{\n\tbytes32 public constant URI_SETTER_ROLE = keccak256('URI_SETTER_ROLE');\n\tbytes32 public constant PAUSER_ROLE = keccak256('PAUSER_ROLE');\n\tbytes32 public constant ANTE_MINTER_ROLE = keccak256('ANTE_MINTER_ROLE');\n\tbytes32 public constant POST_MINTER_ROLE = keccak256('POST_MINTER_ROLE');\n\tbytes32 public constant MINTER_ROLE = keccak256('MINTER_ROLE');\n\tbytes32 public constant UPGRADER_ROLE = keccak256('UPGRADER_ROLE');\n\tbytes32 public constant BLACKLISTED = keccak256('BLACKLISTED');\n\tbytes32 public constant BLACKLISTER_ROLE = keccak256('BLACKLISTER_ROLE');\n\tbytes32 public constant BURNER_ROLE = keccak256('BURNER_ROLE');\n\tbytes32 public constant VERIFIER_ROLE = keccak256('VERIFIER_ROLE');\n\tbytes32 public constant CLAWBACK_ROLE = keccak256('CLAWBACK_ROLE');\n\n\n/// @custom:oz-upgrades-unsafe-allow constructor\n\tconstructor() {\n\t\t_disableInitializers();\n\t}\n\n\tfunction initialize(\n\t\taddress _contractRegistry,\n\t\taddress _owner,\n\t\tuint256 _projectId,\n\t\tstring memory _projectName\n\t) public initializer {\n\t\t__ERC1155_init('');\n\t\t__AccessControl_init();\n\t\t__Pausable_init();\n\t\t__ERC1155Supply_init();\n\t\t__UUPSUpgradeable_init();\n\t\t__CustomSignatures_init(\"Carbon Registry\", '0.0.1');\n\n\t\t// Our Inits\n\t\t__ProjectStorage_init(_contractRegistry, 50, _projectId, _projectName);\n\n\t\t_grantRole(DEFAULT_ADMIN_ROLE, _owner);\n\t\t_grantRole(URI_SETTER_ROLE, _owner);\n\t\t_grantRole(PAUSER_ROLE, _owner);\n\t\t_grantRole(ANTE_MINTER_ROLE, _owner);\n\t\t_grantRole(POST_MINTER_ROLE, _owner);\n\t\t_grantRole(UPGRADER_ROLE, _owner);\n\t\t_grantRole(BLACKLISTER_ROLE, _owner);\n\t\t_grantRole(VERIFIER_ROLE, _owner);\n\t\t_grantRole(CLAWBACK_ROLE, _owner);\n\n\t\t_grantRole(POST_MINTER_ROLE, msg.sender); // Just so projectFactory can mint exPost on creation of the project\n\t}\n\n\tmodifier notBlacklisted(address account) {\n\t\trequire(\n\t\t\t!hasRole(BLACKLISTED, account),\n\t\t\"0\"\n\t\t);\n\t\t_;\n\t}\n\n\tmodifier onlyExPostTokens(uint256[] memory tokenIds) {\n\t\tfor (uint256 i = 0; i < tokenIds.length; i++) {\n\t\t\trequire(isExPostToken(tokenIds[i]), \"1\");\n\t\t}\n\t\t_;\n\t}\n\n\tmodifier onlyExPostToken(uint256 tokenId) {\n\t\trequire(isExPostToken(tokenId), \"1\");\n\t\t_;\n\t}\n\n\tmodifier onlyVerifiedStatus(bool isVerified, uint256 tokenId) {\n\t\trequire(\n\t\t\t(exPostVintageMapping[tokenId].lastVerificationTimestamp >=\n\t\t\t\texPostVintageMapping[tokenId].verificationPeriodEnd) ==\n\t\t\t\tisVerified,\n\t\t\tisVerified\n\t\t\t\t? \"2\"\n\t\t\t\t: \"3\"\n\t\t);\n\t\t_;\n\t}\n\n\tfunction isExPostToken(uint256 tokenId) public view returns (bool) {\n\t\treturn bytes(exPostVintageMapping[tokenId].serialization).length > 0;\n\t}\n\n\tfunction testUpgrade() external pure returns(string memory) {\n\t\treturn \"0.0.3\";\n\t}\n\n\t// ----------------------------------\n\t//         Minting Functions\n\t// ----------------------------------\n\n\tfunction createExPostVintage(\n\t\tuint256 estAmount,\n\t\tuint256 verificationPeriodStart,\n\t\tuint256 verificationPeriodEnd,\n\t\tstring memory serialization\n\t) public onlyRole(POST_MINTER_ROLE) {\n\t\t\n\t\trequire(\n\t\t\tverificationPeriodEnd > verificationPeriodStart,\n\t\t\t\"4\"\n\t\t);\n\t\tuint256 newTokenId = nextTokenId();\n\t\tICarbonContractRegistry(contractRegistry).registerSerialization(\n\t\t\tserialization\n\t\t);\n\t\tserializationToExPostTokenIdMapping[serialization] = newTokenId;\n\t\texPostVintageMapping[newTokenId] = VintageData(\n\t\t\tserialization,\n\t\t\testAmount,\n\t\t\tverificationPeriodStart,\n\t\t\tverificationPeriodEnd,\n\t\t\t0\n\t\t);\n\t\temit ExPostCreated(\n\t\t\tnewTokenId,\n\t\t\testAmount,\n\t\t\tverificationPeriodStart,\n\t\t\tverificationPeriodEnd,\n\t\t\tserialization\n\t\t);\n\t}\n\n\tfunction createExPostVintageBatch(\n\t\tVintageData[] memory vintages\n\t) public onlyRole(POST_MINTER_ROLE) {\n\t\tfor (uint256 i = 0; i < vintages.length; i++) {\n\t\t\tcreateExPostVintage(\n\t\t\t\tvintages[i].estMitigations,\n\t\t\t\tvintages[i].verificationPeriodStart,\n\t\t\t\tvintages[i].verificationPeriodEnd,\n\t\t\t\tvintages[i].serialization\n\t\t\t);\n\t\t}\n\t}\n\n\tfunction mintExAnte(\n\t\taddress account,\n\t\tuint256 exPostTokenId,\n\t\tuint256 amount,\n\t\tbytes memory data\n\t)\n\t\tpublic\n\t\tonlyRole(ANTE_MINTER_ROLE)\n\t\tonlyExPostToken(exPostTokenId)\n\t\tonlyVerifiedStatus(false, exPostTokenId)\n\t{\n\n\t\tuint256 exAnteTokenId = exPostToExAnteTokenId[exPostTokenId];\n\t\tif (exAnteTokenId == 0) {\n\t\t\texAnteTokenId = nextTokenId();\n\t\t\texPostToExAnteTokenId[exPostTokenId] = exAnteTokenId;\n\t\t}\n\n\t\tuint256 exPostEstimatedSupply = exPostVintageMapping[exPostTokenId]\n\t\t\t.estMitigations;\n\t\tuint256 exPostVerifiedSupply = totalSupply(exPostTokenId);\n\t\tuint256 anteDrawablePostSupply = exPostEstimatedSupply -\n\t\t\texPostVerifiedSupply;\n\t\tuint256 maxExAnteSupply = (anteDrawablePostSupply *\n\t\t\t(maxAntePercentage)) / (100);\n\t\tuint256 exAnteSupply = totalSupply(exAnteTokenId);\n\n\t\trequire(\n\t\t\texAnteSupply + amount <= maxExAnteSupply,\n\t\t\t\"5\"\n\t\t);\n\n\t\texAnteToExPostTokenId[exAnteTokenId] = exPostTokenId;\n\n\t\temit ExAnteMinted(exAnteTokenId, exPostTokenId, account,  amount);\n\n\t\t_mint(account, exAnteTokenId, amount, data);\n\n\t}\n\n\tfunction changeVintageMitigationEstimate(\n\t\tuint256 tokenId,\n\t\tuint256 newEstAmount,\n\t\tAdminActionReason reason\n\t)\n\t\tpublic\n\t\tonlyRole(DEFAULT_ADMIN_ROLE)\n\t\tonlyExPostToken(tokenId)\n\t\tonlyVerifiedStatus(false, tokenId)\n\t{\n\t\temit VintageMitigationEstimateChanged(\n\t\t\ttokenId,\n\t\t\tnewEstAmount,\n\t\t\texPostVintageMapping[tokenId].estMitigations,\n\t\t\treason\n\t\t);\n\t\texPostVintageMapping[tokenId].estMitigations = newEstAmount;\n\t}\n\n\tfunction verifyAndMintExPost(\n\t\taddress verificationVault,\n\t\tuint256 tokenId,\n\t\tuint256 amountVerified,\n\t\tuint256 amountToAnteHolders,\n\t\tuint256 verificationPeriodStart,\n\t\tuint256 verificationPeriodEnd,\n\t\tstring memory monitoringReport\n\t)\n\t\tpublic\n\t\tonlyRole(VERIFIER_ROLE)\n\t\tonlyExPostToken(tokenId)\n\t\tonlyVerifiedStatus(false, tokenId)\n\t{\n\t\t\t\n\t\trequire(\n\t\t\tamountVerified >= amountToAnteHolders,\n\t\t\t\"6\"\n\t\t);\n\t\trequire(\n\t\t\tverificationPeriodEnd >=\n\t\t\t\texPostVintageMapping[tokenId].verificationPeriodStart,\n\t\t\t\"7\"\n\t\t);\n\t\trequire(\n\t\t\tverificationPeriodEnd >\n\t\t\t\texPostVintageMapping[tokenId].lastVerificationTimestamp,\n\t\t\t\"8\"\n\t\t);\n\n\t\tuint256 exAnteTokenId = exPostToExAnteTokenId[tokenId];\n\t\tif (exAnteTokenId == 0) {\n\t\t\t// If exAnteTokenId is zero then there are no ante holders\n\t\t\trequire(amountToAnteHolders == 0, \"9\");\n\t\t}\n\n\t\t\temit ExPostVerifiedAndMinted(\n\t\t\ttokenId,\n\t\t\tamountVerified,\n\t\t\tamountToAnteHolders,\n\t\t\tverificationPeriodStart,\n\t\t\tverificationPeriodEnd,\n\t\t\tmonitoringReport\n\t\t);\n\n\t\tif (amountVerified - amountToAnteHolders > 0) {\n\t\t\t// Mint To Verification Vault\n\t\t\t_mint(\n\t\t\t\tverificationVault,\n\t\t\t\ttokenId,\n\t\t\t\tamountVerified - amountToAnteHolders,\n\t\t\t\t''\n\t\t\t);\n\t\t}\n\t\texPostVintageMapping[tokenId]\n\t\t\t.lastVerificationTimestamp = verificationPeriodEnd;\n\n\t\tif (amountToAnteHolders > 0) {\n\t\t\t// Mint to this address, where ante holders will claim\n\t\t\t_mint(address(this), tokenId, amountToAnteHolders, '');\n\t\t}\n\n\n\t}\n\n\tfunction adminBurn(\n\t\taddress from,\n\t\tuint256 tokenId,\n\t\tuint256 amount,\n\t\tAdminActionReason reason\n\t) public onlyRole(BURNER_ROLE) {\n\t\temit AdminBurn(from, tokenId, amount, reason);\n\t\t_burn(from, tokenId, amount);\n\t}\n\n\tfunction adminClawback(\n\t\taddress from,\n\t\taddress to,\n\t\tuint256 tokenId,\n\t\tuint256 amount,\n\t\tAdminActionReason reason\n\t) public onlyRole(CLAWBACK_ROLE) {\n\t\temit AdminClawback(from, to, tokenId, amount, reason);\n\t\t_safeTransferFrom(from, to, tokenId, amount, '');\n\t}\n\n\tfunction exchangeAnteForPostEvenSteven(\n\t\taddress[] memory accounts,\n\t\tuint256 exPostTokenId,\n\t\tbytes memory data\n\t)\n\t\texternal\n\t\tonlyExPostToken(exPostTokenId)\n\t{\n\t\tuint256 exAnteTokenId = exPostToExAnteTokenId[exPostTokenId];\n\t\trequire(exAnteTokenId != 0, \"9\");\n\t\tuint256 currentExAnteSupply = totalSupply(exAnteTokenId);\n\t\tuint256 currentExPostSupplyInContract = balanceOf(\n\t\t\taddress(this),\n\t\t\texPostTokenId\n\t\t);\n\t\trequire(currentExPostSupplyInContract > 0, \"10\");\n\n\t\tfor (uint256 i = 0; i < accounts.length; i++) {\n\t\t\t\n\t\t\tuint256 amountExAnte = balanceOf(accounts[i], exAnteTokenId);\n\t\t\tuint256 amountExPost = (amountExAnte *\n\t\t\t\tcurrentExPostSupplyInContract) / currentExAnteSupply;\n\t\t\tuint256 exAnteBurnAmount = amountExAnte;\n\t\t\tif (amountExAnte > amountExPost) {\n\t\t\t\texAnteBurnAmount = amountExPost;\n\t\t\t}\n\t\t\t\t\t\temit ExchangeAnteForPost(\n\t\t\t\taccounts[i],\n\t\t\t\texPostTokenId,\n\t\t\t\tamountExPost,\n\t\t\t\texAnteBurnAmount\n\t\t\t);\n\t\t\t_burn(accounts[i], exAnteTokenId, exAnteBurnAmount);\n\t\t\t_safeTransferFrom(\n\t\t\t\taddress(this),\n\t\t\t\taccounts[i],\n\t\t\t\texPostTokenId,\n\t\t\t\tamountExPost,\n\t\t\t\tdata\n\t\t\t);\n\t\t}\n\t}\n\n\tfunction getExPostVintageData(\n\t\tuint256 exAnteTokenId\n\t) public view returns (VintageData memory) {\n\t\tuint256 exPostTokenId = exAnteToExPostTokenId[exAnteTokenId];\n\t\treturn exPostVintageMapping[exPostTokenId];\n\t}\n\n\t// ----------------------------------\n\t//              Actions\n\t// ----------------------------------\n\n\tfunction transferAndRetireFromSignature(\n\t\tbytes calldata signature,\n\t\tsignatureTransferPayload calldata payload,\n\t\tstring memory retireeName,\n\t\tstring memory customUri,\n\t\tstring memory comment,\n\t\tbytes memory data\n\t) public onlyExPostToken(payload.tokenId)\n\t\tonlyValidSignatureTransfer(signature, payload) returns (uint256 nftTokenId) {\n\t\treturn _transferAndRetire(\n\t\t\tpayload.signer,\n\t\t\tpayload.to,\n\t\t\tpayload.tokenId,\n\t\t\tpayload.amount,\n\t\t\tretireeName,\n\t\t\tcustomUri,\n\t\t\tcomment,\n\t\t\tdata\n\t\t);\n\t}\n\n\t// function transferAndRetire(\n\t// \taddress to,\n\t// \tuint256 tokenId,\n\t// \tuint256 amount,\n\t// \tstring memory retireeName,\n\t// \tstring memory customUri,\n\t// \tstring memory comment,\n\t// \tbytes memory data\n\t// ) public onlyExPostToken(tokenId) returns (uint256 nftTokenId) {\n\t// \treturn _transferAndRetire(\n\t// \t\tmsg.sender,\n\t// \t\tto,\n\t// \t\ttokenId,\n\t// \t\tamount,\n\t// \t\tretireeName,\n\t// \t\tcustomUri,\n\t// \t\tcomment,\n\t// \t\tdata\n\t// \t);\n\t// }\n\n\tfunction _transferAndRetire(\n\t\taddress from,\n\t\taddress to,\n\t\tuint256 tokenId,\n\t\tuint256 amount,\n\t\tstring memory retireeName,\n\t\tstring memory customUri,\n\t\tstring memory comment,\n\t\tbytes memory data\n\t) internal returns (uint256 nftTokenId) {\n\t\t_safeTransferFrom(from, to, tokenId, amount, data);\n\t\treturn _retire(\n\t\t\tto,\n\t\t\ttokenId,\n\t\t\tamount,\n\t\t\tretireeName,\n\t\t\tcustomUri,\n\t\t\tcomment,\n\t\t\tdata\n\t\t);\n\t}\n\n\tfunction transferFromSignature(\n\t\tbytes calldata signature,\n\t\tsignatureTransferPayload calldata payload,\n\t\tbytes memory data\n\t) public payable onlyValidSignatureTransfer(signature, payload) {\n\t\t_safeTransferFrom(\n\t\t\tpayload.signer,\n\t\t\tpayload.to,\n\t\t\tpayload.tokenId,\n\t\t\tpayload.amount,\n\t\t\tdata\n\t\t);\n\t}\n\n\tfunction retire(\n\t\tuint256 tokenId,\n\t\tuint256 amount,\n\t\taddress retiree,\n\t\tstring memory retireeName,\n\t\tstring memory customUri,\n\t\tstring memory comment,\n\t\tbytes memory data\n\t) public onlyExPostToken(tokenId) returns (uint256 nftTokenId) {\n\t\treturn _retire(\n\t\t\tretiree,\n\t\t\ttokenId,\n\t\t\tamount,\n\t\t\tretireeName,\n\t\t\tcustomUri,\n\t\t\tcomment,\n\t\t\tdata\n\t\t);\n\t}\n\n\tfunction retireFromSignature(\n\t\tbytes calldata signature,\n\t\tsignatureTransferPayload calldata payload,\n\t\tstring memory retireeName,\n\t\tstring memory customUri,\n\t\tstring memory comment,\n\t\tbytes memory data\n\t)\n\t\tpublic\n\t\tonlyExPostToken(payload.tokenId)\n\t\tonlyValidSignatureTransfer(signature, payload)\n\t\treturns (uint256 nftTokenId)\n\t{\n\t\treturn _retire(\n\t\t\tpayload.signer,\n\t\t\tpayload.tokenId,\n\t\t\tpayload.amount,\n\t\t\tretireeName,\n\t\t\tcustomUri,\n\t\t\tcomment,\n\t\t\tdata\n\t\t);\n\t}\n\n\tfunction _retire(\n\t\taddress retiree,\n\t\tuint256 tokenId,\n\t\tuint256 amount,\n\t\tstring memory retireeName,\n\t\tstring memory customUri,\n\t\tstring memory comment,\n\t\tbytes memory data\n\t) internal returns(uint256 nftTokenId) {\n\t\t_burn(retiree, tokenId, amount);\n\t\tnftTokenId = mintRetirementCertificate(retiree, tokenId, amount, retireeName, customUri, comment);\n\t\temit RetiredVintage(retiree, tokenId, amount, nftTokenId, data);\n\t}\n\n\tfunction mintRetirementCertificate(\n\t\taddress account,\n\t\tuint256 tokenId,\n\t\tuint256 amount,\n\t\tstring memory retireeName,\n\t\tstring memory customUri,\n\t\tstring memory comment\n\t) internal returns (uint256) {\n\t\tuint256 nftTokenId = nextTokenId();\n\t\tretirementMapping[nftTokenId] = RetirementData(\n\t\t\taccount,\n\t\t\tamount,\n\t\t\ttokenId,\n\t\t\tretireeName,\n\t\t\tcustomUri,\n\t\t\tcomment\n\t\t);\n\t\t_mint(account, nftTokenId, 1, '');\n\t\treturn nftTokenId;\n\t}\n\n\n\tfunction cancelCreditsFromSignature(\n\t\tbytes calldata signature,\n\t\tsignatureTransferPayload calldata payload,\n\t\tstring memory comment,\n\t\tbytes memory data\n\t)\n\t\tpublic\n\t\tonlyExPostToken(payload.tokenId)\n\t\tonlyValidSignatureTransfer(signature, payload)\n\t{\n\t\temit CancelledCredits(payload.signer, payload.tokenId, payload.amount,comment, data);\n\t\t_burn(payload.signer, payload.tokenId, payload.amount);\n\t}\n\n\t// ----------------------------------\n\t//              Hooks\n\t// ----------------------------------\n\n\tfunction _beforeTokenTransfer(\n\t\taddress operator,\n\t\taddress from,\n\t\taddress to,\n\t\tuint256[] memory ids,\n\t\tuint256[] memory amounts,\n\t\tbytes memory data\n\t)\n\t\tinternal\n\t\toverride(ERC1155Upgradeable, ERC1155SupplyUpgradeable)\n\t\twhenNotPaused\n\t\tnotBlacklisted(from)\n\t\tnotBlacklisted(to)\n\t{\n\t\tfor(uint256 i = 0; i < ids.length; i++) {\n\t\t\trequire((retirementMapping[ids[i]].amount == 0) || (from == address(0) || to == address(0)), \"11\");\n\t\t}\n\t\tsuper._beforeTokenTransfer(operator, from, to, ids, amounts, data);\n\t}\n\n\tfunction setURI(string memory newuri) public onlyRole(URI_SETTER_ROLE) {\n\t\t_setURI(newuri);\n\t}\n\n\tfunction pause() public onlyRole(PAUSER_ROLE) {\n\t\t_pause();\n\t}\n\n\tfunction unpause() public onlyRole(PAUSER_ROLE) {\n\t\t_unpause();\n\t}\n\n\tfunction nextTokenId() internal returns (uint256) {\n\t\tunchecked {\n\t\t\ttopTokenId += 1;\n\t\t}\n\t\treturn topTokenId;\n\t}\n\n\tfunction updateMaxAntePercentage(uint8 newMaxAntePercentage)\n\t\tpublic\n\t\tonlyRole(DEFAULT_ADMIN_ROLE)\n\t{\n\t\tmaxAntePercentage = newMaxAntePercentage;\n\t}\n\n\tfunction _authorizeUpgrade(\n\t\taddress newImplementation\n\t) internal override onlyRole(UPGRADER_ROLE) {}\n\n\t// The following functions are overrides required by Solidity.\n\n\tfunction supportsInterface(\n\t\tbytes4 interfaceId\n\t)\n\t\tpublic\n\t\tview\n\t\toverride(ERC1155Upgradeable, AccessControlUpgradeable,ERC1155ReceiverUpgradeable)\n\t\treturns (bool)\n\t{\n\t\treturn super.supportsInterface(interfaceId);\n\t}\n}\n",
  "sourcePath": "/Users/thorduragustsson/Programming/Projects/CarbonRegistryContracts/contracts/Project.sol",
  "compiler": {
    "name": "solc",
    "version": "0.8.13+commit.abaa5c0e.Emscripten.clang"
  },
  "schemaVersion": "3.4.13",
  "updatedAt": "2023-06-12T20:20:08.998Z",
  "devdoc": {
    "kind": "dev",
    "methods": {
      "balanceOf(address,uint256)": {
        "details": "See {IERC1155-balanceOf}. Requirements: - `account` cannot be the zero address."
      },
      "balanceOfBatch(address[],uint256[])": {
        "details": "See {IERC1155-balanceOfBatch}. Requirements: - `accounts` and `ids` must have the same length."
      },
      "constructor": {
        "custom:oz-upgrades-unsafe-allow": "constructor"
      },
      "exists(uint256)": {
        "details": "Indicates whether any token exist with a given id, or not."
      },
      "getRoleAdmin(bytes32)": {
        "details": "Returns the admin role that controls `role`. See {grantRole} and {revokeRole}. To change a role's admin, use {_setRoleAdmin}."
      },
      "grantRole(bytes32,address)": {
        "details": "Grants `role` to `account`. If `account` had not been already granted `role`, emits a {RoleGranted} event. Requirements: - the caller must have ``role``'s admin role. May emit a {RoleGranted} event."
      },
      "hasRole(bytes32,address)": {
        "details": "Returns `true` if `account` has been granted `role`."
      },
      "isApprovedForAll(address,address)": {
        "details": "See {IERC1155-isApprovedForAll}."
      },
      "paused()": {
        "details": "Returns true if the contract is paused, and false otherwise."
      },
      "proxiableUUID()": {
        "details": "Implementation of the ERC1822 {proxiableUUID} function. This returns the storage slot used by the implementation. It is used to validate the implementation's compatibility when performing an upgrade. IMPORTANT: A proxy pointing at a proxiable contract should not be considered proxiable itself, because this risks bricking a proxy that upgrades to it, by delegating to itself until out of gas. Thus it is critical that this function revert if invoked through a proxy. This is guaranteed by the `notDelegated` modifier."
      },
      "renounceRole(bytes32,address)": {
        "details": "Revokes `role` from the calling account. Roles are often managed via {grantRole} and {revokeRole}: this function's purpose is to provide a mechanism for accounts to lose their privileges if they are compromised (such as when a trusted device is misplaced). If the calling account had been revoked `role`, emits a {RoleRevoked} event. Requirements: - the caller must be `account`. May emit a {RoleRevoked} event."
      },
      "revokeRole(bytes32,address)": {
        "details": "Revokes `role` from `account`. If `account` had been granted `role`, emits a {RoleRevoked} event. Requirements: - the caller must have ``role``'s admin role. May emit a {RoleRevoked} event."
      },
      "safeBatchTransferFrom(address,address,uint256[],uint256[],bytes)": {
        "details": "See {IERC1155-safeBatchTransferFrom}."
      },
      "safeTransferFrom(address,address,uint256,uint256,bytes)": {
        "details": "See {IERC1155-safeTransferFrom}."
      },
      "setApprovalForAll(address,bool)": {
        "details": "See {IERC1155-setApprovalForAll}."
      },
      "totalSupply(uint256)": {
        "details": "Total amount of tokens in with a given id."
      },
      "upgradeTo(address)": {
        "details": "Upgrade the implementation of the proxy to `newImplementation`. Calls {_authorizeUpgrade}. Emits an {Upgraded} event."
      },
      "upgradeToAndCall(address,bytes)": {
        "details": "Upgrade the implementation of the proxy to `newImplementation`, and subsequently execute the function call encoded in `data`. Calls {_authorizeUpgrade}. Emits an {Upgraded} event."
      },
      "uri(uint256)": {
        "details": "See {IERC1155MetadataURI-uri}. This implementation returns the same URI for *all* token types. It relies on the token type ID substitution mechanism https://eips.ethereum.org/EIPS/eip-1155#metadata[defined in the EIP]. Clients calling this function must replace the `\\{id\\}` substring with the actual token type ID."
      }
    },
    "version": 1
  },
  "userdoc": {
    "kind": "user",
    "methods": {},
    "version": 1
  }
}