{
  "contractName": "Project",
  "abi": [
    {
      "inputs": [],
      "stateMutability": "nonpayable",
      "type": "constructor"
    },
    {
      "anonymous": false,
      "inputs": [
        {
          "indexed": true,
          "internalType": "address",
          "name": "from",
          "type": "address"
        },
        {
          "indexed": true,
          "internalType": "uint256",
          "name": "tokenId",
          "type": "uint256"
        },
        {
          "indexed": false,
          "internalType": "uint256",
          "name": "amount",
          "type": "uint256"
        },
        {
          "indexed": true,
          "internalType": "enum AdminActionReason",
          "name": "reason",
          "type": "uint8"
        }
      ],
      "name": "AdminBurn",
      "type": "event"
    },
    {
      "anonymous": false,
      "inputs": [
        {
          "indexed": false,
          "internalType": "address",
          "name": "previousAdmin",
          "type": "address"
        },
        {
          "indexed": false,
          "internalType": "address",
          "name": "newAdmin",
          "type": "address"
        }
      ],
      "name": "AdminChanged",
      "type": "event"
    },
    {
      "anonymous": false,
      "inputs": [
        {
          "indexed": true,
          "internalType": "address",
          "name": "from",
          "type": "address"
        },
        {
          "indexed": false,
          "internalType": "address",
          "name": "to",
          "type": "address"
        },
        {
          "indexed": true,
          "internalType": "uint256",
          "name": "tokenId",
          "type": "uint256"
        },
        {
          "indexed": false,
          "internalType": "uint256",
          "name": "amount",
          "type": "uint256"
        },
        {
          "indexed": true,
          "internalType": "enum AdminActionReason",
          "name": "reason",
          "type": "uint8"
        }
      ],
      "name": "AdminClawback",
      "type": "event"
    },
    {
      "anonymous": false,
      "inputs": [
        {
          "indexed": true,
          "internalType": "address",
          "name": "account",
          "type": "address"
        },
        {
          "indexed": true,
          "internalType": "address",
          "name": "operator",
          "type": "address"
        },
        {
          "indexed": false,
          "internalType": "bool",
          "name": "approved",
          "type": "bool"
        }
      ],
      "name": "ApprovalForAll",
      "type": "event"
    },
    {
      "anonymous": false,
      "inputs": [
        {
          "indexed": true,
          "internalType": "address",
          "name": "beacon",
          "type": "address"
        }
      ],
      "name": "BeaconUpgraded",
      "type": "event"
    },
    {
      "anonymous": false,
      "inputs": [
        {
          "indexed": true,
          "internalType": "address",
          "name": "account",
          "type": "address"
        },
        {
          "indexed": true,
          "internalType": "uint256",
          "name": "tokenId",
          "type": "uint256"
        },
        {
          "indexed": false,
          "internalType": "uint256",
          "name": "amount",
          "type": "uint256"
        },
        {
          "indexed": false,
          "internalType": "string",
          "name": "reason",
          "type": "string"
        },
        {
          "indexed": false,
          "internalType": "bytes",
          "name": "data",
          "type": "bytes"
        }
      ],
      "name": "CancelledCredits",
      "type": "event"
    },
    {
      "anonymous": false,
      "inputs": [
        {
          "indexed": true,
          "internalType": "uint256",
          "name": "exAnteTokenId",
          "type": "uint256"
        },
        {
          "indexed": true,
          "internalType": "uint256",
          "name": "exPostTokenId",
          "type": "uint256"
        },
        {
          "indexed": true,
          "internalType": "address",
          "name": "account",
          "type": "address"
        },
        {
          "indexed": false,
          "internalType": "uint256",
          "name": "amount",
          "type": "uint256"
        }
      ],
      "name": "ExAnteMinted",
      "type": "event"
    },
    {
      "anonymous": false,
      "inputs": [
        {
          "indexed": true,
          "internalType": "uint256",
          "name": "tokenId",
          "type": "uint256"
        },
        {
          "indexed": false,
          "internalType": "uint256",
          "name": "estimatedAmount",
          "type": "uint256"
        },
        {
          "indexed": false,
          "internalType": "uint256",
          "name": "verificationPeriodStart",
          "type": "uint256"
        },
        {
          "indexed": false,
          "internalType": "uint256",
          "name": "verificationPeriodEnd",
          "type": "uint256"
        },
        {
          "indexed": false,
          "internalType": "string",
          "name": "serialization",
          "type": "string"
        }
      ],
      "name": "ExPostCreated",
      "type": "event"
    },
    {
      "anonymous": false,
      "inputs": [
        {
          "indexed": true,
          "internalType": "uint256",
          "name": "tokenId",
          "type": "uint256"
        },
        {
          "indexed": false,
          "internalType": "uint256",
          "name": "amount",
          "type": "uint256"
        },
        {
          "indexed": false,
          "internalType": "uint256",
          "name": "amountToAnteHolders",
          "type": "uint256"
        },
        {
          "indexed": false,
          "internalType": "uint256",
          "name": "verificationPeriodStart",
          "type": "uint256"
        },
        {
          "indexed": false,
          "internalType": "uint256",
          "name": "verificationPeriodEnd",
          "type": "uint256"
        },
        {
          "indexed": false,
          "internalType": "string",
          "name": "monitoringReport",
          "type": "string"
        }
      ],
      "name": "ExPostVerifiedAndMinted",
      "type": "event"
    },
    {
      "anonymous": false,
      "inputs": [
        {
          "indexed": true,
          "internalType": "address",
          "name": "account",
          "type": "address"
        },
        {
          "indexed": true,
          "internalType": "uint256",
          "name": "exPostTokenId",
          "type": "uint256"
        },
        {
          "indexed": false,
          "internalType": "uint256",
          "name": "exPostAmountReceived",
          "type": "uint256"
        },
        {
          "indexed": false,
          "internalType": "uint256",
          "name": "exAnteAmountBurned",
          "type": "uint256"
        }
      ],
      "name": "ExchangeAnteForPost",
      "type": "event"
    },
    {
      "anonymous": false,
      "inputs": [
        {
          "indexed": false,
          "internalType": "uint8",
          "name": "version",
          "type": "uint8"
        }
      ],
      "name": "Initialized",
      "type": "event"
    },
    {
      "anonymous": false,
      "inputs": [
        {
          "indexed": false,
          "internalType": "address",
          "name": "account",
          "type": "address"
        }
      ],
      "name": "Paused",
      "type": "event"
    },
    {
      "anonymous": false,
      "inputs": [
        {
          "indexed": true,
          "internalType": "address",
          "name": "account",
          "type": "address"
        },
        {
          "indexed": true,
          "internalType": "uint256",
          "name": "tokenId",
          "type": "uint256"
        },
        {
          "indexed": false,
          "internalType": "uint256",
          "name": "amount",
          "type": "uint256"
        },
        {
          "indexed": false,
          "internalType": "uint256",
          "name": "nftTokenId",
          "type": "uint256"
        },
        {
          "indexed": false,
          "internalType": "bytes",
          "name": "data",
          "type": "bytes"
        }
      ],
      "name": "RetiredVintage",
      "type": "event"
    },
    {
      "anonymous": false,
      "inputs": [
        {
          "indexed": true,
          "internalType": "bytes32",
          "name": "role",
          "type": "bytes32"
        },
        {
          "indexed": true,
          "internalType": "bytes32",
          "name": "previousAdminRole",
          "type": "bytes32"
        },
        {
          "indexed": true,
          "internalType": "bytes32",
          "name": "newAdminRole",
          "type": "bytes32"
        }
      ],
      "name": "RoleAdminChanged",
      "type": "event"
    },
    {
      "anonymous": false,
      "inputs": [
        {
          "indexed": true,
          "internalType": "bytes32",
          "name": "role",
          "type": "bytes32"
        },
        {
          "indexed": true,
          "internalType": "address",
          "name": "account",
          "type": "address"
        },
        {
          "indexed": true,
          "internalType": "address",
          "name": "sender",
          "type": "address"
        }
      ],
      "name": "RoleGranted",
      "type": "event"
    },
    {
      "anonymous": false,
      "inputs": [
        {
          "indexed": true,
          "internalType": "bytes32",
          "name": "role",
          "type": "bytes32"
        },
        {
          "indexed": true,
          "internalType": "address",
          "name": "account",
          "type": "address"
        },
        {
          "indexed": true,
          "internalType": "address",
          "name": "sender",
          "type": "address"
        }
      ],
      "name": "RoleRevoked",
      "type": "event"
    },
    {
      "anonymous": false,
      "inputs": [
        {
          "indexed": true,
          "internalType": "address",
          "name": "operator",
          "type": "address"
        },
        {
          "indexed": true,
          "internalType": "address",
          "name": "from",
          "type": "address"
        },
        {
          "indexed": true,
          "internalType": "address",
          "name": "to",
          "type": "address"
        },
        {
          "indexed": false,
          "internalType": "uint256[]",
          "name": "ids",
          "type": "uint256[]"
        },
        {
          "indexed": false,
          "internalType": "uint256[]",
          "name": "values",
          "type": "uint256[]"
        }
      ],
      "name": "TransferBatch",
      "type": "event"
    },
    {
      "anonymous": false,
      "inputs": [
        {
          "indexed": false,
          "internalType": "bytes",
          "name": "signature",
          "type": "bytes"
        },
        {
          "components": [
            {
              "internalType": "uint256",
              "name": "deadline",
              "type": "uint256"
            },
            {
              "internalType": "string",
              "name": "description",
              "type": "string"
            },
            {
              "internalType": "address",
              "name": "signer",
              "type": "address"
            },
            {
              "internalType": "address",
              "name": "to",
              "type": "address"
            },
            {
              "internalType": "uint256",
              "name": "tokenId",
              "type": "uint256"
            },
            {
              "internalType": "uint256",
              "name": "amount",
              "type": "uint256"
            },
            {
              "internalType": "uint256",
              "name": "nonce",
              "type": "uint256"
            }
          ],
          "indexed": false,
          "internalType": "struct signatureTransferPayload",
          "name": "payload",
          "type": "tuple"
        }
      ],
      "name": "TransferSignatureValid",
      "type": "event"
    },
    {
      "anonymous": false,
      "inputs": [
        {
          "indexed": true,
          "internalType": "address",
          "name": "operator",
          "type": "address"
        },
        {
          "indexed": true,
          "internalType": "address",
          "name": "from",
          "type": "address"
        },
        {
          "indexed": true,
          "internalType": "address",
          "name": "to",
          "type": "address"
        },
        {
          "indexed": false,
          "internalType": "uint256",
          "name": "id",
          "type": "uint256"
        },
        {
          "indexed": false,
          "internalType": "uint256",
          "name": "value",
          "type": "uint256"
        }
      ],
      "name": "TransferSingle",
      "type": "event"
    },
    {
      "anonymous": false,
      "inputs": [
        {
          "indexed": false,
          "internalType": "string",
          "name": "value",
          "type": "string"
        },
        {
          "indexed": true,
          "internalType": "uint256",
          "name": "id",
          "type": "uint256"
        }
      ],
      "name": "URI",
      "type": "event"
    },
    {
      "anonymous": false,
      "inputs": [
        {
          "indexed": false,
          "internalType": "address",
          "name": "account",
          "type": "address"
        }
      ],
      "name": "Unpaused",
      "type": "event"
    },
    {
      "anonymous": false,
      "inputs": [
        {
          "indexed": true,
          "internalType": "address",
          "name": "implementation",
          "type": "address"
        }
      ],
      "name": "Upgraded",
      "type": "event"
    },
    {
      "anonymous": false,
      "inputs": [
        {
          "indexed": true,
          "internalType": "uint256",
          "name": "tokenId",
          "type": "uint256"
        },
        {
          "indexed": false,
          "internalType": "uint256",
          "name": "newEstimate",
          "type": "uint256"
        },
        {
          "indexed": false,
          "internalType": "uint256",
          "name": "oldEstimate",
          "type": "uint256"
        },
        {
          "indexed": true,
          "internalType": "enum AdminActionReason",
          "name": "reason",
          "type": "uint8"
        }
      ],
      "name": "VintageMitigationEstimateChanged",
      "type": "event"
    },
    {
      "inputs": [],
      "name": "ANTE_MINTER_ROLE",
      "outputs": [
        {
          "internalType": "bytes32",
          "name": "",
          "type": "bytes32"
        }
      ],
      "stateMutability": "view",
      "type": "function",
      "constant": true
    },
    {
      "inputs": [],
      "name": "BLACKLISTED",
      "outputs": [
        {
          "internalType": "bytes32",
          "name": "",
          "type": "bytes32"
        }
      ],
      "stateMutability": "view",
      "type": "function",
      "constant": true
    },
    {
      "inputs": [],
      "name": "BLACKLISTER_ROLE",
      "outputs": [
        {
          "internalType": "bytes32",
          "name": "",
          "type": "bytes32"
        }
      ],
      "stateMutability": "view",
      "type": "function",
      "constant": true
    },
    {
      "inputs": [],
      "name": "BURNER_ROLE",
      "outputs": [
        {
          "internalType": "bytes32",
          "name": "",
          "type": "bytes32"
        }
      ],
      "stateMutability": "view",
      "type": "function",
      "constant": true
    },
    {
      "inputs": [],
      "name": "CLAWBACK_ROLE",
      "outputs": [
        {
          "internalType": "bytes32",
          "name": "",
          "type": "bytes32"
        }
      ],
      "stateMutability": "view",
      "type": "function",
      "constant": true
    },
    {
      "inputs": [],
      "name": "DEFAULT_ADMIN_ROLE",
      "outputs": [
        {
          "internalType": "bytes32",
          "name": "",
          "type": "bytes32"
        }
      ],
      "stateMutability": "view",
      "type": "function",
      "constant": true
    },
    {
      "inputs": [],
      "name": "MINTER_ROLE",
      "outputs": [
        {
          "internalType": "bytes32",
          "name": "",
          "type": "bytes32"
        }
      ],
      "stateMutability": "view",
      "type": "function",
      "constant": true
    },
    {
      "inputs": [],
      "name": "PAUSER_ROLE",
      "outputs": [
        {
          "internalType": "bytes32",
          "name": "",
          "type": "bytes32"
        }
      ],
      "stateMutability": "view",
      "type": "function",
      "constant": true
    },
    {
      "inputs": [],
      "name": "POST_MINTER_ROLE",
      "outputs": [
        {
          "internalType": "bytes32",
          "name": "",
          "type": "bytes32"
        }
      ],
      "stateMutability": "view",
      "type": "function",
      "constant": true
    },
    {
      "inputs": [],
      "name": "UPGRADER_ROLE",
      "outputs": [
        {
          "internalType": "bytes32",
          "name": "",
          "type": "bytes32"
        }
      ],
      "stateMutability": "view",
      "type": "function",
      "constant": true
    },
    {
      "inputs": [],
      "name": "URI_SETTER_ROLE",
      "outputs": [
        {
          "internalType": "bytes32",
          "name": "",
          "type": "bytes32"
        }
      ],
      "stateMutability": "view",
      "type": "function",
      "constant": true
    },
    {
      "inputs": [],
      "name": "VERIFIER_ROLE",
      "outputs": [
        {
          "internalType": "bytes32",
          "name": "",
          "type": "bytes32"
        }
      ],
      "stateMutability": "view",
      "type": "function",
      "constant": true
    },
    {
      "inputs": [
        {
          "internalType": "address",
          "name": "_contractRegistry",
          "type": "address"
        },
        {
          "internalType": "uint8",
          "name": "_maxAntePerc",
          "type": "uint8"
        },
        {
          "internalType": "uint256",
          "name": "_projectId",
          "type": "uint256"
        },
        {
          "internalType": "string",
          "name": "_projectName",
          "type": "string"
        },
        {
          "internalType": "string",
          "name": "_projectUri",
          "type": "string"
        },
        {
          "internalType": "string",
          "name": "_methodology",
          "type": "string"
        }
      ],
      "name": "__ProjectStorage_init",
      "outputs": [],
      "stateMutability": "nonpayable",
      "type": "function"
    },
    {
      "inputs": [
        {
          "internalType": "address",
          "name": "account",
          "type": "address"
        },
        {
          "internalType": "uint256",
          "name": "id",
          "type": "uint256"
        }
      ],
      "name": "balanceOf",
      "outputs": [
        {
          "internalType": "uint256",
          "name": "",
          "type": "uint256"
        }
      ],
      "stateMutability": "view",
      "type": "function",
      "constant": true
    },
    {
      "inputs": [
        {
          "internalType": "address[]",
          "name": "accounts",
          "type": "address[]"
        },
        {
          "internalType": "uint256[]",
          "name": "ids",
          "type": "uint256[]"
        }
      ],
      "name": "balanceOfBatch",
      "outputs": [
        {
          "internalType": "uint256[]",
          "name": "",
          "type": "uint256[]"
        }
      ],
      "stateMutability": "view",
      "type": "function",
      "constant": true
    },
    {
      "inputs": [],
      "name": "contractRegistry",
      "outputs": [
        {
          "internalType": "address",
          "name": "",
          "type": "address"
        }
      ],
      "stateMutability": "view",
      "type": "function",
      "constant": true
    },
    {
      "inputs": [
        {
          "internalType": "uint256",
          "name": "",
          "type": "uint256"
        }
      ],
      "name": "exAnteToExPostTokenId",
      "outputs": [
        {
          "internalType": "uint256",
          "name": "",
          "type": "uint256"
        }
      ],
      "stateMutability": "view",
      "type": "function",
      "constant": true
    },
    {
      "inputs": [
        {
          "internalType": "uint256",
          "name": "",
          "type": "uint256"
        }
      ],
      "name": "exPostToExAnteTokenId",
      "outputs": [
        {
          "internalType": "uint256",
          "name": "",
          "type": "uint256"
        }
      ],
      "stateMutability": "view",
      "type": "function",
      "constant": true
    },
    {
      "inputs": [
        {
          "internalType": "uint256",
          "name": "",
          "type": "uint256"
        }
      ],
      "name": "exPostVintageMapping",
      "outputs": [
        {
          "internalType": "string",
          "name": "serialization",
          "type": "string"
        },
        {
          "internalType": "uint256",
          "name": "estMitigations",
          "type": "uint256"
        },
        {
          "internalType": "uint256",
          "name": "verificationPeriodStart",
          "type": "uint256"
        },
        {
          "internalType": "uint256",
          "name": "verificationPeriodEnd",
          "type": "uint256"
        },
        {
          "internalType": "uint256",
          "name": "lastVerificationTimestamp",
          "type": "uint256"
        }
      ],
      "stateMutability": "view",
      "type": "function",
      "constant": true
    },
    {
      "inputs": [
        {
          "internalType": "uint256",
          "name": "id",
          "type": "uint256"
        }
      ],
      "name": "exists",
      "outputs": [
        {
          "internalType": "bool",
          "name": "",
          "type": "bool"
        }
      ],
      "stateMutability": "view",
      "type": "function",
      "constant": true
    },
    {
      "inputs": [
        {
          "internalType": "bytes32",
          "name": "role",
          "type": "bytes32"
        }
      ],
      "name": "getRoleAdmin",
      "outputs": [
        {
          "internalType": "bytes32",
          "name": "",
          "type": "bytes32"
        }
      ],
      "stateMutability": "view",
      "type": "function",
      "constant": true
    },
    {
      "inputs": [
        {
          "internalType": "bytes32",
          "name": "role",
          "type": "bytes32"
        },
        {
          "internalType": "address",
          "name": "account",
          "type": "address"
        }
      ],
      "name": "grantRole",
      "outputs": [],
      "stateMutability": "nonpayable",
      "type": "function"
    },
    {
      "inputs": [
        {
          "internalType": "bytes32",
          "name": "role",
          "type": "bytes32"
        },
        {
          "internalType": "address",
          "name": "account",
          "type": "address"
        }
      ],
      "name": "hasRole",
      "outputs": [
        {
          "internalType": "bool",
          "name": "",
          "type": "bool"
        }
      ],
      "stateMutability": "view",
      "type": "function",
      "constant": true
    },
    {
      "inputs": [
        {
          "internalType": "address",
          "name": "account",
          "type": "address"
        },
        {
          "internalType": "address",
          "name": "operator",
          "type": "address"
        }
      ],
      "name": "isApprovedForAll",
      "outputs": [
        {
          "internalType": "bool",
          "name": "",
          "type": "bool"
        }
      ],
      "stateMutability": "view",
      "type": "function",
      "constant": true
    },
    {
      "inputs": [],
      "name": "maxAntePercentage",
      "outputs": [
        {
          "internalType": "uint8",
          "name": "",
          "type": "uint8"
        }
      ],
      "stateMutability": "view",
      "type": "function",
      "constant": true
    },
    {
      "inputs": [],
      "name": "methodology",
      "outputs": [
        {
          "internalType": "string",
          "name": "",
          "type": "string"
        }
      ],
      "stateMutability": "view",
      "type": "function",
      "constant": true
    },
    {
      "inputs": [
        {
          "internalType": "address",
          "name": "",
          "type": "address"
        },
        {
          "internalType": "address",
          "name": "",
          "type": "address"
        },
        {
          "internalType": "uint256[]",
          "name": "",
          "type": "uint256[]"
        },
        {
          "internalType": "uint256[]",
          "name": "",
          "type": "uint256[]"
        },
        {
          "internalType": "bytes",
          "name": "",
          "type": "bytes"
        }
      ],
      "name": "onERC1155BatchReceived",
      "outputs": [
        {
          "internalType": "bytes4",
          "name": "",
          "type": "bytes4"
        }
      ],
      "stateMutability": "nonpayable",
      "type": "function"
    },
    {
      "inputs": [
        {
          "internalType": "address",
          "name": "",
          "type": "address"
        },
        {
          "internalType": "address",
          "name": "",
          "type": "address"
        },
        {
          "internalType": "uint256",
          "name": "",
          "type": "uint256"
        },
        {
          "internalType": "uint256",
          "name": "",
          "type": "uint256"
        },
        {
          "internalType": "bytes",
          "name": "",
          "type": "bytes"
        }
      ],
      "name": "onERC1155Received",
      "outputs": [
        {
          "internalType": "bytes4",
          "name": "",
          "type": "bytes4"
        }
      ],
      "stateMutability": "nonpayable",
      "type": "function"
    },
    {
      "inputs": [],
      "name": "paused",
      "outputs": [
        {
          "internalType": "bool",
          "name": "",
          "type": "bool"
        }
      ],
      "stateMutability": "view",
      "type": "function",
      "constant": true
    },
    {
      "inputs": [],
      "name": "projectId",
      "outputs": [
        {
          "internalType": "uint256",
          "name": "",
          "type": "uint256"
        }
      ],
      "stateMutability": "view",
      "type": "function",
      "constant": true
    },
    {
      "inputs": [],
      "name": "projectName",
      "outputs": [
        {
          "internalType": "string",
          "name": "",
          "type": "string"
        }
      ],
      "stateMutability": "view",
      "type": "function",
      "constant": true
    },
    {
      "inputs": [],
      "name": "projectUri",
      "outputs": [
        {
          "internalType": "string",
          "name": "",
          "type": "string"
        }
      ],
      "stateMutability": "view",
      "type": "function",
      "constant": true
    },
    {
      "inputs": [],
      "name": "proxiableUUID",
      "outputs": [
        {
          "internalType": "bytes32",
          "name": "",
          "type": "bytes32"
        }
      ],
      "stateMutability": "view",
      "type": "function",
      "constant": true
    },
    {
      "inputs": [
        {
          "internalType": "bytes32",
          "name": "role",
          "type": "bytes32"
        },
        {
          "internalType": "address",
          "name": "account",
          "type": "address"
        }
      ],
      "name": "renounceRole",
      "outputs": [],
      "stateMutability": "nonpayable",
      "type": "function"
    },
    {
      "inputs": [
        {
          "internalType": "uint256",
          "name": "",
          "type": "uint256"
        }
      ],
      "name": "retirementMapping",
      "outputs": [
        {
          "internalType": "address",
          "name": "retiree",
          "type": "address"
        },
        {
          "internalType": "uint256",
          "name": "amount",
          "type": "uint256"
        },
        {
          "internalType": "uint256",
          "name": "vintageTokenId",
          "type": "uint256"
        },
        {
          "internalType": "string",
          "name": "retireeName",
          "type": "string"
        },
        {
          "internalType": "string",
          "name": "customUri",
          "type": "string"
        },
        {
          "internalType": "string",
          "name": "comment",
          "type": "string"
        }
      ],
      "stateMutability": "view",
      "type": "function",
      "constant": true
    },
    {
      "inputs": [
        {
          "internalType": "bytes32",
          "name": "role",
          "type": "bytes32"
        },
        {
          "internalType": "address",
          "name": "account",
          "type": "address"
        }
      ],
      "name": "revokeRole",
      "outputs": [],
      "stateMutability": "nonpayable",
      "type": "function"
    },
    {
      "inputs": [
        {
          "internalType": "address",
          "name": "from",
          "type": "address"
        },
        {
          "internalType": "address",
          "name": "to",
          "type": "address"
        },
        {
          "internalType": "uint256[]",
          "name": "ids",
          "type": "uint256[]"
        },
        {
          "internalType": "uint256[]",
          "name": "amounts",
          "type": "uint256[]"
        },
        {
          "internalType": "bytes",
          "name": "data",
          "type": "bytes"
        }
      ],
      "name": "safeBatchTransferFrom",
      "outputs": [],
      "stateMutability": "nonpayable",
      "type": "function"
    },
    {
      "inputs": [
        {
          "internalType": "address",
          "name": "from",
          "type": "address"
        },
        {
          "internalType": "address",
          "name": "to",
          "type": "address"
        },
        {
          "internalType": "uint256",
          "name": "id",
          "type": "uint256"
        },
        {
          "internalType": "uint256",
          "name": "amount",
          "type": "uint256"
        },
        {
          "internalType": "bytes",
          "name": "data",
          "type": "bytes"
        }
      ],
      "name": "safeTransferFrom",
      "outputs": [],
      "stateMutability": "nonpayable",
      "type": "function"
    },
    {
      "inputs": [
        {
          "internalType": "string",
          "name": "",
          "type": "string"
        }
      ],
      "name": "serializationToExPostTokenIdMapping",
      "outputs": [
        {
          "internalType": "uint256",
          "name": "",
          "type": "uint256"
        }
      ],
      "stateMutability": "view",
      "type": "function",
      "constant": true
    },
    {
      "inputs": [
        {
          "internalType": "address",
          "name": "operator",
          "type": "address"
        },
        {
          "internalType": "bool",
          "name": "approved",
          "type": "bool"
        }
      ],
      "name": "setApprovalForAll",
      "outputs": [],
      "stateMutability": "nonpayable",
      "type": "function"
    },
    {
      "inputs": [
        {
          "internalType": "address",
          "name": "",
          "type": "address"
        }
      ],
      "name": "signatureNonces",
      "outputs": [
        {
          "internalType": "uint32",
          "name": "",
          "type": "uint32"
        }
      ],
      "stateMutability": "view",
      "type": "function",
      "constant": true
    },
    {
      "inputs": [],
      "name": "topTokenId",
      "outputs": [
        {
          "internalType": "uint256",
          "name": "",
          "type": "uint256"
        }
      ],
      "stateMutability": "view",
      "type": "function",
      "constant": true
    },
    {
      "inputs": [
        {
          "internalType": "uint256",
          "name": "id",
          "type": "uint256"
        }
      ],
      "name": "totalSupply",
      "outputs": [
        {
          "internalType": "uint256",
          "name": "",
          "type": "uint256"
        }
      ],
      "stateMutability": "view",
      "type": "function",
      "constant": true
    },
    {
      "inputs": [
        {
          "internalType": "address",
          "name": "newImplementation",
          "type": "address"
        }
      ],
      "name": "upgradeTo",
      "outputs": [],
      "stateMutability": "nonpayable",
      "type": "function"
    },
    {
      "inputs": [
        {
          "internalType": "address",
          "name": "newImplementation",
          "type": "address"
        },
        {
          "internalType": "bytes",
          "name": "data",
          "type": "bytes"
        }
      ],
      "name": "upgradeToAndCall",
      "outputs": [],
      "stateMutability": "payable",
      "type": "function",
      "payable": true
    },
    {
      "inputs": [
        {
          "internalType": "uint256",
          "name": "",
          "type": "uint256"
        }
      ],
      "name": "uri",
      "outputs": [
        {
          "internalType": "string",
          "name": "",
          "type": "string"
        }
      ],
      "stateMutability": "view",
      "type": "function",
      "constant": true
    },
    {
      "inputs": [
        {
          "internalType": "address",
          "name": "_contractRegistry",
          "type": "address"
        },
        {
          "internalType": "address",
          "name": "_owner",
          "type": "address"
        },
        {
          "internalType": "uint256",
          "name": "_projectId",
          "type": "uint256"
        },
        {
          "internalType": "string",
          "name": "_projectName",
          "type": "string"
        },
        {
          "internalType": "string",
          "name": "_projectMethodology",
          "type": "string"
        },
        {
          "internalType": "string",
          "name": "_projectUri",
          "type": "string"
        }
      ],
      "name": "initialize",
      "outputs": [],
      "stateMutability": "nonpayable",
      "type": "function"
    },
    {
      "inputs": [
        {
          "internalType": "uint256",
          "name": "tokenId",
          "type": "uint256"
        }
      ],
      "name": "isExPostToken",
      "outputs": [
        {
          "internalType": "bool",
          "name": "",
          "type": "bool"
        }
      ],
      "stateMutability": "view",
      "type": "function",
      "constant": true
    },
    {
      "inputs": [],
      "name": "testUpgrade",
      "outputs": [
        {
          "internalType": "string",
          "name": "",
          "type": "string"
        }
      ],
      "stateMutability": "pure",
      "type": "function",
      "constant": true
    },
    {
      "inputs": [
        {
          "internalType": "uint256",
          "name": "estAmount",
          "type": "uint256"
        },
        {
          "internalType": "uint256",
          "name": "verificationPeriodStart",
          "type": "uint256"
        },
        {
          "internalType": "uint256",
          "name": "verificationPeriodEnd",
          "type": "uint256"
        },
        {
          "internalType": "string",
          "name": "serialization",
          "type": "string"
        }
      ],
      "name": "createExPostVintage",
      "outputs": [],
      "stateMutability": "nonpayable",
      "type": "function"
    },
    {
      "inputs": [
        {
          "components": [
            {
              "internalType": "string",
              "name": "serialization",
              "type": "string"
            },
            {
              "internalType": "uint256",
              "name": "estMitigations",
              "type": "uint256"
            },
            {
              "internalType": "uint256",
              "name": "verificationPeriodStart",
              "type": "uint256"
            },
            {
              "internalType": "uint256",
              "name": "verificationPeriodEnd",
              "type": "uint256"
            },
            {
              "internalType": "uint256",
              "name": "lastVerificationTimestamp",
              "type": "uint256"
            }
          ],
          "internalType": "struct VintageData[]",
          "name": "vintages",
          "type": "tuple[]"
        }
      ],
      "name": "createExPostVintageBatch",
      "outputs": [],
      "stateMutability": "nonpayable",
      "type": "function"
    },
    {
      "inputs": [
        {
          "internalType": "address",
          "name": "account",
          "type": "address"
        },
        {
          "internalType": "uint256",
          "name": "exPostTokenId",
          "type": "uint256"
        },
        {
          "internalType": "uint256",
          "name": "amount",
          "type": "uint256"
        },
        {
          "internalType": "bytes",
          "name": "data",
          "type": "bytes"
        }
      ],
      "name": "mintExAnte",
      "outputs": [],
      "stateMutability": "nonpayable",
      "type": "function"
    },
    {
      "inputs": [
        {
          "internalType": "uint256",
          "name": "tokenId",
          "type": "uint256"
        },
        {
          "internalType": "uint256",
          "name": "newEstAmount",
          "type": "uint256"
        },
        {
          "internalType": "enum AdminActionReason",
          "name": "reason",
          "type": "uint8"
        }
      ],
      "name": "changeVintageMitigationEstimate",
      "outputs": [],
      "stateMutability": "nonpayable",
      "type": "function"
    },
    {
      "inputs": [
        {
          "internalType": "address",
          "name": "verificationVault",
          "type": "address"
        },
        {
          "internalType": "uint256",
          "name": "tokenId",
          "type": "uint256"
        },
        {
          "internalType": "uint256",
          "name": "amountVerified",
          "type": "uint256"
        },
        {
          "internalType": "uint256",
          "name": "amountToAnteHolders",
          "type": "uint256"
        },
        {
          "internalType": "uint256",
          "name": "verificationPeriodStart",
          "type": "uint256"
        },
        {
          "internalType": "uint256",
          "name": "verificationPeriodEnd",
          "type": "uint256"
        },
        {
          "internalType": "string",
          "name": "monitoringReport",
          "type": "string"
        }
      ],
      "name": "verifyAndMintExPost",
      "outputs": [],
      "stateMutability": "nonpayable",
      "type": "function"
    },
    {
      "inputs": [
        {
          "internalType": "address",
          "name": "from",
          "type": "address"
        },
        {
          "internalType": "address",
          "name": "to",
          "type": "address"
        },
        {
          "internalType": "uint256",
          "name": "tokenId",
          "type": "uint256"
        },
        {
          "internalType": "uint256",
          "name": "amount",
          "type": "uint256"
        },
        {
          "internalType": "enum AdminActionReason",
          "name": "reason",
          "type": "uint8"
        }
      ],
      "name": "adminClawback",
      "outputs": [],
      "stateMutability": "nonpayable",
      "type": "function"
    },
    {
      "inputs": [
        {
          "internalType": "address[]",
          "name": "accounts",
          "type": "address[]"
        },
        {
          "internalType": "uint256",
          "name": "exPostTokenId",
          "type": "uint256"
        },
        {
          "internalType": "bytes",
          "name": "data",
          "type": "bytes"
        }
      ],
      "name": "exchangeAnteForPostEvenSteven",
      "outputs": [],
      "stateMutability": "nonpayable",
      "type": "function"
    },
    {
      "inputs": [
        {
          "internalType": "bytes",
          "name": "signature",
          "type": "bytes"
        },
        {
          "components": [
            {
              "internalType": "uint256",
              "name": "deadline",
              "type": "uint256"
            },
            {
              "internalType": "string",
              "name": "description",
              "type": "string"
            },
            {
              "internalType": "address",
              "name": "signer",
              "type": "address"
            },
            {
              "internalType": "address",
              "name": "to",
              "type": "address"
            },
            {
              "internalType": "uint256",
              "name": "tokenId",
              "type": "uint256"
            },
            {
              "internalType": "uint256",
              "name": "amount",
              "type": "uint256"
            },
            {
              "internalType": "uint256",
              "name": "nonce",
              "type": "uint256"
            }
          ],
          "internalType": "struct signatureTransferPayload",
          "name": "payload",
          "type": "tuple"
        },
        {
          "internalType": "bytes",
          "name": "data",
          "type": "bytes"
        }
      ],
      "name": "transferFromSignature",
      "outputs": [],
      "stateMutability": "payable",
      "type": "function",
      "payable": true
    },
    {
      "inputs": [
        {
          "internalType": "uint256",
          "name": "tokenId",
          "type": "uint256"
        },
        {
          "internalType": "uint256",
          "name": "amount",
          "type": "uint256"
        },
        {
          "internalType": "address",
          "name": "beneficiary",
          "type": "address"
        },
        {
          "internalType": "string",
          "name": "retireeName",
          "type": "string"
        },
        {
          "internalType": "string",
          "name": "customUri",
          "type": "string"
        },
        {
          "internalType": "string",
          "name": "comment",
          "type": "string"
        },
        {
          "internalType": "bytes",
          "name": "data",
          "type": "bytes"
        }
      ],
      "name": "retire",
      "outputs": [
        {
          "internalType": "uint256",
          "name": "nftTokenId",
          "type": "uint256"
        }
      ],
      "stateMutability": "nonpayable",
      "type": "function"
    },
    {
      "inputs": [
        {
          "internalType": "bytes",
          "name": "signature",
          "type": "bytes"
        },
        {
          "components": [
            {
              "internalType": "uint256",
              "name": "deadline",
              "type": "uint256"
            },
            {
              "internalType": "string",
              "name": "description",
              "type": "string"
            },
            {
              "internalType": "address",
              "name": "signer",
              "type": "address"
            },
            {
              "internalType": "address",
              "name": "to",
              "type": "address"
            },
            {
              "internalType": "uint256",
              "name": "tokenId",
              "type": "uint256"
            },
            {
              "internalType": "uint256",
              "name": "amount",
              "type": "uint256"
            },
            {
              "internalType": "uint256",
              "name": "nonce",
              "type": "uint256"
            }
          ],
          "internalType": "struct signatureTransferPayload",
          "name": "payload",
          "type": "tuple"
        },
        {
          "internalType": "string",
          "name": "retireeName",
          "type": "string"
        },
        {
          "internalType": "string",
          "name": "customUri",
          "type": "string"
        },
        {
          "internalType": "string",
          "name": "comment",
          "type": "string"
        },
        {
          "internalType": "bytes",
          "name": "data",
          "type": "bytes"
        }
      ],
      "name": "retireFromSignature",
      "outputs": [
        {
          "internalType": "uint256",
          "name": "nftTokenId",
          "type": "uint256"
        }
      ],
      "stateMutability": "nonpayable",
      "type": "function"
    },
    {
      "inputs": [
        {
          "internalType": "bytes",
          "name": "signature",
          "type": "bytes"
        },
        {
          "components": [
            {
              "internalType": "uint256",
              "name": "deadline",
              "type": "uint256"
            },
            {
              "internalType": "string",
              "name": "description",
              "type": "string"
            },
            {
              "internalType": "address",
              "name": "signer",
              "type": "address"
            },
            {
              "internalType": "address",
              "name": "to",
              "type": "address"
            },
            {
              "internalType": "uint256",
              "name": "tokenId",
              "type": "uint256"
            },
            {
              "internalType": "uint256",
              "name": "amount",
              "type": "uint256"
            },
            {
              "internalType": "uint256",
              "name": "nonce",
              "type": "uint256"
            }
          ],
          "internalType": "struct signatureTransferPayload",
          "name": "payload",
          "type": "tuple"
        },
        {
          "internalType": "string",
          "name": "comment",
          "type": "string"
        },
        {
          "internalType": "bytes",
          "name": "data",
          "type": "bytes"
        }
      ],
      "name": "cancelCreditsFromSignature",
      "outputs": [],
      "stateMutability": "nonpayable",
      "type": "function"
    },
    {
      "inputs": [
        {
          "internalType": "string",
          "name": "newuri",
          "type": "string"
        }
      ],
      "name": "setURI",
      "outputs": [],
      "stateMutability": "nonpayable",
      "type": "function"
    },
    {
      "inputs": [],
      "name": "pause",
      "outputs": [],
      "stateMutability": "nonpayable",
      "type": "function"
    },
    {
      "inputs": [],
      "name": "unpause",
      "outputs": [],
      "stateMutability": "nonpayable",
      "type": "function"
    },
    {
      "inputs": [
        {
          "internalType": "uint8",
          "name": "newMaxAntePercentage",
          "type": "uint8"
        }
      ],
      "name": "updateMaxAntePercentage",
      "outputs": [],
      "stateMutability": "nonpayable",
      "type": "function"
    },
    {
      "inputs": [
        {
          "internalType": "bytes4",
          "name": "interfaceId",
          "type": "bytes4"
        }
      ],
      "name": "supportsInterface",
      "outputs": [
        {
          "internalType": "bool",
          "name": "",
          "type": "bool"
        }
      ],
      "stateMutability": "view",
      "type": "function",
      "constant": true
    }
  ],
  "bytecode": "0x60a0604052306080523480156200001557600080fd5b506200002062000026565b620000e8565b600054610100900460ff1615620000935760405162461bcd60e51b815260206004820152602760248201527f496e697469616c697a61626c653a20636f6e747261637420697320696e697469604482015266616c697a696e6760c81b606482015260840160405180910390fd5b60005460ff9081161015620000e6576000805460ff191660ff9081179091556040519081527f7f26b83ff96e1f2b6a682f133852f6798a09c465da95921460cefb38474024989060200160405180910390a15b565b608051615d866200012060003960008181611777015281816117b701528181611bcb01528181611c0b0152611c960152615d866000f3fe6080604052600436106102dd5760003560e01c8062fdd58e146102e257806301139ca71461031557806301ffc9a71461033757806302fe5305146103675780630cda95f9146103875780630e89341c146103a757806310c1e7a1146103d457806322088ebf146103f4578063248a9ca314610414578063275d4dec14610434578063282c51f3146104545780632ea05e44146104885780632eb2c2d6146104aa5780632f2ff15d146104ca5780633584c384146104ea57806336568abe146105185780633659cfe6146105385780633f4ba83a146105585780633fafa1271461056d57806341a30d3c146105845780634e1273f4146105a45780634f1ef286146105d15780634f558e79146105e457806352d1902d1461060457806354ff07951461061957806357c537af146106525780635c975abb146106725780635e3bbaab1461068a578063610e7012146106ac57806361eeb089146106d95780636929a19c146106f05780636f63984d14610722578063728e68e314610742578063748957de1461077357806379c27605146107885780637f345710146107a85780638456cb59146107ca5780638f76c1da146107df57806391d148541461080d57806399df11cf1461082d5780639a33e3001461084d5780639d6aed0b146108625780639eeb1d5014610890578063a0e1b171146108a5578063a217fddf146108c5578063a22cb465146108da578063aa8b2ea7146108fa578063abf410e51461091c578063af93ff721461094a578063b456f2e61461096a578063bc197c811461098a578063bd85b039146109cf578063d5391393146109ef578063d547741f14610a23578063dbd8483d14610a43578063deb0420714610a8c578063e36408d014610aac578063e63ab1e914610abf578063e7705db614610ae1578063e985e9c514610b03578063edc0b2e614610b4c578063f23a6e6114610b6e578063f242432a14610b9a578063f515e6f214610bba578063f72c0d8b14610bdc575b600080fd5b3480156102ee57600080fd5b506103026102fd3660046145b9565b610bfe565b6040519081526020015b60405180910390f35b34801561032157600080fd5b506103356103303660046146bd565b610c96565b005b34801561034357600080fd5b50610357610352366004614784565b610ecc565b604051901515815260200161030c565b34801561037357600080fd5b506103356103823660046147a1565b610edd565b34801561039357600080fd5b506103356103a2366004614870565b610f02565b3480156103b357600080fd5b506103c76103c23660046148dc565b6110c7565b60405161030c919061494d565b3480156103e057600080fd5b506103356103ef366004614960565b61115b565b34801561040057600080fd5b5061033561040f366004614a19565b61133c565b34801561042057600080fd5b5061030261042f3660046148dc565b6115e5565b34801561044057600080fd5b5061030261044f366004614acb565b6115fa565b34801561046057600080fd5b506103027f3c11d16cbaffd01df69ce1c404f6340ee057498f5f00246190ea54220576a84881565b34801561049457600080fd5b50610302600080516020615cf183398151915281565b3480156104b657600080fd5b506103356104c5366004614c01565b611686565b3480156104d657600080fd5b506103356104e5366004614c90565b6116d2565b3480156104f657600080fd5b506103026105053660046148dc565b6101fe6020526000908152604090205481565b34801561052457600080fd5b50610335610533366004614c90565b6116f3565b34801561054457600080fd5b50610335610553366004614cbc565b61176d565b34801561056457600080fd5b50610335611835565b34801561057957600080fd5b506103026101f85481565b34801561059057600080fd5b5061033561059f366004614cd7565b611855565b3480156105b057600080fd5b506105c46105bf366004614d45565b611a98565b60405161030c9190614de3565b6103356105df366004614df6565b611bc1565b3480156105f057600080fd5b506103576105ff3660046148dc565b611c76565b34801561061057600080fd5b50610302611c89565b34801561062557600080fd5b506103026106343660046147a1565b80516020818301810180516101ff8252928201919093012091525481565b34801561065e57600080fd5b5061033561066d366004614e48565b611d38565b34801561067e57600080fd5b5060c95460ff16610357565b34801561069657600080fd5b50610302600080516020615d1183398151915281565b3480156106b857600080fd5b506101f9546106c79060ff1681565b60405160ff909116815260200161030c565b3480156106e557600080fd5b506103026101f75481565b3480156106fc57600080fd5b5061071061070b3660046148dc565b611e3a565b60405161030c96959493929190614e8a565b34801561072e57600080fd5b5061035761073d3660046148dc565b612014565b34801561074e57600080fd5b5061076261075d3660046148dc565b61203b565b60405161030c959493929190614edd565b34801561077f57600080fd5b506103c76120f2565b34801561079457600080fd5b506103356107a3366004614f14565b612181565b3480156107b457600080fd5b50610302600080516020615c4a83398151915281565b3480156107d657600080fd5b50610335612237565b3480156107eb57600080fd5b506103026107fa3660046148dc565b6101fd6020526000908152604090205481565b34801561081957600080fd5b50610357610828366004614c90565b612257565b34801561083957600080fd5b50610335610848366004615041565b612282565b34801561085957600080fd5b506103c76122a5565b34801561086e57600080fd5b506040805180820190915260058152640c0b8c0b8d60da1b60208201526103c7565b34801561089c57600080fd5b506103c76122b3565b3480156108b157600080fd5b506103356108c036600461505c565b6122c1565b3480156108d157600080fd5b50610302600081565b3480156108e657600080fd5b506103356108f536600461509d565b612460565b34801561090657600080fd5b50610302600080516020615c2a83398151915281565b34801561092857600080fd5b506101fb5461093d906001600160a01b031681565b60405161030c91906150d9565b34801561095657600080fd5b506103026109653660046150ed565b61246b565b34801561097657600080fd5b506103356109853660046151cc565b61267a565b34801561099657600080fd5b506109b66109a5366004614c01565b63bc197c8160e01b95945050505050565b6040516001600160e01b0319909116815260200161030c565b3480156109db57600080fd5b506103026109ea3660046148dc565b61279b565b3480156109fb57600080fd5b506103027f9f2df0fed2c77648de5860a4cc508cd0818c85b8b8a1ab4ceeef8d981c8956a681565b348015610a2f57600080fd5b50610335610a3e366004614c90565b6127ad565b348015610a4f57600080fd5b50610a77610a5e366004614cbc565b6101c56020526000908152604090205463ffffffff1681565b60405163ffffffff909116815260200161030c565b348015610a9857600080fd5b50610335610aa73660046151fc565b6127c9565b610335610aba366004615253565b612860565b348015610acb57600080fd5b50610302600080516020615c8a83398151915281565b348015610aed57600080fd5b50610302600080516020615d3183398151915281565b348015610b0f57600080fd5b50610357610b1e3660046152d4565b6001600160a01b03918216600090815260666020908152604080832093909416825291909152205460ff1690565b348015610b5857600080fd5b50610302600080516020615b8a83398151915281565b348015610b7a57600080fd5b506109b6610b893660046152fe565b63f23a6e6160e01b95945050505050565b348015610ba657600080fd5b50610335610bb53660046152fe565b612994565b348015610bc657600080fd5b50610302600080516020615cd183398151915281565b348015610be857600080fd5b50610302600080516020615bea83398151915281565b60006001600160a01b038316610c6e5760405162461bcd60e51b815260206004820152602a60248201527f455243313135353a2061646472657373207a65726f206973206e6f742061207660448201526930b634b21037bbb732b960b11b60648201526084015b60405180910390fd5b5060009081526065602090815260408083206001600160a01b03949094168352929052205490565b600054610100900460ff1615808015610cb65750600054600160ff909116105b80610cd75750610cc5306129d9565b158015610cd7575060005460ff166001145b610cf35760405162461bcd60e51b8152600401610c6590615362565b6000805460ff191660011790558015610d16576000805461ff0019166101001790555b610d2e604051806020016040528060008152506129e8565b610d36612a18565b610d3e612a41565b610d46612a18565b610d4e612a18565b610d9c6040518060400160405280600f81526020016e436172626f6e20526567697374727960881b81525060405180604001604052806005815260200164302e302e3160d81b815250612a70565b610dab8760328787868861267a565b610db6600087612aa1565b610dce600080516020615c4a83398151915287612aa1565b610de6600080516020615c8a83398151915287612aa1565b610dfe600080516020615b8a83398151915287612aa1565b610e16600080516020615d1183398151915287612aa1565b610e2e600080516020615bea83398151915287612aa1565b610e46600080516020615cd183398151915287612aa1565b610e5e600080516020615d3183398151915287612aa1565b610e76600080516020615cf183398151915287612aa1565b610e8e600080516020615d1183398151915233612aa1565b8015610ec3576000805461ff001916905560405160018152600080516020615c6a833981519152906020015b60405180910390a15b50505050505050565b6000610ed782612b27565b92915050565b600080516020615c4a833981519152610ef581612b4c565b610efe82612b56565b5050565b81610f0c81612014565b610f285760405162461bcd60e51b8152600401610c65906153b0565b60008381526101fe602052604081205490819003610f585760405162461bcd60e51b8152600401610c65906153cb565b6000610f638261279b565b90506000610f713087610bfe565b905060008111610fa85760405162461bcd60e51b8152602060048201526002602482015261031360f41b6044820152606401610c65565b60005b87518110156110bd576000610fd9898381518110610fcb57610fcb6153e6565b602002602001015186610bfe565b9050600084610fe88584615412565b610ff29190615431565b905081818111156110005750805b898b8581518110611013576110136153e6565b60200260200101516001600160a01b03167ffa5cd0fcb25938b2f45b3ca175241bfb3739cf4db3cb7476846930ec714f13f28484604051611055929190615453565b60405180910390a36110818b8581518110611072576110726153e6565b60200260200101518883612b69565b6110a7308c8681518110611097576110976153e6565b60200260200101518c858d612cee565b50505080806110b590615461565b915050610fab565b5050505050505050565b6060606780546110d69061547a565b80601f01602080910402602001604051908101604052809291908181526020018280546111029061547a565b801561114f5780601f106111245761010080835404028352916020019161114f565b820191906000526020600020905b81548152906001019060200180831161113257829003601f168201915b50505050509050919050565b600080516020615b8a83398151915261117381612b4c565b8361117d81612014565b6111995760405162461bcd60e51b8152600401610c65906153b0565b60008581526101fc602052604081206003810154600490910154879111604051806040016040528060018152602001603360f81b815250906111ee5760405162461bcd60e51b8152600401610c65919061494d565b5060008781526101fe60205260408120549081900361122757506101f780546001019081905560008881526101fe602052604090208190555b60008881526101fc6020526040812060010154906112448a61279b565b9050600061125282846154ae565b6101f95490915060009060649061126c9060ff1684615412565b6112769190615431565b905060006112838661279b565b9050816112908d836154c5565b11156112c25760405162461bcd60e51b81526020600482015260016024820152603560f81b6044820152606401610c65565b8c6101fd6000888152602001908152602001600020819055508d6001600160a01b03168d877f1fe9ade752d24e4f4dca10f5c807a7cc8630c7604280c8b124097d93b5bb02a18f60405161131891815260200190565b60405180910390a461132c8e878e8e612e24565b5050505050505050505050505050565b826080013561134a81612014565b6113665760405162461bcd60e51b8152600401610c65906153b0565b858585600080516020615bca83398151915283838360405161138a93929190615506565b60405180910390a160006114a1600080516020615b6a83398151915283356113b560208601866155de565b6040516020016113c6929190615624565b604051602081830303815290604052805190602001208560400160208101906113ef9190614cbc565b6113ff6080880160608901614cbc565b608088013560a08901356101c5600061141e60608d0160408e01614cbc565b6001600160a01b03908116825260208083019390935260409182016000205482519384019a909a529082019790975260608101959095529285166080850152931660a083015260c082019290925260e081019190915263ffffffff9091166101008201526101200160405160208183030381529060405280519060200120612f3c565b90506114f58185858080601f0160208091040260200160405190810160405280939291908181526020018383808284376000920191909152506114ee925050506060860160408701614cbc565b8535612f8a565b506101c5600061150b6060850160408601614cbc565b6001600160a01b0316815260208101919091526040016000908120805463ffffffff169161153883615634565b91906101000a81548163ffffffff021916908363ffffffff16021790555050876080013588604001602081019061156f9190614cbc565b6001600160a01b03167f782105afe5542acae5ab54dc3dab8b54887fd38a79f55330b3e1e70c3063d67b8a60a001358a8a6040516115af93929190615657565b60405180910390a36115d96115ca60608a0160408b01614cbc565b89608001358a60a00135612b69565b50505050505050505050565b60009081526097602052604090206001015490565b60008761160681612014565b6116225760405162461bcd60e51b8152600401610c65906153b0565b6001600160a01b038716330361164857611641338a8a8989898961304c565b915061167a565b6001600160a01b03871661165b57600080fd5b61166833888b8b87612cee565b611677878a8a8989898961304c565b91505b50979650505050505050565b6001600160a01b0385163314806116a257506116a28533610b1e565b6116be5760405162461bcd60e51b8152600401610c659061568c565b6116cb85858585856130ba565b5050505050565b6116db826115e5565b6116e481612b4c565b6116ee8383612aa1565b505050565b6001600160a01b03811633146117635760405162461bcd60e51b815260206004820152602f60248201527f416363657373436f6e74726f6c3a2063616e206f6e6c792072656e6f756e636560448201526e103937b632b9903337b91039b2b63360891b6064820152608401610c65565b610efe82826132a0565b6001600160a01b037f00000000000000000000000000000000000000000000000000000000000000001630036117b55760405162461bcd60e51b8152600401610c65906156da565b7f00000000000000000000000000000000000000000000000000000000000000006001600160a01b03166117e7613307565b6001600160a01b03161461180d5760405162461bcd60e51b8152600401610c6590615714565b61181681613323565b604080516000808252602082019092526118329183919061333b565b50565b600080516020615c8a83398151915261184d81612b4c565b6118326134a6565b600080516020615d3183398151915261186d81612b4c565b8661187781612014565b6118935760405162461bcd60e51b8152600401610c65906153b0565b60008881526101fc6020526040812060038101546004909101548a9111604051806040016040528060018152602001603360f81b815250906118e85760405162461bcd60e51b8152600401610c65919061494d565b508789101561191d5760405162461bcd60e51b81526020600482015260016024820152601b60f91b6044820152606401610c65565b60008a81526101fc60205260409020600201548610156119635760405162461bcd60e51b81526020600482015260016024820152603760f81b6044820152606401610c65565b60008a81526101fc602052604090206004015486116119a85760405162461bcd60e51b81526020600482015260016024820152600760fb1b6044820152606401610c65565b60008a81526101fe6020526040812054908190036119de5788156119de5760405162461bcd60e51b8152600401610c65906153cb565b8a7fe19de0f3da1193000100a217838f49f6bdda20dc974d33b61f92faaf446d181d8b8b8b8b8b604051611a1695949392919061574e565b60405180910390a26000611a2a8a8c6154ae565b1115611a5457611a548c8c611a3f8c8e6154ae565b60405180602001604052806000815250612e24565b60008b81526101fc602052604090206004018790558815611a8a57611a8a308c8b60405180602001604052806000815250612e24565b505050505050505050505050565b60608151835114611afd5760405162461bcd60e51b815260206004820152602960248201527f455243313135353a206163636f756e747320616e6420696473206c656e677468604482015268040dad2e6dac2e8c6d60bb1b6064820152608401610c65565b600083516001600160401b03811115611b1857611b186145e3565b604051908082528060200260200182016040528015611b41578160200160208202803683370190505b50905060005b8451811015611bb957611b8c858281518110611b6557611b656153e6565b6020026020010151858381518110611b7f57611b7f6153e6565b6020026020010151610bfe565b828281518110611b9e57611b9e6153e6565b6020908102919091010152611bb281615461565b9050611b47565b509392505050565b6001600160a01b037f0000000000000000000000000000000000000000000000000000000000000000163003611c095760405162461bcd60e51b8152600401610c65906156da565b7f00000000000000000000000000000000000000000000000000000000000000006001600160a01b0316611c3b613307565b6001600160a01b031614611c615760405162461bcd60e51b8152600401610c6590615714565b611c6a82613323565b610efe8282600161333b565b600080611c828361279b565b1192915050565b6000306001600160a01b037f00000000000000000000000000000000000000000000000000000000000000001614611d245760405162461bcd60e51b815260206004820152603860248201527f555550535570677261646561626c653a206d757374206e6f742062652063616c6044820152771b1959081d1a1c9bdd59da0819195b1959d85d1958d85b1b60421b6064820152608401610c65565b50600080516020615c0a8339815191525b90565b6000611d4381612b4c565b83611d4d81612014565b611d695760405162461bcd60e51b8152600401610c65906153b0565b60008581526101fc602052604081206003810154600490910154879111604051806040016040528060018152602001603360f81b81525090611dbe5760405162461bcd60e51b8152600401610c65919061494d565b50846004811115611dd157611dd1615779565b60008881526101fc60205260409081902060010154905189917f79ad675a154518428a5aa59f22c834871a66d54a46e3f4c8c5b4ee08fb576c2e91611e17918b91615453565b60405180910390a3505050600093845250506101fc602052604090912060010155565b6102006020526000908152604090208054600182015460028301546003840180546001600160a01b03909416949293919291611e759061547a565b80601f0160208091040260200160405190810160405280929190818152602001828054611ea19061547a565b8015611eee5780601f10611ec357610100808354040283529160200191611eee565b820191906000526020600020905b815481529060010190602001808311611ed157829003601f168201915b505050505090806004018054611f039061547a565b80601f0160208091040260200160405190810160405280929190818152602001828054611f2f9061547a565b8015611f7c5780601f10611f5157610100808354040283529160200191611f7c565b820191906000526020600020905b815481529060010190602001808311611f5f57829003601f168201915b505050505090806005018054611f919061547a565b80601f0160208091040260200160405190810160405280929190818152602001828054611fbd9061547a565b801561200a5780601f10611fdf5761010080835404028352916020019161200a565b820191906000526020600020905b815481529060010190602001808311611fed57829003601f168201915b5050505050905086565b60008181526101fc6020526040812080548291906120319061547a565b9050119050919050565b6101fc602052600090815260409020805481906120579061547a565b80601f01602080910402602001604051908101604052809291908181526020018280546120839061547a565b80156120d05780601f106120a5576101008083540402835291602001916120d0565b820191906000526020600020905b8154815290600101906020018083116120b357829003601f168201915b5050505050908060010154908060020154908060030154908060040154905085565b61020180546121009061547a565b80601f016020809104026020016040519081016040528092919081815260200182805461212c9061547a565b80156121795780601f1061214e57610100808354040283529160200191612179565b820191906000526020600020905b81548152906001019060200180831161215c57829003601f168201915b505050505081565b600080516020615d1183398151915261219981612b4c565b60005b82518110156116ee576122258382815181106121ba576121ba6153e6565b6020026020010151602001518483815181106121d8576121d86153e6565b6020026020010151604001518584815181106121f6576121f66153e6565b602002602001015160600151868581518110612214576122146153e6565b6020026020010151600001516122c1565b8061222f81615461565b91505061219c565b600080516020615c8a83398151915261224f81612b4c565b6118326134f2565b60009182526097602090815260408084206001600160a01b0393909316845291905290205460ff1690565b600061228d81612b4c565b506101f9805460ff191660ff92909216919091179055565b6101fa80546121009061547a565b61020280546121009061547a565b600080516020615d118339815191526122d981612b4c565b83831161230c5760405162461bcd60e51b81526020600482015260016024820152600d60fa1b6044820152606401610c65565b60006123206101f780546001019081905590565b6101fb546040516344d9d59b60e01b81529192506001600160a01b0316906344d9d59b9061235290869060040161494d565b600060405180830381600087803b15801561236c57600080fd5b505af1158015612380573d6000803e3d6000fd5b50505050806101ff84604051612396919061578f565b90815260408051602092819003830181209390935560a083018152858352818301899052828101889052606083018790526000608084018190528481526101fc8352208251805191926123ee92849290910190614504565b5060208201518160010155604082015181600201556060820151816003015560808201518160040155905050807fc5fb6d85b5baef0a615415607787aea341771027b7e4da34da58eaeb661154ea8787878760405161245094939291906157ab565b60405180910390a2505050505050565b610efe33838361352f565b6000856080013561247b81612014565b6124975760405162461bcd60e51b8152600401610c65906153b0565b888888600080516020615bca8339815191528383836040516124bb93929190615506565b60405180910390a160006124e6600080516020615b6a83398151915283356113b560208601866155de565b90506125338185858080601f0160208091040260200160405190810160405280939291908181526020018383808284376000920191909152506114ee925050506060860160408701614cbc565b506101c560006125496060850160408601614cbc565b6001600160a01b0316815260208101919091526040016000908120805463ffffffff169161257683615634565b91906101000a81548163ffffffff021916908363ffffffff160217905550508a60600160208101906125a89190614cbc565b6001600160a01b03166125c160608d0160408e01614cbc565b6001600160a01b0316036125fc576125f56125e260608d0160408e01614cbc565b8c608001358d60a001358d8d8d8d61304c565b955061266a565b600061260e60808d0160608e01614cbc565b6001600160a01b03160361262157600080fd5b61265461263460608d0160408e01614cbc565b61264460808e0160608f01614cbc565b8d608001358e60a001358b612cee565b6126676125e260808d0160608e01614cbc565b95505b5050505050979650505050505050565b600054610100900460ff161580801561269a5750600054600160ff909116105b806126bb57506126a9306129d9565b1580156126bb575060005460ff166001145b6126d75760405162461bcd60e51b8152600401610c6590615362565b6000805460ff1916600117905580156126fa576000805461ff0019166101001790555b6101f9805460ff191660ff88161790556101fb80546001600160a01b0319166001600160a01b038916179055835161273a906101fa906020870190614504565b506101f8859055825161275590610201906020860190614504565b50815161276a90610202906020850190614504565b508015610ec3576000805461ff001916905560405160018152600080516020615c6a83398151915290602001610eba565b600090815260fb602052604090205490565b6127b6826115e5565b6127bf81612b4c565b6116ee83836132a0565b600080516020615cf18339815191526127e181612b4c565b8160048111156127f3576127f3615779565b604080516001600160a01b038881168252602082018790528792908a16917fa8b90aeef4d9590cac2ff486fc2b5d9749ed41f9388a7eb159eef94cf5fb65ab910160405180910390a46128588686868660405180602001604052806000815250612cee565b505050505050565b838383600080516020615bca83398151915283838360405161288493929190615506565b60405180910390a160006128af600080516020615b6a83398151915283356113b560208601866155de565b90506128fc8185858080601f0160208091040260200160405190810160405280939291908181526020018383808284376000920191909152506114ee925050506060860160408701614cbc565b506101c560006129126060850160408601614cbc565b6001600160a01b0316815260208101919091526040016000908120805463ffffffff169161293f83615634565b91906101000a81548163ffffffff021916908363ffffffff160217905550506110bd8660400160208101906129749190614cbc565b6129846080890160608a01614cbc565b88608001358960a0013589612cee565b6001600160a01b0385163314806129b057506129b08533610b1e565b6129cc5760405162461bcd60e51b8152600401610c659061568c565b6116cb8585858585612cee565b6001600160a01b03163b151590565b600054610100900460ff16612a0f5760405162461bcd60e51b8152600401610c65906157d0565b6118328161360f565b600054610100900460ff16612a3f5760405162461bcd60e51b8152600401610c65906157d0565b565b600054610100900460ff16612a685760405162461bcd60e51b8152600401610c65906157d0565b612a3f61363f565b600054610100900460ff16612a975760405162461bcd60e51b8152600401610c65906157d0565b610efe8282613672565b612aab8282612257565b610efe5760008281526097602090815260408083206001600160a01b03851684529091529020805460ff19166001179055612ae33390565b6001600160a01b0316816001600160a01b0316837f2f8788117e7eff1d82e926ec794901d17c78024a50270940304540a733656f0d60405160405180910390a45050565b60006001600160e01b03198216630271189760e51b1480610ed75750610ed7826136a3565b61183281336136c8565b8051610efe906067906020840190614504565b6001600160a01b038316612bcb5760405162461bcd60e51b815260206004820152602360248201527f455243313135353a206275726e2066726f6d20746865207a65726f206164647260448201526265737360e81b6064820152608401610c65565b336000612bd784613721565b90506000612be484613721565b9050612c048387600085856040518060200160405280600081525061376c565b60008581526065602090815260408083206001600160a01b038a16845290915290205484811015612c835760405162461bcd60e51b8152602060048201526024808201527f455243313135353a206275726e20616d6f756e7420657863656564732062616c604482015263616e636560e01b6064820152608401610c65565b60008681526065602090815260408083206001600160a01b03808c1680865291909352818420898603905590519091871690600080516020615b4a83398151915290612cd2908b908b90615453565b60405180910390a4604080516020810190915260009052610ec3565b6001600160a01b038416612d145760405162461bcd60e51b8152600401610c659061581b565b336000612d2085613721565b90506000612d2d85613721565b9050612d3d83898985858961376c565b60008681526065602090815260408083206001600160a01b038c16845290915290205485811015612d805760405162461bcd60e51b8152600401610c6590615860565b60008781526065602090815260408083206001600160a01b038d8116855292528083208985039055908a16825281208054889290612dbf9084906154c5565b92505081905550876001600160a01b0316896001600160a01b0316856001600160a01b0316600080516020615b4a8339815191528a8a604051612e03929190615453565b60405180910390a4612e19848a8a8a8a8a613895565b505050505050505050565b6001600160a01b038416612e845760405162461bcd60e51b815260206004820152602160248201527f455243313135353a206d696e7420746f20746865207a65726f206164647265736044820152607360f81b6064820152608401610c65565b336000612e9085613721565b90506000612e9d85613721565b9050612eae8360008985858961376c565b60008681526065602090815260408083206001600160a01b038b16845290915281208054879290612ee09084906154c5565b92505081905550866001600160a01b031660006001600160a01b0316846001600160a01b0316600080516020615b4a8339815191528989604051612f25929190615453565b60405180910390a4610ec383600089898989613895565b6000610ed7612f496139f7565b8360405161190160f01b6020820152602281018390526042810182905260009060620160405160208183030381529060405280519060200120905092915050565b6000612f968585613a79565b9050826001600160a01b0316816001600160a01b0316148015612fc157506001600160a01b03811615155b6130015760405162461bcd60e51b8152602060048201526011602482015270496e76616c6964207369676e617475726560781b6044820152606401610c65565b8142106130445760405162461bcd60e51b815260206004820152601160248201527014da59db985d1d5c9948195e1c1a5c9959607a1b6044820152606401610c65565b949350505050565b6000613059888888612b69565b613067888888888888613a95565b905086886001600160a01b03167f1325d882b2ca749c878a4ab3a393f6e51b69026faa05426b6d1ec6776a3f2f3c8884866040516130a7939291906158aa565b60405180910390a3979650505050505050565b815183511461311c5760405162461bcd60e51b815260206004820152602860248201527f455243313135353a2069647320616e6420616d6f756e7473206c656e677468206044820152670dad2e6dac2e8c6d60c31b6064820152608401610c65565b6001600160a01b0384166131425760405162461bcd60e51b8152600401610c659061581b565b3361315181878787878761376c565b60005b845181101561323a576000858281518110613171576131716153e6565b60200260200101519050600085838151811061318f5761318f6153e6565b60209081029190910181015160008481526065835260408082206001600160a01b038e1683529093529190912054909150818110156131e05760405162461bcd60e51b8152600401610c6590615860565b60008381526065602090815260408083206001600160a01b038e8116855292528083208585039055908b1682528120805484929061321f9084906154c5565b925050819055505050508061323390615461565b9050613154565b50846001600160a01b0316866001600160a01b0316826001600160a01b03167f4a39dc06d4c0dbc64b70af90fd698a233a518aa5d07e595d983b8c0526c8f7fb878760405161328a9291906158c9565b60405180910390a4612858818787878787613b94565b6132aa8282612257565b15610efe5760008281526097602090815260408083206001600160a01b0385168085529252808320805460ff1916905551339285917ff6391f5c32d9c69d2a47ea670b442974b53935d1edc7fd64eb21e047a839171b9190a45050565b600080516020615c0a833981519152546001600160a01b031690565b600080516020615bea833981519152610efe81612b4c565b7f4910fdfa16fed3260ed0e7147f7cc6da11a60208b5b9406d12a635614ffd91435460ff161561336e576116ee83613c56565b826001600160a01b03166352d1902d6040518163ffffffff1660e01b8152600401602060405180830381865afa9250505080156133c8575060408051601f3d908101601f191682019092526133c5918101906158ee565b60015b61342b5760405162461bcd60e51b815260206004820152602e60248201527f45524331393637557067726164653a206e657720696d706c656d656e7461746960448201526d6f6e206973206e6f74205555505360901b6064820152608401610c65565b600080516020615c0a833981519152811461349a5760405162461bcd60e51b815260206004820152602960248201527f45524331393637557067726164653a20756e737570706f727465642070726f786044820152681a58589b195555525160ba1b6064820152608401610c65565b506116ee838383613cf0565b6134ae613d1b565b60c9805460ff191690557f5db9ee0a495bf2e6ff9c91a7834c1ba4fdd244a5e8aa4e537bd38aeae4b073aa335b6040516134e891906150d9565b60405180910390a1565b6134fa613d64565b60c9805460ff191660011790557f62e78cea01bee320cd4e420270b5ea74000d11b0c9f74754ebdbfc544b05a2586134db3390565b816001600160a01b0316836001600160a01b0316036135a25760405162461bcd60e51b815260206004820152602960248201527f455243313135353a2073657474696e6720617070726f76616c20737461747573604482015268103337b91039b2b63360b91b6064820152608401610c65565b6001600160a01b03838116600081815260666020908152604080832094871680845294825291829020805460ff191686151590811790915591519182527f17307eab39ab6107e8899845ad3d59bd9653f200f220920489ca2b5937696c31910160405180910390a3505050565b600054610100900460ff166136365760405162461bcd60e51b8152600401610c65906157d0565b61183281612b56565b600054610100900460ff166136665760405162461bcd60e51b8152600401610c65906157d0565b60c9805460ff19169055565b600054610100900460ff166136995760405162461bcd60e51b8152600401610c65906157d0565b610efe8282613daa565b60006001600160e01b03198216637965db0b60e01b1480610ed75750610ed782613ded565b6136d28282612257565b610efe576136df81613e3d565b6136ea836020613e4f565b6040516020016136fb929190615907565b60408051601f198184030181529082905262461bcd60e51b8252610c659160040161494d565b6040805160018082528183019092526060916000919060208083019080368337019050509050828160008151811061375b5761375b6153e6565b602090810291909101015292915050565b613774613d64565b8461378d600080516020615c2a83398151915282612257565b156137aa5760405162461bcd60e51b8152600401610c6590615976565b846137c3600080516020615c2a83398151915282612257565b156137e05760405162461bcd60e51b8152600401610c6590615976565b60005b8551811015613886576102006000878381518110613803576138036153e6565b60200260200101518152602001908152602001600020600101546000148061384357506001600160a01b038816158061384357506001600160a01b038716155b6138745760405162461bcd60e51b8152602060048201526002602482015261313160f01b6044820152606401610c65565b8061387e81615461565b9150506137e3565b506110bd888888888888613ff1565b6138a7846001600160a01b03166129d9565b156128585760405163f23a6e6160e01b81526001600160a01b0385169063f23a6e61906138e09089908990889088908890600401615991565b6020604051808303816000875af192505050801561391b575060408051601f3d908101601f19168201909252613918918101906159cb565b60015b6139c7576139276159e8565b806308c379a003613960575061393b615a03565b806139465750613962565b8060405162461bcd60e51b8152600401610c65919061494d565b505b60405162461bcd60e51b815260206004820152603460248201527f455243313135353a207472616e7366657220746f206e6f6e2d455243313135356044820152732932b1b2b4bb32b91034b6b83632b6b2b73a32b960611b6064820152608401610c65565b6001600160e01b0319811663f23a6e6160e01b14610ec35760405162461bcd60e51b8152600401610c6590615a8c565b6000613a747f8b73c3c69bb8fe3d512ecc4cf759cc79239f7b179b0ffacaa9a75d522b39400f613a276101915490565b610192546040805160208101859052908101839052606081018290524660808201523060a082015260009060c0016040516020818303038152906040528051906020012090509392505050565b905090565b6000806000613a88858561416a565b91509150611bb9816141af565b600080613aaa6101f780546001019081905590565b6040805160c0810182526001600160a01b038b8116825260208083018b81528385018d8152606085018c8152608086018c905260a086018b90526000888152610200855296909620855181546001600160a01b0319169516949094178455905160018401555160028301559251805194955091939092613b31926003850192910190614504565b5060808201518051613b4d916004840191602090910190614504565b5060a08201518051613b69916005840191602090910190614504565b50905050613b898882600160405180602001604052806000815250612e24565b979650505050505050565b613ba6846001600160a01b03166129d9565b156128585760405163bc197c8160e01b81526001600160a01b0385169063bc197c8190613bdf9089908990889088908890600401615ad4565b6020604051808303816000875af1925050508015613c1a575060408051601f3d908101601f19168201909252613c17918101906159cb565b60015b613c26576139276159e8565b6001600160e01b0319811663bc197c8160e01b14610ec35760405162461bcd60e51b8152600401610c6590615a8c565b613c5f816129d9565b613cc15760405162461bcd60e51b815260206004820152602d60248201527f455243313936373a206e657720696d706c656d656e746174696f6e206973206e60448201526c1bdd08184818dbdb9d1c9858dd609a1b6064820152608401610c65565b600080516020615c0a83398151915280546001600160a01b0319166001600160a01b0392909216919091179055565b613cf9836142f4565b600082511180613d065750805b156116ee57613d158383614334565b50505050565b60c95460ff16612a3f5760405162461bcd60e51b815260206004820152601460248201527314185d5cd8589b194e881b9bdd081c185d5cd95960621b6044820152606401610c65565b60c95460ff1615612a3f5760405162461bcd60e51b815260206004820152601060248201526f14185d5cd8589b194e881c185d5cd95960821b6044820152606401610c65565b600054610100900460ff16613dd15760405162461bcd60e51b8152600401610c65906157d0565b8151602092830120815191909201206101919190915561019255565b60006001600160e01b03198216636cdb3d1360e11b1480613e1e57506001600160e01b031982166303a24d0760e21b145b80610ed757506301ffc9a760e01b6001600160e01b0319831614610ed7565b6060610ed76001600160a01b03831660145b60606000613e5e836002615412565b613e699060026154c5565b6001600160401b03811115613e8057613e806145e3565b6040519080825280601f01601f191660200182016040528015613eaa576020820181803683370190505b509050600360fc1b81600081518110613ec557613ec56153e6565b60200101906001600160f81b031916908160001a905350600f60fb1b81600181518110613ef457613ef46153e6565b60200101906001600160f81b031916908160001a9053506000613f18846002615412565b613f239060016154c5565b90505b6001811115613f9b576f181899199a1a9b1b9c1cb0b131b232b360811b85600f1660108110613f5757613f576153e6565b1a60f81b828281518110613f6d57613f6d6153e6565b60200101906001600160f81b031916908160001a90535060049490941c93613f9481615b32565b9050613f26565b508315613fea5760405162461bcd60e51b815260206004820181905260248201527f537472696e67733a20686578206c656e67746820696e73756666696369656e746044820152606401610c65565b9392505050565b6001600160a01b0385166140785760005b83518110156140765782818151811061401d5761401d6153e6565b602002602001015160fb600086848151811061403b5761403b6153e6565b60200260200101518152602001908152602001600020600082825461406091906154c5565b9091555061406f905081615461565b9050614002565b505b6001600160a01b0384166128585760005b8351811015610ec35760008482815181106140a6576140a66153e6565b6020026020010151905060008483815181106140c4576140c46153e6565b60200260200101519050600060fb6000848152602001908152602001600020549050818110156141475760405162461bcd60e51b815260206004820152602860248201527f455243313135353a206275726e20616d6f756e74206578636565647320746f74604482015267616c537570706c7960c01b6064820152608401610c65565b600092835260fb60205260409092209103905561416381615461565b9050614089565b60008082516041036141a05760208301516040840151606085015160001a61419487828585614426565b945094505050506141a8565b506000905060025b9250929050565b60008160048111156141c3576141c3615779565b036141cb5750565b60018160048111156141df576141df615779565b036142275760405162461bcd60e51b815260206004820152601860248201527745434453413a20696e76616c6964207369676e617475726560401b6044820152606401610c65565b600281600481111561423b5761423b615779565b036142885760405162461bcd60e51b815260206004820152601f60248201527f45434453413a20696e76616c6964207369676e6174757265206c656e677468006044820152606401610c65565b600381600481111561429c5761429c615779565b036118325760405162461bcd60e51b815260206004820152602260248201527f45434453413a20696e76616c6964207369676e6174757265202773272076616c604482015261756560f01b6064820152608401610c65565b6142fd81613c56565b6040516001600160a01b038216907fbc7cd75a20ee27fd9adebab32041f755214dbc6bffa90cc0225b39da2e5c2d3b90600090a250565b606061433f836129d9565b61439a5760405162461bcd60e51b815260206004820152602660248201527f416464726573733a2064656c65676174652063616c6c20746f206e6f6e2d636f6044820152651b9d1c9858dd60d21b6064820152608401610c65565b600080846001600160a01b0316846040516143b5919061578f565b600060405180830381855af49150503d80600081146143f0576040519150601f19603f3d011682016040523d82523d6000602084013e6143f5565b606091505b509150915061441d8282604051806060016040528060278152602001615caa602791396144e0565b95945050505050565b6000806fa2a8918ca85bafe22016d0b997e4df60600160ff1b0383111561445357506000905060036144d7565b6040805160008082526020820180845289905260ff881692820192909252606081018690526080810185905260019060a0016020604051602081039080840390855afa1580156144a7573d6000803e3d6000fd5b5050604051601f1901519150506001600160a01b0381166144d0576000600192509250506144d7565b9150600090505b94509492505050565b606083156144ef575081613fea565b613fea83838151156139465781518083602001fd5b8280546145109061547a565b90600052602060002090601f0160209004810192826145325760008555614578565b82601f1061454b57805160ff1916838001178555614578565b82800160010185558215614578579182015b8281111561457857825182559160200191906001019061455d565b50614584929150614588565b5090565b5b808211156145845760008155600101614589565b80356001600160a01b03811681146145b457600080fd5b919050565b600080604083850312156145cc57600080fd5b6145d58361459d565b946020939093013593505050565b634e487b7160e01b600052604160045260246000fd5b60a081016001600160401b0381118282101715614618576146186145e3565b60405250565b601f8201601f191681016001600160401b0381118282101715614643576146436145e3565b6040525050565b600082601f83011261465b57600080fd5b81356001600160401b03811115614674576146746145e3565b60405161468b601f8301601f19166020018261461e565b8181528460208386010111156146a057600080fd5b816020850160208301376000918101602001919091529392505050565b60008060008060008060c087890312156146d657600080fd5b6146df8761459d565b95506146ed6020880161459d565b94506040870135935060608701356001600160401b038082111561471057600080fd5b61471c8a838b0161464a565b9450608089013591508082111561473257600080fd5b61473e8a838b0161464a565b935060a089013591508082111561475457600080fd5b5061476189828a0161464a565b9150509295509295509295565b6001600160e01b03198116811461183257600080fd5b60006020828403121561479657600080fd5b8135613fea8161476e565b6000602082840312156147b357600080fd5b81356001600160401b038111156147c957600080fd5b6130448482850161464a565b60006001600160401b038211156147ee576147ee6145e3565b5060051b60200190565b600082601f83011261480957600080fd5b81356020614816826147d5565b604051614823828261461e565b83815260059390931b850182019282810191508684111561484357600080fd5b8286015b84811015614865576148588161459d565b8352918301918301614847565b509695505050505050565b60008060006060848603121561488557600080fd5b83356001600160401b038082111561489c57600080fd5b6148a8878388016147f8565b94506020860135935060408601359150808211156148c557600080fd5b506148d28682870161464a565b9150509250925092565b6000602082840312156148ee57600080fd5b5035919050565b60005b838110156149105781810151838201526020016148f8565b83811115613d155750506000910152565b600081518084526149398160208601602086016148f5565b601f01601f19169290920160200192915050565b602081526000613fea6020830184614921565b6000806000806080858703121561497657600080fd5b61497f8561459d565b9350602085013592506040850135915060608501356001600160401b038111156149a857600080fd5b6149b48782880161464a565b91505092959194509250565b60008083601f8401126149d257600080fd5b5081356001600160401b038111156149e957600080fd5b6020830191508360208285010111156141a857600080fd5b600060e08284031215614a1357600080fd5b50919050565b600080600080600060808688031215614a3157600080fd5b85356001600160401b0380821115614a4857600080fd5b614a5489838a016149c0565b90975095506020880135915080821115614a6d57600080fd5b614a7989838a01614a01565b94506040880135915080821115614a8f57600080fd5b614a9b89838a0161464a565b93506060880135915080821115614ab157600080fd5b50614abe8882890161464a565b9150509295509295909350565b600080600080600080600060e0888a031215614ae657600080fd5b8735965060208801359550614afd6040890161459d565b945060608801356001600160401b0380821115614b1957600080fd5b614b258b838c0161464a565b955060808a0135915080821115614b3b57600080fd5b614b478b838c0161464a565b945060a08a0135915080821115614b5d57600080fd5b614b698b838c0161464a565b935060c08a0135915080821115614b7f57600080fd5b50614b8c8a828b0161464a565b91505092959891949750929550565b600082601f830112614bac57600080fd5b81356020614bb9826147d5565b604051614bc6828261461e565b83815260059390931b8501820192828101915086841115614be657600080fd5b8286015b848110156148655780358352918301918301614bea565b600080600080600060a08688031215614c1957600080fd5b614c228661459d565b9450614c306020870161459d565b935060408601356001600160401b0380821115614c4c57600080fd5b614c5889838a01614b9b565b94506060880135915080821115614c6e57600080fd5b614c7a89838a01614b9b565b93506080880135915080821115614ab157600080fd5b60008060408385031215614ca357600080fd5b82359150614cb36020840161459d565b90509250929050565b600060208284031215614cce57600080fd5b613fea8261459d565b600080600080600080600060e0888a031215614cf257600080fd5b614cfb8861459d565b96506020880135955060408801359450606088013593506080880135925060a0880135915060c08801356001600160401b03811115614d3957600080fd5b614b8c8a828b0161464a565b60008060408385031215614d5857600080fd5b82356001600160401b0380821115614d6f57600080fd5b614d7b868387016147f8565b93506020850135915080821115614d9157600080fd5b50614d9e85828601614b9b565b9150509250929050565b600081518084526020808501945080840160005b83811015614dd857815187529582019590820190600101614dbc565b509495945050505050565b602081526000613fea6020830184614da8565b60008060408385031215614e0957600080fd5b614e128361459d565b915060208301356001600160401b03811115614e2d57600080fd5b614d9e8582860161464a565b8035600581106145b457600080fd5b600080600060608486031215614e5d57600080fd5b8335925060208401359150614e7460408501614e39565b90509250925092565b6001600160a01b03169052565b60018060a01b038716815285602082015284604082015260c060608201526000614eb760c0830186614921565b8281036080840152614ec98186614921565b905082810360a08401526116778185614921565b60a081526000614ef060a0830188614921565b90508560208301528460408301528360608301528260808301529695505050505050565b60006020808385031215614f2757600080fd5b82356001600160401b0380821115614f3e57600080fd5b818501915085601f830112614f5257600080fd5b8135614f5d816147d5565b60408051614f6b838261461e565b83815260059390931b8501860192868101925089841115614f8b57600080fd5b8686015b8481101561502257803586811115614fa75760008081fd5b870160a0818d03601f1901811315614fbf5760008081fd5b8451614fca816145f9565b8a83013589811115614fdc5760008081fd5b614fea8f8d8387010161464a565b825250828601358b82015260608084013587830152608080850135918301919091529190920135908201528452928701928701614f8f565b509998505050505050505050565b803560ff811681146145b457600080fd5b60006020828403121561505357600080fd5b613fea82615030565b6000806000806080858703121561507257600080fd5b84359350602085013592506040850135915060608501356001600160401b038111156149a857600080fd5b600080604083850312156150b057600080fd5b6150b98361459d565b9150602083013580151581146150ce57600080fd5b809150509250929050565b6001600160a01b0391909116815260200190565b600080600080600080600060c0888a03121561510857600080fd5b87356001600160401b038082111561511f57600080fd5b61512b8b838c016149c0565b909950975060208a013591508082111561514457600080fd5b6151508b838c01614a01565b965060408a013591508082111561516657600080fd5b6151728b838c0161464a565b955060608a013591508082111561518857600080fd5b6151948b838c0161464a565b945060808a01359150808211156151aa57600080fd5b6151b68b838c0161464a565b935060a08a0135915080821115614b7f57600080fd5b60008060008060008060c087890312156151e557600080fd5b6151ee8761459d565b95506146ed60208801615030565b600080600080600060a0868803121561521457600080fd5b61521d8661459d565b945061522b6020870161459d565b9350604086013592506060860135915061524760808701614e39565b90509295509295909350565b6000806000806060858703121561526957600080fd5b84356001600160401b038082111561528057600080fd5b61528c888389016149c0565b909650945060208701359150808211156152a557600080fd5b6152b188838901614a01565b935060408701359150808211156152c757600080fd5b506149b48782880161464a565b600080604083850312156152e757600080fd5b6152f08361459d565b9150614cb36020840161459d565b600080600080600060a0868803121561531657600080fd5b61531f8661459d565b945061532d6020870161459d565b9350604086013592506060860135915060808601356001600160401b0381111561535657600080fd5b614abe8882890161464a565b6020808252602e908201527f496e697469616c697a61626c653a20636f6e747261637420697320616c72656160408201526d191e481a5b9a5d1a585b1a5e995960921b606082015260800190565b6020808252600190820152603160f81b604082015260600190565b6020808252600190820152603960f81b604082015260600190565b634e487b7160e01b600052603260045260246000fd5b634e487b7160e01b600052601160045260246000fd5b600081600019048311821515161561542c5761542c6153fc565b500290565b60008261544e57634e487b7160e01b600052601260045260246000fd5b500490565b918252602082015260400190565b600060018201615473576154736153fc565b5060010190565b600181811c9082168061548e57607f821691505b602082108103614a1357634e487b7160e01b600052602260045260246000fd5b6000828210156154c0576154c06153fc565b500390565b600082198211156154d8576154d86153fc565b500190565b81835281816020850137506000828201602090810191909152601f909101601f19169091010190565b60408152600061551a6040830185876154dd565b8281036020840152833581526020840135601e1985360301811261553d57600080fd5b840180356001600160401b0381111561555557600080fd5b80360386131561556457600080fd5b60e0602084015261557c60e0840182602085016154dd565b91505061558b6040860161459d565b6155986040840182614e7d565b506155a56060860161459d565b6155b26060840182614e7d565b506080850135608083015260a085013560a083015260c085013560c08301528092505050949350505050565b6000808335601e198436030181126155f557600080fd5b8301803591506001600160401b0382111561560f57600080fd5b6020019150368190038213156141a857600080fd5b8183823760009101908152919050565b600063ffffffff80831681810361564d5761564d6153fc565b6001019392505050565b8381526060602082015260006156706060830185614921565b82810360408401526156828185614921565b9695505050505050565b6020808252602e908201527f455243313135353a2063616c6c6572206973206e6f7420746f6b656e206f776e60408201526d195c881bdc88185c1c1c9bdd995960921b606082015260800190565b6020808252602c90820152600080516020615baa83398151915260408201526b19195b1959d85d1958d85b1b60a21b606082015260800190565b6020808252602c90820152600080516020615baa83398151915260408201526b6163746976652070726f787960a01b606082015260800190565b85815284602082015283604082015282606082015260a060808201526000613b8960a0830184614921565b634e487b7160e01b600052602160045260246000fd5b600082516157a18184602087016148f5565b9190910192915050565b8481528360208201528260408201526080606082015260006156826080830184614921565b6020808252602b908201527f496e697469616c697a61626c653a20636f6e7472616374206973206e6f74206960408201526a6e697469616c697a696e6760a81b606082015260800190565b60208082526025908201527f455243313135353a207472616e7366657220746f20746865207a65726f206164604082015264647265737360d81b606082015260800190565b6020808252602a908201527f455243313135353a20696e73756666696369656e742062616c616e636520666f60408201526939103a3930b739b332b960b11b606082015260800190565b83815282602082015260606040820152600061441d6060830184614921565b6040815260006158dc6040830185614da8565b828103602084015261441d8185614da8565b60006020828403121561590057600080fd5b5051919050565b76020b1b1b2b9b9a1b7b73a3937b61d1030b1b1b7bab73a1604d1b8152600083516159398160178501602088016148f5565b7001034b99036b4b9b9b4b733903937b6329607d1b601791840191820152835161596a8160288401602088016148f5565b01602801949350505050565b6020808252600190820152600360fc1b604082015260600190565b6001600160a01b03868116825285166020820152604081018490526060810183905260a060808201819052600090613b8990830184614921565b6000602082840312156159dd57600080fd5b8151613fea8161476e565b600060033d1115611d355760046000803e5060005160e01c90565b600060443d1015615a115790565b6040516003193d81016004833e81513d6001600160401b038083116024840183101715615a4057505050505090565b8285019150815181811115615a585750505050505090565b843d8701016020828501011115615a725750505050505090565b615a816020828601018761461e565b509095945050505050565b60208082526028908201527f455243313135353a204552433131353552656365697665722072656a656374656040820152676420746f6b656e7360c01b606082015260800190565b6001600160a01b0386811682528516602082015260a060408201819052600090615b0090830186614da8565b8281036060840152615b128186614da8565b90508281036080840152615b268185614921565b98975050505050505050565b600081615b4157615b416153fc565b50600019019056fec3d58168c5ae7397731d063d5bbf3d657854427343f4c083240f7aacaa2d0f6279da588818fa1bb747c46ac45fd0af16861a77c5222cf5ac4538360ca4f77a2cd5bbb2f0fbfc1d5938ca13cabd3156d362f7862fa87504c8d589f5e8f2cbc45346756e6374696f6e206d7573742062652063616c6c6564207468726f75676820bdde33eca765abe07e416fa5225f9a5dbc393366c8bbf45df689e69ee318a934189ab7a9244df0848122154315af71fe140f3db0fe014031783b0946b8c9d2e3360894a13ba1a3210667c828492db98dca3e2076cc3735a920a3ca505d382bbcf48dee1a72497b9e734e498e1b3086c0d2dbcca13f16f15848f974469f906bbf7804d923f43a17d325d77e781528e0793b2edd9890ab45fc64efd7b4b427744c7f26b83ff96e1f2b6a682f133852f6798a09c465da95921460cefb384740249865d7a28e3265b37a6474929f336521b332c1681b933f6cb9f3376673440d862a416464726573733a206c6f772d6c6576656c2064656c65676174652063616c6c206661696c656498db8a220cd0f09badce9f22d0ba7e93edb3d404448cc3560d391ab096ad16e94bbc247fc4736523c8bdd1853fee2acfa817d663f8f4422b13e78ebf99e204a2ddf79b8d2110dbe281cf3bb7762d508cea586c974794c8fc949d41b0db1145130ce23c3e399818cfee81a7ab0880f714e53d7672b08df0fa62f2843416e1ea09a2646970667358221220c493d7f143aff205a5f3b307580aa66a7181574231a99c1afee24c49c5cb815c64736f6c634300080d0033",
  "immutableReferences": {
    "997": [
      {
        "length": 32,
        "start": 6007
      },
      {
        "length": 32,
        "start": 6071
      },
      {
        "length": 32,
        "start": 7115
      },
      {
        "length": 32,
        "start": 7179
      },
      {
        "length": 32,
        "start": 7318
      }
    ]
  },
  "source": "// SPDX-License-Identifier: MIT\npragma solidity ^0.8.13;\n\nimport '@openzeppelin/contracts-upgradeable/token/ERC1155/ERC1155Upgradeable.sol';\nimport '@openzeppelin/contracts-upgradeable/access/AccessControlUpgradeable.sol';\nimport '@openzeppelin/contracts-upgradeable/security/PausableUpgradeable.sol';\nimport '@openzeppelin/contracts-upgradeable/token/ERC1155/extensions/ERC1155SupplyUpgradeable.sol';\nimport '@openzeppelin/contracts-upgradeable/proxy/utils/Initializable.sol';\nimport '@openzeppelin/contracts-upgradeable/proxy/utils/UUPSUpgradeable.sol';\nimport \"@openzeppelin/contracts-upgradeable/token/ERC1155/utils/ERC1155HolderUpgradeable.sol\";\n\n\nimport './ProjectStorage.sol';\nimport './interfaces/ICarbonContractRegistry.sol';\nimport './utils/CustomSignaturesUpgradeable.sol';\nimport './interfaces/IProject.sol';\n\ncontract Project is\n\tIProject,\n\tInitializable,\n\tERC1155Upgradeable,\n\tAccessControlUpgradeable,\n\tPausableUpgradeable,\n\tERC1155SupplyUpgradeable,\n\tUUPSUpgradeable,\n\tCustomSignaturesUpgradeable,\n\tProjectStorage,\n\tERC1155HolderUpgradeable\n{\n\tbytes32 public constant URI_SETTER_ROLE = keccak256('URI_SETTER_ROLE');\n\tbytes32 public constant PAUSER_ROLE = keccak256('PAUSER_ROLE');\n\tbytes32 public constant ANTE_MINTER_ROLE = keccak256('ANTE_MINTER_ROLE');\n\tbytes32 public constant POST_MINTER_ROLE = keccak256('POST_MINTER_ROLE');\n\tbytes32 public constant MINTER_ROLE = keccak256('MINTER_ROLE');\n\tbytes32 public constant UPGRADER_ROLE = keccak256('UPGRADER_ROLE');\n\tbytes32 public constant BLACKLISTED = keccak256('BLACKLISTED');\n\tbytes32 public constant BLACKLISTER_ROLE = keccak256('BLACKLISTER_ROLE');\n\tbytes32 public constant BURNER_ROLE = keccak256('BURNER_ROLE');\n\tbytes32 public constant VERIFIER_ROLE = keccak256('VERIFIER_ROLE');\n\tbytes32 public constant CLAWBACK_ROLE = keccak256('CLAWBACK_ROLE');\n\n\n/// @custom:oz-upgrades-unsafe-allow constructor\n\tconstructor() {\n\t\t_disableInitializers();\n\t}\n\n\tfunction initialize(\n\t\taddress _contractRegistry,\n\t\taddress _owner,\n\t\tuint256 _projectId,\n\t\tstring memory _projectName,\n\t\tstring memory _projectMethodology,\n\t\tstring memory _projectUri\n\t) public initializer {\n\t\t__ERC1155_init('');\n\t\t__AccessControl_init();\n\t\t__Pausable_init();\n\t\t__ERC1155Supply_init();\n\t\t__UUPSUpgradeable_init();\n\t\t__CustomSignatures_init(\"Carbon Registry\", '0.0.1');\n\n\t\t// Our Inits\n\t\t__ProjectStorage_init(_contractRegistry, 50, _projectId, _projectName, _projectUri, _projectMethodology);\n\n\t\t_grantRole(DEFAULT_ADMIN_ROLE, _owner);\n\t\t_grantRole(URI_SETTER_ROLE, _owner);\n\t\t_grantRole(PAUSER_ROLE, _owner);\n\t\t_grantRole(ANTE_MINTER_ROLE, _owner);\n\t\t_grantRole(POST_MINTER_ROLE, _owner);\n\t\t_grantRole(UPGRADER_ROLE, _owner);\n\t\t_grantRole(BLACKLISTER_ROLE, _owner);\n\t\t_grantRole(VERIFIER_ROLE, _owner);\n\t\t_grantRole(CLAWBACK_ROLE, _owner);\n\n\t\t_grantRole(POST_MINTER_ROLE, msg.sender); // Just so projectFactory can mint exPost on creation of the project\n\t}\n\n\tmodifier notBlacklisted(address account) {\n\t\trequire(\n\t\t\t!hasRole(BLACKLISTED, account),\n\t\t\"0\"\n\t\t);\n\t\t_;\n\t}\n\n\tmodifier onlyExPostTokens(uint256[] memory tokenIds) {\n\t\tfor (uint256 i = 0; i < tokenIds.length; i++) {\n\t\t\trequire(isExPostToken(tokenIds[i]), \"1\");\n\t\t}\n\t\t_;\n\t}\n\n\tmodifier onlyExPostToken(uint256 tokenId) {\n\t\trequire(isExPostToken(tokenId), \"1\");\n\t\t_;\n\t}\n\n\tmodifier onlyVerifiedStatus(bool isVerified, uint256 tokenId) {\n\t\trequire(\n\t\t\t(exPostVintageMapping[tokenId].lastVerificationTimestamp >=\n\t\t\t\texPostVintageMapping[tokenId].verificationPeriodEnd) ==\n\t\t\t\tisVerified,\n\t\t\tisVerified\n\t\t\t\t? \"2\"\n\t\t\t\t: \"3\"\n\t\t);\n\t\t_;\n\t}\n\n\tfunction isExPostToken(uint256 tokenId) public view returns (bool) {\n\t\treturn bytes(exPostVintageMapping[tokenId].serialization).length > 0;\n\t}\n\n\tfunction testUpgrade() external pure returns(string memory) {\n\t\treturn \"0.0.4\";\n\t}\n\n\t// ----------------------------------\n\t//         Minting Functions\n\t// ----------------------------------\n\n\tfunction createExPostVintage(\n\t\tuint256 estAmount,\n\t\tuint256 verificationPeriodStart,\n\t\tuint256 verificationPeriodEnd,\n\t\tstring memory serialization\n\t) public onlyRole(POST_MINTER_ROLE) {\n\t\t\n\t\trequire(\n\t\t\tverificationPeriodEnd > verificationPeriodStart,\n\t\t\t\"4\"\n\t\t);\n\t\tuint256 newTokenId = nextTokenId();\n\t\tICarbonContractRegistry(contractRegistry).registerSerialization(\n\t\t\tserialization\n\t\t);\n\t\tserializationToExPostTokenIdMapping[serialization] = newTokenId;\n\t\texPostVintageMapping[newTokenId] = VintageData(\n\t\t\tserialization,\n\t\t\testAmount,\n\t\t\tverificationPeriodStart,\n\t\t\tverificationPeriodEnd,\n\t\t\t0\n\t\t);\n\t\temit ExPostCreated(\n\t\t\tnewTokenId,\n\t\t\testAmount,\n\t\t\tverificationPeriodStart,\n\t\t\tverificationPeriodEnd,\n\t\t\tserialization\n\t\t);\n\t}\n\n\tfunction createExPostVintageBatch(\n\t\tVintageData[] memory vintages\n\t) public onlyRole(POST_MINTER_ROLE) {\n\t\tfor (uint256 i = 0; i < vintages.length; i++) {\n\t\t\tcreateExPostVintage(\n\t\t\t\tvintages[i].estMitigations,\n\t\t\t\tvintages[i].verificationPeriodStart,\n\t\t\t\tvintages[i].verificationPeriodEnd,\n\t\t\t\tvintages[i].serialization\n\t\t\t);\n\t\t}\n\t}\n\n\tfunction mintExAnte(\n\t\taddress account,\n\t\tuint256 exPostTokenId,\n\t\tuint256 amount,\n\t\tbytes memory data\n\t)\n\t\tpublic\n\t\tonlyRole(ANTE_MINTER_ROLE)\n\t\tonlyExPostToken(exPostTokenId)\n\t\tonlyVerifiedStatus(false, exPostTokenId)\n\t{\n\n\t\tuint256 exAnteTokenId = exPostToExAnteTokenId[exPostTokenId];\n\t\tif (exAnteTokenId == 0) {\n\t\t\texAnteTokenId = nextTokenId();\n\t\t\texPostToExAnteTokenId[exPostTokenId] = exAnteTokenId;\n\t\t}\n\n\t\tuint256 exPostEstimatedSupply = exPostVintageMapping[exPostTokenId]\n\t\t\t.estMitigations;\n\t\tuint256 exPostVerifiedSupply = totalSupply(exPostTokenId);\n\t\tuint256 anteDrawablePostSupply = exPostEstimatedSupply -\n\t\t\texPostVerifiedSupply;\n\t\tuint256 maxExAnteSupply = (anteDrawablePostSupply *\n\t\t\t(maxAntePercentage)) / (100);\n\t\tuint256 exAnteSupply = totalSupply(exAnteTokenId);\n\n\t\trequire(\n\t\t\texAnteSupply + amount <= maxExAnteSupply,\n\t\t\t\"5\"\n\t\t);\n\n\t\texAnteToExPostTokenId[exAnteTokenId] = exPostTokenId;\n\n\t\temit ExAnteMinted(exAnteTokenId, exPostTokenId, account,  amount);\n\n\t\t_mint(account, exAnteTokenId, amount, data);\n\n\t}\n\n\tfunction changeVintageMitigationEstimate(\n\t\tuint256 tokenId,\n\t\tuint256 newEstAmount,\n\t\tAdminActionReason reason\n\t)\n\t\tpublic\n\t\tonlyRole(DEFAULT_ADMIN_ROLE)\n\t\tonlyExPostToken(tokenId)\n\t\tonlyVerifiedStatus(false, tokenId)\n\t{\n\t\temit VintageMitigationEstimateChanged(\n\t\t\ttokenId,\n\t\t\tnewEstAmount,\n\t\t\texPostVintageMapping[tokenId].estMitigations,\n\t\t\treason\n\t\t);\n\t\texPostVintageMapping[tokenId].estMitigations = newEstAmount;\n\t}\n\n\tfunction verifyAndMintExPost(\n\t\taddress verificationVault,\n\t\tuint256 tokenId,\n\t\tuint256 amountVerified,\n\t\tuint256 amountToAnteHolders,\n\t\tuint256 verificationPeriodStart,\n\t\tuint256 verificationPeriodEnd,\n\t\tstring memory monitoringReport\n\t)\n\t\tpublic\n\t\tonlyRole(VERIFIER_ROLE)\n\t\tonlyExPostToken(tokenId)\n\t\tonlyVerifiedStatus(false, tokenId)\n\t{\n\t\t\t\n\t\trequire(\n\t\t\tamountVerified >= amountToAnteHolders,\n\t\t\t\"6\"\n\t\t);\n\t\trequire(\n\t\t\tverificationPeriodEnd >=\n\t\t\t\texPostVintageMapping[tokenId].verificationPeriodStart,\n\t\t\t\"7\"\n\t\t);\n\t\trequire(\n\t\t\tverificationPeriodEnd >\n\t\t\t\texPostVintageMapping[tokenId].lastVerificationTimestamp,\n\t\t\t\"8\"\n\t\t);\n\n\t\tuint256 exAnteTokenId = exPostToExAnteTokenId[tokenId];\n\t\tif (exAnteTokenId == 0) {\n\t\t\t// If exAnteTokenId is zero then there are no ante holders\n\t\t\trequire(amountToAnteHolders == 0, \"9\");\n\t\t}\n\n\t\t\temit ExPostVerifiedAndMinted(\n\t\t\ttokenId,\n\t\t\tamountVerified,\n\t\t\tamountToAnteHolders,\n\t\t\tverificationPeriodStart,\n\t\t\tverificationPeriodEnd,\n\t\t\tmonitoringReport\n\t\t);\n\n\t\tif (amountVerified - amountToAnteHolders > 0) {\n\t\t\t// Mint To Verification Vault\n\t\t\t_mint(\n\t\t\t\tverificationVault,\n\t\t\t\ttokenId,\n\t\t\t\tamountVerified - amountToAnteHolders,\n\t\t\t\t''\n\t\t\t);\n\t\t}\n\t\texPostVintageMapping[tokenId]\n\t\t\t.lastVerificationTimestamp = verificationPeriodEnd;\n\n\t\tif (amountToAnteHolders > 0) {\n\t\t\t// Mint to this address, where ante holders will claim\n\t\t\t_mint(address(this), tokenId, amountToAnteHolders, '');\n\t\t}\n\n\n\t}\n\n\tfunction adminClawback(\n\t\taddress from,\n\t\taddress to,\n\t\tuint256 tokenId,\n\t\tuint256 amount,\n\t\tAdminActionReason reason\n\t) public onlyRole(CLAWBACK_ROLE) {\n\t\temit AdminClawback(from, to, tokenId, amount, reason);\n\t\t_safeTransferFrom(from, to, tokenId, amount, '');\n\t}\n\n\tfunction exchangeAnteForPostEvenSteven(\n\t\taddress[] memory accounts,\n\t\tuint256 exPostTokenId,\n\t\tbytes memory data\n\t)\n\t\texternal\n\t\tonlyExPostToken(exPostTokenId)\n\t{\n\t\tuint256 exAnteTokenId = exPostToExAnteTokenId[exPostTokenId];\n\t\trequire(exAnteTokenId != 0, \"9\");\n\t\tuint256 currentExAnteSupply = totalSupply(exAnteTokenId);\n\t\tuint256 currentExPostSupplyInContract = balanceOf(\n\t\t\taddress(this),\n\t\t\texPostTokenId\n\t\t);\n\t\trequire(currentExPostSupplyInContract > 0, \"10\");\n\n\t\tfor (uint256 i = 0; i < accounts.length; i++) {\n\t\t\t\n\t\t\tuint256 amountExAnte = balanceOf(accounts[i], exAnteTokenId);\n\t\t\tuint256 amountExPost = (amountExAnte *\n\t\t\t\tcurrentExPostSupplyInContract) / currentExAnteSupply;\n\t\t\tuint256 exAnteBurnAmount = amountExAnte;\n\t\t\tif (amountExAnte > amountExPost) {\n\t\t\t\texAnteBurnAmount = amountExPost;\n\t\t\t}\n\t\t\t\t\t\temit ExchangeAnteForPost(\n\t\t\t\taccounts[i],\n\t\t\t\texPostTokenId,\n\t\t\t\tamountExPost,\n\t\t\t\texAnteBurnAmount\n\t\t\t);\n\t\t\t_burn(accounts[i], exAnteTokenId, exAnteBurnAmount);\n\t\t\t_safeTransferFrom(\n\t\t\t\taddress(this),\n\t\t\t\taccounts[i],\n\t\t\t\texPostTokenId,\n\t\t\t\tamountExPost,\n\t\t\t\tdata\n\t\t\t);\n\t\t}\n\t}\n\n\t// ----------------------------------\n\t//              Actions\n\t// ----------------------------------\n\n\n\tfunction transferFromSignature(\n\t\tbytes calldata signature,\n\t\tsignatureTransferPayload calldata payload,\n\t\tbytes memory data\n\t) public payable onlyValidSignatureTransfer(signature, payload) {\n\t\t_safeTransferFrom(\n\t\t\tpayload.signer,\n\t\t\tpayload.to,\n\t\t\tpayload.tokenId,\n\t\t\tpayload.amount,\n\t\t\tdata\n\t\t);\n\t}\n\n\tfunction retire(\n\t\tuint256 tokenId,\n\t\tuint256 amount,\n\t\taddress beneficiary,\n\t\tstring memory retireeName,\n\t\tstring memory customUri,\n\t\tstring memory comment,\n\t\tbytes memory data\n\t) public onlyExPostToken(tokenId) returns (uint256 nftTokenId) {\n\t\tif(msg.sender == beneficiary){\n\t\t\treturn _retire(\n\t\t\t\tmsg.sender,\n\t\t\t\ttokenId,\n\t\t\t\tamount,\n\t\t\t\tretireeName,\n\t\t\t\tcustomUri,\n\t\t\t\tcomment,\n\t\t\t\tdata\n\t\t\t);\n\t\t}\n\n\t\trequire(beneficiary != address(0));\n\t\t_safeTransferFrom(msg.sender, beneficiary, tokenId, amount, data);\n\t\treturn _retire(\n\t\t\tbeneficiary,\n\t\t\ttokenId,\n\t\t\tamount,\n\t\t\tretireeName,\n\t\t\tcustomUri,\n\t\t\tcomment,\n\t\t\tdata\n\t\t);\n\t}\n\n\tfunction retireFromSignature(\n\t\tbytes calldata signature,\n\t\tsignatureTransferPayload calldata payload,\n\t\tstring memory retireeName,\n\t\tstring memory customUri,\n\t\tstring memory comment,\n\t\tbytes memory data\n\t)\n\t\tpublic\n\t\tonlyExPostToken(payload.tokenId)\n\t\tonlyValidSignatureTransfer(signature, payload)\n\t\treturns (uint256 nftTokenId)\n\t{\n\t\tif(payload.signer == payload.to){\n\t\t\treturn _retire(\n\t\t\t\tpayload.signer,\n\t\t\t\tpayload.tokenId,\n\t\t\t\tpayload.amount,\n\t\t\t\tretireeName,\n\t\t\t\tcustomUri,\n\t\t\t\tcomment,\n\t\t\t\tdata\n\t\t\t);\n\t\t}\n\t\trequire(payload.to != address(0));\n\t\t_safeTransferFrom(payload.signer, payload.to, payload.tokenId, payload.amount, data);\n\t\treturn _retire(\n\t\t\tpayload.to,\n\t\t\tpayload.tokenId,\n\t\t\tpayload.amount,\n\t\t\tretireeName,\n\t\t\tcustomUri,\n\t\t\tcomment,\n\t\t\tdata\n\t\t);\n\t}\n\n\tfunction _retire(\n\t\taddress retiree,\n\t\tuint256 tokenId,\n\t\tuint256 amount,\n\t\tstring memory retireeName,\n\t\tstring memory customUri,\n\t\tstring memory comment,\n\t\tbytes memory data\n\t) internal returns(uint256 nftTokenId) {\n\t\t_burn(retiree, tokenId, amount);\n\t\tnftTokenId = mintRetirementCertificate(retiree, tokenId, amount, retireeName, customUri, comment);\n\t\temit RetiredVintage(retiree, tokenId, amount, nftTokenId, data);\n\t}\n\n\tfunction mintRetirementCertificate(\n\t\taddress account,\n\t\tuint256 tokenId,\n\t\tuint256 amount,\n\t\tstring memory retireeName,\n\t\tstring memory customUri,\n\t\tstring memory comment\n\t) internal returns (uint256) {\n\t\tuint256 nftTokenId = nextTokenId();\n\t\tretirementMapping[nftTokenId] = RetirementData(\n\t\t\taccount,\n\t\t\tamount,\n\t\t\ttokenId,\n\t\t\tretireeName,\n\t\t\tcustomUri,\n\t\t\tcomment\n\t\t);\n\t\t_mint(account, nftTokenId, 1, '');\n\t\treturn nftTokenId;\n\t}\n\n\n\tfunction cancelCreditsFromSignature(\n\t\tbytes calldata signature,\n\t\tsignatureTransferPayload calldata payload,\n\t\tstring memory comment,\n\t\tbytes memory data\n\t)\n\t\tpublic\n\t\tonlyExPostToken(payload.tokenId)\n\t\tonlyValidSignatureTransfer(signature, payload)\n\t{\n\t\temit CancelledCredits(payload.signer, payload.tokenId, payload.amount,comment, data);\n\t\t_burn(payload.signer, payload.tokenId, payload.amount);\n\t}\n\n\t// ----------------------------------\n\t//              Hooks\n\t// ----------------------------------\n\n\tfunction _beforeTokenTransfer(\n\t\taddress operator,\n\t\taddress from,\n\t\taddress to,\n\t\tuint256[] memory ids,\n\t\tuint256[] memory amounts,\n\t\tbytes memory data\n\t)\n\t\tinternal\n\t\toverride(ERC1155Upgradeable, ERC1155SupplyUpgradeable)\n\t\twhenNotPaused\n\t\tnotBlacklisted(from)\n\t\tnotBlacklisted(to)\n\t{\n\t\tfor(uint256 i = 0; i < ids.length; i++) {\n\t\t\trequire((retirementMapping[ids[i]].amount == 0) || (from == address(0) || to == address(0)), \"11\");\n\t\t}\n\t\tsuper._beforeTokenTransfer(operator, from, to, ids, amounts, data);\n\t}\n\n\tfunction setURI(string memory newuri) public onlyRole(URI_SETTER_ROLE) {\n\t\t_setURI(newuri);\n\t}\n\n\tfunction pause() public onlyRole(PAUSER_ROLE) {\n\t\t_pause();\n\t}\n\n\tfunction unpause() public onlyRole(PAUSER_ROLE) {\n\t\t_unpause();\n\t}\n\n\tfunction nextTokenId() internal returns (uint256) {\n\t\tunchecked {\n\t\t\ttopTokenId += 1;\n\t\t}\n\t\treturn topTokenId;\n\t}\n\n\tfunction updateMaxAntePercentage(uint8 newMaxAntePercentage)\n\t\tpublic\n\t\tonlyRole(DEFAULT_ADMIN_ROLE)\n\t{\n\t\tmaxAntePercentage = newMaxAntePercentage;\n\t}\n\n\tfunction _authorizeUpgrade(\n\t\taddress newImplementation\n\t) internal override onlyRole(UPGRADER_ROLE) {}\n\n\t// The following functions are overrides required by Solidity.\n\n\tfunction supportsInterface(\n\t\tbytes4 interfaceId\n\t)\n\t\tpublic\n\t\tview\n\t\toverride(ERC1155Upgradeable, AccessControlUpgradeable,ERC1155ReceiverUpgradeable)\n\t\treturns (bool)\n\t{\n\t\treturn super.supportsInterface(interfaceId);\n\t}\n}\n",
  "sourcePath": "/Users/thorduragustsson/Programming/Projects/CarbonRegistryContracts/contracts/Project.sol",
  "compiler": {
    "name": "solc",
    "version": "0.8.13+commit.abaa5c0e.Emscripten.clang"
  },
  "schemaVersion": "3.4.13",
  "updatedAt": "2023-08-07T12:02:07.024Z",
  "networkType": "ethereum",
  "devdoc": {
    "kind": "dev",
    "methods": {
      "balanceOf(address,uint256)": {
        "details": "See {IERC1155-balanceOf}. Requirements: - `account` cannot be the zero address."
      },
      "balanceOfBatch(address[],uint256[])": {
        "details": "See {IERC1155-balanceOfBatch}. Requirements: - `accounts` and `ids` must have the same length."
      },
      "constructor": {
        "custom:oz-upgrades-unsafe-allow": "constructor"
      },
      "exists(uint256)": {
        "details": "Indicates whether any token exist with a given id, or not."
      },
      "getRoleAdmin(bytes32)": {
        "details": "Returns the admin role that controls `role`. See {grantRole} and {revokeRole}. To change a role's admin, use {_setRoleAdmin}."
      },
      "grantRole(bytes32,address)": {
        "details": "Grants `role` to `account`. If `account` had not been already granted `role`, emits a {RoleGranted} event. Requirements: - the caller must have ``role``'s admin role. May emit a {RoleGranted} event."
      },
      "hasRole(bytes32,address)": {
        "details": "Returns `true` if `account` has been granted `role`."
      },
      "isApprovedForAll(address,address)": {
        "details": "See {IERC1155-isApprovedForAll}."
      },
      "paused()": {
        "details": "Returns true if the contract is paused, and false otherwise."
      },
      "proxiableUUID()": {
        "details": "Implementation of the ERC1822 {proxiableUUID} function. This returns the storage slot used by the implementation. It is used to validate the implementation's compatibility when performing an upgrade. IMPORTANT: A proxy pointing at a proxiable contract should not be considered proxiable itself, because this risks bricking a proxy that upgrades to it, by delegating to itself until out of gas. Thus it is critical that this function revert if invoked through a proxy. This is guaranteed by the `notDelegated` modifier."
      },
      "renounceRole(bytes32,address)": {
        "details": "Revokes `role` from the calling account. Roles are often managed via {grantRole} and {revokeRole}: this function's purpose is to provide a mechanism for accounts to lose their privileges if they are compromised (such as when a trusted device is misplaced). If the calling account had been revoked `role`, emits a {RoleRevoked} event. Requirements: - the caller must be `account`. May emit a {RoleRevoked} event."
      },
      "revokeRole(bytes32,address)": {
        "details": "Revokes `role` from `account`. If `account` had been granted `role`, emits a {RoleRevoked} event. Requirements: - the caller must have ``role``'s admin role. May emit a {RoleRevoked} event."
      },
      "safeBatchTransferFrom(address,address,uint256[],uint256[],bytes)": {
        "details": "See {IERC1155-safeBatchTransferFrom}."
      },
      "safeTransferFrom(address,address,uint256,uint256,bytes)": {
        "details": "See {IERC1155-safeTransferFrom}."
      },
      "setApprovalForAll(address,bool)": {
        "details": "See {IERC1155-setApprovalForAll}."
      },
      "totalSupply(uint256)": {
        "details": "Total amount of tokens in with a given id."
      },
      "upgradeTo(address)": {
        "details": "Upgrade the implementation of the proxy to `newImplementation`. Calls {_authorizeUpgrade}. Emits an {Upgraded} event."
      },
      "upgradeToAndCall(address,bytes)": {
        "details": "Upgrade the implementation of the proxy to `newImplementation`, and subsequently execute the function call encoded in `data`. Calls {_authorizeUpgrade}. Emits an {Upgraded} event."
      },
      "uri(uint256)": {
        "details": "See {IERC1155MetadataURI-uri}. This implementation returns the same URI for *all* token types. It relies on the token type ID substitution mechanism https://eips.ethereum.org/EIPS/eip-1155#metadata[defined in the EIP]. Clients calling this function must replace the `\\{id\\}` substring with the actual token type ID."
      }
    },
    "version": 1
  },
  "userdoc": {
    "kind": "user",
    "methods": {},
    "version": 1
  }
}