{
  "contractName": "Project",
  "abi": [
    {
      "inputs": [],
      "stateMutability": "nonpayable",
      "type": "constructor"
    },
    {
      "anonymous": false,
      "inputs": [
        {
          "indexed": true,
          "internalType": "address",
          "name": "from",
          "type": "address"
        },
        {
          "indexed": true,
          "internalType": "uint256",
          "name": "tokenId",
          "type": "uint256"
        },
        {
          "indexed": false,
          "internalType": "uint256",
          "name": "amount",
          "type": "uint256"
        },
        {
          "indexed": true,
          "internalType": "enum AdminActionReason",
          "name": "reason",
          "type": "uint8"
        }
      ],
      "name": "AdminBurn",
      "type": "event"
    },
    {
      "anonymous": false,
      "inputs": [
        {
          "indexed": false,
          "internalType": "address",
          "name": "previousAdmin",
          "type": "address"
        },
        {
          "indexed": false,
          "internalType": "address",
          "name": "newAdmin",
          "type": "address"
        }
      ],
      "name": "AdminChanged",
      "type": "event"
    },
    {
      "anonymous": false,
      "inputs": [
        {
          "indexed": true,
          "internalType": "address",
          "name": "from",
          "type": "address"
        },
        {
          "indexed": false,
          "internalType": "address",
          "name": "to",
          "type": "address"
        },
        {
          "indexed": true,
          "internalType": "uint256",
          "name": "tokenId",
          "type": "uint256"
        },
        {
          "indexed": false,
          "internalType": "uint256",
          "name": "amount",
          "type": "uint256"
        },
        {
          "indexed": true,
          "internalType": "enum AdminActionReason",
          "name": "reason",
          "type": "uint8"
        }
      ],
      "name": "AdminClawback",
      "type": "event"
    },
    {
      "anonymous": false,
      "inputs": [
        {
          "indexed": true,
          "internalType": "address",
          "name": "account",
          "type": "address"
        },
        {
          "indexed": true,
          "internalType": "address",
          "name": "operator",
          "type": "address"
        },
        {
          "indexed": false,
          "internalType": "bool",
          "name": "approved",
          "type": "bool"
        }
      ],
      "name": "ApprovalForAll",
      "type": "event"
    },
    {
      "anonymous": false,
      "inputs": [
        {
          "indexed": true,
          "internalType": "address",
          "name": "beacon",
          "type": "address"
        }
      ],
      "name": "BeaconUpgraded",
      "type": "event"
    },
    {
      "anonymous": false,
      "inputs": [
        {
          "indexed": true,
          "internalType": "address",
          "name": "account",
          "type": "address"
        },
        {
          "indexed": true,
          "internalType": "uint256",
          "name": "tokenId",
          "type": "uint256"
        },
        {
          "indexed": false,
          "internalType": "uint256",
          "name": "amount",
          "type": "uint256"
        },
        {
          "indexed": false,
          "internalType": "string",
          "name": "reason",
          "type": "string"
        },
        {
          "indexed": false,
          "internalType": "bytes",
          "name": "data",
          "type": "bytes"
        }
      ],
      "name": "CancelledCredits",
      "type": "event"
    },
    {
      "anonymous": false,
      "inputs": [
        {
          "indexed": true,
          "internalType": "uint256",
          "name": "exAnteTokenId",
          "type": "uint256"
        },
        {
          "indexed": true,
          "internalType": "uint256",
          "name": "exPostTokenId",
          "type": "uint256"
        },
        {
          "indexed": true,
          "internalType": "address",
          "name": "account",
          "type": "address"
        },
        {
          "indexed": false,
          "internalType": "uint256",
          "name": "amount",
          "type": "uint256"
        }
      ],
      "name": "ExAnteMinted",
      "type": "event"
    },
    {
      "anonymous": false,
      "inputs": [
        {
          "indexed": true,
          "internalType": "uint256",
          "name": "tokenId",
          "type": "uint256"
        },
        {
          "indexed": false,
          "internalType": "uint256",
          "name": "estimatedAmount",
          "type": "uint256"
        },
        {
          "indexed": false,
          "internalType": "uint256",
          "name": "verificationPeriodStart",
          "type": "uint256"
        },
        {
          "indexed": false,
          "internalType": "uint256",
          "name": "verificationPeriodEnd",
          "type": "uint256"
        },
        {
          "indexed": false,
          "internalType": "string",
          "name": "serialization",
          "type": "string"
        }
      ],
      "name": "ExPostCreated",
      "type": "event"
    },
    {
      "anonymous": false,
      "inputs": [
        {
          "indexed": true,
          "internalType": "uint256",
          "name": "tokenId",
          "type": "uint256"
        },
        {
          "indexed": false,
          "internalType": "uint256",
          "name": "amount",
          "type": "uint256"
        },
        {
          "indexed": false,
          "internalType": "uint256",
          "name": "amountToAnteHolders",
          "type": "uint256"
        },
        {
          "indexed": false,
          "internalType": "uint256",
          "name": "verificationPeriodStart",
          "type": "uint256"
        },
        {
          "indexed": false,
          "internalType": "uint256",
          "name": "verificationPeriodEnd",
          "type": "uint256"
        },
        {
          "indexed": false,
          "internalType": "string",
          "name": "monitoringReport",
          "type": "string"
        }
      ],
      "name": "ExPostVerifiedAndMinted",
      "type": "event"
    },
    {
      "anonymous": false,
      "inputs": [
        {
          "indexed": true,
          "internalType": "address",
          "name": "account",
          "type": "address"
        },
        {
          "indexed": true,
          "internalType": "uint256",
          "name": "exPostTokenId",
          "type": "uint256"
        },
        {
          "indexed": false,
          "internalType": "uint256",
          "name": "exPostAmountReceived",
          "type": "uint256"
        },
        {
          "indexed": false,
          "internalType": "uint256",
          "name": "exAnteAmountBurned",
          "type": "uint256"
        }
      ],
      "name": "ExchangeAnteForPost",
      "type": "event"
    },
    {
      "anonymous": false,
      "inputs": [
        {
          "indexed": false,
          "internalType": "uint8",
          "name": "version",
          "type": "uint8"
        }
      ],
      "name": "Initialized",
      "type": "event"
    },
    {
      "anonymous": false,
      "inputs": [
        {
          "indexed": false,
          "internalType": "address",
          "name": "account",
          "type": "address"
        }
      ],
      "name": "Paused",
      "type": "event"
    },
    {
      "anonymous": false,
      "inputs": [
        {
          "indexed": true,
          "internalType": "address",
          "name": "account",
          "type": "address"
        },
        {
          "indexed": true,
          "internalType": "uint256",
          "name": "tokenId",
          "type": "uint256"
        },
        {
          "indexed": false,
          "internalType": "uint256",
          "name": "amount",
          "type": "uint256"
        },
        {
          "indexed": false,
          "internalType": "uint256",
          "name": "nftTokenId",
          "type": "uint256"
        },
        {
          "indexed": false,
          "internalType": "bytes",
          "name": "data",
          "type": "bytes"
        }
      ],
      "name": "RetiredVintage",
      "type": "event"
    },
    {
      "anonymous": false,
      "inputs": [
        {
          "indexed": true,
          "internalType": "bytes32",
          "name": "role",
          "type": "bytes32"
        },
        {
          "indexed": true,
          "internalType": "bytes32",
          "name": "previousAdminRole",
          "type": "bytes32"
        },
        {
          "indexed": true,
          "internalType": "bytes32",
          "name": "newAdminRole",
          "type": "bytes32"
        }
      ],
      "name": "RoleAdminChanged",
      "type": "event"
    },
    {
      "anonymous": false,
      "inputs": [
        {
          "indexed": true,
          "internalType": "bytes32",
          "name": "role",
          "type": "bytes32"
        },
        {
          "indexed": true,
          "internalType": "address",
          "name": "account",
          "type": "address"
        },
        {
          "indexed": true,
          "internalType": "address",
          "name": "sender",
          "type": "address"
        }
      ],
      "name": "RoleGranted",
      "type": "event"
    },
    {
      "anonymous": false,
      "inputs": [
        {
          "indexed": true,
          "internalType": "bytes32",
          "name": "role",
          "type": "bytes32"
        },
        {
          "indexed": true,
          "internalType": "address",
          "name": "account",
          "type": "address"
        },
        {
          "indexed": true,
          "internalType": "address",
          "name": "sender",
          "type": "address"
        }
      ],
      "name": "RoleRevoked",
      "type": "event"
    },
    {
      "anonymous": false,
      "inputs": [
        {
          "indexed": true,
          "internalType": "address",
          "name": "operator",
          "type": "address"
        },
        {
          "indexed": true,
          "internalType": "address",
          "name": "from",
          "type": "address"
        },
        {
          "indexed": true,
          "internalType": "address",
          "name": "to",
          "type": "address"
        },
        {
          "indexed": false,
          "internalType": "uint256[]",
          "name": "ids",
          "type": "uint256[]"
        },
        {
          "indexed": false,
          "internalType": "uint256[]",
          "name": "values",
          "type": "uint256[]"
        }
      ],
      "name": "TransferBatch",
      "type": "event"
    },
    {
      "anonymous": false,
      "inputs": [
        {
          "indexed": false,
          "internalType": "bytes",
          "name": "signature",
          "type": "bytes"
        },
        {
          "components": [
            {
              "internalType": "uint256",
              "name": "deadline",
              "type": "uint256"
            },
            {
              "internalType": "string",
              "name": "description",
              "type": "string"
            },
            {
              "internalType": "address",
              "name": "signer",
              "type": "address"
            },
            {
              "internalType": "address",
              "name": "to",
              "type": "address"
            },
            {
              "internalType": "uint256",
              "name": "tokenId",
              "type": "uint256"
            },
            {
              "internalType": "uint256",
              "name": "amount",
              "type": "uint256"
            },
            {
              "internalType": "uint256",
              "name": "nonce",
              "type": "uint256"
            }
          ],
          "indexed": false,
          "internalType": "struct signatureTransferPayload",
          "name": "payload",
          "type": "tuple"
        }
      ],
      "name": "TransferSignatureValid",
      "type": "event"
    },
    {
      "anonymous": false,
      "inputs": [
        {
          "indexed": true,
          "internalType": "address",
          "name": "operator",
          "type": "address"
        },
        {
          "indexed": true,
          "internalType": "address",
          "name": "from",
          "type": "address"
        },
        {
          "indexed": true,
          "internalType": "address",
          "name": "to",
          "type": "address"
        },
        {
          "indexed": false,
          "internalType": "uint256",
          "name": "id",
          "type": "uint256"
        },
        {
          "indexed": false,
          "internalType": "uint256",
          "name": "value",
          "type": "uint256"
        }
      ],
      "name": "TransferSingle",
      "type": "event"
    },
    {
      "anonymous": false,
      "inputs": [
        {
          "indexed": false,
          "internalType": "string",
          "name": "value",
          "type": "string"
        },
        {
          "indexed": true,
          "internalType": "uint256",
          "name": "id",
          "type": "uint256"
        }
      ],
      "name": "URI",
      "type": "event"
    },
    {
      "anonymous": false,
      "inputs": [
        {
          "indexed": false,
          "internalType": "address",
          "name": "account",
          "type": "address"
        }
      ],
      "name": "Unpaused",
      "type": "event"
    },
    {
      "anonymous": false,
      "inputs": [
        {
          "indexed": true,
          "internalType": "address",
          "name": "implementation",
          "type": "address"
        }
      ],
      "name": "Upgraded",
      "type": "event"
    },
    {
      "anonymous": false,
      "inputs": [
        {
          "indexed": true,
          "internalType": "uint256",
          "name": "tokenId",
          "type": "uint256"
        },
        {
          "indexed": false,
          "internalType": "uint256",
          "name": "newEstimate",
          "type": "uint256"
        },
        {
          "indexed": false,
          "internalType": "uint256",
          "name": "oldEstimate",
          "type": "uint256"
        },
        {
          "indexed": true,
          "internalType": "enum AdminActionReason",
          "name": "reason",
          "type": "uint8"
        }
      ],
      "name": "VintageMitigationEstimateChanged",
      "type": "event"
    },
    {
      "inputs": [],
      "name": "ANTE_MINTER_ROLE",
      "outputs": [
        {
          "internalType": "bytes32",
          "name": "",
          "type": "bytes32"
        }
      ],
      "stateMutability": "view",
      "type": "function",
      "constant": true
    },
    {
      "inputs": [],
      "name": "BLACKLISTED",
      "outputs": [
        {
          "internalType": "bytes32",
          "name": "",
          "type": "bytes32"
        }
      ],
      "stateMutability": "view",
      "type": "function",
      "constant": true
    },
    {
      "inputs": [],
      "name": "BLACKLISTER_ROLE",
      "outputs": [
        {
          "internalType": "bytes32",
          "name": "",
          "type": "bytes32"
        }
      ],
      "stateMutability": "view",
      "type": "function",
      "constant": true
    },
    {
      "inputs": [],
      "name": "BURNER_ROLE",
      "outputs": [
        {
          "internalType": "bytes32",
          "name": "",
          "type": "bytes32"
        }
      ],
      "stateMutability": "view",
      "type": "function",
      "constant": true
    },
    {
      "inputs": [],
      "name": "CLAWBACK_ROLE",
      "outputs": [
        {
          "internalType": "bytes32",
          "name": "",
          "type": "bytes32"
        }
      ],
      "stateMutability": "view",
      "type": "function",
      "constant": true
    },
    {
      "inputs": [],
      "name": "DEFAULT_ADMIN_ROLE",
      "outputs": [
        {
          "internalType": "bytes32",
          "name": "",
          "type": "bytes32"
        }
      ],
      "stateMutability": "view",
      "type": "function",
      "constant": true
    },
    {
      "inputs": [],
      "name": "MINTER_ROLE",
      "outputs": [
        {
          "internalType": "bytes32",
          "name": "",
          "type": "bytes32"
        }
      ],
      "stateMutability": "view",
      "type": "function",
      "constant": true
    },
    {
      "inputs": [],
      "name": "PAUSER_ROLE",
      "outputs": [
        {
          "internalType": "bytes32",
          "name": "",
          "type": "bytes32"
        }
      ],
      "stateMutability": "view",
      "type": "function",
      "constant": true
    },
    {
      "inputs": [],
      "name": "POST_MINTER_ROLE",
      "outputs": [
        {
          "internalType": "bytes32",
          "name": "",
          "type": "bytes32"
        }
      ],
      "stateMutability": "view",
      "type": "function",
      "constant": true
    },
    {
      "inputs": [],
      "name": "UPGRADER_ROLE",
      "outputs": [
        {
          "internalType": "bytes32",
          "name": "",
          "type": "bytes32"
        }
      ],
      "stateMutability": "view",
      "type": "function",
      "constant": true
    },
    {
      "inputs": [],
      "name": "URI_SETTER_ROLE",
      "outputs": [
        {
          "internalType": "bytes32",
          "name": "",
          "type": "bytes32"
        }
      ],
      "stateMutability": "view",
      "type": "function",
      "constant": true
    },
    {
      "inputs": [],
      "name": "VERIFIER_ROLE",
      "outputs": [
        {
          "internalType": "bytes32",
          "name": "",
          "type": "bytes32"
        }
      ],
      "stateMutability": "view",
      "type": "function",
      "constant": true
    },
    {
      "inputs": [
        {
          "internalType": "address",
          "name": "_contractRegistry",
          "type": "address"
        },
        {
          "internalType": "uint8",
          "name": "_maxAntePerc",
          "type": "uint8"
        },
        {
          "internalType": "uint256",
          "name": "_projectId",
          "type": "uint256"
        },
        {
          "internalType": "string",
          "name": "_projectName",
          "type": "string"
        }
      ],
      "name": "__ProjectStorage_init",
      "outputs": [],
      "stateMutability": "nonpayable",
      "type": "function"
    },
    {
      "inputs": [
        {
          "internalType": "address",
          "name": "account",
          "type": "address"
        },
        {
          "internalType": "uint256",
          "name": "id",
          "type": "uint256"
        }
      ],
      "name": "balanceOf",
      "outputs": [
        {
          "internalType": "uint256",
          "name": "",
          "type": "uint256"
        }
      ],
      "stateMutability": "view",
      "type": "function",
      "constant": true
    },
    {
      "inputs": [
        {
          "internalType": "address[]",
          "name": "accounts",
          "type": "address[]"
        },
        {
          "internalType": "uint256[]",
          "name": "ids",
          "type": "uint256[]"
        }
      ],
      "name": "balanceOfBatch",
      "outputs": [
        {
          "internalType": "uint256[]",
          "name": "",
          "type": "uint256[]"
        }
      ],
      "stateMutability": "view",
      "type": "function",
      "constant": true
    },
    {
      "inputs": [],
      "name": "contractRegistry",
      "outputs": [
        {
          "internalType": "address",
          "name": "",
          "type": "address"
        }
      ],
      "stateMutability": "view",
      "type": "function",
      "constant": true
    },
    {
      "inputs": [
        {
          "internalType": "uint256",
          "name": "",
          "type": "uint256"
        }
      ],
      "name": "exAnteToExPostTokenId",
      "outputs": [
        {
          "internalType": "uint256",
          "name": "",
          "type": "uint256"
        }
      ],
      "stateMutability": "view",
      "type": "function",
      "constant": true
    },
    {
      "inputs": [
        {
          "internalType": "uint256",
          "name": "",
          "type": "uint256"
        }
      ],
      "name": "exPostToExAnteTokenId",
      "outputs": [
        {
          "internalType": "uint256",
          "name": "",
          "type": "uint256"
        }
      ],
      "stateMutability": "view",
      "type": "function",
      "constant": true
    },
    {
      "inputs": [
        {
          "internalType": "uint256",
          "name": "",
          "type": "uint256"
        }
      ],
      "name": "exPostVintageMapping",
      "outputs": [
        {
          "internalType": "string",
          "name": "serialization",
          "type": "string"
        },
        {
          "internalType": "uint256",
          "name": "estMitigations",
          "type": "uint256"
        },
        {
          "internalType": "uint256",
          "name": "verificationPeriodStart",
          "type": "uint256"
        },
        {
          "internalType": "uint256",
          "name": "verificationPeriodEnd",
          "type": "uint256"
        },
        {
          "internalType": "uint256",
          "name": "lastVerificationTimestamp",
          "type": "uint256"
        }
      ],
      "stateMutability": "view",
      "type": "function",
      "constant": true
    },
    {
      "inputs": [
        {
          "internalType": "uint256",
          "name": "id",
          "type": "uint256"
        }
      ],
      "name": "exists",
      "outputs": [
        {
          "internalType": "bool",
          "name": "",
          "type": "bool"
        }
      ],
      "stateMutability": "view",
      "type": "function",
      "constant": true
    },
    {
      "inputs": [
        {
          "internalType": "bytes32",
          "name": "role",
          "type": "bytes32"
        }
      ],
      "name": "getRoleAdmin",
      "outputs": [
        {
          "internalType": "bytes32",
          "name": "",
          "type": "bytes32"
        }
      ],
      "stateMutability": "view",
      "type": "function",
      "constant": true
    },
    {
      "inputs": [
        {
          "internalType": "bytes32",
          "name": "role",
          "type": "bytes32"
        },
        {
          "internalType": "address",
          "name": "account",
          "type": "address"
        }
      ],
      "name": "grantRole",
      "outputs": [],
      "stateMutability": "nonpayable",
      "type": "function"
    },
    {
      "inputs": [
        {
          "internalType": "bytes32",
          "name": "role",
          "type": "bytes32"
        },
        {
          "internalType": "address",
          "name": "account",
          "type": "address"
        }
      ],
      "name": "hasRole",
      "outputs": [
        {
          "internalType": "bool",
          "name": "",
          "type": "bool"
        }
      ],
      "stateMutability": "view",
      "type": "function",
      "constant": true
    },
    {
      "inputs": [
        {
          "internalType": "address",
          "name": "account",
          "type": "address"
        },
        {
          "internalType": "address",
          "name": "operator",
          "type": "address"
        }
      ],
      "name": "isApprovedForAll",
      "outputs": [
        {
          "internalType": "bool",
          "name": "",
          "type": "bool"
        }
      ],
      "stateMutability": "view",
      "type": "function",
      "constant": true
    },
    {
      "inputs": [],
      "name": "maxAntePercentage",
      "outputs": [
        {
          "internalType": "uint8",
          "name": "",
          "type": "uint8"
        }
      ],
      "stateMutability": "view",
      "type": "function",
      "constant": true
    },
    {
      "inputs": [
        {
          "internalType": "address",
          "name": "",
          "type": "address"
        },
        {
          "internalType": "address",
          "name": "",
          "type": "address"
        },
        {
          "internalType": "uint256[]",
          "name": "",
          "type": "uint256[]"
        },
        {
          "internalType": "uint256[]",
          "name": "",
          "type": "uint256[]"
        },
        {
          "internalType": "bytes",
          "name": "",
          "type": "bytes"
        }
      ],
      "name": "onERC1155BatchReceived",
      "outputs": [
        {
          "internalType": "bytes4",
          "name": "",
          "type": "bytes4"
        }
      ],
      "stateMutability": "nonpayable",
      "type": "function"
    },
    {
      "inputs": [
        {
          "internalType": "address",
          "name": "",
          "type": "address"
        },
        {
          "internalType": "address",
          "name": "",
          "type": "address"
        },
        {
          "internalType": "uint256",
          "name": "",
          "type": "uint256"
        },
        {
          "internalType": "uint256",
          "name": "",
          "type": "uint256"
        },
        {
          "internalType": "bytes",
          "name": "",
          "type": "bytes"
        }
      ],
      "name": "onERC1155Received",
      "outputs": [
        {
          "internalType": "bytes4",
          "name": "",
          "type": "bytes4"
        }
      ],
      "stateMutability": "nonpayable",
      "type": "function"
    },
    {
      "inputs": [],
      "name": "paused",
      "outputs": [
        {
          "internalType": "bool",
          "name": "",
          "type": "bool"
        }
      ],
      "stateMutability": "view",
      "type": "function",
      "constant": true
    },
    {
      "inputs": [],
      "name": "projectId",
      "outputs": [
        {
          "internalType": "uint256",
          "name": "",
          "type": "uint256"
        }
      ],
      "stateMutability": "view",
      "type": "function",
      "constant": true
    },
    {
      "inputs": [],
      "name": "projectName",
      "outputs": [
        {
          "internalType": "string",
          "name": "",
          "type": "string"
        }
      ],
      "stateMutability": "view",
      "type": "function",
      "constant": true
    },
    {
      "inputs": [],
      "name": "proxiableUUID",
      "outputs": [
        {
          "internalType": "bytes32",
          "name": "",
          "type": "bytes32"
        }
      ],
      "stateMutability": "view",
      "type": "function",
      "constant": true
    },
    {
      "inputs": [
        {
          "internalType": "bytes32",
          "name": "role",
          "type": "bytes32"
        },
        {
          "internalType": "address",
          "name": "account",
          "type": "address"
        }
      ],
      "name": "renounceRole",
      "outputs": [],
      "stateMutability": "nonpayable",
      "type": "function"
    },
    {
      "inputs": [
        {
          "internalType": "uint256",
          "name": "",
          "type": "uint256"
        }
      ],
      "name": "retirementMapping",
      "outputs": [
        {
          "internalType": "address",
          "name": "retiree",
          "type": "address"
        },
        {
          "internalType": "uint256",
          "name": "amount",
          "type": "uint256"
        },
        {
          "internalType": "uint256",
          "name": "vintageTokenId",
          "type": "uint256"
        },
        {
          "internalType": "string",
          "name": "retireeName",
          "type": "string"
        },
        {
          "internalType": "string",
          "name": "customUri",
          "type": "string"
        },
        {
          "internalType": "string",
          "name": "comment",
          "type": "string"
        }
      ],
      "stateMutability": "view",
      "type": "function",
      "constant": true
    },
    {
      "inputs": [
        {
          "internalType": "bytes32",
          "name": "role",
          "type": "bytes32"
        },
        {
          "internalType": "address",
          "name": "account",
          "type": "address"
        }
      ],
      "name": "revokeRole",
      "outputs": [],
      "stateMutability": "nonpayable",
      "type": "function"
    },
    {
      "inputs": [
        {
          "internalType": "address",
          "name": "from",
          "type": "address"
        },
        {
          "internalType": "address",
          "name": "to",
          "type": "address"
        },
        {
          "internalType": "uint256[]",
          "name": "ids",
          "type": "uint256[]"
        },
        {
          "internalType": "uint256[]",
          "name": "amounts",
          "type": "uint256[]"
        },
        {
          "internalType": "bytes",
          "name": "data",
          "type": "bytes"
        }
      ],
      "name": "safeBatchTransferFrom",
      "outputs": [],
      "stateMutability": "nonpayable",
      "type": "function"
    },
    {
      "inputs": [
        {
          "internalType": "address",
          "name": "from",
          "type": "address"
        },
        {
          "internalType": "address",
          "name": "to",
          "type": "address"
        },
        {
          "internalType": "uint256",
          "name": "id",
          "type": "uint256"
        },
        {
          "internalType": "uint256",
          "name": "amount",
          "type": "uint256"
        },
        {
          "internalType": "bytes",
          "name": "data",
          "type": "bytes"
        }
      ],
      "name": "safeTransferFrom",
      "outputs": [],
      "stateMutability": "nonpayable",
      "type": "function"
    },
    {
      "inputs": [
        {
          "internalType": "string",
          "name": "",
          "type": "string"
        }
      ],
      "name": "serializationToExPostTokenIdMapping",
      "outputs": [
        {
          "internalType": "uint256",
          "name": "",
          "type": "uint256"
        }
      ],
      "stateMutability": "view",
      "type": "function",
      "constant": true
    },
    {
      "inputs": [
        {
          "internalType": "address",
          "name": "operator",
          "type": "address"
        },
        {
          "internalType": "bool",
          "name": "approved",
          "type": "bool"
        }
      ],
      "name": "setApprovalForAll",
      "outputs": [],
      "stateMutability": "nonpayable",
      "type": "function"
    },
    {
      "inputs": [
        {
          "internalType": "address",
          "name": "",
          "type": "address"
        }
      ],
      "name": "signatureNonces",
      "outputs": [
        {
          "internalType": "uint32",
          "name": "",
          "type": "uint32"
        }
      ],
      "stateMutability": "view",
      "type": "function",
      "constant": true
    },
    {
      "inputs": [],
      "name": "topTokenId",
      "outputs": [
        {
          "internalType": "uint256",
          "name": "",
          "type": "uint256"
        }
      ],
      "stateMutability": "view",
      "type": "function",
      "constant": true
    },
    {
      "inputs": [
        {
          "internalType": "uint256",
          "name": "id",
          "type": "uint256"
        }
      ],
      "name": "totalSupply",
      "outputs": [
        {
          "internalType": "uint256",
          "name": "",
          "type": "uint256"
        }
      ],
      "stateMutability": "view",
      "type": "function",
      "constant": true
    },
    {
      "inputs": [
        {
          "internalType": "address",
          "name": "newImplementation",
          "type": "address"
        }
      ],
      "name": "upgradeTo",
      "outputs": [],
      "stateMutability": "nonpayable",
      "type": "function"
    },
    {
      "inputs": [
        {
          "internalType": "address",
          "name": "newImplementation",
          "type": "address"
        },
        {
          "internalType": "bytes",
          "name": "data",
          "type": "bytes"
        }
      ],
      "name": "upgradeToAndCall",
      "outputs": [],
      "stateMutability": "payable",
      "type": "function",
      "payable": true
    },
    {
      "inputs": [
        {
          "internalType": "uint256",
          "name": "",
          "type": "uint256"
        }
      ],
      "name": "uri",
      "outputs": [
        {
          "internalType": "string",
          "name": "",
          "type": "string"
        }
      ],
      "stateMutability": "view",
      "type": "function",
      "constant": true
    },
    {
      "inputs": [
        {
          "internalType": "address",
          "name": "_contractRegistry",
          "type": "address"
        },
        {
          "internalType": "address",
          "name": "_owner",
          "type": "address"
        },
        {
          "internalType": "uint256",
          "name": "_projectId",
          "type": "uint256"
        },
        {
          "internalType": "string",
          "name": "_projectName",
          "type": "string"
        }
      ],
      "name": "initialize",
      "outputs": [],
      "stateMutability": "nonpayable",
      "type": "function"
    },
    {
      "inputs": [
        {
          "internalType": "uint256",
          "name": "tokenId",
          "type": "uint256"
        }
      ],
      "name": "isExPostToken",
      "outputs": [
        {
          "internalType": "bool",
          "name": "",
          "type": "bool"
        }
      ],
      "stateMutability": "view",
      "type": "function",
      "constant": true
    },
    {
      "inputs": [],
      "name": "testUpgrade",
      "outputs": [
        {
          "internalType": "string",
          "name": "",
          "type": "string"
        }
      ],
      "stateMutability": "pure",
      "type": "function",
      "constant": true
    },
    {
      "inputs": [
        {
          "internalType": "uint256",
          "name": "estAmount",
          "type": "uint256"
        },
        {
          "internalType": "uint256",
          "name": "verificationPeriodStart",
          "type": "uint256"
        },
        {
          "internalType": "uint256",
          "name": "verificationPeriodEnd",
          "type": "uint256"
        },
        {
          "internalType": "string",
          "name": "serialization",
          "type": "string"
        }
      ],
      "name": "createExPostVintage",
      "outputs": [],
      "stateMutability": "nonpayable",
      "type": "function"
    },
    {
      "inputs": [
        {
          "components": [
            {
              "internalType": "string",
              "name": "serialization",
              "type": "string"
            },
            {
              "internalType": "uint256",
              "name": "estMitigations",
              "type": "uint256"
            },
            {
              "internalType": "uint256",
              "name": "verificationPeriodStart",
              "type": "uint256"
            },
            {
              "internalType": "uint256",
              "name": "verificationPeriodEnd",
              "type": "uint256"
            },
            {
              "internalType": "uint256",
              "name": "lastVerificationTimestamp",
              "type": "uint256"
            }
          ],
          "internalType": "struct VintageData[]",
          "name": "vintages",
          "type": "tuple[]"
        }
      ],
      "name": "createExPostVintageBatch",
      "outputs": [],
      "stateMutability": "nonpayable",
      "type": "function"
    },
    {
      "inputs": [
        {
          "internalType": "address",
          "name": "account",
          "type": "address"
        },
        {
          "internalType": "uint256",
          "name": "exPostTokenId",
          "type": "uint256"
        },
        {
          "internalType": "uint256",
          "name": "amount",
          "type": "uint256"
        },
        {
          "internalType": "bytes",
          "name": "data",
          "type": "bytes"
        }
      ],
      "name": "mintExAnte",
      "outputs": [],
      "stateMutability": "nonpayable",
      "type": "function"
    },
    {
      "inputs": [
        {
          "internalType": "uint256",
          "name": "tokenId",
          "type": "uint256"
        },
        {
          "internalType": "uint256",
          "name": "newEstAmount",
          "type": "uint256"
        },
        {
          "internalType": "enum AdminActionReason",
          "name": "reason",
          "type": "uint8"
        }
      ],
      "name": "changeVintageMitigationEstimate",
      "outputs": [],
      "stateMutability": "nonpayable",
      "type": "function"
    },
    {
      "inputs": [
        {
          "internalType": "address",
          "name": "verificationVault",
          "type": "address"
        },
        {
          "internalType": "uint256",
          "name": "tokenId",
          "type": "uint256"
        },
        {
          "internalType": "uint256",
          "name": "amountVerified",
          "type": "uint256"
        },
        {
          "internalType": "uint256",
          "name": "amountToAnteHolders",
          "type": "uint256"
        },
        {
          "internalType": "uint256",
          "name": "verificationPeriodStart",
          "type": "uint256"
        },
        {
          "internalType": "uint256",
          "name": "verificationPeriodEnd",
          "type": "uint256"
        },
        {
          "internalType": "string",
          "name": "monitoringReport",
          "type": "string"
        }
      ],
      "name": "verifyAndMintExPost",
      "outputs": [],
      "stateMutability": "nonpayable",
      "type": "function"
    },
    {
      "inputs": [
        {
          "internalType": "address",
          "name": "from",
          "type": "address"
        },
        {
          "internalType": "uint256",
          "name": "tokenId",
          "type": "uint256"
        },
        {
          "internalType": "uint256",
          "name": "amount",
          "type": "uint256"
        },
        {
          "internalType": "enum AdminActionReason",
          "name": "reason",
          "type": "uint8"
        }
      ],
      "name": "adminBurn",
      "outputs": [],
      "stateMutability": "nonpayable",
      "type": "function"
    },
    {
      "inputs": [
        {
          "internalType": "address",
          "name": "from",
          "type": "address"
        },
        {
          "internalType": "address",
          "name": "to",
          "type": "address"
        },
        {
          "internalType": "uint256",
          "name": "tokenId",
          "type": "uint256"
        },
        {
          "internalType": "uint256",
          "name": "amount",
          "type": "uint256"
        },
        {
          "internalType": "enum AdminActionReason",
          "name": "reason",
          "type": "uint8"
        }
      ],
      "name": "adminClawback",
      "outputs": [],
      "stateMutability": "nonpayable",
      "type": "function"
    },
    {
      "inputs": [
        {
          "internalType": "address[]",
          "name": "accounts",
          "type": "address[]"
        },
        {
          "internalType": "uint256",
          "name": "exPostTokenId",
          "type": "uint256"
        },
        {
          "internalType": "bytes",
          "name": "data",
          "type": "bytes"
        }
      ],
      "name": "exchangeAnteForPostEvenSteven",
      "outputs": [],
      "stateMutability": "nonpayable",
      "type": "function"
    },
    {
      "inputs": [
        {
          "internalType": "uint256",
          "name": "exAnteTokenId",
          "type": "uint256"
        }
      ],
      "name": "getExPostVintageData",
      "outputs": [
        {
          "components": [
            {
              "internalType": "string",
              "name": "serialization",
              "type": "string"
            },
            {
              "internalType": "uint256",
              "name": "estMitigations",
              "type": "uint256"
            },
            {
              "internalType": "uint256",
              "name": "verificationPeriodStart",
              "type": "uint256"
            },
            {
              "internalType": "uint256",
              "name": "verificationPeriodEnd",
              "type": "uint256"
            },
            {
              "internalType": "uint256",
              "name": "lastVerificationTimestamp",
              "type": "uint256"
            }
          ],
          "internalType": "struct VintageData",
          "name": "",
          "type": "tuple"
        }
      ],
      "stateMutability": "view",
      "type": "function",
      "constant": true
    },
    {
      "inputs": [
        {
          "internalType": "bytes",
          "name": "signature",
          "type": "bytes"
        },
        {
          "components": [
            {
              "internalType": "uint256",
              "name": "deadline",
              "type": "uint256"
            },
            {
              "internalType": "string",
              "name": "description",
              "type": "string"
            },
            {
              "internalType": "address",
              "name": "signer",
              "type": "address"
            },
            {
              "internalType": "address",
              "name": "to",
              "type": "address"
            },
            {
              "internalType": "uint256",
              "name": "tokenId",
              "type": "uint256"
            },
            {
              "internalType": "uint256",
              "name": "amount",
              "type": "uint256"
            },
            {
              "internalType": "uint256",
              "name": "nonce",
              "type": "uint256"
            }
          ],
          "internalType": "struct signatureTransferPayload",
          "name": "payload",
          "type": "tuple"
        },
        {
          "internalType": "string",
          "name": "retireeName",
          "type": "string"
        },
        {
          "internalType": "string",
          "name": "customUri",
          "type": "string"
        },
        {
          "internalType": "string",
          "name": "comment",
          "type": "string"
        },
        {
          "internalType": "bytes",
          "name": "data",
          "type": "bytes"
        }
      ],
      "name": "transferAndRetireFromSignature",
      "outputs": [
        {
          "internalType": "uint256",
          "name": "nftTokenId",
          "type": "uint256"
        }
      ],
      "stateMutability": "nonpayable",
      "type": "function"
    },
    {
      "inputs": [
        {
          "internalType": "bytes",
          "name": "signature",
          "type": "bytes"
        },
        {
          "components": [
            {
              "internalType": "uint256",
              "name": "deadline",
              "type": "uint256"
            },
            {
              "internalType": "string",
              "name": "description",
              "type": "string"
            },
            {
              "internalType": "address",
              "name": "signer",
              "type": "address"
            },
            {
              "internalType": "address",
              "name": "to",
              "type": "address"
            },
            {
              "internalType": "uint256",
              "name": "tokenId",
              "type": "uint256"
            },
            {
              "internalType": "uint256",
              "name": "amount",
              "type": "uint256"
            },
            {
              "internalType": "uint256",
              "name": "nonce",
              "type": "uint256"
            }
          ],
          "internalType": "struct signatureTransferPayload",
          "name": "payload",
          "type": "tuple"
        },
        {
          "internalType": "bytes",
          "name": "data",
          "type": "bytes"
        }
      ],
      "name": "transferFromSignature",
      "outputs": [],
      "stateMutability": "payable",
      "type": "function",
      "payable": true
    },
    {
      "inputs": [
        {
          "internalType": "uint256",
          "name": "tokenId",
          "type": "uint256"
        },
        {
          "internalType": "uint256",
          "name": "amount",
          "type": "uint256"
        },
        {
          "internalType": "string",
          "name": "retireeName",
          "type": "string"
        },
        {
          "internalType": "string",
          "name": "customUri",
          "type": "string"
        },
        {
          "internalType": "string",
          "name": "comment",
          "type": "string"
        },
        {
          "internalType": "bytes",
          "name": "data",
          "type": "bytes"
        }
      ],
      "name": "retire",
      "outputs": [
        {
          "internalType": "uint256",
          "name": "nftTokenId",
          "type": "uint256"
        }
      ],
      "stateMutability": "nonpayable",
      "type": "function"
    },
    {
      "inputs": [
        {
          "internalType": "bytes",
          "name": "signature",
          "type": "bytes"
        },
        {
          "components": [
            {
              "internalType": "uint256",
              "name": "deadline",
              "type": "uint256"
            },
            {
              "internalType": "string",
              "name": "description",
              "type": "string"
            },
            {
              "internalType": "address",
              "name": "signer",
              "type": "address"
            },
            {
              "internalType": "address",
              "name": "to",
              "type": "address"
            },
            {
              "internalType": "uint256",
              "name": "tokenId",
              "type": "uint256"
            },
            {
              "internalType": "uint256",
              "name": "amount",
              "type": "uint256"
            },
            {
              "internalType": "uint256",
              "name": "nonce",
              "type": "uint256"
            }
          ],
          "internalType": "struct signatureTransferPayload",
          "name": "payload",
          "type": "tuple"
        },
        {
          "internalType": "string",
          "name": "retireeName",
          "type": "string"
        },
        {
          "internalType": "string",
          "name": "customUri",
          "type": "string"
        },
        {
          "internalType": "string",
          "name": "comment",
          "type": "string"
        },
        {
          "internalType": "bytes",
          "name": "data",
          "type": "bytes"
        }
      ],
      "name": "retireFromSignature",
      "outputs": [
        {
          "internalType": "uint256",
          "name": "nftTokenId",
          "type": "uint256"
        }
      ],
      "stateMutability": "nonpayable",
      "type": "function"
    },
    {
      "inputs": [
        {
          "internalType": "bytes",
          "name": "signature",
          "type": "bytes"
        },
        {
          "components": [
            {
              "internalType": "uint256",
              "name": "deadline",
              "type": "uint256"
            },
            {
              "internalType": "string",
              "name": "description",
              "type": "string"
            },
            {
              "internalType": "address",
              "name": "signer",
              "type": "address"
            },
            {
              "internalType": "address",
              "name": "to",
              "type": "address"
            },
            {
              "internalType": "uint256",
              "name": "tokenId",
              "type": "uint256"
            },
            {
              "internalType": "uint256",
              "name": "amount",
              "type": "uint256"
            },
            {
              "internalType": "uint256",
              "name": "nonce",
              "type": "uint256"
            }
          ],
          "internalType": "struct signatureTransferPayload",
          "name": "payload",
          "type": "tuple"
        },
        {
          "internalType": "string",
          "name": "comment",
          "type": "string"
        },
        {
          "internalType": "bytes",
          "name": "data",
          "type": "bytes"
        }
      ],
      "name": "cancelCreditsFromSignature",
      "outputs": [],
      "stateMutability": "nonpayable",
      "type": "function"
    },
    {
      "inputs": [
        {
          "internalType": "string",
          "name": "newuri",
          "type": "string"
        }
      ],
      "name": "setURI",
      "outputs": [],
      "stateMutability": "nonpayable",
      "type": "function"
    },
    {
      "inputs": [],
      "name": "pause",
      "outputs": [],
      "stateMutability": "nonpayable",
      "type": "function"
    },
    {
      "inputs": [],
      "name": "unpause",
      "outputs": [],
      "stateMutability": "nonpayable",
      "type": "function"
    },
    {
      "inputs": [
        {
          "internalType": "bytes4",
          "name": "interfaceId",
          "type": "bytes4"
        }
      ],
      "name": "supportsInterface",
      "outputs": [
        {
          "internalType": "bool",
          "name": "",
          "type": "bool"
        }
      ],
      "stateMutability": "view",
      "type": "function",
      "constant": true
    }
  ],
  "bytecode": "0x60a0604052306080523480156200001557600080fd5b506200002062000026565b620000e8565b600054610100900460ff1615620000935760405162461bcd60e51b815260206004820152602760248201527f496e697469616c697a61626c653a20636f6e747261637420697320696e697469604482015266616c697a696e6760c81b606482015260840160405180910390fd5b60005460ff9081161015620000e6576000805460ff191660ff9081179091556040519081527f7f26b83ff96e1f2b6a682f133852f6798a09c465da95921460cefb38474024989060200160405180910390a15b565b608051615f8b62000120600039600081816115e50152818161162501528181611a7c01528181611abc0152611b470152615f8b6000f3fe6080604052600436106102dd5760003560e01c8062fdd58e146102e257806301ffc9a71461031557806302fe5305146103455780630cda95f9146103675780630e89341c1461038757806310c1e7a1146103b45780631b3b596b146103d457806322088ebf14610401578063248a9ca314610421578063282c51f3146104415780632ea05e44146104635780632eb2c2d6146104855780632f2ff15d146104a55780633584c384146104c557806336568abe146104f35780633659cfe6146105135780633a6e48b8146105335780633f4ba83a146105535780633fafa1271461056857806341a30d3c1461057f5780634e1273f41461059f5780634f1ef286146105cc5780634f558e79146105df57806352d1902d146105ff57806354ff07951461061457806357c537af1461064d5780635c975abb1461066d5780635e3bbaab14610685578063609d9564146106a7578063610e7012146106c757806361eeb089146106f45780636929a19c1461070b5780636f63984d1461073d578063728e68e31461075d57806379c276051461078e5780637f345710146107ae5780638456cb59146107d05780638f76c1da146107e557806391d148541461081357806396f495ae146108335780639a33e300146108535780639d6aed0b146108685780639d88358a146108965780639fec600b146108b6578063a0e1b171146108d6578063a217fddf146108f6578063a22cb4651461090b578063aa8b2ea71461092b578063abf410e51461094d578063af93ff721461097b578063bc197c811461099b578063bd85b039146109e0578063d539139314610a00578063d547741f14610a34578063dbd8483d14610a54578063deb0420714610a9d578063e36408d014610abd578063e63ab1e914610ad0578063e7705db614610af2578063e985e9c514610b14578063edc0b2e614610b5d578063f23a6e6114610b7f578063f242432a14610bab578063f515e6f214610bcb578063f72c0d8b14610bed575b600080fd5b3480156102ee57600080fd5b506103026102fd366004614793565b610c0f565b6040519081526020015b60405180910390f35b34801561032157600080fd5b506103356103303660046147d3565b610ca7565b604051901515815260200161030c565b34801561035157600080fd5b506103656103603660046148ca565b610cb8565b005b34801561037357600080fd5b50610365610382366004614999565b610cdd565b34801561039357600080fd5b506103a76103a2366004614a05565b610ea2565b60405161030c9190614a76565b3480156103c057600080fd5b506103656103cf366004614a89565b610f36565b3480156103e057600080fd5b506103f46103ef366004614a05565b611117565b60405161030c9190614ae9565b34801561040d57600080fd5b5061036561041c366004614b92565b611236565b34801561042d57600080fd5b5061030261043c366004614a05565b6114df565b34801561044d57600080fd5b50610302600080516020615d2f83398151915281565b34801561046f57600080fd5b50610302600080516020615ef683398151915281565b34801561049157600080fd5b506103656104a0366004614caa565b6114f4565b3480156104b157600080fd5b506103656104c0366004614d39565b611540565b3480156104d157600080fd5b506103026104e0366004614a05565b6101fe6020526000908152604090205481565b3480156104ff57600080fd5b5061036561050e366004614d39565b611561565b34801561051f57600080fd5b5061036561052e366004614d65565b6115db565b34801561053f57600080fd5b5061030261054e366004614d80565b6116a3565b34801561055f57600080fd5b506103656116e6565b34801561057457600080fd5b506103026101f85481565b34801561058b57600080fd5b5061036561059a366004614e3e565b611706565b3480156105ab57600080fd5b506105bf6105ba366004614ebb565b611949565b60405161030c9190614f59565b6103656105da366004614f6c565b611a72565b3480156105eb57600080fd5b506103356105fa366004614a05565b611b27565b34801561060b57600080fd5b50610302611b3a565b34801561062057600080fd5b5061030261062f3660046148ca565b80516020818301810180516101ff8252928201919093012091525481565b34801561065957600080fd5b50610365610668366004614fbe565b611be9565b34801561067957600080fd5b5060c95460ff16610335565b34801561069157600080fd5b50610302600080516020615f1683398151915281565b3480156106b357600080fd5b506103026106c2366004614ff3565b611ceb565b3480156106d357600080fd5b506101f9546106e29060ff1681565b60405160ff909116815260200161030c565b34801561070057600080fd5b506103026101f75481565b34801561071757600080fd5b5061072b610726366004614a05565b611e5f565b60405161030c969594939291906150ec565b34801561074957600080fd5b50610335610758366004614a05565b612039565b34801561076957600080fd5b5061077d610778366004614a05565b612060565b60405161030c95949392919061513f565b34801561079a57600080fd5b506103656107a9366004615176565b612117565b3480156107ba57600080fd5b50610302600080516020615e4f83398151915281565b3480156107dc57600080fd5b506103656121cd565b3480156107f157600080fd5b50610302610800366004614a05565b6101fd6020526000908152604090205481565b34801561081f57600080fd5b5061033561082e366004614d39565b6121ed565b34801561083f57600080fd5b5061036561084e366004615292565b612218565b34801561085f57600080fd5b506103a761231a565b34801561087457600080fd5b50604080518082019091526005815264181718171960d91b60208201526103a7565b3480156108a257600080fd5b506103656108b13660046152e9565b6123a9565b3480156108c257600080fd5b506103656108d136600461532f565b612422565b3480156108e257600080fd5b506103656108f136600461535c565b612648565b34801561090257600080fd5b50610302600081565b34801561091757600080fd5b5061036561092636600461539d565b6127e7565b34801561093757600080fd5b50610302600080516020615e2f83398151915281565b34801561095957600080fd5b506101fb5461096e906001600160a01b031681565b60405161030c91906153d9565b34801561098757600080fd5b50610302610996366004614ff3565b6127f2565b3480156109a757600080fd5b506109c76109b6366004614caa565b63bc197c8160e01b95945050505050565b6040516001600160e01b0319909116815260200161030c565b3480156109ec57600080fd5b506103026109fb366004614a05565b612945565b348015610a0c57600080fd5b506103027f9f2df0fed2c77648de5860a4cc508cd0818c85b8b8a1ab4ceeef8d981c8956a681565b348015610a4057600080fd5b50610365610a4f366004614d39565b612957565b348015610a6057600080fd5b50610a88610a6f366004614d65565b6101c56020526000908152604090205463ffffffff1681565b60405163ffffffff909116815260200161030c565b348015610aa957600080fd5b50610365610ab83660046153ed565b612973565b610365610acb366004615444565b612a0a565b348015610adc57600080fd5b50610302600080516020615e8f83398151915281565b348015610afe57600080fd5b50610302600080516020615f3683398151915281565b348015610b2057600080fd5b50610335610b2f3660046154c5565b6001600160a01b03918216600090815260666020908152604080832093909416825291909152205460ff1690565b348015610b6957600080fd5b50610302600080516020615d8f83398151915281565b348015610b8b57600080fd5b506109c7610b9a3660046154ef565b63f23a6e6160e01b95945050505050565b348015610bb757600080fd5b50610365610bc63660046154ef565b612b3e565b348015610bd757600080fd5b50610302600080516020615ed683398151915281565b348015610bf957600080fd5b50610302600080516020615def83398151915281565b60006001600160a01b038316610c7f5760405162461bcd60e51b815260206004820152602a60248201527f455243313135353a2061646472657373207a65726f206973206e6f742061207660448201526930b634b21037bbb732b960b11b60648201526084015b60405180910390fd5b5060009081526065602090815260408083206001600160a01b03949094168352929052205490565b6000610cb282612b83565b92915050565b600080516020615e4f833981519152610cd081612ba8565b610cd982612bb2565b5050565b81610ce781612039565b610d035760405162461bcd60e51b8152600401610c7690615553565b60008381526101fe602052604081205490819003610d335760405162461bcd60e51b8152600401610c769061556e565b6000610d3e82612945565b90506000610d4c3087610c0f565b905060008111610d835760405162461bcd60e51b8152602060048201526002602482015261031360f41b6044820152606401610c76565b60005b8751811015610e98576000610db4898381518110610da657610da6615589565b602002602001015186610c0f565b9050600084610dc385846155b5565b610dcd91906155d4565b90508181811115610ddb5750805b898b8581518110610dee57610dee615589565b60200260200101516001600160a01b03167ffa5cd0fcb25938b2f45b3ca175241bfb3739cf4db3cb7476846930ec714f13f28484604051610e309291906155f6565b60405180910390a3610e5c8b8581518110610e4d57610e4d615589565b60200260200101518883612bc5565b610e82308c8681518110610e7257610e72615589565b60200260200101518c858d612d4f565b5050508080610e9090615604565b915050610d86565b5050505050505050565b606060678054610eb19061561d565b80601f0160208091040260200160405190810160405280929190818152602001828054610edd9061561d565b8015610f2a5780601f10610eff57610100808354040283529160200191610f2a565b820191906000526020600020905b815481529060010190602001808311610f0d57829003601f168201915b50505050509050919050565b600080516020615d8f833981519152610f4e81612ba8565b83610f5881612039565b610f745760405162461bcd60e51b8152600401610c7690615553565b60008581526101fc602052604081206003810154600490910154879111604051806040016040528060018152602001603360f81b81525090610fc95760405162461bcd60e51b8152600401610c769190614a76565b5060008781526101fe60205260408120549081900361100257506101f780546001019081905560008881526101fe602052604090208190555b60008881526101fc60205260408120600101549061101f8a612945565b9050600061102d8284615651565b6101f9549091506000906064906110479060ff16846155b5565b61105191906155d4565b9050600061105e86612945565b90508161106b8d83615668565b111561109d5760405162461bcd60e51b81526020600482015260016024820152603560f81b6044820152606401610c76565b8c6101fd6000888152602001908152602001600020819055508d6001600160a01b03168d877f1fe9ade752d24e4f4dca10f5c807a7cc8630c7604280c8b124097d93b5bb02a18f6040516110f391815260200190565b60405180910390a46111078e878e8e612e85565b5050505050505050505050505050565b6111496040518060a0016040528060608152602001600081526020016000815260200160008152602001600081525090565b60008281526101fd60209081526040808320548084526101fc90925291829020825160a081019093528054919291829082906111849061561d565b80601f01602080910402602001604051908101604052809291908181526020018280546111b09061561d565b80156111fd5780601f106111d2576101008083540402835291602001916111fd565b820191906000526020600020905b8154815290600101906020018083116111e057829003601f168201915b50505050508152602001600182015481526020016002820154815260200160038201548152602001600482015481525050915050919050565b826080013561124481612039565b6112605760405162461bcd60e51b8152600401610c7690615553565b858585600080516020615dcf833981519152838383604051611284939291906156a9565b60405180910390a1600061139b600080516020615d6f83398151915283356112af6020860186615781565b6040516020016112c09291906157c7565b604051602081830303815290604052805190602001208560400160208101906112e99190614d65565b6112f96080880160608901614d65565b608088013560a08901356101c5600061131860608d0160408e01614d65565b6001600160a01b03908116825260208083019390935260409182016000205482519384019a909a529082019790975260608101959095529285166080850152931660a083015260c082019290925260e081019190915263ffffffff9091166101008201526101200160405160208183030381529060405280519060200120612f9d565b90506113ef8185858080601f0160208091040260200160405190810160405280939291908181526020018383808284376000920191909152506113e8925050506060860160408701614d65565b8535612feb565b506101c560006114056060850160408601614d65565b6001600160a01b0316815260208101919091526040016000908120805463ffffffff1691611432836157d7565b91906101000a81548163ffffffff021916908363ffffffff1602179055505087608001358860400160208101906114699190614d65565b6001600160a01b03167f782105afe5542acae5ab54dc3dab8b54887fd38a79f55330b3e1e70c3063d67b8a60a001358a8a6040516114a9939291906157fa565b60405180910390a36114d36114c460608a0160408b01614d65565b89608001358a60a00135612bc5565b50505050505050505050565b60009081526097602052604090206001015490565b6001600160a01b03851633148061151057506115108533610b2f565b61152c5760405162461bcd60e51b8152600401610c769061582f565b61153985858585856130ad565b5050505050565b611549826114df565b61155281612ba8565b61155c8383613293565b505050565b6001600160a01b03811633146115d15760405162461bcd60e51b815260206004820152602f60248201527f416363657373436f6e74726f6c3a2063616e206f6e6c792072656e6f756e636560448201526e103937b632b9903337b91039b2b63360891b6064820152608401610c76565b610cd98282613319565b6001600160a01b037f00000000000000000000000000000000000000000000000000000000000000001630036116235760405162461bcd60e51b8152600401610c769061587d565b7f00000000000000000000000000000000000000000000000000000000000000006001600160a01b0316611655613380565b6001600160a01b03161461167b5760405162461bcd60e51b8152600401610c76906158b7565b6116848161339c565b604080516000808252602082019092526116a0918391906133b4565b50565b6000866116af81612039565b6116cb5760405162461bcd60e51b8152600401610c7690615553565b6116da3389898989898961351f565b98975050505050505050565b600080516020615e8f8339815191526116fe81612ba8565b6116a061358d565b600080516020615f3683398151915261171e81612ba8565b8661172881612039565b6117445760405162461bcd60e51b8152600401610c7690615553565b60008881526101fc6020526040812060038101546004909101548a9111604051806040016040528060018152602001603360f81b815250906117995760405162461bcd60e51b8152600401610c769190614a76565b50878910156117ce5760405162461bcd60e51b81526020600482015260016024820152601b60f91b6044820152606401610c76565b60008a81526101fc60205260409020600201548610156118145760405162461bcd60e51b81526020600482015260016024820152603760f81b6044820152606401610c76565b60008a81526101fc602052604090206004015486116118595760405162461bcd60e51b81526020600482015260016024820152600760fb1b6044820152606401610c76565b60008a81526101fe60205260408120549081900361188f57881561188f5760405162461bcd60e51b8152600401610c769061556e565b8a7fe19de0f3da1193000100a217838f49f6bdda20dc974d33b61f92faaf446d181d8b8b8b8b8b6040516118c79594939291906158f1565b60405180910390a260006118db8a8c615651565b1115611905576119058c8c6118f08c8e615651565b60405180602001604052806000815250612e85565b60008b81526101fc60205260409020600401879055881561193b5761193b308c8b60405180602001604052806000815250612e85565b505050505050505050505050565b606081518351146119ae5760405162461bcd60e51b815260206004820152602960248201527f455243313135353a206163636f756e747320616e6420696473206c656e677468604482015268040dad2e6dac2e8c6d60bb1b6064820152608401610c76565b600083516001600160401b038111156119c9576119c96147f0565b6040519080825280602002602001820160405280156119f2578160200160208202803683370190505b50905060005b8451811015611a6a57611a3d858281518110611a1657611a16615589565b6020026020010151858381518110611a3057611a30615589565b6020026020010151610c0f565b828281518110611a4f57611a4f615589565b6020908102919091010152611a6381615604565b90506119f8565b509392505050565b6001600160a01b037f0000000000000000000000000000000000000000000000000000000000000000163003611aba5760405162461bcd60e51b8152600401610c769061587d565b7f00000000000000000000000000000000000000000000000000000000000000006001600160a01b0316611aec613380565b6001600160a01b031614611b125760405162461bcd60e51b8152600401610c76906158b7565b611b1b8261339c565b610cd9828260016133b4565b600080611b3383612945565b1192915050565b6000306001600160a01b037f00000000000000000000000000000000000000000000000000000000000000001614611bd55760405162461bcd60e51b815260206004820152603860248201527f555550535570677261646561626c653a206d757374206e6f742062652063616c6044820152771b1959081d1a1c9bdd59da0819195b1959d85d1958d85b1b60421b6064820152608401610c76565b50600080516020615e0f8339815191525b90565b6000611bf481612ba8565b83611bfe81612039565b611c1a5760405162461bcd60e51b8152600401610c7690615553565b60008581526101fc602052604081206003810154600490910154879111604051806040016040528060018152602001603360f81b81525090611c6f5760405162461bcd60e51b8152600401610c769190614a76565b50846004811115611c8257611c8261591c565b60008881526101fc60205260409081902060010154905189917f79ad675a154518428a5aa59f22c834871a66d54a46e3f4c8c5b4ee08fb576c2e91611cc8918b916155f6565b60405180910390a3505050600093845250506101fc602052604090912060010155565b60008560800135611cfb81612039565b611d175760405162461bcd60e51b8152600401610c7690615553565b888888600080516020615dcf833981519152838383604051611d3b939291906156a9565b60405180910390a16000611d66600080516020615d6f83398151915283356112af6020860186615781565b9050611db38185858080601f0160208091040260200160405190810160405280939291908181526020018383808284376000920191909152506113e8925050506060860160408701614d65565b506101c56000611dc96060850160408601614d65565b6001600160a01b0316815260208101919091526040016000908120805463ffffffff1691611df6836157d7565b91906101000a81548163ffffffff021916908363ffffffff16021790555050611e4e8b6040016020810190611e2b9190614d65565b611e3b60808e0160608f01614d65565b8d608001358e60a001358e8e8e8e6135d9565b9d9c50505050505050505050505050565b6102006020526000908152604090208054600182015460028301546003840180546001600160a01b03909416949293919291611e9a9061561d565b80601f0160208091040260200160405190810160405280929190818152602001828054611ec69061561d565b8015611f135780601f10611ee857610100808354040283529160200191611f13565b820191906000526020600020905b815481529060010190602001808311611ef657829003601f168201915b505050505090806004018054611f289061561d565b80601f0160208091040260200160405190810160405280929190818152602001828054611f549061561d565b8015611fa15780601f10611f7657610100808354040283529160200191611fa1565b820191906000526020600020905b815481529060010190602001808311611f8457829003601f168201915b505050505090806005018054611fb69061561d565b80601f0160208091040260200160405190810160405280929190818152602001828054611fe29061561d565b801561202f5780601f106120045761010080835404028352916020019161202f565b820191906000526020600020905b81548152906001019060200180831161201257829003601f168201915b5050505050905086565b60008181526101fc6020526040812080548291906120569061561d565b9050119050919050565b6101fc6020526000908152604090208054819061207c9061561d565b80601f01602080910402602001604051908101604052809291908181526020018280546120a89061561d565b80156120f55780601f106120ca576101008083540402835291602001916120f5565b820191906000526020600020905b8154815290600101906020018083116120d857829003601f168201915b5050505050908060010154908060020154908060030154908060040154905085565b600080516020615f1683398151915261212f81612ba8565b60005b825181101561155c576121bb83828151811061215057612150615589565b60200260200101516020015184838151811061216e5761216e615589565b60200260200101516040015185848151811061218c5761218c615589565b6020026020010151606001518685815181106121aa576121aa615589565b602002602001015160000151612648565b806121c581615604565b915050612132565b600080516020615e8f8339815191526121e581612ba8565b6116a0613604565b60009182526097602090815260408084206001600160a01b0393909316845291905290205460ff1690565b600054610100900460ff16158080156122385750600054600160ff909116105b80612259575061224730613641565b158015612259575060005460ff166001145b6122755760405162461bcd60e51b8152600401610c7690615932565b6000805460ff191660011790558015612298576000805461ff0019166101001790555b6101f9805460ff191660ff86161790556101f883905581516122c2906101fa9060208501906146de565b506101fb80546001600160a01b0319166001600160a01b0387161790558015611539576000805461ff001916905560405160018152600080516020615e6f833981519152906020015b60405180910390a15050505050565b6101fa80546123289061561d565b80601f01602080910402602001604051908101604052809291908181526020018280546123549061561d565b80156123a15780601f10612376576101008083540402835291602001916123a1565b820191906000526020600020905b81548152906001019060200180831161238457829003601f168201915b505050505081565b600080516020615d2f8339815191526123c181612ba8565b8160048111156123d3576123d361591c565b84866001600160a01b03167f28307ba5beac24bbe02c6541395dc897a2c9a884977343cfc55d6bef99a178cf8660405161240f91815260200190565b60405180910390a4611539858585612bc5565b600054610100900460ff16158080156124425750600054600160ff909116105b80612463575061245130613641565b158015612463575060005460ff166001145b61247f5760405162461bcd60e51b8152600401610c7690615932565b6000805460ff1916600117905580156124a2576000805461ff0019166101001790555b6124ba60405180602001604052806000815250613650565b6124c2613680565b6124ca6136a9565b6124d2613680565b6124da613680565b6125286040518060400160405280600f81526020016e436172626f6e20526567697374727960881b81525060405180604001604052806005815260200164302e302e3160d81b8152506136d8565b6125358560328585612218565b612540600085613293565b612558600080516020615e4f83398151915285613293565b612570600080516020615e8f83398151915285613293565b612588600080516020615d8f83398151915285613293565b6125a0600080516020615f1683398151915285613293565b6125b8600080516020615def83398151915285613293565b6125d0600080516020615ed683398151915285613293565b6125e8600080516020615f3683398151915285613293565b612600600080516020615ef683398151915285613293565b612618600080516020615f1683398151915233613293565b8015611539576000805461ff001916905560405160018152600080516020615e6f8339815191529060200161230b565b600080516020615f1683398151915261266081612ba8565b8383116126935760405162461bcd60e51b81526020600482015260016024820152600d60fa1b6044820152606401610c76565b60006126a76101f780546001019081905590565b6101fb546040516344d9d59b60e01b81529192506001600160a01b0316906344d9d59b906126d9908690600401614a76565b600060405180830381600087803b1580156126f357600080fd5b505af1158015612707573d6000803e3d6000fd5b50505050806101ff8460405161271d9190615980565b90815260408051602092819003830181209390935560a083018152858352818301899052828101889052606083018790526000608084018190528481526101fc835220825180519192612775928492909101906146de565b5060208201518160010155604082015181600201556060820151816003015560808201518160040155905050807fc5fb6d85b5baef0a615415607787aea341771027b7e4da34da58eaeb661154ea878787876040516127d7949392919061599c565b60405180910390a2505050505050565b610cd9338383613709565b6000856080013561280281612039565b61281e5760405162461bcd60e51b8152600401610c7690615553565b888888600080516020615dcf833981519152838383604051612842939291906156a9565b60405180910390a1600061286d600080516020615d6f83398151915283356112af6020860186615781565b90506128ba8185858080601f0160208091040260200160405190810160405280939291908181526020018383808284376000920191909152506113e8925050506060860160408701614d65565b506101c560006128d06060850160408601614d65565b6001600160a01b0316815260208101919091526040016000908120805463ffffffff16916128fd836157d7565b91906101000a81548163ffffffff021916908363ffffffff16021790555050611e4e8b60400160208101906129329190614d65565b8c608001358d60a001358d8d8d8d61351f565b600090815260fb602052604090205490565b612960826114df565b61296981612ba8565b61155c8383613319565b600080516020615ef683398151915261298b81612ba8565b81600481111561299d5761299d61591c565b604080516001600160a01b038881168252602082018790528792908a16917fa8b90aeef4d9590cac2ff486fc2b5d9749ed41f9388a7eb159eef94cf5fb65ab910160405180910390a4612a028686868660405180602001604052806000815250612d4f565b505050505050565b838383600080516020615dcf833981519152838383604051612a2e939291906156a9565b60405180910390a16000612a59600080516020615d6f83398151915283356112af6020860186615781565b9050612aa68185858080601f0160208091040260200160405190810160405280939291908181526020018383808284376000920191909152506113e8925050506060860160408701614d65565b506101c56000612abc6060850160408601614d65565b6001600160a01b0316815260208101919091526040016000908120805463ffffffff1691612ae9836157d7565b91906101000a81548163ffffffff021916908363ffffffff16021790555050610e98866040016020810190612b1e9190614d65565b612b2e6080890160608a01614d65565b88608001358960a0013589612d4f565b6001600160a01b038516331480612b5a5750612b5a8533610b2f565b612b765760405162461bcd60e51b8152600401610c769061582f565b6115398585858585612d4f565b60006001600160e01b03198216630271189760e51b1480610cb25750610cb2826137e9565b6116a0813361380e565b8051610cd99060679060208401906146de565b6001600160a01b038316612c275760405162461bcd60e51b815260206004820152602360248201527f455243313135353a206275726e2066726f6d20746865207a65726f206164647260448201526265737360e81b6064820152608401610c76565b336000612c3384613867565b90506000612c4084613867565b9050612c60838760008585604051806020016040528060008152506138b2565b60008581526065602090815260408083206001600160a01b038a16845290915290205484811015612cdf5760405162461bcd60e51b8152602060048201526024808201527f455243313135353a206275726e20616d6f756e7420657863656564732062616c604482015263616e636560e01b6064820152608401610c76565b60008681526065602090815260408083206001600160a01b03808c1680865291909352818420898603905590519091871690600080516020615d4f83398151915290612d2e908b908b906155f6565b60405180910390a46040805160208101909152600090525b50505050505050565b6001600160a01b038416612d755760405162461bcd60e51b8152600401610c76906159c1565b336000612d8185613867565b90506000612d8e85613867565b9050612d9e8389898585896138b2565b60008681526065602090815260408083206001600160a01b038c16845290915290205485811015612de15760405162461bcd60e51b8152600401610c7690615a06565b60008781526065602090815260408083206001600160a01b038d8116855292528083208985039055908a16825281208054889290612e20908490615668565b92505081905550876001600160a01b0316896001600160a01b0316856001600160a01b0316600080516020615d4f8339815191528a8a604051612e649291906155f6565b60405180910390a4612e7a848a8a8a8a8a6139db565b505050505050505050565b6001600160a01b038416612ee55760405162461bcd60e51b815260206004820152602160248201527f455243313135353a206d696e7420746f20746865207a65726f206164647265736044820152607360f81b6064820152608401610c76565b336000612ef185613867565b90506000612efe85613867565b9050612f0f836000898585896138b2565b60008681526065602090815260408083206001600160a01b038b16845290915281208054879290612f41908490615668565b92505081905550866001600160a01b031660006001600160a01b0316846001600160a01b0316600080516020615d4f8339815191528989604051612f869291906155f6565b60405180910390a4612d46836000898989896139db565b6000610cb2612faa613b3d565b8360405161190160f01b6020820152602281018390526042810182905260009060620160405160208183030381529060405280519060200120905092915050565b6000612ff78585613bbf565b9050826001600160a01b0316816001600160a01b031614801561302257506001600160a01b03811615155b6130625760405162461bcd60e51b8152602060048201526011602482015270496e76616c6964207369676e617475726560781b6044820152606401610c76565b8142106130a55760405162461bcd60e51b815260206004820152601160248201527014da59db985d1d5c9948195e1c1a5c9959607a1b6044820152606401610c76565b949350505050565b815183511461310f5760405162461bcd60e51b815260206004820152602860248201527f455243313135353a2069647320616e6420616d6f756e7473206c656e677468206044820152670dad2e6dac2e8c6d60c31b6064820152608401610c76565b6001600160a01b0384166131355760405162461bcd60e51b8152600401610c76906159c1565b336131448187878787876138b2565b60005b845181101561322d57600085828151811061316457613164615589565b60200260200101519050600085838151811061318257613182615589565b60209081029190910181015160008481526065835260408082206001600160a01b038e1683529093529190912054909150818110156131d35760405162461bcd60e51b8152600401610c7690615a06565b60008381526065602090815260408083206001600160a01b038e8116855292528083208585039055908b16825281208054849290613212908490615668565b925050819055505050508061322690615604565b9050613147565b50846001600160a01b0316866001600160a01b0316826001600160a01b03167f4a39dc06d4c0dbc64b70af90fd698a233a518aa5d07e595d983b8c0526c8f7fb878760405161327d929190615a50565b60405180910390a4612a02818787878787613bdb565b61329d82826121ed565b610cd95760008281526097602090815260408083206001600160a01b03851684529091529020805460ff191660011790556132d53390565b6001600160a01b0316816001600160a01b0316837f2f8788117e7eff1d82e926ec794901d17c78024a50270940304540a733656f0d60405160405180910390a45050565b61332382826121ed565b15610cd95760008281526097602090815260408083206001600160a01b0385168085529252808320805460ff1916905551339285917ff6391f5c32d9c69d2a47ea670b442974b53935d1edc7fd64eb21e047a839171b9190a45050565b600080516020615e0f833981519152546001600160a01b031690565b600080516020615def833981519152610cd981612ba8565b7f4910fdfa16fed3260ed0e7147f7cc6da11a60208b5b9406d12a635614ffd91435460ff16156133e75761155c83613c9d565b826001600160a01b03166352d1902d6040518163ffffffff1660e01b8152600401602060405180830381865afa925050508015613441575060408051601f3d908101601f1916820190925261343e91810190615a75565b60015b6134a45760405162461bcd60e51b815260206004820152602e60248201527f45524331393637557067726164653a206e657720696d706c656d656e7461746960448201526d6f6e206973206e6f74205555505360901b6064820152608401610c76565b600080516020615e0f83398151915281146135135760405162461bcd60e51b815260206004820152602960248201527f45524331393637557067726164653a20756e737570706f727465642070726f786044820152681a58589b195555525160ba1b6064820152608401610c76565b5061155c838383613d37565b600061352c888888612bc5565b61353a888888888888613d62565b905086886001600160a01b03167f1325d882b2ca749c878a4ab3a393f6e51b69026faa05426b6d1ec6776a3f2f3c88848660405161357a93929190615a8e565b60405180910390a3979650505050505050565b613595613e61565b60c9805460ff191690557f5db9ee0a495bf2e6ff9c91a7834c1ba4fdd244a5e8aa4e537bd38aeae4b073aa335b6040516135cf91906153d9565b60405180910390a1565b60006135e88989898986612d4f565b6135f78888888888888861351f565b9998505050505050505050565b61360c613eaa565b60c9805460ff191660011790557f62e78cea01bee320cd4e420270b5ea74000d11b0c9f74754ebdbfc544b05a2586135c23390565b6001600160a01b03163b151590565b600054610100900460ff166136775760405162461bcd60e51b8152600401610c7690615aad565b6116a081613ef0565b600054610100900460ff166136a75760405162461bcd60e51b8152600401610c7690615aad565b565b600054610100900460ff166136d05760405162461bcd60e51b8152600401610c7690615aad565b6136a7613f20565b600054610100900460ff166136ff5760405162461bcd60e51b8152600401610c7690615aad565b610cd98282613f53565b816001600160a01b0316836001600160a01b03160361377c5760405162461bcd60e51b815260206004820152602960248201527f455243313135353a2073657474696e6720617070726f76616c20737461747573604482015268103337b91039b2b63360b91b6064820152608401610c76565b6001600160a01b03838116600081815260666020908152604080832094871680845294825291829020805460ff191686151590811790915591519182527f17307eab39ab6107e8899845ad3d59bd9653f200f220920489ca2b5937696c31910160405180910390a3505050565b60006001600160e01b03198216637965db0b60e01b1480610cb25750610cb282613f84565b61381882826121ed565b610cd95761382581613fd4565b613830836020613fe6565b604051602001613841929190615af8565b60408051601f198184030181529082905262461bcd60e51b8252610c7691600401614a76565b604080516001808252818301909252606091600091906020808301908036833701905050905082816000815181106138a1576138a1615589565b602090810291909101015292915050565b6138ba613eaa565b846138d3600080516020615e2f833981519152826121ed565b156138f05760405162461bcd60e51b8152600401610c7690615b67565b84613909600080516020615e2f833981519152826121ed565b156139265760405162461bcd60e51b8152600401610c7690615b67565b60005b85518110156139cc57610200600087838151811061394957613949615589565b60200260200101518152602001908152602001600020600101546000148061398957506001600160a01b038816158061398957506001600160a01b038716155b6139ba5760405162461bcd60e51b8152602060048201526002602482015261313160f01b6044820152606401610c76565b806139c481615604565b915050613929565b50610e98888888888888614188565b6139ed846001600160a01b0316613641565b15612a025760405163f23a6e6160e01b81526001600160a01b0385169063f23a6e6190613a269089908990889088908890600401615b82565b6020604051808303816000875af1925050508015613a61575060408051601f3d908101601f19168201909252613a5e91810190615bbc565b60015b613b0d57613a6d615bd9565b806308c379a003613aa65750613a81615bf4565b80613a8c5750613aa8565b8060405162461bcd60e51b8152600401610c769190614a76565b505b60405162461bcd60e51b815260206004820152603460248201527f455243313135353a207472616e7366657220746f206e6f6e2d455243313135356044820152732932b1b2b4bb32b91034b6b83632b6b2b73a32b960611b6064820152608401610c76565b6001600160e01b0319811663f23a6e6160e01b14612d465760405162461bcd60e51b8152600401610c7690615c7d565b6000613bba7f8b73c3c69bb8fe3d512ecc4cf759cc79239f7b179b0ffacaa9a75d522b39400f613b6d6101915490565b610192546040805160208101859052908101839052606081018290524660808201523060a082015260009060c0016040516020818303038152906040528051906020012090509392505050565b905090565b6000806000613bce8585614301565b91509150611a6a81614346565b613bed846001600160a01b0316613641565b15612a025760405163bc197c8160e01b81526001600160a01b0385169063bc197c8190613c269089908990889088908890600401615cc5565b6020604051808303816000875af1925050508015613c61575060408051601f3d908101601f19168201909252613c5e91810190615bbc565b60015b613c6d57613a6d615bd9565b6001600160e01b0319811663bc197c8160e01b14612d465760405162461bcd60e51b8152600401610c7690615c7d565b613ca681613641565b613d085760405162461bcd60e51b815260206004820152602d60248201527f455243313936373a206e657720696d706c656d656e746174696f6e206973206e60448201526c1bdd08184818dbdb9d1c9858dd609a1b6064820152608401610c76565b600080516020615e0f83398151915280546001600160a01b0319166001600160a01b0392909216919091179055565b613d408361448b565b600082511180613d4d5750805b1561155c57613d5c83836144cb565b50505050565b600080613d776101f780546001019081905590565b6040805160c0810182526001600160a01b038b8116825260208083018b81528385018d8152606085018c8152608086018c905260a086018b90526000888152610200855296909620855181546001600160a01b0319169516949094178455905160018401555160028301559251805194955091939092613dfe9260038501929101906146de565b5060808201518051613e1a9160048401916020909101906146de565b5060a08201518051613e369160058401916020909101906146de565b50905050613e568882600160405180602001604052806000815250612e85565b979650505050505050565b60c95460ff166136a75760405162461bcd60e51b815260206004820152601460248201527314185d5cd8589b194e881b9bdd081c185d5cd95960621b6044820152606401610c76565b60c95460ff16156136a75760405162461bcd60e51b815260206004820152601060248201526f14185d5cd8589b194e881c185d5cd95960821b6044820152606401610c76565b600054610100900460ff16613f175760405162461bcd60e51b8152600401610c7690615aad565b6116a081612bb2565b600054610100900460ff16613f475760405162461bcd60e51b8152600401610c7690615aad565b60c9805460ff19169055565b600054610100900460ff16613f7a5760405162461bcd60e51b8152600401610c7690615aad565b610cd982826145bd565b60006001600160e01b03198216636cdb3d1360e11b1480613fb557506001600160e01b031982166303a24d0760e21b145b80610cb257506301ffc9a760e01b6001600160e01b0319831614610cb2565b6060610cb26001600160a01b03831660145b60606000613ff58360026155b5565b614000906002615668565b6001600160401b03811115614017576140176147f0565b6040519080825280601f01601f191660200182016040528015614041576020820181803683370190505b509050600360fc1b8160008151811061405c5761405c615589565b60200101906001600160f81b031916908160001a905350600f60fb1b8160018151811061408b5761408b615589565b60200101906001600160f81b031916908160001a90535060006140af8460026155b5565b6140ba906001615668565b90505b6001811115614132576f181899199a1a9b1b9c1cb0b131b232b360811b85600f16601081106140ee576140ee615589565b1a60f81b82828151811061410457614104615589565b60200101906001600160f81b031916908160001a90535060049490941c9361412b81615d17565b90506140bd565b5083156141815760405162461bcd60e51b815260206004820181905260248201527f537472696e67733a20686578206c656e67746820696e73756666696369656e746044820152606401610c76565b9392505050565b6001600160a01b03851661420f5760005b835181101561420d578281815181106141b4576141b4615589565b602002602001015160fb60008684815181106141d2576141d2615589565b6020026020010151815260200190815260200160002060008282546141f79190615668565b90915550614206905081615604565b9050614199565b505b6001600160a01b038416612a025760005b8351811015612d4657600084828151811061423d5761423d615589565b60200260200101519050600084838151811061425b5761425b615589565b60200260200101519050600060fb6000848152602001908152602001600020549050818110156142de5760405162461bcd60e51b815260206004820152602860248201527f455243313135353a206275726e20616d6f756e74206578636565647320746f74604482015267616c537570706c7960c01b6064820152608401610c76565b600092835260fb6020526040909220910390556142fa81615604565b9050614220565b60008082516041036143375760208301516040840151606085015160001a61432b87828585614600565b9450945050505061433f565b506000905060025b9250929050565b600081600481111561435a5761435a61591c565b036143625750565b60018160048111156143765761437661591c565b036143be5760405162461bcd60e51b815260206004820152601860248201527745434453413a20696e76616c6964207369676e617475726560401b6044820152606401610c76565b60028160048111156143d2576143d261591c565b0361441f5760405162461bcd60e51b815260206004820152601f60248201527f45434453413a20696e76616c6964207369676e6174757265206c656e677468006044820152606401610c76565b60038160048111156144335761443361591c565b036116a05760405162461bcd60e51b815260206004820152602260248201527f45434453413a20696e76616c6964207369676e6174757265202773272076616c604482015261756560f01b6064820152608401610c76565b61449481613c9d565b6040516001600160a01b038216907fbc7cd75a20ee27fd9adebab32041f755214dbc6bffa90cc0225b39da2e5c2d3b90600090a250565b60606144d683613641565b6145315760405162461bcd60e51b815260206004820152602660248201527f416464726573733a2064656c65676174652063616c6c20746f206e6f6e2d636f6044820152651b9d1c9858dd60d21b6064820152608401610c76565b600080846001600160a01b03168460405161454c9190615980565b600060405180830381855af49150503d8060008114614587576040519150601f19603f3d011682016040523d82523d6000602084013e61458c565b606091505b50915091506145b48282604051806060016040528060278152602001615eaf602791396146ba565b95945050505050565b600054610100900460ff166145e45760405162461bcd60e51b8152600401610c7690615aad565b8151602092830120815191909201206101919190915561019255565b6000806fa2a8918ca85bafe22016d0b997e4df60600160ff1b0383111561462d57506000905060036146b1565b6040805160008082526020820180845289905260ff881692820192909252606081018690526080810185905260019060a0016020604051602081039080840390855afa158015614681573d6000803e3d6000fd5b5050604051601f1901519150506001600160a01b0381166146aa576000600192509250506146b1565b9150600090505b94509492505050565b606083156146c9575081614181565b6141818383815115613a8c5781518083602001fd5b8280546146ea9061561d565b90600052602060002090601f01602090048101928261470c5760008555614752565b82601f1061472557805160ff1916838001178555614752565b82800160010185558215614752579182015b82811115614752578251825591602001919060010190614737565b5061475e929150614762565b5090565b5b8082111561475e5760008155600101614763565b80356001600160a01b038116811461478e57600080fd5b919050565b600080604083850312156147a657600080fd5b6147af83614777565b946020939093013593505050565b6001600160e01b0319811681146116a057600080fd5b6000602082840312156147e557600080fd5b8135614181816147bd565b634e487b7160e01b600052604160045260246000fd5b60a081016001600160401b0381118282101715614825576148256147f0565b60405250565b601f8201601f191681016001600160401b0381118282101715614850576148506147f0565b6040525050565b600082601f83011261486857600080fd5b81356001600160401b03811115614881576148816147f0565b604051614898601f8301601f19166020018261482b565b8181528460208386010111156148ad57600080fd5b816020850160208301376000918101602001919091529392505050565b6000602082840312156148dc57600080fd5b81356001600160401b038111156148f257600080fd5b6130a584828501614857565b60006001600160401b03821115614917576149176147f0565b5060051b60200190565b600082601f83011261493257600080fd5b8135602061493f826148fe565b60405161494c828261482b565b83815260059390931b850182019282810191508684111561496c57600080fd5b8286015b8481101561498e5761498181614777565b8352918301918301614970565b509695505050505050565b6000806000606084860312156149ae57600080fd5b83356001600160401b03808211156149c557600080fd5b6149d187838801614921565b94506020860135935060408601359150808211156149ee57600080fd5b506149fb86828701614857565b9150509250925092565b600060208284031215614a1757600080fd5b5035919050565b60005b83811015614a39578181015183820152602001614a21565b83811115613d5c5750506000910152565b60008151808452614a62816020860160208601614a1e565b601f01601f19169290920160200192915050565b6020815260006141816020830184614a4a565b60008060008060808587031215614a9f57600080fd5b614aa885614777565b9350602085013592506040850135915060608501356001600160401b03811115614ad157600080fd5b614add87828801614857565b91505092959194509250565b602081526000825160a06020840152614b0560c0840182614a4a565b9050602084015160408401526040840151606084015260608401516080840152608084015160a08401528091505092915050565b60008083601f840112614b4b57600080fd5b5081356001600160401b03811115614b6257600080fd5b60208301915083602082850101111561433f57600080fd5b600060e08284031215614b8c57600080fd5b50919050565b600080600080600060808688031215614baa57600080fd5b85356001600160401b0380821115614bc157600080fd5b614bcd89838a01614b39565b90975095506020880135915080821115614be657600080fd5b614bf289838a01614b7a565b94506040880135915080821115614c0857600080fd5b614c1489838a01614857565b93506060880135915080821115614c2a57600080fd5b50614c3788828901614857565b9150509295509295909350565b600082601f830112614c5557600080fd5b81356020614c62826148fe565b604051614c6f828261482b565b83815260059390931b8501820192828101915086841115614c8f57600080fd5b8286015b8481101561498e5780358352918301918301614c93565b600080600080600060a08688031215614cc257600080fd5b614ccb86614777565b9450614cd960208701614777565b935060408601356001600160401b0380821115614cf557600080fd5b614d0189838a01614c44565b94506060880135915080821115614d1757600080fd5b614d2389838a01614c44565b93506080880135915080821115614c2a57600080fd5b60008060408385031215614d4c57600080fd5b82359150614d5c60208401614777565b90509250929050565b600060208284031215614d7757600080fd5b61418182614777565b60008060008060008060c08789031215614d9957600080fd5b863595506020870135945060408701356001600160401b0380821115614dbe57600080fd5b614dca8a838b01614857565b95506060890135915080821115614de057600080fd5b614dec8a838b01614857565b94506080890135915080821115614e0257600080fd5b614e0e8a838b01614857565b935060a0890135915080821115614e2457600080fd5b50614e3189828a01614857565b9150509295509295509295565b600080600080600080600060e0888a031215614e5957600080fd5b614e6288614777565b96506020880135955060408801359450606088013593506080880135925060a0880135915060c08801356001600160401b03811115614ea057600080fd5b614eac8a828b01614857565b91505092959891949750929550565b60008060408385031215614ece57600080fd5b82356001600160401b0380821115614ee557600080fd5b614ef186838701614921565b93506020850135915080821115614f0757600080fd5b50614f1485828601614c44565b9150509250929050565b600081518084526020808501945080840160005b83811015614f4e57815187529582019590820190600101614f32565b509495945050505050565b6020815260006141816020830184614f1e565b60008060408385031215614f7f57600080fd5b614f8883614777565b915060208301356001600160401b03811115614fa357600080fd5b614f1485828601614857565b80356005811061478e57600080fd5b600080600060608486031215614fd357600080fd5b8335925060208401359150614fea60408501614faf565b90509250925092565b600080600080600080600060c0888a03121561500e57600080fd5b87356001600160401b038082111561502557600080fd5b6150318b838c01614b39565b909950975060208a013591508082111561504a57600080fd5b6150568b838c01614b7a565b965060408a013591508082111561506c57600080fd5b6150788b838c01614857565b955060608a013591508082111561508e57600080fd5b61509a8b838c01614857565b945060808a01359150808211156150b057600080fd5b6150bc8b838c01614857565b935060a08a01359150808211156150d257600080fd5b50614eac8a828b01614857565b6001600160a01b03169052565b60018060a01b038716815285602082015284604082015260c06060820152600061511960c0830186614a4a565b828103608084015261512b8186614a4a565b905082810360a08401526135f78185614a4a565b60a08152600061515260a0830188614a4a565b90508560208301528460408301528360608301528260808301529695505050505050565b6000602080838503121561518957600080fd5b82356001600160401b03808211156151a057600080fd5b818501915085601f8301126151b457600080fd5b81356151bf816148fe565b604080516151cd838261482b565b83815260059390931b85018601928681019250898411156151ed57600080fd5b8686015b84811015615284578035868111156152095760008081fd5b870160a0818d03601f19018113156152215760008081fd5b845161522c81614806565b8a8301358981111561523e5760008081fd5b61524c8f8d83870101614857565b825250828601358b820152606080840135878301526080808501359183019190915291909201359082015284529287019287016151f1565b509998505050505050505050565b600080600080608085870312156152a857600080fd5b6152b185614777565b9350602085013560ff811681146152c757600080fd5b92506040850135915060608501356001600160401b03811115614ad157600080fd5b600080600080608085870312156152ff57600080fd5b61530885614777565b9350602085013592506040850135915061532460608601614faf565b905092959194509250565b6000806000806080858703121561534557600080fd5b61534e85614777565b93506152c760208601614777565b6000806000806080858703121561537257600080fd5b84359350602085013592506040850135915060608501356001600160401b03811115614ad157600080fd5b600080604083850312156153b057600080fd5b6153b983614777565b9150602083013580151581146153ce57600080fd5b809150509250929050565b6001600160a01b0391909116815260200190565b600080600080600060a0868803121561540557600080fd5b61540e86614777565b945061541c60208701614777565b9350604086013592506060860135915061543860808701614faf565b90509295509295909350565b6000806000806060858703121561545a57600080fd5b84356001600160401b038082111561547157600080fd5b61547d88838901614b39565b9096509450602087013591508082111561549657600080fd5b6154a288838901614b7a565b935060408701359150808211156154b857600080fd5b50614add87828801614857565b600080604083850312156154d857600080fd5b6154e183614777565b9150614d5c60208401614777565b600080600080600060a0868803121561550757600080fd5b61551086614777565b945061551e60208701614777565b9350604086013592506060860135915060808601356001600160401b0381111561554757600080fd5b614c3788828901614857565b6020808252600190820152603160f81b604082015260600190565b6020808252600190820152603960f81b604082015260600190565b634e487b7160e01b600052603260045260246000fd5b634e487b7160e01b600052601160045260246000fd5b60008160001904831182151516156155cf576155cf61559f565b500290565b6000826155f157634e487b7160e01b600052601260045260246000fd5b500490565b918252602082015260400190565b6000600182016156165761561661559f565b5060010190565b600181811c9082168061563157607f821691505b602082108103614b8c57634e487b7160e01b600052602260045260246000fd5b6000828210156156635761566361559f565b500390565b6000821982111561567b5761567b61559f565b500190565b81835281816020850137506000828201602090810191909152601f909101601f19169091010190565b6040815260006156bd604083018587615680565b8281036020840152833581526020840135601e198536030181126156e057600080fd5b840180356001600160401b038111156156f857600080fd5b80360386131561570757600080fd5b60e0602084015261571f60e084018260208501615680565b91505061572e60408601614777565b61573b60408401826150df565b5061574860608601614777565b61575560608401826150df565b506080850135608083015260a085013560a083015260c085013560c08301528092505050949350505050565b6000808335601e1984360301811261579857600080fd5b8301803591506001600160401b038211156157b257600080fd5b60200191503681900382131561433f57600080fd5b8183823760009101908152919050565b600063ffffffff8083168181036157f0576157f061559f565b6001019392505050565b8381526060602082015260006158136060830185614a4a565b82810360408401526158258185614a4a565b9695505050505050565b6020808252602e908201527f455243313135353a2063616c6c6572206973206e6f7420746f6b656e206f776e60408201526d195c881bdc88185c1c1c9bdd995960921b606082015260800190565b6020808252602c90820152600080516020615daf83398151915260408201526b19195b1959d85d1958d85b1b60a21b606082015260800190565b6020808252602c90820152600080516020615daf83398151915260408201526b6163746976652070726f787960a01b606082015260800190565b85815284602082015283604082015282606082015260a060808201526000613e5660a0830184614a4a565b634e487b7160e01b600052602160045260246000fd5b6020808252602e908201527f496e697469616c697a61626c653a20636f6e747261637420697320616c72656160408201526d191e481a5b9a5d1a585b1a5e995960921b606082015260800190565b60008251615992818460208701614a1e565b9190910192915050565b8481528360208201528260408201526080606082015260006158256080830184614a4a565b60208082526025908201527f455243313135353a207472616e7366657220746f20746865207a65726f206164604082015264647265737360d81b606082015260800190565b6020808252602a908201527f455243313135353a20696e73756666696369656e742062616c616e636520666f60408201526939103a3930b739b332b960b11b606082015260800190565b604081526000615a636040830185614f1e565b82810360208401526145b48185614f1e565b600060208284031215615a8757600080fd5b5051919050565b8381528260208201526060604082015260006145b46060830184614a4a565b6020808252602b908201527f496e697469616c697a61626c653a20636f6e7472616374206973206e6f74206960408201526a6e697469616c697a696e6760a81b606082015260800190565b76020b1b1b2b9b9a1b7b73a3937b61d1030b1b1b7bab73a1604d1b815260008351615b2a816017850160208801614a1e565b7001034b99036b4b9b9b4b733903937b6329607d1b6017918401918201528351615b5b816028840160208801614a1e565b01602801949350505050565b6020808252600190820152600360fc1b604082015260600190565b6001600160a01b03868116825285166020820152604081018490526060810183905260a060808201819052600090613e5690830184614a4a565b600060208284031215615bce57600080fd5b8151614181816147bd565b600060033d1115611be65760046000803e5060005160e01c90565b600060443d1015615c025790565b6040516003193d81016004833e81513d6001600160401b038083116024840183101715615c3157505050505090565b8285019150815181811115615c495750505050505090565b843d8701016020828501011115615c635750505050505090565b615c726020828601018761482b565b509095945050505050565b60208082526028908201527f455243313135353a204552433131353552656365697665722072656a656374656040820152676420746f6b656e7360c01b606082015260800190565b6001600160a01b0386811682528516602082015260a060408201819052600090615cf190830186614f1e565b8281036060840152615d038186614f1e565b905082810360808401526116da8185614a4a565b600081615d2657615d2661559f565b50600019019056fe3c11d16cbaffd01df69ce1c404f6340ee057498f5f00246190ea54220576a848c3d58168c5ae7397731d063d5bbf3d657854427343f4c083240f7aacaa2d0f6279da588818fa1bb747c46ac45fd0af16861a77c5222cf5ac4538360ca4f77a2cd5bbb2f0fbfc1d5938ca13cabd3156d362f7862fa87504c8d589f5e8f2cbc45346756e6374696f6e206d7573742062652063616c6c6564207468726f75676820bdde33eca765abe07e416fa5225f9a5dbc393366c8bbf45df689e69ee318a934189ab7a9244df0848122154315af71fe140f3db0fe014031783b0946b8c9d2e3360894a13ba1a3210667c828492db98dca3e2076cc3735a920a3ca505d382bbcf48dee1a72497b9e734e498e1b3086c0d2dbcca13f16f15848f974469f906bbf7804d923f43a17d325d77e781528e0793b2edd9890ab45fc64efd7b4b427744c7f26b83ff96e1f2b6a682f133852f6798a09c465da95921460cefb384740249865d7a28e3265b37a6474929f336521b332c1681b933f6cb9f3376673440d862a416464726573733a206c6f772d6c6576656c2064656c65676174652063616c6c206661696c656498db8a220cd0f09badce9f22d0ba7e93edb3d404448cc3560d391ab096ad16e94bbc247fc4736523c8bdd1853fee2acfa817d663f8f4422b13e78ebf99e204a2ddf79b8d2110dbe281cf3bb7762d508cea586c974794c8fc949d41b0db1145130ce23c3e399818cfee81a7ab0880f714e53d7672b08df0fa62f2843416e1ea09a26469706673582212203b1e9d89d4bef4379480f4f7763c0f04b69c9ebab702eef8ad896e90d48dc88f64736f6c634300080d0033",
  "immutableReferences": {
    "997": [
      {
        "length": 32,
        "start": 5605
      },
      {
        "length": 32,
        "start": 5669
      },
      {
        "length": 32,
        "start": 6780
      },
      {
        "length": 32,
        "start": 6844
      },
      {
        "length": 32,
        "start": 6983
      }
    ]
  },
  "source": "// SPDX-License-Identifier: MIT\npragma solidity ^0.8.13;\n\nimport '@openzeppelin/contracts-upgradeable/token/ERC1155/ERC1155Upgradeable.sol';\nimport '@openzeppelin/contracts-upgradeable/access/AccessControlUpgradeable.sol';\nimport '@openzeppelin/contracts-upgradeable/security/PausableUpgradeable.sol';\nimport '@openzeppelin/contracts-upgradeable/token/ERC1155/extensions/ERC1155SupplyUpgradeable.sol';\nimport '@openzeppelin/contracts-upgradeable/proxy/utils/Initializable.sol';\nimport '@openzeppelin/contracts-upgradeable/proxy/utils/UUPSUpgradeable.sol';\nimport \"@openzeppelin/contracts-upgradeable/token/ERC1155/utils/ERC1155HolderUpgradeable.sol\";\n\n\nimport './ProjectStorage.sol';\nimport './interfaces/ICarbonContractRegistry.sol';\nimport './utils/CustomSignaturesUpgradeable.sol';\nimport './interfaces/IProject.sol';\n\ncontract Project is\n\tIProject,\n\tInitializable,\n\tERC1155Upgradeable,\n\tAccessControlUpgradeable,\n\tPausableUpgradeable,\n\tERC1155SupplyUpgradeable,\n\tUUPSUpgradeable,\n\tCustomSignaturesUpgradeable,\n\tProjectStorage,\n\tERC1155HolderUpgradeable\n{\n\tbytes32 public constant URI_SETTER_ROLE = keccak256('URI_SETTER_ROLE');\n\tbytes32 public constant PAUSER_ROLE = keccak256('PAUSER_ROLE');\n\tbytes32 public constant ANTE_MINTER_ROLE = keccak256('ANTE_MINTER_ROLE');\n\tbytes32 public constant POST_MINTER_ROLE = keccak256('POST_MINTER_ROLE');\n\tbytes32 public constant MINTER_ROLE = keccak256('MINTER_ROLE');\n\tbytes32 public constant UPGRADER_ROLE = keccak256('UPGRADER_ROLE');\n\tbytes32 public constant BLACKLISTED = keccak256('BLACKLISTED');\n\tbytes32 public constant BLACKLISTER_ROLE = keccak256('BLACKLISTER_ROLE');\n\tbytes32 public constant BURNER_ROLE = keccak256('BURNER_ROLE');\n\tbytes32 public constant VERIFIER_ROLE = keccak256('VERIFIER_ROLE');\n\tbytes32 public constant CLAWBACK_ROLE = keccak256('CLAWBACK_ROLE');\n\n\n/// @custom:oz-upgrades-unsafe-allow constructor\n\tconstructor() {\n\t\t_disableInitializers();\n\t}\n\n\tfunction initialize(\n\t\taddress _contractRegistry,\n\t\taddress _owner,\n\t\tuint256 _projectId,\n\t\tstring memory _projectName\n\t) public initializer {\n\t\t__ERC1155_init('');\n\t\t__AccessControl_init();\n\t\t__Pausable_init();\n\t\t__ERC1155Supply_init();\n\t\t__UUPSUpgradeable_init();\n\t\t__CustomSignatures_init(\"Carbon Registry\", '0.0.1');\n\n\t\t// Our Inits\n\t\t__ProjectStorage_init(_contractRegistry, 50, _projectId, _projectName);\n\n\t\t_grantRole(DEFAULT_ADMIN_ROLE, _owner);\n\t\t_grantRole(URI_SETTER_ROLE, _owner);\n\t\t_grantRole(PAUSER_ROLE, _owner);\n\t\t_grantRole(ANTE_MINTER_ROLE, _owner);\n\t\t_grantRole(POST_MINTER_ROLE, _owner);\n\t\t_grantRole(UPGRADER_ROLE, _owner);\n\t\t_grantRole(BLACKLISTER_ROLE, _owner);\n\t\t_grantRole(VERIFIER_ROLE, _owner);\n\t\t_grantRole(CLAWBACK_ROLE, _owner);\n\n\t\t_grantRole(POST_MINTER_ROLE, msg.sender); // Just so projectFactory can mint exPost on creation of the project\n\t}\n\n\tmodifier notBlacklisted(address account) {\n\t\trequire(\n\t\t\t!hasRole(BLACKLISTED, account),\n\t\t\"0\"\n\t\t);\n\t\t_;\n\t}\n\n\tmodifier onlyExPostTokens(uint256[] memory tokenIds) {\n\t\tfor (uint256 i = 0; i < tokenIds.length; i++) {\n\t\t\trequire(isExPostToken(tokenIds[i]), \"1\");\n\t\t}\n\t\t_;\n\t}\n\n\tmodifier onlyExPostToken(uint256 tokenId) {\n\t\trequire(isExPostToken(tokenId), \"1\");\n\t\t_;\n\t}\n\n\tmodifier onlyVerifiedStatus(bool isVerified, uint256 tokenId) {\n\t\trequire(\n\t\t\t(exPostVintageMapping[tokenId].lastVerificationTimestamp >=\n\t\t\t\texPostVintageMapping[tokenId].verificationPeriodEnd) ==\n\t\t\t\tisVerified,\n\t\t\tisVerified\n\t\t\t\t? \"2\"\n\t\t\t\t: \"3\"\n\t\t);\n\t\t_;\n\t}\n\n\tfunction isExPostToken(uint256 tokenId) public view returns (bool) {\n\t\treturn bytes(exPostVintageMapping[tokenId].serialization).length > 0;\n\t}\n\n\tfunction testUpgrade() external pure returns(string memory) {\n\t\treturn \"0.0.2\";\n\t}\n\n\t// ----------------------------------\n\t//         Minting Functions\n\t// ----------------------------------\n\n\tfunction createExPostVintage(\n\t\tuint256 estAmount,\n\t\tuint256 verificationPeriodStart,\n\t\tuint256 verificationPeriodEnd,\n\t\tstring memory serialization\n\t) public onlyRole(POST_MINTER_ROLE) {\n\t\t\n\t\trequire(\n\t\t\tverificationPeriodEnd > verificationPeriodStart,\n\t\t\t\"4\"\n\t\t);\n\t\tuint256 newTokenId = nextTokenId();\n\t\tICarbonContractRegistry(contractRegistry).registerSerialization(\n\t\t\tserialization\n\t\t);\n\t\tserializationToExPostTokenIdMapping[serialization] = newTokenId;\n\t\texPostVintageMapping[newTokenId] = VintageData(\n\t\t\tserialization,\n\t\t\testAmount,\n\t\t\tverificationPeriodStart,\n\t\t\tverificationPeriodEnd,\n\t\t\t0\n\t\t);\n\t\temit ExPostCreated(\n\t\t\tnewTokenId,\n\t\t\testAmount,\n\t\t\tverificationPeriodStart,\n\t\t\tverificationPeriodEnd,\n\t\t\tserialization\n\t\t);\n\t}\n\n\tfunction createExPostVintageBatch(\n\t\tVintageData[] memory vintages\n\t) public onlyRole(POST_MINTER_ROLE) {\n\t\tfor (uint256 i = 0; i < vintages.length; i++) {\n\t\t\tcreateExPostVintage(\n\t\t\t\tvintages[i].estMitigations,\n\t\t\t\tvintages[i].verificationPeriodStart,\n\t\t\t\tvintages[i].verificationPeriodEnd,\n\t\t\t\tvintages[i].serialization\n\t\t\t);\n\t\t}\n\t}\n\n\tfunction mintExAnte(\n\t\taddress account,\n\t\tuint256 exPostTokenId,\n\t\tuint256 amount,\n\t\tbytes memory data\n\t)\n\t\tpublic\n\t\tonlyRole(ANTE_MINTER_ROLE)\n\t\tonlyExPostToken(exPostTokenId)\n\t\tonlyVerifiedStatus(false, exPostTokenId)\n\t{\n\n\t\tuint256 exAnteTokenId = exPostToExAnteTokenId[exPostTokenId];\n\t\tif (exAnteTokenId == 0) {\n\t\t\texAnteTokenId = nextTokenId();\n\t\t\texPostToExAnteTokenId[exPostTokenId] = exAnteTokenId;\n\t\t}\n\n\t\tuint256 exPostEstimatedSupply = exPostVintageMapping[exPostTokenId]\n\t\t\t.estMitigations;\n\t\tuint256 exPostVerifiedSupply = totalSupply(exPostTokenId);\n\t\tuint256 anteDrawablePostSupply = exPostEstimatedSupply -\n\t\t\texPostVerifiedSupply;\n\t\tuint256 maxExAnteSupply = (anteDrawablePostSupply *\n\t\t\t(maxAntePercentage)) / (100);\n\t\tuint256 exAnteSupply = totalSupply(exAnteTokenId);\n\n\t\trequire(\n\t\t\texAnteSupply + amount <= maxExAnteSupply,\n\t\t\t\"5\"\n\t\t);\n\n\t\texAnteToExPostTokenId[exAnteTokenId] = exPostTokenId;\n\n\t\temit ExAnteMinted(exAnteTokenId, exPostTokenId, account,  amount);\n\n\t\t_mint(account, exAnteTokenId, amount, data);\n\n\t}\n\n\tfunction changeVintageMitigationEstimate(\n\t\tuint256 tokenId,\n\t\tuint256 newEstAmount,\n\t\tAdminActionReason reason\n\t)\n\t\tpublic\n\t\tonlyRole(DEFAULT_ADMIN_ROLE)\n\t\tonlyExPostToken(tokenId)\n\t\tonlyVerifiedStatus(false, tokenId)\n\t{\n\t\temit VintageMitigationEstimateChanged(\n\t\t\ttokenId,\n\t\t\tnewEstAmount,\n\t\t\texPostVintageMapping[tokenId].estMitigations,\n\t\t\treason\n\t\t);\n\t\texPostVintageMapping[tokenId].estMitigations = newEstAmount;\n\t}\n\n\tfunction verifyAndMintExPost(\n\t\taddress verificationVault,\n\t\tuint256 tokenId,\n\t\tuint256 amountVerified,\n\t\tuint256 amountToAnteHolders,\n\t\tuint256 verificationPeriodStart,\n\t\tuint256 verificationPeriodEnd,\n\t\tstring memory monitoringReport\n\t)\n\t\tpublic\n\t\tonlyRole(VERIFIER_ROLE)\n\t\tonlyExPostToken(tokenId)\n\t\tonlyVerifiedStatus(false, tokenId)\n\t{\n\t\t\t\n\t\trequire(\n\t\t\tamountVerified >= amountToAnteHolders,\n\t\t\t\"6\"\n\t\t);\n\t\trequire(\n\t\t\tverificationPeriodEnd >=\n\t\t\t\texPostVintageMapping[tokenId].verificationPeriodStart,\n\t\t\t\"7\"\n\t\t);\n\t\trequire(\n\t\t\tverificationPeriodEnd >\n\t\t\t\texPostVintageMapping[tokenId].lastVerificationTimestamp,\n\t\t\t\"8\"\n\t\t);\n\n\t\tuint256 exAnteTokenId = exPostToExAnteTokenId[tokenId];\n\t\tif (exAnteTokenId == 0) {\n\t\t\t// If exAnteTokenId is zero then there are no ante holders\n\t\t\trequire(amountToAnteHolders == 0, \"9\");\n\t\t}\n\n\t\t\temit ExPostVerifiedAndMinted(\n\t\t\ttokenId,\n\t\t\tamountVerified,\n\t\t\tamountToAnteHolders,\n\t\t\tverificationPeriodStart,\n\t\t\tverificationPeriodEnd,\n\t\t\tmonitoringReport\n\t\t);\n\n\t\tif (amountVerified - amountToAnteHolders > 0) {\n\t\t\t// Mint To Verification Vault\n\t\t\t_mint(\n\t\t\t\tverificationVault,\n\t\t\t\ttokenId,\n\t\t\t\tamountVerified - amountToAnteHolders,\n\t\t\t\t''\n\t\t\t);\n\t\t}\n\t\texPostVintageMapping[tokenId]\n\t\t\t.lastVerificationTimestamp = verificationPeriodEnd;\n\n\t\tif (amountToAnteHolders > 0) {\n\t\t\t// Mint to this address, where ante holders will claim\n\t\t\t_mint(address(this), tokenId, amountToAnteHolders, '');\n\t\t}\n\n\n\t}\n\n\tfunction adminBurn(\n\t\taddress from,\n\t\tuint256 tokenId,\n\t\tuint256 amount,\n\t\tAdminActionReason reason\n\t) public onlyRole(BURNER_ROLE) {\n\t\temit AdminBurn(from, tokenId, amount, reason);\n\t\t_burn(from, tokenId, amount);\n\t}\n\n\tfunction adminClawback(\n\t\taddress from,\n\t\taddress to,\n\t\tuint256 tokenId,\n\t\tuint256 amount,\n\t\tAdminActionReason reason\n\t) public onlyRole(CLAWBACK_ROLE) {\n\t\temit AdminClawback(from, to, tokenId, amount, reason);\n\t\t_safeTransferFrom(from, to, tokenId, amount, '');\n\t}\n\n\tfunction exchangeAnteForPostEvenSteven(\n\t\taddress[] memory accounts,\n\t\tuint256 exPostTokenId,\n\t\tbytes memory data\n\t)\n\t\texternal\n\t\tonlyExPostToken(exPostTokenId)\n\t{\n\t\tuint256 exAnteTokenId = exPostToExAnteTokenId[exPostTokenId];\n\t\trequire(exAnteTokenId != 0, \"9\");\n\t\tuint256 currentExAnteSupply = totalSupply(exAnteTokenId);\n\t\tuint256 currentExPostSupplyInContract = balanceOf(\n\t\t\taddress(this),\n\t\t\texPostTokenId\n\t\t);\n\t\trequire(currentExPostSupplyInContract > 0, \"10\");\n\n\t\tfor (uint256 i = 0; i < accounts.length; i++) {\n\t\t\t\n\t\t\tuint256 amountExAnte = balanceOf(accounts[i], exAnteTokenId);\n\t\t\tuint256 amountExPost = (amountExAnte *\n\t\t\t\tcurrentExPostSupplyInContract) / currentExAnteSupply;\n\t\t\tuint256 exAnteBurnAmount = amountExAnte;\n\t\t\tif (amountExAnte > amountExPost) {\n\t\t\t\texAnteBurnAmount = amountExPost;\n\t\t\t}\n\t\t\t\t\t\temit ExchangeAnteForPost(\n\t\t\t\taccounts[i],\n\t\t\t\texPostTokenId,\n\t\t\t\tamountExPost,\n\t\t\t\texAnteBurnAmount\n\t\t\t);\n\t\t\t_burn(accounts[i], exAnteTokenId, exAnteBurnAmount);\n\t\t\t_safeTransferFrom(\n\t\t\t\taddress(this),\n\t\t\t\taccounts[i],\n\t\t\t\texPostTokenId,\n\t\t\t\tamountExPost,\n\t\t\t\tdata\n\t\t\t);\n\t\t}\n\t}\n\n\tfunction getExPostVintageData(\n\t\tuint256 exAnteTokenId\n\t) public view returns (VintageData memory) {\n\t\tuint256 exPostTokenId = exAnteToExPostTokenId[exAnteTokenId];\n\t\treturn exPostVintageMapping[exPostTokenId];\n\t}\n\n\t// ----------------------------------\n\t//              Actions\n\t// ----------------------------------\n\n\tfunction transferAndRetireFromSignature(\n\t\tbytes calldata signature,\n\t\tsignatureTransferPayload calldata payload,\n\t\tstring memory retireeName,\n\t\tstring memory customUri,\n\t\tstring memory comment,\n\t\tbytes memory data\n\t) public onlyExPostToken(payload.tokenId)\n\t\tonlyValidSignatureTransfer(signature, payload) returns (uint256 nftTokenId) {\n\t\treturn _transferAndRetire(\n\t\t\tpayload.signer,\n\t\t\tpayload.to,\n\t\t\tpayload.tokenId,\n\t\t\tpayload.amount,\n\t\t\tretireeName,\n\t\t\tcustomUri,\n\t\t\tcomment,\n\t\t\tdata\n\t\t);\n\t}\n\n\t// function transferAndRetire(\n\t// \taddress to,\n\t// \tuint256 tokenId,\n\t// \tuint256 amount,\n\t// \tstring memory retireeName,\n\t// \tstring memory customUri,\n\t// \tstring memory comment,\n\t// \tbytes memory data\n\t// ) public onlyExPostToken(tokenId) returns (uint256 nftTokenId) {\n\t// \treturn _transferAndRetire(\n\t// \t\tmsg.sender,\n\t// \t\tto,\n\t// \t\ttokenId,\n\t// \t\tamount,\n\t// \t\tretireeName,\n\t// \t\tcustomUri,\n\t// \t\tcomment,\n\t// \t\tdata\n\t// \t);\n\t// }\n\n\tfunction _transferAndRetire(\n\t\taddress from,\n\t\taddress to,\n\t\tuint256 tokenId,\n\t\tuint256 amount,\n\t\tstring memory retireeName,\n\t\tstring memory customUri,\n\t\tstring memory comment,\n\t\tbytes memory data\n\t) internal returns (uint256 nftTokenId) {\n\t\t_safeTransferFrom(from, to, tokenId, amount, data);\n\t\treturn _retire(\n\t\t\tto,\n\t\t\ttokenId,\n\t\t\tamount,\n\t\t\tretireeName,\n\t\t\tcustomUri,\n\t\t\tcomment,\n\t\t\tdata\n\t\t);\n\t}\n\n\tfunction transferFromSignature(\n\t\tbytes calldata signature,\n\t\tsignatureTransferPayload calldata payload,\n\t\tbytes memory data\n\t) public payable onlyValidSignatureTransfer(signature, payload) {\n\t\t_safeTransferFrom(\n\t\t\tpayload.signer,\n\t\t\tpayload.to,\n\t\t\tpayload.tokenId,\n\t\t\tpayload.amount,\n\t\t\tdata\n\t\t);\n\t}\n\n\tfunction retire(\n\t\tuint256 tokenId,\n\t\tuint256 amount,\n\t\tstring memory retireeName,\n\t\tstring memory customUri,\n\t\tstring memory comment,\n\t\tbytes memory data\n\t) public onlyExPostToken(tokenId) returns (uint256 nftTokenId) {\n\t\treturn _retire(\n\t\t\tmsg.sender,\n\t\t\ttokenId,\n\t\t\tamount,\n\t\t\tretireeName,\n\t\t\tcustomUri,\n\t\t\tcomment,\n\t\t\tdata\n\t\t);\n\t}\n\n\tfunction retireFromSignature(\n\t\tbytes calldata signature,\n\t\tsignatureTransferPayload calldata payload,\n\t\tstring memory retireeName,\n\t\tstring memory customUri,\n\t\tstring memory comment,\n\t\tbytes memory data\n\t)\n\t\tpublic\n\t\tonlyExPostToken(payload.tokenId)\n\t\tonlyValidSignatureTransfer(signature, payload)\n\t\treturns (uint256 nftTokenId)\n\t{\n\t\treturn _retire(\n\t\t\tpayload.signer,\n\t\t\tpayload.tokenId,\n\t\t\tpayload.amount,\n\t\t\tretireeName,\n\t\t\tcustomUri,\n\t\t\tcomment,\n\t\t\tdata\n\t\t);\n\t}\n\n\tfunction _retire(\n\t\taddress retiree,\n\t\tuint256 tokenId,\n\t\tuint256 amount,\n\t\tstring memory retireeName,\n\t\tstring memory customUri,\n\t\tstring memory comment,\n\t\tbytes memory data\n\t) internal returns(uint256 nftTokenId) {\n\t\t_burn(retiree, tokenId, amount);\n\t\tnftTokenId = mintRetirementCertificate(retiree, tokenId, amount, retireeName, customUri, comment);\n\t\temit RetiredVintage(retiree, tokenId, amount, nftTokenId, data);\n\t}\n\n\tfunction mintRetirementCertificate(\n\t\taddress account,\n\t\tuint256 tokenId,\n\t\tuint256 amount,\n\t\tstring memory retireeName,\n\t\tstring memory customUri,\n\t\tstring memory comment\n\t) internal returns (uint256) {\n\t\tuint256 nftTokenId = nextTokenId();\n\t\tretirementMapping[nftTokenId] = RetirementData(\n\t\t\taccount,\n\t\t\tamount,\n\t\t\ttokenId,\n\t\t\tretireeName,\n\t\t\tcustomUri,\n\t\t\tcomment\n\t\t);\n\t\t_mint(account, nftTokenId, 1, '');\n\t\treturn nftTokenId;\n\t}\n\n\n\tfunction cancelCreditsFromSignature(\n\t\tbytes calldata signature,\n\t\tsignatureTransferPayload calldata payload,\n\t\tstring memory comment,\n\t\tbytes memory data\n\t)\n\t\tpublic\n\t\tonlyExPostToken(payload.tokenId)\n\t\tonlyValidSignatureTransfer(signature, payload)\n\t{\n\t\temit CancelledCredits(payload.signer, payload.tokenId, payload.amount,comment, data);\n\t\t_burn(payload.signer, payload.tokenId, payload.amount);\n\t}\n\n\t// ----------------------------------\n\t//              Hooks\n\t// ----------------------------------\n\n\tfunction _beforeTokenTransfer(\n\t\taddress operator,\n\t\taddress from,\n\t\taddress to,\n\t\tuint256[] memory ids,\n\t\tuint256[] memory amounts,\n\t\tbytes memory data\n\t)\n\t\tinternal\n\t\toverride(ERC1155Upgradeable, ERC1155SupplyUpgradeable)\n\t\twhenNotPaused\n\t\tnotBlacklisted(from)\n\t\tnotBlacklisted(to)\n\t{\n\t\tfor(uint256 i = 0; i < ids.length; i++) {\n\t\t\trequire((retirementMapping[ids[i]].amount == 0) || (from == address(0) || to == address(0)), \"11\");\n\t\t}\n\t\tsuper._beforeTokenTransfer(operator, from, to, ids, amounts, data);\n\t}\n\n\tfunction setURI(string memory newuri) public onlyRole(URI_SETTER_ROLE) {\n\t\t_setURI(newuri);\n\t}\n\n\tfunction pause() public onlyRole(PAUSER_ROLE) {\n\t\t_pause();\n\t}\n\n\tfunction unpause() public onlyRole(PAUSER_ROLE) {\n\t\t_unpause();\n\t}\n\n\tfunction nextTokenId() internal returns (uint256) {\n\t\tunchecked {\n\t\t\ttopTokenId += 1;\n\t\t}\n\t\treturn topTokenId;\n\t}\n\n\tfunction _authorizeUpgrade(\n\t\taddress newImplementation\n\t) internal override onlyRole(UPGRADER_ROLE) {}\n\n\t// The following functions are overrides required by Solidity.\n\n\tfunction supportsInterface(\n\t\tbytes4 interfaceId\n\t)\n\t\tpublic\n\t\tview\n\t\toverride(ERC1155Upgradeable, AccessControlUpgradeable,ERC1155ReceiverUpgradeable)\n\t\treturns (bool)\n\t{\n\t\treturn super.supportsInterface(interfaceId);\n\t}\n}\n",
  "sourcePath": "/Users/thorduragustsson/Programming/Projects/CarbonRegistryContracts/contracts/Project.sol",
  "compiler": {
    "name": "solc",
    "version": "0.8.13+commit.abaa5c0e.Emscripten.clang"
  },
  "schemaVersion": "3.4.13",
  "updatedAt": "2023-04-28T15:15:58.701Z",
  "networkType": "ethereum",
  "devdoc": {
    "kind": "dev",
    "methods": {
      "balanceOf(address,uint256)": {
        "details": "See {IERC1155-balanceOf}. Requirements: - `account` cannot be the zero address."
      },
      "balanceOfBatch(address[],uint256[])": {
        "details": "See {IERC1155-balanceOfBatch}. Requirements: - `accounts` and `ids` must have the same length."
      },
      "constructor": {
        "custom:oz-upgrades-unsafe-allow": "constructor"
      },
      "exists(uint256)": {
        "details": "Indicates whether any token exist with a given id, or not."
      },
      "getRoleAdmin(bytes32)": {
        "details": "Returns the admin role that controls `role`. See {grantRole} and {revokeRole}. To change a role's admin, use {_setRoleAdmin}."
      },
      "grantRole(bytes32,address)": {
        "details": "Grants `role` to `account`. If `account` had not been already granted `role`, emits a {RoleGranted} event. Requirements: - the caller must have ``role``'s admin role. May emit a {RoleGranted} event."
      },
      "hasRole(bytes32,address)": {
        "details": "Returns `true` if `account` has been granted `role`."
      },
      "isApprovedForAll(address,address)": {
        "details": "See {IERC1155-isApprovedForAll}."
      },
      "paused()": {
        "details": "Returns true if the contract is paused, and false otherwise."
      },
      "proxiableUUID()": {
        "details": "Implementation of the ERC1822 {proxiableUUID} function. This returns the storage slot used by the implementation. It is used to validate the implementation's compatibility when performing an upgrade. IMPORTANT: A proxy pointing at a proxiable contract should not be considered proxiable itself, because this risks bricking a proxy that upgrades to it, by delegating to itself until out of gas. Thus it is critical that this function revert if invoked through a proxy. This is guaranteed by the `notDelegated` modifier."
      },
      "renounceRole(bytes32,address)": {
        "details": "Revokes `role` from the calling account. Roles are often managed via {grantRole} and {revokeRole}: this function's purpose is to provide a mechanism for accounts to lose their privileges if they are compromised (such as when a trusted device is misplaced). If the calling account had been revoked `role`, emits a {RoleRevoked} event. Requirements: - the caller must be `account`. May emit a {RoleRevoked} event."
      },
      "revokeRole(bytes32,address)": {
        "details": "Revokes `role` from `account`. If `account` had been granted `role`, emits a {RoleRevoked} event. Requirements: - the caller must have ``role``'s admin role. May emit a {RoleRevoked} event."
      },
      "safeBatchTransferFrom(address,address,uint256[],uint256[],bytes)": {
        "details": "See {IERC1155-safeBatchTransferFrom}."
      },
      "safeTransferFrom(address,address,uint256,uint256,bytes)": {
        "details": "See {IERC1155-safeTransferFrom}."
      },
      "setApprovalForAll(address,bool)": {
        "details": "See {IERC1155-setApprovalForAll}."
      },
      "totalSupply(uint256)": {
        "details": "Total amount of tokens in with a given id."
      },
      "upgradeTo(address)": {
        "details": "Upgrade the implementation of the proxy to `newImplementation`. Calls {_authorizeUpgrade}. Emits an {Upgraded} event."
      },
      "upgradeToAndCall(address,bytes)": {
        "details": "Upgrade the implementation of the proxy to `newImplementation`, and subsequently execute the function call encoded in `data`. Calls {_authorizeUpgrade}. Emits an {Upgraded} event."
      },
      "uri(uint256)": {
        "details": "See {IERC1155MetadataURI-uri}. This implementation returns the same URI for *all* token types. It relies on the token type ID substitution mechanism https://eips.ethereum.org/EIPS/eip-1155#metadata[defined in the EIP]. Clients calling this function must replace the `\\{id\\}` substring with the actual token type ID."
      }
    },
    "version": 1
  },
  "userdoc": {
    "kind": "user",
    "methods": {},
    "version": 1
  }
}