{
  "contractName": "Project",
  "abi": [
    {
      "inputs": [],
      "stateMutability": "nonpayable",
      "type": "constructor"
    },
    {
      "anonymous": false,
      "inputs": [
        {
          "indexed": true,
          "internalType": "address",
          "name": "from",
          "type": "address"
        },
        {
          "indexed": true,
          "internalType": "uint256",
          "name": "tokenId",
          "type": "uint256"
        },
        {
          "indexed": false,
          "internalType": "uint256",
          "name": "amount",
          "type": "uint256"
        },
        {
          "indexed": true,
          "internalType": "enum AdminActionReason",
          "name": "reason",
          "type": "uint8"
        }
      ],
      "name": "AdminBurn",
      "type": "event"
    },
    {
      "anonymous": false,
      "inputs": [
        {
          "indexed": false,
          "internalType": "address",
          "name": "previousAdmin",
          "type": "address"
        },
        {
          "indexed": false,
          "internalType": "address",
          "name": "newAdmin",
          "type": "address"
        }
      ],
      "name": "AdminChanged",
      "type": "event"
    },
    {
      "anonymous": false,
      "inputs": [
        {
          "indexed": true,
          "internalType": "address",
          "name": "from",
          "type": "address"
        },
        {
          "indexed": false,
          "internalType": "address",
          "name": "to",
          "type": "address"
        },
        {
          "indexed": true,
          "internalType": "uint256",
          "name": "tokenId",
          "type": "uint256"
        },
        {
          "indexed": false,
          "internalType": "uint256",
          "name": "amount",
          "type": "uint256"
        },
        {
          "indexed": true,
          "internalType": "enum AdminActionReason",
          "name": "reason",
          "type": "uint8"
        }
      ],
      "name": "AdminClawback",
      "type": "event"
    },
    {
      "anonymous": false,
      "inputs": [
        {
          "indexed": true,
          "internalType": "address",
          "name": "account",
          "type": "address"
        },
        {
          "indexed": true,
          "internalType": "address",
          "name": "operator",
          "type": "address"
        },
        {
          "indexed": false,
          "internalType": "bool",
          "name": "approved",
          "type": "bool"
        }
      ],
      "name": "ApprovalForAll",
      "type": "event"
    },
    {
      "anonymous": false,
      "inputs": [
        {
          "indexed": true,
          "internalType": "address",
          "name": "beacon",
          "type": "address"
        }
      ],
      "name": "BeaconUpgraded",
      "type": "event"
    },
    {
      "anonymous": false,
      "inputs": [
        {
          "indexed": false,
          "internalType": "address",
          "name": "account",
          "type": "address"
        },
        {
          "indexed": true,
          "internalType": "uint256",
          "name": "tokenId",
          "type": "uint256"
        },
        {
          "indexed": false,
          "internalType": "uint256",
          "name": "amount",
          "type": "uint256"
        }
      ],
      "name": "ExAnteMinted",
      "type": "event"
    },
    {
      "anonymous": false,
      "inputs": [
        {
          "indexed": true,
          "internalType": "uint256",
          "name": "tokenId",
          "type": "uint256"
        },
        {
          "indexed": false,
          "internalType": "uint256",
          "name": "estimatedAmount",
          "type": "uint256"
        },
        {
          "indexed": false,
          "internalType": "uint256",
          "name": "verificationPeriodStart",
          "type": "uint256"
        },
        {
          "indexed": false,
          "internalType": "uint256",
          "name": "verificationPeriodEnd",
          "type": "uint256"
        },
        {
          "indexed": false,
          "internalType": "string",
          "name": "serialization",
          "type": "string"
        }
      ],
      "name": "ExPostCreated",
      "type": "event"
    },
    {
      "anonymous": false,
      "inputs": [
        {
          "indexed": true,
          "internalType": "uint256",
          "name": "tokenId",
          "type": "uint256"
        },
        {
          "indexed": false,
          "internalType": "uint256",
          "name": "amount",
          "type": "uint256"
        },
        {
          "indexed": false,
          "internalType": "uint256",
          "name": "amountToAnteHolders",
          "type": "uint256"
        },
        {
          "indexed": false,
          "internalType": "uint256",
          "name": "verificationPeriodStart",
          "type": "uint256"
        },
        {
          "indexed": false,
          "internalType": "uint256",
          "name": "verificationPeriodEnd",
          "type": "uint256"
        },
        {
          "indexed": false,
          "internalType": "string",
          "name": "monitoringReport",
          "type": "string"
        }
      ],
      "name": "ExPostVerifiedAndMinted",
      "type": "event"
    },
    {
      "anonymous": false,
      "inputs": [
        {
          "indexed": true,
          "internalType": "address",
          "name": "account",
          "type": "address"
        },
        {
          "indexed": true,
          "internalType": "uint256",
          "name": "exPostTokenId",
          "type": "uint256"
        },
        {
          "indexed": false,
          "internalType": "uint256",
          "name": "exPostAmountReceived",
          "type": "uint256"
        },
        {
          "indexed": false,
          "internalType": "uint256",
          "name": "exAnteAmountBurned",
          "type": "uint256"
        }
      ],
      "name": "ExchangeAnteForPost",
      "type": "event"
    },
    {
      "anonymous": false,
      "inputs": [
        {
          "indexed": false,
          "internalType": "uint8",
          "name": "version",
          "type": "uint8"
        }
      ],
      "name": "Initialized",
      "type": "event"
    },
    {
      "anonymous": false,
      "inputs": [
        {
          "indexed": false,
          "internalType": "address",
          "name": "account",
          "type": "address"
        }
      ],
      "name": "Paused",
      "type": "event"
    },
    {
      "anonymous": false,
      "inputs": [
        {
          "indexed": true,
          "internalType": "address",
          "name": "account",
          "type": "address"
        },
        {
          "indexed": true,
          "internalType": "uint256",
          "name": "tokenId",
          "type": "uint256"
        },
        {
          "indexed": false,
          "internalType": "uint256",
          "name": "amount",
          "type": "uint256"
        },
        {
          "indexed": false,
          "internalType": "bytes",
          "name": "data",
          "type": "bytes"
        }
      ],
      "name": "RetiredVintage",
      "type": "event"
    },
    {
      "anonymous": false,
      "inputs": [
        {
          "indexed": true,
          "internalType": "bytes32",
          "name": "role",
          "type": "bytes32"
        },
        {
          "indexed": true,
          "internalType": "bytes32",
          "name": "previousAdminRole",
          "type": "bytes32"
        },
        {
          "indexed": true,
          "internalType": "bytes32",
          "name": "newAdminRole",
          "type": "bytes32"
        }
      ],
      "name": "RoleAdminChanged",
      "type": "event"
    },
    {
      "anonymous": false,
      "inputs": [
        {
          "indexed": true,
          "internalType": "bytes32",
          "name": "role",
          "type": "bytes32"
        },
        {
          "indexed": true,
          "internalType": "address",
          "name": "account",
          "type": "address"
        },
        {
          "indexed": true,
          "internalType": "address",
          "name": "sender",
          "type": "address"
        }
      ],
      "name": "RoleGranted",
      "type": "event"
    },
    {
      "anonymous": false,
      "inputs": [
        {
          "indexed": true,
          "internalType": "bytes32",
          "name": "role",
          "type": "bytes32"
        },
        {
          "indexed": true,
          "internalType": "address",
          "name": "account",
          "type": "address"
        },
        {
          "indexed": true,
          "internalType": "address",
          "name": "sender",
          "type": "address"
        }
      ],
      "name": "RoleRevoked",
      "type": "event"
    },
    {
      "anonymous": false,
      "inputs": [
        {
          "indexed": true,
          "internalType": "address",
          "name": "from",
          "type": "address"
        },
        {
          "indexed": true,
          "internalType": "uint256",
          "name": "tokenId",
          "type": "uint256"
        },
        {
          "indexed": false,
          "internalType": "uint256",
          "name": "amount",
          "type": "uint256"
        }
      ],
      "name": "SignedRetire",
      "type": "event"
    },
    {
      "anonymous": false,
      "inputs": [
        {
          "indexed": true,
          "internalType": "address",
          "name": "from",
          "type": "address"
        },
        {
          "indexed": true,
          "internalType": "address",
          "name": "to",
          "type": "address"
        },
        {
          "indexed": true,
          "internalType": "uint256",
          "name": "tokenId",
          "type": "uint256"
        },
        {
          "indexed": false,
          "internalType": "uint256",
          "name": "amount",
          "type": "uint256"
        }
      ],
      "name": "SignedTransfer",
      "type": "event"
    },
    {
      "anonymous": false,
      "inputs": [
        {
          "indexed": true,
          "internalType": "address",
          "name": "operator",
          "type": "address"
        },
        {
          "indexed": true,
          "internalType": "address",
          "name": "from",
          "type": "address"
        },
        {
          "indexed": true,
          "internalType": "address",
          "name": "to",
          "type": "address"
        },
        {
          "indexed": false,
          "internalType": "uint256[]",
          "name": "ids",
          "type": "uint256[]"
        },
        {
          "indexed": false,
          "internalType": "uint256[]",
          "name": "values",
          "type": "uint256[]"
        }
      ],
      "name": "TransferBatch",
      "type": "event"
    },
    {
      "anonymous": false,
      "inputs": [
        {
          "indexed": true,
          "internalType": "address",
          "name": "operator",
          "type": "address"
        },
        {
          "indexed": true,
          "internalType": "address",
          "name": "from",
          "type": "address"
        },
        {
          "indexed": true,
          "internalType": "address",
          "name": "to",
          "type": "address"
        },
        {
          "indexed": false,
          "internalType": "uint256",
          "name": "id",
          "type": "uint256"
        },
        {
          "indexed": false,
          "internalType": "uint256",
          "name": "value",
          "type": "uint256"
        }
      ],
      "name": "TransferSingle",
      "type": "event"
    },
    {
      "anonymous": false,
      "inputs": [
        {
          "indexed": false,
          "internalType": "string",
          "name": "value",
          "type": "string"
        },
        {
          "indexed": true,
          "internalType": "uint256",
          "name": "id",
          "type": "uint256"
        }
      ],
      "name": "URI",
      "type": "event"
    },
    {
      "anonymous": false,
      "inputs": [
        {
          "indexed": false,
          "internalType": "address",
          "name": "account",
          "type": "address"
        }
      ],
      "name": "Unpaused",
      "type": "event"
    },
    {
      "anonymous": false,
      "inputs": [
        {
          "indexed": true,
          "internalType": "address",
          "name": "implementation",
          "type": "address"
        }
      ],
      "name": "Upgraded",
      "type": "event"
    },
    {
      "anonymous": false,
      "inputs": [
        {
          "indexed": true,
          "internalType": "uint256",
          "name": "tokenId",
          "type": "uint256"
        },
        {
          "indexed": false,
          "internalType": "uint256",
          "name": "newEstimate",
          "type": "uint256"
        },
        {
          "indexed": false,
          "internalType": "uint256",
          "name": "oldEstimate",
          "type": "uint256"
        },
        {
          "indexed": true,
          "internalType": "enum AdminActionReason",
          "name": "reason",
          "type": "uint8"
        }
      ],
      "name": "VintageMitigationEstimateChanged",
      "type": "event"
    },
    {
      "inputs": [],
      "name": "ANTE_MINTER_ROLE",
      "outputs": [
        {
          "internalType": "bytes32",
          "name": "",
          "type": "bytes32"
        }
      ],
      "stateMutability": "view",
      "type": "function"
    },
    {
      "inputs": [],
      "name": "BLACKLISTED",
      "outputs": [
        {
          "internalType": "bytes32",
          "name": "",
          "type": "bytes32"
        }
      ],
      "stateMutability": "view",
      "type": "function"
    },
    {
      "inputs": [],
      "name": "BLACKLISTER_ROLE",
      "outputs": [
        {
          "internalType": "bytes32",
          "name": "",
          "type": "bytes32"
        }
      ],
      "stateMutability": "view",
      "type": "function"
    },
    {
      "inputs": [],
      "name": "BURNER_ROLE",
      "outputs": [
        {
          "internalType": "bytes32",
          "name": "",
          "type": "bytes32"
        }
      ],
      "stateMutability": "view",
      "type": "function"
    },
    {
      "inputs": [],
      "name": "CLAWBACK_ROLE",
      "outputs": [
        {
          "internalType": "bytes32",
          "name": "",
          "type": "bytes32"
        }
      ],
      "stateMutability": "view",
      "type": "function"
    },
    {
      "inputs": [],
      "name": "DEFAULT_ADMIN_ROLE",
      "outputs": [
        {
          "internalType": "bytes32",
          "name": "",
          "type": "bytes32"
        }
      ],
      "stateMutability": "view",
      "type": "function"
    },
    {
      "inputs": [],
      "name": "MINTER_ROLE",
      "outputs": [
        {
          "internalType": "bytes32",
          "name": "",
          "type": "bytes32"
        }
      ],
      "stateMutability": "view",
      "type": "function"
    },
    {
      "inputs": [],
      "name": "PAUSER_ROLE",
      "outputs": [
        {
          "internalType": "bytes32",
          "name": "",
          "type": "bytes32"
        }
      ],
      "stateMutability": "view",
      "type": "function"
    },
    {
      "inputs": [],
      "name": "POST_MINTER_ROLE",
      "outputs": [
        {
          "internalType": "bytes32",
          "name": "",
          "type": "bytes32"
        }
      ],
      "stateMutability": "view",
      "type": "function"
    },
    {
      "inputs": [],
      "name": "UPGRADER_ROLE",
      "outputs": [
        {
          "internalType": "bytes32",
          "name": "",
          "type": "bytes32"
        }
      ],
      "stateMutability": "view",
      "type": "function"
    },
    {
      "inputs": [],
      "name": "URI_SETTER_ROLE",
      "outputs": [
        {
          "internalType": "bytes32",
          "name": "",
          "type": "bytes32"
        }
      ],
      "stateMutability": "view",
      "type": "function"
    },
    {
      "inputs": [],
      "name": "VERIFIER_ROLE",
      "outputs": [
        {
          "internalType": "bytes32",
          "name": "",
          "type": "bytes32"
        }
      ],
      "stateMutability": "view",
      "type": "function"
    },
    {
      "inputs": [
        {
          "internalType": "address",
          "name": "_contractRegistry",
          "type": "address"
        },
        {
          "internalType": "uint8",
          "name": "_maxAntePerc",
          "type": "uint8"
        },
        {
          "internalType": "uint256",
          "name": "_projectId",
          "type": "uint256"
        },
        {
          "internalType": "string",
          "name": "_projectName",
          "type": "string"
        }
      ],
      "name": "__ProjectStorage_init",
      "outputs": [],
      "stateMutability": "nonpayable",
      "type": "function"
    },
    {
      "inputs": [
        {
          "internalType": "address",
          "name": "account",
          "type": "address"
        },
        {
          "internalType": "uint256",
          "name": "id",
          "type": "uint256"
        }
      ],
      "name": "balanceOf",
      "outputs": [
        {
          "internalType": "uint256",
          "name": "",
          "type": "uint256"
        }
      ],
      "stateMutability": "view",
      "type": "function"
    },
    {
      "inputs": [
        {
          "internalType": "address[]",
          "name": "accounts",
          "type": "address[]"
        },
        {
          "internalType": "uint256[]",
          "name": "ids",
          "type": "uint256[]"
        }
      ],
      "name": "balanceOfBatch",
      "outputs": [
        {
          "internalType": "uint256[]",
          "name": "",
          "type": "uint256[]"
        }
      ],
      "stateMutability": "view",
      "type": "function"
    },
    {
      "inputs": [],
      "name": "contractRegistry",
      "outputs": [
        {
          "internalType": "address",
          "name": "",
          "type": "address"
        }
      ],
      "stateMutability": "view",
      "type": "function"
    },
    {
      "inputs": [
        {
          "internalType": "uint256",
          "name": "",
          "type": "uint256"
        }
      ],
      "name": "exAnteToExPostTokenId",
      "outputs": [
        {
          "internalType": "uint256",
          "name": "",
          "type": "uint256"
        }
      ],
      "stateMutability": "view",
      "type": "function"
    },
    {
      "inputs": [
        {
          "internalType": "uint256",
          "name": "",
          "type": "uint256"
        }
      ],
      "name": "exPostToExAnteTokenId",
      "outputs": [
        {
          "internalType": "uint256",
          "name": "",
          "type": "uint256"
        }
      ],
      "stateMutability": "view",
      "type": "function"
    },
    {
      "inputs": [
        {
          "internalType": "uint256",
          "name": "",
          "type": "uint256"
        }
      ],
      "name": "exPostVintageMapping",
      "outputs": [
        {
          "internalType": "string",
          "name": "serialization",
          "type": "string"
        },
        {
          "internalType": "uint256",
          "name": "estMitigations",
          "type": "uint256"
        },
        {
          "internalType": "uint256",
          "name": "verificationPeriodStart",
          "type": "uint256"
        },
        {
          "internalType": "uint256",
          "name": "verificationPeriodEnd",
          "type": "uint256"
        },
        {
          "internalType": "uint256",
          "name": "lastVerificationTimestamp",
          "type": "uint256"
        }
      ],
      "stateMutability": "view",
      "type": "function"
    },
    {
      "inputs": [
        {
          "internalType": "uint256",
          "name": "id",
          "type": "uint256"
        }
      ],
      "name": "exists",
      "outputs": [
        {
          "internalType": "bool",
          "name": "",
          "type": "bool"
        }
      ],
      "stateMutability": "view",
      "type": "function"
    },
    {
      "inputs": [
        {
          "internalType": "bytes32",
          "name": "role",
          "type": "bytes32"
        }
      ],
      "name": "getRoleAdmin",
      "outputs": [
        {
          "internalType": "bytes32",
          "name": "",
          "type": "bytes32"
        }
      ],
      "stateMutability": "view",
      "type": "function"
    },
    {
      "inputs": [
        {
          "internalType": "bytes32",
          "name": "role",
          "type": "bytes32"
        },
        {
          "internalType": "address",
          "name": "account",
          "type": "address"
        }
      ],
      "name": "grantRole",
      "outputs": [],
      "stateMutability": "nonpayable",
      "type": "function"
    },
    {
      "inputs": [
        {
          "internalType": "bytes32",
          "name": "role",
          "type": "bytes32"
        },
        {
          "internalType": "address",
          "name": "account",
          "type": "address"
        }
      ],
      "name": "hasRole",
      "outputs": [
        {
          "internalType": "bool",
          "name": "",
          "type": "bool"
        }
      ],
      "stateMutability": "view",
      "type": "function"
    },
    {
      "inputs": [
        {
          "internalType": "address",
          "name": "account",
          "type": "address"
        },
        {
          "internalType": "address",
          "name": "operator",
          "type": "address"
        }
      ],
      "name": "isApprovedForAll",
      "outputs": [
        {
          "internalType": "bool",
          "name": "",
          "type": "bool"
        }
      ],
      "stateMutability": "view",
      "type": "function"
    },
    {
      "inputs": [],
      "name": "maxAntePercentage",
      "outputs": [
        {
          "internalType": "uint8",
          "name": "",
          "type": "uint8"
        }
      ],
      "stateMutability": "view",
      "type": "function"
    },
    {
      "inputs": [],
      "name": "paused",
      "outputs": [
        {
          "internalType": "bool",
          "name": "",
          "type": "bool"
        }
      ],
      "stateMutability": "view",
      "type": "function"
    },
    {
      "inputs": [],
      "name": "projectId",
      "outputs": [
        {
          "internalType": "uint256",
          "name": "",
          "type": "uint256"
        }
      ],
      "stateMutability": "view",
      "type": "function"
    },
    {
      "inputs": [],
      "name": "projectName",
      "outputs": [
        {
          "internalType": "string",
          "name": "",
          "type": "string"
        }
      ],
      "stateMutability": "view",
      "type": "function"
    },
    {
      "inputs": [],
      "name": "proxiableUUID",
      "outputs": [
        {
          "internalType": "bytes32",
          "name": "",
          "type": "bytes32"
        }
      ],
      "stateMutability": "view",
      "type": "function"
    },
    {
      "inputs": [
        {
          "internalType": "bytes32",
          "name": "role",
          "type": "bytes32"
        },
        {
          "internalType": "address",
          "name": "account",
          "type": "address"
        }
      ],
      "name": "renounceRole",
      "outputs": [],
      "stateMutability": "nonpayable",
      "type": "function"
    },
    {
      "inputs": [
        {
          "internalType": "uint256",
          "name": "",
          "type": "uint256"
        }
      ],
      "name": "retirementMapping",
      "outputs": [
        {
          "internalType": "address",
          "name": "retireeAddress",
          "type": "address"
        },
        {
          "internalType": "uint256",
          "name": "amount",
          "type": "uint256"
        },
        {
          "internalType": "uint256",
          "name": "vintageTokenId",
          "type": "uint256"
        },
        {
          "internalType": "string",
          "name": "retiree",
          "type": "string"
        },
        {
          "internalType": "string",
          "name": "customUri",
          "type": "string"
        },
        {
          "internalType": "string",
          "name": "comment",
          "type": "string"
        }
      ],
      "stateMutability": "view",
      "type": "function"
    },
    {
      "inputs": [
        {
          "internalType": "bytes32",
          "name": "role",
          "type": "bytes32"
        },
        {
          "internalType": "address",
          "name": "account",
          "type": "address"
        }
      ],
      "name": "revokeRole",
      "outputs": [],
      "stateMutability": "nonpayable",
      "type": "function"
    },
    {
      "inputs": [
        {
          "internalType": "address",
          "name": "from",
          "type": "address"
        },
        {
          "internalType": "address",
          "name": "to",
          "type": "address"
        },
        {
          "internalType": "uint256[]",
          "name": "ids",
          "type": "uint256[]"
        },
        {
          "internalType": "uint256[]",
          "name": "amounts",
          "type": "uint256[]"
        },
        {
          "internalType": "bytes",
          "name": "data",
          "type": "bytes"
        }
      ],
      "name": "safeBatchTransferFrom",
      "outputs": [],
      "stateMutability": "nonpayable",
      "type": "function"
    },
    {
      "inputs": [
        {
          "internalType": "address",
          "name": "from",
          "type": "address"
        },
        {
          "internalType": "address",
          "name": "to",
          "type": "address"
        },
        {
          "internalType": "uint256",
          "name": "id",
          "type": "uint256"
        },
        {
          "internalType": "uint256",
          "name": "amount",
          "type": "uint256"
        },
        {
          "internalType": "bytes",
          "name": "data",
          "type": "bytes"
        }
      ],
      "name": "safeTransferFrom",
      "outputs": [],
      "stateMutability": "nonpayable",
      "type": "function"
    },
    {
      "inputs": [
        {
          "internalType": "string",
          "name": "",
          "type": "string"
        }
      ],
      "name": "serializationToExPostTokenIdMapping",
      "outputs": [
        {
          "internalType": "uint256",
          "name": "",
          "type": "uint256"
        }
      ],
      "stateMutability": "view",
      "type": "function"
    },
    {
      "inputs": [
        {
          "internalType": "address",
          "name": "operator",
          "type": "address"
        },
        {
          "internalType": "bool",
          "name": "approved",
          "type": "bool"
        }
      ],
      "name": "setApprovalForAll",
      "outputs": [],
      "stateMutability": "nonpayable",
      "type": "function"
    },
    {
      "inputs": [
        {
          "internalType": "address",
          "name": "",
          "type": "address"
        }
      ],
      "name": "signatureNonces",
      "outputs": [
        {
          "internalType": "uint32",
          "name": "",
          "type": "uint32"
        }
      ],
      "stateMutability": "view",
      "type": "function"
    },
    {
      "inputs": [],
      "name": "topTokenId",
      "outputs": [
        {
          "internalType": "uint256",
          "name": "",
          "type": "uint256"
        }
      ],
      "stateMutability": "view",
      "type": "function"
    },
    {
      "inputs": [
        {
          "internalType": "uint256",
          "name": "id",
          "type": "uint256"
        }
      ],
      "name": "totalSupply",
      "outputs": [
        {
          "internalType": "uint256",
          "name": "",
          "type": "uint256"
        }
      ],
      "stateMutability": "view",
      "type": "function"
    },
    {
      "inputs": [
        {
          "internalType": "address",
          "name": "newImplementation",
          "type": "address"
        }
      ],
      "name": "upgradeTo",
      "outputs": [],
      "stateMutability": "nonpayable",
      "type": "function"
    },
    {
      "inputs": [
        {
          "internalType": "address",
          "name": "newImplementation",
          "type": "address"
        },
        {
          "internalType": "bytes",
          "name": "data",
          "type": "bytes"
        }
      ],
      "name": "upgradeToAndCall",
      "outputs": [],
      "stateMutability": "payable",
      "type": "function"
    },
    {
      "inputs": [
        {
          "internalType": "uint256",
          "name": "",
          "type": "uint256"
        }
      ],
      "name": "uri",
      "outputs": [
        {
          "internalType": "string",
          "name": "",
          "type": "string"
        }
      ],
      "stateMutability": "view",
      "type": "function"
    },
    {
      "inputs": [
        {
          "internalType": "address",
          "name": "_contractRegistry",
          "type": "address"
        },
        {
          "internalType": "address",
          "name": "_owner",
          "type": "address"
        },
        {
          "internalType": "uint256",
          "name": "_projectId",
          "type": "uint256"
        },
        {
          "internalType": "string",
          "name": "_projectName",
          "type": "string"
        }
      ],
      "name": "initialize",
      "outputs": [],
      "stateMutability": "nonpayable",
      "type": "function"
    },
    {
      "inputs": [
        {
          "internalType": "uint256",
          "name": "tokenId",
          "type": "uint256"
        }
      ],
      "name": "isExPostToken",
      "outputs": [
        {
          "internalType": "bool",
          "name": "",
          "type": "bool"
        }
      ],
      "stateMutability": "view",
      "type": "function"
    },
    {
      "inputs": [
        {
          "internalType": "uint256",
          "name": "estAmount",
          "type": "uint256"
        },
        {
          "internalType": "uint256",
          "name": "verificationPeriodStart",
          "type": "uint256"
        },
        {
          "internalType": "uint256",
          "name": "verificationPeriodEnd",
          "type": "uint256"
        },
        {
          "internalType": "string",
          "name": "serialization",
          "type": "string"
        }
      ],
      "name": "createExPostVintage",
      "outputs": [],
      "stateMutability": "nonpayable",
      "type": "function"
    },
    {
      "inputs": [
        {
          "components": [
            {
              "internalType": "string",
              "name": "serialization",
              "type": "string"
            },
            {
              "internalType": "uint256",
              "name": "estMitigations",
              "type": "uint256"
            },
            {
              "internalType": "uint256",
              "name": "verificationPeriodStart",
              "type": "uint256"
            },
            {
              "internalType": "uint256",
              "name": "verificationPeriodEnd",
              "type": "uint256"
            },
            {
              "internalType": "uint256",
              "name": "lastVerificationTimestamp",
              "type": "uint256"
            }
          ],
          "internalType": "struct VintageData[]",
          "name": "vintages",
          "type": "tuple[]"
        }
      ],
      "name": "createExPostVintageBatch",
      "outputs": [],
      "stateMutability": "nonpayable",
      "type": "function"
    },
    {
      "inputs": [
        {
          "internalType": "address",
          "name": "account",
          "type": "address"
        },
        {
          "internalType": "uint256",
          "name": "exPostTokenId",
          "type": "uint256"
        },
        {
          "internalType": "uint256",
          "name": "amount",
          "type": "uint256"
        },
        {
          "internalType": "bytes",
          "name": "data",
          "type": "bytes"
        }
      ],
      "name": "mintExAnte",
      "outputs": [],
      "stateMutability": "nonpayable",
      "type": "function"
    },
    {
      "inputs": [
        {
          "internalType": "uint256",
          "name": "tokenId",
          "type": "uint256"
        },
        {
          "internalType": "uint256",
          "name": "newEstAmount",
          "type": "uint256"
        },
        {
          "internalType": "enum AdminActionReason",
          "name": "reason",
          "type": "uint8"
        }
      ],
      "name": "changeVintageMitigationEstimate",
      "outputs": [],
      "stateMutability": "nonpayable",
      "type": "function"
    },
    {
      "inputs": [
        {
          "internalType": "address",
          "name": "verificationVault",
          "type": "address"
        },
        {
          "internalType": "uint256",
          "name": "tokenId",
          "type": "uint256"
        },
        {
          "internalType": "uint256",
          "name": "amountVerified",
          "type": "uint256"
        },
        {
          "internalType": "uint256",
          "name": "amountToAnteHolders",
          "type": "uint256"
        },
        {
          "internalType": "uint256",
          "name": "verificationPeriodStart",
          "type": "uint256"
        },
        {
          "internalType": "uint256",
          "name": "verificationPeriodEnd",
          "type": "uint256"
        },
        {
          "internalType": "string",
          "name": "monitoringReport",
          "type": "string"
        }
      ],
      "name": "verifyAndMintExPost",
      "outputs": [],
      "stateMutability": "nonpayable",
      "type": "function"
    },
    {
      "inputs": [
        {
          "internalType": "address",
          "name": "from",
          "type": "address"
        },
        {
          "internalType": "uint256",
          "name": "tokenId",
          "type": "uint256"
        },
        {
          "internalType": "uint256",
          "name": "amount",
          "type": "uint256"
        },
        {
          "internalType": "enum AdminActionReason",
          "name": "reason",
          "type": "uint8"
        }
      ],
      "name": "adminBurn",
      "outputs": [],
      "stateMutability": "nonpayable",
      "type": "function"
    },
    {
      "inputs": [
        {
          "internalType": "address",
          "name": "from",
          "type": "address"
        },
        {
          "internalType": "address",
          "name": "to",
          "type": "address"
        },
        {
          "internalType": "uint256",
          "name": "tokenId",
          "type": "uint256"
        },
        {
          "internalType": "uint256",
          "name": "amount",
          "type": "uint256"
        },
        {
          "internalType": "enum AdminActionReason",
          "name": "reason",
          "type": "uint8"
        }
      ],
      "name": "adminClawback",
      "outputs": [],
      "stateMutability": "nonpayable",
      "type": "function"
    },
    {
      "inputs": [
        {
          "internalType": "address[]",
          "name": "accounts",
          "type": "address[]"
        },
        {
          "internalType": "uint256",
          "name": "exPostTokenId",
          "type": "uint256"
        },
        {
          "internalType": "bytes",
          "name": "data",
          "type": "bytes"
        }
      ],
      "name": "exchangeAnteForPostEvenSteven",
      "outputs": [],
      "stateMutability": "nonpayable",
      "type": "function"
    },
    {
      "inputs": [
        {
          "internalType": "uint256",
          "name": "exAnteTokenId",
          "type": "uint256"
        }
      ],
      "name": "getExPostVintageData",
      "outputs": [
        {
          "components": [
            {
              "internalType": "string",
              "name": "serialization",
              "type": "string"
            },
            {
              "internalType": "uint256",
              "name": "estMitigations",
              "type": "uint256"
            },
            {
              "internalType": "uint256",
              "name": "verificationPeriodStart",
              "type": "uint256"
            },
            {
              "internalType": "uint256",
              "name": "verificationPeriodEnd",
              "type": "uint256"
            },
            {
              "internalType": "uint256",
              "name": "lastVerificationTimestamp",
              "type": "uint256"
            }
          ],
          "internalType": "struct VintageData",
          "name": "",
          "type": "tuple"
        }
      ],
      "stateMutability": "view",
      "type": "function"
    },
    {
      "inputs": [
        {
          "internalType": "bytes",
          "name": "signature",
          "type": "bytes"
        },
        {
          "components": [
            {
              "internalType": "uint256",
              "name": "deadline",
              "type": "uint256"
            },
            {
              "internalType": "string",
              "name": "description",
              "type": "string"
            },
            {
              "internalType": "address",
              "name": "signer",
              "type": "address"
            },
            {
              "internalType": "address",
              "name": "to",
              "type": "address"
            },
            {
              "internalType": "uint256",
              "name": "tokenId",
              "type": "uint256"
            },
            {
              "internalType": "uint256",
              "name": "amount",
              "type": "uint256"
            },
            {
              "internalType": "uint256",
              "name": "nonce",
              "type": "uint256"
            }
          ],
          "internalType": "struct signatureTransferPayload",
          "name": "payload",
          "type": "tuple"
        },
        {
          "internalType": "bytes",
          "name": "data",
          "type": "bytes"
        }
      ],
      "name": "transferFromSignature",
      "outputs": [],
      "stateMutability": "payable",
      "type": "function"
    },
    {
      "inputs": [
        {
          "internalType": "uint256",
          "name": "tokenId",
          "type": "uint256"
        },
        {
          "internalType": "uint256",
          "name": "amount",
          "type": "uint256"
        },
        {
          "internalType": "bytes",
          "name": "data",
          "type": "bytes"
        }
      ],
      "name": "retire",
      "outputs": [],
      "stateMutability": "nonpayable",
      "type": "function"
    },
    {
      "inputs": [
        {
          "internalType": "bytes",
          "name": "signature",
          "type": "bytes"
        },
        {
          "components": [
            {
              "internalType": "uint256",
              "name": "deadline",
              "type": "uint256"
            },
            {
              "internalType": "string",
              "name": "description",
              "type": "string"
            },
            {
              "internalType": "address",
              "name": "signer",
              "type": "address"
            },
            {
              "internalType": "address",
              "name": "to",
              "type": "address"
            },
            {
              "internalType": "uint256",
              "name": "tokenId",
              "type": "uint256"
            },
            {
              "internalType": "uint256",
              "name": "amount",
              "type": "uint256"
            },
            {
              "internalType": "uint256",
              "name": "nonce",
              "type": "uint256"
            }
          ],
          "internalType": "struct signatureTransferPayload",
          "name": "payload",
          "type": "tuple"
        }
      ],
      "name": "retireFromSignature",
      "outputs": [
        {
          "internalType": "uint256",
          "name": "nftTokenId",
          "type": "uint256"
        }
      ],
      "stateMutability": "payable",
      "type": "function"
    },
    {
      "inputs": [
        {
          "internalType": "string",
          "name": "newuri",
          "type": "string"
        }
      ],
      "name": "setURI",
      "outputs": [],
      "stateMutability": "nonpayable",
      "type": "function"
    },
    {
      "inputs": [],
      "name": "pause",
      "outputs": [],
      "stateMutability": "nonpayable",
      "type": "function"
    },
    {
      "inputs": [],
      "name": "unpause",
      "outputs": [],
      "stateMutability": "nonpayable",
      "type": "function"
    },
    {
      "inputs": [
        {
          "internalType": "bytes4",
          "name": "interfaceId",
          "type": "bytes4"
        }
      ],
      "name": "supportsInterface",
      "outputs": [
        {
          "internalType": "bool",
          "name": "",
          "type": "bool"
        }
      ],
      "stateMutability": "view",
      "type": "function"
    }
  ],
  "bytecode": "0x60a0604052306080523480156200001557600080fd5b506200002062000026565b620000e8565b600054610100900460ff1615620000935760405162461bcd60e51b815260206004820152602760248201527f496e697469616c697a61626c653a20636f6e747261637420697320696e697469604482015266616c697a696e6760c81b606482015260840160405180910390fd5b60005460ff9081161015620000e6576000805460ff191660ff9081179091556040519081527f7f26b83ff96e1f2b6a682f133852f6798a09c465da95921460cefb38474024989060200160405180910390a15b565b608051615b9d6200012060003960008181611476015281816114b601528181611a5701528181611a970152611b260152615b9d6000f3fe6080604052600436106103965760003560e01c80636f63984d116101dc578063aa8b2ea711610102578063e36408d0116100a0578063edc0b2e61161006f578063edc0b2e614610be7578063f242432a14610c1b578063f515e6f214610c3b578063f72c0d8b14610c6f57600080fd5b8063e36408d014610b35578063e63ab1e914610b48578063e7705db614610b6a578063e985e9c514610b9e57600080fd5b8063d5391393116100dc578063d539139314610a78578063d547741f14610aac578063dbd8483d14610acc578063deb0420714610b1557600080fd5b8063aa8b2ea7146109de578063abf410e514610a12578063bd85b03914610a4b57600080fd5b806391d148541161017a5780639fec600b116101495780639fec600b14610969578063a0e1b17114610989578063a217fddf146109a9578063a22cb465146109be57600080fd5b806391d14854146108f457806396f495ae146109145780639a33e300146109345780639d88358a1461094957600080fd5b80637f345710116101b65780637f3457101461086a5780638456cb591461089e578063865d3ade146108b35780638f76c1da146108c657600080fd5b80636f63984d146107f9578063728e68e31461081957806379c276051461084a57600080fd5b80633f4ba83a116102c157806352d1902d1161025f5780635e3bbaab1161022e5780635e3bbaab14610761578063610e70121461078357806361eeb089146107b05780636929a19c146107c757600080fd5b806352d1902d146106db57806354ff0795146106f057806357c537af146107295780635c975abb1461074957600080fd5b8063453b97141161029b578063453b97141461064c5780634e1273f41461066c5780634f1ef286146106995780634f558e79146106ac57600080fd5b80633f4ba83a146106005780633fafa1271461061557806341a30d3c1461062c57600080fd5b8063248a9ca3116103395780632f2ff15d116103085780632f2ff15d146105725780633584c3841461059257806336568abe146105c05780633659cfe6146105e057600080fd5b8063248a9ca3146104ba578063282c51f3146104ea5780632ea05e441461051e5780632eb2c2d61461055257600080fd5b80630cda95f9116103755780630cda95f9146104205780630e89341c1461044057806310c1e7a11461046d5780631b3b596b1461048d57600080fd5b8062fdd58e1461039b57806301ffc9a7146103ce57806302fe5305146103fe575b600080fd5b3480156103a757600080fd5b506103bb6103b6366004614811565b610ca3565b6040519081526020015b60405180910390f35b3480156103da57600080fd5b506103ee6103e9366004614851565b610d3b565b60405190151581526020016103c5565b34801561040a57600080fd5b5061041e610419366004614948565b610d4c565b005b34801561042c57600080fd5b5061041e61043b366004614a17565b610d83565b34801561044c57600080fd5b5061046061045b366004614a83565b610f9d565b6040516103c59190614af4565b34801561047957600080fd5b5061041e610488366004614b07565b611031565b34801561049957600080fd5b506104ad6104a8366004614a83565b61125d565b6040516103c59190614b67565b3480156104c657600080fd5b506103bb6104d5366004614a83565b60009081526097602052604090206001015490565b3480156104f657600080fd5b506103bb7f3c11d16cbaffd01df69ce1c404f6340ee057498f5f00246190ea54220576a84881565b34801561052a57600080fd5b506103bb7f4bbc247fc4736523c8bdd1853fee2acfa817d663f8f4422b13e78ebf99e204a281565b34801561055e57600080fd5b5061041e61056d366004614c1d565b61137c565b34801561057e57600080fd5b5061041e61058d366004614cc6565b6113c8565b34801561059e57600080fd5b506103bb6105ad366004614a83565b6101fe6020526000908152604090205481565b3480156105cc57600080fd5b5061041e6105db366004614cc6565b6113f2565b3480156105ec57600080fd5b5061041e6105fb366004614cf2565b61146c565b34801561060c57600080fd5b5061041e61154b565b34801561062157600080fd5b506103bb6101f85481565b34801561063857600080fd5b5061041e610647366004614d0d565b61156b565b34801561065857600080fd5b5061041e610667366004614d8a565b61189d565b34801561067857600080fd5b5061068c610687366004614dcf565b611924565b6040516103c59190614e6d565b61041e6106a7366004614e80565b611a4d565b3480156106b857600080fd5b506103ee6106c7366004614a83565b600090815260fb6020526040902054151590565b3480156106e757600080fd5b506103bb611b19565b3480156106fc57600080fd5b506103bb61070b366004614948565b80516020818301810180516101ff8252928201919093012091525481565b34801561073557600080fd5b5061041e610744366004614ed2565b611bcd565b34801561075557600080fd5b5060c95460ff166103ee565b34801561076d57600080fd5b506103bb600080516020615b4883398151915281565b34801561078f57600080fd5b506101f95461079e9060ff1681565b60405160ff90911681526020016103c5565b3480156107bc57600080fd5b506103bb6101f75481565b3480156107d357600080fd5b506107e76107e2366004614a83565b611ce7565b6040516103c596959493929190614f07565b34801561080557600080fd5b506103ee610814366004614a83565b611ec1565b34801561082557600080fd5b50610839610834366004614a83565b611ee8565b6040516103c5959493929190614f67565b34801561085657600080fd5b5061041e610865366004614f9e565b611f9f565b34801561087657600080fd5b506103bb7f7804d923f43a17d325d77e781528e0793b2edd9890ab45fc64efd7b4b427744c81565b3480156108aa57600080fd5b5061041e612055565b6103bb6108c1366004615113565b612075565b3480156108d257600080fd5b506103bb6108e1366004614a83565b6101fd6020526000908152604090205481565b34801561090057600080fd5b506103ee61090f366004614cc6565b61232b565b34801561092057600080fd5b5061041e61092f366004615171565b612356565b34801561094057600080fd5b50610460612463565b34801561095557600080fd5b5061041e6109643660046151c8565b6124f2565b34801561097557600080fd5b5061041e61098436600461520e565b612584565b34801561099557600080fd5b5061041e6109a436600461523b565b6127f7565b3480156109b557600080fd5b506103bb600081565b3480156109ca57600080fd5b5061041e6109d936600461527c565b6129be565b3480156109ea57600080fd5b506103bb7ff48dee1a72497b9e734e498e1b3086c0d2dbcca13f16f15848f974469f906bbf81565b348015610a1e57600080fd5b506101fb54610a33906001600160a01b031681565b6040516001600160a01b0390911681526020016103c5565b348015610a5757600080fd5b506103bb610a66366004614a83565b600090815260fb602052604090205490565b348015610a8457600080fd5b506103bb7f9f2df0fed2c77648de5860a4cc508cd0818c85b8b8a1ab4ceeef8d981c8956a681565b348015610ab857600080fd5b5061041e610ac7366004614cc6565b6129c9565b348015610ad857600080fd5b50610b00610ae7366004614cf2565b6101c56020526000908152604090205463ffffffff1681565b60405163ffffffff90911681526020016103c5565b348015610b2157600080fd5b5061041e610b303660046152b8565b6129ee565b61041e610b4336600461530f565b612a97565b348015610b5457600080fd5b506103bb600080516020615b0183398151915281565b348015610b7657600080fd5b506103bb7f0ce23c3e399818cfee81a7ab0880f714e53d7672b08df0fa62f2843416e1ea0981565b348015610baa57600080fd5b506103ee610bb9366004615390565b6001600160a01b03918216600090815260666020908152604080832093909416825291909152205460ff1690565b348015610bf357600080fd5b506103bb7fd5bbb2f0fbfc1d5938ca13cabd3156d362f7862fa87504c8d589f5e8f2cbc45381565b348015610c2757600080fd5b5061041e610c363660046153ba565b612c31565b348015610c4757600080fd5b506103bb7f98db8a220cd0f09badce9f22d0ba7e93edb3d404448cc3560d391ab096ad16e981565b348015610c7b57600080fd5b506103bb7f189ab7a9244df0848122154315af71fe140f3db0fe014031783b0946b8c9d2e381565b60006001600160a01b038316610d135760405162461bcd60e51b815260206004820152602a60248201527f455243313135353a2061646472657373207a65726f206973206e6f742061207660448201526930b634b21037bbb732b960b11b60648201526084015b60405180910390fd5b5060009081526065602090815260408083206001600160a01b03949094168352929052205490565b6000610d4682612c76565b92915050565b7f7804d923f43a17d325d77e781528e0793b2edd9890ab45fc64efd7b4b427744c610d7681612c9b565b610d7f82612ca5565b5050565b81610d8d81611ec1565b610da95760405162461bcd60e51b8152600401610d0a9061541e565b60008381526101fe602052604081205490819003610e095760405162461bcd60e51b815260206004820152601860248201527f50726f6a6563743a204e6f20616e746520686f6c6465727300000000000000006044820152606401610d0a565b600081815260fb602052604081205490610e233087610ca3565b905060008111610e755760405162461bcd60e51b815260206004820152601760248201527f50726f6a6563743a204e6f20706f737420737570706c790000000000000000006044820152606401610d0a565b60005b8751811015610f93576000610ea6898381518110610e9857610e98615455565b602002602001015186610ca3565b9050600084610eb58584615481565b610ebf91906154a0565b90508181811115610ecd5750805b610ef18b8581518110610ee257610ee2615455565b60200260200101518883612cb8565b610f17308c8681518110610f0757610f07615455565b60200260200101518c858d612e51565b898b8581518110610f2a57610f2a615455565b60200260200101516001600160a01b03167ffa5cd0fcb25938b2f45b3ca175241bfb3739cf4db3cb7476846930ec714f13f28484604051610f75929190918252602082015260400190565b60405180910390a35050508080610f8b906154c2565b915050610e78565b5050505050505050565b606060678054610fac906154db565b80601f0160208091040260200160405190810160405280929190818152602001828054610fd8906154db565b80156110255780601f10610ffa57610100808354040283529160200191611025565b820191906000526020600020905b81548152906001019060200180831161100857829003601f168201915b50505050509050919050565b7fd5bbb2f0fbfc1d5938ca13cabd3156d362f7862fa87504c8d589f5e8f2cbc45361105b81612c9b565b8361106581611ec1565b6110815760405162461bcd60e51b8152600401610d0a9061541e565b60008581526101fc6020526040812060038101546004909101548791116040518060400160405280601a815260200179141c9bda9958dd0e88151bdad95b881a5cc81d995c9a599a595960321b815250906110ef5760405162461bcd60e51b8152600401610d0a9190614af4565b5060008781526101fe60205260408120549081900361112857506101f780546001019081905560008881526101fe602052604090208190555b60008881526101fc602090815260408083206001015460fb9092528220549091611152828461550f565b6101f95490915060009060649061116c9060ff1684615481565b61117691906154a0565b600086815260fb6020526040902054909150816111938d83615526565b11156111e15760405162461bcd60e51b815260206004820152601e60248201527f4d6178696d756d206578416e746520737570706c7920657863656564656400006044820152606401610d0a565b60008681526101fd602052604090208d90556111ff8e878e8e612f8d565b857f58d6aa2be0272ea3795ba43f2998cc60f526ba18123bf86a394bd3d21f1891888f8e6040516112459291906001600160a01b03929092168252602082015260400190565b60405180910390a25050505050505050505050505050565b61128f6040518060a0016040528060608152602001600081526020016000815260200160008152602001600081525090565b60008281526101fd60209081526040808320548084526101fc90925291829020825160a081019093528054919291829082906112ca906154db565b80601f01602080910402602001604051908101604052809291908181526020018280546112f6906154db565b80156113435780601f1061131857610100808354040283529160200191611343565b820191906000526020600020905b81548152906001019060200180831161132657829003601f168201915b50505050508152602001600182015481526020016002820154815260200160038201548152602001600482015481525050915050919050565b6001600160a01b03851633148061139857506113988533610bb9565b6113b45760405162461bcd60e51b8152600401610d0a9061553e565b6113c185858585856130a9565b5050505050565b6000828152609760205260409020600101546113e381612c9b565b6113ed8383613297565b505050565b6001600160a01b03811633146114625760405162461bcd60e51b815260206004820152602f60248201527f416363657373436f6e74726f6c3a2063616e206f6e6c792072656e6f756e636560448201526e103937b632b9903337b91039b2b63360891b6064820152608401610d0a565b610d7f828261331d565b6001600160a01b037f00000000000000000000000000000000000000000000000000000000000000001630036114b45760405162461bcd60e51b8152600401610d0a9061558c565b7f00000000000000000000000000000000000000000000000000000000000000006001600160a01b03166114fd600080516020615ae1833981519152546001600160a01b031690565b6001600160a01b0316146115235760405162461bcd60e51b8152600401610d0a906155d8565b61152c81613384565b60408051600080825260208201909252611548918391906133ae565b50565b600080516020615b0183398151915261156381612c9b565b611548613519565b7f0ce23c3e399818cfee81a7ab0880f714e53d7672b08df0fa62f2843416e1ea0961159581612c9b565b8661159f81611ec1565b6115bb5760405162461bcd60e51b8152600401610d0a9061541e565b60008881526101fc6020526040812060038101546004909101548a91116040518060400160405280601a815260200179141c9bda9958dd0e88151bdad95b881a5cc81d995c9a599a595960321b815250906116295760405162461bcd60e51b8152600401610d0a9190614af4565b50878910156116745760405162461bcd60e51b8152602060048201526017602482015276141c9bda9958dd0e88125b9d985b1a5908185b5bdd5b9d604a1b6044820152606401610d0a565b60008a81526101fc60205260409020600201548610156116fc5760405162461bcd60e51b815260206004820152603a60248201527f566572696669636174696f6e2074696d657374616d70206973206265666f726560448201527f20766572696669636174696f6e20706572696f642073746172740000000000006064820152608401610d0a565b60008a81526101fc602052604090206004015486116117835760405162461bcd60e51b815260206004820152603c60248201527f566572696669636174696f6e2074696d657374616d70206973206265666f726560448201527f206c61737420766572696669636174696f6e2074696d657374616d70000000006064820152608401610d0a565b60008a81526101fe6020526040812054908190036117e35788156117e35760405162461bcd60e51b8152602060048201526017602482015276141c9bda9958dd0e88125b9d985b1a5908185b5bdd5b9d604a1b6044820152606401610d0a565b60006117ef8a8c61550f565b1115611819576118198c8c6118048c8e61550f565b60405180602001604052806000815250612f8d565b60008b81526101fc60205260409020600401879055881561184f5761184f308c8b60405180602001604052806000815250612f8d565b8a7fe19de0f3da1193000100a217838f49f6bdda20dc974d33b61f92faaf446d181d8b8b8b8b8b604051611887959493929190615624565b60405180910390a2505050505050505050505050565b826118a781611ec1565b6118c35760405162461bcd60e51b8152600401610d0a9061541e565b6118ce338585612cb8565b6118d933858561356b565b5083336001600160a01b03167ff702cf129296c80b46f87602552d796449bad89ff07d72767bae5c508451aac5858560405161191692919061565a565b60405180910390a350505050565b606081518351146119895760405162461bcd60e51b815260206004820152602960248201527f455243313135353a206163636f756e747320616e6420696473206c656e677468604482015268040dad2e6dac2e8c6d60bb1b6064820152608401610d0a565b600083516001600160401b038111156119a4576119a461486e565b6040519080825280602002602001820160405280156119cd578160200160208202803683370190505b50905060005b8451811015611a4557611a188582815181106119f1576119f1615455565b6020026020010151858381518110611a0b57611a0b615455565b6020026020010151610ca3565b828281518110611a2a57611a2a615455565b6020908102919091010152611a3e816154c2565b90506119d3565b509392505050565b6001600160a01b037f0000000000000000000000000000000000000000000000000000000000000000163003611a955760405162461bcd60e51b8152600401610d0a9061558c565b7f00000000000000000000000000000000000000000000000000000000000000006001600160a01b0316611ade600080516020615ae1833981519152546001600160a01b031690565b6001600160a01b031614611b045760405162461bcd60e51b8152600401610d0a906155d8565b611b0d82613384565b610d7f828260016133ae565b6000306001600160a01b037f00000000000000000000000000000000000000000000000000000000000000001614611bb95760405162461bcd60e51b815260206004820152603860248201527f555550535570677261646561626c653a206d757374206e6f742062652063616c60448201527f6c6564207468726f7567682064656c656761746563616c6c00000000000000006064820152608401610d0a565b50600080516020615ae18339815191525b90565b6000611bd881612c9b565b83611be281611ec1565b611bfe5760405162461bcd60e51b8152600401610d0a9061541e565b60008581526101fc6020526040812060038101546004909101548791116040518060400160405280601a815260200179141c9bda9958dd0e88151bdad95b881a5cc81d995c9a599a595960321b81525090611c6c5760405162461bcd60e51b8152600401610d0a9190614af4565b50846004811115611c7f57611c7f615673565b60008881526101fc60209081526040918290206001015482518a81529182015289917f79ad675a154518428a5aa59f22c834871a66d54a46e3f4c8c5b4ee08fb576c2e910160405180910390a3505050600093845250506101fc602052604090912060010155565b6102006020526000908152604090208054600182015460028301546003840180546001600160a01b03909416949293919291611d22906154db565b80601f0160208091040260200160405190810160405280929190818152602001828054611d4e906154db565b8015611d9b5780601f10611d7057610100808354040283529160200191611d9b565b820191906000526020600020905b815481529060010190602001808311611d7e57829003601f168201915b505050505090806004018054611db0906154db565b80601f0160208091040260200160405190810160405280929190818152602001828054611ddc906154db565b8015611e295780601f10611dfe57610100808354040283529160200191611e29565b820191906000526020600020905b815481529060010190602001808311611e0c57829003601f168201915b505050505090806005018054611e3e906154db565b80601f0160208091040260200160405190810160405280929190818152602001828054611e6a906154db565b8015611eb75780601f10611e8c57610100808354040283529160200191611eb7565b820191906000526020600020905b815481529060010190602001808311611e9a57829003601f168201915b5050505050905086565b60008181526101fc602052604081208054829190611ede906154db565b9050119050919050565b6101fc60205260009081526040902080548190611f04906154db565b80601f0160208091040260200160405190810160405280929190818152602001828054611f30906154db565b8015611f7d5780601f10611f5257610100808354040283529160200191611f7d565b820191906000526020600020905b815481529060010190602001808311611f6057829003601f168201915b5050505050908060010154908060020154908060030154908060040154905085565b600080516020615b48833981519152611fb781612c9b565b60005b82518110156113ed57612043838281518110611fd857611fd8615455565b602002602001015160200151848381518110611ff657611ff6615455565b60200260200101516040015185848151811061201457612014615455565b60200260200101516060015186858151811061203257612032615455565b6020026020010151600001516127f7565b8061204d816154c2565b915050611fba565b600080516020615b0183398151915261206d81612c9b565b611548613683565b6000816080013561208581611ec1565b6120a15760405162461bcd60e51b8152600401610d0a9061541e565b84848460006121c57f79da588818fa1bb747c46ac45fd0af16861a77c5222cf5ac4538360ca4f77a2c83356120d96020860186615689565b6040516020016120ea9291906156cf565b604051602081830303815290604052805190602001208560400160208101906121139190614cf2565b6121236080880160608901614cf2565b608088013560a08901356101c5600061214260608d0160408e01614cf2565b6001600160a01b03908116825260208083019390935260409182016000205482519384019a909a529082019790975260608101959095529285166080850152931660a083015260c082019290925260e081019190915263ffffffff90911661010082015261012001604051602081830303815290604052805190602001206136c0565b90506122198185858080601f016020809104026020016040519081016040528093929190818152602001838380828437600092019190915250612212925050506060860160408701614cf2565b853561370e565b506101c5600061222f6060850160408601614cf2565b6001600160a01b0316815260208101919091526040016000908120805463ffffffff169161225c836156df565b91906101000a81548163ffffffff021916908363ffffffff160217905550506122a08760400160208101906122919190614cf2565b88608001358960a00135612cb8565b6122c26122b36060890160408a01614cf2565b88608001358960a0013561356b565b955060808701356122d96060890160408a01614cf2565b6001600160a01b03167f3ec62ad8e5ebe52709d97ce29a908961b037926c9129c8bcca2ef0461963b8b08960a0013560405161231791815260200190565b60405180910390a350505050509392505050565b60009182526097602090815260408084206001600160a01b0393909316845291905290205460ff1690565b600054610100900460ff16158080156123765750600054600160ff909116105b806123905750303b158015612390575060005460ff166001145b6123ac5760405162461bcd60e51b8152600401610d0a90615702565b6000805460ff1916600117905580156123cf576000805461ff0019166101001790555b6101f9805460ff191660ff86161790556101f883905581516123f9906101fa90602085019061475c565b506101fb80546001600160a01b0319166001600160a01b03871617905580156113c1576000805461ff0019169055604051600181527f7f26b83ff96e1f2b6a682f133852f6798a09c465da95921460cefb3847402498906020015b60405180910390a15050505050565b6101fa8054612471906154db565b80601f016020809104026020016040519081016040528092919081815260200182805461249d906154db565b80156124ea5780601f106124bf576101008083540402835291602001916124ea565b820191906000526020600020905b8154815290600101906020018083116124cd57829003601f168201915b505050505081565b7f3c11d16cbaffd01df69ce1c404f6340ee057498f5f00246190ea54220576a84861251c81612c9b565b612527858585612cb8565b81600481111561253957612539615673565b84866001600160a01b03167f28307ba5beac24bbe02c6541395dc897a2c9a884977343cfc55d6bef99a178cf8660405161257591815260200190565b60405180910390a45050505050565b600054610100900460ff16158080156125a45750600054600160ff909116105b806125be5750303b1580156125be575060005460ff166001145b6125da5760405162461bcd60e51b8152600401610d0a90615702565b6000805460ff1916600117905580156125fd576000805461ff0019166101001790555b61261560405180602001604052806000815250613812565b61261d613842565b61262561386b565b61262d613842565b612635613842565b6126836040518060400160405280600f81526020016e436172626f6e20526567697374727960881b81525060405180604001604052806005815260200164302e302e3160d81b81525061389a565b6126908560328585612356565b61269b600085613297565b6126c57f7804d923f43a17d325d77e781528e0793b2edd9890ab45fc64efd7b4b427744c85613297565b6126dd600080516020615b0183398151915285613297565b6127077fd5bbb2f0fbfc1d5938ca13cabd3156d362f7862fa87504c8d589f5e8f2cbc45385613297565b61271f600080516020615b4883398151915285613297565b6127497f189ab7a9244df0848122154315af71fe140f3db0fe014031783b0946b8c9d2e385613297565b6127737f98db8a220cd0f09badce9f22d0ba7e93edb3d404448cc3560d391ab096ad16e985613297565b61279d7f0ce23c3e399818cfee81a7ab0880f714e53d7672b08df0fa62f2843416e1ea0985613297565b6127b5600080516020615b4883398151915233613297565b80156113c1576000805461ff0019169055604051600181527f7f26b83ff96e1f2b6a682f133852f6798a09c465da95921460cefb384740249890602001612454565b600080516020615b4883398151915261280f81612c9b565b83831161286a5760405162461bcd60e51b8152602060048201526024808201527f50726f6a6563743a20496e76616c696420766572696669636174696f6e2070656044820152631c9a5bd960e21b6064820152608401610d0a565b600061287e6101f780546001019081905590565b6101fb546040516344d9d59b60e01b81529192506001600160a01b0316906344d9d59b906128b0908690600401614af4565b600060405180830381600087803b1580156128ca57600080fd5b505af11580156128de573d6000803e3d6000fd5b50505050806101ff846040516128f49190615750565b90815260408051602092819003830181209390935560a083018152858352818301899052828101889052606083018790526000608084018190528481526101fc83522082518051919261294c9284929091019061475c565b5060208201518160010155604082015181600201556060820151816003015560808201518160040155905050807fc5fb6d85b5baef0a615415607787aea341771027b7e4da34da58eaeb661154ea878787876040516129ae949392919061576c565b60405180910390a2505050505050565b610d7f3383836138cb565b6000828152609760205260409020600101546129e481612c9b565b6113ed838361331d565b7f4bbc247fc4736523c8bdd1853fee2acfa817d663f8f4422b13e78ebf99e204a2612a1881612c9b565b612a348686868660405180602001604052806000815250612e51565b816004811115612a4657612a46615673565b604080516001600160a01b038881168252602082018790528792908a16917fa8b90aeef4d9590cac2ff486fc2b5d9749ed41f9388a7eb159eef94cf5fb65ab910160405180910390a4505050505050565b8383836000612acf7f79da588818fa1bb747c46ac45fd0af16861a77c5222cf5ac4538360ca4f77a2c83356120d96020860186615689565b9050612b1c8185858080601f016020809104026020016040519081016040528093929190818152602001838380828437600092019190915250612212925050506060860160408701614cf2565b506101c56000612b326060850160408601614cf2565b6001600160a01b0316815260208101919091526040016000908120805463ffffffff1691612b5f836156df565b91906101000a81548163ffffffff021916908363ffffffff16021790555050612bb4866040016020810190612b949190614cf2565b612ba46080890160608a01614cf2565b88608001358960a0013589612e51565b60808601803590612bc89060608901614cf2565b6001600160a01b0316612be16060890160408a01614cf2565b6001600160a01b03167f3e09983b3a620e1618a2a5201b7aded9daa73221b1e3c93fb4056c6e5bea31628960a00135604051612c1f91815260200190565b60405180910390a45050505050505050565b6001600160a01b038516331480612c4d5750612c4d8533610bb9565b612c695760405162461bcd60e51b8152600401610d0a9061553e565b6113c18585858585612e51565b60006001600160e01b03198216637965db0b60e01b1480610d465750610d46826139ab565b61154881336139fb565b8051610d7f90606790602084019061475c565b6001600160a01b038316612d1a5760405162461bcd60e51b815260206004820152602360248201527f455243313135353a206275726e2066726f6d20746865207a65726f206164647260448201526265737360e81b6064820152608401610d0a565b336000612d2684613a54565b90506000612d3384613a54565b9050612d5383876000858560405180602001604052806000815250613a9f565b60008581526065602090815260408083206001600160a01b038a16845290915290205484811015612dd25760405162461bcd60e51b8152602060048201526024808201527f455243313135353a206275726e20616d6f756e7420657863656564732062616c604482015263616e636560e01b6064820152608401610d0a565b60008681526065602090815260408083206001600160a01b038b81168086529184528285208a8703905582518b81529384018a90529092908816917fc3d58168c5ae7397731d063d5bbf3d657854427343f4c083240f7aacaa2d0f62910160405180910390a46040805160208101909152600090525b50505050505050565b6001600160a01b038416612e775760405162461bcd60e51b8152600401610d0a9061579b565b336000612e8385613a54565b90506000612e9085613a54565b9050612ea0838989858589613a9f565b60008681526065602090815260408083206001600160a01b038c16845290915290205485811015612ee35760405162461bcd60e51b8152600401610d0a906157e0565b60008781526065602090815260408083206001600160a01b038d8116855292528083208985039055908a16825281208054889290612f22908490615526565b909155505060408051888152602081018890526001600160a01b03808b16928c821692918816917fc3d58168c5ae7397731d063d5bbf3d657854427343f4c083240f7aacaa2d0f62910160405180910390a4612f82848a8a8a8a8a613ba5565b505050505050505050565b6001600160a01b038416612fed5760405162461bcd60e51b815260206004820152602160248201527f455243313135353a206d696e7420746f20746865207a65726f206164647265736044820152607360f81b6064820152608401610d0a565b336000612ff985613a54565b9050600061300685613a54565b905061301783600089858589613a9f565b60008681526065602090815260408083206001600160a01b038b16845290915281208054879290613049908490615526565b909155505060408051878152602081018790526001600160a01b03808a1692600092918716917fc3d58168c5ae7397731d063d5bbf3d657854427343f4c083240f7aacaa2d0f62910160405180910390a4612e4883600089898989613ba5565b815183511461310b5760405162461bcd60e51b815260206004820152602860248201527f455243313135353a2069647320616e6420616d6f756e7473206c656e677468206044820152670dad2e6dac2e8c6d60c31b6064820152608401610d0a565b6001600160a01b0384166131315760405162461bcd60e51b8152600401610d0a9061579b565b33613140818787878787613a9f565b60005b845181101561322957600085828151811061316057613160615455565b60200260200101519050600085838151811061317e5761317e615455565b60209081029190910181015160008481526065835260408082206001600160a01b038e1683529093529190912054909150818110156131cf5760405162461bcd60e51b8152600401610d0a906157e0565b60008381526065602090815260408083206001600160a01b038e8116855292528083208585039055908b1682528120805484929061320e908490615526565b9250508190555050505080613222906154c2565b9050613143565b50846001600160a01b0316866001600160a01b0316826001600160a01b03167f4a39dc06d4c0dbc64b70af90fd698a233a518aa5d07e595d983b8c0526c8f7fb878760405161327992919061582a565b60405180910390a461328f818787878787613d00565b505050505050565b6132a1828261232b565b610d7f5760008281526097602090815260408083206001600160a01b03851684529091529020805460ff191660011790556132d93390565b6001600160a01b0316816001600160a01b0316837f2f8788117e7eff1d82e926ec794901d17c78024a50270940304540a733656f0d60405160405180910390a45050565b613327828261232b565b15610d7f5760008281526097602090815260408083206001600160a01b0385168085529252808320805460ff1916905551339285917ff6391f5c32d9c69d2a47ea670b442974b53935d1edc7fd64eb21e047a839171b9190a45050565b7f189ab7a9244df0848122154315af71fe140f3db0fe014031783b0946b8c9d2e3610d7f81612c9b565b7f4910fdfa16fed3260ed0e7147f7cc6da11a60208b5b9406d12a635614ffd91435460ff16156133e1576113ed83613dbb565b826001600160a01b03166352d1902d6040518163ffffffff1660e01b8152600401602060405180830381865afa92505050801561343b575060408051601f3d908101601f191682019092526134389181019061584f565b60015b61349e5760405162461bcd60e51b815260206004820152602e60248201527f45524331393637557067726164653a206e657720696d706c656d656e7461746960448201526d6f6e206973206e6f74205555505360901b6064820152608401610d0a565b600080516020615ae1833981519152811461350d5760405162461bcd60e51b815260206004820152602960248201527f45524331393637557067726164653a20756e737570706f727465642070726f786044820152681a58589b195555525160ba1b6064820152608401610d0a565b506113ed838383613e57565b613521613e82565b60c9805460ff191690557f5db9ee0a495bf2e6ff9c91a7834c1ba4fdd244a5e8aa4e537bd38aeae4b073aa335b6040516001600160a01b03909116815260200160405180910390a1565b6000806135806101f780546001019081905590565b6040805160c0810182526001600160a01b03888116825260208083018881528385018a8152855180840187526000808252606087019182528751808601895281815260808801528751808601895281815260a0880152888152610200855296909620855181546001600160a01b031916951694909417845590516001840155516002830155925180519495509193909261362192600385019291019061475c565b506080820151805161363d91600484019160209091019061475c565b5060a0820151805161365991600584019160209091019061475c565b509050506136798582600160405180602001604052806000815250612f8d565b90505b9392505050565b61368b613ecb565b60c9805460ff191660011790557f62e78cea01bee320cd4e420270b5ea74000d11b0c9f74754ebdbfc544b05a25861354e3390565b6000610d466136cd613f11565b8360405161190160f01b6020820152602281018390526042810182905260009060620160405160208183030381529060405280519060200120905092915050565b600061371a8585613f93565b9050826001600160a01b0316816001600160a01b0316146137775760405162461bcd60e51b8152602060048201526017602482015276496e76616c6964207369676e6174757265202d2034303160481b6044820152606401610d0a565b6001600160a01b0381166137c75760405162461bcd60e51b8152602060048201526017602482015276496e76616c6964207369676e6174757265202d2034303160481b6044820152606401610d0a565b81421061380a5760405162461bcd60e51b815260206004820152601160248201527014da59db985d1d5c9948195e1c1a5c9959607a1b6044820152606401610d0a565b949350505050565b600054610100900460ff166138395760405162461bcd60e51b8152600401610d0a90615868565b61154881613faf565b600054610100900460ff166138695760405162461bcd60e51b8152600401610d0a90615868565b565b600054610100900460ff166138925760405162461bcd60e51b8152600401610d0a90615868565b613869613fdf565b600054610100900460ff166138c15760405162461bcd60e51b8152600401610d0a90615868565b610d7f8282614012565b816001600160a01b0316836001600160a01b03160361393e5760405162461bcd60e51b815260206004820152602960248201527f455243313135353a2073657474696e6720617070726f76616c20737461747573604482015268103337b91039b2b63360b91b6064820152608401610d0a565b6001600160a01b03838116600081815260666020908152604080832094871680845294825291829020805460ff191686151590811790915591519182527f17307eab39ab6107e8899845ad3d59bd9653f200f220920489ca2b5937696c31910160405180910390a3505050565b60006001600160e01b03198216636cdb3d1360e11b14806139dc57506001600160e01b031982166303a24d0760e21b145b80610d4657506301ffc9a760e01b6001600160e01b0319831614610d46565b613a05828261232b565b610d7f57613a1281614043565b613a1d836020614055565b604051602001613a2e9291906158b3565b60408051601f198184030181529082905262461bcd60e51b8252610d0a91600401614af4565b60408051600180825281830190925260609160009190602080830190803683370190505090508281600081518110613a8e57613a8e615455565b602090810291909101015292915050565b613aa7613ecb565b84613ad27ff48dee1a72497b9e734e498e1b3086c0d2dbcca13f16f15848f974469f906bbf8261232b565b15613b1f5760405162461bcd60e51b815260206004820152601f60248201527f50726f6a6563743a204163636f756e7420697320626c61636b6c6973746564006044820152606401610d0a565b84613b4a7ff48dee1a72497b9e734e498e1b3086c0d2dbcca13f16f15848f974469f906bbf8261232b565b15613b975760405162461bcd60e51b815260206004820152601f60248201527f50726f6a6563743a204163636f756e7420697320626c61636b6c6973746564006044820152606401610d0a565b610f938888888888886141f0565b6001600160a01b0384163b1561328f5760405163f23a6e6160e01b81526001600160a01b0385169063f23a6e6190613be99089908990889088908890600401615928565b6020604051808303816000875af1925050508015613c24575060408051601f3d908101601f19168201909252613c2191810190615962565b60015b613cd057613c3061597f565b806308c379a003613c695750613c4461599a565b80613c4f5750613c6b565b8060405162461bcd60e51b8152600401610d0a9190614af4565b505b60405162461bcd60e51b815260206004820152603460248201527f455243313135353a207472616e7366657220746f206e6f6e2d455243313135356044820152732932b1b2b4bb32b91034b6b83632b6b2b73a32b960611b6064820152608401610d0a565b6001600160e01b0319811663f23a6e6160e01b14612e485760405162461bcd60e51b8152600401610d0a90615a23565b6001600160a01b0384163b1561328f5760405163bc197c8160e01b81526001600160a01b0385169063bc197c8190613d449089908990889088908890600401615a6b565b6020604051808303816000875af1925050508015613d7f575060408051601f3d908101601f19168201909252613d7c91810190615962565b60015b613d8b57613c3061597f565b6001600160e01b0319811663bc197c8160e01b14612e485760405162461bcd60e51b8152600401610d0a90615a23565b6001600160a01b0381163b613e285760405162461bcd60e51b815260206004820152602d60248201527f455243313936373a206e657720696d706c656d656e746174696f6e206973206e60448201526c1bdd08184818dbdb9d1c9858dd609a1b6064820152608401610d0a565b600080516020615ae183398151915280546001600160a01b0319166001600160a01b0392909216919091179055565b613e6083614369565b600082511180613e6d5750805b156113ed57613e7c83836143a9565b50505050565b60c95460ff166138695760405162461bcd60e51b815260206004820152601460248201527314185d5cd8589b194e881b9bdd081c185d5cd95960621b6044820152606401610d0a565b60c95460ff16156138695760405162461bcd60e51b815260206004820152601060248201526f14185d5cd8589b194e881c185d5cd95960821b6044820152606401610d0a565b6000613f8e7f8b73c3c69bb8fe3d512ecc4cf759cc79239f7b179b0ffacaa9a75d522b39400f613f416101915490565b610192546040805160208101859052908101839052606081018290524660808201523060a082015260009060c0016040516020818303038152906040528051906020012090509392505050565b905090565b6000806000613fa2858561449d565b91509150611a45816144e2565b600054610100900460ff16613fd65760405162461bcd60e51b8152600401610d0a90615868565b61154881612ca5565b600054610100900460ff166140065760405162461bcd60e51b8152600401610d0a90615868565b60c9805460ff19169055565b600054610100900460ff166140395760405162461bcd60e51b8152600401610d0a90615868565b610d7f828261462c565b6060610d466001600160a01b03831660145b60606000614064836002615481565b61406f906002615526565b6001600160401b038111156140865761408661486e565b6040519080825280601f01601f1916602001820160405280156140b0576020820181803683370190505b509050600360fc1b816000815181106140cb576140cb615455565b60200101906001600160f81b031916908160001a905350600f60fb1b816001815181106140fa576140fa615455565b60200101906001600160f81b031916908160001a905350600061411e846002615481565b614129906001615526565b90505b60018111156141a1576f181899199a1a9b1b9c1cb0b131b232b360811b85600f166010811061415d5761415d615455565b1a60f81b82828151811061417357614173615455565b60200101906001600160f81b031916908160001a90535060049490941c9361419a81615ac9565b905061412c565b50831561367c5760405162461bcd60e51b815260206004820181905260248201527f537472696e67733a20686578206c656e67746820696e73756666696369656e746044820152606401610d0a565b6001600160a01b0385166142775760005b83518110156142755782818151811061421c5761421c615455565b602002602001015160fb600086848151811061423a5761423a615455565b60200260200101518152602001908152602001600020600082825461425f9190615526565b9091555061426e9050816154c2565b9050614201565b505b6001600160a01b03841661328f5760005b8351811015612e485760008482815181106142a5576142a5615455565b6020026020010151905060008483815181106142c3576142c3615455565b60200260200101519050600060fb6000848152602001908152602001600020549050818110156143465760405162461bcd60e51b815260206004820152602860248201527f455243313135353a206275726e20616d6f756e74206578636565647320746f74604482015267616c537570706c7960c01b6064820152608401610d0a565b600092835260fb602052604090922091039055614362816154c2565b9050614288565b61437281613dbb565b6040516001600160a01b038216907fbc7cd75a20ee27fd9adebab32041f755214dbc6bffa90cc0225b39da2e5c2d3b90600090a250565b60606001600160a01b0383163b6144115760405162461bcd60e51b815260206004820152602660248201527f416464726573733a2064656c65676174652063616c6c20746f206e6f6e2d636f6044820152651b9d1c9858dd60d21b6064820152608401610d0a565b600080846001600160a01b03168460405161442c9190615750565b600060405180830381855af49150503d8060008114614467576040519150601f19603f3d011682016040523d82523d6000602084013e61446c565b606091505b50915091506144948282604051806060016040528060278152602001615b216027913961466f565b95945050505050565b60008082516041036144d35760208301516040840151606085015160001a6144c787828585614688565b945094505050506144db565b506000905060025b9250929050565b60008160048111156144f6576144f6615673565b036144fe5750565b600181600481111561451257614512615673565b0361455f5760405162461bcd60e51b815260206004820152601860248201527f45434453413a20696e76616c6964207369676e617475726500000000000000006044820152606401610d0a565b600281600481111561457357614573615673565b036145c05760405162461bcd60e51b815260206004820152601f60248201527f45434453413a20696e76616c6964207369676e6174757265206c656e677468006044820152606401610d0a565b60038160048111156145d4576145d4615673565b036115485760405162461bcd60e51b815260206004820152602260248201527f45434453413a20696e76616c6964207369676e6174757265202773272076616c604482015261756560f01b6064820152608401610d0a565b600054610100900460ff166146535760405162461bcd60e51b8152600401610d0a90615868565b8151602092830120815191909201206101919190915561019255565b6060831561467e57508161367c565b61367c838361474c565b6000807f7fffffffffffffffffffffffffffffff5d576e7357a4501ddfe92f46681b20a08311156146bf5750600090506003614743565b6040805160008082526020820180845289905260ff881692820192909252606081018690526080810185905260019060a0016020604051602081039080840390855afa158015614713573d6000803e3d6000fd5b5050604051601f1901519150506001600160a01b03811661473c57600060019250925050614743565b9150600090505b94509492505050565b815115613c4f5781518083602001fd5b828054614768906154db565b90600052602060002090601f01602090048101928261478a57600085556147d0565b82601f106147a357805160ff19168380011785556147d0565b828001600101855582156147d0579182015b828111156147d05782518255916020019190600101906147b5565b506147dc9291506147e0565b5090565b5b808211156147dc57600081556001016147e1565b80356001600160a01b038116811461480c57600080fd5b919050565b6000806040838503121561482457600080fd5b61482d836147f5565b946020939093013593505050565b6001600160e01b03198116811461154857600080fd5b60006020828403121561486357600080fd5b813561367c8161483b565b634e487b7160e01b600052604160045260246000fd5b60a081018181106001600160401b03821117156148a3576148a361486e565b60405250565b601f8201601f191681016001600160401b03811182821017156148ce576148ce61486e565b6040525050565b600082601f8301126148e657600080fd5b81356001600160401b038111156148ff576148ff61486e565b604051614916601f8301601f1916602001826148a9565b81815284602083860101111561492b57600080fd5b816020850160208301376000918101602001919091529392505050565b60006020828403121561495a57600080fd5b81356001600160401b0381111561497057600080fd5b61380a848285016148d5565b60006001600160401b038211156149955761499561486e565b5060051b60200190565b600082601f8301126149b057600080fd5b813560206149bd8261497c565b6040516149ca82826148a9565b83815260059390931b85018201928281019150868411156149ea57600080fd5b8286015b84811015614a0c576149ff816147f5565b83529183019183016149ee565b509695505050505050565b600080600060608486031215614a2c57600080fd5b83356001600160401b0380821115614a4357600080fd5b614a4f8783880161499f565b9450602086013593506040860135915080821115614a6c57600080fd5b50614a79868287016148d5565b9150509250925092565b600060208284031215614a9557600080fd5b5035919050565b60005b83811015614ab7578181015183820152602001614a9f565b83811115613e7c5750506000910152565b60008151808452614ae0816020860160208601614a9c565b601f01601f19169290920160200192915050565b60208152600061367c6020830184614ac8565b60008060008060808587031215614b1d57600080fd5b614b26856147f5565b9350602085013592506040850135915060608501356001600160401b03811115614b4f57600080fd5b614b5b878288016148d5565b91505092959194509250565b602081526000825160a06020840152614b8360c0840182614ac8565b9050602084015160408401526040840151606084015260608401516080840152608084015160a08401528091505092915050565b600082601f830112614bc857600080fd5b81356020614bd58261497c565b604051614be282826148a9565b83815260059390931b8501820192828101915086841115614c0257600080fd5b8286015b84811015614a0c5780358352918301918301614c06565b600080600080600060a08688031215614c3557600080fd5b614c3e866147f5565b9450614c4c602087016147f5565b935060408601356001600160401b0380821115614c6857600080fd5b614c7489838a01614bb7565b94506060880135915080821115614c8a57600080fd5b614c9689838a01614bb7565b93506080880135915080821115614cac57600080fd5b50614cb9888289016148d5565b9150509295509295909350565b60008060408385031215614cd957600080fd5b82359150614ce9602084016147f5565b90509250929050565b600060208284031215614d0457600080fd5b61367c826147f5565b600080600080600080600060e0888a031215614d2857600080fd5b614d31886147f5565b96506020880135955060408801359450606088013593506080880135925060a0880135915060c08801356001600160401b03811115614d6f57600080fd5b614d7b8a828b016148d5565b91505092959891949750929550565b600080600060608486031215614d9f57600080fd5b833592506020840135915060408401356001600160401b03811115614dc357600080fd5b614a79868287016148d5565b60008060408385031215614de257600080fd5b82356001600160401b0380821115614df957600080fd5b614e058683870161499f565b93506020850135915080821115614e1b57600080fd5b50614e2885828601614bb7565b9150509250929050565b600081518084526020808501945080840160005b83811015614e6257815187529582019590820190600101614e46565b509495945050505050565b60208152600061367c6020830184614e32565b60008060408385031215614e9357600080fd5b614e9c836147f5565b915060208301356001600160401b03811115614eb757600080fd5b614e28858286016148d5565b80356005811061480c57600080fd5b600080600060608486031215614ee757600080fd5b8335925060208401359150614efe60408501614ec3565b90509250925092565b60018060a01b038716815285602082015284604082015260c060608201526000614f3460c0830186614ac8565b8281036080840152614f468186614ac8565b905082810360a0840152614f5a8185614ac8565b9998505050505050505050565b60a081526000614f7a60a0830188614ac8565b90508560208301528460408301528360608301528260808301529695505050505050565b60006020808385031215614fb157600080fd5b82356001600160401b0380821115614fc857600080fd5b818501915085601f830112614fdc57600080fd5b8135614fe78161497c565b60408051614ff583826148a9565b83815260059390931b850186019286810192508984111561501557600080fd5b8686015b848110156150ac578035868111156150315760008081fd5b870160a0818d03601f19018113156150495760008081fd5b845161505481614884565b8a830135898111156150665760008081fd5b6150748f8d838701016148d5565b825250828601358b82015260608084013587830152608080850135918301919091529190920135908201528452928701928701615019565b509998505050505050505050565b60008083601f8401126150cc57600080fd5b5081356001600160401b038111156150e357600080fd5b6020830191508360208285010111156144db57600080fd5b600060e0828403121561510d57600080fd5b50919050565b60008060006040848603121561512857600080fd5b83356001600160401b038082111561513f57600080fd5b61514b878388016150ba565b9095509350602086013591508082111561516457600080fd5b50614a79868287016150fb565b6000806000806080858703121561518757600080fd5b615190856147f5565b9350602085013560ff811681146151a657600080fd5b92506040850135915060608501356001600160401b03811115614b4f57600080fd5b600080600080608085870312156151de57600080fd5b6151e7856147f5565b9350602085013592506040850135915061520360608601614ec3565b905092959194509250565b6000806000806080858703121561522457600080fd5b61522d856147f5565b93506151a6602086016147f5565b6000806000806080858703121561525157600080fd5b84359350602085013592506040850135915060608501356001600160401b03811115614b4f57600080fd5b6000806040838503121561528f57600080fd5b615298836147f5565b9150602083013580151581146152ad57600080fd5b809150509250929050565b600080600080600060a086880312156152d057600080fd5b6152d9866147f5565b94506152e7602087016147f5565b9350604086013592506060860135915061530360808701614ec3565b90509295509295909350565b6000806000806060858703121561532557600080fd5b84356001600160401b038082111561533c57600080fd5b615348888389016150ba565b9096509450602087013591508082111561536157600080fd5b61536d888389016150fb565b9350604087013591508082111561538357600080fd5b50614b5b878288016148d5565b600080604083850312156153a357600080fd5b6153ac836147f5565b9150614ce9602084016147f5565b600080600080600060a086880312156153d257600080fd5b6153db866147f5565b94506153e9602087016147f5565b9350604086013592506060860135915060808601356001600160401b0381111561541257600080fd5b614cb9888289016148d5565b6020808252601c908201527f50726f6a6563743a20546f6b656e206973206e6f74204578506f737400000000604082015260600190565b634e487b7160e01b600052603260045260246000fd5b634e487b7160e01b600052601160045260246000fd5b600081600019048311821515161561549b5761549b61546b565b500290565b6000826154bd57634e487b7160e01b600052601260045260246000fd5b500490565b6000600182016154d4576154d461546b565b5060010190565b600181811c908216806154ef57607f821691505b60208210810361510d57634e487b7160e01b600052602260045260246000fd5b6000828210156155215761552161546b565b500390565b600082198211156155395761553961546b565b500190565b6020808252602e908201527f455243313135353a2063616c6c6572206973206e6f7420746f6b656e206f776e60408201526d195c881bdc88185c1c1c9bdd995960921b606082015260800190565b6020808252602c908201527f46756e6374696f6e206d7573742062652063616c6c6564207468726f7567682060408201526b19195b1959d85d1958d85b1b60a21b606082015260800190565b6020808252602c908201527f46756e6374696f6e206d7573742062652063616c6c6564207468726f7567682060408201526b6163746976652070726f787960a01b606082015260800190565b85815284602082015283604082015282606082015260a06080820152600061564f60a0830184614ac8565b979650505050505050565b82815260406020820152600061380a6040830184614ac8565b634e487b7160e01b600052602160045260246000fd5b6000808335601e198436030181126156a057600080fd5b8301803591506001600160401b038211156156ba57600080fd5b6020019150368190038213156144db57600080fd5b8183823760009101908152919050565b600063ffffffff8083168181036156f8576156f861546b565b6001019392505050565b6020808252602e908201527f496e697469616c697a61626c653a20636f6e747261637420697320616c72656160408201526d191e481a5b9a5d1a585b1a5e995960921b606082015260800190565b60008251615762818460208701614a9c565b9190910192915050565b8481528360208201528260408201526080606082015260006157916080830184614ac8565b9695505050505050565b60208082526025908201527f455243313135353a207472616e7366657220746f20746865207a65726f206164604082015264647265737360d81b606082015260800190565b6020808252602a908201527f455243313135353a20696e73756666696369656e742062616c616e636520666f60408201526939103a3930b739b332b960b11b606082015260800190565b60408152600061583d6040830185614e32565b82810360208401526144948185614e32565b60006020828403121561586157600080fd5b5051919050565b6020808252602b908201527f496e697469616c697a61626c653a20636f6e7472616374206973206e6f74206960408201526a6e697469616c697a696e6760a81b606082015260800190565b7f416363657373436f6e74726f6c3a206163636f756e74200000000000000000008152600083516158eb816017850160208801614a9c565b7001034b99036b4b9b9b4b733903937b6329607d1b601791840191820152835161591c816028840160208801614a9c565b01602801949350505050565b6001600160a01b03868116825285166020820152604081018490526060810183905260a06080820181905260009061564f90830184614ac8565b60006020828403121561597457600080fd5b815161367c8161483b565b600060033d1115611bca5760046000803e5060005160e01c90565b600060443d10156159a85790565b6040516003193d81016004833e81513d6001600160401b0381602484011181841117156159d757505050505090565b82850191508151818111156159ef5750505050505090565b843d8701016020828501011115615a095750505050505090565b615a18602082860101876148a9565b509095945050505050565b60208082526028908201527f455243313135353a204552433131353552656365697665722072656a656374656040820152676420746f6b656e7360c01b606082015260800190565b6001600160a01b0386811682528516602082015260a060408201819052600090615a9790830186614e32565b8281036060840152615aa98186614e32565b90508281036080840152615abd8185614ac8565b98975050505050505050565b600081615ad857615ad861546b565b50600019019056fe360894a13ba1a3210667c828492db98dca3e2076cc3735a920a3ca505d382bbc65d7a28e3265b37a6474929f336521b332c1681b933f6cb9f3376673440d862a416464726573733a206c6f772d6c6576656c2064656c65676174652063616c6c206661696c6564ddf79b8d2110dbe281cf3bb7762d508cea586c974794c8fc949d41b0db114513a26469706673582212208cb4cdc2b3d743ff9237266eddc20c5db89079b1e20b1e20f9f2494f31a633dc64736f6c634300080d0033",
  "immutableReferences": {
    "997": [
      {
        "length": 32,
        "start": 5238
      },
      {
        "length": 32,
        "start": 5302
      },
      {
        "length": 32,
        "start": 6743
      },
      {
        "length": 32,
        "start": 6807
      },
      {
        "length": 32,
        "start": 6950
      }
    ]
  },
  "source": "// SPDX-License-Identifier: MIT\npragma solidity ^0.8.13;\n\nimport '@openzeppelin/contracts-upgradeable/token/ERC1155/ERC1155Upgradeable.sol';\nimport '@openzeppelin/contracts-upgradeable/access/AccessControlUpgradeable.sol';\nimport '@openzeppelin/contracts-upgradeable/security/PausableUpgradeable.sol';\nimport '@openzeppelin/contracts-upgradeable/token/ERC1155/extensions/ERC1155SupplyUpgradeable.sol';\nimport '@openzeppelin/contracts-upgradeable/proxy/utils/Initializable.sol';\nimport '@openzeppelin/contracts-upgradeable/proxy/utils/UUPSUpgradeable.sol';\n\nimport './ProjectStorage.sol';\nimport './interfaces/ICarbonContractRegistry.sol';\nimport './utils/CustomSignaturesUpgradeable.sol';\n\ncontract Project is\n\tInitializable,\n\tERC1155Upgradeable,\n\tAccessControlUpgradeable,\n\tPausableUpgradeable,\n\tERC1155SupplyUpgradeable,\n\tUUPSUpgradeable,\n\tCustomSignaturesUpgradeable,\n\tProjectStorage\n{\n\tbytes32 public constant URI_SETTER_ROLE = keccak256('URI_SETTER_ROLE');\n\tbytes32 public constant PAUSER_ROLE = keccak256('PAUSER_ROLE');\n\tbytes32 public constant ANTE_MINTER_ROLE = keccak256('ANTE_MINTER_ROLE');\n\tbytes32 public constant POST_MINTER_ROLE = keccak256('POST_MINTER_ROLE');\n\tbytes32 public constant MINTER_ROLE = keccak256('MINTER_ROLE');\n\tbytes32 public constant UPGRADER_ROLE = keccak256('UPGRADER_ROLE');\n\tbytes32 public constant BLACKLISTED = keccak256('BLACKLISTED');\n\tbytes32 public constant BLACKLISTER_ROLE = keccak256('BLACKLISTER_ROLE');\n\tbytes32 public constant BURNER_ROLE = keccak256('BURNER_ROLE');\n\tbytes32 public constant VERIFIER_ROLE = keccak256('VERIFIER_ROLE');\n\tbytes32 public constant CLAWBACK_ROLE = keccak256('CLAWBACK_ROLE');\n\n\tevent ExPostCreated(\n\t\tuint256 indexed tokenId,\n\t\tuint256 estimatedAmount,\n\t\tuint256 verificationPeriodStart,\n\t\tuint256 verificationPeriodEnd,\n\t\tstring serialization\n\t);\n\n\tevent VintageMitigationEstimateChanged(\n\t\tuint256 indexed tokenId,\n\t\tuint256 newEstimate,\n\t\tuint256 oldEstimate,\n\t\tAdminActionReason indexed reason\n\t);\n\n\tevent ExAnteMinted(\n\t\taddress account,\n\t\tuint256 indexed tokenId,\n\t\tuint256 amount\n\t);\n\n\tevent ExPostVerifiedAndMinted(\n\t\tuint256 indexed tokenId,\n\t\tuint256 amount,\n\t\tuint256 amountToAnteHolders,\n\t\tuint256 verificationPeriodStart,\n\t\tuint256 verificationPeriodEnd,\n\t\tstring monitoringReport\n\t);\n\n\tevent AdminBurn(\n\t\taddress indexed from,\n\t\tuint256 indexed tokenId,\n\t\tuint256 amount,\n\t\tAdminActionReason indexed reason\n\t);\n\n\tevent AdminClawback(\n\t\taddress indexed from,\n\t\taddress to,\n\t\tuint256 indexed tokenId,\n\t\tuint256 amount,\n\t\tAdminActionReason indexed reason\n\t);\n\n\tevent ExchangeAnteForPost(\n\t\taddress indexed account,\n\t\tuint256 indexed exPostTokenId,\n\t\tuint256 exPostAmountReceived,\n\t\tuint256 exAnteAmountBurned\n\t);\n\n\tevent RetiredVintage(\n\t\taddress indexed account,\n\t\tuint256 indexed tokenId,\n\t\tuint256 amount,\n\t\tbytes data\n\t);\n\n\tevent SignedTransfer(\n\t\taddress indexed from,\n\t\taddress indexed to,\n\t\tuint256 indexed tokenId,\n\t\tuint256 amount\n\t);\n\n\tevent SignedRetire(\n\t\taddress indexed from,\n\t\tuint256 indexed tokenId,\n\t\tuint256 amount\n\t);\n\n\t/// @custom:oz-upgrades-unsafe-allow constructor\n\tconstructor() {\n\t\t_disableInitializers();\n\t}\n\n\n\n\tfunction initialize(\n\t\taddress _contractRegistry,\n\t\taddress _owner,\n\t\tuint256 _projectId,\n\t\tstring memory _projectName\n\t) public initializer {\n\t\t__ERC1155_init('');\n\t\t__AccessControl_init();\n\t\t__Pausable_init();\n\t\t__ERC1155Supply_init();\n\t\t__UUPSUpgradeable_init();\n\t\t__CustomSignatures_init(\"Carbon Registry\", '0.0.1');\n\n\t\t// Our Inits\n\t\t__ProjectStorage_init(_contractRegistry, 50, _projectId, _projectName);\n\n\t\t_grantRole(DEFAULT_ADMIN_ROLE, _owner);\n\t\t_grantRole(URI_SETTER_ROLE, _owner);\n\t\t_grantRole(PAUSER_ROLE, _owner);\n\t\t_grantRole(ANTE_MINTER_ROLE, _owner);\n\t\t_grantRole(POST_MINTER_ROLE, _owner);\n\t\t_grantRole(UPGRADER_ROLE, _owner);\n\t\t_grantRole(BLACKLISTER_ROLE, _owner);\n\t\t_grantRole(VERIFIER_ROLE, _owner);\n\n\t\t_grantRole(POST_MINTER_ROLE, msg.sender); // Just so projectFactory can mint exPost on creation of the project\n\t}\n\n\tmodifier notBlacklisted(address account) {\n\t\trequire(\n\t\t\t!hasRole(BLACKLISTED, account),\n\t\t\t'Project: Account is blacklisted'\n\t\t);\n\t\t_;\n\t}\n\n\tmodifier onlyExPostTokens(uint256[] memory tokenIds) {\n\t\tfor (uint256 i = 0; i < tokenIds.length; i++) {\n\t\t\trequire(isExPostToken(tokenIds[i]), 'Project: Token is not ExPost');\n\t\t}\n\t\t_;\n\t}\n\n\tmodifier onlyExPostToken(uint256 tokenId) {\n\t\trequire(isExPostToken(tokenId), 'Project: Token is not ExPost');\n\t\t_;\n\t}\n\n\tfunction isExPostToken(uint256 tokenId) public view returns (bool) {\n\t\treturn bytes(exPostVintageMapping[tokenId].serialization).length > 0;\n\t}\n\n\tmodifier onlyVerifiedStatus(bool isVerified, uint256 tokenId) {\n\t\trequire(\n\t\t\t(exPostVintageMapping[tokenId].lastVerificationTimestamp >=\n\t\t\t\texPostVintageMapping[tokenId].verificationPeriodEnd) ==\n\t\t\t\tisVerified,\n\t\t\tisVerified\n\t\t\t\t? 'Project: Token is unverified'\n\t\t\t\t: 'Project: Token is verified'\n\t\t);\n\t\t_;\n\t}\n\n\t// ----------------------------------\n\t//         Minting Functions\n\t// ----------------------------------\n\n\tfunction createExPostVintage(\n\t\tuint256 estAmount,\n\t\tuint256 verificationPeriodStart,\n\t\tuint256 verificationPeriodEnd,\n\t\tstring memory serialization\n\t) public onlyRole(POST_MINTER_ROLE) {\n\t\trequire(\n\t\t\tverificationPeriodEnd > verificationPeriodStart,\n\t\t\t'Project: Invalid verification period'\n\t\t);\n\t\tuint256 newTokenId = nextTokenId();\n\t\tICarbonContractRegistry(contractRegistry).registerSerialization(\n\t\t\tserialization\n\t\t);\n\t\tserializationToExPostTokenIdMapping[serialization] = newTokenId;\n\t\texPostVintageMapping[newTokenId] = VintageData(\n\t\t\tserialization,\n\t\t\testAmount,\n\t\t\tverificationPeriodStart,\n\t\t\tverificationPeriodEnd,\n\t\t\t0\n\t\t);\n\t\temit ExPostCreated(\n\t\t\tnewTokenId,\n\t\t\testAmount,\n\t\t\tverificationPeriodStart,\n\t\t\tverificationPeriodEnd,\n\t\t\tserialization\n\t\t);\n\t}\n\n\tfunction createExPostVintageBatch(\n\t\tVintageData[] memory vintages\n\t) public onlyRole(POST_MINTER_ROLE) {\n\t\tfor (uint256 i = 0; i < vintages.length; i++) {\n\t\t\tcreateExPostVintage(\n\t\t\t\tvintages[i].estMitigations,\n\t\t\t\tvintages[i].verificationPeriodStart,\n\t\t\t\tvintages[i].verificationPeriodEnd,\n\t\t\t\tvintages[i].serialization\n\t\t\t);\n\t\t}\n\t}\n\n\tfunction mintExAnte(\n\t\taddress account,\n\t\tuint256 exPostTokenId,\n\t\tuint256 amount,\n\t\tbytes memory data\n\t)\n\t\tpublic\n\t\tonlyRole(ANTE_MINTER_ROLE)\n\t\tonlyExPostToken(exPostTokenId)\n\t\tonlyVerifiedStatus(false, exPostTokenId)\n\t{\n\t\tuint256 exAnteTokenId = exPostToExAnteTokenId[exPostTokenId];\n\t\tif (exAnteTokenId == 0) {\n\t\t\texAnteTokenId = nextTokenId();\n\t\t\texPostToExAnteTokenId[exPostTokenId] = exAnteTokenId;\n\t\t}\n\n\t\tuint256 exPostEstimatedSupply = exPostVintageMapping[exPostTokenId]\n\t\t\t.estMitigations;\n\t\tuint256 exPostVerifiedSupply = totalSupply(exPostTokenId);\n\t\tuint256 anteDrawablePostSupply = exPostEstimatedSupply -\n\t\t\texPostVerifiedSupply;\n\t\tuint256 maxExAnteSupply = (anteDrawablePostSupply *\n\t\t\t(maxAntePercentage)) / (100);\n\t\tuint256 exAnteSupply = totalSupply(exAnteTokenId);\n\n\t\trequire(\n\t\t\texAnteSupply + amount <= maxExAnteSupply,\n\t\t\t'Maximum exAnte supply exceeded'\n\t\t);\n\n\t\texAnteToExPostTokenId[exAnteTokenId] = exPostTokenId;\n\t\t_mint(account, exAnteTokenId, amount, data);\n\t\temit ExAnteMinted(account, exAnteTokenId, amount);\n\t}\n\n\tfunction changeVintageMitigationEstimate(\n\t\tuint256 tokenId,\n\t\tuint256 newEstAmount,\n\t\tAdminActionReason reason\n\t)\n\t\tpublic\n\t\tonlyRole(DEFAULT_ADMIN_ROLE)\n\t\tonlyExPostToken(tokenId)\n\t\tonlyVerifiedStatus(false, tokenId)\n\t{\n\t\temit VintageMitigationEstimateChanged(\n\t\t\ttokenId,\n\t\t\tnewEstAmount,\n\t\t\texPostVintageMapping[tokenId].estMitigations,\n\t\t\treason\n\t\t);\n\t\texPostVintageMapping[tokenId].estMitigations = newEstAmount;\n\t}\n\n\tfunction verifyAndMintExPost(\n\t\taddress verificationVault,\n\t\tuint256 tokenId,\n\t\tuint256 amountVerified,\n\t\tuint256 amountToAnteHolders,\n\t\tuint256 verificationPeriodStart,\n\t\tuint256 verificationPeriodEnd,\n\t\tstring memory monitoringReport\n\t)\n\t\tpublic\n\t\tonlyRole(VERIFIER_ROLE)\n\t\tonlyExPostToken(tokenId)\n\t\tonlyVerifiedStatus(false, tokenId)\n\t{\n\t\trequire(\n\t\t\tamountVerified >= amountToAnteHolders,\n\t\t\t'Project: Invalid amount'\n\t\t);\n\t\trequire(\n\t\t\tverificationPeriodEnd >=\n\t\t\t\texPostVintageMapping[tokenId].verificationPeriodStart,\n\t\t\t'Verification timestamp is before verification period start'\n\t\t);\n\t\trequire(\n\t\t\tverificationPeriodEnd >\n\t\t\t\texPostVintageMapping[tokenId].lastVerificationTimestamp,\n\t\t\t'Verification timestamp is before last verification timestamp'\n\t\t);\n\n\t\tuint256 exAnteTokenId = exPostToExAnteTokenId[tokenId];\n\t\tif (exAnteTokenId == 0) {\n\t\t\t// If exAnteTokenId is zero then there are no ante holders\n\t\t\trequire(amountToAnteHolders == 0, 'Project: Invalid amount');\n\t\t}\n\n\t\tif (amountVerified - amountToAnteHolders > 0) {\n\t\t\t// Mint To Verification Vault\n\t\t\t_mint(\n\t\t\t\tverificationVault,\n\t\t\t\ttokenId,\n\t\t\t\tamountVerified - amountToAnteHolders,\n\t\t\t\t''\n\t\t\t);\n\t\t}\n\t\texPostVintageMapping[tokenId]\n\t\t\t.lastVerificationTimestamp = verificationPeriodEnd;\n\n\t\tif (amountToAnteHolders > 0) {\n\t\t\t// Mint to this address, where ante holders will claim\n\t\t\t_mint(address(this), tokenId, amountToAnteHolders, '');\n\t\t}\n\n\t\temit ExPostVerifiedAndMinted(\n\t\t\ttokenId,\n\t\t\tamountVerified,\n\t\t\tamountToAnteHolders,\n\t\t\tverificationPeriodStart,\n\t\t\tverificationPeriodEnd,\n\t\t\tmonitoringReport\n\t\t);\n\t}\n\n\tfunction adminBurn(\n\t\taddress from,\n\t\tuint256 tokenId,\n\t\tuint256 amount,\n\t\tAdminActionReason reason\n\t) public onlyRole(BURNER_ROLE) {\n\t\t_burn(from, tokenId, amount);\n\t\temit AdminBurn(from, tokenId, amount, reason);\n\t}\n\n\tfunction adminClawback(\n\t\taddress from,\n\t\taddress to,\n\t\tuint256 tokenId,\n\t\tuint256 amount,\n\t\tAdminActionReason reason\n\t) public onlyRole(CLAWBACK_ROLE) {\n\t\t_safeTransferFrom(from, to, tokenId, amount, '');\n\t\temit AdminClawback(from, to, tokenId, amount, reason);\n\t}\n\n\tfunction exchangeAnteForPostEvenSteven(\n\t\taddress[] memory accounts,\n\t\tuint256 exPostTokenId,\n\t\tbytes memory data\n\t)\n\t\texternal\n\t\tonlyExPostToken(exPostTokenId)\n\t{\n\t\tuint256 exAnteTokenId = exPostToExAnteTokenId[exPostTokenId];\n\t\trequire(exAnteTokenId != 0, 'Project: No ante holders');\n\t\tuint256 currentExAnteSupply = totalSupply(exAnteTokenId);\n\t\tuint256 currentExPostSupplyInContract = balanceOf(\n\t\t\taddress(this),\n\t\t\texPostTokenId\n\t\t);\n\t\trequire(currentExPostSupplyInContract > 0, 'Project: No post supply');\n\n\t\tfor (uint256 i = 0; i < accounts.length; i++) {\n\t\t\tuint256 amountExAnte = balanceOf(accounts[i], exAnteTokenId);\n\t\t\tuint256 amountExPost = (amountExAnte *\n\t\t\t\tcurrentExPostSupplyInContract) / currentExAnteSupply;\n\t\t\tuint256 exAnteBurnAmount = amountExAnte;\n\t\t\tif (amountExAnte > amountExPost) {\n\t\t\t\texAnteBurnAmount = amountExPost;\n\t\t\t}\n\t\t\t_burn(accounts[i], exAnteTokenId, exAnteBurnAmount);\n\t\t\t_safeTransferFrom(\n\t\t\t\taddress(this),\n\t\t\t\taccounts[i],\n\t\t\t\texPostTokenId,\n\t\t\t\tamountExPost,\n\t\t\t\tdata\n\t\t\t);\n\t\t\temit ExchangeAnteForPost(\n\t\t\t\taccounts[i],\n\t\t\t\texPostTokenId,\n\t\t\t\tamountExPost,\n\t\t\t\texAnteBurnAmount\n\t\t\t);\n\t\t}\n\t}\n\n\tfunction getExPostVintageData(\n\t\tuint256 exAnteTokenId\n\t) public view returns (VintageData memory) {\n\t\tuint256 exPostTokenId = exAnteToExPostTokenId[exAnteTokenId];\n\t\treturn exPostVintageMapping[exPostTokenId];\n\t}\n\n\t// ----------------------------------\n\t//              Actions\n\t// ----------------------------------\n\n\tfunction transferFromSignature(\n\t\tbytes calldata signature,\n\t\tsignatureTransferPayload calldata payload,\n\t\tbytes memory data\n\t) public payable onlyValidSignatureTransfer(signature, payload) {\n\t\t_safeTransferFrom(\n\t\t\tpayload.signer,\n\t\t\tpayload.to,\n\t\t\tpayload.tokenId,\n\t\t\tpayload.amount,\n\t\t\tdata\n\t\t);\n\t\temit SignedTransfer(\n\t\t\tpayload.signer,\n\t\t\tpayload.to,\n\t\t\tpayload.tokenId,\n\t\t\tpayload.amount\n\t\t);\n\t}\n\n\tfunction retire(\n\t\tuint256 tokenId,\n\t\tuint256 amount,\n\t\tbytes memory data\n\t) public onlyExPostToken(tokenId) {\n\t\t_burn(msg.sender, tokenId, amount);\n\t\tmintRetirementCertificate(msg.sender, tokenId, amount);\n\t\temit RetiredVintage(msg.sender, tokenId, amount, data);\n\t}\n\n\tfunction retireFromSignature(\n\t\tbytes calldata signature,\n\t\tsignatureTransferPayload calldata payload\n\t)\n\t\tpublic\n\t\tpayable\n\t\tonlyExPostToken(payload.tokenId)\n\t\tonlyValidSignatureTransfer(signature, payload)\n\t\treturns (uint256 nftTokenId)\n\t{\n\t\t_burn(payload.signer, payload.tokenId, payload.amount);\n\t\tnftTokenId = mintRetirementCertificate(\n\t\t\tpayload.signer,\n\t\t\tpayload.tokenId,\n\t\t\tpayload.amount\n\t\t);\n\t\temit SignedRetire(payload.signer, payload.tokenId, payload.amount);\n\t}\n\n\tfunction mintRetirementCertificate(\n\t\taddress account,\n\t\tuint256 tokenId,\n\t\tuint256 amount\n\t) internal returns (uint256) {\n\t\tuint256 nftTokenId = nextTokenId();\n\t\tretirementMapping[nftTokenId] = RetirementData(\n\t\t\taccount,\n\t\t\tamount,\n\t\t\ttokenId,\n\t\t\t'',\n\t\t\t'',\n\t\t\t''\n\t\t);\n\t\t_mint(account, nftTokenId, 1, '');\n\t\treturn nftTokenId;\n\t}\n\n\t// ----------------------------------\n\t//              Hooks\n\t// ----------------------------------\n\n\tfunction _beforeTokenTransfer(\n\t\taddress operator,\n\t\taddress from,\n\t\taddress to,\n\t\tuint256[] memory ids,\n\t\tuint256[] memory amounts,\n\t\tbytes memory data\n\t)\n\t\tinternal\n\t\toverride(ERC1155Upgradeable, ERC1155SupplyUpgradeable)\n\t\twhenNotPaused\n\t\tnotBlacklisted(from)\n\t\tnotBlacklisted(to)\n\t{\n\t\tsuper._beforeTokenTransfer(operator, from, to, ids, amounts, data);\n\t}\n\n\tfunction setURI(string memory newuri) public onlyRole(URI_SETTER_ROLE) {\n\t\t_setURI(newuri);\n\t}\n\n\tfunction pause() public onlyRole(PAUSER_ROLE) {\n\t\t_pause();\n\t}\n\n\tfunction unpause() public onlyRole(PAUSER_ROLE) {\n\t\t_unpause();\n\t}\n\n\tfunction nextTokenId() internal returns (uint256) {\n\t\tunchecked {\n\t\t\ttopTokenId += 1;\n\t\t}\n\t\treturn topTokenId;\n\t}\n\n\tfunction _authorizeUpgrade(\n\t\taddress newImplementation\n\t) internal override onlyRole(UPGRADER_ROLE) {}\n\n\t// The following functions are overrides required by Solidity.\n\n\tfunction supportsInterface(\n\t\tbytes4 interfaceId\n\t)\n\t\tpublic\n\t\tview\n\t\toverride(ERC1155Upgradeable, AccessControlUpgradeable)\n\t\treturns (bool)\n\t{\n\t\treturn super.supportsInterface(interfaceId);\n\t}\n}\n",
  "sourcePath": "/Users/thorduragustsson/Programming/Projects/CarbonRegistryContracts/contracts/Project.sol",
  "compiler": {
    "name": "solc",
    "version": "0.8.13+commit.abaa5c0e.Emscripten.clang"
  },
  "schemaVersion": "3.4.13",
  "updatedAt": "2023-04-19T12:44:10.293Z",
  "devdoc": {
    "kind": "dev",
    "methods": {
      "balanceOf(address,uint256)": {
        "details": "See {IERC1155-balanceOf}. Requirements: - `account` cannot be the zero address."
      },
      "balanceOfBatch(address[],uint256[])": {
        "details": "See {IERC1155-balanceOfBatch}. Requirements: - `accounts` and `ids` must have the same length."
      },
      "constructor": {
        "custom:oz-upgrades-unsafe-allow": "constructor"
      },
      "exists(uint256)": {
        "details": "Indicates whether any token exist with a given id, or not."
      },
      "getRoleAdmin(bytes32)": {
        "details": "Returns the admin role that controls `role`. See {grantRole} and {revokeRole}. To change a role's admin, use {_setRoleAdmin}."
      },
      "grantRole(bytes32,address)": {
        "details": "Grants `role` to `account`. If `account` had not been already granted `role`, emits a {RoleGranted} event. Requirements: - the caller must have ``role``'s admin role. May emit a {RoleGranted} event."
      },
      "hasRole(bytes32,address)": {
        "details": "Returns `true` if `account` has been granted `role`."
      },
      "isApprovedForAll(address,address)": {
        "details": "See {IERC1155-isApprovedForAll}."
      },
      "paused()": {
        "details": "Returns true if the contract is paused, and false otherwise."
      },
      "proxiableUUID()": {
        "details": "Implementation of the ERC1822 {proxiableUUID} function. This returns the storage slot used by the implementation. It is used to validate the implementation's compatibility when performing an upgrade. IMPORTANT: A proxy pointing at a proxiable contract should not be considered proxiable itself, because this risks bricking a proxy that upgrades to it, by delegating to itself until out of gas. Thus it is critical that this function revert if invoked through a proxy. This is guaranteed by the `notDelegated` modifier."
      },
      "renounceRole(bytes32,address)": {
        "details": "Revokes `role` from the calling account. Roles are often managed via {grantRole} and {revokeRole}: this function's purpose is to provide a mechanism for accounts to lose their privileges if they are compromised (such as when a trusted device is misplaced). If the calling account had been revoked `role`, emits a {RoleRevoked} event. Requirements: - the caller must be `account`. May emit a {RoleRevoked} event."
      },
      "revokeRole(bytes32,address)": {
        "details": "Revokes `role` from `account`. If `account` had been granted `role`, emits a {RoleRevoked} event. Requirements: - the caller must have ``role``'s admin role. May emit a {RoleRevoked} event."
      },
      "safeBatchTransferFrom(address,address,uint256[],uint256[],bytes)": {
        "details": "See {IERC1155-safeBatchTransferFrom}."
      },
      "safeTransferFrom(address,address,uint256,uint256,bytes)": {
        "details": "See {IERC1155-safeTransferFrom}."
      },
      "setApprovalForAll(address,bool)": {
        "details": "See {IERC1155-setApprovalForAll}."
      },
      "totalSupply(uint256)": {
        "details": "Total amount of tokens in with a given id."
      },
      "upgradeTo(address)": {
        "details": "Upgrade the implementation of the proxy to `newImplementation`. Calls {_authorizeUpgrade}. Emits an {Upgraded} event."
      },
      "upgradeToAndCall(address,bytes)": {
        "details": "Upgrade the implementation of the proxy to `newImplementation`, and subsequently execute the function call encoded in `data`. Calls {_authorizeUpgrade}. Emits an {Upgraded} event."
      },
      "uri(uint256)": {
        "details": "See {IERC1155MetadataURI-uri}. This implementation returns the same URI for *all* token types. It relies on the token type ID substitution mechanism https://eips.ethereum.org/EIPS/eip-1155#metadata[defined in the EIP]. Clients calling this function must replace the `\\{id\\}` substring with the actual token type ID."
      }
    },
    "version": 1
  },
  "userdoc": {
    "kind": "user",
    "methods": {},
    "version": 1
  }
}