{
  "contractName": "Project",
  "abi": [
    {
      "inputs": [],
      "stateMutability": "nonpayable",
      "type": "constructor"
    },
    {
      "anonymous": false,
      "inputs": [
        {
          "indexed": true,
          "internalType": "address",
          "name": "from",
          "type": "address"
        },
        {
          "indexed": true,
          "internalType": "uint256",
          "name": "tokenId",
          "type": "uint256"
        },
        {
          "indexed": false,
          "internalType": "uint256",
          "name": "amount",
          "type": "uint256"
        },
        {
          "indexed": true,
          "internalType": "enum AdminActionReason",
          "name": "reason",
          "type": "uint8"
        }
      ],
      "name": "AdminBurn",
      "type": "event"
    },
    {
      "anonymous": false,
      "inputs": [
        {
          "indexed": false,
          "internalType": "address",
          "name": "previousAdmin",
          "type": "address"
        },
        {
          "indexed": false,
          "internalType": "address",
          "name": "newAdmin",
          "type": "address"
        }
      ],
      "name": "AdminChanged",
      "type": "event"
    },
    {
      "anonymous": false,
      "inputs": [
        {
          "indexed": true,
          "internalType": "address",
          "name": "from",
          "type": "address"
        },
        {
          "indexed": false,
          "internalType": "address",
          "name": "to",
          "type": "address"
        },
        {
          "indexed": true,
          "internalType": "uint256",
          "name": "tokenId",
          "type": "uint256"
        },
        {
          "indexed": false,
          "internalType": "uint256",
          "name": "amount",
          "type": "uint256"
        },
        {
          "indexed": true,
          "internalType": "enum AdminActionReason",
          "name": "reason",
          "type": "uint8"
        }
      ],
      "name": "AdminClawback",
      "type": "event"
    },
    {
      "anonymous": false,
      "inputs": [
        {
          "indexed": true,
          "internalType": "address",
          "name": "account",
          "type": "address"
        },
        {
          "indexed": true,
          "internalType": "address",
          "name": "operator",
          "type": "address"
        },
        {
          "indexed": false,
          "internalType": "bool",
          "name": "approved",
          "type": "bool"
        }
      ],
      "name": "ApprovalForAll",
      "type": "event"
    },
    {
      "anonymous": false,
      "inputs": [
        {
          "indexed": true,
          "internalType": "address",
          "name": "beacon",
          "type": "address"
        }
      ],
      "name": "BeaconUpgraded",
      "type": "event"
    },
    {
      "anonymous": false,
      "inputs": [
        {
          "indexed": true,
          "internalType": "uint256",
          "name": "exAnteTokenId",
          "type": "uint256"
        },
        {
          "indexed": true,
          "internalType": "uint256",
          "name": "exPostTokenId",
          "type": "uint256"
        },
        {
          "indexed": true,
          "internalType": "address",
          "name": "account",
          "type": "address"
        },
        {
          "indexed": false,
          "internalType": "uint256",
          "name": "amount",
          "type": "uint256"
        }
      ],
      "name": "ExAnteMinted",
      "type": "event"
    },
    {
      "anonymous": false,
      "inputs": [
        {
          "indexed": true,
          "internalType": "uint256",
          "name": "tokenId",
          "type": "uint256"
        },
        {
          "indexed": false,
          "internalType": "uint256",
          "name": "estimatedAmount",
          "type": "uint256"
        },
        {
          "indexed": false,
          "internalType": "uint256",
          "name": "verificationPeriodStart",
          "type": "uint256"
        },
        {
          "indexed": false,
          "internalType": "uint256",
          "name": "verificationPeriodEnd",
          "type": "uint256"
        },
        {
          "indexed": false,
          "internalType": "string",
          "name": "serialization",
          "type": "string"
        }
      ],
      "name": "ExPostCreated",
      "type": "event"
    },
    {
      "anonymous": false,
      "inputs": [
        {
          "indexed": true,
          "internalType": "uint256",
          "name": "tokenId",
          "type": "uint256"
        },
        {
          "indexed": false,
          "internalType": "uint256",
          "name": "amount",
          "type": "uint256"
        },
        {
          "indexed": false,
          "internalType": "uint256",
          "name": "amountToAnteHolders",
          "type": "uint256"
        },
        {
          "indexed": false,
          "internalType": "uint256",
          "name": "verificationPeriodStart",
          "type": "uint256"
        },
        {
          "indexed": false,
          "internalType": "uint256",
          "name": "verificationPeriodEnd",
          "type": "uint256"
        },
        {
          "indexed": false,
          "internalType": "string",
          "name": "monitoringReport",
          "type": "string"
        }
      ],
      "name": "ExPostVerifiedAndMinted",
      "type": "event"
    },
    {
      "anonymous": false,
      "inputs": [
        {
          "indexed": true,
          "internalType": "address",
          "name": "account",
          "type": "address"
        },
        {
          "indexed": true,
          "internalType": "uint256",
          "name": "exPostTokenId",
          "type": "uint256"
        },
        {
          "indexed": false,
          "internalType": "uint256",
          "name": "exPostAmountReceived",
          "type": "uint256"
        },
        {
          "indexed": false,
          "internalType": "uint256",
          "name": "exAnteAmountBurned",
          "type": "uint256"
        }
      ],
      "name": "ExchangeAnteForPost",
      "type": "event"
    },
    {
      "anonymous": false,
      "inputs": [
        {
          "indexed": false,
          "internalType": "bytes",
          "name": "signature",
          "type": "bytes"
        },
        {
          "components": [
            {
              "internalType": "uint256",
              "name": "deadline",
              "type": "uint256"
            },
            {
              "internalType": "string",
              "name": "description",
              "type": "string"
            },
            {
              "internalType": "address",
              "name": "signer",
              "type": "address"
            },
            {
              "internalType": "uint256",
              "name": "nonce",
              "type": "uint256"
            }
          ],
          "indexed": false,
          "internalType": "struct signatureGenericPayload",
          "name": "payload",
          "type": "tuple"
        }
      ],
      "name": "GenericSignatureValid",
      "type": "event"
    },
    {
      "anonymous": false,
      "inputs": [
        {
          "indexed": false,
          "internalType": "uint8",
          "name": "version",
          "type": "uint8"
        }
      ],
      "name": "Initialized",
      "type": "event"
    },
    {
      "anonymous": false,
      "inputs": [
        {
          "indexed": false,
          "internalType": "address",
          "name": "account",
          "type": "address"
        }
      ],
      "name": "Paused",
      "type": "event"
    },
    {
      "anonymous": false,
      "inputs": [
        {
          "indexed": true,
          "internalType": "address",
          "name": "account",
          "type": "address"
        },
        {
          "indexed": true,
          "internalType": "uint256",
          "name": "tokenId",
          "type": "uint256"
        },
        {
          "indexed": false,
          "internalType": "uint256",
          "name": "amount",
          "type": "uint256"
        },
        {
          "indexed": false,
          "internalType": "uint256",
          "name": "nftTokenId",
          "type": "uint256"
        },
        {
          "indexed": false,
          "internalType": "bytes",
          "name": "data",
          "type": "bytes"
        }
      ],
      "name": "RetiredVintage",
      "type": "event"
    },
    {
      "anonymous": false,
      "inputs": [
        {
          "indexed": true,
          "internalType": "bytes32",
          "name": "role",
          "type": "bytes32"
        },
        {
          "indexed": true,
          "internalType": "bytes32",
          "name": "previousAdminRole",
          "type": "bytes32"
        },
        {
          "indexed": true,
          "internalType": "bytes32",
          "name": "newAdminRole",
          "type": "bytes32"
        }
      ],
      "name": "RoleAdminChanged",
      "type": "event"
    },
    {
      "anonymous": false,
      "inputs": [
        {
          "indexed": true,
          "internalType": "bytes32",
          "name": "role",
          "type": "bytes32"
        },
        {
          "indexed": true,
          "internalType": "address",
          "name": "account",
          "type": "address"
        },
        {
          "indexed": true,
          "internalType": "address",
          "name": "sender",
          "type": "address"
        }
      ],
      "name": "RoleGranted",
      "type": "event"
    },
    {
      "anonymous": false,
      "inputs": [
        {
          "indexed": true,
          "internalType": "bytes32",
          "name": "role",
          "type": "bytes32"
        },
        {
          "indexed": true,
          "internalType": "address",
          "name": "account",
          "type": "address"
        },
        {
          "indexed": true,
          "internalType": "address",
          "name": "sender",
          "type": "address"
        }
      ],
      "name": "RoleRevoked",
      "type": "event"
    },
    {
      "anonymous": false,
      "inputs": [
        {
          "indexed": true,
          "internalType": "address",
          "name": "operator",
          "type": "address"
        },
        {
          "indexed": true,
          "internalType": "address",
          "name": "from",
          "type": "address"
        },
        {
          "indexed": true,
          "internalType": "address",
          "name": "to",
          "type": "address"
        },
        {
          "indexed": false,
          "internalType": "uint256[]",
          "name": "ids",
          "type": "uint256[]"
        },
        {
          "indexed": false,
          "internalType": "uint256[]",
          "name": "values",
          "type": "uint256[]"
        }
      ],
      "name": "TransferBatch",
      "type": "event"
    },
    {
      "anonymous": false,
      "inputs": [
        {
          "indexed": false,
          "internalType": "bytes",
          "name": "signature",
          "type": "bytes"
        },
        {
          "components": [
            {
              "internalType": "uint256",
              "name": "deadline",
              "type": "uint256"
            },
            {
              "internalType": "string",
              "name": "description",
              "type": "string"
            },
            {
              "internalType": "address",
              "name": "signer",
              "type": "address"
            },
            {
              "internalType": "address",
              "name": "to",
              "type": "address"
            },
            {
              "internalType": "uint256",
              "name": "tokenId",
              "type": "uint256"
            },
            {
              "internalType": "uint256",
              "name": "amount",
              "type": "uint256"
            },
            {
              "internalType": "uint256",
              "name": "nonce",
              "type": "uint256"
            }
          ],
          "indexed": false,
          "internalType": "struct signatureTransferPayload",
          "name": "payload",
          "type": "tuple"
        }
      ],
      "name": "TransferSignatureValid",
      "type": "event"
    },
    {
      "anonymous": false,
      "inputs": [
        {
          "indexed": true,
          "internalType": "address",
          "name": "operator",
          "type": "address"
        },
        {
          "indexed": true,
          "internalType": "address",
          "name": "from",
          "type": "address"
        },
        {
          "indexed": true,
          "internalType": "address",
          "name": "to",
          "type": "address"
        },
        {
          "indexed": false,
          "internalType": "uint256",
          "name": "id",
          "type": "uint256"
        },
        {
          "indexed": false,
          "internalType": "uint256",
          "name": "value",
          "type": "uint256"
        }
      ],
      "name": "TransferSingle",
      "type": "event"
    },
    {
      "anonymous": false,
      "inputs": [
        {
          "indexed": false,
          "internalType": "string",
          "name": "value",
          "type": "string"
        },
        {
          "indexed": true,
          "internalType": "uint256",
          "name": "id",
          "type": "uint256"
        }
      ],
      "name": "URI",
      "type": "event"
    },
    {
      "anonymous": false,
      "inputs": [
        {
          "indexed": false,
          "internalType": "address",
          "name": "account",
          "type": "address"
        }
      ],
      "name": "Unpaused",
      "type": "event"
    },
    {
      "anonymous": false,
      "inputs": [
        {
          "indexed": true,
          "internalType": "address",
          "name": "implementation",
          "type": "address"
        }
      ],
      "name": "Upgraded",
      "type": "event"
    },
    {
      "anonymous": false,
      "inputs": [
        {
          "indexed": true,
          "internalType": "uint256",
          "name": "tokenId",
          "type": "uint256"
        },
        {
          "indexed": false,
          "internalType": "uint256",
          "name": "newEstimate",
          "type": "uint256"
        },
        {
          "indexed": false,
          "internalType": "uint256",
          "name": "oldEstimate",
          "type": "uint256"
        },
        {
          "indexed": true,
          "internalType": "enum AdminActionReason",
          "name": "reason",
          "type": "uint8"
        }
      ],
      "name": "VintageMitigationEstimateChanged",
      "type": "event"
    },
    {
      "inputs": [],
      "name": "ANTE_MINTER_ROLE",
      "outputs": [
        {
          "internalType": "bytes32",
          "name": "",
          "type": "bytes32"
        }
      ],
      "stateMutability": "view",
      "type": "function",
      "constant": true
    },
    {
      "inputs": [],
      "name": "BLACKLISTED",
      "outputs": [
        {
          "internalType": "bytes32",
          "name": "",
          "type": "bytes32"
        }
      ],
      "stateMutability": "view",
      "type": "function",
      "constant": true
    },
    {
      "inputs": [],
      "name": "BLACKLISTER_ROLE",
      "outputs": [
        {
          "internalType": "bytes32",
          "name": "",
          "type": "bytes32"
        }
      ],
      "stateMutability": "view",
      "type": "function",
      "constant": true
    },
    {
      "inputs": [],
      "name": "BURNER_ROLE",
      "outputs": [
        {
          "internalType": "bytes32",
          "name": "",
          "type": "bytes32"
        }
      ],
      "stateMutability": "view",
      "type": "function",
      "constant": true
    },
    {
      "inputs": [],
      "name": "CLAWBACK_ROLE",
      "outputs": [
        {
          "internalType": "bytes32",
          "name": "",
          "type": "bytes32"
        }
      ],
      "stateMutability": "view",
      "type": "function",
      "constant": true
    },
    {
      "inputs": [],
      "name": "DEFAULT_ADMIN_ROLE",
      "outputs": [
        {
          "internalType": "bytes32",
          "name": "",
          "type": "bytes32"
        }
      ],
      "stateMutability": "view",
      "type": "function",
      "constant": true
    },
    {
      "inputs": [],
      "name": "MINTER_ROLE",
      "outputs": [
        {
          "internalType": "bytes32",
          "name": "",
          "type": "bytes32"
        }
      ],
      "stateMutability": "view",
      "type": "function",
      "constant": true
    },
    {
      "inputs": [],
      "name": "PAUSER_ROLE",
      "outputs": [
        {
          "internalType": "bytes32",
          "name": "",
          "type": "bytes32"
        }
      ],
      "stateMutability": "view",
      "type": "function",
      "constant": true
    },
    {
      "inputs": [],
      "name": "POST_MINTER_ROLE",
      "outputs": [
        {
          "internalType": "bytes32",
          "name": "",
          "type": "bytes32"
        }
      ],
      "stateMutability": "view",
      "type": "function",
      "constant": true
    },
    {
      "inputs": [],
      "name": "UPGRADER_ROLE",
      "outputs": [
        {
          "internalType": "bytes32",
          "name": "",
          "type": "bytes32"
        }
      ],
      "stateMutability": "view",
      "type": "function",
      "constant": true
    },
    {
      "inputs": [],
      "name": "URI_SETTER_ROLE",
      "outputs": [
        {
          "internalType": "bytes32",
          "name": "",
          "type": "bytes32"
        }
      ],
      "stateMutability": "view",
      "type": "function",
      "constant": true
    },
    {
      "inputs": [],
      "name": "VERIFIER_ROLE",
      "outputs": [
        {
          "internalType": "bytes32",
          "name": "",
          "type": "bytes32"
        }
      ],
      "stateMutability": "view",
      "type": "function",
      "constant": true
    },
    {
      "inputs": [
        {
          "internalType": "address",
          "name": "_contractRegistry",
          "type": "address"
        },
        {
          "internalType": "uint8",
          "name": "_maxAntePerc",
          "type": "uint8"
        },
        {
          "internalType": "uint256",
          "name": "_projectId",
          "type": "uint256"
        },
        {
          "internalType": "string",
          "name": "_projectName",
          "type": "string"
        }
      ],
      "name": "__ProjectStorage_init",
      "outputs": [],
      "stateMutability": "nonpayable",
      "type": "function"
    },
    {
      "inputs": [
        {
          "internalType": "address",
          "name": "account",
          "type": "address"
        },
        {
          "internalType": "uint256",
          "name": "id",
          "type": "uint256"
        }
      ],
      "name": "balanceOf",
      "outputs": [
        {
          "internalType": "uint256",
          "name": "",
          "type": "uint256"
        }
      ],
      "stateMutability": "view",
      "type": "function",
      "constant": true
    },
    {
      "inputs": [
        {
          "internalType": "address[]",
          "name": "accounts",
          "type": "address[]"
        },
        {
          "internalType": "uint256[]",
          "name": "ids",
          "type": "uint256[]"
        }
      ],
      "name": "balanceOfBatch",
      "outputs": [
        {
          "internalType": "uint256[]",
          "name": "",
          "type": "uint256[]"
        }
      ],
      "stateMutability": "view",
      "type": "function",
      "constant": true
    },
    {
      "inputs": [],
      "name": "contractRegistry",
      "outputs": [
        {
          "internalType": "address",
          "name": "",
          "type": "address"
        }
      ],
      "stateMutability": "view",
      "type": "function",
      "constant": true
    },
    {
      "inputs": [
        {
          "internalType": "uint256",
          "name": "",
          "type": "uint256"
        }
      ],
      "name": "exAnteToExPostTokenId",
      "outputs": [
        {
          "internalType": "uint256",
          "name": "",
          "type": "uint256"
        }
      ],
      "stateMutability": "view",
      "type": "function",
      "constant": true
    },
    {
      "inputs": [
        {
          "internalType": "uint256",
          "name": "",
          "type": "uint256"
        }
      ],
      "name": "exPostToExAnteTokenId",
      "outputs": [
        {
          "internalType": "uint256",
          "name": "",
          "type": "uint256"
        }
      ],
      "stateMutability": "view",
      "type": "function",
      "constant": true
    },
    {
      "inputs": [
        {
          "internalType": "uint256",
          "name": "",
          "type": "uint256"
        }
      ],
      "name": "exPostVintageMapping",
      "outputs": [
        {
          "internalType": "string",
          "name": "serialization",
          "type": "string"
        },
        {
          "internalType": "uint256",
          "name": "estMitigations",
          "type": "uint256"
        },
        {
          "internalType": "uint256",
          "name": "verificationPeriodStart",
          "type": "uint256"
        },
        {
          "internalType": "uint256",
          "name": "verificationPeriodEnd",
          "type": "uint256"
        },
        {
          "internalType": "uint256",
          "name": "lastVerificationTimestamp",
          "type": "uint256"
        }
      ],
      "stateMutability": "view",
      "type": "function",
      "constant": true
    },
    {
      "inputs": [
        {
          "internalType": "uint256",
          "name": "id",
          "type": "uint256"
        }
      ],
      "name": "exists",
      "outputs": [
        {
          "internalType": "bool",
          "name": "",
          "type": "bool"
        }
      ],
      "stateMutability": "view",
      "type": "function",
      "constant": true
    },
    {
      "inputs": [
        {
          "internalType": "bytes32",
          "name": "role",
          "type": "bytes32"
        }
      ],
      "name": "getRoleAdmin",
      "outputs": [
        {
          "internalType": "bytes32",
          "name": "",
          "type": "bytes32"
        }
      ],
      "stateMutability": "view",
      "type": "function",
      "constant": true
    },
    {
      "inputs": [
        {
          "internalType": "bytes32",
          "name": "role",
          "type": "bytes32"
        },
        {
          "internalType": "address",
          "name": "account",
          "type": "address"
        }
      ],
      "name": "grantRole",
      "outputs": [],
      "stateMutability": "nonpayable",
      "type": "function"
    },
    {
      "inputs": [
        {
          "internalType": "bytes32",
          "name": "role",
          "type": "bytes32"
        },
        {
          "internalType": "address",
          "name": "account",
          "type": "address"
        }
      ],
      "name": "hasRole",
      "outputs": [
        {
          "internalType": "bool",
          "name": "",
          "type": "bool"
        }
      ],
      "stateMutability": "view",
      "type": "function",
      "constant": true
    },
    {
      "inputs": [
        {
          "internalType": "address",
          "name": "account",
          "type": "address"
        },
        {
          "internalType": "address",
          "name": "operator",
          "type": "address"
        }
      ],
      "name": "isApprovedForAll",
      "outputs": [
        {
          "internalType": "bool",
          "name": "",
          "type": "bool"
        }
      ],
      "stateMutability": "view",
      "type": "function",
      "constant": true
    },
    {
      "inputs": [],
      "name": "maxAntePercentage",
      "outputs": [
        {
          "internalType": "uint8",
          "name": "",
          "type": "uint8"
        }
      ],
      "stateMutability": "view",
      "type": "function",
      "constant": true
    },
    {
      "inputs": [],
      "name": "paused",
      "outputs": [
        {
          "internalType": "bool",
          "name": "",
          "type": "bool"
        }
      ],
      "stateMutability": "view",
      "type": "function",
      "constant": true
    },
    {
      "inputs": [],
      "name": "projectId",
      "outputs": [
        {
          "internalType": "uint256",
          "name": "",
          "type": "uint256"
        }
      ],
      "stateMutability": "view",
      "type": "function",
      "constant": true
    },
    {
      "inputs": [],
      "name": "projectName",
      "outputs": [
        {
          "internalType": "string",
          "name": "",
          "type": "string"
        }
      ],
      "stateMutability": "view",
      "type": "function",
      "constant": true
    },
    {
      "inputs": [],
      "name": "proxiableUUID",
      "outputs": [
        {
          "internalType": "bytes32",
          "name": "",
          "type": "bytes32"
        }
      ],
      "stateMutability": "view",
      "type": "function",
      "constant": true
    },
    {
      "inputs": [
        {
          "internalType": "bytes32",
          "name": "role",
          "type": "bytes32"
        },
        {
          "internalType": "address",
          "name": "account",
          "type": "address"
        }
      ],
      "name": "renounceRole",
      "outputs": [],
      "stateMutability": "nonpayable",
      "type": "function"
    },
    {
      "inputs": [
        {
          "internalType": "uint256",
          "name": "",
          "type": "uint256"
        }
      ],
      "name": "retirementMapping",
      "outputs": [
        {
          "internalType": "address",
          "name": "retireeAddress",
          "type": "address"
        },
        {
          "internalType": "uint256",
          "name": "amount",
          "type": "uint256"
        },
        {
          "internalType": "uint256",
          "name": "vintageTokenId",
          "type": "uint256"
        },
        {
          "internalType": "string",
          "name": "retiree",
          "type": "string"
        },
        {
          "internalType": "string",
          "name": "customUri",
          "type": "string"
        },
        {
          "internalType": "string",
          "name": "comment",
          "type": "string"
        }
      ],
      "stateMutability": "view",
      "type": "function",
      "constant": true
    },
    {
      "inputs": [
        {
          "internalType": "bytes32",
          "name": "role",
          "type": "bytes32"
        },
        {
          "internalType": "address",
          "name": "account",
          "type": "address"
        }
      ],
      "name": "revokeRole",
      "outputs": [],
      "stateMutability": "nonpayable",
      "type": "function"
    },
    {
      "inputs": [
        {
          "internalType": "address",
          "name": "from",
          "type": "address"
        },
        {
          "internalType": "address",
          "name": "to",
          "type": "address"
        },
        {
          "internalType": "uint256[]",
          "name": "ids",
          "type": "uint256[]"
        },
        {
          "internalType": "uint256[]",
          "name": "amounts",
          "type": "uint256[]"
        },
        {
          "internalType": "bytes",
          "name": "data",
          "type": "bytes"
        }
      ],
      "name": "safeBatchTransferFrom",
      "outputs": [],
      "stateMutability": "nonpayable",
      "type": "function"
    },
    {
      "inputs": [
        {
          "internalType": "address",
          "name": "from",
          "type": "address"
        },
        {
          "internalType": "address",
          "name": "to",
          "type": "address"
        },
        {
          "internalType": "uint256",
          "name": "id",
          "type": "uint256"
        },
        {
          "internalType": "uint256",
          "name": "amount",
          "type": "uint256"
        },
        {
          "internalType": "bytes",
          "name": "data",
          "type": "bytes"
        }
      ],
      "name": "safeTransferFrom",
      "outputs": [],
      "stateMutability": "nonpayable",
      "type": "function"
    },
    {
      "inputs": [
        {
          "internalType": "string",
          "name": "",
          "type": "string"
        }
      ],
      "name": "serializationToExPostTokenIdMapping",
      "outputs": [
        {
          "internalType": "uint256",
          "name": "",
          "type": "uint256"
        }
      ],
      "stateMutability": "view",
      "type": "function",
      "constant": true
    },
    {
      "inputs": [
        {
          "internalType": "address",
          "name": "operator",
          "type": "address"
        },
        {
          "internalType": "bool",
          "name": "approved",
          "type": "bool"
        }
      ],
      "name": "setApprovalForAll",
      "outputs": [],
      "stateMutability": "nonpayable",
      "type": "function"
    },
    {
      "inputs": [
        {
          "internalType": "address",
          "name": "",
          "type": "address"
        }
      ],
      "name": "signatureNonces",
      "outputs": [
        {
          "internalType": "uint32",
          "name": "",
          "type": "uint32"
        }
      ],
      "stateMutability": "view",
      "type": "function",
      "constant": true
    },
    {
      "inputs": [],
      "name": "topTokenId",
      "outputs": [
        {
          "internalType": "uint256",
          "name": "",
          "type": "uint256"
        }
      ],
      "stateMutability": "view",
      "type": "function",
      "constant": true
    },
    {
      "inputs": [
        {
          "internalType": "uint256",
          "name": "id",
          "type": "uint256"
        }
      ],
      "name": "totalSupply",
      "outputs": [
        {
          "internalType": "uint256",
          "name": "",
          "type": "uint256"
        }
      ],
      "stateMutability": "view",
      "type": "function",
      "constant": true
    },
    {
      "inputs": [
        {
          "internalType": "address",
          "name": "newImplementation",
          "type": "address"
        }
      ],
      "name": "upgradeTo",
      "outputs": [],
      "stateMutability": "nonpayable",
      "type": "function"
    },
    {
      "inputs": [
        {
          "internalType": "address",
          "name": "newImplementation",
          "type": "address"
        },
        {
          "internalType": "bytes",
          "name": "data",
          "type": "bytes"
        }
      ],
      "name": "upgradeToAndCall",
      "outputs": [],
      "stateMutability": "payable",
      "type": "function",
      "payable": true
    },
    {
      "inputs": [
        {
          "internalType": "uint256",
          "name": "",
          "type": "uint256"
        }
      ],
      "name": "uri",
      "outputs": [
        {
          "internalType": "string",
          "name": "",
          "type": "string"
        }
      ],
      "stateMutability": "view",
      "type": "function",
      "constant": true
    },
    {
      "inputs": [
        {
          "internalType": "address",
          "name": "_contractRegistry",
          "type": "address"
        },
        {
          "internalType": "address",
          "name": "_owner",
          "type": "address"
        },
        {
          "internalType": "uint256",
          "name": "_projectId",
          "type": "uint256"
        },
        {
          "internalType": "string",
          "name": "_projectName",
          "type": "string"
        }
      ],
      "name": "initialize",
      "outputs": [],
      "stateMutability": "nonpayable",
      "type": "function"
    },
    {
      "inputs": [
        {
          "internalType": "uint256",
          "name": "tokenId",
          "type": "uint256"
        }
      ],
      "name": "isExPostToken",
      "outputs": [
        {
          "internalType": "bool",
          "name": "",
          "type": "bool"
        }
      ],
      "stateMutability": "view",
      "type": "function",
      "constant": true
    },
    {
      "inputs": [
        {
          "internalType": "uint256",
          "name": "estAmount",
          "type": "uint256"
        },
        {
          "internalType": "uint256",
          "name": "verificationPeriodStart",
          "type": "uint256"
        },
        {
          "internalType": "uint256",
          "name": "verificationPeriodEnd",
          "type": "uint256"
        },
        {
          "internalType": "string",
          "name": "serialization",
          "type": "string"
        }
      ],
      "name": "createExPostVintage",
      "outputs": [],
      "stateMutability": "nonpayable",
      "type": "function"
    },
    {
      "inputs": [
        {
          "components": [
            {
              "internalType": "string",
              "name": "serialization",
              "type": "string"
            },
            {
              "internalType": "uint256",
              "name": "estMitigations",
              "type": "uint256"
            },
            {
              "internalType": "uint256",
              "name": "verificationPeriodStart",
              "type": "uint256"
            },
            {
              "internalType": "uint256",
              "name": "verificationPeriodEnd",
              "type": "uint256"
            },
            {
              "internalType": "uint256",
              "name": "lastVerificationTimestamp",
              "type": "uint256"
            }
          ],
          "internalType": "struct VintageData[]",
          "name": "vintages",
          "type": "tuple[]"
        }
      ],
      "name": "createExPostVintageBatch",
      "outputs": [],
      "stateMutability": "nonpayable",
      "type": "function"
    },
    {
      "inputs": [
        {
          "internalType": "address",
          "name": "account",
          "type": "address"
        },
        {
          "internalType": "uint256",
          "name": "exPostTokenId",
          "type": "uint256"
        },
        {
          "internalType": "uint256",
          "name": "amount",
          "type": "uint256"
        },
        {
          "internalType": "bytes",
          "name": "data",
          "type": "bytes"
        }
      ],
      "name": "mintExAnte",
      "outputs": [],
      "stateMutability": "nonpayable",
      "type": "function"
    },
    {
      "inputs": [
        {
          "internalType": "uint256",
          "name": "tokenId",
          "type": "uint256"
        },
        {
          "internalType": "uint256",
          "name": "newEstAmount",
          "type": "uint256"
        },
        {
          "internalType": "enum AdminActionReason",
          "name": "reason",
          "type": "uint8"
        }
      ],
      "name": "changeVintageMitigationEstimate",
      "outputs": [],
      "stateMutability": "nonpayable",
      "type": "function"
    },
    {
      "inputs": [
        {
          "internalType": "address",
          "name": "verificationVault",
          "type": "address"
        },
        {
          "internalType": "uint256",
          "name": "tokenId",
          "type": "uint256"
        },
        {
          "internalType": "uint256",
          "name": "amountVerified",
          "type": "uint256"
        },
        {
          "internalType": "uint256",
          "name": "amountToAnteHolders",
          "type": "uint256"
        },
        {
          "internalType": "uint256",
          "name": "verificationPeriodStart",
          "type": "uint256"
        },
        {
          "internalType": "uint256",
          "name": "verificationPeriodEnd",
          "type": "uint256"
        },
        {
          "internalType": "string",
          "name": "monitoringReport",
          "type": "string"
        }
      ],
      "name": "verifyAndMintExPost",
      "outputs": [],
      "stateMutability": "nonpayable",
      "type": "function"
    },
    {
      "inputs": [
        {
          "internalType": "address",
          "name": "from",
          "type": "address"
        },
        {
          "internalType": "uint256",
          "name": "tokenId",
          "type": "uint256"
        },
        {
          "internalType": "uint256",
          "name": "amount",
          "type": "uint256"
        },
        {
          "internalType": "enum AdminActionReason",
          "name": "reason",
          "type": "uint8"
        }
      ],
      "name": "adminBurn",
      "outputs": [],
      "stateMutability": "nonpayable",
      "type": "function"
    },
    {
      "inputs": [
        {
          "internalType": "address",
          "name": "from",
          "type": "address"
        },
        {
          "internalType": "address",
          "name": "to",
          "type": "address"
        },
        {
          "internalType": "uint256",
          "name": "tokenId",
          "type": "uint256"
        },
        {
          "internalType": "uint256",
          "name": "amount",
          "type": "uint256"
        },
        {
          "internalType": "enum AdminActionReason",
          "name": "reason",
          "type": "uint8"
        }
      ],
      "name": "adminClawback",
      "outputs": [],
      "stateMutability": "nonpayable",
      "type": "function"
    },
    {
      "inputs": [
        {
          "internalType": "address[]",
          "name": "accounts",
          "type": "address[]"
        },
        {
          "internalType": "uint256",
          "name": "exPostTokenId",
          "type": "uint256"
        },
        {
          "internalType": "bytes",
          "name": "data",
          "type": "bytes"
        }
      ],
      "name": "exchangeAnteForPostEvenSteven",
      "outputs": [],
      "stateMutability": "nonpayable",
      "type": "function"
    },
    {
      "inputs": [
        {
          "internalType": "uint256",
          "name": "exAnteTokenId",
          "type": "uint256"
        }
      ],
      "name": "getExPostVintageData",
      "outputs": [
        {
          "components": [
            {
              "internalType": "string",
              "name": "serialization",
              "type": "string"
            },
            {
              "internalType": "uint256",
              "name": "estMitigations",
              "type": "uint256"
            },
            {
              "internalType": "uint256",
              "name": "verificationPeriodStart",
              "type": "uint256"
            },
            {
              "internalType": "uint256",
              "name": "verificationPeriodEnd",
              "type": "uint256"
            },
            {
              "internalType": "uint256",
              "name": "lastVerificationTimestamp",
              "type": "uint256"
            }
          ],
          "internalType": "struct VintageData",
          "name": "",
          "type": "tuple"
        }
      ],
      "stateMutability": "view",
      "type": "function",
      "constant": true
    },
    {
      "inputs": [
        {
          "internalType": "bytes",
          "name": "signature",
          "type": "bytes"
        },
        {
          "components": [
            {
              "internalType": "uint256",
              "name": "deadline",
              "type": "uint256"
            },
            {
              "internalType": "string",
              "name": "description",
              "type": "string"
            },
            {
              "internalType": "address",
              "name": "signer",
              "type": "address"
            },
            {
              "internalType": "address",
              "name": "to",
              "type": "address"
            },
            {
              "internalType": "uint256",
              "name": "tokenId",
              "type": "uint256"
            },
            {
              "internalType": "uint256",
              "name": "amount",
              "type": "uint256"
            },
            {
              "internalType": "uint256",
              "name": "nonce",
              "type": "uint256"
            }
          ],
          "internalType": "struct signatureTransferPayload",
          "name": "payload",
          "type": "tuple"
        },
        {
          "internalType": "bytes",
          "name": "data",
          "type": "bytes"
        }
      ],
      "name": "transferFromSignature",
      "outputs": [],
      "stateMutability": "payable",
      "type": "function",
      "payable": true
    },
    {
      "inputs": [
        {
          "internalType": "uint256",
          "name": "tokenId",
          "type": "uint256"
        },
        {
          "internalType": "uint256",
          "name": "amount",
          "type": "uint256"
        },
        {
          "internalType": "bytes",
          "name": "data",
          "type": "bytes"
        }
      ],
      "name": "retire",
      "outputs": [
        {
          "internalType": "uint256",
          "name": "nftTokenId",
          "type": "uint256"
        }
      ],
      "stateMutability": "nonpayable",
      "type": "function"
    },
    {
      "inputs": [
        {
          "internalType": "bytes",
          "name": "signature",
          "type": "bytes"
        },
        {
          "components": [
            {
              "internalType": "uint256",
              "name": "deadline",
              "type": "uint256"
            },
            {
              "internalType": "string",
              "name": "description",
              "type": "string"
            },
            {
              "internalType": "address",
              "name": "signer",
              "type": "address"
            },
            {
              "internalType": "address",
              "name": "to",
              "type": "address"
            },
            {
              "internalType": "uint256",
              "name": "tokenId",
              "type": "uint256"
            },
            {
              "internalType": "uint256",
              "name": "amount",
              "type": "uint256"
            },
            {
              "internalType": "uint256",
              "name": "nonce",
              "type": "uint256"
            }
          ],
          "internalType": "struct signatureTransferPayload",
          "name": "payload",
          "type": "tuple"
        },
        {
          "internalType": "bytes",
          "name": "data",
          "type": "bytes"
        }
      ],
      "name": "retireFromSignature",
      "outputs": [
        {
          "internalType": "uint256",
          "name": "nftTokenId",
          "type": "uint256"
        }
      ],
      "stateMutability": "payable",
      "type": "function",
      "payable": true
    },
    {
      "inputs": [
        {
          "internalType": "string",
          "name": "newuri",
          "type": "string"
        }
      ],
      "name": "setURI",
      "outputs": [],
      "stateMutability": "nonpayable",
      "type": "function"
    },
    {
      "inputs": [],
      "name": "pause",
      "outputs": [],
      "stateMutability": "nonpayable",
      "type": "function"
    },
    {
      "inputs": [],
      "name": "unpause",
      "outputs": [],
      "stateMutability": "nonpayable",
      "type": "function"
    },
    {
      "inputs": [
        {
          "internalType": "bytes4",
          "name": "interfaceId",
          "type": "bytes4"
        }
      ],
      "name": "supportsInterface",
      "outputs": [
        {
          "internalType": "bool",
          "name": "",
          "type": "bool"
        }
      ],
      "stateMutability": "view",
      "type": "function",
      "constant": true
    }
  ],
  "bytecode": "0x60a0604052306080523480156200001557600080fd5b506200002062000026565b620000e8565b600054610100900460ff1615620000935760405162461bcd60e51b815260206004820152602760248201527f496e697469616c697a61626c653a20636f6e747261637420697320696e697469604482015266616c697a696e6760c81b606482015260840160405180910390fd5b60005460ff9081161015620000e6576000805460ff191660ff9081179091556040519081527f7f26b83ff96e1f2b6a682f133852f6798a09c465da95921460cefb38474024989060200160405180910390a15b565b608051615bdd6200012060003960008181611474015281816114b401528181611a0b01528181611a4b0152611ada0152615bdd6000f3fe6080604052600436106103965760003560e01c80636929a19c116101dc578063aa8b2ea711610102578063e36408d0116100a0578063edc0b2e61161006f578063edc0b2e614610be7578063f242432a14610c1b578063f515e6f214610c3b578063f72c0d8b14610c6f57600080fd5b8063e36408d014610b35578063e63ab1e914610b48578063e7705db614610b6a578063e985e9c514610b9e57600080fd5b8063d5391393116100dc578063d539139314610a78578063d547741f14610aac578063dbd8483d14610acc578063deb0420714610b1557600080fd5b8063aa8b2ea7146109de578063abf410e514610a12578063bd85b03914610a4b57600080fd5b806391d148541161017a5780639fec600b116101495780639fec600b14610969578063a0e1b17114610989578063a217fddf146109a9578063a22cb465146109be57600080fd5b806391d14854146108f457806396f495ae146109145780639a33e300146109345780639d88358a1461094957600080fd5b806379c27605116101b657806379c276051461085d5780637f3457101461087d5780638456cb59146108b15780638f76c1da146108c657600080fd5b80636929a19c146107da5780636f63984d1461080c578063728e68e31461082c57600080fd5b80633f4ba83a116102c157806352d1902d1161025f5780635c975abb1161022e5780635c975abb1461075c5780635e3bbaab14610774578063610e70121461079657806361eeb089146107c357600080fd5b806352d1902d146106db57806353262b11146106f057806354ff07951461070357806357c537af1461073c57600080fd5b8063453b97141161029b578063453b97141461064c5780634e1273f41461066c5780634f1ef286146106995780634f558e79146106ac57600080fd5b80633f4ba83a146106005780633fafa1271461061557806341a30d3c1461062c57600080fd5b8063248a9ca3116103395780632f2ff15d116103085780632f2ff15d146105725780633584c3841461059257806336568abe146105c05780633659cfe6146105e057600080fd5b8063248a9ca3146104ba578063282c51f3146104ea5780632ea05e441461051e5780632eb2c2d61461055257600080fd5b80630cda95f9116103755780630cda95f9146104205780630e89341c1461044057806310c1e7a11461046d5780631b3b596b1461048d57600080fd5b8062fdd58e1461039b57806301ffc9a7146103ce57806302fe5305146103fe575b600080fd5b3480156103a757600080fd5b506103bb6103b63660046147bc565b610ca3565b6040519081526020015b60405180910390f35b3480156103da57600080fd5b506103ee6103e93660046147fc565b610d3b565b60405190151581526020016103c5565b34801561040a57600080fd5b5061041e6104193660046148f3565b610d4c565b005b34801561042c57600080fd5b5061041e61043b3660046149c2565b610d83565b34801561044c57600080fd5b5061046061045b366004614a2e565b610f9d565b6040516103c59190614a9f565b34801561047957600080fd5b5061041e610488366004614ab2565b611031565b34801561049957600080fd5b506104ad6104a8366004614a2e565b61125b565b6040516103c59190614b12565b3480156104c657600080fd5b506103bb6104d5366004614a2e565b60009081526097602052604090206001015490565b3480156104f657600080fd5b506103bb7f3c11d16cbaffd01df69ce1c404f6340ee057498f5f00246190ea54220576a84881565b34801561052a57600080fd5b506103bb7f4bbc247fc4736523c8bdd1853fee2acfa817d663f8f4422b13e78ebf99e204a281565b34801561055e57600080fd5b5061041e61056d366004614bc8565b61137a565b34801561057e57600080fd5b5061041e61058d366004614c71565b6113c6565b34801561059e57600080fd5b506103bb6105ad366004614a2e565b6101fe6020526000908152604090205481565b3480156105cc57600080fd5b5061041e6105db366004614c71565b6113f0565b3480156105ec57600080fd5b5061041e6105fb366004614c9d565b61146a565b34801561060c57600080fd5b5061041e611549565b34801561062157600080fd5b506103bb6101f85481565b34801561063857600080fd5b5061041e610647366004614cb8565b611569565b34801561065857600080fd5b506103bb610667366004614d35565b61189b565b34801561067857600080fd5b5061068c610687366004614d7a565b6118d8565b6040516103c59190614e18565b61041e6106a7366004614e2b565b611a01565b3480156106b857600080fd5b506103ee6106c7366004614a2e565b600090815260fb6020526040902054151590565b3480156106e757600080fd5b506103bb611acd565b6103bb6106fe366004614e86565b611b81565b34801561070f57600080fd5b506103bb61071e3660046148f3565b80516020818301810180516101ff8252928201919093012091525481565b34801561074857600080fd5b5061041e610757366004614f41565b611df6565b34801561076857600080fd5b5060c95460ff166103ee565b34801561078057600080fd5b506103bb600080516020615b8883398151915281565b3480156107a257600080fd5b506101f9546107b19060ff1681565b60405160ff90911681526020016103c5565b3480156107cf57600080fd5b506103bb6101f75481565b3480156107e657600080fd5b506107fa6107f5366004614a2e565b611f10565b6040516103c596959493929190614f76565b34801561081857600080fd5b506103ee610827366004614a2e565b6120ea565b34801561083857600080fd5b5061084c610847366004614a2e565b612111565b6040516103c5959493929190614fd6565b34801561086957600080fd5b5061041e61087836600461500d565b6121c8565b34801561088957600080fd5b506103bb7f7804d923f43a17d325d77e781528e0793b2edd9890ab45fc64efd7b4b427744c81565b3480156108bd57600080fd5b5061041e61227e565b3480156108d257600080fd5b506103bb6108e1366004614a2e565b6101fd6020526000908152604090205481565b34801561090057600080fd5b506103ee61090f366004614c71565b61229e565b34801561092057600080fd5b5061041e61092f366004615129565b6122c9565b34801561094057600080fd5b506104606123d6565b34801561095557600080fd5b5061041e610964366004615180565b612465565b34801561097557600080fd5b5061041e6109843660046151c6565b6124f0565b34801561099557600080fd5b5061041e6109a43660046151f3565b61278d565b3480156109b557600080fd5b506103bb600081565b3480156109ca57600080fd5b5061041e6109d9366004615234565b612954565b3480156109ea57600080fd5b506103bb7ff48dee1a72497b9e734e498e1b3086c0d2dbcca13f16f15848f974469f906bbf81565b348015610a1e57600080fd5b506101fb54610a33906001600160a01b031681565b6040516001600160a01b0390911681526020016103c5565b348015610a5757600080fd5b506103bb610a66366004614a2e565b600090815260fb602052604090205490565b348015610a8457600080fd5b506103bb7f9f2df0fed2c77648de5860a4cc508cd0818c85b8b8a1ab4ceeef8d981c8956a681565b348015610ab857600080fd5b5061041e610ac7366004614c71565b61295f565b348015610ad857600080fd5b50610b00610ae7366004614c9d565b6101c56020526000908152604090205463ffffffff1681565b60405163ffffffff90911681526020016103c5565b348015610b2157600080fd5b5061041e610b30366004615270565b612984565b61041e610b43366004614e86565b612a2d565b348015610b5457600080fd5b506103bb600080516020615b4183398151915281565b348015610b7657600080fd5b506103bb7f0ce23c3e399818cfee81a7ab0880f714e53d7672b08df0fa62f2843416e1ea0981565b348015610baa57600080fd5b506103ee610bb93660046152c7565b6001600160a01b03918216600090815260666020908152604080832093909416825291909152205460ff1690565b348015610bf357600080fd5b506103bb7fd5bbb2f0fbfc1d5938ca13cabd3156d362f7862fa87504c8d589f5e8f2cbc45381565b348015610c2757600080fd5b5061041e610c363660046152f1565b612b85565b348015610c4757600080fd5b506103bb7f98db8a220cd0f09badce9f22d0ba7e93edb3d404448cc3560d391ab096ad16e981565b348015610c7b57600080fd5b506103bb7f189ab7a9244df0848122154315af71fe140f3db0fe014031783b0946b8c9d2e381565b60006001600160a01b038316610d135760405162461bcd60e51b815260206004820152602a60248201527f455243313135353a2061646472657373207a65726f206973206e6f742061207660448201526930b634b21037bbb732b960b11b60648201526084015b60405180910390fd5b5060009081526065602090815260408083206001600160a01b03949094168352929052205490565b6000610d4682612bca565b92915050565b7f7804d923f43a17d325d77e781528e0793b2edd9890ab45fc64efd7b4b427744c610d7681612bef565b610d7f82612bf9565b5050565b81610d8d816120ea565b610da95760405162461bcd60e51b8152600401610d0a90615355565b60008381526101fe602052604081205490819003610e095760405162461bcd60e51b815260206004820152601860248201527f50726f6a6563743a204e6f20616e746520686f6c6465727300000000000000006044820152606401610d0a565b600081815260fb602052604081205490610e233087610ca3565b905060008111610e755760405162461bcd60e51b815260206004820152601760248201527f50726f6a6563743a204e6f20706f737420737570706c790000000000000000006044820152606401610d0a565b60005b8751811015610f93576000610ea6898381518110610e9857610e9861538c565b602002602001015186610ca3565b9050600084610eb585846153b8565b610ebf91906153d7565b90508181811115610ecd5750805b898b8581518110610ee057610ee061538c565b60200260200101516001600160a01b03167ffa5cd0fcb25938b2f45b3ca175241bfb3739cf4db3cb7476846930ec714f13f28484604051610f2b929190918252602082015260400190565b60405180910390a3610f578b8581518110610f4857610f4861538c565b60200260200101518883612c0c565b610f7d308c8681518110610f6d57610f6d61538c565b60200260200101518c858d612da5565b5050508080610f8b906153f9565b915050610e78565b5050505050505050565b606060678054610fac90615412565b80601f0160208091040260200160405190810160405280929190818152602001828054610fd890615412565b80156110255780601f10610ffa57610100808354040283529160200191611025565b820191906000526020600020905b81548152906001019060200180831161100857829003601f168201915b50505050509050919050565b7fd5bbb2f0fbfc1d5938ca13cabd3156d362f7862fa87504c8d589f5e8f2cbc45361105b81612bef565b83611065816120ea565b6110815760405162461bcd60e51b8152600401610d0a90615355565b60008581526101fc6020526040812060038101546004909101548791116040518060400160405280601a815260200179141c9bda9958dd0e88151bdad95b881a5cc81d995c9a599a595960321b815250906110ef5760405162461bcd60e51b8152600401610d0a9190614a9f565b5060008781526101fe60205260408120549081900361112857506101f780546001019081905560008881526101fe602052604090208190555b60008881526101fc602090815260408083206001015460fb90925282205490916111528284615446565b6101f95490915060009060649061116c9060ff16846153b8565b61117691906153d7565b600086815260fb6020526040902054909150816111938d8361545d565b11156111e15760405162461bcd60e51b815260206004820152601e60248201527f4d6178696d756d206578416e746520737570706c7920657863656564656400006044820152606401610d0a565b8c6101fd6000888152602001908152602001600020819055508d6001600160a01b03168d877f1fe9ade752d24e4f4dca10f5c807a7cc8630c7604280c8b124097d93b5bb02a18f60405161123791815260200190565b60405180910390a461124b8e878e8e612ee1565b5050505050505050505050505050565b61128d6040518060a0016040528060608152602001600081526020016000815260200160008152602001600081525090565b60008281526101fd60209081526040808320548084526101fc90925291829020825160a081019093528054919291829082906112c890615412565b80601f01602080910402602001604051908101604052809291908181526020018280546112f490615412565b80156113415780601f1061131657610100808354040283529160200191611341565b820191906000526020600020905b81548152906001019060200180831161132457829003601f168201915b50505050508152602001600182015481526020016002820154815260200160038201548152602001600482015481525050915050919050565b6001600160a01b03851633148061139657506113968533610bb9565b6113b25760405162461bcd60e51b8152600401610d0a90615475565b6113bf8585858585612ffd565b5050505050565b6000828152609760205260409020600101546113e181612bef565b6113eb83836131e3565b505050565b6001600160a01b03811633146114605760405162461bcd60e51b815260206004820152602f60248201527f416363657373436f6e74726f6c3a2063616e206f6e6c792072656e6f756e636560448201526e103937b632b9903337b91039b2b63360891b6064820152608401610d0a565b610d7f8282613269565b6001600160a01b037f00000000000000000000000000000000000000000000000000000000000000001630036114b25760405162461bcd60e51b8152600401610d0a906154c3565b7f00000000000000000000000000000000000000000000000000000000000000006001600160a01b03166114fb600080516020615b21833981519152546001600160a01b031690565b6001600160a01b0316146115215760405162461bcd60e51b8152600401610d0a9061550f565b61152a816132d0565b60408051600080825260208201909252611546918391906132fa565b50565b600080516020615b4183398151915261156181612bef565b611546613465565b7f0ce23c3e399818cfee81a7ab0880f714e53d7672b08df0fa62f2843416e1ea0961159381612bef565b8661159d816120ea565b6115b95760405162461bcd60e51b8152600401610d0a90615355565b60008881526101fc6020526040812060038101546004909101548a91116040518060400160405280601a815260200179141c9bda9958dd0e88151bdad95b881a5cc81d995c9a599a595960321b815250906116275760405162461bcd60e51b8152600401610d0a9190614a9f565b50878910156116725760405162461bcd60e51b8152602060048201526017602482015276141c9bda9958dd0e88125b9d985b1a5908185b5bdd5b9d604a1b6044820152606401610d0a565b60008a81526101fc60205260409020600201548610156116fa5760405162461bcd60e51b815260206004820152603a60248201527f566572696669636174696f6e2074696d657374616d70206973206265666f726560448201527f20766572696669636174696f6e20706572696f642073746172740000000000006064820152608401610d0a565b60008a81526101fc602052604090206004015486116117815760405162461bcd60e51b815260206004820152603c60248201527f566572696669636174696f6e2074696d657374616d70206973206265666f726560448201527f206c61737420766572696669636174696f6e2074696d657374616d70000000006064820152608401610d0a565b60008a81526101fe6020526040812054908190036117e15788156117e15760405162461bcd60e51b8152602060048201526017602482015276141c9bda9958dd0e88125b9d985b1a5908185b5bdd5b9d604a1b6044820152606401610d0a565b8a7fe19de0f3da1193000100a217838f49f6bdda20dc974d33b61f92faaf446d181d8b8b8b8b8b60405161181995949392919061555b565b60405180910390a2600061182d8a8c615446565b1115611857576118578c8c6118428c8e615446565b60405180602001604052806000815250612ee1565b60008b81526101fc60205260409020600401879055881561188d5761188d308c8b60405180602001604052806000815250612ee1565b505050505050505050505050565b6000836118a7816120ea565b6118c35760405162461bcd60e51b8152600401610d0a90615355565b6118cf338686866134b7565b95945050505050565b6060815183511461193d5760405162461bcd60e51b815260206004820152602960248201527f455243313135353a206163636f756e747320616e6420696473206c656e677468604482015268040dad2e6dac2e8c6d60bb1b6064820152608401610d0a565b600083516001600160401b0381111561195857611958614819565b604051908082528060200260200182016040528015611981578160200160208202803683370190505b50905060005b84518110156119f9576119cc8582815181106119a5576119a561538c565b60200260200101518583815181106119bf576119bf61538c565b6020026020010151610ca3565b8282815181106119de576119de61538c565b60209081029190910101526119f2816153f9565b9050611987565b509392505050565b6001600160a01b037f0000000000000000000000000000000000000000000000000000000000000000163003611a495760405162461bcd60e51b8152600401610d0a906154c3565b7f00000000000000000000000000000000000000000000000000000000000000006001600160a01b0316611a92600080516020615b21833981519152546001600160a01b031690565b6001600160a01b031614611ab85760405162461bcd60e51b8152600401610d0a9061550f565b611ac1826132d0565b610d7f828260016132fa565b6000306001600160a01b037f00000000000000000000000000000000000000000000000000000000000000001614611b6d5760405162461bcd60e51b815260206004820152603860248201527f555550535570677261646561626c653a206d757374206e6f742062652063616c60448201527f6c6564207468726f7567682064656c656761746563616c6c00000000000000006064820152608401610d0a565b50600080516020615b218339815191525b90565b60008260800135611b91816120ea565b611bad5760405162461bcd60e51b8152600401610d0a90615355565b8585857fbdde33eca765abe07e416fa5225f9a5dbc393366c8bbf45df689e69ee318a934838383604051611be3939291906155ba565b60405180910390a16000611d0c7f79da588818fa1bb747c46ac45fd0af16861a77c5222cf5ac4538360ca4f77a2c8335611c206020860186615694565b604051602001611c319291906156da565b60405160208183030381529060405280519060200120856040016020810190611c5a9190614c9d565b611c6a6080880160608901614c9d565b608088013560a08901356101c56000611c8960608d0160408e01614c9d565b6001600160a01b03908116825260208083019390935260409182016000205482519384019a909a529082019790975260608101959095529285166080850152931660a083015260c082019290925260e081019190915263ffffffff909116610100820152610120016040516020818303038152906040528051906020012061351f565b9050611d608185858080601f016020809104026020016040519081016040528093929190818152602001838380828437600092019190915250611d59925050506060860160408701614c9d565b853561356d565b506101c56000611d766060850160408601614c9d565b6001600160a01b0316815260208101919091526040016000908120805463ffffffff1691611da3836156ea565b91906101000a81548163ffffffff021916908363ffffffff16021790555050611de8886040016020810190611dd89190614c9d565b89608001358a60a001358a6134b7565b9a9950505050505050505050565b6000611e0181612bef565b83611e0b816120ea565b611e275760405162461bcd60e51b8152600401610d0a90615355565b60008581526101fc6020526040812060038101546004909101548791116040518060400160405280601a815260200179141c9bda9958dd0e88151bdad95b881a5cc81d995c9a599a595960321b81525090611e955760405162461bcd60e51b8152600401610d0a9190614a9f565b50846004811115611ea857611ea861570d565b60008881526101fc60209081526040918290206001015482518a81529182015289917f79ad675a154518428a5aa59f22c834871a66d54a46e3f4c8c5b4ee08fb576c2e910160405180910390a3505050600093845250506101fc602052604090912060010155565b6102006020526000908152604090208054600182015460028301546003840180546001600160a01b03909416949293919291611f4b90615412565b80601f0160208091040260200160405190810160405280929190818152602001828054611f7790615412565b8015611fc45780601f10611f9957610100808354040283529160200191611fc4565b820191906000526020600020905b815481529060010190602001808311611fa757829003601f168201915b505050505090806004018054611fd990615412565b80601f016020809104026020016040519081016040528092919081815260200182805461200590615412565b80156120525780601f1061202757610100808354040283529160200191612052565b820191906000526020600020905b81548152906001019060200180831161203557829003601f168201915b50505050509080600501805461206790615412565b80601f016020809104026020016040519081016040528092919081815260200182805461209390615412565b80156120e05780601f106120b5576101008083540402835291602001916120e0565b820191906000526020600020905b8154815290600101906020018083116120c357829003601f168201915b5050505050905086565b60008181526101fc60205260408120805482919061210790615412565b9050119050919050565b6101fc6020526000908152604090208054819061212d90615412565b80601f016020809104026020016040519081016040528092919081815260200182805461215990615412565b80156121a65780601f1061217b576101008083540402835291602001916121a6565b820191906000526020600020905b81548152906001019060200180831161218957829003601f168201915b5050505050908060010154908060020154908060030154908060040154905085565b600080516020615b888339815191526121e081612bef565b60005b82518110156113eb5761226c8382815181106122015761220161538c565b60200260200101516020015184838151811061221f5761221f61538c565b60200260200101516040015185848151811061223d5761223d61538c565b60200260200101516060015186858151811061225b5761225b61538c565b60200260200101516000015161278d565b80612276816153f9565b9150506121e3565b600080516020615b4183398151915261229681612bef565b611546613671565b60009182526097602090815260408084206001600160a01b0393909316845291905290205460ff1690565b600054610100900460ff16158080156122e95750600054600160ff909116105b806123035750303b158015612303575060005460ff166001145b61231f5760405162461bcd60e51b8152600401610d0a90615723565b6000805460ff191660011790558015612342576000805461ff0019166101001790555b6101f9805460ff191660ff86161790556101f8839055815161236c906101fa906020850190614707565b506101fb80546001600160a01b0319166001600160a01b03871617905580156113bf576000805461ff0019169055604051600181527f7f26b83ff96e1f2b6a682f133852f6798a09c465da95921460cefb3847402498906020015b60405180910390a15050505050565b6101fa80546123e490615412565b80601f016020809104026020016040519081016040528092919081815260200182805461241090615412565b801561245d5780601f106124325761010080835404028352916020019161245d565b820191906000526020600020905b81548152906001019060200180831161244057829003601f168201915b505050505081565b7f3c11d16cbaffd01df69ce1c404f6340ee057498f5f00246190ea54220576a84861248f81612bef565b8160048111156124a1576124a161570d565b84866001600160a01b03167f28307ba5beac24bbe02c6541395dc897a2c9a884977343cfc55d6bef99a178cf866040516124dd91815260200190565b60405180910390a46113bf858585612c0c565b600054610100900460ff16158080156125105750600054600160ff909116105b8061252a5750303b15801561252a575060005460ff166001145b6125465760405162461bcd60e51b8152600401610d0a90615723565b6000805460ff191660011790558015612569576000805461ff0019166101001790555b612581604051806020016040528060008152506136ae565b6125896136de565b612591613707565b6125996136de565b6125a16136de565b6125ef6040518060400160405280600f81526020016e436172626f6e20526567697374727960881b81525060405180604001604052806005815260200164302e302e3160d81b815250613736565b6125fc85603285856122c9565b6126076000856131e3565b6126317f7804d923f43a17d325d77e781528e0793b2edd9890ab45fc64efd7b4b427744c856131e3565b612649600080516020615b41833981519152856131e3565b6126737fd5bbb2f0fbfc1d5938ca13cabd3156d362f7862fa87504c8d589f5e8f2cbc453856131e3565b61268b600080516020615b88833981519152856131e3565b6126b57f189ab7a9244df0848122154315af71fe140f3db0fe014031783b0946b8c9d2e3856131e3565b6126df7f98db8a220cd0f09badce9f22d0ba7e93edb3d404448cc3560d391ab096ad16e9856131e3565b6127097f0ce23c3e399818cfee81a7ab0880f714e53d7672b08df0fa62f2843416e1ea09856131e3565b6127337f4bbc247fc4736523c8bdd1853fee2acfa817d663f8f4422b13e78ebf99e204a2856131e3565b61274b600080516020615b88833981519152336131e3565b80156113bf576000805461ff0019169055604051600181527f7f26b83ff96e1f2b6a682f133852f6798a09c465da95921460cefb3847402498906020016123c7565b600080516020615b888339815191526127a581612bef565b8383116128005760405162461bcd60e51b8152602060048201526024808201527f50726f6a6563743a20496e76616c696420766572696669636174696f6e2070656044820152631c9a5bd960e21b6064820152608401610d0a565b60006128146101f780546001019081905590565b6101fb546040516344d9d59b60e01b81529192506001600160a01b0316906344d9d59b90612846908690600401614a9f565b600060405180830381600087803b15801561286057600080fd5b505af1158015612874573d6000803e3d6000fd5b50505050806101ff8460405161288a9190615771565b90815260408051602092819003830181209390935560a083018152858352818301899052828101889052606083018790526000608084018190528481526101fc8352208251805191926128e292849290910190614707565b5060208201518160010155604082015181600201556060820151816003015560808201518160040155905050807fc5fb6d85b5baef0a615415607787aea341771027b7e4da34da58eaeb661154ea87878787604051612944949392919061578d565b60405180910390a2505050505050565b610d7f338383613767565b60008281526097602052604090206001015461297a81612bef565b6113eb8383613269565b7f4bbc247fc4736523c8bdd1853fee2acfa817d663f8f4422b13e78ebf99e204a26129ae81612bef565b8160048111156129c0576129c061570d565b604080516001600160a01b038881168252602082018790528792908a16917fa8b90aeef4d9590cac2ff486fc2b5d9749ed41f9388a7eb159eef94cf5fb65ab910160405180910390a4612a258686868660405180602001604052806000815250612da5565b505050505050565b8383837fbdde33eca765abe07e416fa5225f9a5dbc393366c8bbf45df689e69ee318a934838383604051612a63939291906155ba565b60405180910390a16000612aa07f79da588818fa1bb747c46ac45fd0af16861a77c5222cf5ac4538360ca4f77a2c8335611c206020860186615694565b9050612aed8185858080601f016020809104026020016040519081016040528093929190818152602001838380828437600092019190915250611d59925050506060860160408701614c9d565b506101c56000612b036060850160408601614c9d565b6001600160a01b0316815260208101919091526040016000908120805463ffffffff1691612b30836156ea565b91906101000a81548163ffffffff021916908363ffffffff16021790555050610f93866040016020810190612b659190614c9d565b612b756080890160608a01614c9d565b88608001358960a0013589612da5565b6001600160a01b038516331480612ba15750612ba18533610bb9565b612bbd5760405162461bcd60e51b8152600401610d0a90615475565b6113bf8585858585612da5565b60006001600160e01b03198216637965db0b60e01b1480610d465750610d4682613847565b6115468133613897565b8051610d7f906067906020840190614707565b6001600160a01b038316612c6e5760405162461bcd60e51b815260206004820152602360248201527f455243313135353a206275726e2066726f6d20746865207a65726f206164647260448201526265737360e81b6064820152608401610d0a565b336000612c7a846138f0565b90506000612c87846138f0565b9050612ca78387600085856040518060200160405280600081525061393b565b60008581526065602090815260408083206001600160a01b038a16845290915290205484811015612d265760405162461bcd60e51b8152602060048201526024808201527f455243313135353a206275726e20616d6f756e7420657863656564732062616c604482015263616e636560e01b6064820152608401610d0a565b60008681526065602090815260408083206001600160a01b038b81168086529184528285208a8703905582518b81529384018a90529092908816917fc3d58168c5ae7397731d063d5bbf3d657854427343f4c083240f7aacaa2d0f62910160405180910390a46040805160208101909152600090525b50505050505050565b6001600160a01b038416612dcb5760405162461bcd60e51b8152600401610d0a906157bc565b336000612dd7856138f0565b90506000612de4856138f0565b9050612df483898985858961393b565b60008681526065602090815260408083206001600160a01b038c16845290915290205485811015612e375760405162461bcd60e51b8152600401610d0a90615801565b60008781526065602090815260408083206001600160a01b038d8116855292528083208985039055908a16825281208054889290612e7690849061545d565b909155505060408051888152602081018890526001600160a01b03808b16928c821692918816917fc3d58168c5ae7397731d063d5bbf3d657854427343f4c083240f7aacaa2d0f62910160405180910390a4612ed6848a8a8a8a8a613a41565b505050505050505050565b6001600160a01b038416612f415760405162461bcd60e51b815260206004820152602160248201527f455243313135353a206d696e7420746f20746865207a65726f206164647265736044820152607360f81b6064820152608401610d0a565b336000612f4d856138f0565b90506000612f5a856138f0565b9050612f6b8360008985858961393b565b60008681526065602090815260408083206001600160a01b038b16845290915281208054879290612f9d90849061545d565b909155505060408051878152602081018790526001600160a01b03808a1692600092918716917fc3d58168c5ae7397731d063d5bbf3d657854427343f4c083240f7aacaa2d0f62910160405180910390a4612d9c83600089898989613a41565b815183511461305f5760405162461bcd60e51b815260206004820152602860248201527f455243313135353a2069647320616e6420616d6f756e7473206c656e677468206044820152670dad2e6dac2e8c6d60c31b6064820152608401610d0a565b6001600160a01b0384166130855760405162461bcd60e51b8152600401610d0a906157bc565b3361309481878787878761393b565b60005b845181101561317d5760008582815181106130b4576130b461538c565b6020026020010151905060008583815181106130d2576130d261538c565b60209081029190910181015160008481526065835260408082206001600160a01b038e1683529093529190912054909150818110156131235760405162461bcd60e51b8152600401610d0a90615801565b60008381526065602090815260408083206001600160a01b038e8116855292528083208585039055908b1682528120805484929061316290849061545d565b9250508190555050505080613176906153f9565b9050613097565b50846001600160a01b0316866001600160a01b0316826001600160a01b03167f4a39dc06d4c0dbc64b70af90fd698a233a518aa5d07e595d983b8c0526c8f7fb87876040516131cd92919061584b565b60405180910390a4612a25818787878787613b9c565b6131ed828261229e565b610d7f5760008281526097602090815260408083206001600160a01b03851684529091529020805460ff191660011790556132253390565b6001600160a01b0316816001600160a01b0316837f2f8788117e7eff1d82e926ec794901d17c78024a50270940304540a733656f0d60405160405180910390a45050565b613273828261229e565b15610d7f5760008281526097602090815260408083206001600160a01b0385168085529252808320805460ff1916905551339285917ff6391f5c32d9c69d2a47ea670b442974b53935d1edc7fd64eb21e047a839171b9190a45050565b7f189ab7a9244df0848122154315af71fe140f3db0fe014031783b0946b8c9d2e3610d7f81612bef565b7f4910fdfa16fed3260ed0e7147f7cc6da11a60208b5b9406d12a635614ffd91435460ff161561332d576113eb83613c57565b826001600160a01b03166352d1902d6040518163ffffffff1660e01b8152600401602060405180830381865afa925050508015613387575060408051601f3d908101601f1916820190925261338491810190615870565b60015b6133ea5760405162461bcd60e51b815260206004820152602e60248201527f45524331393637557067726164653a206e657720696d706c656d656e7461746960448201526d6f6e206973206e6f74205555505360901b6064820152608401610d0a565b600080516020615b2183398151915281146134595760405162461bcd60e51b815260206004820152602960248201527f45524331393637557067726164653a20756e737570706f727465642070726f786044820152681a58589b195555525160ba1b6064820152608401610d0a565b506113eb838383613cf3565b61346d613d1e565b60c9805460ff191690557f5db9ee0a495bf2e6ff9c91a7834c1ba4fdd244a5e8aa4e537bd38aeae4b073aa335b6040516001600160a01b03909116815260200160405180910390a1565b60006134c4858585612c0c565b6134cf858585613d67565b905083856001600160a01b03167f1325d882b2ca749c878a4ab3a393f6e51b69026faa05426b6d1ec6776a3f2f3c85848660405161350f93929190615889565b60405180910390a3949350505050565b6000610d4661352c613e7f565b8360405161190160f01b6020820152602281018390526042810182905260009060620160405160208183030381529060405280519060200120905092915050565b60006135798585613f01565b9050826001600160a01b0316816001600160a01b0316146135d65760405162461bcd60e51b8152602060048201526017602482015276496e76616c6964207369676e6174757265202d2034303160481b6044820152606401610d0a565b6001600160a01b0381166136265760405162461bcd60e51b8152602060048201526017602482015276496e76616c6964207369676e6174757265202d2034303160481b6044820152606401610d0a565b8142106136695760405162461bcd60e51b815260206004820152601160248201527014da59db985d1d5c9948195e1c1a5c9959607a1b6044820152606401610d0a565b949350505050565b613679613f1d565b60c9805460ff191660011790557f62e78cea01bee320cd4e420270b5ea74000d11b0c9f74754ebdbfc544b05a25861349a3390565b600054610100900460ff166136d55760405162461bcd60e51b8152600401610d0a906158a8565b61154681613f63565b600054610100900460ff166137055760405162461bcd60e51b8152600401610d0a906158a8565b565b600054610100900460ff1661372e5760405162461bcd60e51b8152600401610d0a906158a8565b613705613f93565b600054610100900460ff1661375d5760405162461bcd60e51b8152600401610d0a906158a8565b610d7f8282613fc6565b816001600160a01b0316836001600160a01b0316036137da5760405162461bcd60e51b815260206004820152602960248201527f455243313135353a2073657474696e6720617070726f76616c20737461747573604482015268103337b91039b2b63360b91b6064820152608401610d0a565b6001600160a01b03838116600081815260666020908152604080832094871680845294825291829020805460ff191686151590811790915591519182527f17307eab39ab6107e8899845ad3d59bd9653f200f220920489ca2b5937696c31910160405180910390a3505050565b60006001600160e01b03198216636cdb3d1360e11b148061387857506001600160e01b031982166303a24d0760e21b145b80610d4657506301ffc9a760e01b6001600160e01b0319831614610d46565b6138a1828261229e565b610d7f576138ae81613ff7565b6138b9836020614009565b6040516020016138ca9291906158f3565b60408051601f198184030181529082905262461bcd60e51b8252610d0a91600401614a9f565b6040805160018082528183019092526060916000919060208083019080368337019050509050828160008151811061392a5761392a61538c565b602090810291909101015292915050565b613943613f1d565b8461396e7ff48dee1a72497b9e734e498e1b3086c0d2dbcca13f16f15848f974469f906bbf8261229e565b156139bb5760405162461bcd60e51b815260206004820152601f60248201527f50726f6a6563743a204163636f756e7420697320626c61636b6c6973746564006044820152606401610d0a565b846139e67ff48dee1a72497b9e734e498e1b3086c0d2dbcca13f16f15848f974469f906bbf8261229e565b15613a335760405162461bcd60e51b815260206004820152601f60248201527f50726f6a6563743a204163636f756e7420697320626c61636b6c6973746564006044820152606401610d0a565b610f938888888888886141a4565b6001600160a01b0384163b15612a255760405163f23a6e6160e01b81526001600160a01b0385169063f23a6e6190613a859089908990889088908890600401615968565b6020604051808303816000875af1925050508015613ac0575060408051601f3d908101601f19168201909252613abd918101906159a2565b60015b613b6c57613acc6159bf565b806308c379a003613b055750613ae06159da565b80613aeb5750613b07565b8060405162461bcd60e51b8152600401610d0a9190614a9f565b505b60405162461bcd60e51b815260206004820152603460248201527f455243313135353a207472616e7366657220746f206e6f6e2d455243313135356044820152732932b1b2b4bb32b91034b6b83632b6b2b73a32b960611b6064820152608401610d0a565b6001600160e01b0319811663f23a6e6160e01b14612d9c5760405162461bcd60e51b8152600401610d0a90615a63565b6001600160a01b0384163b15612a255760405163bc197c8160e01b81526001600160a01b0385169063bc197c8190613be09089908990889088908890600401615aab565b6020604051808303816000875af1925050508015613c1b575060408051601f3d908101601f19168201909252613c18918101906159a2565b60015b613c2757613acc6159bf565b6001600160e01b0319811663bc197c8160e01b14612d9c5760405162461bcd60e51b8152600401610d0a90615a63565b6001600160a01b0381163b613cc45760405162461bcd60e51b815260206004820152602d60248201527f455243313936373a206e657720696d706c656d656e746174696f6e206973206e60448201526c1bdd08184818dbdb9d1c9858dd609a1b6064820152608401610d0a565b600080516020615b2183398151915280546001600160a01b0319166001600160a01b0392909216919091179055565b613cfc8361431d565b600082511180613d095750805b156113eb57613d18838361435d565b50505050565b60c95460ff166137055760405162461bcd60e51b815260206004820152601460248201527314185d5cd8589b194e881b9bdd081c185d5cd95960621b6044820152606401610d0a565b600080613d7c6101f780546001019081905590565b6040805160c0810182526001600160a01b03888116825260208083018881528385018a8152855180840187526000808252606087019182528751808601895281815260808801528751808601895281815260a0880152888152610200855296909620855181546001600160a01b0319169516949094178455905160018401555160028301559251805194955091939092613e1d926003850192910190614707565b5060808201518051613e39916004840191602090910190614707565b5060a08201518051613e55916005840191602090910190614707565b50905050613e758582600160405180602001604052806000815250612ee1565b90505b9392505050565b6000613efc7f8b73c3c69bb8fe3d512ecc4cf759cc79239f7b179b0ffacaa9a75d522b39400f613eaf6101915490565b610192546040805160208101859052908101839052606081018290524660808201523060a082015260009060c0016040516020818303038152906040528051906020012090509392505050565b905090565b6000806000613f108585614448565b915091506119f98161448d565b60c95460ff16156137055760405162461bcd60e51b815260206004820152601060248201526f14185d5cd8589b194e881c185d5cd95960821b6044820152606401610d0a565b600054610100900460ff16613f8a5760405162461bcd60e51b8152600401610d0a906158a8565b61154681612bf9565b600054610100900460ff16613fba5760405162461bcd60e51b8152600401610d0a906158a8565b60c9805460ff19169055565b600054610100900460ff16613fed5760405162461bcd60e51b8152600401610d0a906158a8565b610d7f82826145d7565b6060610d466001600160a01b03831660145b606060006140188360026153b8565b61402390600261545d565b6001600160401b0381111561403a5761403a614819565b6040519080825280601f01601f191660200182016040528015614064576020820181803683370190505b509050600360fc1b8160008151811061407f5761407f61538c565b60200101906001600160f81b031916908160001a905350600f60fb1b816001815181106140ae576140ae61538c565b60200101906001600160f81b031916908160001a90535060006140d28460026153b8565b6140dd90600161545d565b90505b6001811115614155576f181899199a1a9b1b9c1cb0b131b232b360811b85600f16601081106141115761411161538c565b1a60f81b8282815181106141275761412761538c565b60200101906001600160f81b031916908160001a90535060049490941c9361414e81615b09565b90506140e0565b508315613e785760405162461bcd60e51b815260206004820181905260248201527f537472696e67733a20686578206c656e67746820696e73756666696369656e746044820152606401610d0a565b6001600160a01b03851661422b5760005b8351811015614229578281815181106141d0576141d061538c565b602002602001015160fb60008684815181106141ee576141ee61538c565b602002602001015181526020019081526020016000206000828254614213919061545d565b909155506142229050816153f9565b90506141b5565b505b6001600160a01b038416612a255760005b8351811015612d9c5760008482815181106142595761425961538c565b6020026020010151905060008483815181106142775761427761538c565b60200260200101519050600060fb6000848152602001908152602001600020549050818110156142fa5760405162461bcd60e51b815260206004820152602860248201527f455243313135353a206275726e20616d6f756e74206578636565647320746f74604482015267616c537570706c7960c01b6064820152608401610d0a565b600092835260fb602052604090922091039055614316816153f9565b905061423c565b61432681613c57565b6040516001600160a01b038216907fbc7cd75a20ee27fd9adebab32041f755214dbc6bffa90cc0225b39da2e5c2d3b90600090a250565b60606001600160a01b0383163b6143c55760405162461bcd60e51b815260206004820152602660248201527f416464726573733a2064656c65676174652063616c6c20746f206e6f6e2d636f6044820152651b9d1c9858dd60d21b6064820152608401610d0a565b600080846001600160a01b0316846040516143e09190615771565b600060405180830381855af49150503d806000811461441b576040519150601f19603f3d011682016040523d82523d6000602084013e614420565b606091505b50915091506118cf8282604051806060016040528060278152602001615b616027913961461a565b600080825160410361447e5760208301516040840151606085015160001a61447287828585614633565b94509450505050614486565b506000905060025b9250929050565b60008160048111156144a1576144a161570d565b036144a95750565b60018160048111156144bd576144bd61570d565b0361450a5760405162461bcd60e51b815260206004820152601860248201527f45434453413a20696e76616c6964207369676e617475726500000000000000006044820152606401610d0a565b600281600481111561451e5761451e61570d565b0361456b5760405162461bcd60e51b815260206004820152601f60248201527f45434453413a20696e76616c6964207369676e6174757265206c656e677468006044820152606401610d0a565b600381600481111561457f5761457f61570d565b036115465760405162461bcd60e51b815260206004820152602260248201527f45434453413a20696e76616c6964207369676e6174757265202773272076616c604482015261756560f01b6064820152608401610d0a565b600054610100900460ff166145fe5760405162461bcd60e51b8152600401610d0a906158a8565b8151602092830120815191909201206101919190915561019255565b60608315614629575081613e78565b613e7883836146f7565b6000807f7fffffffffffffffffffffffffffffff5d576e7357a4501ddfe92f46681b20a083111561466a57506000905060036146ee565b6040805160008082526020820180845289905260ff881692820192909252606081018690526080810185905260019060a0016020604051602081039080840390855afa1580156146be573d6000803e3d6000fd5b5050604051601f1901519150506001600160a01b0381166146e7576000600192509250506146ee565b9150600090505b94509492505050565b815115613aeb5781518083602001fd5b82805461471390615412565b90600052602060002090601f016020900481019282614735576000855561477b565b82601f1061474e57805160ff191683800117855561477b565b8280016001018555821561477b579182015b8281111561477b578251825591602001919060010190614760565b5061478792915061478b565b5090565b5b80821115614787576000815560010161478c565b80356001600160a01b03811681146147b757600080fd5b919050565b600080604083850312156147cf57600080fd5b6147d8836147a0565b946020939093013593505050565b6001600160e01b03198116811461154657600080fd5b60006020828403121561480e57600080fd5b8135613e78816147e6565b634e487b7160e01b600052604160045260246000fd5b60a081018181106001600160401b038211171561484e5761484e614819565b60405250565b601f8201601f191681016001600160401b038111828210171561487957614879614819565b6040525050565b600082601f83011261489157600080fd5b81356001600160401b038111156148aa576148aa614819565b6040516148c1601f8301601f191660200182614854565b8181528460208386010111156148d657600080fd5b816020850160208301376000918101602001919091529392505050565b60006020828403121561490557600080fd5b81356001600160401b0381111561491b57600080fd5b61366984828501614880565b60006001600160401b0382111561494057614940614819565b5060051b60200190565b600082601f83011261495b57600080fd5b8135602061496882614927565b6040516149758282614854565b83815260059390931b850182019282810191508684111561499557600080fd5b8286015b848110156149b7576149aa816147a0565b8352918301918301614999565b509695505050505050565b6000806000606084860312156149d757600080fd5b83356001600160401b03808211156149ee57600080fd5b6149fa8783880161494a565b9450602086013593506040860135915080821115614a1757600080fd5b50614a2486828701614880565b9150509250925092565b600060208284031215614a4057600080fd5b5035919050565b60005b83811015614a62578181015183820152602001614a4a565b83811115613d185750506000910152565b60008151808452614a8b816020860160208601614a47565b601f01601f19169290920160200192915050565b602081526000613e786020830184614a73565b60008060008060808587031215614ac857600080fd5b614ad1856147a0565b9350602085013592506040850135915060608501356001600160401b03811115614afa57600080fd5b614b0687828801614880565b91505092959194509250565b602081526000825160a06020840152614b2e60c0840182614a73565b9050602084015160408401526040840151606084015260608401516080840152608084015160a08401528091505092915050565b600082601f830112614b7357600080fd5b81356020614b8082614927565b604051614b8d8282614854565b83815260059390931b8501820192828101915086841115614bad57600080fd5b8286015b848110156149b75780358352918301918301614bb1565b600080600080600060a08688031215614be057600080fd5b614be9866147a0565b9450614bf7602087016147a0565b935060408601356001600160401b0380821115614c1357600080fd5b614c1f89838a01614b62565b94506060880135915080821115614c3557600080fd5b614c4189838a01614b62565b93506080880135915080821115614c5757600080fd5b50614c6488828901614880565b9150509295509295909350565b60008060408385031215614c8457600080fd5b82359150614c94602084016147a0565b90509250929050565b600060208284031215614caf57600080fd5b613e78826147a0565b600080600080600080600060e0888a031215614cd357600080fd5b614cdc886147a0565b96506020880135955060408801359450606088013593506080880135925060a0880135915060c08801356001600160401b03811115614d1a57600080fd5b614d268a828b01614880565b91505092959891949750929550565b600080600060608486031215614d4a57600080fd5b833592506020840135915060408401356001600160401b03811115614d6e57600080fd5b614a2486828701614880565b60008060408385031215614d8d57600080fd5b82356001600160401b0380821115614da457600080fd5b614db08683870161494a565b93506020850135915080821115614dc657600080fd5b50614dd385828601614b62565b9150509250929050565b600081518084526020808501945080840160005b83811015614e0d57815187529582019590820190600101614df1565b509495945050505050565b602081526000613e786020830184614ddd565b60008060408385031215614e3e57600080fd5b614e47836147a0565b915060208301356001600160401b03811115614e6257600080fd5b614dd385828601614880565b600060e08284031215614e8057600080fd5b50919050565b60008060008060608587031215614e9c57600080fd5b84356001600160401b0380821115614eb357600080fd5b818701915087601f830112614ec757600080fd5b813581811115614ed657600080fd5b886020828501011115614ee857600080fd5b602092830196509450908601359080821115614f0357600080fd5b614f0f88838901614e6e565b93506040870135915080821115614f2557600080fd5b50614b0687828801614880565b8035600581106147b757600080fd5b600080600060608486031215614f5657600080fd5b8335925060208401359150614f6d60408501614f32565b90509250925092565b60018060a01b038716815285602082015284604082015260c060608201526000614fa360c0830186614a73565b8281036080840152614fb58186614a73565b905082810360a0840152614fc98185614a73565b9998505050505050505050565b60a081526000614fe960a0830188614a73565b90508560208301528460408301528360608301528260808301529695505050505050565b6000602080838503121561502057600080fd5b82356001600160401b038082111561503757600080fd5b818501915085601f83011261504b57600080fd5b813561505681614927565b604080516150648382614854565b83815260059390931b850186019286810192508984111561508457600080fd5b8686015b8481101561511b578035868111156150a05760008081fd5b870160a0818d03601f19018113156150b85760008081fd5b84516150c38161482f565b8a830135898111156150d55760008081fd5b6150e38f8d83870101614880565b825250828601358b82015260608084013587830152608080850135918301919091529190920135908201528452928701928701615088565b509998505050505050505050565b6000806000806080858703121561513f57600080fd5b615148856147a0565b9350602085013560ff8116811461515e57600080fd5b92506040850135915060608501356001600160401b03811115614afa57600080fd5b6000806000806080858703121561519657600080fd5b61519f856147a0565b935060208501359250604085013591506151bb60608601614f32565b905092959194509250565b600080600080608085870312156151dc57600080fd5b6151e5856147a0565b935061515e602086016147a0565b6000806000806080858703121561520957600080fd5b84359350602085013592506040850135915060608501356001600160401b03811115614afa57600080fd5b6000806040838503121561524757600080fd5b615250836147a0565b91506020830135801515811461526557600080fd5b809150509250929050565b600080600080600060a0868803121561528857600080fd5b615291866147a0565b945061529f602087016147a0565b935060408601359250606086013591506152bb60808701614f32565b90509295509295909350565b600080604083850312156152da57600080fd5b6152e3836147a0565b9150614c94602084016147a0565b600080600080600060a0868803121561530957600080fd5b615312866147a0565b9450615320602087016147a0565b9350604086013592506060860135915060808601356001600160401b0381111561534957600080fd5b614c6488828901614880565b6020808252601c908201527f50726f6a6563743a20546f6b656e206973206e6f74204578506f737400000000604082015260600190565b634e487b7160e01b600052603260045260246000fd5b634e487b7160e01b600052601160045260246000fd5b60008160001904831182151516156153d2576153d26153a2565b500290565b6000826153f457634e487b7160e01b600052601260045260246000fd5b500490565b60006001820161540b5761540b6153a2565b5060010190565b600181811c9082168061542657607f821691505b602082108103614e8057634e487b7160e01b600052602260045260246000fd5b600082821015615458576154586153a2565b500390565b60008219821115615470576154706153a2565b500190565b6020808252602e908201527f455243313135353a2063616c6c6572206973206e6f7420746f6b656e206f776e60408201526d195c881bdc88185c1c1c9bdd995960921b606082015260800190565b6020808252602c908201527f46756e6374696f6e206d7573742062652063616c6c6564207468726f7567682060408201526b19195b1959d85d1958d85b1b60a21b606082015260800190565b6020808252602c908201527f46756e6374696f6e206d7573742062652063616c6c6564207468726f7567682060408201526b6163746976652070726f787960a01b606082015260800190565b85815284602082015283604082015282606082015260a06080820152600061558660a0830184614a73565b979650505050505050565b81835281816020850137506000828201602090810191909152601f909101601f19169091010190565b6040815260006155ce604083018587615591565b8281036020840152833581526020840135601e198536030181126155f157600080fd5b840180356001600160401b0381111561560957600080fd5b80360386131561561857600080fd5b60e0602084015261563060e084018260208501615591565b91505061563f604086016147a0565b6001600160a01b03166040830152615659606086016147a0565b6001600160a01b0381166060840152506080850135608083015260a085013560a083015260c085013560c08301528092505050949350505050565b6000808335601e198436030181126156ab57600080fd5b8301803591506001600160401b038211156156c557600080fd5b60200191503681900382131561448657600080fd5b8183823760009101908152919050565b600063ffffffff808316818103615703576157036153a2565b6001019392505050565b634e487b7160e01b600052602160045260246000fd5b6020808252602e908201527f496e697469616c697a61626c653a20636f6e747261637420697320616c72656160408201526d191e481a5b9a5d1a585b1a5e995960921b606082015260800190565b60008251615783818460208701614a47565b9190910192915050565b8481528360208201528260408201526080606082015260006157b26080830184614a73565b9695505050505050565b60208082526025908201527f455243313135353a207472616e7366657220746f20746865207a65726f206164604082015264647265737360d81b606082015260800190565b6020808252602a908201527f455243313135353a20696e73756666696369656e742062616c616e636520666f60408201526939103a3930b739b332b960b11b606082015260800190565b60408152600061585e6040830185614ddd565b82810360208401526118cf8185614ddd565b60006020828403121561588257600080fd5b5051919050565b8381528260208201526060604082015260006118cf6060830184614a73565b6020808252602b908201527f496e697469616c697a61626c653a20636f6e7472616374206973206e6f74206960408201526a6e697469616c697a696e6760a81b606082015260800190565b7f416363657373436f6e74726f6c3a206163636f756e742000000000000000000081526000835161592b816017850160208801614a47565b7001034b99036b4b9b9b4b733903937b6329607d1b601791840191820152835161595c816028840160208801614a47565b01602801949350505050565b6001600160a01b03868116825285166020820152604081018490526060810183905260a06080820181905260009061558690830184614a73565b6000602082840312156159b457600080fd5b8151613e78816147e6565b600060033d1115611b7e5760046000803e5060005160e01c90565b600060443d10156159e85790565b6040516003193d81016004833e81513d6001600160401b038160248401118184111715615a1757505050505090565b8285019150815181811115615a2f5750505050505090565b843d8701016020828501011115615a495750505050505090565b615a5860208286010187614854565b509095945050505050565b60208082526028908201527f455243313135353a204552433131353552656365697665722072656a656374656040820152676420746f6b656e7360c01b606082015260800190565b6001600160a01b0386811682528516602082015260a060408201819052600090615ad790830186614ddd565b8281036060840152615ae98186614ddd565b90508281036080840152615afd8185614a73565b98975050505050505050565b600081615b1857615b186153a2565b50600019019056fe360894a13ba1a3210667c828492db98dca3e2076cc3735a920a3ca505d382bbc65d7a28e3265b37a6474929f336521b332c1681b933f6cb9f3376673440d862a416464726573733a206c6f772d6c6576656c2064656c65676174652063616c6c206661696c6564ddf79b8d2110dbe281cf3bb7762d508cea586c974794c8fc949d41b0db114513a26469706673582212208878ab0492d4934051305e824f90a478a398381b6054b41ac7b8f50efbbb242064736f6c634300080d0033",
  "immutableReferences": {
    "997": [
      {
        "length": 32,
        "start": 5236
      },
      {
        "length": 32,
        "start": 5300
      },
      {
        "length": 32,
        "start": 6667
      },
      {
        "length": 32,
        "start": 6731
      },
      {
        "length": 32,
        "start": 6874
      }
    ]
  },
  "source": "// SPDX-License-Identifier: MIT\npragma solidity ^0.8.13;\n\nimport '@openzeppelin/contracts-upgradeable/token/ERC1155/ERC1155Upgradeable.sol';\nimport '@openzeppelin/contracts-upgradeable/access/AccessControlUpgradeable.sol';\nimport '@openzeppelin/contracts-upgradeable/security/PausableUpgradeable.sol';\nimport '@openzeppelin/contracts-upgradeable/token/ERC1155/extensions/ERC1155SupplyUpgradeable.sol';\nimport '@openzeppelin/contracts-upgradeable/proxy/utils/Initializable.sol';\nimport '@openzeppelin/contracts-upgradeable/proxy/utils/UUPSUpgradeable.sol';\n\nimport './ProjectStorage.sol';\nimport './interfaces/ICarbonContractRegistry.sol';\nimport './utils/CustomSignaturesUpgradeable.sol';\n\ncontract Project is\n\tInitializable,\n\tERC1155Upgradeable,\n\tAccessControlUpgradeable,\n\tPausableUpgradeable,\n\tERC1155SupplyUpgradeable,\n\tUUPSUpgradeable,\n\tCustomSignaturesUpgradeable,\n\tProjectStorage\n{\n\tbytes32 public constant URI_SETTER_ROLE = keccak256('URI_SETTER_ROLE');\n\tbytes32 public constant PAUSER_ROLE = keccak256('PAUSER_ROLE');\n\tbytes32 public constant ANTE_MINTER_ROLE = keccak256('ANTE_MINTER_ROLE');\n\tbytes32 public constant POST_MINTER_ROLE = keccak256('POST_MINTER_ROLE');\n\tbytes32 public constant MINTER_ROLE = keccak256('MINTER_ROLE');\n\tbytes32 public constant UPGRADER_ROLE = keccak256('UPGRADER_ROLE');\n\tbytes32 public constant BLACKLISTED = keccak256('BLACKLISTED');\n\tbytes32 public constant BLACKLISTER_ROLE = keccak256('BLACKLISTER_ROLE');\n\tbytes32 public constant BURNER_ROLE = keccak256('BURNER_ROLE');\n\tbytes32 public constant VERIFIER_ROLE = keccak256('VERIFIER_ROLE');\n\tbytes32 public constant CLAWBACK_ROLE = keccak256('CLAWBACK_ROLE');\n\n\tevent ExPostCreated(\n\t\tuint256 indexed tokenId,\n\t\tuint256 estimatedAmount,\n\t\tuint256 verificationPeriodStart,\n\t\tuint256 verificationPeriodEnd,\n\t\tstring serialization\n\t);\n\n\tevent VintageMitigationEstimateChanged(\n\t\tuint256 indexed tokenId,\n\t\tuint256 newEstimate,\n\t\tuint256 oldEstimate,\n\t\tAdminActionReason indexed reason\n\t);\n\n\tevent ExAnteMinted(\n\t\tuint256 indexed exAnteTokenId,\n\t\tuint256 indexed exPostTokenId,\n\t\taddress indexed account,\n\t\tuint256 amount\n\t);\n\n\tevent ExPostVerifiedAndMinted(\n\t\tuint256 indexed tokenId,\n\t\tuint256 amount,\n\t\tuint256 amountToAnteHolders,\n\t\tuint256 verificationPeriodStart,\n\t\tuint256 verificationPeriodEnd,\n\t\tstring monitoringReport\n\t);\n\n\tevent AdminBurn(\n\t\taddress indexed from,\n\t\tuint256 indexed tokenId,\n\t\tuint256 amount,\n\t\tAdminActionReason indexed reason\n\t);\n\n\tevent AdminClawback(\n\t\taddress indexed from,\n\t\taddress to,\n\t\tuint256 indexed tokenId,\n\t\tuint256 amount,\n\t\tAdminActionReason indexed reason\n\t);\n\n\tevent ExchangeAnteForPost(\n\t\taddress indexed account,\n\t\tuint256 indexed exPostTokenId,\n\t\tuint256 exPostAmountReceived,\n\t\tuint256 exAnteAmountBurned\n\t);\n\n\tevent RetiredVintage(\n\t\taddress indexed account,\n\t\tuint256 indexed tokenId,\n\t\tuint256 amount,\n\t\tuint256 nftTokenId,\n\t\tbytes data\n\t);\n\n\t/// @custom:oz-upgrades-unsafe-allow constructor\n\tconstructor() {\n\t\t_disableInitializers();\n\t}\n\n\n\n\tfunction initialize(\n\t\taddress _contractRegistry,\n\t\taddress _owner,\n\t\tuint256 _projectId,\n\t\tstring memory _projectName\n\t) public initializer {\n\t\t__ERC1155_init('');\n\t\t__AccessControl_init();\n\t\t__Pausable_init();\n\t\t__ERC1155Supply_init();\n\t\t__UUPSUpgradeable_init();\n\t\t__CustomSignatures_init(\"Carbon Registry\", '0.0.1');\n\n\t\t// Our Inits\n\t\t__ProjectStorage_init(_contractRegistry, 50, _projectId, _projectName);\n\n\t\t_grantRole(DEFAULT_ADMIN_ROLE, _owner);\n\t\t_grantRole(URI_SETTER_ROLE, _owner);\n\t\t_grantRole(PAUSER_ROLE, _owner);\n\t\t_grantRole(ANTE_MINTER_ROLE, _owner);\n\t\t_grantRole(POST_MINTER_ROLE, _owner);\n\t\t_grantRole(UPGRADER_ROLE, _owner);\n\t\t_grantRole(BLACKLISTER_ROLE, _owner);\n\t\t_grantRole(VERIFIER_ROLE, _owner);\n\t\t_grantRole(CLAWBACK_ROLE, _owner);\n\n\t\t_grantRole(POST_MINTER_ROLE, msg.sender); // Just so projectFactory can mint exPost on creation of the project\n\t}\n\n\tmodifier notBlacklisted(address account) {\n\t\trequire(\n\t\t\t!hasRole(BLACKLISTED, account),\n\t\t\t'Project: Account is blacklisted'\n\t\t);\n\t\t_;\n\t}\n\n\tmodifier onlyExPostTokens(uint256[] memory tokenIds) {\n\t\tfor (uint256 i = 0; i < tokenIds.length; i++) {\n\t\t\trequire(isExPostToken(tokenIds[i]), 'Project: Token is not ExPost');\n\t\t}\n\t\t_;\n\t}\n\n\tmodifier onlyExPostToken(uint256 tokenId) {\n\t\trequire(isExPostToken(tokenId), 'Project: Token is not ExPost');\n\t\t_;\n\t}\n\n\tfunction isExPostToken(uint256 tokenId) public view returns (bool) {\n\t\treturn bytes(exPostVintageMapping[tokenId].serialization).length > 0;\n\t}\n\n\tmodifier onlyVerifiedStatus(bool isVerified, uint256 tokenId) {\n\t\trequire(\n\t\t\t(exPostVintageMapping[tokenId].lastVerificationTimestamp >=\n\t\t\t\texPostVintageMapping[tokenId].verificationPeriodEnd) ==\n\t\t\t\tisVerified,\n\t\t\tisVerified\n\t\t\t\t? 'Project: Token is unverified'\n\t\t\t\t: 'Project: Token is verified'\n\t\t);\n\t\t_;\n\t}\n\n\t// ----------------------------------\n\t//         Minting Functions\n\t// ----------------------------------\n\n\tfunction createExPostVintage(\n\t\tuint256 estAmount,\n\t\tuint256 verificationPeriodStart,\n\t\tuint256 verificationPeriodEnd,\n\t\tstring memory serialization\n\t) public onlyRole(POST_MINTER_ROLE) {\n\t\t\n\t\trequire(\n\t\t\tverificationPeriodEnd > verificationPeriodStart,\n\t\t\t'Project: Invalid verification period'\n\t\t);\n\t\tuint256 newTokenId = nextTokenId();\n\t\tICarbonContractRegistry(contractRegistry).registerSerialization(\n\t\t\tserialization\n\t\t);\n\t\tserializationToExPostTokenIdMapping[serialization] = newTokenId;\n\t\texPostVintageMapping[newTokenId] = VintageData(\n\t\t\tserialization,\n\t\t\testAmount,\n\t\t\tverificationPeriodStart,\n\t\t\tverificationPeriodEnd,\n\t\t\t0\n\t\t);\n\t\temit ExPostCreated(\n\t\t\tnewTokenId,\n\t\t\testAmount,\n\t\t\tverificationPeriodStart,\n\t\t\tverificationPeriodEnd,\n\t\t\tserialization\n\t\t);\n\t}\n\n\tfunction createExPostVintageBatch(\n\t\tVintageData[] memory vintages\n\t) public onlyRole(POST_MINTER_ROLE) {\n\t\tfor (uint256 i = 0; i < vintages.length; i++) {\n\t\t\tcreateExPostVintage(\n\t\t\t\tvintages[i].estMitigations,\n\t\t\t\tvintages[i].verificationPeriodStart,\n\t\t\t\tvintages[i].verificationPeriodEnd,\n\t\t\t\tvintages[i].serialization\n\t\t\t);\n\t\t}\n\t}\n\n\tfunction mintExAnte(\n\t\taddress account,\n\t\tuint256 exPostTokenId,\n\t\tuint256 amount,\n\t\tbytes memory data\n\t)\n\t\tpublic\n\t\tonlyRole(ANTE_MINTER_ROLE)\n\t\tonlyExPostToken(exPostTokenId)\n\t\tonlyVerifiedStatus(false, exPostTokenId)\n\t{\n\n\t\tuint256 exAnteTokenId = exPostToExAnteTokenId[exPostTokenId];\n\t\tif (exAnteTokenId == 0) {\n\t\t\texAnteTokenId = nextTokenId();\n\t\t\texPostToExAnteTokenId[exPostTokenId] = exAnteTokenId;\n\t\t}\n\n\n\t\tuint256 exPostEstimatedSupply = exPostVintageMapping[exPostTokenId]\n\t\t\t.estMitigations;\n\t\tuint256 exPostVerifiedSupply = totalSupply(exPostTokenId);\n\t\tuint256 anteDrawablePostSupply = exPostEstimatedSupply -\n\t\t\texPostVerifiedSupply;\n\t\tuint256 maxExAnteSupply = (anteDrawablePostSupply *\n\t\t\t(maxAntePercentage)) / (100);\n\t\tuint256 exAnteSupply = totalSupply(exAnteTokenId);\n\n\t\trequire(\n\t\t\texAnteSupply + amount <= maxExAnteSupply,\n\t\t\t'Maximum exAnte supply exceeded'\n\t\t);\n\n\t\texAnteToExPostTokenId[exAnteTokenId] = exPostTokenId;\n\n\t\temit ExAnteMinted(exAnteTokenId, exPostTokenId, account,  amount);\n\n\t\t_mint(account, exAnteTokenId, amount, data);\n\n\t}\n\n\tfunction changeVintageMitigationEstimate(\n\t\tuint256 tokenId,\n\t\tuint256 newEstAmount,\n\t\tAdminActionReason reason\n\t)\n\t\tpublic\n\t\tonlyRole(DEFAULT_ADMIN_ROLE)\n\t\tonlyExPostToken(tokenId)\n\t\tonlyVerifiedStatus(false, tokenId)\n\t{\n\t\temit VintageMitigationEstimateChanged(\n\t\t\ttokenId,\n\t\t\tnewEstAmount,\n\t\t\texPostVintageMapping[tokenId].estMitigations,\n\t\t\treason\n\t\t);\n\t\texPostVintageMapping[tokenId].estMitigations = newEstAmount;\n\t}\n\n\tfunction verifyAndMintExPost(\n\t\taddress verificationVault,\n\t\tuint256 tokenId,\n\t\tuint256 amountVerified,\n\t\tuint256 amountToAnteHolders,\n\t\tuint256 verificationPeriodStart,\n\t\tuint256 verificationPeriodEnd,\n\t\tstring memory monitoringReport\n\t)\n\t\tpublic\n\t\tonlyRole(VERIFIER_ROLE)\n\t\tonlyExPostToken(tokenId)\n\t\tonlyVerifiedStatus(false, tokenId)\n\t{\n\t\t\t\n\t\trequire(\n\t\t\tamountVerified >= amountToAnteHolders,\n\t\t\t'Project: Invalid amount'\n\t\t);\n\t\trequire(\n\t\t\tverificationPeriodEnd >=\n\t\t\t\texPostVintageMapping[tokenId].verificationPeriodStart,\n\t\t\t'Verification timestamp is before verification period start'\n\t\t);\n\t\trequire(\n\t\t\tverificationPeriodEnd >\n\t\t\t\texPostVintageMapping[tokenId].lastVerificationTimestamp,\n\t\t\t'Verification timestamp is before last verification timestamp'\n\t\t);\n\n\t\tuint256 exAnteTokenId = exPostToExAnteTokenId[tokenId];\n\t\tif (exAnteTokenId == 0) {\n\t\t\t// If exAnteTokenId is zero then there are no ante holders\n\t\t\trequire(amountToAnteHolders == 0, 'Project: Invalid amount');\n\t\t}\n\n\t\t\temit ExPostVerifiedAndMinted(\n\t\t\ttokenId,\n\t\t\tamountVerified,\n\t\t\tamountToAnteHolders,\n\t\t\tverificationPeriodStart,\n\t\t\tverificationPeriodEnd,\n\t\t\tmonitoringReport\n\t\t);\n\n\t\tif (amountVerified - amountToAnteHolders > 0) {\n\t\t\t// Mint To Verification Vault\n\t\t\t_mint(\n\t\t\t\tverificationVault,\n\t\t\t\ttokenId,\n\t\t\t\tamountVerified - amountToAnteHolders,\n\t\t\t\t''\n\t\t\t);\n\t\t}\n\t\texPostVintageMapping[tokenId]\n\t\t\t.lastVerificationTimestamp = verificationPeriodEnd;\n\n\t\tif (amountToAnteHolders > 0) {\n\t\t\t// Mint to this address, where ante holders will claim\n\t\t\t_mint(address(this), tokenId, amountToAnteHolders, '');\n\t\t}\n\n\n\t}\n\n\tfunction adminBurn(\n\t\taddress from,\n\t\tuint256 tokenId,\n\t\tuint256 amount,\n\t\tAdminActionReason reason\n\t) public onlyRole(BURNER_ROLE) {\n\t\temit AdminBurn(from, tokenId, amount, reason);\n\t\t_burn(from, tokenId, amount);\n\t}\n\n\tfunction adminClawback(\n\t\taddress from,\n\t\taddress to,\n\t\tuint256 tokenId,\n\t\tuint256 amount,\n\t\tAdminActionReason reason\n\t) public onlyRole(CLAWBACK_ROLE) {\n\t\temit AdminClawback(from, to, tokenId, amount, reason);\n\t\t_safeTransferFrom(from, to, tokenId, amount, '');\n\t}\n\n\tfunction exchangeAnteForPostEvenSteven(\n\t\taddress[] memory accounts,\n\t\tuint256 exPostTokenId,\n\t\tbytes memory data\n\t)\n\t\texternal\n\t\tonlyExPostToken(exPostTokenId)\n\t{\n\t\tuint256 exAnteTokenId = exPostToExAnteTokenId[exPostTokenId];\n\t\trequire(exAnteTokenId != 0, 'Project: No ante holders');\n\t\tuint256 currentExAnteSupply = totalSupply(exAnteTokenId);\n\t\tuint256 currentExPostSupplyInContract = balanceOf(\n\t\t\taddress(this),\n\t\t\texPostTokenId\n\t\t);\n\t\trequire(currentExPostSupplyInContract > 0, 'Project: No post supply');\n\n\t\tfor (uint256 i = 0; i < accounts.length; i++) {\n\t\t\t\n\t\t\tuint256 amountExAnte = balanceOf(accounts[i], exAnteTokenId);\n\t\t\tuint256 amountExPost = (amountExAnte *\n\t\t\t\tcurrentExPostSupplyInContract) / currentExAnteSupply;\n\t\t\tuint256 exAnteBurnAmount = amountExAnte;\n\t\t\tif (amountExAnte > amountExPost) {\n\t\t\t\texAnteBurnAmount = amountExPost;\n\t\t\t}\n\t\t\t\t\t\temit ExchangeAnteForPost(\n\t\t\t\taccounts[i],\n\t\t\t\texPostTokenId,\n\t\t\t\tamountExPost,\n\t\t\t\texAnteBurnAmount\n\t\t\t);\n\t\t\t_burn(accounts[i], exAnteTokenId, exAnteBurnAmount);\n\t\t\t_safeTransferFrom(\n\t\t\t\taddress(this),\n\t\t\t\taccounts[i],\n\t\t\t\texPostTokenId,\n\t\t\t\tamountExPost,\n\t\t\t\tdata\n\t\t\t);\n\n\t\t}\n\t}\n\n\tfunction getExPostVintageData(\n\t\tuint256 exAnteTokenId\n\t) public view returns (VintageData memory) {\n\t\tuint256 exPostTokenId = exAnteToExPostTokenId[exAnteTokenId];\n\t\treturn exPostVintageMapping[exPostTokenId];\n\t}\n\n\t// ----------------------------------\n\t//              Actions\n\t// ----------------------------------\n\n\tfunction transferFromSignature(\n\t\tbytes calldata signature,\n\t\tsignatureTransferPayload calldata payload,\n\t\tbytes memory data\n\t) public payable onlyValidSignatureTransfer(signature, payload) {\n\t\t_safeTransferFrom(\n\t\t\tpayload.signer,\n\t\t\tpayload.to,\n\t\t\tpayload.tokenId,\n\t\t\tpayload.amount,\n\t\t\tdata\n\t\t);\n\t}\n\n\tfunction retire(\n\t\tuint256 tokenId,\n\t\tuint256 amount,\n\t\tbytes memory data\n\t) public onlyExPostToken(tokenId) returns (uint256 nftTokenId) {\n\t\treturn _retire(\n\t\t\tmsg.sender,\n\t\t\ttokenId,\n\t\t\tamount,\n\t\t\tdata\n\t\t);\n\t}\n\n\tfunction retireFromSignature(\n\t\tbytes calldata signature,\n\t\tsignatureTransferPayload calldata payload,\n\t\tbytes memory data\n\t)\n\t\tpublic\n\t\tpayable\n\t\tonlyExPostToken(payload.tokenId)\n\t\tonlyValidSignatureTransfer(signature, payload)\n\t\treturns (uint256 nftTokenId)\n\t{\n\t\treturn _retire(\n\t\t\tpayload.signer,\n\t\t\tpayload.tokenId,\n\t\t\tpayload.amount,\n\t\t\tdata\n\t\t);\n\t}\n\n\tfunction _retire(\n\t\taddress retiree,\n\t\tuint256 tokenId,\n\t\tuint256 amount,\n\t\tbytes memory data\n\t) internal returns(uint256 nftTokenId) {\n\t\t_burn(retiree, tokenId, amount);\n\t\tnftTokenId = mintRetirementCertificate(retiree, tokenId, amount);\n\t\t\t\temit RetiredVintage(retiree, tokenId, amount, nftTokenId, data);\n\n\t}\n\n\tfunction mintRetirementCertificate(\n\t\taddress account,\n\t\tuint256 tokenId,\n\t\tuint256 amount\n\t) internal returns (uint256) {\n\t\tuint256 nftTokenId = nextTokenId();\n\t\tretirementMapping[nftTokenId] = RetirementData(\n\t\t\taccount,\n\t\t\tamount,\n\t\t\ttokenId,\n\t\t\t'',\n\t\t\t'',\n\t\t\t''\n\t\t);\n\t\t_mint(account, nftTokenId, 1, '');\n\t\treturn nftTokenId;\n\t}\n\n\t// ----------------------------------\n\t//              Hooks\n\t// ----------------------------------\n\n\tfunction _beforeTokenTransfer(\n\t\taddress operator,\n\t\taddress from,\n\t\taddress to,\n\t\tuint256[] memory ids,\n\t\tuint256[] memory amounts,\n\t\tbytes memory data\n\t)\n\t\tinternal\n\t\toverride(ERC1155Upgradeable, ERC1155SupplyUpgradeable)\n\t\twhenNotPaused\n\t\tnotBlacklisted(from)\n\t\tnotBlacklisted(to)\n\t{\n\t\tsuper._beforeTokenTransfer(operator, from, to, ids, amounts, data);\n\t}\n\n\tfunction setURI(string memory newuri) public onlyRole(URI_SETTER_ROLE) {\n\t\t_setURI(newuri);\n\t}\n\n\tfunction pause() public onlyRole(PAUSER_ROLE) {\n\t\t_pause();\n\t}\n\n\tfunction unpause() public onlyRole(PAUSER_ROLE) {\n\t\t_unpause();\n\t}\n\n\tfunction nextTokenId() internal returns (uint256) {\n\t\tunchecked {\n\t\t\ttopTokenId += 1;\n\t\t}\n\t\treturn topTokenId;\n\t}\n\n\tfunction _authorizeUpgrade(\n\t\taddress newImplementation\n\t) internal override onlyRole(UPGRADER_ROLE) {}\n\n\t// The following functions are overrides required by Solidity.\n\n\tfunction supportsInterface(\n\t\tbytes4 interfaceId\n\t)\n\t\tpublic\n\t\tview\n\t\toverride(ERC1155Upgradeable, AccessControlUpgradeable)\n\t\treturns (bool)\n\t{\n\t\treturn super.supportsInterface(interfaceId);\n\t}\n}\n",
  "sourcePath": "/Users/thorduragustsson/Programming/Projects/CarbonRegistryContracts/contracts/Project.sol",
  "compiler": {
    "name": "solc",
    "version": "0.8.13+commit.abaa5c0e.Emscripten.clang"
  },
  "schemaVersion": "3.4.13",
  "updatedAt": "2023-04-19T21:36:08.003Z",
  "networkType": "ethereum",
  "devdoc": {
    "kind": "dev",
    "methods": {
      "balanceOf(address,uint256)": {
        "details": "See {IERC1155-balanceOf}. Requirements: - `account` cannot be the zero address."
      },
      "balanceOfBatch(address[],uint256[])": {
        "details": "See {IERC1155-balanceOfBatch}. Requirements: - `accounts` and `ids` must have the same length."
      },
      "constructor": {
        "custom:oz-upgrades-unsafe-allow": "constructor"
      },
      "exists(uint256)": {
        "details": "Indicates whether any token exist with a given id, or not."
      },
      "getRoleAdmin(bytes32)": {
        "details": "Returns the admin role that controls `role`. See {grantRole} and {revokeRole}. To change a role's admin, use {_setRoleAdmin}."
      },
      "grantRole(bytes32,address)": {
        "details": "Grants `role` to `account`. If `account` had not been already granted `role`, emits a {RoleGranted} event. Requirements: - the caller must have ``role``'s admin role. May emit a {RoleGranted} event."
      },
      "hasRole(bytes32,address)": {
        "details": "Returns `true` if `account` has been granted `role`."
      },
      "isApprovedForAll(address,address)": {
        "details": "See {IERC1155-isApprovedForAll}."
      },
      "paused()": {
        "details": "Returns true if the contract is paused, and false otherwise."
      },
      "proxiableUUID()": {
        "details": "Implementation of the ERC1822 {proxiableUUID} function. This returns the storage slot used by the implementation. It is used to validate the implementation's compatibility when performing an upgrade. IMPORTANT: A proxy pointing at a proxiable contract should not be considered proxiable itself, because this risks bricking a proxy that upgrades to it, by delegating to itself until out of gas. Thus it is critical that this function revert if invoked through a proxy. This is guaranteed by the `notDelegated` modifier."
      },
      "renounceRole(bytes32,address)": {
        "details": "Revokes `role` from the calling account. Roles are often managed via {grantRole} and {revokeRole}: this function's purpose is to provide a mechanism for accounts to lose their privileges if they are compromised (such as when a trusted device is misplaced). If the calling account had been revoked `role`, emits a {RoleRevoked} event. Requirements: - the caller must be `account`. May emit a {RoleRevoked} event."
      },
      "revokeRole(bytes32,address)": {
        "details": "Revokes `role` from `account`. If `account` had been granted `role`, emits a {RoleRevoked} event. Requirements: - the caller must have ``role``'s admin role. May emit a {RoleRevoked} event."
      },
      "safeBatchTransferFrom(address,address,uint256[],uint256[],bytes)": {
        "details": "See {IERC1155-safeBatchTransferFrom}."
      },
      "safeTransferFrom(address,address,uint256,uint256,bytes)": {
        "details": "See {IERC1155-safeTransferFrom}."
      },
      "setApprovalForAll(address,bool)": {
        "details": "See {IERC1155-setApprovalForAll}."
      },
      "totalSupply(uint256)": {
        "details": "Total amount of tokens in with a given id."
      },
      "upgradeTo(address)": {
        "details": "Upgrade the implementation of the proxy to `newImplementation`. Calls {_authorizeUpgrade}. Emits an {Upgraded} event."
      },
      "upgradeToAndCall(address,bytes)": {
        "details": "Upgrade the implementation of the proxy to `newImplementation`, and subsequently execute the function call encoded in `data`. Calls {_authorizeUpgrade}. Emits an {Upgraded} event."
      },
      "uri(uint256)": {
        "details": "See {IERC1155MetadataURI-uri}. This implementation returns the same URI for *all* token types. It relies on the token type ID substitution mechanism https://eips.ethereum.org/EIPS/eip-1155#metadata[defined in the EIP]. Clients calling this function must replace the `\\{id\\}` substring with the actual token type ID."
      }
    },
    "version": 1
  },
  "userdoc": {
    "kind": "user",
    "methods": {},
    "version": 1
  }
}