{
  "contractName": "Project",
  "abi": [
    {
      "inputs": [],
      "stateMutability": "nonpayable",
      "type": "constructor"
    },
    {
      "anonymous": false,
      "inputs": [
        {
          "indexed": true,
          "internalType": "address",
          "name": "from",
          "type": "address"
        },
        {
          "indexed": true,
          "internalType": "uint256",
          "name": "tokenId",
          "type": "uint256"
        },
        {
          "indexed": false,
          "internalType": "uint256",
          "name": "amount",
          "type": "uint256"
        },
        {
          "indexed": true,
          "internalType": "enum AdminActionReason",
          "name": "reason",
          "type": "uint8"
        }
      ],
      "name": "AdminBurn",
      "type": "event"
    },
    {
      "anonymous": false,
      "inputs": [
        {
          "indexed": false,
          "internalType": "address",
          "name": "previousAdmin",
          "type": "address"
        },
        {
          "indexed": false,
          "internalType": "address",
          "name": "newAdmin",
          "type": "address"
        }
      ],
      "name": "AdminChanged",
      "type": "event"
    },
    {
      "anonymous": false,
      "inputs": [
        {
          "indexed": true,
          "internalType": "address",
          "name": "from",
          "type": "address"
        },
        {
          "indexed": false,
          "internalType": "address",
          "name": "to",
          "type": "address"
        },
        {
          "indexed": true,
          "internalType": "uint256",
          "name": "tokenId",
          "type": "uint256"
        },
        {
          "indexed": false,
          "internalType": "uint256",
          "name": "amount",
          "type": "uint256"
        },
        {
          "indexed": true,
          "internalType": "enum AdminActionReason",
          "name": "reason",
          "type": "uint8"
        }
      ],
      "name": "AdminClawback",
      "type": "event"
    },
    {
      "anonymous": false,
      "inputs": [
        {
          "indexed": true,
          "internalType": "address",
          "name": "account",
          "type": "address"
        },
        {
          "indexed": true,
          "internalType": "address",
          "name": "operator",
          "type": "address"
        },
        {
          "indexed": false,
          "internalType": "bool",
          "name": "approved",
          "type": "bool"
        }
      ],
      "name": "ApprovalForAll",
      "type": "event"
    },
    {
      "anonymous": false,
      "inputs": [
        {
          "indexed": true,
          "internalType": "address",
          "name": "beacon",
          "type": "address"
        }
      ],
      "name": "BeaconUpgraded",
      "type": "event"
    },
    {
      "anonymous": false,
      "inputs": [
        {
          "indexed": true,
          "internalType": "uint256",
          "name": "exAnteTokenId",
          "type": "uint256"
        },
        {
          "indexed": true,
          "internalType": "uint256",
          "name": "exPostTokenId",
          "type": "uint256"
        },
        {
          "indexed": true,
          "internalType": "address",
          "name": "account",
          "type": "address"
        },
        {
          "indexed": false,
          "internalType": "uint256",
          "name": "amount",
          "type": "uint256"
        }
      ],
      "name": "ExAnteMinted",
      "type": "event"
    },
    {
      "anonymous": false,
      "inputs": [
        {
          "indexed": true,
          "internalType": "uint256",
          "name": "tokenId",
          "type": "uint256"
        },
        {
          "indexed": false,
          "internalType": "uint256",
          "name": "estimatedAmount",
          "type": "uint256"
        },
        {
          "indexed": false,
          "internalType": "uint256",
          "name": "verificationPeriodStart",
          "type": "uint256"
        },
        {
          "indexed": false,
          "internalType": "uint256",
          "name": "verificationPeriodEnd",
          "type": "uint256"
        },
        {
          "indexed": false,
          "internalType": "string",
          "name": "serialization",
          "type": "string"
        }
      ],
      "name": "ExPostCreated",
      "type": "event"
    },
    {
      "anonymous": false,
      "inputs": [
        {
          "indexed": true,
          "internalType": "uint256",
          "name": "tokenId",
          "type": "uint256"
        },
        {
          "indexed": false,
          "internalType": "uint256",
          "name": "amount",
          "type": "uint256"
        },
        {
          "indexed": false,
          "internalType": "uint256",
          "name": "amountToAnteHolders",
          "type": "uint256"
        },
        {
          "indexed": false,
          "internalType": "uint256",
          "name": "verificationPeriodStart",
          "type": "uint256"
        },
        {
          "indexed": false,
          "internalType": "uint256",
          "name": "verificationPeriodEnd",
          "type": "uint256"
        },
        {
          "indexed": false,
          "internalType": "string",
          "name": "monitoringReport",
          "type": "string"
        }
      ],
      "name": "ExPostVerifiedAndMinted",
      "type": "event"
    },
    {
      "anonymous": false,
      "inputs": [
        {
          "indexed": true,
          "internalType": "address",
          "name": "account",
          "type": "address"
        },
        {
          "indexed": true,
          "internalType": "uint256",
          "name": "exPostTokenId",
          "type": "uint256"
        },
        {
          "indexed": false,
          "internalType": "uint256",
          "name": "exPostAmountReceived",
          "type": "uint256"
        },
        {
          "indexed": false,
          "internalType": "uint256",
          "name": "exAnteAmountBurned",
          "type": "uint256"
        }
      ],
      "name": "ExchangeAnteForPost",
      "type": "event"
    },
    {
      "anonymous": false,
      "inputs": [
        {
          "indexed": false,
          "internalType": "bytes",
          "name": "signature",
          "type": "bytes"
        },
        {
          "components": [
            {
              "internalType": "uint256",
              "name": "deadline",
              "type": "uint256"
            },
            {
              "internalType": "string",
              "name": "description",
              "type": "string"
            },
            {
              "internalType": "address",
              "name": "signer",
              "type": "address"
            },
            {
              "internalType": "uint256",
              "name": "nonce",
              "type": "uint256"
            }
          ],
          "indexed": false,
          "internalType": "struct signatureGenericPayload",
          "name": "payload",
          "type": "tuple"
        }
      ],
      "name": "GenericSignatureValid",
      "type": "event"
    },
    {
      "anonymous": false,
      "inputs": [
        {
          "indexed": false,
          "internalType": "uint8",
          "name": "version",
          "type": "uint8"
        }
      ],
      "name": "Initialized",
      "type": "event"
    },
    {
      "anonymous": false,
      "inputs": [
        {
          "indexed": false,
          "internalType": "address",
          "name": "account",
          "type": "address"
        }
      ],
      "name": "Paused",
      "type": "event"
    },
    {
      "anonymous": false,
      "inputs": [
        {
          "indexed": true,
          "internalType": "address",
          "name": "account",
          "type": "address"
        },
        {
          "indexed": true,
          "internalType": "uint256",
          "name": "tokenId",
          "type": "uint256"
        },
        {
          "indexed": false,
          "internalType": "uint256",
          "name": "amount",
          "type": "uint256"
        },
        {
          "indexed": false,
          "internalType": "uint256",
          "name": "nftTokenId",
          "type": "uint256"
        },
        {
          "indexed": false,
          "internalType": "bytes",
          "name": "data",
          "type": "bytes"
        }
      ],
      "name": "RetiredVintage",
      "type": "event"
    },
    {
      "anonymous": false,
      "inputs": [
        {
          "indexed": true,
          "internalType": "bytes32",
          "name": "role",
          "type": "bytes32"
        },
        {
          "indexed": true,
          "internalType": "bytes32",
          "name": "previousAdminRole",
          "type": "bytes32"
        },
        {
          "indexed": true,
          "internalType": "bytes32",
          "name": "newAdminRole",
          "type": "bytes32"
        }
      ],
      "name": "RoleAdminChanged",
      "type": "event"
    },
    {
      "anonymous": false,
      "inputs": [
        {
          "indexed": true,
          "internalType": "bytes32",
          "name": "role",
          "type": "bytes32"
        },
        {
          "indexed": true,
          "internalType": "address",
          "name": "account",
          "type": "address"
        },
        {
          "indexed": true,
          "internalType": "address",
          "name": "sender",
          "type": "address"
        }
      ],
      "name": "RoleGranted",
      "type": "event"
    },
    {
      "anonymous": false,
      "inputs": [
        {
          "indexed": true,
          "internalType": "bytes32",
          "name": "role",
          "type": "bytes32"
        },
        {
          "indexed": true,
          "internalType": "address",
          "name": "account",
          "type": "address"
        },
        {
          "indexed": true,
          "internalType": "address",
          "name": "sender",
          "type": "address"
        }
      ],
      "name": "RoleRevoked",
      "type": "event"
    },
    {
      "anonymous": false,
      "inputs": [
        {
          "indexed": true,
          "internalType": "address",
          "name": "operator",
          "type": "address"
        },
        {
          "indexed": true,
          "internalType": "address",
          "name": "from",
          "type": "address"
        },
        {
          "indexed": true,
          "internalType": "address",
          "name": "to",
          "type": "address"
        },
        {
          "indexed": false,
          "internalType": "uint256[]",
          "name": "ids",
          "type": "uint256[]"
        },
        {
          "indexed": false,
          "internalType": "uint256[]",
          "name": "values",
          "type": "uint256[]"
        }
      ],
      "name": "TransferBatch",
      "type": "event"
    },
    {
      "anonymous": false,
      "inputs": [
        {
          "indexed": false,
          "internalType": "bytes",
          "name": "signature",
          "type": "bytes"
        },
        {
          "components": [
            {
              "internalType": "uint256",
              "name": "deadline",
              "type": "uint256"
            },
            {
              "internalType": "string",
              "name": "description",
              "type": "string"
            },
            {
              "internalType": "address",
              "name": "signer",
              "type": "address"
            },
            {
              "internalType": "address",
              "name": "to",
              "type": "address"
            },
            {
              "internalType": "uint256",
              "name": "tokenId",
              "type": "uint256"
            },
            {
              "internalType": "uint256",
              "name": "amount",
              "type": "uint256"
            },
            {
              "internalType": "uint256",
              "name": "nonce",
              "type": "uint256"
            }
          ],
          "indexed": false,
          "internalType": "struct signatureTransferPayload",
          "name": "payload",
          "type": "tuple"
        }
      ],
      "name": "TransferSignatureValid",
      "type": "event"
    },
    {
      "anonymous": false,
      "inputs": [
        {
          "indexed": true,
          "internalType": "address",
          "name": "operator",
          "type": "address"
        },
        {
          "indexed": true,
          "internalType": "address",
          "name": "from",
          "type": "address"
        },
        {
          "indexed": true,
          "internalType": "address",
          "name": "to",
          "type": "address"
        },
        {
          "indexed": false,
          "internalType": "uint256",
          "name": "id",
          "type": "uint256"
        },
        {
          "indexed": false,
          "internalType": "uint256",
          "name": "value",
          "type": "uint256"
        }
      ],
      "name": "TransferSingle",
      "type": "event"
    },
    {
      "anonymous": false,
      "inputs": [
        {
          "indexed": false,
          "internalType": "string",
          "name": "value",
          "type": "string"
        },
        {
          "indexed": true,
          "internalType": "uint256",
          "name": "id",
          "type": "uint256"
        }
      ],
      "name": "URI",
      "type": "event"
    },
    {
      "anonymous": false,
      "inputs": [
        {
          "indexed": false,
          "internalType": "address",
          "name": "account",
          "type": "address"
        }
      ],
      "name": "Unpaused",
      "type": "event"
    },
    {
      "anonymous": false,
      "inputs": [
        {
          "indexed": true,
          "internalType": "address",
          "name": "implementation",
          "type": "address"
        }
      ],
      "name": "Upgraded",
      "type": "event"
    },
    {
      "anonymous": false,
      "inputs": [
        {
          "indexed": true,
          "internalType": "uint256",
          "name": "tokenId",
          "type": "uint256"
        },
        {
          "indexed": false,
          "internalType": "uint256",
          "name": "newEstimate",
          "type": "uint256"
        },
        {
          "indexed": false,
          "internalType": "uint256",
          "name": "oldEstimate",
          "type": "uint256"
        },
        {
          "indexed": true,
          "internalType": "enum AdminActionReason",
          "name": "reason",
          "type": "uint8"
        }
      ],
      "name": "VintageMitigationEstimateChanged",
      "type": "event"
    },
    {
      "inputs": [],
      "name": "ANTE_MINTER_ROLE",
      "outputs": [
        {
          "internalType": "bytes32",
          "name": "",
          "type": "bytes32"
        }
      ],
      "stateMutability": "view",
      "type": "function"
    },
    {
      "inputs": [],
      "name": "BLACKLISTED",
      "outputs": [
        {
          "internalType": "bytes32",
          "name": "",
          "type": "bytes32"
        }
      ],
      "stateMutability": "view",
      "type": "function"
    },
    {
      "inputs": [],
      "name": "BLACKLISTER_ROLE",
      "outputs": [
        {
          "internalType": "bytes32",
          "name": "",
          "type": "bytes32"
        }
      ],
      "stateMutability": "view",
      "type": "function"
    },
    {
      "inputs": [],
      "name": "BURNER_ROLE",
      "outputs": [
        {
          "internalType": "bytes32",
          "name": "",
          "type": "bytes32"
        }
      ],
      "stateMutability": "view",
      "type": "function"
    },
    {
      "inputs": [],
      "name": "CLAWBACK_ROLE",
      "outputs": [
        {
          "internalType": "bytes32",
          "name": "",
          "type": "bytes32"
        }
      ],
      "stateMutability": "view",
      "type": "function"
    },
    {
      "inputs": [],
      "name": "DEFAULT_ADMIN_ROLE",
      "outputs": [
        {
          "internalType": "bytes32",
          "name": "",
          "type": "bytes32"
        }
      ],
      "stateMutability": "view",
      "type": "function"
    },
    {
      "inputs": [],
      "name": "MINTER_ROLE",
      "outputs": [
        {
          "internalType": "bytes32",
          "name": "",
          "type": "bytes32"
        }
      ],
      "stateMutability": "view",
      "type": "function"
    },
    {
      "inputs": [],
      "name": "PAUSER_ROLE",
      "outputs": [
        {
          "internalType": "bytes32",
          "name": "",
          "type": "bytes32"
        }
      ],
      "stateMutability": "view",
      "type": "function"
    },
    {
      "inputs": [],
      "name": "POST_MINTER_ROLE",
      "outputs": [
        {
          "internalType": "bytes32",
          "name": "",
          "type": "bytes32"
        }
      ],
      "stateMutability": "view",
      "type": "function"
    },
    {
      "inputs": [],
      "name": "UPGRADER_ROLE",
      "outputs": [
        {
          "internalType": "bytes32",
          "name": "",
          "type": "bytes32"
        }
      ],
      "stateMutability": "view",
      "type": "function"
    },
    {
      "inputs": [],
      "name": "URI_SETTER_ROLE",
      "outputs": [
        {
          "internalType": "bytes32",
          "name": "",
          "type": "bytes32"
        }
      ],
      "stateMutability": "view",
      "type": "function"
    },
    {
      "inputs": [],
      "name": "VERIFIER_ROLE",
      "outputs": [
        {
          "internalType": "bytes32",
          "name": "",
          "type": "bytes32"
        }
      ],
      "stateMutability": "view",
      "type": "function"
    },
    {
      "inputs": [
        {
          "internalType": "address",
          "name": "_contractRegistry",
          "type": "address"
        },
        {
          "internalType": "uint8",
          "name": "_maxAntePerc",
          "type": "uint8"
        },
        {
          "internalType": "uint256",
          "name": "_projectId",
          "type": "uint256"
        },
        {
          "internalType": "string",
          "name": "_projectName",
          "type": "string"
        }
      ],
      "name": "__ProjectStorage_init",
      "outputs": [],
      "stateMutability": "nonpayable",
      "type": "function"
    },
    {
      "inputs": [
        {
          "internalType": "address",
          "name": "account",
          "type": "address"
        },
        {
          "internalType": "uint256",
          "name": "id",
          "type": "uint256"
        }
      ],
      "name": "balanceOf",
      "outputs": [
        {
          "internalType": "uint256",
          "name": "",
          "type": "uint256"
        }
      ],
      "stateMutability": "view",
      "type": "function"
    },
    {
      "inputs": [
        {
          "internalType": "address[]",
          "name": "accounts",
          "type": "address[]"
        },
        {
          "internalType": "uint256[]",
          "name": "ids",
          "type": "uint256[]"
        }
      ],
      "name": "balanceOfBatch",
      "outputs": [
        {
          "internalType": "uint256[]",
          "name": "",
          "type": "uint256[]"
        }
      ],
      "stateMutability": "view",
      "type": "function"
    },
    {
      "inputs": [],
      "name": "contractRegistry",
      "outputs": [
        {
          "internalType": "address",
          "name": "",
          "type": "address"
        }
      ],
      "stateMutability": "view",
      "type": "function"
    },
    {
      "inputs": [
        {
          "internalType": "uint256",
          "name": "",
          "type": "uint256"
        }
      ],
      "name": "exAnteToExPostTokenId",
      "outputs": [
        {
          "internalType": "uint256",
          "name": "",
          "type": "uint256"
        }
      ],
      "stateMutability": "view",
      "type": "function"
    },
    {
      "inputs": [
        {
          "internalType": "uint256",
          "name": "",
          "type": "uint256"
        }
      ],
      "name": "exPostToExAnteTokenId",
      "outputs": [
        {
          "internalType": "uint256",
          "name": "",
          "type": "uint256"
        }
      ],
      "stateMutability": "view",
      "type": "function"
    },
    {
      "inputs": [
        {
          "internalType": "uint256",
          "name": "",
          "type": "uint256"
        }
      ],
      "name": "exPostVintageMapping",
      "outputs": [
        {
          "internalType": "string",
          "name": "serialization",
          "type": "string"
        },
        {
          "internalType": "uint256",
          "name": "estMitigations",
          "type": "uint256"
        },
        {
          "internalType": "uint256",
          "name": "verificationPeriodStart",
          "type": "uint256"
        },
        {
          "internalType": "uint256",
          "name": "verificationPeriodEnd",
          "type": "uint256"
        },
        {
          "internalType": "uint256",
          "name": "lastVerificationTimestamp",
          "type": "uint256"
        }
      ],
      "stateMutability": "view",
      "type": "function"
    },
    {
      "inputs": [
        {
          "internalType": "uint256",
          "name": "id",
          "type": "uint256"
        }
      ],
      "name": "exists",
      "outputs": [
        {
          "internalType": "bool",
          "name": "",
          "type": "bool"
        }
      ],
      "stateMutability": "view",
      "type": "function"
    },
    {
      "inputs": [
        {
          "internalType": "bytes32",
          "name": "role",
          "type": "bytes32"
        }
      ],
      "name": "getRoleAdmin",
      "outputs": [
        {
          "internalType": "bytes32",
          "name": "",
          "type": "bytes32"
        }
      ],
      "stateMutability": "view",
      "type": "function"
    },
    {
      "inputs": [
        {
          "internalType": "bytes32",
          "name": "role",
          "type": "bytes32"
        },
        {
          "internalType": "address",
          "name": "account",
          "type": "address"
        }
      ],
      "name": "grantRole",
      "outputs": [],
      "stateMutability": "nonpayable",
      "type": "function"
    },
    {
      "inputs": [
        {
          "internalType": "bytes32",
          "name": "role",
          "type": "bytes32"
        },
        {
          "internalType": "address",
          "name": "account",
          "type": "address"
        }
      ],
      "name": "hasRole",
      "outputs": [
        {
          "internalType": "bool",
          "name": "",
          "type": "bool"
        }
      ],
      "stateMutability": "view",
      "type": "function"
    },
    {
      "inputs": [
        {
          "internalType": "address",
          "name": "account",
          "type": "address"
        },
        {
          "internalType": "address",
          "name": "operator",
          "type": "address"
        }
      ],
      "name": "isApprovedForAll",
      "outputs": [
        {
          "internalType": "bool",
          "name": "",
          "type": "bool"
        }
      ],
      "stateMutability": "view",
      "type": "function"
    },
    {
      "inputs": [],
      "name": "maxAntePercentage",
      "outputs": [
        {
          "internalType": "uint8",
          "name": "",
          "type": "uint8"
        }
      ],
      "stateMutability": "view",
      "type": "function"
    },
    {
      "inputs": [
        {
          "internalType": "address",
          "name": "",
          "type": "address"
        },
        {
          "internalType": "address",
          "name": "",
          "type": "address"
        },
        {
          "internalType": "uint256[]",
          "name": "",
          "type": "uint256[]"
        },
        {
          "internalType": "uint256[]",
          "name": "",
          "type": "uint256[]"
        },
        {
          "internalType": "bytes",
          "name": "",
          "type": "bytes"
        }
      ],
      "name": "onERC1155BatchReceived",
      "outputs": [
        {
          "internalType": "bytes4",
          "name": "",
          "type": "bytes4"
        }
      ],
      "stateMutability": "nonpayable",
      "type": "function"
    },
    {
      "inputs": [
        {
          "internalType": "address",
          "name": "",
          "type": "address"
        },
        {
          "internalType": "address",
          "name": "",
          "type": "address"
        },
        {
          "internalType": "uint256",
          "name": "",
          "type": "uint256"
        },
        {
          "internalType": "uint256",
          "name": "",
          "type": "uint256"
        },
        {
          "internalType": "bytes",
          "name": "",
          "type": "bytes"
        }
      ],
      "name": "onERC1155Received",
      "outputs": [
        {
          "internalType": "bytes4",
          "name": "",
          "type": "bytes4"
        }
      ],
      "stateMutability": "nonpayable",
      "type": "function"
    },
    {
      "inputs": [],
      "name": "paused",
      "outputs": [
        {
          "internalType": "bool",
          "name": "",
          "type": "bool"
        }
      ],
      "stateMutability": "view",
      "type": "function"
    },
    {
      "inputs": [],
      "name": "projectId",
      "outputs": [
        {
          "internalType": "uint256",
          "name": "",
          "type": "uint256"
        }
      ],
      "stateMutability": "view",
      "type": "function"
    },
    {
      "inputs": [],
      "name": "projectName",
      "outputs": [
        {
          "internalType": "string",
          "name": "",
          "type": "string"
        }
      ],
      "stateMutability": "view",
      "type": "function"
    },
    {
      "inputs": [],
      "name": "proxiableUUID",
      "outputs": [
        {
          "internalType": "bytes32",
          "name": "",
          "type": "bytes32"
        }
      ],
      "stateMutability": "view",
      "type": "function"
    },
    {
      "inputs": [
        {
          "internalType": "bytes32",
          "name": "role",
          "type": "bytes32"
        },
        {
          "internalType": "address",
          "name": "account",
          "type": "address"
        }
      ],
      "name": "renounceRole",
      "outputs": [],
      "stateMutability": "nonpayable",
      "type": "function"
    },
    {
      "inputs": [
        {
          "internalType": "uint256",
          "name": "",
          "type": "uint256"
        }
      ],
      "name": "retirementMapping",
      "outputs": [
        {
          "internalType": "address",
          "name": "retiree",
          "type": "address"
        },
        {
          "internalType": "uint256",
          "name": "amount",
          "type": "uint256"
        },
        {
          "internalType": "uint256",
          "name": "vintageTokenId",
          "type": "uint256"
        },
        {
          "internalType": "string",
          "name": "retireeName",
          "type": "string"
        },
        {
          "internalType": "string",
          "name": "customUri",
          "type": "string"
        },
        {
          "internalType": "string",
          "name": "comment",
          "type": "string"
        }
      ],
      "stateMutability": "view",
      "type": "function"
    },
    {
      "inputs": [
        {
          "internalType": "bytes32",
          "name": "role",
          "type": "bytes32"
        },
        {
          "internalType": "address",
          "name": "account",
          "type": "address"
        }
      ],
      "name": "revokeRole",
      "outputs": [],
      "stateMutability": "nonpayable",
      "type": "function"
    },
    {
      "inputs": [
        {
          "internalType": "address",
          "name": "from",
          "type": "address"
        },
        {
          "internalType": "address",
          "name": "to",
          "type": "address"
        },
        {
          "internalType": "uint256[]",
          "name": "ids",
          "type": "uint256[]"
        },
        {
          "internalType": "uint256[]",
          "name": "amounts",
          "type": "uint256[]"
        },
        {
          "internalType": "bytes",
          "name": "data",
          "type": "bytes"
        }
      ],
      "name": "safeBatchTransferFrom",
      "outputs": [],
      "stateMutability": "nonpayable",
      "type": "function"
    },
    {
      "inputs": [
        {
          "internalType": "address",
          "name": "from",
          "type": "address"
        },
        {
          "internalType": "address",
          "name": "to",
          "type": "address"
        },
        {
          "internalType": "uint256",
          "name": "id",
          "type": "uint256"
        },
        {
          "internalType": "uint256",
          "name": "amount",
          "type": "uint256"
        },
        {
          "internalType": "bytes",
          "name": "data",
          "type": "bytes"
        }
      ],
      "name": "safeTransferFrom",
      "outputs": [],
      "stateMutability": "nonpayable",
      "type": "function"
    },
    {
      "inputs": [
        {
          "internalType": "string",
          "name": "",
          "type": "string"
        }
      ],
      "name": "serializationToExPostTokenIdMapping",
      "outputs": [
        {
          "internalType": "uint256",
          "name": "",
          "type": "uint256"
        }
      ],
      "stateMutability": "view",
      "type": "function"
    },
    {
      "inputs": [
        {
          "internalType": "address",
          "name": "operator",
          "type": "address"
        },
        {
          "internalType": "bool",
          "name": "approved",
          "type": "bool"
        }
      ],
      "name": "setApprovalForAll",
      "outputs": [],
      "stateMutability": "nonpayable",
      "type": "function"
    },
    {
      "inputs": [
        {
          "internalType": "address",
          "name": "",
          "type": "address"
        }
      ],
      "name": "signatureNonces",
      "outputs": [
        {
          "internalType": "uint32",
          "name": "",
          "type": "uint32"
        }
      ],
      "stateMutability": "view",
      "type": "function"
    },
    {
      "inputs": [],
      "name": "topTokenId",
      "outputs": [
        {
          "internalType": "uint256",
          "name": "",
          "type": "uint256"
        }
      ],
      "stateMutability": "view",
      "type": "function"
    },
    {
      "inputs": [
        {
          "internalType": "uint256",
          "name": "id",
          "type": "uint256"
        }
      ],
      "name": "totalSupply",
      "outputs": [
        {
          "internalType": "uint256",
          "name": "",
          "type": "uint256"
        }
      ],
      "stateMutability": "view",
      "type": "function"
    },
    {
      "inputs": [
        {
          "internalType": "address",
          "name": "newImplementation",
          "type": "address"
        }
      ],
      "name": "upgradeTo",
      "outputs": [],
      "stateMutability": "nonpayable",
      "type": "function"
    },
    {
      "inputs": [
        {
          "internalType": "address",
          "name": "newImplementation",
          "type": "address"
        },
        {
          "internalType": "bytes",
          "name": "data",
          "type": "bytes"
        }
      ],
      "name": "upgradeToAndCall",
      "outputs": [],
      "stateMutability": "payable",
      "type": "function"
    },
    {
      "inputs": [
        {
          "internalType": "uint256",
          "name": "",
          "type": "uint256"
        }
      ],
      "name": "uri",
      "outputs": [
        {
          "internalType": "string",
          "name": "",
          "type": "string"
        }
      ],
      "stateMutability": "view",
      "type": "function"
    },
    {
      "inputs": [
        {
          "internalType": "address",
          "name": "_contractRegistry",
          "type": "address"
        },
        {
          "internalType": "address",
          "name": "_owner",
          "type": "address"
        },
        {
          "internalType": "uint256",
          "name": "_projectId",
          "type": "uint256"
        },
        {
          "internalType": "string",
          "name": "_projectName",
          "type": "string"
        }
      ],
      "name": "initialize",
      "outputs": [],
      "stateMutability": "nonpayable",
      "type": "function"
    },
    {
      "inputs": [
        {
          "internalType": "uint256",
          "name": "tokenId",
          "type": "uint256"
        }
      ],
      "name": "isExPostToken",
      "outputs": [
        {
          "internalType": "bool",
          "name": "",
          "type": "bool"
        }
      ],
      "stateMutability": "view",
      "type": "function"
    },
    {
      "inputs": [],
      "name": "testUpgrade",
      "outputs": [
        {
          "internalType": "string",
          "name": "",
          "type": "string"
        }
      ],
      "stateMutability": "pure",
      "type": "function"
    },
    {
      "inputs": [
        {
          "internalType": "uint256",
          "name": "estAmount",
          "type": "uint256"
        },
        {
          "internalType": "uint256",
          "name": "verificationPeriodStart",
          "type": "uint256"
        },
        {
          "internalType": "uint256",
          "name": "verificationPeriodEnd",
          "type": "uint256"
        },
        {
          "internalType": "string",
          "name": "serialization",
          "type": "string"
        }
      ],
      "name": "createExPostVintage",
      "outputs": [],
      "stateMutability": "nonpayable",
      "type": "function"
    },
    {
      "inputs": [
        {
          "components": [
            {
              "internalType": "string",
              "name": "serialization",
              "type": "string"
            },
            {
              "internalType": "uint256",
              "name": "estMitigations",
              "type": "uint256"
            },
            {
              "internalType": "uint256",
              "name": "verificationPeriodStart",
              "type": "uint256"
            },
            {
              "internalType": "uint256",
              "name": "verificationPeriodEnd",
              "type": "uint256"
            },
            {
              "internalType": "uint256",
              "name": "lastVerificationTimestamp",
              "type": "uint256"
            }
          ],
          "internalType": "struct VintageData[]",
          "name": "vintages",
          "type": "tuple[]"
        }
      ],
      "name": "createExPostVintageBatch",
      "outputs": [],
      "stateMutability": "nonpayable",
      "type": "function"
    },
    {
      "inputs": [
        {
          "internalType": "address",
          "name": "account",
          "type": "address"
        },
        {
          "internalType": "uint256",
          "name": "exPostTokenId",
          "type": "uint256"
        },
        {
          "internalType": "uint256",
          "name": "amount",
          "type": "uint256"
        },
        {
          "internalType": "bytes",
          "name": "data",
          "type": "bytes"
        }
      ],
      "name": "mintExAnte",
      "outputs": [],
      "stateMutability": "nonpayable",
      "type": "function"
    },
    {
      "inputs": [
        {
          "internalType": "uint256",
          "name": "tokenId",
          "type": "uint256"
        },
        {
          "internalType": "uint256",
          "name": "newEstAmount",
          "type": "uint256"
        },
        {
          "internalType": "enum AdminActionReason",
          "name": "reason",
          "type": "uint8"
        }
      ],
      "name": "changeVintageMitigationEstimate",
      "outputs": [],
      "stateMutability": "nonpayable",
      "type": "function"
    },
    {
      "inputs": [
        {
          "internalType": "address",
          "name": "verificationVault",
          "type": "address"
        },
        {
          "internalType": "uint256",
          "name": "tokenId",
          "type": "uint256"
        },
        {
          "internalType": "uint256",
          "name": "amountVerified",
          "type": "uint256"
        },
        {
          "internalType": "uint256",
          "name": "amountToAnteHolders",
          "type": "uint256"
        },
        {
          "internalType": "uint256",
          "name": "verificationPeriodStart",
          "type": "uint256"
        },
        {
          "internalType": "uint256",
          "name": "verificationPeriodEnd",
          "type": "uint256"
        },
        {
          "internalType": "string",
          "name": "monitoringReport",
          "type": "string"
        }
      ],
      "name": "verifyAndMintExPost",
      "outputs": [],
      "stateMutability": "nonpayable",
      "type": "function"
    },
    {
      "inputs": [
        {
          "internalType": "address",
          "name": "from",
          "type": "address"
        },
        {
          "internalType": "uint256",
          "name": "tokenId",
          "type": "uint256"
        },
        {
          "internalType": "uint256",
          "name": "amount",
          "type": "uint256"
        },
        {
          "internalType": "enum AdminActionReason",
          "name": "reason",
          "type": "uint8"
        }
      ],
      "name": "adminBurn",
      "outputs": [],
      "stateMutability": "nonpayable",
      "type": "function"
    },
    {
      "inputs": [
        {
          "internalType": "address",
          "name": "from",
          "type": "address"
        },
        {
          "internalType": "address",
          "name": "to",
          "type": "address"
        },
        {
          "internalType": "uint256",
          "name": "tokenId",
          "type": "uint256"
        },
        {
          "internalType": "uint256",
          "name": "amount",
          "type": "uint256"
        },
        {
          "internalType": "enum AdminActionReason",
          "name": "reason",
          "type": "uint8"
        }
      ],
      "name": "adminClawback",
      "outputs": [],
      "stateMutability": "nonpayable",
      "type": "function"
    },
    {
      "inputs": [
        {
          "internalType": "address[]",
          "name": "accounts",
          "type": "address[]"
        },
        {
          "internalType": "uint256",
          "name": "exPostTokenId",
          "type": "uint256"
        },
        {
          "internalType": "bytes",
          "name": "data",
          "type": "bytes"
        }
      ],
      "name": "exchangeAnteForPostEvenSteven",
      "outputs": [],
      "stateMutability": "nonpayable",
      "type": "function"
    },
    {
      "inputs": [
        {
          "internalType": "uint256",
          "name": "exAnteTokenId",
          "type": "uint256"
        }
      ],
      "name": "getExPostVintageData",
      "outputs": [
        {
          "components": [
            {
              "internalType": "string",
              "name": "serialization",
              "type": "string"
            },
            {
              "internalType": "uint256",
              "name": "estMitigations",
              "type": "uint256"
            },
            {
              "internalType": "uint256",
              "name": "verificationPeriodStart",
              "type": "uint256"
            },
            {
              "internalType": "uint256",
              "name": "verificationPeriodEnd",
              "type": "uint256"
            },
            {
              "internalType": "uint256",
              "name": "lastVerificationTimestamp",
              "type": "uint256"
            }
          ],
          "internalType": "struct VintageData",
          "name": "",
          "type": "tuple"
        }
      ],
      "stateMutability": "view",
      "type": "function"
    },
    {
      "inputs": [
        {
          "internalType": "bytes",
          "name": "signature",
          "type": "bytes"
        },
        {
          "components": [
            {
              "internalType": "uint256",
              "name": "deadline",
              "type": "uint256"
            },
            {
              "internalType": "string",
              "name": "description",
              "type": "string"
            },
            {
              "internalType": "address",
              "name": "signer",
              "type": "address"
            },
            {
              "internalType": "address",
              "name": "to",
              "type": "address"
            },
            {
              "internalType": "uint256",
              "name": "tokenId",
              "type": "uint256"
            },
            {
              "internalType": "uint256",
              "name": "amount",
              "type": "uint256"
            },
            {
              "internalType": "uint256",
              "name": "nonce",
              "type": "uint256"
            }
          ],
          "internalType": "struct signatureTransferPayload",
          "name": "payload",
          "type": "tuple"
        },
        {
          "internalType": "string",
          "name": "retireeName",
          "type": "string"
        },
        {
          "internalType": "string",
          "name": "customUri",
          "type": "string"
        },
        {
          "internalType": "string",
          "name": "comment",
          "type": "string"
        },
        {
          "internalType": "bytes",
          "name": "data",
          "type": "bytes"
        }
      ],
      "name": "transferAndRetireFromSignature",
      "outputs": [
        {
          "internalType": "uint256",
          "name": "nftTokenId",
          "type": "uint256"
        }
      ],
      "stateMutability": "nonpayable",
      "type": "function"
    },
    {
      "inputs": [
        {
          "internalType": "address",
          "name": "to",
          "type": "address"
        },
        {
          "internalType": "uint256",
          "name": "tokenId",
          "type": "uint256"
        },
        {
          "internalType": "uint256",
          "name": "amount",
          "type": "uint256"
        },
        {
          "internalType": "string",
          "name": "retireeName",
          "type": "string"
        },
        {
          "internalType": "string",
          "name": "customUri",
          "type": "string"
        },
        {
          "internalType": "string",
          "name": "comment",
          "type": "string"
        },
        {
          "internalType": "bytes",
          "name": "data",
          "type": "bytes"
        }
      ],
      "name": "transferAndRetire",
      "outputs": [
        {
          "internalType": "uint256",
          "name": "nftTokenId",
          "type": "uint256"
        }
      ],
      "stateMutability": "nonpayable",
      "type": "function"
    },
    {
      "inputs": [
        {
          "internalType": "bytes",
          "name": "signature",
          "type": "bytes"
        },
        {
          "components": [
            {
              "internalType": "uint256",
              "name": "deadline",
              "type": "uint256"
            },
            {
              "internalType": "string",
              "name": "description",
              "type": "string"
            },
            {
              "internalType": "address",
              "name": "signer",
              "type": "address"
            },
            {
              "internalType": "address",
              "name": "to",
              "type": "address"
            },
            {
              "internalType": "uint256",
              "name": "tokenId",
              "type": "uint256"
            },
            {
              "internalType": "uint256",
              "name": "amount",
              "type": "uint256"
            },
            {
              "internalType": "uint256",
              "name": "nonce",
              "type": "uint256"
            }
          ],
          "internalType": "struct signatureTransferPayload",
          "name": "payload",
          "type": "tuple"
        },
        {
          "internalType": "bytes",
          "name": "data",
          "type": "bytes"
        }
      ],
      "name": "transferFromSignature",
      "outputs": [],
      "stateMutability": "payable",
      "type": "function"
    },
    {
      "inputs": [
        {
          "internalType": "uint256",
          "name": "tokenId",
          "type": "uint256"
        },
        {
          "internalType": "uint256",
          "name": "amount",
          "type": "uint256"
        },
        {
          "internalType": "string",
          "name": "retireeName",
          "type": "string"
        },
        {
          "internalType": "string",
          "name": "customUri",
          "type": "string"
        },
        {
          "internalType": "string",
          "name": "comment",
          "type": "string"
        },
        {
          "internalType": "bytes",
          "name": "data",
          "type": "bytes"
        }
      ],
      "name": "retire",
      "outputs": [
        {
          "internalType": "uint256",
          "name": "nftTokenId",
          "type": "uint256"
        }
      ],
      "stateMutability": "nonpayable",
      "type": "function"
    },
    {
      "inputs": [
        {
          "internalType": "bytes",
          "name": "signature",
          "type": "bytes"
        },
        {
          "components": [
            {
              "internalType": "uint256",
              "name": "deadline",
              "type": "uint256"
            },
            {
              "internalType": "string",
              "name": "description",
              "type": "string"
            },
            {
              "internalType": "address",
              "name": "signer",
              "type": "address"
            },
            {
              "internalType": "address",
              "name": "to",
              "type": "address"
            },
            {
              "internalType": "uint256",
              "name": "tokenId",
              "type": "uint256"
            },
            {
              "internalType": "uint256",
              "name": "amount",
              "type": "uint256"
            },
            {
              "internalType": "uint256",
              "name": "nonce",
              "type": "uint256"
            }
          ],
          "internalType": "struct signatureTransferPayload",
          "name": "payload",
          "type": "tuple"
        },
        {
          "internalType": "string",
          "name": "retireeName",
          "type": "string"
        },
        {
          "internalType": "string",
          "name": "customUri",
          "type": "string"
        },
        {
          "internalType": "string",
          "name": "comment",
          "type": "string"
        },
        {
          "internalType": "bytes",
          "name": "data",
          "type": "bytes"
        }
      ],
      "name": "retireFromSignature",
      "outputs": [
        {
          "internalType": "uint256",
          "name": "nftTokenId",
          "type": "uint256"
        }
      ],
      "stateMutability": "payable",
      "type": "function"
    },
    {
      "inputs": [
        {
          "internalType": "string",
          "name": "newuri",
          "type": "string"
        }
      ],
      "name": "setURI",
      "outputs": [],
      "stateMutability": "nonpayable",
      "type": "function"
    },
    {
      "inputs": [],
      "name": "pause",
      "outputs": [],
      "stateMutability": "nonpayable",
      "type": "function"
    },
    {
      "inputs": [],
      "name": "unpause",
      "outputs": [],
      "stateMutability": "nonpayable",
      "type": "function"
    },
    {
      "inputs": [
        {
          "internalType": "bytes4",
          "name": "interfaceId",
          "type": "bytes4"
        }
      ],
      "name": "supportsInterface",
      "outputs": [
        {
          "internalType": "bool",
          "name": "",
          "type": "bool"
        }
      ],
      "stateMutability": "view",
      "type": "function"
    }
  ],
  "bytecode": "0x60a0604052306080523480156200001557600080fd5b506200002062000026565b620000e8565b600054610100900460ff1615620000935760405162461bcd60e51b815260206004820152602760248201527f496e697469616c697a61626c653a20636f6e747261637420697320696e697469604482015266616c697a696e6760c81b606482015260840160405180910390fd5b60005460ff9081161015620000e6576000805460ff191660ff9081179091556040519081527f7f26b83ff96e1f2b6a682f133852f6798a09c465da95921460cefb38474024989060200160405180910390a15b565b608051615f60620001206000396000818161147e015281816114be0152818161199e015281816119de0152611a560152615f606000f3fe60806040526004361061034d5760003560e01c8063728e68e3116101bd578063af93ff72116100f8578063e36408d01161009b578063e36408d014610b78578063e63ab1e914610b8b578063e7705db614610bad578063e985e9c514610bcf578063edc0b2e614610c18578063f23a6e6114610c3a578063f242432a14610c66578063f515e6f214610c86578063f72c0d8b14610cba57600080fd5b8063af93ff7214610a16578063ba11a97714610a29578063bc197c8114610a49578063bd85b03914610a8e578063d539139314610abb578063d547741f14610aef578063dbd8483d14610b0f578063deb0420714610b5857600080fd5b80639d6aed0b116101605780639d6aed0b146108e95780639d88358a146109265780639fec600b14610946578063a0e1b17114610966578063a217fddf14610986578063a22cb4651461099b578063aa8b2ea7146109bb578063abf410e5146109dd57600080fd5b8063728e68e3146107de57806379c276051461080f5780637f3457101461082f5780638456cb59146108515780638f76c1da1461086657806391d148541461089457806396f495ae146108b45780639a33e300146108d457600080fd5b80633f4ba83a1161028d57806357c537af1161023057806357c537af146106ce5780635c975abb146106ee5780635e3bbaab14610706578063609d956414610728578063610e70121461074857806361eeb089146107755780636929a19c1461078c5780636f63984d146107be57600080fd5b80633f4ba83a146105c55780633fafa127146105da57806341a30d3c146105f15780634e1273f4146106115780634f1ef2861461063e5780634f558e791461065157806352d1902d1461068057806354ff07951461069557600080fd5b8063282c51f3116102f5578063282c51f3146104a15780632ea05e44146104d55780632eb2c2d6146104f75780632f2ff15d146105175780633584c3841461053757806336568abe146105655780633659cfe6146105855780633a6e48b8146105a557600080fd5b8062fdd58e1461035257806301ffc9a71461038557806302fe5305146103b55780630cda95f9146103d75780630e89341c146103f757806310c1e7a1146104245780631b3b596b14610444578063248a9ca314610471575b600080fd5b34801561035e57600080fd5b5061037261036d366004614781565b610cdc565b6040519081526020015b60405180910390f35b34801561039157600080fd5b506103a56103a03660046147c1565b610d74565b604051901515815260200161037c565b3480156103c157600080fd5b506103d56103d03660046148b8565b610d85565b005b3480156103e357600080fd5b506103d56103f2366004614987565b610daa565b34801561040357600080fd5b506104176104123660046149f3565b610fb9565b60405161037c9190614a64565b34801561043057600080fd5b506103d561043f366004614a77565b61104d565b34801561045057600080fd5b5061046461045f3660046149f3565b611265565b60405161037c9190614ad7565b34801561047d57600080fd5b5061037261048c3660046149f3565b60009081526097602052604090206001015490565b3480156104ad57600080fd5b506103727f3c11d16cbaffd01df69ce1c404f6340ee057498f5f00246190ea54220576a84881565b3480156104e157600080fd5b50610372600080516020615ecb83398151915281565b34801561050357600080fd5b506103d5610512366004614b8d565b611384565b34801561052357600080fd5b506103d5610532366004614c36565b6113d0565b34801561054357600080fd5b506103726105523660046149f3565b6101fe6020526000908152604090205481565b34801561057157600080fd5b506103d5610580366004614c36565b6113fa565b34801561059157600080fd5b506103d56105a0366004614c62565b611474565b3480156105b157600080fd5b506103726105c0366004614c7d565b61153c565b3480156105d157600080fd5b506103d561157f565b3480156105e657600080fd5b506103726101f85481565b3480156105fd57600080fd5b506103d561060c366004614d3b565b61159f565b34801561061d57600080fd5b5061063161062c366004614db8565b61186b565b60405161037c9190614e56565b6103d561064c366004614e69565b611994565b34801561065d57600080fd5b506103a561066c3660046149f3565b600090815260fb6020526040902054151590565b34801561068c57600080fd5b50610372611a49565b3480156106a157600080fd5b506103726106b03660046148b8565b80516020818301810180516101ff8252928201919093012091525481565b3480156106da57600080fd5b506103d56106e9366004614ebb565b611af8565b3480156106fa57600080fd5b5060c95460ff166103a5565b34801561071257600080fd5b50610372600080516020615eeb83398151915281565b34801561073457600080fd5b50610372610743366004614f49565b611c12565b34801561075457600080fd5b506101f9546107639060ff1681565b60405160ff909116815260200161037c565b34801561078157600080fd5b506103726101f75481565b34801561079857600080fd5b506107ac6107a73660046149f3565b611e79565b60405161037c96959493929190615035565b3480156107ca57600080fd5b506103a56107d93660046149f3565b612053565b3480156107ea57600080fd5b506107fe6107f93660046149f3565b61207a565b60405161037c959493929190615088565b34801561081b57600080fd5b506103d561082a3660046150bf565b612131565b34801561083b57600080fd5b50610372600080516020615e6483398151915281565b34801561085d57600080fd5b506103d56121e7565b34801561087257600080fd5b506103726108813660046149f3565b6101fd6020526000908152604090205481565b3480156108a057600080fd5b506103a56108af366004614c36565b612207565b3480156108c057600080fd5b506103d56108cf3660046151db565b612232565b3480156108e057600080fd5b50610417612346565b3480156108f557600080fd5b506040805180820190915260148152735570677261646520776f726b656420302e302e3160601b6020820152610417565b34801561093257600080fd5b506103d5610941366004615232565b6123d5565b34801561095257600080fd5b506103d5610961366004615278565b612460565b34801561097257600080fd5b506103d56109813660046152a5565b6126aa565b34801561099257600080fd5b50610372600081565b3480156109a757600080fd5b506103d56109b63660046152e6565b612871565b3480156109c757600080fd5b50610372600080516020615e4483398151915281565b3480156109e957600080fd5b506101fb546109fe906001600160a01b031681565b6040516001600160a01b03909116815260200161037c565b610372610a24366004614f49565b61287c565b348015610a3557600080fd5b50610372610a44366004615322565b6129cf565b348015610a5557600080fd5b50610a75610a64366004614b8d565b63bc197c8160e01b95945050505050565b6040516001600160e01b0319909116815260200161037c565b348015610a9a57600080fd5b50610372610aa93660046149f3565b600090815260fb602052604090205490565b348015610ac757600080fd5b506103727f9f2df0fed2c77648de5860a4cc508cd0818c85b8b8a1ab4ceeef8d981c8956a681565b348015610afb57600080fd5b506103d5610b0a366004614c36565b612a14565b348015610b1b57600080fd5b50610b43610b2a366004614c62565b6101c56020526000908152604090205463ffffffff1681565b60405163ffffffff909116815260200161037c565b348015610b6457600080fd5b506103d5610b733660046153d6565b612a39565b6103d5610b8636600461542d565b612ad0565b348015610b9757600080fd5b50610372600080516020615e8483398151915281565b348015610bb957600080fd5b50610372600080516020615f0b83398151915281565b348015610bdb57600080fd5b506103a5610bea3660046154ae565b6001600160a01b03918216600090815260666020908152604080832093909416825291909152205460ff1690565b348015610c2457600080fd5b50610372600080516020615dc483398151915281565b348015610c4657600080fd5b50610a75610c553660046154d8565b63f23a6e6160e01b95945050505050565b348015610c7257600080fd5b506103d5610c813660046154d8565b612c04565b348015610c9257600080fd5b506103727f98db8a220cd0f09badce9f22d0ba7e93edb3d404448cc3560d391ab096ad16e981565b348015610cc657600080fd5b50610372600080516020615e0483398151915281565b60006001600160a01b038316610d4c5760405162461bcd60e51b815260206004820152602a60248201527f455243313135353a2061646472657373207a65726f206973206e6f742061207660448201526930b634b21037bbb732b960b11b60648201526084015b60405180910390fd5b5060009081526065602090815260408083206001600160a01b03949094168352929052205490565b6000610d7f82612c49565b92915050565b600080516020615e64833981519152610d9d81612c6e565b610da682612c78565b5050565b81610db481612053565b610dd05760405162461bcd60e51b8152600401610d439061553c565b60008381526101fe602052604081205490819003610e2b5760405162461bcd60e51b815260206004820152601860248201527750726f6a6563743a204e6f20616e746520686f6c6465727360401b6044820152606401610d43565b600081815260fb602052604081205490610e453087610cdc565b905060008111610e915760405162461bcd60e51b815260206004820152601760248201527650726f6a6563743a204e6f20706f737420737570706c7960481b6044820152606401610d43565b60005b8751811015610faf576000610ec2898381518110610eb457610eb4615573565b602002602001015186610cdc565b9050600084610ed1858461559f565b610edb91906155be565b90508181811115610ee95750805b898b8581518110610efc57610efc615573565b60200260200101516001600160a01b03167ffa5cd0fcb25938b2f45b3ca175241bfb3739cf4db3cb7476846930ec714f13f28484604051610f47929190918252602082015260400190565b60405180910390a3610f738b8581518110610f6457610f64615573565b60200260200101518883612c8b565b610f99308c8681518110610f8957610f89615573565b60200260200101518c858d612e12565b5050508080610fa7906155e0565b915050610e94565b5050505050505050565b606060678054610fc8906155f9565b80601f0160208091040260200160405190810160405280929190818152602001828054610ff4906155f9565b80156110415780601f1061101657610100808354040283529160200191611041565b820191906000526020600020905b81548152906001019060200180831161102457829003601f168201915b50505050509050919050565b600080516020615dc483398151915261106581612c6e565b8361106f81612053565b61108b5760405162461bcd60e51b8152600401610d439061553c565b60008581526101fc6020526040812060038101546004909101548791116040518060400160405280601a815260200179141c9bda9958dd0e88151bdad95b881a5cc81d995c9a599a595960321b815250906110f95760405162461bcd60e51b8152600401610d439190614a64565b5060008781526101fe60205260408120549081900361113257506101f780546001019081905560008881526101fe602052604090208190555b60008881526101fc602090815260408083206001015460fb909252822054909161115c828461562d565b6101f9549091506000906064906111769060ff168461559f565b61118091906155be565b600086815260fb60205260409020549091508161119d8d83615644565b11156111eb5760405162461bcd60e51b815260206004820152601e60248201527f4d6178696d756d206578416e746520737570706c7920657863656564656400006044820152606401610d43565b8c6101fd6000888152602001908152602001600020819055508d6001600160a01b03168d877f1fe9ade752d24e4f4dca10f5c807a7cc8630c7604280c8b124097d93b5bb02a18f60405161124191815260200190565b60405180910390a46112558e878e8e612f3c565b5050505050505050505050505050565b6112976040518060a0016040528060608152602001600081526020016000815260200160008152602001600081525090565b60008281526101fd60209081526040808320548084526101fc90925291829020825160a081019093528054919291829082906112d2906155f9565b80601f01602080910402602001604051908101604052809291908181526020018280546112fe906155f9565b801561134b5780601f106113205761010080835404028352916020019161134b565b820191906000526020600020905b81548152906001019060200180831161132e57829003601f168201915b50505050508152602001600182015481526020016002820154815260200160038201548152602001600482015481525050915050919050565b6001600160a01b0385163314806113a057506113a08533610bea565b6113bc5760405162461bcd60e51b8152600401610d439061565c565b6113c98585858585613046565b5050505050565b6000828152609760205260409020600101546113eb81612c6e565b6113f5838361322c565b505050565b6001600160a01b038116331461146a5760405162461bcd60e51b815260206004820152602f60248201527f416363657373436f6e74726f6c3a2063616e206f6e6c792072656e6f756e636560448201526e103937b632b9903337b91039b2b63360891b6064820152608401610d43565b610da682826132b2565b6001600160a01b037f00000000000000000000000000000000000000000000000000000000000000001630036114bc5760405162461bcd60e51b8152600401610d43906156aa565b7f00000000000000000000000000000000000000000000000000000000000000006001600160a01b03166114ee613319565b6001600160a01b0316146115145760405162461bcd60e51b8152600401610d43906156f6565b61151d81613335565b604080516000808252602082019092526115399183919061334d565b50565b60008661154881612053565b6115645760405162461bcd60e51b8152600401610d439061553c565b611573338989898989896134b8565b98975050505050505050565b600080516020615e8483398151915261159781612c6e565b611539613526565b600080516020615f0b8339815191526115b781612c6e565b866115c181612053565b6115dd5760405162461bcd60e51b8152600401610d439061553c565b60008881526101fc6020526040812060038101546004909101548a91116040518060400160405280601a815260200179141c9bda9958dd0e88151bdad95b881a5cc81d995c9a599a595960321b8152509061164b5760405162461bcd60e51b8152600401610d439190614a64565b508789101561166c5760405162461bcd60e51b8152600401610d4390615742565b60008a81526101fc60205260409020600201548610156116f45760405162461bcd60e51b815260206004820152603a60248201527f566572696669636174696f6e2074696d657374616d70206973206265666f726560448201527f20766572696669636174696f6e20706572696f642073746172740000000000006064820152608401610d43565b60008a81526101fc6020526040902060040154861161177b5760405162461bcd60e51b815260206004820152603c60248201527f566572696669636174696f6e2074696d657374616d70206973206265666f726560448201527f206c61737420766572696669636174696f6e2074696d657374616d70000000006064820152608401610d43565b60008a81526101fe6020526040812054908190036117b15788156117b15760405162461bcd60e51b8152600401610d4390615742565b8a7fe19de0f3da1193000100a217838f49f6bdda20dc974d33b61f92faaf446d181d8b8b8b8b8b6040516117e9959493929190615773565b60405180910390a260006117fd8a8c61562d565b1115611827576118278c8c6118128c8e61562d565b60405180602001604052806000815250612f3c565b60008b81526101fc60205260409020600401879055881561185d5761185d308c8b60405180602001604052806000815250612f3c565b505050505050505050505050565b606081518351146118d05760405162461bcd60e51b815260206004820152602960248201527f455243313135353a206163636f756e747320616e6420696473206c656e677468604482015268040dad2e6dac2e8c6d60bb1b6064820152608401610d43565b600083516001600160401b038111156118eb576118eb6147de565b604051908082528060200260200182016040528015611914578160200160208202803683370190505b50905060005b845181101561198c5761195f85828151811061193857611938615573565b602002602001015185838151811061195257611952615573565b6020026020010151610cdc565b82828151811061197157611971615573565b6020908102919091010152611985816155e0565b905061191a565b509392505050565b6001600160a01b037f00000000000000000000000000000000000000000000000000000000000000001630036119dc5760405162461bcd60e51b8152600401610d43906156aa565b7f00000000000000000000000000000000000000000000000000000000000000006001600160a01b0316611a0e613319565b6001600160a01b031614611a345760405162461bcd60e51b8152600401610d43906156f6565b611a3d82613335565b610da68282600161334d565b6000306001600160a01b037f00000000000000000000000000000000000000000000000000000000000000001614611ae45760405162461bcd60e51b815260206004820152603860248201527f555550535570677261646561626c653a206d757374206e6f742062652063616c6044820152771b1959081d1a1c9bdd59da0819195b1959d85d1958d85b1b60421b6064820152608401610d43565b50600080516020615e248339815191525b90565b6000611b0381612c6e565b83611b0d81612053565b611b295760405162461bcd60e51b8152600401610d439061553c565b60008581526101fc6020526040812060038101546004909101548791116040518060400160405280601a815260200179141c9bda9958dd0e88151bdad95b881a5cc81d995c9a599a595960321b81525090611b975760405162461bcd60e51b8152600401610d439190614a64565b50846004811115611baa57611baa61579e565b60008881526101fc60209081526040918290206001015482518a81529182015289917f79ad675a154518428a5aa59f22c834871a66d54a46e3f4c8c5b4ee08fb576c2e910160405180910390a3505050600093845250506101fc602052604090912060010155565b60008560800135611c2281612053565b611c3e5760405162461bcd60e51b8152600401610d439061553c565b888888600080516020615de4833981519152838383604051611c62939291906157dd565b60405180910390a16000611d79600080516020615da48339815191528335611c8d60208601866158b7565b604051602001611c9e9291906158fd565b60405160208183030381529060405280519060200120856040016020810190611cc79190614c62565b611cd76080880160608901614c62565b608088013560a08901356101c56000611cf660608d0160408e01614c62565b6001600160a01b03908116825260208083019390935260409182016000205482519384019a909a529082019790975260608101959095529285166080850152931660a083015260c082019290925260e081019190915263ffffffff9091166101008201526101200160405160208183030381529060405280519060200120613578565b9050611dcd8185858080601f016020809104026020016040519081016040528093929190818152602001838380828437600092019190915250611dc6925050506060860160408701614c62565b85356135c6565b506101c56000611de36060850160408601614c62565b6001600160a01b0316815260208101919091526040016000908120805463ffffffff1691611e108361590d565b91906101000a81548163ffffffff021916908363ffffffff16021790555050611e688b6040016020810190611e459190614c62565b611e5560808e0160608f01614c62565b8d608001358e60a001358e8e8e8e613676565b9d9c50505050505050505050505050565b6102006020526000908152604090208054600182015460028301546003840180546001600160a01b03909416949293919291611eb4906155f9565b80601f0160208091040260200160405190810160405280929190818152602001828054611ee0906155f9565b8015611f2d5780601f10611f0257610100808354040283529160200191611f2d565b820191906000526020600020905b815481529060010190602001808311611f1057829003601f168201915b505050505090806004018054611f42906155f9565b80601f0160208091040260200160405190810160405280929190818152602001828054611f6e906155f9565b8015611fbb5780601f10611f9057610100808354040283529160200191611fbb565b820191906000526020600020905b815481529060010190602001808311611f9e57829003601f168201915b505050505090806005018054611fd0906155f9565b80601f0160208091040260200160405190810160405280929190818152602001828054611ffc906155f9565b80156120495780601f1061201e57610100808354040283529160200191612049565b820191906000526020600020905b81548152906001019060200180831161202c57829003601f168201915b5050505050905086565b60008181526101fc602052604081208054829190612070906155f9565b9050119050919050565b6101fc60205260009081526040902080548190612096906155f9565b80601f01602080910402602001604051908101604052809291908181526020018280546120c2906155f9565b801561210f5780601f106120e45761010080835404028352916020019161210f565b820191906000526020600020905b8154815290600101906020018083116120f257829003601f168201915b5050505050908060010154908060020154908060030154908060040154905085565b600080516020615eeb83398151915261214981612c6e565b60005b82518110156113f5576121d583828151811061216a5761216a615573565b60200260200101516020015184838151811061218857612188615573565b6020026020010151604001518584815181106121a6576121a6615573565b6020026020010151606001518685815181106121c4576121c4615573565b6020026020010151600001516126aa565b806121df816155e0565b91505061214c565b600080516020615e848339815191526121ff81612c6e565b611539613694565b60009182526097602090815260408084206001600160a01b0393909316845291905290205460ff1690565b600054610100900460ff16158080156122525750600054600160ff909116105b806122735750612261306136d1565b158015612273575060005460ff166001145b61228f5760405162461bcd60e51b8152600401610d4390615930565b6000805460ff1916600117905580156122b2576000805461ff0019166101001790555b6101f9805460ff191660ff86161790556101f883905581516122dc906101fa9060208501906146cc565b506101fb80546001600160a01b0319166001600160a01b03871617905580156113c9576000805461ff0019169055604051600181527f7f26b83ff96e1f2b6a682f133852f6798a09c465da95921460cefb3847402498906020015b60405180910390a15050505050565b6101fa8054612354906155f9565b80601f0160208091040260200160405190810160405280929190818152602001828054612380906155f9565b80156123cd5780601f106123a2576101008083540402835291602001916123cd565b820191906000526020600020905b8154815290600101906020018083116123b057829003601f168201915b505050505081565b7f3c11d16cbaffd01df69ce1c404f6340ee057498f5f00246190ea54220576a8486123ff81612c6e565b8160048111156124115761241161579e565b84866001600160a01b03167f28307ba5beac24bbe02c6541395dc897a2c9a884977343cfc55d6bef99a178cf8660405161244d91815260200190565b60405180910390a46113c9858585612c8b565b600054610100900460ff16158080156124805750600054600160ff909116105b806124a1575061248f306136d1565b1580156124a1575060005460ff166001145b6124bd5760405162461bcd60e51b8152600401610d4390615930565b6000805460ff1916600117905580156124e0576000805461ff0019166101001790555b6124f8604051806020016040528060008152506136e0565b612500613710565b612508613739565b612510613710565b612518613710565b6125666040518060400160405280600f81526020016e436172626f6e20526567697374727960881b81525060405180604001604052806005815260200164302e302e3160d81b815250613768565b6125738560328585612232565b61257e60008561322c565b612596600080516020615e648339815191528561322c565b6125ae600080516020615e848339815191528561322c565b6125c6600080516020615dc48339815191528561322c565b6125de600080516020615eeb8339815191528561322c565b6125f6600080516020615e048339815191528561322c565b6126207f98db8a220cd0f09badce9f22d0ba7e93edb3d404448cc3560d391ab096ad16e98561322c565b612638600080516020615f0b8339815191528561322c565b612650600080516020615ecb8339815191528561322c565b612668600080516020615eeb8339815191523361322c565b80156113c9576000805461ff0019169055604051600181527f7f26b83ff96e1f2b6a682f133852f6798a09c465da95921460cefb384740249890602001612337565b600080516020615eeb8339815191526126c281612c6e565b83831161271d5760405162461bcd60e51b8152602060048201526024808201527f50726f6a6563743a20496e76616c696420766572696669636174696f6e2070656044820152631c9a5bd960e21b6064820152608401610d43565b60006127316101f780546001019081905590565b6101fb546040516344d9d59b60e01b81529192506001600160a01b0316906344d9d59b90612763908690600401614a64565b600060405180830381600087803b15801561277d57600080fd5b505af1158015612791573d6000803e3d6000fd5b50505050806101ff846040516127a7919061597e565b90815260408051602092819003830181209390935560a083018152858352818301899052828101889052606083018790526000608084018190528481526101fc8352208251805191926127ff928492909101906146cc565b5060208201518160010155604082015181600201556060820151816003015560808201518160040155905050807fc5fb6d85b5baef0a615415607787aea341771027b7e4da34da58eaeb661154ea87878787604051612861949392919061599a565b60405180910390a2505050505050565b610da6338383613799565b6000856080013561288c81612053565b6128a85760405162461bcd60e51b8152600401610d439061553c565b888888600080516020615de48339815191528383836040516128cc939291906157dd565b60405180910390a160006128f7600080516020615da48339815191528335611c8d60208601866158b7565b90506129448185858080601f016020809104026020016040519081016040528093929190818152602001838380828437600092019190915250611dc6925050506060860160408701614c62565b506101c5600061295a6060850160408601614c62565b6001600160a01b0316815260208101919091526040016000908120805463ffffffff16916129878361590d565b91906101000a81548163ffffffff021916908363ffffffff16021790555050611e688b60400160208101906129bc9190614c62565b8c608001358d60a001358d8d8d8d6134b8565b6000866129db81612053565b6129f75760405162461bcd60e51b8152600401610d439061553c565b612a07338a8a8a8a8a8a8a613676565b9998505050505050505050565b600082815260976020526040902060010154612a2f81612c6e565b6113f583836132b2565b600080516020615ecb833981519152612a5181612c6e565b816004811115612a6357612a6361579e565b604080516001600160a01b038881168252602082018790528792908a16917fa8b90aeef4d9590cac2ff486fc2b5d9749ed41f9388a7eb159eef94cf5fb65ab910160405180910390a4612ac88686868660405180602001604052806000815250612e12565b505050505050565b838383600080516020615de4833981519152838383604051612af4939291906157dd565b60405180910390a16000612b1f600080516020615da48339815191528335611c8d60208601866158b7565b9050612b6c8185858080601f016020809104026020016040519081016040528093929190818152602001838380828437600092019190915250611dc6925050506060860160408701614c62565b506101c56000612b826060850160408601614c62565b6001600160a01b0316815260208101919091526040016000908120805463ffffffff1691612baf8361590d565b91906101000a81548163ffffffff021916908363ffffffff16021790555050610faf866040016020810190612be49190614c62565b612bf46080890160608a01614c62565b88608001358960a0013589612e12565b6001600160a01b038516331480612c205750612c208533610bea565b612c3c5760405162461bcd60e51b8152600401610d439061565c565b6113c98585858585612e12565b60006001600160e01b03198216630271189760e51b1480610d7f5750610d7f82613879565b611539813361389e565b8051610da69060679060208401906146cc565b6001600160a01b038316612ced5760405162461bcd60e51b815260206004820152602360248201527f455243313135353a206275726e2066726f6d20746865207a65726f206164647260448201526265737360e81b6064820152608401610d43565b336000612cf9846138f7565b90506000612d06846138f7565b9050612d2683876000858560405180602001604052806000815250613942565b60008581526065602090815260408083206001600160a01b038a16845290915290205484811015612da55760405162461bcd60e51b8152602060048201526024808201527f455243313135353a206275726e20616d6f756e7420657863656564732062616c604482015263616e636560e01b6064820152608401610d43565b60008681526065602090815260408083206001600160a01b038b81168086529184528285208a8703905582518b81529384018a9052909290881691600080516020615d84833981519152910160405180910390a46040805160208101909152600090525b50505050505050565b6001600160a01b038416612e385760405162461bcd60e51b8152600401610d43906159c9565b336000612e44856138f7565b90506000612e51856138f7565b9050612e61838989858589613942565b60008681526065602090815260408083206001600160a01b038c16845290915290205485811015612ea45760405162461bcd60e51b8152600401610d4390615a0e565b60008781526065602090815260408083206001600160a01b038d8116855292528083208985039055908a16825281208054889290612ee3908490615644565b909155505060408051888152602081018890526001600160a01b03808b16928c82169291881691600080516020615d84833981519152910160405180910390a4612f31848a8a8a8a8a6139c4565b505050505050505050565b6001600160a01b038416612f9c5760405162461bcd60e51b815260206004820152602160248201527f455243313135353a206d696e7420746f20746865207a65726f206164647265736044820152607360f81b6064820152608401610d43565b336000612fa8856138f7565b90506000612fb5856138f7565b9050612fc683600089858589613942565b60008681526065602090815260408083206001600160a01b038b16845290915281208054879290612ff8908490615644565b909155505060408051878152602081018790526001600160a01b03808a169260009291871691600080516020615d84833981519152910160405180910390a4612e09836000898989896139c4565b81518351146130a85760405162461bcd60e51b815260206004820152602860248201527f455243313135353a2069647320616e6420616d6f756e7473206c656e677468206044820152670dad2e6dac2e8c6d60c31b6064820152608401610d43565b6001600160a01b0384166130ce5760405162461bcd60e51b8152600401610d43906159c9565b336130dd818787878787613942565b60005b84518110156131c65760008582815181106130fd576130fd615573565b60200260200101519050600085838151811061311b5761311b615573565b60209081029190910181015160008481526065835260408082206001600160a01b038e16835290935291909120549091508181101561316c5760405162461bcd60e51b8152600401610d4390615a0e565b60008381526065602090815260408083206001600160a01b038e8116855292528083208585039055908b168252812080548492906131ab908490615644565b92505081905550505050806131bf906155e0565b90506130e0565b50846001600160a01b0316866001600160a01b0316826001600160a01b03167f4a39dc06d4c0dbc64b70af90fd698a233a518aa5d07e595d983b8c0526c8f7fb8787604051613216929190615a58565b60405180910390a4612ac8818787878787613b26565b6132368282612207565b610da65760008281526097602090815260408083206001600160a01b03851684529091529020805460ff1916600117905561326e3390565b6001600160a01b0316816001600160a01b0316837f2f8788117e7eff1d82e926ec794901d17c78024a50270940304540a733656f0d60405160405180910390a45050565b6132bc8282612207565b15610da65760008281526097602090815260408083206001600160a01b0385168085529252808320805460ff1916905551339285917ff6391f5c32d9c69d2a47ea670b442974b53935d1edc7fd64eb21e047a839171b9190a45050565b600080516020615e24833981519152546001600160a01b031690565b600080516020615e04833981519152610da681612c6e565b7f4910fdfa16fed3260ed0e7147f7cc6da11a60208b5b9406d12a635614ffd91435460ff1615613380576113f583613be8565b826001600160a01b03166352d1902d6040518163ffffffff1660e01b8152600401602060405180830381865afa9250505080156133da575060408051601f3d908101601f191682019092526133d791810190615a7d565b60015b61343d5760405162461bcd60e51b815260206004820152602e60248201527f45524331393637557067726164653a206e657720696d706c656d656e7461746960448201526d6f6e206973206e6f74205555505360901b6064820152608401610d43565b600080516020615e2483398151915281146134ac5760405162461bcd60e51b815260206004820152602960248201527f45524331393637557067726164653a20756e737570706f727465642070726f786044820152681a58589b195555525160ba1b6064820152608401610d43565b506113f5838383613c82565b60006134c5888888612c8b565b6134d3888888888888613cad565b905086886001600160a01b03167f1325d882b2ca749c878a4ab3a393f6e51b69026faa05426b6d1ec6776a3f2f3c88848660405161351393929190615a96565b60405180910390a3979650505050505050565b61352e613dac565b60c9805460ff191690557f5db9ee0a495bf2e6ff9c91a7834c1ba4fdd244a5e8aa4e537bd38aeae4b073aa335b6040516001600160a01b03909116815260200160405180910390a1565b6000610d7f613585613df5565b8360405161190160f01b6020820152602281018390526042810182905260009060620160405160208183030381529060405280519060200120905092915050565b60006135d28585613e77565b9050826001600160a01b0316816001600160a01b0316146136055760405162461bcd60e51b8152600401610d4390615ab5565b6001600160a01b03811661362b5760405162461bcd60e51b8152600401610d4390615ab5565b81421061366e5760405162461bcd60e51b815260206004820152601160248201527014da59db985d1d5c9948195e1c1a5c9959607a1b6044820152606401610d43565b949350505050565b60006136858989898986612e12565b612a07888888888888886134b8565b61369c613e93565b60c9805460ff191660011790557f62e78cea01bee320cd4e420270b5ea74000d11b0c9f74754ebdbfc544b05a25861355b3390565b6001600160a01b03163b151590565b600054610100900460ff166137075760405162461bcd60e51b8152600401610d4390615ae6565b61153981613ed9565b600054610100900460ff166137375760405162461bcd60e51b8152600401610d4390615ae6565b565b600054610100900460ff166137605760405162461bcd60e51b8152600401610d4390615ae6565b613737613f09565b600054610100900460ff1661378f5760405162461bcd60e51b8152600401610d4390615ae6565b610da68282613f3c565b816001600160a01b0316836001600160a01b03160361380c5760405162461bcd60e51b815260206004820152602960248201527f455243313135353a2073657474696e6720617070726f76616c20737461747573604482015268103337b91039b2b63360b91b6064820152608401610d43565b6001600160a01b03838116600081815260666020908152604080832094871680845294825291829020805460ff191686151590811790915591519182527f17307eab39ab6107e8899845ad3d59bd9653f200f220920489ca2b5937696c31910160405180910390a3505050565b60006001600160e01b03198216637965db0b60e01b1480610d7f5750610d7f82613f6d565b6138a88282612207565b610da6576138b581613fbd565b6138c0836020613fcf565b6040516020016138d1929190615b31565b60408051601f198184030181529082905262461bcd60e51b8252610d4391600401614a64565b6040805160018082528183019092526060916000919060208083019080368337019050509050828160008151811061393157613931615573565b602090810291909101015292915050565b61394a613e93565b84613963600080516020615e4483398151915282612207565b156139805760405162461bcd60e51b8152600401610d4390615ba0565b84613999600080516020615e4483398151915282612207565b156139b65760405162461bcd60e51b8152600401610d4390615ba0565b610faf888888888888614171565b6139d6846001600160a01b03166136d1565b15612ac85760405163f23a6e6160e01b81526001600160a01b0385169063f23a6e6190613a0f9089908990889088908890600401615bd7565b6020604051808303816000875af1925050508015613a4a575060408051601f3d908101601f19168201909252613a4791810190615c11565b60015b613af657613a56615c2e565b806308c379a003613a8f5750613a6a615c49565b80613a755750613a91565b8060405162461bcd60e51b8152600401610d439190614a64565b505b60405162461bcd60e51b815260206004820152603460248201527f455243313135353a207472616e7366657220746f206e6f6e2d455243313135356044820152732932b1b2b4bb32b91034b6b83632b6b2b73a32b960611b6064820152608401610d43565b6001600160e01b0319811663f23a6e6160e01b14612e095760405162461bcd60e51b8152600401610d4390615cd2565b613b38846001600160a01b03166136d1565b15612ac85760405163bc197c8160e01b81526001600160a01b0385169063bc197c8190613b719089908990889088908890600401615d1a565b6020604051808303816000875af1925050508015613bac575060408051601f3d908101601f19168201909252613ba991810190615c11565b60015b613bb857613a56615c2e565b6001600160e01b0319811663bc197c8160e01b14612e095760405162461bcd60e51b8152600401610d4390615cd2565b613bf1816136d1565b613c535760405162461bcd60e51b815260206004820152602d60248201527f455243313936373a206e657720696d706c656d656e746174696f6e206973206e60448201526c1bdd08184818dbdb9d1c9858dd609a1b6064820152608401610d43565b600080516020615e2483398151915280546001600160a01b0319166001600160a01b0392909216919091179055565b613c8b836142ea565b600082511180613c985750805b156113f557613ca7838361432a565b50505050565b600080613cc26101f780546001019081905590565b6040805160c0810182526001600160a01b038b8116825260208083018b81528385018d8152606085018c8152608086018c905260a086018b90526000888152610200855296909620855181546001600160a01b0319169516949094178455905160018401555160028301559251805194955091939092613d499260038501929101906146cc565b5060808201518051613d659160048401916020909101906146cc565b5060a08201518051613d819160058401916020909101906146cc565b50905050613da18882600160405180602001604052806000815250612f3c565b979650505050505050565b60c95460ff166137375760405162461bcd60e51b815260206004820152601460248201527314185d5cd8589b194e881b9bdd081c185d5cd95960621b6044820152606401610d43565b6000613e727f8b73c3c69bb8fe3d512ecc4cf759cc79239f7b179b0ffacaa9a75d522b39400f613e256101915490565b610192546040805160208101859052908101839052606081018290524660808201523060a082015260009060c0016040516020818303038152906040528051906020012090509392505050565b905090565b6000806000613e86858561441c565b9150915061198c81614461565b60c95460ff16156137375760405162461bcd60e51b815260206004820152601060248201526f14185d5cd8589b194e881c185d5cd95960821b6044820152606401610d43565b600054610100900460ff16613f005760405162461bcd60e51b8152600401610d4390615ae6565b61153981612c78565b600054610100900460ff16613f305760405162461bcd60e51b8152600401610d4390615ae6565b60c9805460ff19169055565b600054610100900460ff16613f635760405162461bcd60e51b8152600401610d4390615ae6565b610da682826145a6565b60006001600160e01b03198216636cdb3d1360e11b1480613f9e57506001600160e01b031982166303a24d0760e21b145b80610d7f57506301ffc9a760e01b6001600160e01b0319831614610d7f565b6060610d7f6001600160a01b03831660145b60606000613fde83600261559f565b613fe9906002615644565b6001600160401b03811115614000576140006147de565b6040519080825280601f01601f19166020018201604052801561402a576020820181803683370190505b509050600360fc1b8160008151811061404557614045615573565b60200101906001600160f81b031916908160001a905350600f60fb1b8160018151811061407457614074615573565b60200101906001600160f81b031916908160001a905350600061409884600261559f565b6140a3906001615644565b90505b600181111561411b576f181899199a1a9b1b9c1cb0b131b232b360811b85600f16601081106140d7576140d7615573565b1a60f81b8282815181106140ed576140ed615573565b60200101906001600160f81b031916908160001a90535060049490941c9361411481615d6c565b90506140a6565b50831561416a5760405162461bcd60e51b815260206004820181905260248201527f537472696e67733a20686578206c656e67746820696e73756666696369656e746044820152606401610d43565b9392505050565b6001600160a01b0385166141f85760005b83518110156141f65782818151811061419d5761419d615573565b602002602001015160fb60008684815181106141bb576141bb615573565b6020026020010151815260200190815260200160002060008282546141e09190615644565b909155506141ef9050816155e0565b9050614182565b505b6001600160a01b038416612ac85760005b8351811015612e0957600084828151811061422657614226615573565b60200260200101519050600084838151811061424457614244615573565b60200260200101519050600060fb6000848152602001908152602001600020549050818110156142c75760405162461bcd60e51b815260206004820152602860248201527f455243313135353a206275726e20616d6f756e74206578636565647320746f74604482015267616c537570706c7960c01b6064820152608401610d43565b600092835260fb6020526040909220910390556142e3816155e0565b9050614209565b6142f381613be8565b6040516001600160a01b038216907fbc7cd75a20ee27fd9adebab32041f755214dbc6bffa90cc0225b39da2e5c2d3b90600090a250565b6060614335836136d1565b6143905760405162461bcd60e51b815260206004820152602660248201527f416464726573733a2064656c65676174652063616c6c20746f206e6f6e2d636f6044820152651b9d1c9858dd60d21b6064820152608401610d43565b600080846001600160a01b0316846040516143ab919061597e565b600060405180830381855af49150503d80600081146143e6576040519150601f19603f3d011682016040523d82523d6000602084013e6143eb565b606091505b50915091506144138282604051806060016040528060278152602001615ea4602791396145e9565b95945050505050565b60008082516041036144525760208301516040840151606085015160001a61444687828585614602565b9450945050505061445a565b506000905060025b9250929050565b60008160048111156144755761447561579e565b0361447d5750565b60018160048111156144915761449161579e565b036144d95760405162461bcd60e51b815260206004820152601860248201527745434453413a20696e76616c6964207369676e617475726560401b6044820152606401610d43565b60028160048111156144ed576144ed61579e565b0361453a5760405162461bcd60e51b815260206004820152601f60248201527f45434453413a20696e76616c6964207369676e6174757265206c656e677468006044820152606401610d43565b600381600481111561454e5761454e61579e565b036115395760405162461bcd60e51b815260206004820152602260248201527f45434453413a20696e76616c6964207369676e6174757265202773272076616c604482015261756560f01b6064820152608401610d43565b600054610100900460ff166145cd5760405162461bcd60e51b8152600401610d4390615ae6565b8151602092830120815191909201206101919190915561019255565b606083156145f857508161416a565b61416a83836146bc565b6000806fa2a8918ca85bafe22016d0b997e4df60600160ff1b0383111561462f57506000905060036146b3565b6040805160008082526020820180845289905260ff881692820192909252606081018690526080810185905260019060a0016020604051602081039080840390855afa158015614683573d6000803e3d6000fd5b5050604051601f1901519150506001600160a01b0381166146ac576000600192509250506146b3565b9150600090505b94509492505050565b815115613a755781518083602001fd5b8280546146d8906155f9565b90600052602060002090601f0160209004810192826146fa5760008555614740565b82601f1061471357805160ff1916838001178555614740565b82800160010185558215614740579182015b82811115614740578251825591602001919060010190614725565b5061474c929150614750565b5090565b5b8082111561474c5760008155600101614751565b80356001600160a01b038116811461477c57600080fd5b919050565b6000806040838503121561479457600080fd5b61479d83614765565b946020939093013593505050565b6001600160e01b03198116811461153957600080fd5b6000602082840312156147d357600080fd5b813561416a816147ab565b634e487b7160e01b600052604160045260246000fd5b60a081018181106001600160401b0382111715614813576148136147de565b60405250565b601f8201601f191681016001600160401b038111828210171561483e5761483e6147de565b6040525050565b600082601f83011261485657600080fd5b81356001600160401b0381111561486f5761486f6147de565b604051614886601f8301601f191660200182614819565b81815284602083860101111561489b57600080fd5b816020850160208301376000918101602001919091529392505050565b6000602082840312156148ca57600080fd5b81356001600160401b038111156148e057600080fd5b61366e84828501614845565b60006001600160401b03821115614905576149056147de565b5060051b60200190565b600082601f83011261492057600080fd5b8135602061492d826148ec565b60405161493a8282614819565b83815260059390931b850182019282810191508684111561495a57600080fd5b8286015b8481101561497c5761496f81614765565b835291830191830161495e565b509695505050505050565b60008060006060848603121561499c57600080fd5b83356001600160401b03808211156149b357600080fd5b6149bf8783880161490f565b94506020860135935060408601359150808211156149dc57600080fd5b506149e986828701614845565b9150509250925092565b600060208284031215614a0557600080fd5b5035919050565b60005b83811015614a27578181015183820152602001614a0f565b83811115613ca75750506000910152565b60008151808452614a50816020860160208601614a0c565b601f01601f19169290920160200192915050565b60208152600061416a6020830184614a38565b60008060008060808587031215614a8d57600080fd5b614a9685614765565b9350602085013592506040850135915060608501356001600160401b03811115614abf57600080fd5b614acb87828801614845565b91505092959194509250565b602081526000825160a06020840152614af360c0840182614a38565b9050602084015160408401526040840151606084015260608401516080840152608084015160a08401528091505092915050565b600082601f830112614b3857600080fd5b81356020614b45826148ec565b604051614b528282614819565b83815260059390931b8501820192828101915086841115614b7257600080fd5b8286015b8481101561497c5780358352918301918301614b76565b600080600080600060a08688031215614ba557600080fd5b614bae86614765565b9450614bbc60208701614765565b935060408601356001600160401b0380821115614bd857600080fd5b614be489838a01614b27565b94506060880135915080821115614bfa57600080fd5b614c0689838a01614b27565b93506080880135915080821115614c1c57600080fd5b50614c2988828901614845565b9150509295509295909350565b60008060408385031215614c4957600080fd5b82359150614c5960208401614765565b90509250929050565b600060208284031215614c7457600080fd5b61416a82614765565b60008060008060008060c08789031215614c9657600080fd5b863595506020870135945060408701356001600160401b0380821115614cbb57600080fd5b614cc78a838b01614845565b95506060890135915080821115614cdd57600080fd5b614ce98a838b01614845565b94506080890135915080821115614cff57600080fd5b614d0b8a838b01614845565b935060a0890135915080821115614d2157600080fd5b50614d2e89828a01614845565b9150509295509295509295565b600080600080600080600060e0888a031215614d5657600080fd5b614d5f88614765565b96506020880135955060408801359450606088013593506080880135925060a0880135915060c08801356001600160401b03811115614d9d57600080fd5b614da98a828b01614845565b91505092959891949750929550565b60008060408385031215614dcb57600080fd5b82356001600160401b0380821115614de257600080fd5b614dee8683870161490f565b93506020850135915080821115614e0457600080fd5b50614e1185828601614b27565b9150509250929050565b600081518084526020808501945080840160005b83811015614e4b57815187529582019590820190600101614e2f565b509495945050505050565b60208152600061416a6020830184614e1b565b60008060408385031215614e7c57600080fd5b614e8583614765565b915060208301356001600160401b03811115614ea057600080fd5b614e1185828601614845565b80356005811061477c57600080fd5b600080600060608486031215614ed057600080fd5b8335925060208401359150614ee760408501614eac565b90509250925092565b60008083601f840112614f0257600080fd5b5081356001600160401b03811115614f1957600080fd5b60208301915083602082850101111561445a57600080fd5b600060e08284031215614f4357600080fd5b50919050565b600080600080600080600060c0888a031215614f6457600080fd5b87356001600160401b0380821115614f7b57600080fd5b614f878b838c01614ef0565b909950975060208a0135915080821115614fa057600080fd5b614fac8b838c01614f31565b965060408a0135915080821115614fc257600080fd5b614fce8b838c01614845565b955060608a0135915080821115614fe457600080fd5b614ff08b838c01614845565b945060808a013591508082111561500657600080fd5b6150128b838c01614845565b935060a08a013591508082111561502857600080fd5b50614da98a828b01614845565b60018060a01b038716815285602082015284604082015260c06060820152600061506260c0830186614a38565b82810360808401526150748186614a38565b905082810360a0840152612a078185614a38565b60a08152600061509b60a0830188614a38565b90508560208301528460408301528360608301528260808301529695505050505050565b600060208083850312156150d257600080fd5b82356001600160401b03808211156150e957600080fd5b818501915085601f8301126150fd57600080fd5b8135615108816148ec565b604080516151168382614819565b83815260059390931b850186019286810192508984111561513657600080fd5b8686015b848110156151cd578035868111156151525760008081fd5b870160a0818d03601f190181131561516a5760008081fd5b8451615175816147f4565b8a830135898111156151875760008081fd5b6151958f8d83870101614845565b825250828601358b8201526060808401358783015260808085013591830191909152919092013590820152845292870192870161513a565b509998505050505050505050565b600080600080608085870312156151f157600080fd5b6151fa85614765565b9350602085013560ff8116811461521057600080fd5b92506040850135915060608501356001600160401b03811115614abf57600080fd5b6000806000806080858703121561524857600080fd5b61525185614765565b9350602085013592506040850135915061526d60608601614eac565b905092959194509250565b6000806000806080858703121561528e57600080fd5b61529785614765565b935061521060208601614765565b600080600080608085870312156152bb57600080fd5b84359350602085013592506040850135915060608501356001600160401b03811115614abf57600080fd5b600080604083850312156152f957600080fd5b61530283614765565b91506020830135801515811461531757600080fd5b809150509250929050565b600080600080600080600060e0888a03121561533d57600080fd5b61534688614765565b9650602088013595506040880135945060608801356001600160401b038082111561537057600080fd5b61537c8b838c01614845565b955060808a013591508082111561539257600080fd5b61539e8b838c01614845565b945060a08a01359150808211156153b457600080fd5b6153c08b838c01614845565b935060c08a013591508082111561502857600080fd5b600080600080600060a086880312156153ee57600080fd5b6153f786614765565b945061540560208701614765565b9350604086013592506060860135915061542160808701614eac565b90509295509295909350565b6000806000806060858703121561544357600080fd5b84356001600160401b038082111561545a57600080fd5b61546688838901614ef0565b9096509450602087013591508082111561547f57600080fd5b61548b88838901614f31565b935060408701359150808211156154a157600080fd5b50614acb87828801614845565b600080604083850312156154c157600080fd5b6154ca83614765565b9150614c5960208401614765565b600080600080600060a086880312156154f057600080fd5b6154f986614765565b945061550760208701614765565b9350604086013592506060860135915060808601356001600160401b0381111561553057600080fd5b614c2988828901614845565b6020808252601c908201527f50726f6a6563743a20546f6b656e206973206e6f74204578506f737400000000604082015260600190565b634e487b7160e01b600052603260045260246000fd5b634e487b7160e01b600052601160045260246000fd5b60008160001904831182151516156155b9576155b9615589565b500290565b6000826155db57634e487b7160e01b600052601260045260246000fd5b500490565b6000600182016155f2576155f2615589565b5060010190565b600181811c9082168061560d57607f821691505b602082108103614f4357634e487b7160e01b600052602260045260246000fd5b60008282101561563f5761563f615589565b500390565b6000821982111561565757615657615589565b500190565b6020808252602e908201527f455243313135353a2063616c6c6572206973206e6f7420746f6b656e206f776e60408201526d195c881bdc88185c1c1c9bdd995960921b606082015260800190565b6020808252602c908201527f46756e6374696f6e206d7573742062652063616c6c6564207468726f7567682060408201526b19195b1959d85d1958d85b1b60a21b606082015260800190565b6020808252602c908201527f46756e6374696f6e206d7573742062652063616c6c6564207468726f7567682060408201526b6163746976652070726f787960a01b606082015260800190565b602080825260179082015276141c9bda9958dd0e88125b9d985b1a5908185b5bdd5b9d604a1b604082015260600190565b85815284602082015283604082015282606082015260a060808201526000613da160a0830184614a38565b634e487b7160e01b600052602160045260246000fd5b81835281816020850137506000828201602090810191909152601f909101601f19169091010190565b6040815260006157f16040830185876157b4565b8281036020840152833581526020840135601e1985360301811261581457600080fd5b840180356001600160401b0381111561582c57600080fd5b80360386131561583b57600080fd5b60e0602084015261585360e0840182602085016157b4565b91505061586260408601614765565b6001600160a01b0316604083015261587c60608601614765565b6001600160a01b0381166060840152506080850135608083015260a085013560a083015260c085013560c08301528092505050949350505050565b6000808335601e198436030181126158ce57600080fd5b8301803591506001600160401b038211156158e857600080fd5b60200191503681900382131561445a57600080fd5b8183823760009101908152919050565b600063ffffffff80831681810361592657615926615589565b6001019392505050565b6020808252602e908201527f496e697469616c697a61626c653a20636f6e747261637420697320616c72656160408201526d191e481a5b9a5d1a585b1a5e995960921b606082015260800190565b60008251615990818460208701614a0c565b9190910192915050565b8481528360208201528260408201526080606082015260006159bf6080830184614a38565b9695505050505050565b60208082526025908201527f455243313135353a207472616e7366657220746f20746865207a65726f206164604082015264647265737360d81b606082015260800190565b6020808252602a908201527f455243313135353a20696e73756666696369656e742062616c616e636520666f60408201526939103a3930b739b332b960b11b606082015260800190565b604081526000615a6b6040830185614e1b565b82810360208401526144138185614e1b565b600060208284031215615a8f57600080fd5b5051919050565b8381528260208201526060604082015260006144136060830184614a38565b602080825260179082015276496e76616c6964207369676e6174757265202d2034303160481b604082015260600190565b6020808252602b908201527f496e697469616c697a61626c653a20636f6e7472616374206973206e6f74206960408201526a6e697469616c697a696e6760a81b606082015260800190565b76020b1b1b2b9b9a1b7b73a3937b61d1030b1b1b7bab73a1604d1b815260008351615b63816017850160208801614a0c565b7001034b99036b4b9b9b4b733903937b6329607d1b6017918401918201528351615b94816028840160208801614a0c565b01602801949350505050565b6020808252601f908201527f50726f6a6563743a204163636f756e7420697320626c61636b6c697374656400604082015260600190565b6001600160a01b03868116825285166020820152604081018490526060810183905260a060808201819052600090613da190830184614a38565b600060208284031215615c2357600080fd5b815161416a816147ab565b600060033d1115611af55760046000803e5060005160e01c90565b600060443d1015615c575790565b6040516003193d81016004833e81513d6001600160401b038160248401118184111715615c8657505050505090565b8285019150815181811115615c9e5750505050505090565b843d8701016020828501011115615cb85750505050505090565b615cc760208286010187614819565b509095945050505050565b60208082526028908201527f455243313135353a204552433131353552656365697665722072656a656374656040820152676420746f6b656e7360c01b606082015260800190565b6001600160a01b0386811682528516602082015260a060408201819052600090615d4690830186614e1b565b8281036060840152615d588186614e1b565b905082810360808401526115738185614a38565b600081615d7b57615d7b615589565b50600019019056fec3d58168c5ae7397731d063d5bbf3d657854427343f4c083240f7aacaa2d0f6279da588818fa1bb747c46ac45fd0af16861a77c5222cf5ac4538360ca4f77a2cd5bbb2f0fbfc1d5938ca13cabd3156d362f7862fa87504c8d589f5e8f2cbc453bdde33eca765abe07e416fa5225f9a5dbc393366c8bbf45df689e69ee318a934189ab7a9244df0848122154315af71fe140f3db0fe014031783b0946b8c9d2e3360894a13ba1a3210667c828492db98dca3e2076cc3735a920a3ca505d382bbcf48dee1a72497b9e734e498e1b3086c0d2dbcca13f16f15848f974469f906bbf7804d923f43a17d325d77e781528e0793b2edd9890ab45fc64efd7b4b427744c65d7a28e3265b37a6474929f336521b332c1681b933f6cb9f3376673440d862a416464726573733a206c6f772d6c6576656c2064656c65676174652063616c6c206661696c65644bbc247fc4736523c8bdd1853fee2acfa817d663f8f4422b13e78ebf99e204a2ddf79b8d2110dbe281cf3bb7762d508cea586c974794c8fc949d41b0db1145130ce23c3e399818cfee81a7ab0880f714e53d7672b08df0fa62f2843416e1ea09a2646970667358221220899bcc86b043e2ba74e16a20d5597cfdb47b548710d55d0e193a5affa1512ef764736f6c634300080d0033",
  "immutableReferences": {
    "997": [
      {
        "length": 32,
        "start": 5246
      },
      {
        "length": 32,
        "start": 5310
      },
      {
        "length": 32,
        "start": 6558
      },
      {
        "length": 32,
        "start": 6622
      },
      {
        "length": 32,
        "start": 6742
      }
    ]
  },
  "source": "// SPDX-License-Identifier: MIT\npragma solidity ^0.8.13;\n\nimport '@openzeppelin/contracts-upgradeable/token/ERC1155/ERC1155Upgradeable.sol';\nimport '@openzeppelin/contracts-upgradeable/access/AccessControlUpgradeable.sol';\nimport '@openzeppelin/contracts-upgradeable/security/PausableUpgradeable.sol';\nimport '@openzeppelin/contracts-upgradeable/token/ERC1155/extensions/ERC1155SupplyUpgradeable.sol';\nimport '@openzeppelin/contracts-upgradeable/proxy/utils/Initializable.sol';\nimport '@openzeppelin/contracts-upgradeable/proxy/utils/UUPSUpgradeable.sol';\nimport \"@openzeppelin/contracts-upgradeable/token/ERC1155/utils/ERC1155HolderUpgradeable.sol\";\n\n\nimport './ProjectStorage.sol';\nimport './interfaces/ICarbonContractRegistry.sol';\nimport './utils/CustomSignaturesUpgradeable.sol';\n\ncontract Project is\n\tInitializable,\n\tERC1155Upgradeable,\n\tAccessControlUpgradeable,\n\tPausableUpgradeable,\n\tERC1155SupplyUpgradeable,\n\tUUPSUpgradeable,\n\tCustomSignaturesUpgradeable,\n\t\tProjectStorage,\n\tERC1155HolderUpgradeable\n\n\n{\n\tbytes32 public constant URI_SETTER_ROLE = keccak256('URI_SETTER_ROLE');\n\tbytes32 public constant PAUSER_ROLE = keccak256('PAUSER_ROLE');\n\tbytes32 public constant ANTE_MINTER_ROLE = keccak256('ANTE_MINTER_ROLE');\n\tbytes32 public constant POST_MINTER_ROLE = keccak256('POST_MINTER_ROLE');\n\tbytes32 public constant MINTER_ROLE = keccak256('MINTER_ROLE');\n\tbytes32 public constant UPGRADER_ROLE = keccak256('UPGRADER_ROLE');\n\tbytes32 public constant BLACKLISTED = keccak256('BLACKLISTED');\n\tbytes32 public constant BLACKLISTER_ROLE = keccak256('BLACKLISTER_ROLE');\n\tbytes32 public constant BURNER_ROLE = keccak256('BURNER_ROLE');\n\tbytes32 public constant VERIFIER_ROLE = keccak256('VERIFIER_ROLE');\n\tbytes32 public constant CLAWBACK_ROLE = keccak256('CLAWBACK_ROLE');\n\n\tevent ExPostCreated(\n\t\tuint256 indexed tokenId,\n\t\tuint256 estimatedAmount,\n\t\tuint256 verificationPeriodStart,\n\t\tuint256 verificationPeriodEnd,\n\t\tstring serialization\n\t);\n\n\tevent VintageMitigationEstimateChanged(\n\t\tuint256 indexed tokenId,\n\t\tuint256 newEstimate,\n\t\tuint256 oldEstimate,\n\t\tAdminActionReason indexed reason\n\t);\n\n\tevent ExAnteMinted(\n\t\tuint256 indexed exAnteTokenId,\n\t\tuint256 indexed exPostTokenId,\n\t\taddress indexed account,\n\t\tuint256 amount\n\t);\n\n\tevent ExPostVerifiedAndMinted(\n\t\tuint256 indexed tokenId,\n\t\tuint256 amount,\n\t\tuint256 amountToAnteHolders,\n\t\tuint256 verificationPeriodStart,\n\t\tuint256 verificationPeriodEnd,\n\t\tstring monitoringReport\n\t);\n\n\tevent AdminBurn(\n\t\taddress indexed from,\n\t\tuint256 indexed tokenId,\n\t\tuint256 amount,\n\t\tAdminActionReason indexed reason\n\t);\n\n\tevent AdminClawback(\n\t\taddress indexed from,\n\t\taddress to,\n\t\tuint256 indexed tokenId,\n\t\tuint256 amount,\n\t\tAdminActionReason indexed reason\n\t);\n\n\tevent ExchangeAnteForPost(\n\t\taddress indexed account,\n\t\tuint256 indexed exPostTokenId,\n\t\tuint256 exPostAmountReceived,\n\t\tuint256 exAnteAmountBurned\n\t);\n\n\tevent RetiredVintage(\n\t\taddress indexed account,\n\t\tuint256 indexed tokenId,\n\t\tuint256 amount,\n\t\tuint256 nftTokenId,\n\t\tbytes data\n\t);\n\n\t/// @custom:oz-upgrades-unsafe-allow constructor\n\tconstructor() {\n\t\t_disableInitializers();\n\t}\n\n\n\n\tfunction initialize(\n\t\taddress _contractRegistry,\n\t\taddress _owner,\n\t\tuint256 _projectId,\n\t\tstring memory _projectName\n\t) public initializer {\n\t\t__ERC1155_init('');\n\t\t__AccessControl_init();\n\t\t__Pausable_init();\n\t\t__ERC1155Supply_init();\n\t\t__UUPSUpgradeable_init();\n\t\t__CustomSignatures_init(\"Carbon Registry\", '0.0.1');\n\n\t\t// Our Inits\n\t\t__ProjectStorage_init(_contractRegistry, 50, _projectId, _projectName);\n\n\t\t_grantRole(DEFAULT_ADMIN_ROLE, _owner);\n\t\t_grantRole(URI_SETTER_ROLE, _owner);\n\t\t_grantRole(PAUSER_ROLE, _owner);\n\t\t_grantRole(ANTE_MINTER_ROLE, _owner);\n\t\t_grantRole(POST_MINTER_ROLE, _owner);\n\t\t_grantRole(UPGRADER_ROLE, _owner);\n\t\t_grantRole(BLACKLISTER_ROLE, _owner);\n\t\t_grantRole(VERIFIER_ROLE, _owner);\n\t\t_grantRole(CLAWBACK_ROLE, _owner);\n\n\t\t_grantRole(POST_MINTER_ROLE, msg.sender); // Just so projectFactory can mint exPost on creation of the project\n\t}\n\n\tmodifier notBlacklisted(address account) {\n\t\trequire(\n\t\t\t!hasRole(BLACKLISTED, account),\n\t\t\t'Project: Account is blacklisted'\n\t\t);\n\t\t_;\n\t}\n\n\tmodifier onlyExPostTokens(uint256[] memory tokenIds) {\n\t\tfor (uint256 i = 0; i < tokenIds.length; i++) {\n\t\t\trequire(isExPostToken(tokenIds[i]), 'Project: Token is not ExPost');\n\t\t}\n\t\t_;\n\t}\n\n\tmodifier onlyExPostToken(uint256 tokenId) {\n\t\trequire(isExPostToken(tokenId), 'Project: Token is not ExPost');\n\t\t_;\n\t}\n\n\tfunction isExPostToken(uint256 tokenId) public view returns (bool) {\n\t\treturn bytes(exPostVintageMapping[tokenId].serialization).length > 0;\n\t}\n\n\tmodifier onlyVerifiedStatus(bool isVerified, uint256 tokenId) {\n\t\trequire(\n\t\t\t(exPostVintageMapping[tokenId].lastVerificationTimestamp >=\n\t\t\t\texPostVintageMapping[tokenId].verificationPeriodEnd) ==\n\t\t\t\tisVerified,\n\t\t\tisVerified\n\t\t\t\t? 'Project: Token is unverified'\n\t\t\t\t: 'Project: Token is verified'\n\t\t);\n\t\t_;\n\t}\n\n\tfunction testUpgrade() external pure returns(string memory) {\n\t\treturn \"Upgrade worked 0.0.1\";\n\t}\n\n\t// ----------------------------------\n\t//         Minting Functions\n\t// ----------------------------------\n\n\tfunction createExPostVintage(\n\t\tuint256 estAmount,\n\t\tuint256 verificationPeriodStart,\n\t\tuint256 verificationPeriodEnd,\n\t\tstring memory serialization\n\t) public onlyRole(POST_MINTER_ROLE) {\n\t\t\n\t\trequire(\n\t\t\tverificationPeriodEnd > verificationPeriodStart,\n\t\t\t'Project: Invalid verification period'\n\t\t);\n\t\tuint256 newTokenId = nextTokenId();\n\t\tICarbonContractRegistry(contractRegistry).registerSerialization(\n\t\t\tserialization\n\t\t);\n\t\tserializationToExPostTokenIdMapping[serialization] = newTokenId;\n\t\texPostVintageMapping[newTokenId] = VintageData(\n\t\t\tserialization,\n\t\t\testAmount,\n\t\t\tverificationPeriodStart,\n\t\t\tverificationPeriodEnd,\n\t\t\t0\n\t\t);\n\t\temit ExPostCreated(\n\t\t\tnewTokenId,\n\t\t\testAmount,\n\t\t\tverificationPeriodStart,\n\t\t\tverificationPeriodEnd,\n\t\t\tserialization\n\t\t);\n\t}\n\n\tfunction createExPostVintageBatch(\n\t\tVintageData[] memory vintages\n\t) public onlyRole(POST_MINTER_ROLE) {\n\t\tfor (uint256 i = 0; i < vintages.length; i++) {\n\t\t\tcreateExPostVintage(\n\t\t\t\tvintages[i].estMitigations,\n\t\t\t\tvintages[i].verificationPeriodStart,\n\t\t\t\tvintages[i].verificationPeriodEnd,\n\t\t\t\tvintages[i].serialization\n\t\t\t);\n\t\t}\n\t}\n\n\tfunction mintExAnte(\n\t\taddress account,\n\t\tuint256 exPostTokenId,\n\t\tuint256 amount,\n\t\tbytes memory data\n\t)\n\t\tpublic\n\t\tonlyRole(ANTE_MINTER_ROLE)\n\t\tonlyExPostToken(exPostTokenId)\n\t\tonlyVerifiedStatus(false, exPostTokenId)\n\t{\n\n\t\tuint256 exAnteTokenId = exPostToExAnteTokenId[exPostTokenId];\n\t\tif (exAnteTokenId == 0) {\n\t\t\texAnteTokenId = nextTokenId();\n\t\t\texPostToExAnteTokenId[exPostTokenId] = exAnteTokenId;\n\t\t}\n\n\n\t\tuint256 exPostEstimatedSupply = exPostVintageMapping[exPostTokenId]\n\t\t\t.estMitigations;\n\t\tuint256 exPostVerifiedSupply = totalSupply(exPostTokenId);\n\t\tuint256 anteDrawablePostSupply = exPostEstimatedSupply -\n\t\t\texPostVerifiedSupply;\n\t\tuint256 maxExAnteSupply = (anteDrawablePostSupply *\n\t\t\t(maxAntePercentage)) / (100);\n\t\tuint256 exAnteSupply = totalSupply(exAnteTokenId);\n\n\t\trequire(\n\t\t\texAnteSupply + amount <= maxExAnteSupply,\n\t\t\t'Maximum exAnte supply exceeded'\n\t\t);\n\n\t\texAnteToExPostTokenId[exAnteTokenId] = exPostTokenId;\n\n\t\temit ExAnteMinted(exAnteTokenId, exPostTokenId, account,  amount);\n\n\t\t_mint(account, exAnteTokenId, amount, data);\n\n\t}\n\n\tfunction changeVintageMitigationEstimate(\n\t\tuint256 tokenId,\n\t\tuint256 newEstAmount,\n\t\tAdminActionReason reason\n\t)\n\t\tpublic\n\t\tonlyRole(DEFAULT_ADMIN_ROLE)\n\t\tonlyExPostToken(tokenId)\n\t\tonlyVerifiedStatus(false, tokenId)\n\t{\n\t\temit VintageMitigationEstimateChanged(\n\t\t\ttokenId,\n\t\t\tnewEstAmount,\n\t\t\texPostVintageMapping[tokenId].estMitigations,\n\t\t\treason\n\t\t);\n\t\texPostVintageMapping[tokenId].estMitigations = newEstAmount;\n\t}\n\n\tfunction verifyAndMintExPost(\n\t\taddress verificationVault,\n\t\tuint256 tokenId,\n\t\tuint256 amountVerified,\n\t\tuint256 amountToAnteHolders,\n\t\tuint256 verificationPeriodStart,\n\t\tuint256 verificationPeriodEnd,\n\t\tstring memory monitoringReport\n\t)\n\t\tpublic\n\t\tonlyRole(VERIFIER_ROLE)\n\t\tonlyExPostToken(tokenId)\n\t\tonlyVerifiedStatus(false, tokenId)\n\t{\n\t\t\t\n\t\trequire(\n\t\t\tamountVerified >= amountToAnteHolders,\n\t\t\t'Project: Invalid amount'\n\t\t);\n\t\trequire(\n\t\t\tverificationPeriodEnd >=\n\t\t\t\texPostVintageMapping[tokenId].verificationPeriodStart,\n\t\t\t'Verification timestamp is before verification period start'\n\t\t);\n\t\trequire(\n\t\t\tverificationPeriodEnd >\n\t\t\t\texPostVintageMapping[tokenId].lastVerificationTimestamp,\n\t\t\t'Verification timestamp is before last verification timestamp'\n\t\t);\n\n\t\tuint256 exAnteTokenId = exPostToExAnteTokenId[tokenId];\n\t\tif (exAnteTokenId == 0) {\n\t\t\t// If exAnteTokenId is zero then there are no ante holders\n\t\t\trequire(amountToAnteHolders == 0, 'Project: Invalid amount');\n\t\t}\n\n\t\t\temit ExPostVerifiedAndMinted(\n\t\t\ttokenId,\n\t\t\tamountVerified,\n\t\t\tamountToAnteHolders,\n\t\t\tverificationPeriodStart,\n\t\t\tverificationPeriodEnd,\n\t\t\tmonitoringReport\n\t\t);\n\n\t\tif (amountVerified - amountToAnteHolders > 0) {\n\t\t\t// Mint To Verification Vault\n\t\t\t_mint(\n\t\t\t\tverificationVault,\n\t\t\t\ttokenId,\n\t\t\t\tamountVerified - amountToAnteHolders,\n\t\t\t\t''\n\t\t\t);\n\t\t}\n\t\texPostVintageMapping[tokenId]\n\t\t\t.lastVerificationTimestamp = verificationPeriodEnd;\n\n\t\tif (amountToAnteHolders > 0) {\n\t\t\t// Mint to this address, where ante holders will claim\n\t\t\t_mint(address(this), tokenId, amountToAnteHolders, '');\n\t\t}\n\n\n\t}\n\n\tfunction adminBurn(\n\t\taddress from,\n\t\tuint256 tokenId,\n\t\tuint256 amount,\n\t\tAdminActionReason reason\n\t) public onlyRole(BURNER_ROLE) {\n\t\temit AdminBurn(from, tokenId, amount, reason);\n\t\t_burn(from, tokenId, amount);\n\t}\n\n\tfunction adminClawback(\n\t\taddress from,\n\t\taddress to,\n\t\tuint256 tokenId,\n\t\tuint256 amount,\n\t\tAdminActionReason reason\n\t) public onlyRole(CLAWBACK_ROLE) {\n\t\temit AdminClawback(from, to, tokenId, amount, reason);\n\t\t_safeTransferFrom(from, to, tokenId, amount, '');\n\t}\n\n\tfunction exchangeAnteForPostEvenSteven(\n\t\taddress[] memory accounts,\n\t\tuint256 exPostTokenId,\n\t\tbytes memory data\n\t)\n\t\texternal\n\t\tonlyExPostToken(exPostTokenId)\n\t{\n\t\tuint256 exAnteTokenId = exPostToExAnteTokenId[exPostTokenId];\n\t\trequire(exAnteTokenId != 0, 'Project: No ante holders');\n\t\tuint256 currentExAnteSupply = totalSupply(exAnteTokenId);\n\t\tuint256 currentExPostSupplyInContract = balanceOf(\n\t\t\taddress(this),\n\t\t\texPostTokenId\n\t\t);\n\t\trequire(currentExPostSupplyInContract > 0, 'Project: No post supply');\n\n\t\tfor (uint256 i = 0; i < accounts.length; i++) {\n\t\t\t\n\t\t\tuint256 amountExAnte = balanceOf(accounts[i], exAnteTokenId);\n\t\t\tuint256 amountExPost = (amountExAnte *\n\t\t\t\tcurrentExPostSupplyInContract) / currentExAnteSupply;\n\t\t\tuint256 exAnteBurnAmount = amountExAnte;\n\t\t\tif (amountExAnte > amountExPost) {\n\t\t\t\texAnteBurnAmount = amountExPost;\n\t\t\t}\n\t\t\t\t\t\temit ExchangeAnteForPost(\n\t\t\t\taccounts[i],\n\t\t\t\texPostTokenId,\n\t\t\t\tamountExPost,\n\t\t\t\texAnteBurnAmount\n\t\t\t);\n\t\t\t_burn(accounts[i], exAnteTokenId, exAnteBurnAmount);\n\t\t\t_safeTransferFrom(\n\t\t\t\taddress(this),\n\t\t\t\taccounts[i],\n\t\t\t\texPostTokenId,\n\t\t\t\tamountExPost,\n\t\t\t\tdata\n\t\t\t);\n\n\t\t}\n\t}\n\n\tfunction getExPostVintageData(\n\t\tuint256 exAnteTokenId\n\t) public view returns (VintageData memory) {\n\t\tuint256 exPostTokenId = exAnteToExPostTokenId[exAnteTokenId];\n\t\treturn exPostVintageMapping[exPostTokenId];\n\t}\n\n\t// ----------------------------------\n\t//              Actions\n\t// ----------------------------------\n\n\tfunction transferAndRetireFromSignature(\n\t\tbytes calldata signature,\n\t\tsignatureTransferPayload calldata payload,\n\t\tstring memory retireeName,\n\t\tstring memory customUri,\n\t\tstring memory comment,\n\t\tbytes memory data\n\t) public onlyExPostToken(payload.tokenId)\n\t\tonlyValidSignatureTransfer(signature, payload) returns (uint256 nftTokenId) {\n\t\treturn _transferAndRetire(\n\t\t\tpayload.signer,\n\t\t\tpayload.to,\n\t\t\tpayload.tokenId,\n\t\t\tpayload.amount,\n\t\t\tretireeName,\n\t\t\tcustomUri,\n\t\t\tcomment,\n\t\t\tdata\n\t\t);\n\t}\n\n\tfunction transferAndRetire(\n\t\taddress to,\n\t\tuint256 tokenId,\n\t\tuint256 amount,\n\t\tstring memory retireeName,\n\t\tstring memory customUri,\n\t\tstring memory comment,\n\t\tbytes memory data\n\t) public onlyExPostToken(tokenId) returns (uint256 nftTokenId) {\n\t\treturn _transferAndRetire(\n\t\t\tmsg.sender,\n\t\t\tto,\n\t\t\ttokenId,\n\t\t\tamount,\n\t\t\tretireeName,\n\t\t\tcustomUri,\n\t\t\tcomment,\n\t\t\tdata\n\t\t);\n\t}\n\n\tfunction _transferAndRetire(\n\t\taddress from,\n\t\taddress to,\n\t\tuint256 tokenId,\n\t\tuint256 amount,\n\t\tstring memory retireeName,\n\t\tstring memory customUri,\n\t\tstring memory comment,\n\t\tbytes memory data\n\t) internal returns (uint256 nftTokenId) {\n\t\t_safeTransferFrom(from, to, tokenId, amount, data);\n\t\treturn _retire(\n\t\t\tto,\n\t\t\ttokenId,\n\t\t\tamount,\n\t\t\tretireeName,\n\t\t\tcustomUri,\n\t\t\tcomment,\n\t\t\tdata\n\t\t);\n\t}\n\n\tfunction transferFromSignature(\n\t\tbytes calldata signature,\n\t\tsignatureTransferPayload calldata payload,\n\t\tbytes memory data\n\t) public payable onlyValidSignatureTransfer(signature, payload) {\n\t\t_safeTransferFrom(\n\t\t\tpayload.signer,\n\t\t\tpayload.to,\n\t\t\tpayload.tokenId,\n\t\t\tpayload.amount,\n\t\t\tdata\n\t\t);\n\t}\n\n\tfunction retire(\n\t\tuint256 tokenId,\n\t\tuint256 amount,\n\t\tstring memory retireeName,\n\t\tstring memory customUri,\n\t\tstring memory comment,\n\t\tbytes memory data\n\t) public onlyExPostToken(tokenId) returns (uint256 nftTokenId) {\n\t\treturn _retire(\n\t\t\tmsg.sender,\n\t\t\ttokenId,\n\t\t\tamount,\n\t\t\tretireeName,\n\t\t\tcustomUri,\n\t\t\tcomment,\n\t\t\tdata\n\t\t);\n\t}\n\n\tfunction retireFromSignature(\n\t\tbytes calldata signature,\n\t\tsignatureTransferPayload calldata payload,\n\t\tstring memory retireeName,\n\t\tstring memory customUri,\n\t\tstring memory comment,\n\t\tbytes memory data\n\t)\n\t\tpublic\n\t\tpayable\n\t\tonlyExPostToken(payload.tokenId)\n\t\tonlyValidSignatureTransfer(signature, payload)\n\t\treturns (uint256 nftTokenId)\n\t{\n\t\treturn _retire(\n\t\t\tpayload.signer,\n\t\t\tpayload.tokenId,\n\t\t\tpayload.amount,\n\t\t\tretireeName,\n\t\t\tcustomUri,\n\t\t\tcomment,\n\t\t\tdata\n\t\t);\n\t}\n\n\tfunction _retire(\n\t\taddress retiree,\n\t\tuint256 tokenId,\n\t\tuint256 amount,\n\t\tstring memory retireeName,\n\t\tstring memory customUri,\n\t\tstring memory comment,\n\t\tbytes memory data\n\t) internal returns(uint256 nftTokenId) {\n\t\t_burn(retiree, tokenId, amount);\n\t\tnftTokenId = mintRetirementCertificate(retiree, tokenId, amount, retireeName, customUri, comment);\n\t\temit RetiredVintage(retiree, tokenId, amount, nftTokenId, data);\n\t}\n\n\tfunction mintRetirementCertificate(\n\t\taddress account,\n\t\tuint256 tokenId,\n\t\tuint256 amount,\n\t\tstring memory retireeName,\n\t\tstring memory customUri,\n\t\tstring memory comment\n\t) internal returns (uint256) {\n\t\tuint256 nftTokenId = nextTokenId();\n\t\tretirementMapping[nftTokenId] = RetirementData(\n\t\t\taccount,\n\t\t\tamount,\n\t\t\ttokenId,\n\t\t\tretireeName,\n\t\t\tcustomUri,\n\t\t\tcomment\n\t\t);\n\t\t_mint(account, nftTokenId, 1, '');\n\t\treturn nftTokenId;\n\t}\n\n\t// ----------------------------------\n\t//              Hooks\n\t// ----------------------------------\n\n\tfunction _beforeTokenTransfer(\n\t\taddress operator,\n\t\taddress from,\n\t\taddress to,\n\t\tuint256[] memory ids,\n\t\tuint256[] memory amounts,\n\t\tbytes memory data\n\t)\n\t\tinternal\n\t\toverride(ERC1155Upgradeable, ERC1155SupplyUpgradeable)\n\t\twhenNotPaused\n\t\tnotBlacklisted(from)\n\t\tnotBlacklisted(to)\n\t{\n\t\tsuper._beforeTokenTransfer(operator, from, to, ids, amounts, data);\n\t}\n\n\tfunction setURI(string memory newuri) public onlyRole(URI_SETTER_ROLE) {\n\t\t_setURI(newuri);\n\t}\n\n\tfunction pause() public onlyRole(PAUSER_ROLE) {\n\t\t_pause();\n\t}\n\n\tfunction unpause() public onlyRole(PAUSER_ROLE) {\n\t\t_unpause();\n\t}\n\n\tfunction nextTokenId() internal returns (uint256) {\n\t\tunchecked {\n\t\t\ttopTokenId += 1;\n\t\t}\n\t\treturn topTokenId;\n\t}\n\n\tfunction _authorizeUpgrade(\n\t\taddress newImplementation\n\t) internal override onlyRole(UPGRADER_ROLE) {}\n\n\t// The following functions are overrides required by Solidity.\n\n\tfunction supportsInterface(\n\t\tbytes4 interfaceId\n\t)\n\t\tpublic\n\t\tview\n\t\toverride(ERC1155Upgradeable, AccessControlUpgradeable,ERC1155ReceiverUpgradeable)\n\t\treturns (bool)\n\t{\n\t\treturn super.supportsInterface(interfaceId);\n\t}\n}\n",
  "sourcePath": "/Users/thorduragustsson/Programming/Projects/CarbonRegistryContracts/contracts/Project.sol",
  "compiler": {
    "name": "solc",
    "version": "0.8.13+commit.abaa5c0e.Emscripten.clang"
  },
  "schemaVersion": "3.4.13",
  "updatedAt": "2023-04-23T09:41:46.791Z",
  "devdoc": {
    "kind": "dev",
    "methods": {
      "balanceOf(address,uint256)": {
        "details": "See {IERC1155-balanceOf}. Requirements: - `account` cannot be the zero address."
      },
      "balanceOfBatch(address[],uint256[])": {
        "details": "See {IERC1155-balanceOfBatch}. Requirements: - `accounts` and `ids` must have the same length."
      },
      "constructor": {
        "custom:oz-upgrades-unsafe-allow": "constructor"
      },
      "exists(uint256)": {
        "details": "Indicates whether any token exist with a given id, or not."
      },
      "getRoleAdmin(bytes32)": {
        "details": "Returns the admin role that controls `role`. See {grantRole} and {revokeRole}. To change a role's admin, use {_setRoleAdmin}."
      },
      "grantRole(bytes32,address)": {
        "details": "Grants `role` to `account`. If `account` had not been already granted `role`, emits a {RoleGranted} event. Requirements: - the caller must have ``role``'s admin role. May emit a {RoleGranted} event."
      },
      "hasRole(bytes32,address)": {
        "details": "Returns `true` if `account` has been granted `role`."
      },
      "isApprovedForAll(address,address)": {
        "details": "See {IERC1155-isApprovedForAll}."
      },
      "paused()": {
        "details": "Returns true if the contract is paused, and false otherwise."
      },
      "proxiableUUID()": {
        "details": "Implementation of the ERC1822 {proxiableUUID} function. This returns the storage slot used by the implementation. It is used to validate the implementation's compatibility when performing an upgrade. IMPORTANT: A proxy pointing at a proxiable contract should not be considered proxiable itself, because this risks bricking a proxy that upgrades to it, by delegating to itself until out of gas. Thus it is critical that this function revert if invoked through a proxy. This is guaranteed by the `notDelegated` modifier."
      },
      "renounceRole(bytes32,address)": {
        "details": "Revokes `role` from the calling account. Roles are often managed via {grantRole} and {revokeRole}: this function's purpose is to provide a mechanism for accounts to lose their privileges if they are compromised (such as when a trusted device is misplaced). If the calling account had been revoked `role`, emits a {RoleRevoked} event. Requirements: - the caller must be `account`. May emit a {RoleRevoked} event."
      },
      "revokeRole(bytes32,address)": {
        "details": "Revokes `role` from `account`. If `account` had been granted `role`, emits a {RoleRevoked} event. Requirements: - the caller must have ``role``'s admin role. May emit a {RoleRevoked} event."
      },
      "safeBatchTransferFrom(address,address,uint256[],uint256[],bytes)": {
        "details": "See {IERC1155-safeBatchTransferFrom}."
      },
      "safeTransferFrom(address,address,uint256,uint256,bytes)": {
        "details": "See {IERC1155-safeTransferFrom}."
      },
      "setApprovalForAll(address,bool)": {
        "details": "See {IERC1155-setApprovalForAll}."
      },
      "totalSupply(uint256)": {
        "details": "Total amount of tokens in with a given id."
      },
      "upgradeTo(address)": {
        "details": "Upgrade the implementation of the proxy to `newImplementation`. Calls {_authorizeUpgrade}. Emits an {Upgraded} event."
      },
      "upgradeToAndCall(address,bytes)": {
        "details": "Upgrade the implementation of the proxy to `newImplementation`, and subsequently execute the function call encoded in `data`. Calls {_authorizeUpgrade}. Emits an {Upgraded} event."
      },
      "uri(uint256)": {
        "details": "See {IERC1155MetadataURI-uri}. This implementation returns the same URI for *all* token types. It relies on the token type ID substitution mechanism https://eips.ethereum.org/EIPS/eip-1155#metadata[defined in the EIP]. Clients calling this function must replace the `\\{id\\}` substring with the actual token type ID."
      }
    },
    "version": 1
  },
  "userdoc": {
    "kind": "user",
    "methods": {},
    "version": 1
  }
}