{
  "contractName": "Project",
  "abi": [
    {
      "inputs": [],
      "stateMutability": "nonpayable",
      "type": "constructor"
    },
    {
      "anonymous": false,
      "inputs": [
        {
          "indexed": true,
          "internalType": "address",
          "name": "from",
          "type": "address"
        },
        {
          "indexed": true,
          "internalType": "uint256",
          "name": "tokenId",
          "type": "uint256"
        },
        {
          "indexed": false,
          "internalType": "uint256",
          "name": "amount",
          "type": "uint256"
        },
        {
          "indexed": true,
          "internalType": "enum AdminActionReason",
          "name": "reason",
          "type": "uint8"
        }
      ],
      "name": "AdminBurn",
      "type": "event"
    },
    {
      "anonymous": false,
      "inputs": [
        {
          "indexed": false,
          "internalType": "address",
          "name": "previousAdmin",
          "type": "address"
        },
        {
          "indexed": false,
          "internalType": "address",
          "name": "newAdmin",
          "type": "address"
        }
      ],
      "name": "AdminChanged",
      "type": "event"
    },
    {
      "anonymous": false,
      "inputs": [
        {
          "indexed": true,
          "internalType": "address",
          "name": "from",
          "type": "address"
        },
        {
          "indexed": false,
          "internalType": "address",
          "name": "to",
          "type": "address"
        },
        {
          "indexed": true,
          "internalType": "uint256",
          "name": "tokenId",
          "type": "uint256"
        },
        {
          "indexed": false,
          "internalType": "uint256",
          "name": "amount",
          "type": "uint256"
        },
        {
          "indexed": true,
          "internalType": "enum AdminActionReason",
          "name": "reason",
          "type": "uint8"
        }
      ],
      "name": "AdminClawback",
      "type": "event"
    },
    {
      "anonymous": false,
      "inputs": [
        {
          "indexed": true,
          "internalType": "address",
          "name": "account",
          "type": "address"
        },
        {
          "indexed": true,
          "internalType": "address",
          "name": "operator",
          "type": "address"
        },
        {
          "indexed": false,
          "internalType": "bool",
          "name": "approved",
          "type": "bool"
        }
      ],
      "name": "ApprovalForAll",
      "type": "event"
    },
    {
      "anonymous": false,
      "inputs": [
        {
          "indexed": true,
          "internalType": "address",
          "name": "beacon",
          "type": "address"
        }
      ],
      "name": "BeaconUpgraded",
      "type": "event"
    },
    {
      "anonymous": false,
      "inputs": [
        {
          "indexed": true,
          "internalType": "address",
          "name": "account",
          "type": "address"
        },
        {
          "indexed": true,
          "internalType": "uint256",
          "name": "tokenId",
          "type": "uint256"
        },
        {
          "indexed": false,
          "internalType": "uint256",
          "name": "amount",
          "type": "uint256"
        },
        {
          "indexed": false,
          "internalType": "string",
          "name": "reason",
          "type": "string"
        },
        {
          "indexed": false,
          "internalType": "bytes",
          "name": "data",
          "type": "bytes"
        }
      ],
      "name": "CancelledCredits",
      "type": "event"
    },
    {
      "anonymous": false,
      "inputs": [
        {
          "indexed": true,
          "internalType": "uint256",
          "name": "exAnteTokenId",
          "type": "uint256"
        },
        {
          "indexed": true,
          "internalType": "uint256",
          "name": "exPostTokenId",
          "type": "uint256"
        },
        {
          "indexed": true,
          "internalType": "address",
          "name": "account",
          "type": "address"
        },
        {
          "indexed": false,
          "internalType": "uint256",
          "name": "amount",
          "type": "uint256"
        }
      ],
      "name": "ExAnteMinted",
      "type": "event"
    },
    {
      "anonymous": false,
      "inputs": [
        {
          "indexed": true,
          "internalType": "uint256",
          "name": "tokenId",
          "type": "uint256"
        },
        {
          "indexed": false,
          "internalType": "uint256",
          "name": "estimatedAmount",
          "type": "uint256"
        },
        {
          "indexed": false,
          "internalType": "uint256",
          "name": "verificationPeriodStart",
          "type": "uint256"
        },
        {
          "indexed": false,
          "internalType": "uint256",
          "name": "verificationPeriodEnd",
          "type": "uint256"
        },
        {
          "indexed": false,
          "internalType": "string",
          "name": "serialization",
          "type": "string"
        }
      ],
      "name": "ExPostCreated",
      "type": "event"
    },
    {
      "anonymous": false,
      "inputs": [
        {
          "indexed": true,
          "internalType": "uint256",
          "name": "tokenId",
          "type": "uint256"
        },
        {
          "indexed": false,
          "internalType": "uint256",
          "name": "amount",
          "type": "uint256"
        },
        {
          "indexed": false,
          "internalType": "uint256",
          "name": "amountToAnteHolders",
          "type": "uint256"
        },
        {
          "indexed": false,
          "internalType": "uint256",
          "name": "verificationPeriodStart",
          "type": "uint256"
        },
        {
          "indexed": false,
          "internalType": "uint256",
          "name": "verificationPeriodEnd",
          "type": "uint256"
        },
        {
          "indexed": false,
          "internalType": "string",
          "name": "monitoringReport",
          "type": "string"
        }
      ],
      "name": "ExPostVerifiedAndMinted",
      "type": "event"
    },
    {
      "anonymous": false,
      "inputs": [
        {
          "indexed": true,
          "internalType": "address",
          "name": "account",
          "type": "address"
        },
        {
          "indexed": true,
          "internalType": "uint256",
          "name": "exPostTokenId",
          "type": "uint256"
        },
        {
          "indexed": false,
          "internalType": "uint256",
          "name": "exPostAmountReceived",
          "type": "uint256"
        },
        {
          "indexed": false,
          "internalType": "uint256",
          "name": "exAnteAmountBurned",
          "type": "uint256"
        }
      ],
      "name": "ExchangeAnteForPost",
      "type": "event"
    },
    {
      "anonymous": false,
      "inputs": [
        {
          "indexed": false,
          "internalType": "uint8",
          "name": "version",
          "type": "uint8"
        }
      ],
      "name": "Initialized",
      "type": "event"
    },
    {
      "anonymous": false,
      "inputs": [
        {
          "indexed": false,
          "internalType": "address",
          "name": "account",
          "type": "address"
        }
      ],
      "name": "Paused",
      "type": "event"
    },
    {
      "anonymous": false,
      "inputs": [
        {
          "indexed": true,
          "internalType": "address",
          "name": "account",
          "type": "address"
        },
        {
          "indexed": true,
          "internalType": "uint256",
          "name": "tokenId",
          "type": "uint256"
        },
        {
          "indexed": false,
          "internalType": "uint256",
          "name": "amount",
          "type": "uint256"
        },
        {
          "indexed": false,
          "internalType": "uint256",
          "name": "nftTokenId",
          "type": "uint256"
        },
        {
          "indexed": false,
          "internalType": "bytes",
          "name": "data",
          "type": "bytes"
        }
      ],
      "name": "RetiredVintage",
      "type": "event"
    },
    {
      "anonymous": false,
      "inputs": [
        {
          "indexed": true,
          "internalType": "bytes32",
          "name": "role",
          "type": "bytes32"
        },
        {
          "indexed": true,
          "internalType": "bytes32",
          "name": "previousAdminRole",
          "type": "bytes32"
        },
        {
          "indexed": true,
          "internalType": "bytes32",
          "name": "newAdminRole",
          "type": "bytes32"
        }
      ],
      "name": "RoleAdminChanged",
      "type": "event"
    },
    {
      "anonymous": false,
      "inputs": [
        {
          "indexed": true,
          "internalType": "bytes32",
          "name": "role",
          "type": "bytes32"
        },
        {
          "indexed": true,
          "internalType": "address",
          "name": "account",
          "type": "address"
        },
        {
          "indexed": true,
          "internalType": "address",
          "name": "sender",
          "type": "address"
        }
      ],
      "name": "RoleGranted",
      "type": "event"
    },
    {
      "anonymous": false,
      "inputs": [
        {
          "indexed": true,
          "internalType": "bytes32",
          "name": "role",
          "type": "bytes32"
        },
        {
          "indexed": true,
          "internalType": "address",
          "name": "account",
          "type": "address"
        },
        {
          "indexed": true,
          "internalType": "address",
          "name": "sender",
          "type": "address"
        }
      ],
      "name": "RoleRevoked",
      "type": "event"
    },
    {
      "anonymous": false,
      "inputs": [
        {
          "indexed": true,
          "internalType": "address",
          "name": "operator",
          "type": "address"
        },
        {
          "indexed": true,
          "internalType": "address",
          "name": "from",
          "type": "address"
        },
        {
          "indexed": true,
          "internalType": "address",
          "name": "to",
          "type": "address"
        },
        {
          "indexed": false,
          "internalType": "uint256[]",
          "name": "ids",
          "type": "uint256[]"
        },
        {
          "indexed": false,
          "internalType": "uint256[]",
          "name": "values",
          "type": "uint256[]"
        }
      ],
      "name": "TransferBatch",
      "type": "event"
    },
    {
      "anonymous": false,
      "inputs": [
        {
          "indexed": false,
          "internalType": "bytes",
          "name": "signature",
          "type": "bytes"
        },
        {
          "components": [
            {
              "internalType": "uint256",
              "name": "deadline",
              "type": "uint256"
            },
            {
              "internalType": "string",
              "name": "description",
              "type": "string"
            },
            {
              "internalType": "address",
              "name": "signer",
              "type": "address"
            },
            {
              "internalType": "address",
              "name": "to",
              "type": "address"
            },
            {
              "internalType": "uint256",
              "name": "tokenId",
              "type": "uint256"
            },
            {
              "internalType": "uint256",
              "name": "amount",
              "type": "uint256"
            },
            {
              "internalType": "uint256",
              "name": "nonce",
              "type": "uint256"
            }
          ],
          "indexed": false,
          "internalType": "struct signatureTransferPayload",
          "name": "payload",
          "type": "tuple"
        }
      ],
      "name": "TransferSignatureValid",
      "type": "event"
    },
    {
      "anonymous": false,
      "inputs": [
        {
          "indexed": true,
          "internalType": "address",
          "name": "operator",
          "type": "address"
        },
        {
          "indexed": true,
          "internalType": "address",
          "name": "from",
          "type": "address"
        },
        {
          "indexed": true,
          "internalType": "address",
          "name": "to",
          "type": "address"
        },
        {
          "indexed": false,
          "internalType": "uint256",
          "name": "id",
          "type": "uint256"
        },
        {
          "indexed": false,
          "internalType": "uint256",
          "name": "value",
          "type": "uint256"
        }
      ],
      "name": "TransferSingle",
      "type": "event"
    },
    {
      "anonymous": false,
      "inputs": [
        {
          "indexed": false,
          "internalType": "string",
          "name": "value",
          "type": "string"
        },
        {
          "indexed": true,
          "internalType": "uint256",
          "name": "id",
          "type": "uint256"
        }
      ],
      "name": "URI",
      "type": "event"
    },
    {
      "anonymous": false,
      "inputs": [
        {
          "indexed": false,
          "internalType": "address",
          "name": "account",
          "type": "address"
        }
      ],
      "name": "Unpaused",
      "type": "event"
    },
    {
      "anonymous": false,
      "inputs": [
        {
          "indexed": true,
          "internalType": "address",
          "name": "implementation",
          "type": "address"
        }
      ],
      "name": "Upgraded",
      "type": "event"
    },
    {
      "anonymous": false,
      "inputs": [
        {
          "indexed": true,
          "internalType": "uint256",
          "name": "tokenId",
          "type": "uint256"
        },
        {
          "indexed": false,
          "internalType": "uint256",
          "name": "newEstimate",
          "type": "uint256"
        },
        {
          "indexed": false,
          "internalType": "uint256",
          "name": "oldEstimate",
          "type": "uint256"
        },
        {
          "indexed": true,
          "internalType": "enum AdminActionReason",
          "name": "reason",
          "type": "uint8"
        }
      ],
      "name": "VintageMitigationEstimateChanged",
      "type": "event"
    },
    {
      "inputs": [],
      "name": "ANTE_MINTER_ROLE",
      "outputs": [
        {
          "internalType": "bytes32",
          "name": "",
          "type": "bytes32"
        }
      ],
      "stateMutability": "view",
      "type": "function",
      "constant": true
    },
    {
      "inputs": [],
      "name": "BLACKLISTED",
      "outputs": [
        {
          "internalType": "bytes32",
          "name": "",
          "type": "bytes32"
        }
      ],
      "stateMutability": "view",
      "type": "function",
      "constant": true
    },
    {
      "inputs": [],
      "name": "BLACKLISTER_ROLE",
      "outputs": [
        {
          "internalType": "bytes32",
          "name": "",
          "type": "bytes32"
        }
      ],
      "stateMutability": "view",
      "type": "function",
      "constant": true
    },
    {
      "inputs": [],
      "name": "BURNER_ROLE",
      "outputs": [
        {
          "internalType": "bytes32",
          "name": "",
          "type": "bytes32"
        }
      ],
      "stateMutability": "view",
      "type": "function",
      "constant": true
    },
    {
      "inputs": [],
      "name": "CLAWBACK_ROLE",
      "outputs": [
        {
          "internalType": "bytes32",
          "name": "",
          "type": "bytes32"
        }
      ],
      "stateMutability": "view",
      "type": "function",
      "constant": true
    },
    {
      "inputs": [],
      "name": "DEFAULT_ADMIN_ROLE",
      "outputs": [
        {
          "internalType": "bytes32",
          "name": "",
          "type": "bytes32"
        }
      ],
      "stateMutability": "view",
      "type": "function",
      "constant": true
    },
    {
      "inputs": [],
      "name": "MINTER_ROLE",
      "outputs": [
        {
          "internalType": "bytes32",
          "name": "",
          "type": "bytes32"
        }
      ],
      "stateMutability": "view",
      "type": "function",
      "constant": true
    },
    {
      "inputs": [],
      "name": "PAUSER_ROLE",
      "outputs": [
        {
          "internalType": "bytes32",
          "name": "",
          "type": "bytes32"
        }
      ],
      "stateMutability": "view",
      "type": "function",
      "constant": true
    },
    {
      "inputs": [],
      "name": "POST_MINTER_ROLE",
      "outputs": [
        {
          "internalType": "bytes32",
          "name": "",
          "type": "bytes32"
        }
      ],
      "stateMutability": "view",
      "type": "function",
      "constant": true
    },
    {
      "inputs": [],
      "name": "UPGRADER_ROLE",
      "outputs": [
        {
          "internalType": "bytes32",
          "name": "",
          "type": "bytes32"
        }
      ],
      "stateMutability": "view",
      "type": "function",
      "constant": true
    },
    {
      "inputs": [],
      "name": "URI_SETTER_ROLE",
      "outputs": [
        {
          "internalType": "bytes32",
          "name": "",
          "type": "bytes32"
        }
      ],
      "stateMutability": "view",
      "type": "function",
      "constant": true
    },
    {
      "inputs": [],
      "name": "VERIFIER_ROLE",
      "outputs": [
        {
          "internalType": "bytes32",
          "name": "",
          "type": "bytes32"
        }
      ],
      "stateMutability": "view",
      "type": "function",
      "constant": true
    },
    {
      "inputs": [
        {
          "internalType": "address",
          "name": "_contractRegistry",
          "type": "address"
        },
        {
          "internalType": "uint8",
          "name": "_maxAntePerc",
          "type": "uint8"
        },
        {
          "internalType": "uint256",
          "name": "_projectId",
          "type": "uint256"
        },
        {
          "internalType": "string",
          "name": "_projectName",
          "type": "string"
        }
      ],
      "name": "__ProjectStorage_init",
      "outputs": [],
      "stateMutability": "nonpayable",
      "type": "function"
    },
    {
      "inputs": [
        {
          "internalType": "address",
          "name": "account",
          "type": "address"
        },
        {
          "internalType": "uint256",
          "name": "id",
          "type": "uint256"
        }
      ],
      "name": "balanceOf",
      "outputs": [
        {
          "internalType": "uint256",
          "name": "",
          "type": "uint256"
        }
      ],
      "stateMutability": "view",
      "type": "function",
      "constant": true
    },
    {
      "inputs": [
        {
          "internalType": "address[]",
          "name": "accounts",
          "type": "address[]"
        },
        {
          "internalType": "uint256[]",
          "name": "ids",
          "type": "uint256[]"
        }
      ],
      "name": "balanceOfBatch",
      "outputs": [
        {
          "internalType": "uint256[]",
          "name": "",
          "type": "uint256[]"
        }
      ],
      "stateMutability": "view",
      "type": "function",
      "constant": true
    },
    {
      "inputs": [],
      "name": "contractRegistry",
      "outputs": [
        {
          "internalType": "address",
          "name": "",
          "type": "address"
        }
      ],
      "stateMutability": "view",
      "type": "function",
      "constant": true
    },
    {
      "inputs": [
        {
          "internalType": "uint256",
          "name": "",
          "type": "uint256"
        }
      ],
      "name": "exAnteToExPostTokenId",
      "outputs": [
        {
          "internalType": "uint256",
          "name": "",
          "type": "uint256"
        }
      ],
      "stateMutability": "view",
      "type": "function",
      "constant": true
    },
    {
      "inputs": [
        {
          "internalType": "uint256",
          "name": "",
          "type": "uint256"
        }
      ],
      "name": "exPostToExAnteTokenId",
      "outputs": [
        {
          "internalType": "uint256",
          "name": "",
          "type": "uint256"
        }
      ],
      "stateMutability": "view",
      "type": "function",
      "constant": true
    },
    {
      "inputs": [
        {
          "internalType": "uint256",
          "name": "",
          "type": "uint256"
        }
      ],
      "name": "exPostVintageMapping",
      "outputs": [
        {
          "internalType": "string",
          "name": "serialization",
          "type": "string"
        },
        {
          "internalType": "uint256",
          "name": "estMitigations",
          "type": "uint256"
        },
        {
          "internalType": "uint256",
          "name": "verificationPeriodStart",
          "type": "uint256"
        },
        {
          "internalType": "uint256",
          "name": "verificationPeriodEnd",
          "type": "uint256"
        },
        {
          "internalType": "uint256",
          "name": "lastVerificationTimestamp",
          "type": "uint256"
        }
      ],
      "stateMutability": "view",
      "type": "function",
      "constant": true
    },
    {
      "inputs": [
        {
          "internalType": "uint256",
          "name": "id",
          "type": "uint256"
        }
      ],
      "name": "exists",
      "outputs": [
        {
          "internalType": "bool",
          "name": "",
          "type": "bool"
        }
      ],
      "stateMutability": "view",
      "type": "function",
      "constant": true
    },
    {
      "inputs": [
        {
          "internalType": "bytes32",
          "name": "role",
          "type": "bytes32"
        }
      ],
      "name": "getRoleAdmin",
      "outputs": [
        {
          "internalType": "bytes32",
          "name": "",
          "type": "bytes32"
        }
      ],
      "stateMutability": "view",
      "type": "function",
      "constant": true
    },
    {
      "inputs": [
        {
          "internalType": "bytes32",
          "name": "role",
          "type": "bytes32"
        },
        {
          "internalType": "address",
          "name": "account",
          "type": "address"
        }
      ],
      "name": "grantRole",
      "outputs": [],
      "stateMutability": "nonpayable",
      "type": "function"
    },
    {
      "inputs": [
        {
          "internalType": "bytes32",
          "name": "role",
          "type": "bytes32"
        },
        {
          "internalType": "address",
          "name": "account",
          "type": "address"
        }
      ],
      "name": "hasRole",
      "outputs": [
        {
          "internalType": "bool",
          "name": "",
          "type": "bool"
        }
      ],
      "stateMutability": "view",
      "type": "function",
      "constant": true
    },
    {
      "inputs": [
        {
          "internalType": "address",
          "name": "account",
          "type": "address"
        },
        {
          "internalType": "address",
          "name": "operator",
          "type": "address"
        }
      ],
      "name": "isApprovedForAll",
      "outputs": [
        {
          "internalType": "bool",
          "name": "",
          "type": "bool"
        }
      ],
      "stateMutability": "view",
      "type": "function",
      "constant": true
    },
    {
      "inputs": [],
      "name": "maxAntePercentage",
      "outputs": [
        {
          "internalType": "uint8",
          "name": "",
          "type": "uint8"
        }
      ],
      "stateMutability": "view",
      "type": "function",
      "constant": true
    },
    {
      "inputs": [
        {
          "internalType": "address",
          "name": "",
          "type": "address"
        },
        {
          "internalType": "address",
          "name": "",
          "type": "address"
        },
        {
          "internalType": "uint256[]",
          "name": "",
          "type": "uint256[]"
        },
        {
          "internalType": "uint256[]",
          "name": "",
          "type": "uint256[]"
        },
        {
          "internalType": "bytes",
          "name": "",
          "type": "bytes"
        }
      ],
      "name": "onERC1155BatchReceived",
      "outputs": [
        {
          "internalType": "bytes4",
          "name": "",
          "type": "bytes4"
        }
      ],
      "stateMutability": "nonpayable",
      "type": "function"
    },
    {
      "inputs": [
        {
          "internalType": "address",
          "name": "",
          "type": "address"
        },
        {
          "internalType": "address",
          "name": "",
          "type": "address"
        },
        {
          "internalType": "uint256",
          "name": "",
          "type": "uint256"
        },
        {
          "internalType": "uint256",
          "name": "",
          "type": "uint256"
        },
        {
          "internalType": "bytes",
          "name": "",
          "type": "bytes"
        }
      ],
      "name": "onERC1155Received",
      "outputs": [
        {
          "internalType": "bytes4",
          "name": "",
          "type": "bytes4"
        }
      ],
      "stateMutability": "nonpayable",
      "type": "function"
    },
    {
      "inputs": [],
      "name": "paused",
      "outputs": [
        {
          "internalType": "bool",
          "name": "",
          "type": "bool"
        }
      ],
      "stateMutability": "view",
      "type": "function",
      "constant": true
    },
    {
      "inputs": [],
      "name": "projectId",
      "outputs": [
        {
          "internalType": "uint256",
          "name": "",
          "type": "uint256"
        }
      ],
      "stateMutability": "view",
      "type": "function",
      "constant": true
    },
    {
      "inputs": [],
      "name": "projectName",
      "outputs": [
        {
          "internalType": "string",
          "name": "",
          "type": "string"
        }
      ],
      "stateMutability": "view",
      "type": "function",
      "constant": true
    },
    {
      "inputs": [],
      "name": "proxiableUUID",
      "outputs": [
        {
          "internalType": "bytes32",
          "name": "",
          "type": "bytes32"
        }
      ],
      "stateMutability": "view",
      "type": "function",
      "constant": true
    },
    {
      "inputs": [
        {
          "internalType": "bytes32",
          "name": "role",
          "type": "bytes32"
        },
        {
          "internalType": "address",
          "name": "account",
          "type": "address"
        }
      ],
      "name": "renounceRole",
      "outputs": [],
      "stateMutability": "nonpayable",
      "type": "function"
    },
    {
      "inputs": [
        {
          "internalType": "uint256",
          "name": "",
          "type": "uint256"
        }
      ],
      "name": "retirementMapping",
      "outputs": [
        {
          "internalType": "address",
          "name": "retiree",
          "type": "address"
        },
        {
          "internalType": "uint256",
          "name": "amount",
          "type": "uint256"
        },
        {
          "internalType": "uint256",
          "name": "vintageTokenId",
          "type": "uint256"
        },
        {
          "internalType": "string",
          "name": "retireeName",
          "type": "string"
        },
        {
          "internalType": "string",
          "name": "customUri",
          "type": "string"
        },
        {
          "internalType": "string",
          "name": "comment",
          "type": "string"
        }
      ],
      "stateMutability": "view",
      "type": "function",
      "constant": true
    },
    {
      "inputs": [
        {
          "internalType": "bytes32",
          "name": "role",
          "type": "bytes32"
        },
        {
          "internalType": "address",
          "name": "account",
          "type": "address"
        }
      ],
      "name": "revokeRole",
      "outputs": [],
      "stateMutability": "nonpayable",
      "type": "function"
    },
    {
      "inputs": [
        {
          "internalType": "address",
          "name": "from",
          "type": "address"
        },
        {
          "internalType": "address",
          "name": "to",
          "type": "address"
        },
        {
          "internalType": "uint256[]",
          "name": "ids",
          "type": "uint256[]"
        },
        {
          "internalType": "uint256[]",
          "name": "amounts",
          "type": "uint256[]"
        },
        {
          "internalType": "bytes",
          "name": "data",
          "type": "bytes"
        }
      ],
      "name": "safeBatchTransferFrom",
      "outputs": [],
      "stateMutability": "nonpayable",
      "type": "function"
    },
    {
      "inputs": [
        {
          "internalType": "address",
          "name": "from",
          "type": "address"
        },
        {
          "internalType": "address",
          "name": "to",
          "type": "address"
        },
        {
          "internalType": "uint256",
          "name": "id",
          "type": "uint256"
        },
        {
          "internalType": "uint256",
          "name": "amount",
          "type": "uint256"
        },
        {
          "internalType": "bytes",
          "name": "data",
          "type": "bytes"
        }
      ],
      "name": "safeTransferFrom",
      "outputs": [],
      "stateMutability": "nonpayable",
      "type": "function"
    },
    {
      "inputs": [
        {
          "internalType": "string",
          "name": "",
          "type": "string"
        }
      ],
      "name": "serializationToExPostTokenIdMapping",
      "outputs": [
        {
          "internalType": "uint256",
          "name": "",
          "type": "uint256"
        }
      ],
      "stateMutability": "view",
      "type": "function",
      "constant": true
    },
    {
      "inputs": [
        {
          "internalType": "address",
          "name": "operator",
          "type": "address"
        },
        {
          "internalType": "bool",
          "name": "approved",
          "type": "bool"
        }
      ],
      "name": "setApprovalForAll",
      "outputs": [],
      "stateMutability": "nonpayable",
      "type": "function"
    },
    {
      "inputs": [
        {
          "internalType": "address",
          "name": "",
          "type": "address"
        }
      ],
      "name": "signatureNonces",
      "outputs": [
        {
          "internalType": "uint32",
          "name": "",
          "type": "uint32"
        }
      ],
      "stateMutability": "view",
      "type": "function",
      "constant": true
    },
    {
      "inputs": [],
      "name": "topTokenId",
      "outputs": [
        {
          "internalType": "uint256",
          "name": "",
          "type": "uint256"
        }
      ],
      "stateMutability": "view",
      "type": "function",
      "constant": true
    },
    {
      "inputs": [
        {
          "internalType": "uint256",
          "name": "id",
          "type": "uint256"
        }
      ],
      "name": "totalSupply",
      "outputs": [
        {
          "internalType": "uint256",
          "name": "",
          "type": "uint256"
        }
      ],
      "stateMutability": "view",
      "type": "function",
      "constant": true
    },
    {
      "inputs": [
        {
          "internalType": "address",
          "name": "newImplementation",
          "type": "address"
        }
      ],
      "name": "upgradeTo",
      "outputs": [],
      "stateMutability": "nonpayable",
      "type": "function"
    },
    {
      "inputs": [
        {
          "internalType": "address",
          "name": "newImplementation",
          "type": "address"
        },
        {
          "internalType": "bytes",
          "name": "data",
          "type": "bytes"
        }
      ],
      "name": "upgradeToAndCall",
      "outputs": [],
      "stateMutability": "payable",
      "type": "function",
      "payable": true
    },
    {
      "inputs": [
        {
          "internalType": "uint256",
          "name": "",
          "type": "uint256"
        }
      ],
      "name": "uri",
      "outputs": [
        {
          "internalType": "string",
          "name": "",
          "type": "string"
        }
      ],
      "stateMutability": "view",
      "type": "function",
      "constant": true
    },
    {
      "inputs": [
        {
          "internalType": "address",
          "name": "_contractRegistry",
          "type": "address"
        },
        {
          "internalType": "address",
          "name": "_owner",
          "type": "address"
        },
        {
          "internalType": "uint256",
          "name": "_projectId",
          "type": "uint256"
        },
        {
          "internalType": "string",
          "name": "_projectName",
          "type": "string"
        }
      ],
      "name": "initialize",
      "outputs": [],
      "stateMutability": "nonpayable",
      "type": "function"
    },
    {
      "inputs": [
        {
          "internalType": "uint256",
          "name": "tokenId",
          "type": "uint256"
        }
      ],
      "name": "isExPostToken",
      "outputs": [
        {
          "internalType": "bool",
          "name": "",
          "type": "bool"
        }
      ],
      "stateMutability": "view",
      "type": "function",
      "constant": true
    },
    {
      "inputs": [],
      "name": "testUpgrade",
      "outputs": [
        {
          "internalType": "string",
          "name": "",
          "type": "string"
        }
      ],
      "stateMutability": "pure",
      "type": "function",
      "constant": true
    },
    {
      "inputs": [
        {
          "internalType": "uint256",
          "name": "estAmount",
          "type": "uint256"
        },
        {
          "internalType": "uint256",
          "name": "verificationPeriodStart",
          "type": "uint256"
        },
        {
          "internalType": "uint256",
          "name": "verificationPeriodEnd",
          "type": "uint256"
        },
        {
          "internalType": "string",
          "name": "serialization",
          "type": "string"
        }
      ],
      "name": "createExPostVintage",
      "outputs": [],
      "stateMutability": "nonpayable",
      "type": "function"
    },
    {
      "inputs": [
        {
          "components": [
            {
              "internalType": "string",
              "name": "serialization",
              "type": "string"
            },
            {
              "internalType": "uint256",
              "name": "estMitigations",
              "type": "uint256"
            },
            {
              "internalType": "uint256",
              "name": "verificationPeriodStart",
              "type": "uint256"
            },
            {
              "internalType": "uint256",
              "name": "verificationPeriodEnd",
              "type": "uint256"
            },
            {
              "internalType": "uint256",
              "name": "lastVerificationTimestamp",
              "type": "uint256"
            }
          ],
          "internalType": "struct VintageData[]",
          "name": "vintages",
          "type": "tuple[]"
        }
      ],
      "name": "createExPostVintageBatch",
      "outputs": [],
      "stateMutability": "nonpayable",
      "type": "function"
    },
    {
      "inputs": [
        {
          "internalType": "address",
          "name": "account",
          "type": "address"
        },
        {
          "internalType": "uint256",
          "name": "exPostTokenId",
          "type": "uint256"
        },
        {
          "internalType": "uint256",
          "name": "amount",
          "type": "uint256"
        },
        {
          "internalType": "bytes",
          "name": "data",
          "type": "bytes"
        }
      ],
      "name": "mintExAnte",
      "outputs": [],
      "stateMutability": "nonpayable",
      "type": "function"
    },
    {
      "inputs": [
        {
          "internalType": "uint256",
          "name": "tokenId",
          "type": "uint256"
        },
        {
          "internalType": "uint256",
          "name": "newEstAmount",
          "type": "uint256"
        },
        {
          "internalType": "enum AdminActionReason",
          "name": "reason",
          "type": "uint8"
        }
      ],
      "name": "changeVintageMitigationEstimate",
      "outputs": [],
      "stateMutability": "nonpayable",
      "type": "function"
    },
    {
      "inputs": [
        {
          "internalType": "address",
          "name": "verificationVault",
          "type": "address"
        },
        {
          "internalType": "uint256",
          "name": "tokenId",
          "type": "uint256"
        },
        {
          "internalType": "uint256",
          "name": "amountVerified",
          "type": "uint256"
        },
        {
          "internalType": "uint256",
          "name": "amountToAnteHolders",
          "type": "uint256"
        },
        {
          "internalType": "uint256",
          "name": "verificationPeriodStart",
          "type": "uint256"
        },
        {
          "internalType": "uint256",
          "name": "verificationPeriodEnd",
          "type": "uint256"
        },
        {
          "internalType": "string",
          "name": "monitoringReport",
          "type": "string"
        }
      ],
      "name": "verifyAndMintExPost",
      "outputs": [],
      "stateMutability": "nonpayable",
      "type": "function"
    },
    {
      "inputs": [
        {
          "internalType": "address",
          "name": "from",
          "type": "address"
        },
        {
          "internalType": "uint256",
          "name": "tokenId",
          "type": "uint256"
        },
        {
          "internalType": "uint256",
          "name": "amount",
          "type": "uint256"
        },
        {
          "internalType": "enum AdminActionReason",
          "name": "reason",
          "type": "uint8"
        }
      ],
      "name": "adminBurn",
      "outputs": [],
      "stateMutability": "nonpayable",
      "type": "function"
    },
    {
      "inputs": [
        {
          "internalType": "address",
          "name": "from",
          "type": "address"
        },
        {
          "internalType": "address",
          "name": "to",
          "type": "address"
        },
        {
          "internalType": "uint256",
          "name": "tokenId",
          "type": "uint256"
        },
        {
          "internalType": "uint256",
          "name": "amount",
          "type": "uint256"
        },
        {
          "internalType": "enum AdminActionReason",
          "name": "reason",
          "type": "uint8"
        }
      ],
      "name": "adminClawback",
      "outputs": [],
      "stateMutability": "nonpayable",
      "type": "function"
    },
    {
      "inputs": [
        {
          "internalType": "address[]",
          "name": "accounts",
          "type": "address[]"
        },
        {
          "internalType": "uint256",
          "name": "exPostTokenId",
          "type": "uint256"
        },
        {
          "internalType": "bytes",
          "name": "data",
          "type": "bytes"
        }
      ],
      "name": "exchangeAnteForPostEvenSteven",
      "outputs": [],
      "stateMutability": "nonpayable",
      "type": "function"
    },
    {
      "inputs": [
        {
          "internalType": "uint256",
          "name": "exAnteTokenId",
          "type": "uint256"
        }
      ],
      "name": "getExPostVintageData",
      "outputs": [
        {
          "components": [
            {
              "internalType": "string",
              "name": "serialization",
              "type": "string"
            },
            {
              "internalType": "uint256",
              "name": "estMitigations",
              "type": "uint256"
            },
            {
              "internalType": "uint256",
              "name": "verificationPeriodStart",
              "type": "uint256"
            },
            {
              "internalType": "uint256",
              "name": "verificationPeriodEnd",
              "type": "uint256"
            },
            {
              "internalType": "uint256",
              "name": "lastVerificationTimestamp",
              "type": "uint256"
            }
          ],
          "internalType": "struct VintageData",
          "name": "",
          "type": "tuple"
        }
      ],
      "stateMutability": "view",
      "type": "function",
      "constant": true
    },
    {
      "inputs": [
        {
          "internalType": "bytes",
          "name": "signature",
          "type": "bytes"
        },
        {
          "components": [
            {
              "internalType": "uint256",
              "name": "deadline",
              "type": "uint256"
            },
            {
              "internalType": "string",
              "name": "description",
              "type": "string"
            },
            {
              "internalType": "address",
              "name": "signer",
              "type": "address"
            },
            {
              "internalType": "address",
              "name": "to",
              "type": "address"
            },
            {
              "internalType": "uint256",
              "name": "tokenId",
              "type": "uint256"
            },
            {
              "internalType": "uint256",
              "name": "amount",
              "type": "uint256"
            },
            {
              "internalType": "uint256",
              "name": "nonce",
              "type": "uint256"
            }
          ],
          "internalType": "struct signatureTransferPayload",
          "name": "payload",
          "type": "tuple"
        },
        {
          "internalType": "string",
          "name": "retireeName",
          "type": "string"
        },
        {
          "internalType": "string",
          "name": "customUri",
          "type": "string"
        },
        {
          "internalType": "string",
          "name": "comment",
          "type": "string"
        },
        {
          "internalType": "bytes",
          "name": "data",
          "type": "bytes"
        }
      ],
      "name": "transferAndRetireFromSignature",
      "outputs": [
        {
          "internalType": "uint256",
          "name": "nftTokenId",
          "type": "uint256"
        }
      ],
      "stateMutability": "nonpayable",
      "type": "function"
    },
    {
      "inputs": [
        {
          "internalType": "bytes",
          "name": "signature",
          "type": "bytes"
        },
        {
          "components": [
            {
              "internalType": "uint256",
              "name": "deadline",
              "type": "uint256"
            },
            {
              "internalType": "string",
              "name": "description",
              "type": "string"
            },
            {
              "internalType": "address",
              "name": "signer",
              "type": "address"
            },
            {
              "internalType": "address",
              "name": "to",
              "type": "address"
            },
            {
              "internalType": "uint256",
              "name": "tokenId",
              "type": "uint256"
            },
            {
              "internalType": "uint256",
              "name": "amount",
              "type": "uint256"
            },
            {
              "internalType": "uint256",
              "name": "nonce",
              "type": "uint256"
            }
          ],
          "internalType": "struct signatureTransferPayload",
          "name": "payload",
          "type": "tuple"
        },
        {
          "internalType": "bytes",
          "name": "data",
          "type": "bytes"
        }
      ],
      "name": "transferFromSignature",
      "outputs": [],
      "stateMutability": "payable",
      "type": "function",
      "payable": true
    },
    {
      "inputs": [
        {
          "internalType": "uint256",
          "name": "tokenId",
          "type": "uint256"
        },
        {
          "internalType": "uint256",
          "name": "amount",
          "type": "uint256"
        },
        {
          "internalType": "string",
          "name": "retireeName",
          "type": "string"
        },
        {
          "internalType": "string",
          "name": "customUri",
          "type": "string"
        },
        {
          "internalType": "string",
          "name": "comment",
          "type": "string"
        },
        {
          "internalType": "bytes",
          "name": "data",
          "type": "bytes"
        }
      ],
      "name": "retire",
      "outputs": [
        {
          "internalType": "uint256",
          "name": "nftTokenId",
          "type": "uint256"
        }
      ],
      "stateMutability": "nonpayable",
      "type": "function"
    },
    {
      "inputs": [
        {
          "internalType": "bytes",
          "name": "signature",
          "type": "bytes"
        },
        {
          "components": [
            {
              "internalType": "uint256",
              "name": "deadline",
              "type": "uint256"
            },
            {
              "internalType": "string",
              "name": "description",
              "type": "string"
            },
            {
              "internalType": "address",
              "name": "signer",
              "type": "address"
            },
            {
              "internalType": "address",
              "name": "to",
              "type": "address"
            },
            {
              "internalType": "uint256",
              "name": "tokenId",
              "type": "uint256"
            },
            {
              "internalType": "uint256",
              "name": "amount",
              "type": "uint256"
            },
            {
              "internalType": "uint256",
              "name": "nonce",
              "type": "uint256"
            }
          ],
          "internalType": "struct signatureTransferPayload",
          "name": "payload",
          "type": "tuple"
        },
        {
          "internalType": "string",
          "name": "retireeName",
          "type": "string"
        },
        {
          "internalType": "string",
          "name": "customUri",
          "type": "string"
        },
        {
          "internalType": "string",
          "name": "comment",
          "type": "string"
        },
        {
          "internalType": "bytes",
          "name": "data",
          "type": "bytes"
        }
      ],
      "name": "retireFromSignature",
      "outputs": [
        {
          "internalType": "uint256",
          "name": "nftTokenId",
          "type": "uint256"
        }
      ],
      "stateMutability": "nonpayable",
      "type": "function"
    },
    {
      "inputs": [
        {
          "internalType": "bytes",
          "name": "signature",
          "type": "bytes"
        },
        {
          "components": [
            {
              "internalType": "uint256",
              "name": "deadline",
              "type": "uint256"
            },
            {
              "internalType": "string",
              "name": "description",
              "type": "string"
            },
            {
              "internalType": "address",
              "name": "signer",
              "type": "address"
            },
            {
              "internalType": "address",
              "name": "to",
              "type": "address"
            },
            {
              "internalType": "uint256",
              "name": "tokenId",
              "type": "uint256"
            },
            {
              "internalType": "uint256",
              "name": "amount",
              "type": "uint256"
            },
            {
              "internalType": "uint256",
              "name": "nonce",
              "type": "uint256"
            }
          ],
          "internalType": "struct signatureTransferPayload",
          "name": "payload",
          "type": "tuple"
        },
        {
          "internalType": "string",
          "name": "comment",
          "type": "string"
        },
        {
          "internalType": "bytes",
          "name": "data",
          "type": "bytes"
        }
      ],
      "name": "cancelCreditsFromSignature",
      "outputs": [],
      "stateMutability": "nonpayable",
      "type": "function"
    },
    {
      "inputs": [
        {
          "internalType": "string",
          "name": "newuri",
          "type": "string"
        }
      ],
      "name": "setURI",
      "outputs": [],
      "stateMutability": "nonpayable",
      "type": "function"
    },
    {
      "inputs": [],
      "name": "pause",
      "outputs": [],
      "stateMutability": "nonpayable",
      "type": "function"
    },
    {
      "inputs": [],
      "name": "unpause",
      "outputs": [],
      "stateMutability": "nonpayable",
      "type": "function"
    },
    {
      "inputs": [
        {
          "internalType": "bytes4",
          "name": "interfaceId",
          "type": "bytes4"
        }
      ],
      "name": "supportsInterface",
      "outputs": [
        {
          "internalType": "bool",
          "name": "",
          "type": "bool"
        }
      ],
      "stateMutability": "view",
      "type": "function",
      "constant": true
    }
  ],
  "bytecode": "0x60a0604052306080523480156200001557600080fd5b506200002062000026565b620000e8565b600054610100900460ff1615620000935760405162461bcd60e51b815260206004820152602760248201527f496e697469616c697a61626c653a20636f6e747261637420697320696e697469604482015266616c697a696e6760c81b606482015260840160405180910390fd5b60005460ff9081161015620000e6576000805460ff191660ff9081179091556040519081527f7f26b83ff96e1f2b6a682f133852f6798a09c465da95921460cefb38474024989060200160405180910390a15b565b608051615ffb62000120600039600081816116290152818161166901528181611aef01528181611b2f0152611bba0152615ffb6000f3fe6080604052600436106102dd5760003560e01c8062fdd58e146102e257806301ffc9a71461031557806302fe5305146103455780630cda95f9146103675780630e89341c1461038757806310c1e7a1146103b45780631b3b596b146103d457806322088ebf14610401578063248a9ca314610421578063282c51f3146104415780632ea05e44146104635780632eb2c2d6146104855780632f2ff15d146104a55780633584c384146104c557806336568abe146104f35780633659cfe6146105135780633a6e48b8146105335780633f4ba83a146105535780633fafa1271461056857806341a30d3c1461057f5780634e1273f41461059f5780634f1ef286146105cc5780634f558e79146105df57806352d1902d146105ff57806354ff07951461061457806357c537af1461064d5780635c975abb1461066d5780635e3bbaab14610685578063609d9564146106a7578063610e7012146106c757806361eeb089146106f45780636929a19c1461070b5780636f63984d1461073d578063728e68e31461075d57806379c276051461078e5780637f345710146107ae5780638456cb59146107d05780638f76c1da146107e557806391d148541461081357806396f495ae146108335780639a33e300146108535780639d6aed0b146108685780639d88358a146108965780639fec600b146108b6578063a0e1b171146108d6578063a217fddf146108f6578063a22cb4651461090b578063aa8b2ea71461092b578063abf410e51461094d578063af93ff721461097b578063bc197c811461099b578063bd85b039146109e0578063d539139314610a00578063d547741f14610a34578063dbd8483d14610a54578063deb0420714610a9d578063e36408d014610abd578063e63ab1e914610ad0578063e7705db614610af2578063e985e9c514610b14578063edc0b2e614610b5d578063f23a6e6114610b7f578063f242432a14610bab578063f515e6f214610bcb578063f72c0d8b14610bed575b600080fd5b3480156102ee57600080fd5b506103026102fd3660046147e3565b610c0f565b6040519081526020015b60405180910390f35b34801561032157600080fd5b50610335610330366004614823565b610ca7565b604051901515815260200161030c565b34801561035157600080fd5b5061036561036036600461491a565b610cb8565b005b34801561037357600080fd5b506103656103823660046149e9565b610cdd565b34801561039357600080fd5b506103a76103a2366004614a55565b610ecb565b60405161030c9190614ac6565b3480156103c057600080fd5b506103656103cf366004614ad9565b610f5f565b3480156103e057600080fd5b506103f46103ef366004614a55565b61115b565b60405161030c9190614b39565b34801561040d57600080fd5b5061036561041c366004614be2565b61127a565b34801561042d57600080fd5b5061030261043c366004614a55565b611523565b34801561044d57600080fd5b50610302600080516020615d9f83398151915281565b34801561046f57600080fd5b50610302600080516020615f6683398151915281565b34801561049157600080fd5b506103656104a0366004614cfa565b611538565b3480156104b157600080fd5b506103656104c0366004614d89565b611584565b3480156104d157600080fd5b506103026104e0366004614a55565b6101fe6020526000908152604090205481565b3480156104ff57600080fd5b5061036561050e366004614d89565b6115a5565b34801561051f57600080fd5b5061036561052e366004614db5565b61161f565b34801561053f57600080fd5b5061030261054e366004614dd0565b6116e7565b34801561055f57600080fd5b5061036561172a565b34801561057457600080fd5b506103026101f85481565b34801561058b57600080fd5b5061036561059a366004614e8e565b61174a565b3480156105ab57600080fd5b506105bf6105ba366004614f0b565b6119bc565b60405161030c9190614fa9565b6103656105da366004614fbc565b611ae5565b3480156105eb57600080fd5b506103356105fa366004614a55565b611b9a565b34801561060b57600080fd5b50610302611bad565b34801561062057600080fd5b5061030261062f36600461491a565b80516020818301810180516101ff8252928201919093012091525481565b34801561065957600080fd5b5061036561066836600461500e565b611c5c565b34801561067957600080fd5b5060c95460ff16610335565b34801561069157600080fd5b50610302600080516020615f8683398151915281565b3480156106b357600080fd5b506103026106c2366004615043565b611d6c565b3480156106d357600080fd5b506101f9546106e29060ff1681565b60405160ff909116815260200161030c565b34801561070057600080fd5b506103026101f75481565b34801561071757600080fd5b5061072b610726366004614a55565b611ee0565b60405161030c9695949392919061513c565b34801561074957600080fd5b50610335610758366004614a55565b6120ba565b34801561076957600080fd5b5061077d610778366004614a55565b6120e1565b60405161030c95949392919061518f565b34801561079a57600080fd5b506103656107a93660046151c6565b612198565b3480156107ba57600080fd5b50610302600080516020615ebf83398151915281565b3480156107dc57600080fd5b5061036561224e565b3480156107f157600080fd5b50610302610800366004614a55565b6101fd6020526000908152604090205481565b34801561081f57600080fd5b5061033561082e366004614d89565b61226e565b34801561083f57600080fd5b5061036561084e3660046152e2565b612299565b34801561085f57600080fd5b506103a761239b565b34801561087457600080fd5b50604080518082019091526005815264181718171960d91b60208201526103a7565b3480156108a257600080fd5b506103656108b1366004615339565b61242a565b3480156108c257600080fd5b506103656108d136600461537f565b6124a3565b3480156108e257600080fd5b506103656108f13660046153ac565b6126c9565b34801561090257600080fd5b50610302600081565b34801561091757600080fd5b506103656109263660046153ed565b612882565b34801561093757600080fd5b50610302600080516020615e9f83398151915281565b34801561095957600080fd5b506101fb5461096e906001600160a01b031681565b60405161030c9190615429565b34801561098757600080fd5b50610302610996366004615043565b61288d565b3480156109a757600080fd5b506109c76109b6366004614cfa565b63bc197c8160e01b95945050505050565b6040516001600160e01b0319909116815260200161030c565b3480156109ec57600080fd5b506103026109fb366004614a55565b6129e0565b348015610a0c57600080fd5b506103027f9f2df0fed2c77648de5860a4cc508cd0818c85b8b8a1ab4ceeef8d981c8956a681565b348015610a4057600080fd5b50610365610a4f366004614d89565b6129f2565b348015610a6057600080fd5b50610a88610a6f366004614db5565b6101c56020526000908152604090205463ffffffff1681565b60405163ffffffff909116815260200161030c565b348015610aa957600080fd5b50610365610ab836600461543d565b612a0e565b610365610acb366004615494565b612aa5565b348015610adc57600080fd5b50610302600080516020615eff83398151915281565b348015610afe57600080fd5b50610302600080516020615fa683398151915281565b348015610b2057600080fd5b50610335610b2f366004615515565b6001600160a01b03918216600090815260666020908152604080832093909416825291909152205460ff1690565b348015610b6957600080fd5b50610302600080516020615dff83398151915281565b348015610b8b57600080fd5b506109c7610b9a36600461553f565b63f23a6e6160e01b95945050505050565b348015610bb757600080fd5b50610365610bc636600461553f565b612bd9565b348015610bd757600080fd5b50610302600080516020615f4683398151915281565b348015610bf957600080fd5b50610302600080516020615e5f83398151915281565b60006001600160a01b038316610c7f5760405162461bcd60e51b815260206004820152602a60248201527f455243313135353a2061646472657373207a65726f206973206e6f742061207660448201526930b634b21037bbb732b960b11b60648201526084015b60405180910390fd5b5060009081526065602090815260408083206001600160a01b03949094168352929052205490565b6000610cb282612c1e565b92915050565b600080516020615ebf833981519152610cd081612c43565b610cd982612c4d565b5050565b81610ce7816120ba565b610d035760405162461bcd60e51b8152600401610c76906155a3565b60008381526101fe602052604081205490819003610d505760405162461bcd60e51b815260206004820152600a6024820152694e6f20686f6c6465727360b01b6044820152606401610c76565b6000610d5b826129e0565b90506000610d693087610c0f565b905060008111610dac5760405162461bcd60e51b815260206004820152600e60248201526d4e6f20706f737420737570706c7960901b6044820152606401610c76565b60005b8751811015610ec1576000610ddd898381518110610dcf57610dcf6155c7565b602002602001015186610c0f565b9050600084610dec85846155f3565b610df69190615612565b90508181811115610e045750805b898b8581518110610e1757610e176155c7565b60200260200101516001600160a01b03167ffa5cd0fcb25938b2f45b3ca175241bfb3739cf4db3cb7476846930ec714f13f28484604051610e59929190615634565b60405180910390a3610e858b8581518110610e7657610e766155c7565b60200260200101518883612c60565b610eab308c8681518110610e9b57610e9b6155c7565b60200260200101518c858d612dea565b5050508080610eb990615642565b915050610daf565b5050505050505050565b606060678054610eda9061565b565b80601f0160208091040260200160405190810160405280929190818152602001828054610f069061565b565b8015610f535780601f10610f2857610100808354040283529160200191610f53565b820191906000526020600020905b815481529060010190602001808311610f3657829003601f168201915b50505050509050919050565b600080516020615dff833981519152610f7781612c43565b83610f81816120ba565b610f9d5760405162461bcd60e51b8152600401610c76906155a3565b60008581526101fc6020526040812060038101546004909101548791116040518060400160405280600f81526020016e18dc99591a5d081d995c9a599a5959608a1b815250906110005760405162461bcd60e51b8152600401610c769190614ac6565b5060008781526101fe60205260408120549081900361103957506101f780546001019081905560008881526101fe602052604090208190555b60008881526101fc6020526040812060010154906110568a6129e0565b90506000611064828461568f565b6101f95490915060009060649061107e9060ff16846155f3565b6110889190615612565b90506000611095866129e0565b9050816110a28d836156a6565b11156110e15760405162461bcd60e51b815260206004820152600e60248201526d4d6178696d756d20737570706c7960901b6044820152606401610c76565b8c6101fd6000888152602001908152602001600020819055508d6001600160a01b03168d877f1fe9ade752d24e4f4dca10f5c807a7cc8630c7604280c8b124097d93b5bb02a18f60405161113791815260200190565b60405180910390a461114b8e878e8e612f20565b5050505050505050505050505050565b61118d6040518060a0016040528060608152602001600081526020016000815260200160008152602001600081525090565b60008281526101fd60209081526040808320548084526101fc90925291829020825160a081019093528054919291829082906111c89061565b565b80601f01602080910402602001604051908101604052809291908181526020018280546111f49061565b565b80156112415780601f1061121657610100808354040283529160200191611241565b820191906000526020600020905b81548152906001019060200180831161122457829003601f168201915b50505050508152602001600182015481526020016002820154815260200160038201548152602001600482015481525050915050919050565b8260800135611288816120ba565b6112a45760405162461bcd60e51b8152600401610c76906155a3565b858585600080516020615e3f8339815191528383836040516112c8939291906156e7565b60405180910390a160006113df600080516020615ddf83398151915283356112f360208601866157bf565b604051602001611304929190615805565b6040516020818303038152906040528051906020012085604001602081019061132d9190614db5565b61133d6080880160608901614db5565b608088013560a08901356101c5600061135c60608d0160408e01614db5565b6001600160a01b03908116825260208083019390935260409182016000205482519384019a909a529082019790975260608101959095529285166080850152931660a083015260c082019290925260e081019190915263ffffffff9091166101008201526101200160405160208183030381529060405280519060200120613038565b90506114338185858080601f01602080910402602001604051908101604052809392919081815260200183838082843760009201919091525061142c925050506060860160408701614db5565b8535613086565b506101c560006114496060850160408601614db5565b6001600160a01b0316815260208101919091526040016000908120805463ffffffff169161147683615815565b91906101000a81548163ffffffff021916908363ffffffff1602179055505087608001358860400160208101906114ad9190614db5565b6001600160a01b03167f782105afe5542acae5ab54dc3dab8b54887fd38a79f55330b3e1e70c3063d67b8a60a001358a8a6040516114ed93929190615838565b60405180910390a361151761150860608a0160408b01614db5565b89608001358a60a00135612c60565b50505050505050505050565b60009081526097602052604090206001015490565b6001600160a01b03851633148061155457506115548533610b2f565b6115705760405162461bcd60e51b8152600401610c769061586d565b61157d8585858585613148565b5050505050565b61158d82611523565b61159681612c43565b6115a0838361332e565b505050565b6001600160a01b03811633146116155760405162461bcd60e51b815260206004820152602f60248201527f416363657373436f6e74726f6c3a2063616e206f6e6c792072656e6f756e636560448201526e103937b632b9903337b91039b2b63360891b6064820152608401610c76565b610cd982826133b4565b6001600160a01b037f00000000000000000000000000000000000000000000000000000000000000001630036116675760405162461bcd60e51b8152600401610c76906158bb565b7f00000000000000000000000000000000000000000000000000000000000000006001600160a01b031661169961341b565b6001600160a01b0316146116bf5760405162461bcd60e51b8152600401610c76906158f5565b6116c881613437565b604080516000808252602082019092526116e49183919061344f565b50565b6000866116f3816120ba565b61170f5760405162461bcd60e51b8152600401610c76906155a3565b61171e338989898989896135ba565b98975050505050505050565b600080516020615eff83398151915261174281612c43565b6116e4613628565b600080516020615fa683398151915261176281612c43565b8661176c816120ba565b6117885760405162461bcd60e51b8152600401610c76906155a3565b60008881526101fc6020526040812060038101546004909101548a91116040518060400160405280600f81526020016e18dc99591a5d081d995c9a599a5959608a1b815250906117eb5760405162461bcd60e51b8152600401610c769190614ac6565b508789101561180c5760405162461bcd60e51b8152600401610c769061592f565b60008a81526101fc602052604090206002015486101561186b5760405162461bcd60e51b815260206004820152601a60248201527914195c9a5bd908195b99080f08159a5b9d1859d9481cdd185c9d60321b6044820152606401610c76565b60008a81526101fc602052604090206004015486116118cc5760405162461bcd60e51b815260206004820152601e60248201527f506572696f6420656e64203c206c61737420766572696669636174696f6e00006044820152606401610c76565b60008a81526101fe6020526040812054908190036119025788156119025760405162461bcd60e51b8152600401610c769061592f565b8a7fe19de0f3da1193000100a217838f49f6bdda20dc974d33b61f92faaf446d181d8b8b8b8b8b60405161193a959493929190615957565b60405180910390a2600061194e8a8c61568f565b1115611978576119788c8c6119638c8e61568f565b60405180602001604052806000815250612f20565b60008b81526101fc6020526040902060040187905588156119ae576119ae308c8b60405180602001604052806000815250612f20565b505050505050505050505050565b60608151835114611a215760405162461bcd60e51b815260206004820152602960248201527f455243313135353a206163636f756e747320616e6420696473206c656e677468604482015268040dad2e6dac2e8c6d60bb1b6064820152608401610c76565b600083516001600160401b03811115611a3c57611a3c614840565b604051908082528060200260200182016040528015611a65578160200160208202803683370190505b50905060005b8451811015611add57611ab0858281518110611a8957611a896155c7565b6020026020010151858381518110611aa357611aa36155c7565b6020026020010151610c0f565b828281518110611ac257611ac26155c7565b6020908102919091010152611ad681615642565b9050611a6b565b509392505050565b6001600160a01b037f0000000000000000000000000000000000000000000000000000000000000000163003611b2d5760405162461bcd60e51b8152600401610c76906158bb565b7f00000000000000000000000000000000000000000000000000000000000000006001600160a01b0316611b5f61341b565b6001600160a01b031614611b855760405162461bcd60e51b8152600401610c76906158f5565b611b8e82613437565b610cd98282600161344f565b600080611ba6836129e0565b1192915050565b6000306001600160a01b037f00000000000000000000000000000000000000000000000000000000000000001614611c485760405162461bcd60e51b815260206004820152603860248201527f555550535570677261646561626c653a206d757374206e6f742062652063616c6044820152771b1959081d1a1c9bdd59da0819195b1959d85d1958d85b1b60421b6064820152608401610c76565b50600080516020615e7f8339815191525b90565b6000611c6781612c43565b83611c71816120ba565b611c8d5760405162461bcd60e51b8152600401610c76906155a3565b60008581526101fc6020526040812060038101546004909101548791116040518060400160405280600f81526020016e18dc99591a5d081d995c9a599a5959608a1b81525090611cf05760405162461bcd60e51b8152600401610c769190614ac6565b50846004811115611d0357611d03615982565b60008881526101fc60205260409081902060010154905189917f79ad675a154518428a5aa59f22c834871a66d54a46e3f4c8c5b4ee08fb576c2e91611d49918b91615634565b60405180910390a3505050600093845250506101fc602052604090912060010155565b60008560800135611d7c816120ba565b611d985760405162461bcd60e51b8152600401610c76906155a3565b888888600080516020615e3f833981519152838383604051611dbc939291906156e7565b60405180910390a16000611de7600080516020615ddf83398151915283356112f360208601866157bf565b9050611e348185858080601f01602080910402602001604051908101604052809392919081815260200183838082843760009201919091525061142c925050506060860160408701614db5565b506101c56000611e4a6060850160408601614db5565b6001600160a01b0316815260208101919091526040016000908120805463ffffffff1691611e7783615815565b91906101000a81548163ffffffff021916908363ffffffff16021790555050611ecf8b6040016020810190611eac9190614db5565b611ebc60808e0160608f01614db5565b8d608001358e60a001358e8e8e8e613674565b9d9c50505050505050505050505050565b6102006020526000908152604090208054600182015460028301546003840180546001600160a01b03909416949293919291611f1b9061565b565b80601f0160208091040260200160405190810160405280929190818152602001828054611f479061565b565b8015611f945780601f10611f6957610100808354040283529160200191611f94565b820191906000526020600020905b815481529060010190602001808311611f7757829003601f168201915b505050505090806004018054611fa99061565b565b80601f0160208091040260200160405190810160405280929190818152602001828054611fd59061565b565b80156120225780601f10611ff757610100808354040283529160200191612022565b820191906000526020600020905b81548152906001019060200180831161200557829003601f168201915b5050505050908060050180546120379061565b565b80601f01602080910402602001604051908101604052809291908181526020018280546120639061565b565b80156120b05780601f10612085576101008083540402835291602001916120b0565b820191906000526020600020905b81548152906001019060200180831161209357829003601f168201915b5050505050905086565b60008181526101fc6020526040812080548291906120d79061565b565b9050119050919050565b6101fc602052600090815260409020805481906120fd9061565b565b80601f01602080910402602001604051908101604052809291908181526020018280546121299061565b565b80156121765780601f1061214b57610100808354040283529160200191612176565b820191906000526020600020905b81548152906001019060200180831161215957829003601f168201915b5050505050908060010154908060020154908060030154908060040154905085565b600080516020615f868339815191526121b081612c43565b60005b82518110156115a05761223c8382815181106121d1576121d16155c7565b6020026020010151602001518483815181106121ef576121ef6155c7565b60200260200101516040015185848151811061220d5761220d6155c7565b60200260200101516060015186858151811061222b5761222b6155c7565b6020026020010151600001516126c9565b8061224681615642565b9150506121b3565b600080516020615eff83398151915261226681612c43565b6116e461369f565b60009182526097602090815260408084206001600160a01b0393909316845291905290205460ff1690565b600054610100900460ff16158080156122b95750600054600160ff909116105b806122da57506122c8306136dc565b1580156122da575060005460ff166001145b6122f65760405162461bcd60e51b8152600401610c7690615998565b6000805460ff191660011790558015612319576000805461ff0019166101001790555b6101f9805460ff191660ff86161790556101f88390558151612343906101fa90602085019061472e565b506101fb80546001600160a01b0319166001600160a01b038716179055801561157d576000805461ff001916905560405160018152600080516020615edf833981519152906020015b60405180910390a15050505050565b6101fa80546123a99061565b565b80601f01602080910402602001604051908101604052809291908181526020018280546123d59061565b565b80156124225780601f106123f757610100808354040283529160200191612422565b820191906000526020600020905b81548152906001019060200180831161240557829003601f168201915b505050505081565b600080516020615d9f83398151915261244281612c43565b81600481111561245457612454615982565b84866001600160a01b03167f28307ba5beac24bbe02c6541395dc897a2c9a884977343cfc55d6bef99a178cf8660405161249091815260200190565b60405180910390a461157d858585612c60565b600054610100900460ff16158080156124c35750600054600160ff909116105b806124e457506124d2306136dc565b1580156124e4575060005460ff166001145b6125005760405162461bcd60e51b8152600401610c7690615998565b6000805460ff191660011790558015612523576000805461ff0019166101001790555b61253b604051806020016040528060008152506136eb565b61254361371b565b61254b613744565b61255361371b565b61255b61371b565b6125a96040518060400160405280600f81526020016e436172626f6e20526567697374727960881b81525060405180604001604052806005815260200164302e302e3160d81b815250613773565b6125b68560328585612299565b6125c160008561332e565b6125d9600080516020615ebf8339815191528561332e565b6125f1600080516020615eff8339815191528561332e565b612609600080516020615dff8339815191528561332e565b612621600080516020615f868339815191528561332e565b612639600080516020615e5f8339815191528561332e565b612651600080516020615f468339815191528561332e565b612669600080516020615fa68339815191528561332e565b612681600080516020615f668339815191528561332e565b612699600080516020615f868339815191523361332e565b801561157d576000805461ff001916905560405160018152600080516020615edf8339815191529060200161238c565b600080516020615f868339815191526126e181612c43565b83831161272e5760405162461bcd60e51b815260206004820152601b60248201527a125b9d985b1a59081d995c9a599a58d85d1a5bdb881c195c9a5bd9602a1b6044820152606401610c76565b60006127426101f780546001019081905590565b6101fb546040516344d9d59b60e01b81529192506001600160a01b0316906344d9d59b90612774908690600401614ac6565b600060405180830381600087803b15801561278e57600080fd5b505af11580156127a2573d6000803e3d6000fd5b50505050806101ff846040516127b891906159e6565b90815260408051602092819003830181209390935560a083018152858352818301899052828101889052606083018790526000608084018190528481526101fc8352208251805191926128109284929091019061472e565b5060208201518160010155604082015181600201556060820151816003015560808201518160040155905050807fc5fb6d85b5baef0a615415607787aea341771027b7e4da34da58eaeb661154ea878787876040516128729493929190615a02565b60405180910390a2505050505050565b610cd93383836137a4565b6000856080013561289d816120ba565b6128b95760405162461bcd60e51b8152600401610c76906155a3565b888888600080516020615e3f8339815191528383836040516128dd939291906156e7565b60405180910390a16000612908600080516020615ddf83398151915283356112f360208601866157bf565b90506129558185858080601f01602080910402602001604051908101604052809392919081815260200183838082843760009201919091525061142c925050506060860160408701614db5565b506101c5600061296b6060850160408601614db5565b6001600160a01b0316815260208101919091526040016000908120805463ffffffff169161299883615815565b91906101000a81548163ffffffff021916908363ffffffff16021790555050611ecf8b60400160208101906129cd9190614db5565b8c608001358d60a001358d8d8d8d6135ba565b600090815260fb602052604090205490565b6129fb82611523565b612a0481612c43565b6115a083836133b4565b600080516020615f66833981519152612a2681612c43565b816004811115612a3857612a38615982565b604080516001600160a01b038881168252602082018790528792908a16917fa8b90aeef4d9590cac2ff486fc2b5d9749ed41f9388a7eb159eef94cf5fb65ab910160405180910390a4612a9d8686868660405180602001604052806000815250612dea565b505050505050565b838383600080516020615e3f833981519152838383604051612ac9939291906156e7565b60405180910390a16000612af4600080516020615ddf83398151915283356112f360208601866157bf565b9050612b418185858080601f01602080910402602001604051908101604052809392919081815260200183838082843760009201919091525061142c925050506060860160408701614db5565b506101c56000612b576060850160408601614db5565b6001600160a01b0316815260208101919091526040016000908120805463ffffffff1691612b8483615815565b91906101000a81548163ffffffff021916908363ffffffff16021790555050610ec1866040016020810190612bb99190614db5565b612bc96080890160608a01614db5565b88608001358960a0013589612dea565b6001600160a01b038516331480612bf55750612bf58533610b2f565b612c115760405162461bcd60e51b8152600401610c769061586d565b61157d8585858585612dea565b60006001600160e01b03198216630271189760e51b1480610cb25750610cb282613884565b6116e481336138a9565b8051610cd990606790602084019061472e565b6001600160a01b038316612cc25760405162461bcd60e51b815260206004820152602360248201527f455243313135353a206275726e2066726f6d20746865207a65726f206164647260448201526265737360e81b6064820152608401610c76565b336000612cce84613902565b90506000612cdb84613902565b9050612cfb8387600085856040518060200160405280600081525061394d565b60008581526065602090815260408083206001600160a01b038a16845290915290205484811015612d7a5760405162461bcd60e51b8152602060048201526024808201527f455243313135353a206275726e20616d6f756e7420657863656564732062616c604482015263616e636560e01b6064820152608401610c76565b60008681526065602090815260408083206001600160a01b03808c1680865291909352818420898603905590519091871690600080516020615dbf83398151915290612dc9908b908b90615634565b60405180910390a46040805160208101909152600090525b50505050505050565b6001600160a01b038416612e105760405162461bcd60e51b8152600401610c7690615a27565b336000612e1c85613902565b90506000612e2985613902565b9050612e3983898985858961394d565b60008681526065602090815260408083206001600160a01b038c16845290915290205485811015612e7c5760405162461bcd60e51b8152600401610c7690615a6c565b60008781526065602090815260408083206001600160a01b038d8116855292528083208985039055908a16825281208054889290612ebb9084906156a6565b92505081905550876001600160a01b0316896001600160a01b0316856001600160a01b0316600080516020615dbf8339815191528a8a604051612eff929190615634565b60405180910390a4612f15848a8a8a8a8a613a2b565b505050505050505050565b6001600160a01b038416612f805760405162461bcd60e51b815260206004820152602160248201527f455243313135353a206d696e7420746f20746865207a65726f206164647265736044820152607360f81b6064820152608401610c76565b336000612f8c85613902565b90506000612f9985613902565b9050612faa8360008985858961394d565b60008681526065602090815260408083206001600160a01b038b16845290915281208054879290612fdc9084906156a6565b92505081905550866001600160a01b031660006001600160a01b0316846001600160a01b0316600080516020615dbf8339815191528989604051613021929190615634565b60405180910390a4612de183600089898989613a2b565b6000610cb2613045613b8d565b8360405161190160f01b6020820152602281018390526042810182905260009060620160405160208183030381529060405280519060200120905092915050565b60006130928585613c0f565b9050826001600160a01b0316816001600160a01b03161480156130bd57506001600160a01b03811615155b6130fd5760405162461bcd60e51b8152602060048201526011602482015270496e76616c6964207369676e617475726560781b6044820152606401610c76565b8142106131405760405162461bcd60e51b815260206004820152601160248201527014da59db985d1d5c9948195e1c1a5c9959607a1b6044820152606401610c76565b949350505050565b81518351146131aa5760405162461bcd60e51b815260206004820152602860248201527f455243313135353a2069647320616e6420616d6f756e7473206c656e677468206044820152670dad2e6dac2e8c6d60c31b6064820152608401610c76565b6001600160a01b0384166131d05760405162461bcd60e51b8152600401610c7690615a27565b336131df81878787878761394d565b60005b84518110156132c85760008582815181106131ff576131ff6155c7565b60200260200101519050600085838151811061321d5761321d6155c7565b60209081029190910181015160008481526065835260408082206001600160a01b038e16835290935291909120549091508181101561326e5760405162461bcd60e51b8152600401610c7690615a6c565b60008381526065602090815260408083206001600160a01b038e8116855292528083208585039055908b168252812080548492906132ad9084906156a6565b92505081905550505050806132c190615642565b90506131e2565b50846001600160a01b0316866001600160a01b0316826001600160a01b03167f4a39dc06d4c0dbc64b70af90fd698a233a518aa5d07e595d983b8c0526c8f7fb8787604051613318929190615ab6565b60405180910390a4612a9d818787878787613c2b565b613338828261226e565b610cd95760008281526097602090815260408083206001600160a01b03851684529091529020805460ff191660011790556133703390565b6001600160a01b0316816001600160a01b0316837f2f8788117e7eff1d82e926ec794901d17c78024a50270940304540a733656f0d60405160405180910390a45050565b6133be828261226e565b15610cd95760008281526097602090815260408083206001600160a01b0385168085529252808320805460ff1916905551339285917ff6391f5c32d9c69d2a47ea670b442974b53935d1edc7fd64eb21e047a839171b9190a45050565b600080516020615e7f833981519152546001600160a01b031690565b600080516020615e5f833981519152610cd981612c43565b7f4910fdfa16fed3260ed0e7147f7cc6da11a60208b5b9406d12a635614ffd91435460ff1615613482576115a083613ced565b826001600160a01b03166352d1902d6040518163ffffffff1660e01b8152600401602060405180830381865afa9250505080156134dc575060408051601f3d908101601f191682019092526134d991810190615adb565b60015b61353f5760405162461bcd60e51b815260206004820152602e60248201527f45524331393637557067726164653a206e657720696d706c656d656e7461746960448201526d6f6e206973206e6f74205555505360901b6064820152608401610c76565b600080516020615e7f83398151915281146135ae5760405162461bcd60e51b815260206004820152602960248201527f45524331393637557067726164653a20756e737570706f727465642070726f786044820152681a58589b195555525160ba1b6064820152608401610c76565b506115a0838383613d87565b60006135c7888888612c60565b6135d5888888888888613db2565b905086886001600160a01b03167f1325d882b2ca749c878a4ab3a393f6e51b69026faa05426b6d1ec6776a3f2f3c88848660405161361593929190615af4565b60405180910390a3979650505050505050565b613630613eb1565b60c9805460ff191690557f5db9ee0a495bf2e6ff9c91a7834c1ba4fdd244a5e8aa4e537bd38aeae4b073aa335b60405161366a9190615429565b60405180910390a1565b60006136838989898986612dea565b613692888888888888886135ba565b9998505050505050505050565b6136a7613efa565b60c9805460ff191660011790557f62e78cea01bee320cd4e420270b5ea74000d11b0c9f74754ebdbfc544b05a25861365d3390565b6001600160a01b03163b151590565b600054610100900460ff166137125760405162461bcd60e51b8152600401610c7690615b13565b6116e481613f40565b600054610100900460ff166137425760405162461bcd60e51b8152600401610c7690615b13565b565b600054610100900460ff1661376b5760405162461bcd60e51b8152600401610c7690615b13565b613742613f70565b600054610100900460ff1661379a5760405162461bcd60e51b8152600401610c7690615b13565b610cd98282613fa3565b816001600160a01b0316836001600160a01b0316036138175760405162461bcd60e51b815260206004820152602960248201527f455243313135353a2073657474696e6720617070726f76616c20737461747573604482015268103337b91039b2b63360b91b6064820152608401610c76565b6001600160a01b03838116600081815260666020908152604080832094871680845294825291829020805460ff191686151590811790915591519182527f17307eab39ab6107e8899845ad3d59bd9653f200f220920489ca2b5937696c31910160405180910390a3505050565b60006001600160e01b03198216637965db0b60e01b1480610cb25750610cb282613fd4565b6138b3828261226e565b610cd9576138c081614024565b6138cb836020614036565b6040516020016138dc929190615b5e565b60408051601f198184030181529082905262461bcd60e51b8252610c7691600401614ac6565b6040805160018082528183019092526060916000919060208083019080368337019050509050828160008151811061393c5761393c6155c7565b602090810291909101015292915050565b613955613efa565b8461396e600080516020615e9f8339815191528261226e565b1561398b5760405162461bcd60e51b8152600401610c7690615bcd565b846139a4600080516020615e9f8339815191528261226e565b156139c15760405162461bcd60e51b8152600401610c7690615bcd565b60005b8551811015613a1c5761020060008783815181106139e4576139e46155c7565b6020026020010151815260200190815260200160002060010154600014613a0a57600080fd5b80613a1481615642565b9150506139c4565b50610ec18888888888886141d8565b613a3d846001600160a01b03166136dc565b15612a9d5760405163f23a6e6160e01b81526001600160a01b0385169063f23a6e6190613a769089908990889088908890600401615bf2565b6020604051808303816000875af1925050508015613ab1575060408051601f3d908101601f19168201909252613aae91810190615c2c565b60015b613b5d57613abd615c49565b806308c379a003613af65750613ad1615c64565b80613adc5750613af8565b8060405162461bcd60e51b8152600401610c769190614ac6565b505b60405162461bcd60e51b815260206004820152603460248201527f455243313135353a207472616e7366657220746f206e6f6e2d455243313135356044820152732932b1b2b4bb32b91034b6b83632b6b2b73a32b960611b6064820152608401610c76565b6001600160e01b0319811663f23a6e6160e01b14612de15760405162461bcd60e51b8152600401610c7690615ced565b6000613c0a7f8b73c3c69bb8fe3d512ecc4cf759cc79239f7b179b0ffacaa9a75d522b39400f613bbd6101915490565b610192546040805160208101859052908101839052606081018290524660808201523060a082015260009060c0016040516020818303038152906040528051906020012090509392505050565b905090565b6000806000613c1e8585614351565b91509150611add81614396565b613c3d846001600160a01b03166136dc565b15612a9d5760405163bc197c8160e01b81526001600160a01b0385169063bc197c8190613c769089908990889088908890600401615d35565b6020604051808303816000875af1925050508015613cb1575060408051601f3d908101601f19168201909252613cae91810190615c2c565b60015b613cbd57613abd615c49565b6001600160e01b0319811663bc197c8160e01b14612de15760405162461bcd60e51b8152600401610c7690615ced565b613cf6816136dc565b613d585760405162461bcd60e51b815260206004820152602d60248201527f455243313936373a206e657720696d706c656d656e746174696f6e206973206e60448201526c1bdd08184818dbdb9d1c9858dd609a1b6064820152608401610c76565b600080516020615e7f83398151915280546001600160a01b0319166001600160a01b0392909216919091179055565b613d90836144db565b600082511180613d9d5750805b156115a057613dac838361451b565b50505050565b600080613dc76101f780546001019081905590565b6040805160c0810182526001600160a01b038b8116825260208083018b81528385018d8152606085018c8152608086018c905260a086018b90526000888152610200855296909620855181546001600160a01b0319169516949094178455905160018401555160028301559251805194955091939092613e4e92600385019291019061472e565b5060808201518051613e6a91600484019160209091019061472e565b5060a08201518051613e8691600584019160209091019061472e565b50905050613ea68882600160405180602001604052806000815250612f20565b979650505050505050565b60c95460ff166137425760405162461bcd60e51b815260206004820152601460248201527314185d5cd8589b194e881b9bdd081c185d5cd95960621b6044820152606401610c76565b60c95460ff16156137425760405162461bcd60e51b815260206004820152601060248201526f14185d5cd8589b194e881c185d5cd95960821b6044820152606401610c76565b600054610100900460ff16613f675760405162461bcd60e51b8152600401610c7690615b13565b6116e481612c4d565b600054610100900460ff16613f975760405162461bcd60e51b8152600401610c7690615b13565b60c9805460ff19169055565b600054610100900460ff16613fca5760405162461bcd60e51b8152600401610c7690615b13565b610cd9828261460d565b60006001600160e01b03198216636cdb3d1360e11b148061400557506001600160e01b031982166303a24d0760e21b145b80610cb257506301ffc9a760e01b6001600160e01b0319831614610cb2565b6060610cb26001600160a01b03831660145b606060006140458360026155f3565b6140509060026156a6565b6001600160401b0381111561406757614067614840565b6040519080825280601f01601f191660200182016040528015614091576020820181803683370190505b509050600360fc1b816000815181106140ac576140ac6155c7565b60200101906001600160f81b031916908160001a905350600f60fb1b816001815181106140db576140db6155c7565b60200101906001600160f81b031916908160001a90535060006140ff8460026155f3565b61410a9060016156a6565b90505b6001811115614182576f181899199a1a9b1b9c1cb0b131b232b360811b85600f166010811061413e5761413e6155c7565b1a60f81b828281518110614154576141546155c7565b60200101906001600160f81b031916908160001a90535060049490941c9361417b81615d87565b905061410d565b5083156141d15760405162461bcd60e51b815260206004820181905260248201527f537472696e67733a20686578206c656e67746820696e73756666696369656e746044820152606401610c76565b9392505050565b6001600160a01b03851661425f5760005b835181101561425d57828181518110614204576142046155c7565b602002602001015160fb6000868481518110614222576142226155c7565b60200260200101518152602001908152602001600020600082825461424791906156a6565b90915550614256905081615642565b90506141e9565b505b6001600160a01b038416612a9d5760005b8351811015612de157600084828151811061428d5761428d6155c7565b6020026020010151905060008483815181106142ab576142ab6155c7565b60200260200101519050600060fb60008481526020019081526020016000205490508181101561432e5760405162461bcd60e51b815260206004820152602860248201527f455243313135353a206275726e20616d6f756e74206578636565647320746f74604482015267616c537570706c7960c01b6064820152608401610c76565b600092835260fb60205260409092209103905561434a81615642565b9050614270565b60008082516041036143875760208301516040840151606085015160001a61437b87828585614650565b9450945050505061438f565b506000905060025b9250929050565b60008160048111156143aa576143aa615982565b036143b25750565b60018160048111156143c6576143c6615982565b0361440e5760405162461bcd60e51b815260206004820152601860248201527745434453413a20696e76616c6964207369676e617475726560401b6044820152606401610c76565b600281600481111561442257614422615982565b0361446f5760405162461bcd60e51b815260206004820152601f60248201527f45434453413a20696e76616c6964207369676e6174757265206c656e677468006044820152606401610c76565b600381600481111561448357614483615982565b036116e45760405162461bcd60e51b815260206004820152602260248201527f45434453413a20696e76616c6964207369676e6174757265202773272076616c604482015261756560f01b6064820152608401610c76565b6144e481613ced565b6040516001600160a01b038216907fbc7cd75a20ee27fd9adebab32041f755214dbc6bffa90cc0225b39da2e5c2d3b90600090a250565b6060614526836136dc565b6145815760405162461bcd60e51b815260206004820152602660248201527f416464726573733a2064656c65676174652063616c6c20746f206e6f6e2d636f6044820152651b9d1c9858dd60d21b6064820152608401610c76565b600080846001600160a01b03168460405161459c91906159e6565b600060405180830381855af49150503d80600081146145d7576040519150601f19603f3d011682016040523d82523d6000602084013e6145dc565b606091505b50915091506146048282604051806060016040528060278152602001615f1f6027913961470a565b95945050505050565b600054610100900460ff166146345760405162461bcd60e51b8152600401610c7690615b13565b8151602092830120815191909201206101919190915561019255565b6000806fa2a8918ca85bafe22016d0b997e4df60600160ff1b0383111561467d5750600090506003614701565b6040805160008082526020820180845289905260ff881692820192909252606081018690526080810185905260019060a0016020604051602081039080840390855afa1580156146d1573d6000803e3d6000fd5b5050604051601f1901519150506001600160a01b0381166146fa57600060019250925050614701565b9150600090505b94509492505050565b606083156147195750816141d1565b6141d18383815115613adc5781518083602001fd5b82805461473a9061565b565b90600052602060002090601f01602090048101928261475c57600085556147a2565b82601f1061477557805160ff19168380011785556147a2565b828001600101855582156147a2579182015b828111156147a2578251825591602001919060010190614787565b506147ae9291506147b2565b5090565b5b808211156147ae57600081556001016147b3565b80356001600160a01b03811681146147de57600080fd5b919050565b600080604083850312156147f657600080fd5b6147ff836147c7565b946020939093013593505050565b6001600160e01b0319811681146116e457600080fd5b60006020828403121561483557600080fd5b81356141d18161480d565b634e487b7160e01b600052604160045260246000fd5b60a081016001600160401b038111828210171561487557614875614840565b60405250565b601f8201601f191681016001600160401b03811182821017156148a0576148a0614840565b6040525050565b600082601f8301126148b857600080fd5b81356001600160401b038111156148d1576148d1614840565b6040516148e8601f8301601f19166020018261487b565b8181528460208386010111156148fd57600080fd5b816020850160208301376000918101602001919091529392505050565b60006020828403121561492c57600080fd5b81356001600160401b0381111561494257600080fd5b613140848285016148a7565b60006001600160401b0382111561496757614967614840565b5060051b60200190565b600082601f83011261498257600080fd5b8135602061498f8261494e565b60405161499c828261487b565b83815260059390931b85018201928281019150868411156149bc57600080fd5b8286015b848110156149de576149d1816147c7565b83529183019183016149c0565b509695505050505050565b6000806000606084860312156149fe57600080fd5b83356001600160401b0380821115614a1557600080fd5b614a2187838801614971565b9450602086013593506040860135915080821115614a3e57600080fd5b50614a4b868287016148a7565b9150509250925092565b600060208284031215614a6757600080fd5b5035919050565b60005b83811015614a89578181015183820152602001614a71565b83811115613dac5750506000910152565b60008151808452614ab2816020860160208601614a6e565b601f01601f19169290920160200192915050565b6020815260006141d16020830184614a9a565b60008060008060808587031215614aef57600080fd5b614af8856147c7565b9350602085013592506040850135915060608501356001600160401b03811115614b2157600080fd5b614b2d878288016148a7565b91505092959194509250565b602081526000825160a06020840152614b5560c0840182614a9a565b9050602084015160408401526040840151606084015260608401516080840152608084015160a08401528091505092915050565b60008083601f840112614b9b57600080fd5b5081356001600160401b03811115614bb257600080fd5b60208301915083602082850101111561438f57600080fd5b600060e08284031215614bdc57600080fd5b50919050565b600080600080600060808688031215614bfa57600080fd5b85356001600160401b0380821115614c1157600080fd5b614c1d89838a01614b89565b90975095506020880135915080821115614c3657600080fd5b614c4289838a01614bca565b94506040880135915080821115614c5857600080fd5b614c6489838a016148a7565b93506060880135915080821115614c7a57600080fd5b50614c87888289016148a7565b9150509295509295909350565b600082601f830112614ca557600080fd5b81356020614cb28261494e565b604051614cbf828261487b565b83815260059390931b8501820192828101915086841115614cdf57600080fd5b8286015b848110156149de5780358352918301918301614ce3565b600080600080600060a08688031215614d1257600080fd5b614d1b866147c7565b9450614d29602087016147c7565b935060408601356001600160401b0380821115614d4557600080fd5b614d5189838a01614c94565b94506060880135915080821115614d6757600080fd5b614d7389838a01614c94565b93506080880135915080821115614c7a57600080fd5b60008060408385031215614d9c57600080fd5b82359150614dac602084016147c7565b90509250929050565b600060208284031215614dc757600080fd5b6141d1826147c7565b60008060008060008060c08789031215614de957600080fd5b863595506020870135945060408701356001600160401b0380821115614e0e57600080fd5b614e1a8a838b016148a7565b95506060890135915080821115614e3057600080fd5b614e3c8a838b016148a7565b94506080890135915080821115614e5257600080fd5b614e5e8a838b016148a7565b935060a0890135915080821115614e7457600080fd5b50614e8189828a016148a7565b9150509295509295509295565b600080600080600080600060e0888a031215614ea957600080fd5b614eb2886147c7565b96506020880135955060408801359450606088013593506080880135925060a0880135915060c08801356001600160401b03811115614ef057600080fd5b614efc8a828b016148a7565b91505092959891949750929550565b60008060408385031215614f1e57600080fd5b82356001600160401b0380821115614f3557600080fd5b614f4186838701614971565b93506020850135915080821115614f5757600080fd5b50614f6485828601614c94565b9150509250929050565b600081518084526020808501945080840160005b83811015614f9e57815187529582019590820190600101614f82565b509495945050505050565b6020815260006141d16020830184614f6e565b60008060408385031215614fcf57600080fd5b614fd8836147c7565b915060208301356001600160401b03811115614ff357600080fd5b614f64858286016148a7565b8035600581106147de57600080fd5b60008060006060848603121561502357600080fd5b833592506020840135915061503a60408501614fff565b90509250925092565b600080600080600080600060c0888a03121561505e57600080fd5b87356001600160401b038082111561507557600080fd5b6150818b838c01614b89565b909950975060208a013591508082111561509a57600080fd5b6150a68b838c01614bca565b965060408a01359150808211156150bc57600080fd5b6150c88b838c016148a7565b955060608a01359150808211156150de57600080fd5b6150ea8b838c016148a7565b945060808a013591508082111561510057600080fd5b61510c8b838c016148a7565b935060a08a013591508082111561512257600080fd5b50614efc8a828b016148a7565b6001600160a01b03169052565b60018060a01b038716815285602082015284604082015260c06060820152600061516960c0830186614a9a565b828103608084015261517b8186614a9a565b905082810360a08401526136928185614a9a565b60a0815260006151a260a0830188614a9a565b90508560208301528460408301528360608301528260808301529695505050505050565b600060208083850312156151d957600080fd5b82356001600160401b03808211156151f057600080fd5b818501915085601f83011261520457600080fd5b813561520f8161494e565b6040805161521d838261487b565b83815260059390931b850186019286810192508984111561523d57600080fd5b8686015b848110156152d4578035868111156152595760008081fd5b870160a0818d03601f19018113156152715760008081fd5b845161527c81614856565b8a8301358981111561528e5760008081fd5b61529c8f8d838701016148a7565b825250828601358b82015260608084013587830152608080850135918301919091529190920135908201528452928701928701615241565b509998505050505050505050565b600080600080608085870312156152f857600080fd5b615301856147c7565b9350602085013560ff8116811461531757600080fd5b92506040850135915060608501356001600160401b03811115614b2157600080fd5b6000806000806080858703121561534f57600080fd5b615358856147c7565b9350602085013592506040850135915061537460608601614fff565b905092959194509250565b6000806000806080858703121561539557600080fd5b61539e856147c7565b9350615317602086016147c7565b600080600080608085870312156153c257600080fd5b84359350602085013592506040850135915060608501356001600160401b03811115614b2157600080fd5b6000806040838503121561540057600080fd5b615409836147c7565b91506020830135801515811461541e57600080fd5b809150509250929050565b6001600160a01b0391909116815260200190565b600080600080600060a0868803121561545557600080fd5b61545e866147c7565b945061546c602087016147c7565b9350604086013592506060860135915061548860808701614fff565b90509295509295909350565b600080600080606085870312156154aa57600080fd5b84356001600160401b03808211156154c157600080fd5b6154cd88838901614b89565b909650945060208701359150808211156154e657600080fd5b6154f288838901614bca565b9350604087013591508082111561550857600080fd5b50614b2d878288016148a7565b6000806040838503121561552857600080fd5b615531836147c7565b9150614dac602084016147c7565b600080600080600060a0868803121561555757600080fd5b615560866147c7565b945061556e602087016147c7565b9350604086013592506060860135915060808601356001600160401b0381111561559757600080fd5b614c87888289016148a7565b6020808252600a90820152691b9bdd08115e141bdcdd60b21b604082015260600190565b634e487b7160e01b600052603260045260246000fd5b634e487b7160e01b600052601160045260246000fd5b600081600019048311821515161561560d5761560d6155dd565b500290565b60008261562f57634e487b7160e01b600052601260045260246000fd5b500490565b918252602082015260400190565b600060018201615654576156546155dd565b5060010190565b600181811c9082168061566f57607f821691505b602082108103614bdc57634e487b7160e01b600052602260045260246000fd5b6000828210156156a1576156a16155dd565b500390565b600082198211156156b9576156b96155dd565b500190565b81835281816020850137506000828201602090810191909152601f909101601f19169091010190565b6040815260006156fb6040830185876156be565b8281036020840152833581526020840135601e1985360301811261571e57600080fd5b840180356001600160401b0381111561573657600080fd5b80360386131561574557600080fd5b60e0602084015261575d60e0840182602085016156be565b91505061576c604086016147c7565b615779604084018261512f565b50615786606086016147c7565b615793606084018261512f565b506080850135608083015260a085013560a083015260c085013560c08301528092505050949350505050565b6000808335601e198436030181126157d657600080fd5b8301803591506001600160401b038211156157f057600080fd5b60200191503681900382131561438f57600080fd5b8183823760009101908152919050565b600063ffffffff80831681810361582e5761582e6155dd565b6001019392505050565b8381526060602082015260006158516060830185614a9a565b82810360408401526158638185614a9a565b9695505050505050565b6020808252602e908201527f455243313135353a2063616c6c6572206973206e6f7420746f6b656e206f776e60408201526d195c881bdc88185c1c1c9bdd995960921b606082015260800190565b6020808252602c90820152600080516020615e1f83398151915260408201526b19195b1959d85d1958d85b1b60a21b606082015260800190565b6020808252602c90820152600080516020615e1f83398151915260408201526b6163746976652070726f787960a01b606082015260800190565b6020808252600e908201526d125b9d985b1a5908185b5bdd5b9d60921b604082015260600190565b85815284602082015283604082015282606082015260a060808201526000613ea660a0830184614a9a565b634e487b7160e01b600052602160045260246000fd5b6020808252602e908201527f496e697469616c697a61626c653a20636f6e747261637420697320616c72656160408201526d191e481a5b9a5d1a585b1a5e995960921b606082015260800190565b600082516159f8818460208701614a6e565b9190910192915050565b8481528360208201528260408201526080606082015260006158636080830184614a9a565b60208082526025908201527f455243313135353a207472616e7366657220746f20746865207a65726f206164604082015264647265737360d81b606082015260800190565b6020808252602a908201527f455243313135353a20696e73756666696369656e742062616c616e636520666f60408201526939103a3930b739b332b960b11b606082015260800190565b604081526000615ac96040830185614f6e565b82810360208401526146048185614f6e565b600060208284031215615aed57600080fd5b5051919050565b8381528260208201526060604082015260006146046060830184614a9a565b6020808252602b908201527f496e697469616c697a61626c653a20636f6e7472616374206973206e6f74206960408201526a6e697469616c697a696e6760a81b606082015260800190565b76020b1b1b2b9b9a1b7b73a3937b61d1030b1b1b7bab73a1604d1b815260008351615b90816017850160208801614a6e565b7001034b99036b4b9b9b4b733903937b6329607d1b6017918401918201528351615bc1816028840160208801614a6e565b01602801949350505050565b6020808252600b908201526a189b1858dadb1a5cdd195960aa1b604082015260600190565b6001600160a01b03868116825285166020820152604081018490526060810183905260a060808201819052600090613ea690830184614a9a565b600060208284031215615c3e57600080fd5b81516141d18161480d565b600060033d1115611c595760046000803e5060005160e01c90565b600060443d1015615c725790565b6040516003193d81016004833e81513d6001600160401b038083116024840183101715615ca157505050505090565b8285019150815181811115615cb95750505050505090565b843d8701016020828501011115615cd35750505050505090565b615ce26020828601018761487b565b509095945050505050565b60208082526028908201527f455243313135353a204552433131353552656365697665722072656a656374656040820152676420746f6b656e7360c01b606082015260800190565b6001600160a01b0386811682528516602082015260a060408201819052600090615d6190830186614f6e565b8281036060840152615d738186614f6e565b9050828103608084015261171e8185614a9a565b600081615d9657615d966155dd565b50600019019056fe3c11d16cbaffd01df69ce1c404f6340ee057498f5f00246190ea54220576a848c3d58168c5ae7397731d063d5bbf3d657854427343f4c083240f7aacaa2d0f6279da588818fa1bb747c46ac45fd0af16861a77c5222cf5ac4538360ca4f77a2cd5bbb2f0fbfc1d5938ca13cabd3156d362f7862fa87504c8d589f5e8f2cbc45346756e6374696f6e206d7573742062652063616c6c6564207468726f75676820bdde33eca765abe07e416fa5225f9a5dbc393366c8bbf45df689e69ee318a934189ab7a9244df0848122154315af71fe140f3db0fe014031783b0946b8c9d2e3360894a13ba1a3210667c828492db98dca3e2076cc3735a920a3ca505d382bbcf48dee1a72497b9e734e498e1b3086c0d2dbcca13f16f15848f974469f906bbf7804d923f43a17d325d77e781528e0793b2edd9890ab45fc64efd7b4b427744c7f26b83ff96e1f2b6a682f133852f6798a09c465da95921460cefb384740249865d7a28e3265b37a6474929f336521b332c1681b933f6cb9f3376673440d862a416464726573733a206c6f772d6c6576656c2064656c65676174652063616c6c206661696c656498db8a220cd0f09badce9f22d0ba7e93edb3d404448cc3560d391ab096ad16e94bbc247fc4736523c8bdd1853fee2acfa817d663f8f4422b13e78ebf99e204a2ddf79b8d2110dbe281cf3bb7762d508cea586c974794c8fc949d41b0db1145130ce23c3e399818cfee81a7ab0880f714e53d7672b08df0fa62f2843416e1ea09a26469706673582212201f65037293c88bcd975c91068b80e6668319f7de49080aecabd67a83bc88c67264736f6c634300080d0033",
  "immutableReferences": {
    "997": [
      {
        "length": 32,
        "start": 5673
      },
      {
        "length": 32,
        "start": 5737
      },
      {
        "length": 32,
        "start": 6895
      },
      {
        "length": 32,
        "start": 6959
      },
      {
        "length": 32,
        "start": 7098
      }
    ]
  },
  "source": "// SPDX-License-Identifier: MIT\npragma solidity ^0.8.13;\n\nimport '@openzeppelin/contracts-upgradeable/token/ERC1155/ERC1155Upgradeable.sol';\nimport '@openzeppelin/contracts-upgradeable/access/AccessControlUpgradeable.sol';\nimport '@openzeppelin/contracts-upgradeable/security/PausableUpgradeable.sol';\nimport '@openzeppelin/contracts-upgradeable/token/ERC1155/extensions/ERC1155SupplyUpgradeable.sol';\nimport '@openzeppelin/contracts-upgradeable/proxy/utils/Initializable.sol';\nimport '@openzeppelin/contracts-upgradeable/proxy/utils/UUPSUpgradeable.sol';\nimport \"@openzeppelin/contracts-upgradeable/token/ERC1155/utils/ERC1155HolderUpgradeable.sol\";\n\n\nimport './ProjectStorage.sol';\nimport './interfaces/ICarbonContractRegistry.sol';\nimport './utils/CustomSignaturesUpgradeable.sol';\nimport './interfaces/IProject.sol';\n\ncontract Project is\n\tIProject,\n\tInitializable,\n\tERC1155Upgradeable,\n\tAccessControlUpgradeable,\n\tPausableUpgradeable,\n\tERC1155SupplyUpgradeable,\n\tUUPSUpgradeable,\n\tCustomSignaturesUpgradeable,\n\tProjectStorage,\n\tERC1155HolderUpgradeable\n{\n\tbytes32 public constant URI_SETTER_ROLE = keccak256('URI_SETTER_ROLE');\n\tbytes32 public constant PAUSER_ROLE = keccak256('PAUSER_ROLE');\n\tbytes32 public constant ANTE_MINTER_ROLE = keccak256('ANTE_MINTER_ROLE');\n\tbytes32 public constant POST_MINTER_ROLE = keccak256('POST_MINTER_ROLE');\n\tbytes32 public constant MINTER_ROLE = keccak256('MINTER_ROLE');\n\tbytes32 public constant UPGRADER_ROLE = keccak256('UPGRADER_ROLE');\n\tbytes32 public constant BLACKLISTED = keccak256('BLACKLISTED');\n\tbytes32 public constant BLACKLISTER_ROLE = keccak256('BLACKLISTER_ROLE');\n\tbytes32 public constant BURNER_ROLE = keccak256('BURNER_ROLE');\n\tbytes32 public constant VERIFIER_ROLE = keccak256('VERIFIER_ROLE');\n\tbytes32 public constant CLAWBACK_ROLE = keccak256('CLAWBACK_ROLE');\n\n/// @custom:oz-upgrades-unsafe-allow constructor\n\tconstructor() {\n\t\t_disableInitializers();\n\t}\n\n\tfunction initialize(\n\t\taddress _contractRegistry,\n\t\taddress _owner,\n\t\tuint256 _projectId,\n\t\tstring memory _projectName\n\t) public initializer {\n\t\t__ERC1155_init('');\n\t\t__AccessControl_init();\n\t\t__Pausable_init();\n\t\t__ERC1155Supply_init();\n\t\t__UUPSUpgradeable_init();\n\t\t__CustomSignatures_init(\"Carbon Registry\", '0.0.1');\n\n\t\t// Our Inits\n\t\t__ProjectStorage_init(_contractRegistry, 50, _projectId, _projectName);\n\n\t\t_grantRole(DEFAULT_ADMIN_ROLE, _owner);\n\t\t_grantRole(URI_SETTER_ROLE, _owner);\n\t\t_grantRole(PAUSER_ROLE, _owner);\n\t\t_grantRole(ANTE_MINTER_ROLE, _owner);\n\t\t_grantRole(POST_MINTER_ROLE, _owner);\n\t\t_grantRole(UPGRADER_ROLE, _owner);\n\t\t_grantRole(BLACKLISTER_ROLE, _owner);\n\t\t_grantRole(VERIFIER_ROLE, _owner);\n\t\t_grantRole(CLAWBACK_ROLE, _owner);\n\n\t\t_grantRole(POST_MINTER_ROLE, msg.sender); // Just so projectFactory can mint exPost on creation of the project\n\t}\n\n\tmodifier notBlacklisted(address account) {\n\t\trequire(\n\t\t\t!hasRole(BLACKLISTED, account),\n\t\t\t'blacklisted'\n\t\t);\n\t\t_;\n\t}\n\n\tmodifier onlyExPostTokens(uint256[] memory tokenIds) {\n\t\tfor (uint256 i = 0; i < tokenIds.length; i++) {\n\t\t\trequire(isExPostToken(tokenIds[i]), 'not ExPost');\n\t\t}\n\t\t_;\n\t}\n\n\tmodifier onlyExPostToken(uint256 tokenId) {\n\t\trequire(isExPostToken(tokenId), 'not ExPost');\n\t\t_;\n\t}\n\n\tmodifier onlyVerifiedStatus(bool isVerified, uint256 tokenId) {\n\t\trequire(\n\t\t\t(exPostVintageMapping[tokenId].lastVerificationTimestamp >=\n\t\t\t\texPostVintageMapping[tokenId].verificationPeriodEnd) ==\n\t\t\t\tisVerified,\n\t\t\tisVerified\n\t\t\t\t? 'credit unverified'\n\t\t\t\t: 'credit verified'\n\t\t);\n\t\t_;\n\t}\n\n\tfunction isExPostToken(uint256 tokenId) public view returns (bool) {\n\t\treturn bytes(exPostVintageMapping[tokenId].serialization).length > 0;\n\t}\n\n\tfunction testUpgrade() external pure returns(string memory) {\n\t\treturn \"0.0.2\";\n\t}\n\n\t// ----------------------------------\n\t//         Minting Functions\n\t// ----------------------------------\n\n\tfunction createExPostVintage(\n\t\tuint256 estAmount,\n\t\tuint256 verificationPeriodStart,\n\t\tuint256 verificationPeriodEnd,\n\t\tstring memory serialization\n\t) public onlyRole(POST_MINTER_ROLE) {\n\t\t\n\t\trequire(\n\t\t\tverificationPeriodEnd > verificationPeriodStart,\n\t\t\t'Invalid verification period'\n\t\t);\n\t\tuint256 newTokenId = nextTokenId();\n\t\tICarbonContractRegistry(contractRegistry).registerSerialization(\n\t\t\tserialization\n\t\t);\n\t\tserializationToExPostTokenIdMapping[serialization] = newTokenId;\n\t\texPostVintageMapping[newTokenId] = VintageData(\n\t\t\tserialization,\n\t\t\testAmount,\n\t\t\tverificationPeriodStart,\n\t\t\tverificationPeriodEnd,\n\t\t\t0\n\t\t);\n\t\temit ExPostCreated(\n\t\t\tnewTokenId,\n\t\t\testAmount,\n\t\t\tverificationPeriodStart,\n\t\t\tverificationPeriodEnd,\n\t\t\tserialization\n\t\t);\n\t}\n\n\tfunction createExPostVintageBatch(\n\t\tVintageData[] memory vintages\n\t) public onlyRole(POST_MINTER_ROLE) {\n\t\tfor (uint256 i = 0; i < vintages.length; i++) {\n\t\t\tcreateExPostVintage(\n\t\t\t\tvintages[i].estMitigations,\n\t\t\t\tvintages[i].verificationPeriodStart,\n\t\t\t\tvintages[i].verificationPeriodEnd,\n\t\t\t\tvintages[i].serialization\n\t\t\t);\n\t\t}\n\t}\n\n\tfunction mintExAnte(\n\t\taddress account,\n\t\tuint256 exPostTokenId,\n\t\tuint256 amount,\n\t\tbytes memory data\n\t)\n\t\tpublic\n\t\tonlyRole(ANTE_MINTER_ROLE)\n\t\tonlyExPostToken(exPostTokenId)\n\t\tonlyVerifiedStatus(false, exPostTokenId)\n\t{\n\n\t\tuint256 exAnteTokenId = exPostToExAnteTokenId[exPostTokenId];\n\t\tif (exAnteTokenId == 0) {\n\t\t\texAnteTokenId = nextTokenId();\n\t\t\texPostToExAnteTokenId[exPostTokenId] = exAnteTokenId;\n\t\t}\n\n\t\tuint256 exPostEstimatedSupply = exPostVintageMapping[exPostTokenId]\n\t\t\t.estMitigations;\n\t\tuint256 exPostVerifiedSupply = totalSupply(exPostTokenId);\n\t\tuint256 anteDrawablePostSupply = exPostEstimatedSupply -\n\t\t\texPostVerifiedSupply;\n\t\tuint256 maxExAnteSupply = (anteDrawablePostSupply *\n\t\t\t(maxAntePercentage)) / (100);\n\t\tuint256 exAnteSupply = totalSupply(exAnteTokenId);\n\n\t\trequire(\n\t\t\texAnteSupply + amount <= maxExAnteSupply,\n\t\t\t'Maximum supply'\n\t\t);\n\n\t\texAnteToExPostTokenId[exAnteTokenId] = exPostTokenId;\n\n\t\temit ExAnteMinted(exAnteTokenId, exPostTokenId, account,  amount);\n\n\t\t_mint(account, exAnteTokenId, amount, data);\n\n\t}\n\n\tfunction changeVintageMitigationEstimate(\n\t\tuint256 tokenId,\n\t\tuint256 newEstAmount,\n\t\tAdminActionReason reason\n\t)\n\t\tpublic\n\t\tonlyRole(DEFAULT_ADMIN_ROLE)\n\t\tonlyExPostToken(tokenId)\n\t\tonlyVerifiedStatus(false, tokenId)\n\t{\n\t\temit VintageMitigationEstimateChanged(\n\t\t\ttokenId,\n\t\t\tnewEstAmount,\n\t\t\texPostVintageMapping[tokenId].estMitigations,\n\t\t\treason\n\t\t);\n\t\texPostVintageMapping[tokenId].estMitigations = newEstAmount;\n\t}\n\n\tfunction verifyAndMintExPost(\n\t\taddress verificationVault,\n\t\tuint256 tokenId,\n\t\tuint256 amountVerified,\n\t\tuint256 amountToAnteHolders,\n\t\tuint256 verificationPeriodStart,\n\t\tuint256 verificationPeriodEnd,\n\t\tstring memory monitoringReport\n\t)\n\t\tpublic\n\t\tonlyRole(VERIFIER_ROLE)\n\t\tonlyExPostToken(tokenId)\n\t\tonlyVerifiedStatus(false, tokenId)\n\t{\n\t\t\t\n\t\trequire(\n\t\t\tamountVerified >= amountToAnteHolders,\n\t\t\t'Invalid amount'\n\t\t);\n\t\trequire(\n\t\t\tverificationPeriodEnd >=\n\t\t\t\texPostVintageMapping[tokenId].verificationPeriodStart,\n\t\t\t'Period end < Vintage start'\n\t\t);\n\t\trequire(\n\t\t\tverificationPeriodEnd >\n\t\t\t\texPostVintageMapping[tokenId].lastVerificationTimestamp,\n\t\t\t'Period end < last verification'\n\t\t);\n\n\t\tuint256 exAnteTokenId = exPostToExAnteTokenId[tokenId];\n\t\tif (exAnteTokenId == 0) {\n\t\t\t// If exAnteTokenId is zero then there are no ante holders\n\t\t\trequire(amountToAnteHolders == 0, 'Invalid amount');\n\t\t}\n\n\t\t\temit ExPostVerifiedAndMinted(\n\t\t\ttokenId,\n\t\t\tamountVerified,\n\t\t\tamountToAnteHolders,\n\t\t\tverificationPeriodStart,\n\t\t\tverificationPeriodEnd,\n\t\t\tmonitoringReport\n\t\t);\n\n\t\tif (amountVerified - amountToAnteHolders > 0) {\n\t\t\t// Mint To Verification Vault\n\t\t\t_mint(\n\t\t\t\tverificationVault,\n\t\t\t\ttokenId,\n\t\t\t\tamountVerified - amountToAnteHolders,\n\t\t\t\t''\n\t\t\t);\n\t\t}\n\t\texPostVintageMapping[tokenId]\n\t\t\t.lastVerificationTimestamp = verificationPeriodEnd;\n\n\t\tif (amountToAnteHolders > 0) {\n\t\t\t// Mint to this address, where ante holders will claim\n\t\t\t_mint(address(this), tokenId, amountToAnteHolders, '');\n\t\t}\n\n\n\t}\n\n\tfunction adminBurn(\n\t\taddress from,\n\t\tuint256 tokenId,\n\t\tuint256 amount,\n\t\tAdminActionReason reason\n\t) public onlyRole(BURNER_ROLE) {\n\t\temit AdminBurn(from, tokenId, amount, reason);\n\t\t_burn(from, tokenId, amount);\n\t}\n\n\tfunction adminClawback(\n\t\taddress from,\n\t\taddress to,\n\t\tuint256 tokenId,\n\t\tuint256 amount,\n\t\tAdminActionReason reason\n\t) public onlyRole(CLAWBACK_ROLE) {\n\t\temit AdminClawback(from, to, tokenId, amount, reason);\n\t\t_safeTransferFrom(from, to, tokenId, amount, '');\n\t}\n\n\tfunction exchangeAnteForPostEvenSteven(\n\t\taddress[] memory accounts,\n\t\tuint256 exPostTokenId,\n\t\tbytes memory data\n\t)\n\t\texternal\n\t\tonlyExPostToken(exPostTokenId)\n\t{\n\t\tuint256 exAnteTokenId = exPostToExAnteTokenId[exPostTokenId];\n\t\trequire(exAnteTokenId != 0, 'No holders');\n\t\tuint256 currentExAnteSupply = totalSupply(exAnteTokenId);\n\t\tuint256 currentExPostSupplyInContract = balanceOf(\n\t\t\taddress(this),\n\t\t\texPostTokenId\n\t\t);\n\t\trequire(currentExPostSupplyInContract > 0, 'No post supply');\n\n\t\tfor (uint256 i = 0; i < accounts.length; i++) {\n\t\t\t\n\t\t\tuint256 amountExAnte = balanceOf(accounts[i], exAnteTokenId);\n\t\t\tuint256 amountExPost = (amountExAnte *\n\t\t\t\tcurrentExPostSupplyInContract) / currentExAnteSupply;\n\t\t\tuint256 exAnteBurnAmount = amountExAnte;\n\t\t\tif (amountExAnte > amountExPost) {\n\t\t\t\texAnteBurnAmount = amountExPost;\n\t\t\t}\n\t\t\t\t\t\temit ExchangeAnteForPost(\n\t\t\t\taccounts[i],\n\t\t\t\texPostTokenId,\n\t\t\t\tamountExPost,\n\t\t\t\texAnteBurnAmount\n\t\t\t);\n\t\t\t_burn(accounts[i], exAnteTokenId, exAnteBurnAmount);\n\t\t\t_safeTransferFrom(\n\t\t\t\taddress(this),\n\t\t\t\taccounts[i],\n\t\t\t\texPostTokenId,\n\t\t\t\tamountExPost,\n\t\t\t\tdata\n\t\t\t);\n\t\t}\n\t}\n\n\tfunction getExPostVintageData(\n\t\tuint256 exAnteTokenId\n\t) public view returns (VintageData memory) {\n\t\tuint256 exPostTokenId = exAnteToExPostTokenId[exAnteTokenId];\n\t\treturn exPostVintageMapping[exPostTokenId];\n\t}\n\n\t// ----------------------------------\n\t//              Actions\n\t// ----------------------------------\n\n\tfunction transferAndRetireFromSignature(\n\t\tbytes calldata signature,\n\t\tsignatureTransferPayload calldata payload,\n\t\tstring memory retireeName,\n\t\tstring memory customUri,\n\t\tstring memory comment,\n\t\tbytes memory data\n\t) public onlyExPostToken(payload.tokenId)\n\t\tonlyValidSignatureTransfer(signature, payload) returns (uint256 nftTokenId) {\n\t\treturn _transferAndRetire(\n\t\t\tpayload.signer,\n\t\t\tpayload.to,\n\t\t\tpayload.tokenId,\n\t\t\tpayload.amount,\n\t\t\tretireeName,\n\t\t\tcustomUri,\n\t\t\tcomment,\n\t\t\tdata\n\t\t);\n\t}\n\n\t// function transferAndRetire(\n\t// \taddress to,\n\t// \tuint256 tokenId,\n\t// \tuint256 amount,\n\t// \tstring memory retireeName,\n\t// \tstring memory customUri,\n\t// \tstring memory comment,\n\t// \tbytes memory data\n\t// ) public onlyExPostToken(tokenId) returns (uint256 nftTokenId) {\n\t// \treturn _transferAndRetire(\n\t// \t\tmsg.sender,\n\t// \t\tto,\n\t// \t\ttokenId,\n\t// \t\tamount,\n\t// \t\tretireeName,\n\t// \t\tcustomUri,\n\t// \t\tcomment,\n\t// \t\tdata\n\t// \t);\n\t// }\n\n\tfunction _transferAndRetire(\n\t\taddress from,\n\t\taddress to,\n\t\tuint256 tokenId,\n\t\tuint256 amount,\n\t\tstring memory retireeName,\n\t\tstring memory customUri,\n\t\tstring memory comment,\n\t\tbytes memory data\n\t) internal returns (uint256 nftTokenId) {\n\t\t_safeTransferFrom(from, to, tokenId, amount, data);\n\t\treturn _retire(\n\t\t\tto,\n\t\t\ttokenId,\n\t\t\tamount,\n\t\t\tretireeName,\n\t\t\tcustomUri,\n\t\t\tcomment,\n\t\t\tdata\n\t\t);\n\t}\n\n\tfunction transferFromSignature(\n\t\tbytes calldata signature,\n\t\tsignatureTransferPayload calldata payload,\n\t\tbytes memory data\n\t) public payable onlyValidSignatureTransfer(signature, payload) {\n\t\t_safeTransferFrom(\n\t\t\tpayload.signer,\n\t\t\tpayload.to,\n\t\t\tpayload.tokenId,\n\t\t\tpayload.amount,\n\t\t\tdata\n\t\t);\n\t}\n\n\tfunction retire(\n\t\tuint256 tokenId,\n\t\tuint256 amount,\n\t\tstring memory retireeName,\n\t\tstring memory customUri,\n\t\tstring memory comment,\n\t\tbytes memory data\n\t) public onlyExPostToken(tokenId) returns (uint256 nftTokenId) {\n\t\treturn _retire(\n\t\t\tmsg.sender,\n\t\t\ttokenId,\n\t\t\tamount,\n\t\t\tretireeName,\n\t\t\tcustomUri,\n\t\t\tcomment,\n\t\t\tdata\n\t\t);\n\t}\n\n\tfunction retireFromSignature(\n\t\tbytes calldata signature,\n\t\tsignatureTransferPayload calldata payload,\n\t\tstring memory retireeName,\n\t\tstring memory customUri,\n\t\tstring memory comment,\n\t\tbytes memory data\n\t)\n\t\tpublic\n\t\tonlyExPostToken(payload.tokenId)\n\t\tonlyValidSignatureTransfer(signature, payload)\n\t\treturns (uint256 nftTokenId)\n\t{\n\t\treturn _retire(\n\t\t\tpayload.signer,\n\t\t\tpayload.tokenId,\n\t\t\tpayload.amount,\n\t\t\tretireeName,\n\t\t\tcustomUri,\n\t\t\tcomment,\n\t\t\tdata\n\t\t);\n\t}\n\n\tfunction _retire(\n\t\taddress retiree,\n\t\tuint256 tokenId,\n\t\tuint256 amount,\n\t\tstring memory retireeName,\n\t\tstring memory customUri,\n\t\tstring memory comment,\n\t\tbytes memory data\n\t) internal returns(uint256 nftTokenId) {\n\t\t_burn(retiree, tokenId, amount);\n\t\tnftTokenId = mintRetirementCertificate(retiree, tokenId, amount, retireeName, customUri, comment);\n\t\temit RetiredVintage(retiree, tokenId, amount, nftTokenId, data);\n\t}\n\n\tfunction mintRetirementCertificate(\n\t\taddress account,\n\t\tuint256 tokenId,\n\t\tuint256 amount,\n\t\tstring memory retireeName,\n\t\tstring memory customUri,\n\t\tstring memory comment\n\t) internal returns (uint256) {\n\t\tuint256 nftTokenId = nextTokenId();\n\t\tretirementMapping[nftTokenId] = RetirementData(\n\t\t\taccount,\n\t\t\tamount,\n\t\t\ttokenId,\n\t\t\tretireeName,\n\t\t\tcustomUri,\n\t\t\tcomment\n\t\t);\n\t\t_mint(account, nftTokenId, 1, '');\n\t\treturn nftTokenId;\n\t}\n\n\n\tfunction cancelCreditsFromSignature(\n\t\tbytes calldata signature,\n\t\tsignatureTransferPayload calldata payload,\n\t\tstring memory comment,\n\t\tbytes memory data\n\t)\n\t\tpublic\n\t\tonlyExPostToken(payload.tokenId)\n\t\tonlyValidSignatureTransfer(signature, payload)\n\t{\n\t\temit CancelledCredits(payload.signer, payload.tokenId, payload.amount,comment, data);\n\t\t_burn(payload.signer, payload.tokenId, payload.amount);\n\t}\n\n\t// ----------------------------------\n\t//              Hooks\n\t// ----------------------------------\n\n\tfunction _beforeTokenTransfer(\n\t\taddress operator,\n\t\taddress from,\n\t\taddress to,\n\t\tuint256[] memory ids,\n\t\tuint256[] memory amounts,\n\t\tbytes memory data\n\t)\n\t\tinternal\n\t\toverride(ERC1155Upgradeable, ERC1155SupplyUpgradeable)\n\t\twhenNotPaused\n\t\tnotBlacklisted(from)\n\t\tnotBlacklisted(to)\n\t{\n\t\tfor(uint256 i = 0; i < ids.length; i++) {\n\t\t\trequire(retirementMapping[ids[i]].amount == 0);\n\t\t}\n\t\tsuper._beforeTokenTransfer(operator, from, to, ids, amounts, data);\n\t}\n\n\tfunction setURI(string memory newuri) public onlyRole(URI_SETTER_ROLE) {\n\t\t_setURI(newuri);\n\t}\n\n\tfunction pause() public onlyRole(PAUSER_ROLE) {\n\t\t_pause();\n\t}\n\n\tfunction unpause() public onlyRole(PAUSER_ROLE) {\n\t\t_unpause();\n\t}\n\n\tfunction nextTokenId() internal returns (uint256) {\n\t\tunchecked {\n\t\t\ttopTokenId += 1;\n\t\t}\n\t\treturn topTokenId;\n\t}\n\n\tfunction _authorizeUpgrade(\n\t\taddress newImplementation\n\t) internal override onlyRole(UPGRADER_ROLE) {}\n\n\t// The following functions are overrides required by Solidity.\n\n\tfunction supportsInterface(\n\t\tbytes4 interfaceId\n\t)\n\t\tpublic\n\t\tview\n\t\toverride(ERC1155Upgradeable, AccessControlUpgradeable,ERC1155ReceiverUpgradeable)\n\t\treturns (bool)\n\t{\n\t\treturn super.supportsInterface(interfaceId);\n\t}\n}\n",
  "sourcePath": "/Users/thorduragustsson/Programming/Projects/CarbonRegistryContracts/contracts/Project.sol",
  "compiler": {
    "name": "solc",
    "version": "0.8.13+commit.abaa5c0e.Emscripten.clang"
  },
  "schemaVersion": "3.4.13",
  "updatedAt": "2023-04-27T22:23:34.190Z",
  "networkType": "ethereum",
  "devdoc": {
    "kind": "dev",
    "methods": {
      "balanceOf(address,uint256)": {
        "details": "See {IERC1155-balanceOf}. Requirements: - `account` cannot be the zero address."
      },
      "balanceOfBatch(address[],uint256[])": {
        "details": "See {IERC1155-balanceOfBatch}. Requirements: - `accounts` and `ids` must have the same length."
      },
      "constructor": {
        "custom:oz-upgrades-unsafe-allow": "constructor"
      },
      "exists(uint256)": {
        "details": "Indicates whether any token exist with a given id, or not."
      },
      "getRoleAdmin(bytes32)": {
        "details": "Returns the admin role that controls `role`. See {grantRole} and {revokeRole}. To change a role's admin, use {_setRoleAdmin}."
      },
      "grantRole(bytes32,address)": {
        "details": "Grants `role` to `account`. If `account` had not been already granted `role`, emits a {RoleGranted} event. Requirements: - the caller must have ``role``'s admin role. May emit a {RoleGranted} event."
      },
      "hasRole(bytes32,address)": {
        "details": "Returns `true` if `account` has been granted `role`."
      },
      "isApprovedForAll(address,address)": {
        "details": "See {IERC1155-isApprovedForAll}."
      },
      "paused()": {
        "details": "Returns true if the contract is paused, and false otherwise."
      },
      "proxiableUUID()": {
        "details": "Implementation of the ERC1822 {proxiableUUID} function. This returns the storage slot used by the implementation. It is used to validate the implementation's compatibility when performing an upgrade. IMPORTANT: A proxy pointing at a proxiable contract should not be considered proxiable itself, because this risks bricking a proxy that upgrades to it, by delegating to itself until out of gas. Thus it is critical that this function revert if invoked through a proxy. This is guaranteed by the `notDelegated` modifier."
      },
      "renounceRole(bytes32,address)": {
        "details": "Revokes `role` from the calling account. Roles are often managed via {grantRole} and {revokeRole}: this function's purpose is to provide a mechanism for accounts to lose their privileges if they are compromised (such as when a trusted device is misplaced). If the calling account had been revoked `role`, emits a {RoleRevoked} event. Requirements: - the caller must be `account`. May emit a {RoleRevoked} event."
      },
      "revokeRole(bytes32,address)": {
        "details": "Revokes `role` from `account`. If `account` had been granted `role`, emits a {RoleRevoked} event. Requirements: - the caller must have ``role``'s admin role. May emit a {RoleRevoked} event."
      },
      "safeBatchTransferFrom(address,address,uint256[],uint256[],bytes)": {
        "details": "See {IERC1155-safeBatchTransferFrom}."
      },
      "safeTransferFrom(address,address,uint256,uint256,bytes)": {
        "details": "See {IERC1155-safeTransferFrom}."
      },
      "setApprovalForAll(address,bool)": {
        "details": "See {IERC1155-setApprovalForAll}."
      },
      "totalSupply(uint256)": {
        "details": "Total amount of tokens in with a given id."
      },
      "upgradeTo(address)": {
        "details": "Upgrade the implementation of the proxy to `newImplementation`. Calls {_authorizeUpgrade}. Emits an {Upgraded} event."
      },
      "upgradeToAndCall(address,bytes)": {
        "details": "Upgrade the implementation of the proxy to `newImplementation`, and subsequently execute the function call encoded in `data`. Calls {_authorizeUpgrade}. Emits an {Upgraded} event."
      },
      "uri(uint256)": {
        "details": "See {IERC1155MetadataURI-uri}. This implementation returns the same URI for *all* token types. It relies on the token type ID substitution mechanism https://eips.ethereum.org/EIPS/eip-1155#metadata[defined in the EIP]. Clients calling this function must replace the `\\{id\\}` substring with the actual token type ID."
      }
    },
    "version": 1
  },
  "userdoc": {
    "kind": "user",
    "methods": {},
    "version": 1
  }
}