{
  "contractName": "Project",
  "abi": [
    {
      "inputs": [],
      "stateMutability": "nonpayable",
      "type": "constructor"
    },
    {
      "anonymous": false,
      "inputs": [
        {
          "indexed": true,
          "internalType": "address",
          "name": "from",
          "type": "address"
        },
        {
          "indexed": true,
          "internalType": "uint256",
          "name": "tokenId",
          "type": "uint256"
        },
        {
          "indexed": false,
          "internalType": "uint256",
          "name": "amount",
          "type": "uint256"
        },
        {
          "indexed": true,
          "internalType": "enum AdminActionReason",
          "name": "reason",
          "type": "uint8"
        }
      ],
      "name": "AdminBurn",
      "type": "event"
    },
    {
      "anonymous": false,
      "inputs": [
        {
          "indexed": false,
          "internalType": "address",
          "name": "previousAdmin",
          "type": "address"
        },
        {
          "indexed": false,
          "internalType": "address",
          "name": "newAdmin",
          "type": "address"
        }
      ],
      "name": "AdminChanged",
      "type": "event"
    },
    {
      "anonymous": false,
      "inputs": [
        {
          "indexed": true,
          "internalType": "address",
          "name": "from",
          "type": "address"
        },
        {
          "indexed": false,
          "internalType": "address",
          "name": "to",
          "type": "address"
        },
        {
          "indexed": true,
          "internalType": "uint256",
          "name": "tokenId",
          "type": "uint256"
        },
        {
          "indexed": false,
          "internalType": "uint256",
          "name": "amount",
          "type": "uint256"
        },
        {
          "indexed": true,
          "internalType": "enum AdminActionReason",
          "name": "reason",
          "type": "uint8"
        }
      ],
      "name": "AdminClawback",
      "type": "event"
    },
    {
      "anonymous": false,
      "inputs": [
        {
          "indexed": true,
          "internalType": "address",
          "name": "account",
          "type": "address"
        },
        {
          "indexed": true,
          "internalType": "address",
          "name": "operator",
          "type": "address"
        },
        {
          "indexed": false,
          "internalType": "bool",
          "name": "approved",
          "type": "bool"
        }
      ],
      "name": "ApprovalForAll",
      "type": "event"
    },
    {
      "anonymous": false,
      "inputs": [
        {
          "indexed": true,
          "internalType": "address",
          "name": "beacon",
          "type": "address"
        }
      ],
      "name": "BeaconUpgraded",
      "type": "event"
    },
    {
      "anonymous": false,
      "inputs": [
        {
          "indexed": false,
          "internalType": "address",
          "name": "account",
          "type": "address"
        },
        {
          "indexed": true,
          "internalType": "uint256",
          "name": "tokenId",
          "type": "uint256"
        },
        {
          "indexed": false,
          "internalType": "uint256",
          "name": "amount",
          "type": "uint256"
        }
      ],
      "name": "ExAnteMinted",
      "type": "event"
    },
    {
      "anonymous": false,
      "inputs": [
        {
          "indexed": true,
          "internalType": "uint256",
          "name": "tokenId",
          "type": "uint256"
        },
        {
          "indexed": false,
          "internalType": "uint256",
          "name": "estimatedAmount",
          "type": "uint256"
        },
        {
          "indexed": false,
          "internalType": "uint256",
          "name": "verificationPeriodStart",
          "type": "uint256"
        },
        {
          "indexed": false,
          "internalType": "uint256",
          "name": "verificationPeriodEnd",
          "type": "uint256"
        },
        {
          "indexed": false,
          "internalType": "string",
          "name": "serialization",
          "type": "string"
        }
      ],
      "name": "ExPostCreated",
      "type": "event"
    },
    {
      "anonymous": false,
      "inputs": [
        {
          "indexed": true,
          "internalType": "uint256",
          "name": "tokenId",
          "type": "uint256"
        },
        {
          "indexed": false,
          "internalType": "uint256",
          "name": "amount",
          "type": "uint256"
        },
        {
          "indexed": false,
          "internalType": "uint256",
          "name": "amountToAnteHolders",
          "type": "uint256"
        },
        {
          "indexed": false,
          "internalType": "uint256",
          "name": "verificationPeriodStart",
          "type": "uint256"
        },
        {
          "indexed": false,
          "internalType": "uint256",
          "name": "verificationPeriodEnd",
          "type": "uint256"
        },
        {
          "indexed": false,
          "internalType": "string",
          "name": "monitoringReport",
          "type": "string"
        }
      ],
      "name": "ExPostVerifiedAndMinted",
      "type": "event"
    },
    {
      "anonymous": false,
      "inputs": [
        {
          "indexed": true,
          "internalType": "address",
          "name": "account",
          "type": "address"
        },
        {
          "indexed": true,
          "internalType": "uint256",
          "name": "exPostTokenId",
          "type": "uint256"
        },
        {
          "indexed": false,
          "internalType": "uint256",
          "name": "exPostAmountReceived",
          "type": "uint256"
        },
        {
          "indexed": false,
          "internalType": "uint256",
          "name": "exAnteAmountBurned",
          "type": "uint256"
        }
      ],
      "name": "ExchangeAnteForPost",
      "type": "event"
    },
    {
      "anonymous": false,
      "inputs": [
        {
          "indexed": false,
          "internalType": "uint8",
          "name": "version",
          "type": "uint8"
        }
      ],
      "name": "Initialized",
      "type": "event"
    },
    {
      "anonymous": false,
      "inputs": [
        {
          "indexed": false,
          "internalType": "address",
          "name": "account",
          "type": "address"
        }
      ],
      "name": "Paused",
      "type": "event"
    },
    {
      "anonymous": false,
      "inputs": [
        {
          "indexed": true,
          "internalType": "address",
          "name": "account",
          "type": "address"
        },
        {
          "indexed": true,
          "internalType": "uint256",
          "name": "tokenId",
          "type": "uint256"
        },
        {
          "indexed": false,
          "internalType": "uint256",
          "name": "amount",
          "type": "uint256"
        },
        {
          "indexed": false,
          "internalType": "bytes",
          "name": "data",
          "type": "bytes"
        }
      ],
      "name": "RetiredVintage",
      "type": "event"
    },
    {
      "anonymous": false,
      "inputs": [
        {
          "indexed": true,
          "internalType": "bytes32",
          "name": "role",
          "type": "bytes32"
        },
        {
          "indexed": true,
          "internalType": "bytes32",
          "name": "previousAdminRole",
          "type": "bytes32"
        },
        {
          "indexed": true,
          "internalType": "bytes32",
          "name": "newAdminRole",
          "type": "bytes32"
        }
      ],
      "name": "RoleAdminChanged",
      "type": "event"
    },
    {
      "anonymous": false,
      "inputs": [
        {
          "indexed": true,
          "internalType": "bytes32",
          "name": "role",
          "type": "bytes32"
        },
        {
          "indexed": true,
          "internalType": "address",
          "name": "account",
          "type": "address"
        },
        {
          "indexed": true,
          "internalType": "address",
          "name": "sender",
          "type": "address"
        }
      ],
      "name": "RoleGranted",
      "type": "event"
    },
    {
      "anonymous": false,
      "inputs": [
        {
          "indexed": true,
          "internalType": "bytes32",
          "name": "role",
          "type": "bytes32"
        },
        {
          "indexed": true,
          "internalType": "address",
          "name": "account",
          "type": "address"
        },
        {
          "indexed": true,
          "internalType": "address",
          "name": "sender",
          "type": "address"
        }
      ],
      "name": "RoleRevoked",
      "type": "event"
    },
    {
      "anonymous": false,
      "inputs": [
        {
          "indexed": true,
          "internalType": "address",
          "name": "from",
          "type": "address"
        },
        {
          "indexed": true,
          "internalType": "uint256",
          "name": "tokenId",
          "type": "uint256"
        },
        {
          "indexed": false,
          "internalType": "uint256",
          "name": "amount",
          "type": "uint256"
        }
      ],
      "name": "SignedRetire",
      "type": "event"
    },
    {
      "anonymous": false,
      "inputs": [
        {
          "indexed": true,
          "internalType": "address",
          "name": "from",
          "type": "address"
        },
        {
          "indexed": true,
          "internalType": "address",
          "name": "to",
          "type": "address"
        },
        {
          "indexed": true,
          "internalType": "uint256",
          "name": "tokenId",
          "type": "uint256"
        },
        {
          "indexed": false,
          "internalType": "uint256",
          "name": "amount",
          "type": "uint256"
        }
      ],
      "name": "SignedTransfer",
      "type": "event"
    },
    {
      "anonymous": false,
      "inputs": [
        {
          "indexed": true,
          "internalType": "address",
          "name": "operator",
          "type": "address"
        },
        {
          "indexed": true,
          "internalType": "address",
          "name": "from",
          "type": "address"
        },
        {
          "indexed": true,
          "internalType": "address",
          "name": "to",
          "type": "address"
        },
        {
          "indexed": false,
          "internalType": "uint256[]",
          "name": "ids",
          "type": "uint256[]"
        },
        {
          "indexed": false,
          "internalType": "uint256[]",
          "name": "values",
          "type": "uint256[]"
        }
      ],
      "name": "TransferBatch",
      "type": "event"
    },
    {
      "anonymous": false,
      "inputs": [
        {
          "indexed": true,
          "internalType": "address",
          "name": "operator",
          "type": "address"
        },
        {
          "indexed": true,
          "internalType": "address",
          "name": "from",
          "type": "address"
        },
        {
          "indexed": true,
          "internalType": "address",
          "name": "to",
          "type": "address"
        },
        {
          "indexed": false,
          "internalType": "uint256",
          "name": "id",
          "type": "uint256"
        },
        {
          "indexed": false,
          "internalType": "uint256",
          "name": "value",
          "type": "uint256"
        }
      ],
      "name": "TransferSingle",
      "type": "event"
    },
    {
      "anonymous": false,
      "inputs": [
        {
          "indexed": false,
          "internalType": "string",
          "name": "value",
          "type": "string"
        },
        {
          "indexed": true,
          "internalType": "uint256",
          "name": "id",
          "type": "uint256"
        }
      ],
      "name": "URI",
      "type": "event"
    },
    {
      "anonymous": false,
      "inputs": [
        {
          "indexed": false,
          "internalType": "address",
          "name": "account",
          "type": "address"
        }
      ],
      "name": "Unpaused",
      "type": "event"
    },
    {
      "anonymous": false,
      "inputs": [
        {
          "indexed": true,
          "internalType": "address",
          "name": "implementation",
          "type": "address"
        }
      ],
      "name": "Upgraded",
      "type": "event"
    },
    {
      "anonymous": false,
      "inputs": [
        {
          "indexed": true,
          "internalType": "uint256",
          "name": "tokenId",
          "type": "uint256"
        },
        {
          "indexed": false,
          "internalType": "uint256",
          "name": "newEstimate",
          "type": "uint256"
        },
        {
          "indexed": false,
          "internalType": "uint256",
          "name": "oldEstimate",
          "type": "uint256"
        },
        {
          "indexed": true,
          "internalType": "enum AdminActionReason",
          "name": "reason",
          "type": "uint8"
        }
      ],
      "name": "VintageMitigationEstimateChanged",
      "type": "event"
    },
    {
      "inputs": [],
      "name": "ANTE_MINTER_ROLE",
      "outputs": [
        {
          "internalType": "bytes32",
          "name": "",
          "type": "bytes32"
        }
      ],
      "stateMutability": "view",
      "type": "function"
    },
    {
      "inputs": [],
      "name": "BLACKLISTED",
      "outputs": [
        {
          "internalType": "bytes32",
          "name": "",
          "type": "bytes32"
        }
      ],
      "stateMutability": "view",
      "type": "function"
    },
    {
      "inputs": [],
      "name": "BLACKLISTER_ROLE",
      "outputs": [
        {
          "internalType": "bytes32",
          "name": "",
          "type": "bytes32"
        }
      ],
      "stateMutability": "view",
      "type": "function"
    },
    {
      "inputs": [],
      "name": "BURNER_ROLE",
      "outputs": [
        {
          "internalType": "bytes32",
          "name": "",
          "type": "bytes32"
        }
      ],
      "stateMutability": "view",
      "type": "function"
    },
    {
      "inputs": [],
      "name": "CLAWBACK_ROLE",
      "outputs": [
        {
          "internalType": "bytes32",
          "name": "",
          "type": "bytes32"
        }
      ],
      "stateMutability": "view",
      "type": "function"
    },
    {
      "inputs": [],
      "name": "DEFAULT_ADMIN_ROLE",
      "outputs": [
        {
          "internalType": "bytes32",
          "name": "",
          "type": "bytes32"
        }
      ],
      "stateMutability": "view",
      "type": "function"
    },
    {
      "inputs": [],
      "name": "MINTER_ROLE",
      "outputs": [
        {
          "internalType": "bytes32",
          "name": "",
          "type": "bytes32"
        }
      ],
      "stateMutability": "view",
      "type": "function"
    },
    {
      "inputs": [],
      "name": "PAUSER_ROLE",
      "outputs": [
        {
          "internalType": "bytes32",
          "name": "",
          "type": "bytes32"
        }
      ],
      "stateMutability": "view",
      "type": "function"
    },
    {
      "inputs": [],
      "name": "POST_MINTER_ROLE",
      "outputs": [
        {
          "internalType": "bytes32",
          "name": "",
          "type": "bytes32"
        }
      ],
      "stateMutability": "view",
      "type": "function"
    },
    {
      "inputs": [],
      "name": "UPGRADER_ROLE",
      "outputs": [
        {
          "internalType": "bytes32",
          "name": "",
          "type": "bytes32"
        }
      ],
      "stateMutability": "view",
      "type": "function"
    },
    {
      "inputs": [],
      "name": "URI_SETTER_ROLE",
      "outputs": [
        {
          "internalType": "bytes32",
          "name": "",
          "type": "bytes32"
        }
      ],
      "stateMutability": "view",
      "type": "function"
    },
    {
      "inputs": [],
      "name": "VERIFIER_ROLE",
      "outputs": [
        {
          "internalType": "bytes32",
          "name": "",
          "type": "bytes32"
        }
      ],
      "stateMutability": "view",
      "type": "function"
    },
    {
      "inputs": [
        {
          "internalType": "address",
          "name": "_contractRegistry",
          "type": "address"
        },
        {
          "internalType": "uint8",
          "name": "_maxAntePerc",
          "type": "uint8"
        },
        {
          "internalType": "uint256",
          "name": "_projectId",
          "type": "uint256"
        },
        {
          "internalType": "string",
          "name": "_projectName",
          "type": "string"
        }
      ],
      "name": "__ProjectStorage_init",
      "outputs": [],
      "stateMutability": "nonpayable",
      "type": "function"
    },
    {
      "inputs": [
        {
          "internalType": "address",
          "name": "account",
          "type": "address"
        },
        {
          "internalType": "uint256",
          "name": "id",
          "type": "uint256"
        }
      ],
      "name": "balanceOf",
      "outputs": [
        {
          "internalType": "uint256",
          "name": "",
          "type": "uint256"
        }
      ],
      "stateMutability": "view",
      "type": "function"
    },
    {
      "inputs": [
        {
          "internalType": "address[]",
          "name": "accounts",
          "type": "address[]"
        },
        {
          "internalType": "uint256[]",
          "name": "ids",
          "type": "uint256[]"
        }
      ],
      "name": "balanceOfBatch",
      "outputs": [
        {
          "internalType": "uint256[]",
          "name": "",
          "type": "uint256[]"
        }
      ],
      "stateMutability": "view",
      "type": "function"
    },
    {
      "inputs": [],
      "name": "contractRegistry",
      "outputs": [
        {
          "internalType": "address",
          "name": "",
          "type": "address"
        }
      ],
      "stateMutability": "view",
      "type": "function"
    },
    {
      "inputs": [
        {
          "internalType": "uint256",
          "name": "",
          "type": "uint256"
        }
      ],
      "name": "exAnteToExPostTokenId",
      "outputs": [
        {
          "internalType": "uint256",
          "name": "",
          "type": "uint256"
        }
      ],
      "stateMutability": "view",
      "type": "function"
    },
    {
      "inputs": [
        {
          "internalType": "uint256",
          "name": "",
          "type": "uint256"
        }
      ],
      "name": "exPostToExAnteTokenId",
      "outputs": [
        {
          "internalType": "uint256",
          "name": "",
          "type": "uint256"
        }
      ],
      "stateMutability": "view",
      "type": "function"
    },
    {
      "inputs": [
        {
          "internalType": "uint256",
          "name": "",
          "type": "uint256"
        }
      ],
      "name": "exPostVintageMapping",
      "outputs": [
        {
          "internalType": "string",
          "name": "serialization",
          "type": "string"
        },
        {
          "internalType": "uint256",
          "name": "estMitigations",
          "type": "uint256"
        },
        {
          "internalType": "uint256",
          "name": "verificationPeriodStart",
          "type": "uint256"
        },
        {
          "internalType": "uint256",
          "name": "verificationPeriodEnd",
          "type": "uint256"
        },
        {
          "internalType": "uint256",
          "name": "lastVerificationTimestamp",
          "type": "uint256"
        }
      ],
      "stateMutability": "view",
      "type": "function"
    },
    {
      "inputs": [
        {
          "internalType": "uint256",
          "name": "id",
          "type": "uint256"
        }
      ],
      "name": "exists",
      "outputs": [
        {
          "internalType": "bool",
          "name": "",
          "type": "bool"
        }
      ],
      "stateMutability": "view",
      "type": "function"
    },
    {
      "inputs": [
        {
          "internalType": "bytes32",
          "name": "role",
          "type": "bytes32"
        }
      ],
      "name": "getRoleAdmin",
      "outputs": [
        {
          "internalType": "bytes32",
          "name": "",
          "type": "bytes32"
        }
      ],
      "stateMutability": "view",
      "type": "function"
    },
    {
      "inputs": [
        {
          "internalType": "bytes32",
          "name": "role",
          "type": "bytes32"
        },
        {
          "internalType": "address",
          "name": "account",
          "type": "address"
        }
      ],
      "name": "grantRole",
      "outputs": [],
      "stateMutability": "nonpayable",
      "type": "function"
    },
    {
      "inputs": [
        {
          "internalType": "bytes32",
          "name": "role",
          "type": "bytes32"
        },
        {
          "internalType": "address",
          "name": "account",
          "type": "address"
        }
      ],
      "name": "hasRole",
      "outputs": [
        {
          "internalType": "bool",
          "name": "",
          "type": "bool"
        }
      ],
      "stateMutability": "view",
      "type": "function"
    },
    {
      "inputs": [
        {
          "internalType": "address",
          "name": "account",
          "type": "address"
        },
        {
          "internalType": "address",
          "name": "operator",
          "type": "address"
        }
      ],
      "name": "isApprovedForAll",
      "outputs": [
        {
          "internalType": "bool",
          "name": "",
          "type": "bool"
        }
      ],
      "stateMutability": "view",
      "type": "function"
    },
    {
      "inputs": [],
      "name": "maxAntePercentage",
      "outputs": [
        {
          "internalType": "uint8",
          "name": "",
          "type": "uint8"
        }
      ],
      "stateMutability": "view",
      "type": "function"
    },
    {
      "inputs": [],
      "name": "paused",
      "outputs": [
        {
          "internalType": "bool",
          "name": "",
          "type": "bool"
        }
      ],
      "stateMutability": "view",
      "type": "function"
    },
    {
      "inputs": [],
      "name": "projectId",
      "outputs": [
        {
          "internalType": "uint256",
          "name": "",
          "type": "uint256"
        }
      ],
      "stateMutability": "view",
      "type": "function"
    },
    {
      "inputs": [],
      "name": "projectName",
      "outputs": [
        {
          "internalType": "string",
          "name": "",
          "type": "string"
        }
      ],
      "stateMutability": "view",
      "type": "function"
    },
    {
      "inputs": [],
      "name": "proxiableUUID",
      "outputs": [
        {
          "internalType": "bytes32",
          "name": "",
          "type": "bytes32"
        }
      ],
      "stateMutability": "view",
      "type": "function"
    },
    {
      "inputs": [
        {
          "internalType": "bytes32",
          "name": "role",
          "type": "bytes32"
        },
        {
          "internalType": "address",
          "name": "account",
          "type": "address"
        }
      ],
      "name": "renounceRole",
      "outputs": [],
      "stateMutability": "nonpayable",
      "type": "function"
    },
    {
      "inputs": [
        {
          "internalType": "uint256",
          "name": "",
          "type": "uint256"
        }
      ],
      "name": "retirementMapping",
      "outputs": [
        {
          "internalType": "address",
          "name": "retireeAddress",
          "type": "address"
        },
        {
          "internalType": "uint256",
          "name": "amount",
          "type": "uint256"
        },
        {
          "internalType": "uint256",
          "name": "vintageTokenId",
          "type": "uint256"
        },
        {
          "internalType": "string",
          "name": "retiree",
          "type": "string"
        },
        {
          "internalType": "string",
          "name": "customUri",
          "type": "string"
        },
        {
          "internalType": "string",
          "name": "comment",
          "type": "string"
        }
      ],
      "stateMutability": "view",
      "type": "function"
    },
    {
      "inputs": [
        {
          "internalType": "bytes32",
          "name": "role",
          "type": "bytes32"
        },
        {
          "internalType": "address",
          "name": "account",
          "type": "address"
        }
      ],
      "name": "revokeRole",
      "outputs": [],
      "stateMutability": "nonpayable",
      "type": "function"
    },
    {
      "inputs": [
        {
          "internalType": "address",
          "name": "from",
          "type": "address"
        },
        {
          "internalType": "address",
          "name": "to",
          "type": "address"
        },
        {
          "internalType": "uint256[]",
          "name": "ids",
          "type": "uint256[]"
        },
        {
          "internalType": "uint256[]",
          "name": "amounts",
          "type": "uint256[]"
        },
        {
          "internalType": "bytes",
          "name": "data",
          "type": "bytes"
        }
      ],
      "name": "safeBatchTransferFrom",
      "outputs": [],
      "stateMutability": "nonpayable",
      "type": "function"
    },
    {
      "inputs": [
        {
          "internalType": "address",
          "name": "from",
          "type": "address"
        },
        {
          "internalType": "address",
          "name": "to",
          "type": "address"
        },
        {
          "internalType": "uint256",
          "name": "id",
          "type": "uint256"
        },
        {
          "internalType": "uint256",
          "name": "amount",
          "type": "uint256"
        },
        {
          "internalType": "bytes",
          "name": "data",
          "type": "bytes"
        }
      ],
      "name": "safeTransferFrom",
      "outputs": [],
      "stateMutability": "nonpayable",
      "type": "function"
    },
    {
      "inputs": [
        {
          "internalType": "string",
          "name": "",
          "type": "string"
        }
      ],
      "name": "serializationToExPostTokenIdMapping",
      "outputs": [
        {
          "internalType": "uint256",
          "name": "",
          "type": "uint256"
        }
      ],
      "stateMutability": "view",
      "type": "function"
    },
    {
      "inputs": [
        {
          "internalType": "address",
          "name": "operator",
          "type": "address"
        },
        {
          "internalType": "bool",
          "name": "approved",
          "type": "bool"
        }
      ],
      "name": "setApprovalForAll",
      "outputs": [],
      "stateMutability": "nonpayable",
      "type": "function"
    },
    {
      "inputs": [
        {
          "internalType": "address",
          "name": "",
          "type": "address"
        }
      ],
      "name": "signatureNonces",
      "outputs": [
        {
          "internalType": "uint32",
          "name": "",
          "type": "uint32"
        }
      ],
      "stateMutability": "view",
      "type": "function"
    },
    {
      "inputs": [],
      "name": "topTokenId",
      "outputs": [
        {
          "internalType": "uint256",
          "name": "",
          "type": "uint256"
        }
      ],
      "stateMutability": "view",
      "type": "function"
    },
    {
      "inputs": [
        {
          "internalType": "uint256",
          "name": "id",
          "type": "uint256"
        }
      ],
      "name": "totalSupply",
      "outputs": [
        {
          "internalType": "uint256",
          "name": "",
          "type": "uint256"
        }
      ],
      "stateMutability": "view",
      "type": "function"
    },
    {
      "inputs": [
        {
          "internalType": "address",
          "name": "newImplementation",
          "type": "address"
        }
      ],
      "name": "upgradeTo",
      "outputs": [],
      "stateMutability": "nonpayable",
      "type": "function"
    },
    {
      "inputs": [
        {
          "internalType": "address",
          "name": "newImplementation",
          "type": "address"
        },
        {
          "internalType": "bytes",
          "name": "data",
          "type": "bytes"
        }
      ],
      "name": "upgradeToAndCall",
      "outputs": [],
      "stateMutability": "payable",
      "type": "function"
    },
    {
      "inputs": [
        {
          "internalType": "uint256",
          "name": "",
          "type": "uint256"
        }
      ],
      "name": "uri",
      "outputs": [
        {
          "internalType": "string",
          "name": "",
          "type": "string"
        }
      ],
      "stateMutability": "view",
      "type": "function"
    },
    {
      "inputs": [
        {
          "internalType": "address",
          "name": "_contractRegistry",
          "type": "address"
        },
        {
          "internalType": "address",
          "name": "_owner",
          "type": "address"
        },
        {
          "internalType": "uint256",
          "name": "_projectId",
          "type": "uint256"
        },
        {
          "internalType": "string",
          "name": "_projectName",
          "type": "string"
        }
      ],
      "name": "initialize",
      "outputs": [],
      "stateMutability": "nonpayable",
      "type": "function"
    },
    {
      "inputs": [
        {
          "internalType": "uint256",
          "name": "tokenId",
          "type": "uint256"
        }
      ],
      "name": "isExPostToken",
      "outputs": [
        {
          "internalType": "bool",
          "name": "",
          "type": "bool"
        }
      ],
      "stateMutability": "view",
      "type": "function"
    },
    {
      "inputs": [
        {
          "internalType": "uint256",
          "name": "estAmount",
          "type": "uint256"
        },
        {
          "internalType": "uint256",
          "name": "verificationPeriodStart",
          "type": "uint256"
        },
        {
          "internalType": "uint256",
          "name": "verificationPeriodEnd",
          "type": "uint256"
        },
        {
          "internalType": "string",
          "name": "serialization",
          "type": "string"
        }
      ],
      "name": "createExPostVintage",
      "outputs": [],
      "stateMutability": "nonpayable",
      "type": "function"
    },
    {
      "inputs": [
        {
          "components": [
            {
              "internalType": "string",
              "name": "serialization",
              "type": "string"
            },
            {
              "internalType": "uint256",
              "name": "estMitigations",
              "type": "uint256"
            },
            {
              "internalType": "uint256",
              "name": "verificationPeriodStart",
              "type": "uint256"
            },
            {
              "internalType": "uint256",
              "name": "verificationPeriodEnd",
              "type": "uint256"
            },
            {
              "internalType": "uint256",
              "name": "lastVerificationTimestamp",
              "type": "uint256"
            }
          ],
          "internalType": "struct VintageData[]",
          "name": "vintages",
          "type": "tuple[]"
        }
      ],
      "name": "createExPostVintageBatch",
      "outputs": [],
      "stateMutability": "nonpayable",
      "type": "function"
    },
    {
      "inputs": [
        {
          "internalType": "address",
          "name": "account",
          "type": "address"
        },
        {
          "internalType": "uint256",
          "name": "exPostTokenId",
          "type": "uint256"
        },
        {
          "internalType": "uint256",
          "name": "amount",
          "type": "uint256"
        },
        {
          "internalType": "bytes",
          "name": "data",
          "type": "bytes"
        }
      ],
      "name": "mintExAnte",
      "outputs": [],
      "stateMutability": "nonpayable",
      "type": "function"
    },
    {
      "inputs": [
        {
          "internalType": "uint256",
          "name": "tokenId",
          "type": "uint256"
        },
        {
          "internalType": "uint256",
          "name": "newEstAmount",
          "type": "uint256"
        },
        {
          "internalType": "enum AdminActionReason",
          "name": "reason",
          "type": "uint8"
        }
      ],
      "name": "changeVintageMitigationEstimate",
      "outputs": [],
      "stateMutability": "nonpayable",
      "type": "function"
    },
    {
      "inputs": [
        {
          "internalType": "address",
          "name": "verificationVault",
          "type": "address"
        },
        {
          "internalType": "uint256",
          "name": "tokenId",
          "type": "uint256"
        },
        {
          "internalType": "uint256",
          "name": "amountVerified",
          "type": "uint256"
        },
        {
          "internalType": "uint256",
          "name": "amountToAnteHolders",
          "type": "uint256"
        },
        {
          "internalType": "uint256",
          "name": "verificationPeriodStart",
          "type": "uint256"
        },
        {
          "internalType": "uint256",
          "name": "verificationPeriodEnd",
          "type": "uint256"
        },
        {
          "internalType": "string",
          "name": "monitoringReport",
          "type": "string"
        }
      ],
      "name": "verifyAndMintExPost",
      "outputs": [],
      "stateMutability": "nonpayable",
      "type": "function"
    },
    {
      "inputs": [
        {
          "internalType": "address",
          "name": "from",
          "type": "address"
        },
        {
          "internalType": "uint256",
          "name": "tokenId",
          "type": "uint256"
        },
        {
          "internalType": "uint256",
          "name": "amount",
          "type": "uint256"
        },
        {
          "internalType": "enum AdminActionReason",
          "name": "reason",
          "type": "uint8"
        }
      ],
      "name": "adminBurn",
      "outputs": [],
      "stateMutability": "nonpayable",
      "type": "function"
    },
    {
      "inputs": [
        {
          "internalType": "address",
          "name": "from",
          "type": "address"
        },
        {
          "internalType": "address",
          "name": "to",
          "type": "address"
        },
        {
          "internalType": "uint256",
          "name": "tokenId",
          "type": "uint256"
        },
        {
          "internalType": "uint256",
          "name": "amount",
          "type": "uint256"
        },
        {
          "internalType": "enum AdminActionReason",
          "name": "reason",
          "type": "uint8"
        }
      ],
      "name": "adminClawback",
      "outputs": [],
      "stateMutability": "nonpayable",
      "type": "function"
    },
    {
      "inputs": [
        {
          "internalType": "address[]",
          "name": "accounts",
          "type": "address[]"
        },
        {
          "internalType": "uint256",
          "name": "exPostTokenId",
          "type": "uint256"
        },
        {
          "internalType": "bytes",
          "name": "data",
          "type": "bytes"
        }
      ],
      "name": "exchangeAnteForPostEvenSteven",
      "outputs": [],
      "stateMutability": "nonpayable",
      "type": "function"
    },
    {
      "inputs": [
        {
          "internalType": "uint256",
          "name": "exAnteTokenId",
          "type": "uint256"
        }
      ],
      "name": "getExPostVintageData",
      "outputs": [
        {
          "components": [
            {
              "internalType": "string",
              "name": "serialization",
              "type": "string"
            },
            {
              "internalType": "uint256",
              "name": "estMitigations",
              "type": "uint256"
            },
            {
              "internalType": "uint256",
              "name": "verificationPeriodStart",
              "type": "uint256"
            },
            {
              "internalType": "uint256",
              "name": "verificationPeriodEnd",
              "type": "uint256"
            },
            {
              "internalType": "uint256",
              "name": "lastVerificationTimestamp",
              "type": "uint256"
            }
          ],
          "internalType": "struct VintageData",
          "name": "",
          "type": "tuple"
        }
      ],
      "stateMutability": "view",
      "type": "function"
    },
    {
      "inputs": [
        {
          "internalType": "bytes",
          "name": "signature",
          "type": "bytes"
        },
        {
          "components": [
            {
              "internalType": "uint256",
              "name": "deadline",
              "type": "uint256"
            },
            {
              "internalType": "string",
              "name": "description",
              "type": "string"
            },
            {
              "internalType": "address",
              "name": "signer",
              "type": "address"
            },
            {
              "internalType": "address",
              "name": "to",
              "type": "address"
            },
            {
              "internalType": "uint256",
              "name": "tokenId",
              "type": "uint256"
            },
            {
              "internalType": "uint256",
              "name": "amount",
              "type": "uint256"
            },
            {
              "internalType": "uint256",
              "name": "nonce",
              "type": "uint256"
            }
          ],
          "internalType": "struct signatureTransferPayload",
          "name": "payload",
          "type": "tuple"
        },
        {
          "internalType": "bytes",
          "name": "data",
          "type": "bytes"
        }
      ],
      "name": "transferFromSignature",
      "outputs": [],
      "stateMutability": "payable",
      "type": "function"
    },
    {
      "inputs": [
        {
          "internalType": "uint256",
          "name": "tokenId",
          "type": "uint256"
        },
        {
          "internalType": "uint256",
          "name": "amount",
          "type": "uint256"
        },
        {
          "internalType": "bytes",
          "name": "data",
          "type": "bytes"
        }
      ],
      "name": "retire",
      "outputs": [],
      "stateMutability": "nonpayable",
      "type": "function"
    },
    {
      "inputs": [
        {
          "internalType": "bytes",
          "name": "signature",
          "type": "bytes"
        },
        {
          "components": [
            {
              "internalType": "uint256",
              "name": "deadline",
              "type": "uint256"
            },
            {
              "internalType": "string",
              "name": "description",
              "type": "string"
            },
            {
              "internalType": "address",
              "name": "signer",
              "type": "address"
            },
            {
              "internalType": "address",
              "name": "to",
              "type": "address"
            },
            {
              "internalType": "uint256",
              "name": "tokenId",
              "type": "uint256"
            },
            {
              "internalType": "uint256",
              "name": "amount",
              "type": "uint256"
            },
            {
              "internalType": "uint256",
              "name": "nonce",
              "type": "uint256"
            }
          ],
          "internalType": "struct signatureTransferPayload",
          "name": "payload",
          "type": "tuple"
        }
      ],
      "name": "retireFromSignature",
      "outputs": [
        {
          "internalType": "uint256",
          "name": "nftTokenId",
          "type": "uint256"
        }
      ],
      "stateMutability": "payable",
      "type": "function"
    },
    {
      "inputs": [
        {
          "internalType": "string",
          "name": "newuri",
          "type": "string"
        }
      ],
      "name": "setURI",
      "outputs": [],
      "stateMutability": "nonpayable",
      "type": "function"
    },
    {
      "inputs": [],
      "name": "pause",
      "outputs": [],
      "stateMutability": "nonpayable",
      "type": "function"
    },
    {
      "inputs": [],
      "name": "unpause",
      "outputs": [],
      "stateMutability": "nonpayable",
      "type": "function"
    },
    {
      "inputs": [
        {
          "internalType": "bytes4",
          "name": "interfaceId",
          "type": "bytes4"
        }
      ],
      "name": "supportsInterface",
      "outputs": [
        {
          "internalType": "bool",
          "name": "",
          "type": "bool"
        }
      ],
      "stateMutability": "view",
      "type": "function"
    }
  ],
  "bytecode": "0x60a0604052306080523480156200001557600080fd5b506200002062000026565b620000e8565b600054610100900460ff1615620000935760405162461bcd60e51b815260206004820152602760248201527f496e697469616c697a61626c653a20636f6e747261637420697320696e697469604482015266616c697a696e6760c81b606482015260840160405180910390fd5b60005460ff9081161015620000e6576000805460ff191660ff9081179091556040519081527f7f26b83ff96e1f2b6a682f133852f6798a09c465da95921460cefb38474024989060200160405180910390a15b565b608051615ca262000120600039600081816114a0015281816114e001528181611afb01528181611b3b0152611bca0152615ca26000f3fe6080604052600436106103965760003560e01c80636f63984d116101dc578063aa8b2ea711610102578063e36408d0116100a0578063edc0b2e61161006f578063edc0b2e614610be7578063f242432a14610c1b578063f515e6f214610c3b578063f72c0d8b14610c6f57600080fd5b8063e36408d014610b35578063e63ab1e914610b48578063e7705db614610b6a578063e985e9c514610b9e57600080fd5b8063d5391393116100dc578063d539139314610a78578063d547741f14610aac578063dbd8483d14610acc578063deb0420714610b1557600080fd5b8063aa8b2ea7146109de578063abf410e514610a12578063bd85b03914610a4b57600080fd5b806391d148541161017a5780639fec600b116101495780639fec600b14610969578063a0e1b17114610989578063a217fddf146109a9578063a22cb465146109be57600080fd5b806391d14854146108f457806396f495ae146109145780639a33e300146109345780639d88358a1461094957600080fd5b80637f345710116101b65780637f3457101461086a5780638456cb591461089e578063865d3ade146108b35780638f76c1da146108c657600080fd5b80636f63984d146107f9578063728e68e31461081957806379c276051461084a57600080fd5b80633f4ba83a116102c157806352d1902d1161025f5780635e3bbaab1161022e5780635e3bbaab14610761578063610e70121461078357806361eeb089146107b05780636929a19c146107c757600080fd5b806352d1902d146106db57806354ff0795146106f057806357c537af146107295780635c975abb1461074957600080fd5b8063453b97141161029b578063453b97141461064c5780634e1273f41461066c5780634f1ef286146106995780634f558e79146106ac57600080fd5b80633f4ba83a146106005780633fafa1271461061557806341a30d3c1461062c57600080fd5b8063248a9ca3116103395780632f2ff15d116103085780632f2ff15d146105725780633584c3841461059257806336568abe146105c05780633659cfe6146105e057600080fd5b8063248a9ca3146104ba578063282c51f3146104ea5780632ea05e441461051e5780632eb2c2d61461055257600080fd5b80630cda95f9116103755780630cda95f9146104205780630e89341c1461044057806310c1e7a11461046d5780631b3b596b1461048d57600080fd5b8062fdd58e1461039b57806301ffc9a7146103ce57806302fe5305146103fe575b600080fd5b3480156103a757600080fd5b506103bb6103b6366004614916565b610ca3565b6040519081526020015b60405180910390f35b3480156103da57600080fd5b506103ee6103e9366004614956565b610d3b565b60405190151581526020016103c5565b34801561040a57600080fd5b5061041e610419366004614a4d565b610d4c565b005b34801561042c57600080fd5b5061041e61043b366004614b1c565b610d83565b34801561044c57600080fd5b5061046061045b366004614b88565b610fc7565b6040516103c59190614bf9565b34801561047957600080fd5b5061041e610488366004614c0c565b61105b565b34801561049957600080fd5b506104ad6104a8366004614b88565b611287565b6040516103c59190614c6c565b3480156104c657600080fd5b506103bb6104d5366004614b88565b60009081526097602052604090206001015490565b3480156104f657600080fd5b506103bb7f3c11d16cbaffd01df69ce1c404f6340ee057498f5f00246190ea54220576a84881565b34801561052a57600080fd5b506103bb7f4bbc247fc4736523c8bdd1853fee2acfa817d663f8f4422b13e78ebf99e204a281565b34801561055e57600080fd5b5061041e61056d366004614d22565b6113a6565b34801561057e57600080fd5b5061041e61058d366004614dcb565b6113f2565b34801561059e57600080fd5b506103bb6105ad366004614b88565b6101fe6020526000908152604090205481565b3480156105cc57600080fd5b5061041e6105db366004614dcb565b61141c565b3480156105ec57600080fd5b5061041e6105fb366004614df7565b611496565b34801561060c57600080fd5b5061041e611575565b34801561062157600080fd5b506103bb6101f85481565b34801561063857600080fd5b5061041e610647366004614e12565b611595565b34801561065857600080fd5b5061041e610667366004614e8f565b6118c7565b34801561067857600080fd5b5061068c610687366004614ed4565b6119c8565b6040516103c59190614f72565b61041e6106a7366004614f85565b611af1565b3480156106b857600080fd5b506103ee6106c7366004614b88565b600090815260fb6020526040902054151590565b3480156106e757600080fd5b506103bb611bbd565b3480156106fc57600080fd5b506103bb61070b366004614a4d565b80516020818301810180516101ff8252928201919093012091525481565b34801561073557600080fd5b5061041e610744366004614fd7565b611c71565b34801561075557600080fd5b5060c95460ff166103ee565b34801561076d57600080fd5b506103bb600080516020615c4d83398151915281565b34801561078f57600080fd5b506101f95461079e9060ff1681565b60405160ff90911681526020016103c5565b3480156107bc57600080fd5b506103bb6101f75481565b3480156107d357600080fd5b506107e76107e2366004614b88565b611d8b565b6040516103c59695949392919061500c565b34801561080557600080fd5b506103ee610814366004614b88565b611f65565b34801561082557600080fd5b50610839610834366004614b88565b611f8c565b6040516103c595949392919061506c565b34801561085657600080fd5b5061041e6108653660046150a3565b612043565b34801561087657600080fd5b506103bb7f7804d923f43a17d325d77e781528e0793b2edd9890ab45fc64efd7b4b427744c81565b3480156108aa57600080fd5b5061041e6120f9565b6103bb6108c1366004615218565b612119565b3480156108d257600080fd5b506103bb6108e1366004614b88565b6101fd6020526000908152604090205481565b34801561090057600080fd5b506103ee61090f366004614dcb565b61244d565b34801561092057600080fd5b5061041e61092f366004615276565b612478565b34801561094057600080fd5b50610460612585565b34801561095557600080fd5b5061041e6109643660046152cd565b612614565b34801561097557600080fd5b5061041e610984366004615313565b6126a6565b34801561099557600080fd5b5061041e6109a4366004615340565b6128f2565b3480156109b557600080fd5b506103bb600081565b3480156109ca57600080fd5b5061041e6109d9366004615381565b612ab9565b3480156109ea57600080fd5b506103bb7ff48dee1a72497b9e734e498e1b3086c0d2dbcca13f16f15848f974469f906bbf81565b348015610a1e57600080fd5b506101fb54610a33906001600160a01b031681565b6040516001600160a01b0390911681526020016103c5565b348015610a5757600080fd5b506103bb610a66366004614b88565b600090815260fb602052604090205490565b348015610a8457600080fd5b506103bb7f9f2df0fed2c77648de5860a4cc508cd0818c85b8b8a1ab4ceeef8d981c8956a681565b348015610ab857600080fd5b5061041e610ac7366004614dcb565b612ac4565b348015610ad857600080fd5b50610b00610ae7366004614df7565b6101c56020526000908152604090205463ffffffff1681565b60405163ffffffff90911681526020016103c5565b348015610b2157600080fd5b5061041e610b303660046153bd565b612ae9565b61041e610b43366004615414565b612b92565b348015610b5457600080fd5b506103bb600080516020615c0683398151915281565b348015610b7657600080fd5b506103bb7f0ce23c3e399818cfee81a7ab0880f714e53d7672b08df0fa62f2843416e1ea0981565b348015610baa57600080fd5b506103ee610bb9366004615495565b6001600160a01b03918216600090815260666020908152604080832093909416825291909152205460ff1690565b348015610bf357600080fd5b506103bb7fd5bbb2f0fbfc1d5938ca13cabd3156d362f7862fa87504c8d589f5e8f2cbc45381565b348015610c2757600080fd5b5061041e610c363660046154bf565b612d2c565b348015610c4757600080fd5b506103bb7f98db8a220cd0f09badce9f22d0ba7e93edb3d404448cc3560d391ab096ad16e981565b348015610c7b57600080fd5b506103bb7f189ab7a9244df0848122154315af71fe140f3db0fe014031783b0946b8c9d2e381565b60006001600160a01b038316610d135760405162461bcd60e51b815260206004820152602a60248201527f455243313135353a2061646472657373207a65726f206973206e6f742061207660448201526930b634b21037bbb732b960b11b60648201526084015b60405180910390fd5b5060009081526065602090815260408083206001600160a01b03949094168352929052205490565b6000610d4682612d71565b92915050565b7f7804d923f43a17d325d77e781528e0793b2edd9890ab45fc64efd7b4b427744c610d7681612d96565b610d7f82612da0565b5050565b81610d8d81611f65565b610da95760405162461bcd60e51b8152600401610d0a90615523565b60008381526101fc6020526040902060038101546004909101546001918591101582146040518060400160405280601c81526020017f50726f6a6563743a20546f6b656e20697320756e76657269666965640000000081525090610e205760405162461bcd60e51b8152600401610d0a9190614bf9565b5060008581526101fe602052604081205490819003610e815760405162461bcd60e51b815260206004820152601860248201527f50726f6a6563743a204e6f20616e746520686f6c6465727300000000000000006044820152606401610d0a565b600081815260fb602052604081205490610e9b3089610ca3565b905060005b8951811015610fbb576000610ece8b8381518110610ec057610ec061555a565b602002602001015186610ca3565b9050600084610edd8584615586565b610ee791906155a5565b90508181811115610ef55750805b610f198d8581518110610f0a57610f0a61555a565b60200260200101518883612db3565b610f3f308e8681518110610f2f57610f2f61555a565b60200260200101518e858f612f4c565b8b8d8581518110610f5257610f5261555a565b60200260200101516001600160a01b03167ffa5cd0fcb25938b2f45b3ca175241bfb3739cf4db3cb7476846930ec714f13f28484604051610f9d929190918252602082015260400190565b60405180910390a35050508080610fb3906155c7565b915050610ea0565b50505050505050505050565b606060678054610fd6906155e0565b80601f0160208091040260200160405190810160405280929190818152602001828054611002906155e0565b801561104f5780601f106110245761010080835404028352916020019161104f565b820191906000526020600020905b81548152906001019060200180831161103257829003601f168201915b50505050509050919050565b7fd5bbb2f0fbfc1d5938ca13cabd3156d362f7862fa87504c8d589f5e8f2cbc45361108581612d96565b8361108f81611f65565b6110ab5760405162461bcd60e51b8152600401610d0a90615523565b60008581526101fc6020526040812060038101546004909101548791116040518060400160405280601a815260200179141c9bda9958dd0e88151bdad95b881a5cc81d995c9a599a595960321b815250906111195760405162461bcd60e51b8152600401610d0a9190614bf9565b5060008781526101fe60205260408120549081900361115257506101f780546001019081905560008881526101fe602052604090208190555b60008881526101fc602090815260408083206001015460fb909252822054909161117c8284615614565b6101f9549091506000906064906111969060ff1684615586565b6111a091906155a5565b600086815260fb6020526040902054909150816111bd8d8361562b565b111561120b5760405162461bcd60e51b815260206004820152601e60248201527f4d6178696d756d206578416e746520737570706c7920657863656564656400006044820152606401610d0a565b60008681526101fd602052604090208d90556112298e878e8e613088565b857f58d6aa2be0272ea3795ba43f2998cc60f526ba18123bf86a394bd3d21f1891888f8e60405161126f9291906001600160a01b03929092168252602082015260400190565b60405180910390a25050505050505050505050505050565b6112b96040518060a0016040528060608152602001600081526020016000815260200160008152602001600081525090565b60008281526101fd60209081526040808320548084526101fc90925291829020825160a081019093528054919291829082906112f4906155e0565b80601f0160208091040260200160405190810160405280929190818152602001828054611320906155e0565b801561136d5780601f106113425761010080835404028352916020019161136d565b820191906000526020600020905b81548152906001019060200180831161135057829003601f168201915b50505050508152602001600182015481526020016002820154815260200160038201548152602001600482015481525050915050919050565b6001600160a01b0385163314806113c257506113c28533610bb9565b6113de5760405162461bcd60e51b8152600401610d0a90615643565b6113eb85858585856131a4565b5050505050565b60008281526097602052604090206001015461140d81612d96565b6114178383613392565b505050565b6001600160a01b038116331461148c5760405162461bcd60e51b815260206004820152602f60248201527f416363657373436f6e74726f6c3a2063616e206f6e6c792072656e6f756e636560448201526e103937b632b9903337b91039b2b63360891b6064820152608401610d0a565b610d7f8282613418565b6001600160a01b037f00000000000000000000000000000000000000000000000000000000000000001630036114de5760405162461bcd60e51b8152600401610d0a90615691565b7f00000000000000000000000000000000000000000000000000000000000000006001600160a01b0316611527600080516020615be6833981519152546001600160a01b031690565b6001600160a01b03161461154d5760405162461bcd60e51b8152600401610d0a906156dd565b6115568161347f565b60408051600080825260208201909252611572918391906134a9565b50565b600080516020615c0683398151915261158d81612d96565b611572613614565b7f0ce23c3e399818cfee81a7ab0880f714e53d7672b08df0fa62f2843416e1ea096115bf81612d96565b866115c981611f65565b6115e55760405162461bcd60e51b8152600401610d0a90615523565b60008881526101fc6020526040812060038101546004909101548a91116040518060400160405280601a815260200179141c9bda9958dd0e88151bdad95b881a5cc81d995c9a599a595960321b815250906116535760405162461bcd60e51b8152600401610d0a9190614bf9565b508789101561169e5760405162461bcd60e51b8152602060048201526017602482015276141c9bda9958dd0e88125b9d985b1a5908185b5bdd5b9d604a1b6044820152606401610d0a565b60008a81526101fc60205260409020600201548610156117265760405162461bcd60e51b815260206004820152603a60248201527f566572696669636174696f6e2074696d657374616d70206973206265666f726560448201527f20766572696669636174696f6e20706572696f642073746172740000000000006064820152608401610d0a565b60008a81526101fc602052604090206004015486116117ad5760405162461bcd60e51b815260206004820152603c60248201527f566572696669636174696f6e2074696d657374616d70206973206265666f726560448201527f206c61737420766572696669636174696f6e2074696d657374616d70000000006064820152608401610d0a565b60008a81526101fe60205260408120549081900361180d57881561180d5760405162461bcd60e51b8152602060048201526017602482015276141c9bda9958dd0e88125b9d985b1a5908185b5bdd5b9d604a1b6044820152606401610d0a565b60006118198a8c615614565b1115611843576118438c8c61182e8c8e615614565b60405180602001604052806000815250613088565b60008b81526101fc60205260409020600401879055881561187957611879308c8b60405180602001604052806000815250613088565b8a7fe19de0f3da1193000100a217838f49f6bdda20dc974d33b61f92faaf446d181d8b8b8b8b8b6040516118b1959493929190615729565b60405180910390a2505050505050505050505050565b826118d181611f65565b6118ed5760405162461bcd60e51b8152600401610d0a90615523565b60008481526101fc6020526040902060038101546004909101546001918691101582146040518060400160405280601c81526020017f50726f6a6563743a20546f6b656e20697320756e766572696669656400000000815250906119645760405162461bcd60e51b8152600401610d0a9190614bf9565b50611970338787612db3565b61197b338787613666565b5085336001600160a01b03167ff702cf129296c80b46f87602552d796449bad89ff07d72767bae5c508451aac587876040516119b892919061575f565b60405180910390a3505050505050565b60608151835114611a2d5760405162461bcd60e51b815260206004820152602960248201527f455243313135353a206163636f756e747320616e6420696473206c656e677468604482015268040dad2e6dac2e8c6d60bb1b6064820152608401610d0a565b600083516001600160401b03811115611a4857611a48614973565b604051908082528060200260200182016040528015611a71578160200160208202803683370190505b50905060005b8451811015611ae957611abc858281518110611a9557611a9561555a565b6020026020010151858381518110611aaf57611aaf61555a565b6020026020010151610ca3565b828281518110611ace57611ace61555a565b6020908102919091010152611ae2816155c7565b9050611a77565b509392505050565b6001600160a01b037f0000000000000000000000000000000000000000000000000000000000000000163003611b395760405162461bcd60e51b8152600401610d0a90615691565b7f00000000000000000000000000000000000000000000000000000000000000006001600160a01b0316611b82600080516020615be6833981519152546001600160a01b031690565b6001600160a01b031614611ba85760405162461bcd60e51b8152600401610d0a906156dd565b611bb18261347f565b610d7f828260016134a9565b6000306001600160a01b037f00000000000000000000000000000000000000000000000000000000000000001614611c5d5760405162461bcd60e51b815260206004820152603860248201527f555550535570677261646561626c653a206d757374206e6f742062652063616c60448201527f6c6564207468726f7567682064656c656761746563616c6c00000000000000006064820152608401610d0a565b50600080516020615be68339815191525b90565b6000611c7c81612d96565b83611c8681611f65565b611ca25760405162461bcd60e51b8152600401610d0a90615523565b60008581526101fc6020526040812060038101546004909101548791116040518060400160405280601a815260200179141c9bda9958dd0e88151bdad95b881a5cc81d995c9a599a595960321b81525090611d105760405162461bcd60e51b8152600401610d0a9190614bf9565b50846004811115611d2357611d23615778565b60008881526101fc60209081526040918290206001015482518a81529182015289917f79ad675a154518428a5aa59f22c834871a66d54a46e3f4c8c5b4ee08fb576c2e910160405180910390a3505050600093845250506101fc602052604090912060010155565b6102006020526000908152604090208054600182015460028301546003840180546001600160a01b03909416949293919291611dc6906155e0565b80601f0160208091040260200160405190810160405280929190818152602001828054611df2906155e0565b8015611e3f5780601f10611e1457610100808354040283529160200191611e3f565b820191906000526020600020905b815481529060010190602001808311611e2257829003601f168201915b505050505090806004018054611e54906155e0565b80601f0160208091040260200160405190810160405280929190818152602001828054611e80906155e0565b8015611ecd5780601f10611ea257610100808354040283529160200191611ecd565b820191906000526020600020905b815481529060010190602001808311611eb057829003601f168201915b505050505090806005018054611ee2906155e0565b80601f0160208091040260200160405190810160405280929190818152602001828054611f0e906155e0565b8015611f5b5780601f10611f3057610100808354040283529160200191611f5b565b820191906000526020600020905b815481529060010190602001808311611f3e57829003601f168201915b5050505050905086565b60008181526101fc602052604081208054829190611f82906155e0565b9050119050919050565b6101fc60205260009081526040902080548190611fa8906155e0565b80601f0160208091040260200160405190810160405280929190818152602001828054611fd4906155e0565b80156120215780601f10611ff657610100808354040283529160200191612021565b820191906000526020600020905b81548152906001019060200180831161200457829003601f168201915b5050505050908060010154908060020154908060030154908060040154905085565b600080516020615c4d83398151915261205b81612d96565b60005b8251811015611417576120e783828151811061207c5761207c61555a565b60200260200101516020015184838151811061209a5761209a61555a565b6020026020010151604001518584815181106120b8576120b861555a565b6020026020010151606001518685815181106120d6576120d661555a565b6020026020010151600001516128f2565b806120f1816155c7565b91505061205e565b600080516020615c0683398151915261211181612d96565b61157261377e565b6000816080013561212981611f65565b6121455760405162461bcd60e51b8152600401610d0a90615523565b608083013560008181526101fc60205260409020600381015460049091015460019291111582146040518060400160405280601c81526020017f50726f6a6563743a20546f6b656e20697320756e766572696669656400000000815250906121c05760405162461bcd60e51b8152600401610d0a9190614bf9565b5086868660006122e57f79da588818fa1bb747c46ac45fd0af16861a77c5222cf5ac4538360ca4f77a2c83356121f9602086018661578e565b60405160200161220a9291906157d4565b604051602081830303815290604052805190602001208560400160208101906122339190614df7565b608087018035906122479060608a01614df7565b60a08901356101c5600061226160608d0160408e01614df7565b6001600160a01b03908116825260208083019390935260409182016000205482519384019a909a52908201979097526060810195909552928516608085015260a084019190915290921660c082015260e081019190915263ffffffff90911661010082015261012001604051602081830303815290604052805190602001206137bb565b90506123398185858080601f016020809104026020016040519081016040528093929190818152602001838380828437600092019190915250612332925050506060860160408701614df7565b8535613809565b506101c5600061234f6060850160408601614df7565b6001600160a01b0316815260208101919091526040016000908120805463ffffffff169161237c836157e4565b91906101000a81548163ffffffff021916908363ffffffff160217905550506123c08960400160208101906123b19190614df7565b8a608001358b60a00135612db3565b6123e26123d360608b0160408c01614df7565b8a608001358b60a00135613666565b975060808901356123f960608b0160408c01614df7565b6001600160a01b03167f3ec62ad8e5ebe52709d97ce29a908961b037926c9129c8bcca2ef0461963b8b08b60a0013560405161243791815260200190565b60405180910390a3505050505050509392505050565b60009182526097602090815260408084206001600160a01b0393909316845291905290205460ff1690565b600054610100900460ff16158080156124985750600054600160ff909116105b806124b25750303b1580156124b2575060005460ff166001145b6124ce5760405162461bcd60e51b8152600401610d0a90615807565b6000805460ff1916600117905580156124f1576000805461ff0019166101001790555b6101f9805460ff191660ff86161790556101f8839055815161251b906101fa906020850190614861565b506101fb80546001600160a01b0319166001600160a01b03871617905580156113eb576000805461ff0019169055604051600181527f7f26b83ff96e1f2b6a682f133852f6798a09c465da95921460cefb3847402498906020015b60405180910390a15050505050565b6101fa8054612593906155e0565b80601f01602080910402602001604051908101604052809291908181526020018280546125bf906155e0565b801561260c5780601f106125e15761010080835404028352916020019161260c565b820191906000526020600020905b8154815290600101906020018083116125ef57829003601f168201915b505050505081565b7f3c11d16cbaffd01df69ce1c404f6340ee057498f5f00246190ea54220576a84861263e81612d96565b612649858585612db3565b81600481111561265b5761265b615778565b84866001600160a01b03167f28307ba5beac24bbe02c6541395dc897a2c9a884977343cfc55d6bef99a178cf8660405161269791815260200190565b60405180910390a45050505050565b600054610100900460ff16158080156126c65750600054600160ff909116105b806126e05750303b1580156126e0575060005460ff166001145b6126fc5760405162461bcd60e51b8152600401610d0a90615807565b6000805460ff19166001179055801561271f576000805461ff0019166101001790555b6127376040518060200160405280600081525061390d565b61273f61393d565b612747613966565b61274f61393d565b61275761393d565b61277e8260405180604001604052806005815260200164302e302e3160d81b815250613995565b61278b8560328585612478565b612796600085613392565b6127c07f7804d923f43a17d325d77e781528e0793b2edd9890ab45fc64efd7b4b427744c85613392565b6127d8600080516020615c0683398151915285613392565b6128027fd5bbb2f0fbfc1d5938ca13cabd3156d362f7862fa87504c8d589f5e8f2cbc45385613392565b61281a600080516020615c4d83398151915285613392565b6128447f189ab7a9244df0848122154315af71fe140f3db0fe014031783b0946b8c9d2e385613392565b61286e7f98db8a220cd0f09badce9f22d0ba7e93edb3d404448cc3560d391ab096ad16e985613392565b6128987f0ce23c3e399818cfee81a7ab0880f714e53d7672b08df0fa62f2843416e1ea0985613392565b6128b0600080516020615c4d83398151915233613392565b80156113eb576000805461ff0019169055604051600181527f7f26b83ff96e1f2b6a682f133852f6798a09c465da95921460cefb384740249890602001612576565b600080516020615c4d83398151915261290a81612d96565b8383116129655760405162461bcd60e51b8152602060048201526024808201527f50726f6a6563743a20496e76616c696420766572696669636174696f6e2070656044820152631c9a5bd960e21b6064820152608401610d0a565b60006129796101f780546001019081905590565b6101fb546040516344d9d59b60e01b81529192506001600160a01b0316906344d9d59b906129ab908690600401614bf9565b600060405180830381600087803b1580156129c557600080fd5b505af11580156129d9573d6000803e3d6000fd5b50505050806101ff846040516129ef9190615855565b90815260408051602092819003830181209390935560a083018152858352818301899052828101889052606083018790526000608084018190528481526101fc835220825180519192612a4792849290910190614861565b5060208201518160010155604082015181600201556060820151816003015560808201518160040155905050807fc5fb6d85b5baef0a615415607787aea341771027b7e4da34da58eaeb661154ea87878787604051612aa99493929190615871565b60405180910390a2505050505050565b610d7f3383836139c6565b600082815260976020526040902060010154612adf81612d96565b6114178383613418565b7f4bbc247fc4736523c8bdd1853fee2acfa817d663f8f4422b13e78ebf99e204a2612b1381612d96565b612b2f8686868660405180602001604052806000815250612f4c565b816004811115612b4157612b41615778565b604080516001600160a01b038881168252602082018790528792908a16917fa8b90aeef4d9590cac2ff486fc2b5d9749ed41f9388a7eb159eef94cf5fb65ab910160405180910390a4505050505050565b8383836000612bca7f79da588818fa1bb747c46ac45fd0af16861a77c5222cf5ac4538360ca4f77a2c83356121f9602086018661578e565b9050612c178185858080601f016020809104026020016040519081016040528093929190818152602001838380828437600092019190915250612332925050506060860160408701614df7565b506101c56000612c2d6060850160408601614df7565b6001600160a01b0316815260208101919091526040016000908120805463ffffffff1691612c5a836157e4565b91906101000a81548163ffffffff021916908363ffffffff16021790555050612caf866040016020810190612c8f9190614df7565b612c9f6080890160608a01614df7565b88608001358960a0013589612f4c565b60808601803590612cc39060608901614df7565b6001600160a01b0316612cdc6060890160408a01614df7565b6001600160a01b03167f3e09983b3a620e1618a2a5201b7aded9daa73221b1e3c93fb4056c6e5bea31628960a00135604051612d1a91815260200190565b60405180910390a45050505050505050565b6001600160a01b038516331480612d485750612d488533610bb9565b612d645760405162461bcd60e51b8152600401610d0a90615643565b6113eb8585858585612f4c565b60006001600160e01b03198216637965db0b60e01b1480610d465750610d4682613aa6565b6115728133613af6565b8051610d7f906067906020840190614861565b6001600160a01b038316612e155760405162461bcd60e51b815260206004820152602360248201527f455243313135353a206275726e2066726f6d20746865207a65726f206164647260448201526265737360e81b6064820152608401610d0a565b336000612e2184613b4f565b90506000612e2e84613b4f565b9050612e4e83876000858560405180602001604052806000815250613b9a565b60008581526065602090815260408083206001600160a01b038a16845290915290205484811015612ecd5760405162461bcd60e51b8152602060048201526024808201527f455243313135353a206275726e20616d6f756e7420657863656564732062616c604482015263616e636560e01b6064820152608401610d0a565b60008681526065602090815260408083206001600160a01b038b81168086529184528285208a8703905582518b81529384018a90529092908816917fc3d58168c5ae7397731d063d5bbf3d657854427343f4c083240f7aacaa2d0f62910160405180910390a46040805160208101909152600090525b50505050505050565b6001600160a01b038416612f725760405162461bcd60e51b8152600401610d0a906158a0565b336000612f7e85613b4f565b90506000612f8b85613b4f565b9050612f9b838989858589613b9a565b60008681526065602090815260408083206001600160a01b038c16845290915290205485811015612fde5760405162461bcd60e51b8152600401610d0a906158e5565b60008781526065602090815260408083206001600160a01b038d8116855292528083208985039055908a1682528120805488929061301d90849061562b565b909155505060408051888152602081018890526001600160a01b03808b16928c821692918816917fc3d58168c5ae7397731d063d5bbf3d657854427343f4c083240f7aacaa2d0f62910160405180910390a461307d848a8a8a8a8a613caa565b505050505050505050565b6001600160a01b0384166130e85760405162461bcd60e51b815260206004820152602160248201527f455243313135353a206d696e7420746f20746865207a65726f206164647265736044820152607360f81b6064820152608401610d0a565b3360006130f485613b4f565b9050600061310185613b4f565b905061311283600089858589613b9a565b60008681526065602090815260408083206001600160a01b038b1684529091528120805487929061314490849061562b565b909155505060408051878152602081018790526001600160a01b03808a1692600092918716917fc3d58168c5ae7397731d063d5bbf3d657854427343f4c083240f7aacaa2d0f62910160405180910390a4612f4383600089898989613caa565b81518351146132065760405162461bcd60e51b815260206004820152602860248201527f455243313135353a2069647320616e6420616d6f756e7473206c656e677468206044820152670dad2e6dac2e8c6d60c31b6064820152608401610d0a565b6001600160a01b03841661322c5760405162461bcd60e51b8152600401610d0a906158a0565b3361323b818787878787613b9a565b60005b845181101561332457600085828151811061325b5761325b61555a565b6020026020010151905060008583815181106132795761327961555a565b60209081029190910181015160008481526065835260408082206001600160a01b038e1683529093529190912054909150818110156132ca5760405162461bcd60e51b8152600401610d0a906158e5565b60008381526065602090815260408083206001600160a01b038e8116855292528083208585039055908b1682528120805484929061330990849061562b565b925050819055505050508061331d906155c7565b905061323e565b50846001600160a01b0316866001600160a01b0316826001600160a01b03167f4a39dc06d4c0dbc64b70af90fd698a233a518aa5d07e595d983b8c0526c8f7fb878760405161337492919061592f565b60405180910390a461338a818787878787613e05565b505050505050565b61339c828261244d565b610d7f5760008281526097602090815260408083206001600160a01b03851684529091529020805460ff191660011790556133d43390565b6001600160a01b0316816001600160a01b0316837f2f8788117e7eff1d82e926ec794901d17c78024a50270940304540a733656f0d60405160405180910390a45050565b613422828261244d565b15610d7f5760008281526097602090815260408083206001600160a01b0385168085529252808320805460ff1916905551339285917ff6391f5c32d9c69d2a47ea670b442974b53935d1edc7fd64eb21e047a839171b9190a45050565b7f189ab7a9244df0848122154315af71fe140f3db0fe014031783b0946b8c9d2e3610d7f81612d96565b7f4910fdfa16fed3260ed0e7147f7cc6da11a60208b5b9406d12a635614ffd91435460ff16156134dc5761141783613ec0565b826001600160a01b03166352d1902d6040518163ffffffff1660e01b8152600401602060405180830381865afa925050508015613536575060408051601f3d908101601f1916820190925261353391810190615954565b60015b6135995760405162461bcd60e51b815260206004820152602e60248201527f45524331393637557067726164653a206e657720696d706c656d656e7461746960448201526d6f6e206973206e6f74205555505360901b6064820152608401610d0a565b600080516020615be683398151915281146136085760405162461bcd60e51b815260206004820152602960248201527f45524331393637557067726164653a20756e737570706f727465642070726f786044820152681a58589b195555525160ba1b6064820152608401610d0a565b50611417838383613f5c565b61361c613f87565b60c9805460ff191690557f5db9ee0a495bf2e6ff9c91a7834c1ba4fdd244a5e8aa4e537bd38aeae4b073aa335b6040516001600160a01b03909116815260200160405180910390a1565b60008061367b6101f780546001019081905590565b6040805160c0810182526001600160a01b03888116825260208083018881528385018a8152855180840187526000808252606087019182528751808601895281815260808801528751808601895281815260a0880152888152610200855296909620855181546001600160a01b031916951694909417845590516001840155516002830155925180519495509193909261371c926003850192910190614861565b5060808201518051613738916004840191602090910190614861565b5060a08201518051613754916005840191602090910190614861565b509050506137748582600160405180602001604052806000815250613088565b90505b9392505050565b613786613fd0565b60c9805460ff191660011790557f62e78cea01bee320cd4e420270b5ea74000d11b0c9f74754ebdbfc544b05a2586136493390565b6000610d466137c8614016565b8360405161190160f01b6020820152602281018390526042810182905260009060620160405160208183030381529060405280519060200120905092915050565b60006138158585614098565b9050826001600160a01b0316816001600160a01b0316146138725760405162461bcd60e51b8152602060048201526017602482015276496e76616c6964207369676e6174757265202d2034303160481b6044820152606401610d0a565b6001600160a01b0381166138c25760405162461bcd60e51b8152602060048201526017602482015276496e76616c6964207369676e6174757265202d2034303160481b6044820152606401610d0a565b8142106139055760405162461bcd60e51b815260206004820152601160248201527014da59db985d1d5c9948195e1c1a5c9959607a1b6044820152606401610d0a565b949350505050565b600054610100900460ff166139345760405162461bcd60e51b8152600401610d0a9061596d565b611572816140b4565b600054610100900460ff166139645760405162461bcd60e51b8152600401610d0a9061596d565b565b600054610100900460ff1661398d5760405162461bcd60e51b8152600401610d0a9061596d565b6139646140e4565b600054610100900460ff166139bc5760405162461bcd60e51b8152600401610d0a9061596d565b610d7f8282614117565b816001600160a01b0316836001600160a01b031603613a395760405162461bcd60e51b815260206004820152602960248201527f455243313135353a2073657474696e6720617070726f76616c20737461747573604482015268103337b91039b2b63360b91b6064820152608401610d0a565b6001600160a01b03838116600081815260666020908152604080832094871680845294825291829020805460ff191686151590811790915591519182527f17307eab39ab6107e8899845ad3d59bd9653f200f220920489ca2b5937696c31910160405180910390a3505050565b60006001600160e01b03198216636cdb3d1360e11b1480613ad757506001600160e01b031982166303a24d0760e21b145b80610d4657506301ffc9a760e01b6001600160e01b0319831614610d46565b613b00828261244d565b610d7f57613b0d81614148565b613b1883602061415a565b604051602001613b299291906159b8565b60408051601f198184030181529082905262461bcd60e51b8252610d0a91600401614bf9565b60408051600180825281830190925260609160009190602080830190803683370190505090508281600081518110613b8957613b8961555a565b602090810291909101015292915050565b613ba2613fd0565b84613bcd7ff48dee1a72497b9e734e498e1b3086c0d2dbcca13f16f15848f974469f906bbf8261244d565b15613c1a5760405162461bcd60e51b815260206004820152601f60248201527f50726f6a6563743a204163636f756e7420697320626c61636b6c6973746564006044820152606401610d0a565b84613c457ff48dee1a72497b9e734e498e1b3086c0d2dbcca13f16f15848f974469f906bbf8261244d565b15613c925760405162461bcd60e51b815260206004820152601f60248201527f50726f6a6563743a204163636f756e7420697320626c61636b6c6973746564006044820152606401610d0a565b613ca08888888888886142f5565b5050505050505050565b6001600160a01b0384163b1561338a5760405163f23a6e6160e01b81526001600160a01b0385169063f23a6e6190613cee9089908990889088908890600401615a2d565b6020604051808303816000875af1925050508015613d29575060408051601f3d908101601f19168201909252613d2691810190615a67565b60015b613dd557613d35615a84565b806308c379a003613d6e5750613d49615a9f565b80613d545750613d70565b8060405162461bcd60e51b8152600401610d0a9190614bf9565b505b60405162461bcd60e51b815260206004820152603460248201527f455243313135353a207472616e7366657220746f206e6f6e2d455243313135356044820152732932b1b2b4bb32b91034b6b83632b6b2b73a32b960611b6064820152608401610d0a565b6001600160e01b0319811663f23a6e6160e01b14612f435760405162461bcd60e51b8152600401610d0a90615b28565b6001600160a01b0384163b1561338a5760405163bc197c8160e01b81526001600160a01b0385169063bc197c8190613e499089908990889088908890600401615b70565b6020604051808303816000875af1925050508015613e84575060408051601f3d908101601f19168201909252613e8191810190615a67565b60015b613e9057613d35615a84565b6001600160e01b0319811663bc197c8160e01b14612f435760405162461bcd60e51b8152600401610d0a90615b28565b6001600160a01b0381163b613f2d5760405162461bcd60e51b815260206004820152602d60248201527f455243313936373a206e657720696d706c656d656e746174696f6e206973206e60448201526c1bdd08184818dbdb9d1c9858dd609a1b6064820152608401610d0a565b600080516020615be683398151915280546001600160a01b0319166001600160a01b0392909216919091179055565b613f658361446e565b600082511180613f725750805b1561141757613f8183836144ae565b50505050565b60c95460ff166139645760405162461bcd60e51b815260206004820152601460248201527314185d5cd8589b194e881b9bdd081c185d5cd95960621b6044820152606401610d0a565b60c95460ff16156139645760405162461bcd60e51b815260206004820152601060248201526f14185d5cd8589b194e881c185d5cd95960821b6044820152606401610d0a565b60006140937f8b73c3c69bb8fe3d512ecc4cf759cc79239f7b179b0ffacaa9a75d522b39400f6140466101915490565b610192546040805160208101859052908101839052606081018290524660808201523060a082015260009060c0016040516020818303038152906040528051906020012090509392505050565b905090565b60008060006140a785856145a2565b91509150611ae9816145e7565b600054610100900460ff166140db5760405162461bcd60e51b8152600401610d0a9061596d565b61157281612da0565b600054610100900460ff1661410b5760405162461bcd60e51b8152600401610d0a9061596d565b60c9805460ff19169055565b600054610100900460ff1661413e5760405162461bcd60e51b8152600401610d0a9061596d565b610d7f8282614731565b6060610d466001600160a01b03831660145b60606000614169836002615586565b61417490600261562b565b6001600160401b0381111561418b5761418b614973565b6040519080825280601f01601f1916602001820160405280156141b5576020820181803683370190505b509050600360fc1b816000815181106141d0576141d061555a565b60200101906001600160f81b031916908160001a905350600f60fb1b816001815181106141ff576141ff61555a565b60200101906001600160f81b031916908160001a9053506000614223846002615586565b61422e90600161562b565b90505b60018111156142a6576f181899199a1a9b1b9c1cb0b131b232b360811b85600f16601081106142625761426261555a565b1a60f81b8282815181106142785761427861555a565b60200101906001600160f81b031916908160001a90535060049490941c9361429f81615bce565b9050614231565b5083156137775760405162461bcd60e51b815260206004820181905260248201527f537472696e67733a20686578206c656e67746820696e73756666696369656e746044820152606401610d0a565b6001600160a01b03851661437c5760005b835181101561437a578281815181106143215761432161555a565b602002602001015160fb600086848151811061433f5761433f61555a565b602002602001015181526020019081526020016000206000828254614364919061562b565b909155506143739050816155c7565b9050614306565b505b6001600160a01b03841661338a5760005b8351811015612f435760008482815181106143aa576143aa61555a565b6020026020010151905060008483815181106143c8576143c861555a565b60200260200101519050600060fb60008481526020019081526020016000205490508181101561444b5760405162461bcd60e51b815260206004820152602860248201527f455243313135353a206275726e20616d6f756e74206578636565647320746f74604482015267616c537570706c7960c01b6064820152608401610d0a565b600092835260fb602052604090922091039055614467816155c7565b905061438d565b61447781613ec0565b6040516001600160a01b038216907fbc7cd75a20ee27fd9adebab32041f755214dbc6bffa90cc0225b39da2e5c2d3b90600090a250565b60606001600160a01b0383163b6145165760405162461bcd60e51b815260206004820152602660248201527f416464726573733a2064656c65676174652063616c6c20746f206e6f6e2d636f6044820152651b9d1c9858dd60d21b6064820152608401610d0a565b600080846001600160a01b0316846040516145319190615855565b600060405180830381855af49150503d806000811461456c576040519150601f19603f3d011682016040523d82523d6000602084013e614571565b606091505b50915091506145998282604051806060016040528060278152602001615c2660279139614774565b95945050505050565b60008082516041036145d85760208301516040840151606085015160001a6145cc8782858561478d565b945094505050506145e0565b506000905060025b9250929050565b60008160048111156145fb576145fb615778565b036146035750565b600181600481111561461757614617615778565b036146645760405162461bcd60e51b815260206004820152601860248201527f45434453413a20696e76616c6964207369676e617475726500000000000000006044820152606401610d0a565b600281600481111561467857614678615778565b036146c55760405162461bcd60e51b815260206004820152601f60248201527f45434453413a20696e76616c6964207369676e6174757265206c656e677468006044820152606401610d0a565b60038160048111156146d9576146d9615778565b036115725760405162461bcd60e51b815260206004820152602260248201527f45434453413a20696e76616c6964207369676e6174757265202773272076616c604482015261756560f01b6064820152608401610d0a565b600054610100900460ff166147585760405162461bcd60e51b8152600401610d0a9061596d565b8151602092830120815191909201206101919190915561019255565b60608315614783575081613777565b6137778383614851565b6000807f7fffffffffffffffffffffffffffffff5d576e7357a4501ddfe92f46681b20a08311156147c45750600090506003614848565b6040805160008082526020820180845289905260ff881692820192909252606081018690526080810185905260019060a0016020604051602081039080840390855afa158015614818573d6000803e3d6000fd5b5050604051601f1901519150506001600160a01b03811661484157600060019250925050614848565b9150600090505b94509492505050565b815115613d545781518083602001fd5b82805461486d906155e0565b90600052602060002090601f01602090048101928261488f57600085556148d5565b82601f106148a857805160ff19168380011785556148d5565b828001600101855582156148d5579182015b828111156148d55782518255916020019190600101906148ba565b506148e19291506148e5565b5090565b5b808211156148e157600081556001016148e6565b80356001600160a01b038116811461491157600080fd5b919050565b6000806040838503121561492957600080fd5b614932836148fa565b946020939093013593505050565b6001600160e01b03198116811461157257600080fd5b60006020828403121561496857600080fd5b813561377781614940565b634e487b7160e01b600052604160045260246000fd5b60a081018181106001600160401b03821117156149a8576149a8614973565b60405250565b601f8201601f191681016001600160401b03811182821017156149d3576149d3614973565b6040525050565b600082601f8301126149eb57600080fd5b81356001600160401b03811115614a0457614a04614973565b604051614a1b601f8301601f1916602001826149ae565b818152846020838601011115614a3057600080fd5b816020850160208301376000918101602001919091529392505050565b600060208284031215614a5f57600080fd5b81356001600160401b03811115614a7557600080fd5b613905848285016149da565b60006001600160401b03821115614a9a57614a9a614973565b5060051b60200190565b600082601f830112614ab557600080fd5b81356020614ac282614a81565b604051614acf82826149ae565b83815260059390931b8501820192828101915086841115614aef57600080fd5b8286015b84811015614b1157614b04816148fa565b8352918301918301614af3565b509695505050505050565b600080600060608486031215614b3157600080fd5b83356001600160401b0380821115614b4857600080fd5b614b5487838801614aa4565b9450602086013593506040860135915080821115614b7157600080fd5b50614b7e868287016149da565b9150509250925092565b600060208284031215614b9a57600080fd5b5035919050565b60005b83811015614bbc578181015183820152602001614ba4565b83811115613f815750506000910152565b60008151808452614be5816020860160208601614ba1565b601f01601f19169290920160200192915050565b6020815260006137776020830184614bcd565b60008060008060808587031215614c2257600080fd5b614c2b856148fa565b9350602085013592506040850135915060608501356001600160401b03811115614c5457600080fd5b614c60878288016149da565b91505092959194509250565b602081526000825160a06020840152614c8860c0840182614bcd565b9050602084015160408401526040840151606084015260608401516080840152608084015160a08401528091505092915050565b600082601f830112614ccd57600080fd5b81356020614cda82614a81565b604051614ce782826149ae565b83815260059390931b8501820192828101915086841115614d0757600080fd5b8286015b84811015614b115780358352918301918301614d0b565b600080600080600060a08688031215614d3a57600080fd5b614d43866148fa565b9450614d51602087016148fa565b935060408601356001600160401b0380821115614d6d57600080fd5b614d7989838a01614cbc565b94506060880135915080821115614d8f57600080fd5b614d9b89838a01614cbc565b93506080880135915080821115614db157600080fd5b50614dbe888289016149da565b9150509295509295909350565b60008060408385031215614dde57600080fd5b82359150614dee602084016148fa565b90509250929050565b600060208284031215614e0957600080fd5b613777826148fa565b600080600080600080600060e0888a031215614e2d57600080fd5b614e36886148fa565b96506020880135955060408801359450606088013593506080880135925060a0880135915060c08801356001600160401b03811115614e7457600080fd5b614e808a828b016149da565b91505092959891949750929550565b600080600060608486031215614ea457600080fd5b833592506020840135915060408401356001600160401b03811115614ec857600080fd5b614b7e868287016149da565b60008060408385031215614ee757600080fd5b82356001600160401b0380821115614efe57600080fd5b614f0a86838701614aa4565b93506020850135915080821115614f2057600080fd5b50614f2d85828601614cbc565b9150509250929050565b600081518084526020808501945080840160005b83811015614f6757815187529582019590820190600101614f4b565b509495945050505050565b6020815260006137776020830184614f37565b60008060408385031215614f9857600080fd5b614fa1836148fa565b915060208301356001600160401b03811115614fbc57600080fd5b614f2d858286016149da565b80356005811061491157600080fd5b600080600060608486031215614fec57600080fd5b833592506020840135915061500360408501614fc8565b90509250925092565b60018060a01b038716815285602082015284604082015260c06060820152600061503960c0830186614bcd565b828103608084015261504b8186614bcd565b905082810360a084015261505f8185614bcd565b9998505050505050505050565b60a08152600061507f60a0830188614bcd565b90508560208301528460408301528360608301528260808301529695505050505050565b600060208083850312156150b657600080fd5b82356001600160401b03808211156150cd57600080fd5b818501915085601f8301126150e157600080fd5b81356150ec81614a81565b604080516150fa83826149ae565b83815260059390931b850186019286810192508984111561511a57600080fd5b8686015b848110156151b1578035868111156151365760008081fd5b870160a0818d03601f190181131561514e5760008081fd5b845161515981614989565b8a8301358981111561516b5760008081fd5b6151798f8d838701016149da565b825250828601358b8201526060808401358783015260808085013591830191909152919092013590820152845292870192870161511e565b509998505050505050505050565b60008083601f8401126151d157600080fd5b5081356001600160401b038111156151e857600080fd5b6020830191508360208285010111156145e057600080fd5b600060e0828403121561521257600080fd5b50919050565b60008060006040848603121561522d57600080fd5b83356001600160401b038082111561524457600080fd5b615250878388016151bf565b9095509350602086013591508082111561526957600080fd5b50614b7e86828701615200565b6000806000806080858703121561528c57600080fd5b615295856148fa565b9350602085013560ff811681146152ab57600080fd5b92506040850135915060608501356001600160401b03811115614c5457600080fd5b600080600080608085870312156152e357600080fd5b6152ec856148fa565b9350602085013592506040850135915061530860608601614fc8565b905092959194509250565b6000806000806080858703121561532957600080fd5b615332856148fa565b93506152ab602086016148fa565b6000806000806080858703121561535657600080fd5b84359350602085013592506040850135915060608501356001600160401b03811115614c5457600080fd5b6000806040838503121561539457600080fd5b61539d836148fa565b9150602083013580151581146153b257600080fd5b809150509250929050565b600080600080600060a086880312156153d557600080fd5b6153de866148fa565b94506153ec602087016148fa565b9350604086013592506060860135915061540860808701614fc8565b90509295509295909350565b6000806000806060858703121561542a57600080fd5b84356001600160401b038082111561544157600080fd5b61544d888389016151bf565b9096509450602087013591508082111561546657600080fd5b61547288838901615200565b9350604087013591508082111561548857600080fd5b50614c60878288016149da565b600080604083850312156154a857600080fd5b6154b1836148fa565b9150614dee602084016148fa565b600080600080600060a086880312156154d757600080fd5b6154e0866148fa565b94506154ee602087016148fa565b9350604086013592506060860135915060808601356001600160401b0381111561551757600080fd5b614dbe888289016149da565b6020808252601c908201527f50726f6a6563743a20546f6b656e206973206e6f74204578506f737400000000604082015260600190565b634e487b7160e01b600052603260045260246000fd5b634e487b7160e01b600052601160045260246000fd5b60008160001904831182151516156155a0576155a0615570565b500290565b6000826155c257634e487b7160e01b600052601260045260246000fd5b500490565b6000600182016155d9576155d9615570565b5060010190565b600181811c908216806155f457607f821691505b60208210810361521257634e487b7160e01b600052602260045260246000fd5b60008282101561562657615626615570565b500390565b6000821982111561563e5761563e615570565b500190565b6020808252602e908201527f455243313135353a2063616c6c6572206973206e6f7420746f6b656e206f776e60408201526d195c881bdc88185c1c1c9bdd995960921b606082015260800190565b6020808252602c908201527f46756e6374696f6e206d7573742062652063616c6c6564207468726f7567682060408201526b19195b1959d85d1958d85b1b60a21b606082015260800190565b6020808252602c908201527f46756e6374696f6e206d7573742062652063616c6c6564207468726f7567682060408201526b6163746976652070726f787960a01b606082015260800190565b85815284602082015283604082015282606082015260a06080820152600061575460a0830184614bcd565b979650505050505050565b8281526040602082015260006139056040830184614bcd565b634e487b7160e01b600052602160045260246000fd5b6000808335601e198436030181126157a557600080fd5b8301803591506001600160401b038211156157bf57600080fd5b6020019150368190038213156145e057600080fd5b8183823760009101908152919050565b600063ffffffff8083168181036157fd576157fd615570565b6001019392505050565b6020808252602e908201527f496e697469616c697a61626c653a20636f6e747261637420697320616c72656160408201526d191e481a5b9a5d1a585b1a5e995960921b606082015260800190565b60008251615867818460208701614ba1565b9190910192915050565b8481528360208201528260408201526080606082015260006158966080830184614bcd565b9695505050505050565b60208082526025908201527f455243313135353a207472616e7366657220746f20746865207a65726f206164604082015264647265737360d81b606082015260800190565b6020808252602a908201527f455243313135353a20696e73756666696369656e742062616c616e636520666f60408201526939103a3930b739b332b960b11b606082015260800190565b6040815260006159426040830185614f37565b82810360208401526145998185614f37565b60006020828403121561596657600080fd5b5051919050565b6020808252602b908201527f496e697469616c697a61626c653a20636f6e7472616374206973206e6f74206960408201526a6e697469616c697a696e6760a81b606082015260800190565b7f416363657373436f6e74726f6c3a206163636f756e74200000000000000000008152600083516159f0816017850160208801614ba1565b7001034b99036b4b9b9b4b733903937b6329607d1b6017918401918201528351615a21816028840160208801614ba1565b01602801949350505050565b6001600160a01b03868116825285166020820152604081018490526060810183905260a06080820181905260009061575490830184614bcd565b600060208284031215615a7957600080fd5b815161377781614940565b600060033d1115611c6e5760046000803e5060005160e01c90565b600060443d1015615aad5790565b6040516003193d81016004833e81513d6001600160401b038160248401118184111715615adc57505050505090565b8285019150815181811115615af45750505050505090565b843d8701016020828501011115615b0e5750505050505090565b615b1d602082860101876149ae565b509095945050505050565b60208082526028908201527f455243313135353a204552433131353552656365697665722072656a656374656040820152676420746f6b656e7360c01b606082015260800190565b6001600160a01b0386811682528516602082015260a060408201819052600090615b9c90830186614f37565b8281036060840152615bae8186614f37565b90508281036080840152615bc28185614bcd565b98975050505050505050565b600081615bdd57615bdd615570565b50600019019056fe360894a13ba1a3210667c828492db98dca3e2076cc3735a920a3ca505d382bbc65d7a28e3265b37a6474929f336521b332c1681b933f6cb9f3376673440d862a416464726573733a206c6f772d6c6576656c2064656c65676174652063616c6c206661696c6564ddf79b8d2110dbe281cf3bb7762d508cea586c974794c8fc949d41b0db114513a264697066735822122017fdb2796cdb6bdf4c2b4e636e13b58233964f92bd90257a5d7169d05b5406fd64736f6c634300080d0033",
  "immutableReferences": {
    "997": [
      {
        "length": 32,
        "start": 5280
      },
      {
        "length": 32,
        "start": 5344
      },
      {
        "length": 32,
        "start": 6907
      },
      {
        "length": 32,
        "start": 6971
      },
      {
        "length": 32,
        "start": 7114
      }
    ]
  },
  "source": "// SPDX-License-Identifier: MIT\npragma solidity ^0.8.13;\n\nimport '@openzeppelin/contracts-upgradeable/token/ERC1155/ERC1155Upgradeable.sol';\nimport '@openzeppelin/contracts-upgradeable/access/AccessControlUpgradeable.sol';\nimport '@openzeppelin/contracts-upgradeable/security/PausableUpgradeable.sol';\nimport '@openzeppelin/contracts-upgradeable/token/ERC1155/extensions/ERC1155SupplyUpgradeable.sol';\nimport '@openzeppelin/contracts-upgradeable/proxy/utils/Initializable.sol';\nimport '@openzeppelin/contracts-upgradeable/proxy/utils/UUPSUpgradeable.sol';\n\nimport './ProjectStorage.sol';\nimport './interfaces/ICarbonContractRegistry.sol';\nimport './utils/CustomSignaturesUpgradeable.sol';\n\ncontract Project is\n\tInitializable,\n\tERC1155Upgradeable,\n\tAccessControlUpgradeable,\n\tPausableUpgradeable,\n\tERC1155SupplyUpgradeable,\n\tUUPSUpgradeable,\n\tCustomSignaturesUpgradeable,\n\tProjectStorage\n{\n\tbytes32 public constant URI_SETTER_ROLE = keccak256('URI_SETTER_ROLE');\n\tbytes32 public constant PAUSER_ROLE = keccak256('PAUSER_ROLE');\n\tbytes32 public constant ANTE_MINTER_ROLE = keccak256('ANTE_MINTER_ROLE');\n\tbytes32 public constant POST_MINTER_ROLE = keccak256('POST_MINTER_ROLE');\n\tbytes32 public constant MINTER_ROLE = keccak256('MINTER_ROLE');\n\tbytes32 public constant UPGRADER_ROLE = keccak256('UPGRADER_ROLE');\n\tbytes32 public constant BLACKLISTED = keccak256('BLACKLISTED');\n\tbytes32 public constant BLACKLISTER_ROLE = keccak256('BLACKLISTER_ROLE');\n\tbytes32 public constant BURNER_ROLE = keccak256('BURNER_ROLE');\n\tbytes32 public constant VERIFIER_ROLE = keccak256('VERIFIER_ROLE');\n\tbytes32 public constant CLAWBACK_ROLE = keccak256('CLAWBACK_ROLE');\n\n\tevent ExPostCreated(\n\t\tuint256 indexed tokenId,\n\t\tuint256 estimatedAmount,\n\t\tuint256 verificationPeriodStart,\n\t\tuint256 verificationPeriodEnd,\n\t\tstring serialization\n\t);\n\n\tevent VintageMitigationEstimateChanged(\n\t\tuint256 indexed tokenId,\n\t\tuint256 newEstimate,\n\t\tuint256 oldEstimate,\n\t\tAdminActionReason indexed reason\n\t);\n\n\tevent ExAnteMinted(\n\t\taddress account,\n\t\tuint256 indexed tokenId,\n\t\tuint256 amount\n\t);\n\n\tevent ExPostVerifiedAndMinted(\n\t\tuint256 indexed tokenId,\n\t\tuint256 amount,\n\t\tuint256 amountToAnteHolders,\n\t\tuint256 verificationPeriodStart,\n\t\tuint256 verificationPeriodEnd,\n\t\tstring monitoringReport\n\t);\n\n\tevent AdminBurn(\n\t\taddress indexed from,\n\t\tuint256 indexed tokenId,\n\t\tuint256 amount,\n\t\tAdminActionReason indexed reason\n\t);\n\n\tevent AdminClawback(\n\t\taddress indexed from,\n\t\taddress to,\n\t\tuint256 indexed tokenId,\n\t\tuint256 amount,\n\t\tAdminActionReason indexed reason\n\t);\n\n\tevent ExchangeAnteForPost(\n\t\taddress indexed account,\n\t\tuint256 indexed exPostTokenId,\n\t\tuint256 exPostAmountReceived,\n\t\tuint256 exAnteAmountBurned\n\t);\n\n\tevent RetiredVintage(\n\t\taddress indexed account,\n\t\tuint256 indexed tokenId,\n\t\tuint256 amount,\n\t\tbytes data\n\t);\n\n\tevent SignedTransfer(\n\t\taddress indexed from,\n\t\taddress indexed to,\n\t\tuint256 indexed tokenId,\n\t\tuint256 amount\n\t);\n\n\tevent SignedRetire(\n\t\taddress indexed from,\n\t\tuint256 indexed tokenId,\n\t\tuint256 amount\n\t);\n\n\t/// @custom:oz-upgrades-unsafe-allow constructor\n\tconstructor() {\n\t\t_disableInitializers();\n\t}\n\n\tfunction initialize(\n\t\taddress _contractRegistry,\n\t\taddress _owner,\n\t\tuint256 _projectId,\n\t\tstring memory _projectName\n\t) public initializer {\n\t\t__ERC1155_init('');\n\t\t__AccessControl_init();\n\t\t__Pausable_init();\n\t\t__ERC1155Supply_init();\n\t\t__UUPSUpgradeable_init();\n\t\t__CustomSignatures_init(_projectName, '0.0.1');\n\n\t\t// Our Inits\n\t\t__ProjectStorage_init(_contractRegistry, 50, _projectId, _projectName);\n\n\t\t_grantRole(DEFAULT_ADMIN_ROLE, _owner);\n\t\t_grantRole(URI_SETTER_ROLE, _owner);\n\t\t_grantRole(PAUSER_ROLE, _owner);\n\t\t_grantRole(ANTE_MINTER_ROLE, _owner);\n\t\t_grantRole(POST_MINTER_ROLE, _owner);\n\t\t_grantRole(UPGRADER_ROLE, _owner);\n\t\t_grantRole(BLACKLISTER_ROLE, _owner);\n\t\t_grantRole(VERIFIER_ROLE, _owner);\n\n\t\t_grantRole(POST_MINTER_ROLE, msg.sender); // Just so projectFactory can mint exPost on creation of the project\n\t}\n\n\tmodifier notBlacklisted(address account) {\n\t\trequire(\n\t\t\t!hasRole(BLACKLISTED, account),\n\t\t\t'Project: Account is blacklisted'\n\t\t);\n\t\t_;\n\t}\n\n\tmodifier onlyExPostTokens(uint256[] memory tokenIds) {\n\t\tfor (uint256 i = 0; i < tokenIds.length; i++) {\n\t\t\trequire(isExPostToken(tokenIds[i]), 'Project: Token is not ExPost');\n\t\t}\n\t\t_;\n\t}\n\n\tmodifier onlyExPostToken(uint256 tokenId) {\n\t\trequire(isExPostToken(tokenId), 'Project: Token is not ExPost');\n\t\t_;\n\t}\n\n\tfunction isExPostToken(uint256 tokenId) public view returns (bool) {\n\t\treturn bytes(exPostVintageMapping[tokenId].serialization).length > 0;\n\t}\n\n\tmodifier onlyVerifiedStatus(bool isVerified, uint256 tokenId) {\n\t\trequire(\n\t\t\t(exPostVintageMapping[tokenId].lastVerificationTimestamp >=\n\t\t\t\texPostVintageMapping[tokenId].verificationPeriodEnd) ==\n\t\t\t\tisVerified,\n\t\t\tisVerified\n\t\t\t\t? 'Project: Token is unverified'\n\t\t\t\t: 'Project: Token is verified'\n\t\t);\n\t\t_;\n\t}\n\n\t// ----------------------------------\n\t//         Minting Functions\n\t// ----------------------------------\n\n\tfunction createExPostVintage(\n\t\tuint256 estAmount,\n\t\tuint256 verificationPeriodStart,\n\t\tuint256 verificationPeriodEnd,\n\t\tstring memory serialization\n\t) public onlyRole(POST_MINTER_ROLE) {\n\t\trequire(\n\t\t\tverificationPeriodEnd > verificationPeriodStart,\n\t\t\t'Project: Invalid verification period'\n\t\t);\n\t\tuint256 newTokenId = nextTokenId();\n\t\tICarbonContractRegistry(contractRegistry).registerSerialization(\n\t\t\tserialization\n\t\t);\n\t\tserializationToExPostTokenIdMapping[serialization] = newTokenId;\n\t\texPostVintageMapping[newTokenId] = VintageData(\n\t\t\tserialization,\n\t\t\testAmount,\n\t\t\tverificationPeriodStart,\n\t\t\tverificationPeriodEnd,\n\t\t\t0\n\t\t);\n\t\temit ExPostCreated(\n\t\t\tnewTokenId,\n\t\t\testAmount,\n\t\t\tverificationPeriodStart,\n\t\t\tverificationPeriodEnd,\n\t\t\tserialization\n\t\t);\n\t}\n\n\tfunction createExPostVintageBatch(\n\t\tVintageData[] memory vintages\n\t) public onlyRole(POST_MINTER_ROLE) {\n\t\tfor (uint256 i = 0; i < vintages.length; i++) {\n\t\t\tcreateExPostVintage(\n\t\t\t\tvintages[i].estMitigations,\n\t\t\t\tvintages[i].verificationPeriodStart,\n\t\t\t\tvintages[i].verificationPeriodEnd,\n\t\t\t\tvintages[i].serialization\n\t\t\t);\n\t\t}\n\t}\n\n\tfunction mintExAnte(\n\t\taddress account,\n\t\tuint256 exPostTokenId,\n\t\tuint256 amount,\n\t\tbytes memory data\n\t)\n\t\tpublic\n\t\tonlyRole(ANTE_MINTER_ROLE)\n\t\tonlyExPostToken(exPostTokenId)\n\t\tonlyVerifiedStatus(false, exPostTokenId)\n\t{\n\t\tuint256 exAnteTokenId = exPostToExAnteTokenId[exPostTokenId];\n\t\tif (exAnteTokenId == 0) {\n\t\t\texAnteTokenId = nextTokenId();\n\t\t\texPostToExAnteTokenId[exPostTokenId] = exAnteTokenId;\n\t\t}\n\n\t\tuint256 exPostEstimatedSupply = exPostVintageMapping[exPostTokenId]\n\t\t\t.estMitigations;\n\t\tuint256 exPostVerifiedSupply = totalSupply(exPostTokenId);\n\t\tuint256 anteDrawablePostSupply = exPostEstimatedSupply -\n\t\t\texPostVerifiedSupply;\n\t\tuint256 maxExAnteSupply = (anteDrawablePostSupply *\n\t\t\t(maxAntePercentage)) / (100);\n\t\tuint256 exAnteSupply = totalSupply(exAnteTokenId);\n\n\t\trequire(\n\t\t\texAnteSupply + amount <= maxExAnteSupply,\n\t\t\t'Maximum exAnte supply exceeded'\n\t\t);\n\n\t\texAnteToExPostTokenId[exAnteTokenId] = exPostTokenId;\n\t\t_mint(account, exAnteTokenId, amount, data);\n\t\temit ExAnteMinted(account, exAnteTokenId, amount);\n\t}\n\n\tfunction changeVintageMitigationEstimate(\n\t\tuint256 tokenId,\n\t\tuint256 newEstAmount,\n\t\tAdminActionReason reason\n\t)\n\t\tpublic\n\t\tonlyRole(DEFAULT_ADMIN_ROLE)\n\t\tonlyExPostToken(tokenId)\n\t\tonlyVerifiedStatus(false, tokenId)\n\t{\n\t\temit VintageMitigationEstimateChanged(\n\t\t\ttokenId,\n\t\t\tnewEstAmount,\n\t\t\texPostVintageMapping[tokenId].estMitigations,\n\t\t\treason\n\t\t);\n\t\texPostVintageMapping[tokenId].estMitigations = newEstAmount;\n\t}\n\n\tfunction verifyAndMintExPost(\n\t\taddress verificationVault,\n\t\tuint256 tokenId,\n\t\tuint256 amountVerified,\n\t\tuint256 amountToAnteHolders,\n\t\tuint256 verificationPeriodStart,\n\t\tuint256 verificationPeriodEnd,\n\t\tstring memory monitoringReport\n\t)\n\t\tpublic\n\t\tonlyRole(VERIFIER_ROLE)\n\t\tonlyExPostToken(tokenId)\n\t\tonlyVerifiedStatus(false, tokenId)\n\t{\n\t\trequire(\n\t\t\tamountVerified >= amountToAnteHolders,\n\t\t\t'Project: Invalid amount'\n\t\t);\n\t\trequire(\n\t\t\tverificationPeriodEnd >=\n\t\t\t\texPostVintageMapping[tokenId].verificationPeriodStart,\n\t\t\t'Verification timestamp is before verification period start'\n\t\t);\n\t\trequire(\n\t\t\tverificationPeriodEnd >\n\t\t\t\texPostVintageMapping[tokenId].lastVerificationTimestamp,\n\t\t\t'Verification timestamp is before last verification timestamp'\n\t\t);\n\n\t\tuint256 exAnteTokenId = exPostToExAnteTokenId[tokenId];\n\t\tif (exAnteTokenId == 0) {\n\t\t\t// If exAnteTokenId is zero then there are no ante holders\n\t\t\trequire(amountToAnteHolders == 0, 'Project: Invalid amount');\n\t\t}\n\n\t\tif (amountVerified - amountToAnteHolders > 0) {\n\t\t\t// Mint To Verification Vault\n\t\t\t_mint(\n\t\t\t\tverificationVault,\n\t\t\t\ttokenId,\n\t\t\t\tamountVerified - amountToAnteHolders,\n\t\t\t\t''\n\t\t\t);\n\t\t}\n\t\texPostVintageMapping[tokenId]\n\t\t\t.lastVerificationTimestamp = verificationPeriodEnd;\n\n\t\tif (amountToAnteHolders > 0) {\n\t\t\t// Mint to this address, where ante holders will claim\n\t\t\t_mint(address(this), tokenId, amountToAnteHolders, '');\n\t\t}\n\n\t\temit ExPostVerifiedAndMinted(\n\t\t\ttokenId,\n\t\t\tamountVerified,\n\t\t\tamountToAnteHolders,\n\t\t\tverificationPeriodStart,\n\t\t\tverificationPeriodEnd,\n\t\t\tmonitoringReport\n\t\t);\n\t}\n\n\tfunction adminBurn(\n\t\taddress from,\n\t\tuint256 tokenId,\n\t\tuint256 amount,\n\t\tAdminActionReason reason\n\t) public onlyRole(BURNER_ROLE) {\n\t\t_burn(from, tokenId, amount);\n\t\temit AdminBurn(from, tokenId, amount, reason);\n\t}\n\n\tfunction adminClawback(\n\t\taddress from,\n\t\taddress to,\n\t\tuint256 tokenId,\n\t\tuint256 amount,\n\t\tAdminActionReason reason\n\t) public onlyRole(CLAWBACK_ROLE) {\n\t\t_safeTransferFrom(from, to, tokenId, amount, '');\n\t\temit AdminClawback(from, to, tokenId, amount, reason);\n\t}\n\n\tfunction exchangeAnteForPostEvenSteven(\n\t\taddress[] memory accounts,\n\t\tuint256 exPostTokenId,\n\t\tbytes memory data\n\t)\n\t\texternal\n\t\tonlyExPostToken(exPostTokenId)\n\t\tonlyVerifiedStatus(true, exPostTokenId)\n\t{\n\t\tuint256 exAnteTokenId = exPostToExAnteTokenId[exPostTokenId];\n\t\trequire(exAnteTokenId != 0, 'Project: No ante holders');\n\t\tuint256 currentExAnteSupply = totalSupply(exAnteTokenId);\n\t\tuint256 currentExPostSupplyInContract = balanceOf(\n\t\t\taddress(this),\n\t\t\texPostTokenId\n\t\t);\n\n\t\tfor (uint256 i = 0; i < accounts.length; i++) {\n\t\t\tuint256 amountExAnte = balanceOf(accounts[i], exAnteTokenId);\n\t\t\tuint256 amountExPost = (amountExAnte *\n\t\t\t\tcurrentExPostSupplyInContract) / currentExAnteSupply;\n\t\t\tuint256 exAnteBurnAmount = amountExAnte;\n\t\t\tif (amountExAnte > amountExPost) {\n\t\t\t\texAnteBurnAmount = amountExPost;\n\t\t\t}\n\t\t\t_burn(accounts[i], exAnteTokenId, exAnteBurnAmount);\n\t\t\t_safeTransferFrom(\n\t\t\t\taddress(this),\n\t\t\t\taccounts[i],\n\t\t\t\texPostTokenId,\n\t\t\t\tamountExPost,\n\t\t\t\tdata\n\t\t\t);\n\t\t\temit ExchangeAnteForPost(\n\t\t\t\taccounts[i],\n\t\t\t\texPostTokenId,\n\t\t\t\tamountExPost,\n\t\t\t\texAnteBurnAmount\n\t\t\t);\n\t\t}\n\t}\n\n\tfunction getExPostVintageData(\n\t\tuint256 exAnteTokenId\n\t) public view returns (VintageData memory) {\n\t\tuint256 exPostTokenId = exAnteToExPostTokenId[exAnteTokenId];\n\t\treturn exPostVintageMapping[exPostTokenId];\n\t}\n\n\t// ----------------------------------\n\t//              Actions\n\t// ----------------------------------\n\n\tfunction transferFromSignature(\n\t\tbytes calldata signature,\n\t\tsignatureTransferPayload calldata payload,\n\t\tbytes memory data\n\t) public payable onlyValidSignatureTransfer(signature, payload) {\n\t\t_safeTransferFrom(\n\t\t\tpayload.signer,\n\t\t\tpayload.to,\n\t\t\tpayload.tokenId,\n\t\t\tpayload.amount,\n\t\t\tdata\n\t\t);\n\t\temit SignedTransfer(\n\t\t\tpayload.signer,\n\t\t\tpayload.to,\n\t\t\tpayload.tokenId,\n\t\t\tpayload.amount\n\t\t);\n\t}\n\n\tfunction retire(\n\t\tuint256 tokenId,\n\t\tuint256 amount,\n\t\tbytes memory data\n\t) public onlyExPostToken(tokenId) onlyVerifiedStatus(true, tokenId) {\n\t\t_burn(msg.sender, tokenId, amount);\n\t\tmintRetirementCertificate(msg.sender, tokenId, amount);\n\t\temit RetiredVintage(msg.sender, tokenId, amount, data);\n\t}\n\n\tfunction retireFromSignature(\n\t\tbytes calldata signature,\n\t\tsignatureTransferPayload calldata payload\n\t)\n\t\tpublic\n\t\tpayable\n\t\tonlyExPostToken(payload.tokenId)\n\t\tonlyVerifiedStatus(true, payload.tokenId)\n\t\tonlyValidSignatureTransfer(signature, payload)\n\t\treturns (uint256 nftTokenId)\n\t{\n\t\t_burn(payload.signer, payload.tokenId, payload.amount);\n\t\tnftTokenId = mintRetirementCertificate(\n\t\t\tpayload.signer,\n\t\t\tpayload.tokenId,\n\t\t\tpayload.amount\n\t\t);\n\t\temit SignedRetire(payload.signer, payload.tokenId, payload.amount);\n\t}\n\n\tfunction mintRetirementCertificate(\n\t\taddress account,\n\t\tuint256 tokenId,\n\t\tuint256 amount\n\t) internal returns (uint256) {\n\t\tuint256 nftTokenId = nextTokenId();\n\t\tretirementMapping[nftTokenId] = RetirementData(\n\t\t\taccount,\n\t\t\tamount,\n\t\t\ttokenId,\n\t\t\t'',\n\t\t\t'',\n\t\t\t''\n\t\t);\n\t\t_mint(account, nftTokenId, 1, '');\n\t\treturn nftTokenId;\n\t}\n\n\t// ----------------------------------\n\t//              Hooks\n\t// ----------------------------------\n\n\tfunction _beforeTokenTransfer(\n\t\taddress operator,\n\t\taddress from,\n\t\taddress to,\n\t\tuint256[] memory ids,\n\t\tuint256[] memory amounts,\n\t\tbytes memory data\n\t)\n\t\tinternal\n\t\toverride(ERC1155Upgradeable, ERC1155SupplyUpgradeable)\n\t\twhenNotPaused\n\t\tnotBlacklisted(from)\n\t\tnotBlacklisted(to)\n\t{\n\t\tsuper._beforeTokenTransfer(operator, from, to, ids, amounts, data);\n\t}\n\n\tfunction setURI(string memory newuri) public onlyRole(URI_SETTER_ROLE) {\n\t\t_setURI(newuri);\n\t}\n\n\tfunction pause() public onlyRole(PAUSER_ROLE) {\n\t\t_pause();\n\t}\n\n\tfunction unpause() public onlyRole(PAUSER_ROLE) {\n\t\t_unpause();\n\t}\n\n\tfunction nextTokenId() internal returns (uint256) {\n\t\tunchecked {\n\t\t\ttopTokenId += 1;\n\t\t}\n\t\treturn topTokenId;\n\t}\n\n\tfunction _authorizeUpgrade(\n\t\taddress newImplementation\n\t) internal override onlyRole(UPGRADER_ROLE) {}\n\n\t// The following functions are overrides required by Solidity.\n\n\tfunction supportsInterface(\n\t\tbytes4 interfaceId\n\t)\n\t\tpublic\n\t\tview\n\t\toverride(ERC1155Upgradeable, AccessControlUpgradeable)\n\t\treturns (bool)\n\t{\n\t\treturn super.supportsInterface(interfaceId);\n\t}\n}\n",
  "sourcePath": "/Users/thorduragustsson/Programming/Projects/CarbonRegistryContracts/contracts/Project.sol",
  "compiler": {
    "name": "solc",
    "version": "0.8.13+commit.abaa5c0e.Emscripten.clang"
  },
  "schemaVersion": "3.4.13",
  "updatedAt": "2023-04-17T16:25:40.865Z",
  "devdoc": {
    "kind": "dev",
    "methods": {
      "balanceOf(address,uint256)": {
        "details": "See {IERC1155-balanceOf}. Requirements: - `account` cannot be the zero address."
      },
      "balanceOfBatch(address[],uint256[])": {
        "details": "See {IERC1155-balanceOfBatch}. Requirements: - `accounts` and `ids` must have the same length."
      },
      "constructor": {
        "custom:oz-upgrades-unsafe-allow": "constructor"
      },
      "exists(uint256)": {
        "details": "Indicates whether any token exist with a given id, or not."
      },
      "getRoleAdmin(bytes32)": {
        "details": "Returns the admin role that controls `role`. See {grantRole} and {revokeRole}. To change a role's admin, use {_setRoleAdmin}."
      },
      "grantRole(bytes32,address)": {
        "details": "Grants `role` to `account`. If `account` had not been already granted `role`, emits a {RoleGranted} event. Requirements: - the caller must have ``role``'s admin role. May emit a {RoleGranted} event."
      },
      "hasRole(bytes32,address)": {
        "details": "Returns `true` if `account` has been granted `role`."
      },
      "isApprovedForAll(address,address)": {
        "details": "See {IERC1155-isApprovedForAll}."
      },
      "paused()": {
        "details": "Returns true if the contract is paused, and false otherwise."
      },
      "proxiableUUID()": {
        "details": "Implementation of the ERC1822 {proxiableUUID} function. This returns the storage slot used by the implementation. It is used to validate the implementation's compatibility when performing an upgrade. IMPORTANT: A proxy pointing at a proxiable contract should not be considered proxiable itself, because this risks bricking a proxy that upgrades to it, by delegating to itself until out of gas. Thus it is critical that this function revert if invoked through a proxy. This is guaranteed by the `notDelegated` modifier."
      },
      "renounceRole(bytes32,address)": {
        "details": "Revokes `role` from the calling account. Roles are often managed via {grantRole} and {revokeRole}: this function's purpose is to provide a mechanism for accounts to lose their privileges if they are compromised (such as when a trusted device is misplaced). If the calling account had been revoked `role`, emits a {RoleRevoked} event. Requirements: - the caller must be `account`. May emit a {RoleRevoked} event."
      },
      "revokeRole(bytes32,address)": {
        "details": "Revokes `role` from `account`. If `account` had been granted `role`, emits a {RoleRevoked} event. Requirements: - the caller must have ``role``'s admin role. May emit a {RoleRevoked} event."
      },
      "safeBatchTransferFrom(address,address,uint256[],uint256[],bytes)": {
        "details": "See {IERC1155-safeBatchTransferFrom}."
      },
      "safeTransferFrom(address,address,uint256,uint256,bytes)": {
        "details": "See {IERC1155-safeTransferFrom}."
      },
      "setApprovalForAll(address,bool)": {
        "details": "See {IERC1155-setApprovalForAll}."
      },
      "totalSupply(uint256)": {
        "details": "Total amount of tokens in with a given id."
      },
      "upgradeTo(address)": {
        "details": "Upgrade the implementation of the proxy to `newImplementation`. Calls {_authorizeUpgrade}. Emits an {Upgraded} event."
      },
      "upgradeToAndCall(address,bytes)": {
        "details": "Upgrade the implementation of the proxy to `newImplementation`, and subsequently execute the function call encoded in `data`. Calls {_authorizeUpgrade}. Emits an {Upgraded} event."
      },
      "uri(uint256)": {
        "details": "See {IERC1155MetadataURI-uri}. This implementation returns the same URI for *all* token types. It relies on the token type ID substitution mechanism https://eips.ethereum.org/EIPS/eip-1155#metadata[defined in the EIP]. Clients calling this function must replace the `\\{id\\}` substring with the actual token type ID."
      }
    },
    "version": 1
  },
  "userdoc": {
    "kind": "user",
    "methods": {},
    "version": 1
  }
}