{
  "contractName": "Project",
  "abi": [
    {
      "inputs": [],
      "stateMutability": "nonpayable",
      "type": "constructor"
    },
    {
      "anonymous": false,
      "inputs": [
        {
          "indexed": false,
          "internalType": "address",
          "name": "previousAdmin",
          "type": "address"
        },
        {
          "indexed": false,
          "internalType": "address",
          "name": "newAdmin",
          "type": "address"
        }
      ],
      "name": "AdminChanged",
      "type": "event"
    },
    {
      "anonymous": false,
      "inputs": [
        {
          "indexed": true,
          "internalType": "address",
          "name": "account",
          "type": "address"
        },
        {
          "indexed": true,
          "internalType": "address",
          "name": "operator",
          "type": "address"
        },
        {
          "indexed": false,
          "internalType": "bool",
          "name": "approved",
          "type": "bool"
        }
      ],
      "name": "ApprovalForAll",
      "type": "event"
    },
    {
      "anonymous": false,
      "inputs": [
        {
          "indexed": true,
          "internalType": "address",
          "name": "beacon",
          "type": "address"
        }
      ],
      "name": "BeaconUpgraded",
      "type": "event"
    },
    {
      "anonymous": false,
      "inputs": [
        {
          "indexed": true,
          "internalType": "address",
          "name": "account",
          "type": "address"
        },
        {
          "indexed": true,
          "internalType": "uint256",
          "name": "tokenId",
          "type": "uint256"
        },
        {
          "indexed": false,
          "internalType": "uint256",
          "name": "amount",
          "type": "uint256"
        },
        {
          "indexed": true,
          "internalType": "string",
          "name": "serialization",
          "type": "string"
        }
      ],
      "name": "ExPostMinted",
      "type": "event"
    },
    {
      "anonymous": false,
      "inputs": [
        {
          "indexed": false,
          "internalType": "uint8",
          "name": "version",
          "type": "uint8"
        }
      ],
      "name": "Initialized",
      "type": "event"
    },
    {
      "anonymous": false,
      "inputs": [
        {
          "indexed": false,
          "internalType": "address",
          "name": "account",
          "type": "address"
        }
      ],
      "name": "Paused",
      "type": "event"
    },
    {
      "anonymous": false,
      "inputs": [
        {
          "indexed": true,
          "internalType": "bytes32",
          "name": "role",
          "type": "bytes32"
        },
        {
          "indexed": true,
          "internalType": "bytes32",
          "name": "previousAdminRole",
          "type": "bytes32"
        },
        {
          "indexed": true,
          "internalType": "bytes32",
          "name": "newAdminRole",
          "type": "bytes32"
        }
      ],
      "name": "RoleAdminChanged",
      "type": "event"
    },
    {
      "anonymous": false,
      "inputs": [
        {
          "indexed": true,
          "internalType": "bytes32",
          "name": "role",
          "type": "bytes32"
        },
        {
          "indexed": true,
          "internalType": "address",
          "name": "account",
          "type": "address"
        },
        {
          "indexed": true,
          "internalType": "address",
          "name": "sender",
          "type": "address"
        }
      ],
      "name": "RoleGranted",
      "type": "event"
    },
    {
      "anonymous": false,
      "inputs": [
        {
          "indexed": true,
          "internalType": "bytes32",
          "name": "role",
          "type": "bytes32"
        },
        {
          "indexed": true,
          "internalType": "address",
          "name": "account",
          "type": "address"
        },
        {
          "indexed": true,
          "internalType": "address",
          "name": "sender",
          "type": "address"
        }
      ],
      "name": "RoleRevoked",
      "type": "event"
    },
    {
      "anonymous": false,
      "inputs": [
        {
          "indexed": true,
          "internalType": "address",
          "name": "operator",
          "type": "address"
        },
        {
          "indexed": true,
          "internalType": "address",
          "name": "from",
          "type": "address"
        },
        {
          "indexed": true,
          "internalType": "address",
          "name": "to",
          "type": "address"
        },
        {
          "indexed": false,
          "internalType": "uint256[]",
          "name": "ids",
          "type": "uint256[]"
        },
        {
          "indexed": false,
          "internalType": "uint256[]",
          "name": "values",
          "type": "uint256[]"
        }
      ],
      "name": "TransferBatch",
      "type": "event"
    },
    {
      "anonymous": false,
      "inputs": [
        {
          "indexed": true,
          "internalType": "address",
          "name": "operator",
          "type": "address"
        },
        {
          "indexed": true,
          "internalType": "address",
          "name": "from",
          "type": "address"
        },
        {
          "indexed": true,
          "internalType": "address",
          "name": "to",
          "type": "address"
        },
        {
          "indexed": false,
          "internalType": "uint256",
          "name": "id",
          "type": "uint256"
        },
        {
          "indexed": false,
          "internalType": "uint256",
          "name": "value",
          "type": "uint256"
        }
      ],
      "name": "TransferSingle",
      "type": "event"
    },
    {
      "anonymous": false,
      "inputs": [
        {
          "indexed": false,
          "internalType": "string",
          "name": "value",
          "type": "string"
        },
        {
          "indexed": true,
          "internalType": "uint256",
          "name": "id",
          "type": "uint256"
        }
      ],
      "name": "URI",
      "type": "event"
    },
    {
      "anonymous": false,
      "inputs": [
        {
          "indexed": false,
          "internalType": "address",
          "name": "account",
          "type": "address"
        }
      ],
      "name": "Unpaused",
      "type": "event"
    },
    {
      "anonymous": false,
      "inputs": [
        {
          "indexed": true,
          "internalType": "address",
          "name": "implementation",
          "type": "address"
        }
      ],
      "name": "Upgraded",
      "type": "event"
    },
    {
      "inputs": [],
      "name": "ANTE_MINTER_ROLE",
      "outputs": [
        {
          "internalType": "bytes32",
          "name": "",
          "type": "bytes32"
        }
      ],
      "stateMutability": "view",
      "type": "function"
    },
    {
      "inputs": [],
      "name": "DEFAULT_ADMIN_ROLE",
      "outputs": [
        {
          "internalType": "bytes32",
          "name": "",
          "type": "bytes32"
        }
      ],
      "stateMutability": "view",
      "type": "function"
    },
    {
      "inputs": [],
      "name": "PAUSER_ROLE",
      "outputs": [
        {
          "internalType": "bytes32",
          "name": "",
          "type": "bytes32"
        }
      ],
      "stateMutability": "view",
      "type": "function"
    },
    {
      "inputs": [],
      "name": "POST_MINTER_ROLE",
      "outputs": [
        {
          "internalType": "bytes32",
          "name": "",
          "type": "bytes32"
        }
      ],
      "stateMutability": "view",
      "type": "function"
    },
    {
      "inputs": [],
      "name": "UPGRADER_ROLE",
      "outputs": [
        {
          "internalType": "bytes32",
          "name": "",
          "type": "bytes32"
        }
      ],
      "stateMutability": "view",
      "type": "function"
    },
    {
      "inputs": [],
      "name": "URI_SETTER_ROLE",
      "outputs": [
        {
          "internalType": "bytes32",
          "name": "",
          "type": "bytes32"
        }
      ],
      "stateMutability": "view",
      "type": "function"
    },
    {
      "inputs": [
        {
          "internalType": "uint8",
          "name": "_maxAntePerc",
          "type": "uint8"
        }
      ],
      "name": "__ProjectStorage_init",
      "outputs": [],
      "stateMutability": "nonpayable",
      "type": "function"
    },
    {
      "inputs": [
        {
          "internalType": "address",
          "name": "account",
          "type": "address"
        },
        {
          "internalType": "uint256",
          "name": "id",
          "type": "uint256"
        }
      ],
      "name": "balanceOf",
      "outputs": [
        {
          "internalType": "uint256",
          "name": "",
          "type": "uint256"
        }
      ],
      "stateMutability": "view",
      "type": "function"
    },
    {
      "inputs": [
        {
          "internalType": "address[]",
          "name": "accounts",
          "type": "address[]"
        },
        {
          "internalType": "uint256[]",
          "name": "ids",
          "type": "uint256[]"
        }
      ],
      "name": "balanceOfBatch",
      "outputs": [
        {
          "internalType": "uint256[]",
          "name": "",
          "type": "uint256[]"
        }
      ],
      "stateMutability": "view",
      "type": "function"
    },
    {
      "inputs": [
        {
          "internalType": "address",
          "name": "account",
          "type": "address"
        },
        {
          "internalType": "uint256",
          "name": "id",
          "type": "uint256"
        },
        {
          "internalType": "uint256",
          "name": "value",
          "type": "uint256"
        }
      ],
      "name": "burn",
      "outputs": [],
      "stateMutability": "nonpayable",
      "type": "function"
    },
    {
      "inputs": [
        {
          "internalType": "address",
          "name": "account",
          "type": "address"
        },
        {
          "internalType": "uint256[]",
          "name": "ids",
          "type": "uint256[]"
        },
        {
          "internalType": "uint256[]",
          "name": "values",
          "type": "uint256[]"
        }
      ],
      "name": "burnBatch",
      "outputs": [],
      "stateMutability": "nonpayable",
      "type": "function"
    },
    {
      "inputs": [
        {
          "internalType": "uint256",
          "name": "",
          "type": "uint256"
        }
      ],
      "name": "exPostToExAnteToken",
      "outputs": [
        {
          "internalType": "uint256",
          "name": "",
          "type": "uint256"
        }
      ],
      "stateMutability": "view",
      "type": "function"
    },
    {
      "inputs": [
        {
          "internalType": "uint256",
          "name": "id",
          "type": "uint256"
        }
      ],
      "name": "exists",
      "outputs": [
        {
          "internalType": "bool",
          "name": "",
          "type": "bool"
        }
      ],
      "stateMutability": "view",
      "type": "function"
    },
    {
      "inputs": [
        {
          "internalType": "bytes32",
          "name": "role",
          "type": "bytes32"
        }
      ],
      "name": "getRoleAdmin",
      "outputs": [
        {
          "internalType": "bytes32",
          "name": "",
          "type": "bytes32"
        }
      ],
      "stateMutability": "view",
      "type": "function"
    },
    {
      "inputs": [
        {
          "internalType": "bytes32",
          "name": "role",
          "type": "bytes32"
        },
        {
          "internalType": "address",
          "name": "account",
          "type": "address"
        }
      ],
      "name": "grantRole",
      "outputs": [],
      "stateMutability": "nonpayable",
      "type": "function"
    },
    {
      "inputs": [
        {
          "internalType": "bytes32",
          "name": "role",
          "type": "bytes32"
        },
        {
          "internalType": "address",
          "name": "account",
          "type": "address"
        }
      ],
      "name": "hasRole",
      "outputs": [
        {
          "internalType": "bool",
          "name": "",
          "type": "bool"
        }
      ],
      "stateMutability": "view",
      "type": "function"
    },
    {
      "inputs": [
        {
          "internalType": "address",
          "name": "account",
          "type": "address"
        },
        {
          "internalType": "address",
          "name": "operator",
          "type": "address"
        }
      ],
      "name": "isApprovedForAll",
      "outputs": [
        {
          "internalType": "bool",
          "name": "",
          "type": "bool"
        }
      ],
      "stateMutability": "view",
      "type": "function"
    },
    {
      "inputs": [
        {
          "internalType": "uint256",
          "name": "",
          "type": "uint256"
        }
      ],
      "name": "isTokenClawbackEnabled",
      "outputs": [
        {
          "internalType": "bool",
          "name": "",
          "type": "bool"
        }
      ],
      "stateMutability": "view",
      "type": "function"
    },
    {
      "inputs": [
        {
          "internalType": "uint256",
          "name": "",
          "type": "uint256"
        }
      ],
      "name": "isTokenMintable",
      "outputs": [
        {
          "internalType": "bool",
          "name": "",
          "type": "bool"
        }
      ],
      "stateMutability": "view",
      "type": "function"
    },
    {
      "inputs": [],
      "name": "maxAntePercentage",
      "outputs": [
        {
          "internalType": "uint8",
          "name": "",
          "type": "uint8"
        }
      ],
      "stateMutability": "view",
      "type": "function"
    },
    {
      "inputs": [],
      "name": "paused",
      "outputs": [
        {
          "internalType": "bool",
          "name": "",
          "type": "bool"
        }
      ],
      "stateMutability": "view",
      "type": "function"
    },
    {
      "inputs": [],
      "name": "projectId",
      "outputs": [
        {
          "internalType": "string",
          "name": "",
          "type": "string"
        }
      ],
      "stateMutability": "view",
      "type": "function"
    },
    {
      "inputs": [],
      "name": "proxiableUUID",
      "outputs": [
        {
          "internalType": "bytes32",
          "name": "",
          "type": "bytes32"
        }
      ],
      "stateMutability": "view",
      "type": "function"
    },
    {
      "inputs": [
        {
          "internalType": "bytes32",
          "name": "role",
          "type": "bytes32"
        },
        {
          "internalType": "address",
          "name": "account",
          "type": "address"
        }
      ],
      "name": "renounceRole",
      "outputs": [],
      "stateMutability": "nonpayable",
      "type": "function"
    },
    {
      "inputs": [
        {
          "internalType": "uint256",
          "name": "",
          "type": "uint256"
        }
      ],
      "name": "retirementMapping",
      "outputs": [
        {
          "internalType": "address",
          "name": "retireeAddress",
          "type": "address"
        },
        {
          "internalType": "uint256",
          "name": "amount",
          "type": "uint256"
        },
        {
          "internalType": "uint256",
          "name": "vintageTokenId",
          "type": "uint256"
        },
        {
          "internalType": "string",
          "name": "retiree",
          "type": "string"
        },
        {
          "internalType": "string",
          "name": "customUri",
          "type": "string"
        },
        {
          "internalType": "string",
          "name": "comment",
          "type": "string"
        }
      ],
      "stateMutability": "view",
      "type": "function"
    },
    {
      "inputs": [
        {
          "internalType": "bytes32",
          "name": "role",
          "type": "bytes32"
        },
        {
          "internalType": "address",
          "name": "account",
          "type": "address"
        }
      ],
      "name": "revokeRole",
      "outputs": [],
      "stateMutability": "nonpayable",
      "type": "function"
    },
    {
      "inputs": [
        {
          "internalType": "address",
          "name": "from",
          "type": "address"
        },
        {
          "internalType": "address",
          "name": "to",
          "type": "address"
        },
        {
          "internalType": "uint256[]",
          "name": "ids",
          "type": "uint256[]"
        },
        {
          "internalType": "uint256[]",
          "name": "amounts",
          "type": "uint256[]"
        },
        {
          "internalType": "bytes",
          "name": "data",
          "type": "bytes"
        }
      ],
      "name": "safeBatchTransferFrom",
      "outputs": [],
      "stateMutability": "nonpayable",
      "type": "function"
    },
    {
      "inputs": [
        {
          "internalType": "address",
          "name": "from",
          "type": "address"
        },
        {
          "internalType": "address",
          "name": "to",
          "type": "address"
        },
        {
          "internalType": "uint256",
          "name": "id",
          "type": "uint256"
        },
        {
          "internalType": "uint256",
          "name": "amount",
          "type": "uint256"
        },
        {
          "internalType": "bytes",
          "name": "data",
          "type": "bytes"
        }
      ],
      "name": "safeTransferFrom",
      "outputs": [],
      "stateMutability": "nonpayable",
      "type": "function"
    },
    {
      "inputs": [
        {
          "internalType": "string",
          "name": "",
          "type": "string"
        }
      ],
      "name": "serializationToTokenIdMapping",
      "outputs": [
        {
          "internalType": "uint256",
          "name": "",
          "type": "uint256"
        }
      ],
      "stateMutability": "view",
      "type": "function"
    },
    {
      "inputs": [
        {
          "internalType": "address",
          "name": "operator",
          "type": "address"
        },
        {
          "internalType": "bool",
          "name": "approved",
          "type": "bool"
        }
      ],
      "name": "setApprovalForAll",
      "outputs": [],
      "stateMutability": "nonpayable",
      "type": "function"
    },
    {
      "inputs": [
        {
          "internalType": "uint256",
          "name": "id",
          "type": "uint256"
        }
      ],
      "name": "totalSupply",
      "outputs": [
        {
          "internalType": "uint256",
          "name": "",
          "type": "uint256"
        }
      ],
      "stateMutability": "view",
      "type": "function"
    },
    {
      "inputs": [
        {
          "internalType": "address",
          "name": "newImplementation",
          "type": "address"
        }
      ],
      "name": "upgradeTo",
      "outputs": [],
      "stateMutability": "nonpayable",
      "type": "function"
    },
    {
      "inputs": [
        {
          "internalType": "address",
          "name": "newImplementation",
          "type": "address"
        },
        {
          "internalType": "bytes",
          "name": "data",
          "type": "bytes"
        }
      ],
      "name": "upgradeToAndCall",
      "outputs": [],
      "stateMutability": "payable",
      "type": "function"
    },
    {
      "inputs": [
        {
          "internalType": "uint256",
          "name": "",
          "type": "uint256"
        }
      ],
      "name": "uri",
      "outputs": [
        {
          "internalType": "string",
          "name": "",
          "type": "string"
        }
      ],
      "stateMutability": "view",
      "type": "function"
    },
    {
      "inputs": [
        {
          "internalType": "uint256",
          "name": "",
          "type": "uint256"
        }
      ],
      "name": "vintageMapping",
      "outputs": [
        {
          "internalType": "string",
          "name": "serialization",
          "type": "string"
        },
        {
          "internalType": "bool",
          "name": "verified",
          "type": "bool"
        },
        {
          "internalType": "enum TokenType",
          "name": "tokenType",
          "type": "uint8"
        }
      ],
      "stateMutability": "view",
      "type": "function"
    },
    {
      "inputs": [
        {
          "internalType": "address",
          "name": "owner",
          "type": "address"
        }
      ],
      "name": "initialize",
      "outputs": [],
      "stateMutability": "nonpayable",
      "type": "function"
    },
    {
      "inputs": [
        {
          "internalType": "string",
          "name": "newuri",
          "type": "string"
        }
      ],
      "name": "setURI",
      "outputs": [],
      "stateMutability": "nonpayable",
      "type": "function"
    },
    {
      "inputs": [],
      "name": "pause",
      "outputs": [],
      "stateMutability": "nonpayable",
      "type": "function"
    },
    {
      "inputs": [],
      "name": "unpause",
      "outputs": [],
      "stateMutability": "nonpayable",
      "type": "function"
    },
    {
      "inputs": [
        {
          "internalType": "address",
          "name": "account",
          "type": "address"
        },
        {
          "internalType": "uint256",
          "name": "amount",
          "type": "uint256"
        },
        {
          "internalType": "string",
          "name": "serialization",
          "type": "string"
        },
        {
          "internalType": "bytes",
          "name": "data",
          "type": "bytes"
        }
      ],
      "name": "mintExPost",
      "outputs": [],
      "stateMutability": "nonpayable",
      "type": "function"
    },
    {
      "inputs": [
        {
          "internalType": "bytes4",
          "name": "interfaceId",
          "type": "bytes4"
        }
      ],
      "name": "supportsInterface",
      "outputs": [
        {
          "internalType": "bool",
          "name": "",
          "type": "bool"
        }
      ],
      "stateMutability": "view",
      "type": "function"
    }
  ],
  "bytecode": "0x60a0604052306080523480156200001557600080fd5b506200002062000026565b620000e8565b600054610100900460ff1615620000935760405162461bcd60e51b815260206004820152602760248201527f496e697469616c697a61626c653a20636f6e747261637420697320696e697469604482015266616c697a696e6760c81b606482015260840160405180910390fd5b60005460ff9081161015620000e6576000805460ff191660ff9081179091556040519081527f7f26b83ff96e1f2b6a682f133852f6798a09c465da95921460cefb38474024989060200160405180910390a15b565b608051613a176200012060003960008181610c3101528181610c7101528181610ed101528181610f110152610f890152613a176000f3fe6080604052600436106101d55760003560e01c8062fdd58e146101da57806301ffc9a71461020d57806302fe53051461023d5780630e89341c1461025f5780631cd555c41461028c578063248a9ca3146102bb5780632883d733146102db5780632c8babd4146102fb5780632eb2c2d6146103345780632f2ff15d14610354578063323f411d1461037457806336568abe146103a25780633659cfe6146103c25780633f4ba83a146103e25780633fafa127146103f75780634aa9637f1461040c5780634e1273f41461043d5780634f1ef2861461046a5780634f558e791461047d578063516bad81146104ad57806352d1902d146104de5780635c975abb146104f35780635e3bbaab1461050b578063610e70121461052d5780636929a19c1461055a5780636b20c4541461058c5780637f345710146105ac5780638456cb59146105ce57806391d14854146105e35780639ccffe2414610603578063a217fddf14610623578063a22cb46514610638578063bd85b03914610658578063c4d66de814610686578063d547741f146106a6578063e63ab1e9146106c6578063e985e9c5146106e8578063edc0b2e614610731578063f242432a14610753578063f5298aca14610773578063f72c0d8b14610793575b600080fd5b3480156101e657600080fd5b506101fa6101f5366004612aff565b6107b5565b6040519081526020015b60405180910390f35b34801561021957600080fd5b5061022d610228366004612b3f565b61084d565b6040519015158152602001610204565b34801561024957600080fd5b5061025d610258366004612c11565b61085e565b005b34801561026b57600080fd5b5061027f61027a366004612c4d565b610883565b6040516102049190612cbe565b34801561029857600080fd5b506102ac6102a7366004612c4d565b610917565b60405161020493929190612ce7565b3480156102c757600080fd5b506101fa6102d6366004612c4d565b6109c8565b3480156102e757600080fd5b5061025d6102f6366004612d30565b6109dd565b34801561030757600080fd5b506101fa610316366004612c11565b80516020818301810180516101c68252928201919093012091525481565b34801561034057600080fd5b5061025d61034f366004612e41565b610b40565b34801561036057600080fd5b5061025d61036f366004612eea565b610b8c565b34801561038057600080fd5b506101fa61038f366004612c4d565b6101c76020526000908152604090205481565b3480156103ae57600080fd5b5061025d6103bd366004612eea565b610bad565b3480156103ce57600080fd5b5061025d6103dd366004612f16565b610c27565b3480156103ee57600080fd5b5061025d610cef565b34801561040357600080fd5b5061027f610d0f565b34801561041857600080fd5b5061022d610427366004612c4d565b6101c96020526000908152604090205460ff1681565b34801561044957600080fd5b5061045d610458366004612f31565b610d9e565b6040516102049190613036565b61025d610478366004613049565b610ec7565b34801561048957600080fd5b5061022d610498366004612c4d565b600090815261012d6020526040902054151590565b3480156104b957600080fd5b5061022d6104c8366004612c4d565b6101c86020526000908152604090205460ff1681565b3480156104ea57600080fd5b506101fa610f7c565b3480156104ff57600080fd5b5060c95460ff1661022d565b34801561051757600080fd5b506101fa6000805160206139c283398151915281565b34801561053957600080fd5b506101c4546105489060ff1681565b60405160ff9091168152602001610204565b34801561056657600080fd5b5061057a610575366004612c4d565b61102b565b6040516102049695949392919061308c565b34801561059857600080fd5b5061025d6105a73660046130ec565b611205565b3480156105b857600080fd5b506101fa60008051602061393b83398151915281565b3480156105da57600080fd5b5061025d611248565b3480156105ef57600080fd5b5061022d6105fe366004612eea565b611268565b34801561060f57600080fd5b5061025d61061e36600461315f565b611293565b34801561062f57600080fd5b506101fa600081565b34801561064457600080fd5b5061025d610653366004613182565b61135b565b34801561066457600080fd5b506101fa610673366004612c4d565b600090815261012d602052604090205490565b34801561069257600080fd5b5061025d6106a1366004612f16565b611366565b3480156106b257600080fd5b5061025d6106c1366004612eea565b6114e3565b3480156106d257600080fd5b506101fa60008051602061397b83398151915281565b3480156106f457600080fd5b5061022d6107033660046131be565b6001600160a01b03918216600090815260666020908152604080832093909416825291909152205460ff1690565b34801561073d57600080fd5b506101fa6000805160206138bb83398151915281565b34801561075f57600080fd5b5061025d61076e3660046131e8565b6114ff565b34801561077f57600080fd5b5061025d61078e36600461324c565b611544565b34801561079f57600080fd5b506101fa6000805160206138fb83398151915281565b60006001600160a01b0383166108255760405162461bcd60e51b815260206004820152602a60248201527f455243313135353a2061646472657373207a65726f206973206e6f742061207660448201526930b634b21037bbb732b960b11b60648201526084015b60405180910390fd5b5060009081526065602090815260408083206001600160a01b03949094168352929052205490565b600061085882611587565b92915050565b60008051602061393b833981519152610876816115ac565b61087f826115b6565b5050565b6060606780546108929061327f565b80601f01602080910402602001604051908101604052809291908181526020018280546108be9061327f565b801561090b5780601f106108e05761010080835404028352916020019161090b565b820191906000526020600020905b8154815290600101906020018083116108ee57829003601f168201915b50505050509050919050565b6101c5602052600090815260409020805481906109339061327f565b80601f016020809104026020016040519081016040528092919081815260200182805461095f9061327f565b80156109ac5780601f10610981576101008083540402835291602001916109ac565b820191906000526020600020905b81548152906001019060200180831161098f57829003601f168201915b5050506001909301549192505060ff8082169161010090041683565b60009081526097602052604090206001015490565b6000805160206139c28339815191526109f5816115ac565b826000610a006115c9565b9050806101c686604051610a1491906132b9565b90815260408051602092819003830181209390935560008481526101c883528181208054600160ff1991821681179092556101c98552838320805490911682179055606085018352898552838501829052848301528481526101c5835220825180519192610a8792849290910190612a4a565b50602082015160018201805491151560ff1983168117825560408501519261ff001990911661ffff1990911617610100836003811115610ac957610ac9612cd1565b0217905550905050610add878288876115e2565b84604051610aeb91906132b9565b604051809103902081886001600160a01b03167ff2e2f98fc5412faed56ebb9b164c71030378a70a29b4029cae67a707142e284989604051610b2f91815260200190565b60405180910390a450505050505050565b6001600160a01b038516331480610b5c5750610b5c8533610703565b610b785760405162461bcd60e51b815260040161081c906132d5565b610b8585858585856116f5565b5050505050565b610b95826109c8565b610b9e816115ac565b610ba88383611890565b505050565b6001600160a01b0381163314610c1d5760405162461bcd60e51b815260206004820152602f60248201527f416363657373436f6e74726f6c3a2063616e206f6e6c792072656e6f756e636560448201526e103937b632b9903337b91039b2b63360891b606482015260840161081c565b61087f8282611916565b6001600160a01b037f0000000000000000000000000000000000000000000000000000000000000000163003610c6f5760405162461bcd60e51b815260040161081c90613323565b7f00000000000000000000000000000000000000000000000000000000000000006001600160a01b0316610ca161197d565b6001600160a01b031614610cc75760405162461bcd60e51b815260040161081c9061335d565b610cd081611999565b60408051600080825260208201909252610cec918391906119b1565b50565b60008051602061397b833981519152610d07816115ac565b610cec611b1c565b6101c38054610d1d9061327f565b80601f0160208091040260200160405190810160405280929190818152602001828054610d499061327f565b8015610d965780601f10610d6b57610100808354040283529160200191610d96565b820191906000526020600020905b815481529060010190602001808311610d7957829003601f168201915b505050505081565b60608151835114610e035760405162461bcd60e51b815260206004820152602960248201527f455243313135353a206163636f756e747320616e6420696473206c656e677468604482015268040dad2e6dac2e8c6d60bb1b606482015260840161081c565b600083516001600160401b03811115610e1e57610e1e612b5c565b604051908082528060200260200182016040528015610e47578160200160208202803683370190505b50905060005b8451811015610ebf57610e92858281518110610e6b57610e6b613397565b6020026020010151858381518110610e8557610e85613397565b60200260200101516107b5565b828281518110610ea457610ea4613397565b6020908102919091010152610eb8816133c3565b9050610e4d565b509392505050565b6001600160a01b037f0000000000000000000000000000000000000000000000000000000000000000163003610f0f5760405162461bcd60e51b815260040161081c90613323565b7f00000000000000000000000000000000000000000000000000000000000000006001600160a01b0316610f4161197d565b6001600160a01b031614610f675760405162461bcd60e51b815260040161081c9061335d565b610f7082611999565b61087f828260016119b1565b6000306001600160a01b037f000000000000000000000000000000000000000000000000000000000000000016146110175760405162461bcd60e51b815260206004820152603860248201527f555550535570677261646561626c653a206d757374206e6f742062652063616c6044820152771b1959081d1a1c9bdd59da0819195b1959d85d1958d85b1b60421b606482015260840161081c565b5060008051602061391b8339815191525b90565b6101ca6020526000908152604090208054600182015460028301546003840180546001600160a01b039094169492939192916110669061327f565b80601f01602080910402602001604051908101604052809291908181526020018280546110929061327f565b80156110df5780601f106110b4576101008083540402835291602001916110df565b820191906000526020600020905b8154815290600101906020018083116110c257829003601f168201915b5050505050908060040180546110f49061327f565b80601f01602080910402602001604051908101604052809291908181526020018280546111209061327f565b801561116d5780601f106111425761010080835404028352916020019161116d565b820191906000526020600020905b81548152906001019060200180831161115057829003601f168201915b5050505050908060050180546111829061327f565b80601f01602080910402602001604051908101604052809291908181526020018280546111ae9061327f565b80156111fb5780601f106111d0576101008083540402835291602001916111fb565b820191906000526020600020905b8154815290600101906020018083116111de57829003601f168201915b5050505050905086565b6001600160a01b03831633148061122157506112218333610703565b61123d5760405162461bcd60e51b815260040161081c906132d5565b610ba8838383611b6e565b60008051602061397b833981519152611260816115ac565b610cec611cfd565b60009182526097602090815260408084206001600160a01b0393909316845291905290205460ff1690565b600054610100900460ff16158080156112b35750600054600160ff909116105b806112d457506112c230611d3a565b1580156112d4575060005460ff166001145b6112f05760405162461bcd60e51b815260040161081c906133dc565b6000805460ff191660011790558015611313576000805461ff0019166101001790555b6101c4805460ff191660ff8416179055801561087f576000805461ff00191690556040516001815260008051602061395b833981519152906020015b60405180910390a15050565b61087f338383611d49565b600054610100900460ff16158080156113865750600054600160ff909116105b806113a7575061139530611d3a565b1580156113a7575060005460ff166001145b6113c35760405162461bcd60e51b815260040161081c906133dc565b6000805460ff1916600117905580156113e6576000805461ff0019166101001790555b6113fe60405180602001604052806000815250611e29565b611406611e59565b61140e611e82565b611416611e59565b61141e611e59565b611426611e59565b6114306032611293565b61143b600083611890565b61145360008051602061393b83398151915283611890565b61146b60008051602061397b83398151915283611890565b6114836000805160206138bb83398151915283611890565b61149b6000805160206139c283398151915283611890565b6114b36000805160206138fb83398151915283611890565b801561087f576000805461ff00191690556040516001815260008051602061395b8339815191529060200161134f565b6114ec826109c8565b6114f5816115ac565b610ba88383611916565b6001600160a01b03851633148061151b575061151b8533610703565b6115375760405162461bcd60e51b815260040161081c906132d5565b610b858585858585611eb1565b6001600160a01b03831633148061156057506115608333610703565b61157c5760405162461bcd60e51b815260040161081c906132d5565b610ba8838383611fdb565b60006001600160e01b03198216637965db0b60e01b14806108585750610858826120e5565b610cec8133612135565b805161087f906067906020840190612a4a565b60006115da6101f580546001019055565b506101f55490565b6001600160a01b0384166116425760405162461bcd60e51b815260206004820152602160248201527f455243313135353a206d696e7420746f20746865207a65726f206164647265736044820152607360f81b606482015260840161081c565b33600061164e8561218e565b9050600061165b8561218e565b905061166c836000898585896121d9565b60008681526065602090815260408083206001600160a01b038b1684529091528120805487929061169e90849061342a565b909155505060408051878152602081018790526001600160a01b03808a16926000929187169160008051602061389b833981519152910160405180910390a46116ec836000898989896121ef565b50505050505050565b81518351146117165760405162461bcd60e51b815260040161081c90613442565b6001600160a01b03841661173c5760405162461bcd60e51b815260040161081c9061348a565b3361174b8187878787876121d9565b60005b845181101561183457600085828151811061176b5761176b613397565b60200260200101519050600085838151811061178957611789613397565b60209081029190910181015160008481526065835260408082206001600160a01b038e1683529093529190912054909150818110156117da5760405162461bcd60e51b815260040161081c906134cf565b60008381526065602090815260408083206001600160a01b038e8116855292528083208585039055908b1682528120805484929061181990849061342a565b925050819055505050508061182d906133c3565b905061174e565b50846001600160a01b0316866001600160a01b0316826001600160a01b031660008051602061387b8339815191528787604051611872929190613519565b60405180910390a4611888818787878787612351565b505050505050565b61189a8282611268565b61087f5760008281526097602090815260408083206001600160a01b03851684529091529020805460ff191660011790556118d23390565b6001600160a01b0316816001600160a01b0316837f2f8788117e7eff1d82e926ec794901d17c78024a50270940304540a733656f0d60405160405180910390a45050565b6119208282611268565b1561087f5760008281526097602090815260408083206001600160a01b0385168085529252808320805460ff1916905551339285917ff6391f5c32d9c69d2a47ea670b442974b53935d1edc7fd64eb21e047a839171b9190a45050565b60008051602061391b833981519152546001600160a01b031690565b6000805160206138fb83398151915261087f816115ac565b7f4910fdfa16fed3260ed0e7147f7cc6da11a60208b5b9406d12a635614ffd91435460ff16156119e457610ba883612413565b826001600160a01b03166352d1902d6040518163ffffffff1660e01b8152600401602060405180830381865afa925050508015611a3e575060408051601f3d908101601f19168201909252611a3b9181019061353e565b60015b611aa15760405162461bcd60e51b815260206004820152602e60248201527f45524331393637557067726164653a206e657720696d706c656d656e7461746960448201526d6f6e206973206e6f74205555505360901b606482015260840161081c565b60008051602061391b8339815191528114611b105760405162461bcd60e51b815260206004820152602960248201527f45524331393637557067726164653a20756e737570706f727465642070726f786044820152681a58589b195555525160ba1b606482015260840161081c565b50610ba88383836124ad565b611b246124d2565b60c9805460ff191690557f5db9ee0a495bf2e6ff9c91a7834c1ba4fdd244a5e8aa4e537bd38aeae4b073aa335b6040516001600160a01b03909116815260200160405180910390a1565b6001600160a01b038316611b945760405162461bcd60e51b815260040161081c90613557565b8051825114611bb55760405162461bcd60e51b815260040161081c90613442565b6000339050611bd8818560008686604051806020016040528060008152506121d9565b60005b8351811015611ca0576000848281518110611bf857611bf8613397565b602002602001015190506000848381518110611c1657611c16613397565b60209081029190910181015160008481526065835260408082206001600160a01b038c168352909352919091205490915081811015611c675760405162461bcd60e51b815260040161081c9061359a565b60009283526065602090815260408085206001600160a01b038b1686529091529092209103905580611c98816133c3565b915050611bdb565b5060006001600160a01b0316846001600160a01b0316826001600160a01b031660008051602061387b8339815191528686604051611cdf929190613519565b60405180910390a46040805160208101909152600090525b50505050565b611d0561251b565b60c9805460ff191660011790557f62e78cea01bee320cd4e420270b5ea74000d11b0c9f74754ebdbfc544b05a258611b513390565b6001600160a01b03163b151590565b816001600160a01b0316836001600160a01b031603611dbc5760405162461bcd60e51b815260206004820152602960248201527f455243313135353a2073657474696e6720617070726f76616c20737461747573604482015268103337b91039b2b63360b91b606482015260840161081c565b6001600160a01b03838116600081815260666020908152604080832094871680845294825291829020805460ff191686151590811790915591519182527f17307eab39ab6107e8899845ad3d59bd9653f200f220920489ca2b5937696c31910160405180910390a3505050565b600054610100900460ff16611e505760405162461bcd60e51b815260040161081c906135de565b610cec81612561565b600054610100900460ff16611e805760405162461bcd60e51b815260040161081c906135de565b565b600054610100900460ff16611ea95760405162461bcd60e51b815260040161081c906135de565b611e80612591565b6001600160a01b038416611ed75760405162461bcd60e51b815260040161081c9061348a565b336000611ee38561218e565b90506000611ef08561218e565b9050611f008389898585896121d9565b60008681526065602090815260408083206001600160a01b038c16845290915290205485811015611f435760405162461bcd60e51b815260040161081c906134cf565b60008781526065602090815260408083206001600160a01b038d8116855292528083208985039055908a16825281208054889290611f8290849061342a565b909155505060408051888152602081018890526001600160a01b03808b16928c8216929188169160008051602061389b833981519152910160405180910390a4611fd0848a8a8a8a8a6121ef565b505050505050505050565b6001600160a01b0383166120015760405162461bcd60e51b815260040161081c90613557565b33600061200d8461218e565b9050600061201a8461218e565b905061203a838760008585604051806020016040528060008152506121d9565b60008581526065602090815260408083206001600160a01b038a1684529091529020548481101561207d5760405162461bcd60e51b815260040161081c9061359a565b60008681526065602090815260408083206001600160a01b038b81168086529184528285208a8703905582518b81529384018a905290929088169160008051602061389b833981519152910160405180910390a46040805160208101909152600090526116ec565b60006001600160e01b03198216636cdb3d1360e11b148061211657506001600160e01b031982166303a24d0760e21b145b8061085857506301ffc9a760e01b6001600160e01b0319831614610858565b61213f8282611268565b61087f5761214c816125c4565b6121578360206125d6565b604051602001612168929190613629565b60408051601f198184030181529082905262461bcd60e51b825261081c91600401612cbe565b604080516001808252818301909252606091600091906020808301908036833701905050905082816000815181106121c8576121c8613397565b602090810291909101015292915050565b6121e161251b565b611888868686868686612778565b612201846001600160a01b0316611d3a565b156118885760405163f23a6e6160e01b81526001600160a01b0385169063f23a6e619061223a9089908990889088908890600401613698565b6020604051808303816000875af1925050508015612275575060408051601f3d908101601f19168201909252612272918101906136dd565b60015b612321576122816136fa565b806308c379a0036122ba5750612295613715565b806122a057506122bc565b8060405162461bcd60e51b815260040161081c9190612cbe565b505b60405162461bcd60e51b815260206004820152603460248201527f455243313135353a207472616e7366657220746f206e6f6e2d455243313135356044820152732932b1b2b4bb32b91034b6b83632b6b2b73a32b960611b606482015260840161081c565b6001600160e01b0319811663f23a6e6160e01b146116ec5760405162461bcd60e51b815260040161081c9061379e565b612363846001600160a01b0316611d3a565b156118885760405163bc197c8160e01b81526001600160a01b0385169063bc197c819061239c90899089908890889088906004016137e6565b6020604051808303816000875af19250505080156123d7575060408051601f3d908101601f191682019092526123d4918101906136dd565b60015b6123e3576122816136fa565b6001600160e01b0319811663bc197c8160e01b146116ec5760405162461bcd60e51b815260040161081c9061379e565b61241c81611d3a565b61247e5760405162461bcd60e51b815260206004820152602d60248201527f455243313936373a206e657720696d706c656d656e746174696f6e206973206e60448201526c1bdd08184818dbdb9d1c9858dd609a1b606482015260840161081c565b60008051602061391b83398151915280546001600160a01b0319166001600160a01b0392909216919091179055565b6124b6836128f4565b6000825111806124c35750805b15610ba857611cf78383612934565b60c95460ff16611e805760405162461bcd60e51b815260206004820152601460248201527314185d5cd8589b194e881b9bdd081c185d5cd95960621b604482015260640161081c565b60c95460ff1615611e805760405162461bcd60e51b815260206004820152601060248201526f14185d5cd8589b194e881c185d5cd95960821b604482015260640161081c565b600054610100900460ff166125885760405162461bcd60e51b815260040161081c906135de565b610cec816115b6565b600054610100900460ff166125b85760405162461bcd60e51b815260040161081c906135de565b60c9805460ff19169055565b60606108586001600160a01b03831660145b606060006125e5836002613844565b6125f090600261342a565b6001600160401b0381111561260757612607612b5c565b6040519080825280601f01601f191660200182016040528015612631576020820181803683370190505b509050600360fc1b8160008151811061264c5761264c613397565b60200101906001600160f81b031916908160001a905350600f60fb1b8160018151811061267b5761267b613397565b60200101906001600160f81b031916908160001a905350600061269f846002613844565b6126aa90600161342a565b90505b6001811115612722576f181899199a1a9b1b9c1cb0b131b232b360811b85600f16601081106126de576126de613397565b1a60f81b8282815181106126f4576126f4613397565b60200101906001600160f81b031916908160001a90535060049490941c9361271b81613863565b90506126ad565b5083156127715760405162461bcd60e51b815260206004820181905260248201527f537472696e67733a20686578206c656e67746820696e73756666696369656e74604482015260640161081c565b9392505050565b6001600160a01b0385166128005760005b83518110156127fe578281815181106127a4576127a4613397565b602002602001015161012d60008684815181106127c3576127c3613397565b6020026020010151815260200190815260200160002060008282546127e8919061342a565b909155506127f79050816133c3565b9050612789565b505b6001600160a01b0384166118885760005b83518110156116ec57600084828151811061282e5761282e613397565b60200260200101519050600084838151811061284c5761284c613397565b60200260200101519050600061012d6000848152602001908152602001600020549050818110156128d05760405162461bcd60e51b815260206004820152602860248201527f455243313135353a206275726e20616d6f756e74206578636565647320746f74604482015267616c537570706c7960c01b606482015260840161081c565b600092835261012d6020526040909220910390556128ed816133c3565b9050612811565b6128fd81612413565b6040516001600160a01b038216907fbc7cd75a20ee27fd9adebab32041f755214dbc6bffa90cc0225b39da2e5c2d3b90600090a250565b606061293f83611d3a565b61299a5760405162461bcd60e51b815260206004820152602660248201527f416464726573733a2064656c65676174652063616c6c20746f206e6f6e2d636f6044820152651b9d1c9858dd60d21b606482015260840161081c565b600080846001600160a01b0316846040516129b591906132b9565b600060405180830381855af49150503d80600081146129f0576040519150601f19603f3d011682016040523d82523d6000602084013e6129f5565b606091505b5091509150612a1d828260405180606001604052806027815260200161399b60279139612a26565b95945050505050565b60608315612a35575081612771565b61277183838151156122a05781518083602001fd5b828054612a569061327f565b90600052602060002090601f016020900481019282612a785760008555612abe565b82601f10612a9157805160ff1916838001178555612abe565b82800160010185558215612abe579182015b82811115612abe578251825591602001919060010190612aa3565b50612aca929150612ace565b5090565b5b80821115612aca5760008155600101612acf565b80356001600160a01b0381168114612afa57600080fd5b919050565b60008060408385031215612b1257600080fd5b612b1b83612ae3565b946020939093013593505050565b6001600160e01b031981168114610cec57600080fd5b600060208284031215612b5157600080fd5b813561277181612b29565b634e487b7160e01b600052604160045260246000fd5b601f8201601f191681016001600160401b0381118282101715612b9757612b97612b5c565b6040525050565b600082601f830112612baf57600080fd5b81356001600160401b03811115612bc857612bc8612b5c565b604051612bdf601f8301601f191660200182612b72565b818152846020838601011115612bf457600080fd5b816020850160208301376000918101602001919091529392505050565b600060208284031215612c2357600080fd5b81356001600160401b03811115612c3957600080fd5b612c4584828501612b9e565b949350505050565b600060208284031215612c5f57600080fd5b5035919050565b60005b83811015612c81578181015183820152602001612c69565b83811115611cf75750506000910152565b60008151808452612caa816020860160208601612c66565b601f01601f19169290920160200192915050565b6020815260006127716020830184612c92565b634e487b7160e01b600052602160045260246000fd5b606081526000612cfa6060830186612c92565b9050831515602083015260048310612d2257634e487b7160e01b600052602160045260246000fd5b826040830152949350505050565b60008060008060808587031215612d4657600080fd5b612d4f85612ae3565b93506020850135925060408501356001600160401b0380821115612d7257600080fd5b612d7e88838901612b9e565b93506060870135915080821115612d9457600080fd5b50612da187828801612b9e565b91505092959194509250565b60006001600160401b03821115612dc657612dc6612b5c565b5060051b60200190565b600082601f830112612de157600080fd5b81356020612dee82612dad565b604051612dfb8282612b72565b83815260059390931b8501820192828101915086841115612e1b57600080fd5b8286015b84811015612e365780358352918301918301612e1f565b509695505050505050565b600080600080600060a08688031215612e5957600080fd5b612e6286612ae3565b9450612e7060208701612ae3565b935060408601356001600160401b0380821115612e8c57600080fd5b612e9889838a01612dd0565b94506060880135915080821115612eae57600080fd5b612eba89838a01612dd0565b93506080880135915080821115612ed057600080fd5b50612edd88828901612b9e565b9150509295509295909350565b60008060408385031215612efd57600080fd5b82359150612f0d60208401612ae3565b90509250929050565b600060208284031215612f2857600080fd5b61277182612ae3565b60008060408385031215612f4457600080fd5b82356001600160401b0380821115612f5b57600080fd5b818501915085601f830112612f6f57600080fd5b81356020612f7c82612dad565b604051612f898282612b72565b83815260059390931b8501820192828101915089841115612fa957600080fd5b948201945b83861015612fce57612fbf86612ae3565b82529482019490820190612fae565b96505086013592505080821115612fe457600080fd5b50612ff185828601612dd0565b9150509250929050565b600081518084526020808501945080840160005b8381101561302b5781518752958201959082019060010161300f565b509495945050505050565b6020815260006127716020830184612ffb565b6000806040838503121561305c57600080fd5b61306583612ae3565b915060208301356001600160401b0381111561308057600080fd5b612ff185828601612b9e565b60018060a01b038716815285602082015284604082015260c0606082015260006130b960c0830186612c92565b82810360808401526130cb8186612c92565b905082810360a08401526130df8185612c92565b9998505050505050505050565b60008060006060848603121561310157600080fd5b61310a84612ae3565b925060208401356001600160401b038082111561312657600080fd5b61313287838801612dd0565b9350604086013591508082111561314857600080fd5b5061315586828701612dd0565b9150509250925092565b60006020828403121561317157600080fd5b813560ff8116811461277157600080fd5b6000806040838503121561319557600080fd5b61319e83612ae3565b9150602083013580151581146131b357600080fd5b809150509250929050565b600080604083850312156131d157600080fd5b6131da83612ae3565b9150612f0d60208401612ae3565b600080600080600060a0868803121561320057600080fd5b61320986612ae3565b945061321760208701612ae3565b9350604086013592506060860135915060808601356001600160401b0381111561324057600080fd5b612edd88828901612b9e565b60008060006060848603121561326157600080fd5b61326a84612ae3565b95602085013595506040909401359392505050565b600181811c9082168061329357607f821691505b6020821081036132b357634e487b7160e01b600052602260045260246000fd5b50919050565b600082516132cb818460208701612c66565b9190910192915050565b6020808252602e908201527f455243313135353a2063616c6c6572206973206e6f7420746f6b656e206f776e60408201526d195c881bdc88185c1c1c9bdd995960921b606082015260800190565b6020808252602c908201526000805160206138db83398151915260408201526b19195b1959d85d1958d85b1b60a21b606082015260800190565b6020808252602c908201526000805160206138db83398151915260408201526b6163746976652070726f787960a01b606082015260800190565b634e487b7160e01b600052603260045260246000fd5b634e487b7160e01b600052601160045260246000fd5b6000600182016133d5576133d56133ad565b5060010190565b6020808252602e908201527f496e697469616c697a61626c653a20636f6e747261637420697320616c72656160408201526d191e481a5b9a5d1a585b1a5e995960921b606082015260800190565b6000821982111561343d5761343d6133ad565b500190565b60208082526028908201527f455243313135353a2069647320616e6420616d6f756e7473206c656e677468206040820152670dad2e6dac2e8c6d60c31b606082015260800190565b60208082526025908201527f455243313135353a207472616e7366657220746f20746865207a65726f206164604082015264647265737360d81b606082015260800190565b6020808252602a908201527f455243313135353a20696e73756666696369656e742062616c616e636520666f60408201526939103a3930b739b332b960b11b606082015260800190565b60408152600061352c6040830185612ffb565b8281036020840152612a1d8185612ffb565b60006020828403121561355057600080fd5b5051919050565b60208082526023908201527f455243313135353a206275726e2066726f6d20746865207a65726f206164647260408201526265737360e81b606082015260800190565b60208082526024908201527f455243313135353a206275726e20616d6f756e7420657863656564732062616c604082015263616e636560e01b606082015260800190565b6020808252602b908201527f496e697469616c697a61626c653a20636f6e7472616374206973206e6f74206960408201526a6e697469616c697a696e6760a81b606082015260800190565b76020b1b1b2b9b9a1b7b73a3937b61d1030b1b1b7bab73a1604d1b81526000835161365b816017850160208801612c66565b7001034b99036b4b9b9b4b733903937b6329607d1b601791840191820152835161368c816028840160208801612c66565b01602801949350505050565b6001600160a01b03868116825285166020820152604081018490526060810183905260a0608082018190526000906136d290830184612c92565b979650505050505050565b6000602082840312156136ef57600080fd5b815161277181612b29565b600060033d11156110285760046000803e5060005160e01c90565b600060443d10156137235790565b6040516003193d81016004833e81513d6001600160401b03808311602484018310171561375257505050505090565b828501915081518181111561376a5750505050505090565b843d87010160208285010111156137845750505050505090565b61379360208286010187612b72565b509095945050505050565b60208082526028908201527f455243313135353a204552433131353552656365697665722072656a656374656040820152676420746f6b656e7360c01b606082015260800190565b6001600160a01b0386811682528516602082015260a06040820181905260009061381290830186612ffb565b82810360608401526138248186612ffb565b905082810360808401526138388185612c92565b98975050505050505050565b600081600019048311821515161561385e5761385e6133ad565b500290565b600081613872576138726133ad565b50600019019056fe4a39dc06d4c0dbc64b70af90fd698a233a518aa5d07e595d983b8c0526c8f7fbc3d58168c5ae7397731d063d5bbf3d657854427343f4c083240f7aacaa2d0f62d5bbb2f0fbfc1d5938ca13cabd3156d362f7862fa87504c8d589f5e8f2cbc45346756e6374696f6e206d7573742062652063616c6c6564207468726f75676820189ab7a9244df0848122154315af71fe140f3db0fe014031783b0946b8c9d2e3360894a13ba1a3210667c828492db98dca3e2076cc3735a920a3ca505d382bbc7804d923f43a17d325d77e781528e0793b2edd9890ab45fc64efd7b4b427744c7f26b83ff96e1f2b6a682f133852f6798a09c465da95921460cefb384740249865d7a28e3265b37a6474929f336521b332c1681b933f6cb9f3376673440d862a416464726573733a206c6f772d6c6576656c2064656c65676174652063616c6c206661696c6564ddf79b8d2110dbe281cf3bb7762d508cea586c974794c8fc949d41b0db114513a2646970667358221220a08964149fb667e69d3b9c05e09574320f39a742b6bcfcf4e3a991a2f99fb36f64736f6c634300080d0033",
  "immutableReferences": {
    "997": [
      {
        "length": 32,
        "start": 3121
      },
      {
        "length": 32,
        "start": 3185
      },
      {
        "length": 32,
        "start": 3793
      },
      {
        "length": 32,
        "start": 3857
      },
      {
        "length": 32,
        "start": 3977
      }
    ]
  },
  "source": "// SPDX-License-Identifier: MIT\npragma solidity >=0.4.22 <0.9.0;\n\nimport \"@openzeppelin/contracts-upgradeable/token/ERC1155/ERC1155Upgradeable.sol\";\nimport \"@openzeppelin/contracts-upgradeable/access/AccessControlUpgradeable.sol\";\nimport \"@openzeppelin/contracts-upgradeable/security/PausableUpgradeable.sol\";\nimport \"@openzeppelin/contracts-upgradeable/token/ERC1155/extensions/ERC1155BurnableUpgradeable.sol\";\nimport \"@openzeppelin/contracts-upgradeable/token/ERC1155/extensions/ERC1155SupplyUpgradeable.sol\";\nimport \"@openzeppelin/contracts-upgradeable/proxy/utils/Initializable.sol\";\nimport \"@openzeppelin/contracts-upgradeable/proxy/utils/UUPSUpgradeable.sol\";\nimport \"@openzeppelin/contracts/utils/math/SafeMath.sol\";\nimport \"@openzeppelin/contracts/utils/Counters.sol\";\n\nimport \"./ProjectStorage.sol\";\n\ncontract Project is\n    Initializable,\n    ERC1155Upgradeable,\n    AccessControlUpgradeable,\n    PausableUpgradeable,\n    ERC1155BurnableUpgradeable,\n    ERC1155SupplyUpgradeable,\n    UUPSUpgradeable,\n    ProjectStorage\n{\n    bytes32 public constant URI_SETTER_ROLE = keccak256(\"URI_SETTER_ROLE\");\n    bytes32 public constant PAUSER_ROLE = keccak256(\"PAUSER_ROLE\");\n    bytes32 public constant ANTE_MINTER_ROLE = keccak256(\"ANTE_MINTER_ROLE\");\n    bytes32 public constant POST_MINTER_ROLE = keccak256(\"POST_MINTER_ROLE\");\n    bytes32 public constant UPGRADER_ROLE = keccak256(\"UPGRADER_ROLE\");\n\n    using Counters for Counters.Counter;\n    using SafeMath for uint256;\n    Counters.Counter internal tokenCounter;\n\n    /// @custom:oz-upgrades-unsafe-allow constructor\n    constructor() {\n        _disableInitializers();\n    }\n\n    function initialize(address owner) public initializer {\n        __ERC1155_init(\"\");\n        __AccessControl_init();\n        __Pausable_init();\n        __ERC1155Burnable_init();\n        __ERC1155Supply_init();\n        __UUPSUpgradeable_init();\n\n        // Our Inits\n        __ProjectStorage_init(50);\n\n        _grantRole(DEFAULT_ADMIN_ROLE, owner);\n        _grantRole(URI_SETTER_ROLE, owner);\n        _grantRole(PAUSER_ROLE, owner);\n        _grantRole(ANTE_MINTER_ROLE, owner);\n        _grantRole(POST_MINTER_ROLE, owner);\n        _grantRole(UPGRADER_ROLE, owner);\n    }\n\n    event ExPostMinted(\n        address indexed account,\n        uint256 indexed tokenId,\n        uint256 amount,\n        string indexed serialization\n    );\n\n    modifier onlySerializationNotRegistered(string memory serialization) {\n        // require(\n        //     IContractRegistry(contractRegistry).getSerializationAddress(\n        //         serialization\n        //     ) == address(0),\n        //     \"Serialization already registered\"\n        // );\n        _;\n    }\n\n    function setURI(string memory newuri) public onlyRole(URI_SETTER_ROLE) {\n        _setURI(newuri);\n    }\n\n    function pause() public onlyRole(PAUSER_ROLE) {\n        _pause();\n    }\n\n    function unpause() public onlyRole(PAUSER_ROLE) {\n        _unpause();\n    }\n\n    function mintExPost(\n        address account,\n        uint256 amount,\n        string memory serialization,\n        bytes memory data\n    )\n        public\n        onlyRole(POST_MINTER_ROLE)\n        onlySerializationNotRegistered(serialization)\n    {\n        uint256 newTokenId = nextTokenId();\n        // IContractRegistry(contractRegistry).registerSerialization(\n        //     serialization,\n        //     address(this)\n        // );\n        serializationToTokenIdMapping[serialization] = newTokenId;\n        isTokenMintable[newTokenId] = true;\n        isTokenClawbackEnabled[newTokenId] = true;\n        vintageMapping[newTokenId] = VintageData(\n            serialization,\n            false,\n            TokenType.ExPost\n        );\n        _mint(account, newTokenId, amount, data);\n        emit ExPostMinted(account, newTokenId, amount, serialization);\n    }\n\n    // function mintBatch(\n    //     address to,\n    //     uint256[] memory ids,\n    //     uint256[] memory amounts,\n    //     bytes memory data\n    // ) public onlyRole(MINTER_ROLE) {\n    //     _mintBatch(to, ids, amounts, data);\n    // }\n\n    // -----------------\n    //      Hooks\n    // -----------------\n\n    function _beforeTokenTransfer(\n        address operator,\n        address from,\n        address to,\n        uint256[] memory ids,\n        uint256[] memory amounts,\n        bytes memory data\n    )\n        internal\n        override(ERC1155Upgradeable, ERC1155SupplyUpgradeable)\n        whenNotPaused\n    {\n        super._beforeTokenTransfer(operator, from, to, ids, amounts, data);\n    }\n\n    function nextTokenId() internal returns (uint256) {\n        tokenCounter.increment();\n        return tokenCounter.current();\n    }\n\n    function _authorizeUpgrade(\n        address newImplementation\n    ) internal override onlyRole(UPGRADER_ROLE) {}\n\n    // The following functions are overrides required by Solidity.\n\n    function supportsInterface(\n        bytes4 interfaceId\n    )\n        public\n        view\n        override(ERC1155Upgradeable, AccessControlUpgradeable)\n        returns (bool)\n    {\n        return super.supportsInterface(interfaceId);\n    }\n}\n",
  "sourcePath": "/Users/thorduragustsson/Programming/Projects/CarbonRegistryContracts/contracts/Project.sol",
  "compiler": {
    "name": "solc",
    "version": "0.8.13+commit.abaa5c0e.Emscripten.clang"
  },
  "schemaVersion": "3.4.13",
  "updatedAt": "2023-04-12T10:03:29.098Z",
  "devdoc": {
    "kind": "dev",
    "methods": {
      "balanceOf(address,uint256)": {
        "details": "See {IERC1155-balanceOf}. Requirements: - `account` cannot be the zero address."
      },
      "balanceOfBatch(address[],uint256[])": {
        "details": "See {IERC1155-balanceOfBatch}. Requirements: - `accounts` and `ids` must have the same length."
      },
      "constructor": {
        "custom:oz-upgrades-unsafe-allow": "constructor"
      },
      "exists(uint256)": {
        "details": "Indicates whether any token exist with a given id, or not."
      },
      "getRoleAdmin(bytes32)": {
        "details": "Returns the admin role that controls `role`. See {grantRole} and {revokeRole}. To change a role's admin, use {_setRoleAdmin}."
      },
      "grantRole(bytes32,address)": {
        "details": "Grants `role` to `account`. If `account` had not been already granted `role`, emits a {RoleGranted} event. Requirements: - the caller must have ``role``'s admin role. May emit a {RoleGranted} event."
      },
      "hasRole(bytes32,address)": {
        "details": "Returns `true` if `account` has been granted `role`."
      },
      "isApprovedForAll(address,address)": {
        "details": "See {IERC1155-isApprovedForAll}."
      },
      "paused()": {
        "details": "Returns true if the contract is paused, and false otherwise."
      },
      "proxiableUUID()": {
        "details": "Implementation of the ERC1822 {proxiableUUID} function. This returns the storage slot used by the implementation. It is used to validate the implementation's compatibility when performing an upgrade. IMPORTANT: A proxy pointing at a proxiable contract should not be considered proxiable itself, because this risks bricking a proxy that upgrades to it, by delegating to itself until out of gas. Thus it is critical that this function revert if invoked through a proxy. This is guaranteed by the `notDelegated` modifier."
      },
      "renounceRole(bytes32,address)": {
        "details": "Revokes `role` from the calling account. Roles are often managed via {grantRole} and {revokeRole}: this function's purpose is to provide a mechanism for accounts to lose their privileges if they are compromised (such as when a trusted device is misplaced). If the calling account had been revoked `role`, emits a {RoleRevoked} event. Requirements: - the caller must be `account`. May emit a {RoleRevoked} event."
      },
      "revokeRole(bytes32,address)": {
        "details": "Revokes `role` from `account`. If `account` had been granted `role`, emits a {RoleRevoked} event. Requirements: - the caller must have ``role``'s admin role. May emit a {RoleRevoked} event."
      },
      "safeBatchTransferFrom(address,address,uint256[],uint256[],bytes)": {
        "details": "See {IERC1155-safeBatchTransferFrom}."
      },
      "safeTransferFrom(address,address,uint256,uint256,bytes)": {
        "details": "See {IERC1155-safeTransferFrom}."
      },
      "setApprovalForAll(address,bool)": {
        "details": "See {IERC1155-setApprovalForAll}."
      },
      "totalSupply(uint256)": {
        "details": "Total amount of tokens in with a given id."
      },
      "upgradeTo(address)": {
        "details": "Upgrade the implementation of the proxy to `newImplementation`. Calls {_authorizeUpgrade}. Emits an {Upgraded} event."
      },
      "upgradeToAndCall(address,bytes)": {
        "details": "Upgrade the implementation of the proxy to `newImplementation`, and subsequently execute the function call encoded in `data`. Calls {_authorizeUpgrade}. Emits an {Upgraded} event."
      },
      "uri(uint256)": {
        "details": "See {IERC1155MetadataURI-uri}. This implementation returns the same URI for *all* token types. It relies on the token type ID substitution mechanism https://eips.ethereum.org/EIPS/eip-1155#metadata[defined in the EIP]. Clients calling this function must replace the `\\{id\\}` substring with the actual token type ID."
      }
    },
    "version": 1
  },
  "userdoc": {
    "kind": "user",
    "methods": {},
    "version": 1
  }
}