{
  "contractName": "TokenVault",
  "abi": [
    {
      "inputs": [],
      "stateMutability": "nonpayable",
      "type": "constructor"
    },
    {
      "anonymous": false,
      "inputs": [
        {
          "indexed": false,
          "internalType": "uint8",
          "name": "version",
          "type": "uint8"
        }
      ],
      "name": "Initialized",
      "type": "event"
    },
    {
      "anonymous": false,
      "inputs": [
        {
          "indexed": true,
          "internalType": "bytes32",
          "name": "role",
          "type": "bytes32"
        },
        {
          "indexed": true,
          "internalType": "bytes32",
          "name": "previousAdminRole",
          "type": "bytes32"
        },
        {
          "indexed": true,
          "internalType": "bytes32",
          "name": "newAdminRole",
          "type": "bytes32"
        }
      ],
      "name": "RoleAdminChanged",
      "type": "event"
    },
    {
      "anonymous": false,
      "inputs": [
        {
          "indexed": true,
          "internalType": "bytes32",
          "name": "role",
          "type": "bytes32"
        },
        {
          "indexed": true,
          "internalType": "address",
          "name": "account",
          "type": "address"
        },
        {
          "indexed": true,
          "internalType": "address",
          "name": "sender",
          "type": "address"
        }
      ],
      "name": "RoleGranted",
      "type": "event"
    },
    {
      "anonymous": false,
      "inputs": [
        {
          "indexed": true,
          "internalType": "bytes32",
          "name": "role",
          "type": "bytes32"
        },
        {
          "indexed": true,
          "internalType": "address",
          "name": "account",
          "type": "address"
        },
        {
          "indexed": true,
          "internalType": "address",
          "name": "sender",
          "type": "address"
        }
      ],
      "name": "RoleRevoked",
      "type": "event"
    },
    {
      "inputs": [],
      "name": "DEFAULT_ADMIN_ROLE",
      "outputs": [
        {
          "internalType": "bytes32",
          "name": "",
          "type": "bytes32"
        }
      ],
      "stateMutability": "view",
      "type": "function"
    },
    {
      "inputs": [],
      "name": "FUND_MOVER_ROLE",
      "outputs": [
        {
          "internalType": "bytes32",
          "name": "",
          "type": "bytes32"
        }
      ],
      "stateMutability": "view",
      "type": "function"
    },
    {
      "inputs": [],
      "name": "UPGRADER_ROLE",
      "outputs": [
        {
          "internalType": "bytes32",
          "name": "",
          "type": "bytes32"
        }
      ],
      "stateMutability": "view",
      "type": "function"
    },
    {
      "inputs": [
        {
          "internalType": "bytes32",
          "name": "role",
          "type": "bytes32"
        }
      ],
      "name": "getRoleAdmin",
      "outputs": [
        {
          "internalType": "bytes32",
          "name": "",
          "type": "bytes32"
        }
      ],
      "stateMutability": "view",
      "type": "function"
    },
    {
      "inputs": [
        {
          "internalType": "bytes32",
          "name": "role",
          "type": "bytes32"
        },
        {
          "internalType": "address",
          "name": "account",
          "type": "address"
        }
      ],
      "name": "grantRole",
      "outputs": [],
      "stateMutability": "nonpayable",
      "type": "function"
    },
    {
      "inputs": [
        {
          "internalType": "bytes32",
          "name": "role",
          "type": "bytes32"
        },
        {
          "internalType": "address",
          "name": "account",
          "type": "address"
        }
      ],
      "name": "hasRole",
      "outputs": [
        {
          "internalType": "bool",
          "name": "",
          "type": "bool"
        }
      ],
      "stateMutability": "view",
      "type": "function"
    },
    {
      "inputs": [
        {
          "internalType": "address",
          "name": "",
          "type": "address"
        },
        {
          "internalType": "address",
          "name": "",
          "type": "address"
        },
        {
          "internalType": "uint256[]",
          "name": "",
          "type": "uint256[]"
        },
        {
          "internalType": "uint256[]",
          "name": "",
          "type": "uint256[]"
        },
        {
          "internalType": "bytes",
          "name": "",
          "type": "bytes"
        }
      ],
      "name": "onERC1155BatchReceived",
      "outputs": [
        {
          "internalType": "bytes4",
          "name": "",
          "type": "bytes4"
        }
      ],
      "stateMutability": "nonpayable",
      "type": "function"
    },
    {
      "inputs": [
        {
          "internalType": "address",
          "name": "",
          "type": "address"
        },
        {
          "internalType": "address",
          "name": "",
          "type": "address"
        },
        {
          "internalType": "uint256",
          "name": "",
          "type": "uint256"
        },
        {
          "internalType": "uint256",
          "name": "",
          "type": "uint256"
        },
        {
          "internalType": "bytes",
          "name": "",
          "type": "bytes"
        }
      ],
      "name": "onERC1155Received",
      "outputs": [
        {
          "internalType": "bytes4",
          "name": "",
          "type": "bytes4"
        }
      ],
      "stateMutability": "nonpayable",
      "type": "function"
    },
    {
      "inputs": [
        {
          "internalType": "bytes32",
          "name": "role",
          "type": "bytes32"
        },
        {
          "internalType": "address",
          "name": "account",
          "type": "address"
        }
      ],
      "name": "renounceRole",
      "outputs": [],
      "stateMutability": "nonpayable",
      "type": "function"
    },
    {
      "inputs": [
        {
          "internalType": "bytes32",
          "name": "role",
          "type": "bytes32"
        },
        {
          "internalType": "address",
          "name": "account",
          "type": "address"
        }
      ],
      "name": "revokeRole",
      "outputs": [],
      "stateMutability": "nonpayable",
      "type": "function"
    },
    {
      "inputs": [
        {
          "internalType": "address",
          "name": "owner",
          "type": "address"
        }
      ],
      "name": "initialize",
      "outputs": [],
      "stateMutability": "nonpayable",
      "type": "function"
    },
    {
      "inputs": [
        {
          "internalType": "address",
          "name": "token",
          "type": "address"
        },
        {
          "internalType": "address",
          "name": "to",
          "type": "address"
        },
        {
          "internalType": "uint256",
          "name": "id",
          "type": "uint256"
        },
        {
          "internalType": "uint256",
          "name": "amount",
          "type": "uint256"
        },
        {
          "internalType": "bytes",
          "name": "data",
          "type": "bytes"
        }
      ],
      "name": "transferERC1155",
      "outputs": [],
      "stateMutability": "nonpayable",
      "type": "function"
    },
    {
      "inputs": [
        {
          "internalType": "bytes4",
          "name": "interfaceId",
          "type": "bytes4"
        }
      ],
      "name": "supportsInterface",
      "outputs": [
        {
          "internalType": "bool",
          "name": "",
          "type": "bool"
        }
      ],
      "stateMutability": "view",
      "type": "function"
    }
  ],
  "bytecode": "0x608060405234801561001057600080fd5b5061001961001e565b6100de565b600054610100900460ff161561008a5760405162461bcd60e51b815260206004820152602760248201527f496e697469616c697a61626c653a20636f6e747261637420697320696e697469604482015266616c697a696e6760c81b606482015260840160405180910390fd5b60005460ff90811610156100dc576000805460ff191660ff9081179091556040519081527f7f26b83ff96e1f2b6a682f133852f6798a09c465da95921460cefb38474024989060200160405180910390a15b565b610dc9806100ed6000396000f3fe608060405234801561001057600080fd5b50600436106100bf5760003560e01c8063a217fddf1161007c578063a217fddf1461016d578063bc197c8114610175578063c4d66de8146101ad578063d547741f146101c0578063dbecc616146101d3578063f23a6e61146101e6578063f72c0d8b1461020557600080fd5b806301ffc9a7146100c4578063248a9ca3146100ec5780632f2ff15d1461011d57806336568abe14610132578063731d1ae31461014557806391d148541461015a575b600080fd5b6100d76100d23660046108f5565b61022c565b60405190151581526020015b60405180910390f35b61010f6100fa36600461091f565b60009081526065602052604090206001015490565b6040519081526020016100e3565b61013061012b366004610954565b61023d565b005b610130610140366004610954565b610267565b61010f600080516020610d7483398151915281565b6100d7610168366004610954565b6102ea565b61010f600081565b610194610183366004610ab7565b63bc197c8160e01b95945050505050565b6040516001600160e01b031990911681526020016100e3565b6101306101bb366004610b61565b610315565b6101306101ce366004610954565b61047b565b6101306101e1366004610b7c565b6104a0565b6101946101f4366004610b7c565b63f23a6e6160e01b95945050505050565b61010f7f189ab7a9244df0848122154315af71fe140f3db0fe014031783b0946b8c9d2e381565b600061023782610526565b92915050565b6000828152606560205260409020600101546102588161054b565b6102628383610558565b505050565b6001600160a01b03811633146102dc5760405162461bcd60e51b815260206004820152602f60248201527f416363657373436f6e74726f6c3a2063616e206f6e6c792072656e6f756e636560448201526e103937b632b9903337b91039b2b63360891b60648201526084015b60405180910390fd5b6102e682826105de565b5050565b60009182526065602090815260408084206001600160a01b0393909316845291905290205460ff1690565b600054610100900460ff16158080156103355750600054600160ff909116105b8061034f5750303b15801561034f575060005460ff166001145b6103b25760405162461bcd60e51b815260206004820152602e60248201527f496e697469616c697a61626c653a20636f6e747261637420697320616c72656160448201526d191e481a5b9a5d1a585b1a5e995960921b60648201526084016102d3565b6000805460ff1916600117905580156103d5576000805461ff0019166101001790555b6103dd610645565b6103e5610645565b6103f0600083610558565b61041a7f189ab7a9244df0848122154315af71fe140f3db0fe014031783b0946b8c9d2e383610558565b610432600080516020610d7483398151915283610558565b80156102e6576000805461ff0019169055604051600181527f7f26b83ff96e1f2b6a682f133852f6798a09c465da95921460cefb38474024989060200160405180910390a15050565b6000828152606560205260409020600101546104968161054b565b61026283836105de565b600080516020610d748339815191526104b88161054b565b604051637921219560e11b81526001600160a01b0387169063f242432a906104ec9030908990899089908990600401610c3d565b600060405180830381600087803b15801561050657600080fd5b505af115801561051a573d6000803e3d6000fd5b50505050505050505050565b60006001600160e01b03198216630271189760e51b14806102375750610237826106b2565b61055581336106e7565b50565b61056282826102ea565b6102e65760008281526065602090815260408083206001600160a01b03851684529091529020805460ff1916600117905561059a3390565b6001600160a01b0316816001600160a01b0316837f2f8788117e7eff1d82e926ec794901d17c78024a50270940304540a733656f0d60405160405180910390a45050565b6105e882826102ea565b156102e65760008281526065602090815260408083206001600160a01b0385168085529252808320805460ff1916905551339285917ff6391f5c32d9c69d2a47ea670b442974b53935d1edc7fd64eb21e047a839171b9190a45050565b600054610100900460ff166106b05760405162461bcd60e51b815260206004820152602b60248201527f496e697469616c697a61626c653a20636f6e7472616374206973206e6f74206960448201526a6e697469616c697a696e6760a81b60648201526084016102d3565b565b60006001600160e01b03198216637965db0b60e01b148061023757506301ffc9a760e01b6001600160e01b0319831614610237565b6106f182826102ea565b6102e6576106fe81610740565b610709836020610752565b60405160200161071a929190610c77565b60408051601f198184030181529082905262461bcd60e51b82526102d391600401610ce6565b60606102376001600160a01b03831660145b60606000610761836002610d0f565b61076c906002610d2e565b67ffffffffffffffff81111561078457610784610980565b6040519080825280601f01601f1916602001820160405280156107ae576020820181803683370190505b509050600360fc1b816000815181106107c9576107c9610d46565b60200101906001600160f81b031916908160001a905350600f60fb1b816001815181106107f8576107f8610d46565b60200101906001600160f81b031916908160001a905350600061081c846002610d0f565b610827906001610d2e565b90505b600181111561089f576f181899199a1a9b1b9c1cb0b131b232b360811b85600f166010811061085b5761085b610d46565b1a60f81b82828151811061087157610871610d46565b60200101906001600160f81b031916908160001a90535060049490941c9361089881610d5c565b905061082a565b5083156108ee5760405162461bcd60e51b815260206004820181905260248201527f537472696e67733a20686578206c656e67746820696e73756666696369656e7460448201526064016102d3565b9392505050565b60006020828403121561090757600080fd5b81356001600160e01b0319811681146108ee57600080fd5b60006020828403121561093157600080fd5b5035919050565b80356001600160a01b038116811461094f57600080fd5b919050565b6000806040838503121561096757600080fd5b8235915061097760208401610938565b90509250929050565b634e487b7160e01b600052604160045260246000fd5b604051601f8201601f1916810167ffffffffffffffff811182821017156109bf576109bf610980565b604052919050565b600082601f8301126109d857600080fd5b8135602067ffffffffffffffff8211156109f4576109f4610980565b8160051b610a03828201610996565b9283528481018201928281019087851115610a1d57600080fd5b83870192505b84831015610a3c57823582529183019190830190610a23565b979650505050505050565b600082601f830112610a5857600080fd5b813567ffffffffffffffff811115610a7257610a72610980565b610a85601f8201601f1916602001610996565b818152846020838601011115610a9a57600080fd5b816020850160208301376000918101602001919091529392505050565b600080600080600060a08688031215610acf57600080fd5b610ad886610938565b9450610ae660208701610938565b9350604086013567ffffffffffffffff80821115610b0357600080fd5b610b0f89838a016109c7565b94506060880135915080821115610b2557600080fd5b610b3189838a016109c7565b93506080880135915080821115610b4757600080fd5b50610b5488828901610a47565b9150509295509295909350565b600060208284031215610b7357600080fd5b6108ee82610938565b600080600080600060a08688031215610b9457600080fd5b610b9d86610938565b9450610bab60208701610938565b93506040860135925060608601359150608086013567ffffffffffffffff811115610bd557600080fd5b610b5488828901610a47565b60005b83811015610bfc578181015183820152602001610be4565b83811115610c0b576000848401525b50505050565b60008151808452610c29816020860160208601610be1565b601f01601f19169290920160200192915050565b6001600160a01b03868116825285166020820152604081018490526060810183905260a060808201819052600090610a3c90830184610c11565b76020b1b1b2b9b9a1b7b73a3937b61d1030b1b1b7bab73a1604d1b815260008351610ca9816017850160208801610be1565b7001034b99036b4b9b9b4b733903937b6329607d1b6017918401918201528351610cda816028840160208801610be1565b01602801949350505050565b6020815260006108ee6020830184610c11565b634e487b7160e01b600052601160045260246000fd5b6000816000190483118215151615610d2957610d29610cf9565b500290565b60008219821115610d4157610d41610cf9565b500190565b634e487b7160e01b600052603260045260246000fd5b600081610d6b57610d6b610cf9565b50600019019056febc431b5ac0643cd75d9092da271ffd7cd3abd128e5e4ba7bc66bf028c544cbdfa2646970667358221220534ff70bc59f40c7b3f7e66864c128607bce29467db599a79ef0b8816faf557664736f6c634300080d0033",
  "immutableReferences": {},
  "source": "// SPDX-License-Identifier: MIT\npragma solidity ^0.8.13;\n\nimport \"@openzeppelin/contracts-upgradeable/access/AccessControlUpgradeable.sol\";\nimport \"@openzeppelin/contracts-upgradeable/proxy/utils/Initializable.sol\";\nimport \"@openzeppelin/contracts-upgradeable/proxy/utils/UUPSUpgradeable.sol\";\nimport \"@openzeppelin/contracts-upgradeable/token/ERC1155/utils/ERC1155HolderUpgradeable.sol\";\nimport \"@openzeppelin/contracts/token/ERC1155/IERC1155.sol\";\nimport \"./TokenVaultStorage.sol\";\n\ncontract TokenVault is Initializable, AccessControlUpgradeable, ERC1155HolderUpgradeable, TokenVaultStorage {\n    bytes32 public constant UPGRADER_ROLE = keccak256(\"UPGRADER_ROLE\");\n    bytes32 public constant FUND_MOVER_ROLE = keccak256(\"FUND_MOVER_ROLE\");\n\n    /// @custom:oz-upgrades-unsafe-allow constructor\n    constructor() {\n        _disableInitializers();\n    }\n\n    function initialize(address owner) initializer public {\n        __AccessControl_init();\n        __ERC1155Holder_init();\n        \n        _grantRole(DEFAULT_ADMIN_ROLE, owner);\n        _grantRole(UPGRADER_ROLE, owner);\n        _grantRole(FUND_MOVER_ROLE, owner);\n    }\n\n    function transferERC1155(\n        address token,\n        address to,\n        uint256 id,\n        uint256 amount,\n        bytes memory data\n    ) external onlyRole(FUND_MOVER_ROLE) {\n        IERC1155(token).safeTransferFrom(address(this), to, id, amount, data);\n    }\n\n\n    \tfunction supportsInterface(\n\t\tbytes4 interfaceId\n\t)\n\t\tpublic\n\t\tview\n\t\toverride(AccessControlUpgradeable,ERC1155ReceiverUpgradeable)\n\t\treturns (bool)\n\t{\n\t\treturn super.supportsInterface(interfaceId);\n\t}\n}",
  "sourcePath": "/Users/thorduragustsson/Programming/Projects/CarbonRegistryContracts/contracts/TokenVault.sol",
  "compiler": {
    "name": "solc",
    "version": "0.8.13+commit.abaa5c0e.Emscripten.clang"
  },
  "schemaVersion": "3.4.13",
  "updatedAt": "2023-04-23T09:41:46.810Z",
  "devdoc": {
    "kind": "dev",
    "methods": {
      "constructor": {
        "custom:oz-upgrades-unsafe-allow": "constructor"
      },
      "getRoleAdmin(bytes32)": {
        "details": "Returns the admin role that controls `role`. See {grantRole} and {revokeRole}. To change a role's admin, use {_setRoleAdmin}."
      },
      "grantRole(bytes32,address)": {
        "details": "Grants `role` to `account`. If `account` had not been already granted `role`, emits a {RoleGranted} event. Requirements: - the caller must have ``role``'s admin role. May emit a {RoleGranted} event."
      },
      "hasRole(bytes32,address)": {
        "details": "Returns `true` if `account` has been granted `role`."
      },
      "renounceRole(bytes32,address)": {
        "details": "Revokes `role` from the calling account. Roles are often managed via {grantRole} and {revokeRole}: this function's purpose is to provide a mechanism for accounts to lose their privileges if they are compromised (such as when a trusted device is misplaced). If the calling account had been revoked `role`, emits a {RoleRevoked} event. Requirements: - the caller must be `account`. May emit a {RoleRevoked} event."
      },
      "revokeRole(bytes32,address)": {
        "details": "Revokes `role` from `account`. If `account` had been granted `role`, emits a {RoleRevoked} event. Requirements: - the caller must have ``role``'s admin role. May emit a {RoleRevoked} event."
      }
    },
    "version": 1
  },
  "userdoc": {
    "kind": "user",
    "methods": {},
    "version": 1
  }
}